{
  "_format": "hh-sol-artifact-1",
  "contractName": "SignaturesUpgradeable",
  "sourceName": "contracts/SignaturesUpgradeable.sol",
  "abi": [
    {
      "anonymous": false,
      "inputs": [
        {
          "indexed": false,
          "internalType": "uint8",
          "name": "version",
          "type": "uint8"
        }
      ],
      "name": "Initialized",
      "type": "event"
    },
    {
      "anonymous": false,
      "inputs": [
        {
          "indexed": false,
          "internalType": "address",
          "name": "account",
          "type": "address"
        }
      ],
      "name": "Paused",
      "type": "event"
    },
    {
      "anonymous": false,
      "inputs": [
        {
          "indexed": true,
          "internalType": "bytes32",
          "name": "role",
          "type": "bytes32"
        },
        {
          "indexed": true,
          "internalType": "address",
          "name": "account",
          "type": "address"
        },
        {
          "indexed": true,
          "internalType": "address",
          "name": "sender",
          "type": "address"
        }
      ],
      "name": "RoleGranted",
      "type": "event"
    },
    {
      "anonymous": false,
      "inputs": [
        {
          "indexed": true,
          "internalType": "bytes32",
          "name": "role",
          "type": "bytes32"
        },
        {
          "indexed": true,
          "internalType": "address",
          "name": "account",
          "type": "address"
        },
        {
          "indexed": true,
          "internalType": "address",
          "name": "sender",
          "type": "address"
        }
      ],
      "name": "RoleRevoked",
      "type": "event"
    },
    {
      "anonymous": false,
      "inputs": [
        {
          "indexed": true,
          "internalType": "uint8",
          "name": "originDomainID",
          "type": "uint8"
        },
        {
          "indexed": true,
          "internalType": "uint8",
          "name": "destinationDomainID",
          "type": "uint8"
        },
        {
          "indexed": false,
          "internalType": "uint64",
          "name": "depositNonce",
          "type": "uint64"
        },
        {
          "indexed": true,
          "internalType": "bytes32",
          "name": "resourceID",
          "type": "bytes32"
        },
        {
          "indexed": false,
          "internalType": "bytes",
          "name": "data",
          "type": "bytes"
        },
        {
          "indexed": false,
          "internalType": "bytes",
          "name": "signature",
          "type": "bytes"
        }
      ],
      "name": "SignaturePass",
      "type": "event"
    },
    {
      "anonymous": false,
      "inputs": [
        {
          "indexed": true,
          "internalType": "uint8",
          "name": "originDomainID",
          "type": "uint8"
        },
        {
          "indexed": true,
          "internalType": "uint8",
          "name": "destinationDomainID",
          "type": "uint8"
        },
        {
          "indexed": false,
          "internalType": "uint64",
          "name": "depositNonce",
          "type": "uint64"
        },
        {
          "indexed": true,
          "internalType": "bytes32",
          "name": "resourceID",
          "type": "bytes32"
        },
        {
          "indexed": false,
          "internalType": "bytes",
          "name": "data",
          "type": "bytes"
        },
        {
          "indexed": false,
          "internalType": "bytes",
          "name": "signature",
          "type": "bytes"
        }
      ],
      "name": "SubmitSignature",
      "type": "event"
    },
    {
      "anonymous": false,
      "inputs": [
        {
          "indexed": false,
          "internalType": "address",
          "name": "account",
          "type": "address"
        }
      ],
      "name": "Unpaused",
      "type": "event"
    },
    {
      "inputs": [],
      "name": "DEFAULT_ADMIN_ROLE",
      "outputs": [
        {
          "internalType": "bytes32",
          "name": "",
          "type": "bytes32"
        }
      ],
      "stateMutability": "view",
      "type": "function"
    },
    {
      "inputs": [],
      "name": "PERMIT_TYPEHASH",
      "outputs": [
        {
          "internalType": "bytes32",
          "name": "",
          "type": "bytes32"
        }
      ],
      "stateMutability": "view",
      "type": "function"
    },
    {
      "inputs": [],
      "name": "RELAYER_ROLE",
      "outputs": [
        {
          "internalType": "bytes32",
          "name": "",
          "type": "bytes32"
        }
      ],
      "stateMutability": "view",
      "type": "function"
    },
    {
      "inputs": [],
      "name": "_TYPE_HASH",
      "outputs": [
        {
          "internalType": "bytes32",
          "name": "",
          "type": "bytes32"
        }
      ],
      "stateMutability": "view",
      "type": "function"
    },
    {
      "inputs": [
        {
          "internalType": "uint8",
          "name": "",
          "type": "uint8"
        }
      ],
      "name": "_relayerThreshold",
      "outputs": [
        {
          "internalType": "uint8",
          "name": "",
          "type": "uint8"
        }
      ],
      "stateMutability": "view",
      "type": "function"
    },
    {
      "inputs": [
        {
          "internalType": "uint8",
          "name": "destinationDomainID",
          "type": "uint8"
        },
        {
          "internalType": "uint256",
          "name": "newThreshold",
          "type": "uint256"
        }
      ],
      "name": "adminChangeRelayerThreshold",
      "outputs": [],
      "stateMutability": "nonpayable",
      "type": "function"
    },
    {
      "inputs": [],
      "name": "adminPause",
      "outputs": [],
      "stateMutability": "nonpayable",
      "type": "function"
    },
    {
      "inputs": [
        {
          "internalType": "uint8",
          "name": "destinationDomainID",
          "type": "uint8"
        },
        {
          "internalType": "uint256",
          "name": "chainId",
          "type": "uint256"
        },
        {
          "internalType": "address",
          "name": "destinationBridge",
          "type": "address"
        }
      ],
      "name": "adminSetDestChainId",
      "outputs": [],
      "stateMutability": "nonpayable",
      "type": "function"
    },
    {
      "inputs": [],
      "name": "adminUnpause",
      "outputs": [],
      "stateMutability": "nonpayable",
      "type": "function"
    },
    {
      "inputs": [
        {
          "internalType": "uint8",
          "name": "domainID",
          "type": "uint8"
        },
        {
          "internalType": "uint8",
          "name": "destinationDomainID",
          "type": "uint8"
        },
        {
          "internalType": "uint64",
          "name": "depositNonce",
          "type": "uint64"
        },
        {
          "internalType": "bytes32",
          "name": "resourceID",
          "type": "bytes32"
        },
        {
          "internalType": "bytes",
          "name": "data",
          "type": "bytes"
        },
        {
          "internalType": "bytes",
          "name": "signature",
          "type": "bytes"
        }
      ],
      "name": "checkSignature",
      "outputs": [
        {
          "internalType": "address",
          "name": "",
          "type": "address"
        }
      ],
      "stateMutability": "view",
      "type": "function"
    },
    {
      "inputs": [
        {
          "internalType": "uint8",
          "name": "",
          "type": "uint8"
        }
      ],
      "name": "destChainId",
      "outputs": [
        {
          "internalType": "uint256",
          "name": "",
          "type": "uint256"
        }
      ],
      "stateMutability": "view",
      "type": "function"
    },
    {
      "inputs": [
        {
          "internalType": "uint8",
          "name": "",
          "type": "uint8"
        }
      ],
      "name": "destinationBridgeAddress",
      "outputs": [
        {
          "internalType": "address",
          "name": "",
          "type": "address"
        }
      ],
      "stateMutability": "view",
      "type": "function"
    },
    {
      "inputs": [
        {
          "internalType": "uint256",
          "name": "index",
          "type": "uint256"
        }
      ],
      "name": "getProposal",
      "outputs": [
        {
          "components": [
            {
              "internalType": "uint8",
              "name": "originDomainID",
              "type": "uint8"
            },
            {
              "internalType": "uint8",
              "name": "destinationDomainID",
              "type": "uint8"
            },
            {
              "internalType": "address",
              "name": "destinationBridge",
              "type": "address"
            },
            {
              "internalType": "uint64",
              "name": "depositNonce",
              "type": "uint64"
            },
            {
              "internalType": "bytes32",
              "name": "resourceID",
              "type": "bytes32"
            },
            {
              "internalType": "bytes",
              "name": "data",
              "type": "bytes"
            },
            {
              "internalType": "uint256",
              "name": "proposalIndex",
              "type": "uint256"
            }
          ],
          "internalType": "struct SignaturesUpgradeable.Proposal",
          "name": "",
          "type": "tuple"
        }
      ],
      "stateMutability": "view",
      "type": "function"
    },
    {
      "inputs": [
        {
          "internalType": "bytes32",
          "name": "role",
          "type": "bytes32"
        }
      ],
      "name": "getRoleAdmin",
      "outputs": [
        {
          "internalType": "bytes32",
          "name": "",
          "type": "bytes32"
        }
      ],
      "stateMutability": "view",
      "type": "function"
    },
    {
      "inputs": [
        {
          "internalType": "bytes32",
          "name": "role",
          "type": "bytes32"
        },
        {
          "internalType": "uint256",
          "name": "index",
          "type": "uint256"
        }
      ],
      "name": "getRoleMember",
      "outputs": [
        {
          "internalType": "address",
          "name": "",
          "type": "address"
        }
      ],
      "stateMutability": "view",
      "type": "function"
    },
    {
      "inputs": [
        {
          "internalType": "bytes32",
          "name": "role",
          "type": "bytes32"
        }
      ],
      "name": "getRoleMemberCount",
      "outputs": [
        {
          "internalType": "uint256",
          "name": "",
          "type": "uint256"
        }
      ],
      "stateMutability": "view",
      "type": "function"
    },
    {
      "inputs": [
        {
          "internalType": "bytes32",
          "name": "role",
          "type": "bytes32"
        },
        {
          "internalType": "address",
          "name": "account",
          "type": "address"
        }
      ],
      "name": "getRoleMemberIndex",
      "outputs": [
        {
          "internalType": "uint256",
          "name": "",
          "type": "uint256"
        }
      ],
      "stateMutability": "view",
      "type": "function"
    },
    {
      "inputs": [
        {
          "internalType": "uint8",
          "name": "domainID",
          "type": "uint8"
        },
        {
          "internalType": "uint8",
          "name": "destinationDomainID",
          "type": "uint8"
        },
        {
          "internalType": "uint64",
          "name": "depositNonce",
          "type": "uint64"
        },
        {
          "internalType": "bytes32",
          "name": "resourceID",
          "type": "bytes32"
        },
        {
          "internalType": "bytes",
          "name": "data",
          "type": "bytes"
        }
      ],
      "name": "getSignatures",
      "outputs": [
        {
          "internalType": "bytes[]",
          "name": "",
          "type": "bytes[]"
        }
      ],
      "stateMutability": "view",
      "type": "function"
    },
    {
      "inputs": [
        {
          "internalType": "uint256",
          "name": "index",
          "type": "uint256"
        }
      ],
      "name": "getSignatures",
      "outputs": [
        {
          "internalType": "bytes[]",
          "name": "",
          "type": "bytes[]"
        }
      ],
      "stateMutability": "view",
      "type": "function"
    },
    {
      "inputs": [
        {
          "internalType": "bytes32",
          "name": "role",
          "type": "bytes32"
        },
        {
          "internalType": "address",
          "name": "account",
          "type": "address"
        }
      ],
      "name": "grantRole",
      "outputs": [],
      "stateMutability": "nonpayable",
      "type": "function"
    },
    {
      "inputs": [
        {
          "internalType": "bytes32",
          "name": "role",
          "type": "bytes32"
        },
        {
          "internalType": "address",
          "name": "account",
          "type": "address"
        }
      ],
      "name": "hasRole",
      "outputs": [
        {
          "internalType": "bool",
          "name": "",
          "type": "bool"
        }
      ],
      "stateMutability": "view",
      "type": "function"
    },
    {
      "inputs": [
        {
          "internalType": "bytes",
          "name": "",
          "type": "bytes"
        }
      ],
      "name": "hasVote",
      "outputs": [
        {
          "internalType": "bool",
          "name": "",
          "type": "bool"
        }
      ],
      "stateMutability": "view",
      "type": "function"
    },
    {
      "inputs": [
        {
          "internalType": "uint256",
          "name": "",
          "type": "uint256"
        }
      ],
      "name": "indexToProposal",
      "outputs": [
        {
          "internalType": "bytes32",
          "name": "",
          "type": "bytes32"
        }
      ],
      "stateMutability": "view",
      "type": "function"
    },
    {
      "inputs": [
        {
          "internalType": "address",
          "name": "admin",
          "type": "address"
        }
      ],
      "name": "initialize",
      "outputs": [],
      "stateMutability": "nonpayable",
      "type": "function"
    },
    {
      "inputs": [],
      "name": "paused",
      "outputs": [
        {
          "internalType": "bool",
          "name": "",
          "type": "bool"
        }
      ],
      "stateMutability": "view",
      "type": "function"
    },
    {
      "inputs": [],
      "name": "proposalIndex",
      "outputs": [
        {
          "internalType": "uint256",
          "name": "",
          "type": "uint256"
        }
      ],
      "stateMutability": "view",
      "type": "function"
    },
    {
      "inputs": [
        {
          "internalType": "bytes32",
          "name": "",
          "type": "bytes32"
        }
      ],
      "name": "proposals",
      "outputs": [
        {
          "internalType": "uint8",
          "name": "originDomainID",
          "type": "uint8"
        },
        {
          "internalType": "uint8",
          "name": "destinationDomainID",
          "type": "uint8"
        },
        {
          "internalType": "address",
          "name": "destinationBridge",
          "type": "address"
        },
        {
          "internalType": "uint64",
          "name": "depositNonce",
          "type": "uint64"
        },
        {
          "internalType": "bytes32",
          "name": "resourceID",
          "type": "bytes32"
        },
        {
          "internalType": "bytes",
          "name": "data",
          "type": "bytes"
        },
        {
          "internalType": "uint256",
          "name": "proposalIndex",
          "type": "uint256"
        }
      ],
      "stateMutability": "view",
      "type": "function"
    },
    {
      "inputs": [
        {
          "internalType": "bytes32",
          "name": "",
          "type": "bytes32"
        },
        {
          "internalType": "address",
          "name": "",
          "type": "address"
        }
      ],
      "name": "relayerVote",
      "outputs": [
        {
          "internalType": "bool",
          "name": "",
          "type": "bool"
        }
      ],
      "stateMutability": "view",
      "type": "function"
    },
    {
      "inputs": [
        {
          "internalType": "bytes32",
          "name": "role",
          "type": "bytes32"
        },
        {
          "internalType": "address",
          "name": "account",
          "type": "address"
        }
      ],
      "name": "renounceRole",
      "outputs": [],
      "stateMutability": "nonpayable",
      "type": "function"
    },
    {
      "inputs": [
        {
          "internalType": "bytes32",
          "name": "role",
          "type": "bytes32"
        },
        {
          "internalType": "address",
          "name": "account",
          "type": "address"
        }
      ],
      "name": "revokeRole",
      "outputs": [],
      "stateMutability": "nonpayable",
      "type": "function"
    },
    {
      "inputs": [
        {
          "internalType": "bytes32",
          "name": "",
          "type": "bytes32"
        },
        {
          "internalType": "uint256",
          "name": "",
          "type": "uint256"
        }
      ],
      "name": "signatures",
      "outputs": [
        {
          "internalType": "bytes",
          "name": "",
          "type": "bytes"
        }
      ],
      "stateMutability": "view",
      "type": "function"
    },
    {
      "inputs": [
        {
          "internalType": "uint8",
          "name": "originDomainID",
          "type": "uint8"
        },
        {
          "internalType": "uint8",
          "name": "destinationDomainID",
          "type": "uint8"
        },
        {
          "internalType": "uint64",
          "name": "depositNonce",
          "type": "uint64"
        },
        {
          "internalType": "bytes32",
          "name": "resourceID",
          "type": "bytes32"
        },
        {
          "internalType": "bytes",
          "name": "data",
          "type": "bytes"
        },
        {
          "internalType": "bytes",
          "name": "signature",
          "type": "bytes"
        }
      ],
      "name": "submitSignature",
      "outputs": [],
      "stateMutability": "nonpayable",
      "type": "function"
    }
  ],
  "bytecode": "0x608060405234801561001057600080fd5b50612511806100206000396000f3fe608060405234801561001057600080fd5b50600436106101f05760003560e01c806374400fd11161010f578063aa44739d116100a2578063c7f758a811610071578063c7f758a81461051a578063ca15c8731461053a578063d547741f1461054d578063f4eccb8f1461056057600080fd5b8063aa44739d146104b7578063ab676c26146104ec578063c20860af146104ff578063c4d66de81461050757600080fd5b8063926d7d7f116100de578063926d7d7f1461046d57806392f9c06714610494578063981533491461049c578063a217fddf146104af57600080fd5b806374400fd1146103e65780637600c4a5146104065780639010d07c1461044757806391d148541461045a57600080fd5b80633640850b1161018757806350916c7c1161015657806350916c7c146103775780635977e0f2146103a55780635c975abb146103ae5780635d2dab0b146103bf57600080fd5b80633640850b1461031e57806336568abe1461033e57806336a3a44e146103515780634e0df3f61461036457600080fd5b80632f2ff15d116101c35780632f2ff15d146102a95780632fda959e146102be57806330adf81f146102d157806332ed5b12146102f857600080fd5b80630b18fec5146101f5578063248a9ca314610228578063264e96561461024b5780632703a4fd1461026b575b600080fd5b610215610203366004611e6a565b60666020526000908152604090205481565b6040519081526020015b60405180910390f35b610215610236366004611e85565b60009081526064602052604090206002015490565b61025e610259366004611ef6565b610573565b60405161021f9190611fc1565b61029961027936600461203a565b606960209081526000928352604080842090915290825290205460ff1681565b604051901515815260200161021f565b6102bc6102b736600461203a565b6106ca565b005b6102bc6102cc366004612066565b61075d565b6102157fc4cb5d35714699d6e85b9562b644e60393b418d974a5c1dd8efaadac37a142c581565b61030b610306366004611e85565b6107b1565b60405161021f9796959493929190612090565b61021561032c366004611e85565b606d6020526000908152604090205481565b6102bc61034c36600461203a565b610891565b6102bc61035f3660046120ec565b61090b565b61021561037236600461203a565b610971565b61029961038536600461213e565b805160208183018101805160688252928201919093012091525460ff1681565b610215606b5481565b60005462010000900460ff16610299565b6102157f8b73c3c69bb8fe3d512ecc4cf759cc79239f7b179b0ffacaa9a75d522b39400f81565b6103f96103f43660046121ee565b61099e565b60405161021f9190612210565b61042f610414366004611e6a565b606a602052600090815260409020546001600160a01b031681565b6040516001600160a01b03909116815260200161021f565b61042f6104553660046121ee565b610a57565b61029961046836600461203a565b610a76565b6102157fe2b7fb3b832174769106daebcfd6d1970523240dda11281102db9363b83b0dc481565b6102bc610a8e565b6102bc6104aa366004612223565b610ac0565b610215600081565b6104da6104c5366004611e6a565b60656020526000908152604090205460ff1681565b60405160ff909116815260200161021f565b61042f6104fa366004612223565b610f33565b6102bc611178565b6102bc6105153660046122cd565b6111a8565b61052d610528366004611e85565b6112bc565b60405161021f91906122e8565b610215610548366004611e85565b611453565b6102bc61055b36600461203a565b61146a565b61025e61056e366004611e85565b6114eb565b60606067600088888888888860405161058d929190612364565b6040805191829003822060ff968716602084015294909516948101949094526001600160401b03919091166060840152608083015260a082015260c001604051602081830303815290604052805190602001208152602001908152602001600020805480602002602001604051908101604052809291908181526020016000905b828210156106ba57838290600052602060002001805461062d90612374565b80601f016020809104026020016040519081016040528092919081815260200182805461065990612374565b80156106a65780601f1061067b576101008083540402835291602001916106a6565b820191906000526020600020905b81548152906001019060200180831161068957829003601f168201915b50505050508152602001906001019061060e565b5050505090509695505050505050565b6000828152606460205260409020600201546106e69033610a76565b61074f5760405162461bcd60e51b815260206004820152602f60248201527f416363657373436f6e74726f6c3a2073656e646572206d75737420626520616e60448201526e0818591b5a5b881d1bc819dc985b9d608a1b60648201526084015b60405180910390fd5b610759828261161e565b5050565b610768600033610a76565b6107845760405162461bcd60e51b8152600401610746906123af565b61078d81611677565b60ff9283166000908152606560205260409020805460ff1916919093161790915550565b606c6020526000908152604090208054600182015460028301805460ff808516956101008604909116946201000081046001600160a01b031694600160b01b9091046001600160401b031693909261080890612374565b80601f016020809104026020016040519081016040528092919081815260200182805461083490612374565b80156108815780601f1061085657610100808354040283529160200191610881565b820191906000526020600020905b81548152906001019060200180831161086457829003601f168201915b5050505050908060030154905087565b6001600160a01b03811633146109015760405162461bcd60e51b815260206004820152602f60248201527f416363657373436f6e74726f6c3a2063616e206f6e6c792072656e6f756e636560448201526e103937b632b9903337b91039b2b63360891b6064820152608401610746565b61075982826116ce565b610916600033610a76565b6109325760405162461bcd60e51b8152600401610746906123af565b60ff92909216600090815260666020908152604080832093909355606a90522080546001600160a01b0319166001600160a01b03909216919091179055565b60008281526064602090815260408083206001600160a01b03851684526001019091529020545b92915050565b606760205281600052604060002081815481106109ba57600080fd5b906000526020600020016000915091505080546109d690612374565b80601f0160208091040260200160405190810160405280929190818152602001828054610a0290612374565b8015610a4f5780601f10610a2457610100808354040283529160200191610a4f565b820191906000526020600020905b815481529060010190602001808311610a3257829003601f168201915b505050505081565b6000828152606460205260408120610a6f9083611727565b9392505050565b6000828152606460205260408120610a6f9083611733565b610a99600033610a76565b610ab55760405162461bcd60e51b8152600401610746906123af565b610abe33611755565b565b610ac86117a9565b60ff87166000908152606a60205260408120546001600160a01b031690610af58a8a8a8a8a8a8a8a610f33565b9050610b217fe2b7fb3b832174769106daebcfd6d1970523240dda11281102db9363b83b0dc482610a76565b610b615760405162461bcd60e51b8152602060048201526011602482015270696e76616c6964207369676e617475726560781b6044820152606401610746565b60008a8a8a8a8a8a604051610b77929190612364565b6040805191829003822060ff968716602084015294909516948101949094526001600160401b03919091166060840152608083015260a082015260c00160408051601f1981840301815291815281516020928301206000818152606984528281206001600160a01b038716825290935291205490915060ff1615610c3d5760405162461bcd60e51b815260206004820152601860248201527f7369676e617475726520616c6561726479207375626d697400000000000000006044820152606401610746565b60008181526069602090815260408083206001600160a01b03861684528252808320805460ff1916600117905560ff8d811684526065835281842054858552606790935292205491161015610ccc5760405162461bcd60e51b81526020600482015260156024820152745369676e7475726520616c6561726479207061737360581b6044820152606401610746565b600081815260676020526040902054610e4157606b8054906000610cef836123fc565b91905055506040518060e001604052808c60ff1681526020018b60ff168152602001846001600160a01b031681526020018a6001600160401b0316815260200189815260200188888080601f01602080910402602001604051908101604052809392919081815260200183838082843760009201829052509385525050606b5460209384015250838152606c825260409081902083518154858501519386015160608701516001600160401b0316600160b01b0267ffffffffffffffff60b01b196001600160a01b0390921662010000029190911662010000600160f01b031960ff9687166101000261ffff1990941696909416959095179190911791909116929092179190911781556080830151600182015560a083015180519192610e1e92600285019290910190611d4b565b5060c09190910151600390910155606b546000908152606d602052604090208190555b6000818152606760209081526040822080546001810182559083529120610e6a91018686611dcb565b50878a60ff168c60ff167fdbf724cd2f174f6ee6dc7d45f557ca42e3f0c483d5ac5da1317ade0e540889078c8b8b8b8b604051610eab959493929190612440565b60405180910390a460ff808b16600090815260656020908152604080832054858452606790925290912054911611610f2657878a60ff168c60ff167fd94e275aae893bc4cab1c14c3052a527a80ae5542ad2047e0dbe0ceeb79bee018c8b8b8b8b604051610f1d959493929190612440565b60405180910390a45b5050505050505050505050565b6000807fc4cb5d35714699d6e85b9562b644e60393b418d974a5c1dd8efaadac37a142c58a89898989604051610f6a929190612364565b604051908190038120610fad959493929160200194855260ff9390931660208501526001600160401b039190911660408401526060830152608082015260a00190565b60408051601f19818403018152918152815160209283012060ff8c166000908152606a8452828120546066909452918220549093506001600160a01b0390921691611126908490156110115760ff8d16600090815260666020526040902054611016565b8c60ff165b604080518082018252600c81526b5065726d697442726964676560a01b6020918201528151808301835260038152620312e360ec1b9082015281517f8b73c3c69bb8fe3d512ecc4cf759cc79239f7b179b0ffacaa9a75d522b39400f818301527f058443738ec3641a3233a9f285e16671e4ad9755445580d761017e695f75052b818401527fe6bbd6277e1bf288eed5e8d1780f9a50b239e86b153736bceebccf4ea79d90b3606082015260808101939093526001600160a01b03871660a0808501919091528251808503909101815260c08401835280519082012061190160f01b60e085015260e284015261010280840194909452815180840390940184526101229092019052815191012090565b90506111688187878080601f0160208091040260200160405190810160405280939291908181526020018383808284376000920191909152506117f592505050565b9c9b505050505050505050505050565b611183600033610a76565b61119f5760405162461bcd60e51b8152600401610746906123af565b610abe33611819565b600054610100900460ff16158080156111c85750600054600160ff909116105b806111e25750303b1580156111e2575060005460ff166001145b6112455760405162461bcd60e51b815260206004820152602e60248201527f496e697469616c697a61626c653a20636f6e747261637420697320616c72656160448201526d191e481a5b9a5d1a585b1a5e995960921b6064820152608401610746565b6000805460ff191660011790558015611268576000805461ff0019166101001790555b61127360008361074f565b8015610759576000805461ff0019169055604051600181527f7f26b83ff96e1f2b6a682f133852f6798a09c465da95921460cefb38474024989060200160405180910390a15050565b6040805160e08101825260008082526020820181905291810182905260608082018390526080820183905260a082015260c0810191909152606b5482111561133b5760405162461bcd60e51b8152602060048201526012602482015271141c9bdc1bdcd85b081b9bdd08195e1a5cdd60721b6044820152606401610746565b6000828152606d60209081526040808320548352606c825291829020825160e081018452815460ff8082168352610100820416938201939093526201000083046001600160a01b031693810193909352600160b01b9091046001600160401b031660608301526001810154608083015260028101805460a0840191906113c090612374565b80601f01602080910402602001604051908101604052809291908181526020018280546113ec90612374565b80156114395780601f1061140e57610100808354040283529160200191611439565b820191906000526020600020905b81548152906001019060200180831161141c57829003601f168201915b505050505081526020016003820154815250509050919050565b60008181526064602052604081206109989061186b565b6000828152606460205260409020600201546114869033610a76565b6109015760405162461bcd60e51b815260206004820152603060248201527f416363657373436f6e74726f6c3a2073656e646572206d75737420626520616e60448201526f2061646d696e20746f207265766f6b6560801b6064820152608401610746565b6060606b548211156115345760405162461bcd60e51b8152602060048201526012602482015271141c9bdc1bdcd85b081b9bdd08195e1a5cdd60721b6044820152606401610746565b6000828152606d602090815260408083205483526067825280832080548251818502810185019093528083529193909284015b8282101561161357838290600052602060002001805461158690612374565b80601f01602080910402602001604051908101604052809291908181526020018280546115b290612374565b80156115ff5780601f106115d4576101008083540402835291602001916115ff565b820191906000526020600020905b8154815290600101906020018083116115e257829003601f168201915b505050505081526020019060010190611567565b505050509050919050565b60008281526064602052604090206116369082611875565b156107595760405133906001600160a01b0383169084907f2f8788117e7eff1d82e926ec794901d17c78024a50270940304540a733656f0d90600090a45050565b600061010082106116ca5760405162461bcd60e51b815260206004820152601c60248201527f76616c756520646f6573206e6f742066697420696e20382062697473000000006044820152606401610746565b5090565b60008281526064602052604090206116e6908261188a565b156107595760405133906001600160a01b0383169084907ff6391f5c32d9c69d2a47ea670b442974b53935d1edc7fd64eb21e047a839171b90600090a45050565b6000610a6f838361189f565b6001600160a01b03811660009081526001830160205260408120541515610a6f565b61175d6118c9565b6000805462ff0000191690556040516001600160a01b03821681527f5db9ee0a495bf2e6ff9c91a7834c1ba4fdd244a5e8aa4e537bd38aeae4b073aa906020015b60405180910390a150565b60005462010000900460ff1615610abe5760405162461bcd60e51b815260206004820152601060248201526f14185d5cd8589b194e881c185d5cd95960821b6044820152606401610746565b60008060006118048585611918565b915091506118118161195e565b509392505050565b6118216117a9565b6000805462ff00001916620100001790556040516001600160a01b03821681527f62e78cea01bee320cd4e420270b5ea74000d11b0c9f74754ebdbfc544b05a2589060200161179e565b6000610998825490565b6000610a6f836001600160a01b038416611b1c565b6000610a6f836001600160a01b038416611b6b565b60008260000182815481106118b6576118b6612482565b9060005260206000200154905092915050565b60005462010000900460ff16610abe5760405162461bcd60e51b815260206004820152601460248201527314185d5cd8589b194e881b9bdd081c185d5cd95960621b6044820152606401610746565b60008082516041141561194f5760208301516040840151606085015160001a61194387828585611c5e565b94509450505050611957565b506000905060025b9250929050565b600081600481111561197257611972612498565b141561197b5750565b600181600481111561198f5761198f612498565b14156119dd5760405162461bcd60e51b815260206004820152601860248201527f45434453413a20696e76616c6964207369676e617475726500000000000000006044820152606401610746565b60028160048111156119f1576119f1612498565b1415611a3f5760405162461bcd60e51b815260206004820152601f60248201527f45434453413a20696e76616c6964207369676e6174757265206c656e677468006044820152606401610746565b6003816004811115611a5357611a53612498565b1415611aac5760405162461bcd60e51b815260206004820152602260248201527f45434453413a20696e76616c6964207369676e6174757265202773272076616c604482015261756560f01b6064820152608401610746565b6004816004811115611ac057611ac0612498565b1415611b195760405162461bcd60e51b815260206004820152602260248201527f45434453413a20696e76616c6964207369676e6174757265202776272076616c604482015261756560f01b6064820152608401610746565b50565b6000818152600183016020526040812054611b6357508154600181810184556000848152602080822090930184905584548482528286019093526040902091909155610998565b506000610998565b60008181526001830160205260408120548015611c54576000611b8f6001836124ae565b8554909150600090611ba3906001906124ae565b9050818114611c08576000866000018281548110611bc357611bc3612482565b9060005260206000200154905080876000018481548110611be657611be6612482565b6000918252602080832090910192909255918252600188019052604090208390555b8554869080611c1957611c196124c5565b600190038181906000526020600020016000905590558560010160008681526020019081526020016000206000905560019350505050610998565b6000915050610998565b6000807f7fffffffffffffffffffffffffffffff5d576e7357a4501ddfe92f46681b20a0831115611c955750600090506003611d42565b8460ff16601b14158015611cad57508460ff16601c14155b15611cbe5750600090506004611d42565b6040805160008082526020820180845289905260ff881692820192909252606081018690526080810185905260019060a0016020604051602081039080840390855afa158015611d12573d6000803e3d6000fd5b5050604051601f1901519150506001600160a01b038116611d3b57600060019250925050611d42565b9150600090505b94509492505050565b828054611d5790612374565b90600052602060002090601f016020900481019282611d795760008555611dbf565b82601f10611d9257805160ff1916838001178555611dbf565b82800160010185558215611dbf579182015b82811115611dbf578251825591602001919060010190611da4565b506116ca929150611e3f565b828054611dd790612374565b90600052602060002090601f016020900481019282611df95760008555611dbf565b82601f10611e125782800160ff19823516178555611dbf565b82800160010185558215611dbf579182015b82811115611dbf578235825591602001919060010190611e24565b5b808211156116ca5760008155600101611e40565b803560ff81168114611e6557600080fd5b919050565b600060208284031215611e7c57600080fd5b610a6f82611e54565b600060208284031215611e9757600080fd5b5035919050565b80356001600160401b0381168114611e6557600080fd5b60008083601f840112611ec757600080fd5b5081356001600160401b03811115611ede57600080fd5b60208301915083602082850101111561195757600080fd5b60008060008060008060a08789031215611f0f57600080fd5b611f1887611e54565b9550611f2660208801611e54565b9450611f3460408801611e9e565b93506060870135925060808701356001600160401b03811115611f5657600080fd5b611f6289828a01611eb5565b979a9699509497509295939492505050565b6000815180845260005b81811015611f9a57602081850181015186830182015201611f7e565b81811115611fac576000602083870101525b50601f01601f19169290920160200192915050565b6000602080830181845280855180835260408601915060408160051b870101925083870160005b8281101561201657603f19888603018452612004858351611f74565b94509285019290850190600101611fe8565b5092979650505050505050565b80356001600160a01b0381168114611e6557600080fd5b6000806040838503121561204d57600080fd5b8235915061205d60208401612023565b90509250929050565b6000806040838503121561207957600080fd5b61208283611e54565b946020939093013593505050565b60ff8816815260ff8716602082015260018060a01b03861660408201526001600160401b038516606082015283608082015260e060a082015260006120d860e0830185611f74565b90508260c083015298975050505050505050565b60008060006060848603121561210157600080fd5b61210a84611e54565b92506020840135915061211f60408501612023565b90509250925092565b634e487b7160e01b600052604160045260246000fd5b60006020828403121561215057600080fd5b81356001600160401b038082111561216757600080fd5b818401915084601f83011261217b57600080fd5b81358181111561218d5761218d612128565b604051601f8201601f19908116603f011681019083821181831017156121b5576121b5612128565b816040528281528760208487010111156121ce57600080fd5b826020860160208301376000928101602001929092525095945050505050565b6000806040838503121561220157600080fd5b50508035926020909101359150565b602081526000610a6f6020830184611f74565b60008060008060008060008060c0898b03121561223f57600080fd5b61224889611e54565b975061225660208a01611e54565b965061226460408a01611e9e565b95506060890135945060808901356001600160401b038082111561228757600080fd5b6122938c838d01611eb5565b909650945060a08b01359150808211156122ac57600080fd5b506122b98b828c01611eb5565b999c989b5096995094979396929594505050565b6000602082840312156122df57600080fd5b610a6f82612023565b6020815260ff825116602082015260ff602083015116604082015260018060a01b0360408301511660608201526001600160401b036060830151166080820152608082015160a0820152600060a083015160e060c084015261234e610100840182611f74565b905060c084015160e08401528091505092915050565b8183823760009101908152919050565b600181811c9082168061238857607f821691505b602082108114156123a957634e487b7160e01b600052602260045260246000fd5b50919050565b6020808252601e908201527f73656e64657220646f65736e277420686176652061646d696e20726f6c650000604082015260600190565b634e487b7160e01b600052601160045260246000fd5b6000600019821415612410576124106123e6565b5060010190565b81835281816020850137506000828201602090810191909152601f909101601f19169091010190565b6001600160401b0386168152606060208201526000612463606083018688612417565b8281036040840152612476818587612417565b98975050505050505050565b634e487b7160e01b600052603260045260246000fd5b634e487b7160e01b600052602160045260246000fd5b6000828210156124c0576124c06123e6565b500390565b634e487b7160e01b600052603160045260246000fdfea26469706673582212203d5a454b909e1bc591b9b037b5095edaa2c09401876081fea09a5bf601ac63f564736f6c634300080b0033",
  "linkReferences": {},
  "deployedLinkReferences": {}
}