{
  "_format": "hh-sol-artifact-1",
  "contractName": "SignaturesUpgradeable",
  "sourceName": "contracts/SignaturesUpgradeable.sol",
  "abi": [
    {
      "anonymous": false,
      "inputs": [
        {
          "indexed": false,
          "internalType": "address",
          "name": "account",
          "type": "address"
        }
      ],
      "name": "Paused",
      "type": "event"
    },
    {
      "anonymous": false,
      "inputs": [
        {
          "indexed": true,
          "internalType": "bytes32",
          "name": "role",
          "type": "bytes32"
        },
        {
          "indexed": true,
          "internalType": "address",
          "name": "account",
          "type": "address"
        },
        {
          "indexed": true,
          "internalType": "address",
          "name": "sender",
          "type": "address"
        }
      ],
      "name": "RoleGranted",
      "type": "event"
    },
    {
      "anonymous": false,
      "inputs": [
        {
          "indexed": true,
          "internalType": "bytes32",
          "name": "role",
          "type": "bytes32"
        },
        {
          "indexed": true,
          "internalType": "address",
          "name": "account",
          "type": "address"
        },
        {
          "indexed": true,
          "internalType": "address",
          "name": "sender",
          "type": "address"
        }
      ],
      "name": "RoleRevoked",
      "type": "event"
    },
    {
      "anonymous": false,
      "inputs": [
        {
          "indexed": true,
          "internalType": "uint8",
          "name": "originDomainID",
          "type": "uint8"
        },
        {
          "indexed": true,
          "internalType": "uint8",
          "name": "destinationDomainID",
          "type": "uint8"
        },
        {
          "indexed": false,
          "internalType": "uint64",
          "name": "depositNonce",
          "type": "uint64"
        },
        {
          "indexed": true,
          "internalType": "bytes32",
          "name": "resourceID",
          "type": "bytes32"
        },
        {
          "indexed": false,
          "internalType": "bytes",
          "name": "data",
          "type": "bytes"
        },
        {
          "indexed": false,
          "internalType": "bytes",
          "name": "signature",
          "type": "bytes"
        }
      ],
      "name": "SignturePass",
      "type": "event"
    },
    {
      "anonymous": false,
      "inputs": [
        {
          "indexed": true,
          "internalType": "uint8",
          "name": "originDomainID",
          "type": "uint8"
        },
        {
          "indexed": true,
          "internalType": "uint8",
          "name": "destinationDomainID",
          "type": "uint8"
        },
        {
          "indexed": false,
          "internalType": "uint64",
          "name": "depositNonce",
          "type": "uint64"
        },
        {
          "indexed": true,
          "internalType": "bytes32",
          "name": "resourceID",
          "type": "bytes32"
        },
        {
          "indexed": false,
          "internalType": "bytes",
          "name": "data",
          "type": "bytes"
        },
        {
          "indexed": false,
          "internalType": "bytes",
          "name": "signature",
          "type": "bytes"
        }
      ],
      "name": "SubmitSignature",
      "type": "event"
    },
    {
      "anonymous": false,
      "inputs": [
        {
          "indexed": false,
          "internalType": "address",
          "name": "account",
          "type": "address"
        }
      ],
      "name": "Unpaused",
      "type": "event"
    },
    {
      "inputs": [],
      "name": "DEFAULT_ADMIN_ROLE",
      "outputs": [
        {
          "internalType": "bytes32",
          "name": "",
          "type": "bytes32"
        }
      ],
      "stateMutability": "view",
      "type": "function"
    },
    {
      "inputs": [],
      "name": "PERMIT_TYPEHASH",
      "outputs": [
        {
          "internalType": "bytes32",
          "name": "",
          "type": "bytes32"
        }
      ],
      "stateMutability": "view",
      "type": "function"
    },
    {
      "inputs": [],
      "name": "RELAYER_ROLE",
      "outputs": [
        {
          "internalType": "bytes32",
          "name": "",
          "type": "bytes32"
        }
      ],
      "stateMutability": "view",
      "type": "function"
    },
    {
      "inputs": [],
      "name": "_TYPE_HASH",
      "outputs": [
        {
          "internalType": "bytes32",
          "name": "",
          "type": "bytes32"
        }
      ],
      "stateMutability": "view",
      "type": "function"
    },
    {
      "inputs": [
        {
          "internalType": "uint8",
          "name": "",
          "type": "uint8"
        }
      ],
      "name": "_relayerThreshold",
      "outputs": [
        {
          "internalType": "uint8",
          "name": "",
          "type": "uint8"
        }
      ],
      "stateMutability": "view",
      "type": "function"
    },
    {
      "inputs": [
        {
          "internalType": "uint8",
          "name": "destinationDomainID",
          "type": "uint8"
        },
        {
          "internalType": "uint256",
          "name": "newThreshold",
          "type": "uint256"
        }
      ],
      "name": "adminChangeRelayerThreshold",
      "outputs": [],
      "stateMutability": "nonpayable",
      "type": "function"
    },
    {
      "inputs": [
        {
          "internalType": "uint8",
          "name": "destinationDomainID",
          "type": "uint8"
        },
        {
          "internalType": "uint256",
          "name": "chainId",
          "type": "uint256"
        }
      ],
      "name": "adminSetDestChainId",
      "outputs": [],
      "stateMutability": "nonpayable",
      "type": "function"
    },
    {
      "inputs": [
        {
          "internalType": "uint8",
          "name": "domainID",
          "type": "uint8"
        },
        {
          "internalType": "uint8",
          "name": "destinationDomainID",
          "type": "uint8"
        },
        {
          "internalType": "address",
          "name": "destinationBridge",
          "type": "address"
        },
        {
          "internalType": "uint64",
          "name": "depositNonce",
          "type": "uint64"
        },
        {
          "internalType": "bytes32",
          "name": "resourceID",
          "type": "bytes32"
        },
        {
          "internalType": "bytes",
          "name": "data",
          "type": "bytes"
        },
        {
          "internalType": "bytes",
          "name": "signature",
          "type": "bytes"
        }
      ],
      "name": "checkSignature",
      "outputs": [
        {
          "internalType": "address",
          "name": "",
          "type": "address"
        }
      ],
      "stateMutability": "view",
      "type": "function"
    },
    {
      "inputs": [
        {
          "internalType": "uint8",
          "name": "",
          "type": "uint8"
        }
      ],
      "name": "destChainId",
      "outputs": [
        {
          "internalType": "uint256",
          "name": "",
          "type": "uint256"
        }
      ],
      "stateMutability": "view",
      "type": "function"
    },
    {
      "inputs": [
        {
          "internalType": "uint256",
          "name": "index",
          "type": "uint256"
        }
      ],
      "name": "getProposal",
      "outputs": [
        {
          "components": [
            {
              "internalType": "uint8",
              "name": "originDomainID",
              "type": "uint8"
            },
            {
              "internalType": "uint8",
              "name": "destinationDomainID",
              "type": "uint8"
            },
            {
              "internalType": "address",
              "name": "destinationBridge",
              "type": "address"
            },
            {
              "internalType": "uint64",
              "name": "depositNonce",
              "type": "uint64"
            },
            {
              "internalType": "bytes32",
              "name": "resourceID",
              "type": "bytes32"
            },
            {
              "internalType": "bytes",
              "name": "data",
              "type": "bytes"
            },
            {
              "internalType": "uint256",
              "name": "proposalIndex",
              "type": "uint256"
            }
          ],
          "internalType": "struct SignaturesUpgradeable.Proposal",
          "name": "",
          "type": "tuple"
        }
      ],
      "stateMutability": "view",
      "type": "function"
    },
    {
      "inputs": [
        {
          "internalType": "bytes32",
          "name": "role",
          "type": "bytes32"
        }
      ],
      "name": "getRoleAdmin",
      "outputs": [
        {
          "internalType": "bytes32",
          "name": "",
          "type": "bytes32"
        }
      ],
      "stateMutability": "view",
      "type": "function"
    },
    {
      "inputs": [
        {
          "internalType": "bytes32",
          "name": "role",
          "type": "bytes32"
        },
        {
          "internalType": "uint256",
          "name": "index",
          "type": "uint256"
        }
      ],
      "name": "getRoleMember",
      "outputs": [
        {
          "internalType": "address",
          "name": "",
          "type": "address"
        }
      ],
      "stateMutability": "view",
      "type": "function"
    },
    {
      "inputs": [
        {
          "internalType": "bytes32",
          "name": "role",
          "type": "bytes32"
        }
      ],
      "name": "getRoleMemberCount",
      "outputs": [
        {
          "internalType": "uint256",
          "name": "",
          "type": "uint256"
        }
      ],
      "stateMutability": "view",
      "type": "function"
    },
    {
      "inputs": [
        {
          "internalType": "bytes32",
          "name": "role",
          "type": "bytes32"
        },
        {
          "internalType": "address",
          "name": "account",
          "type": "address"
        }
      ],
      "name": "getRoleMemberIndex",
      "outputs": [
        {
          "internalType": "uint256",
          "name": "",
          "type": "uint256"
        }
      ],
      "stateMutability": "view",
      "type": "function"
    },
    {
      "inputs": [
        {
          "internalType": "uint8",
          "name": "domainID",
          "type": "uint8"
        },
        {
          "internalType": "uint64",
          "name": "depositNonce",
          "type": "uint64"
        },
        {
          "internalType": "bytes32",
          "name": "resourceID",
          "type": "bytes32"
        },
        {
          "internalType": "bytes",
          "name": "data",
          "type": "bytes"
        }
      ],
      "name": "getSignatures",
      "outputs": [
        {
          "internalType": "bytes[]",
          "name": "",
          "type": "bytes[]"
        }
      ],
      "stateMutability": "view",
      "type": "function"
    },
    {
      "inputs": [
        {
          "internalType": "uint256",
          "name": "index",
          "type": "uint256"
        }
      ],
      "name": "getSignatures",
      "outputs": [
        {
          "internalType": "bytes[]",
          "name": "",
          "type": "bytes[]"
        }
      ],
      "stateMutability": "view",
      "type": "function"
    },
    {
      "inputs": [
        {
          "internalType": "bytes32",
          "name": "role",
          "type": "bytes32"
        },
        {
          "internalType": "address",
          "name": "account",
          "type": "address"
        }
      ],
      "name": "grantRole",
      "outputs": [],
      "stateMutability": "nonpayable",
      "type": "function"
    },
    {
      "inputs": [
        {
          "internalType": "bytes32",
          "name": "role",
          "type": "bytes32"
        },
        {
          "internalType": "address",
          "name": "account",
          "type": "address"
        }
      ],
      "name": "hasRole",
      "outputs": [
        {
          "internalType": "bool",
          "name": "",
          "type": "bool"
        }
      ],
      "stateMutability": "view",
      "type": "function"
    },
    {
      "inputs": [
        {
          "internalType": "bytes",
          "name": "",
          "type": "bytes"
        }
      ],
      "name": "hasVote",
      "outputs": [
        {
          "internalType": "bool",
          "name": "",
          "type": "bool"
        }
      ],
      "stateMutability": "view",
      "type": "function"
    },
    {
      "inputs": [
        {
          "internalType": "uint256",
          "name": "",
          "type": "uint256"
        }
      ],
      "name": "indexToProposal",
      "outputs": [
        {
          "internalType": "bytes32",
          "name": "",
          "type": "bytes32"
        }
      ],
      "stateMutability": "view",
      "type": "function"
    },
    {
      "inputs": [
        {
          "internalType": "address",
          "name": "admin",
          "type": "address"
        }
      ],
      "name": "initialize",
      "outputs": [],
      "stateMutability": "nonpayable",
      "type": "function"
    },
    {
      "inputs": [],
      "name": "paused",
      "outputs": [
        {
          "internalType": "bool",
          "name": "",
          "type": "bool"
        }
      ],
      "stateMutability": "view",
      "type": "function"
    },
    {
      "inputs": [],
      "name": "proposalIndex",
      "outputs": [
        {
          "internalType": "uint256",
          "name": "",
          "type": "uint256"
        }
      ],
      "stateMutability": "view",
      "type": "function"
    },
    {
      "inputs": [
        {
          "internalType": "bytes32",
          "name": "",
          "type": "bytes32"
        }
      ],
      "name": "proposals",
      "outputs": [
        {
          "internalType": "uint8",
          "name": "originDomainID",
          "type": "uint8"
        },
        {
          "internalType": "uint8",
          "name": "destinationDomainID",
          "type": "uint8"
        },
        {
          "internalType": "address",
          "name": "destinationBridge",
          "type": "address"
        },
        {
          "internalType": "uint64",
          "name": "depositNonce",
          "type": "uint64"
        },
        {
          "internalType": "bytes32",
          "name": "resourceID",
          "type": "bytes32"
        },
        {
          "internalType": "bytes",
          "name": "data",
          "type": "bytes"
        },
        {
          "internalType": "uint256",
          "name": "proposalIndex",
          "type": "uint256"
        }
      ],
      "stateMutability": "view",
      "type": "function"
    },
    {
      "inputs": [
        {
          "internalType": "bytes32",
          "name": "role",
          "type": "bytes32"
        },
        {
          "internalType": "address",
          "name": "account",
          "type": "address"
        }
      ],
      "name": "renounceRole",
      "outputs": [],
      "stateMutability": "nonpayable",
      "type": "function"
    },
    {
      "inputs": [
        {
          "internalType": "bytes32",
          "name": "role",
          "type": "bytes32"
        },
        {
          "internalType": "address",
          "name": "account",
          "type": "address"
        }
      ],
      "name": "revokeRole",
      "outputs": [],
      "stateMutability": "nonpayable",
      "type": "function"
    },
    {
      "inputs": [
        {
          "internalType": "bytes32",
          "name": "",
          "type": "bytes32"
        },
        {
          "internalType": "uint256",
          "name": "",
          "type": "uint256"
        }
      ],
      "name": "signatures",
      "outputs": [
        {
          "internalType": "bytes",
          "name": "",
          "type": "bytes"
        }
      ],
      "stateMutability": "view",
      "type": "function"
    },
    {
      "inputs": [
        {
          "internalType": "uint8",
          "name": "originDomainID",
          "type": "uint8"
        },
        {
          "internalType": "uint8",
          "name": "destinationDomainID",
          "type": "uint8"
        },
        {
          "internalType": "address",
          "name": "destinationBridge",
          "type": "address"
        },
        {
          "internalType": "uint64",
          "name": "depositNonce",
          "type": "uint64"
        },
        {
          "internalType": "bytes32",
          "name": "resourceID",
          "type": "bytes32"
        },
        {
          "internalType": "bytes",
          "name": "data",
          "type": "bytes"
        },
        {
          "internalType": "bytes",
          "name": "signature",
          "type": "bytes"
        }
      ],
      "name": "submitSignature",
      "outputs": [],
      "stateMutability": "nonpayable",
      "type": "function"
    }
  ],
  "bytecode": "0x608060405234801561001057600080fd5b506122f1806100206000396000f3fe608060405234801561001057600080fd5b50600436106101c45760003560e01c806374400fd1116100f9578063c4d66de811610097578063d547741f11610071578063d547741f14610487578063e5787a751461049a578063f4eccb8f146104ba578063f7dbe092146104cd57600080fd5b8063c4d66de814610441578063c7f758a814610454578063ca15c8731461047457600080fd5b806391d14854116100d357806391d14854146103ca578063926d7d7f146103dd578063a217fddf14610404578063aa44739d1461040c57600080fd5b806374400fd114610384578063861fd043146103a45780639010d07c146103b757600080fd5b80633640850b1161016657806350916c7c1161014057806350916c7c146103055780635977e0f2146103435780635c975abb1461034c5780635d2dab0b1461035d57600080fd5b80633640850b146102bf57806336568abe146102df5780634e0df3f6146102f257600080fd5b80632f2ff15d116101a25780632f2ff15d1461024a5780632fda959e1461025f57806330adf81f1461027257806332ed5b121461029957600080fd5b80630b18fec5146101c95780631f241eca146101fc578063248a9ca314610227575b600080fd5b6101e96101d7366004611ca2565b60666020526000908152604090205481565b6040519081526020015b60405180910390f35b61020f61020a366004611d2c565b6104e0565b6040516001600160a01b0390911681526020016101f3565b6101e9610235366004611de9565b60009081526064602052604090206002015490565b61025d610258366004611e02565b610711565b005b61025d61026d366004611e2e565b6107a4565b6101e97fc4cb5d35714699d6e85b9562b644e60393b418d974a5c1dd8efaadac37a142c581565b6102ac6102a7366004611de9565b610828565b6040516101f39796959493929190611ea5565b6101e96102cd366004611de9565b606b6020526000908152604090205481565b61025d6102ed366004611e02565b610908565b6101e9610300366004611e02565b610982565b610333610313366004611f17565b805160208183018101805160688252928201919093012091525460ff1681565b60405190151581526020016101f3565b6101e960695481565b60005462010000900460ff16610333565b6101e97f8b73c3c69bb8fe3d512ecc4cf759cc79239f7b179b0ffacaa9a75d522b39400f81565b610397610392366004611fc7565b6109af565b6040516101f39190611fe9565b61025d6103b2366004611d2c565b610a68565b61020f6103c5366004611fc7565b610ec8565b6103336103d8366004611e02565b610ee7565b6101e97fe2b7fb3b832174769106daebcfd6d1970523240dda11281102db9363b83b0dc481565b6101e9600081565b61042f61041a366004611ca2565b60656020526000908152604090205460ff1681565b60405160ff90911681526020016101f3565b61025d61044f366004611ffc565b610eff565b610467610462366004611de9565b610fc3565b6040516101f39190612017565b6101e9610482366004611de9565b61115a565b61025d610495366004611e02565b611171565b6104ad6104a8366004612093565b6111f2565b6040516101f39190612101565b6104ad6104c8366004611de9565b611346565b61025d6104db366004611e2e565b611479565b6000807fc4cb5d35714699d6e85b9562b644e60393b418d974a5c1dd8efaadac37a142c58b89898989604051610517929190612163565b60405190819003812061055a959493929160200194855260ff9390931660208501526001600160401b039190911660408401526060830152608082015260a00190565b60408051601f19818403018152918152815160209283012060ff8d1660009081526066909352908220549092506106bf908390156105aa5760ff8d166000908152606660205260409020546105af565b8c60ff165b604080518082018252600c81526b5065726d697442726964676560a01b6020918201528151808301835260038152620312e360ec1b9082015281517f8b73c3c69bb8fe3d512ecc4cf759cc79239f7b179b0ffacaa9a75d522b39400f818301527f058443738ec3641a3233a9f285e16671e4ad9755445580d761017e695f75052b818401527fe6bbd6277e1bf288eed5e8d1780f9a50b239e86b153736bceebccf4ea79d90b3606082015260808101939093526001600160a01b038f1660a0808501919091528251808503909101815260c08401835280519082012061190160f01b60e085015260e284015261010280840194909452815180840390940184526101229092019052815191012090565b90506107018186868080601f0160208091040260200160405190810160405280939291908181526020018383808284376000920191909152506114e692505050565b9c9b505050505050505050505050565b60008281526064602052604090206002015461072d9033610ee7565b6107965760405162461bcd60e51b815260206004820152602f60248201527f416363657373436f6e74726f6c3a2073656e646572206d75737420626520616e60448201526e0818591b5a5b881d1bc819dc985b9d608a1b60648201526084015b60405180910390fd5b6107a0828261150a565b5050565b6107af600033610ee7565b6107fb5760405162461bcd60e51b815260206004820152601e60248201527f73656e64657220646f65736e277420686176652061646d696e20726f6c650000604482015260640161078d565b61080481611563565b60ff9283166000908152606560205260409020805460ff1916919093161790915550565b606a6020526000908152604090208054600182015460028301805460ff808516956101008604909116946201000081046001600160a01b031694600160b01b9091046001600160401b031693909261087f90612173565b80601f01602080910402602001604051908101604052809291908181526020018280546108ab90612173565b80156108f85780601f106108cd576101008083540402835291602001916108f8565b820191906000526020600020905b8154815290600101906020018083116108db57829003601f168201915b5050505050908060030154905087565b6001600160a01b03811633146109785760405162461bcd60e51b815260206004820152602f60248201527f416363657373436f6e74726f6c3a2063616e206f6e6c792072656e6f756e636560448201526e103937b632b9903337b91039b2b63360891b606482015260840161078d565b6107a082826115ba565b60008281526064602090815260408083206001600160a01b03851684526001019091529020545b92915050565b606760205281600052604060002081815481106109cb57600080fd5b906000526020600020016000915091505080546109e790612173565b80601f0160208091040260200160405190810160405280929190818152602001828054610a1390612173565b8015610a605780601f10610a3557610100808354040283529160200191610a60565b820191906000526020600020905b815481529060010190602001808311610a4357829003601f168201915b505050505081565b610a70611613565b610aa57fe2b7fb3b832174769106daebcfd6d1970523240dda11281102db9363b83b0dc46103d88b8b8b8b8b8b8b8b8b6104e0565b610ae55760405162461bcd60e51b8152602060048201526011602482015270696e76616c6964207369676e617475726560781b604482015260640161078d565b60688282604051610af7929190612163565b9081526040519081900360200190205460ff1615610b575760405162461bcd60e51b815260206004820152601860248201527f7369676e617475726520616c6561726479207375626d69740000000000000000604482015260640161078d565b60008987878787604051610b6c929190612163565b604051908190038120610ba89493929160200160ff9490941684526001600160401b039290921660208401526040830152606082015260800190565b60408051601f19818403018152918152815160209283012060ff808d166000908152606585528381205483825260679095529290922054909350911611610c295760405162461bcd60e51b81526020600482015260156024820152745369676e7475726520616c6561726479207061737360581b604482015260640161078d565b600081815260676020526040902054610d9e5760698054906000610c4c836121c4565b91905055506040518060e001604052808b60ff1681526020018a60ff168152602001896001600160a01b03168152602001886001600160401b0316815260200187815260200186868080601f0160208091040260200160405190810160405280939291908181526020018383808284376000920182905250938552505060695460209384015250838152606a825260409081902083518154858501519386015160608701516001600160401b0316600160b01b0267ffffffffffffffff60b01b196001600160a01b0390921662010000029190911662010000600160f01b031960ff9687166101000261ffff1990941696909416959095179190911791909116929092179190911781556080830151600182015560a083015180519192610d7b92600285019290910190611b83565b5060c091909101516003909101556069546000908152606b602052604090208190555b6000818152606760209081526040822080546001810182559083529120610dc791018484611c03565b50600160688484604051610ddc929190612163565b908152602001604051809103902060006101000a81548160ff021916908315150217905550858960ff168b60ff167fdbf724cd2f174f6ee6dc7d45f557ca42e3f0c483d5ac5da1317ade0e540889078a89898989604051610e41959493929190612208565b60405180910390a460ff808a16600090815260656020908152604080832054858452606790925290912054911611610ebc57858960ff168b60ff167f31ad42d947b6829b5c034aaa2c4259af49e84066292aa963a38e2a9dba8206748a89898989604051610eb3959493929190612208565b60405180910390a45b50505050505050505050565b6000828152606460205260408120610ee09083611661565b9392505050565b6000828152606460205260408120610ee0908361166d565b600054610100900460ff16610f1a5760005460ff1615610f1e565b303b155b610f815760405162461bcd60e51b815260206004820152602e60248201527f496e697469616c697a61626c653a20636f6e747261637420697320616c72656160448201526d191e481a5b9a5d1a585b1a5e995960921b606482015260840161078d565b600054610100900460ff16158015610fa3576000805461ffff19166101011790555b610fae600083610796565b80156107a0576000805461ff00191690555050565b6040805160e08101825260008082526020820181905291810182905260608082018390526080820183905260a082015260c08101919091526069548211156110425760405162461bcd60e51b8152602060048201526012602482015271141c9bdc1bdcd85b081b9bdd08195e1a5cdd60721b604482015260640161078d565b6000828152606b60209081526040808320548352606a825291829020825160e081018452815460ff8082168352610100820416938201939093526201000083046001600160a01b031693810193909352600160b01b9091046001600160401b031660608301526001810154608083015260028101805460a0840191906110c790612173565b80601f01602080910402602001604051908101604052809291908181526020018280546110f390612173565b80156111405780601f1061111557610100808354040283529160200191611140565b820191906000526020600020905b81548152906001019060200180831161112357829003601f168201915b505050505081526020016003820154815250509050919050565b60008181526064602052604081206109a99061168f565b60008281526064602052604090206002015461118d9033610ee7565b6109785760405162461bcd60e51b815260206004820152603060248201527f416363657373436f6e74726f6c3a2073656e646572206d75737420626520616e60448201526f2061646d696e20746f207265766f6b6560801b606482015260840161078d565b606060676000878787878760405161120b929190612163565b6040519081900381206112479493929160200160ff9490941684526001600160401b039290921660208401526040830152606082015260800190565b604051602081830303815290604052805190602001208152602001908152602001600020805480602002602001604051908101604052809291908181526020016000905b828210156113375783829060005260206000200180546112aa90612173565b80601f01602080910402602001604051908101604052809291908181526020018280546112d690612173565b80156113235780601f106112f857610100808354040283529160200191611323565b820191906000526020600020905b81548152906001019060200180831161130657829003601f168201915b50505050508152602001906001019061128b565b50505050905095945050505050565b606060695482111561138f5760405162461bcd60e51b8152602060048201526012602482015271141c9bdc1bdcd85b081b9bdd08195e1a5cdd60721b604482015260640161078d565b6000828152606b602090815260408083205483526067825280832080548251818502810185019093528083529193909284015b8282101561146e5783829060005260206000200180546113e190612173565b80601f016020809104026020016040519081016040528092919081815260200182805461140d90612173565b801561145a5780601f1061142f5761010080835404028352916020019161145a565b820191906000526020600020905b81548152906001019060200180831161143d57829003601f168201915b5050505050815260200190600101906113c2565b505050509050919050565b611484600033610ee7565b6114d05760405162461bcd60e51b815260206004820152601e60248201527f73656e64657220646f65736e277420686176652061646d696e20726f6c650000604482015260640161078d565b60ff909116600090815260666020526040902055565b60008060006114f58585611699565b9150915061150281611709565b509392505050565b600082815260646020526040902061152290826118c7565b156107a05760405133906001600160a01b0383169084907f2f8788117e7eff1d82e926ec794901d17c78024a50270940304540a733656f0d90600090a45050565b600061010082106115b65760405162461bcd60e51b815260206004820152601c60248201527f76616c756520646f6573206e6f742066697420696e2038206269747300000000604482015260640161078d565b5090565b60008281526064602052604090206115d290826118dc565b156107a05760405133906001600160a01b0383169084907ff6391f5c32d9c69d2a47ea670b442974b53935d1edc7fd64eb21e047a839171b90600090a45050565b60005462010000900460ff161561165f5760405162461bcd60e51b815260206004820152601060248201526f14185d5cd8589b194e881c185d5cd95960821b604482015260640161078d565b565b6000610ee083836118f1565b6001600160a01b03811660009081526001830160205260408120541515610ee0565b60006109a9825490565b6000808251604114156116d05760208301516040840151606085015160001a6116c48782858561191b565b94509450505050611702565b8251604014156116fa57602083015160408401516116ef868383611a08565b935093505050611702565b506000905060025b9250929050565b600081600481111561171d5761171d61224a565b14156117265750565b600181600481111561173a5761173a61224a565b14156117885760405162461bcd60e51b815260206004820152601860248201527f45434453413a20696e76616c6964207369676e61747572650000000000000000604482015260640161078d565b600281600481111561179c5761179c61224a565b14156117ea5760405162461bcd60e51b815260206004820152601f60248201527f45434453413a20696e76616c6964207369676e6174757265206c656e67746800604482015260640161078d565b60038160048111156117fe576117fe61224a565b14156118575760405162461bcd60e51b815260206004820152602260248201527f45434453413a20696e76616c6964207369676e6174757265202773272076616c604482015261756560f01b606482015260840161078d565b600481600481111561186b5761186b61224a565b14156118c45760405162461bcd60e51b815260206004820152602260248201527f45434453413a20696e76616c6964207369676e6174757265202776272076616c604482015261756560f01b606482015260840161078d565b50565b6000610ee0836001600160a01b038416611a41565b6000610ee0836001600160a01b038416611a90565b600082600001828154811061190857611908612260565b9060005260206000200154905092915050565b6000807f7fffffffffffffffffffffffffffffff5d576e7357a4501ddfe92f46681b20a083111561195257506000905060036119ff565b8460ff16601b1415801561196a57508460ff16601c14155b1561197b57506000905060046119ff565b6040805160008082526020820180845289905260ff881692820192909252606081018690526080810185905260019060a0016020604051602081039080840390855afa1580156119cf573d6000803e3d6000fd5b5050604051601f1901519150506001600160a01b0381166119f8576000600192509250506119ff565b9150600090505b94509492505050565b6000806001600160ff1b03831681611a2560ff86901c601b612276565b9050611a338782888561191b565b935093505050935093915050565b6000818152600183016020526040812054611a88575081546001818101845560008481526020808220909301849055845484825282860190935260409020919091556109a9565b5060006109a9565b60008181526001830160205260408120548015611b79576000611ab460018361228e565b8554909150600090611ac89060019061228e565b9050818114611b2d576000866000018281548110611ae857611ae8612260565b9060005260206000200154905080876000018481548110611b0b57611b0b612260565b6000918252602080832090910192909255918252600188019052604090208390555b8554869080611b3e57611b3e6122a5565b6001900381819060005260206000200160009055905585600101600086815260200190815260200160002060009055600193505050506109a9565b60009150506109a9565b828054611b8f90612173565b90600052602060002090601f016020900481019282611bb15760008555611bf7565b82601f10611bca57805160ff1916838001178555611bf7565b82800160010185558215611bf7579182015b82811115611bf7578251825591602001919060010190611bdc565b506115b6929150611c77565b828054611c0f90612173565b90600052602060002090601f016020900481019282611c315760008555611bf7565b82601f10611c4a5782800160ff19823516178555611bf7565b82800160010185558215611bf7579182015b82811115611bf7578235825591602001919060010190611c5c565b5b808211156115b65760008155600101611c78565b803560ff81168114611c9d57600080fd5b919050565b600060208284031215611cb457600080fd5b610ee082611c8c565b80356001600160a01b0381168114611c9d57600080fd5b80356001600160401b0381168114611c9d57600080fd5b60008083601f840112611cfd57600080fd5b5081356001600160401b03811115611d1457600080fd5b60208301915083602082850101111561170257600080fd5b600080600080600080600080600060e08a8c031215611d4a57600080fd5b611d538a611c8c565b9850611d6160208b01611c8c565b9750611d6f60408b01611cbd565b9650611d7d60608b01611cd4565b955060808a0135945060a08a01356001600160401b0380821115611da057600080fd5b611dac8d838e01611ceb565b909650945060c08c0135915080821115611dc557600080fd5b50611dd28c828d01611ceb565b915080935050809150509295985092959850929598565b600060208284031215611dfb57600080fd5b5035919050565b60008060408385031215611e1557600080fd5b82359150611e2560208401611cbd565b90509250929050565b60008060408385031215611e4157600080fd5b611e4a83611c8c565b946020939093013593505050565b6000815180845260005b81811015611e7e57602081850181015186830182015201611e62565b81811115611e90576000602083870101525b50601f01601f19169290920160200192915050565b60ff8816815260ff8716602082015260018060a01b03861660408201526001600160401b038516606082015283608082015260e060a08201526000611eed60e0830185611e58565b90508260c083015298975050505050505050565b634e487b7160e01b600052604160045260246000fd5b600060208284031215611f2957600080fd5b81356001600160401b0380821115611f4057600080fd5b818401915084601f830112611f5457600080fd5b813581811115611f6657611f66611f01565b604051601f8201601f19908116603f01168101908382118183101715611f8e57611f8e611f01565b81604052828152876020848701011115611fa757600080fd5b826020860160208301376000928101602001929092525095945050505050565b60008060408385031215611fda57600080fd5b50508035926020909101359150565b602081526000610ee06020830184611e58565b60006020828403121561200e57600080fd5b610ee082611cbd565b6020815260ff825116602082015260ff602083015116604082015260018060a01b0360408301511660608201526001600160401b036060830151166080820152608082015160a0820152600060a083015160e060c084015261207d610100840182611e58565b905060c084015160e08401528091505092915050565b6000806000806000608086880312156120ab57600080fd5b6120b486611c8c565b94506120c260208701611cd4565b93506040860135925060608601356001600160401b038111156120e457600080fd5b6120f088828901611ceb565b969995985093965092949392505050565b6000602080830181845280855180835260408601915060408160051b870101925083870160005b8281101561215657603f19888603018452612144858351611e58565b94509285019290850190600101612128565b5092979650505050505050565b8183823760009101908152919050565b600181811c9082168061218757607f821691505b602082108114156121a857634e487b7160e01b600052602260045260246000fd5b50919050565b634e487b7160e01b600052601160045260246000fd5b60006000198214156121d8576121d86121ae565b5060010190565b81835281816020850137506000828201602090810191909152601f909101601f19169091010190565b6001600160401b038616815260606020820152600061222b6060830186886121df565b828103604084015261223e8185876121df565b98975050505050505050565b634e487b7160e01b600052602160045260246000fd5b634e487b7160e01b600052603260045260246000fd5b60008219821115612289576122896121ae565b500190565b6000828210156122a0576122a06121ae565b500390565b634e487b7160e01b600052603160045260246000fdfea264697066735822122025d70ea442a9996e29df1abb20e4ba25b0498446afadb8b6fcf688082a64923f64736f6c634300080b0033",
  "linkReferences": {},
  "deployedLinkReferences": {}
}