{
  "_format": "hh-sol-artifact-1",
  "contractName": "SignaturesUpgradeable",
  "sourceName": "contracts/SignaturesUpgradeable.sol",
  "abi": [
    {
      "anonymous": false,
      "inputs": [
        {
          "indexed": true,
          "internalType": "bytes32",
          "name": "role",
          "type": "bytes32"
        },
        {
          "indexed": true,
          "internalType": "address",
          "name": "account",
          "type": "address"
        },
        {
          "indexed": true,
          "internalType": "address",
          "name": "sender",
          "type": "address"
        }
      ],
      "name": "RoleGranted",
      "type": "event"
    },
    {
      "anonymous": false,
      "inputs": [
        {
          "indexed": true,
          "internalType": "bytes32",
          "name": "role",
          "type": "bytes32"
        },
        {
          "indexed": true,
          "internalType": "address",
          "name": "account",
          "type": "address"
        },
        {
          "indexed": true,
          "internalType": "address",
          "name": "sender",
          "type": "address"
        }
      ],
      "name": "RoleRevoked",
      "type": "event"
    },
    {
      "anonymous": false,
      "inputs": [
        {
          "indexed": true,
          "internalType": "uint8",
          "name": "originDomainID",
          "type": "uint8"
        },
        {
          "indexed": true,
          "internalType": "uint8",
          "name": "destinationDomainID",
          "type": "uint8"
        },
        {
          "indexed": false,
          "internalType": "uint64",
          "name": "depositNonce",
          "type": "uint64"
        },
        {
          "indexed": true,
          "internalType": "bytes32",
          "name": "resourceID",
          "type": "bytes32"
        },
        {
          "indexed": false,
          "internalType": "bytes",
          "name": "data",
          "type": "bytes"
        },
        {
          "indexed": false,
          "internalType": "bytes",
          "name": "signature",
          "type": "bytes"
        }
      ],
      "name": "SignturePass",
      "type": "event"
    },
    {
      "anonymous": false,
      "inputs": [
        {
          "indexed": true,
          "internalType": "uint8",
          "name": "originDomainID",
          "type": "uint8"
        },
        {
          "indexed": true,
          "internalType": "uint8",
          "name": "destinationDomainID",
          "type": "uint8"
        },
        {
          "indexed": false,
          "internalType": "uint64",
          "name": "depositNonce",
          "type": "uint64"
        },
        {
          "indexed": true,
          "internalType": "bytes32",
          "name": "resourceID",
          "type": "bytes32"
        },
        {
          "indexed": false,
          "internalType": "bytes",
          "name": "data",
          "type": "bytes"
        },
        {
          "indexed": false,
          "internalType": "bytes",
          "name": "signature",
          "type": "bytes"
        }
      ],
      "name": "SubmitSignature",
      "type": "event"
    },
    {
      "inputs": [],
      "name": "DEFAULT_ADMIN_ROLE",
      "outputs": [
        {
          "internalType": "bytes32",
          "name": "",
          "type": "bytes32"
        }
      ],
      "stateMutability": "view",
      "type": "function"
    },
    {
      "inputs": [],
      "name": "PERMIT_TYPEHASH",
      "outputs": [
        {
          "internalType": "bytes32",
          "name": "",
          "type": "bytes32"
        }
      ],
      "stateMutability": "view",
      "type": "function"
    },
    {
      "inputs": [],
      "name": "RELAYER_ROLE",
      "outputs": [
        {
          "internalType": "bytes32",
          "name": "",
          "type": "bytes32"
        }
      ],
      "stateMutability": "view",
      "type": "function"
    },
    {
      "inputs": [],
      "name": "_TYPE_HASH",
      "outputs": [
        {
          "internalType": "bytes32",
          "name": "",
          "type": "bytes32"
        }
      ],
      "stateMutability": "view",
      "type": "function"
    },
    {
      "inputs": [
        {
          "internalType": "uint8",
          "name": "",
          "type": "uint8"
        }
      ],
      "name": "_relayerThreshold",
      "outputs": [
        {
          "internalType": "uint8",
          "name": "",
          "type": "uint8"
        }
      ],
      "stateMutability": "view",
      "type": "function"
    },
    {
      "inputs": [
        {
          "internalType": "uint8",
          "name": "destinationDomainID",
          "type": "uint8"
        },
        {
          "internalType": "uint256",
          "name": "newThreshold",
          "type": "uint256"
        }
      ],
      "name": "adminChangeRelayerThreshold",
      "outputs": [],
      "stateMutability": "nonpayable",
      "type": "function"
    },
    {
      "inputs": [
        {
          "internalType": "uint8",
          "name": "destinationDomainID",
          "type": "uint8"
        },
        {
          "internalType": "uint8",
          "name": "chainId",
          "type": "uint8"
        }
      ],
      "name": "adminSetDestChainId",
      "outputs": [],
      "stateMutability": "nonpayable",
      "type": "function"
    },
    {
      "inputs": [
        {
          "internalType": "uint8",
          "name": "domainID",
          "type": "uint8"
        },
        {
          "internalType": "uint8",
          "name": "destinationDomainID",
          "type": "uint8"
        },
        {
          "internalType": "address",
          "name": "destinationBridge",
          "type": "address"
        },
        {
          "internalType": "uint64",
          "name": "depositNonce",
          "type": "uint64"
        },
        {
          "internalType": "bytes32",
          "name": "resourceID",
          "type": "bytes32"
        },
        {
          "internalType": "bytes",
          "name": "data",
          "type": "bytes"
        },
        {
          "internalType": "bytes",
          "name": "signature",
          "type": "bytes"
        }
      ],
      "name": "checkSignature",
      "outputs": [
        {
          "internalType": "address",
          "name": "",
          "type": "address"
        }
      ],
      "stateMutability": "view",
      "type": "function"
    },
    {
      "inputs": [
        {
          "internalType": "uint8",
          "name": "",
          "type": "uint8"
        }
      ],
      "name": "destChainId",
      "outputs": [
        {
          "internalType": "uint256",
          "name": "",
          "type": "uint256"
        }
      ],
      "stateMutability": "view",
      "type": "function"
    },
    {
      "inputs": [
        {
          "internalType": "uint256",
          "name": "index",
          "type": "uint256"
        }
      ],
      "name": "getProposal",
      "outputs": [
        {
          "components": [
            {
              "internalType": "uint8",
              "name": "originDomainID",
              "type": "uint8"
            },
            {
              "internalType": "uint8",
              "name": "destinationDomainID",
              "type": "uint8"
            },
            {
              "internalType": "address",
              "name": "destinationBridge",
              "type": "address"
            },
            {
              "internalType": "uint64",
              "name": "depositNonce",
              "type": "uint64"
            },
            {
              "internalType": "bytes32",
              "name": "resourceID",
              "type": "bytes32"
            },
            {
              "internalType": "bytes",
              "name": "data",
              "type": "bytes"
            },
            {
              "internalType": "uint256",
              "name": "proposalIndex",
              "type": "uint256"
            }
          ],
          "internalType": "struct SignaturesUpgradeable.Proposal",
          "name": "",
          "type": "tuple"
        }
      ],
      "stateMutability": "view",
      "type": "function"
    },
    {
      "inputs": [
        {
          "internalType": "bytes32",
          "name": "role",
          "type": "bytes32"
        }
      ],
      "name": "getRoleAdmin",
      "outputs": [
        {
          "internalType": "bytes32",
          "name": "",
          "type": "bytes32"
        }
      ],
      "stateMutability": "view",
      "type": "function"
    },
    {
      "inputs": [
        {
          "internalType": "bytes32",
          "name": "role",
          "type": "bytes32"
        },
        {
          "internalType": "uint256",
          "name": "index",
          "type": "uint256"
        }
      ],
      "name": "getRoleMember",
      "outputs": [
        {
          "internalType": "address",
          "name": "",
          "type": "address"
        }
      ],
      "stateMutability": "view",
      "type": "function"
    },
    {
      "inputs": [
        {
          "internalType": "bytes32",
          "name": "role",
          "type": "bytes32"
        }
      ],
      "name": "getRoleMemberCount",
      "outputs": [
        {
          "internalType": "uint256",
          "name": "",
          "type": "uint256"
        }
      ],
      "stateMutability": "view",
      "type": "function"
    },
    {
      "inputs": [
        {
          "internalType": "bytes32",
          "name": "role",
          "type": "bytes32"
        },
        {
          "internalType": "address",
          "name": "account",
          "type": "address"
        }
      ],
      "name": "getRoleMemberIndex",
      "outputs": [
        {
          "internalType": "uint256",
          "name": "",
          "type": "uint256"
        }
      ],
      "stateMutability": "view",
      "type": "function"
    },
    {
      "inputs": [
        {
          "internalType": "uint8",
          "name": "domainID",
          "type": "uint8"
        },
        {
          "internalType": "uint64",
          "name": "depositNonce",
          "type": "uint64"
        },
        {
          "internalType": "bytes32",
          "name": "resourceID",
          "type": "bytes32"
        },
        {
          "internalType": "bytes",
          "name": "data",
          "type": "bytes"
        }
      ],
      "name": "getSignatures",
      "outputs": [
        {
          "internalType": "bytes[]",
          "name": "",
          "type": "bytes[]"
        }
      ],
      "stateMutability": "view",
      "type": "function"
    },
    {
      "inputs": [
        {
          "internalType": "uint256",
          "name": "index",
          "type": "uint256"
        }
      ],
      "name": "getSignatures",
      "outputs": [
        {
          "internalType": "bytes[]",
          "name": "",
          "type": "bytes[]"
        }
      ],
      "stateMutability": "view",
      "type": "function"
    },
    {
      "inputs": [
        {
          "internalType": "bytes32",
          "name": "role",
          "type": "bytes32"
        },
        {
          "internalType": "address",
          "name": "account",
          "type": "address"
        }
      ],
      "name": "grantRole",
      "outputs": [],
      "stateMutability": "nonpayable",
      "type": "function"
    },
    {
      "inputs": [
        {
          "internalType": "bytes32",
          "name": "role",
          "type": "bytes32"
        },
        {
          "internalType": "address",
          "name": "account",
          "type": "address"
        }
      ],
      "name": "hasRole",
      "outputs": [
        {
          "internalType": "bool",
          "name": "",
          "type": "bool"
        }
      ],
      "stateMutability": "view",
      "type": "function"
    },
    {
      "inputs": [
        {
          "internalType": "bytes",
          "name": "",
          "type": "bytes"
        }
      ],
      "name": "hasVote",
      "outputs": [
        {
          "internalType": "bool",
          "name": "",
          "type": "bool"
        }
      ],
      "stateMutability": "view",
      "type": "function"
    },
    {
      "inputs": [
        {
          "internalType": "uint256",
          "name": "",
          "type": "uint256"
        }
      ],
      "name": "indexToProposal",
      "outputs": [
        {
          "internalType": "bytes32",
          "name": "",
          "type": "bytes32"
        }
      ],
      "stateMutability": "view",
      "type": "function"
    },
    {
      "inputs": [
        {
          "internalType": "address",
          "name": "admin",
          "type": "address"
        }
      ],
      "name": "initialize",
      "outputs": [],
      "stateMutability": "nonpayable",
      "type": "function"
    },
    {
      "inputs": [],
      "name": "proposalIndex",
      "outputs": [
        {
          "internalType": "uint256",
          "name": "",
          "type": "uint256"
        }
      ],
      "stateMutability": "view",
      "type": "function"
    },
    {
      "inputs": [
        {
          "internalType": "bytes32",
          "name": "",
          "type": "bytes32"
        }
      ],
      "name": "proposals",
      "outputs": [
        {
          "internalType": "uint8",
          "name": "originDomainID",
          "type": "uint8"
        },
        {
          "internalType": "uint8",
          "name": "destinationDomainID",
          "type": "uint8"
        },
        {
          "internalType": "address",
          "name": "destinationBridge",
          "type": "address"
        },
        {
          "internalType": "uint64",
          "name": "depositNonce",
          "type": "uint64"
        },
        {
          "internalType": "bytes32",
          "name": "resourceID",
          "type": "bytes32"
        },
        {
          "internalType": "bytes",
          "name": "data",
          "type": "bytes"
        },
        {
          "internalType": "uint256",
          "name": "proposalIndex",
          "type": "uint256"
        }
      ],
      "stateMutability": "view",
      "type": "function"
    },
    {
      "inputs": [
        {
          "internalType": "bytes32",
          "name": "role",
          "type": "bytes32"
        },
        {
          "internalType": "address",
          "name": "account",
          "type": "address"
        }
      ],
      "name": "renounceRole",
      "outputs": [],
      "stateMutability": "nonpayable",
      "type": "function"
    },
    {
      "inputs": [
        {
          "internalType": "bytes32",
          "name": "role",
          "type": "bytes32"
        },
        {
          "internalType": "address",
          "name": "account",
          "type": "address"
        }
      ],
      "name": "revokeRole",
      "outputs": [],
      "stateMutability": "nonpayable",
      "type": "function"
    },
    {
      "inputs": [
        {
          "internalType": "bytes32",
          "name": "",
          "type": "bytes32"
        },
        {
          "internalType": "uint256",
          "name": "",
          "type": "uint256"
        }
      ],
      "name": "signatures",
      "outputs": [
        {
          "internalType": "bytes",
          "name": "",
          "type": "bytes"
        }
      ],
      "stateMutability": "view",
      "type": "function"
    },
    {
      "inputs": [
        {
          "internalType": "uint8",
          "name": "originDomainID",
          "type": "uint8"
        },
        {
          "internalType": "uint8",
          "name": "destinationDomainID",
          "type": "uint8"
        },
        {
          "internalType": "address",
          "name": "destinationBridge",
          "type": "address"
        },
        {
          "internalType": "uint64",
          "name": "depositNonce",
          "type": "uint64"
        },
        {
          "internalType": "bytes32",
          "name": "resourceID",
          "type": "bytes32"
        },
        {
          "internalType": "bytes",
          "name": "data",
          "type": "bytes"
        },
        {
          "internalType": "bytes",
          "name": "signature",
          "type": "bytes"
        }
      ],
      "name": "submitSignature",
      "outputs": [],
      "stateMutability": "nonpayable",
      "type": "function"
    }
  ],
  "bytecode": "0x600c6080526b5065726d697442726964676560a01b60a0527f058443738ec3641a3233a9f285e16671e4ad9755445580d761017e695f75052b603455610100604052600360c052620312e360ec1b60e0527fe6bbd6277e1bf288eed5e8d1780f9a50b239e86b153736bceebccf4ea79d90b360355534801561008057600080fd5b50612233806100906000396000f3fe608060405234801561001057600080fd5b50600436106101a95760003560e01c806374400fd1116100f9578063aa44739d11610097578063ca15c87311610071578063ca15c8731461045b578063d547741f1461046e578063e5787a7514610481578063f4eccb8f146104a157600080fd5b8063aa44739d146103f3578063c4d66de814610428578063c7f758a81461043b57600080fd5b806391d14854116100d357806391d148541461039e578063926d7d7f146103b1578063a11279c7146103d8578063a217fddf146103eb57600080fd5b806374400fd114610358578063861fd043146103785780639010d07c1461038b57600080fd5b806332ed5b12116101665780634e0df3f6116101405780634e0df3f6146102d757806350916c7c146102ea5780635977e0f2146103285780635d2dab0b1461033157600080fd5b806332ed5b121461027e5780633640850b146102a457806336568abe146102c457600080fd5b80630b18fec5146101ae5780631f241eca146101e1578063248a9ca31461020c5780632f2ff15d1461022f5780632fda959e1461024457806330adf81f14610257575b600080fd5b6101ce6101bc366004611bba565b60376020526000908152604090205481565b6040519081526020015b60405180910390f35b6101f46101ef366004611c44565b6104b4565b6040516001600160a01b0390911681526020016101d8565b6101ce61021a366004611d01565b60009081526033602052604090206002015490565b61024261023d366004611d1a565b61067c565b005b610242610252366004611d46565b61070f565b6101ce7fc4cb5d35714699d6e85b9562b644e60393b418d974a5c1dd8efaadac37a142c581565b61029161028c366004611d01565b610793565b6040516101d89796959493929190611dbd565b6101ce6102b2366004611d01565b603c6020526000908152604090205481565b6102426102d2366004611d1a565b610873565b6101ce6102e5366004611d1a565b6108ed565b6103186102f8366004611e2f565b805160208183018101805160398252928201919093012091525460ff1681565b60405190151581526020016101d8565b6101ce603a5481565b6101ce7f8b73c3c69bb8fe3d512ecc4cf759cc79239f7b179b0ffacaa9a75d522b39400f81565b61036b610366366004611edf565b61091a565b6040516101d89190611f01565b610242610386366004611c44565b6109d3565b6101f4610399366004611edf565b610e2b565b6103186103ac366004611d1a565b610e4a565b6101ce7fe2b7fb3b832174769106daebcfd6d1970523240dda11281102db9363b83b0dc481565b6102426103e6366004611f14565b610e62565b6101ce600081565b610416610401366004611bba565b60366020526000908152604090205460ff1681565b60405160ff90911681526020016101d8565b610242610436366004611f3e565b610ed2565b61044e610449366004611d01565b610f96565b6040516101d89190611f59565b6101ce610469366004611d01565b61112d565b61024261047c366004611d1a565b611144565b61049461048f366004611fd5565b6111c5565b6040516101d89190612043565b6104946104af366004611d01565b611319565b6000807fc4cb5d35714699d6e85b9562b644e60393b418d974a5c1dd8efaadac37a142c58b898989896040516104eb9291906120a5565b60405190819003812061052e959493929160200194855260ff9390931660208501526001600160401b039190911660408401526060830152608082015260a00190565b60408051601f19818403018152918152815160209283012060ff8d16600090815260379093529082205490925061062a9083901561057e5760ff8d16600090815260376020526040902054610583565b8c60ff165b603454603554604080517f8b73c3c69bb8fe3d512ecc4cf759cc79239f7b179b0ffacaa9a75d522b39400f60208083019190915281830194909452606081019290925260808201939093526001600160a01b038f1660a0808301919091528351808303909101815260c08201845280519083012061190160f01b60e083015260e2820152610102808201949094528251808203909401845261012201909152815191012090565b905061066c8186868080601f01602080910402602001604051908101604052809392919081815260200183838082843760009201919091525061144c92505050565b9c9b505050505050505050505050565b6000828152603360205260409020600201546106989033610e4a565b6107015760405162461bcd60e51b815260206004820152602f60248201527f416363657373436f6e74726f6c3a2073656e646572206d75737420626520616e60448201526e0818591b5a5b881d1bc819dc985b9d608a1b60648201526084015b60405180910390fd5b61070b8282611470565b5050565b61071a600033610e4a565b6107665760405162461bcd60e51b815260206004820152601e60248201527f73656e64657220646f65736e277420686176652061646d696e20726f6c65000060448201526064016106f8565b61076f816114c9565b60ff9283166000908152603660205260409020805460ff1916919093161790915550565b603b6020526000908152604090208054600182015460028301805460ff808516956101008604909116946201000081046001600160a01b031694600160b01b9091046001600160401b03169390926107ea906120b5565b80601f0160208091040260200160405190810160405280929190818152602001828054610816906120b5565b80156108635780601f1061083857610100808354040283529160200191610863565b820191906000526020600020905b81548152906001019060200180831161084657829003601f168201915b5050505050908060030154905087565b6001600160a01b03811633146108e35760405162461bcd60e51b815260206004820152602f60248201527f416363657373436f6e74726f6c3a2063616e206f6e6c792072656e6f756e636560448201526e103937b632b9903337b91039b2b63360891b60648201526084016106f8565b61070b8282611520565b60008281526033602090815260408083206001600160a01b03851684526001019091529020545b92915050565b6038602052816000526040600020818154811061093657600080fd5b90600052602060002001600091509150508054610952906120b5565b80601f016020809104026020016040519081016040528092919081815260200182805461097e906120b5565b80156109cb5780601f106109a0576101008083540402835291602001916109cb565b820191906000526020600020905b8154815290600101906020018083116109ae57829003601f168201915b505050505081565b610a087fe2b7fb3b832174769106daebcfd6d1970523240dda11281102db9363b83b0dc46103ac8b8b8b8b8b8b8b8b8b6104b4565b610a485760405162461bcd60e51b8152602060048201526011602482015270696e76616c6964207369676e617475726560781b60448201526064016106f8565b60398282604051610a5a9291906120a5565b9081526040519081900360200190205460ff1615610aba5760405162461bcd60e51b815260206004820152601860248201527f7369676e617475726520616c6561726479207375626d6974000000000000000060448201526064016106f8565b60008987878787604051610acf9291906120a5565b604051908190038120610b0b9493929160200160ff9490941684526001600160401b039290921660208401526040830152606082015260800190565b60408051601f19818403018152918152815160209283012060ff808d166000908152603685528381205483825260389095529290922054909350911611610b8c5760405162461bcd60e51b81526020600482015260156024820152745369676e7475726520616c6561726479207061737360581b60448201526064016106f8565b600081815260386020526040902054610d0157603a8054906000610baf83612106565b91905055506040518060e001604052808b60ff1681526020018a60ff168152602001896001600160a01b03168152602001886001600160401b0316815260200187815260200186868080601f01602080910402602001604051908101604052809392919081815260200183838082843760009201829052509385525050603a5460209384015250838152603b825260409081902083518154858501519386015160608701516001600160401b0316600160b01b0267ffffffffffffffff60b01b196001600160a01b0390921662010000029190911662010000600160f01b031960ff9687166101000261ffff1990941696909416959095179190911791909116929092179190911781556080830151600182015560a083015180519192610cde92600285019290910190611a9b565b5060c09190910151600390910155603a546000908152603c602052604090208190555b6000818152603860209081526040822080546001810182559083529120610d2a91018484611b1b565b50600160398484604051610d3f9291906120a5565b908152602001604051809103902060006101000a81548160ff021916908315150217905550858960ff168b60ff167fdbf724cd2f174f6ee6dc7d45f557ca42e3f0c483d5ac5da1317ade0e540889078a89898989604051610da495949392919061214a565b60405180910390a460ff808a16600090815260366020908152604080832054858452603890925290912054911611610e1f57858960ff168b60ff167f31ad42d947b6829b5c034aaa2c4259af49e84066292aa963a38e2a9dba8206748a89898989604051610e1695949392919061214a565b60405180910390a45b50505050505050505050565b6000828152603360205260408120610e439083611579565b9392505050565b6000828152603360205260408120610e439083611585565b610e6d600033610e4a565b610eb95760405162461bcd60e51b815260206004820152601e60248201527f73656e64657220646f65736e277420686176652061646d696e20726f6c65000060448201526064016106f8565b60ff918216600090815260376020526040902091169055565b600054610100900460ff16610eed5760005460ff1615610ef1565b303b155b610f545760405162461bcd60e51b815260206004820152602e60248201527f496e697469616c697a61626c653a20636f6e747261637420697320616c72656160448201526d191e481a5b9a5d1a585b1a5e995960921b60648201526084016106f8565b600054610100900460ff16158015610f76576000805461ffff19166101011790555b610f81600083610701565b801561070b576000805461ff00191690555050565b6040805160e08101825260008082526020820181905291810182905260608082018390526080820183905260a082015260c0810191909152603a548211156110155760405162461bcd60e51b8152602060048201526012602482015271141c9bdc1bdcd85b081b9bdd08195e1a5cdd60721b60448201526064016106f8565b6000828152603c60209081526040808320548352603b825291829020825160e081018452815460ff8082168352610100820416938201939093526201000083046001600160a01b031693810193909352600160b01b9091046001600160401b031660608301526001810154608083015260028101805460a08401919061109a906120b5565b80601f01602080910402602001604051908101604052809291908181526020018280546110c6906120b5565b80156111135780601f106110e857610100808354040283529160200191611113565b820191906000526020600020905b8154815290600101906020018083116110f657829003601f168201915b505050505081526020016003820154815250509050919050565b6000818152603360205260408120610914906115a7565b6000828152603360205260409020600201546111609033610e4a565b6108e35760405162461bcd60e51b815260206004820152603060248201527f416363657373436f6e74726f6c3a2073656e646572206d75737420626520616e60448201526f2061646d696e20746f207265766f6b6560801b60648201526084016106f8565b60606038600087878787876040516111de9291906120a5565b60405190819003812061121a9493929160200160ff9490941684526001600160401b039290921660208401526040830152606082015260800190565b604051602081830303815290604052805190602001208152602001908152602001600020805480602002602001604051908101604052809291908181526020016000905b8282101561130a57838290600052602060002001805461127d906120b5565b80601f01602080910402602001604051908101604052809291908181526020018280546112a9906120b5565b80156112f65780601f106112cb576101008083540402835291602001916112f6565b820191906000526020600020905b8154815290600101906020018083116112d957829003601f168201915b50505050508152602001906001019061125e565b50505050905095945050505050565b6060603a548211156113625760405162461bcd60e51b8152602060048201526012602482015271141c9bdc1bdcd85b081b9bdd08195e1a5cdd60721b60448201526064016106f8565b6000828152603c602090815260408083205483526038825280832080548251818502810185019093528083529193909284015b828210156114415783829060005260206000200180546113b4906120b5565b80601f01602080910402602001604051908101604052809291908181526020018280546113e0906120b5565b801561142d5780601f106114025761010080835404028352916020019161142d565b820191906000526020600020905b81548152906001019060200180831161141057829003601f168201915b505050505081526020019060010190611395565b505050509050919050565b600080600061145b85856115b1565b9150915061146881611621565b509392505050565b600082815260336020526040902061148890826117df565b1561070b5760405133906001600160a01b0383169084907f2f8788117e7eff1d82e926ec794901d17c78024a50270940304540a733656f0d90600090a45050565b6000610100821061151c5760405162461bcd60e51b815260206004820152601c60248201527f76616c756520646f6573206e6f742066697420696e203820626974730000000060448201526064016106f8565b5090565b600082815260336020526040902061153890826117f4565b1561070b5760405133906001600160a01b0383169084907ff6391f5c32d9c69d2a47ea670b442974b53935d1edc7fd64eb21e047a839171b90600090a45050565b6000610e438383611809565b6001600160a01b03811660009081526001830160205260408120541515610e43565b6000610914825490565b6000808251604114156115e85760208301516040840151606085015160001a6115dc87828585611833565b9450945050505061161a565b8251604014156116125760208301516040840151611607868383611920565b93509350505061161a565b506000905060025b9250929050565b60008160048111156116355761163561218c565b141561163e5750565b60018160048111156116525761165261218c565b14156116a05760405162461bcd60e51b815260206004820152601860248201527f45434453413a20696e76616c6964207369676e6174757265000000000000000060448201526064016106f8565b60028160048111156116b4576116b461218c565b14156117025760405162461bcd60e51b815260206004820152601f60248201527f45434453413a20696e76616c6964207369676e6174757265206c656e6774680060448201526064016106f8565b60038160048111156117165761171661218c565b141561176f5760405162461bcd60e51b815260206004820152602260248201527f45434453413a20696e76616c6964207369676e6174757265202773272076616c604482015261756560f01b60648201526084016106f8565b60048160048111156117835761178361218c565b14156117dc5760405162461bcd60e51b815260206004820152602260248201527f45434453413a20696e76616c6964207369676e6174757265202776272076616c604482015261756560f01b60648201526084016106f8565b50565b6000610e43836001600160a01b038416611959565b6000610e43836001600160a01b0384166119a8565b6000826000018281548110611820576118206121a2565b9060005260206000200154905092915050565b6000807f7fffffffffffffffffffffffffffffff5d576e7357a4501ddfe92f46681b20a083111561186a5750600090506003611917565b8460ff16601b1415801561188257508460ff16601c14155b156118935750600090506004611917565b6040805160008082526020820180845289905260ff881692820192909252606081018690526080810185905260019060a0016020604051602081039080840390855afa1580156118e7573d6000803e3d6000fd5b5050604051601f1901519150506001600160a01b03811661191057600060019250925050611917565b9150600090505b94509492505050565b6000806001600160ff1b0383168161193d60ff86901c601b6121b8565b905061194b87828885611833565b935093505050935093915050565b60008181526001830160205260408120546119a057508154600181810184556000848152602080822090930184905584548482528286019093526040902091909155610914565b506000610914565b60008181526001830160205260408120548015611a915760006119cc6001836121d0565b85549091506000906119e0906001906121d0565b9050818114611a45576000866000018281548110611a0057611a006121a2565b9060005260206000200154905080876000018481548110611a2357611a236121a2565b6000918252602080832090910192909255918252600188019052604090208390555b8554869080611a5657611a566121e7565b600190038181906000526020600020016000905590558560010160008681526020019081526020016000206000905560019350505050610914565b6000915050610914565b828054611aa7906120b5565b90600052602060002090601f016020900481019282611ac95760008555611b0f565b82601f10611ae257805160ff1916838001178555611b0f565b82800160010185558215611b0f579182015b82811115611b0f578251825591602001919060010190611af4565b5061151c929150611b8f565b828054611b27906120b5565b90600052602060002090601f016020900481019282611b495760008555611b0f565b82601f10611b625782800160ff19823516178555611b0f565b82800160010185558215611b0f579182015b82811115611b0f578235825591602001919060010190611b74565b5b8082111561151c5760008155600101611b90565b803560ff81168114611bb557600080fd5b919050565b600060208284031215611bcc57600080fd5b610e4382611ba4565b80356001600160a01b0381168114611bb557600080fd5b80356001600160401b0381168114611bb557600080fd5b60008083601f840112611c1557600080fd5b5081356001600160401b03811115611c2c57600080fd5b60208301915083602082850101111561161a57600080fd5b600080600080600080600080600060e08a8c031215611c6257600080fd5b611c6b8a611ba4565b9850611c7960208b01611ba4565b9750611c8760408b01611bd5565b9650611c9560608b01611bec565b955060808a0135945060a08a01356001600160401b0380821115611cb857600080fd5b611cc48d838e01611c03565b909650945060c08c0135915080821115611cdd57600080fd5b50611cea8c828d01611c03565b915080935050809150509295985092959850929598565b600060208284031215611d1357600080fd5b5035919050565b60008060408385031215611d2d57600080fd5b82359150611d3d60208401611bd5565b90509250929050565b60008060408385031215611d5957600080fd5b611d6283611ba4565b946020939093013593505050565b6000815180845260005b81811015611d9657602081850181015186830182015201611d7a565b81811115611da8576000602083870101525b50601f01601f19169290920160200192915050565b60ff8816815260ff8716602082015260018060a01b03861660408201526001600160401b038516606082015283608082015260e060a08201526000611e0560e0830185611d70565b90508260c083015298975050505050505050565b634e487b7160e01b600052604160045260246000fd5b600060208284031215611e4157600080fd5b81356001600160401b0380821115611e5857600080fd5b818401915084601f830112611e6c57600080fd5b813581811115611e7e57611e7e611e19565b604051601f8201601f19908116603f01168101908382118183101715611ea657611ea6611e19565b81604052828152876020848701011115611ebf57600080fd5b826020860160208301376000928101602001929092525095945050505050565b60008060408385031215611ef257600080fd5b50508035926020909101359150565b602081526000610e436020830184611d70565b60008060408385031215611f2757600080fd5b611f3083611ba4565b9150611d3d60208401611ba4565b600060208284031215611f5057600080fd5b610e4382611bd5565b6020815260ff825116602082015260ff602083015116604082015260018060a01b0360408301511660608201526001600160401b036060830151166080820152608082015160a0820152600060a083015160e060c0840152611fbf610100840182611d70565b905060c084015160e08401528091505092915050565b600080600080600060808688031215611fed57600080fd5b611ff686611ba4565b945061200460208701611bec565b93506040860135925060608601356001600160401b0381111561202657600080fd5b61203288828901611c03565b969995985093965092949392505050565b6000602080830181845280855180835260408601915060408160051b870101925083870160005b8281101561209857603f19888603018452612086858351611d70565b9450928501929085019060010161206a565b5092979650505050505050565b8183823760009101908152919050565b600181811c908216806120c957607f821691505b602082108114156120ea57634e487b7160e01b600052602260045260246000fd5b50919050565b634e487b7160e01b600052601160045260246000fd5b600060001982141561211a5761211a6120f0565b5060010190565b81835281816020850137506000828201602090810191909152601f909101601f19169091010190565b6001600160401b038616815260606020820152600061216d606083018688612121565b8281036040840152612180818587612121565b98975050505050505050565b634e487b7160e01b600052602160045260246000fd5b634e487b7160e01b600052603260045260246000fd5b600082198211156121cb576121cb6120f0565b500190565b6000828210156121e2576121e26120f0565b500390565b634e487b7160e01b600052603160045260246000fdfea2646970667358221220688276c8902993367a39d2aefc27074532d8f9d6e1e46112ec0decedf6bbaf8964736f6c634300080b0033",
  "linkReferences": {},
  "deployedLinkReferences": {}
}