{
  "_format": "hh-sol-artifact-1",
  "contractName": "SignaturesUpgradeable",
  "sourceName": "contracts/SignaturesUpgradeable.sol",
  "abi": [
    {
      "anonymous": false,
      "inputs": [
        {
          "indexed": false,
          "internalType": "uint8",
          "name": "version",
          "type": "uint8"
        }
      ],
      "name": "Initialized",
      "type": "event"
    },
    {
      "anonymous": false,
      "inputs": [
        {
          "indexed": false,
          "internalType": "address",
          "name": "account",
          "type": "address"
        }
      ],
      "name": "Paused",
      "type": "event"
    },
    {
      "anonymous": false,
      "inputs": [
        {
          "indexed": true,
          "internalType": "bytes32",
          "name": "role",
          "type": "bytes32"
        },
        {
          "indexed": true,
          "internalType": "address",
          "name": "account",
          "type": "address"
        },
        {
          "indexed": true,
          "internalType": "address",
          "name": "sender",
          "type": "address"
        }
      ],
      "name": "RoleGranted",
      "type": "event"
    },
    {
      "anonymous": false,
      "inputs": [
        {
          "indexed": true,
          "internalType": "bytes32",
          "name": "role",
          "type": "bytes32"
        },
        {
          "indexed": true,
          "internalType": "address",
          "name": "account",
          "type": "address"
        },
        {
          "indexed": true,
          "internalType": "address",
          "name": "sender",
          "type": "address"
        }
      ],
      "name": "RoleRevoked",
      "type": "event"
    },
    {
      "anonymous": false,
      "inputs": [
        {
          "indexed": true,
          "internalType": "uint8",
          "name": "originDomainID",
          "type": "uint8"
        },
        {
          "indexed": true,
          "internalType": "uint8",
          "name": "destinationDomainID",
          "type": "uint8"
        },
        {
          "indexed": false,
          "internalType": "uint64",
          "name": "depositNonce",
          "type": "uint64"
        },
        {
          "indexed": true,
          "internalType": "bytes32",
          "name": "resourceID",
          "type": "bytes32"
        },
        {
          "indexed": false,
          "internalType": "bytes",
          "name": "data",
          "type": "bytes"
        },
        {
          "indexed": false,
          "internalType": "bytes",
          "name": "signature",
          "type": "bytes"
        }
      ],
      "name": "SignaturePass",
      "type": "event"
    },
    {
      "anonymous": false,
      "inputs": [
        {
          "indexed": true,
          "internalType": "uint8",
          "name": "originDomainID",
          "type": "uint8"
        },
        {
          "indexed": true,
          "internalType": "uint8",
          "name": "destinationDomainID",
          "type": "uint8"
        },
        {
          "indexed": false,
          "internalType": "uint64",
          "name": "depositNonce",
          "type": "uint64"
        },
        {
          "indexed": true,
          "internalType": "bytes32",
          "name": "resourceID",
          "type": "bytes32"
        },
        {
          "indexed": false,
          "internalType": "bytes",
          "name": "data",
          "type": "bytes"
        },
        {
          "indexed": false,
          "internalType": "bytes",
          "name": "signature",
          "type": "bytes"
        }
      ],
      "name": "SubmitSignature",
      "type": "event"
    },
    {
      "anonymous": false,
      "inputs": [
        {
          "indexed": false,
          "internalType": "address",
          "name": "account",
          "type": "address"
        }
      ],
      "name": "Unpaused",
      "type": "event"
    },
    {
      "inputs": [],
      "name": "DEFAULT_ADMIN_ROLE",
      "outputs": [
        {
          "internalType": "bytes32",
          "name": "",
          "type": "bytes32"
        }
      ],
      "stateMutability": "view",
      "type": "function"
    },
    {
      "inputs": [],
      "name": "PERMIT_TYPEHASH",
      "outputs": [
        {
          "internalType": "bytes32",
          "name": "",
          "type": "bytes32"
        }
      ],
      "stateMutability": "view",
      "type": "function"
    },
    {
      "inputs": [],
      "name": "RELAYER_ROLE",
      "outputs": [
        {
          "internalType": "bytes32",
          "name": "",
          "type": "bytes32"
        }
      ],
      "stateMutability": "view",
      "type": "function"
    },
    {
      "inputs": [],
      "name": "_TYPE_HASH",
      "outputs": [
        {
          "internalType": "bytes32",
          "name": "",
          "type": "bytes32"
        }
      ],
      "stateMutability": "view",
      "type": "function"
    },
    {
      "inputs": [
        {
          "internalType": "uint8",
          "name": "",
          "type": "uint8"
        }
      ],
      "name": "_relayerThreshold",
      "outputs": [
        {
          "internalType": "uint8",
          "name": "",
          "type": "uint8"
        }
      ],
      "stateMutability": "view",
      "type": "function"
    },
    {
      "inputs": [
        {
          "internalType": "uint8",
          "name": "destinationDomainID",
          "type": "uint8"
        },
        {
          "internalType": "uint256",
          "name": "newThreshold",
          "type": "uint256"
        }
      ],
      "name": "adminChangeRelayerThreshold",
      "outputs": [],
      "stateMutability": "nonpayable",
      "type": "function"
    },
    {
      "inputs": [],
      "name": "adminPause",
      "outputs": [],
      "stateMutability": "nonpayable",
      "type": "function"
    },
    {
      "inputs": [
        {
          "internalType": "uint8",
          "name": "destinationDomainID",
          "type": "uint8"
        },
        {
          "internalType": "uint256",
          "name": "chainId",
          "type": "uint256"
        },
        {
          "internalType": "address",
          "name": "destinationBridge",
          "type": "address"
        }
      ],
      "name": "adminSetDestChainId",
      "outputs": [],
      "stateMutability": "nonpayable",
      "type": "function"
    },
    {
      "inputs": [],
      "name": "adminUnpause",
      "outputs": [],
      "stateMutability": "nonpayable",
      "type": "function"
    },
    {
      "inputs": [
        {
          "internalType": "uint8",
          "name": "domainID",
          "type": "uint8"
        },
        {
          "internalType": "uint8",
          "name": "destinationDomainID",
          "type": "uint8"
        },
        {
          "internalType": "uint64",
          "name": "depositNonce",
          "type": "uint64"
        },
        {
          "internalType": "bytes32",
          "name": "resourceID",
          "type": "bytes32"
        },
        {
          "internalType": "bytes",
          "name": "data",
          "type": "bytes"
        },
        {
          "internalType": "bytes",
          "name": "signature",
          "type": "bytes"
        }
      ],
      "name": "checkSignature",
      "outputs": [
        {
          "internalType": "address",
          "name": "",
          "type": "address"
        }
      ],
      "stateMutability": "view",
      "type": "function"
    },
    {
      "inputs": [
        {
          "internalType": "uint8",
          "name": "",
          "type": "uint8"
        }
      ],
      "name": "destChainId",
      "outputs": [
        {
          "internalType": "uint256",
          "name": "",
          "type": "uint256"
        }
      ],
      "stateMutability": "view",
      "type": "function"
    },
    {
      "inputs": [
        {
          "internalType": "uint8",
          "name": "",
          "type": "uint8"
        }
      ],
      "name": "destinationBridgeAddress",
      "outputs": [
        {
          "internalType": "address",
          "name": "",
          "type": "address"
        }
      ],
      "stateMutability": "view",
      "type": "function"
    },
    {
      "inputs": [
        {
          "internalType": "uint256",
          "name": "index",
          "type": "uint256"
        }
      ],
      "name": "getProposal",
      "outputs": [
        {
          "components": [
            {
              "internalType": "uint8",
              "name": "originDomainID",
              "type": "uint8"
            },
            {
              "internalType": "uint8",
              "name": "destinationDomainID",
              "type": "uint8"
            },
            {
              "internalType": "address",
              "name": "destinationBridge",
              "type": "address"
            },
            {
              "internalType": "uint64",
              "name": "depositNonce",
              "type": "uint64"
            },
            {
              "internalType": "bytes32",
              "name": "resourceID",
              "type": "bytes32"
            },
            {
              "internalType": "bytes",
              "name": "data",
              "type": "bytes"
            },
            {
              "internalType": "uint256",
              "name": "proposalIndex",
              "type": "uint256"
            }
          ],
          "internalType": "struct SignaturesUpgradeable.Proposal",
          "name": "",
          "type": "tuple"
        }
      ],
      "stateMutability": "view",
      "type": "function"
    },
    {
      "inputs": [
        {
          "internalType": "bytes32",
          "name": "role",
          "type": "bytes32"
        }
      ],
      "name": "getRoleAdmin",
      "outputs": [
        {
          "internalType": "bytes32",
          "name": "",
          "type": "bytes32"
        }
      ],
      "stateMutability": "view",
      "type": "function"
    },
    {
      "inputs": [
        {
          "internalType": "bytes32",
          "name": "role",
          "type": "bytes32"
        },
        {
          "internalType": "uint256",
          "name": "index",
          "type": "uint256"
        }
      ],
      "name": "getRoleMember",
      "outputs": [
        {
          "internalType": "address",
          "name": "",
          "type": "address"
        }
      ],
      "stateMutability": "view",
      "type": "function"
    },
    {
      "inputs": [
        {
          "internalType": "bytes32",
          "name": "role",
          "type": "bytes32"
        }
      ],
      "name": "getRoleMemberCount",
      "outputs": [
        {
          "internalType": "uint256",
          "name": "",
          "type": "uint256"
        }
      ],
      "stateMutability": "view",
      "type": "function"
    },
    {
      "inputs": [
        {
          "internalType": "bytes32",
          "name": "role",
          "type": "bytes32"
        },
        {
          "internalType": "address",
          "name": "account",
          "type": "address"
        }
      ],
      "name": "getRoleMemberIndex",
      "outputs": [
        {
          "internalType": "uint256",
          "name": "",
          "type": "uint256"
        }
      ],
      "stateMutability": "view",
      "type": "function"
    },
    {
      "inputs": [
        {
          "internalType": "uint8",
          "name": "domainID",
          "type": "uint8"
        },
        {
          "internalType": "uint64",
          "name": "depositNonce",
          "type": "uint64"
        },
        {
          "internalType": "bytes32",
          "name": "resourceID",
          "type": "bytes32"
        },
        {
          "internalType": "bytes",
          "name": "data",
          "type": "bytes"
        }
      ],
      "name": "getSignatures",
      "outputs": [
        {
          "internalType": "bytes[]",
          "name": "",
          "type": "bytes[]"
        }
      ],
      "stateMutability": "view",
      "type": "function"
    },
    {
      "inputs": [
        {
          "internalType": "uint256",
          "name": "index",
          "type": "uint256"
        }
      ],
      "name": "getSignatures",
      "outputs": [
        {
          "internalType": "bytes[]",
          "name": "",
          "type": "bytes[]"
        }
      ],
      "stateMutability": "view",
      "type": "function"
    },
    {
      "inputs": [
        {
          "internalType": "bytes32",
          "name": "role",
          "type": "bytes32"
        },
        {
          "internalType": "address",
          "name": "account",
          "type": "address"
        }
      ],
      "name": "grantRole",
      "outputs": [],
      "stateMutability": "nonpayable",
      "type": "function"
    },
    {
      "inputs": [
        {
          "internalType": "bytes32",
          "name": "role",
          "type": "bytes32"
        },
        {
          "internalType": "address",
          "name": "account",
          "type": "address"
        }
      ],
      "name": "hasRole",
      "outputs": [
        {
          "internalType": "bool",
          "name": "",
          "type": "bool"
        }
      ],
      "stateMutability": "view",
      "type": "function"
    },
    {
      "inputs": [
        {
          "internalType": "bytes",
          "name": "",
          "type": "bytes"
        }
      ],
      "name": "hasVote",
      "outputs": [
        {
          "internalType": "bool",
          "name": "",
          "type": "bool"
        }
      ],
      "stateMutability": "view",
      "type": "function"
    },
    {
      "inputs": [
        {
          "internalType": "uint256",
          "name": "",
          "type": "uint256"
        }
      ],
      "name": "indexToProposal",
      "outputs": [
        {
          "internalType": "bytes32",
          "name": "",
          "type": "bytes32"
        }
      ],
      "stateMutability": "view",
      "type": "function"
    },
    {
      "inputs": [
        {
          "internalType": "address",
          "name": "admin",
          "type": "address"
        }
      ],
      "name": "initialize",
      "outputs": [],
      "stateMutability": "nonpayable",
      "type": "function"
    },
    {
      "inputs": [],
      "name": "paused",
      "outputs": [
        {
          "internalType": "bool",
          "name": "",
          "type": "bool"
        }
      ],
      "stateMutability": "view",
      "type": "function"
    },
    {
      "inputs": [],
      "name": "proposalIndex",
      "outputs": [
        {
          "internalType": "uint256",
          "name": "",
          "type": "uint256"
        }
      ],
      "stateMutability": "view",
      "type": "function"
    },
    {
      "inputs": [
        {
          "internalType": "bytes32",
          "name": "",
          "type": "bytes32"
        }
      ],
      "name": "proposals",
      "outputs": [
        {
          "internalType": "uint8",
          "name": "originDomainID",
          "type": "uint8"
        },
        {
          "internalType": "uint8",
          "name": "destinationDomainID",
          "type": "uint8"
        },
        {
          "internalType": "address",
          "name": "destinationBridge",
          "type": "address"
        },
        {
          "internalType": "uint64",
          "name": "depositNonce",
          "type": "uint64"
        },
        {
          "internalType": "bytes32",
          "name": "resourceID",
          "type": "bytes32"
        },
        {
          "internalType": "bytes",
          "name": "data",
          "type": "bytes"
        },
        {
          "internalType": "uint256",
          "name": "proposalIndex",
          "type": "uint256"
        }
      ],
      "stateMutability": "view",
      "type": "function"
    },
    {
      "inputs": [
        {
          "internalType": "bytes32",
          "name": "",
          "type": "bytes32"
        },
        {
          "internalType": "address",
          "name": "",
          "type": "address"
        }
      ],
      "name": "relayerVote",
      "outputs": [
        {
          "internalType": "bool",
          "name": "",
          "type": "bool"
        }
      ],
      "stateMutability": "view",
      "type": "function"
    },
    {
      "inputs": [
        {
          "internalType": "bytes32",
          "name": "role",
          "type": "bytes32"
        },
        {
          "internalType": "address",
          "name": "account",
          "type": "address"
        }
      ],
      "name": "renounceRole",
      "outputs": [],
      "stateMutability": "nonpayable",
      "type": "function"
    },
    {
      "inputs": [
        {
          "internalType": "bytes32",
          "name": "role",
          "type": "bytes32"
        },
        {
          "internalType": "address",
          "name": "account",
          "type": "address"
        }
      ],
      "name": "revokeRole",
      "outputs": [],
      "stateMutability": "nonpayable",
      "type": "function"
    },
    {
      "inputs": [
        {
          "internalType": "bytes32",
          "name": "",
          "type": "bytes32"
        },
        {
          "internalType": "uint256",
          "name": "",
          "type": "uint256"
        }
      ],
      "name": "signatures",
      "outputs": [
        {
          "internalType": "bytes",
          "name": "",
          "type": "bytes"
        }
      ],
      "stateMutability": "view",
      "type": "function"
    },
    {
      "inputs": [
        {
          "internalType": "uint8",
          "name": "originDomainID",
          "type": "uint8"
        },
        {
          "internalType": "uint8",
          "name": "destinationDomainID",
          "type": "uint8"
        },
        {
          "internalType": "uint64",
          "name": "depositNonce",
          "type": "uint64"
        },
        {
          "internalType": "bytes32",
          "name": "resourceID",
          "type": "bytes32"
        },
        {
          "internalType": "bytes",
          "name": "data",
          "type": "bytes"
        },
        {
          "internalType": "bytes",
          "name": "signature",
          "type": "bytes"
        }
      ],
      "name": "submitSignature",
      "outputs": [],
      "stateMutability": "nonpayable",
      "type": "function"
    }
  ],
  "bytecode": "0x608060405234801561001057600080fd5b506124fd806100206000396000f3fe608060405234801561001057600080fd5b50600436106101f05760003560e01c80637600c4a51161010f578063ab676c26116100a2578063ca15c87311610071578063ca15c8731461051a578063d547741f1461052d578063e5787a7514610540578063f4eccb8f1461056057600080fd5b8063ab676c26146104cc578063c20860af146104df578063c4d66de8146104e7578063c7f758a8146104fa57600080fd5b806392f9c067116100de57806392f9c06714610474578063981533491461047c578063a217fddf1461048f578063aa44739d1461049757600080fd5b80637600c4a5146103e65780639010d07c1461042757806391d148541461043a578063926d7d7f1461044d57600080fd5b806336568abe116101875780635977e0f2116101565780635977e0f2146103855780635c975abb1461038e5780635d2dab0b1461039f57806374400fd1146103c657600080fd5b806336568abe1461031e57806336a3a44e146103315780634e0df3f61461034457806350916c7c1461035757600080fd5b80632fda959e116101c35780632fda959e1461029e57806330adf81f146102b157806332ed5b12146102d85780633640850b146102fe57600080fd5b80630b18fec5146101f5578063248a9ca3146102285780632703a4fd1461024b5780632f2ff15d14610289575b600080fd5b610215610203366004611e66565b60666020526000908152604090205481565b6040519081526020015b60405180910390f35b610215610236366004611e81565b60009081526064602052604090206002015490565b610279610259366004611eb1565b606960209081526000928352604080842090915290825290205460ff1681565b604051901515815260200161021f565b61029c610297366004611eb1565b610573565b005b61029c6102ac366004611edd565b610606565b6102157fc4cb5d35714699d6e85b9562b644e60393b418d974a5c1dd8efaadac37a142c581565b6102eb6102e6366004611e81565b61065a565b60405161021f9796959493929190611f54565b61021561030c366004611e81565b606d6020526000908152604090205481565b61029c61032c366004611eb1565b61073a565b61029c61033f366004611fb0565b6107b4565b610215610352366004611eb1565b61081a565b610279610365366004612002565b805160208183018101805160688252928201919093012091525460ff1681565b610215606b5481565b60005462010000900460ff16610279565b6102157f8b73c3c69bb8fe3d512ecc4cf759cc79239f7b179b0ffacaa9a75d522b39400f81565b6103d96103d43660046120b2565b610847565b60405161021f91906120d4565b61040f6103f4366004611e66565b606a602052600090815260409020546001600160a01b031681565b6040516001600160a01b03909116815260200161021f565b61040f6104353660046120b2565b610900565b610279610448366004611eb1565b61091f565b6102157fe2b7fb3b832174769106daebcfd6d1970523240dda11281102db9363b83b0dc481565b61029c610937565b61029c61048a36600461213f565b610969565b610215600081565b6104ba6104a5366004611e66565b60656020526000908152604090205460ff1681565b60405160ff909116815260200161021f565b61040f6104da36600461213f565b610ddb565b61029c611020565b61029c6104f53660046121e9565b611050565b61050d610508366004611e81565b611164565b60405161021f9190612204565b610215610528366004611e81565b6112fb565b61029c61053b366004611eb1565b611312565b61055361054e366004612280565b611393565b60405161021f91906122ee565b61055361056e366004611e81565b6114e7565b60008281526064602052604090206002015461058f903361091f565b6105f85760405162461bcd60e51b815260206004820152602f60248201527f416363657373436f6e74726f6c3a2073656e646572206d75737420626520616e60448201526e0818591b5a5b881d1bc819dc985b9d608a1b60648201526084015b60405180910390fd5b610602828261161a565b5050565b61061160003361091f565b61062d5760405162461bcd60e51b81526004016105ef90612350565b61063681611673565b60ff9283166000908152606560205260409020805460ff1916919093161790915550565b606c6020526000908152604090208054600182015460028301805460ff808516956101008604909116946201000081046001600160a01b031694600160b01b9091046001600160401b03169390926106b190612387565b80601f01602080910402602001604051908101604052809291908181526020018280546106dd90612387565b801561072a5780601f106106ff5761010080835404028352916020019161072a565b820191906000526020600020905b81548152906001019060200180831161070d57829003601f168201915b5050505050908060030154905087565b6001600160a01b03811633146107aa5760405162461bcd60e51b815260206004820152602f60248201527f416363657373436f6e74726f6c3a2063616e206f6e6c792072656e6f756e636560448201526e103937b632b9903337b91039b2b63360891b60648201526084016105ef565b61060282826116ca565b6107bf60003361091f565b6107db5760405162461bcd60e51b81526004016105ef90612350565b60ff92909216600090815260666020908152604080832093909355606a90522080546001600160a01b0319166001600160a01b03909216919091179055565b60008281526064602090815260408083206001600160a01b03851684526001019091529020545b92915050565b6067602052816000526040600020818154811061086357600080fd5b9060005260206000200160009150915050805461087f90612387565b80601f01602080910402602001604051908101604052809291908181526020018280546108ab90612387565b80156108f85780601f106108cd576101008083540402835291602001916108f8565b820191906000526020600020905b8154815290600101906020018083116108db57829003601f168201915b505050505081565b60008281526064602052604081206109189083611723565b9392505050565b6000828152606460205260408120610918908361172f565b61094260003361091f565b61095e5760405162461bcd60e51b81526004016105ef90612350565b61096733611751565b565b6109716117a5565b60ff87166000908152606a60205260408120546001600160a01b03169061099e8a8a8a8a8a8a8a8a610ddb565b90506109ca7fe2b7fb3b832174769106daebcfd6d1970523240dda11281102db9363b83b0dc48261091f565b610a0a5760405162461bcd60e51b8152602060048201526011602482015270696e76616c6964207369676e617475726560781b60448201526064016105ef565b60008a8a8a8a8a8a604051610a209291906123c2565b6040805191829003822060ff968716602084015294909516948101949094526001600160401b03919091166060840152608083015260a082015260c00160408051601f1981840301815291815281516020928301206000818152606984528281206001600160a01b038716825290935291205490915060ff1615610ae65760405162461bcd60e51b815260206004820152601860248201527f7369676e617475726520616c6561726479207375626d6974000000000000000060448201526064016105ef565b60008181526069602090815260408083206001600160a01b03861684528252808320805460ff1916600117905560ff8d8116845260658352818420548585526067909352922054911611610b745760405162461bcd60e51b81526020600482015260156024820152745369676e7475726520616c6561726479207061737360581b60448201526064016105ef565b600081815260676020526040902054610ce957606b8054906000610b97836123e8565b91905055506040518060e001604052808c60ff1681526020018b60ff168152602001846001600160a01b031681526020018a6001600160401b0316815260200189815260200188888080601f01602080910402602001604051908101604052809392919081815260200183838082843760009201829052509385525050606b5460209384015250838152606c825260409081902083518154858501519386015160608701516001600160401b0316600160b01b0267ffffffffffffffff60b01b196001600160a01b0390921662010000029190911662010000600160f01b031960ff9687166101000261ffff1990941696909416959095179190911791909116929092179190911781556080830151600182015560a083015180519192610cc692600285019290910190611d47565b5060c09190910151600390910155606b546000908152606d602052604090208190555b6000818152606760209081526040822080546001810182559083529120610d1291018686611dc7565b50878a60ff168c60ff167fdbf724cd2f174f6ee6dc7d45f557ca42e3f0c483d5ac5da1317ade0e540889078c8b8b8b8b604051610d5395949392919061242c565b60405180910390a460ff808b16600090815260656020908152604080832054858452606790925290912054911611610dce57878a60ff168c60ff167fd94e275aae893bc4cab1c14c3052a527a80ae5542ad2047e0dbe0ceeb79bee018c8b8b8b8b604051610dc595949392919061242c565b60405180910390a45b5050505050505050505050565b6000807fc4cb5d35714699d6e85b9562b644e60393b418d974a5c1dd8efaadac37a142c58a89898989604051610e129291906123c2565b604051908190038120610e55959493929160200194855260ff9390931660208501526001600160401b039190911660408401526060830152608082015260a00190565b60408051601f19818403018152918152815160209283012060ff8c166000908152606a8452828120546066909452918220549093506001600160a01b0390921691610fce90849015610eb95760ff8d16600090815260666020526040902054610ebe565b8c60ff165b604080518082018252600c81526b5065726d697442726964676560a01b6020918201528151808301835260038152620312e360ec1b9082015281517f8b73c3c69bb8fe3d512ecc4cf759cc79239f7b179b0ffacaa9a75d522b39400f818301527f058443738ec3641a3233a9f285e16671e4ad9755445580d761017e695f75052b818401527fe6bbd6277e1bf288eed5e8d1780f9a50b239e86b153736bceebccf4ea79d90b3606082015260808101939093526001600160a01b03871660a0808501919091528251808503909101815260c08401835280519082012061190160f01b60e085015260e284015261010280840194909452815180840390940184526101229092019052815191012090565b90506110108187878080601f0160208091040260200160405190810160405280939291908181526020018383808284376000920191909152506117f192505050565b9c9b505050505050505050505050565b61102b60003361091f565b6110475760405162461bcd60e51b81526004016105ef90612350565b61096733611815565b600054610100900460ff16158080156110705750600054600160ff909116105b8061108a5750303b15801561108a575060005460ff166001145b6110ed5760405162461bcd60e51b815260206004820152602e60248201527f496e697469616c697a61626c653a20636f6e747261637420697320616c72656160448201526d191e481a5b9a5d1a585b1a5e995960921b60648201526084016105ef565b6000805460ff191660011790558015611110576000805461ff0019166101001790555b61111b6000836105f8565b8015610602576000805461ff0019169055604051600181527f7f26b83ff96e1f2b6a682f133852f6798a09c465da95921460cefb38474024989060200160405180910390a15050565b6040805160e08101825260008082526020820181905291810182905260608082018390526080820183905260a082015260c0810191909152606b548211156111e35760405162461bcd60e51b8152602060048201526012602482015271141c9bdc1bdcd85b081b9bdd08195e1a5cdd60721b60448201526064016105ef565b6000828152606d60209081526040808320548352606c825291829020825160e081018452815460ff8082168352610100820416938201939093526201000083046001600160a01b031693810193909352600160b01b9091046001600160401b031660608301526001810154608083015260028101805460a08401919061126890612387565b80601f016020809104026020016040519081016040528092919081815260200182805461129490612387565b80156112e15780601f106112b6576101008083540402835291602001916112e1565b820191906000526020600020905b8154815290600101906020018083116112c457829003601f168201915b505050505081526020016003820154815250509050919050565b600081815260646020526040812061084190611867565b60008281526064602052604090206002015461132e903361091f565b6107aa5760405162461bcd60e51b815260206004820152603060248201527f416363657373436f6e74726f6c3a2073656e646572206d75737420626520616e60448201526f2061646d696e20746f207265766f6b6560801b60648201526084016105ef565b60606067600087878787876040516113ac9291906123c2565b6040519081900381206113e89493929160200160ff9490941684526001600160401b039290921660208401526040830152606082015260800190565b604051602081830303815290604052805190602001208152602001908152602001600020805480602002602001604051908101604052809291908181526020016000905b828210156114d857838290600052602060002001805461144b90612387565b80601f016020809104026020016040519081016040528092919081815260200182805461147790612387565b80156114c45780601f10611499576101008083540402835291602001916114c4565b820191906000526020600020905b8154815290600101906020018083116114a757829003601f168201915b50505050508152602001906001019061142c565b50505050905095945050505050565b6060606b548211156115305760405162461bcd60e51b8152602060048201526012602482015271141c9bdc1bdcd85b081b9bdd08195e1a5cdd60721b60448201526064016105ef565b6000828152606d602090815260408083205483526067825280832080548251818502810185019093528083529193909284015b8282101561160f57838290600052602060002001805461158290612387565b80601f01602080910402602001604051908101604052809291908181526020018280546115ae90612387565b80156115fb5780601f106115d0576101008083540402835291602001916115fb565b820191906000526020600020905b8154815290600101906020018083116115de57829003601f168201915b505050505081526020019060010190611563565b505050509050919050565b60008281526064602052604090206116329082611871565b156106025760405133906001600160a01b0383169084907f2f8788117e7eff1d82e926ec794901d17c78024a50270940304540a733656f0d90600090a45050565b600061010082106116c65760405162461bcd60e51b815260206004820152601c60248201527f76616c756520646f6573206e6f742066697420696e203820626974730000000060448201526064016105ef565b5090565b60008281526064602052604090206116e29082611886565b156106025760405133906001600160a01b0383169084907ff6391f5c32d9c69d2a47ea670b442974b53935d1edc7fd64eb21e047a839171b90600090a45050565b6000610918838361189b565b6001600160a01b03811660009081526001830160205260408120541515610918565b6117596118c5565b6000805462ff0000191690556040516001600160a01b03821681527f5db9ee0a495bf2e6ff9c91a7834c1ba4fdd244a5e8aa4e537bd38aeae4b073aa906020015b60405180910390a150565b60005462010000900460ff16156109675760405162461bcd60e51b815260206004820152601060248201526f14185d5cd8589b194e881c185d5cd95960821b60448201526064016105ef565b60008060006118008585611914565b9150915061180d8161195a565b509392505050565b61181d6117a5565b6000805462ff00001916620100001790556040516001600160a01b03821681527f62e78cea01bee320cd4e420270b5ea74000d11b0c9f74754ebdbfc544b05a2589060200161179a565b6000610841825490565b6000610918836001600160a01b038416611b18565b6000610918836001600160a01b038416611b67565b60008260000182815481106118b2576118b261246e565b9060005260206000200154905092915050565b60005462010000900460ff166109675760405162461bcd60e51b815260206004820152601460248201527314185d5cd8589b194e881b9bdd081c185d5cd95960621b60448201526064016105ef565b60008082516041141561194b5760208301516040840151606085015160001a61193f87828585611c5a565b94509450505050611953565b506000905060025b9250929050565b600081600481111561196e5761196e612484565b14156119775750565b600181600481111561198b5761198b612484565b14156119d95760405162461bcd60e51b815260206004820152601860248201527f45434453413a20696e76616c6964207369676e6174757265000000000000000060448201526064016105ef565b60028160048111156119ed576119ed612484565b1415611a3b5760405162461bcd60e51b815260206004820152601f60248201527f45434453413a20696e76616c6964207369676e6174757265206c656e6774680060448201526064016105ef565b6003816004811115611a4f57611a4f612484565b1415611aa85760405162461bcd60e51b815260206004820152602260248201527f45434453413a20696e76616c6964207369676e6174757265202773272076616c604482015261756560f01b60648201526084016105ef565b6004816004811115611abc57611abc612484565b1415611b155760405162461bcd60e51b815260206004820152602260248201527f45434453413a20696e76616c6964207369676e6174757265202776272076616c604482015261756560f01b60648201526084016105ef565b50565b6000818152600183016020526040812054611b5f57508154600181810184556000848152602080822090930184905584548482528286019093526040902091909155610841565b506000610841565b60008181526001830160205260408120548015611c50576000611b8b60018361249a565b8554909150600090611b9f9060019061249a565b9050818114611c04576000866000018281548110611bbf57611bbf61246e565b9060005260206000200154905080876000018481548110611be257611be261246e565b6000918252602080832090910192909255918252600188019052604090208390555b8554869080611c1557611c156124b1565b600190038181906000526020600020016000905590558560010160008681526020019081526020016000206000905560019350505050610841565b6000915050610841565b6000807f7fffffffffffffffffffffffffffffff5d576e7357a4501ddfe92f46681b20a0831115611c915750600090506003611d3e565b8460ff16601b14158015611ca957508460ff16601c14155b15611cba5750600090506004611d3e565b6040805160008082526020820180845289905260ff881692820192909252606081018690526080810185905260019060a0016020604051602081039080840390855afa158015611d0e573d6000803e3d6000fd5b5050604051601f1901519150506001600160a01b038116611d3757600060019250925050611d3e565b9150600090505b94509492505050565b828054611d5390612387565b90600052602060002090601f016020900481019282611d755760008555611dbb565b82601f10611d8e57805160ff1916838001178555611dbb565b82800160010185558215611dbb579182015b82811115611dbb578251825591602001919060010190611da0565b506116c6929150611e3b565b828054611dd390612387565b90600052602060002090601f016020900481019282611df55760008555611dbb565b82601f10611e0e5782800160ff19823516178555611dbb565b82800160010185558215611dbb579182015b82811115611dbb578235825591602001919060010190611e20565b5b808211156116c65760008155600101611e3c565b803560ff81168114611e6157600080fd5b919050565b600060208284031215611e7857600080fd5b61091882611e50565b600060208284031215611e9357600080fd5b5035919050565b80356001600160a01b0381168114611e6157600080fd5b60008060408385031215611ec457600080fd5b82359150611ed460208401611e9a565b90509250929050565b60008060408385031215611ef057600080fd5b611ef983611e50565b946020939093013593505050565b6000815180845260005b81811015611f2d57602081850181015186830182015201611f11565b81811115611f3f576000602083870101525b50601f01601f19169290920160200192915050565b60ff8816815260ff8716602082015260018060a01b03861660408201526001600160401b038516606082015283608082015260e060a08201526000611f9c60e0830185611f07565b90508260c083015298975050505050505050565b600080600060608486031215611fc557600080fd5b611fce84611e50565b925060208401359150611fe360408501611e9a565b90509250925092565b634e487b7160e01b600052604160045260246000fd5b60006020828403121561201457600080fd5b81356001600160401b038082111561202b57600080fd5b818401915084601f83011261203f57600080fd5b81358181111561205157612051611fec565b604051601f8201601f19908116603f0116810190838211818310171561207957612079611fec565b8160405282815287602084870101111561209257600080fd5b826020860160208301376000928101602001929092525095945050505050565b600080604083850312156120c557600080fd5b50508035926020909101359150565b6020815260006109186020830184611f07565b80356001600160401b0381168114611e6157600080fd5b60008083601f84011261211057600080fd5b5081356001600160401b0381111561212757600080fd5b60208301915083602082850101111561195357600080fd5b60008060008060008060008060c0898b03121561215b57600080fd5b61216489611e50565b975061217260208a01611e50565b965061218060408a016120e7565b95506060890135945060808901356001600160401b03808211156121a357600080fd5b6121af8c838d016120fe565b909650945060a08b01359150808211156121c857600080fd5b506121d58b828c016120fe565b999c989b5096995094979396929594505050565b6000602082840312156121fb57600080fd5b61091882611e9a565b6020815260ff825116602082015260ff602083015116604082015260018060a01b0360408301511660608201526001600160401b036060830151166080820152608082015160a0820152600060a083015160e060c084015261226a610100840182611f07565b905060c084015160e08401528091505092915050565b60008060008060006080868803121561229857600080fd5b6122a186611e50565b94506122af602087016120e7565b93506040860135925060608601356001600160401b038111156122d157600080fd5b6122dd888289016120fe565b969995985093965092949392505050565b6000602080830181845280855180835260408601915060408160051b870101925083870160005b8281101561234357603f19888603018452612331858351611f07565b94509285019290850190600101612315565b5092979650505050505050565b6020808252601e908201527f73656e64657220646f65736e277420686176652061646d696e20726f6c650000604082015260600190565b600181811c9082168061239b57607f821691505b602082108114156123bc57634e487b7160e01b600052602260045260246000fd5b50919050565b8183823760009101908152919050565b634e487b7160e01b600052601160045260246000fd5b60006000198214156123fc576123fc6123d2565b5060010190565b81835281816020850137506000828201602090810191909152601f909101601f19169091010190565b6001600160401b038616815260606020820152600061244f606083018688612403565b8281036040840152612462818587612403565b98975050505050505050565b634e487b7160e01b600052603260045260246000fd5b634e487b7160e01b600052602160045260246000fd5b6000828210156124ac576124ac6123d2565b500390565b634e487b7160e01b600052603160045260246000fdfea2646970667358221220bf985be50f6e45c4a3c39f1a1ba5a5965cebbe77ba8717b85947c1772cff1f6664736f6c634300080b0033",
  "linkReferences": {},
  "deployedLinkReferences": {}
}