{
  "_format": "hh-sol-artifact-1",
  "contractName": "SignaturesUpgradeable",
  "sourceName": "contracts/SignaturesUpgradeable.sol",
  "abi": [
    {
      "anonymous": false,
      "inputs": [
        {
          "indexed": true,
          "internalType": "bytes32",
          "name": "role",
          "type": "bytes32"
        },
        {
          "indexed": true,
          "internalType": "address",
          "name": "account",
          "type": "address"
        },
        {
          "indexed": true,
          "internalType": "address",
          "name": "sender",
          "type": "address"
        }
      ],
      "name": "RoleGranted",
      "type": "event"
    },
    {
      "anonymous": false,
      "inputs": [
        {
          "indexed": true,
          "internalType": "bytes32",
          "name": "role",
          "type": "bytes32"
        },
        {
          "indexed": true,
          "internalType": "address",
          "name": "account",
          "type": "address"
        },
        {
          "indexed": true,
          "internalType": "address",
          "name": "sender",
          "type": "address"
        }
      ],
      "name": "RoleRevoked",
      "type": "event"
    },
    {
      "anonymous": false,
      "inputs": [
        {
          "indexed": true,
          "internalType": "uint8",
          "name": "originDomainID",
          "type": "uint8"
        },
        {
          "indexed": true,
          "internalType": "uint8",
          "name": "destinationDomainID",
          "type": "uint8"
        },
        {
          "indexed": false,
          "internalType": "uint64",
          "name": "depositNonce",
          "type": "uint64"
        },
        {
          "indexed": true,
          "internalType": "bytes32",
          "name": "resourceID",
          "type": "bytes32"
        },
        {
          "indexed": false,
          "internalType": "bytes",
          "name": "data",
          "type": "bytes"
        },
        {
          "indexed": false,
          "internalType": "bytes",
          "name": "signature",
          "type": "bytes"
        }
      ],
      "name": "SignturePass",
      "type": "event"
    },
    {
      "anonymous": false,
      "inputs": [
        {
          "indexed": true,
          "internalType": "uint8",
          "name": "originDomainID",
          "type": "uint8"
        },
        {
          "indexed": true,
          "internalType": "uint8",
          "name": "destinationDomainID",
          "type": "uint8"
        },
        {
          "indexed": false,
          "internalType": "uint64",
          "name": "depositNonce",
          "type": "uint64"
        },
        {
          "indexed": true,
          "internalType": "bytes32",
          "name": "resourceID",
          "type": "bytes32"
        },
        {
          "indexed": false,
          "internalType": "bytes",
          "name": "data",
          "type": "bytes"
        },
        {
          "indexed": false,
          "internalType": "bytes",
          "name": "signature",
          "type": "bytes"
        }
      ],
      "name": "SubmitSignature",
      "type": "event"
    },
    {
      "inputs": [],
      "name": "DEFAULT_ADMIN_ROLE",
      "outputs": [
        {
          "internalType": "bytes32",
          "name": "",
          "type": "bytes32"
        }
      ],
      "stateMutability": "view",
      "type": "function"
    },
    {
      "inputs": [],
      "name": "PERMIT_TYPEHASH",
      "outputs": [
        {
          "internalType": "bytes32",
          "name": "",
          "type": "bytes32"
        }
      ],
      "stateMutability": "view",
      "type": "function"
    },
    {
      "inputs": [],
      "name": "RELAYER_ROLE",
      "outputs": [
        {
          "internalType": "bytes32",
          "name": "",
          "type": "bytes32"
        }
      ],
      "stateMutability": "view",
      "type": "function"
    },
    {
      "inputs": [],
      "name": "_TYPE_HASH",
      "outputs": [
        {
          "internalType": "bytes32",
          "name": "",
          "type": "bytes32"
        }
      ],
      "stateMutability": "view",
      "type": "function"
    },
    {
      "inputs": [
        {
          "internalType": "uint8",
          "name": "",
          "type": "uint8"
        }
      ],
      "name": "_relayerThreshold",
      "outputs": [
        {
          "internalType": "uint8",
          "name": "",
          "type": "uint8"
        }
      ],
      "stateMutability": "view",
      "type": "function"
    },
    {
      "inputs": [
        {
          "internalType": "uint8",
          "name": "destinationDomainID",
          "type": "uint8"
        },
        {
          "internalType": "uint256",
          "name": "newThreshold",
          "type": "uint256"
        }
      ],
      "name": "adminChangeRelayerThreshold",
      "outputs": [],
      "stateMutability": "nonpayable",
      "type": "function"
    },
    {
      "inputs": [
        {
          "internalType": "uint8",
          "name": "destinationDomainID",
          "type": "uint8"
        },
        {
          "internalType": "uint8",
          "name": "chainId",
          "type": "uint8"
        }
      ],
      "name": "adminSetDestChainId",
      "outputs": [],
      "stateMutability": "nonpayable",
      "type": "function"
    },
    {
      "inputs": [
        {
          "internalType": "uint8",
          "name": "domainID",
          "type": "uint8"
        },
        {
          "internalType": "uint8",
          "name": "destinationDomainID",
          "type": "uint8"
        },
        {
          "internalType": "address",
          "name": "destinationBridge",
          "type": "address"
        },
        {
          "internalType": "uint64",
          "name": "depositNonce",
          "type": "uint64"
        },
        {
          "internalType": "bytes32",
          "name": "resourceID",
          "type": "bytes32"
        },
        {
          "internalType": "bytes",
          "name": "data",
          "type": "bytes"
        },
        {
          "internalType": "bytes",
          "name": "signature",
          "type": "bytes"
        }
      ],
      "name": "checkSignature",
      "outputs": [
        {
          "internalType": "address",
          "name": "",
          "type": "address"
        }
      ],
      "stateMutability": "view",
      "type": "function"
    },
    {
      "inputs": [
        {
          "internalType": "uint8",
          "name": "",
          "type": "uint8"
        }
      ],
      "name": "destChainId",
      "outputs": [
        {
          "internalType": "uint256",
          "name": "",
          "type": "uint256"
        }
      ],
      "stateMutability": "view",
      "type": "function"
    },
    {
      "inputs": [
        {
          "internalType": "bytes32",
          "name": "role",
          "type": "bytes32"
        }
      ],
      "name": "getRoleAdmin",
      "outputs": [
        {
          "internalType": "bytes32",
          "name": "",
          "type": "bytes32"
        }
      ],
      "stateMutability": "view",
      "type": "function"
    },
    {
      "inputs": [
        {
          "internalType": "bytes32",
          "name": "role",
          "type": "bytes32"
        },
        {
          "internalType": "uint256",
          "name": "index",
          "type": "uint256"
        }
      ],
      "name": "getRoleMember",
      "outputs": [
        {
          "internalType": "address",
          "name": "",
          "type": "address"
        }
      ],
      "stateMutability": "view",
      "type": "function"
    },
    {
      "inputs": [
        {
          "internalType": "bytes32",
          "name": "role",
          "type": "bytes32"
        }
      ],
      "name": "getRoleMemberCount",
      "outputs": [
        {
          "internalType": "uint256",
          "name": "",
          "type": "uint256"
        }
      ],
      "stateMutability": "view",
      "type": "function"
    },
    {
      "inputs": [
        {
          "internalType": "bytes32",
          "name": "role",
          "type": "bytes32"
        },
        {
          "internalType": "address",
          "name": "account",
          "type": "address"
        }
      ],
      "name": "getRoleMemberIndex",
      "outputs": [
        {
          "internalType": "uint256",
          "name": "",
          "type": "uint256"
        }
      ],
      "stateMutability": "view",
      "type": "function"
    },
    {
      "inputs": [
        {
          "internalType": "uint8",
          "name": "domainID",
          "type": "uint8"
        },
        {
          "internalType": "uint64",
          "name": "depositNonce",
          "type": "uint64"
        },
        {
          "internalType": "bytes32",
          "name": "resourceID",
          "type": "bytes32"
        },
        {
          "internalType": "bytes",
          "name": "data",
          "type": "bytes"
        }
      ],
      "name": "getSignatures",
      "outputs": [
        {
          "internalType": "bytes[]",
          "name": "",
          "type": "bytes[]"
        }
      ],
      "stateMutability": "view",
      "type": "function"
    },
    {
      "inputs": [
        {
          "internalType": "bytes32",
          "name": "role",
          "type": "bytes32"
        },
        {
          "internalType": "address",
          "name": "account",
          "type": "address"
        }
      ],
      "name": "grantRole",
      "outputs": [],
      "stateMutability": "nonpayable",
      "type": "function"
    },
    {
      "inputs": [
        {
          "internalType": "bytes32",
          "name": "role",
          "type": "bytes32"
        },
        {
          "internalType": "address",
          "name": "account",
          "type": "address"
        }
      ],
      "name": "hasRole",
      "outputs": [
        {
          "internalType": "bool",
          "name": "",
          "type": "bool"
        }
      ],
      "stateMutability": "view",
      "type": "function"
    },
    {
      "inputs": [
        {
          "internalType": "address",
          "name": "admin",
          "type": "address"
        }
      ],
      "name": "initialize",
      "outputs": [],
      "stateMutability": "nonpayable",
      "type": "function"
    },
    {
      "inputs": [
        {
          "internalType": "bytes32",
          "name": "role",
          "type": "bytes32"
        },
        {
          "internalType": "address",
          "name": "account",
          "type": "address"
        }
      ],
      "name": "renounceRole",
      "outputs": [],
      "stateMutability": "nonpayable",
      "type": "function"
    },
    {
      "inputs": [
        {
          "internalType": "bytes32",
          "name": "role",
          "type": "bytes32"
        },
        {
          "internalType": "address",
          "name": "account",
          "type": "address"
        }
      ],
      "name": "revokeRole",
      "outputs": [],
      "stateMutability": "nonpayable",
      "type": "function"
    },
    {
      "inputs": [
        {
          "internalType": "bytes32",
          "name": "",
          "type": "bytes32"
        },
        {
          "internalType": "uint256",
          "name": "",
          "type": "uint256"
        }
      ],
      "name": "signatures",
      "outputs": [
        {
          "internalType": "bytes",
          "name": "",
          "type": "bytes"
        }
      ],
      "stateMutability": "view",
      "type": "function"
    },
    {
      "inputs": [
        {
          "internalType": "uint8",
          "name": "originDomainID",
          "type": "uint8"
        },
        {
          "internalType": "uint8",
          "name": "destinationDomainID",
          "type": "uint8"
        },
        {
          "internalType": "address",
          "name": "destinationBridge",
          "type": "address"
        },
        {
          "internalType": "uint64",
          "name": "depositNonce",
          "type": "uint64"
        },
        {
          "internalType": "bytes32",
          "name": "resourceID",
          "type": "bytes32"
        },
        {
          "internalType": "bytes",
          "name": "data",
          "type": "bytes"
        },
        {
          "internalType": "bytes",
          "name": "signature",
          "type": "bytes"
        }
      ],
      "name": "submitSignature",
      "outputs": [],
      "stateMutability": "nonpayable",
      "type": "function"
    }
  ],
  "bytecode": "0x600c6080526b5065726d697442726964676560a01b60a0527f058443738ec3641a3233a9f285e16671e4ad9755445580d761017e695f75052b603455610100604052600360c052620312e360ec1b60e0527fe6bbd6277e1bf288eed5e8d1780f9a50b239e86b153736bceebccf4ea79d90b360355534801561008057600080fd5b5061191d806100906000396000f3fe608060405234801561001057600080fd5b50600436106101375760003560e01c8063861fd043116100b8578063a217fddf1161007c578063a217fddf146102fc578063aa44739d14610304578063c4d66de814610339578063ca15c8731461034c578063d547741f1461035f578063e5787a751461037257600080fd5b8063861fd043146102795780639010d07c1461028c57806391d148541461029f578063926d7d7f146102c2578063a11279c7146102e957600080fd5b806330adf81f116100ff57806330adf81f146101e557806336568abe1461020c5780634e0df3f61461021f5780635d2dab0b1461023257806374400fd11461025957600080fd5b80630b18fec51461013c5780631f241eca1461016f578063248a9ca31461019a5780632f2ff15d146101bd5780632fda959e146101d2575b600080fd5b61015c61014a366004611458565b60376020526000908152604090205481565b6040519081526020015b60405180910390f35b61018261017d3660046114e4565b610392565b6040516001600160a01b039091168152602001610166565b61015c6101a83660046115a2565b60009081526033602052604090206002015490565b6101d06101cb3660046115bb565b61055b565b005b6101d06101e03660046115e7565b6105ee565b61015c7fc4cb5d35714699d6e85b9562b644e60393b418d974a5c1dd8efaadac37a142c581565b6101d061021a3660046115bb565b610672565b61015c61022d3660046115bb565b6106ec565b61015c7f8b73c3c69bb8fe3d512ecc4cf759cc79239f7b179b0ffacaa9a75d522b39400f81565b61026c610267366004611611565b610719565b6040516101669190611680565b6101d06102873660046114e4565b6107d2565b61018261029a366004611611565b610a0b565b6102b26102ad3660046115bb565b610a2a565b6040519015158152602001610166565b61015c7fe2b7fb3b832174769106daebcfd6d1970523240dda11281102db9363b83b0dc481565b6101d06102f7366004611693565b610a42565b61015c600081565b610327610312366004611458565b60366020526000908152604090205460ff1681565b60405160ff9091168152602001610166565b6101d06103473660046116bd565b610ab2565b61015c61035a3660046115a2565b610b76565b6101d061036d3660046115bb565b610b8d565b6103856103803660046116d8565b610c0e565b6040516101669190611747565b6000807fc4cb5d35714699d6e85b9562b644e60393b418d974a5c1dd8efaadac37a142c58b898989896040516103c99291906117a9565b60405190819003812061040d959493929160200194855260ff93909316602085015267ffffffffffffffff9190911660408401526060830152608082015260a00190565b60408051601f19818403018152918152815160209283012060ff8d1660009081526037909352908220549092506105099083901561045d5760ff8d16600090815260376020526040902054610462565b8c60ff165b603454603554604080517f8b73c3c69bb8fe3d512ecc4cf759cc79239f7b179b0ffacaa9a75d522b39400f60208083019190915281830194909452606081019290925260808201939093526001600160a01b038f1660a0808301919091528351808303909101815260c08201845280519083012061190160f01b60e083015260e2820152610102808201949094528251808203909401845261012201909152815191012090565b905061054b8186868080601f016020809104026020016040519081016040528093929190818152602001838380828437600092019190915250610d6392505050565b9c9b505050505050505050505050565b6000828152603360205260409020600201546105779033610a2a565b6105e05760405162461bcd60e51b815260206004820152602f60248201527f416363657373436f6e74726f6c3a2073656e646572206d75737420626520616e60448201526e0818591b5a5b881d1bc819dc985b9d608a1b60648201526084015b60405180910390fd5b6105ea8282610d87565b5050565b6105f9600033610a2a565b6106455760405162461bcd60e51b815260206004820152601e60248201527f73656e64657220646f65736e277420686176652061646d696e20726f6c65000060448201526064016105d7565b61064e81610de0565b60ff9283166000908152603660205260409020805460ff1916919093161790915550565b6001600160a01b03811633146106e25760405162461bcd60e51b815260206004820152602f60248201527f416363657373436f6e74726f6c3a2063616e206f6e6c792072656e6f756e636560448201526e103937b632b9903337b91039b2b63360891b60648201526084016105d7565b6105ea8282610e37565b60008281526033602090815260408083206001600160a01b03851684526001019091529020545b92915050565b6038602052816000526040600020818154811061073557600080fd5b90600052602060002001600091509150508054610751906117b9565b80601f016020809104026020016040519081016040528092919081815260200182805461077d906117b9565b80156107ca5780601f1061079f576101008083540402835291602001916107ca565b820191906000526020600020905b8154815290600101906020018083116107ad57829003601f168201915b505050505081565b6108077fe2b7fb3b832174769106daebcfd6d1970523240dda11281102db9363b83b0dc46102ad8b8b8b8b8b8b8b8b8b610392565b6108475760405162461bcd60e51b8152602060048201526011602482015270696e76616c6964207369676e617475726560781b60448201526064016105d7565b6000898787878760405161085c9291906117a9565b6040519081900381206108999493929160200160ff94909416845267ffffffffffffffff9290921660208401526040830152606082015260800190565b60408051601f19818403018152918152815160209283012060ff808d16600090815260368552838120548382526038909552929092205490935091161161091a5760405162461bcd60e51b81526020600482015260156024820152745369676e7475726520616c6561726479207061737360581b60448201526064016105d7565b6000818152603860209081526040822080546001810182559083529120610943910184846113b2565b50858960ff168b60ff167fdbf724cd2f174f6ee6dc7d45f557ca42e3f0c483d5ac5da1317ade0e540889078a8989898960405161098495949392919061181d565b60405180910390a460ff808a166000908152603660209081526040808320548584526038909252909120549116116109ff57858960ff168b60ff167f31ad42d947b6829b5c034aaa2c4259af49e84066292aa963a38e2a9dba8206748a898989896040516109f695949392919061181d565b60405180910390a45b50505050505050505050565b6000828152603360205260408120610a239083610e90565b9392505050565b6000828152603360205260408120610a239083610e9c565b610a4d600033610a2a565b610a995760405162461bcd60e51b815260206004820152601e60248201527f73656e64657220646f65736e277420686176652061646d696e20726f6c65000060448201526064016105d7565b60ff918216600090815260376020526040902091169055565b600054610100900460ff16610acd5760005460ff1615610ad1565b303b155b610b345760405162461bcd60e51b815260206004820152602e60248201527f496e697469616c697a61626c653a20636f6e747261637420697320616c72656160448201526d191e481a5b9a5d1a585b1a5e995960921b60648201526084016105d7565b600054610100900460ff16158015610b56576000805461ffff19166101011790555b610b616000836105e0565b80156105ea576000805461ff00191690555050565b600081815260336020526040812061071390610ebe565b600082815260336020526040902060020154610ba99033610a2a565b6106e25760405162461bcd60e51b815260206004820152603060248201527f416363657373436f6e74726f6c3a2073656e646572206d75737420626520616e60448201526f2061646d696e20746f207265766f6b6560801b60648201526084016105d7565b6060603860008787878787604051610c279291906117a9565b604051908190038120610c649493929160200160ff94909416845267ffffffffffffffff9290921660208401526040830152606082015260800190565b604051602081830303815290604052805190602001208152602001908152602001600020805480602002602001604051908101604052809291908181526020016000905b82821015610d54578382906000526020600020018054610cc7906117b9565b80601f0160208091040260200160405190810160405280929190818152602001828054610cf3906117b9565b8015610d405780601f10610d1557610100808354040283529160200191610d40565b820191906000526020600020905b815481529060010190602001808311610d2357829003601f168201915b505050505081526020019060010190610ca8565b50505050905095945050505050565b6000806000610d728585610ec8565b91509150610d7f81610f38565b509392505050565b6000828152603360205260409020610d9f90826110f6565b156105ea5760405133906001600160a01b0383169084907f2f8788117e7eff1d82e926ec794901d17c78024a50270940304540a733656f0d90600090a45050565b60006101008210610e335760405162461bcd60e51b815260206004820152601c60248201527f76616c756520646f6573206e6f742066697420696e203820626974730000000060448201526064016105d7565b5090565b6000828152603360205260409020610e4f908261110b565b156105ea5760405133906001600160a01b0383169084907ff6391f5c32d9c69d2a47ea670b442974b53935d1edc7fd64eb21e047a839171b90600090a45050565b6000610a238383611120565b6001600160a01b03811660009081526001830160205260408120541515610a23565b6000610713825490565b600080825160411415610eff5760208301516040840151606085015160001a610ef38782858561114a565b94509450505050610f31565b825160401415610f295760208301516040840151610f1e868383611237565b935093505050610f31565b506000905060025b9250929050565b6000816004811115610f4c57610f4c611860565b1415610f555750565b6001816004811115610f6957610f69611860565b1415610fb75760405162461bcd60e51b815260206004820152601860248201527f45434453413a20696e76616c6964207369676e6174757265000000000000000060448201526064016105d7565b6002816004811115610fcb57610fcb611860565b14156110195760405162461bcd60e51b815260206004820152601f60248201527f45434453413a20696e76616c6964207369676e6174757265206c656e6774680060448201526064016105d7565b600381600481111561102d5761102d611860565b14156110865760405162461bcd60e51b815260206004820152602260248201527f45434453413a20696e76616c6964207369676e6174757265202773272076616c604482015261756560f01b60648201526084016105d7565b600481600481111561109a5761109a611860565b14156110f35760405162461bcd60e51b815260206004820152602260248201527f45434453413a20696e76616c6964207369676e6174757265202776272076616c604482015261756560f01b60648201526084016105d7565b50565b6000610a23836001600160a01b038416611270565b6000610a23836001600160a01b0384166112bf565b600082600001828154811061113757611137611876565b9060005260206000200154905092915050565b6000807f7fffffffffffffffffffffffffffffff5d576e7357a4501ddfe92f46681b20a0831115611181575060009050600361122e565b8460ff16601b1415801561119957508460ff16601c14155b156111aa575060009050600461122e565b6040805160008082526020820180845289905260ff881692820192909252606081018690526080810185905260019060a0016020604051602081039080840390855afa1580156111fe573d6000803e3d6000fd5b5050604051601f1901519150506001600160a01b0381166112275760006001925092505061122e565b9150600090505b94509492505050565b6000806001600160ff1b0383168161125460ff86901c601b6118a2565b90506112628782888561114a565b935093505050935093915050565b60008181526001830160205260408120546112b757508154600181810184556000848152602080822090930184905584548482528286019093526040902091909155610713565b506000610713565b600081815260018301602052604081205480156113a85760006112e36001836118ba565b85549091506000906112f7906001906118ba565b905081811461135c57600086600001828154811061131757611317611876565b906000526020600020015490508087600001848154811061133a5761133a611876565b6000918252602080832090910192909255918252600188019052604090208390555b855486908061136d5761136d6118d1565b600190038181906000526020600020016000905590558560010160008681526020019081526020016000206000905560019350505050610713565b6000915050610713565b8280546113be906117b9565b90600052602060002090601f0160209004810192826113e05760008555611426565b82601f106113f95782800160ff19823516178555611426565b82800160010185558215611426579182015b8281111561142657823582559160200191906001019061140b565b50610e339291505b80821115610e33576000815560010161142e565b803560ff8116811461145357600080fd5b919050565b60006020828403121561146a57600080fd5b610a2382611442565b80356001600160a01b038116811461145357600080fd5b803567ffffffffffffffff8116811461145357600080fd5b60008083601f8401126114b457600080fd5b50813567ffffffffffffffff8111156114cc57600080fd5b602083019150836020828501011115610f3157600080fd5b600080600080600080600080600060e08a8c03121561150257600080fd5b61150b8a611442565b985061151960208b01611442565b975061152760408b01611473565b965061153560608b0161148a565b955060808a0135945060a08a013567ffffffffffffffff8082111561155957600080fd5b6115658d838e016114a2565b909650945060c08c013591508082111561157e57600080fd5b5061158b8c828d016114a2565b915080935050809150509295985092959850929598565b6000602082840312156115b457600080fd5b5035919050565b600080604083850312156115ce57600080fd5b823591506115de60208401611473565b90509250929050565b600080604083850312156115fa57600080fd5b61160383611442565b946020939093013593505050565b6000806040838503121561162457600080fd5b50508035926020909101359150565b6000815180845260005b818110156116595760208185018101518683018201520161163d565b8181111561166b576000602083870101525b50601f01601f19169290920160200192915050565b602081526000610a236020830184611633565b600080604083850312156116a657600080fd5b6116af83611442565b91506115de60208401611442565b6000602082840312156116cf57600080fd5b610a2382611473565b6000806000806000608086880312156116f057600080fd5b6116f986611442565b94506117076020870161148a565b935060408601359250606086013567ffffffffffffffff81111561172a57600080fd5b611736888289016114a2565b969995985093965092949392505050565b6000602080830181845280855180835260408601915060408160051b870101925083870160005b8281101561179c57603f1988860301845261178a858351611633565b9450928501929085019060010161176e565b5092979650505050505050565b8183823760009101908152919050565b600181811c908216806117cd57607f821691505b602082108114156117ee57634e487b7160e01b600052602260045260246000fd5b50919050565b81835281816020850137506000828201602090810191909152601f909101601f19169091010190565b67ffffffffffffffff861681526060602082015260006118416060830186886117f4565b82810360408401526118548185876117f4565b98975050505050505050565b634e487b7160e01b600052602160045260246000fd5b634e487b7160e01b600052603260045260246000fd5b634e487b7160e01b600052601160045260246000fd5b600082198211156118b5576118b561188c565b500190565b6000828210156118cc576118cc61188c565b500390565b634e487b7160e01b600052603160045260246000fdfea264697066735822122092ee307f83dab442c0a27dbab3c6cd447956fed37809da59016396f45bb4426064736f6c634300080b0033",
  "linkReferences": {},
  "deployedLinkReferences": {}
}