{
  "_format": "hh-sol-artifact-1",
  "contractName": "SignaturesUpgradeable",
  "sourceName": "contracts/SignaturesUpgradeable.sol",
  "abi": [
    {
      "anonymous": false,
      "inputs": [
        {
          "indexed": true,
          "internalType": "bytes32",
          "name": "role",
          "type": "bytes32"
        },
        {
          "indexed": true,
          "internalType": "address",
          "name": "account",
          "type": "address"
        },
        {
          "indexed": true,
          "internalType": "address",
          "name": "sender",
          "type": "address"
        }
      ],
      "name": "RoleGranted",
      "type": "event"
    },
    {
      "anonymous": false,
      "inputs": [
        {
          "indexed": true,
          "internalType": "bytes32",
          "name": "role",
          "type": "bytes32"
        },
        {
          "indexed": true,
          "internalType": "address",
          "name": "account",
          "type": "address"
        },
        {
          "indexed": true,
          "internalType": "address",
          "name": "sender",
          "type": "address"
        }
      ],
      "name": "RoleRevoked",
      "type": "event"
    },
    {
      "anonymous": false,
      "inputs": [
        {
          "indexed": true,
          "internalType": "uint8",
          "name": "originDomainID",
          "type": "uint8"
        },
        {
          "indexed": true,
          "internalType": "uint8",
          "name": "destinationDomainID",
          "type": "uint8"
        },
        {
          "indexed": false,
          "internalType": "uint64",
          "name": "depositNonce",
          "type": "uint64"
        },
        {
          "indexed": true,
          "internalType": "bytes32",
          "name": "resourceID",
          "type": "bytes32"
        },
        {
          "indexed": false,
          "internalType": "bytes",
          "name": "data",
          "type": "bytes"
        },
        {
          "indexed": false,
          "internalType": "bytes",
          "name": "signature",
          "type": "bytes"
        }
      ],
      "name": "SignturePass",
      "type": "event"
    },
    {
      "anonymous": false,
      "inputs": [
        {
          "indexed": true,
          "internalType": "uint8",
          "name": "originDomainID",
          "type": "uint8"
        },
        {
          "indexed": true,
          "internalType": "uint8",
          "name": "destinationDomainID",
          "type": "uint8"
        },
        {
          "indexed": false,
          "internalType": "uint64",
          "name": "depositNonce",
          "type": "uint64"
        },
        {
          "indexed": true,
          "internalType": "bytes32",
          "name": "resourceID",
          "type": "bytes32"
        },
        {
          "indexed": false,
          "internalType": "bytes",
          "name": "data",
          "type": "bytes"
        },
        {
          "indexed": false,
          "internalType": "bytes",
          "name": "signature",
          "type": "bytes"
        }
      ],
      "name": "SubmitSignature",
      "type": "event"
    },
    {
      "inputs": [],
      "name": "DEFAULT_ADMIN_ROLE",
      "outputs": [
        {
          "internalType": "bytes32",
          "name": "",
          "type": "bytes32"
        }
      ],
      "stateMutability": "view",
      "type": "function"
    },
    {
      "inputs": [],
      "name": "PERMIT_TYPEHASH",
      "outputs": [
        {
          "internalType": "bytes32",
          "name": "",
          "type": "bytes32"
        }
      ],
      "stateMutability": "view",
      "type": "function"
    },
    {
      "inputs": [],
      "name": "RELAYER_ROLE",
      "outputs": [
        {
          "internalType": "bytes32",
          "name": "",
          "type": "bytes32"
        }
      ],
      "stateMutability": "view",
      "type": "function"
    },
    {
      "inputs": [],
      "name": "_TYPE_HASH",
      "outputs": [
        {
          "internalType": "bytes32",
          "name": "",
          "type": "bytes32"
        }
      ],
      "stateMutability": "view",
      "type": "function"
    },
    {
      "inputs": [
        {
          "internalType": "uint8",
          "name": "",
          "type": "uint8"
        }
      ],
      "name": "_relayerThreshold",
      "outputs": [
        {
          "internalType": "uint8",
          "name": "",
          "type": "uint8"
        }
      ],
      "stateMutability": "view",
      "type": "function"
    },
    {
      "inputs": [
        {
          "internalType": "uint8",
          "name": "destinationDomainID",
          "type": "uint8"
        },
        {
          "internalType": "uint256",
          "name": "newThreshold",
          "type": "uint256"
        }
      ],
      "name": "adminChangeRelayerThreshold",
      "outputs": [],
      "stateMutability": "nonpayable",
      "type": "function"
    },
    {
      "inputs": [
        {
          "internalType": "uint8",
          "name": "destinationDomainID",
          "type": "uint8"
        },
        {
          "internalType": "uint8",
          "name": "chainId",
          "type": "uint8"
        }
      ],
      "name": "adminSetDestChainId",
      "outputs": [],
      "stateMutability": "nonpayable",
      "type": "function"
    },
    {
      "inputs": [
        {
          "internalType": "uint8",
          "name": "domainID",
          "type": "uint8"
        },
        {
          "internalType": "uint8",
          "name": "destinationDomainID",
          "type": "uint8"
        },
        {
          "internalType": "address",
          "name": "destinationBridge",
          "type": "address"
        },
        {
          "internalType": "uint64",
          "name": "depositNonce",
          "type": "uint64"
        },
        {
          "internalType": "bytes32",
          "name": "resourceID",
          "type": "bytes32"
        },
        {
          "internalType": "bytes",
          "name": "data",
          "type": "bytes"
        },
        {
          "internalType": "bytes",
          "name": "signature",
          "type": "bytes"
        }
      ],
      "name": "checkSignature",
      "outputs": [
        {
          "internalType": "address",
          "name": "",
          "type": "address"
        }
      ],
      "stateMutability": "view",
      "type": "function"
    },
    {
      "inputs": [
        {
          "internalType": "uint8",
          "name": "",
          "type": "uint8"
        }
      ],
      "name": "destChainId",
      "outputs": [
        {
          "internalType": "uint256",
          "name": "",
          "type": "uint256"
        }
      ],
      "stateMutability": "view",
      "type": "function"
    },
    {
      "inputs": [
        {
          "internalType": "bytes32",
          "name": "role",
          "type": "bytes32"
        }
      ],
      "name": "getRoleAdmin",
      "outputs": [
        {
          "internalType": "bytes32",
          "name": "",
          "type": "bytes32"
        }
      ],
      "stateMutability": "view",
      "type": "function"
    },
    {
      "inputs": [
        {
          "internalType": "bytes32",
          "name": "role",
          "type": "bytes32"
        },
        {
          "internalType": "uint256",
          "name": "index",
          "type": "uint256"
        }
      ],
      "name": "getRoleMember",
      "outputs": [
        {
          "internalType": "address",
          "name": "",
          "type": "address"
        }
      ],
      "stateMutability": "view",
      "type": "function"
    },
    {
      "inputs": [
        {
          "internalType": "bytes32",
          "name": "role",
          "type": "bytes32"
        }
      ],
      "name": "getRoleMemberCount",
      "outputs": [
        {
          "internalType": "uint256",
          "name": "",
          "type": "uint256"
        }
      ],
      "stateMutability": "view",
      "type": "function"
    },
    {
      "inputs": [
        {
          "internalType": "bytes32",
          "name": "role",
          "type": "bytes32"
        },
        {
          "internalType": "address",
          "name": "account",
          "type": "address"
        }
      ],
      "name": "getRoleMemberIndex",
      "outputs": [
        {
          "internalType": "uint256",
          "name": "",
          "type": "uint256"
        }
      ],
      "stateMutability": "view",
      "type": "function"
    },
    {
      "inputs": [
        {
          "internalType": "uint8",
          "name": "domainID",
          "type": "uint8"
        },
        {
          "internalType": "uint64",
          "name": "depositNonce",
          "type": "uint64"
        },
        {
          "internalType": "bytes32",
          "name": "resourceID",
          "type": "bytes32"
        },
        {
          "internalType": "bytes",
          "name": "data",
          "type": "bytes"
        }
      ],
      "name": "getSignatures",
      "outputs": [
        {
          "internalType": "bytes[]",
          "name": "",
          "type": "bytes[]"
        }
      ],
      "stateMutability": "view",
      "type": "function"
    },
    {
      "inputs": [
        {
          "internalType": "bytes32",
          "name": "role",
          "type": "bytes32"
        },
        {
          "internalType": "address",
          "name": "account",
          "type": "address"
        }
      ],
      "name": "grantRole",
      "outputs": [],
      "stateMutability": "nonpayable",
      "type": "function"
    },
    {
      "inputs": [
        {
          "internalType": "bytes32",
          "name": "role",
          "type": "bytes32"
        },
        {
          "internalType": "address",
          "name": "account",
          "type": "address"
        }
      ],
      "name": "hasRole",
      "outputs": [
        {
          "internalType": "bool",
          "name": "",
          "type": "bool"
        }
      ],
      "stateMutability": "view",
      "type": "function"
    },
    {
      "inputs": [
        {
          "internalType": "bytes",
          "name": "",
          "type": "bytes"
        }
      ],
      "name": "hasVote",
      "outputs": [
        {
          "internalType": "bool",
          "name": "",
          "type": "bool"
        }
      ],
      "stateMutability": "view",
      "type": "function"
    },
    {
      "inputs": [
        {
          "internalType": "address",
          "name": "admin",
          "type": "address"
        }
      ],
      "name": "initialize",
      "outputs": [],
      "stateMutability": "nonpayable",
      "type": "function"
    },
    {
      "inputs": [
        {
          "internalType": "bytes32",
          "name": "role",
          "type": "bytes32"
        },
        {
          "internalType": "address",
          "name": "account",
          "type": "address"
        }
      ],
      "name": "renounceRole",
      "outputs": [],
      "stateMutability": "nonpayable",
      "type": "function"
    },
    {
      "inputs": [
        {
          "internalType": "bytes32",
          "name": "role",
          "type": "bytes32"
        },
        {
          "internalType": "address",
          "name": "account",
          "type": "address"
        }
      ],
      "name": "revokeRole",
      "outputs": [],
      "stateMutability": "nonpayable",
      "type": "function"
    },
    {
      "inputs": [
        {
          "internalType": "bytes32",
          "name": "",
          "type": "bytes32"
        },
        {
          "internalType": "uint256",
          "name": "",
          "type": "uint256"
        }
      ],
      "name": "signatures",
      "outputs": [
        {
          "internalType": "bytes",
          "name": "",
          "type": "bytes"
        }
      ],
      "stateMutability": "view",
      "type": "function"
    },
    {
      "inputs": [
        {
          "internalType": "uint8",
          "name": "originDomainID",
          "type": "uint8"
        },
        {
          "internalType": "uint8",
          "name": "destinationDomainID",
          "type": "uint8"
        },
        {
          "internalType": "address",
          "name": "destinationBridge",
          "type": "address"
        },
        {
          "internalType": "uint64",
          "name": "depositNonce",
          "type": "uint64"
        },
        {
          "internalType": "bytes32",
          "name": "resourceID",
          "type": "bytes32"
        },
        {
          "internalType": "bytes",
          "name": "data",
          "type": "bytes"
        },
        {
          "internalType": "bytes",
          "name": "signature",
          "type": "bytes"
        }
      ],
      "name": "submitSignature",
      "outputs": [],
      "stateMutability": "nonpayable",
      "type": "function"
    }
  ],
  "bytecode": "0x600c6080526b5065726d697442726964676560a01b60a0527f058443738ec3641a3233a9f285e16671e4ad9755445580d761017e695f75052b603455610100604052600360c052620312e360ec1b60e0527fe6bbd6277e1bf288eed5e8d1780f9a50b239e86b153736bceebccf4ea79d90b360355534801561008057600080fd5b50611ac8806100906000396000f3fe608060405234801561001057600080fd5b50600436106101425760003560e01c8063861fd043116100b8578063a217fddf1161007c578063a217fddf14610335578063aa44739d1461033d578063c4d66de814610372578063ca15c87314610385578063d547741f14610398578063e5787a75146103ab57600080fd5b8063861fd043146102c25780639010d07c146102d557806391d14854146102e8578063926d7d7f146102fb578063a11279c71461032257600080fd5b806330adf81f1161010a57806330adf81f146101f057806336568abe146102175780634e0df3f61461022a57806350916c7c1461023d5780635d2dab0b1461027b57806374400fd1146102a257600080fd5b80630b18fec5146101475780631f241eca1461017a578063248a9ca3146101a55780632f2ff15d146101c85780632fda959e146101dd575b600080fd5b61016761015536600461153c565b60376020526000908152604090205481565b6040519081526020015b60405180910390f35b61018d6101883660046115c8565b6103cb565b6040516001600160a01b039091168152602001610171565b6101676101b3366004611686565b60009081526033602052604090206002015490565b6101db6101d636600461169f565b610594565b005b6101db6101eb3660046116cb565b610627565b6101677fc4cb5d35714699d6e85b9562b644e60393b418d974a5c1dd8efaadac37a142c581565b6101db61022536600461169f565b6106ab565b61016761023836600461169f565b610725565b61026b61024b36600461170b565b805160208183018101805160398252928201919093012091525460ff1681565b6040519015158152602001610171565b6101677f8b73c3c69bb8fe3d512ecc4cf759cc79239f7b179b0ffacaa9a75d522b39400f81565b6102b56102b03660046117bc565b610752565b604051610171919061182b565b6101db6102d03660046115c8565b61080b565b61018d6102e33660046117bc565b610aef565b61026b6102f636600461169f565b610b0e565b6101677fe2b7fb3b832174769106daebcfd6d1970523240dda11281102db9363b83b0dc481565b6101db61033036600461183e565b610b26565b610167600081565b61036061034b36600461153c565b60366020526000908152604090205460ff1681565b60405160ff9091168152602001610171565b6101db610380366004611868565b610b96565b610167610393366004611686565b610c5a565b6101db6103a636600461169f565b610c71565b6103be6103b9366004611883565b610cf2565b60405161017191906118f2565b6000807fc4cb5d35714699d6e85b9562b644e60393b418d974a5c1dd8efaadac37a142c58b89898989604051610402929190611954565b604051908190038120610446959493929160200194855260ff93909316602085015267ffffffffffffffff9190911660408401526060830152608082015260a00190565b60408051601f19818403018152918152815160209283012060ff8d166000908152603790935290822054909250610542908390156104965760ff8d1660009081526037602052604090205461049b565b8c60ff165b603454603554604080517f8b73c3c69bb8fe3d512ecc4cf759cc79239f7b179b0ffacaa9a75d522b39400f60208083019190915281830194909452606081019290925260808201939093526001600160a01b038f1660a0808301919091528351808303909101815260c08201845280519083012061190160f01b60e083015260e2820152610102808201949094528251808203909401845261012201909152815191012090565b90506105848186868080601f016020809104026020016040519081016040528093929190818152602001838380828437600092019190915250610e4792505050565b9c9b505050505050505050505050565b6000828152603360205260409020600201546105b09033610b0e565b6106195760405162461bcd60e51b815260206004820152602f60248201527f416363657373436f6e74726f6c3a2073656e646572206d75737420626520616e60448201526e0818591b5a5b881d1bc819dc985b9d608a1b60648201526084015b60405180910390fd5b6106238282610e6b565b5050565b610632600033610b0e565b61067e5760405162461bcd60e51b815260206004820152601e60248201527f73656e64657220646f65736e277420686176652061646d696e20726f6c6500006044820152606401610610565b61068781610ec4565b60ff9283166000908152603660205260409020805460ff1916919093161790915550565b6001600160a01b038116331461071b5760405162461bcd60e51b815260206004820152602f60248201527f416363657373436f6e74726f6c3a2063616e206f6e6c792072656e6f756e636560448201526e103937b632b9903337b91039b2b63360891b6064820152608401610610565b6106238282610f1b565b60008281526033602090815260408083206001600160a01b03851684526001019091529020545b92915050565b6038602052816000526040600020818154811061076e57600080fd5b9060005260206000200160009150915050805461078a90611964565b80601f01602080910402602001604051908101604052809291908181526020018280546107b690611964565b80156108035780601f106107d857610100808354040283529160200191610803565b820191906000526020600020905b8154815290600101906020018083116107e657829003601f168201915b505050505081565b6108407fe2b7fb3b832174769106daebcfd6d1970523240dda11281102db9363b83b0dc46102f68b8b8b8b8b8b8b8b8b6103cb565b6108805760405162461bcd60e51b8152602060048201526011602482015270696e76616c6964207369676e617475726560781b6044820152606401610610565b60398282604051610892929190611954565b9081526040519081900360200190205460ff16156108f25760405162461bcd60e51b815260206004820152601860248201527f7369676e617475726520616c6561726479207375626d697400000000000000006044820152606401610610565b60008987878787604051610907929190611954565b6040519081900381206109449493929160200160ff94909416845267ffffffffffffffff9290921660208401526040830152606082015260800190565b60408051601f19818403018152918152815160209283012060ff808d1660009081526036855283812054838252603890955292909220549093509116116109c55760405162461bcd60e51b81526020600482015260156024820152745369676e7475726520616c6561726479207061737360581b6044820152606401610610565b60008181526038602090815260408220805460018101825590835291206109ee91018484611496565b50600160398484604051610a03929190611954565b908152602001604051809103902060006101000a81548160ff021916908315150217905550858960ff168b60ff167fdbf724cd2f174f6ee6dc7d45f557ca42e3f0c483d5ac5da1317ade0e540889078a89898989604051610a689594939291906119c8565b60405180910390a460ff808a16600090815260366020908152604080832054858452603890925290912054911611610ae357858960ff168b60ff167f31ad42d947b6829b5c034aaa2c4259af49e84066292aa963a38e2a9dba8206748a89898989604051610ada9594939291906119c8565b60405180910390a45b50505050505050505050565b6000828152603360205260408120610b079083610f74565b9392505050565b6000828152603360205260408120610b079083610f80565b610b31600033610b0e565b610b7d5760405162461bcd60e51b815260206004820152601e60248201527f73656e64657220646f65736e277420686176652061646d696e20726f6c6500006044820152606401610610565b60ff918216600090815260376020526040902091169055565b600054610100900460ff16610bb15760005460ff1615610bb5565b303b155b610c185760405162461bcd60e51b815260206004820152602e60248201527f496e697469616c697a61626c653a20636f6e747261637420697320616c72656160448201526d191e481a5b9a5d1a585b1a5e995960921b6064820152608401610610565b600054610100900460ff16158015610c3a576000805461ffff19166101011790555b610c45600083610619565b8015610623576000805461ff00191690555050565b600081815260336020526040812061074c90610fa2565b600082815260336020526040902060020154610c8d9033610b0e565b61071b5760405162461bcd60e51b815260206004820152603060248201527f416363657373436f6e74726f6c3a2073656e646572206d75737420626520616e60448201526f2061646d696e20746f207265766f6b6560801b6064820152608401610610565b6060603860008787878787604051610d0b929190611954565b604051908190038120610d489493929160200160ff94909416845267ffffffffffffffff9290921660208401526040830152606082015260800190565b604051602081830303815290604052805190602001208152602001908152602001600020805480602002602001604051908101604052809291908181526020016000905b82821015610e38578382906000526020600020018054610dab90611964565b80601f0160208091040260200160405190810160405280929190818152602001828054610dd790611964565b8015610e245780601f10610df957610100808354040283529160200191610e24565b820191906000526020600020905b815481529060010190602001808311610e0757829003601f168201915b505050505081526020019060010190610d8c565b50505050905095945050505050565b6000806000610e568585610fac565b91509150610e638161101c565b509392505050565b6000828152603360205260409020610e8390826111da565b156106235760405133906001600160a01b0383169084907f2f8788117e7eff1d82e926ec794901d17c78024a50270940304540a733656f0d90600090a45050565b60006101008210610f175760405162461bcd60e51b815260206004820152601c60248201527f76616c756520646f6573206e6f742066697420696e20382062697473000000006044820152606401610610565b5090565b6000828152603360205260409020610f3390826111ef565b156106235760405133906001600160a01b0383169084907ff6391f5c32d9c69d2a47ea670b442974b53935d1edc7fd64eb21e047a839171b90600090a45050565b6000610b078383611204565b6001600160a01b03811660009081526001830160205260408120541515610b07565b600061074c825490565b600080825160411415610fe35760208301516040840151606085015160001a610fd78782858561122e565b94509450505050611015565b82516040141561100d576020830151604084015161100286838361131b565b935093505050611015565b506000905060025b9250929050565b600081600481111561103057611030611a0b565b14156110395750565b600181600481111561104d5761104d611a0b565b141561109b5760405162461bcd60e51b815260206004820152601860248201527f45434453413a20696e76616c6964207369676e617475726500000000000000006044820152606401610610565b60028160048111156110af576110af611a0b565b14156110fd5760405162461bcd60e51b815260206004820152601f60248201527f45434453413a20696e76616c6964207369676e6174757265206c656e677468006044820152606401610610565b600381600481111561111157611111611a0b565b141561116a5760405162461bcd60e51b815260206004820152602260248201527f45434453413a20696e76616c6964207369676e6174757265202773272076616c604482015261756560f01b6064820152608401610610565b600481600481111561117e5761117e611a0b565b14156111d75760405162461bcd60e51b815260206004820152602260248201527f45434453413a20696e76616c6964207369676e6174757265202776272076616c604482015261756560f01b6064820152608401610610565b50565b6000610b07836001600160a01b038416611354565b6000610b07836001600160a01b0384166113a3565b600082600001828154811061121b5761121b611a21565b9060005260206000200154905092915050565b6000807f7fffffffffffffffffffffffffffffff5d576e7357a4501ddfe92f46681b20a08311156112655750600090506003611312565b8460ff16601b1415801561127d57508460ff16601c14155b1561128e5750600090506004611312565b6040805160008082526020820180845289905260ff881692820192909252606081018690526080810185905260019060a0016020604051602081039080840390855afa1580156112e2573d6000803e3d6000fd5b5050604051601f1901519150506001600160a01b03811661130b57600060019250925050611312565b9150600090505b94509492505050565b6000806001600160ff1b0383168161133860ff86901c601b611a4d565b90506113468782888561122e565b935093505050935093915050565b600081815260018301602052604081205461139b5750815460018181018455600084815260208082209093018490558454848252828601909352604090209190915561074c565b50600061074c565b6000818152600183016020526040812054801561148c5760006113c7600183611a65565b85549091506000906113db90600190611a65565b90508181146114405760008660000182815481106113fb576113fb611a21565b906000526020600020015490508087600001848154811061141e5761141e611a21565b6000918252602080832090910192909255918252600188019052604090208390555b855486908061145157611451611a7c565b60019003818190600052602060002001600090559055856001016000868152602001908152602001600020600090556001935050505061074c565b600091505061074c565b8280546114a290611964565b90600052602060002090601f0160209004810192826114c4576000855561150a565b82601f106114dd5782800160ff1982351617855561150a565b8280016001018555821561150a579182015b8281111561150a5782358255916020019190600101906114ef565b50610f179291505b80821115610f175760008155600101611512565b803560ff8116811461153757600080fd5b919050565b60006020828403121561154e57600080fd5b610b0782611526565b80356001600160a01b038116811461153757600080fd5b803567ffffffffffffffff8116811461153757600080fd5b60008083601f84011261159857600080fd5b50813567ffffffffffffffff8111156115b057600080fd5b60208301915083602082850101111561101557600080fd5b600080600080600080600080600060e08a8c0312156115e657600080fd5b6115ef8a611526565b98506115fd60208b01611526565b975061160b60408b01611557565b965061161960608b0161156e565b955060808a0135945060a08a013567ffffffffffffffff8082111561163d57600080fd5b6116498d838e01611586565b909650945060c08c013591508082111561166257600080fd5b5061166f8c828d01611586565b915080935050809150509295985092959850929598565b60006020828403121561169857600080fd5b5035919050565b600080604083850312156116b257600080fd5b823591506116c260208401611557565b90509250929050565b600080604083850312156116de57600080fd5b6116e783611526565b946020939093013593505050565b634e487b7160e01b600052604160045260246000fd5b60006020828403121561171d57600080fd5b813567ffffffffffffffff8082111561173557600080fd5b818401915084601f83011261174957600080fd5b81358181111561175b5761175b6116f5565b604051601f8201601f19908116603f01168101908382118183101715611783576117836116f5565b8160405282815287602084870101111561179c57600080fd5b826020860160208301376000928101602001929092525095945050505050565b600080604083850312156117cf57600080fd5b50508035926020909101359150565b6000815180845260005b81811015611804576020818501810151868301820152016117e8565b81811115611816576000602083870101525b50601f01601f19169290920160200192915050565b602081526000610b0760208301846117de565b6000806040838503121561185157600080fd5b61185a83611526565b91506116c260208401611526565b60006020828403121561187a57600080fd5b610b0782611557565b60008060008060006080868803121561189b57600080fd5b6118a486611526565b94506118b26020870161156e565b935060408601359250606086013567ffffffffffffffff8111156118d557600080fd5b6118e188828901611586565b969995985093965092949392505050565b6000602080830181845280855180835260408601915060408160051b870101925083870160005b8281101561194757603f198886030184526119358583516117de565b94509285019290850190600101611919565b5092979650505050505050565b8183823760009101908152919050565b600181811c9082168061197857607f821691505b6020821081141561199957634e487b7160e01b600052602260045260246000fd5b50919050565b81835281816020850137506000828201602090810191909152601f909101601f19169091010190565b67ffffffffffffffff861681526060602082015260006119ec60608301868861199f565b82810360408401526119ff81858761199f565b98975050505050505050565b634e487b7160e01b600052602160045260246000fd5b634e487b7160e01b600052603260045260246000fd5b634e487b7160e01b600052601160045260246000fd5b60008219821115611a6057611a60611a37565b500190565b600082821015611a7757611a77611a37565b500390565b634e487b7160e01b600052603160045260246000fdfea2646970667358221220dd94ec4ce18eef2ffabcdedf2d1d4d3425dd0736449574dffb8a234f325966d164736f6c634300080b0033",
  "linkReferences": {},
  "deployedLinkReferences": {}
}