{
  "_format": "hh-sol-artifact-1",
  "contractName": "SignaturesUpgradeable",
  "sourceName": "contracts/SignaturesUpgradeable.sol",
  "abi": [
    {
      "anonymous": false,
      "inputs": [
        {
          "indexed": false,
          "internalType": "address",
          "name": "account",
          "type": "address"
        }
      ],
      "name": "Paused",
      "type": "event"
    },
    {
      "anonymous": false,
      "inputs": [
        {
          "indexed": true,
          "internalType": "bytes32",
          "name": "role",
          "type": "bytes32"
        },
        {
          "indexed": true,
          "internalType": "address",
          "name": "account",
          "type": "address"
        },
        {
          "indexed": true,
          "internalType": "address",
          "name": "sender",
          "type": "address"
        }
      ],
      "name": "RoleGranted",
      "type": "event"
    },
    {
      "anonymous": false,
      "inputs": [
        {
          "indexed": true,
          "internalType": "bytes32",
          "name": "role",
          "type": "bytes32"
        },
        {
          "indexed": true,
          "internalType": "address",
          "name": "account",
          "type": "address"
        },
        {
          "indexed": true,
          "internalType": "address",
          "name": "sender",
          "type": "address"
        }
      ],
      "name": "RoleRevoked",
      "type": "event"
    },
    {
      "anonymous": false,
      "inputs": [
        {
          "indexed": true,
          "internalType": "uint8",
          "name": "originDomainID",
          "type": "uint8"
        },
        {
          "indexed": true,
          "internalType": "uint8",
          "name": "destinationDomainID",
          "type": "uint8"
        },
        {
          "indexed": false,
          "internalType": "uint64",
          "name": "depositNonce",
          "type": "uint64"
        },
        {
          "indexed": true,
          "internalType": "bytes32",
          "name": "resourceID",
          "type": "bytes32"
        },
        {
          "indexed": false,
          "internalType": "bytes",
          "name": "data",
          "type": "bytes"
        },
        {
          "indexed": false,
          "internalType": "bytes",
          "name": "signature",
          "type": "bytes"
        }
      ],
      "name": "SignaturePass",
      "type": "event"
    },
    {
      "anonymous": false,
      "inputs": [
        {
          "indexed": true,
          "internalType": "uint8",
          "name": "originDomainID",
          "type": "uint8"
        },
        {
          "indexed": true,
          "internalType": "uint8",
          "name": "destinationDomainID",
          "type": "uint8"
        },
        {
          "indexed": false,
          "internalType": "uint64",
          "name": "depositNonce",
          "type": "uint64"
        },
        {
          "indexed": true,
          "internalType": "bytes32",
          "name": "resourceID",
          "type": "bytes32"
        },
        {
          "indexed": false,
          "internalType": "bytes",
          "name": "data",
          "type": "bytes"
        },
        {
          "indexed": false,
          "internalType": "bytes",
          "name": "signature",
          "type": "bytes"
        }
      ],
      "name": "SubmitSignature",
      "type": "event"
    },
    {
      "anonymous": false,
      "inputs": [
        {
          "indexed": false,
          "internalType": "address",
          "name": "account",
          "type": "address"
        }
      ],
      "name": "Unpaused",
      "type": "event"
    },
    {
      "inputs": [],
      "name": "DEFAULT_ADMIN_ROLE",
      "outputs": [
        {
          "internalType": "bytes32",
          "name": "",
          "type": "bytes32"
        }
      ],
      "stateMutability": "view",
      "type": "function"
    },
    {
      "inputs": [],
      "name": "PERMIT_TYPEHASH",
      "outputs": [
        {
          "internalType": "bytes32",
          "name": "",
          "type": "bytes32"
        }
      ],
      "stateMutability": "view",
      "type": "function"
    },
    {
      "inputs": [],
      "name": "RELAYER_ROLE",
      "outputs": [
        {
          "internalType": "bytes32",
          "name": "",
          "type": "bytes32"
        }
      ],
      "stateMutability": "view",
      "type": "function"
    },
    {
      "inputs": [],
      "name": "_TYPE_HASH",
      "outputs": [
        {
          "internalType": "bytes32",
          "name": "",
          "type": "bytes32"
        }
      ],
      "stateMutability": "view",
      "type": "function"
    },
    {
      "inputs": [
        {
          "internalType": "uint8",
          "name": "",
          "type": "uint8"
        }
      ],
      "name": "_relayerThreshold",
      "outputs": [
        {
          "internalType": "uint8",
          "name": "",
          "type": "uint8"
        }
      ],
      "stateMutability": "view",
      "type": "function"
    },
    {
      "inputs": [
        {
          "internalType": "uint8",
          "name": "destinationDomainID",
          "type": "uint8"
        },
        {
          "internalType": "uint256",
          "name": "newThreshold",
          "type": "uint256"
        }
      ],
      "name": "adminChangeRelayerThreshold",
      "outputs": [],
      "stateMutability": "nonpayable",
      "type": "function"
    },
    {
      "inputs": [
        {
          "internalType": "uint8",
          "name": "destinationDomainID",
          "type": "uint8"
        },
        {
          "internalType": "uint256",
          "name": "chainId",
          "type": "uint256"
        },
        {
          "internalType": "address",
          "name": "destinationBridge",
          "type": "address"
        }
      ],
      "name": "adminSetDestChainId",
      "outputs": [],
      "stateMutability": "nonpayable",
      "type": "function"
    },
    {
      "inputs": [
        {
          "internalType": "uint8",
          "name": "domainID",
          "type": "uint8"
        },
        {
          "internalType": "uint8",
          "name": "destinationDomainID",
          "type": "uint8"
        },
        {
          "internalType": "address",
          "name": "destinationBridge",
          "type": "address"
        },
        {
          "internalType": "uint64",
          "name": "depositNonce",
          "type": "uint64"
        },
        {
          "internalType": "bytes32",
          "name": "resourceID",
          "type": "bytes32"
        },
        {
          "internalType": "bytes",
          "name": "data",
          "type": "bytes"
        },
        {
          "internalType": "bytes",
          "name": "signature",
          "type": "bytes"
        }
      ],
      "name": "checkSignature",
      "outputs": [
        {
          "internalType": "address",
          "name": "",
          "type": "address"
        }
      ],
      "stateMutability": "view",
      "type": "function"
    },
    {
      "inputs": [
        {
          "internalType": "uint8",
          "name": "",
          "type": "uint8"
        }
      ],
      "name": "destChainId",
      "outputs": [
        {
          "internalType": "uint256",
          "name": "",
          "type": "uint256"
        }
      ],
      "stateMutability": "view",
      "type": "function"
    },
    {
      "inputs": [
        {
          "internalType": "uint8",
          "name": "",
          "type": "uint8"
        }
      ],
      "name": "destinationBridgeAddress",
      "outputs": [
        {
          "internalType": "address",
          "name": "",
          "type": "address"
        }
      ],
      "stateMutability": "view",
      "type": "function"
    },
    {
      "inputs": [
        {
          "internalType": "uint256",
          "name": "index",
          "type": "uint256"
        }
      ],
      "name": "getProposal",
      "outputs": [
        {
          "components": [
            {
              "internalType": "uint8",
              "name": "originDomainID",
              "type": "uint8"
            },
            {
              "internalType": "uint8",
              "name": "destinationDomainID",
              "type": "uint8"
            },
            {
              "internalType": "address",
              "name": "destinationBridge",
              "type": "address"
            },
            {
              "internalType": "uint64",
              "name": "depositNonce",
              "type": "uint64"
            },
            {
              "internalType": "bytes32",
              "name": "resourceID",
              "type": "bytes32"
            },
            {
              "internalType": "bytes",
              "name": "data",
              "type": "bytes"
            },
            {
              "internalType": "uint256",
              "name": "proposalIndex",
              "type": "uint256"
            }
          ],
          "internalType": "struct SignaturesUpgradeable.Proposal",
          "name": "",
          "type": "tuple"
        }
      ],
      "stateMutability": "view",
      "type": "function"
    },
    {
      "inputs": [
        {
          "internalType": "bytes32",
          "name": "role",
          "type": "bytes32"
        }
      ],
      "name": "getRoleAdmin",
      "outputs": [
        {
          "internalType": "bytes32",
          "name": "",
          "type": "bytes32"
        }
      ],
      "stateMutability": "view",
      "type": "function"
    },
    {
      "inputs": [
        {
          "internalType": "bytes32",
          "name": "role",
          "type": "bytes32"
        },
        {
          "internalType": "uint256",
          "name": "index",
          "type": "uint256"
        }
      ],
      "name": "getRoleMember",
      "outputs": [
        {
          "internalType": "address",
          "name": "",
          "type": "address"
        }
      ],
      "stateMutability": "view",
      "type": "function"
    },
    {
      "inputs": [
        {
          "internalType": "bytes32",
          "name": "role",
          "type": "bytes32"
        }
      ],
      "name": "getRoleMemberCount",
      "outputs": [
        {
          "internalType": "uint256",
          "name": "",
          "type": "uint256"
        }
      ],
      "stateMutability": "view",
      "type": "function"
    },
    {
      "inputs": [
        {
          "internalType": "bytes32",
          "name": "role",
          "type": "bytes32"
        },
        {
          "internalType": "address",
          "name": "account",
          "type": "address"
        }
      ],
      "name": "getRoleMemberIndex",
      "outputs": [
        {
          "internalType": "uint256",
          "name": "",
          "type": "uint256"
        }
      ],
      "stateMutability": "view",
      "type": "function"
    },
    {
      "inputs": [
        {
          "internalType": "uint8",
          "name": "domainID",
          "type": "uint8"
        },
        {
          "internalType": "uint64",
          "name": "depositNonce",
          "type": "uint64"
        },
        {
          "internalType": "bytes32",
          "name": "resourceID",
          "type": "bytes32"
        },
        {
          "internalType": "bytes",
          "name": "data",
          "type": "bytes"
        }
      ],
      "name": "getSignatures",
      "outputs": [
        {
          "internalType": "bytes[]",
          "name": "",
          "type": "bytes[]"
        }
      ],
      "stateMutability": "view",
      "type": "function"
    },
    {
      "inputs": [
        {
          "internalType": "uint256",
          "name": "index",
          "type": "uint256"
        }
      ],
      "name": "getSignatures",
      "outputs": [
        {
          "internalType": "bytes[]",
          "name": "",
          "type": "bytes[]"
        }
      ],
      "stateMutability": "view",
      "type": "function"
    },
    {
      "inputs": [
        {
          "internalType": "bytes32",
          "name": "role",
          "type": "bytes32"
        },
        {
          "internalType": "address",
          "name": "account",
          "type": "address"
        }
      ],
      "name": "grantRole",
      "outputs": [],
      "stateMutability": "nonpayable",
      "type": "function"
    },
    {
      "inputs": [
        {
          "internalType": "bytes32",
          "name": "role",
          "type": "bytes32"
        },
        {
          "internalType": "address",
          "name": "account",
          "type": "address"
        }
      ],
      "name": "hasRole",
      "outputs": [
        {
          "internalType": "bool",
          "name": "",
          "type": "bool"
        }
      ],
      "stateMutability": "view",
      "type": "function"
    },
    {
      "inputs": [
        {
          "internalType": "bytes",
          "name": "",
          "type": "bytes"
        }
      ],
      "name": "hasVote",
      "outputs": [
        {
          "internalType": "bool",
          "name": "",
          "type": "bool"
        }
      ],
      "stateMutability": "view",
      "type": "function"
    },
    {
      "inputs": [
        {
          "internalType": "uint256",
          "name": "",
          "type": "uint256"
        }
      ],
      "name": "indexToProposal",
      "outputs": [
        {
          "internalType": "bytes32",
          "name": "",
          "type": "bytes32"
        }
      ],
      "stateMutability": "view",
      "type": "function"
    },
    {
      "inputs": [
        {
          "internalType": "address",
          "name": "admin",
          "type": "address"
        }
      ],
      "name": "initialize",
      "outputs": [],
      "stateMutability": "nonpayable",
      "type": "function"
    },
    {
      "inputs": [],
      "name": "paused",
      "outputs": [
        {
          "internalType": "bool",
          "name": "",
          "type": "bool"
        }
      ],
      "stateMutability": "view",
      "type": "function"
    },
    {
      "inputs": [],
      "name": "proposalIndex",
      "outputs": [
        {
          "internalType": "uint256",
          "name": "",
          "type": "uint256"
        }
      ],
      "stateMutability": "view",
      "type": "function"
    },
    {
      "inputs": [
        {
          "internalType": "bytes32",
          "name": "",
          "type": "bytes32"
        }
      ],
      "name": "proposals",
      "outputs": [
        {
          "internalType": "uint8",
          "name": "originDomainID",
          "type": "uint8"
        },
        {
          "internalType": "uint8",
          "name": "destinationDomainID",
          "type": "uint8"
        },
        {
          "internalType": "address",
          "name": "destinationBridge",
          "type": "address"
        },
        {
          "internalType": "uint64",
          "name": "depositNonce",
          "type": "uint64"
        },
        {
          "internalType": "bytes32",
          "name": "resourceID",
          "type": "bytes32"
        },
        {
          "internalType": "bytes",
          "name": "data",
          "type": "bytes"
        },
        {
          "internalType": "uint256",
          "name": "proposalIndex",
          "type": "uint256"
        }
      ],
      "stateMutability": "view",
      "type": "function"
    },
    {
      "inputs": [
        {
          "internalType": "bytes32",
          "name": "",
          "type": "bytes32"
        },
        {
          "internalType": "address",
          "name": "",
          "type": "address"
        }
      ],
      "name": "relayerVote",
      "outputs": [
        {
          "internalType": "bool",
          "name": "",
          "type": "bool"
        }
      ],
      "stateMutability": "view",
      "type": "function"
    },
    {
      "inputs": [
        {
          "internalType": "bytes32",
          "name": "role",
          "type": "bytes32"
        },
        {
          "internalType": "address",
          "name": "account",
          "type": "address"
        }
      ],
      "name": "renounceRole",
      "outputs": [],
      "stateMutability": "nonpayable",
      "type": "function"
    },
    {
      "inputs": [
        {
          "internalType": "bytes32",
          "name": "role",
          "type": "bytes32"
        },
        {
          "internalType": "address",
          "name": "account",
          "type": "address"
        }
      ],
      "name": "revokeRole",
      "outputs": [],
      "stateMutability": "nonpayable",
      "type": "function"
    },
    {
      "inputs": [
        {
          "internalType": "bytes32",
          "name": "",
          "type": "bytes32"
        },
        {
          "internalType": "uint256",
          "name": "",
          "type": "uint256"
        }
      ],
      "name": "signatures",
      "outputs": [
        {
          "internalType": "bytes",
          "name": "",
          "type": "bytes"
        }
      ],
      "stateMutability": "view",
      "type": "function"
    },
    {
      "inputs": [
        {
          "internalType": "uint8",
          "name": "originDomainID",
          "type": "uint8"
        },
        {
          "internalType": "uint8",
          "name": "destinationDomainID",
          "type": "uint8"
        },
        {
          "internalType": "address",
          "name": "destinationBridge",
          "type": "address"
        },
        {
          "internalType": "uint64",
          "name": "depositNonce",
          "type": "uint64"
        },
        {
          "internalType": "bytes32",
          "name": "resourceID",
          "type": "bytes32"
        },
        {
          "internalType": "bytes",
          "name": "data",
          "type": "bytes"
        },
        {
          "internalType": "bytes",
          "name": "signature",
          "type": "bytes"
        }
      ],
      "name": "submitSignature",
      "outputs": [],
      "stateMutability": "nonpayable",
      "type": "function"
    }
  ],
  "bytecode": "0x608060405234801561001057600080fd5b50612428806100206000396000f3fe608060405234801561001057600080fd5b50600436106101da5760003560e01c80635d2dab0b11610104578063a217fddf116100a2578063ca15c87311610071578063ca15c873146104f4578063d547741f14610507578063e5787a751461051a578063f4eccb8f1461053a57600080fd5b8063a217fddf14610484578063aa44739d1461048c578063c4d66de8146104c1578063c7f758a8146104d457600080fd5b8063861fd043116100de578063861fd043146104245780639010d07c1461043757806391d148541461044a578063926d7d7f1461045d57600080fd5b80635d2dab0b146103b457806374400fd1146103db5780637600c4a5146103fb57600080fd5b806332ed5b121161017c5780634e0df3f61161014b5780634e0df3f61461035957806350916c7c1461036c5780635977e0f21461039a5780635c975abb146103a357600080fd5b806332ed5b12146102ed5780633640850b1461031357806336568abe1461033357806336a3a44e1461034657600080fd5b80632703a4fd116101b85780632703a4fd146102605780632f2ff15d1461029e5780632fda959e146102b357806330adf81f146102c657600080fd5b80630b18fec5146101df5780631f241eca14610212578063248a9ca31461023d575b600080fd5b6101ff6101ed366004611d9d565b60666020526000908152604090205481565b6040519081526020015b60405180910390f35b610225610220366004611e27565b61054d565b6040516001600160a01b039091168152602001610209565b6101ff61024b366004611ee4565b60009081526064602052604090206002015490565b61028e61026e366004611efd565b606960209081526000928352604080842090915290825290205460ff1681565b6040519015158152602001610209565b6102b16102ac366004611efd565b61077e565b005b6102b16102c1366004611f29565b610811565b6101ff7fc4cb5d35714699d6e85b9562b644e60393b418d974a5c1dd8efaadac37a142c581565b6103006102fb366004611ee4565b610895565b6040516102099796959493929190611fa0565b6101ff610321366004611ee4565b606d6020526000908152604090205481565b6102b1610341366004611efd565b610975565b6102b1610354366004611ffc565b6109ef565b6101ff610367366004611efd565b610a85565b61028e61037a36600461204e565b805160208183018101805160688252928201919093012091525460ff1681565b6101ff606b5481565b60005462010000900460ff1661028e565b6101ff7f8b73c3c69bb8fe3d512ecc4cf759cc79239f7b179b0ffacaa9a75d522b39400f81565b6103ee6103e93660046120fe565b610ab2565b6040516102099190612120565b610225610409366004611d9d565b606a602052600090815260409020546001600160a01b031681565b6102b1610432366004611e27565b610b6b565b6102256104453660046120fe565b611030565b61028e610458366004611efd565b61104f565b6101ff7fe2b7fb3b832174769106daebcfd6d1970523240dda11281102db9363b83b0dc481565b6101ff600081565b6104af61049a366004611d9d565b60656020526000908152604090205460ff1681565b60405160ff9091168152602001610209565b6102b16104cf366004612133565b611067565b6104e76104e2366004611ee4565b61112b565b604051610209919061214e565b6101ff610502366004611ee4565b6112c2565b6102b1610515366004611efd565b6112d9565b61052d6105283660046121ca565b61135a565b6040516102099190612238565b61052d610548366004611ee4565b6114ae565b6000807fc4cb5d35714699d6e85b9562b644e60393b418d974a5c1dd8efaadac37a142c58b8989898960405161058492919061229a565b6040519081900381206105c7959493929160200194855260ff9390931660208501526001600160401b039190911660408401526060830152608082015260a00190565b60408051601f19818403018152918152815160209283012060ff8d16600090815260669093529082205490925061072c908390156106175760ff8d1660009081526066602052604090205461061c565b8c60ff165b604080518082018252600c81526b5065726d697442726964676560a01b6020918201528151808301835260038152620312e360ec1b9082015281517f8b73c3c69bb8fe3d512ecc4cf759cc79239f7b179b0ffacaa9a75d522b39400f818301527f058443738ec3641a3233a9f285e16671e4ad9755445580d761017e695f75052b818401527fe6bbd6277e1bf288eed5e8d1780f9a50b239e86b153736bceebccf4ea79d90b3606082015260808101939093526001600160a01b038f1660a0808501919091528251808503909101815260c08401835280519082012061190160f01b60e085015260e284015261010280840194909452815180840390940184526101229092019052815191012090565b905061076e8186868080601f0160208091040260200160405190810160405280939291908181526020018383808284376000920191909152506115e192505050565b9c9b505050505050505050505050565b60008281526064602052604090206002015461079a903361104f565b6108035760405162461bcd60e51b815260206004820152602f60248201527f416363657373436f6e74726f6c3a2073656e646572206d75737420626520616e60448201526e0818591b5a5b881d1bc819dc985b9d608a1b60648201526084015b60405180910390fd5b61080d8282611605565b5050565b61081c60003361104f565b6108685760405162461bcd60e51b815260206004820152601e60248201527f73656e64657220646f65736e277420686176652061646d696e20726f6c65000060448201526064016107fa565b6108718161165e565b60ff9283166000908152606560205260409020805460ff1916919093161790915550565b606c6020526000908152604090208054600182015460028301805460ff808516956101008604909116946201000081046001600160a01b031694600160b01b9091046001600160401b03169390926108ec906122aa565b80601f0160208091040260200160405190810160405280929190818152602001828054610918906122aa565b80156109655780601f1061093a57610100808354040283529160200191610965565b820191906000526020600020905b81548152906001019060200180831161094857829003601f168201915b5050505050908060030154905087565b6001600160a01b03811633146109e55760405162461bcd60e51b815260206004820152602f60248201527f416363657373436f6e74726f6c3a2063616e206f6e6c792072656e6f756e636560448201526e103937b632b9903337b91039b2b63360891b60648201526084016107fa565b61080d82826116b5565b6109fa60003361104f565b610a465760405162461bcd60e51b815260206004820152601e60248201527f73656e64657220646f65736e277420686176652061646d696e20726f6c65000060448201526064016107fa565b60ff92909216600090815260666020908152604080832093909355606a90522080546001600160a01b0319166001600160a01b03909216919091179055565b60008281526064602090815260408083206001600160a01b03851684526001019091529020545b92915050565b60676020528160005260406000208181548110610ace57600080fd5b90600052602060002001600091509150508054610aea906122aa565b80601f0160208091040260200160405190810160405280929190818152602001828054610b16906122aa565b8015610b635780601f10610b3857610100808354040283529160200191610b63565b820191906000526020600020905b815481529060010190602001808311610b4657829003601f168201915b505050505081565b610b7361170e565b6000610b868a8a8a8a8a8a8a8a8a61054d565b9050610bb27fe2b7fb3b832174769106daebcfd6d1970523240dda11281102db9363b83b0dc48261104f565b610bf25760405162461bcd60e51b8152602060048201526011602482015270696e76616c6964207369676e617475726560781b60448201526064016107fa565b60008a8a89898989604051610c0892919061229a565b6040805191829003822060ff968716602084015294909516948101949094526001600160401b03919091166060840152608083015260a082015260c00160408051601f1981840301815291815281516020928301206000818152606984528281206001600160a01b038716825290935291205490915060ff1615610cce5760405162461bcd60e51b815260206004820152601860248201527f7369676e617475726520616c6561726479207375626d6974000000000000000060448201526064016107fa565b60008181526069602090815260408083206001600160a01b03861684528252808320805460ff1916600117905560ff8d8116845260658352818420548585526067909352922054911611610d5c5760405162461bcd60e51b81526020600482015260156024820152745369676e7475726520616c6561726479207061737360581b60448201526064016107fa565b60ff8a166000908152606a60205260409020546001600160a01b038a8116911614610dc95760405162461bcd60e51b815260206004820152601960248201527f696e76616c69642064657374696e6174696f6e4272696467650000000000000060448201526064016107fa565b600081815260676020526040902054610f3e57606b8054906000610dec836122fb565b91905055506040518060e001604052808c60ff1681526020018b60ff1681526020018a6001600160a01b03168152602001896001600160401b0316815260200188815260200187878080601f01602080910402602001604051908101604052809392919081815260200183838082843760009201829052509385525050606b5460209384015250838152606c825260409081902083518154858501519386015160608701516001600160401b0316600160b01b0267ffffffffffffffff60b01b196001600160a01b0390921662010000029190911662010000600160f01b031960ff9687166101000261ffff1990941696909416959095179190911791909116929092179190911781556080830151600182015560a083015180519192610f1b92600285019290910190611c7e565b5060c09190910151600390910155606b546000908152606d602052604090208190555b6000818152606760209081526040822080546001810182559083529120610f6791018585611cfe565b50868a60ff168c60ff167fdbf724cd2f174f6ee6dc7d45f557ca42e3f0c483d5ac5da1317ade0e540889078b8a8a8a8a604051610fa895949392919061233f565b60405180910390a460ff808b1660009081526065602090815260408083205485845260679092529091205491161161102357868a60ff168c60ff167fd94e275aae893bc4cab1c14c3052a527a80ae5542ad2047e0dbe0ceeb79bee018b8a8a8a8a60405161101a95949392919061233f565b60405180910390a45b5050505050505050505050565b6000828152606460205260408120611048908361175c565b9392505050565b60008281526064602052604081206110489083611768565b600054610100900460ff166110825760005460ff1615611086565b303b155b6110e95760405162461bcd60e51b815260206004820152602e60248201527f496e697469616c697a61626c653a20636f6e747261637420697320616c72656160448201526d191e481a5b9a5d1a585b1a5e995960921b60648201526084016107fa565b600054610100900460ff1615801561110b576000805461ffff19166101011790555b611116600083610803565b801561080d576000805461ff00191690555050565b6040805160e08101825260008082526020820181905291810182905260608082018390526080820183905260a082015260c0810191909152606b548211156111aa5760405162461bcd60e51b8152602060048201526012602482015271141c9bdc1bdcd85b081b9bdd08195e1a5cdd60721b60448201526064016107fa565b6000828152606d60209081526040808320548352606c825291829020825160e081018452815460ff8082168352610100820416938201939093526201000083046001600160a01b031693810193909352600160b01b9091046001600160401b031660608301526001810154608083015260028101805460a08401919061122f906122aa565b80601f016020809104026020016040519081016040528092919081815260200182805461125b906122aa565b80156112a85780601f1061127d576101008083540402835291602001916112a8565b820191906000526020600020905b81548152906001019060200180831161128b57829003601f168201915b505050505081526020016003820154815250509050919050565b6000818152606460205260408120610aac9061178a565b6000828152606460205260409020600201546112f5903361104f565b6109e55760405162461bcd60e51b815260206004820152603060248201527f416363657373436f6e74726f6c3a2073656e646572206d75737420626520616e60448201526f2061646d696e20746f207265766f6b6560801b60648201526084016107fa565b606060676000878787878760405161137392919061229a565b6040519081900381206113af9493929160200160ff9490941684526001600160401b039290921660208401526040830152606082015260800190565b604051602081830303815290604052805190602001208152602001908152602001600020805480602002602001604051908101604052809291908181526020016000905b8282101561149f578382906000526020600020018054611412906122aa565b80601f016020809104026020016040519081016040528092919081815260200182805461143e906122aa565b801561148b5780601f106114605761010080835404028352916020019161148b565b820191906000526020600020905b81548152906001019060200180831161146e57829003601f168201915b5050505050815260200190600101906113f3565b50505050905095945050505050565b6060606b548211156114f75760405162461bcd60e51b8152602060048201526012602482015271141c9bdc1bdcd85b081b9bdd08195e1a5cdd60721b60448201526064016107fa565b6000828152606d602090815260408083205483526067825280832080548251818502810185019093528083529193909284015b828210156115d6578382906000526020600020018054611549906122aa565b80601f0160208091040260200160405190810160405280929190818152602001828054611575906122aa565b80156115c25780601f10611597576101008083540402835291602001916115c2565b820191906000526020600020905b8154815290600101906020018083116115a557829003601f168201915b50505050508152602001906001019061152a565b505050509050919050565b60008060006115f08585611794565b915091506115fd81611804565b509392505050565b600082815260646020526040902061161d90826119c2565b1561080d5760405133906001600160a01b0383169084907f2f8788117e7eff1d82e926ec794901d17c78024a50270940304540a733656f0d90600090a45050565b600061010082106116b15760405162461bcd60e51b815260206004820152601c60248201527f76616c756520646f6573206e6f742066697420696e203820626974730000000060448201526064016107fa565b5090565b60008281526064602052604090206116cd90826119d7565b1561080d5760405133906001600160a01b0383169084907ff6391f5c32d9c69d2a47ea670b442974b53935d1edc7fd64eb21e047a839171b90600090a45050565b60005462010000900460ff161561175a5760405162461bcd60e51b815260206004820152601060248201526f14185d5cd8589b194e881c185d5cd95960821b60448201526064016107fa565b565b600061104883836119ec565b6001600160a01b03811660009081526001830160205260408120541515611048565b6000610aac825490565b6000808251604114156117cb5760208301516040840151606085015160001a6117bf87828585611a16565b945094505050506117fd565b8251604014156117f557602083015160408401516117ea868383611b03565b9350935050506117fd565b506000905060025b9250929050565b600081600481111561181857611818612381565b14156118215750565b600181600481111561183557611835612381565b14156118835760405162461bcd60e51b815260206004820152601860248201527f45434453413a20696e76616c6964207369676e6174757265000000000000000060448201526064016107fa565b600281600481111561189757611897612381565b14156118e55760405162461bcd60e51b815260206004820152601f60248201527f45434453413a20696e76616c6964207369676e6174757265206c656e6774680060448201526064016107fa565b60038160048111156118f9576118f9612381565b14156119525760405162461bcd60e51b815260206004820152602260248201527f45434453413a20696e76616c6964207369676e6174757265202773272076616c604482015261756560f01b60648201526084016107fa565b600481600481111561196657611966612381565b14156119bf5760405162461bcd60e51b815260206004820152602260248201527f45434453413a20696e76616c6964207369676e6174757265202776272076616c604482015261756560f01b60648201526084016107fa565b50565b6000611048836001600160a01b038416611b3c565b6000611048836001600160a01b038416611b8b565b6000826000018281548110611a0357611a03612397565b9060005260206000200154905092915050565b6000807f7fffffffffffffffffffffffffffffff5d576e7357a4501ddfe92f46681b20a0831115611a4d5750600090506003611afa565b8460ff16601b14158015611a6557508460ff16601c14155b15611a765750600090506004611afa565b6040805160008082526020820180845289905260ff881692820192909252606081018690526080810185905260019060a0016020604051602081039080840390855afa158015611aca573d6000803e3d6000fd5b5050604051601f1901519150506001600160a01b038116611af357600060019250925050611afa565b9150600090505b94509492505050565b6000806001600160ff1b03831681611b2060ff86901c601b6123ad565b9050611b2e87828885611a16565b935093505050935093915050565b6000818152600183016020526040812054611b8357508154600181810184556000848152602080822090930184905584548482528286019093526040902091909155610aac565b506000610aac565b60008181526001830160205260408120548015611c74576000611baf6001836123c5565b8554909150600090611bc3906001906123c5565b9050818114611c28576000866000018281548110611be357611be3612397565b9060005260206000200154905080876000018481548110611c0657611c06612397565b6000918252602080832090910192909255918252600188019052604090208390555b8554869080611c3957611c396123dc565b600190038181906000526020600020016000905590558560010160008681526020019081526020016000206000905560019350505050610aac565b6000915050610aac565b828054611c8a906122aa565b90600052602060002090601f016020900481019282611cac5760008555611cf2565b82601f10611cc557805160ff1916838001178555611cf2565b82800160010185558215611cf2579182015b82811115611cf2578251825591602001919060010190611cd7565b506116b1929150611d72565b828054611d0a906122aa565b90600052602060002090601f016020900481019282611d2c5760008555611cf2565b82601f10611d455782800160ff19823516178555611cf2565b82800160010185558215611cf2579182015b82811115611cf2578235825591602001919060010190611d57565b5b808211156116b15760008155600101611d73565b803560ff81168114611d9857600080fd5b919050565b600060208284031215611daf57600080fd5b61104882611d87565b80356001600160a01b0381168114611d9857600080fd5b80356001600160401b0381168114611d9857600080fd5b60008083601f840112611df857600080fd5b5081356001600160401b03811115611e0f57600080fd5b6020830191508360208285010111156117fd57600080fd5b600080600080600080600080600060e08a8c031215611e4557600080fd5b611e4e8a611d87565b9850611e5c60208b01611d87565b9750611e6a60408b01611db8565b9650611e7860608b01611dcf565b955060808a0135945060a08a01356001600160401b0380821115611e9b57600080fd5b611ea78d838e01611de6565b909650945060c08c0135915080821115611ec057600080fd5b50611ecd8c828d01611de6565b915080935050809150509295985092959850929598565b600060208284031215611ef657600080fd5b5035919050565b60008060408385031215611f1057600080fd5b82359150611f2060208401611db8565b90509250929050565b60008060408385031215611f3c57600080fd5b611f4583611d87565b946020939093013593505050565b6000815180845260005b81811015611f7957602081850181015186830182015201611f5d565b81811115611f8b576000602083870101525b50601f01601f19169290920160200192915050565b60ff8816815260ff8716602082015260018060a01b03861660408201526001600160401b038516606082015283608082015260e060a08201526000611fe860e0830185611f53565b90508260c083015298975050505050505050565b60008060006060848603121561201157600080fd5b61201a84611d87565b92506020840135915061202f60408501611db8565b90509250925092565b634e487b7160e01b600052604160045260246000fd5b60006020828403121561206057600080fd5b81356001600160401b038082111561207757600080fd5b818401915084601f83011261208b57600080fd5b81358181111561209d5761209d612038565b604051601f8201601f19908116603f011681019083821181831017156120c5576120c5612038565b816040528281528760208487010111156120de57600080fd5b826020860160208301376000928101602001929092525095945050505050565b6000806040838503121561211157600080fd5b50508035926020909101359150565b6020815260006110486020830184611f53565b60006020828403121561214557600080fd5b61104882611db8565b6020815260ff825116602082015260ff602083015116604082015260018060a01b0360408301511660608201526001600160401b036060830151166080820152608082015160a0820152600060a083015160e060c08401526121b4610100840182611f53565b905060c084015160e08401528091505092915050565b6000806000806000608086880312156121e257600080fd5b6121eb86611d87565b94506121f960208701611dcf565b93506040860135925060608601356001600160401b0381111561221b57600080fd5b61222788828901611de6565b969995985093965092949392505050565b6000602080830181845280855180835260408601915060408160051b870101925083870160005b8281101561228d57603f1988860301845261227b858351611f53565b9450928501929085019060010161225f565b5092979650505050505050565b8183823760009101908152919050565b600181811c908216806122be57607f821691505b602082108114156122df57634e487b7160e01b600052602260045260246000fd5b50919050565b634e487b7160e01b600052601160045260246000fd5b600060001982141561230f5761230f6122e5565b5060010190565b81835281816020850137506000828201602090810191909152601f909101601f19169091010190565b6001600160401b0386168152606060208201526000612362606083018688612316565b8281036040840152612375818587612316565b98975050505050505050565b634e487b7160e01b600052602160045260246000fd5b634e487b7160e01b600052603260045260246000fd5b600082198211156123c0576123c06122e5565b500190565b6000828210156123d7576123d76122e5565b500390565b634e487b7160e01b600052603160045260246000fdfea264697066735822122021f3de087517193dff647f6f70f751138cee09971cd9ce6e100311bef8edfd7964736f6c634300080b0033",
  "linkReferences": {},
  "deployedLinkReferences": {}
}