{
  "_format": "hh-sol-artifact-1",
  "contractName": "SignaturesUpgradeable",
  "sourceName": "contracts/SignaturesUpgradeable.sol",
  "abi": [
    {
      "anonymous": false,
      "inputs": [
        {
          "indexed": true,
          "internalType": "bytes32",
          "name": "role",
          "type": "bytes32"
        },
        {
          "indexed": true,
          "internalType": "address",
          "name": "account",
          "type": "address"
        },
        {
          "indexed": true,
          "internalType": "address",
          "name": "sender",
          "type": "address"
        }
      ],
      "name": "RoleGranted",
      "type": "event"
    },
    {
      "anonymous": false,
      "inputs": [
        {
          "indexed": true,
          "internalType": "bytes32",
          "name": "role",
          "type": "bytes32"
        },
        {
          "indexed": true,
          "internalType": "address",
          "name": "account",
          "type": "address"
        },
        {
          "indexed": true,
          "internalType": "address",
          "name": "sender",
          "type": "address"
        }
      ],
      "name": "RoleRevoked",
      "type": "event"
    },
    {
      "anonymous": false,
      "inputs": [
        {
          "indexed": true,
          "internalType": "uint8",
          "name": "originDomainID",
          "type": "uint8"
        },
        {
          "indexed": false,
          "internalType": "uint64",
          "name": "depositNonce",
          "type": "uint64"
        },
        {
          "indexed": true,
          "internalType": "bytes32",
          "name": "resourceID",
          "type": "bytes32"
        },
        {
          "indexed": false,
          "internalType": "bytes",
          "name": "data",
          "type": "bytes"
        },
        {
          "indexed": false,
          "internalType": "bytes",
          "name": "signature",
          "type": "bytes"
        }
      ],
      "name": "SignturePass",
      "type": "event"
    },
    {
      "anonymous": false,
      "inputs": [
        {
          "indexed": true,
          "internalType": "uint8",
          "name": "originDomainID",
          "type": "uint8"
        },
        {
          "indexed": false,
          "internalType": "uint64",
          "name": "depositNonce",
          "type": "uint64"
        },
        {
          "indexed": true,
          "internalType": "bytes32",
          "name": "resourceID",
          "type": "bytes32"
        },
        {
          "indexed": false,
          "internalType": "bytes",
          "name": "data",
          "type": "bytes"
        },
        {
          "indexed": false,
          "internalType": "bytes",
          "name": "signature",
          "type": "bytes"
        }
      ],
      "name": "SubmitSignature",
      "type": "event"
    },
    {
      "inputs": [],
      "name": "DEFAULT_ADMIN_ROLE",
      "outputs": [
        {
          "internalType": "bytes32",
          "name": "",
          "type": "bytes32"
        }
      ],
      "stateMutability": "view",
      "type": "function"
    },
    {
      "inputs": [],
      "name": "PERMIT_TYPEHASH",
      "outputs": [
        {
          "internalType": "bytes32",
          "name": "",
          "type": "bytes32"
        }
      ],
      "stateMutability": "view",
      "type": "function"
    },
    {
      "inputs": [],
      "name": "RELAYER_ROLE",
      "outputs": [
        {
          "internalType": "bytes32",
          "name": "",
          "type": "bytes32"
        }
      ],
      "stateMutability": "view",
      "type": "function"
    },
    {
      "inputs": [],
      "name": "_TYPE_HASH",
      "outputs": [
        {
          "internalType": "bytes32",
          "name": "",
          "type": "bytes32"
        }
      ],
      "stateMutability": "view",
      "type": "function"
    },
    {
      "inputs": [
        {
          "internalType": "uint8",
          "name": "",
          "type": "uint8"
        }
      ],
      "name": "_relayerThreshold",
      "outputs": [
        {
          "internalType": "uint8",
          "name": "",
          "type": "uint8"
        }
      ],
      "stateMutability": "view",
      "type": "function"
    },
    {
      "inputs": [
        {
          "internalType": "uint8",
          "name": "destinationDomainID",
          "type": "uint8"
        },
        {
          "internalType": "uint256",
          "name": "newThreshold",
          "type": "uint256"
        }
      ],
      "name": "adminChangeRelayerThreshold",
      "outputs": [],
      "stateMutability": "nonpayable",
      "type": "function"
    },
    {
      "inputs": [
        {
          "internalType": "uint8",
          "name": "destinationDomainID",
          "type": "uint8"
        },
        {
          "internalType": "uint8",
          "name": "chainId",
          "type": "uint8"
        }
      ],
      "name": "adminSetDestChainId",
      "outputs": [],
      "stateMutability": "nonpayable",
      "type": "function"
    },
    {
      "inputs": [
        {
          "internalType": "uint8",
          "name": "domainID",
          "type": "uint8"
        },
        {
          "internalType": "uint8",
          "name": "destinationDomainID",
          "type": "uint8"
        },
        {
          "internalType": "address",
          "name": "destinationBridge",
          "type": "address"
        },
        {
          "internalType": "uint64",
          "name": "depositNonce",
          "type": "uint64"
        },
        {
          "internalType": "bytes32",
          "name": "resourceID",
          "type": "bytes32"
        },
        {
          "internalType": "bytes",
          "name": "data",
          "type": "bytes"
        },
        {
          "internalType": "bytes",
          "name": "signature",
          "type": "bytes"
        }
      ],
      "name": "checkSignature",
      "outputs": [
        {
          "internalType": "address",
          "name": "",
          "type": "address"
        }
      ],
      "stateMutability": "view",
      "type": "function"
    },
    {
      "inputs": [
        {
          "internalType": "uint8",
          "name": "",
          "type": "uint8"
        }
      ],
      "name": "destChainId",
      "outputs": [
        {
          "internalType": "uint256",
          "name": "",
          "type": "uint256"
        }
      ],
      "stateMutability": "view",
      "type": "function"
    },
    {
      "inputs": [
        {
          "internalType": "bytes32",
          "name": "role",
          "type": "bytes32"
        }
      ],
      "name": "getRoleAdmin",
      "outputs": [
        {
          "internalType": "bytes32",
          "name": "",
          "type": "bytes32"
        }
      ],
      "stateMutability": "view",
      "type": "function"
    },
    {
      "inputs": [
        {
          "internalType": "bytes32",
          "name": "role",
          "type": "bytes32"
        },
        {
          "internalType": "uint256",
          "name": "index",
          "type": "uint256"
        }
      ],
      "name": "getRoleMember",
      "outputs": [
        {
          "internalType": "address",
          "name": "",
          "type": "address"
        }
      ],
      "stateMutability": "view",
      "type": "function"
    },
    {
      "inputs": [
        {
          "internalType": "bytes32",
          "name": "role",
          "type": "bytes32"
        }
      ],
      "name": "getRoleMemberCount",
      "outputs": [
        {
          "internalType": "uint256",
          "name": "",
          "type": "uint256"
        }
      ],
      "stateMutability": "view",
      "type": "function"
    },
    {
      "inputs": [
        {
          "internalType": "bytes32",
          "name": "role",
          "type": "bytes32"
        },
        {
          "internalType": "address",
          "name": "account",
          "type": "address"
        }
      ],
      "name": "getRoleMemberIndex",
      "outputs": [
        {
          "internalType": "uint256",
          "name": "",
          "type": "uint256"
        }
      ],
      "stateMutability": "view",
      "type": "function"
    },
    {
      "inputs": [
        {
          "internalType": "uint8",
          "name": "domainID",
          "type": "uint8"
        },
        {
          "internalType": "uint64",
          "name": "depositNonce",
          "type": "uint64"
        },
        {
          "internalType": "bytes32",
          "name": "resourceID",
          "type": "bytes32"
        },
        {
          "internalType": "bytes",
          "name": "data",
          "type": "bytes"
        }
      ],
      "name": "getSignatures",
      "outputs": [
        {
          "internalType": "bytes[]",
          "name": "",
          "type": "bytes[]"
        }
      ],
      "stateMutability": "view",
      "type": "function"
    },
    {
      "inputs": [
        {
          "internalType": "bytes32",
          "name": "role",
          "type": "bytes32"
        },
        {
          "internalType": "address",
          "name": "account",
          "type": "address"
        }
      ],
      "name": "grantRole",
      "outputs": [],
      "stateMutability": "nonpayable",
      "type": "function"
    },
    {
      "inputs": [
        {
          "internalType": "bytes32",
          "name": "role",
          "type": "bytes32"
        },
        {
          "internalType": "address",
          "name": "account",
          "type": "address"
        }
      ],
      "name": "hasRole",
      "outputs": [
        {
          "internalType": "bool",
          "name": "",
          "type": "bool"
        }
      ],
      "stateMutability": "view",
      "type": "function"
    },
    {
      "inputs": [
        {
          "internalType": "address",
          "name": "admin",
          "type": "address"
        }
      ],
      "name": "initialize",
      "outputs": [],
      "stateMutability": "nonpayable",
      "type": "function"
    },
    {
      "inputs": [
        {
          "internalType": "bytes32",
          "name": "role",
          "type": "bytes32"
        },
        {
          "internalType": "address",
          "name": "account",
          "type": "address"
        }
      ],
      "name": "renounceRole",
      "outputs": [],
      "stateMutability": "nonpayable",
      "type": "function"
    },
    {
      "inputs": [
        {
          "internalType": "bytes32",
          "name": "role",
          "type": "bytes32"
        },
        {
          "internalType": "address",
          "name": "account",
          "type": "address"
        }
      ],
      "name": "revokeRole",
      "outputs": [],
      "stateMutability": "nonpayable",
      "type": "function"
    },
    {
      "inputs": [
        {
          "internalType": "bytes32",
          "name": "",
          "type": "bytes32"
        },
        {
          "internalType": "uint256",
          "name": "",
          "type": "uint256"
        }
      ],
      "name": "signatures",
      "outputs": [
        {
          "internalType": "bytes",
          "name": "",
          "type": "bytes"
        }
      ],
      "stateMutability": "view",
      "type": "function"
    },
    {
      "inputs": [
        {
          "internalType": "uint8",
          "name": "originDomainID",
          "type": "uint8"
        },
        {
          "internalType": "uint8",
          "name": "destinationDomainID",
          "type": "uint8"
        },
        {
          "internalType": "address",
          "name": "destinationBridge",
          "type": "address"
        },
        {
          "internalType": "uint64",
          "name": "depositNonce",
          "type": "uint64"
        },
        {
          "internalType": "bytes32",
          "name": "resourceID",
          "type": "bytes32"
        },
        {
          "internalType": "bytes",
          "name": "data",
          "type": "bytes"
        },
        {
          "internalType": "bytes",
          "name": "signature",
          "type": "bytes"
        }
      ],
      "name": "submitSignature",
      "outputs": [],
      "stateMutability": "nonpayable",
      "type": "function"
    }
  ],
  "bytecode": "0x600c6080526b5065726d697442726964676560a01b60a0527f058443738ec3641a3233a9f285e16671e4ad9755445580d761017e695f75052b603455610100604052600360c052620312e360ec1b60e0527fe6bbd6277e1bf288eed5e8d1780f9a50b239e86b153736bceebccf4ea79d90b360355534801561008057600080fd5b50611915806100906000396000f3fe608060405234801561001057600080fd5b50600436106101375760003560e01c8063861fd043116100b8578063a217fddf1161007c578063a217fddf146102fc578063aa44739d14610304578063c4d66de814610339578063ca15c8731461034c578063d547741f1461035f578063e5787a751461037257600080fd5b8063861fd043146102795780639010d07c1461028c57806391d148541461029f578063926d7d7f146102c2578063a11279c7146102e957600080fd5b806330adf81f116100ff57806330adf81f146101e557806336568abe1461020c5780634e0df3f61461021f5780635d2dab0b1461023257806374400fd11461025957600080fd5b80630b18fec51461013c5780631f241eca1461016f578063248a9ca31461019a5780632f2ff15d146101bd5780632fda959e146101d2575b600080fd5b61015c61014a366004611450565b60376020526000908152604090205481565b6040519081526020015b60405180910390f35b61018261017d3660046114dc565b610392565b6040516001600160a01b039091168152602001610166565b61015c6101a836600461159a565b60009081526033602052604090206002015490565b6101d06101cb3660046115b3565b61055b565b005b6101d06101e03660046115df565b6105ee565b61015c7fc4cb5d35714699d6e85b9562b644e60393b418d974a5c1dd8efaadac37a142c581565b6101d061021a3660046115b3565b610672565b61015c61022d3660046115b3565b6106ec565b61015c7f8b73c3c69bb8fe3d512ecc4cf759cc79239f7b179b0ffacaa9a75d522b39400f81565b61026c610267366004611609565b610719565b6040516101669190611678565b6101d06102873660046114dc565b6107d2565b61018261029a366004611609565b610a03565b6102b26102ad3660046115b3565b610a22565b6040519015158152602001610166565b61015c7fe2b7fb3b832174769106daebcfd6d1970523240dda11281102db9363b83b0dc481565b6101d06102f736600461168b565b610a3a565b61015c600081565b610327610312366004611450565b60366020526000908152604090205460ff1681565b60405160ff9091168152602001610166565b6101d06103473660046116b5565b610aaa565b61015c61035a36600461159a565b610b6e565b6101d061036d3660046115b3565b610b85565b6103856103803660046116d0565b610c06565b604051610166919061173f565b6000807fc4cb5d35714699d6e85b9562b644e60393b418d974a5c1dd8efaadac37a142c58b898989896040516103c99291906117a1565b60405190819003812061040d959493929160200194855260ff93909316602085015267ffffffffffffffff9190911660408401526060830152608082015260a00190565b60408051601f19818403018152918152815160209283012060ff8d1660009081526037909352908220549092506105099083901561045d5760ff8d16600090815260376020526040902054610462565b8c60ff165b603454603554604080517f8b73c3c69bb8fe3d512ecc4cf759cc79239f7b179b0ffacaa9a75d522b39400f60208083019190915281830194909452606081019290925260808201939093526001600160a01b038f1660a0808301919091528351808303909101815260c08201845280519083012061190160f01b60e083015260e2820152610102808201949094528251808203909401845261012201909152815191012090565b905061054b8186868080601f016020809104026020016040519081016040528093929190818152602001838380828437600092019190915250610d5b92505050565b9c9b505050505050505050505050565b6000828152603360205260409020600201546105779033610a22565b6105e05760405162461bcd60e51b815260206004820152602f60248201527f416363657373436f6e74726f6c3a2073656e646572206d75737420626520616e60448201526e0818591b5a5b881d1bc819dc985b9d608a1b60648201526084015b60405180910390fd5b6105ea8282610d7f565b5050565b6105f9600033610a22565b6106455760405162461bcd60e51b815260206004820152601e60248201527f73656e64657220646f65736e277420686176652061646d696e20726f6c65000060448201526064016105d7565b61064e81610dd8565b60ff9283166000908152603660205260409020805460ff1916919093161790915550565b6001600160a01b03811633146106e25760405162461bcd60e51b815260206004820152602f60248201527f416363657373436f6e74726f6c3a2063616e206f6e6c792072656e6f756e636560448201526e103937b632b9903337b91039b2b63360891b60648201526084016105d7565b6105ea8282610e2f565b60008281526033602090815260408083206001600160a01b03851684526001019091529020545b92915050565b6038602052816000526040600020818154811061073557600080fd5b90600052602060002001600091509150508054610751906117b1565b80601f016020809104026020016040519081016040528092919081815260200182805461077d906117b1565b80156107ca5780601f1061079f576101008083540402835291602001916107ca565b820191906000526020600020905b8154815290600101906020018083116107ad57829003601f168201915b505050505081565b6108077fe2b7fb3b832174769106daebcfd6d1970523240dda11281102db9363b83b0dc46102ad8b8b8b8b8b8b8b8b8b610392565b6108475760405162461bcd60e51b8152602060048201526011602482015270696e76616c6964207369676e617475726560781b60448201526064016105d7565b6000898787878760405161085c9291906117a1565b6040519081900381206108999493929160200160ff94909416845267ffffffffffffffff9290921660208401526040830152606082015260800190565b60408051601f19818403018152918152815160209283012060ff808d16600090815260368552838120548382526038909552929092205490935091161161091a5760405162461bcd60e51b81526020600482015260156024820152745369676e7475726520616c6561726479207061737360581b60448201526064016105d7565b6000818152603860209081526040822080546001810182559083529120610943910184846113aa565b50858a60ff167f61cb4bceda51bce60b1d6ed6a15c758737872a125214641da0ae8bb0f2fd23118988888888604051610980959493929190611815565b60405180910390a360ff808a166000908152603660209081526040808320548584526038909252909120549116116109f757858a60ff167f34a202d5d1eb96571e8f79cd5ad505695728f56e0de6df829f702e6d4fc909eb89888888886040516109ee959493929190611815565b60405180910390a35b50505050505050505050565b6000828152603360205260408120610a1b9083610e88565b9392505050565b6000828152603360205260408120610a1b9083610e94565b610a45600033610a22565b610a915760405162461bcd60e51b815260206004820152601e60248201527f73656e64657220646f65736e277420686176652061646d696e20726f6c65000060448201526064016105d7565b60ff918216600090815260376020526040902091169055565b600054610100900460ff16610ac55760005460ff1615610ac9565b303b155b610b2c5760405162461bcd60e51b815260206004820152602e60248201527f496e697469616c697a61626c653a20636f6e747261637420697320616c72656160448201526d191e481a5b9a5d1a585b1a5e995960921b60648201526084016105d7565b600054610100900460ff16158015610b4e576000805461ffff19166101011790555b610b596000836105e0565b80156105ea576000805461ff00191690555050565b600081815260336020526040812061071390610eb6565b600082815260336020526040902060020154610ba19033610a22565b6106e25760405162461bcd60e51b815260206004820152603060248201527f416363657373436f6e74726f6c3a2073656e646572206d75737420626520616e60448201526f2061646d696e20746f207265766f6b6560801b60648201526084016105d7565b6060603860008787878787604051610c1f9291906117a1565b604051908190038120610c5c9493929160200160ff94909416845267ffffffffffffffff9290921660208401526040830152606082015260800190565b604051602081830303815290604052805190602001208152602001908152602001600020805480602002602001604051908101604052809291908181526020016000905b82821015610d4c578382906000526020600020018054610cbf906117b1565b80601f0160208091040260200160405190810160405280929190818152602001828054610ceb906117b1565b8015610d385780601f10610d0d57610100808354040283529160200191610d38565b820191906000526020600020905b815481529060010190602001808311610d1b57829003601f168201915b505050505081526020019060010190610ca0565b50505050905095945050505050565b6000806000610d6a8585610ec0565b91509150610d7781610f30565b509392505050565b6000828152603360205260409020610d9790826110ee565b156105ea5760405133906001600160a01b0383169084907f2f8788117e7eff1d82e926ec794901d17c78024a50270940304540a733656f0d90600090a45050565b60006101008210610e2b5760405162461bcd60e51b815260206004820152601c60248201527f76616c756520646f6573206e6f742066697420696e203820626974730000000060448201526064016105d7565b5090565b6000828152603360205260409020610e479082611103565b156105ea5760405133906001600160a01b0383169084907ff6391f5c32d9c69d2a47ea670b442974b53935d1edc7fd64eb21e047a839171b90600090a45050565b6000610a1b8383611118565b6001600160a01b03811660009081526001830160205260408120541515610a1b565b6000610713825490565b600080825160411415610ef75760208301516040840151606085015160001a610eeb87828585611142565b94509450505050610f29565b825160401415610f215760208301516040840151610f1686838361122f565b935093505050610f29565b506000905060025b9250929050565b6000816004811115610f4457610f44611858565b1415610f4d5750565b6001816004811115610f6157610f61611858565b1415610faf5760405162461bcd60e51b815260206004820152601860248201527f45434453413a20696e76616c6964207369676e6174757265000000000000000060448201526064016105d7565b6002816004811115610fc357610fc3611858565b14156110115760405162461bcd60e51b815260206004820152601f60248201527f45434453413a20696e76616c6964207369676e6174757265206c656e6774680060448201526064016105d7565b600381600481111561102557611025611858565b141561107e5760405162461bcd60e51b815260206004820152602260248201527f45434453413a20696e76616c6964207369676e6174757265202773272076616c604482015261756560f01b60648201526084016105d7565b600481600481111561109257611092611858565b14156110eb5760405162461bcd60e51b815260206004820152602260248201527f45434453413a20696e76616c6964207369676e6174757265202776272076616c604482015261756560f01b60648201526084016105d7565b50565b6000610a1b836001600160a01b038416611268565b6000610a1b836001600160a01b0384166112b7565b600082600001828154811061112f5761112f61186e565b9060005260206000200154905092915050565b6000807f7fffffffffffffffffffffffffffffff5d576e7357a4501ddfe92f46681b20a08311156111795750600090506003611226565b8460ff16601b1415801561119157508460ff16601c14155b156111a25750600090506004611226565b6040805160008082526020820180845289905260ff881692820192909252606081018690526080810185905260019060a0016020604051602081039080840390855afa1580156111f6573d6000803e3d6000fd5b5050604051601f1901519150506001600160a01b03811661121f57600060019250925050611226565b9150600090505b94509492505050565b6000806001600160ff1b0383168161124c60ff86901c601b61189a565b905061125a87828885611142565b935093505050935093915050565b60008181526001830160205260408120546112af57508154600181810184556000848152602080822090930184905584548482528286019093526040902091909155610713565b506000610713565b600081815260018301602052604081205480156113a05760006112db6001836118b2565b85549091506000906112ef906001906118b2565b905081811461135457600086600001828154811061130f5761130f61186e565b90600052602060002001549050808760000184815481106113325761133261186e565b6000918252602080832090910192909255918252600188019052604090208390555b8554869080611365576113656118c9565b600190038181906000526020600020016000905590558560010160008681526020019081526020016000206000905560019350505050610713565b6000915050610713565b8280546113b6906117b1565b90600052602060002090601f0160209004810192826113d8576000855561141e565b82601f106113f15782800160ff1982351617855561141e565b8280016001018555821561141e579182015b8281111561141e578235825591602001919060010190611403565b50610e2b9291505b80821115610e2b5760008155600101611426565b803560ff8116811461144b57600080fd5b919050565b60006020828403121561146257600080fd5b610a1b8261143a565b80356001600160a01b038116811461144b57600080fd5b803567ffffffffffffffff8116811461144b57600080fd5b60008083601f8401126114ac57600080fd5b50813567ffffffffffffffff8111156114c457600080fd5b602083019150836020828501011115610f2957600080fd5b600080600080600080600080600060e08a8c0312156114fa57600080fd5b6115038a61143a565b985061151160208b0161143a565b975061151f60408b0161146b565b965061152d60608b01611482565b955060808a0135945060a08a013567ffffffffffffffff8082111561155157600080fd5b61155d8d838e0161149a565b909650945060c08c013591508082111561157657600080fd5b506115838c828d0161149a565b915080935050809150509295985092959850929598565b6000602082840312156115ac57600080fd5b5035919050565b600080604083850312156115c657600080fd5b823591506115d66020840161146b565b90509250929050565b600080604083850312156115f257600080fd5b6115fb8361143a565b946020939093013593505050565b6000806040838503121561161c57600080fd5b50508035926020909101359150565b6000815180845260005b8181101561165157602081850181015186830182015201611635565b81811115611663576000602083870101525b50601f01601f19169290920160200192915050565b602081526000610a1b602083018461162b565b6000806040838503121561169e57600080fd5b6116a78361143a565b91506115d66020840161143a565b6000602082840312156116c757600080fd5b610a1b8261146b565b6000806000806000608086880312156116e857600080fd5b6116f18661143a565b94506116ff60208701611482565b935060408601359250606086013567ffffffffffffffff81111561172257600080fd5b61172e8882890161149a565b969995985093965092949392505050565b6000602080830181845280855180835260408601915060408160051b870101925083870160005b8281101561179457603f1988860301845261178285835161162b565b94509285019290850190600101611766565b5092979650505050505050565b8183823760009101908152919050565b600181811c908216806117c557607f821691505b602082108114156117e657634e487b7160e01b600052602260045260246000fd5b50919050565b81835281816020850137506000828201602090810191909152601f909101601f19169091010190565b67ffffffffffffffff861681526060602082015260006118396060830186886117ec565b828103604084015261184c8185876117ec565b98975050505050505050565b634e487b7160e01b600052602160045260246000fd5b634e487b7160e01b600052603260045260246000fd5b634e487b7160e01b600052601160045260246000fd5b600082198211156118ad576118ad611884565b500190565b6000828210156118c4576118c4611884565b500390565b634e487b7160e01b600052603160045260246000fdfea26469706673582212204b7c12b73ac40f65f26da06cf4cf6c1c89a6ab71e9b51be8e5132a69a0b8f52d64736f6c634300080b0033",
  "linkReferences": {},
  "deployedLinkReferences": {}
}