{
  "_format": "hh-sol-artifact-1",
  "contractName": "SignaturesUpgradeable",
  "sourceName": "contracts/SignaturesUpgradeable.sol",
  "abi": [
    {
      "anonymous": false,
      "inputs": [
        {
          "indexed": false,
          "internalType": "uint8",
          "name": "version",
          "type": "uint8"
        }
      ],
      "name": "Initialized",
      "type": "event"
    },
    {
      "anonymous": false,
      "inputs": [
        {
          "indexed": false,
          "internalType": "address",
          "name": "account",
          "type": "address"
        }
      ],
      "name": "Paused",
      "type": "event"
    },
    {
      "anonymous": false,
      "inputs": [
        {
          "indexed": true,
          "internalType": "bytes32",
          "name": "role",
          "type": "bytes32"
        },
        {
          "indexed": true,
          "internalType": "address",
          "name": "account",
          "type": "address"
        },
        {
          "indexed": true,
          "internalType": "address",
          "name": "sender",
          "type": "address"
        }
      ],
      "name": "RoleGranted",
      "type": "event"
    },
    {
      "anonymous": false,
      "inputs": [
        {
          "indexed": true,
          "internalType": "bytes32",
          "name": "role",
          "type": "bytes32"
        },
        {
          "indexed": true,
          "internalType": "address",
          "name": "account",
          "type": "address"
        },
        {
          "indexed": true,
          "internalType": "address",
          "name": "sender",
          "type": "address"
        }
      ],
      "name": "RoleRevoked",
      "type": "event"
    },
    {
      "anonymous": false,
      "inputs": [
        {
          "indexed": true,
          "internalType": "uint8",
          "name": "originDomainID",
          "type": "uint8"
        },
        {
          "indexed": true,
          "internalType": "uint8",
          "name": "destinationDomainID",
          "type": "uint8"
        },
        {
          "indexed": false,
          "internalType": "uint64",
          "name": "depositNonce",
          "type": "uint64"
        },
        {
          "indexed": true,
          "internalType": "bytes32",
          "name": "resourceID",
          "type": "bytes32"
        },
        {
          "indexed": false,
          "internalType": "bytes",
          "name": "data",
          "type": "bytes"
        },
        {
          "indexed": false,
          "internalType": "bytes",
          "name": "signature",
          "type": "bytes"
        }
      ],
      "name": "SignaturePass",
      "type": "event"
    },
    {
      "anonymous": false,
      "inputs": [
        {
          "indexed": true,
          "internalType": "uint8",
          "name": "originDomainID",
          "type": "uint8"
        },
        {
          "indexed": true,
          "internalType": "uint8",
          "name": "destinationDomainID",
          "type": "uint8"
        },
        {
          "indexed": false,
          "internalType": "uint64",
          "name": "depositNonce",
          "type": "uint64"
        },
        {
          "indexed": true,
          "internalType": "bytes32",
          "name": "resourceID",
          "type": "bytes32"
        },
        {
          "indexed": false,
          "internalType": "bytes",
          "name": "data",
          "type": "bytes"
        },
        {
          "indexed": false,
          "internalType": "bytes",
          "name": "signature",
          "type": "bytes"
        }
      ],
      "name": "SubmitSignature",
      "type": "event"
    },
    {
      "anonymous": false,
      "inputs": [
        {
          "indexed": false,
          "internalType": "address",
          "name": "account",
          "type": "address"
        }
      ],
      "name": "Unpaused",
      "type": "event"
    },
    {
      "inputs": [],
      "name": "DEFAULT_ADMIN_ROLE",
      "outputs": [
        {
          "internalType": "bytes32",
          "name": "",
          "type": "bytes32"
        }
      ],
      "stateMutability": "view",
      "type": "function"
    },
    {
      "inputs": [],
      "name": "PERMIT_TYPEHASH",
      "outputs": [
        {
          "internalType": "bytes32",
          "name": "",
          "type": "bytes32"
        }
      ],
      "stateMutability": "view",
      "type": "function"
    },
    {
      "inputs": [],
      "name": "RELAYER_ROLE",
      "outputs": [
        {
          "internalType": "bytes32",
          "name": "",
          "type": "bytes32"
        }
      ],
      "stateMutability": "view",
      "type": "function"
    },
    {
      "inputs": [],
      "name": "_TYPE_HASH",
      "outputs": [
        {
          "internalType": "bytes32",
          "name": "",
          "type": "bytes32"
        }
      ],
      "stateMutability": "view",
      "type": "function"
    },
    {
      "inputs": [
        {
          "internalType": "uint8",
          "name": "",
          "type": "uint8"
        }
      ],
      "name": "_relayerThreshold",
      "outputs": [
        {
          "internalType": "uint8",
          "name": "",
          "type": "uint8"
        }
      ],
      "stateMutability": "view",
      "type": "function"
    },
    {
      "inputs": [
        {
          "internalType": "uint8",
          "name": "destinationDomainID",
          "type": "uint8"
        },
        {
          "internalType": "uint256",
          "name": "newThreshold",
          "type": "uint256"
        }
      ],
      "name": "adminChangeRelayerThreshold",
      "outputs": [],
      "stateMutability": "nonpayable",
      "type": "function"
    },
    {
      "inputs": [],
      "name": "adminPause",
      "outputs": [],
      "stateMutability": "nonpayable",
      "type": "function"
    },
    {
      "inputs": [
        {
          "internalType": "uint8",
          "name": "destinationDomainID",
          "type": "uint8"
        },
        {
          "internalType": "uint256",
          "name": "chainId",
          "type": "uint256"
        },
        {
          "internalType": "address",
          "name": "destinationBridge",
          "type": "address"
        }
      ],
      "name": "adminSetDestChainId",
      "outputs": [],
      "stateMutability": "nonpayable",
      "type": "function"
    },
    {
      "inputs": [],
      "name": "adminUnpause",
      "outputs": [],
      "stateMutability": "nonpayable",
      "type": "function"
    },
    {
      "inputs": [
        {
          "internalType": "uint8",
          "name": "domainID",
          "type": "uint8"
        },
        {
          "internalType": "uint8",
          "name": "destinationDomainID",
          "type": "uint8"
        },
        {
          "internalType": "uint64",
          "name": "depositNonce",
          "type": "uint64"
        },
        {
          "internalType": "bytes32",
          "name": "resourceID",
          "type": "bytes32"
        },
        {
          "internalType": "bytes",
          "name": "data",
          "type": "bytes"
        },
        {
          "internalType": "bytes",
          "name": "signature",
          "type": "bytes"
        }
      ],
      "name": "checkSignature",
      "outputs": [
        {
          "internalType": "address",
          "name": "",
          "type": "address"
        }
      ],
      "stateMutability": "view",
      "type": "function"
    },
    {
      "inputs": [
        {
          "internalType": "uint8",
          "name": "",
          "type": "uint8"
        }
      ],
      "name": "destChainId",
      "outputs": [
        {
          "internalType": "uint256",
          "name": "",
          "type": "uint256"
        }
      ],
      "stateMutability": "view",
      "type": "function"
    },
    {
      "inputs": [
        {
          "internalType": "uint8",
          "name": "",
          "type": "uint8"
        }
      ],
      "name": "destinationBridgeAddress",
      "outputs": [
        {
          "internalType": "address",
          "name": "",
          "type": "address"
        }
      ],
      "stateMutability": "view",
      "type": "function"
    },
    {
      "inputs": [
        {
          "internalType": "uint256",
          "name": "index",
          "type": "uint256"
        }
      ],
      "name": "getProposal",
      "outputs": [
        {
          "components": [
            {
              "internalType": "uint8",
              "name": "originDomainID",
              "type": "uint8"
            },
            {
              "internalType": "uint8",
              "name": "destinationDomainID",
              "type": "uint8"
            },
            {
              "internalType": "address",
              "name": "destinationBridge",
              "type": "address"
            },
            {
              "internalType": "uint64",
              "name": "depositNonce",
              "type": "uint64"
            },
            {
              "internalType": "bytes32",
              "name": "resourceID",
              "type": "bytes32"
            },
            {
              "internalType": "bytes",
              "name": "data",
              "type": "bytes"
            },
            {
              "internalType": "uint256",
              "name": "proposalIndex",
              "type": "uint256"
            }
          ],
          "internalType": "struct SignaturesUpgradeable.Proposal",
          "name": "",
          "type": "tuple"
        }
      ],
      "stateMutability": "view",
      "type": "function"
    },
    {
      "inputs": [
        {
          "internalType": "bytes32",
          "name": "role",
          "type": "bytes32"
        }
      ],
      "name": "getRoleAdmin",
      "outputs": [
        {
          "internalType": "bytes32",
          "name": "",
          "type": "bytes32"
        }
      ],
      "stateMutability": "view",
      "type": "function"
    },
    {
      "inputs": [
        {
          "internalType": "bytes32",
          "name": "role",
          "type": "bytes32"
        },
        {
          "internalType": "uint256",
          "name": "index",
          "type": "uint256"
        }
      ],
      "name": "getRoleMember",
      "outputs": [
        {
          "internalType": "address",
          "name": "",
          "type": "address"
        }
      ],
      "stateMutability": "view",
      "type": "function"
    },
    {
      "inputs": [
        {
          "internalType": "bytes32",
          "name": "role",
          "type": "bytes32"
        }
      ],
      "name": "getRoleMemberCount",
      "outputs": [
        {
          "internalType": "uint256",
          "name": "",
          "type": "uint256"
        }
      ],
      "stateMutability": "view",
      "type": "function"
    },
    {
      "inputs": [
        {
          "internalType": "bytes32",
          "name": "role",
          "type": "bytes32"
        },
        {
          "internalType": "address",
          "name": "account",
          "type": "address"
        }
      ],
      "name": "getRoleMemberIndex",
      "outputs": [
        {
          "internalType": "uint256",
          "name": "",
          "type": "uint256"
        }
      ],
      "stateMutability": "view",
      "type": "function"
    },
    {
      "inputs": [
        {
          "internalType": "uint8",
          "name": "domainID",
          "type": "uint8"
        },
        {
          "internalType": "uint64",
          "name": "depositNonce",
          "type": "uint64"
        },
        {
          "internalType": "bytes32",
          "name": "resourceID",
          "type": "bytes32"
        },
        {
          "internalType": "bytes",
          "name": "data",
          "type": "bytes"
        }
      ],
      "name": "getSignatures",
      "outputs": [
        {
          "internalType": "bytes[]",
          "name": "",
          "type": "bytes[]"
        }
      ],
      "stateMutability": "view",
      "type": "function"
    },
    {
      "inputs": [
        {
          "internalType": "uint256",
          "name": "index",
          "type": "uint256"
        }
      ],
      "name": "getSignatures",
      "outputs": [
        {
          "internalType": "bytes[]",
          "name": "",
          "type": "bytes[]"
        }
      ],
      "stateMutability": "view",
      "type": "function"
    },
    {
      "inputs": [
        {
          "internalType": "bytes32",
          "name": "role",
          "type": "bytes32"
        },
        {
          "internalType": "address",
          "name": "account",
          "type": "address"
        }
      ],
      "name": "grantRole",
      "outputs": [],
      "stateMutability": "nonpayable",
      "type": "function"
    },
    {
      "inputs": [
        {
          "internalType": "bytes32",
          "name": "role",
          "type": "bytes32"
        },
        {
          "internalType": "address",
          "name": "account",
          "type": "address"
        }
      ],
      "name": "hasRole",
      "outputs": [
        {
          "internalType": "bool",
          "name": "",
          "type": "bool"
        }
      ],
      "stateMutability": "view",
      "type": "function"
    },
    {
      "inputs": [
        {
          "internalType": "bytes",
          "name": "",
          "type": "bytes"
        }
      ],
      "name": "hasVote",
      "outputs": [
        {
          "internalType": "bool",
          "name": "",
          "type": "bool"
        }
      ],
      "stateMutability": "view",
      "type": "function"
    },
    {
      "inputs": [
        {
          "internalType": "uint256",
          "name": "",
          "type": "uint256"
        }
      ],
      "name": "indexToProposal",
      "outputs": [
        {
          "internalType": "bytes32",
          "name": "",
          "type": "bytes32"
        }
      ],
      "stateMutability": "view",
      "type": "function"
    },
    {
      "inputs": [
        {
          "internalType": "address",
          "name": "admin",
          "type": "address"
        }
      ],
      "name": "initialize",
      "outputs": [],
      "stateMutability": "nonpayable",
      "type": "function"
    },
    {
      "inputs": [],
      "name": "paused",
      "outputs": [
        {
          "internalType": "bool",
          "name": "",
          "type": "bool"
        }
      ],
      "stateMutability": "view",
      "type": "function"
    },
    {
      "inputs": [],
      "name": "proposalIndex",
      "outputs": [
        {
          "internalType": "uint256",
          "name": "",
          "type": "uint256"
        }
      ],
      "stateMutability": "view",
      "type": "function"
    },
    {
      "inputs": [
        {
          "internalType": "bytes32",
          "name": "",
          "type": "bytes32"
        }
      ],
      "name": "proposals",
      "outputs": [
        {
          "internalType": "uint8",
          "name": "originDomainID",
          "type": "uint8"
        },
        {
          "internalType": "uint8",
          "name": "destinationDomainID",
          "type": "uint8"
        },
        {
          "internalType": "address",
          "name": "destinationBridge",
          "type": "address"
        },
        {
          "internalType": "uint64",
          "name": "depositNonce",
          "type": "uint64"
        },
        {
          "internalType": "bytes32",
          "name": "resourceID",
          "type": "bytes32"
        },
        {
          "internalType": "bytes",
          "name": "data",
          "type": "bytes"
        },
        {
          "internalType": "uint256",
          "name": "proposalIndex",
          "type": "uint256"
        }
      ],
      "stateMutability": "view",
      "type": "function"
    },
    {
      "inputs": [
        {
          "internalType": "bytes32",
          "name": "",
          "type": "bytes32"
        },
        {
          "internalType": "address",
          "name": "",
          "type": "address"
        }
      ],
      "name": "relayerVote",
      "outputs": [
        {
          "internalType": "bool",
          "name": "",
          "type": "bool"
        }
      ],
      "stateMutability": "view",
      "type": "function"
    },
    {
      "inputs": [
        {
          "internalType": "bytes32",
          "name": "role",
          "type": "bytes32"
        },
        {
          "internalType": "address",
          "name": "account",
          "type": "address"
        }
      ],
      "name": "renounceRole",
      "outputs": [],
      "stateMutability": "nonpayable",
      "type": "function"
    },
    {
      "inputs": [
        {
          "internalType": "bytes32",
          "name": "role",
          "type": "bytes32"
        },
        {
          "internalType": "address",
          "name": "account",
          "type": "address"
        }
      ],
      "name": "revokeRole",
      "outputs": [],
      "stateMutability": "nonpayable",
      "type": "function"
    },
    {
      "inputs": [
        {
          "internalType": "bytes32",
          "name": "",
          "type": "bytes32"
        },
        {
          "internalType": "uint256",
          "name": "",
          "type": "uint256"
        }
      ],
      "name": "signatures",
      "outputs": [
        {
          "internalType": "bytes",
          "name": "",
          "type": "bytes"
        }
      ],
      "stateMutability": "view",
      "type": "function"
    },
    {
      "inputs": [
        {
          "internalType": "uint8",
          "name": "originDomainID",
          "type": "uint8"
        },
        {
          "internalType": "uint8",
          "name": "destinationDomainID",
          "type": "uint8"
        },
        {
          "internalType": "uint64",
          "name": "depositNonce",
          "type": "uint64"
        },
        {
          "internalType": "bytes32",
          "name": "resourceID",
          "type": "bytes32"
        },
        {
          "internalType": "bytes",
          "name": "data",
          "type": "bytes"
        },
        {
          "internalType": "bytes",
          "name": "signature",
          "type": "bytes"
        }
      ],
      "name": "submitSignature",
      "outputs": [],
      "stateMutability": "nonpayable",
      "type": "function"
    }
  ],
  "bytecode": "0x608060405234801561001057600080fd5b5061256a806100206000396000f3fe608060405234801561001057600080fd5b50600436106101f05760003560e01c80637600c4a51161010f578063ab676c26116100a2578063ca15c87311610071578063ca15c8731461051a578063d547741f1461052d578063e5787a7514610540578063f4eccb8f1461056057600080fd5b8063ab676c26146104cc578063c20860af146104df578063c4d66de8146104e7578063c7f758a8146104fa57600080fd5b806392f9c067116100de57806392f9c06714610474578063981533491461047c578063a217fddf1461048f578063aa44739d1461049757600080fd5b80637600c4a5146103e65780639010d07c1461042757806391d148541461043a578063926d7d7f1461044d57600080fd5b806336568abe116101875780635977e0f2116101565780635977e0f2146103855780635c975abb1461038e5780635d2dab0b1461039f57806374400fd1146103c657600080fd5b806336568abe1461031e57806336a3a44e146103315780634e0df3f61461034457806350916c7c1461035757600080fd5b80632fda959e116101c35780632fda959e1461029e57806330adf81f146102b157806332ed5b12146102d85780633640850b146102fe57600080fd5b80630b18fec5146101f5578063248a9ca3146102285780632703a4fd1461024b5780632f2ff15d14610289575b600080fd5b610215610203366004611ed3565b60666020526000908152604090205481565b6040519081526020015b60405180910390f35b610215610236366004611eee565b60009081526064602052604090206002015490565b610279610259366004611f1e565b606960209081526000928352604080842090915290825290205460ff1681565b604051901515815260200161021f565b61029c610297366004611f1e565b610573565b005b61029c6102ac366004611f4a565b610606565b6102157fc4cb5d35714699d6e85b9562b644e60393b418d974a5c1dd8efaadac37a142c581565b6102eb6102e6366004611eee565b61065a565b60405161021f9796959493929190611fc1565b61021561030c366004611eee565b606d6020526000908152604090205481565b61029c61032c366004611f1e565b61073a565b61029c61033f36600461201d565b6107b4565b610215610352366004611f1e565b61081a565b61027961036536600461206f565b805160208183018101805160688252928201919093012091525460ff1681565b610215606b5481565b60005462010000900460ff16610279565b6102157f8b73c3c69bb8fe3d512ecc4cf759cc79239f7b179b0ffacaa9a75d522b39400f81565b6103d96103d436600461211f565b610847565b60405161021f9190612141565b61040f6103f4366004611ed3565b606a602052600090815260409020546001600160a01b031681565b6040516001600160a01b03909116815260200161021f565b61040f61043536600461211f565b610900565b610279610448366004611f1e565b61091f565b6102157fe2b7fb3b832174769106daebcfd6d1970523240dda11281102db9363b83b0dc481565b61029c610937565b61029c61048a3660046121ac565b610969565b610215600081565b6104ba6104a5366004611ed3565b60656020526000908152604090205460ff1681565b60405160ff909116815260200161021f565b61040f6104da3660046121ac565b610e48565b61029c61108d565b61029c6104f5366004612256565b6110bd565b61050d610508366004611eee565b6111d1565b60405161021f9190612271565b610215610528366004611eee565b611368565b61029c61053b366004611f1e565b61137f565b61055361054e3660046122ed565b611400565b60405161021f919061235b565b61055361056e366004611eee565b611554565b60008281526064602052604090206002015461058f903361091f565b6105f85760405162461bcd60e51b815260206004820152602f60248201527f416363657373436f6e74726f6c3a2073656e646572206d75737420626520616e60448201526e0818591b5a5b881d1bc819dc985b9d608a1b60648201526084015b60405180910390fd5b6106028282611687565b5050565b61061160003361091f565b61062d5760405162461bcd60e51b81526004016105ef906123bd565b610636816116e0565b60ff9283166000908152606560205260409020805460ff1916919093161790915550565b606c6020526000908152604090208054600182015460028301805460ff808516956101008604909116946201000081046001600160a01b031694600160b01b9091046001600160401b03169390926106b1906123f4565b80601f01602080910402602001604051908101604052809291908181526020018280546106dd906123f4565b801561072a5780601f106106ff5761010080835404028352916020019161072a565b820191906000526020600020905b81548152906001019060200180831161070d57829003601f168201915b5050505050908060030154905087565b6001600160a01b03811633146107aa5760405162461bcd60e51b815260206004820152602f60248201527f416363657373436f6e74726f6c3a2063616e206f6e6c792072656e6f756e636560448201526e103937b632b9903337b91039b2b63360891b60648201526084016105ef565b6106028282611737565b6107bf60003361091f565b6107db5760405162461bcd60e51b81526004016105ef906123bd565b60ff92909216600090815260666020908152604080832093909355606a90522080546001600160a01b0319166001600160a01b03909216919091179055565b60008281526064602090815260408083206001600160a01b03851684526001019091529020545b92915050565b6067602052816000526040600020818154811061086357600080fd5b9060005260206000200160009150915050805461087f906123f4565b80601f01602080910402602001604051908101604052809291908181526020018280546108ab906123f4565b80156108f85780601f106108cd576101008083540402835291602001916108f8565b820191906000526020600020905b8154815290600101906020018083116108db57829003601f168201915b505050505081565b60008281526064602052604081206109189083611790565b9392505050565b6000828152606460205260408120610918908361179c565b61094260003361091f565b61095e5760405162461bcd60e51b81526004016105ef906123bd565b610967336117be565b565b610971611812565b60ff87166000908152606a60205260408120546001600160a01b03169061099e8a8a8a8a8a8a8a8a610e48565b90506109ca7fe2b7fb3b832174769106daebcfd6d1970523240dda11281102db9363b83b0dc48261091f565b610a0a5760405162461bcd60e51b8152602060048201526011602482015270696e76616c6964207369676e617475726560781b60448201526064016105ef565b60008a8a8a8a8a8a604051610a2092919061242f565b6040805191829003822060ff968716602084015294909516948101949094526001600160401b03919091166060840152608083015260a082015260c00160408051601f1981840301815291815281516020928301206000818152606984528281206001600160a01b038716825290935291205490915060ff1615610ae65760405162461bcd60e51b815260206004820152601860248201527f7369676e617475726520616c6561726479207375626d6974000000000000000060448201526064016105ef565b60008181526069602090815260408083206001600160a01b03861684528252808320805460ff1916600117905560ff8d8116845260658352818420548585526067909352922054911611610b745760405162461bcd60e51b81526020600482015260156024820152745369676e7475726520616c6561726479207061737360581b60448201526064016105ef565b60ff8a166000908152606a60205260409020546001600160a01b03848116911614610be15760405162461bcd60e51b815260206004820152601960248201527f696e76616c69642064657374696e6174696f6e4272696467650000000000000060448201526064016105ef565b600081815260676020526040902054610d5657606b8054906000610c0483612455565b91905055506040518060e001604052808c60ff1681526020018b60ff168152602001846001600160a01b031681526020018a6001600160401b0316815260200189815260200188888080601f01602080910402602001604051908101604052809392919081815260200183838082843760009201829052509385525050606b5460209384015250838152606c825260409081902083518154858501519386015160608701516001600160401b0316600160b01b0267ffffffffffffffff60b01b196001600160a01b0390921662010000029190911662010000600160f01b031960ff9687166101000261ffff1990941696909416959095179190911791909116929092179190911781556080830151600182015560a083015180519192610d3392600285019290910190611db4565b5060c09190910151600390910155606b546000908152606d602052604090208190555b6000818152606760209081526040822080546001810182559083529120610d7f91018686611e34565b50878a60ff168c60ff167fdbf724cd2f174f6ee6dc7d45f557ca42e3f0c483d5ac5da1317ade0e540889078c8b8b8b8b604051610dc0959493929190612499565b60405180910390a460ff808b16600090815260656020908152604080832054858452606790925290912054911611610e3b57878a60ff168c60ff167fd94e275aae893bc4cab1c14c3052a527a80ae5542ad2047e0dbe0ceeb79bee018c8b8b8b8b604051610e32959493929190612499565b60405180910390a45b5050505050505050505050565b6000807fc4cb5d35714699d6e85b9562b644e60393b418d974a5c1dd8efaadac37a142c58a89898989604051610e7f92919061242f565b604051908190038120610ec2959493929160200194855260ff9390931660208501526001600160401b039190911660408401526060830152608082015260a00190565b60408051601f19818403018152918152815160209283012060ff8c166000908152606a8452828120546066909452918220549093506001600160a01b039092169161103b90849015610f265760ff8d16600090815260666020526040902054610f2b565b8c60ff165b604080518082018252600c81526b5065726d697442726964676560a01b6020918201528151808301835260038152620312e360ec1b9082015281517f8b73c3c69bb8fe3d512ecc4cf759cc79239f7b179b0ffacaa9a75d522b39400f818301527f058443738ec3641a3233a9f285e16671e4ad9755445580d761017e695f75052b818401527fe6bbd6277e1bf288eed5e8d1780f9a50b239e86b153736bceebccf4ea79d90b3606082015260808101939093526001600160a01b03871660a0808501919091528251808503909101815260c08401835280519082012061190160f01b60e085015260e284015261010280840194909452815180840390940184526101229092019052815191012090565b905061107d8187878080601f01602080910402602001604051908101604052809392919081815260200183838082843760009201919091525061185e92505050565b9c9b505050505050505050505050565b61109860003361091f565b6110b45760405162461bcd60e51b81526004016105ef906123bd565b61096733611882565b600054610100900460ff16158080156110dd5750600054600160ff909116105b806110f75750303b1580156110f7575060005460ff166001145b61115a5760405162461bcd60e51b815260206004820152602e60248201527f496e697469616c697a61626c653a20636f6e747261637420697320616c72656160448201526d191e481a5b9a5d1a585b1a5e995960921b60648201526084016105ef565b6000805460ff19166001179055801561117d576000805461ff0019166101001790555b6111886000836105f8565b8015610602576000805461ff0019169055604051600181527f7f26b83ff96e1f2b6a682f133852f6798a09c465da95921460cefb38474024989060200160405180910390a15050565b6040805160e08101825260008082526020820181905291810182905260608082018390526080820183905260a082015260c0810191909152606b548211156112505760405162461bcd60e51b8152602060048201526012602482015271141c9bdc1bdcd85b081b9bdd08195e1a5cdd60721b60448201526064016105ef565b6000828152606d60209081526040808320548352606c825291829020825160e081018452815460ff8082168352610100820416938201939093526201000083046001600160a01b031693810193909352600160b01b9091046001600160401b031660608301526001810154608083015260028101805460a0840191906112d5906123f4565b80601f0160208091040260200160405190810160405280929190818152602001828054611301906123f4565b801561134e5780601f106113235761010080835404028352916020019161134e565b820191906000526020600020905b81548152906001019060200180831161133157829003601f168201915b505050505081526020016003820154815250509050919050565b6000818152606460205260408120610841906118d4565b60008281526064602052604090206002015461139b903361091f565b6107aa5760405162461bcd60e51b815260206004820152603060248201527f416363657373436f6e74726f6c3a2073656e646572206d75737420626520616e60448201526f2061646d696e20746f207265766f6b6560801b60648201526084016105ef565b606060676000878787878760405161141992919061242f565b6040519081900381206114559493929160200160ff9490941684526001600160401b039290921660208401526040830152606082015260800190565b604051602081830303815290604052805190602001208152602001908152602001600020805480602002602001604051908101604052809291908181526020016000905b828210156115455783829060005260206000200180546114b8906123f4565b80601f01602080910402602001604051908101604052809291908181526020018280546114e4906123f4565b80156115315780601f1061150657610100808354040283529160200191611531565b820191906000526020600020905b81548152906001019060200180831161151457829003601f168201915b505050505081526020019060010190611499565b50505050905095945050505050565b6060606b5482111561159d5760405162461bcd60e51b8152602060048201526012602482015271141c9bdc1bdcd85b081b9bdd08195e1a5cdd60721b60448201526064016105ef565b6000828152606d602090815260408083205483526067825280832080548251818502810185019093528083529193909284015b8282101561167c5783829060005260206000200180546115ef906123f4565b80601f016020809104026020016040519081016040528092919081815260200182805461161b906123f4565b80156116685780601f1061163d57610100808354040283529160200191611668565b820191906000526020600020905b81548152906001019060200180831161164b57829003601f168201915b5050505050815260200190600101906115d0565b505050509050919050565b600082815260646020526040902061169f90826118de565b156106025760405133906001600160a01b0383169084907f2f8788117e7eff1d82e926ec794901d17c78024a50270940304540a733656f0d90600090a45050565b600061010082106117335760405162461bcd60e51b815260206004820152601c60248201527f76616c756520646f6573206e6f742066697420696e203820626974730000000060448201526064016105ef565b5090565b600082815260646020526040902061174f90826118f3565b156106025760405133906001600160a01b0383169084907ff6391f5c32d9c69d2a47ea670b442974b53935d1edc7fd64eb21e047a839171b90600090a45050565b60006109188383611908565b6001600160a01b03811660009081526001830160205260408120541515610918565b6117c6611932565b6000805462ff0000191690556040516001600160a01b03821681527f5db9ee0a495bf2e6ff9c91a7834c1ba4fdd244a5e8aa4e537bd38aeae4b073aa906020015b60405180910390a150565b60005462010000900460ff16156109675760405162461bcd60e51b815260206004820152601060248201526f14185d5cd8589b194e881c185d5cd95960821b60448201526064016105ef565b600080600061186d8585611981565b9150915061187a816119c7565b509392505050565b61188a611812565b6000805462ff00001916620100001790556040516001600160a01b03821681527f62e78cea01bee320cd4e420270b5ea74000d11b0c9f74754ebdbfc544b05a25890602001611807565b6000610841825490565b6000610918836001600160a01b038416611b85565b6000610918836001600160a01b038416611bd4565b600082600001828154811061191f5761191f6124db565b9060005260206000200154905092915050565b60005462010000900460ff166109675760405162461bcd60e51b815260206004820152601460248201527314185d5cd8589b194e881b9bdd081c185d5cd95960621b60448201526064016105ef565b6000808251604114156119b85760208301516040840151606085015160001a6119ac87828585611cc7565b945094505050506119c0565b506000905060025b9250929050565b60008160048111156119db576119db6124f1565b14156119e45750565b60018160048111156119f8576119f86124f1565b1415611a465760405162461bcd60e51b815260206004820152601860248201527f45434453413a20696e76616c6964207369676e6174757265000000000000000060448201526064016105ef565b6002816004811115611a5a57611a5a6124f1565b1415611aa85760405162461bcd60e51b815260206004820152601f60248201527f45434453413a20696e76616c6964207369676e6174757265206c656e6774680060448201526064016105ef565b6003816004811115611abc57611abc6124f1565b1415611b155760405162461bcd60e51b815260206004820152602260248201527f45434453413a20696e76616c6964207369676e6174757265202773272076616c604482015261756560f01b60648201526084016105ef565b6004816004811115611b2957611b296124f1565b1415611b825760405162461bcd60e51b815260206004820152602260248201527f45434453413a20696e76616c6964207369676e6174757265202776272076616c604482015261756560f01b60648201526084016105ef565b50565b6000818152600183016020526040812054611bcc57508154600181810184556000848152602080822090930184905584548482528286019093526040902091909155610841565b506000610841565b60008181526001830160205260408120548015611cbd576000611bf8600183612507565b8554909150600090611c0c90600190612507565b9050818114611c71576000866000018281548110611c2c57611c2c6124db565b9060005260206000200154905080876000018481548110611c4f57611c4f6124db565b6000918252602080832090910192909255918252600188019052604090208390555b8554869080611c8257611c8261251e565b600190038181906000526020600020016000905590558560010160008681526020019081526020016000206000905560019350505050610841565b6000915050610841565b6000807f7fffffffffffffffffffffffffffffff5d576e7357a4501ddfe92f46681b20a0831115611cfe5750600090506003611dab565b8460ff16601b14158015611d1657508460ff16601c14155b15611d275750600090506004611dab565b6040805160008082526020820180845289905260ff881692820192909252606081018690526080810185905260019060a0016020604051602081039080840390855afa158015611d7b573d6000803e3d6000fd5b5050604051601f1901519150506001600160a01b038116611da457600060019250925050611dab565b9150600090505b94509492505050565b828054611dc0906123f4565b90600052602060002090601f016020900481019282611de25760008555611e28565b82601f10611dfb57805160ff1916838001178555611e28565b82800160010185558215611e28579182015b82811115611e28578251825591602001919060010190611e0d565b50611733929150611ea8565b828054611e40906123f4565b90600052602060002090601f016020900481019282611e625760008555611e28565b82601f10611e7b5782800160ff19823516178555611e28565b82800160010185558215611e28579182015b82811115611e28578235825591602001919060010190611e8d565b5b808211156117335760008155600101611ea9565b803560ff81168114611ece57600080fd5b919050565b600060208284031215611ee557600080fd5b61091882611ebd565b600060208284031215611f0057600080fd5b5035919050565b80356001600160a01b0381168114611ece57600080fd5b60008060408385031215611f3157600080fd5b82359150611f4160208401611f07565b90509250929050565b60008060408385031215611f5d57600080fd5b611f6683611ebd565b946020939093013593505050565b6000815180845260005b81811015611f9a57602081850181015186830182015201611f7e565b81811115611fac576000602083870101525b50601f01601f19169290920160200192915050565b60ff8816815260ff8716602082015260018060a01b03861660408201526001600160401b038516606082015283608082015260e060a0820152600061200960e0830185611f74565b90508260c083015298975050505050505050565b60008060006060848603121561203257600080fd5b61203b84611ebd565b92506020840135915061205060408501611f07565b90509250925092565b634e487b7160e01b600052604160045260246000fd5b60006020828403121561208157600080fd5b81356001600160401b038082111561209857600080fd5b818401915084601f8301126120ac57600080fd5b8135818111156120be576120be612059565b604051601f8201601f19908116603f011681019083821181831017156120e6576120e6612059565b816040528281528760208487010111156120ff57600080fd5b826020860160208301376000928101602001929092525095945050505050565b6000806040838503121561213257600080fd5b50508035926020909101359150565b6020815260006109186020830184611f74565b80356001600160401b0381168114611ece57600080fd5b60008083601f84011261217d57600080fd5b5081356001600160401b0381111561219457600080fd5b6020830191508360208285010111156119c057600080fd5b60008060008060008060008060c0898b0312156121c857600080fd5b6121d189611ebd565b97506121df60208a01611ebd565b96506121ed60408a01612154565b95506060890135945060808901356001600160401b038082111561221057600080fd5b61221c8c838d0161216b565b909650945060a08b013591508082111561223557600080fd5b506122428b828c0161216b565b999c989b5096995094979396929594505050565b60006020828403121561226857600080fd5b61091882611f07565b6020815260ff825116602082015260ff602083015116604082015260018060a01b0360408301511660608201526001600160401b036060830151166080820152608082015160a0820152600060a083015160e060c08401526122d7610100840182611f74565b905060c084015160e08401528091505092915050565b60008060008060006080868803121561230557600080fd5b61230e86611ebd565b945061231c60208701612154565b93506040860135925060608601356001600160401b0381111561233e57600080fd5b61234a8882890161216b565b969995985093965092949392505050565b6000602080830181845280855180835260408601915060408160051b870101925083870160005b828110156123b057603f1988860301845261239e858351611f74565b94509285019290850190600101612382565b5092979650505050505050565b6020808252601e908201527f73656e64657220646f65736e277420686176652061646d696e20726f6c650000604082015260600190565b600181811c9082168061240857607f821691505b6020821081141561242957634e487b7160e01b600052602260045260246000fd5b50919050565b8183823760009101908152919050565b634e487b7160e01b600052601160045260246000fd5b60006000198214156124695761246961243f565b5060010190565b81835281816020850137506000828201602090810191909152601f909101601f19169091010190565b6001600160401b03861681526060602082015260006124bc606083018688612470565b82810360408401526124cf818587612470565b98975050505050505050565b634e487b7160e01b600052603260045260246000fd5b634e487b7160e01b600052602160045260246000fd5b6000828210156125195761251961243f565b500390565b634e487b7160e01b600052603160045260246000fdfea26469706673582212202e8095cd976c0c5340c2ca581dfeb95534ade50333cf8fdd81e1a06119414ea264736f6c634300080b0033",
  "linkReferences": {},
  "deployedLinkReferences": {}
}