{
  "_format": "hh-sol-artifact-1",
  "contractName": "SignaturesUpgradeable",
  "sourceName": "contracts/SignaturesUpgradeable.sol",
  "abi": [
    {
      "anonymous": false,
      "inputs": [
        {
          "indexed": true,
          "internalType": "bytes32",
          "name": "role",
          "type": "bytes32"
        },
        {
          "indexed": true,
          "internalType": "address",
          "name": "account",
          "type": "address"
        },
        {
          "indexed": true,
          "internalType": "address",
          "name": "sender",
          "type": "address"
        }
      ],
      "name": "RoleGranted",
      "type": "event"
    },
    {
      "anonymous": false,
      "inputs": [
        {
          "indexed": true,
          "internalType": "bytes32",
          "name": "role",
          "type": "bytes32"
        },
        {
          "indexed": true,
          "internalType": "address",
          "name": "account",
          "type": "address"
        },
        {
          "indexed": true,
          "internalType": "address",
          "name": "sender",
          "type": "address"
        }
      ],
      "name": "RoleRevoked",
      "type": "event"
    },
    {
      "anonymous": false,
      "inputs": [
        {
          "indexed": true,
          "internalType": "uint8",
          "name": "originDomainID",
          "type": "uint8"
        },
        {
          "indexed": true,
          "internalType": "uint8",
          "name": "destinationDomainID",
          "type": "uint8"
        },
        {
          "indexed": false,
          "internalType": "uint64",
          "name": "depositNonce",
          "type": "uint64"
        },
        {
          "indexed": true,
          "internalType": "bytes32",
          "name": "resourceID",
          "type": "bytes32"
        },
        {
          "indexed": false,
          "internalType": "bytes",
          "name": "data",
          "type": "bytes"
        },
        {
          "indexed": false,
          "internalType": "bytes",
          "name": "signature",
          "type": "bytes"
        }
      ],
      "name": "SignturePass",
      "type": "event"
    },
    {
      "anonymous": false,
      "inputs": [
        {
          "indexed": true,
          "internalType": "uint8",
          "name": "originDomainID",
          "type": "uint8"
        },
        {
          "indexed": true,
          "internalType": "uint8",
          "name": "destinationDomainID",
          "type": "uint8"
        },
        {
          "indexed": false,
          "internalType": "uint64",
          "name": "depositNonce",
          "type": "uint64"
        },
        {
          "indexed": true,
          "internalType": "bytes32",
          "name": "resourceID",
          "type": "bytes32"
        },
        {
          "indexed": false,
          "internalType": "bytes",
          "name": "data",
          "type": "bytes"
        },
        {
          "indexed": false,
          "internalType": "bytes",
          "name": "signature",
          "type": "bytes"
        }
      ],
      "name": "SubmitSignature",
      "type": "event"
    },
    {
      "inputs": [],
      "name": "DEFAULT_ADMIN_ROLE",
      "outputs": [
        {
          "internalType": "bytes32",
          "name": "",
          "type": "bytes32"
        }
      ],
      "stateMutability": "view",
      "type": "function"
    },
    {
      "inputs": [],
      "name": "PERMIT_TYPEHASH",
      "outputs": [
        {
          "internalType": "bytes32",
          "name": "",
          "type": "bytes32"
        }
      ],
      "stateMutability": "view",
      "type": "function"
    },
    {
      "inputs": [],
      "name": "RELAYER_ROLE",
      "outputs": [
        {
          "internalType": "bytes32",
          "name": "",
          "type": "bytes32"
        }
      ],
      "stateMutability": "view",
      "type": "function"
    },
    {
      "inputs": [],
      "name": "_TYPE_HASH",
      "outputs": [
        {
          "internalType": "bytes32",
          "name": "",
          "type": "bytes32"
        }
      ],
      "stateMutability": "view",
      "type": "function"
    },
    {
      "inputs": [
        {
          "internalType": "uint8",
          "name": "",
          "type": "uint8"
        }
      ],
      "name": "_relayerThreshold",
      "outputs": [
        {
          "internalType": "uint8",
          "name": "",
          "type": "uint8"
        }
      ],
      "stateMutability": "view",
      "type": "function"
    },
    {
      "inputs": [
        {
          "internalType": "uint8",
          "name": "destinationDomainID",
          "type": "uint8"
        },
        {
          "internalType": "uint256",
          "name": "newThreshold",
          "type": "uint256"
        }
      ],
      "name": "adminChangeRelayerThreshold",
      "outputs": [],
      "stateMutability": "nonpayable",
      "type": "function"
    },
    {
      "inputs": [
        {
          "internalType": "uint8",
          "name": "destinationDomainID",
          "type": "uint8"
        },
        {
          "internalType": "uint256",
          "name": "chainId",
          "type": "uint256"
        }
      ],
      "name": "adminSetDestChainId",
      "outputs": [],
      "stateMutability": "nonpayable",
      "type": "function"
    },
    {
      "inputs": [
        {
          "internalType": "uint8",
          "name": "domainID",
          "type": "uint8"
        },
        {
          "internalType": "uint8",
          "name": "destinationDomainID",
          "type": "uint8"
        },
        {
          "internalType": "address",
          "name": "destinationBridge",
          "type": "address"
        },
        {
          "internalType": "uint64",
          "name": "depositNonce",
          "type": "uint64"
        },
        {
          "internalType": "bytes32",
          "name": "resourceID",
          "type": "bytes32"
        },
        {
          "internalType": "bytes",
          "name": "data",
          "type": "bytes"
        },
        {
          "internalType": "bytes",
          "name": "signature",
          "type": "bytes"
        }
      ],
      "name": "checkSignature",
      "outputs": [
        {
          "internalType": "address",
          "name": "",
          "type": "address"
        }
      ],
      "stateMutability": "view",
      "type": "function"
    },
    {
      "inputs": [
        {
          "internalType": "uint8",
          "name": "",
          "type": "uint8"
        }
      ],
      "name": "destChainId",
      "outputs": [
        {
          "internalType": "uint256",
          "name": "",
          "type": "uint256"
        }
      ],
      "stateMutability": "view",
      "type": "function"
    },
    {
      "inputs": [
        {
          "internalType": "uint256",
          "name": "index",
          "type": "uint256"
        }
      ],
      "name": "getProposal",
      "outputs": [
        {
          "components": [
            {
              "internalType": "uint8",
              "name": "originDomainID",
              "type": "uint8"
            },
            {
              "internalType": "uint8",
              "name": "destinationDomainID",
              "type": "uint8"
            },
            {
              "internalType": "address",
              "name": "destinationBridge",
              "type": "address"
            },
            {
              "internalType": "uint64",
              "name": "depositNonce",
              "type": "uint64"
            },
            {
              "internalType": "bytes32",
              "name": "resourceID",
              "type": "bytes32"
            },
            {
              "internalType": "bytes",
              "name": "data",
              "type": "bytes"
            },
            {
              "internalType": "uint256",
              "name": "proposalIndex",
              "type": "uint256"
            }
          ],
          "internalType": "struct SignaturesUpgradeable.Proposal",
          "name": "",
          "type": "tuple"
        }
      ],
      "stateMutability": "view",
      "type": "function"
    },
    {
      "inputs": [
        {
          "internalType": "bytes32",
          "name": "role",
          "type": "bytes32"
        }
      ],
      "name": "getRoleAdmin",
      "outputs": [
        {
          "internalType": "bytes32",
          "name": "",
          "type": "bytes32"
        }
      ],
      "stateMutability": "view",
      "type": "function"
    },
    {
      "inputs": [
        {
          "internalType": "bytes32",
          "name": "role",
          "type": "bytes32"
        },
        {
          "internalType": "uint256",
          "name": "index",
          "type": "uint256"
        }
      ],
      "name": "getRoleMember",
      "outputs": [
        {
          "internalType": "address",
          "name": "",
          "type": "address"
        }
      ],
      "stateMutability": "view",
      "type": "function"
    },
    {
      "inputs": [
        {
          "internalType": "bytes32",
          "name": "role",
          "type": "bytes32"
        }
      ],
      "name": "getRoleMemberCount",
      "outputs": [
        {
          "internalType": "uint256",
          "name": "",
          "type": "uint256"
        }
      ],
      "stateMutability": "view",
      "type": "function"
    },
    {
      "inputs": [
        {
          "internalType": "bytes32",
          "name": "role",
          "type": "bytes32"
        },
        {
          "internalType": "address",
          "name": "account",
          "type": "address"
        }
      ],
      "name": "getRoleMemberIndex",
      "outputs": [
        {
          "internalType": "uint256",
          "name": "",
          "type": "uint256"
        }
      ],
      "stateMutability": "view",
      "type": "function"
    },
    {
      "inputs": [
        {
          "internalType": "uint8",
          "name": "domainID",
          "type": "uint8"
        },
        {
          "internalType": "uint64",
          "name": "depositNonce",
          "type": "uint64"
        },
        {
          "internalType": "bytes32",
          "name": "resourceID",
          "type": "bytes32"
        },
        {
          "internalType": "bytes",
          "name": "data",
          "type": "bytes"
        }
      ],
      "name": "getSignatures",
      "outputs": [
        {
          "internalType": "bytes[]",
          "name": "",
          "type": "bytes[]"
        }
      ],
      "stateMutability": "view",
      "type": "function"
    },
    {
      "inputs": [
        {
          "internalType": "uint256",
          "name": "index",
          "type": "uint256"
        }
      ],
      "name": "getSignatures",
      "outputs": [
        {
          "internalType": "bytes[]",
          "name": "",
          "type": "bytes[]"
        }
      ],
      "stateMutability": "view",
      "type": "function"
    },
    {
      "inputs": [
        {
          "internalType": "bytes32",
          "name": "role",
          "type": "bytes32"
        },
        {
          "internalType": "address",
          "name": "account",
          "type": "address"
        }
      ],
      "name": "grantRole",
      "outputs": [],
      "stateMutability": "nonpayable",
      "type": "function"
    },
    {
      "inputs": [
        {
          "internalType": "bytes32",
          "name": "role",
          "type": "bytes32"
        },
        {
          "internalType": "address",
          "name": "account",
          "type": "address"
        }
      ],
      "name": "hasRole",
      "outputs": [
        {
          "internalType": "bool",
          "name": "",
          "type": "bool"
        }
      ],
      "stateMutability": "view",
      "type": "function"
    },
    {
      "inputs": [
        {
          "internalType": "bytes",
          "name": "",
          "type": "bytes"
        }
      ],
      "name": "hasVote",
      "outputs": [
        {
          "internalType": "bool",
          "name": "",
          "type": "bool"
        }
      ],
      "stateMutability": "view",
      "type": "function"
    },
    {
      "inputs": [
        {
          "internalType": "uint256",
          "name": "",
          "type": "uint256"
        }
      ],
      "name": "indexToProposal",
      "outputs": [
        {
          "internalType": "bytes32",
          "name": "",
          "type": "bytes32"
        }
      ],
      "stateMutability": "view",
      "type": "function"
    },
    {
      "inputs": [
        {
          "internalType": "address",
          "name": "admin",
          "type": "address"
        }
      ],
      "name": "initialize",
      "outputs": [],
      "stateMutability": "nonpayable",
      "type": "function"
    },
    {
      "inputs": [],
      "name": "proposalIndex",
      "outputs": [
        {
          "internalType": "uint256",
          "name": "",
          "type": "uint256"
        }
      ],
      "stateMutability": "view",
      "type": "function"
    },
    {
      "inputs": [
        {
          "internalType": "bytes32",
          "name": "",
          "type": "bytes32"
        }
      ],
      "name": "proposals",
      "outputs": [
        {
          "internalType": "uint8",
          "name": "originDomainID",
          "type": "uint8"
        },
        {
          "internalType": "uint8",
          "name": "destinationDomainID",
          "type": "uint8"
        },
        {
          "internalType": "address",
          "name": "destinationBridge",
          "type": "address"
        },
        {
          "internalType": "uint64",
          "name": "depositNonce",
          "type": "uint64"
        },
        {
          "internalType": "bytes32",
          "name": "resourceID",
          "type": "bytes32"
        },
        {
          "internalType": "bytes",
          "name": "data",
          "type": "bytes"
        },
        {
          "internalType": "uint256",
          "name": "proposalIndex",
          "type": "uint256"
        }
      ],
      "stateMutability": "view",
      "type": "function"
    },
    {
      "inputs": [
        {
          "internalType": "bytes32",
          "name": "role",
          "type": "bytes32"
        },
        {
          "internalType": "address",
          "name": "account",
          "type": "address"
        }
      ],
      "name": "renounceRole",
      "outputs": [],
      "stateMutability": "nonpayable",
      "type": "function"
    },
    {
      "inputs": [
        {
          "internalType": "bytes32",
          "name": "role",
          "type": "bytes32"
        },
        {
          "internalType": "address",
          "name": "account",
          "type": "address"
        }
      ],
      "name": "revokeRole",
      "outputs": [],
      "stateMutability": "nonpayable",
      "type": "function"
    },
    {
      "inputs": [
        {
          "internalType": "bytes32",
          "name": "",
          "type": "bytes32"
        },
        {
          "internalType": "uint256",
          "name": "",
          "type": "uint256"
        }
      ],
      "name": "signatures",
      "outputs": [
        {
          "internalType": "bytes",
          "name": "",
          "type": "bytes"
        }
      ],
      "stateMutability": "view",
      "type": "function"
    },
    {
      "inputs": [
        {
          "internalType": "uint8",
          "name": "originDomainID",
          "type": "uint8"
        },
        {
          "internalType": "uint8",
          "name": "destinationDomainID",
          "type": "uint8"
        },
        {
          "internalType": "address",
          "name": "destinationBridge",
          "type": "address"
        },
        {
          "internalType": "uint64",
          "name": "depositNonce",
          "type": "uint64"
        },
        {
          "internalType": "bytes32",
          "name": "resourceID",
          "type": "bytes32"
        },
        {
          "internalType": "bytes",
          "name": "data",
          "type": "bytes"
        },
        {
          "internalType": "bytes",
          "name": "signature",
          "type": "bytes"
        }
      ],
      "name": "submitSignature",
      "outputs": [],
      "stateMutability": "nonpayable",
      "type": "function"
    }
  ],
  "bytecode": "0x608060405234801561001057600080fd5b5061226f806100206000396000f3fe608060405234801561001057600080fd5b50600436106101a95760003560e01c806374400fd1116100f9578063c4d66de811610097578063d547741f11610071578063d547741f1461045b578063e5787a751461046e578063f4eccb8f1461048e578063f7dbe092146104a157600080fd5b8063c4d66de814610415578063c7f758a814610428578063ca15c8731461044857600080fd5b806391d14854116100d357806391d148541461039e578063926d7d7f146103b1578063a217fddf146103d8578063aa44739d146103e057600080fd5b806374400fd114610358578063861fd043146103785780639010d07c1461038b57600080fd5b806332ed5b12116101665780634e0df3f6116101405780634e0df3f6146102d757806350916c7c146102ea5780635977e0f2146103285780635d2dab0b1461033157600080fd5b806332ed5b121461027e5780633640850b146102a457806336568abe146102c457600080fd5b80630b18fec5146101ae5780631f241eca146101e1578063248a9ca31461020c5780632f2ff15d1461022f5780632fda959e1461024457806330adf81f14610257575b600080fd5b6101ce6101bc366004611c20565b60356020526000908152604090205481565b6040519081526020015b60405180910390f35b6101f46101ef366004611caa565b6104b4565b6040516001600160a01b0390911681526020016101d8565b6101ce61021a366004611d67565b60009081526033602052604090206002015490565b61024261023d366004611d80565b6106e5565b005b610242610252366004611dac565b610778565b6101ce7fc4cb5d35714699d6e85b9562b644e60393b418d974a5c1dd8efaadac37a142c581565b61029161028c366004611d67565b6107fc565b6040516101d89796959493929190611e23565b6101ce6102b2366004611d67565b603a6020526000908152604090205481565b6102426102d2366004611d80565b6108dc565b6101ce6102e5366004611d80565b610956565b6103186102f8366004611e95565b805160208183018101805160378252928201919093012091525460ff1681565b60405190151581526020016101d8565b6101ce60385481565b6101ce7f8b73c3c69bb8fe3d512ecc4cf759cc79239f7b179b0ffacaa9a75d522b39400f81565b61036b610366366004611f45565b610983565b6040516101d89190611f67565b610242610386366004611caa565b610a3c565b6101f4610399366004611f45565b610e94565b6103186103ac366004611d80565b610eb3565b6101ce7fe2b7fb3b832174769106daebcfd6d1970523240dda11281102db9363b83b0dc481565b6101ce600081565b6104036103ee366004611c20565b60346020526000908152604090205460ff1681565b60405160ff90911681526020016101d8565b610242610423366004611f7a565b610ecb565b61043b610436366004611d67565b610f8f565b6040516101d89190611f95565b6101ce610456366004611d67565b611126565b610242610469366004611d80565b61113d565b61048161047c366004612011565b6111be565b6040516101d8919061207f565b61048161049c366004611d67565b611312565b6102426104af366004611dac565b611445565b6000807fc4cb5d35714699d6e85b9562b644e60393b418d974a5c1dd8efaadac37a142c58b898989896040516104eb9291906120e1565b60405190819003812061052e959493929160200194855260ff9390931660208501526001600160401b039190911660408401526060830152608082015260a00190565b60408051601f19818403018152918152815160209283012060ff8d1660009081526035909352908220549092506106939083901561057e5760ff8d16600090815260356020526040902054610583565b8c60ff165b604080518082018252600c81526b5065726d697442726964676560a01b6020918201528151808301835260038152620312e360ec1b9082015281517f8b73c3c69bb8fe3d512ecc4cf759cc79239f7b179b0ffacaa9a75d522b39400f818301527f058443738ec3641a3233a9f285e16671e4ad9755445580d761017e695f75052b818401527fe6bbd6277e1bf288eed5e8d1780f9a50b239e86b153736bceebccf4ea79d90b3606082015260808101939093526001600160a01b038f1660a0808501919091528251808503909101815260c08401835280519082012061190160f01b60e085015260e284015261010280840194909452815180840390940184526101229092019052815191012090565b90506106d58186868080601f0160208091040260200160405190810160405280939291908181526020018383808284376000920191909152506114b292505050565b9c9b505050505050505050505050565b6000828152603360205260409020600201546107019033610eb3565b61076a5760405162461bcd60e51b815260206004820152602f60248201527f416363657373436f6e74726f6c3a2073656e646572206d75737420626520616e60448201526e0818591b5a5b881d1bc819dc985b9d608a1b60648201526084015b60405180910390fd5b61077482826114d6565b5050565b610783600033610eb3565b6107cf5760405162461bcd60e51b815260206004820152601e60248201527f73656e64657220646f65736e277420686176652061646d696e20726f6c6500006044820152606401610761565b6107d88161152f565b60ff9283166000908152603460205260409020805460ff1916919093161790915550565b60396020526000908152604090208054600182015460028301805460ff808516956101008604909116946201000081046001600160a01b031694600160b01b9091046001600160401b0316939092610853906120f1565b80601f016020809104026020016040519081016040528092919081815260200182805461087f906120f1565b80156108cc5780601f106108a1576101008083540402835291602001916108cc565b820191906000526020600020905b8154815290600101906020018083116108af57829003601f168201915b5050505050908060030154905087565b6001600160a01b038116331461094c5760405162461bcd60e51b815260206004820152602f60248201527f416363657373436f6e74726f6c3a2063616e206f6e6c792072656e6f756e636560448201526e103937b632b9903337b91039b2b63360891b6064820152608401610761565b6107748282611586565b60008281526033602090815260408083206001600160a01b03851684526001019091529020545b92915050565b6036602052816000526040600020818154811061099f57600080fd5b906000526020600020016000915091505080546109bb906120f1565b80601f01602080910402602001604051908101604052809291908181526020018280546109e7906120f1565b8015610a345780601f10610a0957610100808354040283529160200191610a34565b820191906000526020600020905b815481529060010190602001808311610a1757829003601f168201915b505050505081565b610a717fe2b7fb3b832174769106daebcfd6d1970523240dda11281102db9363b83b0dc46103ac8b8b8b8b8b8b8b8b8b6104b4565b610ab15760405162461bcd60e51b8152602060048201526011602482015270696e76616c6964207369676e617475726560781b6044820152606401610761565b60378282604051610ac39291906120e1565b9081526040519081900360200190205460ff1615610b235760405162461bcd60e51b815260206004820152601860248201527f7369676e617475726520616c6561726479207375626d697400000000000000006044820152606401610761565b60008987878787604051610b389291906120e1565b604051908190038120610b749493929160200160ff9490941684526001600160401b039290921660208401526040830152606082015260800190565b60408051601f19818403018152918152815160209283012060ff808d166000908152603485528381205483825260369095529290922054909350911611610bf55760405162461bcd60e51b81526020600482015260156024820152745369676e7475726520616c6561726479207061737360581b6044820152606401610761565b600081815260366020526040902054610d6a5760388054906000610c1883612142565b91905055506040518060e001604052808b60ff1681526020018a60ff168152602001896001600160a01b03168152602001886001600160401b0316815260200187815260200186868080601f01602080910402602001604051908101604052809392919081815260200183838082843760009201829052509385525050603854602093840152508381526039825260409081902083518154858501519386015160608701516001600160401b0316600160b01b0267ffffffffffffffff60b01b196001600160a01b0390921662010000029190911662010000600160f01b031960ff9687166101000261ffff1990941696909416959095179190911791909116929092179190911781556080830151600182015560a083015180519192610d4792600285019290910190611b01565b5060c091909101516003909101556038546000908152603a602052604090208190555b6000818152603660209081526040822080546001810182559083529120610d9391018484611b81565b50600160378484604051610da89291906120e1565b908152602001604051809103902060006101000a81548160ff021916908315150217905550858960ff168b60ff167fdbf724cd2f174f6ee6dc7d45f557ca42e3f0c483d5ac5da1317ade0e540889078a89898989604051610e0d959493929190612186565b60405180910390a460ff808a16600090815260346020908152604080832054858452603690925290912054911611610e8857858960ff168b60ff167f31ad42d947b6829b5c034aaa2c4259af49e84066292aa963a38e2a9dba8206748a89898989604051610e7f959493929190612186565b60405180910390a45b50505050505050505050565b6000828152603360205260408120610eac90836115df565b9392505050565b6000828152603360205260408120610eac90836115eb565b600054610100900460ff16610ee65760005460ff1615610eea565b303b155b610f4d5760405162461bcd60e51b815260206004820152602e60248201527f496e697469616c697a61626c653a20636f6e747261637420697320616c72656160448201526d191e481a5b9a5d1a585b1a5e995960921b6064820152608401610761565b600054610100900460ff16158015610f6f576000805461ffff19166101011790555b610f7a60008361076a565b8015610774576000805461ff00191690555050565b6040805160e08101825260008082526020820181905291810182905260608082018390526080820183905260a082015260c081019190915260385482111561100e5760405162461bcd60e51b8152602060048201526012602482015271141c9bdc1bdcd85b081b9bdd08195e1a5cdd60721b6044820152606401610761565b6000828152603a602090815260408083205483526039825291829020825160e081018452815460ff8082168352610100820416938201939093526201000083046001600160a01b031693810193909352600160b01b9091046001600160401b031660608301526001810154608083015260028101805460a084019190611093906120f1565b80601f01602080910402602001604051908101604052809291908181526020018280546110bf906120f1565b801561110c5780601f106110e15761010080835404028352916020019161110c565b820191906000526020600020905b8154815290600101906020018083116110ef57829003601f168201915b505050505081526020016003820154815250509050919050565b600081815260336020526040812061097d9061160d565b6000828152603360205260409020600201546111599033610eb3565b61094c5760405162461bcd60e51b815260206004820152603060248201527f416363657373436f6e74726f6c3a2073656e646572206d75737420626520616e60448201526f2061646d696e20746f207265766f6b6560801b6064820152608401610761565b60606036600087878787876040516111d79291906120e1565b6040519081900381206112139493929160200160ff9490941684526001600160401b039290921660208401526040830152606082015260800190565b604051602081830303815290604052805190602001208152602001908152602001600020805480602002602001604051908101604052809291908181526020016000905b82821015611303578382906000526020600020018054611276906120f1565b80601f01602080910402602001604051908101604052809291908181526020018280546112a2906120f1565b80156112ef5780601f106112c4576101008083540402835291602001916112ef565b820191906000526020600020905b8154815290600101906020018083116112d257829003601f168201915b505050505081526020019060010190611257565b50505050905095945050505050565b606060385482111561135b5760405162461bcd60e51b8152602060048201526012602482015271141c9bdc1bdcd85b081b9bdd08195e1a5cdd60721b6044820152606401610761565b6000828152603a602090815260408083205483526036825280832080548251818502810185019093528083529193909284015b8282101561143a5783829060005260206000200180546113ad906120f1565b80601f01602080910402602001604051908101604052809291908181526020018280546113d9906120f1565b80156114265780601f106113fb57610100808354040283529160200191611426565b820191906000526020600020905b81548152906001019060200180831161140957829003601f168201915b50505050508152602001906001019061138e565b505050509050919050565b611450600033610eb3565b61149c5760405162461bcd60e51b815260206004820152601e60248201527f73656e64657220646f65736e277420686176652061646d696e20726f6c6500006044820152606401610761565b60ff909116600090815260356020526040902055565b60008060006114c18585611617565b915091506114ce81611687565b509392505050565b60008281526033602052604090206114ee9082611845565b156107745760405133906001600160a01b0383169084907f2f8788117e7eff1d82e926ec794901d17c78024a50270940304540a733656f0d90600090a45050565b600061010082106115825760405162461bcd60e51b815260206004820152601c60248201527f76616c756520646f6573206e6f742066697420696e20382062697473000000006044820152606401610761565b5090565b600082815260336020526040902061159e908261185a565b156107745760405133906001600160a01b0383169084907ff6391f5c32d9c69d2a47ea670b442974b53935d1edc7fd64eb21e047a839171b90600090a45050565b6000610eac838361186f565b6001600160a01b03811660009081526001830160205260408120541515610eac565b600061097d825490565b60008082516041141561164e5760208301516040840151606085015160001a61164287828585611899565b94509450505050611680565b825160401415611678576020830151604084015161166d868383611986565b935093505050611680565b506000905060025b9250929050565b600081600481111561169b5761169b6121c8565b14156116a45750565b60018160048111156116b8576116b86121c8565b14156117065760405162461bcd60e51b815260206004820152601860248201527f45434453413a20696e76616c6964207369676e617475726500000000000000006044820152606401610761565b600281600481111561171a5761171a6121c8565b14156117685760405162461bcd60e51b815260206004820152601f60248201527f45434453413a20696e76616c6964207369676e6174757265206c656e677468006044820152606401610761565b600381600481111561177c5761177c6121c8565b14156117d55760405162461bcd60e51b815260206004820152602260248201527f45434453413a20696e76616c6964207369676e6174757265202773272076616c604482015261756560f01b6064820152608401610761565b60048160048111156117e9576117e96121c8565b14156118425760405162461bcd60e51b815260206004820152602260248201527f45434453413a20696e76616c6964207369676e6174757265202776272076616c604482015261756560f01b6064820152608401610761565b50565b6000610eac836001600160a01b0384166119bf565b6000610eac836001600160a01b038416611a0e565b6000826000018281548110611886576118866121de565b9060005260206000200154905092915050565b6000807f7fffffffffffffffffffffffffffffff5d576e7357a4501ddfe92f46681b20a08311156118d0575060009050600361197d565b8460ff16601b141580156118e857508460ff16601c14155b156118f9575060009050600461197d565b6040805160008082526020820180845289905260ff881692820192909252606081018690526080810185905260019060a0016020604051602081039080840390855afa15801561194d573d6000803e3d6000fd5b5050604051601f1901519150506001600160a01b0381166119765760006001925092505061197d565b9150600090505b94509492505050565b6000806001600160ff1b038316816119a360ff86901c601b6121f4565b90506119b187828885611899565b935093505050935093915050565b6000818152600183016020526040812054611a065750815460018181018455600084815260208082209093018490558454848252828601909352604090209190915561097d565b50600061097d565b60008181526001830160205260408120548015611af7576000611a3260018361220c565b8554909150600090611a469060019061220c565b9050818114611aab576000866000018281548110611a6657611a666121de565b9060005260206000200154905080876000018481548110611a8957611a896121de565b6000918252602080832090910192909255918252600188019052604090208390555b8554869080611abc57611abc612223565b60019003818190600052602060002001600090559055856001016000868152602001908152602001600020600090556001935050505061097d565b600091505061097d565b828054611b0d906120f1565b90600052602060002090601f016020900481019282611b2f5760008555611b75565b82601f10611b4857805160ff1916838001178555611b75565b82800160010185558215611b75579182015b82811115611b75578251825591602001919060010190611b5a565b50611582929150611bf5565b828054611b8d906120f1565b90600052602060002090601f016020900481019282611baf5760008555611b75565b82601f10611bc85782800160ff19823516178555611b75565b82800160010185558215611b75579182015b82811115611b75578235825591602001919060010190611bda565b5b808211156115825760008155600101611bf6565b803560ff81168114611c1b57600080fd5b919050565b600060208284031215611c3257600080fd5b610eac82611c0a565b80356001600160a01b0381168114611c1b57600080fd5b80356001600160401b0381168114611c1b57600080fd5b60008083601f840112611c7b57600080fd5b5081356001600160401b03811115611c9257600080fd5b60208301915083602082850101111561168057600080fd5b600080600080600080600080600060e08a8c031215611cc857600080fd5b611cd18a611c0a565b9850611cdf60208b01611c0a565b9750611ced60408b01611c3b565b9650611cfb60608b01611c52565b955060808a0135945060a08a01356001600160401b0380821115611d1e57600080fd5b611d2a8d838e01611c69565b909650945060c08c0135915080821115611d4357600080fd5b50611d508c828d01611c69565b915080935050809150509295985092959850929598565b600060208284031215611d7957600080fd5b5035919050565b60008060408385031215611d9357600080fd5b82359150611da360208401611c3b565b90509250929050565b60008060408385031215611dbf57600080fd5b611dc883611c0a565b946020939093013593505050565b6000815180845260005b81811015611dfc57602081850181015186830182015201611de0565b81811115611e0e576000602083870101525b50601f01601f19169290920160200192915050565b60ff8816815260ff8716602082015260018060a01b03861660408201526001600160401b038516606082015283608082015260e060a08201526000611e6b60e0830185611dd6565b90508260c083015298975050505050505050565b634e487b7160e01b600052604160045260246000fd5b600060208284031215611ea757600080fd5b81356001600160401b0380821115611ebe57600080fd5b818401915084601f830112611ed257600080fd5b813581811115611ee457611ee4611e7f565b604051601f8201601f19908116603f01168101908382118183101715611f0c57611f0c611e7f565b81604052828152876020848701011115611f2557600080fd5b826020860160208301376000928101602001929092525095945050505050565b60008060408385031215611f5857600080fd5b50508035926020909101359150565b602081526000610eac6020830184611dd6565b600060208284031215611f8c57600080fd5b610eac82611c3b565b6020815260ff825116602082015260ff602083015116604082015260018060a01b0360408301511660608201526001600160401b036060830151166080820152608082015160a0820152600060a083015160e060c0840152611ffb610100840182611dd6565b905060c084015160e08401528091505092915050565b60008060008060006080868803121561202957600080fd5b61203286611c0a565b945061204060208701611c52565b93506040860135925060608601356001600160401b0381111561206257600080fd5b61206e88828901611c69565b969995985093965092949392505050565b6000602080830181845280855180835260408601915060408160051b870101925083870160005b828110156120d457603f198886030184526120c2858351611dd6565b945092850192908501906001016120a6565b5092979650505050505050565b8183823760009101908152919050565b600181811c9082168061210557607f821691505b6020821081141561212657634e487b7160e01b600052602260045260246000fd5b50919050565b634e487b7160e01b600052601160045260246000fd5b60006000198214156121565761215661212c565b5060010190565b81835281816020850137506000828201602090810191909152601f909101601f19169091010190565b6001600160401b03861681526060602082015260006121a960608301868861215d565b82810360408401526121bc81858761215d565b98975050505050505050565b634e487b7160e01b600052602160045260246000fd5b634e487b7160e01b600052603260045260246000fd5b600082198211156122075761220761212c565b500190565b60008282101561221e5761221e61212c565b500390565b634e487b7160e01b600052603160045260246000fdfea26469706673582212205511b8132d9f32bd69cfdce52c6620d9773c296132ca0b64019d232e3ada995264736f6c634300080b0033",
  "linkReferences": {},
  "deployedLinkReferences": {}
}