{
  "_format": "hh-sol-artifact-1",
  "contractName": "SignaturesUpgradeable",
  "sourceName": "contracts/SignaturesUpgradeable.sol",
  "abi": [
    {
      "anonymous": false,
      "inputs": [
        {
          "indexed": true,
          "internalType": "bytes32",
          "name": "role",
          "type": "bytes32"
        },
        {
          "indexed": true,
          "internalType": "address",
          "name": "account",
          "type": "address"
        },
        {
          "indexed": true,
          "internalType": "address",
          "name": "sender",
          "type": "address"
        }
      ],
      "name": "RoleGranted",
      "type": "event"
    },
    {
      "anonymous": false,
      "inputs": [
        {
          "indexed": true,
          "internalType": "bytes32",
          "name": "role",
          "type": "bytes32"
        },
        {
          "indexed": true,
          "internalType": "address",
          "name": "account",
          "type": "address"
        },
        {
          "indexed": true,
          "internalType": "address",
          "name": "sender",
          "type": "address"
        }
      ],
      "name": "RoleRevoked",
      "type": "event"
    },
    {
      "anonymous": false,
      "inputs": [
        {
          "indexed": true,
          "internalType": "uint8",
          "name": "originDomainID",
          "type": "uint8"
        },
        {
          "indexed": true,
          "internalType": "uint8",
          "name": "destinationDomainID",
          "type": "uint8"
        },
        {
          "indexed": false,
          "internalType": "uint64",
          "name": "depositNonce",
          "type": "uint64"
        },
        {
          "indexed": true,
          "internalType": "bytes32",
          "name": "resourceID",
          "type": "bytes32"
        },
        {
          "indexed": false,
          "internalType": "bytes",
          "name": "data",
          "type": "bytes"
        },
        {
          "indexed": false,
          "internalType": "bytes",
          "name": "signature",
          "type": "bytes"
        }
      ],
      "name": "SignturePass",
      "type": "event"
    },
    {
      "anonymous": false,
      "inputs": [
        {
          "indexed": true,
          "internalType": "uint8",
          "name": "originDomainID",
          "type": "uint8"
        },
        {
          "indexed": true,
          "internalType": "uint8",
          "name": "destinationDomainID",
          "type": "uint8"
        },
        {
          "indexed": false,
          "internalType": "uint64",
          "name": "depositNonce",
          "type": "uint64"
        },
        {
          "indexed": true,
          "internalType": "bytes32",
          "name": "resourceID",
          "type": "bytes32"
        },
        {
          "indexed": false,
          "internalType": "bytes",
          "name": "data",
          "type": "bytes"
        },
        {
          "indexed": false,
          "internalType": "bytes",
          "name": "signature",
          "type": "bytes"
        }
      ],
      "name": "SubmitSignature",
      "type": "event"
    },
    {
      "inputs": [],
      "name": "DEFAULT_ADMIN_ROLE",
      "outputs": [
        {
          "internalType": "bytes32",
          "name": "",
          "type": "bytes32"
        }
      ],
      "stateMutability": "view",
      "type": "function"
    },
    {
      "inputs": [],
      "name": "PERMIT_TYPEHASH",
      "outputs": [
        {
          "internalType": "bytes32",
          "name": "",
          "type": "bytes32"
        }
      ],
      "stateMutability": "view",
      "type": "function"
    },
    {
      "inputs": [],
      "name": "RELAYER_ROLE",
      "outputs": [
        {
          "internalType": "bytes32",
          "name": "",
          "type": "bytes32"
        }
      ],
      "stateMutability": "view",
      "type": "function"
    },
    {
      "inputs": [],
      "name": "_TYPE_HASH",
      "outputs": [
        {
          "internalType": "bytes32",
          "name": "",
          "type": "bytes32"
        }
      ],
      "stateMutability": "view",
      "type": "function"
    },
    {
      "inputs": [
        {
          "internalType": "uint8",
          "name": "",
          "type": "uint8"
        }
      ],
      "name": "_relayerThreshold",
      "outputs": [
        {
          "internalType": "uint8",
          "name": "",
          "type": "uint8"
        }
      ],
      "stateMutability": "view",
      "type": "function"
    },
    {
      "inputs": [
        {
          "internalType": "uint8",
          "name": "destinationDomainID",
          "type": "uint8"
        },
        {
          "internalType": "uint256",
          "name": "newThreshold",
          "type": "uint256"
        }
      ],
      "name": "adminChangeRelayerThreshold",
      "outputs": [],
      "stateMutability": "nonpayable",
      "type": "function"
    },
    {
      "inputs": [
        {
          "internalType": "uint8",
          "name": "destinationDomainID",
          "type": "uint8"
        },
        {
          "internalType": "uint8",
          "name": "chainId",
          "type": "uint8"
        }
      ],
      "name": "adminSetDestChainId",
      "outputs": [],
      "stateMutability": "nonpayable",
      "type": "function"
    },
    {
      "inputs": [
        {
          "internalType": "uint8",
          "name": "domainID",
          "type": "uint8"
        },
        {
          "internalType": "uint8",
          "name": "destinationDomainID",
          "type": "uint8"
        },
        {
          "internalType": "address",
          "name": "destinationBridge",
          "type": "address"
        },
        {
          "internalType": "uint64",
          "name": "depositNonce",
          "type": "uint64"
        },
        {
          "internalType": "bytes32",
          "name": "resourceID",
          "type": "bytes32"
        },
        {
          "internalType": "bytes",
          "name": "data",
          "type": "bytes"
        },
        {
          "internalType": "bytes",
          "name": "signature",
          "type": "bytes"
        }
      ],
      "name": "checkSignature",
      "outputs": [
        {
          "internalType": "address",
          "name": "",
          "type": "address"
        }
      ],
      "stateMutability": "view",
      "type": "function"
    },
    {
      "inputs": [
        {
          "internalType": "uint8",
          "name": "",
          "type": "uint8"
        }
      ],
      "name": "destChainId",
      "outputs": [
        {
          "internalType": "uint256",
          "name": "",
          "type": "uint256"
        }
      ],
      "stateMutability": "view",
      "type": "function"
    },
    {
      "inputs": [
        {
          "internalType": "uint256",
          "name": "index",
          "type": "uint256"
        }
      ],
      "name": "getProposal",
      "outputs": [
        {
          "components": [
            {
              "internalType": "uint8",
              "name": "originDomainID",
              "type": "uint8"
            },
            {
              "internalType": "uint8",
              "name": "destinationDomainID",
              "type": "uint8"
            },
            {
              "internalType": "address",
              "name": "destinationBridge",
              "type": "address"
            },
            {
              "internalType": "uint64",
              "name": "depositNonce",
              "type": "uint64"
            },
            {
              "internalType": "bytes32",
              "name": "resourceID",
              "type": "bytes32"
            },
            {
              "internalType": "bytes",
              "name": "data",
              "type": "bytes"
            },
            {
              "internalType": "uint256",
              "name": "proposalIndex",
              "type": "uint256"
            }
          ],
          "internalType": "struct SignaturesUpgradeable.Proposal",
          "name": "",
          "type": "tuple"
        }
      ],
      "stateMutability": "view",
      "type": "function"
    },
    {
      "inputs": [
        {
          "internalType": "bytes32",
          "name": "role",
          "type": "bytes32"
        }
      ],
      "name": "getRoleAdmin",
      "outputs": [
        {
          "internalType": "bytes32",
          "name": "",
          "type": "bytes32"
        }
      ],
      "stateMutability": "view",
      "type": "function"
    },
    {
      "inputs": [
        {
          "internalType": "bytes32",
          "name": "role",
          "type": "bytes32"
        },
        {
          "internalType": "uint256",
          "name": "index",
          "type": "uint256"
        }
      ],
      "name": "getRoleMember",
      "outputs": [
        {
          "internalType": "address",
          "name": "",
          "type": "address"
        }
      ],
      "stateMutability": "view",
      "type": "function"
    },
    {
      "inputs": [
        {
          "internalType": "bytes32",
          "name": "role",
          "type": "bytes32"
        }
      ],
      "name": "getRoleMemberCount",
      "outputs": [
        {
          "internalType": "uint256",
          "name": "",
          "type": "uint256"
        }
      ],
      "stateMutability": "view",
      "type": "function"
    },
    {
      "inputs": [
        {
          "internalType": "bytes32",
          "name": "role",
          "type": "bytes32"
        },
        {
          "internalType": "address",
          "name": "account",
          "type": "address"
        }
      ],
      "name": "getRoleMemberIndex",
      "outputs": [
        {
          "internalType": "uint256",
          "name": "",
          "type": "uint256"
        }
      ],
      "stateMutability": "view",
      "type": "function"
    },
    {
      "inputs": [
        {
          "internalType": "uint8",
          "name": "domainID",
          "type": "uint8"
        },
        {
          "internalType": "uint64",
          "name": "depositNonce",
          "type": "uint64"
        },
        {
          "internalType": "bytes32",
          "name": "resourceID",
          "type": "bytes32"
        },
        {
          "internalType": "bytes",
          "name": "data",
          "type": "bytes"
        }
      ],
      "name": "getSignatures",
      "outputs": [
        {
          "internalType": "bytes[]",
          "name": "",
          "type": "bytes[]"
        }
      ],
      "stateMutability": "view",
      "type": "function"
    },
    {
      "inputs": [
        {
          "internalType": "uint256",
          "name": "index",
          "type": "uint256"
        }
      ],
      "name": "getSignatures",
      "outputs": [
        {
          "internalType": "bytes[]",
          "name": "",
          "type": "bytes[]"
        }
      ],
      "stateMutability": "view",
      "type": "function"
    },
    {
      "inputs": [
        {
          "internalType": "bytes32",
          "name": "role",
          "type": "bytes32"
        },
        {
          "internalType": "address",
          "name": "account",
          "type": "address"
        }
      ],
      "name": "grantRole",
      "outputs": [],
      "stateMutability": "nonpayable",
      "type": "function"
    },
    {
      "inputs": [
        {
          "internalType": "bytes32",
          "name": "role",
          "type": "bytes32"
        },
        {
          "internalType": "address",
          "name": "account",
          "type": "address"
        }
      ],
      "name": "hasRole",
      "outputs": [
        {
          "internalType": "bool",
          "name": "",
          "type": "bool"
        }
      ],
      "stateMutability": "view",
      "type": "function"
    },
    {
      "inputs": [
        {
          "internalType": "bytes",
          "name": "",
          "type": "bytes"
        }
      ],
      "name": "hasVote",
      "outputs": [
        {
          "internalType": "bool",
          "name": "",
          "type": "bool"
        }
      ],
      "stateMutability": "view",
      "type": "function"
    },
    {
      "inputs": [
        {
          "internalType": "uint256",
          "name": "",
          "type": "uint256"
        }
      ],
      "name": "indexToProposal",
      "outputs": [
        {
          "internalType": "bytes32",
          "name": "",
          "type": "bytes32"
        }
      ],
      "stateMutability": "view",
      "type": "function"
    },
    {
      "inputs": [
        {
          "internalType": "address",
          "name": "admin",
          "type": "address"
        }
      ],
      "name": "initialize",
      "outputs": [],
      "stateMutability": "nonpayable",
      "type": "function"
    },
    {
      "inputs": [],
      "name": "proposalIndex",
      "outputs": [
        {
          "internalType": "uint256",
          "name": "",
          "type": "uint256"
        }
      ],
      "stateMutability": "view",
      "type": "function"
    },
    {
      "inputs": [
        {
          "internalType": "bytes32",
          "name": "",
          "type": "bytes32"
        }
      ],
      "name": "proposals",
      "outputs": [
        {
          "internalType": "uint8",
          "name": "originDomainID",
          "type": "uint8"
        },
        {
          "internalType": "uint8",
          "name": "destinationDomainID",
          "type": "uint8"
        },
        {
          "internalType": "address",
          "name": "destinationBridge",
          "type": "address"
        },
        {
          "internalType": "uint64",
          "name": "depositNonce",
          "type": "uint64"
        },
        {
          "internalType": "bytes32",
          "name": "resourceID",
          "type": "bytes32"
        },
        {
          "internalType": "bytes",
          "name": "data",
          "type": "bytes"
        },
        {
          "internalType": "uint256",
          "name": "proposalIndex",
          "type": "uint256"
        }
      ],
      "stateMutability": "view",
      "type": "function"
    },
    {
      "inputs": [
        {
          "internalType": "bytes32",
          "name": "role",
          "type": "bytes32"
        },
        {
          "internalType": "address",
          "name": "account",
          "type": "address"
        }
      ],
      "name": "renounceRole",
      "outputs": [],
      "stateMutability": "nonpayable",
      "type": "function"
    },
    {
      "inputs": [
        {
          "internalType": "bytes32",
          "name": "role",
          "type": "bytes32"
        },
        {
          "internalType": "address",
          "name": "account",
          "type": "address"
        }
      ],
      "name": "revokeRole",
      "outputs": [],
      "stateMutability": "nonpayable",
      "type": "function"
    },
    {
      "inputs": [
        {
          "internalType": "bytes32",
          "name": "",
          "type": "bytes32"
        },
        {
          "internalType": "uint256",
          "name": "",
          "type": "uint256"
        }
      ],
      "name": "signatures",
      "outputs": [
        {
          "internalType": "bytes",
          "name": "",
          "type": "bytes"
        }
      ],
      "stateMutability": "view",
      "type": "function"
    },
    {
      "inputs": [
        {
          "internalType": "uint8",
          "name": "originDomainID",
          "type": "uint8"
        },
        {
          "internalType": "uint8",
          "name": "destinationDomainID",
          "type": "uint8"
        },
        {
          "internalType": "address",
          "name": "destinationBridge",
          "type": "address"
        },
        {
          "internalType": "uint64",
          "name": "depositNonce",
          "type": "uint64"
        },
        {
          "internalType": "bytes32",
          "name": "resourceID",
          "type": "bytes32"
        },
        {
          "internalType": "bytes",
          "name": "data",
          "type": "bytes"
        },
        {
          "internalType": "bytes",
          "name": "signature",
          "type": "bytes"
        }
      ],
      "name": "submitSignature",
      "outputs": [],
      "stateMutability": "nonpayable",
      "type": "function"
    }
  ],
  "bytecode": "0x608060405234801561001057600080fd5b5061229c806100206000396000f3fe608060405234801561001057600080fd5b50600436106101a95760003560e01c806374400fd1116100f9578063aa44739d11610097578063ca15c87311610071578063ca15c8731461045b578063d547741f1461046e578063e5787a7514610481578063f4eccb8f146104a157600080fd5b8063aa44739d146103f3578063c4d66de814610428578063c7f758a81461043b57600080fd5b806391d14854116100d357806391d148541461039e578063926d7d7f146103b1578063a11279c7146103d8578063a217fddf146103eb57600080fd5b806374400fd114610358578063861fd043146103785780639010d07c1461038b57600080fd5b806332ed5b12116101665780634e0df3f6116101405780634e0df3f6146102d757806350916c7c146102ea5780635977e0f2146103285780635d2dab0b1461033157600080fd5b806332ed5b121461027e5780633640850b146102a457806336568abe146102c457600080fd5b80630b18fec5146101ae5780631f241eca146101e1578063248a9ca31461020c5780632f2ff15d1461022f5780632fda959e1461024457806330adf81f14610257575b600080fd5b6101ce6101bc366004611c23565b60356020526000908152604090205481565b6040519081526020015b60405180910390f35b6101f46101ef366004611cad565b6104b4565b6040516001600160a01b0390911681526020016101d8565b6101ce61021a366004611d6a565b60009081526033602052604090206002015490565b61024261023d366004611d83565b6106e5565b005b610242610252366004611daf565b610778565b6101ce7fc4cb5d35714699d6e85b9562b644e60393b418d974a5c1dd8efaadac37a142c581565b61029161028c366004611d6a565b6107fc565b6040516101d89796959493929190611e26565b6101ce6102b2366004611d6a565b603a6020526000908152604090205481565b6102426102d2366004611d83565b6108dc565b6101ce6102e5366004611d83565b610956565b6103186102f8366004611e98565b805160208183018101805160378252928201919093012091525460ff1681565b60405190151581526020016101d8565b6101ce60385481565b6101ce7f8b73c3c69bb8fe3d512ecc4cf759cc79239f7b179b0ffacaa9a75d522b39400f81565b61036b610366366004611f48565b610983565b6040516101d89190611f6a565b610242610386366004611cad565b610a3c565b6101f4610399366004611f48565b610e94565b6103186103ac366004611d83565b610eb3565b6101ce7fe2b7fb3b832174769106daebcfd6d1970523240dda11281102db9363b83b0dc481565b6102426103e6366004611f7d565b610ecb565b6101ce600081565b610416610401366004611c23565b60346020526000908152604090205460ff1681565b60405160ff90911681526020016101d8565b610242610436366004611fa7565b610f3b565b61044e610449366004611d6a565b610fff565b6040516101d89190611fc2565b6101ce610469366004611d6a565b611196565b61024261047c366004611d83565b6111ad565b61049461048f36600461203e565b61122e565b6040516101d891906120ac565b6104946104af366004611d6a565b611382565b6000807fc4cb5d35714699d6e85b9562b644e60393b418d974a5c1dd8efaadac37a142c58b898989896040516104eb92919061210e565b60405190819003812061052e959493929160200194855260ff9390931660208501526001600160401b039190911660408401526060830152608082015260a00190565b60408051601f19818403018152918152815160209283012060ff8d1660009081526035909352908220549092506106939083901561057e5760ff8d16600090815260356020526040902054610583565b8c60ff165b604080518082018252600c81526b5065726d697442726964676560a01b6020918201528151808301835260038152620312e360ec1b9082015281517f8b73c3c69bb8fe3d512ecc4cf759cc79239f7b179b0ffacaa9a75d522b39400f818301527f058443738ec3641a3233a9f285e16671e4ad9755445580d761017e695f75052b818401527fe6bbd6277e1bf288eed5e8d1780f9a50b239e86b153736bceebccf4ea79d90b3606082015260808101939093526001600160a01b038f1660a0808501919091528251808503909101815260c08401835280519082012061190160f01b60e085015260e284015261010280840194909452815180840390940184526101229092019052815191012090565b90506106d58186868080601f0160208091040260200160405190810160405280939291908181526020018383808284376000920191909152506114b592505050565b9c9b505050505050505050505050565b6000828152603360205260409020600201546107019033610eb3565b61076a5760405162461bcd60e51b815260206004820152602f60248201527f416363657373436f6e74726f6c3a2073656e646572206d75737420626520616e60448201526e0818591b5a5b881d1bc819dc985b9d608a1b60648201526084015b60405180910390fd5b61077482826114d9565b5050565b610783600033610eb3565b6107cf5760405162461bcd60e51b815260206004820152601e60248201527f73656e64657220646f65736e277420686176652061646d696e20726f6c6500006044820152606401610761565b6107d881611532565b60ff9283166000908152603460205260409020805460ff1916919093161790915550565b60396020526000908152604090208054600182015460028301805460ff808516956101008604909116946201000081046001600160a01b031694600160b01b9091046001600160401b03169390926108539061211e565b80601f016020809104026020016040519081016040528092919081815260200182805461087f9061211e565b80156108cc5780601f106108a1576101008083540402835291602001916108cc565b820191906000526020600020905b8154815290600101906020018083116108af57829003601f168201915b5050505050908060030154905087565b6001600160a01b038116331461094c5760405162461bcd60e51b815260206004820152602f60248201527f416363657373436f6e74726f6c3a2063616e206f6e6c792072656e6f756e636560448201526e103937b632b9903337b91039b2b63360891b6064820152608401610761565b6107748282611589565b60008281526033602090815260408083206001600160a01b03851684526001019091529020545b92915050565b6036602052816000526040600020818154811061099f57600080fd5b906000526020600020016000915091505080546109bb9061211e565b80601f01602080910402602001604051908101604052809291908181526020018280546109e79061211e565b8015610a345780601f10610a0957610100808354040283529160200191610a34565b820191906000526020600020905b815481529060010190602001808311610a1757829003601f168201915b505050505081565b610a717fe2b7fb3b832174769106daebcfd6d1970523240dda11281102db9363b83b0dc46103ac8b8b8b8b8b8b8b8b8b6104b4565b610ab15760405162461bcd60e51b8152602060048201526011602482015270696e76616c6964207369676e617475726560781b6044820152606401610761565b60378282604051610ac392919061210e565b9081526040519081900360200190205460ff1615610b235760405162461bcd60e51b815260206004820152601860248201527f7369676e617475726520616c6561726479207375626d697400000000000000006044820152606401610761565b60008987878787604051610b3892919061210e565b604051908190038120610b749493929160200160ff9490941684526001600160401b039290921660208401526040830152606082015260800190565b60408051601f19818403018152918152815160209283012060ff808d166000908152603485528381205483825260369095529290922054909350911611610bf55760405162461bcd60e51b81526020600482015260156024820152745369676e7475726520616c6561726479207061737360581b6044820152606401610761565b600081815260366020526040902054610d6a5760388054906000610c188361216f565b91905055506040518060e001604052808b60ff1681526020018a60ff168152602001896001600160a01b03168152602001886001600160401b0316815260200187815260200186868080601f01602080910402602001604051908101604052809392919081815260200183838082843760009201829052509385525050603854602093840152508381526039825260409081902083518154858501519386015160608701516001600160401b0316600160b01b0267ffffffffffffffff60b01b196001600160a01b0390921662010000029190911662010000600160f01b031960ff9687166101000261ffff1990941696909416959095179190911791909116929092179190911781556080830151600182015560a083015180519192610d4792600285019290910190611b04565b5060c091909101516003909101556038546000908152603a602052604090208190555b6000818152603660209081526040822080546001810182559083529120610d9391018484611b84565b50600160378484604051610da892919061210e565b908152602001604051809103902060006101000a81548160ff021916908315150217905550858960ff168b60ff167fdbf724cd2f174f6ee6dc7d45f557ca42e3f0c483d5ac5da1317ade0e540889078a89898989604051610e0d9594939291906121b3565b60405180910390a460ff808a16600090815260346020908152604080832054858452603690925290912054911611610e8857858960ff168b60ff167f31ad42d947b6829b5c034aaa2c4259af49e84066292aa963a38e2a9dba8206748a89898989604051610e7f9594939291906121b3565b60405180910390a45b50505050505050505050565b6000828152603360205260408120610eac90836115e2565b9392505050565b6000828152603360205260408120610eac90836115ee565b610ed6600033610eb3565b610f225760405162461bcd60e51b815260206004820152601e60248201527f73656e64657220646f65736e277420686176652061646d696e20726f6c6500006044820152606401610761565b60ff918216600090815260356020526040902091169055565b600054610100900460ff16610f565760005460ff1615610f5a565b303b155b610fbd5760405162461bcd60e51b815260206004820152602e60248201527f496e697469616c697a61626c653a20636f6e747261637420697320616c72656160448201526d191e481a5b9a5d1a585b1a5e995960921b6064820152608401610761565b600054610100900460ff16158015610fdf576000805461ffff19166101011790555b610fea60008361076a565b8015610774576000805461ff00191690555050565b6040805160e08101825260008082526020820181905291810182905260608082018390526080820183905260a082015260c081019190915260385482111561107e5760405162461bcd60e51b8152602060048201526012602482015271141c9bdc1bdcd85b081b9bdd08195e1a5cdd60721b6044820152606401610761565b6000828152603a602090815260408083205483526039825291829020825160e081018452815460ff8082168352610100820416938201939093526201000083046001600160a01b031693810193909352600160b01b9091046001600160401b031660608301526001810154608083015260028101805460a0840191906111039061211e565b80601f016020809104026020016040519081016040528092919081815260200182805461112f9061211e565b801561117c5780601f106111515761010080835404028352916020019161117c565b820191906000526020600020905b81548152906001019060200180831161115f57829003601f168201915b505050505081526020016003820154815250509050919050565b600081815260336020526040812061097d90611610565b6000828152603360205260409020600201546111c99033610eb3565b61094c5760405162461bcd60e51b815260206004820152603060248201527f416363657373436f6e74726f6c3a2073656e646572206d75737420626520616e60448201526f2061646d696e20746f207265766f6b6560801b6064820152608401610761565b606060366000878787878760405161124792919061210e565b6040519081900381206112839493929160200160ff9490941684526001600160401b039290921660208401526040830152606082015260800190565b604051602081830303815290604052805190602001208152602001908152602001600020805480602002602001604051908101604052809291908181526020016000905b828210156113735783829060005260206000200180546112e69061211e565b80601f01602080910402602001604051908101604052809291908181526020018280546113129061211e565b801561135f5780601f106113345761010080835404028352916020019161135f565b820191906000526020600020905b81548152906001019060200180831161134257829003601f168201915b5050505050815260200190600101906112c7565b50505050905095945050505050565b60606038548211156113cb5760405162461bcd60e51b8152602060048201526012602482015271141c9bdc1bdcd85b081b9bdd08195e1a5cdd60721b6044820152606401610761565b6000828152603a602090815260408083205483526036825280832080548251818502810185019093528083529193909284015b828210156114aa57838290600052602060002001805461141d9061211e565b80601f01602080910402602001604051908101604052809291908181526020018280546114499061211e565b80156114965780601f1061146b57610100808354040283529160200191611496565b820191906000526020600020905b81548152906001019060200180831161147957829003601f168201915b5050505050815260200190600101906113fe565b505050509050919050565b60008060006114c4858561161a565b915091506114d18161168a565b509392505050565b60008281526033602052604090206114f19082611848565b156107745760405133906001600160a01b0383169084907f2f8788117e7eff1d82e926ec794901d17c78024a50270940304540a733656f0d90600090a45050565b600061010082106115855760405162461bcd60e51b815260206004820152601c60248201527f76616c756520646f6573206e6f742066697420696e20382062697473000000006044820152606401610761565b5090565b60008281526033602052604090206115a1908261185d565b156107745760405133906001600160a01b0383169084907ff6391f5c32d9c69d2a47ea670b442974b53935d1edc7fd64eb21e047a839171b90600090a45050565b6000610eac8383611872565b6001600160a01b03811660009081526001830160205260408120541515610eac565b600061097d825490565b6000808251604114156116515760208301516040840151606085015160001a6116458782858561189c565b94509450505050611683565b82516040141561167b5760208301516040840151611670868383611989565b935093505050611683565b506000905060025b9250929050565b600081600481111561169e5761169e6121f5565b14156116a75750565b60018160048111156116bb576116bb6121f5565b14156117095760405162461bcd60e51b815260206004820152601860248201527f45434453413a20696e76616c6964207369676e617475726500000000000000006044820152606401610761565b600281600481111561171d5761171d6121f5565b141561176b5760405162461bcd60e51b815260206004820152601f60248201527f45434453413a20696e76616c6964207369676e6174757265206c656e677468006044820152606401610761565b600381600481111561177f5761177f6121f5565b14156117d85760405162461bcd60e51b815260206004820152602260248201527f45434453413a20696e76616c6964207369676e6174757265202773272076616c604482015261756560f01b6064820152608401610761565b60048160048111156117ec576117ec6121f5565b14156118455760405162461bcd60e51b815260206004820152602260248201527f45434453413a20696e76616c6964207369676e6174757265202776272076616c604482015261756560f01b6064820152608401610761565b50565b6000610eac836001600160a01b0384166119c2565b6000610eac836001600160a01b038416611a11565b60008260000182815481106118895761188961220b565b9060005260206000200154905092915050565b6000807f7fffffffffffffffffffffffffffffff5d576e7357a4501ddfe92f46681b20a08311156118d35750600090506003611980565b8460ff16601b141580156118eb57508460ff16601c14155b156118fc5750600090506004611980565b6040805160008082526020820180845289905260ff881692820192909252606081018690526080810185905260019060a0016020604051602081039080840390855afa158015611950573d6000803e3d6000fd5b5050604051601f1901519150506001600160a01b03811661197957600060019250925050611980565b9150600090505b94509492505050565b6000806001600160ff1b038316816119a660ff86901c601b612221565b90506119b48782888561189c565b935093505050935093915050565b6000818152600183016020526040812054611a095750815460018181018455600084815260208082209093018490558454848252828601909352604090209190915561097d565b50600061097d565b60008181526001830160205260408120548015611afa576000611a35600183612239565b8554909150600090611a4990600190612239565b9050818114611aae576000866000018281548110611a6957611a6961220b565b9060005260206000200154905080876000018481548110611a8c57611a8c61220b565b6000918252602080832090910192909255918252600188019052604090208390555b8554869080611abf57611abf612250565b60019003818190600052602060002001600090559055856001016000868152602001908152602001600020600090556001935050505061097d565b600091505061097d565b828054611b109061211e565b90600052602060002090601f016020900481019282611b325760008555611b78565b82601f10611b4b57805160ff1916838001178555611b78565b82800160010185558215611b78579182015b82811115611b78578251825591602001919060010190611b5d565b50611585929150611bf8565b828054611b909061211e565b90600052602060002090601f016020900481019282611bb25760008555611b78565b82601f10611bcb5782800160ff19823516178555611b78565b82800160010185558215611b78579182015b82811115611b78578235825591602001919060010190611bdd565b5b808211156115855760008155600101611bf9565b803560ff81168114611c1e57600080fd5b919050565b600060208284031215611c3557600080fd5b610eac82611c0d565b80356001600160a01b0381168114611c1e57600080fd5b80356001600160401b0381168114611c1e57600080fd5b60008083601f840112611c7e57600080fd5b5081356001600160401b03811115611c9557600080fd5b60208301915083602082850101111561168357600080fd5b600080600080600080600080600060e08a8c031215611ccb57600080fd5b611cd48a611c0d565b9850611ce260208b01611c0d565b9750611cf060408b01611c3e565b9650611cfe60608b01611c55565b955060808a0135945060a08a01356001600160401b0380821115611d2157600080fd5b611d2d8d838e01611c6c565b909650945060c08c0135915080821115611d4657600080fd5b50611d538c828d01611c6c565b915080935050809150509295985092959850929598565b600060208284031215611d7c57600080fd5b5035919050565b60008060408385031215611d9657600080fd5b82359150611da660208401611c3e565b90509250929050565b60008060408385031215611dc257600080fd5b611dcb83611c0d565b946020939093013593505050565b6000815180845260005b81811015611dff57602081850181015186830182015201611de3565b81811115611e11576000602083870101525b50601f01601f19169290920160200192915050565b60ff8816815260ff8716602082015260018060a01b03861660408201526001600160401b038516606082015283608082015260e060a08201526000611e6e60e0830185611dd9565b90508260c083015298975050505050505050565b634e487b7160e01b600052604160045260246000fd5b600060208284031215611eaa57600080fd5b81356001600160401b0380821115611ec157600080fd5b818401915084601f830112611ed557600080fd5b813581811115611ee757611ee7611e82565b604051601f8201601f19908116603f01168101908382118183101715611f0f57611f0f611e82565b81604052828152876020848701011115611f2857600080fd5b826020860160208301376000928101602001929092525095945050505050565b60008060408385031215611f5b57600080fd5b50508035926020909101359150565b602081526000610eac6020830184611dd9565b60008060408385031215611f9057600080fd5b611f9983611c0d565b9150611da660208401611c0d565b600060208284031215611fb957600080fd5b610eac82611c3e565b6020815260ff825116602082015260ff602083015116604082015260018060a01b0360408301511660608201526001600160401b036060830151166080820152608082015160a0820152600060a083015160e060c0840152612028610100840182611dd9565b905060c084015160e08401528091505092915050565b60008060008060006080868803121561205657600080fd5b61205f86611c0d565b945061206d60208701611c55565b93506040860135925060608601356001600160401b0381111561208f57600080fd5b61209b88828901611c6c565b969995985093965092949392505050565b6000602080830181845280855180835260408601915060408160051b870101925083870160005b8281101561210157603f198886030184526120ef858351611dd9565b945092850192908501906001016120d3565b5092979650505050505050565b8183823760009101908152919050565b600181811c9082168061213257607f821691505b6020821081141561215357634e487b7160e01b600052602260045260246000fd5b50919050565b634e487b7160e01b600052601160045260246000fd5b600060001982141561218357612183612159565b5060010190565b81835281816020850137506000828201602090810191909152601f909101601f19169091010190565b6001600160401b03861681526060602082015260006121d660608301868861218a565b82810360408401526121e981858761218a565b98975050505050505050565b634e487b7160e01b600052602160045260246000fd5b634e487b7160e01b600052603260045260246000fd5b6000821982111561223457612234612159565b500190565b60008282101561224b5761224b612159565b500390565b634e487b7160e01b600052603160045260246000fdfea2646970667358221220ad8cecf58de71636be70c8d805312773a744b41fd1cfc6a403137eb330ce073f64736f6c634300080b0033",
  "linkReferences": {},
  "deployedLinkReferences": {}
}