{
  "contracts/proxy/TransparentUpgradeableProxy.sol": {
    "TransparentUpgradeableProxy": {
      "abi": [
        {
          "inputs": [
            {
              "internalType": "address",
              "name": "_logic",
              "type": "address"
            },
            {
              "internalType": "address",
              "name": "admin_",
              "type": "address"
            },
            {
              "internalType": "bytes",
              "name": "_data",
              "type": "bytes"
            }
          ],
          "stateMutability": "payable",
          "type": "constructor"
        },
        {
          "anonymous": false,
          "inputs": [
            {
              "indexed": false,
              "internalType": "address",
              "name": "previousAdmin",
              "type": "address"
            },
            {
              "indexed": false,
              "internalType": "address",
              "name": "newAdmin",
              "type": "address"
            }
          ],
          "name": "AdminChanged",
          "type": "event"
        },
        {
          "anonymous": false,
          "inputs": [
            {
              "indexed": true,
              "internalType": "address",
              "name": "beacon",
              "type": "address"
            }
          ],
          "name": "BeaconUpgraded",
          "type": "event"
        },
        {
          "anonymous": false,
          "inputs": [
            {
              "indexed": true,
              "internalType": "address",
              "name": "implementation",
              "type": "address"
            }
          ],
          "name": "Upgraded",
          "type": "event"
        },
        {
          "stateMutability": "payable",
          "type": "fallback"
        },
        {
          "inputs": [],
          "name": "_admin",
          "outputs": [
            {
              "internalType": "address",
              "name": "",
              "type": "address"
            }
          ],
          "stateMutability": "view",
          "type": "function"
        },
        {
          "inputs": [],
          "name": "_implementation",
          "outputs": [
            {
              "internalType": "address",
              "name": "impl",
              "type": "address"
            }
          ],
          "stateMutability": "view",
          "type": "function"
        },
        {
          "inputs": [],
          "name": "admin",
          "outputs": [
            {
              "internalType": "address",
              "name": "admin_",
              "type": "address"
            }
          ],
          "stateMutability": "nonpayable",
          "type": "function"
        },
        {
          "inputs": [
            {
              "internalType": "address",
              "name": "newAdmin",
              "type": "address"
            }
          ],
          "name": "changeAdmin",
          "outputs": [],
          "stateMutability": "nonpayable",
          "type": "function"
        },
        {
          "inputs": [],
          "name": "implementation",
          "outputs": [
            {
              "internalType": "address",
              "name": "implementation_",
              "type": "address"
            }
          ],
          "stateMutability": "nonpayable",
          "type": "function"
        },
        {
          "inputs": [
            {
              "internalType": "address",
              "name": "newImplementation",
              "type": "address"
            }
          ],
          "name": "upgradeTo",
          "outputs": [],
          "stateMutability": "nonpayable",
          "type": "function"
        },
        {
          "inputs": [
            {
              "internalType": "address",
              "name": "newImplementation",
              "type": "address"
            },
            {
              "internalType": "bytes",
              "name": "data",
              "type": "bytes"
            }
          ],
          "name": "upgradeToAndCall",
          "outputs": [],
          "stateMutability": "payable",
          "type": "function"
        },
        {
          "stateMutability": "payable",
          "type": "receive"
        }
      ],
      "evm": {
        "bytecode": {
          "linkReferences": {},
          "object": "608060405260405162000f9338038062000f93833981016040819052620000269162000507565b82816200005560017f360894a13ba1a3210667c828492db98dca3e2076cc3735a920a3ca505d382bbd620005e7565b60008051602062000f4c833981519152146200007557620000756200060d565b6200008382826000620000e7565b50620000b3905060017fb53127684a568b3173ae13b9f8a6016e243e63b6e8ee1178d6a717850b5d6104620005e7565b60008051602062000f2c83398151915214620000d357620000d36200060d565b620000de8262000124565b50505062000676565b620000f2836200017f565b600082511180620001005750805b156200011f576200011d8383620001c160201b620002c41760201c565b505b505050565b7f7e644d79422f17c01e4894b5f4f588d331ebfa28653d42ae832dc59e38c9798f6200014f620001f0565b604080516001600160a01b03928316815291841660208301520160405180910390a16200017c8162000229565b50565b6200018a81620002de565b6040516001600160a01b038216907fbc7cd75a20ee27fd9adebab32041f755214dbc6bffa90cc0225b39da2e5c2d3b90600090a250565b6060620001e9838360405180606001604052806027815260200162000f6c6027913962000381565b9392505050565b60006200021a60008051602062000f2c83398151915260001b6200045e60201b6200026c1760201c565b546001600160a01b0316919050565b6001600160a01b038116620002945760405162461bcd60e51b815260206004820152602660248201527f455243313936373a206e65772061646d696e20697320746865207a65726f206160448201526564647265737360d01b60648201526084015b60405180910390fd5b80620002bd60008051602062000f2c83398151915260001b6200045e60201b6200026c1760201c565b80546001600160a01b0319166001600160a01b039290921691909117905550565b620002f4816200046160201b620002f01760201c565b620003585760405162461bcd60e51b815260206004820152602d60248201527f455243313936373a206e657720696d706c656d656e746174696f6e206973206e60448201526c1bdd08184818dbdb9d1c9858dd609a1b60648201526084016200028b565b80620002bd60008051602062000f4c83398151915260001b6200045e60201b6200026c1760201c565b6060833b620003e25760405162461bcd60e51b815260206004820152602660248201527f416464726573733a2064656c65676174652063616c6c20746f206e6f6e2d636f6044820152651b9d1c9858dd60d21b60648201526084016200028b565b600080856001600160a01b031685604051620003ff919062000623565b600060405180830381855af49150503d80600081146200043c576040519150601f19603f3d011682016040523d82523d6000602084013e62000441565b606091505b5090925090506200045482828662000467565b9695505050505050565b90565b3b151590565b6060831562000478575081620001e9565b825115620004895782518084602001fd5b8160405162461bcd60e51b81526004016200028b919062000641565b80516001600160a01b0381168114620004bd57600080fd5b919050565b634e487b7160e01b600052604160045260246000fd5b60005b83811015620004f5578181015183820152602001620004db565b838111156200011d5750506000910152565b6000806000606084860312156200051d57600080fd5b6200052884620004a5565b92506200053860208501620004a5565b60408501519092506001600160401b03808211156200055657600080fd5b818601915086601f8301126200056b57600080fd5b815181811115620005805762000580620004c2565b604051601f8201601f19908116603f01168101908382118183101715620005ab57620005ab620004c2565b81604052828152896020848701011115620005c557600080fd5b620005d8836020830160208801620004d8565b80955050505050509250925092565b6000828210156200060857634e487b7160e01b600052601160045260246000fd5b500390565b634e487b7160e01b600052600160045260246000fd5b6000825162000637818460208701620004d8565b9190910192915050565b602081526000825180602084015262000662816040850160208701620004d8565b601f01601f19169190910160400192915050565b6108a680620006866000396000f3fe6080604052600436106100745760003560e01c806359679b0f1161004e57806359679b0f146100ef5780635c60da1b146101045780638f28397014610119578063f851a4401461013957610083565b806301bc45c91461008b5780633659cfe6146100bc5780634f1ef286146100dc57610083565b366100835761008161014e565b005b61008161014e565b34801561009757600080fd5b506100a0610168565b6040516001600160a01b03909116815260200160405180910390f35b3480156100c857600080fd5b506100816100d7366004610730565b610177565b6100816100ea36600461074b565b6101be565b3480156100fb57600080fd5b506100a061022f565b34801561011057600080fd5b506100a0610239565b34801561012557600080fd5b50610081610134366004610730565b61026f565b34801561014557600080fd5b506100a0610299565b6101566102f6565b61016661016161022f565b610395565b565b60006101726103b9565b905090565b61017f6103b9565b6001600160a01b0316336001600160a01b031614156101b6576101b3816040518060200160405280600081525060006103ec565b50565b6101b361014e565b6101c66103b9565b6001600160a01b0316336001600160a01b03161415610227576102228383838080601f016020809104026020016040519081016040528093929190818152602001838380828437600092019190915250600192506103ec915050565b505050565b61022261014e565b6000610172610417565b60006102436103b9565b6001600160a01b0316336001600160a01b031614156102645761017261022f565b61026c61014e565b90565b6102776103b9565b6001600160a01b0316336001600160a01b031614156101b6576101b38161043f565b60006102a36103b9565b6001600160a01b0316336001600160a01b03161415610264576101726103b9565b60606102e9838360405180606001604052806027815260200161084a60279139610493565b9392505050565b3b151590565b6102fe6103b9565b6001600160a01b0316336001600160a01b031614156101665760405162461bcd60e51b815260206004820152604260248201527f5472616e73706172656e745570677261646561626c6550726f78793a2061646d60448201527f696e2063616e6e6f742066616c6c6261636b20746f2070726f78792074617267606482015261195d60f21b608482015260a4015b60405180910390fd5b3660008037600080366000845af43d6000803e8080156103b4573d6000f35b3d6000fd5b60007fb53127684a568b3173ae13b9f8a6016e243e63b6e8ee1178d6a717850b5d61035b546001600160a01b0316919050565b6103f583610567565b6000825111806104025750805b156102225761041183836102c4565b50505050565b60007f360894a13ba1a3210667c828492db98dca3e2076cc3735a920a3ca505d382bbc6103dd565b7f7e644d79422f17c01e4894b5f4f588d331ebfa28653d42ae832dc59e38c9798f6104686103b9565b604080516001600160a01b03928316815291841660208301520160405180910390a16101b3816105a7565b6060833b6104f25760405162461bcd60e51b815260206004820152602660248201527f416464726573733a2064656c65676174652063616c6c20746f206e6f6e2d636f6044820152651b9d1c9858dd60d21b606482015260840161038c565b600080856001600160a01b03168560405161050d91906107fa565b600060405180830381855af49150503d8060008114610548576040519150601f19603f3d011682016040523d82523d6000602084013e61054d565b606091505b509150915061055d828286610650565b9695505050505050565b61057081610689565b6040516001600160a01b038216907fbc7cd75a20ee27fd9adebab32041f755214dbc6bffa90cc0225b39da2e5c2d3b90600090a250565b6001600160a01b03811661060c5760405162461bcd60e51b815260206004820152602660248201527f455243313936373a206e65772061646d696e20697320746865207a65726f206160448201526564647265737360d01b606482015260840161038c565b807fb53127684a568b3173ae13b9f8a6016e243e63b6e8ee1178d6a717850b5d61035b80546001600160a01b0319166001600160a01b039290921691909117905550565b6060831561065f5750816102e9565b82511561066f5782518084602001fd5b8160405162461bcd60e51b815260040161038c9190610816565b803b6106ed5760405162461bcd60e51b815260206004820152602d60248201527f455243313936373a206e657720696d706c656d656e746174696f6e206973206e60448201526c1bdd08184818dbdb9d1c9858dd609a1b606482015260840161038c565b807f360894a13ba1a3210667c828492db98dca3e2076cc3735a920a3ca505d382bbc61062f565b80356001600160a01b038116811461072b57600080fd5b919050565b60006020828403121561074257600080fd5b6102e982610714565b60008060006040848603121561076057600080fd5b61076984610714565b9250602084013567ffffffffffffffff8082111561078657600080fd5b818601915086601f83011261079a57600080fd5b8135818111156107a957600080fd5b8760208285010111156107bb57600080fd5b6020830194508093505050509250925092565b60005b838110156107e95781810151838201526020016107d1565b838111156104115750506000910152565b6000825161080c8184602087016107ce565b9190910192915050565b60208152600082518060208401526108358160408501602087016107ce565b601f01601f1916919091016040019291505056fe416464726573733a206c6f772d6c6576656c2064656c65676174652063616c6c206661696c6564a26469706673582212200feed045ad61cd00600049acd9c8ccbbe4bcd37e9628fdc0f76cbd4d3af363d864736f6c634300080b0033b53127684a568b3173ae13b9f8a6016e243e63b6e8ee1178d6a717850b5d6103360894a13ba1a3210667c828492db98dca3e2076cc3735a920a3ca505d382bbc416464726573733a206c6f772d6c6576656c2064656c65676174652063616c6c206661696c6564",
          "opcodes": "PUSH1 0x80 PUSH1 0x40 MSTORE PUSH1 0x40 MLOAD PUSH3 0xF93 CODESIZE SUB DUP1 PUSH3 0xF93 DUP4 CODECOPY DUP2 ADD PUSH1 0x40 DUP2 SWAP1 MSTORE PUSH3 0x26 SWAP2 PUSH3 0x507 JUMP JUMPDEST DUP3 DUP2 PUSH3 0x55 PUSH1 0x1 PUSH32 0x360894A13BA1A3210667C828492DB98DCA3E2076CC3735A920A3CA505D382BBD PUSH3 0x5E7 JUMP JUMPDEST PUSH1 0x0 DUP1 MLOAD PUSH1 0x20 PUSH3 0xF4C DUP4 CODECOPY DUP2 MLOAD SWAP2 MSTORE EQ PUSH3 0x75 JUMPI PUSH3 0x75 PUSH3 0x60D JUMP JUMPDEST PUSH3 0x83 DUP3 DUP3 PUSH1 0x0 PUSH3 0xE7 JUMP JUMPDEST POP PUSH3 0xB3 SWAP1 POP PUSH1 0x1 PUSH32 0xB53127684A568B3173AE13B9F8A6016E243E63B6E8EE1178D6A717850B5D6104 PUSH3 0x5E7 JUMP JUMPDEST PUSH1 0x0 DUP1 MLOAD PUSH1 0x20 PUSH3 0xF2C DUP4 CODECOPY DUP2 MLOAD SWAP2 MSTORE EQ PUSH3 0xD3 JUMPI PUSH3 0xD3 PUSH3 0x60D JUMP JUMPDEST PUSH3 0xDE DUP3 PUSH3 0x124 JUMP JUMPDEST POP POP POP PUSH3 0x676 JUMP JUMPDEST PUSH3 0xF2 DUP4 PUSH3 0x17F JUMP JUMPDEST PUSH1 0x0 DUP3 MLOAD GT DUP1 PUSH3 0x100 JUMPI POP DUP1 JUMPDEST ISZERO PUSH3 0x11F JUMPI PUSH3 0x11D DUP4 DUP4 PUSH3 0x1C1 PUSH1 0x20 SHL PUSH3 0x2C4 OR PUSH1 0x20 SHR JUMP JUMPDEST POP JUMPDEST POP POP POP JUMP JUMPDEST PUSH32 0x7E644D79422F17C01E4894B5F4F588D331EBFA28653D42AE832DC59E38C9798F PUSH3 0x14F PUSH3 0x1F0 JUMP JUMPDEST PUSH1 0x40 DUP1 MLOAD PUSH1 0x1 PUSH1 0x1 PUSH1 0xA0 SHL SUB SWAP3 DUP4 AND DUP2 MSTORE SWAP2 DUP5 AND PUSH1 0x20 DUP4 ADD MSTORE ADD PUSH1 0x40 MLOAD DUP1 SWAP2 SUB SWAP1 LOG1 PUSH3 0x17C DUP2 PUSH3 0x229 JUMP JUMPDEST POP JUMP JUMPDEST PUSH3 0x18A DUP2 PUSH3 0x2DE JUMP JUMPDEST PUSH1 0x40 MLOAD PUSH1 0x1 PUSH1 0x1 PUSH1 0xA0 SHL SUB DUP3 AND SWAP1 PUSH32 0xBC7CD75A20EE27FD9ADEBAB32041F755214DBC6BFFA90CC0225B39DA2E5C2D3B SWAP1 PUSH1 0x0 SWAP1 LOG2 POP JUMP JUMPDEST PUSH1 0x60 PUSH3 0x1E9 DUP4 DUP4 PUSH1 0x40 MLOAD DUP1 PUSH1 0x60 ADD PUSH1 0x40 MSTORE DUP1 PUSH1 0x27 DUP2 MSTORE PUSH1 0x20 ADD PUSH3 0xF6C PUSH1 0x27 SWAP2 CODECOPY PUSH3 0x381 JUMP JUMPDEST SWAP4 SWAP3 POP POP POP JUMP JUMPDEST PUSH1 0x0 PUSH3 0x21A PUSH1 0x0 DUP1 MLOAD PUSH1 0x20 PUSH3 0xF2C DUP4 CODECOPY DUP2 MLOAD SWAP2 MSTORE PUSH1 0x0 SHL PUSH3 0x45E PUSH1 0x20 SHL PUSH3 0x26C OR PUSH1 0x20 SHR JUMP JUMPDEST SLOAD PUSH1 0x1 PUSH1 0x1 PUSH1 0xA0 SHL SUB AND SWAP2 SWAP1 POP JUMP JUMPDEST PUSH1 0x1 PUSH1 0x1 PUSH1 0xA0 SHL SUB DUP2 AND PUSH3 0x294 JUMPI PUSH1 0x40 MLOAD PUSH3 0x461BCD PUSH1 0xE5 SHL DUP2 MSTORE PUSH1 0x20 PUSH1 0x4 DUP3 ADD MSTORE PUSH1 0x26 PUSH1 0x24 DUP3 ADD MSTORE PUSH32 0x455243313936373A206E65772061646D696E20697320746865207A65726F2061 PUSH1 0x44 DUP3 ADD MSTORE PUSH6 0x646472657373 PUSH1 0xD0 SHL PUSH1 0x64 DUP3 ADD MSTORE PUSH1 0x84 ADD JUMPDEST PUSH1 0x40 MLOAD DUP1 SWAP2 SUB SWAP1 REVERT JUMPDEST DUP1 PUSH3 0x2BD PUSH1 0x0 DUP1 MLOAD PUSH1 0x20 PUSH3 0xF2C DUP4 CODECOPY DUP2 MLOAD SWAP2 MSTORE PUSH1 0x0 SHL PUSH3 0x45E PUSH1 0x20 SHL PUSH3 0x26C OR PUSH1 0x20 SHR JUMP JUMPDEST DUP1 SLOAD PUSH1 0x1 PUSH1 0x1 PUSH1 0xA0 SHL SUB NOT AND PUSH1 0x1 PUSH1 0x1 PUSH1 0xA0 SHL SUB SWAP3 SWAP1 SWAP3 AND SWAP2 SWAP1 SWAP2 OR SWAP1 SSTORE POP JUMP JUMPDEST PUSH3 0x2F4 DUP2 PUSH3 0x461 PUSH1 0x20 SHL PUSH3 0x2F0 OR PUSH1 0x20 SHR JUMP JUMPDEST PUSH3 0x358 JUMPI PUSH1 0x40 MLOAD PUSH3 0x461BCD PUSH1 0xE5 SHL DUP2 MSTORE PUSH1 0x20 PUSH1 0x4 DUP3 ADD MSTORE PUSH1 0x2D PUSH1 0x24 DUP3 ADD MSTORE PUSH32 0x455243313936373A206E657720696D706C656D656E746174696F6E206973206E PUSH1 0x44 DUP3 ADD MSTORE PUSH13 0x1BDD08184818DBDB9D1C9858DD PUSH1 0x9A SHL PUSH1 0x64 DUP3 ADD MSTORE PUSH1 0x84 ADD PUSH3 0x28B JUMP JUMPDEST DUP1 PUSH3 0x2BD PUSH1 0x0 DUP1 MLOAD PUSH1 0x20 PUSH3 0xF4C DUP4 CODECOPY DUP2 MLOAD SWAP2 MSTORE PUSH1 0x0 SHL PUSH3 0x45E PUSH1 0x20 SHL PUSH3 0x26C OR PUSH1 0x20 SHR JUMP JUMPDEST PUSH1 0x60 DUP4 EXTCODESIZE PUSH3 0x3E2 JUMPI PUSH1 0x40 MLOAD PUSH3 0x461BCD PUSH1 0xE5 SHL DUP2 MSTORE PUSH1 0x20 PUSH1 0x4 DUP3 ADD MSTORE PUSH1 0x26 PUSH1 0x24 DUP3 ADD MSTORE PUSH32 0x416464726573733A2064656C65676174652063616C6C20746F206E6F6E2D636F PUSH1 0x44 DUP3 ADD MSTORE PUSH6 0x1B9D1C9858DD PUSH1 0xD2 SHL PUSH1 0x64 DUP3 ADD MSTORE PUSH1 0x84 ADD PUSH3 0x28B JUMP JUMPDEST PUSH1 0x0 DUP1 DUP6 PUSH1 0x1 PUSH1 0x1 PUSH1 0xA0 SHL SUB AND DUP6 PUSH1 0x40 MLOAD PUSH3 0x3FF SWAP2 SWAP1 PUSH3 0x623 JUMP JUMPDEST PUSH1 0x0 PUSH1 0x40 MLOAD DUP1 DUP4 SUB DUP2 DUP6 GAS DELEGATECALL SWAP2 POP POP RETURNDATASIZE DUP1 PUSH1 0x0 DUP2 EQ PUSH3 0x43C JUMPI PUSH1 0x40 MLOAD SWAP2 POP PUSH1 0x1F NOT PUSH1 0x3F RETURNDATASIZE ADD AND DUP3 ADD PUSH1 0x40 MSTORE RETURNDATASIZE DUP3 MSTORE RETURNDATASIZE PUSH1 0x0 PUSH1 0x20 DUP5 ADD RETURNDATACOPY PUSH3 0x441 JUMP JUMPDEST PUSH1 0x60 SWAP2 POP JUMPDEST POP SWAP1 SWAP3 POP SWAP1 POP PUSH3 0x454 DUP3 DUP3 DUP7 PUSH3 0x467 JUMP JUMPDEST SWAP7 SWAP6 POP POP POP POP POP POP JUMP JUMPDEST SWAP1 JUMP JUMPDEST EXTCODESIZE ISZERO ISZERO SWAP1 JUMP JUMPDEST PUSH1 0x60 DUP4 ISZERO PUSH3 0x478 JUMPI POP DUP2 PUSH3 0x1E9 JUMP JUMPDEST DUP3 MLOAD ISZERO PUSH3 0x489 JUMPI DUP3 MLOAD DUP1 DUP5 PUSH1 0x20 ADD REVERT JUMPDEST DUP2 PUSH1 0x40 MLOAD PUSH3 0x461BCD PUSH1 0xE5 SHL DUP2 MSTORE PUSH1 0x4 ADD PUSH3 0x28B SWAP2 SWAP1 PUSH3 0x641 JUMP JUMPDEST DUP1 MLOAD PUSH1 0x1 PUSH1 0x1 PUSH1 0xA0 SHL SUB DUP2 AND DUP2 EQ PUSH3 0x4BD JUMPI PUSH1 0x0 DUP1 REVERT JUMPDEST SWAP2 SWAP1 POP JUMP JUMPDEST PUSH4 0x4E487B71 PUSH1 0xE0 SHL PUSH1 0x0 MSTORE PUSH1 0x41 PUSH1 0x4 MSTORE PUSH1 0x24 PUSH1 0x0 REVERT JUMPDEST PUSH1 0x0 JUMPDEST DUP4 DUP2 LT ISZERO PUSH3 0x4F5 JUMPI DUP2 DUP2 ADD MLOAD DUP4 DUP3 ADD MSTORE PUSH1 0x20 ADD PUSH3 0x4DB JUMP JUMPDEST DUP4 DUP2 GT ISZERO PUSH3 0x11D JUMPI POP POP PUSH1 0x0 SWAP2 ADD MSTORE JUMP JUMPDEST PUSH1 0x0 DUP1 PUSH1 0x0 PUSH1 0x60 DUP5 DUP7 SUB SLT ISZERO PUSH3 0x51D JUMPI PUSH1 0x0 DUP1 REVERT JUMPDEST PUSH3 0x528 DUP5 PUSH3 0x4A5 JUMP JUMPDEST SWAP3 POP PUSH3 0x538 PUSH1 0x20 DUP6 ADD PUSH3 0x4A5 JUMP JUMPDEST PUSH1 0x40 DUP6 ADD MLOAD SWAP1 SWAP3 POP PUSH1 0x1 PUSH1 0x1 PUSH1 0x40 SHL SUB DUP1 DUP3 GT ISZERO PUSH3 0x556 JUMPI PUSH1 0x0 DUP1 REVERT JUMPDEST DUP2 DUP7 ADD SWAP2 POP DUP7 PUSH1 0x1F DUP4 ADD SLT PUSH3 0x56B JUMPI PUSH1 0x0 DUP1 REVERT JUMPDEST DUP2 MLOAD DUP2 DUP2 GT ISZERO PUSH3 0x580 JUMPI PUSH3 0x580 PUSH3 0x4C2 JUMP JUMPDEST PUSH1 0x40 MLOAD PUSH1 0x1F DUP3 ADD PUSH1 0x1F NOT SWAP1 DUP2 AND PUSH1 0x3F ADD AND DUP2 ADD SWAP1 DUP4 DUP3 GT DUP2 DUP4 LT OR ISZERO PUSH3 0x5AB JUMPI PUSH3 0x5AB PUSH3 0x4C2 JUMP JUMPDEST DUP2 PUSH1 0x40 MSTORE DUP3 DUP2 MSTORE DUP10 PUSH1 0x20 DUP5 DUP8 ADD ADD GT ISZERO PUSH3 0x5C5 JUMPI PUSH1 0x0 DUP1 REVERT JUMPDEST PUSH3 0x5D8 DUP4 PUSH1 0x20 DUP4 ADD PUSH1 0x20 DUP9 ADD PUSH3 0x4D8 JUMP JUMPDEST DUP1 SWAP6 POP POP POP POP POP POP SWAP3 POP SWAP3 POP SWAP3 JUMP JUMPDEST PUSH1 0x0 DUP3 DUP3 LT ISZERO PUSH3 0x608 JUMPI PUSH4 0x4E487B71 PUSH1 0xE0 SHL PUSH1 0x0 MSTORE PUSH1 0x11 PUSH1 0x4 MSTORE PUSH1 0x24 PUSH1 0x0 REVERT JUMPDEST POP SUB SWAP1 JUMP JUMPDEST PUSH4 0x4E487B71 PUSH1 0xE0 SHL PUSH1 0x0 MSTORE PUSH1 0x1 PUSH1 0x4 MSTORE PUSH1 0x24 PUSH1 0x0 REVERT JUMPDEST PUSH1 0x0 DUP3 MLOAD PUSH3 0x637 DUP2 DUP5 PUSH1 0x20 DUP8 ADD PUSH3 0x4D8 JUMP JUMPDEST SWAP2 SWAP1 SWAP2 ADD SWAP3 SWAP2 POP POP JUMP JUMPDEST PUSH1 0x20 DUP2 MSTORE PUSH1 0x0 DUP3 MLOAD DUP1 PUSH1 0x20 DUP5 ADD MSTORE PUSH3 0x662 DUP2 PUSH1 0x40 DUP6 ADD PUSH1 0x20 DUP8 ADD PUSH3 0x4D8 JUMP JUMPDEST PUSH1 0x1F ADD PUSH1 0x1F NOT AND SWAP2 SWAP1 SWAP2 ADD PUSH1 0x40 ADD SWAP3 SWAP2 POP POP JUMP JUMPDEST PUSH2 0x8A6 DUP1 PUSH3 0x686 PUSH1 0x0 CODECOPY PUSH1 0x0 RETURN INVALID PUSH1 0x80 PUSH1 0x40 MSTORE PUSH1 0x4 CALLDATASIZE LT PUSH2 0x74 JUMPI PUSH1 0x0 CALLDATALOAD PUSH1 0xE0 SHR DUP1 PUSH4 0x59679B0F GT PUSH2 0x4E JUMPI DUP1 PUSH4 0x59679B0F EQ PUSH2 0xEF JUMPI DUP1 PUSH4 0x5C60DA1B EQ PUSH2 0x104 JUMPI DUP1 PUSH4 0x8F283970 EQ PUSH2 0x119 JUMPI DUP1 PUSH4 0xF851A440 EQ PUSH2 0x139 JUMPI PUSH2 0x83 JUMP JUMPDEST DUP1 PUSH4 0x1BC45C9 EQ PUSH2 0x8B JUMPI DUP1 PUSH4 0x3659CFE6 EQ PUSH2 0xBC JUMPI DUP1 PUSH4 0x4F1EF286 EQ PUSH2 0xDC JUMPI PUSH2 0x83 JUMP JUMPDEST CALLDATASIZE PUSH2 0x83 JUMPI PUSH2 0x81 PUSH2 0x14E JUMP JUMPDEST STOP JUMPDEST PUSH2 0x81 PUSH2 0x14E JUMP JUMPDEST CALLVALUE DUP1 ISZERO PUSH2 0x97 JUMPI PUSH1 0x0 DUP1 REVERT JUMPDEST POP PUSH2 0xA0 PUSH2 0x168 JUMP JUMPDEST PUSH1 0x40 MLOAD PUSH1 0x1 PUSH1 0x1 PUSH1 0xA0 SHL SUB SWAP1 SWAP2 AND DUP2 MSTORE PUSH1 0x20 ADD PUSH1 0x40 MLOAD DUP1 SWAP2 SUB SWAP1 RETURN JUMPDEST CALLVALUE DUP1 ISZERO PUSH2 0xC8 JUMPI PUSH1 0x0 DUP1 REVERT JUMPDEST POP PUSH2 0x81 PUSH2 0xD7 CALLDATASIZE PUSH1 0x4 PUSH2 0x730 JUMP JUMPDEST PUSH2 0x177 JUMP JUMPDEST PUSH2 0x81 PUSH2 0xEA CALLDATASIZE PUSH1 0x4 PUSH2 0x74B JUMP JUMPDEST PUSH2 0x1BE JUMP JUMPDEST CALLVALUE DUP1 ISZERO PUSH2 0xFB JUMPI PUSH1 0x0 DUP1 REVERT JUMPDEST POP PUSH2 0xA0 PUSH2 0x22F JUMP JUMPDEST CALLVALUE DUP1 ISZERO PUSH2 0x110 JUMPI PUSH1 0x0 DUP1 REVERT JUMPDEST POP PUSH2 0xA0 PUSH2 0x239 JUMP JUMPDEST CALLVALUE DUP1 ISZERO PUSH2 0x125 JUMPI PUSH1 0x0 DUP1 REVERT JUMPDEST POP PUSH2 0x81 PUSH2 0x134 CALLDATASIZE PUSH1 0x4 PUSH2 0x730 JUMP JUMPDEST PUSH2 0x26F JUMP JUMPDEST CALLVALUE DUP1 ISZERO PUSH2 0x145 JUMPI PUSH1 0x0 DUP1 REVERT JUMPDEST POP PUSH2 0xA0 PUSH2 0x299 JUMP JUMPDEST PUSH2 0x156 PUSH2 0x2F6 JUMP JUMPDEST PUSH2 0x166 PUSH2 0x161 PUSH2 0x22F JUMP JUMPDEST PUSH2 0x395 JUMP JUMPDEST JUMP JUMPDEST PUSH1 0x0 PUSH2 0x172 PUSH2 0x3B9 JUMP JUMPDEST SWAP1 POP SWAP1 JUMP JUMPDEST PUSH2 0x17F PUSH2 0x3B9 JUMP JUMPDEST PUSH1 0x1 PUSH1 0x1 PUSH1 0xA0 SHL SUB AND CALLER PUSH1 0x1 PUSH1 0x1 PUSH1 0xA0 SHL SUB AND EQ ISZERO PUSH2 0x1B6 JUMPI PUSH2 0x1B3 DUP2 PUSH1 0x40 MLOAD DUP1 PUSH1 0x20 ADD PUSH1 0x40 MSTORE DUP1 PUSH1 0x0 DUP2 MSTORE POP PUSH1 0x0 PUSH2 0x3EC JUMP JUMPDEST POP JUMP JUMPDEST PUSH2 0x1B3 PUSH2 0x14E JUMP JUMPDEST PUSH2 0x1C6 PUSH2 0x3B9 JUMP JUMPDEST PUSH1 0x1 PUSH1 0x1 PUSH1 0xA0 SHL SUB AND CALLER PUSH1 0x1 PUSH1 0x1 PUSH1 0xA0 SHL SUB AND EQ ISZERO PUSH2 0x227 JUMPI PUSH2 0x222 DUP4 DUP4 DUP4 DUP1 DUP1 PUSH1 0x1F ADD PUSH1 0x20 DUP1 SWAP2 DIV MUL PUSH1 0x20 ADD PUSH1 0x40 MLOAD SWAP1 DUP2 ADD PUSH1 0x40 MSTORE DUP1 SWAP4 SWAP3 SWAP2 SWAP1 DUP2 DUP2 MSTORE PUSH1 0x20 ADD DUP4 DUP4 DUP1 DUP3 DUP5 CALLDATACOPY PUSH1 0x0 SWAP3 ADD SWAP2 SWAP1 SWAP2 MSTORE POP PUSH1 0x1 SWAP3 POP PUSH2 0x3EC SWAP2 POP POP JUMP JUMPDEST POP POP POP JUMP JUMPDEST PUSH2 0x222 PUSH2 0x14E JUMP JUMPDEST PUSH1 0x0 PUSH2 0x172 PUSH2 0x417 JUMP JUMPDEST PUSH1 0x0 PUSH2 0x243 PUSH2 0x3B9 JUMP JUMPDEST PUSH1 0x1 PUSH1 0x1 PUSH1 0xA0 SHL SUB AND CALLER PUSH1 0x1 PUSH1 0x1 PUSH1 0xA0 SHL SUB AND EQ ISZERO PUSH2 0x264 JUMPI PUSH2 0x172 PUSH2 0x22F JUMP JUMPDEST PUSH2 0x26C PUSH2 0x14E JUMP JUMPDEST SWAP1 JUMP JUMPDEST PUSH2 0x277 PUSH2 0x3B9 JUMP JUMPDEST PUSH1 0x1 PUSH1 0x1 PUSH1 0xA0 SHL SUB AND CALLER PUSH1 0x1 PUSH1 0x1 PUSH1 0xA0 SHL SUB AND EQ ISZERO PUSH2 0x1B6 JUMPI PUSH2 0x1B3 DUP2 PUSH2 0x43F JUMP JUMPDEST PUSH1 0x0 PUSH2 0x2A3 PUSH2 0x3B9 JUMP JUMPDEST PUSH1 0x1 PUSH1 0x1 PUSH1 0xA0 SHL SUB AND CALLER PUSH1 0x1 PUSH1 0x1 PUSH1 0xA0 SHL SUB AND EQ ISZERO PUSH2 0x264 JUMPI PUSH2 0x172 PUSH2 0x3B9 JUMP JUMPDEST PUSH1 0x60 PUSH2 0x2E9 DUP4 DUP4 PUSH1 0x40 MLOAD DUP1 PUSH1 0x60 ADD PUSH1 0x40 MSTORE DUP1 PUSH1 0x27 DUP2 MSTORE PUSH1 0x20 ADD PUSH2 0x84A PUSH1 0x27 SWAP2 CODECOPY PUSH2 0x493 JUMP JUMPDEST SWAP4 SWAP3 POP POP POP JUMP JUMPDEST EXTCODESIZE ISZERO ISZERO SWAP1 JUMP JUMPDEST PUSH2 0x2FE PUSH2 0x3B9 JUMP JUMPDEST PUSH1 0x1 PUSH1 0x1 PUSH1 0xA0 SHL SUB AND CALLER PUSH1 0x1 PUSH1 0x1 PUSH1 0xA0 SHL SUB AND EQ ISZERO PUSH2 0x166 JUMPI PUSH1 0x40 MLOAD PUSH3 0x461BCD PUSH1 0xE5 SHL DUP2 MSTORE PUSH1 0x20 PUSH1 0x4 DUP3 ADD MSTORE PUSH1 0x42 PUSH1 0x24 DUP3 ADD MSTORE PUSH32 0x5472616E73706172656E745570677261646561626C6550726F78793A2061646D PUSH1 0x44 DUP3 ADD MSTORE PUSH32 0x696E2063616E6E6F742066616C6C6261636B20746F2070726F78792074617267 PUSH1 0x64 DUP3 ADD MSTORE PUSH2 0x195D PUSH1 0xF2 SHL PUSH1 0x84 DUP3 ADD MSTORE PUSH1 0xA4 ADD JUMPDEST PUSH1 0x40 MLOAD DUP1 SWAP2 SUB SWAP1 REVERT JUMPDEST CALLDATASIZE PUSH1 0x0 DUP1 CALLDATACOPY PUSH1 0x0 DUP1 CALLDATASIZE PUSH1 0x0 DUP5 GAS DELEGATECALL RETURNDATASIZE PUSH1 0x0 DUP1 RETURNDATACOPY DUP1 DUP1 ISZERO PUSH2 0x3B4 JUMPI RETURNDATASIZE PUSH1 0x0 RETURN JUMPDEST RETURNDATASIZE PUSH1 0x0 REVERT JUMPDEST PUSH1 0x0 PUSH32 0xB53127684A568B3173AE13B9F8A6016E243E63B6E8EE1178D6A717850B5D6103 JUMPDEST SLOAD PUSH1 0x1 PUSH1 0x1 PUSH1 0xA0 SHL SUB AND SWAP2 SWAP1 POP JUMP JUMPDEST PUSH2 0x3F5 DUP4 PUSH2 0x567 JUMP JUMPDEST PUSH1 0x0 DUP3 MLOAD GT DUP1 PUSH2 0x402 JUMPI POP DUP1 JUMPDEST ISZERO PUSH2 0x222 JUMPI PUSH2 0x411 DUP4 DUP4 PUSH2 0x2C4 JUMP JUMPDEST POP POP POP POP JUMP JUMPDEST PUSH1 0x0 PUSH32 0x360894A13BA1A3210667C828492DB98DCA3E2076CC3735A920A3CA505D382BBC PUSH2 0x3DD JUMP JUMPDEST PUSH32 0x7E644D79422F17C01E4894B5F4F588D331EBFA28653D42AE832DC59E38C9798F PUSH2 0x468 PUSH2 0x3B9 JUMP JUMPDEST PUSH1 0x40 DUP1 MLOAD PUSH1 0x1 PUSH1 0x1 PUSH1 0xA0 SHL SUB SWAP3 DUP4 AND DUP2 MSTORE SWAP2 DUP5 AND PUSH1 0x20 DUP4 ADD MSTORE ADD PUSH1 0x40 MLOAD DUP1 SWAP2 SUB SWAP1 LOG1 PUSH2 0x1B3 DUP2 PUSH2 0x5A7 JUMP JUMPDEST PUSH1 0x60 DUP4 EXTCODESIZE PUSH2 0x4F2 JUMPI PUSH1 0x40 MLOAD PUSH3 0x461BCD PUSH1 0xE5 SHL DUP2 MSTORE PUSH1 0x20 PUSH1 0x4 DUP3 ADD MSTORE PUSH1 0x26 PUSH1 0x24 DUP3 ADD MSTORE PUSH32 0x416464726573733A2064656C65676174652063616C6C20746F206E6F6E2D636F PUSH1 0x44 DUP3 ADD MSTORE PUSH6 0x1B9D1C9858DD PUSH1 0xD2 SHL PUSH1 0x64 DUP3 ADD MSTORE PUSH1 0x84 ADD PUSH2 0x38C JUMP JUMPDEST PUSH1 0x0 DUP1 DUP6 PUSH1 0x1 PUSH1 0x1 PUSH1 0xA0 SHL SUB AND DUP6 PUSH1 0x40 MLOAD PUSH2 0x50D SWAP2 SWAP1 PUSH2 0x7FA JUMP JUMPDEST PUSH1 0x0 PUSH1 0x40 MLOAD DUP1 DUP4 SUB DUP2 DUP6 GAS DELEGATECALL SWAP2 POP POP RETURNDATASIZE DUP1 PUSH1 0x0 DUP2 EQ PUSH2 0x548 JUMPI PUSH1 0x40 MLOAD SWAP2 POP PUSH1 0x1F NOT PUSH1 0x3F RETURNDATASIZE ADD AND DUP3 ADD PUSH1 0x40 MSTORE RETURNDATASIZE DUP3 MSTORE RETURNDATASIZE PUSH1 0x0 PUSH1 0x20 DUP5 ADD RETURNDATACOPY PUSH2 0x54D JUMP JUMPDEST PUSH1 0x60 SWAP2 POP JUMPDEST POP SWAP2 POP SWAP2 POP PUSH2 0x55D DUP3 DUP3 DUP7 PUSH2 0x650 JUMP JUMPDEST SWAP7 SWAP6 POP POP POP POP POP POP JUMP JUMPDEST PUSH2 0x570 DUP2 PUSH2 0x689 JUMP JUMPDEST PUSH1 0x40 MLOAD PUSH1 0x1 PUSH1 0x1 PUSH1 0xA0 SHL SUB DUP3 AND SWAP1 PUSH32 0xBC7CD75A20EE27FD9ADEBAB32041F755214DBC6BFFA90CC0225B39DA2E5C2D3B SWAP1 PUSH1 0x0 SWAP1 LOG2 POP JUMP JUMPDEST PUSH1 0x1 PUSH1 0x1 PUSH1 0xA0 SHL SUB DUP2 AND PUSH2 0x60C JUMPI PUSH1 0x40 MLOAD PUSH3 0x461BCD PUSH1 0xE5 SHL DUP2 MSTORE PUSH1 0x20 PUSH1 0x4 DUP3 ADD MSTORE PUSH1 0x26 PUSH1 0x24 DUP3 ADD MSTORE PUSH32 0x455243313936373A206E65772061646D696E20697320746865207A65726F2061 PUSH1 0x44 DUP3 ADD MSTORE PUSH6 0x646472657373 PUSH1 0xD0 SHL PUSH1 0x64 DUP3 ADD MSTORE PUSH1 0x84 ADD PUSH2 0x38C JUMP JUMPDEST DUP1 PUSH32 0xB53127684A568B3173AE13B9F8A6016E243E63B6E8EE1178D6A717850B5D6103 JUMPDEST DUP1 SLOAD PUSH1 0x1 PUSH1 0x1 PUSH1 0xA0 SHL SUB NOT AND PUSH1 0x1 PUSH1 0x1 PUSH1 0xA0 SHL SUB SWAP3 SWAP1 SWAP3 AND SWAP2 SWAP1 SWAP2 OR SWAP1 SSTORE POP JUMP JUMPDEST PUSH1 0x60 DUP4 ISZERO PUSH2 0x65F JUMPI POP DUP2 PUSH2 0x2E9 JUMP JUMPDEST DUP3 MLOAD ISZERO PUSH2 0x66F JUMPI DUP3 MLOAD DUP1 DUP5 PUSH1 0x20 ADD REVERT JUMPDEST DUP2 PUSH1 0x40 MLOAD PUSH3 0x461BCD PUSH1 0xE5 SHL DUP2 MSTORE PUSH1 0x4 ADD PUSH2 0x38C SWAP2 SWAP1 PUSH2 0x816 JUMP JUMPDEST DUP1 EXTCODESIZE PUSH2 0x6ED JUMPI PUSH1 0x40 MLOAD PUSH3 0x461BCD PUSH1 0xE5 SHL DUP2 MSTORE PUSH1 0x20 PUSH1 0x4 DUP3 ADD MSTORE PUSH1 0x2D PUSH1 0x24 DUP3 ADD MSTORE PUSH32 0x455243313936373A206E657720696D706C656D656E746174696F6E206973206E PUSH1 0x44 DUP3 ADD MSTORE PUSH13 0x1BDD08184818DBDB9D1C9858DD PUSH1 0x9A SHL PUSH1 0x64 DUP3 ADD MSTORE PUSH1 0x84 ADD PUSH2 0x38C JUMP JUMPDEST DUP1 PUSH32 0x360894A13BA1A3210667C828492DB98DCA3E2076CC3735A920A3CA505D382BBC PUSH2 0x62F JUMP JUMPDEST DUP1 CALLDATALOAD PUSH1 0x1 PUSH1 0x1 PUSH1 0xA0 SHL SUB DUP2 AND DUP2 EQ PUSH2 0x72B JUMPI PUSH1 0x0 DUP1 REVERT JUMPDEST SWAP2 SWAP1 POP JUMP JUMPDEST PUSH1 0x0 PUSH1 0x20 DUP3 DUP5 SUB SLT ISZERO PUSH2 0x742 JUMPI PUSH1 0x0 DUP1 REVERT JUMPDEST PUSH2 0x2E9 DUP3 PUSH2 0x714 JUMP JUMPDEST PUSH1 0x0 DUP1 PUSH1 0x0 PUSH1 0x40 DUP5 DUP7 SUB SLT ISZERO PUSH2 0x760 JUMPI PUSH1 0x0 DUP1 REVERT JUMPDEST PUSH2 0x769 DUP5 PUSH2 0x714 JUMP JUMPDEST SWAP3 POP PUSH1 0x20 DUP5 ADD CALLDATALOAD PUSH8 0xFFFFFFFFFFFFFFFF DUP1 DUP3 GT ISZERO PUSH2 0x786 JUMPI PUSH1 0x0 DUP1 REVERT JUMPDEST DUP2 DUP7 ADD SWAP2 POP DUP7 PUSH1 0x1F DUP4 ADD SLT PUSH2 0x79A JUMPI PUSH1 0x0 DUP1 REVERT JUMPDEST DUP2 CALLDATALOAD DUP2 DUP2 GT ISZERO PUSH2 0x7A9 JUMPI PUSH1 0x0 DUP1 REVERT JUMPDEST DUP8 PUSH1 0x20 DUP3 DUP6 ADD ADD GT ISZERO PUSH2 0x7BB JUMPI PUSH1 0x0 DUP1 REVERT JUMPDEST PUSH1 0x20 DUP4 ADD SWAP5 POP DUP1 SWAP4 POP POP POP POP SWAP3 POP SWAP3 POP SWAP3 JUMP JUMPDEST PUSH1 0x0 JUMPDEST DUP4 DUP2 LT ISZERO PUSH2 0x7E9 JUMPI DUP2 DUP2 ADD MLOAD DUP4 DUP3 ADD MSTORE PUSH1 0x20 ADD PUSH2 0x7D1 JUMP JUMPDEST DUP4 DUP2 GT ISZERO PUSH2 0x411 JUMPI POP POP PUSH1 0x0 SWAP2 ADD MSTORE JUMP JUMPDEST PUSH1 0x0 DUP3 MLOAD PUSH2 0x80C DUP2 DUP5 PUSH1 0x20 DUP8 ADD PUSH2 0x7CE JUMP JUMPDEST SWAP2 SWAP1 SWAP2 ADD SWAP3 SWAP2 POP POP JUMP JUMPDEST PUSH1 0x20 DUP2 MSTORE PUSH1 0x0 DUP3 MLOAD DUP1 PUSH1 0x20 DUP5 ADD MSTORE PUSH2 0x835 DUP2 PUSH1 0x40 DUP6 ADD PUSH1 0x20 DUP8 ADD PUSH2 0x7CE JUMP JUMPDEST PUSH1 0x1F ADD PUSH1 0x1F NOT AND SWAP2 SWAP1 SWAP2 ADD PUSH1 0x40 ADD SWAP3 SWAP2 POP POP JUMP INVALID COINBASE PUSH5 0x6472657373 GASPRICE KECCAK256 PUSH13 0x6F772D6C6576656C2064656C65 PUSH8 0x6174652063616C6C KECCAK256 PUSH7 0x61696C6564A264 PUSH10 0x706673582212200FEED0 GASLIMIT 0xAD PUSH2 0xCD00 PUSH1 0x0 0x49 0xAC 0xD9 0xC8 0xCC 0xBB 0xE4 0xBC 0xD3 PUSH31 0x9628FDC0F76CBD4D3AF363D864736F6C634300080B0033B53127684A568B31 PUSH20 0xAE13B9F8A6016E243E63B6E8EE1178D6A717850B 0x5D PUSH2 0x336 ADDMOD SWAP5 LOG1 EXTCODESIZE LOG1 LOG3 0x21 MOD PUSH8 0xC828492DB98DCA3E KECCAK256 PUSH23 0xCC3735A920A3CA505D382BBC416464726573733A206C6F PUSH24 0x2D6C6576656C2064656C65676174652063616C6C20666169 PUSH13 0x65640000000000000000000000 "
        },
        "methodIdentifiers": {
          "_admin()": "01bc45c9",
          "_implementation()": "59679b0f",
          "admin()": "f851a440",
          "changeAdmin(address)": "8f283970",
          "implementation()": "5c60da1b",
          "upgradeTo(address)": "3659cfe6",
          "upgradeToAndCall(address,bytes)": "4f1ef286"
        }
      },
      "storageLayout": {
        "storage": [],
        "types": null
      }
    }
  }
}