{
  "_format": "hh-sol-artifact-1",
  "contractName": "Signatures",
  "sourceName": "contracts/Signatures.sol",
  "abi": [
    {
      "inputs": [],
      "stateMutability": "nonpayable",
      "type": "constructor"
    },
    {
      "anonymous": false,
      "inputs": [
        {
          "indexed": false,
          "internalType": "address",
          "name": "account",
          "type": "address"
        }
      ],
      "name": "Paused",
      "type": "event"
    },
    {
      "anonymous": false,
      "inputs": [
        {
          "indexed": true,
          "internalType": "bytes32",
          "name": "role",
          "type": "bytes32"
        },
        {
          "indexed": true,
          "internalType": "address",
          "name": "account",
          "type": "address"
        },
        {
          "indexed": true,
          "internalType": "address",
          "name": "sender",
          "type": "address"
        }
      ],
      "name": "RoleGranted",
      "type": "event"
    },
    {
      "anonymous": false,
      "inputs": [
        {
          "indexed": true,
          "internalType": "bytes32",
          "name": "role",
          "type": "bytes32"
        },
        {
          "indexed": true,
          "internalType": "address",
          "name": "account",
          "type": "address"
        },
        {
          "indexed": true,
          "internalType": "address",
          "name": "sender",
          "type": "address"
        }
      ],
      "name": "RoleRevoked",
      "type": "event"
    },
    {
      "anonymous": false,
      "inputs": [
        {
          "indexed": true,
          "internalType": "uint8",
          "name": "originDomainID",
          "type": "uint8"
        },
        {
          "indexed": true,
          "internalType": "uint8",
          "name": "destinationDomainID",
          "type": "uint8"
        },
        {
          "indexed": false,
          "internalType": "uint64",
          "name": "depositNonce",
          "type": "uint64"
        },
        {
          "indexed": true,
          "internalType": "bytes32",
          "name": "resourceID",
          "type": "bytes32"
        },
        {
          "indexed": false,
          "internalType": "bytes",
          "name": "data",
          "type": "bytes"
        },
        {
          "indexed": false,
          "internalType": "bytes",
          "name": "signature",
          "type": "bytes"
        }
      ],
      "name": "SignaturePass",
      "type": "event"
    },
    {
      "anonymous": false,
      "inputs": [
        {
          "indexed": true,
          "internalType": "uint8",
          "name": "originDomainID",
          "type": "uint8"
        },
        {
          "indexed": true,
          "internalType": "uint8",
          "name": "destinationDomainID",
          "type": "uint8"
        },
        {
          "indexed": false,
          "internalType": "uint64",
          "name": "depositNonce",
          "type": "uint64"
        },
        {
          "indexed": true,
          "internalType": "bytes32",
          "name": "resourceID",
          "type": "bytes32"
        },
        {
          "indexed": false,
          "internalType": "bytes",
          "name": "data",
          "type": "bytes"
        },
        {
          "indexed": false,
          "internalType": "bytes",
          "name": "signature",
          "type": "bytes"
        }
      ],
      "name": "SubmitSignature",
      "type": "event"
    },
    {
      "anonymous": false,
      "inputs": [
        {
          "indexed": false,
          "internalType": "address",
          "name": "account",
          "type": "address"
        }
      ],
      "name": "Unpaused",
      "type": "event"
    },
    {
      "inputs": [],
      "name": "DEFAULT_ADMIN_ROLE",
      "outputs": [
        {
          "internalType": "bytes32",
          "name": "",
          "type": "bytes32"
        }
      ],
      "stateMutability": "view",
      "type": "function"
    },
    {
      "inputs": [],
      "name": "PERMIT_TYPEHASH",
      "outputs": [
        {
          "internalType": "bytes32",
          "name": "",
          "type": "bytes32"
        }
      ],
      "stateMutability": "view",
      "type": "function"
    },
    {
      "inputs": [],
      "name": "RELAYER_ROLE",
      "outputs": [
        {
          "internalType": "bytes32",
          "name": "",
          "type": "bytes32"
        }
      ],
      "stateMutability": "view",
      "type": "function"
    },
    {
      "inputs": [],
      "name": "_TYPE_HASH",
      "outputs": [
        {
          "internalType": "bytes32",
          "name": "",
          "type": "bytes32"
        }
      ],
      "stateMutability": "view",
      "type": "function"
    },
    {
      "inputs": [
        {
          "internalType": "uint8",
          "name": "",
          "type": "uint8"
        }
      ],
      "name": "_relayerThreshold",
      "outputs": [
        {
          "internalType": "uint8",
          "name": "",
          "type": "uint8"
        }
      ],
      "stateMutability": "view",
      "type": "function"
    },
    {
      "inputs": [
        {
          "internalType": "uint8",
          "name": "destinationDomainID",
          "type": "uint8"
        },
        {
          "internalType": "uint256",
          "name": "newThreshold",
          "type": "uint256"
        }
      ],
      "name": "adminChangeRelayerThreshold",
      "outputs": [],
      "stateMutability": "nonpayable",
      "type": "function"
    },
    {
      "inputs": [],
      "name": "adminPause",
      "outputs": [],
      "stateMutability": "nonpayable",
      "type": "function"
    },
    {
      "inputs": [
        {
          "internalType": "uint8",
          "name": "destinationDomainID",
          "type": "uint8"
        },
        {
          "internalType": "uint256",
          "name": "chainId",
          "type": "uint256"
        },
        {
          "internalType": "address",
          "name": "destinationBridge",
          "type": "address"
        }
      ],
      "name": "adminSetDestChainId",
      "outputs": [],
      "stateMutability": "nonpayable",
      "type": "function"
    },
    {
      "inputs": [],
      "name": "adminUnpause",
      "outputs": [],
      "stateMutability": "nonpayable",
      "type": "function"
    },
    {
      "inputs": [
        {
          "internalType": "uint8",
          "name": "domainID",
          "type": "uint8"
        },
        {
          "internalType": "uint8",
          "name": "destinationDomainID",
          "type": "uint8"
        },
        {
          "internalType": "uint64",
          "name": "depositNonce",
          "type": "uint64"
        },
        {
          "internalType": "bytes32",
          "name": "resourceID",
          "type": "bytes32"
        },
        {
          "internalType": "bytes",
          "name": "data",
          "type": "bytes"
        },
        {
          "internalType": "bytes",
          "name": "signature",
          "type": "bytes"
        }
      ],
      "name": "checkSignature",
      "outputs": [
        {
          "internalType": "address",
          "name": "",
          "type": "address"
        }
      ],
      "stateMutability": "view",
      "type": "function"
    },
    {
      "inputs": [
        {
          "internalType": "uint8",
          "name": "",
          "type": "uint8"
        }
      ],
      "name": "destChainId",
      "outputs": [
        {
          "internalType": "uint256",
          "name": "",
          "type": "uint256"
        }
      ],
      "stateMutability": "view",
      "type": "function"
    },
    {
      "inputs": [
        {
          "internalType": "uint8",
          "name": "",
          "type": "uint8"
        }
      ],
      "name": "destinationBridgeAddress",
      "outputs": [
        {
          "internalType": "address",
          "name": "",
          "type": "address"
        }
      ],
      "stateMutability": "view",
      "type": "function"
    },
    {
      "inputs": [
        {
          "internalType": "uint256",
          "name": "index",
          "type": "uint256"
        }
      ],
      "name": "getProposal",
      "outputs": [
        {
          "components": [
            {
              "internalType": "uint8",
              "name": "originDomainID",
              "type": "uint8"
            },
            {
              "internalType": "uint8",
              "name": "destinationDomainID",
              "type": "uint8"
            },
            {
              "internalType": "address",
              "name": "destinationBridge",
              "type": "address"
            },
            {
              "internalType": "uint64",
              "name": "depositNonce",
              "type": "uint64"
            },
            {
              "internalType": "bytes32",
              "name": "resourceID",
              "type": "bytes32"
            },
            {
              "internalType": "bytes",
              "name": "data",
              "type": "bytes"
            },
            {
              "internalType": "uint256",
              "name": "proposalIndex",
              "type": "uint256"
            }
          ],
          "internalType": "struct Signatures.Proposal",
          "name": "",
          "type": "tuple"
        }
      ],
      "stateMutability": "view",
      "type": "function"
    },
    {
      "inputs": [
        {
          "internalType": "bytes32",
          "name": "role",
          "type": "bytes32"
        }
      ],
      "name": "getRoleAdmin",
      "outputs": [
        {
          "internalType": "bytes32",
          "name": "",
          "type": "bytes32"
        }
      ],
      "stateMutability": "view",
      "type": "function"
    },
    {
      "inputs": [
        {
          "internalType": "bytes32",
          "name": "role",
          "type": "bytes32"
        },
        {
          "internalType": "uint256",
          "name": "index",
          "type": "uint256"
        }
      ],
      "name": "getRoleMember",
      "outputs": [
        {
          "internalType": "address",
          "name": "",
          "type": "address"
        }
      ],
      "stateMutability": "view",
      "type": "function"
    },
    {
      "inputs": [
        {
          "internalType": "bytes32",
          "name": "role",
          "type": "bytes32"
        }
      ],
      "name": "getRoleMemberCount",
      "outputs": [
        {
          "internalType": "uint256",
          "name": "",
          "type": "uint256"
        }
      ],
      "stateMutability": "view",
      "type": "function"
    },
    {
      "inputs": [
        {
          "internalType": "bytes32",
          "name": "role",
          "type": "bytes32"
        },
        {
          "internalType": "address",
          "name": "account",
          "type": "address"
        }
      ],
      "name": "getRoleMemberIndex",
      "outputs": [
        {
          "internalType": "uint256",
          "name": "",
          "type": "uint256"
        }
      ],
      "stateMutability": "view",
      "type": "function"
    },
    {
      "inputs": [
        {
          "internalType": "uint8",
          "name": "domainID",
          "type": "uint8"
        },
        {
          "internalType": "uint64",
          "name": "depositNonce",
          "type": "uint64"
        },
        {
          "internalType": "bytes32",
          "name": "resourceID",
          "type": "bytes32"
        },
        {
          "internalType": "bytes",
          "name": "data",
          "type": "bytes"
        }
      ],
      "name": "getSignatures",
      "outputs": [
        {
          "internalType": "bytes[]",
          "name": "",
          "type": "bytes[]"
        }
      ],
      "stateMutability": "view",
      "type": "function"
    },
    {
      "inputs": [
        {
          "internalType": "uint256",
          "name": "index",
          "type": "uint256"
        }
      ],
      "name": "getSignatures",
      "outputs": [
        {
          "internalType": "bytes[]",
          "name": "",
          "type": "bytes[]"
        }
      ],
      "stateMutability": "view",
      "type": "function"
    },
    {
      "inputs": [
        {
          "internalType": "bytes32",
          "name": "role",
          "type": "bytes32"
        },
        {
          "internalType": "address",
          "name": "account",
          "type": "address"
        }
      ],
      "name": "grantRole",
      "outputs": [],
      "stateMutability": "nonpayable",
      "type": "function"
    },
    {
      "inputs": [
        {
          "internalType": "bytes32",
          "name": "role",
          "type": "bytes32"
        },
        {
          "internalType": "address",
          "name": "account",
          "type": "address"
        }
      ],
      "name": "hasRole",
      "outputs": [
        {
          "internalType": "bool",
          "name": "",
          "type": "bool"
        }
      ],
      "stateMutability": "view",
      "type": "function"
    },
    {
      "inputs": [
        {
          "internalType": "bytes",
          "name": "",
          "type": "bytes"
        }
      ],
      "name": "hasVote",
      "outputs": [
        {
          "internalType": "bool",
          "name": "",
          "type": "bool"
        }
      ],
      "stateMutability": "view",
      "type": "function"
    },
    {
      "inputs": [
        {
          "internalType": "uint256",
          "name": "",
          "type": "uint256"
        }
      ],
      "name": "indexToProposal",
      "outputs": [
        {
          "internalType": "bytes32",
          "name": "",
          "type": "bytes32"
        }
      ],
      "stateMutability": "view",
      "type": "function"
    },
    {
      "inputs": [],
      "name": "paused",
      "outputs": [
        {
          "internalType": "bool",
          "name": "",
          "type": "bool"
        }
      ],
      "stateMutability": "view",
      "type": "function"
    },
    {
      "inputs": [],
      "name": "proposalIndex",
      "outputs": [
        {
          "internalType": "uint256",
          "name": "",
          "type": "uint256"
        }
      ],
      "stateMutability": "view",
      "type": "function"
    },
    {
      "inputs": [
        {
          "internalType": "bytes32",
          "name": "",
          "type": "bytes32"
        }
      ],
      "name": "proposals",
      "outputs": [
        {
          "internalType": "uint8",
          "name": "originDomainID",
          "type": "uint8"
        },
        {
          "internalType": "uint8",
          "name": "destinationDomainID",
          "type": "uint8"
        },
        {
          "internalType": "address",
          "name": "destinationBridge",
          "type": "address"
        },
        {
          "internalType": "uint64",
          "name": "depositNonce",
          "type": "uint64"
        },
        {
          "internalType": "bytes32",
          "name": "resourceID",
          "type": "bytes32"
        },
        {
          "internalType": "bytes",
          "name": "data",
          "type": "bytes"
        },
        {
          "internalType": "uint256",
          "name": "proposalIndex",
          "type": "uint256"
        }
      ],
      "stateMutability": "view",
      "type": "function"
    },
    {
      "inputs": [
        {
          "internalType": "bytes32",
          "name": "",
          "type": "bytes32"
        },
        {
          "internalType": "address",
          "name": "",
          "type": "address"
        }
      ],
      "name": "relayerVote",
      "outputs": [
        {
          "internalType": "bool",
          "name": "",
          "type": "bool"
        }
      ],
      "stateMutability": "view",
      "type": "function"
    },
    {
      "inputs": [
        {
          "internalType": "bytes32",
          "name": "role",
          "type": "bytes32"
        },
        {
          "internalType": "address",
          "name": "account",
          "type": "address"
        }
      ],
      "name": "renounceRole",
      "outputs": [],
      "stateMutability": "nonpayable",
      "type": "function"
    },
    {
      "inputs": [
        {
          "internalType": "bytes32",
          "name": "role",
          "type": "bytes32"
        },
        {
          "internalType": "address",
          "name": "account",
          "type": "address"
        }
      ],
      "name": "revokeRole",
      "outputs": [],
      "stateMutability": "nonpayable",
      "type": "function"
    },
    {
      "inputs": [
        {
          "internalType": "bytes32",
          "name": "",
          "type": "bytes32"
        },
        {
          "internalType": "uint256",
          "name": "",
          "type": "uint256"
        }
      ],
      "name": "signatures",
      "outputs": [
        {
          "internalType": "bytes",
          "name": "",
          "type": "bytes"
        }
      ],
      "stateMutability": "view",
      "type": "function"
    },
    {
      "inputs": [
        {
          "internalType": "uint8",
          "name": "originDomainID",
          "type": "uint8"
        },
        {
          "internalType": "uint8",
          "name": "destinationDomainID",
          "type": "uint8"
        },
        {
          "internalType": "uint64",
          "name": "depositNonce",
          "type": "uint64"
        },
        {
          "internalType": "bytes32",
          "name": "resourceID",
          "type": "bytes32"
        },
        {
          "internalType": "bytes",
          "name": "data",
          "type": "bytes"
        },
        {
          "internalType": "bytes",
          "name": "signature",
          "type": "bytes"
        }
      ],
      "name": "submitSignature",
      "outputs": [],
      "stateMutability": "nonpayable",
      "type": "function"
    }
  ],
  "bytecode": "0x60806040523480156200001157600080fd5b506000805460ff191681556200002890336200002e565b62000119565b6200003a82826200003e565b5050565b600082815260016020908152604090912062000065918390620014e1620000a7821b17901c565b156200003a5760405133906001600160a01b0383169084907f2f8788117e7eff1d82e926ec794901d17c78024a50270940304540a733656f0d90600090a45050565b6000620000be836001600160a01b038416620000c7565b90505b92915050565b60008181526001830160205260408120546200011057508154600181810184556000848152602080822090930184905584548482528286019093526040902091909155620000c1565b506000620000c1565b61239780620001296000396000f3fe608060405234801561001057600080fd5b50600436106101e55760003560e01c806374400fd11161010f578063aa44739d116100a2578063ca15c87311610071578063ca15c873146104f6578063d547741f14610509578063e5787a751461051c578063f4eccb8f1461053c57600080fd5b8063aa44739d14610486578063ab676c26146104bb578063c20860af146104ce578063c7f758a8146104d657600080fd5b8063926d7d7f116100de578063926d7d7f1461043c57806392f9c06714610463578063981533491461046b578063a217fddf1461047e57600080fd5b806374400fd1146103b55780637600c4a5146103d55780639010d07c1461041657806391d148541461042957600080fd5b80633640850b1161018757806350916c7c1161015657806350916c7c1461034c5780635977e0f21461037a5780635c975abb146103835780635d2dab0b1461038e57600080fd5b80633640850b146102f357806336568abe1461031357806336a3a44e146103265780634e0df3f61461033957600080fd5b80632f2ff15d116101c35780632f2ff15d1461027e5780632fda959e1461029357806330adf81f146102a657806332ed5b12146102cd57600080fd5b80630b18fec5146101ea578063248a9ca31461021d5780632703a4fd14610240575b600080fd5b61020a6101f8366004611d1b565b60036020526000908152604090205481565b6040519081526020015b60405180910390f35b61020a61022b366004611d36565b60009081526001602052604090206002015490565b61026e61024e366004611d66565b600660209081526000928352604080842090915290825290205460ff1681565b6040519015158152602001610214565b61029161028c366004611d66565b61054f565b005b6102916102a1366004611d92565b6105e2565b61020a7fc4cb5d35714699d6e85b9562b644e60393b418d974a5c1dd8efaadac37a142c581565b6102e06102db366004611d36565b610636565b6040516102149796959493929190611e09565b61020a610301366004611d36565b600a6020526000908152604090205481565b610291610321366004611d66565b610716565b610291610334366004611e65565b610790565b61020a610347366004611d66565b6107f6565b61026e61035a366004611eb7565b805160208183018101805160058252928201919093012091525460ff1681565b61020a60085481565b60005460ff1661026e565b61020a7f8b73c3c69bb8fe3d512ecc4cf759cc79239f7b179b0ffacaa9a75d522b39400f81565b6103c86103c3366004611f67565b610822565b6040516102149190611f89565b6103fe6103e3366004611d1b565b6007602052600090815260409020546001600160a01b031681565b6040516001600160a01b039091168152602001610214565b6103fe610424366004611f67565b6108db565b61026e610437366004611d66565b6108fa565b61020a7fe2b7fb3b832174769106daebcfd6d1970523240dda11281102db9363b83b0dc481565b610291610912565b610291610479366004611ff4565b610944565b61020a600081565b6104a9610494366004611d1b565b60026020526000908152604090205460ff1681565b60405160ff9091168152602001610214565b6103fe6104c9366004611ff4565b610db6565b610291610ffb565b6104e96104e4366004611d36565b61102b565b604051610214919061209e565b61020a610504366004611d36565b6111c2565b610291610517366004611d66565b6111d9565b61052f61052a36600461211a565b61125a565b6040516102149190612188565b61052f61054a366004611d36565b6113ae565b60008281526001602052604090206002015461056b90336108fa565b6105d45760405162461bcd60e51b815260206004820152602f60248201527f416363657373436f6e74726f6c3a2073656e646572206d75737420626520616e60448201526e0818591b5a5b881d1bc819dc985b9d608a1b60648201526084015b60405180910390fd5b6105de82826114f6565b5050565b6105ed6000336108fa565b6106095760405162461bcd60e51b81526004016105cb906121ea565b6106128161154f565b60ff9283166000908152600260205260409020805460ff1916919093161790915550565b60096020526000908152604090208054600182015460028301805460ff808516956101008604909116946201000081046001600160a01b031694600160b01b9091046001600160401b031693909261068d90612221565b80601f01602080910402602001604051908101604052809291908181526020018280546106b990612221565b80156107065780601f106106db57610100808354040283529160200191610706565b820191906000526020600020905b8154815290600101906020018083116106e957829003601f168201915b5050505050908060030154905087565b6001600160a01b03811633146107865760405162461bcd60e51b815260206004820152602f60248201527f416363657373436f6e74726f6c3a2063616e206f6e6c792072656e6f756e636560448201526e103937b632b9903337b91039b2b63360891b60648201526084016105cb565b6105de82826115a6565b61079b6000336108fa565b6107b75760405162461bcd60e51b81526004016105cb906121ea565b60ff92909216600090815260036020908152604080832093909355600790522080546001600160a01b0319166001600160a01b03909216919091179055565b60008281526001602081815260408084206001600160a01b038616855290920190529020545b92915050565b6004602052816000526040600020818154811061083e57600080fd5b9060005260206000200160009150915050805461085a90612221565b80601f016020809104026020016040519081016040528092919081815260200182805461088690612221565b80156108d35780601f106108a8576101008083540402835291602001916108d3565b820191906000526020600020905b8154815290600101906020018083116108b657829003601f168201915b505050505081565b60008281526001602052604081206108f390836115ff565b9392505050565b60008281526001602052604081206108f3908361160b565b61091d6000336108fa565b6109395760405162461bcd60e51b81526004016105cb906121ea565b6109423361162d565b565b61094c61167f565b60ff87166000908152600760205260408120546001600160a01b0316906109798a8a8a8a8a8a8a8a610db6565b90506109a57fe2b7fb3b832174769106daebcfd6d1970523240dda11281102db9363b83b0dc4826108fa565b6109e55760405162461bcd60e51b8152602060048201526011602482015270696e76616c6964207369676e617475726560781b60448201526064016105cb565b60008a8a8a8a8a8a6040516109fb92919061225c565b6040805191829003822060ff968716602084015294909516948101949094526001600160401b03919091166060840152608083015260a082015260c00160408051601f1981840301815291815281516020928301206000818152600684528281206001600160a01b038716825290935291205490915060ff1615610ac15760405162461bcd60e51b815260206004820152601860248201527f7369676e617475726520616c6561726479207375626d6974000000000000000060448201526064016105cb565b60008181526006602090815260408083206001600160a01b03861684528252808320805460ff1916600117905560ff8d8116845260028352818420548585526004909352922054911611610b4f5760405162461bcd60e51b81526020600482015260156024820152745369676e7475726520616c6561726479207061737360581b60448201526064016105cb565b600081815260046020526040902054610cc45760088054906000610b7283612282565b91905055506040518060e001604052808c60ff1681526020018b60ff168152602001846001600160a01b031681526020018a6001600160401b0316815260200189815260200188888080601f01602080910402602001604051908101604052809392919081815260200183838082843760009201829052509385525050600854602093840152508381526009825260409081902083518154858501519386015160608701516001600160401b0316600160b01b0267ffffffffffffffff60b01b196001600160a01b0390921662010000029190911662010000600160f01b031960ff9687166101000261ffff1990941696909416959095179190911791909116929092179190911781556080830151600182015560a083015180519192610ca192600285019290910190611bfc565b5060c091909101516003909101556008546000908152600a602052604090208190555b6000818152600460209081526040822080546001810182559083529120610ced91018686611c7c565b50878a60ff168c60ff167fdbf724cd2f174f6ee6dc7d45f557ca42e3f0c483d5ac5da1317ade0e540889078c8b8b8b8b604051610d2e9594939291906122c6565b60405180910390a460ff808b16600090815260026020908152604080832054858452600490925290912054911611610da957878a60ff168c60ff167fd94e275aae893bc4cab1c14c3052a527a80ae5542ad2047e0dbe0ceeb79bee018c8b8b8b8b604051610da09594939291906122c6565b60405180910390a45b5050505050505050505050565b6000807fc4cb5d35714699d6e85b9562b644e60393b418d974a5c1dd8efaadac37a142c58a89898989604051610ded92919061225c565b604051908190038120610e30959493929160200194855260ff9390931660208501526001600160401b039190911660408401526060830152608082015260a00190565b60408051601f19818403018152918152815160209283012060ff8c16600090815260078452828120546003909452918220549093506001600160a01b0390921691610fa990849015610e945760ff8d16600090815260036020526040902054610e99565b8c60ff165b604080518082018252600c81526b5065726d697442726964676560a01b6020918201528151808301835260038152620312e360ec1b9082015281517f8b73c3c69bb8fe3d512ecc4cf759cc79239f7b179b0ffacaa9a75d522b39400f818301527f058443738ec3641a3233a9f285e16671e4ad9755445580d761017e695f75052b818401527fe6bbd6277e1bf288eed5e8d1780f9a50b239e86b153736bceebccf4ea79d90b3606082015260808101939093526001600160a01b03871660a0808501919091528251808503909101815260c08401835280519082012061190160f01b60e085015260e284015261010280840194909452815180840390940184526101229092019052815191012090565b9050610feb8187878080601f0160208091040260200160405190810160405280939291908181526020018383808284376000920191909152506116c592505050565b9c9b505050505050505050505050565b6110066000336108fa565b6110225760405162461bcd60e51b81526004016105cb906121ea565b610942336116e9565b6040805160e08101825260008082526020820181905291810182905260608082018390526080820183905260a082015260c08101919091526008548211156110aa5760405162461bcd60e51b8152602060048201526012602482015271141c9bdc1bdcd85b081b9bdd08195e1a5cdd60721b60448201526064016105cb565b6000828152600a602090815260408083205483526009825291829020825160e081018452815460ff8082168352610100820416938201939093526201000083046001600160a01b031693810193909352600160b01b9091046001600160401b031660608301526001810154608083015260028101805460a08401919061112f90612221565b80601f016020809104026020016040519081016040528092919081815260200182805461115b90612221565b80156111a85780601f1061117d576101008083540402835291602001916111a8565b820191906000526020600020905b81548152906001019060200180831161118b57829003601f168201915b505050505081526020016003820154815250509050919050565b600081815260016020526040812061081c90611737565b6000828152600160205260409020600201546111f590336108fa565b6107865760405162461bcd60e51b815260206004820152603060248201527f416363657373436f6e74726f6c3a2073656e646572206d75737420626520616e60448201526f2061646d696e20746f207265766f6b6560801b60648201526084016105cb565b606060046000878787878760405161127392919061225c565b6040519081900381206112af9493929160200160ff9490941684526001600160401b039290921660208401526040830152606082015260800190565b604051602081830303815290604052805190602001208152602001908152602001600020805480602002602001604051908101604052809291908181526020016000905b8282101561139f57838290600052602060002001805461131290612221565b80601f016020809104026020016040519081016040528092919081815260200182805461133e90612221565b801561138b5780601f106113605761010080835404028352916020019161138b565b820191906000526020600020905b81548152906001019060200180831161136e57829003601f168201915b5050505050815260200190600101906112f3565b50505050905095945050505050565b60606008548211156113f75760405162461bcd60e51b8152602060048201526012602482015271141c9bdc1bdcd85b081b9bdd08195e1a5cdd60721b60448201526064016105cb565b6000828152600a602090815260408083205483526004825280832080548251818502810185019093528083529193909284015b828210156114d657838290600052602060002001805461144990612221565b80601f016020809104026020016040519081016040528092919081815260200182805461147590612221565b80156114c25780601f10611497576101008083540402835291602001916114c2565b820191906000526020600020905b8154815290600101906020018083116114a557829003601f168201915b50505050508152602001906001019061142a565b505050509050919050565b60006108f3836001600160a01b038416611741565b600082815260016020526040902061150e90826114e1565b156105de5760405133906001600160a01b0383169084907f2f8788117e7eff1d82e926ec794901d17c78024a50270940304540a733656f0d90600090a45050565b600061010082106115a25760405162461bcd60e51b815260206004820152601c60248201527f76616c756520646f6573206e6f742066697420696e203820626974730000000060448201526064016105cb565b5090565b60008281526001602052604090206115be9082611790565b156105de5760405133906001600160a01b0383169084907ff6391f5c32d9c69d2a47ea670b442974b53935d1edc7fd64eb21e047a839171b90600090a45050565b60006108f383836117a5565b6001600160a01b038116600090815260018301602052604081205415156108f3565b6116356117cf565b6000805460ff191690556040516001600160a01b03821681527f5db9ee0a495bf2e6ff9c91a7834c1ba4fdd244a5e8aa4e537bd38aeae4b073aa906020015b60405180910390a150565b60005460ff16156109425760405162461bcd60e51b815260206004820152601060248201526f14185d5cd8589b194e881c185d5cd95960821b60448201526064016105cb565b60008060006116d48585611818565b915091506116e18161185e565b509392505050565b6116f161167f565b6000805460ff191660011790556040516001600160a01b03821681527f62e78cea01bee320cd4e420270b5ea74000d11b0c9f74754ebdbfc544b05a25890602001611674565b600061081c825490565b60008181526001830160205260408120546117885750815460018181018455600084815260208082209093018490558454848252828601909352604090209190915561081c565b50600061081c565b60006108f3836001600160a01b038416611a1c565b60008260000182815481106117bc576117bc612308565b9060005260206000200154905092915050565b60005460ff166109425760405162461bcd60e51b815260206004820152601460248201527314185d5cd8589b194e881b9bdd081c185d5cd95960621b60448201526064016105cb565b60008082516041141561184f5760208301516040840151606085015160001a61184387828585611b0f565b94509450505050611857565b506000905060025b9250929050565b60008160048111156118725761187261231e565b141561187b5750565b600181600481111561188f5761188f61231e565b14156118dd5760405162461bcd60e51b815260206004820152601860248201527f45434453413a20696e76616c6964207369676e6174757265000000000000000060448201526064016105cb565b60028160048111156118f1576118f161231e565b141561193f5760405162461bcd60e51b815260206004820152601f60248201527f45434453413a20696e76616c6964207369676e6174757265206c656e6774680060448201526064016105cb565b60038160048111156119535761195361231e565b14156119ac5760405162461bcd60e51b815260206004820152602260248201527f45434453413a20696e76616c6964207369676e6174757265202773272076616c604482015261756560f01b60648201526084016105cb565b60048160048111156119c0576119c061231e565b1415611a195760405162461bcd60e51b815260206004820152602260248201527f45434453413a20696e76616c6964207369676e6174757265202776272076616c604482015261756560f01b60648201526084016105cb565b50565b60008181526001830160205260408120548015611b05576000611a40600183612334565b8554909150600090611a5490600190612334565b9050818114611ab9576000866000018281548110611a7457611a74612308565b9060005260206000200154905080876000018481548110611a9757611a97612308565b6000918252602080832090910192909255918252600188019052604090208390555b8554869080611aca57611aca61234b565b60019003818190600052602060002001600090559055856001016000868152602001908152602001600020600090556001935050505061081c565b600091505061081c565b6000807f7fffffffffffffffffffffffffffffff5d576e7357a4501ddfe92f46681b20a0831115611b465750600090506003611bf3565b8460ff16601b14158015611b5e57508460ff16601c14155b15611b6f5750600090506004611bf3565b6040805160008082526020820180845289905260ff881692820192909252606081018690526080810185905260019060a0016020604051602081039080840390855afa158015611bc3573d6000803e3d6000fd5b5050604051601f1901519150506001600160a01b038116611bec57600060019250925050611bf3565b9150600090505b94509492505050565b828054611c0890612221565b90600052602060002090601f016020900481019282611c2a5760008555611c70565b82601f10611c4357805160ff1916838001178555611c70565b82800160010185558215611c70579182015b82811115611c70578251825591602001919060010190611c55565b506115a2929150611cf0565b828054611c8890612221565b90600052602060002090601f016020900481019282611caa5760008555611c70565b82601f10611cc35782800160ff19823516178555611c70565b82800160010185558215611c70579182015b82811115611c70578235825591602001919060010190611cd5565b5b808211156115a25760008155600101611cf1565b803560ff81168114611d1657600080fd5b919050565b600060208284031215611d2d57600080fd5b6108f382611d05565b600060208284031215611d4857600080fd5b5035919050565b80356001600160a01b0381168114611d1657600080fd5b60008060408385031215611d7957600080fd5b82359150611d8960208401611d4f565b90509250929050565b60008060408385031215611da557600080fd5b611dae83611d05565b946020939093013593505050565b6000815180845260005b81811015611de257602081850181015186830182015201611dc6565b81811115611df4576000602083870101525b50601f01601f19169290920160200192915050565b60ff8816815260ff8716602082015260018060a01b03861660408201526001600160401b038516606082015283608082015260e060a08201526000611e5160e0830185611dbc565b90508260c083015298975050505050505050565b600080600060608486031215611e7a57600080fd5b611e8384611d05565b925060208401359150611e9860408501611d4f565b90509250925092565b634e487b7160e01b600052604160045260246000fd5b600060208284031215611ec957600080fd5b81356001600160401b0380821115611ee057600080fd5b818401915084601f830112611ef457600080fd5b813581811115611f0657611f06611ea1565b604051601f8201601f19908116603f01168101908382118183101715611f2e57611f2e611ea1565b81604052828152876020848701011115611f4757600080fd5b826020860160208301376000928101602001929092525095945050505050565b60008060408385031215611f7a57600080fd5b50508035926020909101359150565b6020815260006108f36020830184611dbc565b80356001600160401b0381168114611d1657600080fd5b60008083601f840112611fc557600080fd5b5081356001600160401b03811115611fdc57600080fd5b60208301915083602082850101111561185757600080fd5b60008060008060008060008060c0898b03121561201057600080fd5b61201989611d05565b975061202760208a01611d05565b965061203560408a01611f9c565b95506060890135945060808901356001600160401b038082111561205857600080fd5b6120648c838d01611fb3565b909650945060a08b013591508082111561207d57600080fd5b5061208a8b828c01611fb3565b999c989b5096995094979396929594505050565b6020815260ff825116602082015260ff602083015116604082015260018060a01b0360408301511660608201526001600160401b036060830151166080820152608082015160a0820152600060a083015160e060c0840152612104610100840182611dbc565b905060c084015160e08401528091505092915050565b60008060008060006080868803121561213257600080fd5b61213b86611d05565b945061214960208701611f9c565b93506040860135925060608601356001600160401b0381111561216b57600080fd5b61217788828901611fb3565b969995985093965092949392505050565b6000602080830181845280855180835260408601915060408160051b870101925083870160005b828110156121dd57603f198886030184526121cb858351611dbc565b945092850192908501906001016121af565b5092979650505050505050565b6020808252601e908201527f73656e64657220646f65736e277420686176652061646d696e20726f6c650000604082015260600190565b600181811c9082168061223557607f821691505b6020821081141561225657634e487b7160e01b600052602260045260246000fd5b50919050565b8183823760009101908152919050565b634e487b7160e01b600052601160045260246000fd5b60006000198214156122965761229661226c565b5060010190565b81835281816020850137506000828201602090810191909152601f909101601f19169091010190565b6001600160401b03861681526060602082015260006122e960608301868861229d565b82810360408401526122fc81858761229d565b98975050505050505050565b634e487b7160e01b600052603260045260246000fd5b634e487b7160e01b600052602160045260246000fd5b6000828210156123465761234661226c565b500390565b634e487b7160e01b600052603160045260246000fdfea2646970667358221220fbf0e600afaf1f792ccf0c5cf77d4006d958ba042e1b29748ffd65041e4fed3e64736f6c634300080b0033",
  "linkReferences": {},
  "deployedLinkReferences": {}
}