{
  "_format": "hh-sol-artifact-1",
  "contractName": "Signatures",
  "sourceName": "contracts/Signatures.sol",
  "abi": [
    {
      "inputs": [],
      "stateMutability": "nonpayable",
      "type": "constructor"
    },
    {
      "anonymous": false,
      "inputs": [
        {
          "indexed": true,
          "internalType": "bytes32",
          "name": "role",
          "type": "bytes32"
        },
        {
          "indexed": true,
          "internalType": "address",
          "name": "account",
          "type": "address"
        },
        {
          "indexed": true,
          "internalType": "address",
          "name": "sender",
          "type": "address"
        }
      ],
      "name": "RoleGranted",
      "type": "event"
    },
    {
      "anonymous": false,
      "inputs": [
        {
          "indexed": true,
          "internalType": "bytes32",
          "name": "role",
          "type": "bytes32"
        },
        {
          "indexed": true,
          "internalType": "address",
          "name": "account",
          "type": "address"
        },
        {
          "indexed": true,
          "internalType": "address",
          "name": "sender",
          "type": "address"
        }
      ],
      "name": "RoleRevoked",
      "type": "event"
    },
    {
      "anonymous": false,
      "inputs": [
        {
          "indexed": true,
          "internalType": "uint8",
          "name": "originDomainID",
          "type": "uint8"
        },
        {
          "indexed": true,
          "internalType": "uint8",
          "name": "destinationDomainID",
          "type": "uint8"
        },
        {
          "indexed": false,
          "internalType": "uint64",
          "name": "depositNonce",
          "type": "uint64"
        },
        {
          "indexed": true,
          "internalType": "bytes32",
          "name": "resourceID",
          "type": "bytes32"
        },
        {
          "indexed": false,
          "internalType": "bytes",
          "name": "data",
          "type": "bytes"
        },
        {
          "indexed": false,
          "internalType": "bytes",
          "name": "signature",
          "type": "bytes"
        }
      ],
      "name": "SignturePass",
      "type": "event"
    },
    {
      "anonymous": false,
      "inputs": [
        {
          "indexed": true,
          "internalType": "uint8",
          "name": "originDomainID",
          "type": "uint8"
        },
        {
          "indexed": true,
          "internalType": "uint8",
          "name": "destinationDomainID",
          "type": "uint8"
        },
        {
          "indexed": false,
          "internalType": "uint64",
          "name": "depositNonce",
          "type": "uint64"
        },
        {
          "indexed": true,
          "internalType": "bytes32",
          "name": "resourceID",
          "type": "bytes32"
        },
        {
          "indexed": false,
          "internalType": "bytes",
          "name": "data",
          "type": "bytes"
        },
        {
          "indexed": false,
          "internalType": "bytes",
          "name": "signature",
          "type": "bytes"
        }
      ],
      "name": "SubmitSignature",
      "type": "event"
    },
    {
      "inputs": [],
      "name": "DEFAULT_ADMIN_ROLE",
      "outputs": [
        {
          "internalType": "bytes32",
          "name": "",
          "type": "bytes32"
        }
      ],
      "stateMutability": "view",
      "type": "function"
    },
    {
      "inputs": [],
      "name": "PERMIT_TYPEHASH",
      "outputs": [
        {
          "internalType": "bytes32",
          "name": "",
          "type": "bytes32"
        }
      ],
      "stateMutability": "view",
      "type": "function"
    },
    {
      "inputs": [],
      "name": "RELAYER_ROLE",
      "outputs": [
        {
          "internalType": "bytes32",
          "name": "",
          "type": "bytes32"
        }
      ],
      "stateMutability": "view",
      "type": "function"
    },
    {
      "inputs": [],
      "name": "_TYPE_HASH",
      "outputs": [
        {
          "internalType": "bytes32",
          "name": "",
          "type": "bytes32"
        }
      ],
      "stateMutability": "view",
      "type": "function"
    },
    {
      "inputs": [
        {
          "internalType": "uint8",
          "name": "",
          "type": "uint8"
        }
      ],
      "name": "_relayerThreshold",
      "outputs": [
        {
          "internalType": "uint8",
          "name": "",
          "type": "uint8"
        }
      ],
      "stateMutability": "view",
      "type": "function"
    },
    {
      "inputs": [
        {
          "internalType": "uint8",
          "name": "destinationDomainID",
          "type": "uint8"
        },
        {
          "internalType": "uint256",
          "name": "newThreshold",
          "type": "uint256"
        }
      ],
      "name": "adminChangeRelayerThreshold",
      "outputs": [],
      "stateMutability": "nonpayable",
      "type": "function"
    },
    {
      "inputs": [
        {
          "internalType": "uint8",
          "name": "destinationDomainID",
          "type": "uint8"
        },
        {
          "internalType": "uint256",
          "name": "chainId",
          "type": "uint256"
        }
      ],
      "name": "adminSetDestChainId",
      "outputs": [],
      "stateMutability": "nonpayable",
      "type": "function"
    },
    {
      "inputs": [
        {
          "internalType": "uint8",
          "name": "domainID",
          "type": "uint8"
        },
        {
          "internalType": "uint8",
          "name": "destinationDomainID",
          "type": "uint8"
        },
        {
          "internalType": "address",
          "name": "destinationBridge",
          "type": "address"
        },
        {
          "internalType": "uint64",
          "name": "depositNonce",
          "type": "uint64"
        },
        {
          "internalType": "bytes32",
          "name": "resourceID",
          "type": "bytes32"
        },
        {
          "internalType": "bytes",
          "name": "data",
          "type": "bytes"
        },
        {
          "internalType": "bytes",
          "name": "signature",
          "type": "bytes"
        }
      ],
      "name": "checkSignature",
      "outputs": [
        {
          "internalType": "address",
          "name": "",
          "type": "address"
        }
      ],
      "stateMutability": "view",
      "type": "function"
    },
    {
      "inputs": [
        {
          "internalType": "uint8",
          "name": "",
          "type": "uint8"
        }
      ],
      "name": "destChainId",
      "outputs": [
        {
          "internalType": "uint256",
          "name": "",
          "type": "uint256"
        }
      ],
      "stateMutability": "view",
      "type": "function"
    },
    {
      "inputs": [
        {
          "internalType": "bytes32",
          "name": "role",
          "type": "bytes32"
        }
      ],
      "name": "getRoleAdmin",
      "outputs": [
        {
          "internalType": "bytes32",
          "name": "",
          "type": "bytes32"
        }
      ],
      "stateMutability": "view",
      "type": "function"
    },
    {
      "inputs": [
        {
          "internalType": "bytes32",
          "name": "role",
          "type": "bytes32"
        },
        {
          "internalType": "uint256",
          "name": "index",
          "type": "uint256"
        }
      ],
      "name": "getRoleMember",
      "outputs": [
        {
          "internalType": "address",
          "name": "",
          "type": "address"
        }
      ],
      "stateMutability": "view",
      "type": "function"
    },
    {
      "inputs": [
        {
          "internalType": "bytes32",
          "name": "role",
          "type": "bytes32"
        }
      ],
      "name": "getRoleMemberCount",
      "outputs": [
        {
          "internalType": "uint256",
          "name": "",
          "type": "uint256"
        }
      ],
      "stateMutability": "view",
      "type": "function"
    },
    {
      "inputs": [
        {
          "internalType": "bytes32",
          "name": "role",
          "type": "bytes32"
        },
        {
          "internalType": "address",
          "name": "account",
          "type": "address"
        }
      ],
      "name": "getRoleMemberIndex",
      "outputs": [
        {
          "internalType": "uint256",
          "name": "",
          "type": "uint256"
        }
      ],
      "stateMutability": "view",
      "type": "function"
    },
    {
      "inputs": [
        {
          "internalType": "uint8",
          "name": "domainID",
          "type": "uint8"
        },
        {
          "internalType": "uint64",
          "name": "depositNonce",
          "type": "uint64"
        },
        {
          "internalType": "bytes32",
          "name": "resourceID",
          "type": "bytes32"
        },
        {
          "internalType": "bytes",
          "name": "data",
          "type": "bytes"
        }
      ],
      "name": "getSignatures",
      "outputs": [
        {
          "internalType": "bytes[]",
          "name": "",
          "type": "bytes[]"
        }
      ],
      "stateMutability": "view",
      "type": "function"
    },
    {
      "inputs": [
        {
          "internalType": "bytes32",
          "name": "role",
          "type": "bytes32"
        },
        {
          "internalType": "address",
          "name": "account",
          "type": "address"
        }
      ],
      "name": "grantRole",
      "outputs": [],
      "stateMutability": "nonpayable",
      "type": "function"
    },
    {
      "inputs": [
        {
          "internalType": "bytes32",
          "name": "role",
          "type": "bytes32"
        },
        {
          "internalType": "address",
          "name": "account",
          "type": "address"
        }
      ],
      "name": "hasRole",
      "outputs": [
        {
          "internalType": "bool",
          "name": "",
          "type": "bool"
        }
      ],
      "stateMutability": "view",
      "type": "function"
    },
    {
      "inputs": [
        {
          "internalType": "bytes",
          "name": "",
          "type": "bytes"
        }
      ],
      "name": "hasVote",
      "outputs": [
        {
          "internalType": "bool",
          "name": "",
          "type": "bool"
        }
      ],
      "stateMutability": "view",
      "type": "function"
    },
    {
      "inputs": [
        {
          "internalType": "bytes32",
          "name": "role",
          "type": "bytes32"
        },
        {
          "internalType": "address",
          "name": "account",
          "type": "address"
        }
      ],
      "name": "renounceRole",
      "outputs": [],
      "stateMutability": "nonpayable",
      "type": "function"
    },
    {
      "inputs": [
        {
          "internalType": "bytes32",
          "name": "role",
          "type": "bytes32"
        },
        {
          "internalType": "address",
          "name": "account",
          "type": "address"
        }
      ],
      "name": "revokeRole",
      "outputs": [],
      "stateMutability": "nonpayable",
      "type": "function"
    },
    {
      "inputs": [
        {
          "internalType": "bytes32",
          "name": "",
          "type": "bytes32"
        },
        {
          "internalType": "uint256",
          "name": "",
          "type": "uint256"
        }
      ],
      "name": "signatures",
      "outputs": [
        {
          "internalType": "bytes",
          "name": "",
          "type": "bytes"
        }
      ],
      "stateMutability": "view",
      "type": "function"
    },
    {
      "inputs": [
        {
          "internalType": "uint8",
          "name": "originDomainID",
          "type": "uint8"
        },
        {
          "internalType": "uint8",
          "name": "destinationDomainID",
          "type": "uint8"
        },
        {
          "internalType": "address",
          "name": "destinationBridge",
          "type": "address"
        },
        {
          "internalType": "uint64",
          "name": "depositNonce",
          "type": "uint64"
        },
        {
          "internalType": "bytes32",
          "name": "resourceID",
          "type": "bytes32"
        },
        {
          "internalType": "bytes",
          "name": "data",
          "type": "bytes"
        },
        {
          "internalType": "bytes",
          "name": "signature",
          "type": "bytes"
        }
      ],
      "name": "submitSignature",
      "outputs": [],
      "stateMutability": "nonpayable",
      "type": "function"
    }
  ],
  "bytecode": "0x600c6080526b5065726d697442726964676560a01b60a0527f058443738ec3641a3233a9f285e16671e4ad9755445580d761017e695f75052b600155610100604052600360c052620312e360ec1b60e0527fe6bbd6277e1bf288eed5e8d1780f9a50b239e86b153736bceebccf4ea79d90b36002553480156200008157600080fd5b506200008f60003362000095565b6200017e565b620000a18282620000a5565b5050565b600082815260208181526040909120620000ca91839062000d606200010c821b17901c565b15620000a15760405133906001600160a01b0383169084907f2f8788117e7eff1d82e926ec794901d17c78024a50270940304540a733656f0d90600090a45050565b600062000123836001600160a01b0384166200012c565b90505b92915050565b6000818152600183016020526040812054620001755750815460018181018455600084815260208082209093018490558454848252828601909352604090209190915562000126565b50600062000126565b61199c806200018e6000396000f3fe608060405234801561001057600080fd5b50600436106101375760003560e01c806374400fd1116100b8578063a217fddf1161007c578063a217fddf14610317578063aa44739d1461031f578063ca15c87314610354578063d547741f14610367578063e5787a751461037a578063f7dbe0921461039a57600080fd5b806374400fd114610297578063861fd043146102b75780639010d07c146102ca57806391d14854146102dd578063926d7d7f146102f057600080fd5b806330adf81f116100ff57806330adf81f146101e557806336568abe1461020c5780634e0df3f61461021f57806350916c7c146102325780635d2dab0b1461027057600080fd5b80630b18fec51461013c5780631f241eca1461016f578063248a9ca31461019a5780632f2ff15d146101bd5780632fda959e146101d2575b600080fd5b61015c61014a366004611455565b60046020526000908152604090205481565b6040519081526020015b60405180910390f35b61018261017d3660046114e1565b6103ad565b6040516001600160a01b039091168152602001610166565b61015c6101a836600461159f565b60009081526020819052604090206002015490565b6101d06101cb3660046115b8565b610576565b005b6101d06101e03660046115e4565b610609565b61015c7fc4cb5d35714699d6e85b9562b644e60393b418d974a5c1dd8efaadac37a142c581565b6101d061021a3660046115b8565b61068d565b61015c61022d3660046115b8565b610707565b610260610240366004611624565b805160208183018101805160068252928201919093012091525460ff1681565b6040519015158152602001610166565b61015c7f8b73c3c69bb8fe3d512ecc4cf759cc79239f7b179b0ffacaa9a75d522b39400f81565b6102aa6102a53660046116d5565b610732565b6040516101669190611744565b6101d06102c53660046114e1565b6107eb565b6101826102d83660046116d5565b610acf565b6102606102eb3660046115b8565b610aee565b61015c7fe2b7fb3b832174769106daebcfd6d1970523240dda11281102db9363b83b0dc481565b61015c600081565b61034261032d366004611455565b60036020526000908152604090205460ff1681565b60405160ff9091168152602001610166565b61015c61036236600461159f565b610b06565b6101d06103753660046115b8565b610b1d565b61038d610388366004611757565b610b9e565b60405161016691906117c6565b6101d06103a83660046115e4565b610cf3565b6000807fc4cb5d35714699d6e85b9562b644e60393b418d974a5c1dd8efaadac37a142c58b898989896040516103e4929190611828565b604051908190038120610428959493929160200194855260ff93909316602085015267ffffffffffffffff9190911660408401526060830152608082015260a00190565b60408051601f19818403018152918152815160209283012060ff8d166000908152600490935290822054909250610524908390156104785760ff8d1660009081526004602052604090205461047d565b8c60ff165b600154600254604080517f8b73c3c69bb8fe3d512ecc4cf759cc79239f7b179b0ffacaa9a75d522b39400f60208083019190915281830194909452606081019290925260808201939093526001600160a01b038f1660a0808301919091528351808303909101815260c08201845280519083012061190160f01b60e083015260e2820152610102808201949094528251808203909401845261012201909152815191012090565b90506105668186868080601f016020809104026020016040519081016040528093929190818152602001838380828437600092019190915250610d7592505050565b9c9b505050505050505050505050565b6000828152602081905260409020600201546105929033610aee565b6105fb5760405162461bcd60e51b815260206004820152602f60248201527f416363657373436f6e74726f6c3a2073656e646572206d75737420626520616e60448201526e0818591b5a5b881d1bc819dc985b9d608a1b60648201526084015b60405180910390fd5b6106058282610d99565b5050565b610614600033610aee565b6106605760405162461bcd60e51b815260206004820152601e60248201527f73656e64657220646f65736e277420686176652061646d696e20726f6c65000060448201526064016105f2565b61066981610df2565b60ff9283166000908152600360205260409020805460ff1916919093161790915550565b6001600160a01b03811633146106fd5760405162461bcd60e51b815260206004820152602f60248201527f416363657373436f6e74726f6c3a2063616e206f6e6c792072656e6f756e636560448201526e103937b632b9903337b91039b2b63360891b60648201526084016105f2565b6106058282610e49565b6000828152602081815260408083206001600160a01b03851684526001019091529020545b92915050565b6005602052816000526040600020818154811061074e57600080fd5b9060005260206000200160009150915050805461076a90611838565b80601f016020809104026020016040519081016040528092919081815260200182805461079690611838565b80156107e35780601f106107b8576101008083540402835291602001916107e3565b820191906000526020600020905b8154815290600101906020018083116107c657829003601f168201915b505050505081565b6108207fe2b7fb3b832174769106daebcfd6d1970523240dda11281102db9363b83b0dc46102eb8b8b8b8b8b8b8b8b8b6103ad565b6108605760405162461bcd60e51b8152602060048201526011602482015270696e76616c6964207369676e617475726560781b60448201526064016105f2565b60068282604051610872929190611828565b9081526040519081900360200190205460ff16156108d25760405162461bcd60e51b815260206004820152601860248201527f7369676e617475726520616c6561726479207375626d6974000000000000000060448201526064016105f2565b600089878787876040516108e7929190611828565b6040519081900381206109249493929160200160ff94909416845267ffffffffffffffff9290921660208401526040830152606082015260800190565b60408051601f19818403018152918152815160209283012060ff808d1660009081526003855283812054838252600590955292909220549093509116116109a55760405162461bcd60e51b81526020600482015260156024820152745369676e7475726520616c6561726479207061737360581b60448201526064016105f2565b60008181526005602090815260408220805460018101825590835291206109ce910184846113af565b506001600684846040516109e3929190611828565b908152602001604051809103902060006101000a81548160ff021916908315150217905550858960ff168b60ff167fdbf724cd2f174f6ee6dc7d45f557ca42e3f0c483d5ac5da1317ade0e540889078a89898989604051610a4895949392919061189c565b60405180910390a460ff808a16600090815260036020908152604080832054858452600590925290912054911611610ac357858960ff168b60ff167f31ad42d947b6829b5c034aaa2c4259af49e84066292aa963a38e2a9dba8206748a89898989604051610aba95949392919061189c565b60405180910390a45b50505050505050505050565b6000828152602081905260408120610ae79083610ea2565b9392505050565b6000828152602081905260408120610ae79083610eae565b600081815260208190526040812061072c90610ed0565b600082815260208190526040902060020154610b399033610aee565b6106fd5760405162461bcd60e51b815260206004820152603060248201527f416363657373436f6e74726f6c3a2073656e646572206d75737420626520616e60448201526f2061646d696e20746f207265766f6b6560801b60648201526084016105f2565b6060600560008787878787604051610bb7929190611828565b604051908190038120610bf49493929160200160ff94909416845267ffffffffffffffff9290921660208401526040830152606082015260800190565b604051602081830303815290604052805190602001208152602001908152602001600020805480602002602001604051908101604052809291908181526020016000905b82821015610ce4578382906000526020600020018054610c5790611838565b80601f0160208091040260200160405190810160405280929190818152602001828054610c8390611838565b8015610cd05780601f10610ca557610100808354040283529160200191610cd0565b820191906000526020600020905b815481529060010190602001808311610cb357829003601f168201915b505050505081526020019060010190610c38565b50505050905095945050505050565b610cfe600033610aee565b610d4a5760405162461bcd60e51b815260206004820152601e60248201527f73656e64657220646f65736e277420686176652061646d696e20726f6c65000060448201526064016105f2565b60ff909116600090815260046020526040902055565b6000610ae7836001600160a01b038416610eda565b6000806000610d848585610f29565b91509150610d9181610f99565b509392505050565b6000828152602081905260409020610db19082610d60565b156106055760405133906001600160a01b0383169084907f2f8788117e7eff1d82e926ec794901d17c78024a50270940304540a733656f0d90600090a45050565b60006101008210610e455760405162461bcd60e51b815260206004820152601c60248201527f76616c756520646f6573206e6f742066697420696e203820626974730000000060448201526064016105f2565b5090565b6000828152602081905260409020610e619082611157565b156106055760405133906001600160a01b0383169084907ff6391f5c32d9c69d2a47ea670b442974b53935d1edc7fd64eb21e047a839171b90600090a45050565b6000610ae7838361116c565b6001600160a01b03811660009081526001830160205260408120541515610ae7565b600061072c825490565b6000818152600183016020526040812054610f215750815460018181018455600084815260208082209093018490558454848252828601909352604090209190915561072c565b50600061072c565b600080825160411415610f605760208301516040840151606085015160001a610f5487828585611196565b94509450505050610f92565b825160401415610f8a5760208301516040840151610f7f868383611283565b935093505050610f92565b506000905060025b9250929050565b6000816004811115610fad57610fad6118df565b1415610fb65750565b6001816004811115610fca57610fca6118df565b14156110185760405162461bcd60e51b815260206004820152601860248201527f45434453413a20696e76616c6964207369676e6174757265000000000000000060448201526064016105f2565b600281600481111561102c5761102c6118df565b141561107a5760405162461bcd60e51b815260206004820152601f60248201527f45434453413a20696e76616c6964207369676e6174757265206c656e6774680060448201526064016105f2565b600381600481111561108e5761108e6118df565b14156110e75760405162461bcd60e51b815260206004820152602260248201527f45434453413a20696e76616c6964207369676e6174757265202773272076616c604482015261756560f01b60648201526084016105f2565b60048160048111156110fb576110fb6118df565b14156111545760405162461bcd60e51b815260206004820152602260248201527f45434453413a20696e76616c6964207369676e6174757265202776272076616c604482015261756560f01b60648201526084016105f2565b50565b6000610ae7836001600160a01b0384166112bc565b6000826000018281548110611183576111836118f5565b9060005260206000200154905092915050565b6000807f7fffffffffffffffffffffffffffffff5d576e7357a4501ddfe92f46681b20a08311156111cd575060009050600361127a565b8460ff16601b141580156111e557508460ff16601c14155b156111f6575060009050600461127a565b6040805160008082526020820180845289905260ff881692820192909252606081018690526080810185905260019060a0016020604051602081039080840390855afa15801561124a573d6000803e3d6000fd5b5050604051601f1901519150506001600160a01b0381166112735760006001925092505061127a565b9150600090505b94509492505050565b6000806001600160ff1b038316816112a060ff86901c601b611921565b90506112ae87828885611196565b935093505050935093915050565b600081815260018301602052604081205480156113a55760006112e0600183611939565b85549091506000906112f490600190611939565b9050818114611359576000866000018281548110611314576113146118f5565b9060005260206000200154905080876000018481548110611337576113376118f5565b6000918252602080832090910192909255918252600188019052604090208390555b855486908061136a5761136a611950565b60019003818190600052602060002001600090559055856001016000868152602001908152602001600020600090556001935050505061072c565b600091505061072c565b8280546113bb90611838565b90600052602060002090601f0160209004810192826113dd5760008555611423565b82601f106113f65782800160ff19823516178555611423565b82800160010185558215611423579182015b82811115611423578235825591602001919060010190611408565b50610e459291505b80821115610e45576000815560010161142b565b803560ff8116811461145057600080fd5b919050565b60006020828403121561146757600080fd5b610ae78261143f565b80356001600160a01b038116811461145057600080fd5b803567ffffffffffffffff8116811461145057600080fd5b60008083601f8401126114b157600080fd5b50813567ffffffffffffffff8111156114c957600080fd5b602083019150836020828501011115610f9257600080fd5b600080600080600080600080600060e08a8c0312156114ff57600080fd5b6115088a61143f565b985061151660208b0161143f565b975061152460408b01611470565b965061153260608b01611487565b955060808a0135945060a08a013567ffffffffffffffff8082111561155657600080fd5b6115628d838e0161149f565b909650945060c08c013591508082111561157b57600080fd5b506115888c828d0161149f565b915080935050809150509295985092959850929598565b6000602082840312156115b157600080fd5b5035919050565b600080604083850312156115cb57600080fd5b823591506115db60208401611470565b90509250929050565b600080604083850312156115f757600080fd5b6116008361143f565b946020939093013593505050565b634e487b7160e01b600052604160045260246000fd5b60006020828403121561163657600080fd5b813567ffffffffffffffff8082111561164e57600080fd5b818401915084601f83011261166257600080fd5b8135818111156116745761167461160e565b604051601f8201601f19908116603f0116810190838211818310171561169c5761169c61160e565b816040528281528760208487010111156116b557600080fd5b826020860160208301376000928101602001929092525095945050505050565b600080604083850312156116e857600080fd5b50508035926020909101359150565b6000815180845260005b8181101561171d57602081850181015186830182015201611701565b8181111561172f576000602083870101525b50601f01601f19169290920160200192915050565b602081526000610ae760208301846116f7565b60008060008060006080868803121561176f57600080fd5b6117788661143f565b945061178660208701611487565b935060408601359250606086013567ffffffffffffffff8111156117a957600080fd5b6117b58882890161149f565b969995985093965092949392505050565b6000602080830181845280855180835260408601915060408160051b870101925083870160005b8281101561181b57603f198886030184526118098583516116f7565b945092850192908501906001016117ed565b5092979650505050505050565b8183823760009101908152919050565b600181811c9082168061184c57607f821691505b6020821081141561186d57634e487b7160e01b600052602260045260246000fd5b50919050565b81835281816020850137506000828201602090810191909152601f909101601f19169091010190565b67ffffffffffffffff861681526060602082015260006118c0606083018688611873565b82810360408401526118d3818587611873565b98975050505050505050565b634e487b7160e01b600052602160045260246000fd5b634e487b7160e01b600052603260045260246000fd5b634e487b7160e01b600052601160045260246000fd5b600082198211156119345761193461190b565b500190565b60008282101561194b5761194b61190b565b500390565b634e487b7160e01b600052603160045260246000fdfea26469706673582212205fce5ad7b52f0b84c8c9cecf97778e4c55103288ff239c74f8587191b2174d4864736f6c634300080b0033",
  "linkReferences": {},
  "deployedLinkReferences": {}
}