{
  "_format": "hh-sol-artifact-1",
  "contractName": "Signatures",
  "sourceName": "contracts/Signatures.sol",
  "abi": [
    {
      "inputs": [
        {
          "internalType": "address",
          "name": "_bridge",
          "type": "address"
        }
      ],
      "stateMutability": "nonpayable",
      "type": "constructor"
    },
    {
      "inputs": [],
      "name": "bridge",
      "outputs": [
        {
          "internalType": "address",
          "name": "",
          "type": "address"
        }
      ],
      "stateMutability": "view",
      "type": "function"
    },
    {
      "inputs": [
        {
          "internalType": "uint8",
          "name": "domainID",
          "type": "uint8"
        },
        {
          "internalType": "uint64",
          "name": "depositNonce",
          "type": "uint64"
        },
        {
          "internalType": "bytes32",
          "name": "resourceID",
          "type": "bytes32"
        },
        {
          "internalType": "bytes",
          "name": "data",
          "type": "bytes"
        }
      ],
      "name": "getSignatures",
      "outputs": [
        {
          "internalType": "bytes[]",
          "name": "",
          "type": "bytes[]"
        }
      ],
      "stateMutability": "view",
      "type": "function"
    },
    {
      "inputs": [
        {
          "internalType": "bytes32",
          "name": "",
          "type": "bytes32"
        },
        {
          "internalType": "uint256",
          "name": "",
          "type": "uint256"
        }
      ],
      "name": "signatures",
      "outputs": [
        {
          "internalType": "bytes",
          "name": "",
          "type": "bytes"
        }
      ],
      "stateMutability": "view",
      "type": "function"
    },
    {
      "inputs": [
        {
          "internalType": "uint8",
          "name": "domainID",
          "type": "uint8"
        },
        {
          "internalType": "uint64",
          "name": "depositNonce",
          "type": "uint64"
        },
        {
          "internalType": "bytes32",
          "name": "resourceID",
          "type": "bytes32"
        },
        {
          "internalType": "bytes",
          "name": "data",
          "type": "bytes"
        },
        {
          "internalType": "bytes",
          "name": "signature",
          "type": "bytes"
        }
      ],
      "name": "submitSignature",
      "outputs": [],
      "stateMutability": "nonpayable",
      "type": "function"
    }
  ],
  "bytecode": "0x608060405234801561001057600080fd5b50604051610c16380380610c1683398101604081905261002f91610054565b600080546001600160a01b0319166001600160a01b0392909216919091179055610084565b60006020828403121561006657600080fd5b81516001600160a01b038116811461007d57600080fd5b9392505050565b610b83806100936000396000f3fe608060405234801561001057600080fd5b506004361061004c5760003560e01c8063595109c91461005157806374400fd114610066578063e5787a751461008f578063e78cea92146100af575b600080fd5b61006461005f366004610740565b6100da565b005b6100796100743660046107dd565b610421565b604051610086919061084c565b60405180910390f35b6100a261009d366004610866565b6104da565b60405161008691906108d7565b6000546100c2906001600160a01b031681565b6040516001600160a01b039091168152602001610086565b600080546040516384db809f60e01b8152600481018890526001600160a01b03909116906384db809f90602401602060405180830381865afa158015610124573d6000803e3d6000fd5b505050506040513d601f19601f820116820180604052508101906101489190610939565b9050600081868660405160200161016193929190610962565b60408051808303601f19018152908290528051602090910120600080546354e7b4fd60e11b845260ff8d16600485015267ffffffffffffffff8c16602485015260448401839052919350916001600160a01b039091169063a9cf69fa90606401608060405180830381865afa1580156101de573d6000803e3d6000fd5b505050506040513d601f19601f8201168201806040525081019061020291906109ae565b90506001600160a01b03831661025f5760405162461bcd60e51b815260206004820152601960248201527f6e6f2068616e646c657220666f72207265736f7572636549440000000000000060448201526064015b60405180910390fd5b60008151600481111561027457610274610a4d565b146102c15760405162461bcd60e51b815260206004820152601b60248201527f50726f706f73616c537461747573206e6f7420696e61637469766500000000006044820152606401610256565b600054604051637f32e25f60e11b81526001600160a01b039091169063fe65c4be906102fd908d908d908d908d908d908d908d90600401610a8c565b602060405180830381865afa15801561031a573d6000803e3d6000fd5b505050506040513d601f19601f8201168201806040525081019061033e9190610ae0565b61037e5760405162461bcd60e51b8152602060048201526011602482015270696e76616c6964207369676e617475726560781b6044820152606401610256565b600160008b8b8b8b8b604051610395929190610b02565b6040519081900381206103d29493929160200160ff94909416845267ffffffffffffffff9290921660208401526040830152606082015260800190565b60408051601f1981840301815291815281516020928301208352828201939093529101600090812080546001810182559082529190206104149101868661062f565b5050505050505050505050565b6001602052816000526040600020818154811061043d57600080fd5b9060005260206000200160009150915050805461045990610b12565b80601f016020809104026020016040519081016040528092919081815260200182805461048590610b12565b80156104d25780601f106104a7576101008083540402835291602001916104d2565b820191906000526020600020905b8154815290600101906020018083116104b557829003601f168201915b505050505081565b60606001600087878787876040516104f3929190610b02565b6040519081900381206105309493929160200160ff94909416845267ffffffffffffffff9290921660208401526040830152606082015260800190565b604051602081830303815290604052805190602001208152602001908152602001600020805480602002602001604051908101604052809291908181526020016000905b8282101561062057838290600052602060002001805461059390610b12565b80601f01602080910402602001604051908101604052809291908181526020018280546105bf90610b12565b801561060c5780601f106105e15761010080835404028352916020019161060c565b820191906000526020600020905b8154815290600101906020018083116105ef57829003601f168201915b505050505081526020019060010190610574565b50505050905095945050505050565b82805461063b90610b12565b90600052602060002090601f01602090048101928261065d57600085556106a3565b82601f106106765782800160ff198235161785556106a3565b828001600101855582156106a3579182015b828111156106a3578235825591602001919060010190610688565b506106af9291506106b3565b5090565b5b808211156106af57600081556001016106b4565b60ff811681146106d757600080fd5b50565b803567ffffffffffffffff811681146106f257600080fd5b919050565b60008083601f84011261070957600080fd5b50813567ffffffffffffffff81111561072157600080fd5b60208301915083602082850101111561073957600080fd5b9250929050565b600080600080600080600060a0888a03121561075b57600080fd5b8735610766816106c8565b9650610774602089016106da565b955060408801359450606088013567ffffffffffffffff8082111561079857600080fd5b6107a48b838c016106f7565b909650945060808a01359150808211156107bd57600080fd5b506107ca8a828b016106f7565b989b979a50959850939692959293505050565b600080604083850312156107f057600080fd5b50508035926020909101359150565b6000815180845260005b8181101561082557602081850181015186830182015201610809565b81811115610837576000602083870101525b50601f01601f19169290920160200192915050565b60208152600061085f60208301846107ff565b9392505050565b60008060008060006080868803121561087e57600080fd5b8535610889816106c8565b9450610897602087016106da565b935060408601359250606086013567ffffffffffffffff8111156108ba57600080fd5b6108c6888289016106f7565b969995985093965092949392505050565b6000602080830181845280855180835260408601915060408160051b870101925083870160005b8281101561092c57603f1988860301845261091a8583516107ff565b945092850192908501906001016108fe565b5092979650505050505050565b60006020828403121561094b57600080fd5b81516001600160a01b038116811461085f57600080fd5b6bffffffffffffffffffffffff198460601b168152818360148301376000910160140190815292915050565b80516106f2816106c8565b805164ffffffffff811681146106f257600080fd5b6000608082840312156109c057600080fd5b6040516080810181811067ffffffffffffffff821117156109f157634e487b7160e01b600052604160045260246000fd5b604052825160058110610a0357600080fd5b815260208301516001600160c81b0381168114610a1f57600080fd5b6020820152610a306040840161098e565b6040820152610a4160608401610999565b60608201529392505050565b634e487b7160e01b600052602160045260246000fd5b81835281816020850137506000828201602090810191909152601f909101601f19169091010190565b60ff8816815267ffffffffffffffff8716602082015285604082015260a060608201526000610abf60a083018688610a63565b8281036080840152610ad2818587610a63565b9a9950505050505050505050565b600060208284031215610af257600080fd5b8151801515811461085f57600080fd5b8183823760009101908152919050565b600181811c90821680610b2657607f821691505b60208210811415610b4757634e487b7160e01b600052602260045260246000fd5b5091905056fea26469706673582212201859bfa2a0eacb591910dca33c0cf1e58410307c9327ca9c18204f7006f07fd764736f6c634300080b0033",
  "linkReferences": {},
  "deployedLinkReferences": {}
}