{
  "_format": "hh-sol-artifact-1",
  "contractName": "Signatures",
  "sourceName": "contracts/Signatures.sol",
  "abi": [
    {
      "inputs": [],
      "stateMutability": "nonpayable",
      "type": "constructor"
    },
    {
      "anonymous": false,
      "inputs": [
        {
          "indexed": false,
          "internalType": "address",
          "name": "account",
          "type": "address"
        }
      ],
      "name": "Paused",
      "type": "event"
    },
    {
      "anonymous": false,
      "inputs": [
        {
          "indexed": true,
          "internalType": "bytes32",
          "name": "role",
          "type": "bytes32"
        },
        {
          "indexed": true,
          "internalType": "address",
          "name": "account",
          "type": "address"
        },
        {
          "indexed": true,
          "internalType": "address",
          "name": "sender",
          "type": "address"
        }
      ],
      "name": "RoleGranted",
      "type": "event"
    },
    {
      "anonymous": false,
      "inputs": [
        {
          "indexed": true,
          "internalType": "bytes32",
          "name": "role",
          "type": "bytes32"
        },
        {
          "indexed": true,
          "internalType": "address",
          "name": "account",
          "type": "address"
        },
        {
          "indexed": true,
          "internalType": "address",
          "name": "sender",
          "type": "address"
        }
      ],
      "name": "RoleRevoked",
      "type": "event"
    },
    {
      "anonymous": false,
      "inputs": [
        {
          "indexed": true,
          "internalType": "uint8",
          "name": "originDomainID",
          "type": "uint8"
        },
        {
          "indexed": true,
          "internalType": "uint8",
          "name": "destinationDomainID",
          "type": "uint8"
        },
        {
          "indexed": false,
          "internalType": "uint64",
          "name": "depositNonce",
          "type": "uint64"
        },
        {
          "indexed": true,
          "internalType": "bytes32",
          "name": "resourceID",
          "type": "bytes32"
        },
        {
          "indexed": false,
          "internalType": "bytes",
          "name": "data",
          "type": "bytes"
        },
        {
          "indexed": false,
          "internalType": "bytes",
          "name": "signature",
          "type": "bytes"
        }
      ],
      "name": "SignturePass",
      "type": "event"
    },
    {
      "anonymous": false,
      "inputs": [
        {
          "indexed": true,
          "internalType": "uint8",
          "name": "originDomainID",
          "type": "uint8"
        },
        {
          "indexed": true,
          "internalType": "uint8",
          "name": "destinationDomainID",
          "type": "uint8"
        },
        {
          "indexed": false,
          "internalType": "uint64",
          "name": "depositNonce",
          "type": "uint64"
        },
        {
          "indexed": true,
          "internalType": "bytes32",
          "name": "resourceID",
          "type": "bytes32"
        },
        {
          "indexed": false,
          "internalType": "bytes",
          "name": "data",
          "type": "bytes"
        },
        {
          "indexed": false,
          "internalType": "bytes",
          "name": "signature",
          "type": "bytes"
        }
      ],
      "name": "SubmitSignature",
      "type": "event"
    },
    {
      "anonymous": false,
      "inputs": [
        {
          "indexed": false,
          "internalType": "address",
          "name": "account",
          "type": "address"
        }
      ],
      "name": "Unpaused",
      "type": "event"
    },
    {
      "inputs": [],
      "name": "DEFAULT_ADMIN_ROLE",
      "outputs": [
        {
          "internalType": "bytes32",
          "name": "",
          "type": "bytes32"
        }
      ],
      "stateMutability": "view",
      "type": "function"
    },
    {
      "inputs": [],
      "name": "PERMIT_TYPEHASH",
      "outputs": [
        {
          "internalType": "bytes32",
          "name": "",
          "type": "bytes32"
        }
      ],
      "stateMutability": "view",
      "type": "function"
    },
    {
      "inputs": [],
      "name": "RELAYER_ROLE",
      "outputs": [
        {
          "internalType": "bytes32",
          "name": "",
          "type": "bytes32"
        }
      ],
      "stateMutability": "view",
      "type": "function"
    },
    {
      "inputs": [],
      "name": "_TYPE_HASH",
      "outputs": [
        {
          "internalType": "bytes32",
          "name": "",
          "type": "bytes32"
        }
      ],
      "stateMutability": "view",
      "type": "function"
    },
    {
      "inputs": [
        {
          "internalType": "uint8",
          "name": "",
          "type": "uint8"
        }
      ],
      "name": "_relayerThreshold",
      "outputs": [
        {
          "internalType": "uint8",
          "name": "",
          "type": "uint8"
        }
      ],
      "stateMutability": "view",
      "type": "function"
    },
    {
      "inputs": [
        {
          "internalType": "uint8",
          "name": "destinationDomainID",
          "type": "uint8"
        },
        {
          "internalType": "uint256",
          "name": "newThreshold",
          "type": "uint256"
        }
      ],
      "name": "adminChangeRelayerThreshold",
      "outputs": [],
      "stateMutability": "nonpayable",
      "type": "function"
    },
    {
      "inputs": [
        {
          "internalType": "uint8",
          "name": "destinationDomainID",
          "type": "uint8"
        },
        {
          "internalType": "uint256",
          "name": "chainId",
          "type": "uint256"
        },
        {
          "internalType": "address",
          "name": "destinationBridge",
          "type": "address"
        }
      ],
      "name": "adminSetDestChainId",
      "outputs": [],
      "stateMutability": "nonpayable",
      "type": "function"
    },
    {
      "inputs": [
        {
          "internalType": "uint8",
          "name": "domainID",
          "type": "uint8"
        },
        {
          "internalType": "uint8",
          "name": "destinationDomainID",
          "type": "uint8"
        },
        {
          "internalType": "address",
          "name": "destinationBridge",
          "type": "address"
        },
        {
          "internalType": "uint64",
          "name": "depositNonce",
          "type": "uint64"
        },
        {
          "internalType": "bytes32",
          "name": "resourceID",
          "type": "bytes32"
        },
        {
          "internalType": "bytes",
          "name": "data",
          "type": "bytes"
        },
        {
          "internalType": "bytes",
          "name": "signature",
          "type": "bytes"
        }
      ],
      "name": "checkSignature",
      "outputs": [
        {
          "internalType": "address",
          "name": "",
          "type": "address"
        }
      ],
      "stateMutability": "view",
      "type": "function"
    },
    {
      "inputs": [
        {
          "internalType": "uint8",
          "name": "",
          "type": "uint8"
        }
      ],
      "name": "destChainId",
      "outputs": [
        {
          "internalType": "uint256",
          "name": "",
          "type": "uint256"
        }
      ],
      "stateMutability": "view",
      "type": "function"
    },
    {
      "inputs": [
        {
          "internalType": "uint8",
          "name": "",
          "type": "uint8"
        }
      ],
      "name": "destinationBridgeAddress",
      "outputs": [
        {
          "internalType": "address",
          "name": "",
          "type": "address"
        }
      ],
      "stateMutability": "view",
      "type": "function"
    },
    {
      "inputs": [
        {
          "internalType": "uint256",
          "name": "index",
          "type": "uint256"
        }
      ],
      "name": "getProposal",
      "outputs": [
        {
          "components": [
            {
              "internalType": "uint8",
              "name": "originDomainID",
              "type": "uint8"
            },
            {
              "internalType": "uint8",
              "name": "destinationDomainID",
              "type": "uint8"
            },
            {
              "internalType": "address",
              "name": "destinationBridge",
              "type": "address"
            },
            {
              "internalType": "uint64",
              "name": "depositNonce",
              "type": "uint64"
            },
            {
              "internalType": "bytes32",
              "name": "resourceID",
              "type": "bytes32"
            },
            {
              "internalType": "bytes",
              "name": "data",
              "type": "bytes"
            },
            {
              "internalType": "uint256",
              "name": "proposalIndex",
              "type": "uint256"
            }
          ],
          "internalType": "struct Signatures.Proposal",
          "name": "",
          "type": "tuple"
        }
      ],
      "stateMutability": "view",
      "type": "function"
    },
    {
      "inputs": [
        {
          "internalType": "bytes32",
          "name": "role",
          "type": "bytes32"
        }
      ],
      "name": "getRoleAdmin",
      "outputs": [
        {
          "internalType": "bytes32",
          "name": "",
          "type": "bytes32"
        }
      ],
      "stateMutability": "view",
      "type": "function"
    },
    {
      "inputs": [
        {
          "internalType": "bytes32",
          "name": "role",
          "type": "bytes32"
        },
        {
          "internalType": "uint256",
          "name": "index",
          "type": "uint256"
        }
      ],
      "name": "getRoleMember",
      "outputs": [
        {
          "internalType": "address",
          "name": "",
          "type": "address"
        }
      ],
      "stateMutability": "view",
      "type": "function"
    },
    {
      "inputs": [
        {
          "internalType": "bytes32",
          "name": "role",
          "type": "bytes32"
        }
      ],
      "name": "getRoleMemberCount",
      "outputs": [
        {
          "internalType": "uint256",
          "name": "",
          "type": "uint256"
        }
      ],
      "stateMutability": "view",
      "type": "function"
    },
    {
      "inputs": [
        {
          "internalType": "bytes32",
          "name": "role",
          "type": "bytes32"
        },
        {
          "internalType": "address",
          "name": "account",
          "type": "address"
        }
      ],
      "name": "getRoleMemberIndex",
      "outputs": [
        {
          "internalType": "uint256",
          "name": "",
          "type": "uint256"
        }
      ],
      "stateMutability": "view",
      "type": "function"
    },
    {
      "inputs": [
        {
          "internalType": "uint8",
          "name": "domainID",
          "type": "uint8"
        },
        {
          "internalType": "uint64",
          "name": "depositNonce",
          "type": "uint64"
        },
        {
          "internalType": "bytes32",
          "name": "resourceID",
          "type": "bytes32"
        },
        {
          "internalType": "bytes",
          "name": "data",
          "type": "bytes"
        }
      ],
      "name": "getSignatures",
      "outputs": [
        {
          "internalType": "bytes[]",
          "name": "",
          "type": "bytes[]"
        }
      ],
      "stateMutability": "view",
      "type": "function"
    },
    {
      "inputs": [
        {
          "internalType": "uint256",
          "name": "index",
          "type": "uint256"
        }
      ],
      "name": "getSignatures",
      "outputs": [
        {
          "internalType": "bytes[]",
          "name": "",
          "type": "bytes[]"
        }
      ],
      "stateMutability": "view",
      "type": "function"
    },
    {
      "inputs": [
        {
          "internalType": "bytes32",
          "name": "role",
          "type": "bytes32"
        },
        {
          "internalType": "address",
          "name": "account",
          "type": "address"
        }
      ],
      "name": "grantRole",
      "outputs": [],
      "stateMutability": "nonpayable",
      "type": "function"
    },
    {
      "inputs": [
        {
          "internalType": "bytes32",
          "name": "role",
          "type": "bytes32"
        },
        {
          "internalType": "address",
          "name": "account",
          "type": "address"
        }
      ],
      "name": "hasRole",
      "outputs": [
        {
          "internalType": "bool",
          "name": "",
          "type": "bool"
        }
      ],
      "stateMutability": "view",
      "type": "function"
    },
    {
      "inputs": [
        {
          "internalType": "bytes",
          "name": "",
          "type": "bytes"
        }
      ],
      "name": "hasVote",
      "outputs": [
        {
          "internalType": "bool",
          "name": "",
          "type": "bool"
        }
      ],
      "stateMutability": "view",
      "type": "function"
    },
    {
      "inputs": [
        {
          "internalType": "uint256",
          "name": "",
          "type": "uint256"
        }
      ],
      "name": "indexToProposal",
      "outputs": [
        {
          "internalType": "bytes32",
          "name": "",
          "type": "bytes32"
        }
      ],
      "stateMutability": "view",
      "type": "function"
    },
    {
      "inputs": [],
      "name": "paused",
      "outputs": [
        {
          "internalType": "bool",
          "name": "",
          "type": "bool"
        }
      ],
      "stateMutability": "view",
      "type": "function"
    },
    {
      "inputs": [],
      "name": "proposalIndex",
      "outputs": [
        {
          "internalType": "uint256",
          "name": "",
          "type": "uint256"
        }
      ],
      "stateMutability": "view",
      "type": "function"
    },
    {
      "inputs": [
        {
          "internalType": "bytes32",
          "name": "",
          "type": "bytes32"
        }
      ],
      "name": "proposals",
      "outputs": [
        {
          "internalType": "uint8",
          "name": "originDomainID",
          "type": "uint8"
        },
        {
          "internalType": "uint8",
          "name": "destinationDomainID",
          "type": "uint8"
        },
        {
          "internalType": "address",
          "name": "destinationBridge",
          "type": "address"
        },
        {
          "internalType": "uint64",
          "name": "depositNonce",
          "type": "uint64"
        },
        {
          "internalType": "bytes32",
          "name": "resourceID",
          "type": "bytes32"
        },
        {
          "internalType": "bytes",
          "name": "data",
          "type": "bytes"
        },
        {
          "internalType": "uint256",
          "name": "proposalIndex",
          "type": "uint256"
        }
      ],
      "stateMutability": "view",
      "type": "function"
    },
    {
      "inputs": [
        {
          "internalType": "bytes32",
          "name": "",
          "type": "bytes32"
        },
        {
          "internalType": "address",
          "name": "",
          "type": "address"
        }
      ],
      "name": "relayerVote",
      "outputs": [
        {
          "internalType": "bool",
          "name": "",
          "type": "bool"
        }
      ],
      "stateMutability": "view",
      "type": "function"
    },
    {
      "inputs": [
        {
          "internalType": "bytes32",
          "name": "role",
          "type": "bytes32"
        },
        {
          "internalType": "address",
          "name": "account",
          "type": "address"
        }
      ],
      "name": "renounceRole",
      "outputs": [],
      "stateMutability": "nonpayable",
      "type": "function"
    },
    {
      "inputs": [
        {
          "internalType": "bytes32",
          "name": "role",
          "type": "bytes32"
        },
        {
          "internalType": "address",
          "name": "account",
          "type": "address"
        }
      ],
      "name": "revokeRole",
      "outputs": [],
      "stateMutability": "nonpayable",
      "type": "function"
    },
    {
      "inputs": [
        {
          "internalType": "bytes32",
          "name": "",
          "type": "bytes32"
        },
        {
          "internalType": "uint256",
          "name": "",
          "type": "uint256"
        }
      ],
      "name": "signatures",
      "outputs": [
        {
          "internalType": "bytes",
          "name": "",
          "type": "bytes"
        }
      ],
      "stateMutability": "view",
      "type": "function"
    },
    {
      "inputs": [
        {
          "internalType": "uint8",
          "name": "originDomainID",
          "type": "uint8"
        },
        {
          "internalType": "uint8",
          "name": "destinationDomainID",
          "type": "uint8"
        },
        {
          "internalType": "address",
          "name": "destinationBridge",
          "type": "address"
        },
        {
          "internalType": "uint64",
          "name": "depositNonce",
          "type": "uint64"
        },
        {
          "internalType": "bytes32",
          "name": "resourceID",
          "type": "bytes32"
        },
        {
          "internalType": "bytes",
          "name": "data",
          "type": "bytes"
        },
        {
          "internalType": "bytes",
          "name": "signature",
          "type": "bytes"
        }
      ],
      "name": "submitSignature",
      "outputs": [],
      "stateMutability": "nonpayable",
      "type": "function"
    }
  ],
  "bytecode": "0x600c6080526b5065726d697442726964676560a01b60a0527f058443738ec3641a3233a9f285e16671e4ad9755445580d761017e695f75052b600255610100604052600360c0819052620312e360ec1b60e0527fe6bbd6277e1bf288eed5e8d1780f9a50b239e86b153736bceebccf4ea79d90b390553480156200008257600080fd5b506000805460ff191681556200009990336200009f565b6200018a565b620000ab8282620000af565b5050565b6000828152600160209081526040909120620000d69183906200148f62000118821b17901c565b15620000ab5760405133906001600160a01b0383169084907f2f8788117e7eff1d82e926ec794901d17c78024a50270940304540a733656f0d90600090a45050565b60006200012f836001600160a01b03841662000138565b90505b92915050565b6000818152600183016020526040812054620001815750815460018181018455600084815260208082209093018490558454848252828601909352604090209190915562000132565b50600062000132565b6122b5806200019a6000396000f3fe608060405234801561001057600080fd5b50600436106101cf5760003560e01c80635c975abb11610104578063926d7d7f116100a2578063ca15c87311610071578063ca15c873146104d0578063d547741f146104e3578063e5787a75146104f6578063f4eccb8f1461051657600080fd5b8063926d7d7f1461044c578063a217fddf14610473578063aa44739d1461047b578063c7f758a8146104b057600080fd5b80637600c4a5116100de5780637600c4a5146103ea578063861fd043146104135780639010d07c1461042657806391d148541461043957600080fd5b80635c975abb146103985780635d2dab0b146103a357806374400fd1146103ca57600080fd5b806332ed5b121161017157806336a3a44e1161014b57806336a3a44e1461033b5780634e0df3f61461034e57806350916c7c146103615780635977e0f21461038f57600080fd5b806332ed5b12146102e25780633640850b1461030857806336568abe1461032857600080fd5b80632703a4fd116101ad5780632703a4fd146102555780632f2ff15d146102935780632fda959e146102a857806330adf81f146102bb57600080fd5b80630b18fec5146101d45780631f241eca14610207578063248a9ca314610232575b600080fd5b6101f46101e2366004611c45565b60056020526000908152604090205481565b6040519081526020015b60405180910390f35b61021a610215366004611ccf565b610529565b6040516001600160a01b0390911681526020016101fe565b6101f4610240366004611d8c565b60009081526001602052604090206002015490565b610283610263366004611da5565b600860209081526000928352604080842090915290825290205460ff1681565b60405190151581526020016101fe565b6102a66102a1366004611da5565b6106f1565b005b6102a66102b6366004611dd1565b610784565b6101f47fc4cb5d35714699d6e85b9562b644e60393b418d974a5c1dd8efaadac37a142c581565b6102f56102f0366004611d8c565b610808565b6040516101fe9796959493929190611e48565b6101f4610316366004611d8c565b600c6020526000908152604090205481565b6102a6610336366004611da5565b6108e8565b6102a6610349366004611ea4565b610962565b6101f461035c366004611da5565b6109f8565b61028361036f366004611ef6565b805160208183018101805160078252928201919093012091525460ff1681565b6101f4600a5481565b60005460ff16610283565b6101f47f8b73c3c69bb8fe3d512ecc4cf759cc79239f7b179b0ffacaa9a75d522b39400f81565b6103dd6103d8366004611fa6565b610a24565b6040516101fe9190611fc8565b61021a6103f8366004611c45565b6009602052600090815260409020546001600160a01b031681565b6102a6610421366004611ccf565b610add565b61021a610434366004611fa6565b610fa2565b610283610447366004611da5565b610fc1565b6101f47fe2b7fb3b832174769106daebcfd6d1970523240dda11281102db9363b83b0dc481565b6101f4600081565b61049e610489366004611c45565b60046020526000908152604090205460ff1681565b60405160ff90911681526020016101fe565b6104c36104be366004611d8c565b610fd9565b6040516101fe9190611fdb565b6101f46104de366004611d8c565b611170565b6102a66104f1366004611da5565b611187565b610509610504366004612057565b611208565b6040516101fe91906120c5565b610509610524366004611d8c565b61135c565b6000807fc4cb5d35714699d6e85b9562b644e60393b418d974a5c1dd8efaadac37a142c58b89898989604051610560929190612127565b6040519081900381206105a3959493929160200194855260ff9390931660208501526001600160401b039190911660408401526060830152608082015260a00190565b60408051601f19818403018152918152815160209283012060ff8d16600090815260059093529082205490925061069f908390156105f35760ff8d166000908152600560205260409020546105f8565b8c60ff165b600254600354604080517f8b73c3c69bb8fe3d512ecc4cf759cc79239f7b179b0ffacaa9a75d522b39400f60208083019190915281830194909452606081019290925260808201939093526001600160a01b038f1660a0808301919091528351808303909101815260c08201845280519083012061190160f01b60e083015260e2820152610102808201949094528251808203909401845261012201909152815191012090565b90506106e18186868080601f0160208091040260200160405190810160405280939291908181526020018383808284376000920191909152506114a492505050565b9c9b505050505050505050505050565b60008281526001602052604090206002015461070d9033610fc1565b6107765760405162461bcd60e51b815260206004820152602f60248201527f416363657373436f6e74726f6c3a2073656e646572206d75737420626520616e60448201526e0818591b5a5b881d1bc819dc985b9d608a1b60648201526084015b60405180910390fd5b61078082826114c8565b5050565b61078f600033610fc1565b6107db5760405162461bcd60e51b815260206004820152601e60248201527f73656e64657220646f65736e277420686176652061646d696e20726f6c650000604482015260640161076d565b6107e481611521565b60ff9283166000908152600460205260409020805460ff1916919093161790915550565b600b6020526000908152604090208054600182015460028301805460ff808516956101008604909116946201000081046001600160a01b031694600160b01b9091046001600160401b031693909261085f90612137565b80601f016020809104026020016040519081016040528092919081815260200182805461088b90612137565b80156108d85780601f106108ad576101008083540402835291602001916108d8565b820191906000526020600020905b8154815290600101906020018083116108bb57829003601f168201915b5050505050908060030154905087565b6001600160a01b03811633146109585760405162461bcd60e51b815260206004820152602f60248201527f416363657373436f6e74726f6c3a2063616e206f6e6c792072656e6f756e636560448201526e103937b632b9903337b91039b2b63360891b606482015260840161076d565b6107808282611578565b61096d600033610fc1565b6109b95760405162461bcd60e51b815260206004820152601e60248201527f73656e64657220646f65736e277420686176652061646d696e20726f6c650000604482015260640161076d565b60ff92909216600090815260056020908152604080832093909355600990522080546001600160a01b0319166001600160a01b03909216919091179055565b60008281526001602081815260408084206001600160a01b038616855290920190529020545b92915050565b60066020528160005260406000208181548110610a4057600080fd5b90600052602060002001600091509150508054610a5c90612137565b80601f0160208091040260200160405190810160405280929190818152602001828054610a8890612137565b8015610ad55780601f10610aaa57610100808354040283529160200191610ad5565b820191906000526020600020905b815481529060010190602001808311610ab857829003601f168201915b505050505081565b610ae56115d1565b6000610af88a8a8a8a8a8a8a8a8a610529565b9050610b247fe2b7fb3b832174769106daebcfd6d1970523240dda11281102db9363b83b0dc482610fc1565b610b645760405162461bcd60e51b8152602060048201526011602482015270696e76616c6964207369676e617475726560781b604482015260640161076d565b60008a8a89898989604051610b7a929190612127565b6040805191829003822060ff968716602084015294909516948101949094526001600160401b03919091166060840152608083015260a082015260c00160408051601f1981840301815291815281516020928301206000818152600884528281206001600160a01b038716825290935291205490915060ff1615610c405760405162461bcd60e51b815260206004820152601860248201527f7369676e617475726520616c6561726479207375626d69740000000000000000604482015260640161076d565b60008181526008602090815260408083206001600160a01b03861684528252808320805460ff1916600117905560ff8d8116845260048352818420548585526006909352922054911611610cce5760405162461bcd60e51b81526020600482015260156024820152745369676e7475726520616c6561726479207061737360581b604482015260640161076d565b60ff8a166000908152600960205260409020546001600160a01b038a8116911614610d3b5760405162461bcd60e51b815260206004820152601960248201527f696e76616c69642064657374696e6174696f6e42726964676500000000000000604482015260640161076d565b600081815260066020526040902054610eb057600a8054906000610d5e83612188565b91905055506040518060e001604052808c60ff1681526020018b60ff1681526020018a6001600160a01b03168152602001896001600160401b0316815260200188815260200187878080601f01602080910402602001604051908101604052809392919081815260200183838082843760009201829052509385525050600a5460209384015250838152600b825260409081902083518154858501519386015160608701516001600160401b0316600160b01b0267ffffffffffffffff60b01b196001600160a01b0390921662010000029190911662010000600160f01b031960ff9687166101000261ffff1990941696909416959095179190911791909116929092179190911781556080830151600182015560a083015180519192610e8d92600285019290910190611b26565b5060c09190910151600390910155600a546000908152600c602052604090208190555b6000818152600660209081526040822080546001810182559083529120610ed991018585611ba6565b50868a60ff168c60ff167fdbf724cd2f174f6ee6dc7d45f557ca42e3f0c483d5ac5da1317ade0e540889078b8a8a8a8a604051610f1a9594939291906121cc565b60405180910390a460ff808b16600090815260046020908152604080832054858452600690925290912054911611610f9557868a60ff168c60ff167f31ad42d947b6829b5c034aaa2c4259af49e84066292aa963a38e2a9dba8206748b8a8a8a8a604051610f8c9594939291906121cc565b60405180910390a45b5050505050505050505050565b6000828152600160205260408120610fba9083611619565b9392505050565b6000828152600160205260408120610fba9083611625565b6040805160e08101825260008082526020820181905291810182905260608082018390526080820183905260a082015260c0810191909152600a548211156110585760405162461bcd60e51b8152602060048201526012602482015271141c9bdc1bdcd85b081b9bdd08195e1a5cdd60721b604482015260640161076d565b6000828152600c60209081526040808320548352600b825291829020825160e081018452815460ff8082168352610100820416938201939093526201000083046001600160a01b031693810193909352600160b01b9091046001600160401b031660608301526001810154608083015260028101805460a0840191906110dd90612137565b80601f016020809104026020016040519081016040528092919081815260200182805461110990612137565b80156111565780601f1061112b57610100808354040283529160200191611156565b820191906000526020600020905b81548152906001019060200180831161113957829003601f168201915b505050505081526020016003820154815250509050919050565b6000818152600160205260408120610a1e90611647565b6000828152600160205260409020600201546111a39033610fc1565b6109585760405162461bcd60e51b815260206004820152603060248201527f416363657373436f6e74726f6c3a2073656e646572206d75737420626520616e60448201526f2061646d696e20746f207265766f6b6560801b606482015260840161076d565b6060600660008787878787604051611221929190612127565b60405190819003812061125d9493929160200160ff9490941684526001600160401b039290921660208401526040830152606082015260800190565b604051602081830303815290604052805190602001208152602001908152602001600020805480602002602001604051908101604052809291908181526020016000905b8282101561134d5783829060005260206000200180546112c090612137565b80601f01602080910402602001604051908101604052809291908181526020018280546112ec90612137565b80156113395780601f1061130e57610100808354040283529160200191611339565b820191906000526020600020905b81548152906001019060200180831161131c57829003601f168201915b5050505050815260200190600101906112a1565b50505050905095945050505050565b6060600a548211156113a55760405162461bcd60e51b8152602060048201526012602482015271141c9bdc1bdcd85b081b9bdd08195e1a5cdd60721b604482015260640161076d565b6000828152600c602090815260408083205483526006825280832080548251818502810185019093528083529193909284015b828210156114845783829060005260206000200180546113f790612137565b80601f016020809104026020016040519081016040528092919081815260200182805461142390612137565b80156114705780601f1061144557610100808354040283529160200191611470565b820191906000526020600020905b81548152906001019060200180831161145357829003601f168201915b5050505050815260200190600101906113d8565b505050509050919050565b6000610fba836001600160a01b038416611651565b60008060006114b385856116a0565b915091506114c081611710565b509392505050565b60008281526001602052604090206114e0908261148f565b156107805760405133906001600160a01b0383169084907f2f8788117e7eff1d82e926ec794901d17c78024a50270940304540a733656f0d90600090a45050565b600061010082106115745760405162461bcd60e51b815260206004820152601c60248201527f76616c756520646f6573206e6f742066697420696e2038206269747300000000604482015260640161076d565b5090565b600082815260016020526040902061159090826118ce565b156107805760405133906001600160a01b0383169084907ff6391f5c32d9c69d2a47ea670b442974b53935d1edc7fd64eb21e047a839171b90600090a45050565b60005460ff16156116175760405162461bcd60e51b815260206004820152601060248201526f14185d5cd8589b194e881c185d5cd95960821b604482015260640161076d565b565b6000610fba83836118e3565b6001600160a01b03811660009081526001830160205260408120541515610fba565b6000610a1e825490565b600081815260018301602052604081205461169857508154600181810184556000848152602080822090930184905584548482528286019093526040902091909155610a1e565b506000610a1e565b6000808251604114156116d75760208301516040840151606085015160001a6116cb8782858561190d565b94509450505050611709565b82516040141561170157602083015160408401516116f68683836119fa565b935093505050611709565b506000905060025b9250929050565b60008160048111156117245761172461220e565b141561172d5750565b60018160048111156117415761174161220e565b141561178f5760405162461bcd60e51b815260206004820152601860248201527f45434453413a20696e76616c6964207369676e61747572650000000000000000604482015260640161076d565b60028160048111156117a3576117a361220e565b14156117f15760405162461bcd60e51b815260206004820152601f60248201527f45434453413a20696e76616c6964207369676e6174757265206c656e67746800604482015260640161076d565b60038160048111156118055761180561220e565b141561185e5760405162461bcd60e51b815260206004820152602260248201527f45434453413a20696e76616c6964207369676e6174757265202773272076616c604482015261756560f01b606482015260840161076d565b60048160048111156118725761187261220e565b14156118cb5760405162461bcd60e51b815260206004820152602260248201527f45434453413a20696e76616c6964207369676e6174757265202776272076616c604482015261756560f01b606482015260840161076d565b50565b6000610fba836001600160a01b038416611a33565b60008260000182815481106118fa576118fa612224565b9060005260206000200154905092915050565b6000807f7fffffffffffffffffffffffffffffff5d576e7357a4501ddfe92f46681b20a083111561194457506000905060036119f1565b8460ff16601b1415801561195c57508460ff16601c14155b1561196d57506000905060046119f1565b6040805160008082526020820180845289905260ff881692820192909252606081018690526080810185905260019060a0016020604051602081039080840390855afa1580156119c1573d6000803e3d6000fd5b5050604051601f1901519150506001600160a01b0381166119ea576000600192509250506119f1565b9150600090505b94509492505050565b6000806001600160ff1b03831681611a1760ff86901c601b61223a565b9050611a258782888561190d565b935093505050935093915050565b60008181526001830160205260408120548015611b1c576000611a57600183612252565b8554909150600090611a6b90600190612252565b9050818114611ad0576000866000018281548110611a8b57611a8b612224565b9060005260206000200154905080876000018481548110611aae57611aae612224565b6000918252602080832090910192909255918252600188019052604090208390555b8554869080611ae157611ae1612269565b600190038181906000526020600020016000905590558560010160008681526020019081526020016000206000905560019350505050610a1e565b6000915050610a1e565b828054611b3290612137565b90600052602060002090601f016020900481019282611b545760008555611b9a565b82601f10611b6d57805160ff1916838001178555611b9a565b82800160010185558215611b9a579182015b82811115611b9a578251825591602001919060010190611b7f565b50611574929150611c1a565b828054611bb290612137565b90600052602060002090601f016020900481019282611bd45760008555611b9a565b82601f10611bed5782800160ff19823516178555611b9a565b82800160010185558215611b9a579182015b82811115611b9a578235825591602001919060010190611bff565b5b808211156115745760008155600101611c1b565b803560ff81168114611c4057600080fd5b919050565b600060208284031215611c5757600080fd5b610fba82611c2f565b80356001600160a01b0381168114611c4057600080fd5b80356001600160401b0381168114611c4057600080fd5b60008083601f840112611ca057600080fd5b5081356001600160401b03811115611cb757600080fd5b60208301915083602082850101111561170957600080fd5b600080600080600080600080600060e08a8c031215611ced57600080fd5b611cf68a611c2f565b9850611d0460208b01611c2f565b9750611d1260408b01611c60565b9650611d2060608b01611c77565b955060808a0135945060a08a01356001600160401b0380821115611d4357600080fd5b611d4f8d838e01611c8e565b909650945060c08c0135915080821115611d6857600080fd5b50611d758c828d01611c8e565b915080935050809150509295985092959850929598565b600060208284031215611d9e57600080fd5b5035919050565b60008060408385031215611db857600080fd5b82359150611dc860208401611c60565b90509250929050565b60008060408385031215611de457600080fd5b611ded83611c2f565b946020939093013593505050565b6000815180845260005b81811015611e2157602081850181015186830182015201611e05565b81811115611e33576000602083870101525b50601f01601f19169290920160200192915050565b60ff8816815260ff8716602082015260018060a01b03861660408201526001600160401b038516606082015283608082015260e060a08201526000611e9060e0830185611dfb565b90508260c083015298975050505050505050565b600080600060608486031215611eb957600080fd5b611ec284611c2f565b925060208401359150611ed760408501611c60565b90509250925092565b634e487b7160e01b600052604160045260246000fd5b600060208284031215611f0857600080fd5b81356001600160401b0380821115611f1f57600080fd5b818401915084601f830112611f3357600080fd5b813581811115611f4557611f45611ee0565b604051601f8201601f19908116603f01168101908382118183101715611f6d57611f6d611ee0565b81604052828152876020848701011115611f8657600080fd5b826020860160208301376000928101602001929092525095945050505050565b60008060408385031215611fb957600080fd5b50508035926020909101359150565b602081526000610fba6020830184611dfb565b6020815260ff825116602082015260ff602083015116604082015260018060a01b0360408301511660608201526001600160401b036060830151166080820152608082015160a0820152600060a083015160e060c0840152612041610100840182611dfb565b905060c084015160e08401528091505092915050565b60008060008060006080868803121561206f57600080fd5b61207886611c2f565b945061208660208701611c77565b93506040860135925060608601356001600160401b038111156120a857600080fd5b6120b488828901611c8e565b969995985093965092949392505050565b6000602080830181845280855180835260408601915060408160051b870101925083870160005b8281101561211a57603f19888603018452612108858351611dfb565b945092850192908501906001016120ec565b5092979650505050505050565b8183823760009101908152919050565b600181811c9082168061214b57607f821691505b6020821081141561216c57634e487b7160e01b600052602260045260246000fd5b50919050565b634e487b7160e01b600052601160045260246000fd5b600060001982141561219c5761219c612172565b5060010190565b81835281816020850137506000828201602090810191909152601f909101601f19169091010190565b6001600160401b03861681526060602082015260006121ef6060830186886121a3565b82810360408401526122028185876121a3565b98975050505050505050565b634e487b7160e01b600052602160045260246000fd5b634e487b7160e01b600052603260045260246000fd5b6000821982111561224d5761224d612172565b500190565b60008282101561226457612264612172565b500390565b634e487b7160e01b600052603160045260246000fdfea2646970667358221220d040dc81febcd280159166d32c82bf5212ce796376a58c1ffcf32caa13b9194f64736f6c634300080b0033",
  "linkReferences": {},
  "deployedLinkReferences": {}
}