{
  "_format": "hh-sol-artifact-1",
  "contractName": "Signatures",
  "sourceName": "contracts/Signatures.sol",
  "abi": [
    {
      "inputs": [],
      "stateMutability": "nonpayable",
      "type": "constructor"
    },
    {
      "anonymous": false,
      "inputs": [
        {
          "indexed": false,
          "internalType": "address",
          "name": "account",
          "type": "address"
        }
      ],
      "name": "Paused",
      "type": "event"
    },
    {
      "anonymous": false,
      "inputs": [
        {
          "indexed": true,
          "internalType": "bytes32",
          "name": "role",
          "type": "bytes32"
        },
        {
          "indexed": true,
          "internalType": "address",
          "name": "account",
          "type": "address"
        },
        {
          "indexed": true,
          "internalType": "address",
          "name": "sender",
          "type": "address"
        }
      ],
      "name": "RoleGranted",
      "type": "event"
    },
    {
      "anonymous": false,
      "inputs": [
        {
          "indexed": true,
          "internalType": "bytes32",
          "name": "role",
          "type": "bytes32"
        },
        {
          "indexed": true,
          "internalType": "address",
          "name": "account",
          "type": "address"
        },
        {
          "indexed": true,
          "internalType": "address",
          "name": "sender",
          "type": "address"
        }
      ],
      "name": "RoleRevoked",
      "type": "event"
    },
    {
      "anonymous": false,
      "inputs": [
        {
          "indexed": true,
          "internalType": "uint8",
          "name": "originDomainID",
          "type": "uint8"
        },
        {
          "indexed": true,
          "internalType": "uint8",
          "name": "destinationDomainID",
          "type": "uint8"
        },
        {
          "indexed": false,
          "internalType": "uint64",
          "name": "depositNonce",
          "type": "uint64"
        },
        {
          "indexed": true,
          "internalType": "bytes32",
          "name": "resourceID",
          "type": "bytes32"
        },
        {
          "indexed": false,
          "internalType": "bytes",
          "name": "data",
          "type": "bytes"
        },
        {
          "indexed": false,
          "internalType": "bytes",
          "name": "signature",
          "type": "bytes"
        }
      ],
      "name": "SignturePass",
      "type": "event"
    },
    {
      "anonymous": false,
      "inputs": [
        {
          "indexed": true,
          "internalType": "uint8",
          "name": "originDomainID",
          "type": "uint8"
        },
        {
          "indexed": true,
          "internalType": "uint8",
          "name": "destinationDomainID",
          "type": "uint8"
        },
        {
          "indexed": false,
          "internalType": "uint64",
          "name": "depositNonce",
          "type": "uint64"
        },
        {
          "indexed": true,
          "internalType": "bytes32",
          "name": "resourceID",
          "type": "bytes32"
        },
        {
          "indexed": false,
          "internalType": "bytes",
          "name": "data",
          "type": "bytes"
        },
        {
          "indexed": false,
          "internalType": "bytes",
          "name": "signature",
          "type": "bytes"
        }
      ],
      "name": "SubmitSignature",
      "type": "event"
    },
    {
      "anonymous": false,
      "inputs": [
        {
          "indexed": false,
          "internalType": "address",
          "name": "account",
          "type": "address"
        }
      ],
      "name": "Unpaused",
      "type": "event"
    },
    {
      "inputs": [],
      "name": "DEFAULT_ADMIN_ROLE",
      "outputs": [
        {
          "internalType": "bytes32",
          "name": "",
          "type": "bytes32"
        }
      ],
      "stateMutability": "view",
      "type": "function"
    },
    {
      "inputs": [],
      "name": "PERMIT_TYPEHASH",
      "outputs": [
        {
          "internalType": "bytes32",
          "name": "",
          "type": "bytes32"
        }
      ],
      "stateMutability": "view",
      "type": "function"
    },
    {
      "inputs": [],
      "name": "RELAYER_ROLE",
      "outputs": [
        {
          "internalType": "bytes32",
          "name": "",
          "type": "bytes32"
        }
      ],
      "stateMutability": "view",
      "type": "function"
    },
    {
      "inputs": [],
      "name": "_TYPE_HASH",
      "outputs": [
        {
          "internalType": "bytes32",
          "name": "",
          "type": "bytes32"
        }
      ],
      "stateMutability": "view",
      "type": "function"
    },
    {
      "inputs": [
        {
          "internalType": "uint8",
          "name": "",
          "type": "uint8"
        }
      ],
      "name": "_relayerThreshold",
      "outputs": [
        {
          "internalType": "uint8",
          "name": "",
          "type": "uint8"
        }
      ],
      "stateMutability": "view",
      "type": "function"
    },
    {
      "inputs": [
        {
          "internalType": "uint8",
          "name": "destinationDomainID",
          "type": "uint8"
        },
        {
          "internalType": "uint256",
          "name": "newThreshold",
          "type": "uint256"
        }
      ],
      "name": "adminChangeRelayerThreshold",
      "outputs": [],
      "stateMutability": "nonpayable",
      "type": "function"
    },
    {
      "inputs": [
        {
          "internalType": "uint8",
          "name": "destinationDomainID",
          "type": "uint8"
        },
        {
          "internalType": "uint256",
          "name": "chainId",
          "type": "uint256"
        }
      ],
      "name": "adminSetDestChainId",
      "outputs": [],
      "stateMutability": "nonpayable",
      "type": "function"
    },
    {
      "inputs": [
        {
          "internalType": "uint8",
          "name": "domainID",
          "type": "uint8"
        },
        {
          "internalType": "uint8",
          "name": "destinationDomainID",
          "type": "uint8"
        },
        {
          "internalType": "address",
          "name": "destinationBridge",
          "type": "address"
        },
        {
          "internalType": "uint64",
          "name": "depositNonce",
          "type": "uint64"
        },
        {
          "internalType": "bytes32",
          "name": "resourceID",
          "type": "bytes32"
        },
        {
          "internalType": "bytes",
          "name": "data",
          "type": "bytes"
        },
        {
          "internalType": "bytes",
          "name": "signature",
          "type": "bytes"
        }
      ],
      "name": "checkSignature",
      "outputs": [
        {
          "internalType": "address",
          "name": "",
          "type": "address"
        }
      ],
      "stateMutability": "view",
      "type": "function"
    },
    {
      "inputs": [
        {
          "internalType": "uint8",
          "name": "",
          "type": "uint8"
        }
      ],
      "name": "destChainId",
      "outputs": [
        {
          "internalType": "uint256",
          "name": "",
          "type": "uint256"
        }
      ],
      "stateMutability": "view",
      "type": "function"
    },
    {
      "inputs": [
        {
          "internalType": "bytes32",
          "name": "role",
          "type": "bytes32"
        }
      ],
      "name": "getRoleAdmin",
      "outputs": [
        {
          "internalType": "bytes32",
          "name": "",
          "type": "bytes32"
        }
      ],
      "stateMutability": "view",
      "type": "function"
    },
    {
      "inputs": [
        {
          "internalType": "bytes32",
          "name": "role",
          "type": "bytes32"
        },
        {
          "internalType": "uint256",
          "name": "index",
          "type": "uint256"
        }
      ],
      "name": "getRoleMember",
      "outputs": [
        {
          "internalType": "address",
          "name": "",
          "type": "address"
        }
      ],
      "stateMutability": "view",
      "type": "function"
    },
    {
      "inputs": [
        {
          "internalType": "bytes32",
          "name": "role",
          "type": "bytes32"
        }
      ],
      "name": "getRoleMemberCount",
      "outputs": [
        {
          "internalType": "uint256",
          "name": "",
          "type": "uint256"
        }
      ],
      "stateMutability": "view",
      "type": "function"
    },
    {
      "inputs": [
        {
          "internalType": "bytes32",
          "name": "role",
          "type": "bytes32"
        },
        {
          "internalType": "address",
          "name": "account",
          "type": "address"
        }
      ],
      "name": "getRoleMemberIndex",
      "outputs": [
        {
          "internalType": "uint256",
          "name": "",
          "type": "uint256"
        }
      ],
      "stateMutability": "view",
      "type": "function"
    },
    {
      "inputs": [
        {
          "internalType": "uint8",
          "name": "domainID",
          "type": "uint8"
        },
        {
          "internalType": "uint64",
          "name": "depositNonce",
          "type": "uint64"
        },
        {
          "internalType": "bytes32",
          "name": "resourceID",
          "type": "bytes32"
        },
        {
          "internalType": "bytes",
          "name": "data",
          "type": "bytes"
        }
      ],
      "name": "getSignatures",
      "outputs": [
        {
          "internalType": "bytes[]",
          "name": "",
          "type": "bytes[]"
        }
      ],
      "stateMutability": "view",
      "type": "function"
    },
    {
      "inputs": [
        {
          "internalType": "bytes32",
          "name": "role",
          "type": "bytes32"
        },
        {
          "internalType": "address",
          "name": "account",
          "type": "address"
        }
      ],
      "name": "grantRole",
      "outputs": [],
      "stateMutability": "nonpayable",
      "type": "function"
    },
    {
      "inputs": [
        {
          "internalType": "bytes32",
          "name": "role",
          "type": "bytes32"
        },
        {
          "internalType": "address",
          "name": "account",
          "type": "address"
        }
      ],
      "name": "hasRole",
      "outputs": [
        {
          "internalType": "bool",
          "name": "",
          "type": "bool"
        }
      ],
      "stateMutability": "view",
      "type": "function"
    },
    {
      "inputs": [
        {
          "internalType": "bytes",
          "name": "",
          "type": "bytes"
        }
      ],
      "name": "hasVote",
      "outputs": [
        {
          "internalType": "bool",
          "name": "",
          "type": "bool"
        }
      ],
      "stateMutability": "view",
      "type": "function"
    },
    {
      "inputs": [],
      "name": "paused",
      "outputs": [
        {
          "internalType": "bool",
          "name": "",
          "type": "bool"
        }
      ],
      "stateMutability": "view",
      "type": "function"
    },
    {
      "inputs": [
        {
          "internalType": "bytes32",
          "name": "role",
          "type": "bytes32"
        },
        {
          "internalType": "address",
          "name": "account",
          "type": "address"
        }
      ],
      "name": "renounceRole",
      "outputs": [],
      "stateMutability": "nonpayable",
      "type": "function"
    },
    {
      "inputs": [
        {
          "internalType": "bytes32",
          "name": "role",
          "type": "bytes32"
        },
        {
          "internalType": "address",
          "name": "account",
          "type": "address"
        }
      ],
      "name": "revokeRole",
      "outputs": [],
      "stateMutability": "nonpayable",
      "type": "function"
    },
    {
      "inputs": [
        {
          "internalType": "bytes32",
          "name": "",
          "type": "bytes32"
        },
        {
          "internalType": "uint256",
          "name": "",
          "type": "uint256"
        }
      ],
      "name": "signatures",
      "outputs": [
        {
          "internalType": "bytes",
          "name": "",
          "type": "bytes"
        }
      ],
      "stateMutability": "view",
      "type": "function"
    },
    {
      "inputs": [
        {
          "internalType": "uint8",
          "name": "originDomainID",
          "type": "uint8"
        },
        {
          "internalType": "uint8",
          "name": "destinationDomainID",
          "type": "uint8"
        },
        {
          "internalType": "address",
          "name": "destinationBridge",
          "type": "address"
        },
        {
          "internalType": "uint64",
          "name": "depositNonce",
          "type": "uint64"
        },
        {
          "internalType": "bytes32",
          "name": "resourceID",
          "type": "bytes32"
        },
        {
          "internalType": "bytes",
          "name": "data",
          "type": "bytes"
        },
        {
          "internalType": "bytes",
          "name": "signature",
          "type": "bytes"
        }
      ],
      "name": "submitSignature",
      "outputs": [],
      "stateMutability": "nonpayable",
      "type": "function"
    }
  ],
  "bytecode": "0x600c6080526b5065726d697442726964676560a01b60a0527f058443738ec3641a3233a9f285e16671e4ad9755445580d761017e695f75052b600255610100604052600360c0819052620312e360ec1b60e0527fe6bbd6277e1bf288eed5e8d1780f9a50b239e86b153736bceebccf4ea79d90b390553480156200008257600080fd5b506000805460ff191681556200009990336200009f565b6200018a565b620000ab8282620000af565b5050565b6000828152600160209081526040909120620000d691839062000d7f62000118821b17901c565b15620000ab5760405133906001600160a01b0383169084907f2f8788117e7eff1d82e926ec794901d17c78024a50270940304540a733656f0d90600090a45050565b60006200012f836001600160a01b03841662000138565b90505b92915050565b6000818152600183016020526040812054620001815750815460018181018455600084815260208082209093018490558454848252828601909352604090209190915562000132565b50600062000132565b611a03806200019a6000396000f3fe608060405234801561001057600080fd5b50600436106101425760003560e01c806374400fd1116100b8578063a217fddf1161007c578063a217fddf1461032d578063aa44739d14610335578063ca15c8731461036a578063d547741f1461037d578063e5787a7514610390578063f7dbe092146103b057600080fd5b806374400fd1146102ad578063861fd043146102cd5780639010d07c146102e057806391d14854146102f3578063926d7d7f1461030657600080fd5b806330adf81f1161010a57806330adf81f146101f057806336568abe146102175780634e0df3f61461022a57806350916c7c1461023d5780635c975abb1461027b5780635d2dab0b1461028657600080fd5b80630b18fec5146101475780631f241eca1461017a578063248a9ca3146101a55780632f2ff15d146101c85780632fda959e146101dd575b600080fd5b6101676101553660046114bc565b60056020526000908152604090205481565b6040519081526020015b60405180910390f35b61018d610188366004611548565b6103c3565b6040516001600160a01b039091168152602001610171565b6101676101b3366004611606565b60009081526001602052604090206002015490565b6101db6101d636600461161f565b61058c565b005b6101db6101eb36600461164b565b61061f565b6101677fc4cb5d35714699d6e85b9562b644e60393b418d974a5c1dd8efaadac37a142c581565b6101db61022536600461161f565b6106a3565b61016761023836600461161f565b61071d565b61026b61024b36600461168b565b805160208183018101805160078252928201919093012091525460ff1681565b6040519015158152602001610171565b60005460ff1661026b565b6101677f8b73c3c69bb8fe3d512ecc4cf759cc79239f7b179b0ffacaa9a75d522b39400f81565b6102c06102bb36600461173c565b610749565b60405161017191906117ab565b6101db6102db366004611548565b610802565b61018d6102ee36600461173c565b610aee565b61026b61030136600461161f565b610b0d565b6101677fe2b7fb3b832174769106daebcfd6d1970523240dda11281102db9363b83b0dc481565b610167600081565b6103586103433660046114bc565b60046020526000908152604090205460ff1681565b60405160ff9091168152602001610171565b610167610378366004611606565b610b25565b6101db61038b36600461161f565b610b3c565b6103a361039e3660046117be565b610bbd565b604051610171919061182d565b6101db6103be36600461164b565b610d12565b6000807fc4cb5d35714699d6e85b9562b644e60393b418d974a5c1dd8efaadac37a142c58b898989896040516103fa92919061188f565b60405190819003812061043e959493929160200194855260ff93909316602085015267ffffffffffffffff9190911660408401526060830152608082015260a00190565b60408051601f19818403018152918152815160209283012060ff8d16600090815260059093529082205490925061053a9083901561048e5760ff8d16600090815260056020526040902054610493565b8c60ff165b600254600354604080517f8b73c3c69bb8fe3d512ecc4cf759cc79239f7b179b0ffacaa9a75d522b39400f60208083019190915281830194909452606081019290925260808201939093526001600160a01b038f1660a0808301919091528351808303909101815260c08201845280519083012061190160f01b60e083015260e2820152610102808201949094528251808203909401845261012201909152815191012090565b905061057c8186868080601f016020809104026020016040519081016040528093929190818152602001838380828437600092019190915250610d9492505050565b9c9b505050505050505050505050565b6000828152600160205260409020600201546105a89033610b0d565b6106115760405162461bcd60e51b815260206004820152602f60248201527f416363657373436f6e74726f6c3a2073656e646572206d75737420626520616e60448201526e0818591b5a5b881d1bc819dc985b9d608a1b60648201526084015b60405180910390fd5b61061b8282610db8565b5050565b61062a600033610b0d565b6106765760405162461bcd60e51b815260206004820152601e60248201527f73656e64657220646f65736e277420686176652061646d696e20726f6c6500006044820152606401610608565b61067f81610e11565b60ff9283166000908152600460205260409020805460ff1916919093161790915550565b6001600160a01b03811633146107135760405162461bcd60e51b815260206004820152602f60248201527f416363657373436f6e74726f6c3a2063616e206f6e6c792072656e6f756e636560448201526e103937b632b9903337b91039b2b63360891b6064820152608401610608565b61061b8282610e68565b60008281526001602081815260408084206001600160a01b038616855290920190529020545b92915050565b6006602052816000526040600020818154811061076557600080fd5b906000526020600020016000915091505080546107819061189f565b80601f01602080910402602001604051908101604052809291908181526020018280546107ad9061189f565b80156107fa5780601f106107cf576101008083540402835291602001916107fa565b820191906000526020600020905b8154815290600101906020018083116107dd57829003601f168201915b505050505081565b61080a610ec1565b61083f7fe2b7fb3b832174769106daebcfd6d1970523240dda11281102db9363b83b0dc46103018b8b8b8b8b8b8b8b8b6103c3565b61087f5760405162461bcd60e51b8152602060048201526011602482015270696e76616c6964207369676e617475726560781b6044820152606401610608565b6007828260405161089192919061188f565b9081526040519081900360200190205460ff16156108f15760405162461bcd60e51b815260206004820152601860248201527f7369676e617475726520616c6561726479207375626d697400000000000000006044820152606401610608565b6000898787878760405161090692919061188f565b6040519081900381206109439493929160200160ff94909416845267ffffffffffffffff9290921660208401526040830152606082015260800190565b60408051601f19818403018152918152815160209283012060ff808d1660009081526004855283812054838252600690955292909220549093509116116109c45760405162461bcd60e51b81526020600482015260156024820152745369676e7475726520616c6561726479207061737360581b6044820152606401610608565b60008181526006602090815260408220805460018101825590835291206109ed91018484611416565b50600160078484604051610a0292919061188f565b908152602001604051809103902060006101000a81548160ff021916908315150217905550858960ff168b60ff167fdbf724cd2f174f6ee6dc7d45f557ca42e3f0c483d5ac5da1317ade0e540889078a89898989604051610a67959493929190611903565b60405180910390a460ff808a16600090815260046020908152604080832054858452600690925290912054911611610ae257858960ff168b60ff167f31ad42d947b6829b5c034aaa2c4259af49e84066292aa963a38e2a9dba8206748a89898989604051610ad9959493929190611903565b60405180910390a45b50505050505050505050565b6000828152600160205260408120610b069083610f09565b9392505050565b6000828152600160205260408120610b069083610f15565b600081815260016020526040812061074390610f37565b600082815260016020526040902060020154610b589033610b0d565b6107135760405162461bcd60e51b815260206004820152603060248201527f416363657373436f6e74726f6c3a2073656e646572206d75737420626520616e60448201526f2061646d696e20746f207265766f6b6560801b6064820152608401610608565b6060600660008787878787604051610bd692919061188f565b604051908190038120610c139493929160200160ff94909416845267ffffffffffffffff9290921660208401526040830152606082015260800190565b604051602081830303815290604052805190602001208152602001908152602001600020805480602002602001604051908101604052809291908181526020016000905b82821015610d03578382906000526020600020018054610c769061189f565b80601f0160208091040260200160405190810160405280929190818152602001828054610ca29061189f565b8015610cef5780601f10610cc457610100808354040283529160200191610cef565b820191906000526020600020905b815481529060010190602001808311610cd257829003601f168201915b505050505081526020019060010190610c57565b50505050905095945050505050565b610d1d600033610b0d565b610d695760405162461bcd60e51b815260206004820152601e60248201527f73656e64657220646f65736e277420686176652061646d696e20726f6c6500006044820152606401610608565b60ff909116600090815260056020526040902055565b6000610b06836001600160a01b038416610f41565b6000806000610da38585610f90565b91509150610db081611000565b509392505050565b6000828152600160205260409020610dd09082610d7f565b1561061b5760405133906001600160a01b0383169084907f2f8788117e7eff1d82e926ec794901d17c78024a50270940304540a733656f0d90600090a45050565b60006101008210610e645760405162461bcd60e51b815260206004820152601c60248201527f76616c756520646f6573206e6f742066697420696e20382062697473000000006044820152606401610608565b5090565b6000828152600160205260409020610e8090826111be565b1561061b5760405133906001600160a01b0383169084907ff6391f5c32d9c69d2a47ea670b442974b53935d1edc7fd64eb21e047a839171b90600090a45050565b60005460ff1615610f075760405162461bcd60e51b815260206004820152601060248201526f14185d5cd8589b194e881c185d5cd95960821b6044820152606401610608565b565b6000610b0683836111d3565b6001600160a01b03811660009081526001830160205260408120541515610b06565b6000610743825490565b6000818152600183016020526040812054610f8857508154600181810184556000848152602080822090930184905584548482528286019093526040902091909155610743565b506000610743565b600080825160411415610fc75760208301516040840151606085015160001a610fbb878285856111fd565b94509450505050610ff9565b825160401415610ff15760208301516040840151610fe68683836112ea565b935093505050610ff9565b506000905060025b9250929050565b600081600481111561101457611014611946565b141561101d5750565b600181600481111561103157611031611946565b141561107f5760405162461bcd60e51b815260206004820152601860248201527f45434453413a20696e76616c6964207369676e617475726500000000000000006044820152606401610608565b600281600481111561109357611093611946565b14156110e15760405162461bcd60e51b815260206004820152601f60248201527f45434453413a20696e76616c6964207369676e6174757265206c656e677468006044820152606401610608565b60038160048111156110f5576110f5611946565b141561114e5760405162461bcd60e51b815260206004820152602260248201527f45434453413a20696e76616c6964207369676e6174757265202773272076616c604482015261756560f01b6064820152608401610608565b600481600481111561116257611162611946565b14156111bb5760405162461bcd60e51b815260206004820152602260248201527f45434453413a20696e76616c6964207369676e6174757265202776272076616c604482015261756560f01b6064820152608401610608565b50565b6000610b06836001600160a01b038416611323565b60008260000182815481106111ea576111ea61195c565b9060005260206000200154905092915050565b6000807f7fffffffffffffffffffffffffffffff5d576e7357a4501ddfe92f46681b20a083111561123457506000905060036112e1565b8460ff16601b1415801561124c57508460ff16601c14155b1561125d57506000905060046112e1565b6040805160008082526020820180845289905260ff881692820192909252606081018690526080810185905260019060a0016020604051602081039080840390855afa1580156112b1573d6000803e3d6000fd5b5050604051601f1901519150506001600160a01b0381166112da576000600192509250506112e1565b9150600090505b94509492505050565b6000806001600160ff1b0383168161130760ff86901c601b611988565b9050611315878288856111fd565b935093505050935093915050565b6000818152600183016020526040812054801561140c5760006113476001836119a0565b855490915060009061135b906001906119a0565b90508181146113c057600086600001828154811061137b5761137b61195c565b906000526020600020015490508087600001848154811061139e5761139e61195c565b6000918252602080832090910192909255918252600188019052604090208390555b85548690806113d1576113d16119b7565b600190038181906000526020600020016000905590558560010160008681526020019081526020016000206000905560019350505050610743565b6000915050610743565b8280546114229061189f565b90600052602060002090601f016020900481019282611444576000855561148a565b82601f1061145d5782800160ff1982351617855561148a565b8280016001018555821561148a579182015b8281111561148a57823582559160200191906001019061146f565b50610e649291505b80821115610e645760008155600101611492565b803560ff811681146114b757600080fd5b919050565b6000602082840312156114ce57600080fd5b610b06826114a6565b80356001600160a01b03811681146114b757600080fd5b803567ffffffffffffffff811681146114b757600080fd5b60008083601f84011261151857600080fd5b50813567ffffffffffffffff81111561153057600080fd5b602083019150836020828501011115610ff957600080fd5b600080600080600080600080600060e08a8c03121561156657600080fd5b61156f8a6114a6565b985061157d60208b016114a6565b975061158b60408b016114d7565b965061159960608b016114ee565b955060808a0135945060a08a013567ffffffffffffffff808211156115bd57600080fd5b6115c98d838e01611506565b909650945060c08c01359150808211156115e257600080fd5b506115ef8c828d01611506565b915080935050809150509295985092959850929598565b60006020828403121561161857600080fd5b5035919050565b6000806040838503121561163257600080fd5b82359150611642602084016114d7565b90509250929050565b6000806040838503121561165e57600080fd5b611667836114a6565b946020939093013593505050565b634e487b7160e01b600052604160045260246000fd5b60006020828403121561169d57600080fd5b813567ffffffffffffffff808211156116b557600080fd5b818401915084601f8301126116c957600080fd5b8135818111156116db576116db611675565b604051601f8201601f19908116603f0116810190838211818310171561170357611703611675565b8160405282815287602084870101111561171c57600080fd5b826020860160208301376000928101602001929092525095945050505050565b6000806040838503121561174f57600080fd5b50508035926020909101359150565b6000815180845260005b8181101561178457602081850181015186830182015201611768565b81811115611796576000602083870101525b50601f01601f19169290920160200192915050565b602081526000610b06602083018461175e565b6000806000806000608086880312156117d657600080fd5b6117df866114a6565b94506117ed602087016114ee565b935060408601359250606086013567ffffffffffffffff81111561181057600080fd5b61181c88828901611506565b969995985093965092949392505050565b6000602080830181845280855180835260408601915060408160051b870101925083870160005b8281101561188257603f1988860301845261187085835161175e565b94509285019290850190600101611854565b5092979650505050505050565b8183823760009101908152919050565b600181811c908216806118b357607f821691505b602082108114156118d457634e487b7160e01b600052602260045260246000fd5b50919050565b81835281816020850137506000828201602090810191909152601f909101601f19169091010190565b67ffffffffffffffff861681526060602082015260006119276060830186886118da565b828103604084015261193a8185876118da565b98975050505050505050565b634e487b7160e01b600052602160045260246000fd5b634e487b7160e01b600052603260045260246000fd5b634e487b7160e01b600052601160045260246000fd5b6000821982111561199b5761199b611972565b500190565b6000828210156119b2576119b2611972565b500390565b634e487b7160e01b600052603160045260246000fdfea26469706673582212204023a29b7d6a038bee30c98f29a20edef64215080bc66c3ae0bc9c03e6f9895d64736f6c634300080b0033",
  "linkReferences": {},
  "deployedLinkReferences": {}
}