{
  "_format": "hh-sol-artifact-1",
  "contractName": "Signatures",
  "sourceName": "contracts/Signatures.sol",
  "abi": [
    {
      "inputs": [
        {
          "internalType": "address",
          "name": "_bridge",
          "type": "address"
        }
      ],
      "stateMutability": "nonpayable",
      "type": "constructor"
    },
    {
      "anonymous": false,
      "inputs": [
        {
          "indexed": true,
          "internalType": "uint8",
          "name": "originDomainID",
          "type": "uint8"
        },
        {
          "indexed": false,
          "internalType": "uint64",
          "name": "depositNonce",
          "type": "uint64"
        },
        {
          "indexed": true,
          "internalType": "bytes32",
          "name": "resourceID",
          "type": "bytes32"
        },
        {
          "indexed": false,
          "internalType": "bytes",
          "name": "data",
          "type": "bytes"
        },
        {
          "indexed": false,
          "internalType": "bytes",
          "name": "signature",
          "type": "bytes"
        }
      ],
      "name": "SignturePass",
      "type": "event"
    },
    {
      "anonymous": false,
      "inputs": [
        {
          "indexed": true,
          "internalType": "uint8",
          "name": "originDomainID",
          "type": "uint8"
        },
        {
          "indexed": false,
          "internalType": "uint64",
          "name": "depositNonce",
          "type": "uint64"
        },
        {
          "indexed": true,
          "internalType": "bytes32",
          "name": "resourceID",
          "type": "bytes32"
        },
        {
          "indexed": false,
          "internalType": "bytes",
          "name": "data",
          "type": "bytes"
        },
        {
          "indexed": false,
          "internalType": "bytes",
          "name": "signature",
          "type": "bytes"
        }
      ],
      "name": "SubmitSignature",
      "type": "event"
    },
    {
      "inputs": [],
      "name": "bridge",
      "outputs": [
        {
          "internalType": "address",
          "name": "",
          "type": "address"
        }
      ],
      "stateMutability": "view",
      "type": "function"
    },
    {
      "inputs": [
        {
          "internalType": "uint8",
          "name": "domainID",
          "type": "uint8"
        },
        {
          "internalType": "uint64",
          "name": "depositNonce",
          "type": "uint64"
        },
        {
          "internalType": "bytes32",
          "name": "resourceID",
          "type": "bytes32"
        },
        {
          "internalType": "bytes",
          "name": "data",
          "type": "bytes"
        }
      ],
      "name": "getSignatures",
      "outputs": [
        {
          "internalType": "bytes[]",
          "name": "",
          "type": "bytes[]"
        }
      ],
      "stateMutability": "view",
      "type": "function"
    },
    {
      "inputs": [
        {
          "internalType": "bytes32",
          "name": "",
          "type": "bytes32"
        },
        {
          "internalType": "uint256",
          "name": "",
          "type": "uint256"
        }
      ],
      "name": "signatures",
      "outputs": [
        {
          "internalType": "bytes",
          "name": "",
          "type": "bytes"
        }
      ],
      "stateMutability": "view",
      "type": "function"
    },
    {
      "inputs": [
        {
          "internalType": "uint8",
          "name": "originDomainID",
          "type": "uint8"
        },
        {
          "internalType": "uint64",
          "name": "depositNonce",
          "type": "uint64"
        },
        {
          "internalType": "bytes32",
          "name": "resourceID",
          "type": "bytes32"
        },
        {
          "internalType": "bytes",
          "name": "data",
          "type": "bytes"
        },
        {
          "internalType": "bytes",
          "name": "signature",
          "type": "bytes"
        }
      ],
      "name": "submitSignature",
      "outputs": [],
      "stateMutability": "nonpayable",
      "type": "function"
    }
  ],
  "bytecode": "0x608060405234801561001057600080fd5b50604051610d8c380380610d8c83398101604081905261002f91610054565b600080546001600160a01b0319166001600160a01b0392909216919091179055610084565b60006020828403121561006657600080fd5b81516001600160a01b038116811461007d57600080fd5b9392505050565b610cf9806100936000396000f3fe608060405234801561001057600080fd5b506004361061004c5760003560e01c8063595109c91461005157806374400fd114610066578063e5787a751461008f578063e78cea92146100af575b600080fd5b61006461005f366004610856565b6100da565b005b6100796100743660046108f3565b610537565b6040516100869190610962565b60405180910390f35b6100a261009d36600461097c565b6105f0565b60405161008691906109ed565b6000546100c2906001600160a01b031681565b6040516001600160a01b039091168152602001610086565b600080546040516384db809f60e01b8152600481018890526001600160a01b03909116906384db809f90602401602060405180830381865afa158015610124573d6000803e3d6000fd5b505050506040513d601f19601f820116820180604052508101906101489190610a4f565b9050600081868660405160200161016193929190610a78565b60408051808303601f19018152908290528051602090910120600080546354e7b4fd60e11b845260ff8d16600485015267ffffffffffffffff8c16602485015260448401839052919350916001600160a01b039091169063a9cf69fa90606401608060405180830381865afa1580156101de573d6000803e3d6000fd5b505050506040513d601f19601f820116820180604052508101906102029190610ac4565b90506001600160a01b03831661025f5760405162461bcd60e51b815260206004820152601960248201527f6e6f2068616e646c657220666f72207265736f7572636549440000000000000060448201526064015b60405180910390fd5b60008151600481111561027457610274610b63565b146102c15760405162461bcd60e51b815260206004820152601b60248201527f50726f706f73616c537461747573206e6f7420696e61637469766500000000006044820152606401610256565b600054604051637f32e25f60e11b81526001600160a01b039091169063fe65c4be906102fd908d908d908d908d908d908d908d90600401610ba2565b602060405180830381865afa15801561031a573d6000803e3d6000fd5b505050506040513d601f19601f8201168201806040525081019061033e9190610bf6565b61037e5760405162461bcd60e51b8152602060048201526011602482015270696e76616c6964207369676e617475726560781b6044820152606401610256565b60008a8a8a8a8a604051610393929190610c18565b6040519081900381206103d09493929160200160ff94909416845267ffffffffffffffff9290921660208401526040830152606082015260800190565b60408051601f198184030181529181528151602092830120600081815260018085529281208054938401815581529290922091925061041191018787610745565b50888b60ff167f61cb4bceda51bce60b1d6ed6a15c758737872a125214641da0ae8bb0f2fd23118c8b8b8b8b60405161044e959493929190610c28565b60405180910390a360008054906101000a90046001600160a01b03166001600160a01b031663d7a9cd796040518163ffffffff1660e01b8152600401602060405180830381865afa1580156104a7573d6000803e3d6000fd5b505050506040513d601f19601f820116820180604052508101906104cb9190610c6b565b60008281526001602052604090205460ff919091161161052a57888b60ff167f34a202d5d1eb96571e8f79cd5ad505695728f56e0de6df829f702e6d4fc909eb8c8b8b8b8b604051610521959493929190610c28565b60405180910390a35b5050505050505050505050565b6001602052816000526040600020818154811061055357600080fd5b9060005260206000200160009150915050805461056f90610c88565b80601f016020809104026020016040519081016040528092919081815260200182805461059b90610c88565b80156105e85780601f106105bd576101008083540402835291602001916105e8565b820191906000526020600020905b8154815290600101906020018083116105cb57829003601f168201915b505050505081565b6060600160008787878787604051610609929190610c18565b6040519081900381206106469493929160200160ff94909416845267ffffffffffffffff9290921660208401526040830152606082015260800190565b604051602081830303815290604052805190602001208152602001908152602001600020805480602002602001604051908101604052809291908181526020016000905b828210156107365783829060005260206000200180546106a990610c88565b80601f01602080910402602001604051908101604052809291908181526020018280546106d590610c88565b80156107225780601f106106f757610100808354040283529160200191610722565b820191906000526020600020905b81548152906001019060200180831161070557829003601f168201915b50505050508152602001906001019061068a565b50505050905095945050505050565b82805461075190610c88565b90600052602060002090601f01602090048101928261077357600085556107b9565b82601f1061078c5782800160ff198235161785556107b9565b828001600101855582156107b9579182015b828111156107b957823582559160200191906001019061079e565b506107c59291506107c9565b5090565b5b808211156107c557600081556001016107ca565b60ff811681146107ed57600080fd5b50565b803567ffffffffffffffff8116811461080857600080fd5b919050565b60008083601f84011261081f57600080fd5b50813567ffffffffffffffff81111561083757600080fd5b60208301915083602082850101111561084f57600080fd5b9250929050565b600080600080600080600060a0888a03121561087157600080fd5b873561087c816107de565b965061088a602089016107f0565b955060408801359450606088013567ffffffffffffffff808211156108ae57600080fd5b6108ba8b838c0161080d565b909650945060808a01359150808211156108d357600080fd5b506108e08a828b0161080d565b989b979a50959850939692959293505050565b6000806040838503121561090657600080fd5b50508035926020909101359150565b6000815180845260005b8181101561093b5760208185018101518683018201520161091f565b8181111561094d576000602083870101525b50601f01601f19169290920160200192915050565b6020815260006109756020830184610915565b9392505050565b60008060008060006080868803121561099457600080fd5b853561099f816107de565b94506109ad602087016107f0565b935060408601359250606086013567ffffffffffffffff8111156109d057600080fd5b6109dc8882890161080d565b969995985093965092949392505050565b6000602080830181845280855180835260408601915060408160051b870101925083870160005b82811015610a4257603f19888603018452610a30858351610915565b94509285019290850190600101610a14565b5092979650505050505050565b600060208284031215610a6157600080fd5b81516001600160a01b038116811461097557600080fd5b6bffffffffffffffffffffffff198460601b168152818360148301376000910160140190815292915050565b8051610808816107de565b805164ffffffffff8116811461080857600080fd5b600060808284031215610ad657600080fd5b6040516080810181811067ffffffffffffffff82111715610b0757634e487b7160e01b600052604160045260246000fd5b604052825160058110610b1957600080fd5b815260208301516001600160c81b0381168114610b3557600080fd5b6020820152610b4660408401610aa4565b6040820152610b5760608401610aaf565b60608201529392505050565b634e487b7160e01b600052602160045260246000fd5b81835281816020850137506000828201602090810191909152601f909101601f19169091010190565b60ff8816815267ffffffffffffffff8716602082015285604082015260a060608201526000610bd560a083018688610b79565b8281036080840152610be8818587610b79565b9a9950505050505050505050565b600060208284031215610c0857600080fd5b8151801515811461097557600080fd5b8183823760009101908152919050565b67ffffffffffffffff86168152606060208201526000610c4c606083018688610b79565b8281036040840152610c5f818587610b79565b98975050505050505050565b600060208284031215610c7d57600080fd5b8151610975816107de565b600181811c90821680610c9c57607f821691505b60208210811415610cbd57634e487b7160e01b600052602260045260246000fd5b5091905056fea2646970667358221220a2b094dc3eb7f7b49e2e6743f27291f63b366453efb50e404c518d292620461764736f6c634300080b0033",
  "linkReferences": {},
  "deployedLinkReferences": {}
}