{
  "_format": "hh-sol-artifact-1",
  "contractName": "Signatures",
  "sourceName": "contracts/Signatures.sol",
  "abi": [
    {
      "inputs": [],
      "stateMutability": "nonpayable",
      "type": "constructor"
    },
    {
      "anonymous": false,
      "inputs": [
        {
          "indexed": true,
          "internalType": "bytes32",
          "name": "role",
          "type": "bytes32"
        },
        {
          "indexed": true,
          "internalType": "address",
          "name": "account",
          "type": "address"
        },
        {
          "indexed": true,
          "internalType": "address",
          "name": "sender",
          "type": "address"
        }
      ],
      "name": "RoleGranted",
      "type": "event"
    },
    {
      "anonymous": false,
      "inputs": [
        {
          "indexed": true,
          "internalType": "bytes32",
          "name": "role",
          "type": "bytes32"
        },
        {
          "indexed": true,
          "internalType": "address",
          "name": "account",
          "type": "address"
        },
        {
          "indexed": true,
          "internalType": "address",
          "name": "sender",
          "type": "address"
        }
      ],
      "name": "RoleRevoked",
      "type": "event"
    },
    {
      "anonymous": false,
      "inputs": [
        {
          "indexed": true,
          "internalType": "uint8",
          "name": "originDomainID",
          "type": "uint8"
        },
        {
          "indexed": false,
          "internalType": "uint64",
          "name": "depositNonce",
          "type": "uint64"
        },
        {
          "indexed": true,
          "internalType": "bytes32",
          "name": "resourceID",
          "type": "bytes32"
        },
        {
          "indexed": false,
          "internalType": "bytes",
          "name": "data",
          "type": "bytes"
        },
        {
          "indexed": false,
          "internalType": "bytes",
          "name": "signature",
          "type": "bytes"
        }
      ],
      "name": "SignturePass",
      "type": "event"
    },
    {
      "anonymous": false,
      "inputs": [
        {
          "indexed": true,
          "internalType": "uint8",
          "name": "originDomainID",
          "type": "uint8"
        },
        {
          "indexed": false,
          "internalType": "uint64",
          "name": "depositNonce",
          "type": "uint64"
        },
        {
          "indexed": true,
          "internalType": "bytes32",
          "name": "resourceID",
          "type": "bytes32"
        },
        {
          "indexed": false,
          "internalType": "bytes",
          "name": "data",
          "type": "bytes"
        },
        {
          "indexed": false,
          "internalType": "bytes",
          "name": "signature",
          "type": "bytes"
        }
      ],
      "name": "SubmitSignature",
      "type": "event"
    },
    {
      "inputs": [],
      "name": "DEFAULT_ADMIN_ROLE",
      "outputs": [
        {
          "internalType": "bytes32",
          "name": "",
          "type": "bytes32"
        }
      ],
      "stateMutability": "view",
      "type": "function"
    },
    {
      "inputs": [],
      "name": "PERMIT_TYPEHASH",
      "outputs": [
        {
          "internalType": "bytes32",
          "name": "",
          "type": "bytes32"
        }
      ],
      "stateMutability": "view",
      "type": "function"
    },
    {
      "inputs": [],
      "name": "RELAYER_ROLE",
      "outputs": [
        {
          "internalType": "bytes32",
          "name": "",
          "type": "bytes32"
        }
      ],
      "stateMutability": "view",
      "type": "function"
    },
    {
      "inputs": [],
      "name": "_TYPE_HASH",
      "outputs": [
        {
          "internalType": "bytes32",
          "name": "",
          "type": "bytes32"
        }
      ],
      "stateMutability": "view",
      "type": "function"
    },
    {
      "inputs": [
        {
          "internalType": "uint8",
          "name": "",
          "type": "uint8"
        }
      ],
      "name": "_relayerThreshold",
      "outputs": [
        {
          "internalType": "uint8",
          "name": "",
          "type": "uint8"
        }
      ],
      "stateMutability": "view",
      "type": "function"
    },
    {
      "inputs": [
        {
          "internalType": "uint8",
          "name": "destinationDomainID",
          "type": "uint8"
        },
        {
          "internalType": "uint256",
          "name": "newThreshold",
          "type": "uint256"
        }
      ],
      "name": "adminChangeRelayerThreshold",
      "outputs": [],
      "stateMutability": "nonpayable",
      "type": "function"
    },
    {
      "inputs": [
        {
          "internalType": "uint8",
          "name": "destinationDomainID",
          "type": "uint8"
        },
        {
          "internalType": "uint8",
          "name": "chainId",
          "type": "uint8"
        }
      ],
      "name": "adminSetDestChainId",
      "outputs": [],
      "stateMutability": "nonpayable",
      "type": "function"
    },
    {
      "inputs": [
        {
          "internalType": "uint8",
          "name": "domainID",
          "type": "uint8"
        },
        {
          "internalType": "uint8",
          "name": "destinationDomainID",
          "type": "uint8"
        },
        {
          "internalType": "address",
          "name": "destinationBridge",
          "type": "address"
        },
        {
          "internalType": "uint64",
          "name": "depositNonce",
          "type": "uint64"
        },
        {
          "internalType": "bytes32",
          "name": "resourceID",
          "type": "bytes32"
        },
        {
          "internalType": "bytes",
          "name": "data",
          "type": "bytes"
        },
        {
          "internalType": "bytes",
          "name": "signature",
          "type": "bytes"
        }
      ],
      "name": "checkSignature",
      "outputs": [
        {
          "internalType": "address",
          "name": "",
          "type": "address"
        }
      ],
      "stateMutability": "view",
      "type": "function"
    },
    {
      "inputs": [
        {
          "internalType": "uint8",
          "name": "",
          "type": "uint8"
        }
      ],
      "name": "destChainId",
      "outputs": [
        {
          "internalType": "uint256",
          "name": "",
          "type": "uint256"
        }
      ],
      "stateMutability": "view",
      "type": "function"
    },
    {
      "inputs": [
        {
          "internalType": "bytes32",
          "name": "role",
          "type": "bytes32"
        }
      ],
      "name": "getRoleAdmin",
      "outputs": [
        {
          "internalType": "bytes32",
          "name": "",
          "type": "bytes32"
        }
      ],
      "stateMutability": "view",
      "type": "function"
    },
    {
      "inputs": [
        {
          "internalType": "bytes32",
          "name": "role",
          "type": "bytes32"
        },
        {
          "internalType": "uint256",
          "name": "index",
          "type": "uint256"
        }
      ],
      "name": "getRoleMember",
      "outputs": [
        {
          "internalType": "address",
          "name": "",
          "type": "address"
        }
      ],
      "stateMutability": "view",
      "type": "function"
    },
    {
      "inputs": [
        {
          "internalType": "bytes32",
          "name": "role",
          "type": "bytes32"
        }
      ],
      "name": "getRoleMemberCount",
      "outputs": [
        {
          "internalType": "uint256",
          "name": "",
          "type": "uint256"
        }
      ],
      "stateMutability": "view",
      "type": "function"
    },
    {
      "inputs": [
        {
          "internalType": "bytes32",
          "name": "role",
          "type": "bytes32"
        },
        {
          "internalType": "address",
          "name": "account",
          "type": "address"
        }
      ],
      "name": "getRoleMemberIndex",
      "outputs": [
        {
          "internalType": "uint256",
          "name": "",
          "type": "uint256"
        }
      ],
      "stateMutability": "view",
      "type": "function"
    },
    {
      "inputs": [
        {
          "internalType": "uint8",
          "name": "domainID",
          "type": "uint8"
        },
        {
          "internalType": "uint64",
          "name": "depositNonce",
          "type": "uint64"
        },
        {
          "internalType": "bytes32",
          "name": "resourceID",
          "type": "bytes32"
        },
        {
          "internalType": "bytes",
          "name": "data",
          "type": "bytes"
        }
      ],
      "name": "getSignatures",
      "outputs": [
        {
          "internalType": "bytes[]",
          "name": "",
          "type": "bytes[]"
        }
      ],
      "stateMutability": "view",
      "type": "function"
    },
    {
      "inputs": [
        {
          "internalType": "bytes32",
          "name": "role",
          "type": "bytes32"
        },
        {
          "internalType": "address",
          "name": "account",
          "type": "address"
        }
      ],
      "name": "grantRole",
      "outputs": [],
      "stateMutability": "nonpayable",
      "type": "function"
    },
    {
      "inputs": [
        {
          "internalType": "bytes32",
          "name": "role",
          "type": "bytes32"
        },
        {
          "internalType": "address",
          "name": "account",
          "type": "address"
        }
      ],
      "name": "hasRole",
      "outputs": [
        {
          "internalType": "bool",
          "name": "",
          "type": "bool"
        }
      ],
      "stateMutability": "view",
      "type": "function"
    },
    {
      "inputs": [
        {
          "internalType": "bytes32",
          "name": "role",
          "type": "bytes32"
        },
        {
          "internalType": "address",
          "name": "account",
          "type": "address"
        }
      ],
      "name": "renounceRole",
      "outputs": [],
      "stateMutability": "nonpayable",
      "type": "function"
    },
    {
      "inputs": [
        {
          "internalType": "bytes32",
          "name": "role",
          "type": "bytes32"
        },
        {
          "internalType": "address",
          "name": "account",
          "type": "address"
        }
      ],
      "name": "revokeRole",
      "outputs": [],
      "stateMutability": "nonpayable",
      "type": "function"
    },
    {
      "inputs": [
        {
          "internalType": "bytes32",
          "name": "",
          "type": "bytes32"
        },
        {
          "internalType": "uint256",
          "name": "",
          "type": "uint256"
        }
      ],
      "name": "signatures",
      "outputs": [
        {
          "internalType": "bytes",
          "name": "",
          "type": "bytes"
        }
      ],
      "stateMutability": "view",
      "type": "function"
    },
    {
      "inputs": [
        {
          "internalType": "uint8",
          "name": "originDomainID",
          "type": "uint8"
        },
        {
          "internalType": "uint8",
          "name": "destinationDomainID",
          "type": "uint8"
        },
        {
          "internalType": "address",
          "name": "destinationBridge",
          "type": "address"
        },
        {
          "internalType": "uint64",
          "name": "depositNonce",
          "type": "uint64"
        },
        {
          "internalType": "bytes32",
          "name": "resourceID",
          "type": "bytes32"
        },
        {
          "internalType": "bytes",
          "name": "data",
          "type": "bytes"
        },
        {
          "internalType": "bytes",
          "name": "signature",
          "type": "bytes"
        }
      ],
      "name": "submitSignature",
      "outputs": [],
      "stateMutability": "nonpayable",
      "type": "function"
    }
  ],
  "bytecode": "0x600c6080526b5065726d697442726964676560a01b60a0527f058443738ec3641a3233a9f285e16671e4ad9755445580d761017e695f75052b600155610100604052600360c052620312e360ec1b60e0527fe6bbd6277e1bf288eed5e8d1780f9a50b239e86b153736bceebccf4ea79d90b36002553480156200008157600080fd5b506200008f60003362000095565b6200017e565b620000a18282620000a5565b5050565b600082815260208181526040909120620000ca91839062000c776200010c821b17901c565b15620000a15760405133906001600160a01b0383169084907f2f8788117e7eff1d82e926ec794901d17c78024a50270940304540a733656f0d90600090a45050565b600062000123836001600160a01b0384166200012c565b90505b92915050565b6000818152600183016020526040812054620001755750815460018181018455600084815260208082209093018490558454848252828601909352604090209190915562000126565b50600062000126565b611816806200018e6000396000f3fe608060405234801561001057600080fd5b506004361061012c5760003560e01c8063861fd043116100ad578063a217fddf11610071578063a217fddf146102f1578063aa44739d146102f9578063ca15c8731461032e578063d547741f14610341578063e5787a751461035457600080fd5b8063861fd0431461026e5780639010d07c1461028157806391d1485414610294578063926d7d7f146102b7578063a11279c7146102de57600080fd5b806330adf81f116100f457806330adf81f146101da57806336568abe146102015780634e0df3f6146102145780635d2dab0b1461022757806374400fd11461024e57600080fd5b80630b18fec5146101315780631f241eca14610164578063248a9ca31461018f5780632f2ff15d146101b25780632fda959e146101c7575b600080fd5b61015161013f36600461136c565b60046020526000908152604090205481565b6040519081526020015b60405180910390f35b6101776101723660046113f8565b610374565b6040516001600160a01b03909116815260200161015b565b61015161019d3660046114b6565b60009081526020819052604090206002015490565b6101c56101c03660046114cf565b61053d565b005b6101c56101d53660046114fb565b6105d0565b6101517fc4cb5d35714699d6e85b9562b644e60393b418d974a5c1dd8efaadac37a142c581565b6101c561020f3660046114cf565b610654565b6101516102223660046114cf565b6106ce565b6101517f8b73c3c69bb8fe3d512ecc4cf759cc79239f7b179b0ffacaa9a75d522b39400f81565b61026161025c366004611525565b6106f9565b60405161015b9190611594565b6101c561027c3660046113f8565b6107b2565b61017761028f366004611525565b6109e3565b6102a76102a23660046114cf565b610a02565b604051901515815260200161015b565b6101517fe2b7fb3b832174769106daebcfd6d1970523240dda11281102db9363b83b0dc481565b6101c56102ec3660046115a7565b610a1a565b610151600081565b61031c61030736600461136c565b60036020526000908152604090205460ff1681565b60405160ff909116815260200161015b565b61015161033c3660046114b6565b610a8a565b6101c561034f3660046114cf565b610aa1565b6103676103623660046115d1565b610b22565b60405161015b9190611640565b6000807fc4cb5d35714699d6e85b9562b644e60393b418d974a5c1dd8efaadac37a142c58b898989896040516103ab9291906116a2565b6040519081900381206103ef959493929160200194855260ff93909316602085015267ffffffffffffffff9190911660408401526060830152608082015260a00190565b60408051601f19818403018152918152815160209283012060ff8d1660009081526004909352908220549092506104eb9083901561043f5760ff8d16600090815260046020526040902054610444565b8c60ff165b600154600254604080517f8b73c3c69bb8fe3d512ecc4cf759cc79239f7b179b0ffacaa9a75d522b39400f60208083019190915281830194909452606081019290925260808201939093526001600160a01b038f1660a0808301919091528351808303909101815260c08201845280519083012061190160f01b60e083015260e2820152610102808201949094528251808203909401845261012201909152815191012090565b905061052d8186868080601f016020809104026020016040519081016040528093929190818152602001838380828437600092019190915250610c8c92505050565b9c9b505050505050505050505050565b6000828152602081905260409020600201546105599033610a02565b6105c25760405162461bcd60e51b815260206004820152602f60248201527f416363657373436f6e74726f6c3a2073656e646572206d75737420626520616e60448201526e0818591b5a5b881d1bc819dc985b9d608a1b60648201526084015b60405180910390fd5b6105cc8282610cb0565b5050565b6105db600033610a02565b6106275760405162461bcd60e51b815260206004820152601e60248201527f73656e64657220646f65736e277420686176652061646d696e20726f6c65000060448201526064016105b9565b61063081610d09565b60ff9283166000908152600360205260409020805460ff1916919093161790915550565b6001600160a01b03811633146106c45760405162461bcd60e51b815260206004820152602f60248201527f416363657373436f6e74726f6c3a2063616e206f6e6c792072656e6f756e636560448201526e103937b632b9903337b91039b2b63360891b60648201526084016105b9565b6105cc8282610d60565b6000828152602081815260408083206001600160a01b03851684526001019091529020545b92915050565b6005602052816000526040600020818154811061071557600080fd5b90600052602060002001600091509150508054610731906116b2565b80601f016020809104026020016040519081016040528092919081815260200182805461075d906116b2565b80156107aa5780601f1061077f576101008083540402835291602001916107aa565b820191906000526020600020905b81548152906001019060200180831161078d57829003601f168201915b505050505081565b6107e77fe2b7fb3b832174769106daebcfd6d1970523240dda11281102db9363b83b0dc46102a28b8b8b8b8b8b8b8b8b610374565b6108275760405162461bcd60e51b8152602060048201526011602482015270696e76616c6964207369676e617475726560781b60448201526064016105b9565b6000898787878760405161083c9291906116a2565b6040519081900381206108799493929160200160ff94909416845267ffffffffffffffff9290921660208401526040830152606082015260800190565b60408051601f19818403018152918152815160209283012060ff808d1660009081526003855283812054838252600590955292909220549093509116116108fa5760405162461bcd60e51b81526020600482015260156024820152745369676e7475726520616c6561726479207061737360581b60448201526064016105b9565b6000818152600560209081526040822080546001810182559083529120610923910184846112c6565b50858a60ff167f61cb4bceda51bce60b1d6ed6a15c758737872a125214641da0ae8bb0f2fd23118988888888604051610960959493929190611716565b60405180910390a360ff808a166000908152600360209081526040808320548584526005909252909120549116116109d757858a60ff167f34a202d5d1eb96571e8f79cd5ad505695728f56e0de6df829f702e6d4fc909eb89888888886040516109ce959493929190611716565b60405180910390a35b50505050505050505050565b60008281526020819052604081206109fb9083610db9565b9392505050565b60008281526020819052604081206109fb9083610dc5565b610a25600033610a02565b610a715760405162461bcd60e51b815260206004820152601e60248201527f73656e64657220646f65736e277420686176652061646d696e20726f6c65000060448201526064016105b9565b60ff918216600090815260046020526040902091169055565b60008181526020819052604081206106f390610de7565b600082815260208190526040902060020154610abd9033610a02565b6106c45760405162461bcd60e51b815260206004820152603060248201527f416363657373436f6e74726f6c3a2073656e646572206d75737420626520616e60448201526f2061646d696e20746f207265766f6b6560801b60648201526084016105b9565b6060600560008787878787604051610b3b9291906116a2565b604051908190038120610b789493929160200160ff94909416845267ffffffffffffffff9290921660208401526040830152606082015260800190565b604051602081830303815290604052805190602001208152602001908152602001600020805480602002602001604051908101604052809291908181526020016000905b82821015610c68578382906000526020600020018054610bdb906116b2565b80601f0160208091040260200160405190810160405280929190818152602001828054610c07906116b2565b8015610c545780601f10610c2957610100808354040283529160200191610c54565b820191906000526020600020905b815481529060010190602001808311610c3757829003601f168201915b505050505081526020019060010190610bbc565b50505050905095945050505050565b60006109fb836001600160a01b038416610df1565b6000806000610c9b8585610e40565b91509150610ca881610eb0565b509392505050565b6000828152602081905260409020610cc89082610c77565b156105cc5760405133906001600160a01b0383169084907f2f8788117e7eff1d82e926ec794901d17c78024a50270940304540a733656f0d90600090a45050565b60006101008210610d5c5760405162461bcd60e51b815260206004820152601c60248201527f76616c756520646f6573206e6f742066697420696e203820626974730000000060448201526064016105b9565b5090565b6000828152602081905260409020610d78908261106e565b156105cc5760405133906001600160a01b0383169084907ff6391f5c32d9c69d2a47ea670b442974b53935d1edc7fd64eb21e047a839171b90600090a45050565b60006109fb8383611083565b6001600160a01b038116600090815260018301602052604081205415156109fb565b60006106f3825490565b6000818152600183016020526040812054610e38575081546001818101845560008481526020808220909301849055845484825282860190935260409020919091556106f3565b5060006106f3565b600080825160411415610e775760208301516040840151606085015160001a610e6b878285856110ad565b94509450505050610ea9565b825160401415610ea15760208301516040840151610e9686838361119a565b935093505050610ea9565b506000905060025b9250929050565b6000816004811115610ec457610ec4611759565b1415610ecd5750565b6001816004811115610ee157610ee1611759565b1415610f2f5760405162461bcd60e51b815260206004820152601860248201527f45434453413a20696e76616c6964207369676e6174757265000000000000000060448201526064016105b9565b6002816004811115610f4357610f43611759565b1415610f915760405162461bcd60e51b815260206004820152601f60248201527f45434453413a20696e76616c6964207369676e6174757265206c656e6774680060448201526064016105b9565b6003816004811115610fa557610fa5611759565b1415610ffe5760405162461bcd60e51b815260206004820152602260248201527f45434453413a20696e76616c6964207369676e6174757265202773272076616c604482015261756560f01b60648201526084016105b9565b600481600481111561101257611012611759565b141561106b5760405162461bcd60e51b815260206004820152602260248201527f45434453413a20696e76616c6964207369676e6174757265202776272076616c604482015261756560f01b60648201526084016105b9565b50565b60006109fb836001600160a01b0384166111d3565b600082600001828154811061109a5761109a61176f565b9060005260206000200154905092915050565b6000807f7fffffffffffffffffffffffffffffff5d576e7357a4501ddfe92f46681b20a08311156110e45750600090506003611191565b8460ff16601b141580156110fc57508460ff16601c14155b1561110d5750600090506004611191565b6040805160008082526020820180845289905260ff881692820192909252606081018690526080810185905260019060a0016020604051602081039080840390855afa158015611161573d6000803e3d6000fd5b5050604051601f1901519150506001600160a01b03811661118a57600060019250925050611191565b9150600090505b94509492505050565b6000806001600160ff1b038316816111b760ff86901c601b61179b565b90506111c5878288856110ad565b935093505050935093915050565b600081815260018301602052604081205480156112bc5760006111f76001836117b3565b855490915060009061120b906001906117b3565b905081811461127057600086600001828154811061122b5761122b61176f565b906000526020600020015490508087600001848154811061124e5761124e61176f565b6000918252602080832090910192909255918252600188019052604090208390555b8554869080611281576112816117ca565b6001900381819060005260206000200160009055905585600101600086815260200190815260200160002060009055600193505050506106f3565b60009150506106f3565b8280546112d2906116b2565b90600052602060002090601f0160209004810192826112f4576000855561133a565b82601f1061130d5782800160ff1982351617855561133a565b8280016001018555821561133a579182015b8281111561133a57823582559160200191906001019061131f565b50610d5c9291505b80821115610d5c5760008155600101611342565b803560ff8116811461136757600080fd5b919050565b60006020828403121561137e57600080fd5b6109fb82611356565b80356001600160a01b038116811461136757600080fd5b803567ffffffffffffffff8116811461136757600080fd5b60008083601f8401126113c857600080fd5b50813567ffffffffffffffff8111156113e057600080fd5b602083019150836020828501011115610ea957600080fd5b600080600080600080600080600060e08a8c03121561141657600080fd5b61141f8a611356565b985061142d60208b01611356565b975061143b60408b01611387565b965061144960608b0161139e565b955060808a0135945060a08a013567ffffffffffffffff8082111561146d57600080fd5b6114798d838e016113b6565b909650945060c08c013591508082111561149257600080fd5b5061149f8c828d016113b6565b915080935050809150509295985092959850929598565b6000602082840312156114c857600080fd5b5035919050565b600080604083850312156114e257600080fd5b823591506114f260208401611387565b90509250929050565b6000806040838503121561150e57600080fd5b61151783611356565b946020939093013593505050565b6000806040838503121561153857600080fd5b50508035926020909101359150565b6000815180845260005b8181101561156d57602081850181015186830182015201611551565b8181111561157f576000602083870101525b50601f01601f19169290920160200192915050565b6020815260006109fb6020830184611547565b600080604083850312156115ba57600080fd5b6115c383611356565b91506114f260208401611356565b6000806000806000608086880312156115e957600080fd5b6115f286611356565b94506116006020870161139e565b935060408601359250606086013567ffffffffffffffff81111561162357600080fd5b61162f888289016113b6565b969995985093965092949392505050565b6000602080830181845280855180835260408601915060408160051b870101925083870160005b8281101561169557603f19888603018452611683858351611547565b94509285019290850190600101611667565b5092979650505050505050565b8183823760009101908152919050565b600181811c908216806116c657607f821691505b602082108114156116e757634e487b7160e01b600052602260045260246000fd5b50919050565b81835281816020850137506000828201602090810191909152601f909101601f19169091010190565b67ffffffffffffffff8616815260606020820152600061173a6060830186886116ed565b828103604084015261174d8185876116ed565b98975050505050505050565b634e487b7160e01b600052602160045260246000fd5b634e487b7160e01b600052603260045260246000fd5b634e487b7160e01b600052601160045260246000fd5b600082198211156117ae576117ae611785565b500190565b6000828210156117c5576117c5611785565b500390565b634e487b7160e01b600052603160045260246000fdfea2646970667358221220895dd015dabc5e85b7fc9d17b48f65178fe781d5d065d5a16cebeb95a33a606764736f6c634300080b0033",
  "linkReferences": {},
  "deployedLinkReferences": {}
}