{
  "_format": "hh-sol-artifact-1",
  "contractName": "Signatures",
  "sourceName": "contracts/Signatures.sol",
  "abi": [
    {
      "inputs": [],
      "stateMutability": "nonpayable",
      "type": "constructor"
    },
    {
      "anonymous": false,
      "inputs": [
        {
          "indexed": false,
          "internalType": "address",
          "name": "account",
          "type": "address"
        }
      ],
      "name": "Paused",
      "type": "event"
    },
    {
      "anonymous": false,
      "inputs": [
        {
          "indexed": true,
          "internalType": "bytes32",
          "name": "role",
          "type": "bytes32"
        },
        {
          "indexed": true,
          "internalType": "address",
          "name": "account",
          "type": "address"
        },
        {
          "indexed": true,
          "internalType": "address",
          "name": "sender",
          "type": "address"
        }
      ],
      "name": "RoleGranted",
      "type": "event"
    },
    {
      "anonymous": false,
      "inputs": [
        {
          "indexed": true,
          "internalType": "bytes32",
          "name": "role",
          "type": "bytes32"
        },
        {
          "indexed": true,
          "internalType": "address",
          "name": "account",
          "type": "address"
        },
        {
          "indexed": true,
          "internalType": "address",
          "name": "sender",
          "type": "address"
        }
      ],
      "name": "RoleRevoked",
      "type": "event"
    },
    {
      "anonymous": false,
      "inputs": [
        {
          "indexed": true,
          "internalType": "uint8",
          "name": "originDomainID",
          "type": "uint8"
        },
        {
          "indexed": true,
          "internalType": "uint8",
          "name": "destinationDomainID",
          "type": "uint8"
        },
        {
          "indexed": false,
          "internalType": "uint64",
          "name": "depositNonce",
          "type": "uint64"
        },
        {
          "indexed": true,
          "internalType": "bytes32",
          "name": "resourceID",
          "type": "bytes32"
        },
        {
          "indexed": false,
          "internalType": "bytes",
          "name": "data",
          "type": "bytes"
        },
        {
          "indexed": false,
          "internalType": "bytes",
          "name": "signature",
          "type": "bytes"
        }
      ],
      "name": "SignaturePass",
      "type": "event"
    },
    {
      "anonymous": false,
      "inputs": [
        {
          "indexed": true,
          "internalType": "uint8",
          "name": "originDomainID",
          "type": "uint8"
        },
        {
          "indexed": true,
          "internalType": "uint8",
          "name": "destinationDomainID",
          "type": "uint8"
        },
        {
          "indexed": false,
          "internalType": "uint64",
          "name": "depositNonce",
          "type": "uint64"
        },
        {
          "indexed": true,
          "internalType": "bytes32",
          "name": "resourceID",
          "type": "bytes32"
        },
        {
          "indexed": false,
          "internalType": "bytes",
          "name": "data",
          "type": "bytes"
        },
        {
          "indexed": false,
          "internalType": "bytes",
          "name": "signature",
          "type": "bytes"
        }
      ],
      "name": "SubmitSignature",
      "type": "event"
    },
    {
      "anonymous": false,
      "inputs": [
        {
          "indexed": false,
          "internalType": "address",
          "name": "account",
          "type": "address"
        }
      ],
      "name": "Unpaused",
      "type": "event"
    },
    {
      "inputs": [],
      "name": "DEFAULT_ADMIN_ROLE",
      "outputs": [
        {
          "internalType": "bytes32",
          "name": "",
          "type": "bytes32"
        }
      ],
      "stateMutability": "view",
      "type": "function"
    },
    {
      "inputs": [],
      "name": "PERMIT_TYPEHASH",
      "outputs": [
        {
          "internalType": "bytes32",
          "name": "",
          "type": "bytes32"
        }
      ],
      "stateMutability": "view",
      "type": "function"
    },
    {
      "inputs": [],
      "name": "RELAYER_ROLE",
      "outputs": [
        {
          "internalType": "bytes32",
          "name": "",
          "type": "bytes32"
        }
      ],
      "stateMutability": "view",
      "type": "function"
    },
    {
      "inputs": [],
      "name": "_TYPE_HASH",
      "outputs": [
        {
          "internalType": "bytes32",
          "name": "",
          "type": "bytes32"
        }
      ],
      "stateMutability": "view",
      "type": "function"
    },
    {
      "inputs": [
        {
          "internalType": "uint8",
          "name": "",
          "type": "uint8"
        }
      ],
      "name": "_relayerThreshold",
      "outputs": [
        {
          "internalType": "uint8",
          "name": "",
          "type": "uint8"
        }
      ],
      "stateMutability": "view",
      "type": "function"
    },
    {
      "inputs": [
        {
          "internalType": "uint8",
          "name": "destinationDomainID",
          "type": "uint8"
        },
        {
          "internalType": "uint256",
          "name": "newThreshold",
          "type": "uint256"
        }
      ],
      "name": "adminChangeRelayerThreshold",
      "outputs": [],
      "stateMutability": "nonpayable",
      "type": "function"
    },
    {
      "inputs": [],
      "name": "adminPause",
      "outputs": [],
      "stateMutability": "nonpayable",
      "type": "function"
    },
    {
      "inputs": [
        {
          "internalType": "uint8",
          "name": "destinationDomainID",
          "type": "uint8"
        },
        {
          "internalType": "uint256",
          "name": "chainId",
          "type": "uint256"
        },
        {
          "internalType": "address",
          "name": "destinationBridge",
          "type": "address"
        }
      ],
      "name": "adminSetDestChainId",
      "outputs": [],
      "stateMutability": "nonpayable",
      "type": "function"
    },
    {
      "inputs": [],
      "name": "adminUnpause",
      "outputs": [],
      "stateMutability": "nonpayable",
      "type": "function"
    },
    {
      "inputs": [
        {
          "internalType": "uint8",
          "name": "domainID",
          "type": "uint8"
        },
        {
          "internalType": "uint8",
          "name": "destinationDomainID",
          "type": "uint8"
        },
        {
          "internalType": "uint64",
          "name": "depositNonce",
          "type": "uint64"
        },
        {
          "internalType": "bytes32",
          "name": "resourceID",
          "type": "bytes32"
        },
        {
          "internalType": "bytes",
          "name": "data",
          "type": "bytes"
        },
        {
          "internalType": "bytes",
          "name": "signature",
          "type": "bytes"
        }
      ],
      "name": "checkSignature",
      "outputs": [
        {
          "internalType": "address",
          "name": "",
          "type": "address"
        }
      ],
      "stateMutability": "view",
      "type": "function"
    },
    {
      "inputs": [
        {
          "internalType": "uint8",
          "name": "",
          "type": "uint8"
        }
      ],
      "name": "destChainId",
      "outputs": [
        {
          "internalType": "uint256",
          "name": "",
          "type": "uint256"
        }
      ],
      "stateMutability": "view",
      "type": "function"
    },
    {
      "inputs": [
        {
          "internalType": "uint8",
          "name": "",
          "type": "uint8"
        }
      ],
      "name": "destinationBridgeAddress",
      "outputs": [
        {
          "internalType": "address",
          "name": "",
          "type": "address"
        }
      ],
      "stateMutability": "view",
      "type": "function"
    },
    {
      "inputs": [
        {
          "internalType": "uint256",
          "name": "index",
          "type": "uint256"
        }
      ],
      "name": "getProposal",
      "outputs": [
        {
          "components": [
            {
              "internalType": "uint8",
              "name": "originDomainID",
              "type": "uint8"
            },
            {
              "internalType": "uint8",
              "name": "destinationDomainID",
              "type": "uint8"
            },
            {
              "internalType": "address",
              "name": "destinationBridge",
              "type": "address"
            },
            {
              "internalType": "uint64",
              "name": "depositNonce",
              "type": "uint64"
            },
            {
              "internalType": "bytes32",
              "name": "resourceID",
              "type": "bytes32"
            },
            {
              "internalType": "bytes",
              "name": "data",
              "type": "bytes"
            },
            {
              "internalType": "uint256",
              "name": "proposalIndex",
              "type": "uint256"
            }
          ],
          "internalType": "struct Signatures.Proposal",
          "name": "",
          "type": "tuple"
        }
      ],
      "stateMutability": "view",
      "type": "function"
    },
    {
      "inputs": [
        {
          "internalType": "bytes32",
          "name": "role",
          "type": "bytes32"
        }
      ],
      "name": "getRoleAdmin",
      "outputs": [
        {
          "internalType": "bytes32",
          "name": "",
          "type": "bytes32"
        }
      ],
      "stateMutability": "view",
      "type": "function"
    },
    {
      "inputs": [
        {
          "internalType": "bytes32",
          "name": "role",
          "type": "bytes32"
        },
        {
          "internalType": "uint256",
          "name": "index",
          "type": "uint256"
        }
      ],
      "name": "getRoleMember",
      "outputs": [
        {
          "internalType": "address",
          "name": "",
          "type": "address"
        }
      ],
      "stateMutability": "view",
      "type": "function"
    },
    {
      "inputs": [
        {
          "internalType": "bytes32",
          "name": "role",
          "type": "bytes32"
        }
      ],
      "name": "getRoleMemberCount",
      "outputs": [
        {
          "internalType": "uint256",
          "name": "",
          "type": "uint256"
        }
      ],
      "stateMutability": "view",
      "type": "function"
    },
    {
      "inputs": [
        {
          "internalType": "bytes32",
          "name": "role",
          "type": "bytes32"
        },
        {
          "internalType": "address",
          "name": "account",
          "type": "address"
        }
      ],
      "name": "getRoleMemberIndex",
      "outputs": [
        {
          "internalType": "uint256",
          "name": "",
          "type": "uint256"
        }
      ],
      "stateMutability": "view",
      "type": "function"
    },
    {
      "inputs": [
        {
          "internalType": "uint8",
          "name": "domainID",
          "type": "uint8"
        },
        {
          "internalType": "uint8",
          "name": "destinationDomainID",
          "type": "uint8"
        },
        {
          "internalType": "uint64",
          "name": "depositNonce",
          "type": "uint64"
        },
        {
          "internalType": "bytes32",
          "name": "resourceID",
          "type": "bytes32"
        },
        {
          "internalType": "bytes",
          "name": "data",
          "type": "bytes"
        }
      ],
      "name": "getSignatures",
      "outputs": [
        {
          "internalType": "bytes[]",
          "name": "",
          "type": "bytes[]"
        }
      ],
      "stateMutability": "view",
      "type": "function"
    },
    {
      "inputs": [
        {
          "internalType": "uint256",
          "name": "index",
          "type": "uint256"
        }
      ],
      "name": "getSignatures",
      "outputs": [
        {
          "internalType": "bytes[]",
          "name": "",
          "type": "bytes[]"
        }
      ],
      "stateMutability": "view",
      "type": "function"
    },
    {
      "inputs": [
        {
          "internalType": "bytes32",
          "name": "role",
          "type": "bytes32"
        },
        {
          "internalType": "address",
          "name": "account",
          "type": "address"
        }
      ],
      "name": "grantRole",
      "outputs": [],
      "stateMutability": "nonpayable",
      "type": "function"
    },
    {
      "inputs": [
        {
          "internalType": "bytes32",
          "name": "role",
          "type": "bytes32"
        },
        {
          "internalType": "address",
          "name": "account",
          "type": "address"
        }
      ],
      "name": "hasRole",
      "outputs": [
        {
          "internalType": "bool",
          "name": "",
          "type": "bool"
        }
      ],
      "stateMutability": "view",
      "type": "function"
    },
    {
      "inputs": [
        {
          "internalType": "bytes",
          "name": "",
          "type": "bytes"
        }
      ],
      "name": "hasVote",
      "outputs": [
        {
          "internalType": "bool",
          "name": "",
          "type": "bool"
        }
      ],
      "stateMutability": "view",
      "type": "function"
    },
    {
      "inputs": [
        {
          "internalType": "uint256",
          "name": "",
          "type": "uint256"
        }
      ],
      "name": "indexToProposal",
      "outputs": [
        {
          "internalType": "bytes32",
          "name": "",
          "type": "bytes32"
        }
      ],
      "stateMutability": "view",
      "type": "function"
    },
    {
      "inputs": [],
      "name": "paused",
      "outputs": [
        {
          "internalType": "bool",
          "name": "",
          "type": "bool"
        }
      ],
      "stateMutability": "view",
      "type": "function"
    },
    {
      "inputs": [],
      "name": "proposalIndex",
      "outputs": [
        {
          "internalType": "uint256",
          "name": "",
          "type": "uint256"
        }
      ],
      "stateMutability": "view",
      "type": "function"
    },
    {
      "inputs": [
        {
          "internalType": "bytes32",
          "name": "",
          "type": "bytes32"
        }
      ],
      "name": "proposals",
      "outputs": [
        {
          "internalType": "uint8",
          "name": "originDomainID",
          "type": "uint8"
        },
        {
          "internalType": "uint8",
          "name": "destinationDomainID",
          "type": "uint8"
        },
        {
          "internalType": "address",
          "name": "destinationBridge",
          "type": "address"
        },
        {
          "internalType": "uint64",
          "name": "depositNonce",
          "type": "uint64"
        },
        {
          "internalType": "bytes32",
          "name": "resourceID",
          "type": "bytes32"
        },
        {
          "internalType": "bytes",
          "name": "data",
          "type": "bytes"
        },
        {
          "internalType": "uint256",
          "name": "proposalIndex",
          "type": "uint256"
        }
      ],
      "stateMutability": "view",
      "type": "function"
    },
    {
      "inputs": [
        {
          "internalType": "bytes32",
          "name": "",
          "type": "bytes32"
        },
        {
          "internalType": "address",
          "name": "",
          "type": "address"
        }
      ],
      "name": "relayerVote",
      "outputs": [
        {
          "internalType": "bool",
          "name": "",
          "type": "bool"
        }
      ],
      "stateMutability": "view",
      "type": "function"
    },
    {
      "inputs": [
        {
          "internalType": "bytes32",
          "name": "role",
          "type": "bytes32"
        },
        {
          "internalType": "address",
          "name": "account",
          "type": "address"
        }
      ],
      "name": "renounceRole",
      "outputs": [],
      "stateMutability": "nonpayable",
      "type": "function"
    },
    {
      "inputs": [
        {
          "internalType": "bytes32",
          "name": "role",
          "type": "bytes32"
        },
        {
          "internalType": "address",
          "name": "account",
          "type": "address"
        }
      ],
      "name": "revokeRole",
      "outputs": [],
      "stateMutability": "nonpayable",
      "type": "function"
    },
    {
      "inputs": [
        {
          "internalType": "bytes32",
          "name": "",
          "type": "bytes32"
        },
        {
          "internalType": "uint256",
          "name": "",
          "type": "uint256"
        }
      ],
      "name": "signatures",
      "outputs": [
        {
          "internalType": "bytes",
          "name": "",
          "type": "bytes"
        }
      ],
      "stateMutability": "view",
      "type": "function"
    },
    {
      "inputs": [
        {
          "internalType": "uint8",
          "name": "originDomainID",
          "type": "uint8"
        },
        {
          "internalType": "uint8",
          "name": "destinationDomainID",
          "type": "uint8"
        },
        {
          "internalType": "uint64",
          "name": "depositNonce",
          "type": "uint64"
        },
        {
          "internalType": "bytes32",
          "name": "resourceID",
          "type": "bytes32"
        },
        {
          "internalType": "bytes",
          "name": "data",
          "type": "bytes"
        },
        {
          "internalType": "bytes",
          "name": "signature",
          "type": "bytes"
        }
      ],
      "name": "submitSignature",
      "outputs": [],
      "stateMutability": "nonpayable",
      "type": "function"
    }
  ],
  "bytecode": "0x60806040523480156200001157600080fd5b506000805460ff191681556200002890336200002e565b62000119565b6200003a82826200003e565b5050565b600082815260016020908152604090912062000065918390620014e4620000a7821b17901c565b156200003a5760405133906001600160a01b0383169084907f2f8788117e7eff1d82e926ec794901d17c78024a50270940304540a733656f0d90600090a45050565b6000620000be836001600160a01b038416620000c7565b90505b92915050565b60008181526001830160205260408120546200011057508154600181810184556000848152602080822090930184905584548482528286019093526040902091909155620000c1565b506000620000c1565b6123aa80620001296000396000f3fe608060405234801561001057600080fd5b50600436106101e55760003560e01c80635d2dab0b1161010f578063a217fddf116100a2578063c7f758a811610071578063c7f758a8146104f6578063ca15c87314610516578063d547741f14610529578063f4eccb8f1461053c57600080fd5b8063a217fddf1461049e578063aa44739d146104a6578063ab676c26146104db578063c20860af146104ee57600080fd5b806391d14854116100de57806391d1485414610449578063926d7d7f1461045c57806392f9c06714610483578063981533491461048b57600080fd5b80635d2dab0b146103ae57806374400fd1146103d55780637600c4a5146103f55780639010d07c1461043657600080fd5b806332ed5b12116101875780634e0df3f6116101565780634e0df3f61461035957806350916c7c1461036c5780635977e0f21461039a5780635c975abb146103a357600080fd5b806332ed5b12146102ed5780633640850b1461031357806336568abe1461033357806336a3a44e1461034657600080fd5b80632703a4fd116101c35780632703a4fd146102605780632f2ff15d1461029e5780632fda959e146102b357806330adf81f146102c657600080fd5b80630b18fec5146101ea578063248a9ca31461021d578063264e965614610240575b600080fd5b61020a6101f8366004611d1e565b60036020526000908152604090205481565b6040519081526020015b60405180910390f35b61020a61022b366004611d39565b60009081526001602052604090206002015490565b61025361024e366004611daa565b61054f565b6040516102149190611e75565b61028e61026e366004611eee565b600660209081526000928352604080842090915290825290205460ff1681565b6040519015158152602001610214565b6102b16102ac366004611eee565b6106a6565b005b6102b16102c1366004611f1a565b610739565b61020a7fc4cb5d35714699d6e85b9562b644e60393b418d974a5c1dd8efaadac37a142c581565b6103006102fb366004611d39565b61078d565b6040516102149796959493929190611f44565b61020a610321366004611d39565b600a6020526000908152604090205481565b6102b1610341366004611eee565b61086d565b6102b1610354366004611fa0565b6108e7565b61020a610367366004611eee565b61094d565b61028e61037a366004611ff2565b805160208183018101805160058252928201919093012091525460ff1681565b61020a60085481565b60005460ff1661028e565b61020a7f8b73c3c69bb8fe3d512ecc4cf759cc79239f7b179b0ffacaa9a75d522b39400f81565b6103e86103e33660046120a2565b610979565b60405161021491906120c4565b61041e610403366004611d1e565b6007602052600090815260409020546001600160a01b031681565b6040516001600160a01b039091168152602001610214565b61041e6104443660046120a2565b610a32565b61028e610457366004611eee565b610a51565b61020a7fe2b7fb3b832174769106daebcfd6d1970523240dda11281102db9363b83b0dc481565b6102b1610a69565b6102b16104993660046120d7565b610a9b565b61020a600081565b6104c96104b4366004611d1e565b60026020526000908152604090205460ff1681565b60405160ff9091168152602001610214565b61041e6104e93660046120d7565b610f0d565b6102b1611152565b610509610504366004611d39565b611182565b6040516102149190612181565b61020a610524366004611d39565b611319565b6102b1610537366004611eee565b611330565b61025361054a366004611d39565b6113b1565b6060600460008888888888886040516105699291906121fd565b6040805191829003822060ff968716602084015294909516948101949094526001600160401b03919091166060840152608083015260a082015260c001604051602081830303815290604052805190602001208152602001908152602001600020805480602002602001604051908101604052809291908181526020016000905b828210156106965783829060005260206000200180546106099061220d565b80601f01602080910402602001604051908101604052809291908181526020018280546106359061220d565b80156106825780601f1061065757610100808354040283529160200191610682565b820191906000526020600020905b81548152906001019060200180831161066557829003601f168201915b5050505050815260200190600101906105ea565b5050505090509695505050505050565b6000828152600160205260409020600201546106c29033610a51565b61072b5760405162461bcd60e51b815260206004820152602f60248201527f416363657373436f6e74726f6c3a2073656e646572206d75737420626520616e60448201526e0818591b5a5b881d1bc819dc985b9d608a1b60648201526084015b60405180910390fd5b61073582826114f9565b5050565b610744600033610a51565b6107605760405162461bcd60e51b815260040161072290612248565b61076981611552565b60ff9283166000908152600260205260409020805460ff1916919093161790915550565b60096020526000908152604090208054600182015460028301805460ff808516956101008604909116946201000081046001600160a01b031694600160b01b9091046001600160401b03169390926107e49061220d565b80601f01602080910402602001604051908101604052809291908181526020018280546108109061220d565b801561085d5780601f106108325761010080835404028352916020019161085d565b820191906000526020600020905b81548152906001019060200180831161084057829003601f168201915b5050505050908060030154905087565b6001600160a01b03811633146108dd5760405162461bcd60e51b815260206004820152602f60248201527f416363657373436f6e74726f6c3a2063616e206f6e6c792072656e6f756e636560448201526e103937b632b9903337b91039b2b63360891b6064820152608401610722565b61073582826115a9565b6108f2600033610a51565b61090e5760405162461bcd60e51b815260040161072290612248565b60ff92909216600090815260036020908152604080832093909355600790522080546001600160a01b0319166001600160a01b03909216919091179055565b60008281526001602081815260408084206001600160a01b038616855290920190529020545b92915050565b6004602052816000526040600020818154811061099557600080fd5b906000526020600020016000915091505080546109b19061220d565b80601f01602080910402602001604051908101604052809291908181526020018280546109dd9061220d565b8015610a2a5780601f106109ff57610100808354040283529160200191610a2a565b820191906000526020600020905b815481529060010190602001808311610a0d57829003601f168201915b505050505081565b6000828152600160205260408120610a4a9083611602565b9392505050565b6000828152600160205260408120610a4a908361160e565b610a74600033610a51565b610a905760405162461bcd60e51b815260040161072290612248565b610a9933611630565b565b610aa3611682565b60ff87166000908152600760205260408120546001600160a01b031690610ad08a8a8a8a8a8a8a8a610f0d565b9050610afc7fe2b7fb3b832174769106daebcfd6d1970523240dda11281102db9363b83b0dc482610a51565b610b3c5760405162461bcd60e51b8152602060048201526011602482015270696e76616c6964207369676e617475726560781b6044820152606401610722565b60008a8a8a8a8a8a604051610b529291906121fd565b6040805191829003822060ff968716602084015294909516948101949094526001600160401b03919091166060840152608083015260a082015260c00160408051601f1981840301815291815281516020928301206000818152600684528281206001600160a01b038716825290935291205490915060ff1615610c185760405162461bcd60e51b815260206004820152601860248201527f7369676e617475726520616c6561726479207375626d697400000000000000006044820152606401610722565b60008181526006602090815260408083206001600160a01b03861684528252808320805460ff1916600117905560ff8d8116845260028352818420548585526004909352922054911611610ca65760405162461bcd60e51b81526020600482015260156024820152745369676e7475726520616c6561726479207061737360581b6044820152606401610722565b600081815260046020526040902054610e1b5760088054906000610cc983612295565b91905055506040518060e001604052808c60ff1681526020018b60ff168152602001846001600160a01b031681526020018a6001600160401b0316815260200189815260200188888080601f01602080910402602001604051908101604052809392919081815260200183838082843760009201829052509385525050600854602093840152508381526009825260409081902083518154858501519386015160608701516001600160401b0316600160b01b0267ffffffffffffffff60b01b196001600160a01b0390921662010000029190911662010000600160f01b031960ff9687166101000261ffff1990941696909416959095179190911791909116929092179190911781556080830151600182015560a083015180519192610df892600285019290910190611bff565b5060c091909101516003909101556008546000908152600a602052604090208190555b6000818152600460209081526040822080546001810182559083529120610e4491018686611c7f565b50878a60ff168c60ff167fdbf724cd2f174f6ee6dc7d45f557ca42e3f0c483d5ac5da1317ade0e540889078c8b8b8b8b604051610e859594939291906122d9565b60405180910390a460ff808b16600090815260026020908152604080832054858452600490925290912054911611610f0057878a60ff168c60ff167fd94e275aae893bc4cab1c14c3052a527a80ae5542ad2047e0dbe0ceeb79bee018c8b8b8b8b604051610ef79594939291906122d9565b60405180910390a45b5050505050505050505050565b6000807fc4cb5d35714699d6e85b9562b644e60393b418d974a5c1dd8efaadac37a142c58a89898989604051610f449291906121fd565b604051908190038120610f87959493929160200194855260ff9390931660208501526001600160401b039190911660408401526060830152608082015260a00190565b60408051601f19818403018152918152815160209283012060ff8c16600090815260078452828120546003909452918220549093506001600160a01b039092169161110090849015610feb5760ff8d16600090815260036020526040902054610ff0565b8c60ff165b604080518082018252600c81526b5065726d697442726964676560a01b6020918201528151808301835260038152620312e360ec1b9082015281517f8b73c3c69bb8fe3d512ecc4cf759cc79239f7b179b0ffacaa9a75d522b39400f818301527f058443738ec3641a3233a9f285e16671e4ad9755445580d761017e695f75052b818401527fe6bbd6277e1bf288eed5e8d1780f9a50b239e86b153736bceebccf4ea79d90b3606082015260808101939093526001600160a01b03871660a0808501919091528251808503909101815260c08401835280519082012061190160f01b60e085015260e284015261010280840194909452815180840390940184526101229092019052815191012090565b90506111428187878080601f0160208091040260200160405190810160405280939291908181526020018383808284376000920191909152506116c892505050565b9c9b505050505050505050505050565b61115d600033610a51565b6111795760405162461bcd60e51b815260040161072290612248565b610a99336116ec565b6040805160e08101825260008082526020820181905291810182905260608082018390526080820183905260a082015260c08101919091526008548211156112015760405162461bcd60e51b8152602060048201526012602482015271141c9bdc1bdcd85b081b9bdd08195e1a5cdd60721b6044820152606401610722565b6000828152600a602090815260408083205483526009825291829020825160e081018452815460ff8082168352610100820416938201939093526201000083046001600160a01b031693810193909352600160b01b9091046001600160401b031660608301526001810154608083015260028101805460a0840191906112869061220d565b80601f01602080910402602001604051908101604052809291908181526020018280546112b29061220d565b80156112ff5780601f106112d4576101008083540402835291602001916112ff565b820191906000526020600020905b8154815290600101906020018083116112e257829003601f168201915b505050505081526020016003820154815250509050919050565b60008181526001602052604081206109739061173a565b60008281526001602052604090206002015461134c9033610a51565b6108dd5760405162461bcd60e51b815260206004820152603060248201527f416363657373436f6e74726f6c3a2073656e646572206d75737420626520616e60448201526f2061646d696e20746f207265766f6b6560801b6064820152608401610722565b60606008548211156113fa5760405162461bcd60e51b8152602060048201526012602482015271141c9bdc1bdcd85b081b9bdd08195e1a5cdd60721b6044820152606401610722565b6000828152600a602090815260408083205483526004825280832080548251818502810185019093528083529193909284015b828210156114d957838290600052602060002001805461144c9061220d565b80601f01602080910402602001604051908101604052809291908181526020018280546114789061220d565b80156114c55780601f1061149a576101008083540402835291602001916114c5565b820191906000526020600020905b8154815290600101906020018083116114a857829003601f168201915b50505050508152602001906001019061142d565b505050509050919050565b6000610a4a836001600160a01b038416611744565b600082815260016020526040902061151190826114e4565b156107355760405133906001600160a01b0383169084907f2f8788117e7eff1d82e926ec794901d17c78024a50270940304540a733656f0d90600090a45050565b600061010082106115a55760405162461bcd60e51b815260206004820152601c60248201527f76616c756520646f6573206e6f742066697420696e20382062697473000000006044820152606401610722565b5090565b60008281526001602052604090206115c19082611793565b156107355760405133906001600160a01b0383169084907ff6391f5c32d9c69d2a47ea670b442974b53935d1edc7fd64eb21e047a839171b90600090a45050565b6000610a4a83836117a8565b6001600160a01b03811660009081526001830160205260408120541515610a4a565b6116386117d2565b6000805460ff191690556040516001600160a01b03821681527f5db9ee0a495bf2e6ff9c91a7834c1ba4fdd244a5e8aa4e537bd38aeae4b073aa906020015b60405180910390a150565b60005460ff1615610a995760405162461bcd60e51b815260206004820152601060248201526f14185d5cd8589b194e881c185d5cd95960821b6044820152606401610722565b60008060006116d7858561181b565b915091506116e481611861565b509392505050565b6116f4611682565b6000805460ff191660011790556040516001600160a01b03821681527f62e78cea01bee320cd4e420270b5ea74000d11b0c9f74754ebdbfc544b05a25890602001611677565b6000610973825490565b600081815260018301602052604081205461178b57508154600181810184556000848152602080822090930184905584548482528286019093526040902091909155610973565b506000610973565b6000610a4a836001600160a01b038416611a1f565b60008260000182815481106117bf576117bf61231b565b9060005260206000200154905092915050565b60005460ff16610a995760405162461bcd60e51b815260206004820152601460248201527314185d5cd8589b194e881b9bdd081c185d5cd95960621b6044820152606401610722565b6000808251604114156118525760208301516040840151606085015160001a61184687828585611b12565b9450945050505061185a565b506000905060025b9250929050565b600081600481111561187557611875612331565b141561187e5750565b600181600481111561189257611892612331565b14156118e05760405162461bcd60e51b815260206004820152601860248201527f45434453413a20696e76616c6964207369676e617475726500000000000000006044820152606401610722565b60028160048111156118f4576118f4612331565b14156119425760405162461bcd60e51b815260206004820152601f60248201527f45434453413a20696e76616c6964207369676e6174757265206c656e677468006044820152606401610722565b600381600481111561195657611956612331565b14156119af5760405162461bcd60e51b815260206004820152602260248201527f45434453413a20696e76616c6964207369676e6174757265202773272076616c604482015261756560f01b6064820152608401610722565b60048160048111156119c3576119c3612331565b1415611a1c5760405162461bcd60e51b815260206004820152602260248201527f45434453413a20696e76616c6964207369676e6174757265202776272076616c604482015261756560f01b6064820152608401610722565b50565b60008181526001830160205260408120548015611b08576000611a43600183612347565b8554909150600090611a5790600190612347565b9050818114611abc576000866000018281548110611a7757611a7761231b565b9060005260206000200154905080876000018481548110611a9a57611a9a61231b565b6000918252602080832090910192909255918252600188019052604090208390555b8554869080611acd57611acd61235e565b600190038181906000526020600020016000905590558560010160008681526020019081526020016000206000905560019350505050610973565b6000915050610973565b6000807f7fffffffffffffffffffffffffffffff5d576e7357a4501ddfe92f46681b20a0831115611b495750600090506003611bf6565b8460ff16601b14158015611b6157508460ff16601c14155b15611b725750600090506004611bf6565b6040805160008082526020820180845289905260ff881692820192909252606081018690526080810185905260019060a0016020604051602081039080840390855afa158015611bc6573d6000803e3d6000fd5b5050604051601f1901519150506001600160a01b038116611bef57600060019250925050611bf6565b9150600090505b94509492505050565b828054611c0b9061220d565b90600052602060002090601f016020900481019282611c2d5760008555611c73565b82601f10611c4657805160ff1916838001178555611c73565b82800160010185558215611c73579182015b82811115611c73578251825591602001919060010190611c58565b506115a5929150611cf3565b828054611c8b9061220d565b90600052602060002090601f016020900481019282611cad5760008555611c73565b82601f10611cc65782800160ff19823516178555611c73565b82800160010185558215611c73579182015b82811115611c73578235825591602001919060010190611cd8565b5b808211156115a55760008155600101611cf4565b803560ff81168114611d1957600080fd5b919050565b600060208284031215611d3057600080fd5b610a4a82611d08565b600060208284031215611d4b57600080fd5b5035919050565b80356001600160401b0381168114611d1957600080fd5b60008083601f840112611d7b57600080fd5b5081356001600160401b03811115611d9257600080fd5b60208301915083602082850101111561185a57600080fd5b60008060008060008060a08789031215611dc357600080fd5b611dcc87611d08565b9550611dda60208801611d08565b9450611de860408801611d52565b93506060870135925060808701356001600160401b03811115611e0a57600080fd5b611e1689828a01611d69565b979a9699509497509295939492505050565b6000815180845260005b81811015611e4e57602081850181015186830182015201611e32565b81811115611e60576000602083870101525b50601f01601f19169290920160200192915050565b6000602080830181845280855180835260408601915060408160051b870101925083870160005b82811015611eca57603f19888603018452611eb8858351611e28565b94509285019290850190600101611e9c565b5092979650505050505050565b80356001600160a01b0381168114611d1957600080fd5b60008060408385031215611f0157600080fd5b82359150611f1160208401611ed7565b90509250929050565b60008060408385031215611f2d57600080fd5b611f3683611d08565b946020939093013593505050565b60ff8816815260ff8716602082015260018060a01b03861660408201526001600160401b038516606082015283608082015260e060a08201526000611f8c60e0830185611e28565b90508260c083015298975050505050505050565b600080600060608486031215611fb557600080fd5b611fbe84611d08565b925060208401359150611fd360408501611ed7565b90509250925092565b634e487b7160e01b600052604160045260246000fd5b60006020828403121561200457600080fd5b81356001600160401b038082111561201b57600080fd5b818401915084601f83011261202f57600080fd5b81358181111561204157612041611fdc565b604051601f8201601f19908116603f0116810190838211818310171561206957612069611fdc565b8160405282815287602084870101111561208257600080fd5b826020860160208301376000928101602001929092525095945050505050565b600080604083850312156120b557600080fd5b50508035926020909101359150565b602081526000610a4a6020830184611e28565b60008060008060008060008060c0898b0312156120f357600080fd5b6120fc89611d08565b975061210a60208a01611d08565b965061211860408a01611d52565b95506060890135945060808901356001600160401b038082111561213b57600080fd5b6121478c838d01611d69565b909650945060a08b013591508082111561216057600080fd5b5061216d8b828c01611d69565b999c989b5096995094979396929594505050565b6020815260ff825116602082015260ff602083015116604082015260018060a01b0360408301511660608201526001600160401b036060830151166080820152608082015160a0820152600060a083015160e060c08401526121e7610100840182611e28565b905060c084015160e08401528091505092915050565b8183823760009101908152919050565b600181811c9082168061222157607f821691505b6020821081141561224257634e487b7160e01b600052602260045260246000fd5b50919050565b6020808252601e908201527f73656e64657220646f65736e277420686176652061646d696e20726f6c650000604082015260600190565b634e487b7160e01b600052601160045260246000fd5b60006000198214156122a9576122a961227f565b5060010190565b81835281816020850137506000828201602090810191909152601f909101601f19169091010190565b6001600160401b03861681526060602082015260006122fc6060830186886122b0565b828103604084015261230f8185876122b0565b98975050505050505050565b634e487b7160e01b600052603260045260246000fd5b634e487b7160e01b600052602160045260246000fd5b6000828210156123595761235961227f565b500390565b634e487b7160e01b600052603160045260246000fdfea26469706673582212201fa315e3de86288d03617c52ba1674ba8cdc3cc59b543f227b79f6b8acf5848064736f6c634300080b0033",
  "linkReferences": {},
  "deployedLinkReferences": {}
}