{
  "_format": "hh-sol-artifact-1",
  "contractName": "Signatures",
  "sourceName": "contracts/Signatures.sol",
  "abi": [
    {
      "inputs": [],
      "stateMutability": "nonpayable",
      "type": "constructor"
    },
    {
      "anonymous": false,
      "inputs": [
        {
          "indexed": true,
          "internalType": "bytes32",
          "name": "role",
          "type": "bytes32"
        },
        {
          "indexed": true,
          "internalType": "address",
          "name": "account",
          "type": "address"
        },
        {
          "indexed": true,
          "internalType": "address",
          "name": "sender",
          "type": "address"
        }
      ],
      "name": "RoleGranted",
      "type": "event"
    },
    {
      "anonymous": false,
      "inputs": [
        {
          "indexed": true,
          "internalType": "bytes32",
          "name": "role",
          "type": "bytes32"
        },
        {
          "indexed": true,
          "internalType": "address",
          "name": "account",
          "type": "address"
        },
        {
          "indexed": true,
          "internalType": "address",
          "name": "sender",
          "type": "address"
        }
      ],
      "name": "RoleRevoked",
      "type": "event"
    },
    {
      "anonymous": false,
      "inputs": [
        {
          "indexed": true,
          "internalType": "uint8",
          "name": "originDomainID",
          "type": "uint8"
        },
        {
          "indexed": false,
          "internalType": "uint64",
          "name": "depositNonce",
          "type": "uint64"
        },
        {
          "indexed": true,
          "internalType": "bytes32",
          "name": "resourceID",
          "type": "bytes32"
        },
        {
          "indexed": false,
          "internalType": "bytes",
          "name": "data",
          "type": "bytes"
        },
        {
          "indexed": false,
          "internalType": "bytes",
          "name": "signature",
          "type": "bytes"
        }
      ],
      "name": "SignturePass",
      "type": "event"
    },
    {
      "anonymous": false,
      "inputs": [
        {
          "indexed": true,
          "internalType": "uint8",
          "name": "originDomainID",
          "type": "uint8"
        },
        {
          "indexed": false,
          "internalType": "uint64",
          "name": "depositNonce",
          "type": "uint64"
        },
        {
          "indexed": true,
          "internalType": "bytes32",
          "name": "resourceID",
          "type": "bytes32"
        },
        {
          "indexed": false,
          "internalType": "bytes",
          "name": "data",
          "type": "bytes"
        },
        {
          "indexed": false,
          "internalType": "bytes",
          "name": "signature",
          "type": "bytes"
        }
      ],
      "name": "SubmitSignature",
      "type": "event"
    },
    {
      "inputs": [],
      "name": "DEFAULT_ADMIN_ROLE",
      "outputs": [
        {
          "internalType": "bytes32",
          "name": "",
          "type": "bytes32"
        }
      ],
      "stateMutability": "view",
      "type": "function"
    },
    {
      "inputs": [],
      "name": "PERMIT_TYPEHASH",
      "outputs": [
        {
          "internalType": "bytes32",
          "name": "",
          "type": "bytes32"
        }
      ],
      "stateMutability": "view",
      "type": "function"
    },
    {
      "inputs": [],
      "name": "RELAYER_ROLE",
      "outputs": [
        {
          "internalType": "bytes32",
          "name": "",
          "type": "bytes32"
        }
      ],
      "stateMutability": "view",
      "type": "function"
    },
    {
      "inputs": [],
      "name": "_TYPE_HASH",
      "outputs": [
        {
          "internalType": "bytes32",
          "name": "",
          "type": "bytes32"
        }
      ],
      "stateMutability": "view",
      "type": "function"
    },
    {
      "inputs": [
        {
          "internalType": "uint8",
          "name": "",
          "type": "uint8"
        }
      ],
      "name": "_relayerThreshold",
      "outputs": [
        {
          "internalType": "uint8",
          "name": "",
          "type": "uint8"
        }
      ],
      "stateMutability": "view",
      "type": "function"
    },
    {
      "inputs": [
        {
          "internalType": "uint8",
          "name": "destinationDomainID",
          "type": "uint8"
        },
        {
          "internalType": "uint256",
          "name": "newThreshold",
          "type": "uint256"
        }
      ],
      "name": "adminChangeRelayerThreshold",
      "outputs": [],
      "stateMutability": "nonpayable",
      "type": "function"
    },
    {
      "inputs": [
        {
          "internalType": "uint8",
          "name": "destinationDomainID",
          "type": "uint8"
        },
        {
          "internalType": "uint8",
          "name": "chainId",
          "type": "uint8"
        }
      ],
      "name": "adminSetDestChainId",
      "outputs": [],
      "stateMutability": "nonpayable",
      "type": "function"
    },
    {
      "inputs": [
        {
          "internalType": "uint8",
          "name": "domainID",
          "type": "uint8"
        },
        {
          "internalType": "uint8",
          "name": "destinationDomainID",
          "type": "uint8"
        },
        {
          "internalType": "address",
          "name": "destinationBridge",
          "type": "address"
        },
        {
          "internalType": "uint64",
          "name": "depositNonce",
          "type": "uint64"
        },
        {
          "internalType": "bytes32",
          "name": "resourceID",
          "type": "bytes32"
        },
        {
          "internalType": "bytes",
          "name": "data",
          "type": "bytes"
        },
        {
          "internalType": "bytes",
          "name": "signature",
          "type": "bytes"
        }
      ],
      "name": "checkSignature",
      "outputs": [
        {
          "internalType": "bool",
          "name": "",
          "type": "bool"
        }
      ],
      "stateMutability": "view",
      "type": "function"
    },
    {
      "inputs": [
        {
          "internalType": "uint8",
          "name": "",
          "type": "uint8"
        }
      ],
      "name": "destChainId",
      "outputs": [
        {
          "internalType": "uint256",
          "name": "",
          "type": "uint256"
        }
      ],
      "stateMutability": "view",
      "type": "function"
    },
    {
      "inputs": [
        {
          "internalType": "bytes32",
          "name": "role",
          "type": "bytes32"
        }
      ],
      "name": "getRoleAdmin",
      "outputs": [
        {
          "internalType": "bytes32",
          "name": "",
          "type": "bytes32"
        }
      ],
      "stateMutability": "view",
      "type": "function"
    },
    {
      "inputs": [
        {
          "internalType": "bytes32",
          "name": "role",
          "type": "bytes32"
        },
        {
          "internalType": "uint256",
          "name": "index",
          "type": "uint256"
        }
      ],
      "name": "getRoleMember",
      "outputs": [
        {
          "internalType": "address",
          "name": "",
          "type": "address"
        }
      ],
      "stateMutability": "view",
      "type": "function"
    },
    {
      "inputs": [
        {
          "internalType": "bytes32",
          "name": "role",
          "type": "bytes32"
        }
      ],
      "name": "getRoleMemberCount",
      "outputs": [
        {
          "internalType": "uint256",
          "name": "",
          "type": "uint256"
        }
      ],
      "stateMutability": "view",
      "type": "function"
    },
    {
      "inputs": [
        {
          "internalType": "bytes32",
          "name": "role",
          "type": "bytes32"
        },
        {
          "internalType": "address",
          "name": "account",
          "type": "address"
        }
      ],
      "name": "getRoleMemberIndex",
      "outputs": [
        {
          "internalType": "uint256",
          "name": "",
          "type": "uint256"
        }
      ],
      "stateMutability": "view",
      "type": "function"
    },
    {
      "inputs": [
        {
          "internalType": "uint8",
          "name": "domainID",
          "type": "uint8"
        },
        {
          "internalType": "uint64",
          "name": "depositNonce",
          "type": "uint64"
        },
        {
          "internalType": "bytes32",
          "name": "resourceID",
          "type": "bytes32"
        },
        {
          "internalType": "bytes",
          "name": "data",
          "type": "bytes"
        }
      ],
      "name": "getSignatures",
      "outputs": [
        {
          "internalType": "bytes[]",
          "name": "",
          "type": "bytes[]"
        }
      ],
      "stateMutability": "view",
      "type": "function"
    },
    {
      "inputs": [
        {
          "internalType": "bytes32",
          "name": "role",
          "type": "bytes32"
        },
        {
          "internalType": "address",
          "name": "account",
          "type": "address"
        }
      ],
      "name": "grantRole",
      "outputs": [],
      "stateMutability": "nonpayable",
      "type": "function"
    },
    {
      "inputs": [
        {
          "internalType": "bytes32",
          "name": "role",
          "type": "bytes32"
        },
        {
          "internalType": "address",
          "name": "account",
          "type": "address"
        }
      ],
      "name": "hasRole",
      "outputs": [
        {
          "internalType": "bool",
          "name": "",
          "type": "bool"
        }
      ],
      "stateMutability": "view",
      "type": "function"
    },
    {
      "inputs": [
        {
          "internalType": "bytes32",
          "name": "role",
          "type": "bytes32"
        },
        {
          "internalType": "address",
          "name": "account",
          "type": "address"
        }
      ],
      "name": "renounceRole",
      "outputs": [],
      "stateMutability": "nonpayable",
      "type": "function"
    },
    {
      "inputs": [
        {
          "internalType": "bytes32",
          "name": "role",
          "type": "bytes32"
        },
        {
          "internalType": "address",
          "name": "account",
          "type": "address"
        }
      ],
      "name": "revokeRole",
      "outputs": [],
      "stateMutability": "nonpayable",
      "type": "function"
    },
    {
      "inputs": [
        {
          "internalType": "bytes32",
          "name": "",
          "type": "bytes32"
        },
        {
          "internalType": "uint256",
          "name": "",
          "type": "uint256"
        }
      ],
      "name": "signatures",
      "outputs": [
        {
          "internalType": "bytes",
          "name": "",
          "type": "bytes"
        }
      ],
      "stateMutability": "view",
      "type": "function"
    },
    {
      "inputs": [
        {
          "internalType": "uint8",
          "name": "originDomainID",
          "type": "uint8"
        },
        {
          "internalType": "uint8",
          "name": "destinationDomainID",
          "type": "uint8"
        },
        {
          "internalType": "address",
          "name": "destinationBridge",
          "type": "address"
        },
        {
          "internalType": "uint64",
          "name": "depositNonce",
          "type": "uint64"
        },
        {
          "internalType": "bytes32",
          "name": "resourceID",
          "type": "bytes32"
        },
        {
          "internalType": "bytes",
          "name": "data",
          "type": "bytes"
        },
        {
          "internalType": "bytes",
          "name": "signature",
          "type": "bytes"
        }
      ],
      "name": "submitSignature",
      "outputs": [],
      "stateMutability": "nonpayable",
      "type": "function"
    }
  ],
  "bytecode": "0x600c6080526b5065726d697442726964676560a01b60a0527f058443738ec3641a3233a9f285e16671e4ad9755445580d761017e695f75052b600155610100604052600360c052620312e360ec1b60e0527fe6bbd6277e1bf288eed5e8d1780f9a50b239e86b153736bceebccf4ea79d90b36002553480156200008157600080fd5b506200008f60003362000095565b6200017e565b620000a18282620000a5565b5050565b600082815260208181526040909120620000ca91839062000c826200010c821b17901c565b15620000a15760405133906001600160a01b0383169084907f2f8788117e7eff1d82e926ec794901d17c78024a50270940304540a733656f0d90600090a45050565b600062000123836001600160a01b0384166200012c565b90505b92915050565b6000818152600183016020526040812054620001755750815460018181018455600084815260208082209093018490558454848252828601909352604090209190915562000126565b50600062000126565b611821806200018e6000396000f3fe608060405234801561001057600080fd5b506004361061012c5760003560e01c8063861fd043116100ad578063a217fddf11610071578063a217fddf146102f1578063aa44739d146102f9578063ca15c8731461032e578063d547741f14610341578063e5787a751461035457600080fd5b8063861fd043146102665780639010d07c1461027957806391d14854146102a4578063926d7d7f146102b7578063a11279c7146102de57600080fd5b806330adf81f116100f457806330adf81f146101d257806336568abe146101f95780634e0df3f61461020c5780635d2dab0b1461021f57806374400fd11461024657600080fd5b80630b18fec5146101315780631f241eca14610164578063248a9ca3146101875780632f2ff15d146101aa5780632fda959e146101bf575b600080fd5b61015161013f366004611377565b60046020526000908152604090205481565b6040519081526020015b60405180910390f35b610177610172366004611403565b610374565b604051901515815260200161015b565b6101516101953660046114c1565b60009081526020819052604090206002015490565b6101bd6101b83660046114da565b61056c565b005b6101bd6101cd366004611506565b6105ff565b6101517fc4cb5d35714699d6e85b9562b644e60393b418d974a5c1dd8efaadac37a142c581565b6101bd6102073660046114da565b610683565b61015161021a3660046114da565b6106fd565b6101517f8b73c3c69bb8fe3d512ecc4cf759cc79239f7b179b0ffacaa9a75d522b39400f81565b610259610254366004611530565b610728565b60405161015b919061159f565b6101bd610274366004611403565b6107e1565b61028c610287366004611530565b6109ee565b6040516001600160a01b03909116815260200161015b565b6101776102b23660046114da565b610a0d565b6101517fe2b7fb3b832174769106daebcfd6d1970523240dda11281102db9363b83b0dc481565b6101bd6102ec3660046115b2565b610a25565b610151600081565b61031c610307366004611377565b60036020526000908152604090205460ff1681565b60405160ff909116815260200161015b565b61015161033c3660046114c1565b610a95565b6101bd61034f3660046114da565b610aac565b6103676103623660046115dc565b610b2d565b60405161015b919061164b565b6000807fc4cb5d35714699d6e85b9562b644e60393b418d974a5c1dd8efaadac37a142c58b898989896040516103ab9291906116ad565b6040519081900381206103ef959493929160200194855260ff93909316602085015267ffffffffffffffff9190911660408401526060830152608082015260a00190565b60408051601f19818403018152918152815160209283012060ff8d1660009081526004909352908220549092506104eb9083901561043f5760ff8d16600090815260046020526040902054610444565b8c60ff165b600154600254604080517f8b73c3c69bb8fe3d512ecc4cf759cc79239f7b179b0ffacaa9a75d522b39400f60208083019190915281830194909452606081019290925260808201939093526001600160a01b038f1660a0808301919091528351808303909101815260c08201845280519083012061190160f01b60e083015260e2820152610102808201949094528251808203909401845261012201909152815191012090565b9050600061052f8287878080601f016020809104026020016040519081016040528093929190818152602001838380828437600092019190915250610c9792505050565b905061055b7fe2b7fb3b832174769106daebcfd6d1970523240dda11281102db9363b83b0dc482610a0d565b9d9c50505050505050505050505050565b6000828152602081905260409020600201546105889033610a0d565b6105f15760405162461bcd60e51b815260206004820152602f60248201527f416363657373436f6e74726f6c3a2073656e646572206d75737420626520616e60448201526e0818591b5a5b881d1bc819dc985b9d608a1b60648201526084015b60405180910390fd5b6105fb8282610cbb565b5050565b61060a600033610a0d565b6106565760405162461bcd60e51b815260206004820152601e60248201527f73656e64657220646f65736e277420686176652061646d696e20726f6c65000060448201526064016105e8565b61065f81610d14565b60ff9283166000908152600360205260409020805460ff1916919093161790915550565b6001600160a01b03811633146106f35760405162461bcd60e51b815260206004820152602f60248201527f416363657373436f6e74726f6c3a2063616e206f6e6c792072656e6f756e636560448201526e103937b632b9903337b91039b2b63360891b60648201526084016105e8565b6105fb8282610d6b565b6000828152602081815260408083206001600160a01b03851684526001019091529020545b92915050565b6005602052816000526040600020818154811061074457600080fd5b90600052602060002001600091509150508054610760906116bd565b80601f016020809104026020016040519081016040528092919081815260200182805461078c906116bd565b80156107d95780601f106107ae576101008083540402835291602001916107d9565b820191906000526020600020905b8154815290600101906020018083116107bc57829003601f168201915b505050505081565b6107f2898989898989898989610374565b6108325760405162461bcd60e51b8152602060048201526011602482015270696e76616c6964207369676e617475726560781b60448201526064016105e8565b600089878787876040516108479291906116ad565b6040519081900381206108849493929160200160ff94909416845267ffffffffffffffff9290921660208401526040830152606082015260800190565b60408051601f19818403018152918152815160209283012060ff808d1660009081526003855283812054838252600590955292909220549093509116116109055760405162461bcd60e51b81526020600482015260156024820152745369676e7475726520616c6561726479207061737360581b60448201526064016105e8565b600081815260056020908152604082208054600181018255908352912061092e910184846112d1565b50858a60ff167f61cb4bceda51bce60b1d6ed6a15c758737872a125214641da0ae8bb0f2fd2311898888888860405161096b959493929190611721565b60405180910390a360ff808a166000908152600360209081526040808320548584526005909252909120549116116109e257858a60ff167f34a202d5d1eb96571e8f79cd5ad505695728f56e0de6df829f702e6d4fc909eb89888888886040516109d9959493929190611721565b60405180910390a35b50505050505050505050565b6000828152602081905260408120610a069083610dc4565b9392505050565b6000828152602081905260408120610a069083610dd0565b610a30600033610a0d565b610a7c5760405162461bcd60e51b815260206004820152601e60248201527f73656e64657220646f65736e277420686176652061646d696e20726f6c65000060448201526064016105e8565b60ff918216600090815260046020526040902091169055565b600081815260208190526040812061072290610df2565b600082815260208190526040902060020154610ac89033610a0d565b6106f35760405162461bcd60e51b815260206004820152603060248201527f416363657373436f6e74726f6c3a2073656e646572206d75737420626520616e60448201526f2061646d696e20746f207265766f6b6560801b60648201526084016105e8565b6060600560008787878787604051610b469291906116ad565b604051908190038120610b839493929160200160ff94909416845267ffffffffffffffff9290921660208401526040830152606082015260800190565b604051602081830303815290604052805190602001208152602001908152602001600020805480602002602001604051908101604052809291908181526020016000905b82821015610c73578382906000526020600020018054610be6906116bd565b80601f0160208091040260200160405190810160405280929190818152602001828054610c12906116bd565b8015610c5f5780601f10610c3457610100808354040283529160200191610c5f565b820191906000526020600020905b815481529060010190602001808311610c4257829003601f168201915b505050505081526020019060010190610bc7565b50505050905095945050505050565b6000610a06836001600160a01b038416610dfc565b6000806000610ca68585610e4b565b91509150610cb381610ebb565b509392505050565b6000828152602081905260409020610cd39082610c82565b156105fb5760405133906001600160a01b0383169084907f2f8788117e7eff1d82e926ec794901d17c78024a50270940304540a733656f0d90600090a45050565b60006101008210610d675760405162461bcd60e51b815260206004820152601c60248201527f76616c756520646f6573206e6f742066697420696e203820626974730000000060448201526064016105e8565b5090565b6000828152602081905260409020610d839082611079565b156105fb5760405133906001600160a01b0383169084907ff6391f5c32d9c69d2a47ea670b442974b53935d1edc7fd64eb21e047a839171b90600090a45050565b6000610a06838361108e565b6001600160a01b03811660009081526001830160205260408120541515610a06565b6000610722825490565b6000818152600183016020526040812054610e4357508154600181810184556000848152602080822090930184905584548482528286019093526040902091909155610722565b506000610722565b600080825160411415610e825760208301516040840151606085015160001a610e76878285856110b8565b94509450505050610eb4565b825160401415610eac5760208301516040840151610ea18683836111a5565b935093505050610eb4565b506000905060025b9250929050565b6000816004811115610ecf57610ecf611764565b1415610ed85750565b6001816004811115610eec57610eec611764565b1415610f3a5760405162461bcd60e51b815260206004820152601860248201527f45434453413a20696e76616c6964207369676e6174757265000000000000000060448201526064016105e8565b6002816004811115610f4e57610f4e611764565b1415610f9c5760405162461bcd60e51b815260206004820152601f60248201527f45434453413a20696e76616c6964207369676e6174757265206c656e6774680060448201526064016105e8565b6003816004811115610fb057610fb0611764565b14156110095760405162461bcd60e51b815260206004820152602260248201527f45434453413a20696e76616c6964207369676e6174757265202773272076616c604482015261756560f01b60648201526084016105e8565b600481600481111561101d5761101d611764565b14156110765760405162461bcd60e51b815260206004820152602260248201527f45434453413a20696e76616c6964207369676e6174757265202776272076616c604482015261756560f01b60648201526084016105e8565b50565b6000610a06836001600160a01b0384166111de565b60008260000182815481106110a5576110a561177a565b9060005260206000200154905092915050565b6000807f7fffffffffffffffffffffffffffffff5d576e7357a4501ddfe92f46681b20a08311156110ef575060009050600361119c565b8460ff16601b1415801561110757508460ff16601c14155b15611118575060009050600461119c565b6040805160008082526020820180845289905260ff881692820192909252606081018690526080810185905260019060a0016020604051602081039080840390855afa15801561116c573d6000803e3d6000fd5b5050604051601f1901519150506001600160a01b0381166111955760006001925092505061119c565b9150600090505b94509492505050565b6000806001600160ff1b038316816111c260ff86901c601b6117a6565b90506111d0878288856110b8565b935093505050935093915050565b600081815260018301602052604081205480156112c75760006112026001836117be565b8554909150600090611216906001906117be565b905081811461127b5760008660000182815481106112365761123661177a565b90600052602060002001549050808760000184815481106112595761125961177a565b6000918252602080832090910192909255918252600188019052604090208390555b855486908061128c5761128c6117d5565b600190038181906000526020600020016000905590558560010160008681526020019081526020016000206000905560019350505050610722565b6000915050610722565b8280546112dd906116bd565b90600052602060002090601f0160209004810192826112ff5760008555611345565b82601f106113185782800160ff19823516178555611345565b82800160010185558215611345579182015b8281111561134557823582559160200191906001019061132a565b50610d679291505b80821115610d67576000815560010161134d565b803560ff8116811461137257600080fd5b919050565b60006020828403121561138957600080fd5b610a0682611361565b80356001600160a01b038116811461137257600080fd5b803567ffffffffffffffff8116811461137257600080fd5b60008083601f8401126113d357600080fd5b50813567ffffffffffffffff8111156113eb57600080fd5b602083019150836020828501011115610eb457600080fd5b600080600080600080600080600060e08a8c03121561142157600080fd5b61142a8a611361565b985061143860208b01611361565b975061144660408b01611392565b965061145460608b016113a9565b955060808a0135945060a08a013567ffffffffffffffff8082111561147857600080fd5b6114848d838e016113c1565b909650945060c08c013591508082111561149d57600080fd5b506114aa8c828d016113c1565b915080935050809150509295985092959850929598565b6000602082840312156114d357600080fd5b5035919050565b600080604083850312156114ed57600080fd5b823591506114fd60208401611392565b90509250929050565b6000806040838503121561151957600080fd5b61152283611361565b946020939093013593505050565b6000806040838503121561154357600080fd5b50508035926020909101359150565b6000815180845260005b818110156115785760208185018101518683018201520161155c565b8181111561158a576000602083870101525b50601f01601f19169290920160200192915050565b602081526000610a066020830184611552565b600080604083850312156115c557600080fd5b6115ce83611361565b91506114fd60208401611361565b6000806000806000608086880312156115f457600080fd5b6115fd86611361565b945061160b602087016113a9565b935060408601359250606086013567ffffffffffffffff81111561162e57600080fd5b61163a888289016113c1565b969995985093965092949392505050565b6000602080830181845280855180835260408601915060408160051b870101925083870160005b828110156116a057603f1988860301845261168e858351611552565b94509285019290850190600101611672565b5092979650505050505050565b8183823760009101908152919050565b600181811c908216806116d157607f821691505b602082108114156116f257634e487b7160e01b600052602260045260246000fd5b50919050565b81835281816020850137506000828201602090810191909152601f909101601f19169091010190565b67ffffffffffffffff861681526060602082015260006117456060830186886116f8565b82810360408401526117588185876116f8565b98975050505050505050565b634e487b7160e01b600052602160045260246000fd5b634e487b7160e01b600052603260045260246000fd5b634e487b7160e01b600052601160045260246000fd5b600082198211156117b9576117b9611790565b500190565b6000828210156117d0576117d0611790565b500390565b634e487b7160e01b600052603160045260246000fdfea2646970667358221220064fd6e7298eb3a7f03322524c16c1e92b460bc9c85e6bbdee51c0d86e22cfb264736f6c634300080b0033",
  "linkReferences": {},
  "deployedLinkReferences": {}
}