{
  "_format": "hh-sol-artifact-1",
  "contractName": "Signatures",
  "sourceName": "contracts/Signatures.sol",
  "abi": [
    {
      "inputs": [],
      "stateMutability": "nonpayable",
      "type": "constructor"
    },
    {
      "anonymous": false,
      "inputs": [
        {
          "indexed": false,
          "internalType": "address",
          "name": "account",
          "type": "address"
        }
      ],
      "name": "Paused",
      "type": "event"
    },
    {
      "anonymous": false,
      "inputs": [
        {
          "indexed": true,
          "internalType": "bytes32",
          "name": "role",
          "type": "bytes32"
        },
        {
          "indexed": true,
          "internalType": "address",
          "name": "account",
          "type": "address"
        },
        {
          "indexed": true,
          "internalType": "address",
          "name": "sender",
          "type": "address"
        }
      ],
      "name": "RoleGranted",
      "type": "event"
    },
    {
      "anonymous": false,
      "inputs": [
        {
          "indexed": true,
          "internalType": "bytes32",
          "name": "role",
          "type": "bytes32"
        },
        {
          "indexed": true,
          "internalType": "address",
          "name": "account",
          "type": "address"
        },
        {
          "indexed": true,
          "internalType": "address",
          "name": "sender",
          "type": "address"
        }
      ],
      "name": "RoleRevoked",
      "type": "event"
    },
    {
      "anonymous": false,
      "inputs": [
        {
          "indexed": true,
          "internalType": "uint8",
          "name": "originDomainID",
          "type": "uint8"
        },
        {
          "indexed": true,
          "internalType": "uint8",
          "name": "destinationDomainID",
          "type": "uint8"
        },
        {
          "indexed": false,
          "internalType": "uint64",
          "name": "depositNonce",
          "type": "uint64"
        },
        {
          "indexed": true,
          "internalType": "bytes32",
          "name": "resourceID",
          "type": "bytes32"
        },
        {
          "indexed": false,
          "internalType": "bytes",
          "name": "data",
          "type": "bytes"
        },
        {
          "indexed": false,
          "internalType": "bytes",
          "name": "signature",
          "type": "bytes"
        }
      ],
      "name": "SignaturePass",
      "type": "event"
    },
    {
      "anonymous": false,
      "inputs": [
        {
          "indexed": true,
          "internalType": "uint8",
          "name": "originDomainID",
          "type": "uint8"
        },
        {
          "indexed": true,
          "internalType": "uint8",
          "name": "destinationDomainID",
          "type": "uint8"
        },
        {
          "indexed": false,
          "internalType": "uint64",
          "name": "depositNonce",
          "type": "uint64"
        },
        {
          "indexed": true,
          "internalType": "bytes32",
          "name": "resourceID",
          "type": "bytes32"
        },
        {
          "indexed": false,
          "internalType": "bytes",
          "name": "data",
          "type": "bytes"
        },
        {
          "indexed": false,
          "internalType": "bytes",
          "name": "signature",
          "type": "bytes"
        }
      ],
      "name": "SubmitSignature",
      "type": "event"
    },
    {
      "anonymous": false,
      "inputs": [
        {
          "indexed": false,
          "internalType": "address",
          "name": "account",
          "type": "address"
        }
      ],
      "name": "Unpaused",
      "type": "event"
    },
    {
      "inputs": [],
      "name": "DEFAULT_ADMIN_ROLE",
      "outputs": [
        {
          "internalType": "bytes32",
          "name": "",
          "type": "bytes32"
        }
      ],
      "stateMutability": "view",
      "type": "function"
    },
    {
      "inputs": [],
      "name": "PERMIT_TYPEHASH",
      "outputs": [
        {
          "internalType": "bytes32",
          "name": "",
          "type": "bytes32"
        }
      ],
      "stateMutability": "view",
      "type": "function"
    },
    {
      "inputs": [],
      "name": "RELAYER_ROLE",
      "outputs": [
        {
          "internalType": "bytes32",
          "name": "",
          "type": "bytes32"
        }
      ],
      "stateMutability": "view",
      "type": "function"
    },
    {
      "inputs": [],
      "name": "_TYPE_HASH",
      "outputs": [
        {
          "internalType": "bytes32",
          "name": "",
          "type": "bytes32"
        }
      ],
      "stateMutability": "view",
      "type": "function"
    },
    {
      "inputs": [
        {
          "internalType": "uint8",
          "name": "",
          "type": "uint8"
        }
      ],
      "name": "_relayerThreshold",
      "outputs": [
        {
          "internalType": "uint8",
          "name": "",
          "type": "uint8"
        }
      ],
      "stateMutability": "view",
      "type": "function"
    },
    {
      "inputs": [
        {
          "internalType": "uint8",
          "name": "destinationDomainID",
          "type": "uint8"
        },
        {
          "internalType": "uint256",
          "name": "newThreshold",
          "type": "uint256"
        }
      ],
      "name": "adminChangeRelayerThreshold",
      "outputs": [],
      "stateMutability": "nonpayable",
      "type": "function"
    },
    {
      "inputs": [
        {
          "internalType": "uint8",
          "name": "destinationDomainID",
          "type": "uint8"
        },
        {
          "internalType": "uint256",
          "name": "chainId",
          "type": "uint256"
        },
        {
          "internalType": "address",
          "name": "destinationBridge",
          "type": "address"
        }
      ],
      "name": "adminSetDestChainId",
      "outputs": [],
      "stateMutability": "nonpayable",
      "type": "function"
    },
    {
      "inputs": [
        {
          "internalType": "uint8",
          "name": "domainID",
          "type": "uint8"
        },
        {
          "internalType": "uint8",
          "name": "destinationDomainID",
          "type": "uint8"
        },
        {
          "internalType": "address",
          "name": "destinationBridge",
          "type": "address"
        },
        {
          "internalType": "uint64",
          "name": "depositNonce",
          "type": "uint64"
        },
        {
          "internalType": "bytes32",
          "name": "resourceID",
          "type": "bytes32"
        },
        {
          "internalType": "bytes",
          "name": "data",
          "type": "bytes"
        },
        {
          "internalType": "bytes",
          "name": "signature",
          "type": "bytes"
        }
      ],
      "name": "checkSignature",
      "outputs": [
        {
          "internalType": "address",
          "name": "",
          "type": "address"
        }
      ],
      "stateMutability": "view",
      "type": "function"
    },
    {
      "inputs": [
        {
          "internalType": "uint8",
          "name": "",
          "type": "uint8"
        }
      ],
      "name": "destChainId",
      "outputs": [
        {
          "internalType": "uint256",
          "name": "",
          "type": "uint256"
        }
      ],
      "stateMutability": "view",
      "type": "function"
    },
    {
      "inputs": [
        {
          "internalType": "uint8",
          "name": "",
          "type": "uint8"
        }
      ],
      "name": "destinationBridgeAddress",
      "outputs": [
        {
          "internalType": "address",
          "name": "",
          "type": "address"
        }
      ],
      "stateMutability": "view",
      "type": "function"
    },
    {
      "inputs": [
        {
          "internalType": "uint256",
          "name": "index",
          "type": "uint256"
        }
      ],
      "name": "getProposal",
      "outputs": [
        {
          "components": [
            {
              "internalType": "uint8",
              "name": "originDomainID",
              "type": "uint8"
            },
            {
              "internalType": "uint8",
              "name": "destinationDomainID",
              "type": "uint8"
            },
            {
              "internalType": "address",
              "name": "destinationBridge",
              "type": "address"
            },
            {
              "internalType": "uint64",
              "name": "depositNonce",
              "type": "uint64"
            },
            {
              "internalType": "bytes32",
              "name": "resourceID",
              "type": "bytes32"
            },
            {
              "internalType": "bytes",
              "name": "data",
              "type": "bytes"
            },
            {
              "internalType": "uint256",
              "name": "proposalIndex",
              "type": "uint256"
            }
          ],
          "internalType": "struct Signatures.Proposal",
          "name": "",
          "type": "tuple"
        }
      ],
      "stateMutability": "view",
      "type": "function"
    },
    {
      "inputs": [
        {
          "internalType": "bytes32",
          "name": "role",
          "type": "bytes32"
        }
      ],
      "name": "getRoleAdmin",
      "outputs": [
        {
          "internalType": "bytes32",
          "name": "",
          "type": "bytes32"
        }
      ],
      "stateMutability": "view",
      "type": "function"
    },
    {
      "inputs": [
        {
          "internalType": "bytes32",
          "name": "role",
          "type": "bytes32"
        },
        {
          "internalType": "uint256",
          "name": "index",
          "type": "uint256"
        }
      ],
      "name": "getRoleMember",
      "outputs": [
        {
          "internalType": "address",
          "name": "",
          "type": "address"
        }
      ],
      "stateMutability": "view",
      "type": "function"
    },
    {
      "inputs": [
        {
          "internalType": "bytes32",
          "name": "role",
          "type": "bytes32"
        }
      ],
      "name": "getRoleMemberCount",
      "outputs": [
        {
          "internalType": "uint256",
          "name": "",
          "type": "uint256"
        }
      ],
      "stateMutability": "view",
      "type": "function"
    },
    {
      "inputs": [
        {
          "internalType": "bytes32",
          "name": "role",
          "type": "bytes32"
        },
        {
          "internalType": "address",
          "name": "account",
          "type": "address"
        }
      ],
      "name": "getRoleMemberIndex",
      "outputs": [
        {
          "internalType": "uint256",
          "name": "",
          "type": "uint256"
        }
      ],
      "stateMutability": "view",
      "type": "function"
    },
    {
      "inputs": [
        {
          "internalType": "uint8",
          "name": "domainID",
          "type": "uint8"
        },
        {
          "internalType": "uint64",
          "name": "depositNonce",
          "type": "uint64"
        },
        {
          "internalType": "bytes32",
          "name": "resourceID",
          "type": "bytes32"
        },
        {
          "internalType": "bytes",
          "name": "data",
          "type": "bytes"
        }
      ],
      "name": "getSignatures",
      "outputs": [
        {
          "internalType": "bytes[]",
          "name": "",
          "type": "bytes[]"
        }
      ],
      "stateMutability": "view",
      "type": "function"
    },
    {
      "inputs": [
        {
          "internalType": "uint256",
          "name": "index",
          "type": "uint256"
        }
      ],
      "name": "getSignatures",
      "outputs": [
        {
          "internalType": "bytes[]",
          "name": "",
          "type": "bytes[]"
        }
      ],
      "stateMutability": "view",
      "type": "function"
    },
    {
      "inputs": [
        {
          "internalType": "bytes32",
          "name": "role",
          "type": "bytes32"
        },
        {
          "internalType": "address",
          "name": "account",
          "type": "address"
        }
      ],
      "name": "grantRole",
      "outputs": [],
      "stateMutability": "nonpayable",
      "type": "function"
    },
    {
      "inputs": [
        {
          "internalType": "bytes32",
          "name": "role",
          "type": "bytes32"
        },
        {
          "internalType": "address",
          "name": "account",
          "type": "address"
        }
      ],
      "name": "hasRole",
      "outputs": [
        {
          "internalType": "bool",
          "name": "",
          "type": "bool"
        }
      ],
      "stateMutability": "view",
      "type": "function"
    },
    {
      "inputs": [
        {
          "internalType": "bytes",
          "name": "",
          "type": "bytes"
        }
      ],
      "name": "hasVote",
      "outputs": [
        {
          "internalType": "bool",
          "name": "",
          "type": "bool"
        }
      ],
      "stateMutability": "view",
      "type": "function"
    },
    {
      "inputs": [
        {
          "internalType": "uint256",
          "name": "",
          "type": "uint256"
        }
      ],
      "name": "indexToProposal",
      "outputs": [
        {
          "internalType": "bytes32",
          "name": "",
          "type": "bytes32"
        }
      ],
      "stateMutability": "view",
      "type": "function"
    },
    {
      "inputs": [],
      "name": "paused",
      "outputs": [
        {
          "internalType": "bool",
          "name": "",
          "type": "bool"
        }
      ],
      "stateMutability": "view",
      "type": "function"
    },
    {
      "inputs": [],
      "name": "proposalIndex",
      "outputs": [
        {
          "internalType": "uint256",
          "name": "",
          "type": "uint256"
        }
      ],
      "stateMutability": "view",
      "type": "function"
    },
    {
      "inputs": [
        {
          "internalType": "bytes32",
          "name": "",
          "type": "bytes32"
        }
      ],
      "name": "proposals",
      "outputs": [
        {
          "internalType": "uint8",
          "name": "originDomainID",
          "type": "uint8"
        },
        {
          "internalType": "uint8",
          "name": "destinationDomainID",
          "type": "uint8"
        },
        {
          "internalType": "address",
          "name": "destinationBridge",
          "type": "address"
        },
        {
          "internalType": "uint64",
          "name": "depositNonce",
          "type": "uint64"
        },
        {
          "internalType": "bytes32",
          "name": "resourceID",
          "type": "bytes32"
        },
        {
          "internalType": "bytes",
          "name": "data",
          "type": "bytes"
        },
        {
          "internalType": "uint256",
          "name": "proposalIndex",
          "type": "uint256"
        }
      ],
      "stateMutability": "view",
      "type": "function"
    },
    {
      "inputs": [
        {
          "internalType": "bytes32",
          "name": "",
          "type": "bytes32"
        },
        {
          "internalType": "address",
          "name": "",
          "type": "address"
        }
      ],
      "name": "relayerVote",
      "outputs": [
        {
          "internalType": "bool",
          "name": "",
          "type": "bool"
        }
      ],
      "stateMutability": "view",
      "type": "function"
    },
    {
      "inputs": [
        {
          "internalType": "bytes32",
          "name": "role",
          "type": "bytes32"
        },
        {
          "internalType": "address",
          "name": "account",
          "type": "address"
        }
      ],
      "name": "renounceRole",
      "outputs": [],
      "stateMutability": "nonpayable",
      "type": "function"
    },
    {
      "inputs": [
        {
          "internalType": "bytes32",
          "name": "role",
          "type": "bytes32"
        },
        {
          "internalType": "address",
          "name": "account",
          "type": "address"
        }
      ],
      "name": "revokeRole",
      "outputs": [],
      "stateMutability": "nonpayable",
      "type": "function"
    },
    {
      "inputs": [
        {
          "internalType": "bytes32",
          "name": "",
          "type": "bytes32"
        },
        {
          "internalType": "uint256",
          "name": "",
          "type": "uint256"
        }
      ],
      "name": "signatures",
      "outputs": [
        {
          "internalType": "bytes",
          "name": "",
          "type": "bytes"
        }
      ],
      "stateMutability": "view",
      "type": "function"
    },
    {
      "inputs": [
        {
          "internalType": "uint8",
          "name": "originDomainID",
          "type": "uint8"
        },
        {
          "internalType": "uint8",
          "name": "destinationDomainID",
          "type": "uint8"
        },
        {
          "internalType": "address",
          "name": "destinationBridge",
          "type": "address"
        },
        {
          "internalType": "uint64",
          "name": "depositNonce",
          "type": "uint64"
        },
        {
          "internalType": "bytes32",
          "name": "resourceID",
          "type": "bytes32"
        },
        {
          "internalType": "bytes",
          "name": "data",
          "type": "bytes"
        },
        {
          "internalType": "bytes",
          "name": "signature",
          "type": "bytes"
        }
      ],
      "name": "submitSignature",
      "outputs": [],
      "stateMutability": "nonpayable",
      "type": "function"
    }
  ],
  "bytecode": "0x60806040523480156200001157600080fd5b506000805460ff191681556200002890336200002e565b62000119565b6200003a82826200003e565b5050565b600082815260016020908152604090912062000065918390620014f8620000a7821b17901c565b156200003a5760405133906001600160a01b0383169084907f2f8788117e7eff1d82e926ec794901d17c78024a50270940304540a733656f0d90600090a45050565b6000620000be836001600160a01b038416620000c7565b90505b92915050565b60008181526001830160205260408120546200011057508154600181810184556000848152602080822090930184905584548482528286019093526040902091909155620000c1565b506000620000c1565b6122a380620001296000396000f3fe608060405234801561001057600080fd5b50600436106101cf5760003560e01c80635c975abb11610104578063926d7d7f116100a2578063ca15c87311610071578063ca15c873146104d0578063d547741f146104e3578063e5787a75146104f6578063f4eccb8f1461051657600080fd5b8063926d7d7f1461044c578063a217fddf14610473578063aa44739d1461047b578063c7f758a8146104b057600080fd5b80637600c4a5116100de5780637600c4a5146103ea578063861fd043146104135780639010d07c1461042657806391d148541461043957600080fd5b80635c975abb146103985780635d2dab0b146103a357806374400fd1146103ca57600080fd5b806332ed5b121161017157806336a3a44e1161014b57806336a3a44e1461033b5780634e0df3f61461034e57806350916c7c146103615780635977e0f21461038f57600080fd5b806332ed5b12146102e25780633640850b1461030857806336568abe1461032857600080fd5b80632703a4fd116101ad5780632703a4fd146102555780632f2ff15d146102935780632fda959e146102a857806330adf81f146102bb57600080fd5b80630b18fec5146101d45780631f241eca14610207578063248a9ca314610232575b600080fd5b6101f46101e2366004611c4b565b60036020526000908152604090205481565b6040519081526020015b60405180910390f35b61021a610215366004611cd5565b610529565b6040516001600160a01b0390911681526020016101fe565b6101f4610240366004611d92565b60009081526001602052604090206002015490565b610283610263366004611dab565b600660209081526000928352604080842090915290825290205460ff1681565b60405190151581526020016101fe565b6102a66102a1366004611dab565b61075a565b005b6102a66102b6366004611dd7565b6107ed565b6101f47fc4cb5d35714699d6e85b9562b644e60393b418d974a5c1dd8efaadac37a142c581565b6102f56102f0366004611d92565b610871565b6040516101fe9796959493929190611e4e565b6101f4610316366004611d92565b600a6020526000908152604090205481565b6102a6610336366004611dab565b610951565b6102a6610349366004611eaa565b6109cb565b6101f461035c366004611dab565b610a61565b61028361036f366004611efc565b805160208183018101805160058252928201919093012091525460ff1681565b6101f460085481565b60005460ff16610283565b6101f47f8b73c3c69bb8fe3d512ecc4cf759cc79239f7b179b0ffacaa9a75d522b39400f81565b6103dd6103d8366004611fac565b610a8d565b6040516101fe9190611fce565b61021a6103f8366004611c4b565b6007602052600090815260409020546001600160a01b031681565b6102a6610421366004611cd5565b610b46565b61021a610434366004611fac565b61100b565b610283610447366004611dab565b61102a565b6101f47fe2b7fb3b832174769106daebcfd6d1970523240dda11281102db9363b83b0dc481565b6101f4600081565b61049e610489366004611c4b565b60026020526000908152604090205460ff1681565b60405160ff90911681526020016101fe565b6104c36104be366004611d92565b611042565b6040516101fe9190611fe1565b6101f46104de366004611d92565b6111d9565b6102a66104f1366004611dab565b6111f0565b61050961050436600461205d565b611271565b6040516101fe91906120cb565b610509610524366004611d92565b6113c5565b6000807fc4cb5d35714699d6e85b9562b644e60393b418d974a5c1dd8efaadac37a142c58b8989898960405161056092919061212d565b6040519081900381206105a3959493929160200194855260ff9390931660208501526001600160401b039190911660408401526060830152608082015260a00190565b60408051601f19818403018152918152815160209283012060ff8d166000908152600390935290822054909250610708908390156105f35760ff8d166000908152600360205260409020546105f8565b8c60ff165b604080518082018252600c81526b5065726d697442726964676560a01b6020918201528151808301835260038152620312e360ec1b9082015281517f8b73c3c69bb8fe3d512ecc4cf759cc79239f7b179b0ffacaa9a75d522b39400f818301527f058443738ec3641a3233a9f285e16671e4ad9755445580d761017e695f75052b818401527fe6bbd6277e1bf288eed5e8d1780f9a50b239e86b153736bceebccf4ea79d90b3606082015260808101939093526001600160a01b038f1660a0808501919091528251808503909101815260c08401835280519082012061190160f01b60e085015260e284015261010280840194909452815180840390940184526101229092019052815191012090565b905061074a8186868080601f01602080910402602001604051908101604052809392919081815260200183838082843760009201919091525061150d92505050565b9c9b505050505050505050505050565b600082815260016020526040902060020154610776903361102a565b6107df5760405162461bcd60e51b815260206004820152602f60248201527f416363657373436f6e74726f6c3a2073656e646572206d75737420626520616e60448201526e0818591b5a5b881d1bc819dc985b9d608a1b60648201526084015b60405180910390fd5b6107e98282611531565b5050565b6107f860003361102a565b6108445760405162461bcd60e51b815260206004820152601e60248201527f73656e64657220646f65736e277420686176652061646d696e20726f6c65000060448201526064016107d6565b61084d8161158a565b60ff9283166000908152600260205260409020805460ff1916919093161790915550565b60096020526000908152604090208054600182015460028301805460ff808516956101008604909116946201000081046001600160a01b031694600160b01b9091046001600160401b03169390926108c89061213d565b80601f01602080910402602001604051908101604052809291908181526020018280546108f49061213d565b80156109415780601f1061091657610100808354040283529160200191610941565b820191906000526020600020905b81548152906001019060200180831161092457829003601f168201915b5050505050908060030154905087565b6001600160a01b03811633146109c15760405162461bcd60e51b815260206004820152602f60248201527f416363657373436f6e74726f6c3a2063616e206f6e6c792072656e6f756e636560448201526e103937b632b9903337b91039b2b63360891b60648201526084016107d6565b6107e982826115e1565b6109d660003361102a565b610a225760405162461bcd60e51b815260206004820152601e60248201527f73656e64657220646f65736e277420686176652061646d696e20726f6c65000060448201526064016107d6565b60ff92909216600090815260036020908152604080832093909355600790522080546001600160a01b0319166001600160a01b03909216919091179055565b60008281526001602081815260408084206001600160a01b038616855290920190529020545b92915050565b60046020528160005260406000208181548110610aa957600080fd5b90600052602060002001600091509150508054610ac59061213d565b80601f0160208091040260200160405190810160405280929190818152602001828054610af19061213d565b8015610b3e5780601f10610b1357610100808354040283529160200191610b3e565b820191906000526020600020905b815481529060010190602001808311610b2157829003601f168201915b505050505081565b610b4e61163a565b6000610b618a8a8a8a8a8a8a8a8a610529565b9050610b8d7fe2b7fb3b832174769106daebcfd6d1970523240dda11281102db9363b83b0dc48261102a565b610bcd5760405162461bcd60e51b8152602060048201526011602482015270696e76616c6964207369676e617475726560781b60448201526064016107d6565b60008a8a89898989604051610be392919061212d565b6040805191829003822060ff968716602084015294909516948101949094526001600160401b03919091166060840152608083015260a082015260c00160408051601f1981840301815291815281516020928301206000818152600684528281206001600160a01b038716825290935291205490915060ff1615610ca95760405162461bcd60e51b815260206004820152601860248201527f7369676e617475726520616c6561726479207375626d6974000000000000000060448201526064016107d6565b60008181526006602090815260408083206001600160a01b03861684528252808320805460ff1916600117905560ff8d8116845260028352818420548585526004909352922054911611610d375760405162461bcd60e51b81526020600482015260156024820152745369676e7475726520616c6561726479207061737360581b60448201526064016107d6565b60ff8a166000908152600760205260409020546001600160a01b038a8116911614610da45760405162461bcd60e51b815260206004820152601960248201527f696e76616c69642064657374696e6174696f6e4272696467650000000000000060448201526064016107d6565b600081815260046020526040902054610f195760088054906000610dc78361218e565b91905055506040518060e001604052808c60ff1681526020018b60ff1681526020018a6001600160a01b03168152602001896001600160401b0316815260200188815260200187878080601f01602080910402602001604051908101604052809392919081815260200183838082843760009201829052509385525050600854602093840152508381526009825260409081902083518154858501519386015160608701516001600160401b0316600160b01b0267ffffffffffffffff60b01b196001600160a01b0390921662010000029190911662010000600160f01b031960ff9687166101000261ffff1990941696909416959095179190911791909116929092179190911781556080830151600182015560a083015180519192610ef692600285019290910190611b2c565b5060c091909101516003909101556008546000908152600a602052604090208190555b6000818152600460209081526040822080546001810182559083529120610f4291018585611bac565b50868a60ff168c60ff167fdbf724cd2f174f6ee6dc7d45f557ca42e3f0c483d5ac5da1317ade0e540889078b8a8a8a8a604051610f839594939291906121d2565b60405180910390a460ff808b16600090815260026020908152604080832054858452600490925290912054911611610ffe57868a60ff168c60ff167fd94e275aae893bc4cab1c14c3052a527a80ae5542ad2047e0dbe0ceeb79bee018b8a8a8a8a604051610ff59594939291906121d2565b60405180910390a45b5050505050505050505050565b60008281526001602052604081206110239083611682565b9392505050565b6000828152600160205260408120611023908361168e565b6040805160e08101825260008082526020820181905291810182905260608082018390526080820183905260a082015260c08101919091526008548211156110c15760405162461bcd60e51b8152602060048201526012602482015271141c9bdc1bdcd85b081b9bdd08195e1a5cdd60721b60448201526064016107d6565b6000828152600a602090815260408083205483526009825291829020825160e081018452815460ff8082168352610100820416938201939093526201000083046001600160a01b031693810193909352600160b01b9091046001600160401b031660608301526001810154608083015260028101805460a0840191906111469061213d565b80601f01602080910402602001604051908101604052809291908181526020018280546111729061213d565b80156111bf5780601f10611194576101008083540402835291602001916111bf565b820191906000526020600020905b8154815290600101906020018083116111a257829003601f168201915b505050505081526020016003820154815250509050919050565b6000818152600160205260408120610a87906116b0565b60008281526001602052604090206002015461120c903361102a565b6109c15760405162461bcd60e51b815260206004820152603060248201527f416363657373436f6e74726f6c3a2073656e646572206d75737420626520616e60448201526f2061646d696e20746f207265766f6b6560801b60648201526084016107d6565b606060046000878787878760405161128a92919061212d565b6040519081900381206112c69493929160200160ff9490941684526001600160401b039290921660208401526040830152606082015260800190565b604051602081830303815290604052805190602001208152602001908152602001600020805480602002602001604051908101604052809291908181526020016000905b828210156113b65783829060005260206000200180546113299061213d565b80601f01602080910402602001604051908101604052809291908181526020018280546113559061213d565b80156113a25780601f10611377576101008083540402835291602001916113a2565b820191906000526020600020905b81548152906001019060200180831161138557829003601f168201915b50505050508152602001906001019061130a565b50505050905095945050505050565b606060085482111561140e5760405162461bcd60e51b8152602060048201526012602482015271141c9bdc1bdcd85b081b9bdd08195e1a5cdd60721b60448201526064016107d6565b6000828152600a602090815260408083205483526004825280832080548251818502810185019093528083529193909284015b828210156114ed5783829060005260206000200180546114609061213d565b80601f016020809104026020016040519081016040528092919081815260200182805461148c9061213d565b80156114d95780601f106114ae576101008083540402835291602001916114d9565b820191906000526020600020905b8154815290600101906020018083116114bc57829003601f168201915b505050505081526020019060010190611441565b505050509050919050565b6000611023836001600160a01b0384166116ba565b600080600061151c8585611709565b915091506115298161174f565b509392505050565b600082815260016020526040902061154990826114f8565b156107e95760405133906001600160a01b0383169084907f2f8788117e7eff1d82e926ec794901d17c78024a50270940304540a733656f0d90600090a45050565b600061010082106115dd5760405162461bcd60e51b815260206004820152601c60248201527f76616c756520646f6573206e6f742066697420696e203820626974730000000060448201526064016107d6565b5090565b60008281526001602052604090206115f9908261190d565b156107e95760405133906001600160a01b0383169084907ff6391f5c32d9c69d2a47ea670b442974b53935d1edc7fd64eb21e047a839171b90600090a45050565b60005460ff16156116805760405162461bcd60e51b815260206004820152601060248201526f14185d5cd8589b194e881c185d5cd95960821b60448201526064016107d6565b565b60006110238383611922565b6001600160a01b03811660009081526001830160205260408120541515611023565b6000610a87825490565b600081815260018301602052604081205461170157508154600181810184556000848152602080822090930184905584548482528286019093526040902091909155610a87565b506000610a87565b6000808251604114156117405760208301516040840151606085015160001a6117348782858561194c565b94509450505050611748565b506000905060025b9250929050565b600081600481111561176357611763612214565b141561176c5750565b600181600481111561178057611780612214565b14156117ce5760405162461bcd60e51b815260206004820152601860248201527f45434453413a20696e76616c6964207369676e6174757265000000000000000060448201526064016107d6565b60028160048111156117e2576117e2612214565b14156118305760405162461bcd60e51b815260206004820152601f60248201527f45434453413a20696e76616c6964207369676e6174757265206c656e6774680060448201526064016107d6565b600381600481111561184457611844612214565b141561189d5760405162461bcd60e51b815260206004820152602260248201527f45434453413a20696e76616c6964207369676e6174757265202773272076616c604482015261756560f01b60648201526084016107d6565b60048160048111156118b1576118b1612214565b141561190a5760405162461bcd60e51b815260206004820152602260248201527f45434453413a20696e76616c6964207369676e6174757265202776272076616c604482015261756560f01b60648201526084016107d6565b50565b6000611023836001600160a01b038416611a39565b60008260000182815481106119395761193961222a565b9060005260206000200154905092915050565b6000807f7fffffffffffffffffffffffffffffff5d576e7357a4501ddfe92f46681b20a08311156119835750600090506003611a30565b8460ff16601b1415801561199b57508460ff16601c14155b156119ac5750600090506004611a30565b6040805160008082526020820180845289905260ff881692820192909252606081018690526080810185905260019060a0016020604051602081039080840390855afa158015611a00573d6000803e3d6000fd5b5050604051601f1901519150506001600160a01b038116611a2957600060019250925050611a30565b9150600090505b94509492505050565b60008181526001830160205260408120548015611b22576000611a5d600183612240565b8554909150600090611a7190600190612240565b9050818114611ad6576000866000018281548110611a9157611a9161222a565b9060005260206000200154905080876000018481548110611ab457611ab461222a565b6000918252602080832090910192909255918252600188019052604090208390555b8554869080611ae757611ae7612257565b600190038181906000526020600020016000905590558560010160008681526020019081526020016000206000905560019350505050610a87565b6000915050610a87565b828054611b389061213d565b90600052602060002090601f016020900481019282611b5a5760008555611ba0565b82601f10611b7357805160ff1916838001178555611ba0565b82800160010185558215611ba0579182015b82811115611ba0578251825591602001919060010190611b85565b506115dd929150611c20565b828054611bb89061213d565b90600052602060002090601f016020900481019282611bda5760008555611ba0565b82601f10611bf35782800160ff19823516178555611ba0565b82800160010185558215611ba0579182015b82811115611ba0578235825591602001919060010190611c05565b5b808211156115dd5760008155600101611c21565b803560ff81168114611c4657600080fd5b919050565b600060208284031215611c5d57600080fd5b61102382611c35565b80356001600160a01b0381168114611c4657600080fd5b80356001600160401b0381168114611c4657600080fd5b60008083601f840112611ca657600080fd5b5081356001600160401b03811115611cbd57600080fd5b60208301915083602082850101111561174857600080fd5b600080600080600080600080600060e08a8c031215611cf357600080fd5b611cfc8a611c35565b9850611d0a60208b01611c35565b9750611d1860408b01611c66565b9650611d2660608b01611c7d565b955060808a0135945060a08a01356001600160401b0380821115611d4957600080fd5b611d558d838e01611c94565b909650945060c08c0135915080821115611d6e57600080fd5b50611d7b8c828d01611c94565b915080935050809150509295985092959850929598565b600060208284031215611da457600080fd5b5035919050565b60008060408385031215611dbe57600080fd5b82359150611dce60208401611c66565b90509250929050565b60008060408385031215611dea57600080fd5b611df383611c35565b946020939093013593505050565b6000815180845260005b81811015611e2757602081850181015186830182015201611e0b565b81811115611e39576000602083870101525b50601f01601f19169290920160200192915050565b60ff8816815260ff8716602082015260018060a01b03861660408201526001600160401b038516606082015283608082015260e060a08201526000611e9660e0830185611e01565b90508260c083015298975050505050505050565b600080600060608486031215611ebf57600080fd5b611ec884611c35565b925060208401359150611edd60408501611c66565b90509250925092565b634e487b7160e01b600052604160045260246000fd5b600060208284031215611f0e57600080fd5b81356001600160401b0380821115611f2557600080fd5b818401915084601f830112611f3957600080fd5b813581811115611f4b57611f4b611ee6565b604051601f8201601f19908116603f01168101908382118183101715611f7357611f73611ee6565b81604052828152876020848701011115611f8c57600080fd5b826020860160208301376000928101602001929092525095945050505050565b60008060408385031215611fbf57600080fd5b50508035926020909101359150565b6020815260006110236020830184611e01565b6020815260ff825116602082015260ff602083015116604082015260018060a01b0360408301511660608201526001600160401b036060830151166080820152608082015160a0820152600060a083015160e060c0840152612047610100840182611e01565b905060c084015160e08401528091505092915050565b60008060008060006080868803121561207557600080fd5b61207e86611c35565b945061208c60208701611c7d565b93506040860135925060608601356001600160401b038111156120ae57600080fd5b6120ba88828901611c94565b969995985093965092949392505050565b6000602080830181845280855180835260408601915060408160051b870101925083870160005b8281101561212057603f1988860301845261210e858351611e01565b945092850192908501906001016120f2565b5092979650505050505050565b8183823760009101908152919050565b600181811c9082168061215157607f821691505b6020821081141561217257634e487b7160e01b600052602260045260246000fd5b50919050565b634e487b7160e01b600052601160045260246000fd5b60006000198214156121a2576121a2612178565b5060010190565b81835281816020850137506000828201602090810191909152601f909101601f19169091010190565b6001600160401b03861681526060602082015260006121f56060830186886121a9565b82810360408401526122088185876121a9565b98975050505050505050565b634e487b7160e01b600052602160045260246000fd5b634e487b7160e01b600052603260045260246000fd5b60008282101561225257612252612178565b500390565b634e487b7160e01b600052603160045260246000fdfea26469706673582212204659e045f1ca32d7b7ff11a181f79736c1a0fd2985cd2928a1a2bfbd0853169664736f6c634300080b0033",
  "linkReferences": {},
  "deployedLinkReferences": {}
}