{
  "_format": "hh-sol-artifact-1",
  "contractName": "PausableUpgradeable",
  "sourceName": "contracts/utils/PausableUpgradeable.sol",
  "abi": [
    {
      "anonymous": false,
      "inputs": [
        {
          "indexed": false,
          "internalType": "address",
          "name": "account",
          "type": "address"
        }
      ],
      "name": "Paused",
      "type": "event"
    },
    {
      "anonymous": false,
      "inputs": [
        {
          "indexed": false,
          "internalType": "address",
          "name": "account",
          "type": "address"
        }
      ],
      "name": "Unpaused",
      "type": "event"
    },
    {
      "inputs": [],
      "name": "paused",
      "outputs": [
        {
          "internalType": "bool",
          "name": "",
          "type": "bool"
        }
      ],
      "stateMutability": "view",
      "type": "function"
    }
  ],
  "bytecode": "0x6080604052348015600f57600080fd5b50608380601d6000396000f3fe6080604052348015600f57600080fd5b506004361060285760003560e01c80635c975abb14602d575b600080fd5b60005462010000900460ff16604051901515815260200160405180910390f3fea264697066735822122010a71a59132e0f3f18dfbf85eb21628a81a75211deed379fd021c7cf5e4aaf4564736f6c634300080b0033",
  "linkReferences": {},
  "deployedLinkReferences": {}
}