{
  "_format": "hh-sol-artifact-1",
  "contractName": "ERC1155HandlerUpgradeable",
  "sourceName": "contracts/handlers/ERC1155HandlerUpgradeable.sol",
  "abi": [
    {
      "inputs": [],
      "name": "_bridgeAddress",
      "outputs": [
        {
          "internalType": "address",
          "name": "",
          "type": "address"
        }
      ],
      "stateMutability": "view",
      "type": "function"
    },
    {
      "inputs": [
        {
          "internalType": "address",
          "name": "",
          "type": "address"
        }
      ],
      "name": "_burnList",
      "outputs": [
        {
          "internalType": "bool",
          "name": "",
          "type": "bool"
        }
      ],
      "stateMutability": "view",
      "type": "function"
    },
    {
      "inputs": [
        {
          "internalType": "address",
          "name": "",
          "type": "address"
        }
      ],
      "name": "_contractWhitelist",
      "outputs": [
        {
          "internalType": "bool",
          "name": "",
          "type": "bool"
        }
      ],
      "stateMutability": "view",
      "type": "function"
    },
    {
      "inputs": [
        {
          "internalType": "bytes32",
          "name": "",
          "type": "bytes32"
        }
      ],
      "name": "_resourceIDToTokenContractAddress",
      "outputs": [
        {
          "internalType": "address",
          "name": "",
          "type": "address"
        }
      ],
      "stateMutability": "view",
      "type": "function"
    },
    {
      "inputs": [
        {
          "internalType": "address",
          "name": "",
          "type": "address"
        }
      ],
      "name": "_tokenContractAddressToResourceID",
      "outputs": [
        {
          "internalType": "bytes32",
          "name": "",
          "type": "bytes32"
        }
      ],
      "stateMutability": "view",
      "type": "function"
    },
    {
      "inputs": [
        {
          "internalType": "bytes32",
          "name": "resourceID",
          "type": "bytes32"
        },
        {
          "internalType": "address",
          "name": "depositer",
          "type": "address"
        },
        {
          "internalType": "bytes",
          "name": "data",
          "type": "bytes"
        }
      ],
      "name": "deposit",
      "outputs": [
        {
          "internalType": "bytes",
          "name": "",
          "type": "bytes"
        }
      ],
      "stateMutability": "payable",
      "type": "function"
    },
    {
      "inputs": [
        {
          "internalType": "bytes32",
          "name": "resourceID",
          "type": "bytes32"
        },
        {
          "internalType": "bytes",
          "name": "data",
          "type": "bytes"
        }
      ],
      "name": "executeProposal",
      "outputs": [],
      "stateMutability": "nonpayable",
      "type": "function"
    },
    {
      "inputs": [
        {
          "internalType": "address",
          "name": "bridgeAddress",
          "type": "address"
        }
      ],
      "name": "initialize",
      "outputs": [],
      "stateMutability": "nonpayable",
      "type": "function"
    },
    {
      "inputs": [
        {
          "internalType": "address",
          "name": "",
          "type": "address"
        }
      ],
      "name": "isWtoken",
      "outputs": [
        {
          "internalType": "bool",
          "name": "",
          "type": "bool"
        }
      ],
      "stateMutability": "view",
      "type": "function"
    },
    {
      "inputs": [
        {
          "internalType": "address",
          "name": "",
          "type": "address"
        },
        {
          "internalType": "address",
          "name": "",
          "type": "address"
        },
        {
          "internalType": "uint256[]",
          "name": "",
          "type": "uint256[]"
        },
        {
          "internalType": "uint256[]",
          "name": "",
          "type": "uint256[]"
        },
        {
          "internalType": "bytes",
          "name": "",
          "type": "bytes"
        }
      ],
      "name": "onERC1155BatchReceived",
      "outputs": [
        {
          "internalType": "bytes4",
          "name": "",
          "type": "bytes4"
        }
      ],
      "stateMutability": "nonpayable",
      "type": "function"
    },
    {
      "inputs": [
        {
          "internalType": "address",
          "name": "",
          "type": "address"
        },
        {
          "internalType": "address",
          "name": "",
          "type": "address"
        },
        {
          "internalType": "uint256",
          "name": "",
          "type": "uint256"
        },
        {
          "internalType": "uint256",
          "name": "",
          "type": "uint256"
        },
        {
          "internalType": "bytes",
          "name": "",
          "type": "bytes"
        }
      ],
      "name": "onERC1155Received",
      "outputs": [
        {
          "internalType": "bytes4",
          "name": "",
          "type": "bytes4"
        }
      ],
      "stateMutability": "nonpayable",
      "type": "function"
    },
    {
      "inputs": [
        {
          "internalType": "address",
          "name": "contractAddress",
          "type": "address"
        }
      ],
      "name": "setBurnable",
      "outputs": [],
      "stateMutability": "nonpayable",
      "type": "function"
    },
    {
      "inputs": [
        {
          "internalType": "bytes32",
          "name": "resourceID",
          "type": "bytes32"
        },
        {
          "internalType": "address",
          "name": "contractAddress",
          "type": "address"
        }
      ],
      "name": "setResource",
      "outputs": [],
      "stateMutability": "nonpayable",
      "type": "function"
    },
    {
      "inputs": [
        {
          "internalType": "address",
          "name": "wtokenAddress",
          "type": "address"
        },
        {
          "internalType": "bool",
          "name": "_isWtoken",
          "type": "bool"
        }
      ],
      "name": "setWtoken",
      "outputs": [],
      "stateMutability": "nonpayable",
      "type": "function"
    },
    {
      "inputs": [
        {
          "internalType": "bytes4",
          "name": "interfaceId",
          "type": "bytes4"
        }
      ],
      "name": "supportsInterface",
      "outputs": [
        {
          "internalType": "bool",
          "name": "",
          "type": "bool"
        }
      ],
      "stateMutability": "view",
      "type": "function"
    },
    {
      "inputs": [
        {
          "internalType": "bytes",
          "name": "data",
          "type": "bytes"
        }
      ],
      "name": "withdraw",
      "outputs": [],
      "stateMutability": "nonpayable",
      "type": "function"
    },
    {
      "inputs": [
        {
          "internalType": "bytes",
          "name": "data",
          "type": "bytes"
        }
      ],
      "name": "withdrawETH",
      "outputs": [],
      "stateMutability": "nonpayable",
      "type": "function"
    },
    {
      "inputs": [],
      "name": "wtoken",
      "outputs": [
        {
          "internalType": "address",
          "name": "",
          "type": "address"
        }
      ],
      "stateMutability": "view",
      "type": "function"
    }
  ],
  "bytecode": "0x608060405234801561001057600080fd5b506113a0806100206000396000f3fe6080604052600436106101095760003560e01c80639c0591c811610095578063bc197c8111610064578063bc197c8114610327578063c4d66de81461036c578063c8ba6c871461038c578063e248cff2146103c7578063f23a6e61146103e757600080fd5b80639c0591c8146102a9578063ab5c7bf1146102c9578063b07e54bb146102e7578063b8fa37361461030757600080fd5b80630a6d55d8116100dc5780630a6d55d8146101b55780632129da1914610203578063318c136e146102235780636a70d081146102495780637f79bea81461027957600080fd5b806301ffc9a71461010e578063045dff971461014357806307b7ed99146101735780630968f26414610195575b600080fd5b34801561011a57600080fd5b5061012e610129366004610ab4565b610413565b60405190151581526020015b60405180910390f35b34801561014f57600080fd5b5061012e61015e366004610afa565b60066020526000908152604090205460ff1681565b34801561017f57600080fd5b5061019361018e366004610afa565b61044a565b005b3480156101a157600080fd5b506101936101b0366004610bdc565b61045b565b3480156101c157600080fd5b506101eb6101d0366004610c19565b6002602052600090815260409020546001600160a01b031681565b6040516001600160a01b03909116815260200161013a565b34801561020f57600080fd5b5061019361021e366004610c32565b6104a1565b34801561022f57600080fd5b506000546101eb906201000090046001600160a01b031681565b34801561025557600080fd5b5061012e610264366004610afa565b60056020526000908152604090205460ff1681565b34801561028557600080fd5b5061012e610294366004610afa565b60046020526000908152604090205460ff1681565b3480156102b557600080fd5b506001546101eb906001600160a01b031681565b3480156102d557600080fd5b506101936102e4366004610bdc565b50565b6102fa6102f5366004610cb9565b6104d4565b60405161013a9190610d71565b34801561031357600080fd5b50610193610322366004610d84565b610610565b34801561033357600080fd5b50610353610342366004610e33565b63bc197c8160e01b95945050505050565b6040516001600160e01b0319909116815260200161013a565b34801561037857600080fd5b50610193610387366004610afa565b61066b565b34801561039857600080fd5b506103b96103a7366004610afa565b60036020526000908152604090205481565b60405190815260200161013a565b3480156103d357600080fd5b506101936103e2366004610ee1565b6106e6565b3480156103f357600080fd5b50610353610402366004610f2d565b63f23a6e6160e01b95945050505050565b60006001600160e01b03198216630271189760e51b148061044457506301ffc9a760e01b6001600160e01b03198316145b92915050565b6104526107e7565b6102e481610849565b6104636107e7565b60008060608060608580602001905181019061047f9190610ff1565b9398509196509450925090506104998530868686866108e1565b505050505050565b6104a96107e7565b6001600160a01b03919091166000908152600660205260409020805460ff1916911515919091179055565b60606104de6107e7565b34156105225760405162461bcd60e51b815260206004820152600e60248201526d06d73672e76616c756520213d20360941b60448201526064015b60405180910390fd5b606080610531848601866110dd565b60008981526002602052604090205491935091506001600160a01b0316806105a65760405162461bcd60e51b815260206004820152602260248201527f70726f7669646564207265736f75726365494420646f6573206e6f74206578696044820152611cdd60f21b6064820152608401610519565b6001600160a01b03811660009081526005602052604090205460ff16156105d8576105d381888585610952565b6105f5565b6105f58188308686604051806020016040528060008152506108e1565b50506040805160008152602081019091529695505050505050565b6106186107e7565b600082815260026020908152604080832080546001600160a01b0319166001600160a01b03861690811790915583526003825280832085905560049091529020805460ff191660011790555050565b5050565b600054610100900460ff166106865760005460ff161561068a565b303b155b6106a65760405162461bcd60e51b815260040161051990611141565b600054610100900460ff161580156106c8576000805461ffff19166101011790555b6106d1826109b2565b8015610667576000805461ff00191690555050565b6106ee6107e7565b60608080806106ff8587018761118f565b60208083015160008d8152600283526040808220546001600160a01b031680835260049094529020549599509397509195509350909160ff166107955760405162461bcd60e51b815260206004820152602860248201527f70726f766964656420746f6b656e41646472657373206973206e6f74207768696044820152671d195b1a5cdd195960c21b6064820152608401610519565b6001600160a01b03811660009081526005602052604090205460ff16156107cb576107c6818360601c888887610a46565b6107dc565b6107dc81308460601c8989886108e1565b505050505050505050565b6000546201000090046001600160a01b031633146108475760405162461bcd60e51b815260206004820152601e60248201527f73656e646572206d7573742062652062726964676520636f6e747261637400006044820152606401610519565b565b6001600160a01b03811660009081526004602052604090205460ff166108bd5760405162461bcd60e51b8152602060048201526024808201527f70726f766964656420636f6e7472616374206973206e6f742077686974656c696044820152631cdd195960e21b6064820152608401610519565b6001600160a01b03166000908152600560205260409020805460ff19166001179055565b604051631759616b60e11b815286906001600160a01b03821690632eb2c2d6906109179089908990899089908990600401611277565b600060405180830381600087803b15801561093157600080fd5b505af1158015610945573d6000803e3d6000fd5b5050505050505050505050565b604051631ac8311560e21b815284906001600160a01b03821690636b20c45490610984908790879087906004016112d5565b600060405180830381600087803b15801561099e57600080fd5b505af11580156107dc573d6000803e3d6000fd5b600054610100900460ff166109cd5760005460ff16156109d1565b303b155b6109ed5760405162461bcd60e51b815260040161051990611141565b600054610100900460ff16158015610a0f576000805461ffff19166101011790555b6000805462010000600160b01b031916620100006001600160a01b038516021790558015610667576000805461ff00191690555050565b604051630fbfeffd60e11b815285906001600160a01b03821690631f7fdffa90610a7a908890889088908890600401611315565b600060405180830381600087803b158015610a9457600080fd5b505af1158015610aa8573d6000803e3d6000fd5b50505050505050505050565b600060208284031215610ac657600080fd5b81356001600160e01b031981168114610ade57600080fd5b9392505050565b6001600160a01b03811681146102e457600080fd5b600060208284031215610b0c57600080fd5b8135610ade81610ae5565b634e487b7160e01b600052604160045260246000fd5b604051601f8201601f1916810167ffffffffffffffff81118282101715610b5657610b56610b17565b604052919050565b600067ffffffffffffffff821115610b7857610b78610b17565b50601f01601f191660200190565b600082601f830112610b9757600080fd5b8135610baa610ba582610b5e565b610b2d565b818152846020838601011115610bbf57600080fd5b816020850160208301376000918101602001919091529392505050565b600060208284031215610bee57600080fd5b813567ffffffffffffffff811115610c0557600080fd5b610c1184828501610b86565b949350505050565b600060208284031215610c2b57600080fd5b5035919050565b60008060408385031215610c4557600080fd5b8235610c5081610ae5565b915060208301358015158114610c6557600080fd5b809150509250929050565b60008083601f840112610c8257600080fd5b50813567ffffffffffffffff811115610c9a57600080fd5b602083019150836020828501011115610cb257600080fd5b9250929050565b60008060008060608587031215610ccf57600080fd5b843593506020850135610ce181610ae5565b9250604085013567ffffffffffffffff811115610cfd57600080fd5b610d0987828801610c70565b95989497509550505050565b60005b83811015610d30578181015183820152602001610d18565b83811115610d3f576000848401525b50505050565b60008151808452610d5d816020860160208601610d15565b601f01601f19169290920160200192915050565b602081526000610ade6020830184610d45565b60008060408385031215610d9757600080fd5b823591506020830135610c6581610ae5565b600067ffffffffffffffff821115610dc357610dc3610b17565b5060051b60200190565b600082601f830112610dde57600080fd5b81356020610dee610ba583610da9565b82815260059290921b84018101918181019086841115610e0d57600080fd5b8286015b84811015610e285780358352918301918301610e11565b509695505050505050565b600080600080600060a08688031215610e4b57600080fd5b8535610e5681610ae5565b94506020860135610e6681610ae5565b9350604086013567ffffffffffffffff80821115610e8357600080fd5b610e8f89838a01610dcd565b94506060880135915080821115610ea557600080fd5b610eb189838a01610dcd565b93506080880135915080821115610ec757600080fd5b50610ed488828901610b86565b9150509295509295909350565b600080600060408486031215610ef657600080fd5b83359250602084013567ffffffffffffffff811115610f1457600080fd5b610f2086828701610c70565b9497909650939450505050565b600080600080600060a08688031215610f4557600080fd5b8535610f5081610ae5565b94506020860135610f6081610ae5565b93506040860135925060608601359150608086013567ffffffffffffffff811115610f8a57600080fd5b610ed488828901610b86565b600082601f830112610fa757600080fd5b81516020610fb7610ba583610da9565b82815260059290921b84018101918181019086841115610fd657600080fd5b8286015b84811015610e285780518352918301918301610fda565b600080600080600060a0868803121561100957600080fd5b855161101481610ae5565b602087015190955061102581610ae5565b604087015190945067ffffffffffffffff8082111561104357600080fd5b61104f89838a01610f96565b9450606088015191508082111561106557600080fd5b61107189838a01610f96565b9350608088015191508082111561108757600080fd5b508601601f8101881361109957600080fd5b80516110a7610ba582610b5e565b8181528960208385010111156110bc57600080fd5b6110cd826020830160208601610d15565b8093505050509295509295909350565b600080604083850312156110f057600080fd5b823567ffffffffffffffff8082111561110857600080fd5b61111486838701610dcd565b9350602085013591508082111561112a57600080fd5b5061113785828601610dcd565b9150509250929050565b6020808252602e908201527f496e697469616c697a61626c653a20636f6e747261637420697320616c72656160408201526d191e481a5b9a5d1a585b1a5e995960921b606082015260800190565b600080600080608085870312156111a557600080fd5b843567ffffffffffffffff808211156111bd57600080fd5b6111c988838901610dcd565b955060208701359150808211156111df57600080fd5b6111eb88838901610dcd565b9450604087013591508082111561120157600080fd5b61120d88838901610b86565b9350606087013591508082111561122357600080fd5b5061123087828801610b86565b91505092959194509250565b600081518084526020808501945080840160005b8381101561126c57815187529582019590820190600101611250565b509495945050505050565b6001600160a01b0386811682528516602082015260a0604082018190526000906112a39083018661123c565b82810360608401526112b5818661123c565b905082810360808401526112c98185610d45565b98975050505050505050565b6001600160a01b03841681526060602082018190526000906112f99083018561123c565b828103604084015261130b818561123c565b9695505050505050565b6001600160a01b03851681526080602082018190526000906113399083018661123c565b828103604084015261134b818661123c565b9050828103606084015261135f8185610d45565b97965050505050505056fea2646970667358221220a22ec9b2ac401c7e8b482b9b470e1f68171738455ef7a180f3b4a4661397c48864736f6c634300080b0033",
  "linkReferences": {},
  "deployedLinkReferences": {}
}