{
  "_format": "hh-sol-artifact-1",
  "contractName": "ERC1155HandlerUpgradeable",
  "sourceName": "contracts/handlers/ERC1155HandlerUpgradeable.sol",
  "abi": [
    {
      "inputs": [],
      "name": "_bridgeAddress",
      "outputs": [
        {
          "internalType": "address",
          "name": "",
          "type": "address"
        }
      ],
      "stateMutability": "view",
      "type": "function"
    },
    {
      "inputs": [
        {
          "internalType": "address",
          "name": "",
          "type": "address"
        }
      ],
      "name": "_burnList",
      "outputs": [
        {
          "internalType": "bool",
          "name": "",
          "type": "bool"
        }
      ],
      "stateMutability": "view",
      "type": "function"
    },
    {
      "inputs": [
        {
          "internalType": "address",
          "name": "",
          "type": "address"
        }
      ],
      "name": "_contractWhitelist",
      "outputs": [
        {
          "internalType": "bool",
          "name": "",
          "type": "bool"
        }
      ],
      "stateMutability": "view",
      "type": "function"
    },
    {
      "inputs": [
        {
          "internalType": "bytes32",
          "name": "",
          "type": "bytes32"
        }
      ],
      "name": "_resourceIDToTokenContractAddress",
      "outputs": [
        {
          "internalType": "address",
          "name": "",
          "type": "address"
        }
      ],
      "stateMutability": "view",
      "type": "function"
    },
    {
      "inputs": [
        {
          "internalType": "address",
          "name": "",
          "type": "address"
        }
      ],
      "name": "_tokenContractAddressToResourceID",
      "outputs": [
        {
          "internalType": "bytes32",
          "name": "",
          "type": "bytes32"
        }
      ],
      "stateMutability": "view",
      "type": "function"
    },
    {
      "inputs": [
        {
          "internalType": "bytes32",
          "name": "resourceID",
          "type": "bytes32"
        },
        {
          "internalType": "address",
          "name": "depositer",
          "type": "address"
        },
        {
          "internalType": "bytes",
          "name": "data",
          "type": "bytes"
        }
      ],
      "name": "deposit",
      "outputs": [
        {
          "internalType": "bytes",
          "name": "",
          "type": "bytes"
        }
      ],
      "stateMutability": "payable",
      "type": "function"
    },
    {
      "inputs": [
        {
          "internalType": "bytes32",
          "name": "resourceID",
          "type": "bytes32"
        },
        {
          "internalType": "bytes",
          "name": "data",
          "type": "bytes"
        }
      ],
      "name": "executeProposal",
      "outputs": [],
      "stateMutability": "nonpayable",
      "type": "function"
    },
    {
      "inputs": [
        {
          "internalType": "address",
          "name": "bridgeAddress",
          "type": "address"
        }
      ],
      "name": "initialize",
      "outputs": [],
      "stateMutability": "nonpayable",
      "type": "function"
    },
    {
      "inputs": [
        {
          "internalType": "address",
          "name": "",
          "type": "address"
        }
      ],
      "name": "isNative",
      "outputs": [
        {
          "internalType": "bool",
          "name": "",
          "type": "bool"
        }
      ],
      "stateMutability": "view",
      "type": "function"
    },
    {
      "inputs": [
        {
          "internalType": "address",
          "name": "",
          "type": "address"
        },
        {
          "internalType": "address",
          "name": "",
          "type": "address"
        },
        {
          "internalType": "uint256[]",
          "name": "",
          "type": "uint256[]"
        },
        {
          "internalType": "uint256[]",
          "name": "",
          "type": "uint256[]"
        },
        {
          "internalType": "bytes",
          "name": "",
          "type": "bytes"
        }
      ],
      "name": "onERC1155BatchReceived",
      "outputs": [
        {
          "internalType": "bytes4",
          "name": "",
          "type": "bytes4"
        }
      ],
      "stateMutability": "nonpayable",
      "type": "function"
    },
    {
      "inputs": [
        {
          "internalType": "address",
          "name": "",
          "type": "address"
        },
        {
          "internalType": "address",
          "name": "",
          "type": "address"
        },
        {
          "internalType": "uint256",
          "name": "",
          "type": "uint256"
        },
        {
          "internalType": "uint256",
          "name": "",
          "type": "uint256"
        },
        {
          "internalType": "bytes",
          "name": "",
          "type": "bytes"
        }
      ],
      "name": "onERC1155Received",
      "outputs": [
        {
          "internalType": "bytes4",
          "name": "",
          "type": "bytes4"
        }
      ],
      "stateMutability": "nonpayable",
      "type": "function"
    },
    {
      "inputs": [
        {
          "internalType": "address",
          "name": "contractAddress",
          "type": "address"
        }
      ],
      "name": "setBurnable",
      "outputs": [],
      "stateMutability": "nonpayable",
      "type": "function"
    },
    {
      "inputs": [
        {
          "internalType": "address",
          "name": "nativeAddress",
          "type": "address"
        },
        {
          "internalType": "bool",
          "name": "_isNative",
          "type": "bool"
        }
      ],
      "name": "setNative",
      "outputs": [],
      "stateMutability": "nonpayable",
      "type": "function"
    },
    {
      "inputs": [
        {
          "internalType": "bytes32",
          "name": "resourceID",
          "type": "bytes32"
        },
        {
          "internalType": "address",
          "name": "contractAddress",
          "type": "address"
        }
      ],
      "name": "setResource",
      "outputs": [],
      "stateMutability": "nonpayable",
      "type": "function"
    },
    {
      "inputs": [
        {
          "internalType": "bytes4",
          "name": "interfaceId",
          "type": "bytes4"
        }
      ],
      "name": "supportsInterface",
      "outputs": [
        {
          "internalType": "bool",
          "name": "",
          "type": "bool"
        }
      ],
      "stateMutability": "view",
      "type": "function"
    },
    {
      "inputs": [
        {
          "internalType": "bytes",
          "name": "data",
          "type": "bytes"
        }
      ],
      "name": "withdraw",
      "outputs": [],
      "stateMutability": "nonpayable",
      "type": "function"
    },
    {
      "inputs": [
        {
          "internalType": "bytes",
          "name": "data",
          "type": "bytes"
        }
      ],
      "name": "withdrawETH",
      "outputs": [],
      "stateMutability": "nonpayable",
      "type": "function"
    }
  ],
  "bytecode": "0x608060405234801561001057600080fd5b50611376806100206000396000f3fe6080604052600436106100fe5760003560e01c8063ab5c7bf111610095578063bc197c8111610064578063bc197c81146102fc578063c4d66de814610341578063c8ba6c8714610361578063e248cff21461039c578063f23a6e61146103bc57600080fd5b8063ab5c7bf11461026e578063b07e54bb1461028c578063b2b8b5dd146102ac578063b8fa3736146102dc57600080fd5b8063318c136e116100d1578063318c136e146101c85780636a70d081146101ee578063789d77111461021e5780637f79bea81461023e57600080fd5b806301ffc9a71461010357806307b7ed99146101385780630968f2641461015a5780630a6d55d81461017a575b600080fd5b34801561010f57600080fd5b5061012361011e366004610a8a565b6103e8565b60405190151581526020015b60405180910390f35b34801561014457600080fd5b50610158610153366004610ad0565b61041f565b005b34801561016657600080fd5b50610158610175366004610bb2565b610430565b34801561018657600080fd5b506101b0610195366004610bef565b6001602052600090815260409020546001600160a01b031681565b6040516001600160a01b03909116815260200161012f565b3480156101d457600080fd5b506000546101b0906201000090046001600160a01b031681565b3480156101fa57600080fd5b50610123610209366004610ad0565b60046020526000908152604090205460ff1681565b34801561022a57600080fd5b50610158610239366004610c08565b610476565b34801561024a57600080fd5b50610123610259366004610ad0565b60036020526000908152604090205460ff1681565b34801561027a57600080fd5b50610158610289366004610bb2565b50565b61029f61029a366004610c8f565b6104a9565b60405161012f9190610d47565b3480156102b857600080fd5b506101236102c7366004610ad0565b60056020526000908152604090205460ff1681565b3480156102e857600080fd5b506101586102f7366004610d5a565b6105e5565b34801561030857600080fd5b50610328610317366004610e09565b63bc197c8160e01b95945050505050565b6040516001600160e01b0319909116815260200161012f565b34801561034d57600080fd5b5061015861035c366004610ad0565b610641565b34801561036d57600080fd5b5061038e61037c366004610ad0565b60026020526000908152604090205481565b60405190815260200161012f565b3480156103a857600080fd5b506101586103b7366004610eb7565b6106bc565b3480156103c857600080fd5b506103286103d7366004610f03565b63f23a6e6160e01b95945050505050565b60006001600160e01b03198216630271189760e51b148061041957506301ffc9a760e01b6001600160e01b03198316145b92915050565b6104276107bd565b6102898161081f565b6104386107bd565b6000806060806060858060200190518101906104549190610fc7565b93985091965094509250905061046e8530868686866108b7565b505050505050565b61047e6107bd565b6001600160a01b03919091166000908152600560205260409020805460ff1916911515919091179055565b60606104b36107bd565b34156104f75760405162461bcd60e51b815260206004820152600e60248201526d06d73672e76616c756520213d20360941b60448201526064015b60405180910390fd5b606080610506848601866110b3565b60008981526001602052604090205491935091506001600160a01b03168061057b5760405162461bcd60e51b815260206004820152602260248201527f70726f7669646564207265736f75726365494420646f6573206e6f74206578696044820152611cdd60f21b60648201526084016104ee565b6001600160a01b03811660009081526004602052604090205460ff16156105ad576105a881888585610928565b6105ca565b6105ca8188308686604051806020016040528060008152506108b7565b50506040805160008152602081019091529695505050505050565b6105ed6107bd565b600082815260016020818152604080842080546001600160a01b0319166001600160a01b0387169081179091558452600282528084208690556003909152909120805460ff191690911790555050565b5050565b600054610100900460ff1661065c5760005460ff1615610660565b303b155b61067c5760405162461bcd60e51b81526004016104ee90611117565b600054610100900460ff1615801561069e576000805461ffff19166101011790555b6106a782610988565b801561063d576000805461ff00191690555050565b6106c46107bd565b60608080806106d585870187611165565b60208083015160008d8152600183526040808220546001600160a01b031680835260039094529020549599509397509195509350909160ff1661076b5760405162461bcd60e51b815260206004820152602860248201527f70726f766964656420746f6b656e41646472657373206973206e6f74207768696044820152671d195b1a5cdd195960c21b60648201526084016104ee565b6001600160a01b03811660009081526004602052604090205460ff16156107a15761079c818360601c888887610a1c565b6107b2565b6107b281308460601c8989886108b7565b505050505050505050565b6000546201000090046001600160a01b0316331461081d5760405162461bcd60e51b815260206004820152601e60248201527f73656e646572206d7573742062652062726964676520636f6e7472616374000060448201526064016104ee565b565b6001600160a01b03811660009081526003602052604090205460ff166108935760405162461bcd60e51b8152602060048201526024808201527f70726f766964656420636f6e7472616374206973206e6f742077686974656c696044820152631cdd195960e21b60648201526084016104ee565b6001600160a01b03166000908152600460205260409020805460ff19166001179055565b604051631759616b60e11b815286906001600160a01b03821690632eb2c2d6906108ed908990899089908990899060040161124d565b600060405180830381600087803b15801561090757600080fd5b505af115801561091b573d6000803e3d6000fd5b5050505050505050505050565b604051631ac8311560e21b815284906001600160a01b03821690636b20c4549061095a908790879087906004016112ab565b600060405180830381600087803b15801561097457600080fd5b505af11580156107b2573d6000803e3d6000fd5b600054610100900460ff166109a35760005460ff16156109a7565b303b155b6109c35760405162461bcd60e51b81526004016104ee90611117565b600054610100900460ff161580156109e5576000805461ffff19166101011790555b6000805462010000600160b01b031916620100006001600160a01b03851602179055801561063d576000805461ff00191690555050565b604051630fbfeffd60e11b815285906001600160a01b03821690631f7fdffa90610a509088908890889088906004016112eb565b600060405180830381600087803b158015610a6a57600080fd5b505af1158015610a7e573d6000803e3d6000fd5b50505050505050505050565b600060208284031215610a9c57600080fd5b81356001600160e01b031981168114610ab457600080fd5b9392505050565b6001600160a01b038116811461028957600080fd5b600060208284031215610ae257600080fd5b8135610ab481610abb565b634e487b7160e01b600052604160045260246000fd5b604051601f8201601f1916810167ffffffffffffffff81118282101715610b2c57610b2c610aed565b604052919050565b600067ffffffffffffffff821115610b4e57610b4e610aed565b50601f01601f191660200190565b600082601f830112610b6d57600080fd5b8135610b80610b7b82610b34565b610b03565b818152846020838601011115610b9557600080fd5b816020850160208301376000918101602001919091529392505050565b600060208284031215610bc457600080fd5b813567ffffffffffffffff811115610bdb57600080fd5b610be784828501610b5c565b949350505050565b600060208284031215610c0157600080fd5b5035919050565b60008060408385031215610c1b57600080fd5b8235610c2681610abb565b915060208301358015158114610c3b57600080fd5b809150509250929050565b60008083601f840112610c5857600080fd5b50813567ffffffffffffffff811115610c7057600080fd5b602083019150836020828501011115610c8857600080fd5b9250929050565b60008060008060608587031215610ca557600080fd5b843593506020850135610cb781610abb565b9250604085013567ffffffffffffffff811115610cd357600080fd5b610cdf87828801610c46565b95989497509550505050565b60005b83811015610d06578181015183820152602001610cee565b83811115610d15576000848401525b50505050565b60008151808452610d33816020860160208601610ceb565b601f01601f19169290920160200192915050565b602081526000610ab46020830184610d1b565b60008060408385031215610d6d57600080fd5b823591506020830135610c3b81610abb565b600067ffffffffffffffff821115610d9957610d99610aed565b5060051b60200190565b600082601f830112610db457600080fd5b81356020610dc4610b7b83610d7f565b82815260059290921b84018101918181019086841115610de357600080fd5b8286015b84811015610dfe5780358352918301918301610de7565b509695505050505050565b600080600080600060a08688031215610e2157600080fd5b8535610e2c81610abb565b94506020860135610e3c81610abb565b9350604086013567ffffffffffffffff80821115610e5957600080fd5b610e6589838a01610da3565b94506060880135915080821115610e7b57600080fd5b610e8789838a01610da3565b93506080880135915080821115610e9d57600080fd5b50610eaa88828901610b5c565b9150509295509295909350565b600080600060408486031215610ecc57600080fd5b83359250602084013567ffffffffffffffff811115610eea57600080fd5b610ef686828701610c46565b9497909650939450505050565b600080600080600060a08688031215610f1b57600080fd5b8535610f2681610abb565b94506020860135610f3681610abb565b93506040860135925060608601359150608086013567ffffffffffffffff811115610f6057600080fd5b610eaa88828901610b5c565b600082601f830112610f7d57600080fd5b81516020610f8d610b7b83610d7f565b82815260059290921b84018101918181019086841115610fac57600080fd5b8286015b84811015610dfe5780518352918301918301610fb0565b600080600080600060a08688031215610fdf57600080fd5b8551610fea81610abb565b6020870151909550610ffb81610abb565b604087015190945067ffffffffffffffff8082111561101957600080fd5b61102589838a01610f6c565b9450606088015191508082111561103b57600080fd5b61104789838a01610f6c565b9350608088015191508082111561105d57600080fd5b508601601f8101881361106f57600080fd5b805161107d610b7b82610b34565b81815289602083850101111561109257600080fd5b6110a3826020830160208601610ceb565b8093505050509295509295909350565b600080604083850312156110c657600080fd5b823567ffffffffffffffff808211156110de57600080fd5b6110ea86838701610da3565b9350602085013591508082111561110057600080fd5b5061110d85828601610da3565b9150509250929050565b6020808252602e908201527f496e697469616c697a61626c653a20636f6e747261637420697320616c72656160408201526d191e481a5b9a5d1a585b1a5e995960921b606082015260800190565b6000806000806080858703121561117b57600080fd5b843567ffffffffffffffff8082111561119357600080fd5b61119f88838901610da3565b955060208701359150808211156111b557600080fd5b6111c188838901610da3565b945060408701359150808211156111d757600080fd5b6111e388838901610b5c565b935060608701359150808211156111f957600080fd5b5061120687828801610b5c565b91505092959194509250565b600081518084526020808501945080840160005b8381101561124257815187529582019590820190600101611226565b509495945050505050565b6001600160a01b0386811682528516602082015260a06040820181905260009061127990830186611212565b828103606084015261128b8186611212565b9050828103608084015261129f8185610d1b565b98975050505050505050565b6001600160a01b03841681526060602082018190526000906112cf90830185611212565b82810360408401526112e18185611212565b9695505050505050565b6001600160a01b038516815260806020820181905260009061130f90830186611212565b82810360408401526113218186611212565b905082810360608401526113358185610d1b565b97965050505050505056fea264697066735822122056d0707f51b50e6cae52f218c28bde7b3d52f0543eb71fb24b6cead7b4372edb64736f6c634300080b0033",
  "linkReferences": {},
  "deployedLinkReferences": {}
}