{
  "_format": "hh-sol-artifact-1",
  "contractName": "Forwarder",
  "sourceName": "contracts/Forwarder.sol",
  "abi": [
    {
      "inputs": [],
      "stateMutability": "nonpayable",
      "type": "constructor"
    },
    {
      "inputs": [
        {
          "components": [
            {
              "internalType": "address",
              "name": "from",
              "type": "address"
            },
            {
              "internalType": "address",
              "name": "to",
              "type": "address"
            },
            {
              "internalType": "uint256",
              "name": "value",
              "type": "uint256"
            },
            {
              "internalType": "uint256",
              "name": "gas",
              "type": "uint256"
            },
            {
              "internalType": "uint256",
              "name": "nonce",
              "type": "uint256"
            },
            {
              "internalType": "bytes",
              "name": "data",
              "type": "bytes"
            }
          ],
          "internalType": "struct Forwarder.ForwardRequest",
          "name": "req",
          "type": "tuple"
        },
        {
          "internalType": "bytes",
          "name": "signature",
          "type": "bytes"
        }
      ],
      "name": "execute",
      "outputs": [
        {
          "internalType": "bool",
          "name": "",
          "type": "bool"
        },
        {
          "internalType": "bytes",
          "name": "",
          "type": "bytes"
        }
      ],
      "stateMutability": "payable",
      "type": "function"
    },
    {
      "inputs": [],
      "name": "getChainId",
      "outputs": [
        {
          "internalType": "uint256",
          "name": "",
          "type": "uint256"
        }
      ],
      "stateMutability": "view",
      "type": "function"
    },
    {
      "inputs": [
        {
          "internalType": "address",
          "name": "from",
          "type": "address"
        }
      ],
      "name": "getNonce",
      "outputs": [
        {
          "internalType": "uint256",
          "name": "",
          "type": "uint256"
        }
      ],
      "stateMutability": "view",
      "type": "function"
    },
    {
      "inputs": [
        {
          "components": [
            {
              "internalType": "address",
              "name": "from",
              "type": "address"
            },
            {
              "internalType": "address",
              "name": "to",
              "type": "address"
            },
            {
              "internalType": "uint256",
              "name": "value",
              "type": "uint256"
            },
            {
              "internalType": "uint256",
              "name": "gas",
              "type": "uint256"
            },
            {
              "internalType": "uint256",
              "name": "nonce",
              "type": "uint256"
            },
            {
              "internalType": "bytes",
              "name": "data",
              "type": "bytes"
            }
          ],
          "internalType": "struct Forwarder.ForwardRequest",
          "name": "req",
          "type": "tuple"
        },
        {
          "internalType": "bytes",
          "name": "signature",
          "type": "bytes"
        }
      ],
      "name": "verify",
      "outputs": [
        {
          "internalType": "bool",
          "name": "",
          "type": "bool"
        }
      ],
      "stateMutability": "view",
      "type": "function"
    }
  ],
  "bytecode": "0x61014060405234801561001157600080fd5b5060408051808201825260098152682337b93bb0b93232b960b91b602080830191825283518085019094526005845264302e302e3160d81b908401528151902060e08190527fae209a0b48f21c054280f2455d32cf309387644879d9acbd8ffc1991638118856101008190524660a0529192917f8b73c3c69bb8fe3d512ecc4cf759cc79239f7b179b0ffacaa9a75d522b39400f6100f48184846040805160208101859052908101839052606081018290524660808201523060a082015260009060c0016040516020818303038152906040528051906020012090509392505050565b6080523060c052610120525061010992505050565b60805160a05160c05160e0516101005161012051610b7f61015860003960006105100152600061055f0152600061053a01526000610493015260006104bd015260006104e70152610b7f6000f3fe60806040526004361061003f5760003560e01c80632d0335ab146100445780633408e4701461008d57806347153f82146100a0578063bf5d3bdb146100c1575b600080fd5b34801561005057600080fd5b5061007a61005f366004610901565b6001600160a01b031660009081526020819052604090205490565b6040519081526020015b60405180910390f35b34801561009957600080fd5b504661007a565b6100b36100ae366004610931565b6100f1565b604051610084929190610a00565b3480156100cd57600080fd5b506100e16100dc366004610931565b610290565b6040519015158152602001610084565b60006060610100858585610290565b61016c5760405162461bcd60e51b815260206004820152603260248201527f4d696e696d616c466f727761726465723a207369676e617475726520646f6573604482015271081b9bdd081b585d18da081c995c5d595cdd60721b60648201526084015b60405180910390fd5b61017b60808601356001610a3c565b60008061018b6020890189610901565b6001600160a01b03166001600160a01b03168152602001908152602001600020819055506000808660200160208101906101c59190610901565b6001600160a01b0316606088013560408901356101e560a08b018b610a62565b6101f260208d018d610901565b60405160200161020493929190610aa9565b60408051601f198184030181529082905261021e91610acf565b600060405180830381858888f193505050503d806000811461025c576040519150601f19603f3d011682016040523d82523d6000602084013e610261565b606091505b509092509050610276603f6060890135610aeb565b5a1161028457610284610b0d565b90969095509350505050565b6000806103a384848080601f01602080910402602001604051908101604052809392919081815260200183838082843760009201919091525061039d92507fdd8f4b70b0f4393e889bd39128a30628a78b61816a9eb8199759e7a349657e489150610300905060208a018a610901565b61031060408b0160208c01610901565b60408b013560608c013560808d013561032c60a08f018f610a62565b60405161033a929190610b23565b6040805191829003822060208301989098526001600160a01b0396871690820152949093166060850152608084019190915260a083015260c082015260e0810191909152610100016040516020818303038152906040528051906020012061040e565b90610462565b905060808501356000806103ba6020890189610901565b6001600160a01b03166001600160a01b031681526020019081526020016000205414801561040557506103f06020860186610901565b6001600160a01b0316816001600160a01b0316145b95945050505050565b600061045c61041b610486565b8360405161190160f01b6020820152602281018390526042810182905260009060620160405160208183030381529060405280519060200120905092915050565b92915050565b600080600061047185856105ad565b9150915061047e8161061d565b509392505050565b6000306001600160a01b037f0000000000000000000000000000000000000000000000000000000000000000161480156104df57507f000000000000000000000000000000000000000000000000000000000000000046145b1561050957507f000000000000000000000000000000000000000000000000000000000000000090565b50604080517f00000000000000000000000000000000000000000000000000000000000000006020808301919091527f0000000000000000000000000000000000000000000000000000000000000000828401527f000000000000000000000000000000000000000000000000000000000000000060608301524660808301523060a0808401919091528351808403909101815260c0909201909252805191012090565b6000808251604114156105e45760208301516040840151606085015160001a6105d8878285856107db565b94509450505050610616565b82516040141561060e57602083015160408401516106038683836108c8565b935093505050610616565b506000905060025b9250929050565b600081600481111561063157610631610b33565b141561063a5750565b600181600481111561064e5761064e610b33565b141561069c5760405162461bcd60e51b815260206004820152601860248201527f45434453413a20696e76616c6964207369676e617475726500000000000000006044820152606401610163565b60028160048111156106b0576106b0610b33565b14156106fe5760405162461bcd60e51b815260206004820152601f60248201527f45434453413a20696e76616c6964207369676e6174757265206c656e677468006044820152606401610163565b600381600481111561071257610712610b33565b141561076b5760405162461bcd60e51b815260206004820152602260248201527f45434453413a20696e76616c6964207369676e6174757265202773272076616c604482015261756560f01b6064820152608401610163565b600481600481111561077f5761077f610b33565b14156107d85760405162461bcd60e51b815260206004820152602260248201527f45434453413a20696e76616c6964207369676e6174757265202776272076616c604482015261756560f01b6064820152608401610163565b50565b6000807f7fffffffffffffffffffffffffffffff5d576e7357a4501ddfe92f46681b20a083111561081257506000905060036108bf565b8460ff16601b1415801561082a57508460ff16601c14155b1561083b57506000905060046108bf565b6040805160008082526020820180845289905260ff881692820192909252606081018690526080810185905260019060a0016020604051602081039080840390855afa15801561088f573d6000803e3d6000fd5b5050604051601f1901519150506001600160a01b0381166108b8576000600192509250506108bf565b9150600090505b94509492505050565b6000806001600160ff1b038316816108e560ff86901c601b610a3c565b90506108f3878288856107db565b935093505050935093915050565b60006020828403121561091357600080fd5b81356001600160a01b038116811461092a57600080fd5b9392505050565b60008060006040848603121561094657600080fd5b833567ffffffffffffffff8082111561095e57600080fd5b9085019060c0828803121561097257600080fd5b9093506020850135908082111561098857600080fd5b818601915086601f83011261099c57600080fd5b8135818111156109ab57600080fd5b8760208285010111156109bd57600080fd5b6020830194508093505050509250925092565b60005b838110156109eb5781810151838201526020016109d3565b838111156109fa576000848401525b50505050565b82151581526040602082015260008251806040840152610a278160608501602087016109d0565b601f01601f1916919091016060019392505050565b60008219821115610a5d57634e487b7160e01b600052601160045260246000fd5b500190565b6000808335601e19843603018112610a7957600080fd5b83018035915067ffffffffffffffff821115610a9457600080fd5b60200191503681900382131561061657600080fd5b8284823760609190911b6bffffffffffffffffffffffff19169101908152601401919050565b60008251610ae18184602087016109d0565b9190910192915050565b600082610b0857634e487b7160e01b600052601260045260246000fd5b500490565b634e487b7160e01b600052600160045260246000fd5b8183823760009101908152919050565b634e487b7160e01b600052602160045260246000fdfea2646970667358221220583387514da9ca7fbbcb001d0fac8d18f579b5c608508ffbc05ab4f061f0896c64736f6c634300080b0033",
  "linkReferences": {},
  "deployedLinkReferences": {}
}