{
  "_format": "hh-sol-artifact-1",
  "contractName": "GenericHandler",
  "sourceName": "contracts/handlers/GenericHandler.sol",
  "abi": [
    {
      "inputs": [
        {
          "internalType": "address",
          "name": "bridgeAddress",
          "type": "address"
        }
      ],
      "stateMutability": "nonpayable",
      "type": "constructor"
    },
    {
      "inputs": [],
      "name": "_bridgeAddress",
      "outputs": [
        {
          "internalType": "address",
          "name": "",
          "type": "address"
        }
      ],
      "stateMutability": "view",
      "type": "function"
    },
    {
      "inputs": [
        {
          "internalType": "address",
          "name": "",
          "type": "address"
        }
      ],
      "name": "_contractAddressToDepositFunctionDepositorOffset",
      "outputs": [
        {
          "internalType": "uint256",
          "name": "",
          "type": "uint256"
        }
      ],
      "stateMutability": "view",
      "type": "function"
    },
    {
      "inputs": [
        {
          "internalType": "address",
          "name": "",
          "type": "address"
        }
      ],
      "name": "_contractAddressToDepositFunctionSignature",
      "outputs": [
        {
          "internalType": "bytes4",
          "name": "",
          "type": "bytes4"
        }
      ],
      "stateMutability": "view",
      "type": "function"
    },
    {
      "inputs": [
        {
          "internalType": "address",
          "name": "",
          "type": "address"
        }
      ],
      "name": "_contractAddressToExecuteFunctionSignature",
      "outputs": [
        {
          "internalType": "bytes4",
          "name": "",
          "type": "bytes4"
        }
      ],
      "stateMutability": "view",
      "type": "function"
    },
    {
      "inputs": [
        {
          "internalType": "address",
          "name": "",
          "type": "address"
        }
      ],
      "name": "_contractAddressToResourceID",
      "outputs": [
        {
          "internalType": "bytes32",
          "name": "",
          "type": "bytes32"
        }
      ],
      "stateMutability": "view",
      "type": "function"
    },
    {
      "inputs": [
        {
          "internalType": "address",
          "name": "",
          "type": "address"
        }
      ],
      "name": "_contractWhitelist",
      "outputs": [
        {
          "internalType": "bool",
          "name": "",
          "type": "bool"
        }
      ],
      "stateMutability": "view",
      "type": "function"
    },
    {
      "inputs": [
        {
          "internalType": "bytes32",
          "name": "",
          "type": "bytes32"
        }
      ],
      "name": "_resourceIDToContractAddress",
      "outputs": [
        {
          "internalType": "address",
          "name": "",
          "type": "address"
        }
      ],
      "stateMutability": "view",
      "type": "function"
    },
    {
      "inputs": [
        {
          "internalType": "bytes32",
          "name": "resourceID",
          "type": "bytes32"
        },
        {
          "internalType": "address",
          "name": "depositor",
          "type": "address"
        },
        {
          "internalType": "bytes",
          "name": "data",
          "type": "bytes"
        }
      ],
      "name": "deposit",
      "outputs": [
        {
          "internalType": "bytes",
          "name": "",
          "type": "bytes"
        }
      ],
      "stateMutability": "nonpayable",
      "type": "function"
    },
    {
      "inputs": [
        {
          "internalType": "bytes32",
          "name": "resourceID",
          "type": "bytes32"
        },
        {
          "internalType": "bytes",
          "name": "data",
          "type": "bytes"
        }
      ],
      "name": "executeProposal",
      "outputs": [],
      "stateMutability": "nonpayable",
      "type": "function"
    },
    {
      "inputs": [
        {
          "internalType": "bytes32",
          "name": "resourceID",
          "type": "bytes32"
        },
        {
          "internalType": "address",
          "name": "contractAddress",
          "type": "address"
        }
      ],
      "name": "removeResource",
      "outputs": [],
      "stateMutability": "nonpayable",
      "type": "function"
    },
    {
      "inputs": [
        {
          "internalType": "bytes32",
          "name": "resourceID",
          "type": "bytes32"
        },
        {
          "internalType": "address",
          "name": "contractAddress",
          "type": "address"
        },
        {
          "internalType": "bytes4",
          "name": "depositFunctionSig",
          "type": "bytes4"
        },
        {
          "internalType": "uint256",
          "name": "depositFunctionDepositorOffset",
          "type": "uint256"
        },
        {
          "internalType": "bytes4",
          "name": "executeFunctionSig",
          "type": "bytes4"
        }
      ],
      "name": "setResource",
      "outputs": [],
      "stateMutability": "nonpayable",
      "type": "function"
    }
  ],
  "bytecode": "0x60a060405234801561001057600080fd5b50604051610d0c380380610d0c83398101604081905261002f91610040565b6001600160a01b0316608052610070565b60006020828403121561005257600080fd5b81516001600160a01b038116811461006957600080fd5b9392505050565b608051610c7b6100916000396000818160b3015261070b0152610c7b6000f3fe608060405234801561001057600080fd5b50600436106100a95760003560e01c8063b07e54bb11610071578063b07e54bb146101a4578063c54c2a11146101c4578063cb624463146101ed578063de319d9914610210578063e248cff214610223578063ec97d3b41461023657600080fd5b8063318c136e146100ae5780637f79bea8146100f25780638843a70a14610125578063a5c3a98514610153578063a98157511461018f575b600080fd5b6100d57f000000000000000000000000000000000000000000000000000000000000000081565b6040516001600160a01b0390911681526020015b60405180910390f35b610115610100366004610935565b60056020526000908152604090205460ff1681565b60405190151581526020016100e9565b610145610133366004610935565b60036020526000908152604090205481565b6040519081526020016100e9565b610176610161366004610935565b60046020526000908152604090205460e01b81565b6040516001600160e01b031990911681526020016100e9565b6101a261019d366004610957565b610256565b005b6101b76101b23660046109cc565b6102d0565b6040516100e99190610a56565b6100d56101d2366004610a89565b6000602081905290815260409020546001600160a01b031681565b6101766101fb366004610935565b60026020526000908152604090205460e01b81565b6101a261021e366004610aba565b610529565b6101a2610231366004610b11565b610545565b610145610244366004610935565b60016020526000908152604090205481565b61025e610700565b60009182526020828152604080842080546001600160a01b03191690556001600160a01b039290921683526001815281832083905560028152818320805463ffffffff19908116909155600382528284208490556004825282842080549091169055600590529020805460ff19169055565b60606102da610700565b600060606102ea84860186610a89565b9150846020856102fa8583610b5d565b9261030793929190610b83565b8080601f01602080910402602001604051908101604052809392919081815260200183838082843760009201829052508b815260208181526040808320546001600160a01b031680845260039092529091205494955093925050811590506103d357828101602001516001600160a01b038916606082901c146103d15760405162461bcd60e51b815260206004820152601f60248201527f696e636f7272656374206465706f7369746f7220696e2074686520646174610060448201526064015b60405180910390fd5b505b6001600160a01b03821660009081526005602052604090205460ff1661040b5760405162461bcd60e51b81526004016103c890610bad565b6001600160a01b03821660009081526002602052604090205460e01b6001600160e01b031981161561051b576000818560405160200161044c929190610bf8565b6040516020818303038152906040529050600080856001600160a01b0316836040516104789190610c29565b6000604051808303816000865af19150503d80600081146104b5576040519150601f19603f3d011682016040523d82523d6000602084013e6104ba565b606091505b50915091508161050c5760405162461bcd60e51b815260206004820152601e60248201527f63616c6c20746f20636f6e747261637441646472657373206661696c6564000060448201526064016103c8565b97506105219650505050505050565b50505050505b949350505050565b610531610700565b61053e858585858561077a565b5050505050565b61054d610700565b6000606061055d83850185610a89565b91508360208461056d8583610b5d565b9261057a93929190610b83565b8080601f016020809104026020016040519081016040528093929190818152602001838380828437600092018290525089815260208181526040808320546001600160a01b03168084526005909252909120549495509360ff1692506105f59150505760405162461bcd60e51b81526004016103c890610bad565b6001600160a01b03811660009081526004602052604090205460e01b6001600160e01b03198116156106f75760008184604051602001610636929190610bf8565b60405160208183030381529060405290506000836001600160a01b0316826040516106619190610c29565b6000604051808303816000865af19150503d806000811461069e576040519150601f19603f3d011682016040523d82523d6000602084013e6106a3565b606091505b50509050806106f45760405162461bcd60e51b815260206004820152601e60248201527f63616c6c20746f20636f6e747261637441646472657373206661696c6564000060448201526064016103c8565b50505b50505050505050565b336001600160a01b037f000000000000000000000000000000000000000000000000000000000000000016146107785760405162461bcd60e51b815260206004820152601e60248201527f73656e646572206d7573742062652062726964676520636f6e7472616374000060448201526064016103c8565b565b6000858152602081905260409020546001600160a01b0316156107fe5760405162461bcd60e51b815260206004820152603660248201527f5f7265736f757263654944546f436f6e7472616374416464726573735b7265736044820152756f7572636549445d20213d206164647265737328302960501b60648201526084016103c8565b60008581526020818152604080832080546001600160a01b0319166001600160a01b03891690811790915583526001909152902054156108a65760405162461bcd60e51b815260206004820152603b60248201527f5f636f6e747261637441646472657373546f5265736f7572636549445b636f6e60448201527f7472616374416464726573735d20213d2062797465733332283029000000000060648201526084016103c8565b6001600160a01b0390931660009081526001602081815260408084209790975560028152868320805460e096871c63ffffffff199182161790915560038252878420949094556004815286832080549690951c95909316949094179092556005905291909120805460ff19169091179055565b80356001600160a01b038116811461093057600080fd5b919050565b60006020828403121561094757600080fd5b61095082610919565b9392505050565b6000806040838503121561096a57600080fd5b8235915061097a60208401610919565b90509250929050565b60008083601f84011261099557600080fd5b50813567ffffffffffffffff8111156109ad57600080fd5b6020830191508360208285010111156109c557600080fd5b9250929050565b600080600080606085870312156109e257600080fd5b843593506109f260208601610919565b9250604085013567ffffffffffffffff811115610a0e57600080fd5b610a1a87828801610983565b95989497509550505050565b60005b83811015610a41578181015183820152602001610a29565b83811115610a50576000848401525b50505050565b6020815260008251806020840152610a75816040850160208701610a26565b601f01601f19169190910160400192915050565b600060208284031215610a9b57600080fd5b5035919050565b80356001600160e01b03198116811461093057600080fd5b600080600080600060a08688031215610ad257600080fd5b85359450610ae260208701610919565b9350610af060408701610aa2565b925060608601359150610b0560808701610aa2565b90509295509295909350565b600080600060408486031215610b2657600080fd5b83359250602084013567ffffffffffffffff811115610b4457600080fd5b610b5086828701610983565b9497909650939450505050565b60008219821115610b7e57634e487b7160e01b600052601160045260246000fd5b500190565b60008085851115610b9357600080fd5b83861115610ba057600080fd5b5050820193919092039150565b6020808252602b908201527f70726f766964656420636f6e747261637441646472657373206973206e6f742060408201526a1dda1a5d195b1a5cdd195960aa1b606082015260800190565b6001600160e01b0319831681528151600090610c1b816004850160208701610a26565b919091016004019392505050565b60008251610c3b818460208701610a26565b919091019291505056fea264697066735822122031ea040343932b387022a93e35a33c7a29adaeb0a0d0cfdf033b9662f9f3d9e164736f6c634300080b0033",
  "linkReferences": {},
  "deployedLinkReferences": {}
}