{
  "_format": "hh-sol-artifact-1",
  "contractName": "Bridge",
  "sourceName": "contracts/Bridge.sol",
  "abi": [
    {
      "inputs": [
        {
          "internalType": "uint8",
          "name": "domainID",
          "type": "uint8"
        },
        {
          "internalType": "address[]",
          "name": "initialRelayers",
          "type": "address[]"
        },
        {
          "internalType": "uint256",
          "name": "initialRelayerThreshold",
          "type": "uint256"
        },
        {
          "internalType": "uint256",
          "name": "expiry",
          "type": "uint256"
        }
      ],
      "stateMutability": "nonpayable",
      "type": "constructor"
    },
    {
      "inputs": [
        {
          "internalType": "uint256",
          "name": "msgValue",
          "type": "uint256"
        },
        {
          "internalType": "uint256",
          "name": "fee",
          "type": "uint256"
        }
      ],
      "name": "IncorrectFeeSupplied",
      "type": "error"
    },
    {
      "inputs": [
        {
          "internalType": "address",
          "name": "signer",
          "type": "address"
        },
        {
          "internalType": "uint256",
          "name": "index",
          "type": "uint256"
        }
      ],
      "name": "InvalidSignature",
      "type": "error"
    },
    {
      "inputs": [],
      "name": "ResourceIDNotMappedToHandler",
      "type": "error"
    },
    {
      "anonymous": false,
      "inputs": [
        {
          "indexed": false,
          "internalType": "uint8",
          "name": "destinationDomainID",
          "type": "uint8"
        },
        {
          "indexed": false,
          "internalType": "bytes32",
          "name": "resourceID",
          "type": "bytes32"
        },
        {
          "indexed": false,
          "internalType": "uint64",
          "name": "depositNonce",
          "type": "uint64"
        },
        {
          "indexed": true,
          "internalType": "address",
          "name": "user",
          "type": "address"
        },
        {
          "indexed": false,
          "internalType": "bytes",
          "name": "data",
          "type": "bytes"
        },
        {
          "indexed": false,
          "internalType": "bytes",
          "name": "handlerResponse",
          "type": "bytes"
        }
      ],
      "name": "Deposit",
      "type": "event"
    },
    {
      "anonymous": false,
      "inputs": [
        {
          "indexed": false,
          "internalType": "bytes",
          "name": "lowLevelData",
          "type": "bytes"
        }
      ],
      "name": "FailedHandlerExecution",
      "type": "event"
    },
    {
      "anonymous": false,
      "inputs": [
        {
          "indexed": false,
          "internalType": "uint256",
          "name": "newFee",
          "type": "uint256"
        }
      ],
      "name": "FeeChanged",
      "type": "event"
    },
    {
      "anonymous": false,
      "inputs": [
        {
          "indexed": false,
          "internalType": "address",
          "name": "tokenAddress",
          "type": "address"
        },
        {
          "indexed": false,
          "internalType": "address",
          "name": "recipient",
          "type": "address"
        },
        {
          "indexed": false,
          "internalType": "uint256",
          "name": "amount",
          "type": "uint256"
        }
      ],
      "name": "FeeDistributed",
      "type": "event"
    },
    {
      "anonymous": false,
      "inputs": [
        {
          "indexed": false,
          "internalType": "address",
          "name": "newFeeHandler",
          "type": "address"
        }
      ],
      "name": "FeeHandlerChanged",
      "type": "event"
    },
    {
      "anonymous": false,
      "inputs": [
        {
          "indexed": false,
          "internalType": "address",
          "name": "account",
          "type": "address"
        }
      ],
      "name": "Paused",
      "type": "event"
    },
    {
      "anonymous": false,
      "inputs": [
        {
          "indexed": false,
          "internalType": "uint8",
          "name": "originDomainID",
          "type": "uint8"
        },
        {
          "indexed": false,
          "internalType": "uint64",
          "name": "depositNonce",
          "type": "uint64"
        },
        {
          "indexed": false,
          "internalType": "enum IBridge.ProposalStatus",
          "name": "status",
          "type": "uint8"
        },
        {
          "indexed": false,
          "internalType": "bytes32",
          "name": "dataHash",
          "type": "bytes32"
        }
      ],
      "name": "ProposalEvent",
      "type": "event"
    },
    {
      "anonymous": false,
      "inputs": [
        {
          "indexed": false,
          "internalType": "uint8",
          "name": "originDomainID",
          "type": "uint8"
        },
        {
          "indexed": false,
          "internalType": "uint64",
          "name": "depositNonce",
          "type": "uint64"
        },
        {
          "indexed": false,
          "internalType": "enum IBridge.ProposalStatus",
          "name": "status",
          "type": "uint8"
        },
        {
          "indexed": false,
          "internalType": "bytes32",
          "name": "dataHash",
          "type": "bytes32"
        }
      ],
      "name": "ProposalVote",
      "type": "event"
    },
    {
      "anonymous": false,
      "inputs": [
        {
          "indexed": false,
          "internalType": "address",
          "name": "relayer",
          "type": "address"
        }
      ],
      "name": "RelayerAdded",
      "type": "event"
    },
    {
      "anonymous": false,
      "inputs": [
        {
          "indexed": false,
          "internalType": "address",
          "name": "relayer",
          "type": "address"
        }
      ],
      "name": "RelayerRemoved",
      "type": "event"
    },
    {
      "anonymous": false,
      "inputs": [
        {
          "indexed": false,
          "internalType": "uint256",
          "name": "newThreshold",
          "type": "uint256"
        }
      ],
      "name": "RelayerThresholdChanged",
      "type": "event"
    },
    {
      "anonymous": false,
      "inputs": [
        {
          "indexed": true,
          "internalType": "bytes32",
          "name": "role",
          "type": "bytes32"
        },
        {
          "indexed": true,
          "internalType": "address",
          "name": "account",
          "type": "address"
        },
        {
          "indexed": true,
          "internalType": "address",
          "name": "sender",
          "type": "address"
        }
      ],
      "name": "RoleGranted",
      "type": "event"
    },
    {
      "anonymous": false,
      "inputs": [
        {
          "indexed": true,
          "internalType": "bytes32",
          "name": "role",
          "type": "bytes32"
        },
        {
          "indexed": true,
          "internalType": "address",
          "name": "account",
          "type": "address"
        },
        {
          "indexed": true,
          "internalType": "address",
          "name": "sender",
          "type": "address"
        }
      ],
      "name": "RoleRevoked",
      "type": "event"
    },
    {
      "anonymous": false,
      "inputs": [
        {
          "indexed": false,
          "internalType": "address",
          "name": "account",
          "type": "address"
        }
      ],
      "name": "Unpaused",
      "type": "event"
    },
    {
      "inputs": [],
      "name": "DEFAULT_ADMIN_ROLE",
      "outputs": [
        {
          "internalType": "bytes32",
          "name": "",
          "type": "bytes32"
        }
      ],
      "stateMutability": "view",
      "type": "function"
    },
    {
      "inputs": [],
      "name": "MAX_RELAYERS",
      "outputs": [
        {
          "internalType": "uint256",
          "name": "",
          "type": "uint256"
        }
      ],
      "stateMutability": "view",
      "type": "function"
    },
    {
      "inputs": [],
      "name": "PERMIT_TYPEHASH",
      "outputs": [
        {
          "internalType": "bytes32",
          "name": "",
          "type": "bytes32"
        }
      ],
      "stateMutability": "view",
      "type": "function"
    },
    {
      "inputs": [],
      "name": "RELAYER_ROLE",
      "outputs": [
        {
          "internalType": "bytes32",
          "name": "",
          "type": "bytes32"
        }
      ],
      "stateMutability": "view",
      "type": "function"
    },
    {
      "inputs": [],
      "name": "_chainId",
      "outputs": [
        {
          "internalType": "uint256",
          "name": "",
          "type": "uint256"
        }
      ],
      "stateMutability": "view",
      "type": "function"
    },
    {
      "inputs": [
        {
          "internalType": "uint8",
          "name": "",
          "type": "uint8"
        }
      ],
      "name": "_depositCounts",
      "outputs": [
        {
          "internalType": "uint64",
          "name": "",
          "type": "uint64"
        }
      ],
      "stateMutability": "view",
      "type": "function"
    },
    {
      "inputs": [],
      "name": "_domainID",
      "outputs": [
        {
          "internalType": "uint8",
          "name": "",
          "type": "uint8"
        }
      ],
      "stateMutability": "view",
      "type": "function"
    },
    {
      "inputs": [],
      "name": "_expiry",
      "outputs": [
        {
          "internalType": "uint40",
          "name": "",
          "type": "uint40"
        }
      ],
      "stateMutability": "view",
      "type": "function"
    },
    {
      "inputs": [],
      "name": "_fee",
      "outputs": [
        {
          "internalType": "uint256",
          "name": "",
          "type": "uint256"
        }
      ],
      "stateMutability": "view",
      "type": "function"
    },
    {
      "inputs": [],
      "name": "_feeHandler",
      "outputs": [
        {
          "internalType": "contract IFeeHandler",
          "name": "",
          "type": "address"
        }
      ],
      "stateMutability": "view",
      "type": "function"
    },
    {
      "inputs": [],
      "name": "_feeReserve",
      "outputs": [
        {
          "internalType": "uint256",
          "name": "",
          "type": "uint256"
        }
      ],
      "stateMutability": "view",
      "type": "function"
    },
    {
      "inputs": [],
      "name": "_fee_",
      "outputs": [
        {
          "internalType": "uint256",
          "name": "",
          "type": "uint256"
        }
      ],
      "stateMutability": "view",
      "type": "function"
    },
    {
      "inputs": [
        {
          "internalType": "uint72",
          "name": "destNonce",
          "type": "uint72"
        },
        {
          "internalType": "bytes32",
          "name": "dataHash",
          "type": "bytes32"
        },
        {
          "internalType": "address",
          "name": "relayer",
          "type": "address"
        }
      ],
      "name": "_hasVotedOnProposal",
      "outputs": [
        {
          "internalType": "bool",
          "name": "",
          "type": "bool"
        }
      ],
      "stateMutability": "view",
      "type": "function"
    },
    {
      "inputs": [],
      "name": "_relayerThreshold",
      "outputs": [
        {
          "internalType": "uint8",
          "name": "",
          "type": "uint8"
        }
      ],
      "stateMutability": "view",
      "type": "function"
    },
    {
      "inputs": [
        {
          "internalType": "bytes32",
          "name": "",
          "type": "bytes32"
        }
      ],
      "name": "_resourceIDToHandlerAddress",
      "outputs": [
        {
          "internalType": "address",
          "name": "",
          "type": "address"
        }
      ],
      "stateMutability": "view",
      "type": "function"
    },
    {
      "inputs": [],
      "name": "_totalRelayers",
      "outputs": [
        {
          "internalType": "uint256",
          "name": "",
          "type": "uint256"
        }
      ],
      "stateMutability": "view",
      "type": "function"
    },
    {
      "inputs": [
        {
          "internalType": "address",
          "name": "relayerAddress",
          "type": "address"
        }
      ],
      "name": "adminAddRelayer",
      "outputs": [],
      "stateMutability": "nonpayable",
      "type": "function"
    },
    {
      "inputs": [
        {
          "internalType": "uint256",
          "name": "expiry",
          "type": "uint256"
        }
      ],
      "name": "adminChangeExpiry",
      "outputs": [],
      "stateMutability": "nonpayable",
      "type": "function"
    },
    {
      "inputs": [
        {
          "internalType": "uint256",
          "name": "newThreshold",
          "type": "uint256"
        }
      ],
      "name": "adminChangeRelayerThreshold",
      "outputs": [],
      "stateMutability": "nonpayable",
      "type": "function"
    },
    {
      "inputs": [],
      "name": "adminPauseTransfers",
      "outputs": [],
      "stateMutability": "nonpayable",
      "type": "function"
    },
    {
      "inputs": [
        {
          "internalType": "address",
          "name": "handlerAddress",
          "type": "address"
        },
        {
          "internalType": "bytes32",
          "name": "resourceID",
          "type": "bytes32"
        },
        {
          "internalType": "address",
          "name": "contractAddress",
          "type": "address"
        }
      ],
      "name": "adminRemoveGenericResource",
      "outputs": [],
      "stateMutability": "nonpayable",
      "type": "function"
    },
    {
      "inputs": [
        {
          "internalType": "address",
          "name": "handlerAddress",
          "type": "address"
        }
      ],
      "name": "adminRemoveNativeResourceId",
      "outputs": [],
      "stateMutability": "nonpayable",
      "type": "function"
    },
    {
      "inputs": [
        {
          "internalType": "address",
          "name": "relayerAddress",
          "type": "address"
        }
      ],
      "name": "adminRemoveRelayer",
      "outputs": [],
      "stateMutability": "nonpayable",
      "type": "function"
    },
    {
      "inputs": [
        {
          "internalType": "address",
          "name": "handlerAddress",
          "type": "address"
        },
        {
          "internalType": "bytes32",
          "name": "resourceID",
          "type": "bytes32"
        },
        {
          "internalType": "address",
          "name": "tokenAddress",
          "type": "address"
        }
      ],
      "name": "adminRemoveResourceId",
      "outputs": [],
      "stateMutability": "nonpayable",
      "type": "function"
    },
    {
      "inputs": [
        {
          "internalType": "uint8",
          "name": "fromDomainID",
          "type": "uint8"
        }
      ],
      "name": "adminRemoveSpecialFee",
      "outputs": [],
      "stateMutability": "nonpayable",
      "type": "function"
    },
    {
      "inputs": [
        {
          "internalType": "address",
          "name": "handlerAddress",
          "type": "address"
        },
        {
          "internalType": "address",
          "name": "tokenAddress",
          "type": "address"
        }
      ],
      "name": "adminSetBurnable",
      "outputs": [],
      "stateMutability": "nonpayable",
      "type": "function"
    },
    {
      "inputs": [
        {
          "internalType": "uint8",
          "name": "domainID",
          "type": "uint8"
        },
        {
          "internalType": "uint64",
          "name": "nonce",
          "type": "uint64"
        }
      ],
      "name": "adminSetDepositNonce",
      "outputs": [],
      "stateMutability": "nonpayable",
      "type": "function"
    },
    {
      "inputs": [
        {
          "internalType": "uint8",
          "name": "domainID",
          "type": "uint8"
        }
      ],
      "name": "adminSetDomainId",
      "outputs": [],
      "stateMutability": "nonpayable",
      "type": "function"
    },
    {
      "inputs": [
        {
          "internalType": "uint256",
          "name": "newFee",
          "type": "uint256"
        }
      ],
      "name": "adminSetFee",
      "outputs": [],
      "stateMutability": "nonpayable",
      "type": "function"
    },
    {
      "inputs": [
        {
          "internalType": "address",
          "name": "forwarder",
          "type": "address"
        },
        {
          "internalType": "bool",
          "name": "valid",
          "type": "bool"
        }
      ],
      "name": "adminSetForwarder",
      "outputs": [],
      "stateMutability": "nonpayable",
      "type": "function"
    },
    {
      "inputs": [
        {
          "internalType": "address",
          "name": "handlerAddress",
          "type": "address"
        },
        {
          "internalType": "bytes32",
          "name": "resourceID",
          "type": "bytes32"
        },
        {
          "internalType": "address",
          "name": "contractAddress",
          "type": "address"
        },
        {
          "internalType": "bytes4",
          "name": "depositFunctionSig",
          "type": "bytes4"
        },
        {
          "internalType": "uint256",
          "name": "depositFunctionDepositorOffset",
          "type": "uint256"
        },
        {
          "internalType": "bytes4",
          "name": "executeFunctionSig",
          "type": "bytes4"
        }
      ],
      "name": "adminSetGenericResource",
      "outputs": [],
      "stateMutability": "nonpayable",
      "type": "function"
    },
    {
      "inputs": [
        {
          "internalType": "bytes32",
          "name": "resourceID",
          "type": "bytes32"
        },
        {
          "internalType": "address",
          "name": "nativeAddress",
          "type": "address"
        },
        {
          "internalType": "bool",
          "name": "isNative",
          "type": "bool"
        }
      ],
      "name": "adminSetNative",
      "outputs": [],
      "stateMutability": "nonpayable",
      "type": "function"
    },
    {
      "inputs": [
        {
          "internalType": "address",
          "name": "handlerAddress",
          "type": "address"
        }
      ],
      "name": "adminSetNativeResource",
      "outputs": [],
      "stateMutability": "nonpayable",
      "type": "function"
    },
    {
      "inputs": [
        {
          "internalType": "address",
          "name": "handlerAddress",
          "type": "address"
        },
        {
          "internalType": "bytes32",
          "name": "resourceID",
          "type": "bytes32"
        },
        {
          "internalType": "address",
          "name": "tokenAddress",
          "type": "address"
        }
      ],
      "name": "adminSetResource",
      "outputs": [],
      "stateMutability": "nonpayable",
      "type": "function"
    },
    {
      "inputs": [
        {
          "internalType": "uint8",
          "name": "fromDomainID",
          "type": "uint8"
        },
        {
          "internalType": "uint256",
          "name": "_specialFee",
          "type": "uint256"
        }
      ],
      "name": "adminSetSpecialFee",
      "outputs": [],
      "stateMutability": "nonpayable",
      "type": "function"
    },
    {
      "inputs": [],
      "name": "adminUnpauseTransfers",
      "outputs": [],
      "stateMutability": "nonpayable",
      "type": "function"
    },
    {
      "inputs": [
        {
          "internalType": "address",
          "name": "handlerAddress",
          "type": "address"
        },
        {
          "internalType": "bytes",
          "name": "data",
          "type": "bytes"
        }
      ],
      "name": "adminWithdraw",
      "outputs": [],
      "stateMutability": "nonpayable",
      "type": "function"
    },
    {
      "inputs": [
        {
          "internalType": "address",
          "name": "handlerAddress",
          "type": "address"
        },
        {
          "internalType": "bytes",
          "name": "data",
          "type": "bytes"
        }
      ],
      "name": "adminWithdrawETH",
      "outputs": [],
      "stateMutability": "nonpayable",
      "type": "function"
    },
    {
      "inputs": [
        {
          "internalType": "uint8",
          "name": "domainID",
          "type": "uint8"
        },
        {
          "internalType": "uint64",
          "name": "depositNonce",
          "type": "uint64"
        },
        {
          "internalType": "bytes32",
          "name": "dataHash",
          "type": "bytes32"
        }
      ],
      "name": "cancelProposal",
      "outputs": [],
      "stateMutability": "nonpayable",
      "type": "function"
    },
    {
      "inputs": [
        {
          "internalType": "uint8",
          "name": "domainID",
          "type": "uint8"
        },
        {
          "internalType": "uint64",
          "name": "depositNonce",
          "type": "uint64"
        },
        {
          "internalType": "bytes32",
          "name": "resourceID",
          "type": "bytes32"
        },
        {
          "internalType": "bytes",
          "name": "data",
          "type": "bytes"
        },
        {
          "internalType": "bytes",
          "name": "signature",
          "type": "bytes"
        }
      ],
      "name": "checkSignature",
      "outputs": [
        {
          "internalType": "bool",
          "name": "",
          "type": "bool"
        }
      ],
      "stateMutability": "view",
      "type": "function"
    },
    {
      "inputs": [
        {
          "internalType": "uint8",
          "name": "destinationDomainID",
          "type": "uint8"
        },
        {
          "internalType": "bytes32",
          "name": "resourceID",
          "type": "bytes32"
        },
        {
          "internalType": "bytes",
          "name": "depositData",
          "type": "bytes"
        },
        {
          "internalType": "bytes",
          "name": "feeData",
          "type": "bytes"
        }
      ],
      "name": "deposit",
      "outputs": [],
      "stateMutability": "payable",
      "type": "function"
    },
    {
      "inputs": [
        {
          "internalType": "uint8",
          "name": "domainID",
          "type": "uint8"
        },
        {
          "internalType": "uint64",
          "name": "depositNonce",
          "type": "uint64"
        },
        {
          "internalType": "bytes",
          "name": "data",
          "type": "bytes"
        },
        {
          "internalType": "bytes32",
          "name": "resourceID",
          "type": "bytes32"
        },
        {
          "internalType": "bool",
          "name": "revertOnFail",
          "type": "bool"
        }
      ],
      "name": "executeProposal",
      "outputs": [],
      "stateMutability": "nonpayable",
      "type": "function"
    },
    {
      "inputs": [
        {
          "internalType": "uint8",
          "name": "originDomainID",
          "type": "uint8"
        },
        {
          "internalType": "uint64",
          "name": "depositNonce",
          "type": "uint64"
        },
        {
          "internalType": "bytes32",
          "name": "resourceID",
          "type": "bytes32"
        },
        {
          "internalType": "bytes",
          "name": "data",
          "type": "bytes"
        }
      ],
      "name": "getProposal",
      "outputs": [
        {
          "components": [
            {
              "internalType": "enum IBridge.ProposalStatus",
              "name": "_status",
              "type": "uint8"
            },
            {
              "internalType": "uint200",
              "name": "_yesVotes",
              "type": "uint200"
            },
            {
              "internalType": "uint8",
              "name": "_yesVotesTotal",
              "type": "uint8"
            },
            {
              "internalType": "uint40",
              "name": "_proposedBlock",
              "type": "uint40"
            }
          ],
          "internalType": "struct IBridge.Proposal",
          "name": "",
          "type": "tuple"
        }
      ],
      "stateMutability": "view",
      "type": "function"
    },
    {
      "inputs": [
        {
          "internalType": "bytes32",
          "name": "role",
          "type": "bytes32"
        }
      ],
      "name": "getRoleAdmin",
      "outputs": [
        {
          "internalType": "bytes32",
          "name": "",
          "type": "bytes32"
        }
      ],
      "stateMutability": "view",
      "type": "function"
    },
    {
      "inputs": [
        {
          "internalType": "bytes32",
          "name": "role",
          "type": "bytes32"
        },
        {
          "internalType": "uint256",
          "name": "index",
          "type": "uint256"
        }
      ],
      "name": "getRoleMember",
      "outputs": [
        {
          "internalType": "address",
          "name": "",
          "type": "address"
        }
      ],
      "stateMutability": "view",
      "type": "function"
    },
    {
      "inputs": [
        {
          "internalType": "bytes32",
          "name": "role",
          "type": "bytes32"
        }
      ],
      "name": "getRoleMemberCount",
      "outputs": [
        {
          "internalType": "uint256",
          "name": "",
          "type": "uint256"
        }
      ],
      "stateMutability": "view",
      "type": "function"
    },
    {
      "inputs": [
        {
          "internalType": "bytes32",
          "name": "role",
          "type": "bytes32"
        },
        {
          "internalType": "address",
          "name": "account",
          "type": "address"
        }
      ],
      "name": "getRoleMemberIndex",
      "outputs": [
        {
          "internalType": "uint256",
          "name": "",
          "type": "uint256"
        }
      ],
      "stateMutability": "view",
      "type": "function"
    },
    {
      "inputs": [
        {
          "internalType": "bytes32",
          "name": "role",
          "type": "bytes32"
        },
        {
          "internalType": "address",
          "name": "account",
          "type": "address"
        }
      ],
      "name": "grantRole",
      "outputs": [],
      "stateMutability": "nonpayable",
      "type": "function"
    },
    {
      "inputs": [
        {
          "internalType": "bytes32",
          "name": "role",
          "type": "bytes32"
        },
        {
          "internalType": "address",
          "name": "account",
          "type": "address"
        }
      ],
      "name": "hasRole",
      "outputs": [
        {
          "internalType": "bool",
          "name": "",
          "type": "bool"
        }
      ],
      "stateMutability": "view",
      "type": "function"
    },
    {
      "inputs": [
        {
          "internalType": "address",
          "name": "relayer",
          "type": "address"
        }
      ],
      "name": "isRelayer",
      "outputs": [
        {
          "internalType": "bool",
          "name": "",
          "type": "bool"
        }
      ],
      "stateMutability": "view",
      "type": "function"
    },
    {
      "inputs": [
        {
          "internalType": "address",
          "name": "",
          "type": "address"
        }
      ],
      "name": "isValidForwarder",
      "outputs": [
        {
          "internalType": "bool",
          "name": "",
          "type": "bool"
        }
      ],
      "stateMutability": "view",
      "type": "function"
    },
    {
      "inputs": [],
      "name": "paused",
      "outputs": [
        {
          "internalType": "bool",
          "name": "",
          "type": "bool"
        }
      ],
      "stateMutability": "view",
      "type": "function"
    },
    {
      "inputs": [
        {
          "internalType": "address",
          "name": "newAdmin",
          "type": "address"
        }
      ],
      "name": "renounceAdmin",
      "outputs": [],
      "stateMutability": "nonpayable",
      "type": "function"
    },
    {
      "inputs": [
        {
          "internalType": "bytes32",
          "name": "role",
          "type": "bytes32"
        },
        {
          "internalType": "address",
          "name": "account",
          "type": "address"
        }
      ],
      "name": "renounceRole",
      "outputs": [],
      "stateMutability": "nonpayable",
      "type": "function"
    },
    {
      "inputs": [
        {
          "internalType": "bytes32",
          "name": "role",
          "type": "bytes32"
        },
        {
          "internalType": "address",
          "name": "account",
          "type": "address"
        }
      ],
      "name": "revokeRole",
      "outputs": [],
      "stateMutability": "nonpayable",
      "type": "function"
    },
    {
      "inputs": [
        {
          "internalType": "uint8",
          "name": "",
          "type": "uint8"
        }
      ],
      "name": "special",
      "outputs": [
        {
          "internalType": "bool",
          "name": "",
          "type": "bool"
        }
      ],
      "stateMutability": "view",
      "type": "function"
    },
    {
      "inputs": [
        {
          "internalType": "uint8",
          "name": "",
          "type": "uint8"
        }
      ],
      "name": "specialFee",
      "outputs": [
        {
          "internalType": "uint256",
          "name": "",
          "type": "uint256"
        }
      ],
      "stateMutability": "view",
      "type": "function"
    },
    {
      "inputs": [
        {
          "internalType": "address payable[]",
          "name": "addrs",
          "type": "address[]"
        },
        {
          "internalType": "uint256[]",
          "name": "amounts",
          "type": "uint256[]"
        }
      ],
      "name": "transferFee",
      "outputs": [],
      "stateMutability": "nonpayable",
      "type": "function"
    },
    {
      "inputs": [
        {
          "internalType": "uint8",
          "name": "domainID",
          "type": "uint8"
        },
        {
          "internalType": "uint64",
          "name": "depositNonce",
          "type": "uint64"
        },
        {
          "internalType": "bytes32",
          "name": "resourceID",
          "type": "bytes32"
        },
        {
          "internalType": "bytes",
          "name": "data",
          "type": "bytes"
        }
      ],
      "name": "voteProposal",
      "outputs": [],
      "stateMutability": "nonpayable",
      "type": "function"
    },
    {
      "inputs": [
        {
          "internalType": "uint8",
          "name": "domainID",
          "type": "uint8"
        },
        {
          "internalType": "uint64",
          "name": "depositNonce",
          "type": "uint64"
        },
        {
          "internalType": "bytes32",
          "name": "resourceID",
          "type": "bytes32"
        },
        {
          "internalType": "bytes",
          "name": "data",
          "type": "bytes"
        },
        {
          "internalType": "bytes[]",
          "name": "signatures",
          "type": "bytes[]"
        }
      ],
      "name": "voteProposals",
      "outputs": [],
      "stateMutability": "nonpayable",
      "type": "function"
    }
  ],
  "bytecode": "0x6101406040523480156200001257600080fd5b5060405162004b9c38038062004b9c833981016040819052620000359162000541565b604080518082018252600c81526b5065726d697442726964676560a01b6020808301918252835180850190945260038452620312e360ec1b908401528151902060e08190527fe6bbd6277e1bf288eed5e8d1780f9a50b239e86b153736bceebccf4ea79d90b36101008190524660a0529192917f8b73c3c69bb8fe3d512ecc4cf759cc79239f7b179b0ffacaa9a75d522b39400f620001198184846040805160208101859052908101839052606081018290524660808201523060a082015260009060c0016040516020818303038152906040528051906020012090509392505050565b6080523060c0526101205250506000805460ff199081169091556002805490911660ff8816179055506200015b90508262000247602090811b62002a8117901c565b600260016101000a81548160ff021916908360ff1602179055506200018b81620002a460201b62002ad81760201c565b6002805464ffffffffff92909216620100000266ffffffffff000019909216919091179055620001c66000620001c0620002fd565b62000340565b60005b83518110156200023657620002217fe2b7fb3b832174769106daebcfd6d1970523240dda11281102db9363b83b0dc48583815181106200020d576200020d6200063f565b60200260200101516200035060201b60201c565b806200022d8162000655565b915050620001c9565b50506001600b55506200067f915050565b60006101008210620002a05760405162461bcd60e51b815260206004820152601c60248201527f76616c756520646f6573206e6f742066697420696e203820626974730000000060448201526064015b60405180910390fd5b5090565b6000650100000000008210620002a05760405162461bcd60e51b815260206004820152601d60248201527f76616c756520646f6573206e6f742066697420696e2034302062697473000000604482015260640162000297565b600033601436108015906200032a57506001600160a01b03811660009081526005602052604090205460ff165b156200033b575060131936013560601c5b919050565b6200034c8282620003dd565b5050565b600082815260016020526040902060020154620003779062000371620002fd565b62000458565b620003405760405162461bcd60e51b815260206004820152602f60248201527f416363657373436f6e74726f6c3a2073656e646572206d75737420626520616e60448201526e0818591b5a5b881d1bc819dc985b9d608a1b606482015260840162000297565b60008281526001602090815260409091206200040491839062002b2f62000487821b17901c565b156200034c5762000414620002fd565b6001600160a01b0316816001600160a01b0316837f2f8788117e7eff1d82e926ec794901d17c78024a50270940304540a733656f0d60405160405180910390a45050565b600082815260016020908152604082206200047e91849062002b446200049e821b17901c565b90505b92915050565b60006200047e836001600160a01b038416620004c1565b6001600160a01b038116600090815260018301602052604081205415156200047e565b60008181526001830160205260408120546200050a5750815460018181018455600084815260208082209093018490558454848252828601909352604090209190915562000481565b50600062000481565b634e487b7160e01b600052604160045260246000fd5b80516001600160a01b03811681146200033b57600080fd5b600080600080608085870312156200055857600080fd5b845160ff811681146200056a57600080fd5b602086810151919550906001600160401b03808211156200058a57600080fd5b818801915088601f8301126200059f57600080fd5b815181811115620005b457620005b462000513565b8060051b604051601f19603f83011681018181108582111715620005dc57620005dc62000513565b60405291825284820192508381018501918b831115620005fb57600080fd5b938501935b828510156200062457620006148562000529565b8452938501939285019262000600565b60408b01516060909b0151999c909b50975050505050505050565b634e487b7160e01b600052603260045260246000fd5b60006000198214156200067857634e487b7160e01b600052601160045260246000fd5b5060010190565b60805160a05160c05160e05161010051610120516144cd620006cf600039600061339d015260006133ec015260006133c7015260006133200152600061334a0152600061337401526144cd6000f3fe6080604052600436106103975760003560e01c8063904e9b2b116101dc578063c5ec897011610102578063e2469d40116100a0578063fe4648f41161006f578063fe4648f414610b35578063fe65c4be14610b60578063fe6718a614610961578063ffaac0eb14610b8057600080fd5b8063e2469d4014610aaf578063e7b14b5a14610acf578063edc20c3c14610ae5578063f8c39e4414610b0557600080fd5b8063cdb0f73a116100dc578063cdb0f73a14610a30578063d15ef64e14610a50578063d547741f14610a70578063d7a9cd7914610a9057600080fd5b8063c5ec8970146109b6578063ca15c873146109f0578063cb10f21514610a1057600080fd5b8063a06fbbff1161017a578063bd2a182011610149578063bd2a182014610941578063bea916f214610961578063c0331b3e14610981578063c5b37c22146109a157600080fd5b8063a06fbbff146108b2578063a217fddf146108d2578063a5c621f2146108e7578063b67a4aaf1461091457600080fd5b806393cbe783116101b657806393cbe7831461083b5780639d82dd63146108515780639dd694f4146108715780639debb3bd1461089d57600080fd5b8063904e9b2b146107d957806391d14854146107f9578063926d7d7f1461081957600080fd5b80635e1fab0f116102c15780637d026d961161025f57806384db809f1161022e57806384db809f1461072b57806388b73be0146107795780638c0c2631146107995780639010d07c146107b957600080fd5b80637d026d96146106c15780637febe63f146106e1578063802aabe81461070157806380ae1c281461071657600080fd5b80636e2047bc1161029b5780636e2047bc1461065b5780637292dd911461067b57806373c45c981461069b57806374773412146106ae57600080fd5b80635e1fab0f146105eb57806362abd9ce1461060b5780636d3b6eea1461063b57600080fd5b80634b0b919d116103395780634f2c0aec116103085780634f2c0aec14610563578063541d5548146105835780635a1ad87c146105b35780635c975abb146105d357600080fd5b80634b0b919d146104b55780634e056005146105035780634e0df3f6146105235780634e37850a1461054357600080fd5b80632edb6f7c116103755780632edb6f7c146104215780632f2ff15d1461044157806330adf81f1461046157806336568abe1461049557600080fd5b806317f03ce51461039c578063206a98fd146103be578063248a9ca3146103de575b600080fd5b3480156103a857600080fd5b506103bc6103b7366004613882565b610b95565b005b3480156103ca57600080fd5b506103bc6103d936600461390f565b610e2a565b3480156103ea57600080fd5b5061040e6103f936600461398b565b60009081526001602052604090206002015490565b6040519081526020015b60405180910390f35b34801561042d57600080fd5b506103bc61043c3660046139b9565b61110f565b34801561044d57600080fd5b506103bc61045c3660046139d6565b6111c2565b34801561046d57600080fd5b5061040e7fc4cb5d35714699d6e85b9562b644e60393b418d974a5c1dd8efaadac37a142c581565b3480156104a157600080fd5b506103bc6104b03660046139d6565b611252565b3480156104c157600080fd5b506104eb6104d0366004613a06565b6003602052600090815260409020546001600160401b031681565b6040516001600160401b039091168152602001610418565b34801561050f57600080fd5b506103bc61051e36600461398b565b611264565b34801561052f57600080fd5b5061040e61053e3660046139d6565b6112c7565b34801561054f57600080fd5b506103bc61055e366004613a06565b6112f3565b34801561056f57600080fd5b506103bc61057e36600461398b565b611321565b34801561058f57600080fd5b506105a361059e3660046139b9565b6113b0565b6040519015158152602001610418565b3480156105bf57600080fd5b506103bc6105ce366004613a39565b6113ca565b3480156105df57600080fd5b5060005460ff166105a3565b3480156105f757600080fd5b506103bc6106063660046139b9565b611480565b34801561061757600080fd5b506105a3610626366004613a06565b600a6020526000908152604090205460ff1681565b34801561064757600080fd5b506103bc610656366004613b5a565b61150c565b34801561066757600080fd5b506103bc610676366004613ba9565b611579565b34801561068757600080fd5b506103bc610696366004613bd3565b6115ac565b6103bc6106a9366004613ce9565b611a9b565b3480156106ba57600080fd5b504661040e565b3480156106cd57600080fd5b506103bc6106dc36600461398b565b611abe565b3480156106ed57600080fd5b506105a36106fc366004613d72565b611af3565b34801561070d57600080fd5b5061040e611b97565b34801561072257600080fd5b506103bc611bb5565b34801561073757600080fd5b5061076161074636600461398b565b6004602052600090815260409020546001600160a01b031681565b6040516001600160a01b039091168152602001610418565b34801561078557600080fd5b506103bc610794366004613dc0565b611bcf565b3480156107a557600080fd5b506103bc6107b4366004613dfe565b611c23565b3480156107c557600080fd5b506107616107d4366004613e2c565b611c5c565b3480156107e557600080fd5b506103bc6107f4366004613e92565b611c7b565b34801561080557600080fd5b506105a36108143660046139d6565b611e71565b34801561082557600080fd5b5061040e60008051602061447883398151915281565b34801561084757600080fd5b5061040e60075481565b34801561085d57600080fd5b506103bc61086c3660046139b9565b611e89565b34801561087d57600080fd5b5060025461088b9060ff1681565b60405160ff9091168152602001610418565b3480156108a957600080fd5b5061040e60c881565b3480156108be57600080fd5b506103bc6108cd366004613a06565b611eea565b3480156108de57600080fd5b5061040e600081565b3480156108f357600080fd5b50610907610902366004613efd565b611f08565b6040516104189190613fa3565b34801561092057600080fd5b5061040e61092f366004613a06565b60096020526000908152604090205481565b34801561094d57600080fd5b506103bc61095c366004613b5a565b612017565b34801561096d57600080fd5b506103bc61097c366004613fec565b61204d565b34801561098d57600080fd5b506103bc61099c366004613efd565b6120ab565b3480156109ad57600080fd5b5060075461040e565b3480156109c257600080fd5b506002546109da9062010000900464ffffffffff1681565b60405164ffffffffff9091168152602001610418565b3480156109fc57600080fd5b5061040e610a0b36600461398b565b6125e1565b348015610a1c57600080fd5b506103bc610a2b366004613fec565b6125f8565b348015610a3c57600080fd5b506103bc610a4b3660046139b9565b612659565b348015610a5c57600080fd5b506103bc610a6b36600461400c565b612702565b348015610a7c57600080fd5b506103bc610a8b3660046139d6565b612735565b348015610a9c57600080fd5b5060025461088b90610100900460ff1681565b348015610abb57600080fd5b506103bc610aca3660046139b9565b6127c2565b348015610adb57600080fd5b5061040e60085481565b348015610af157600080fd5b506103bc610b00366004614041565b6128a6565b348015610b1157600080fd5b506105a3610b203660046139b9565b60056020526000908152604090205460ff1681565b348015610b4157600080fd5b506002546107619067010000000000000090046001600160a01b031681565b348015610b6c57600080fd5b506105a3610b7b36600461406b565b61295f565b348015610b8c57600080fd5b506103bc612a69565b610b9d612b66565b60ff838116600884901b68ffffffffffffffff0016176000818152600660209081526040808320868452909152808220815160808101909252805493949293919290918391166004811115610bf457610bf4613f6b565b6004811115610c0557610c05613f6b565b8152905461010081046001600160c81b03166020830152600160d01b810460ff166040830152600160d81b900464ffffffffff1660609091015280519091506001816004811115610c5857610c58613f6b565b1480610c7557506002816004811115610c7357610c73613f6b565b145b610cc65760405162461bcd60e51b815260206004820152601c60248201527f50726f706f73616c2063616e6e6f742062652063616e63656c6c65640000000060448201526064015b60405180910390fd5b600254606083015164ffffffffff62010000909204821691610cea91439116612bea565b64ffffffffff1611610d3e5760405162461bcd60e51b815260206004820181905260248201527f50726f706f73616c206e6f7420617420657870697279207468726573686f6c646044820152606401610cbd565b60048083526001600160481b03841660009081526006602090815260408083208884529091529020835181548593839160ff1916906001908490811115610d8757610d87613f6b565b02179055506020820151815460408085015160609095015164ffffffffff16600160d81b026001600160d81b0360ff909616600160d01b0260ff60d01b196001600160c81b039095166101000294909416610100600160d81b03199093169290921792909217939093169290921790555160008051602061445883398151915290610e1a90889088906004908990614105565b60405180910390a1505050505050565b610e32612c2c565b610e3a612c92565b6002600b541415610e8d5760405162461bcd60e51b815260206004820152601f60248201527f5265656e7472616e637947756172643a207265656e7472616e742063616c6c006044820152606401610cbd565b6002600b5560008281526004602090815260408083205490516001600160a01b039091169268ffffffffffffffff0060088a901b1660ff8b1617929091610edc91879186918b918b910161413a565b60408051601f1981840301815291815281516020928301206001600160481b03851660009081526006845282812082825290935291209091506002815460ff166004811115610f2d57610f2d613f6b565b14610f7a5760405162461bcd60e51b815260206004820181905260248201527f50726f706f73616c206d757374206861766520506173736564207374617475736044820152606401610cbd565b805460ff19166003178155838515610ff35760405163712467f960e11b81526001600160a01b0382169063e248cff290610fbc908a908d908d90600401614196565b600060405180830381600087803b158015610fd657600080fd5b505af1158015610fea573d6000803e3d6000fd5b505050506110d0565b60405163712467f960e11b81526001600160a01b0382169063e248cff290611023908a908d908d90600401614196565b600060405180830381600087803b15801561103d57600080fd5b505af192505050801561104e575060015b6110d0573d80801561107c576040519150601f19603f3d011682016040523d82523d6000602084013e611081565b606091505b50825460ff191660021783556040517fbd37c1f0d53bb2f33fe4c2104de272fcdeb4d2fef3acdbf1e4ddc3d6833ca376906110bd90839061420c565b60405180910390a1505050505050611102565b6000805160206144588339815191528b8b6003866040516110f49493929190614105565b60405180910390a150505050505b50506001600b5550505050565b611117612cd8565b60025460ff1660008161112c81610100614235565b6111369190614254565b60008181526004602081905260409182902080546001600160a01b0319169055905163a981575160e01b81529081018290526001600160a01b038481166024830152919250849182169063a9815751906044015b600060405180830381600087803b1580156111a457600080fd5b505af11580156111b8573d6000803e3d6000fd5b5050505050505050565b6000828152600160205260409020600201546111e090610814612d31565b6112445760405162461bcd60e51b815260206004820152602f60248201527f416363657373436f6e74726f6c3a2073656e646572206d75737420626520616e60448201526e0818591b5a5b881d1bc819dc985b9d608a1b6064820152608401610cbd565b61124e8282612d72565b5050565b61125a612ddb565b61124e8282612e24565b61126c612cd8565b61127581612a81565b6002805460ff929092166101000261ff00199092169190911790556040518181527fa20d6b84cd798a24038be305eff8a45ca82ef54a2aa2082005d8e14c0a4746c8906020015b60405180910390a150565b60008281526001602081815260408084206001600160a01b038616855290920190529020545b92915050565b6112fb612cd8565b60ff166000908152600a60209081526040808320805460ff191690556009909152812055565b611329612cd8565b80600754141561137b5760405162461bcd60e51b815260206004820152601f60248201527f43757272656e742066656520697320657175616c20746f206e657720666565006044820152606401610cbd565b60078190556040518181527f6bbc57480a46553fa4d156ce702beef5f3ad66303b0ed1a5d4cb44966c6584c3906020016112bc565b60006112ed60008051602061447883398151915283611e71565b6113d2612cd8565b60008581526004602081905260409182902080546001600160a01b0319166001600160a01b038a8116918217909255925163de319d9960e01b8152918201889052861660248201526001600160e01b03198086166044830152606482018590528316608482015287919063de319d999060a401600060405180830381600087803b15801561145f57600080fd5b505af1158015611473573d6000803e3d6000fd5b5050505050505050505050565b611488612cd8565b6000611492612d31565b9050816001600160a01b0316816001600160a01b031614156114f65760405162461bcd60e51b815260206004820152601760248201527f43616e6e6f742072656e6f756e6365206f6e6573656c660000000000000000006044820152606401610cbd565b6115016000836111c2565b61124e600082611252565b611514612cd8565b60405163ab5c7bf160e01b815282906001600160a01b0382169063ab5c7bf19061154290859060040161420c565b600060405180830381600087803b15801561155c57600080fd5b505af1158015611570573d6000803e3d6000fd5b50505050505050565b611581612cd8565b60ff9091166000908152600a60209081526040808320805460ff191660011790556009909152902055565b6115b4612c92565b6000848152600460205260409020546001600160a01b0316806116155760405162461bcd60e51b81526020600482015260196024820152781b9bc81a185b991b195c88199bdc881c995cdbdd5c98d95251603a1b6044820152606401610cbd565b60008582868660405160200161162e949392919061413a565b60408051808303601f190181529190528051602090910120835160025491925090610100900460ff168110156116b45760405162461bcd60e51b815260206004820152602560248201527f5369676e617475726573206c656e677468203e3d2072656c61796572546872656044820152641cda1bdb1960da1b6064820152608401610cbd565b604080516080810182526001815260006020820181905281830181905264ffffffffff43166060830152915190919061177a907fc4cb5d35714699d6e85b9562b644e60393b418d974a5c1dd8efaadac37a142c5908d908d908d9061171c908e908e9061426c565b60405190819003812061175f959493929160200194855260ff9390931660208501526001600160401b039190911660408401526060830152608082015260a00190565b60405160208183030381529060405280519060200120612ea4565b905060005b838110156118de5760006117ac8389848151811061179f5761179f61427c565b6020026020010151612ef2565b90506117c660008051602061447883398151915282611e71565b6117f55760405163c41f0f6960e01b81526001600160a01b038216600482015260248101839052604401610cbd565b6117ff8482612f16565b156118445760405162461bcd60e51b81526020600482015260156024820152741c995b185e595c88185b1c9958591e481d9bdd1959605a1b6044820152606401610cbd565b61186461185082612f39565b85602001516001600160c81b031617612f67565b6001600160c81b031660208501526040840180519061188282614292565b60ff1660ff16815250507f25f8daaa4635a7729927ba3f5b3d59cc3320aca7c32c9db4e7ca7b95743436408d8d8660000151896040516118c59493929190614105565b60405180910390a1506118d7816142b2565b905061177f565b506003825260405163712467f960e11b815285906001600160a01b0382169063e248cff290611915908d908d908d90600401614196565b600060405180830381600087803b15801561192f57600080fd5b505af1158015611943573d6000803e3d6000fd5b505050506000805160206144588339815191528c8c60038860405161196b9493929190614105565b60405180910390a160ff8c811660088d901b68ffffffffffffffff00161760008181526006602090815260408083208a845290915290205490916001911660048111156119ba576119ba613f6b565b11156119d85760405162461bcd60e51b8152600401610cbd906142cd565b6001600160481b038116600090815260066020908152604080832089845290915290208451815486929190829060ff19166001836004811115611a1d57611a1d613f6b565b021790555060208201518154604084015160609094015164ffffffffff16600160d81b026001600160d81b0360ff909516600160d01b0260ff60d01b196001600160c81b039094166101000293909316610100600160d81b031990921691909117919091179290921691909117905550505050505050505050505050565b611aa3612c92565b6000611aad612d31565b905061157081888888888888612fbc565b611ac6612cd8565b611acf81612ad8565b6002806101000a81548164ffffffffff021916908364ffffffffff16021790555050565b6001600160481b03831660009081526006602090815260408083208584529091528082208151608081019092528054611b8f929190829060ff166004811115611b3e57611b3e613f6b565b6004811115611b4f57611b4f613f6b565b8152905461010081046001600160c81b03166020830152600160d01b810460ff166040830152600160d81b900464ffffffffff1660609091015283612f16565b949350505050565b6000611bb06000805160206144788339815191526125e1565b905090565b611bbd612cd8565b611bcd611bc8612d31565b613172565b565b611bd7612cd8565b60008381526004602081905260409182902054915163789d771160e01b81526001600160a01b03858116928201929092528315156024820152911690819063789d77119060440161118a565b611c2b612cd8565b6040516307b7ed9960e01b81526001600160a01b0382811660048301528391908216906307b7ed9990602401611542565b6000828152600160205260408120611c7490836131c0565b9392505050565b611c83612cd8565b828114611cd25760405162461bcd60e51b815260206004820152601f60248201527f61646472735b5d2c20616d6f756e74735b5d3a2064696666206c656e677468006044820152606401610cbd565b60005b83811015611e6a576000858583818110611cf157611cf161427c565b9050602002016020810190611d0691906139b9565b6001600160a01b0316848484818110611d2157611d2161427c565b9050602002013560405160006040518083038185875af1925050503d8060008114611d68576040519150601f19603f3d011682016040523d82523d6000602084013e611d6d565b606091505b5050905080611dbe5760405162461bcd60e51b815260206004820152601960248201527f466565206574686572207472616e73666572206661696c6564000000000000006044820152606401610cbd565b7faaa40a232aaf133fdd28f3485f6fdd163514cfadbffa981f3610f42398efe34b6000878785818110611df357611df361427c565b9050602002016020810190611e0891906139b9565b868686818110611e1a57611e1a61427c565b90506020020135604051611e4f939291906001600160a01b039384168152919092166020820152604081019190915260600190565b60405180910390a15080611e62816142b2565b915050611cd5565b5050505050565b6000828152600160205260408120611c749083612b44565b611e91612cd8565b611e99612ddb565b611eb160008051602061447883398151915282612735565b6040516001600160a01b03821681527f10e1f7ce9fd7d1b90a66d13a2ab3cb8dd7f29f3f8d520b143b063ccfbab6906b906020016112bc565b611ef2612cd8565b6002805460ff191660ff92909216919091179055565b6040805160808101825260008082526020808301829052828401829052606083018290528682526004815283822054935192936001600160a01b031692611f579188918591899189910161413a565b60408051808303601f19018152828252805160209182012060ff8c811660088d901b68ffffffffffffffff00161760008181526006855285812084825290945292849020608086019094528354919550919392918391166004811115611fbf57611fbf613f6b565b6004811115611fd057611fd0613f6b565b8152905461010081046001600160c81b03166020830152600160d01b810460ff166040830152600160d81b900464ffffffffff166060909101529998505050505050505050565b61201f612cd8565b60405163025a3c9960e21b815282906001600160a01b03821690630968f2649061154290859060040161420c565b612055612cd8565b60008281526004602081905260409182902080546001600160a01b0319169055905163a981575160e01b81529081018390526001600160a01b03828116602483015284919082169063a98157519060440161118a565b6120b3612c2c565b6120bb612c92565b6002600b54141561210e5760405162461bcd60e51b815260206004820152601f60248201527f5265656e7472616e637947756172643a207265656e7472616e742063616c6c006044820152606401610cbd565b6002600b5560008381526004602090815260408083205490516001600160a01b039091169268ffffffffffffffff00600889901b1660ff8a161792909161215d9188918691899189910161413a565b60408051601f1981840301815282825280516020918201206001600160481b03861660009081526006835283812082825290925282822060808501909352825490945090929190829060ff1660048111156121ba576121ba613f6b565b60048111156121cb576121cb613f6b565b8152905461010081046001600160c81b0316602080840191909152600160d01b820460ff16604080850191909152600160d81b90920464ffffffffff1660609093019290925260008a815260049092529020549091506001600160a01b03166122725760405162461bcd60e51b81526020600482015260196024820152781b9bc81a185b991b195c88199bdc881c995cdbdd5c98d95251603a1b6044820152606401610cbd565b60028151600481111561228757612287613f6b565b14156122a55761229c898988888b6001610e2a565b505050506125d5565b60006122af612d31565b90506001826000015160048111156122c9576122c9613f6b565b11156122e75760405162461bcd60e51b8152600401610cbd906142cd565b6122f18282612f16565b156123365760405162461bcd60e51b81526020600482015260156024820152741c995b185e595c88185b1c9958591e481d9bdd1959605a1b6044820152606401610cbd565b60008251600481111561234b5761234b613f6b565b14156123ab576040805160808101825260018082526000602083018190528284015264ffffffffff4316606083015291519093506000805160206144588339815191529161239e918d918d918890614105565b60405180910390a161240c565b600254606083015164ffffffffff620100009092048216916123cf91439116612bea565b64ffffffffff16111561240c57600480835260405160008051602061445883398151915291612403918d918d918890614105565b60405180910390a15b60048251600481111561242157612421613f6b565b146124f15761244661243282612f39565b83602001516001600160c81b031617612f67565b6001600160c81b031660208301526040820180519061246482614292565b60ff1690525081516040517f25f8daaa4635a7729927ba3f5b3d59cc3320aca7c32c9db4e7ca7b9574343640916124a0918d918d918890614105565b60405180910390a1600254604083015160ff61010090920482169116106124f1576002808352604051600080516020614458833981519152916124e8918d918d918890614105565b60405180910390a15b6001600160481b038416600090815260066020908152604080832086845290915290208251815484929190829060ff1916600183600481111561253657612536613f6b565b021790555060208201518154604084015160609094015164ffffffffff16600160d81b026001600160d81b0360ff909516600160d01b0260ff60d01b196001600160c81b039094166101000293909316610100600160d81b03199092169190911791909117929092169190911790556002825160048111156125ba576125ba613f6b565b14156125cf576125cf8a8a89898c6000610e2a565b50505050505b50506001600b55505050565b60008181526001602052604081206112ed906131cc565b612600612cd8565b60008281526004602081905260409182902080546001600160a01b0319166001600160a01b038781169182179092559251635c7d1b9b60e11b81529182018590528316602482015284919063b8fa37369060440161118a565b612661612cd8565b60c861266b611b97565b106126b15760405162461bcd60e51b81526020600482015260166024820152751c995b185e595c9cc81b1a5b5a5d081c995858da195960521b6044820152606401610cbd565b6126c9600080516020614478833981519152826111c2565b6040516001600160a01b03821681527f03580ee9f53a62b7cb409a2cb56f9be87747dd15017afc5cef6eef321e4fb2c5906020016112bc565b61270a612cd8565b6001600160a01b03919091166000908152600560205260409020805460ff1916911515919091179055565b60008281526001602052604090206002015461275390610814612d31565b6127b85760405162461bcd60e51b815260206004820152603060248201527f416363657373436f6e74726f6c3a2073656e646572206d75737420626520616e60448201526f2061646d696e20746f207265766f6b6560801b6064820152608401610cbd565b61124e82826131d6565b6127ca612cd8565b60025460ff166000816127df81610100614235565b6127e99190614254565b60008181526004602081905260409182902080546001600160a01b0319166001600160a01b038881169182179092559251635c7d1b9b60e11b815291820184905285166024820152919250849163b8fa373690604401600060405180830381600087803b15801561285957600080fd5b505af115801561286d573d6000803e3d6000fd5b505060405163789d771160e01b81526001600160a01b038681166004830152600160248301528416925063789d7711915060440161118a565b6128ae612cd8565b60ff82166000908152600360205260409020546001600160401b039081169082161161292b5760405162461bcd60e51b815260206004820152602660248201527f446f6573206e6f7420616c6c6f772064656372656d656e7473206f6620746865604482015265206e6f6e636560d01b6064820152608401610cbd565b60ff919091166000908152600360205260409020805467ffffffffffffffff19166001600160401b03909216919091179055565b6000807fc4cb5d35714699d6e85b9562b644e60393b418d974a5c1dd8efaadac37a142c5898989898960405161299692919061426c565b6040519081900381206129d9959493929160200194855260ff9390931660208501526001600160401b039190911660408401526060830152608082015260a00190565b60405160208183030381529060405280519060200120905060006129fc82612ea4565b90506000612a408287878080601f016020809104026020016040519081016040528093929190818152602001838380828437600092019190915250612ef292505050565b9050612a5a60008051602061447883398151915282611e71565b9b9a5050505050505050505050565b612a71612cd8565b611bcd612a7c612d31565b61323f565b60006101008210612ad45760405162461bcd60e51b815260206004820152601c60248201527f76616c756520646f6573206e6f742066697420696e20382062697473000000006044820152606401610cbd565b5090565b6000650100000000008210612ad45760405162461bcd60e51b815260206004820152601d60248201527f76616c756520646f6573206e6f742066697420696e20343020626974730000006044820152606401610cbd565b6000611c74836001600160a01b03841661328a565b6001600160a01b03811660009081526001830160205260408120541515611c74565b6000612b70612d31565b9050612b7d600082611e71565b80612b9b5750612b9b60008051602061447883398151915282611e71565b612be75760405162461bcd60e51b815260206004820152601e60248201527f73656e646572206973206e6f742072656c61796572206f722061646d696e00006044820152606401610cbd565b50565b6000611c7483836040518060400160405280601e81526020017f536166654d6174683a207375627472616374696f6e206f766572666c6f7700008152506132d9565b612c46600080516020614478833981519152610814612d31565b611bcd5760405162461bcd60e51b815260206004820181905260248201527f73656e64657220646f65736e277420686176652072656c6179657220726f6c656044820152606401610cbd565b60005460ff1615611bcd5760405162461bcd60e51b815260206004820152601060248201526f14185d5cd8589b194e881c185d5cd95960821b6044820152606401610cbd565b612ce56000610814612d31565b611bcd5760405162461bcd60e51b815260206004820152601e60248201527f73656e64657220646f65736e277420686176652061646d696e20726f6c6500006044820152606401610cbd565b60003360143610801590612d5d57506001600160a01b03811660009081526005602052604090205460ff165b15612d6d575060131936013560601c5b919050565b6000828152600160205260409020612d8a9082612b2f565b1561124e57612d97612d31565b6001600160a01b0316816001600160a01b0316837f2f8788117e7eff1d82e926ec794901d17c78024a50270940304540a733656f0d60405160405180910390a45050565b60005460ff16611bcd5760405162461bcd60e51b815260206004820152601460248201527314185d5cd8589b194e881b9bdd081c185d5cd95960621b6044820152606401610cbd565b612e2c612d31565b6001600160a01b0316816001600160a01b0316146127b85760405162461bcd60e51b815260206004820152602f60248201527f416363657373436f6e74726f6c3a2063616e206f6e6c792072656e6f756e636560448201526e103937b632b9903337b91039b2b63360891b6064820152608401610cbd565b60006112ed612eb1613313565b8360405161190160f01b6020820152602281018390526042810182905260009060620160405160208183030381529060405280519060200120905092915050565b6000806000612f01858561343a565b91509150612f0e81613480565b509392505050565b60008083602001516001600160c81b0316612f3084612f39565b16119392505050565b6000612f5d612f56600080516020614478833981519152846112c7565b6001612bea565b6001901b92915050565b6000600160c81b8210612ad45760405162461bcd60e51b815260206004820152601e60248201527f76616c756520646f6573206e6f742066697420696e20323030206269747300006044820152606401610cbd565b60ff8087166000908152600a6020526040812054349216612fdf57600754612ff3565b60ff88166000908152600960205260409020545b9050612fff8183614310565b915080600860008282546130139190614254565b90915550506000878152600460205260409020546001600160a01b03168061304e576040516308c231dd60e31b815260040160405180910390fd5b60ff8916600090815260036020526040812080548290613076906001600160401b0316614327565b91906101000a8154816001600160401b0302191690836001600160401b03160217905590506000826001600160a01b031663b07e54bb868c8f8d8d6040518663ffffffff1660e01b81526004016130d0949392919061434e565b60006040518083038185885af11580156130ee573d6000803e3d6000fd5b50505050506040513d6000823e601f3d908101601f191682016040526131179190810190614383565b90508b6001600160a01b03167f17bc3181e17a9620a479c24e6c606e474ba84fc036877b768926872e8cd0e11f8c8c858d8d8760405161315c969594939291906143f0565b60405180910390a2505050505050505050505050565b61317a612c92565b6000805460ff191660011790556040516001600160a01b03821681527f62e78cea01bee320cd4e420270b5ea74000d11b0c9f74754ebdbfc544b05a258906020016112bc565b6000611c74838361363b565b60006112ed825490565b60008281526001602052604090206131ee9082613665565b1561124e576131fb612d31565b6001600160a01b0316816001600160a01b0316837ff6391f5c32d9c69d2a47ea670b442974b53935d1edc7fd64eb21e047a839171b60405160405180910390a45050565b613247612ddb565b6000805460ff191690556040516001600160a01b03821681527f5db9ee0a495bf2e6ff9c91a7834c1ba4fdd244a5e8aa4e537bd38aeae4b073aa906020016112bc565b60008181526001830160205260408120546132d1575081546001818101845560008481526020808220909301849055845484825282860190935260409020919091556112ed565b5060006112ed565b600081848411156132fd5760405162461bcd60e51b8152600401610cbd919061420c565b50600061330a8486614310565b95945050505050565b6000306001600160a01b037f00000000000000000000000000000000000000000000000000000000000000001614801561336c57507f000000000000000000000000000000000000000000000000000000000000000046145b1561339657507f000000000000000000000000000000000000000000000000000000000000000090565b50604080517f00000000000000000000000000000000000000000000000000000000000000006020808301919091527f0000000000000000000000000000000000000000000000000000000000000000828401527f000000000000000000000000000000000000000000000000000000000000000060608301524660808301523060a0808401919091528351808403909101815260c0909201909252805191012090565b6000808251604114156134715760208301516040840151606085015160001a6134658782858561367a565b94509450505050613479565b506000905060025b9250929050565b600081600481111561349457613494613f6b565b141561349d5750565b60018160048111156134b1576134b1613f6b565b14156134ff5760405162461bcd60e51b815260206004820152601860248201527f45434453413a20696e76616c6964207369676e617475726500000000000000006044820152606401610cbd565b600281600481111561351357613513613f6b565b14156135615760405162461bcd60e51b815260206004820152601f60248201527f45434453413a20696e76616c6964207369676e6174757265206c656e677468006044820152606401610cbd565b600381600481111561357557613575613f6b565b14156135ce5760405162461bcd60e51b815260206004820152602260248201527f45434453413a20696e76616c6964207369676e6174757265202773272076616c604482015261756560f01b6064820152608401610cbd565b60048160048111156135e2576135e2613f6b565b1415612be75760405162461bcd60e51b815260206004820152602260248201527f45434453413a20696e76616c6964207369676e6174757265202776272076616c604482015261756560f01b6064820152608401610cbd565b60008260000182815481106136525761365261427c565b9060005260206000200154905092915050565b6000611c74836001600160a01b038416613767565b6000807f7fffffffffffffffffffffffffffffff5d576e7357a4501ddfe92f46681b20a08311156136b1575060009050600361375e565b8460ff16601b141580156136c957508460ff16601c14155b156136da575060009050600461375e565b6040805160008082526020820180845289905260ff881692820192909252606081018690526080810185905260019060a0016020604051602081039080840390855afa15801561372e573d6000803e3d6000fd5b5050604051601f1901519150506001600160a01b0381166137575760006001925092505061375e565b9150600090505b94509492505050565b6000818152600183016020526040812054801561385057600061378b600183614310565b855490915060009061379f90600190614310565b90508181146138045760008660000182815481106137bf576137bf61427c565b90600052602060002001549050808760000184815481106137e2576137e261427c565b6000918252602080832090910192909255918252600188019052604090208390555b855486908061381557613815614441565b6001900381819060005260206000200160009055905585600101600086815260200190815260200160002060009055600193505050506112ed565b60009150506112ed565b803560ff81168114612d6d57600080fd5b80356001600160401b0381168114612d6d57600080fd5b60008060006060848603121561389757600080fd5b6138a08461385a565b92506138ae6020850161386b565b9150604084013590509250925092565b60008083601f8401126138d057600080fd5b5081356001600160401b038111156138e757600080fd5b60208301915083602082850101111561347957600080fd5b80358015158114612d6d57600080fd5b60008060008060008060a0878903121561392857600080fd5b6139318761385a565b955061393f6020880161386b565b945060408701356001600160401b0381111561395a57600080fd5b61396689828a016138be565b9095509350506060870135915061397f608088016138ff565b90509295509295509295565b60006020828403121561399d57600080fd5b5035919050565b6001600160a01b0381168114612be757600080fd5b6000602082840312156139cb57600080fd5b8135611c74816139a4565b600080604083850312156139e957600080fd5b8235915060208301356139fb816139a4565b809150509250929050565b600060208284031215613a1857600080fd5b611c748261385a565b80356001600160e01b031981168114612d6d57600080fd5b60008060008060008060c08789031215613a5257600080fd5b8635613a5d816139a4565b9550602087013594506040870135613a74816139a4565b9350613a8260608801613a21565b92506080870135915061397f60a08801613a21565b634e487b7160e01b600052604160045260246000fd5b604051601f8201601f191681016001600160401b0381118282101715613ad557613ad5613a97565b604052919050565b60006001600160401b03821115613af657613af6613a97565b50601f01601f191660200190565b600082601f830112613b1557600080fd5b8135613b28613b2382613add565b613aad565b818152846020838601011115613b3d57600080fd5b816020850160208301376000918101602001919091529392505050565b60008060408385031215613b6d57600080fd5b8235613b78816139a4565b915060208301356001600160401b03811115613b9357600080fd5b613b9f85828601613b04565b9150509250929050565b60008060408385031215613bbc57600080fd5b613bc58361385a565b946020939093013593505050565b60008060008060008060a08789031215613bec57600080fd5b613bf58761385a565b95506020613c0481890161386b565b95506040880135945060608801356001600160401b0380821115613c2757600080fd5b613c338b838c016138be565b909650945060808a0135915080821115613c4c57600080fd5b818a0191508a601f830112613c6057600080fd5b813581811115613c7257613c72613a97565b8060051b613c81858201613aad565b918252838101850191858101908e841115613c9b57600080fd5b86860192505b83831015613cd5578483351115613cb757600080fd5b613cc68f888535890101613b04565b82529186019190860190613ca1565b809750505050505050509295509295509295565b60008060008060008060808789031215613d0257600080fd5b613d0b8761385a565b95506020870135945060408701356001600160401b0380821115613d2e57600080fd5b613d3a8a838b016138be565b90965094506060890135915080821115613d5357600080fd5b50613d6089828a016138be565b979a9699509497509295939492505050565b600080600060608486031215613d8757600080fd5b83356001600160481b0381168114613d9e57600080fd5b9250602084013591506040840135613db5816139a4565b809150509250925092565b600080600060608486031215613dd557600080fd5b833592506020840135613de7816139a4565b9150613df5604085016138ff565b90509250925092565b60008060408385031215613e1157600080fd5b8235613e1c816139a4565b915060208301356139fb816139a4565b60008060408385031215613e3f57600080fd5b50508035926020909101359150565b60008083601f840112613e6057600080fd5b5081356001600160401b03811115613e7757600080fd5b6020830191508360208260051b850101111561347957600080fd5b60008060008060408587031215613ea857600080fd5b84356001600160401b0380821115613ebf57600080fd5b613ecb88838901613e4e565b90965094506020870135915080821115613ee457600080fd5b50613ef187828801613e4e565b95989497509550505050565b600080600080600060808688031215613f1557600080fd5b613f1e8661385a565b9450613f2c6020870161386b565b93506040860135925060608601356001600160401b03811115613f4e57600080fd5b613f5a888289016138be565b969995985093965092949392505050565b634e487b7160e01b600052602160045260246000fd5b60058110613f9f57634e487b7160e01b600052602160045260246000fd5b9052565b6000608082019050613fb6828451613f81565b60018060c81b03602084015116602083015260ff604084015116604083015264ffffffffff606084015116606083015292915050565b60008060006060848603121561400157600080fd5b8335613d9e816139a4565b6000806040838503121561401f57600080fd5b823561402a816139a4565b9150614038602084016138ff565b90509250929050565b6000806040838503121561405457600080fd5b61405d8361385a565b91506140386020840161386b565b600080600080600080600060a0888a03121561408657600080fd5b61408f8861385a565b965061409d6020890161386b565b95506040880135945060608801356001600160401b03808211156140c057600080fd5b6140cc8b838c016138be565b909650945060808a01359150808211156140e557600080fd5b506140f28a828b016138be565b989b979a50959850939692959293505050565b60ff851681526001600160401b03841660208201526080810161412b6040830185613f81565b82606083015295945050505050565b8481526bffffffffffffffffffffffff198460601b16602082015281836034830137600091016034019081529392505050565b81835281816020850137506000828201602090810191909152601f909101601f19169091010190565b83815260406020820152600061330a60408301848661416d565b60005b838110156141cb5781810151838201526020016141b3565b838111156141da576000848401525b50505050565b600081518084526141f88160208601602086016141b0565b601f01601f19169290920160200192915050565b602081526000611c7460208301846141e0565b634e487b7160e01b600052601160045260246000fd5b600081600019048311821515161561424f5761424f61421f565b500290565b600082198211156142675761426761421f565b500190565b8183823760009101908152919050565b634e487b7160e01b600052603260045260246000fd5b600060ff821660ff8114156142a9576142a961421f565b60010192915050565b60006000198214156142c6576142c661421f565b5060010190565b60208082526023908201527f70726f706f73616c20616c72656164792065786563757465642f63616e63656c6040820152621b195960ea1b606082015260800190565b6000828210156143225761432261421f565b500390565b60006001600160401b03808316818114156143445761434461421f565b6001019392505050565b8481526001600160a01b0384166020820152606060408201819052600090614379908301848661416d565b9695505050505050565b60006020828403121561439557600080fd5b81516001600160401b038111156143ab57600080fd5b8201601f810184136143bc57600080fd5b80516143ca613b2382613add565b8181528560208385010111156143df57600080fd5b61330a8260208301602086016141b0565b60ff871681528560208201526001600160401b038516604082015260a06060820152600061442260a08301858761416d565b828103608084015261443481856141e0565b9998505050505050505050565b634e487b7160e01b600052603160045260246000fdfe968626a768e76ba1363efe44e322a6c4900c5f084e0b45f35e294dfddaa9e0d5e2b7fb3b832174769106daebcfd6d1970523240dda11281102db9363b83b0dc4a2646970667358221220eaa13abdf72b7b6fda950737149b9579375b3ef603de8fca781e5e17b7da92fa64736f6c634300080b0033",
  "linkReferences": {},
  "deployedLinkReferences": {}
}