{
  "_format": "hh-sol-artifact-1",
  "contractName": "Bridge",
  "sourceName": "contracts/Bridge.sol",
  "abi": [
    {
      "inputs": [
        {
          "internalType": "uint8",
          "name": "domainID",
          "type": "uint8"
        },
        {
          "internalType": "address[]",
          "name": "initialRelayers",
          "type": "address[]"
        },
        {
          "internalType": "uint256",
          "name": "initialRelayerThreshold",
          "type": "uint256"
        },
        {
          "internalType": "uint256",
          "name": "expiry",
          "type": "uint256"
        }
      ],
      "stateMutability": "nonpayable",
      "type": "constructor"
    },
    {
      "inputs": [
        {
          "internalType": "uint256",
          "name": "msgValue",
          "type": "uint256"
        },
        {
          "internalType": "uint256",
          "name": "fee",
          "type": "uint256"
        }
      ],
      "name": "IncorrectFeeSupplied",
      "type": "error"
    },
    {
      "inputs": [
        {
          "internalType": "address",
          "name": "signer",
          "type": "address"
        },
        {
          "internalType": "uint256",
          "name": "index",
          "type": "uint256"
        }
      ],
      "name": "InvalidSignature",
      "type": "error"
    },
    {
      "inputs": [],
      "name": "ResourceIDNotMappedToHandler",
      "type": "error"
    },
    {
      "anonymous": false,
      "inputs": [
        {
          "indexed": false,
          "internalType": "uint8",
          "name": "destinationDomainID",
          "type": "uint8"
        },
        {
          "indexed": false,
          "internalType": "bytes32",
          "name": "resourceID",
          "type": "bytes32"
        },
        {
          "indexed": false,
          "internalType": "uint64",
          "name": "depositNonce",
          "type": "uint64"
        },
        {
          "indexed": true,
          "internalType": "address",
          "name": "user",
          "type": "address"
        },
        {
          "indexed": false,
          "internalType": "bytes",
          "name": "data",
          "type": "bytes"
        },
        {
          "indexed": false,
          "internalType": "bytes",
          "name": "handlerResponse",
          "type": "bytes"
        }
      ],
      "name": "Deposit",
      "type": "event"
    },
    {
      "anonymous": false,
      "inputs": [
        {
          "indexed": false,
          "internalType": "bytes",
          "name": "lowLevelData",
          "type": "bytes"
        }
      ],
      "name": "FailedHandlerExecution",
      "type": "event"
    },
    {
      "anonymous": false,
      "inputs": [
        {
          "indexed": false,
          "internalType": "uint256",
          "name": "newFee",
          "type": "uint256"
        }
      ],
      "name": "FeeChanged",
      "type": "event"
    },
    {
      "anonymous": false,
      "inputs": [
        {
          "indexed": false,
          "internalType": "address",
          "name": "tokenAddress",
          "type": "address"
        },
        {
          "indexed": false,
          "internalType": "address",
          "name": "recipient",
          "type": "address"
        },
        {
          "indexed": false,
          "internalType": "uint256",
          "name": "amount",
          "type": "uint256"
        }
      ],
      "name": "FeeDistributed",
      "type": "event"
    },
    {
      "anonymous": false,
      "inputs": [
        {
          "indexed": false,
          "internalType": "address",
          "name": "newFeeHandler",
          "type": "address"
        }
      ],
      "name": "FeeHandlerChanged",
      "type": "event"
    },
    {
      "anonymous": false,
      "inputs": [
        {
          "indexed": false,
          "internalType": "address",
          "name": "account",
          "type": "address"
        }
      ],
      "name": "Paused",
      "type": "event"
    },
    {
      "anonymous": false,
      "inputs": [
        {
          "indexed": false,
          "internalType": "uint8",
          "name": "originDomainID",
          "type": "uint8"
        },
        {
          "indexed": false,
          "internalType": "uint64",
          "name": "depositNonce",
          "type": "uint64"
        },
        {
          "indexed": false,
          "internalType": "enum IBridge.ProposalStatus",
          "name": "status",
          "type": "uint8"
        },
        {
          "indexed": false,
          "internalType": "bytes32",
          "name": "dataHash",
          "type": "bytes32"
        }
      ],
      "name": "ProposalEvent",
      "type": "event"
    },
    {
      "anonymous": false,
      "inputs": [
        {
          "indexed": false,
          "internalType": "uint8",
          "name": "originDomainID",
          "type": "uint8"
        },
        {
          "indexed": false,
          "internalType": "uint64",
          "name": "depositNonce",
          "type": "uint64"
        },
        {
          "indexed": false,
          "internalType": "enum IBridge.ProposalStatus",
          "name": "status",
          "type": "uint8"
        },
        {
          "indexed": false,
          "internalType": "bytes32",
          "name": "dataHash",
          "type": "bytes32"
        }
      ],
      "name": "ProposalVote",
      "type": "event"
    },
    {
      "anonymous": false,
      "inputs": [
        {
          "indexed": false,
          "internalType": "address",
          "name": "relayer",
          "type": "address"
        }
      ],
      "name": "RelayerAdded",
      "type": "event"
    },
    {
      "anonymous": false,
      "inputs": [
        {
          "indexed": false,
          "internalType": "address",
          "name": "relayer",
          "type": "address"
        }
      ],
      "name": "RelayerRemoved",
      "type": "event"
    },
    {
      "anonymous": false,
      "inputs": [
        {
          "indexed": false,
          "internalType": "uint256",
          "name": "newThreshold",
          "type": "uint256"
        }
      ],
      "name": "RelayerThresholdChanged",
      "type": "event"
    },
    {
      "anonymous": false,
      "inputs": [
        {
          "indexed": true,
          "internalType": "bytes32",
          "name": "role",
          "type": "bytes32"
        },
        {
          "indexed": true,
          "internalType": "address",
          "name": "account",
          "type": "address"
        },
        {
          "indexed": true,
          "internalType": "address",
          "name": "sender",
          "type": "address"
        }
      ],
      "name": "RoleGranted",
      "type": "event"
    },
    {
      "anonymous": false,
      "inputs": [
        {
          "indexed": true,
          "internalType": "bytes32",
          "name": "role",
          "type": "bytes32"
        },
        {
          "indexed": true,
          "internalType": "address",
          "name": "account",
          "type": "address"
        },
        {
          "indexed": true,
          "internalType": "address",
          "name": "sender",
          "type": "address"
        }
      ],
      "name": "RoleRevoked",
      "type": "event"
    },
    {
      "anonymous": false,
      "inputs": [
        {
          "indexed": false,
          "internalType": "address",
          "name": "account",
          "type": "address"
        }
      ],
      "name": "Unpaused",
      "type": "event"
    },
    {
      "inputs": [],
      "name": "DEFAULT_ADMIN_ROLE",
      "outputs": [
        {
          "internalType": "bytes32",
          "name": "",
          "type": "bytes32"
        }
      ],
      "stateMutability": "view",
      "type": "function"
    },
    {
      "inputs": [],
      "name": "MAX_RELAYERS",
      "outputs": [
        {
          "internalType": "uint256",
          "name": "",
          "type": "uint256"
        }
      ],
      "stateMutability": "view",
      "type": "function"
    },
    {
      "inputs": [],
      "name": "PERMIT_TYPEHASH",
      "outputs": [
        {
          "internalType": "bytes32",
          "name": "",
          "type": "bytes32"
        }
      ],
      "stateMutability": "view",
      "type": "function"
    },
    {
      "inputs": [],
      "name": "RELAYER_ROLE",
      "outputs": [
        {
          "internalType": "bytes32",
          "name": "",
          "type": "bytes32"
        }
      ],
      "stateMutability": "view",
      "type": "function"
    },
    {
      "inputs": [],
      "name": "_chainId",
      "outputs": [
        {
          "internalType": "uint256",
          "name": "",
          "type": "uint256"
        }
      ],
      "stateMutability": "view",
      "type": "function"
    },
    {
      "inputs": [
        {
          "internalType": "uint8",
          "name": "",
          "type": "uint8"
        }
      ],
      "name": "_depositCounts",
      "outputs": [
        {
          "internalType": "uint64",
          "name": "",
          "type": "uint64"
        }
      ],
      "stateMutability": "view",
      "type": "function"
    },
    {
      "inputs": [],
      "name": "_domainID",
      "outputs": [
        {
          "internalType": "uint8",
          "name": "",
          "type": "uint8"
        }
      ],
      "stateMutability": "view",
      "type": "function"
    },
    {
      "inputs": [],
      "name": "_expiry",
      "outputs": [
        {
          "internalType": "uint40",
          "name": "",
          "type": "uint40"
        }
      ],
      "stateMutability": "view",
      "type": "function"
    },
    {
      "inputs": [],
      "name": "_fee",
      "outputs": [
        {
          "internalType": "uint256",
          "name": "",
          "type": "uint256"
        }
      ],
      "stateMutability": "view",
      "type": "function"
    },
    {
      "inputs": [],
      "name": "_feeHandler",
      "outputs": [
        {
          "internalType": "contract IFeeHandler",
          "name": "",
          "type": "address"
        }
      ],
      "stateMutability": "view",
      "type": "function"
    },
    {
      "inputs": [],
      "name": "_feeReserve",
      "outputs": [
        {
          "internalType": "uint256",
          "name": "",
          "type": "uint256"
        }
      ],
      "stateMutability": "view",
      "type": "function"
    },
    {
      "inputs": [],
      "name": "_fee_",
      "outputs": [
        {
          "internalType": "uint256",
          "name": "",
          "type": "uint256"
        }
      ],
      "stateMutability": "view",
      "type": "function"
    },
    {
      "inputs": [
        {
          "internalType": "uint72",
          "name": "destNonce",
          "type": "uint72"
        },
        {
          "internalType": "bytes32",
          "name": "dataHash",
          "type": "bytes32"
        },
        {
          "internalType": "address",
          "name": "relayer",
          "type": "address"
        }
      ],
      "name": "_hasVotedOnProposal",
      "outputs": [
        {
          "internalType": "bool",
          "name": "",
          "type": "bool"
        }
      ],
      "stateMutability": "view",
      "type": "function"
    },
    {
      "inputs": [],
      "name": "_relayerThreshold",
      "outputs": [
        {
          "internalType": "uint8",
          "name": "",
          "type": "uint8"
        }
      ],
      "stateMutability": "view",
      "type": "function"
    },
    {
      "inputs": [
        {
          "internalType": "bytes32",
          "name": "",
          "type": "bytes32"
        }
      ],
      "name": "_resourceIDToHandlerAddress",
      "outputs": [
        {
          "internalType": "address",
          "name": "",
          "type": "address"
        }
      ],
      "stateMutability": "view",
      "type": "function"
    },
    {
      "inputs": [],
      "name": "_totalRelayers",
      "outputs": [
        {
          "internalType": "uint256",
          "name": "",
          "type": "uint256"
        }
      ],
      "stateMutability": "view",
      "type": "function"
    },
    {
      "inputs": [
        {
          "internalType": "address",
          "name": "relayerAddress",
          "type": "address"
        }
      ],
      "name": "adminAddRelayer",
      "outputs": [],
      "stateMutability": "nonpayable",
      "type": "function"
    },
    {
      "inputs": [
        {
          "internalType": "uint256",
          "name": "expiry",
          "type": "uint256"
        }
      ],
      "name": "adminChangeExpiry",
      "outputs": [],
      "stateMutability": "nonpayable",
      "type": "function"
    },
    {
      "inputs": [
        {
          "internalType": "uint256",
          "name": "newThreshold",
          "type": "uint256"
        }
      ],
      "name": "adminChangeRelayerThreshold",
      "outputs": [],
      "stateMutability": "nonpayable",
      "type": "function"
    },
    {
      "inputs": [],
      "name": "adminPauseTransfers",
      "outputs": [],
      "stateMutability": "nonpayable",
      "type": "function"
    },
    {
      "inputs": [
        {
          "internalType": "address",
          "name": "handlerAddress",
          "type": "address"
        },
        {
          "internalType": "bytes32",
          "name": "resourceID",
          "type": "bytes32"
        },
        {
          "internalType": "address",
          "name": "contractAddress",
          "type": "address"
        }
      ],
      "name": "adminRemoveGenericResource",
      "outputs": [],
      "stateMutability": "nonpayable",
      "type": "function"
    },
    {
      "inputs": [
        {
          "internalType": "address",
          "name": "handlerAddress",
          "type": "address"
        }
      ],
      "name": "adminRemoveNativeResourceId",
      "outputs": [],
      "stateMutability": "nonpayable",
      "type": "function"
    },
    {
      "inputs": [
        {
          "internalType": "address",
          "name": "relayerAddress",
          "type": "address"
        }
      ],
      "name": "adminRemoveRelayer",
      "outputs": [],
      "stateMutability": "nonpayable",
      "type": "function"
    },
    {
      "inputs": [
        {
          "internalType": "address",
          "name": "handlerAddress",
          "type": "address"
        },
        {
          "internalType": "bytes32",
          "name": "resourceID",
          "type": "bytes32"
        },
        {
          "internalType": "address",
          "name": "tokenAddress",
          "type": "address"
        }
      ],
      "name": "adminRemoveResourceId",
      "outputs": [],
      "stateMutability": "nonpayable",
      "type": "function"
    },
    {
      "inputs": [
        {
          "internalType": "uint8",
          "name": "destinationDomainID",
          "type": "uint8"
        }
      ],
      "name": "adminRemoveSpecialFee",
      "outputs": [],
      "stateMutability": "nonpayable",
      "type": "function"
    },
    {
      "inputs": [
        {
          "internalType": "address",
          "name": "handlerAddress",
          "type": "address"
        },
        {
          "internalType": "address",
          "name": "tokenAddress",
          "type": "address"
        }
      ],
      "name": "adminSetBurnable",
      "outputs": [],
      "stateMutability": "nonpayable",
      "type": "function"
    },
    {
      "inputs": [
        {
          "internalType": "uint8",
          "name": "domainID",
          "type": "uint8"
        },
        {
          "internalType": "uint64",
          "name": "nonce",
          "type": "uint64"
        }
      ],
      "name": "adminSetDepositNonce",
      "outputs": [],
      "stateMutability": "nonpayable",
      "type": "function"
    },
    {
      "inputs": [
        {
          "internalType": "uint8",
          "name": "domainID",
          "type": "uint8"
        }
      ],
      "name": "adminSetDomainId",
      "outputs": [],
      "stateMutability": "nonpayable",
      "type": "function"
    },
    {
      "inputs": [
        {
          "internalType": "uint256",
          "name": "newFee",
          "type": "uint256"
        }
      ],
      "name": "adminSetFee",
      "outputs": [],
      "stateMutability": "nonpayable",
      "type": "function"
    },
    {
      "inputs": [
        {
          "internalType": "address",
          "name": "forwarder",
          "type": "address"
        },
        {
          "internalType": "bool",
          "name": "valid",
          "type": "bool"
        }
      ],
      "name": "adminSetForwarder",
      "outputs": [],
      "stateMutability": "nonpayable",
      "type": "function"
    },
    {
      "inputs": [
        {
          "internalType": "address",
          "name": "handlerAddress",
          "type": "address"
        },
        {
          "internalType": "bytes32",
          "name": "resourceID",
          "type": "bytes32"
        },
        {
          "internalType": "address",
          "name": "contractAddress",
          "type": "address"
        },
        {
          "internalType": "bytes4",
          "name": "depositFunctionSig",
          "type": "bytes4"
        },
        {
          "internalType": "uint256",
          "name": "depositFunctionDepositorOffset",
          "type": "uint256"
        },
        {
          "internalType": "bytes4",
          "name": "executeFunctionSig",
          "type": "bytes4"
        }
      ],
      "name": "adminSetGenericResource",
      "outputs": [],
      "stateMutability": "nonpayable",
      "type": "function"
    },
    {
      "inputs": [
        {
          "internalType": "bytes32",
          "name": "resourceID",
          "type": "bytes32"
        },
        {
          "internalType": "address",
          "name": "nativeAddress",
          "type": "address"
        },
        {
          "internalType": "bool",
          "name": "isNative",
          "type": "bool"
        }
      ],
      "name": "adminSetNative",
      "outputs": [],
      "stateMutability": "nonpayable",
      "type": "function"
    },
    {
      "inputs": [
        {
          "internalType": "address",
          "name": "handlerAddress",
          "type": "address"
        }
      ],
      "name": "adminSetNativeResource",
      "outputs": [],
      "stateMutability": "nonpayable",
      "type": "function"
    },
    {
      "inputs": [
        {
          "internalType": "address",
          "name": "handlerAddress",
          "type": "address"
        },
        {
          "internalType": "bytes32",
          "name": "resourceID",
          "type": "bytes32"
        },
        {
          "internalType": "address",
          "name": "tokenAddress",
          "type": "address"
        }
      ],
      "name": "adminSetResource",
      "outputs": [],
      "stateMutability": "nonpayable",
      "type": "function"
    },
    {
      "inputs": [
        {
          "internalType": "uint8",
          "name": "destinationDomainID",
          "type": "uint8"
        },
        {
          "internalType": "uint256",
          "name": "_specialFee",
          "type": "uint256"
        }
      ],
      "name": "adminSetSpecialFee",
      "outputs": [],
      "stateMutability": "nonpayable",
      "type": "function"
    },
    {
      "inputs": [],
      "name": "adminUnpauseTransfers",
      "outputs": [],
      "stateMutability": "nonpayable",
      "type": "function"
    },
    {
      "inputs": [
        {
          "internalType": "address",
          "name": "handlerAddress",
          "type": "address"
        },
        {
          "internalType": "bytes",
          "name": "data",
          "type": "bytes"
        }
      ],
      "name": "adminWithdraw",
      "outputs": [],
      "stateMutability": "nonpayable",
      "type": "function"
    },
    {
      "inputs": [
        {
          "internalType": "address",
          "name": "handlerAddress",
          "type": "address"
        },
        {
          "internalType": "bytes",
          "name": "data",
          "type": "bytes"
        }
      ],
      "name": "adminWithdrawETH",
      "outputs": [],
      "stateMutability": "nonpayable",
      "type": "function"
    },
    {
      "inputs": [
        {
          "internalType": "uint8",
          "name": "domainID",
          "type": "uint8"
        },
        {
          "internalType": "uint64",
          "name": "depositNonce",
          "type": "uint64"
        },
        {
          "internalType": "bytes32",
          "name": "dataHash",
          "type": "bytes32"
        }
      ],
      "name": "cancelProposal",
      "outputs": [],
      "stateMutability": "nonpayable",
      "type": "function"
    },
    {
      "inputs": [
        {
          "internalType": "uint8",
          "name": "domainID",
          "type": "uint8"
        },
        {
          "internalType": "uint64",
          "name": "depositNonce",
          "type": "uint64"
        },
        {
          "internalType": "bytes32",
          "name": "resourceID",
          "type": "bytes32"
        },
        {
          "internalType": "bytes",
          "name": "data",
          "type": "bytes"
        },
        {
          "internalType": "bytes",
          "name": "signature",
          "type": "bytes"
        }
      ],
      "name": "checkSignature",
      "outputs": [
        {
          "internalType": "bool",
          "name": "",
          "type": "bool"
        }
      ],
      "stateMutability": "view",
      "type": "function"
    },
    {
      "inputs": [
        {
          "internalType": "uint8",
          "name": "destinationDomainID",
          "type": "uint8"
        },
        {
          "internalType": "bytes32",
          "name": "resourceID",
          "type": "bytes32"
        },
        {
          "internalType": "bytes",
          "name": "depositData",
          "type": "bytes"
        },
        {
          "internalType": "bytes",
          "name": "feeData",
          "type": "bytes"
        }
      ],
      "name": "deposit",
      "outputs": [],
      "stateMutability": "payable",
      "type": "function"
    },
    {
      "inputs": [
        {
          "internalType": "uint8",
          "name": "domainID",
          "type": "uint8"
        },
        {
          "internalType": "uint64",
          "name": "depositNonce",
          "type": "uint64"
        },
        {
          "internalType": "bytes",
          "name": "data",
          "type": "bytes"
        },
        {
          "internalType": "bytes32",
          "name": "resourceID",
          "type": "bytes32"
        },
        {
          "internalType": "bool",
          "name": "revertOnFail",
          "type": "bool"
        }
      ],
      "name": "executeProposal",
      "outputs": [],
      "stateMutability": "nonpayable",
      "type": "function"
    },
    {
      "inputs": [
        {
          "internalType": "uint8",
          "name": "destinationDomainID",
          "type": "uint8"
        }
      ],
      "name": "getFee",
      "outputs": [
        {
          "internalType": "uint256",
          "name": "",
          "type": "uint256"
        }
      ],
      "stateMutability": "view",
      "type": "function"
    },
    {
      "inputs": [
        {
          "internalType": "uint8",
          "name": "originDomainID",
          "type": "uint8"
        },
        {
          "internalType": "uint64",
          "name": "depositNonce",
          "type": "uint64"
        },
        {
          "internalType": "bytes32",
          "name": "resourceID",
          "type": "bytes32"
        },
        {
          "internalType": "bytes",
          "name": "data",
          "type": "bytes"
        }
      ],
      "name": "getProposal",
      "outputs": [
        {
          "components": [
            {
              "internalType": "enum IBridge.ProposalStatus",
              "name": "_status",
              "type": "uint8"
            },
            {
              "internalType": "uint200",
              "name": "_yesVotes",
              "type": "uint200"
            },
            {
              "internalType": "uint8",
              "name": "_yesVotesTotal",
              "type": "uint8"
            },
            {
              "internalType": "uint40",
              "name": "_proposedBlock",
              "type": "uint40"
            }
          ],
          "internalType": "struct IBridge.Proposal",
          "name": "",
          "type": "tuple"
        }
      ],
      "stateMutability": "view",
      "type": "function"
    },
    {
      "inputs": [
        {
          "internalType": "bytes32",
          "name": "role",
          "type": "bytes32"
        }
      ],
      "name": "getRoleAdmin",
      "outputs": [
        {
          "internalType": "bytes32",
          "name": "",
          "type": "bytes32"
        }
      ],
      "stateMutability": "view",
      "type": "function"
    },
    {
      "inputs": [
        {
          "internalType": "bytes32",
          "name": "role",
          "type": "bytes32"
        },
        {
          "internalType": "uint256",
          "name": "index",
          "type": "uint256"
        }
      ],
      "name": "getRoleMember",
      "outputs": [
        {
          "internalType": "address",
          "name": "",
          "type": "address"
        }
      ],
      "stateMutability": "view",
      "type": "function"
    },
    {
      "inputs": [
        {
          "internalType": "bytes32",
          "name": "role",
          "type": "bytes32"
        }
      ],
      "name": "getRoleMemberCount",
      "outputs": [
        {
          "internalType": "uint256",
          "name": "",
          "type": "uint256"
        }
      ],
      "stateMutability": "view",
      "type": "function"
    },
    {
      "inputs": [
        {
          "internalType": "bytes32",
          "name": "role",
          "type": "bytes32"
        },
        {
          "internalType": "address",
          "name": "account",
          "type": "address"
        }
      ],
      "name": "getRoleMemberIndex",
      "outputs": [
        {
          "internalType": "uint256",
          "name": "",
          "type": "uint256"
        }
      ],
      "stateMutability": "view",
      "type": "function"
    },
    {
      "inputs": [
        {
          "internalType": "bytes32",
          "name": "role",
          "type": "bytes32"
        },
        {
          "internalType": "address",
          "name": "account",
          "type": "address"
        }
      ],
      "name": "grantRole",
      "outputs": [],
      "stateMutability": "nonpayable",
      "type": "function"
    },
    {
      "inputs": [
        {
          "internalType": "bytes32",
          "name": "role",
          "type": "bytes32"
        },
        {
          "internalType": "address",
          "name": "account",
          "type": "address"
        }
      ],
      "name": "hasRole",
      "outputs": [
        {
          "internalType": "bool",
          "name": "",
          "type": "bool"
        }
      ],
      "stateMutability": "view",
      "type": "function"
    },
    {
      "inputs": [
        {
          "internalType": "address",
          "name": "relayer",
          "type": "address"
        }
      ],
      "name": "isRelayer",
      "outputs": [
        {
          "internalType": "bool",
          "name": "",
          "type": "bool"
        }
      ],
      "stateMutability": "view",
      "type": "function"
    },
    {
      "inputs": [
        {
          "internalType": "address",
          "name": "",
          "type": "address"
        }
      ],
      "name": "isValidForwarder",
      "outputs": [
        {
          "internalType": "bool",
          "name": "",
          "type": "bool"
        }
      ],
      "stateMutability": "view",
      "type": "function"
    },
    {
      "inputs": [],
      "name": "paused",
      "outputs": [
        {
          "internalType": "bool",
          "name": "",
          "type": "bool"
        }
      ],
      "stateMutability": "view",
      "type": "function"
    },
    {
      "inputs": [
        {
          "internalType": "address",
          "name": "newAdmin",
          "type": "address"
        }
      ],
      "name": "renounceAdmin",
      "outputs": [],
      "stateMutability": "nonpayable",
      "type": "function"
    },
    {
      "inputs": [
        {
          "internalType": "bytes32",
          "name": "role",
          "type": "bytes32"
        },
        {
          "internalType": "address",
          "name": "account",
          "type": "address"
        }
      ],
      "name": "renounceRole",
      "outputs": [],
      "stateMutability": "nonpayable",
      "type": "function"
    },
    {
      "inputs": [
        {
          "internalType": "bytes32",
          "name": "role",
          "type": "bytes32"
        },
        {
          "internalType": "address",
          "name": "account",
          "type": "address"
        }
      ],
      "name": "revokeRole",
      "outputs": [],
      "stateMutability": "nonpayable",
      "type": "function"
    },
    {
      "inputs": [
        {
          "internalType": "uint8",
          "name": "",
          "type": "uint8"
        }
      ],
      "name": "special",
      "outputs": [
        {
          "internalType": "bool",
          "name": "",
          "type": "bool"
        }
      ],
      "stateMutability": "view",
      "type": "function"
    },
    {
      "inputs": [
        {
          "internalType": "uint8",
          "name": "",
          "type": "uint8"
        }
      ],
      "name": "specialFee",
      "outputs": [
        {
          "internalType": "uint256",
          "name": "",
          "type": "uint256"
        }
      ],
      "stateMutability": "view",
      "type": "function"
    },
    {
      "inputs": [
        {
          "internalType": "address payable[]",
          "name": "addrs",
          "type": "address[]"
        },
        {
          "internalType": "uint256[]",
          "name": "amounts",
          "type": "uint256[]"
        }
      ],
      "name": "transferFee",
      "outputs": [],
      "stateMutability": "nonpayable",
      "type": "function"
    },
    {
      "inputs": [
        {
          "internalType": "uint8",
          "name": "domainID",
          "type": "uint8"
        },
        {
          "internalType": "uint64",
          "name": "depositNonce",
          "type": "uint64"
        },
        {
          "internalType": "bytes32",
          "name": "resourceID",
          "type": "bytes32"
        },
        {
          "internalType": "bytes",
          "name": "data",
          "type": "bytes"
        }
      ],
      "name": "voteProposal",
      "outputs": [],
      "stateMutability": "nonpayable",
      "type": "function"
    },
    {
      "inputs": [
        {
          "internalType": "uint8",
          "name": "domainID",
          "type": "uint8"
        },
        {
          "internalType": "uint64",
          "name": "depositNonce",
          "type": "uint64"
        },
        {
          "internalType": "bytes32",
          "name": "resourceID",
          "type": "bytes32"
        },
        {
          "internalType": "bytes",
          "name": "data",
          "type": "bytes"
        },
        {
          "internalType": "bytes[]",
          "name": "signatures",
          "type": "bytes[]"
        }
      ],
      "name": "voteProposals",
      "outputs": [],
      "stateMutability": "nonpayable",
      "type": "function"
    }
  ],
  "bytecode": "0x6101406040523480156200001257600080fd5b5060405162004bbf38038062004bbf833981016040819052620000359162000541565b604080518082018252600c81526b5065726d697442726964676560a01b6020808301918252835180850190945260038452620312e360ec1b908401528151902060e08190527fe6bbd6277e1bf288eed5e8d1780f9a50b239e86b153736bceebccf4ea79d90b36101008190524660a0529192917f8b73c3c69bb8fe3d512ecc4cf759cc79239f7b179b0ffacaa9a75d522b39400f620001198184846040805160208101859052908101839052606081018290524660808201523060a082015260009060c0016040516020818303038152906040528051906020012090509392505050565b6080523060c0526101205250506000805460ff199081169091556002805490911660ff8816179055506200015b90508262000247602090811b62002a7317901c565b600260016101000a81548160ff021916908360ff1602179055506200018b81620002a460201b62002aca1760201c565b6002805464ffffffffff92909216620100000266ffffffffff000019909216919091179055620001c66000620001c0620002fd565b62000340565b60005b83518110156200023657620002217fe2b7fb3b832174769106daebcfd6d1970523240dda11281102db9363b83b0dc48583815181106200020d576200020d6200063f565b60200260200101516200035060201b60201c565b806200022d8162000655565b915050620001c9565b50506001600b55506200067f915050565b60006101008210620002a05760405162461bcd60e51b815260206004820152601c60248201527f76616c756520646f6573206e6f742066697420696e203820626974730000000060448201526064015b60405180910390fd5b5090565b6000650100000000008210620002a05760405162461bcd60e51b815260206004820152601d60248201527f76616c756520646f6573206e6f742066697420696e2034302062697473000000604482015260640162000297565b600033601436108015906200032a57506001600160a01b03811660009081526005602052604090205460ff165b156200033b575060131936013560601c5b919050565b6200034c8282620003dd565b5050565b600082815260016020526040902060020154620003779062000371620002fd565b62000458565b620003405760405162461bcd60e51b815260206004820152602f60248201527f416363657373436f6e74726f6c3a2073656e646572206d75737420626520616e60448201526e0818591b5a5b881d1bc819dc985b9d608a1b606482015260840162000297565b60008281526001602090815260409091206200040491839062002b2162000487821b17901c565b156200034c5762000414620002fd565b6001600160a01b0316816001600160a01b0316837f2f8788117e7eff1d82e926ec794901d17c78024a50270940304540a733656f0d60405160405180910390a45050565b600082815260016020908152604082206200047e91849062002b366200049e821b17901c565b90505b92915050565b60006200047e836001600160a01b038416620004c1565b6001600160a01b038116600090815260018301602052604081205415156200047e565b60008181526001830160205260408120546200050a5750815460018181018455600084815260208082209093018490558454848252828601909352604090209190915562000481565b50600062000481565b634e487b7160e01b600052604160045260246000fd5b80516001600160a01b03811681146200033b57600080fd5b600080600080608085870312156200055857600080fd5b845160ff811681146200056a57600080fd5b602086810151919550906001600160401b03808211156200058a57600080fd5b818801915088601f8301126200059f57600080fd5b815181811115620005b457620005b462000513565b8060051b604051601f19603f83011681018181108582111715620005dc57620005dc62000513565b60405291825284820192508381018501918b831115620005fb57600080fd5b938501935b828510156200062457620006148562000529565b8452938501939285019262000600565b60408b01516060909b0151999c909b50975050505050505050565b634e487b7160e01b600052603260045260246000fd5b60006000198214156200067857634e487b7160e01b600052601160045260246000fd5b5060010190565b60805160a05160c05160e05161010051610120516144f0620006cf60003960006133c00152600061340f015260006133ea015260006133430152600061336d0152600061339701526144f06000f3fe6080604052600436106103a25760003560e01c80639010d07c116101e7578063c5b37c221161010d578063e2469d40116100a0578063fe4648f41161006f578063fe4648f414610b86578063fe65c4be14610bb1578063fe6718a6146109b2578063ffaac0eb14610bd157600080fd5b8063e2469d4014610b00578063e7b14b5a14610b20578063edc20c3c14610b36578063f8c39e4414610b5657600080fd5b8063cdb0f73a116100dc578063cdb0f73a14610a81578063d15ef64e14610aa1578063d547741f14610ac1578063d7a9cd7914610ae157600080fd5b8063c5b37c22146109f2578063c5ec897014610a07578063ca15c87314610a41578063cb10f21514610a6157600080fd5b80639debb3bd11610185578063b67a4aaf11610154578063b67a4aaf14610965578063bd2a182014610992578063bea916f2146109b2578063c0331b3e146109d257600080fd5b80639debb3bd146108ee578063a06fbbff14610903578063a217fddf14610923578063a5c621f21461093857600080fd5b8063926d7d7f116101c1578063926d7d7f1461086a57806393cbe7831461088c5780639d82dd63146108a25780639dd694f4146108c257600080fd5b80639010d07c1461080a578063904e9b2b1461082a57806391d148541461084a57600080fd5b80635c975abb116102cc578063747734121161026a57806380ae1c281161023957806380ae1c281461076757806384db809f1461077c57806388b73be0146107ca5780638c0c2631146107ea57600080fd5b806374773412146106ff5780637d026d96146107125780637febe63f14610732578063802aabe81461075257600080fd5b80636d3b6eea116102a65780636d3b6eea1461068c5780636e2047bc146106ac5780637292dd91146106cc57806373c45c98146106ec57600080fd5b80635c975abb146106245780635e1fab0f1461063c57806362abd9ce1461065c57600080fd5b806336568abe116103445780634e37850a116103135780634e37850a146105945780634f2c0aec146105b4578063541d5548146105d45780635a1ad87c1461060457600080fd5b806336568abe146104c05780634b0b919d146104e05780634e0560051461052e5780634e0df3f61461054e57600080fd5b8063248a9ca311610380578063248a9ca31461041c5780632edb6f7c1461044c5780632f2ff15d1461046c57806330adf81f1461048c57600080fd5b8063083132c4146103a757806317f03ce5146103da578063206a98fd146103fc575b600080fd5b3480156103b357600080fd5b506103c76103c236600461388e565b610be6565b6040519081526020015b60405180910390f35b3480156103e657600080fd5b506103fa6103f53660046138c0565b610bf7565b005b34801561040857600080fd5b506103fa61041736600461394d565b610e8c565b34801561042857600080fd5b506103c76104373660046139c9565b60009081526001602052604090206002015490565b34801561045857600080fd5b506103fa6104673660046139f7565b611171565b34801561047857600080fd5b506103fa610487366004613a14565b611224565b34801561049857600080fd5b506103c77fc4cb5d35714699d6e85b9562b644e60393b418d974a5c1dd8efaadac37a142c581565b3480156104cc57600080fd5b506103fa6104db366004613a14565b6112b4565b3480156104ec57600080fd5b506105166104fb36600461388e565b6003602052600090815260409020546001600160401b031681565b6040516001600160401b0390911681526020016103d1565b34801561053a57600080fd5b506103fa6105493660046139c9565b6112c6565b34801561055a57600080fd5b506103c7610569366004613a14565b60008281526001602081815260408084206001600160a01b0386168552909201905290205492915050565b3480156105a057600080fd5b506103fa6105af36600461388e565b611329565b3480156105c057600080fd5b506103fa6105cf3660046139c9565b611357565b3480156105e057600080fd5b506105f46105ef3660046139f7565b6113e6565b60405190151581526020016103d1565b34801561061057600080fd5b506103fa61061f366004613a5c565b611400565b34801561063057600080fd5b5060005460ff166105f4565b34801561064857600080fd5b506103fa6106573660046139f7565b6114b6565b34801561066857600080fd5b506105f461067736600461388e565b600a6020526000908152604090205460ff1681565b34801561069857600080fd5b506103fa6106a7366004613b7d565b611542565b3480156106b857600080fd5b506103fa6106c7366004613bcc565b6115af565b3480156106d857600080fd5b506103fa6106e7366004613bf6565b6115e2565b6103fa6106fa366004613d0c565b611a8d565b34801561070b57600080fd5b50466103c7565b34801561071e57600080fd5b506103fa61072d3660046139c9565b611ab0565b34801561073e57600080fd5b506105f461074d366004613d95565b611ae5565b34801561075e57600080fd5b506103c7611b89565b34801561077357600080fd5b506103fa611ba7565b34801561078857600080fd5b506107b26107973660046139c9565b6004602052600090815260409020546001600160a01b031681565b6040516001600160a01b0390911681526020016103d1565b3480156107d657600080fd5b506103fa6107e5366004613de3565b611bc1565b3480156107f657600080fd5b506103fa610805366004613e21565b611c15565b34801561081657600080fd5b506107b2610825366004613e4f565b611c4e565b34801561083657600080fd5b506103fa610845366004613eb5565b611c6d565b34801561085657600080fd5b506105f4610865366004613a14565b611e63565b34801561087657600080fd5b506103c760008051602061449b83398151915281565b34801561089857600080fd5b506103c760075481565b3480156108ae57600080fd5b506103fa6108bd3660046139f7565b611e7b565b3480156108ce57600080fd5b506002546108dc9060ff1681565b60405160ff90911681526020016103d1565b3480156108fa57600080fd5b506103c760c881565b34801561090f57600080fd5b506103fa61091e36600461388e565b611edc565b34801561092f57600080fd5b506103c7600081565b34801561094457600080fd5b50610958610953366004613f20565b611efa565b6040516103d19190613fc6565b34801561097157600080fd5b506103c761098036600461388e565b60096020526000908152604090205481565b34801561099e57600080fd5b506103fa6109ad366004613b7d565b612009565b3480156109be57600080fd5b506103fa6109cd36600461400f565b61203f565b3480156109de57600080fd5b506103fa6109ed366004613f20565b61209d565b3480156109fe57600080fd5b506007546103c7565b348015610a1357600080fd5b50600254610a2b9062010000900464ffffffffff1681565b60405164ffffffffff90911681526020016103d1565b348015610a4d57600080fd5b506103c7610a5c3660046139c9565b6125d3565b348015610a6d57600080fd5b506103fa610a7c36600461400f565b6125ea565b348015610a8d57600080fd5b506103fa610a9c3660046139f7565b61264b565b348015610aad57600080fd5b506103fa610abc36600461402f565b6126f4565b348015610acd57600080fd5b506103fa610adc366004613a14565b612727565b348015610aed57600080fd5b506002546108dc90610100900460ff1681565b348015610b0c57600080fd5b506103fa610b1b3660046139f7565b6127b4565b348015610b2c57600080fd5b506103c760085481565b348015610b4257600080fd5b506103fa610b51366004614064565b612898565b348015610b6257600080fd5b506105f4610b713660046139f7565b60056020526000908152604090205460ff1681565b348015610b9257600080fd5b506002546107b29067010000000000000090046001600160a01b031681565b348015610bbd57600080fd5b506105f4610bcc36600461408e565b612951565b348015610bdd57600080fd5b506103fa612a5b565b6000610bf182612b58565b92915050565b610bff612b97565b60ff838116600884901b68ffffffffffffffff0016176000818152600660209081526040808320868452909152808220815160808101909252805493949293919290918391166004811115610c5657610c56613f8e565b6004811115610c6757610c67613f8e565b8152905461010081046001600160c81b03166020830152600160d01b810460ff166040830152600160d81b900464ffffffffff1660609091015280519091506001816004811115610cba57610cba613f8e565b1480610cd757506002816004811115610cd557610cd5613f8e565b145b610d285760405162461bcd60e51b815260206004820152601c60248201527f50726f706f73616c2063616e6e6f742062652063616e63656c6c65640000000060448201526064015b60405180910390fd5b600254606083015164ffffffffff62010000909204821691610d4c91439116612c1b565b64ffffffffff1611610da05760405162461bcd60e51b815260206004820181905260248201527f50726f706f73616c206e6f7420617420657870697279207468726573686f6c646044820152606401610d1f565b60048083526001600160481b03841660009081526006602090815260408083208884529091529020835181548593839160ff1916906001908490811115610de957610de9613f8e565b02179055506020820151815460408085015160609095015164ffffffffff16600160d81b026001600160d81b0360ff909616600160d01b0260ff60d01b196001600160c81b039095166101000294909416610100600160d81b03199093169290921792909217939093169290921790555160008051602061447b83398151915290610e7c90889088906004908990614128565b60405180910390a1505050505050565b610e94612c5d565b610e9c612cc3565b6002600b541415610eef5760405162461bcd60e51b815260206004820152601f60248201527f5265656e7472616e637947756172643a207265656e7472616e742063616c6c006044820152606401610d1f565b6002600b5560008281526004602090815260408083205490516001600160a01b039091169268ffffffffffffffff0060088a901b1660ff8b1617929091610f3e91879186918b918b910161415d565b60408051601f1981840301815291815281516020928301206001600160481b03851660009081526006845282812082825290935291209091506002815460ff166004811115610f8f57610f8f613f8e565b14610fdc5760405162461bcd60e51b815260206004820181905260248201527f50726f706f73616c206d757374206861766520506173736564207374617475736044820152606401610d1f565b805460ff191660031781558385156110555760405163712467f960e11b81526001600160a01b0382169063e248cff29061101e908a908d908d906004016141b9565b600060405180830381600087803b15801561103857600080fd5b505af115801561104c573d6000803e3d6000fd5b50505050611132565b60405163712467f960e11b81526001600160a01b0382169063e248cff290611085908a908d908d906004016141b9565b600060405180830381600087803b15801561109f57600080fd5b505af19250505080156110b0575060015b611132573d8080156110de576040519150601f19603f3d011682016040523d82523d6000602084013e6110e3565b606091505b50825460ff191660021783556040517fbd37c1f0d53bb2f33fe4c2104de272fcdeb4d2fef3acdbf1e4ddc3d6833ca3769061111f90839061422f565b60405180910390a1505050505050611164565b60008051602061447b8339815191528b8b6003866040516111569493929190614128565b60405180910390a150505050505b50506001600b5550505050565b611179612d09565b60025460ff1660008161118e81610100614258565b6111989190614277565b60008181526004602081905260409182902080546001600160a01b0319169055905163a981575160e01b81529081018290526001600160a01b038481166024830152919250849182169063a9815751906044015b600060405180830381600087803b15801561120657600080fd5b505af115801561121a573d6000803e3d6000fd5b5050505050505050565b60008281526001602052604090206002015461124290610865612d62565b6112a65760405162461bcd60e51b815260206004820152602f60248201527f416363657373436f6e74726f6c3a2073656e646572206d75737420626520616e60448201526e0818591b5a5b881d1bc819dc985b9d608a1b6064820152608401610d1f565b6112b08282612da1565b5050565b6112bc612e0a565b6112b08282612e53565b6112ce612d09565b6112d781612a73565b6002805460ff929092166101000261ff00199092169190911790556040518181527fa20d6b84cd798a24038be305eff8a45ca82ef54a2aa2082005d8e14c0a4746c8906020015b60405180910390a150565b611331612d09565b60ff166000908152600a60209081526040808320805460ff191690556009909152812055565b61135f612d09565b8060075414156113b15760405162461bcd60e51b815260206004820152601f60248201527f43757272656e742066656520697320657175616c20746f206e657720666565006044820152606401610d1f565b60078190556040518181527f6bbc57480a46553fa4d156ce702beef5f3ad66303b0ed1a5d4cb44966c6584c39060200161131e565b6000610bf160008051602061449b83398151915283611e63565b611408612d09565b60008581526004602081905260409182902080546001600160a01b0319166001600160a01b038a8116918217909255925163de319d9960e01b8152918201889052861660248201526001600160e01b03198086166044830152606482018590528316608482015287919063de319d999060a401600060405180830381600087803b15801561149557600080fd5b505af11580156114a9573d6000803e3d6000fd5b5050505050505050505050565b6114be612d09565b60006114c8612d62565b9050816001600160a01b0316816001600160a01b0316141561152c5760405162461bcd60e51b815260206004820152601760248201527f43616e6e6f742072656e6f756e6365206f6e6573656c660000000000000000006044820152606401610d1f565b611537600083611224565b6112b06000826112b4565b61154a612d09565b60405163ab5c7bf160e01b815282906001600160a01b0382169063ab5c7bf19061157890859060040161422f565b600060405180830381600087803b15801561159257600080fd5b505af11580156115a6573d6000803e3d6000fd5b50505050505050565b6115b7612d09565b60ff9091166000908152600a60209081526040808320805460ff191660011790556009909152902055565b6115ea612cc3565b6000848152600460205260409020546001600160a01b03168061164b5760405162461bcd60e51b81526020600482015260196024820152781b9bc81a185b991b195c88199bdc881c995cdbdd5c98d95251603a1b6044820152606401610d1f565b600085828686604051602001611664949392919061415d565b60408051808303601f190181529190528051602090910120835160025491925090610100900460ff168110156116ea5760405162461bcd60e51b815260206004820152602560248201527f5369676e617475726573206c656e677468203e3d2072656c61796572546872656044820152641cda1bdb1960da1b6064820152608401610d1f565b604080516080810182526001815260006020820181905281830181905264ffffffffff4316606083015291519091906117b0907fc4cb5d35714699d6e85b9562b644e60393b418d974a5c1dd8efaadac37a142c5908d908d908d90611752908e908e9061428f565b604051908190038120611795959493929160200194855260ff9390931660208501526001600160401b039190911660408401526060830152608082015260a00190565b60405160208183030381529060405280519060200120612ed3565b905060005b838110156118d05760006117e2838984815181106117d5576117d561429f565b6020026020010151612f21565b90506117fc60008051602061449b83398151915282611e63565b61182b5760405163c41f0f6960e01b81526001600160a01b038216600482015260248101839052604401610d1f565b6118358482612f45565b1561187a5760405162461bcd60e51b81526020600482015260156024820152741c995b185e595c88185b1c9958591e481d9bdd1959605a1b6044820152606401610d1f565b61189a61188682612f68565b85602001516001600160c81b031617612fb5565b6001600160c81b03166020850152604084018051906118b8826142b5565b60ff169052506118c99050816142d5565b90506117b5565b506003825260405163712467f960e11b815285906001600160a01b0382169063e248cff290611907908d908d908d906004016141b9565b600060405180830381600087803b15801561192157600080fd5b505af1158015611935573d6000803e3d6000fd5b5050505060008051602061447b8339815191528c8c60038860405161195d9493929190614128565b60405180910390a160ff8c811660088d901b68ffffffffffffffff00161760008181526006602090815260408083208a845290915290205490916001911660048111156119ac576119ac613f8e565b11156119ca5760405162461bcd60e51b8152600401610d1f906142f0565b6001600160481b038116600090815260066020908152604080832089845290915290208451815486929190829060ff19166001836004811115611a0f57611a0f613f8e565b021790555060208201518154604084015160609094015164ffffffffff16600160d81b026001600160d81b0360ff909516600160d01b0260ff60d01b196001600160c81b039094166101000293909316610100600160d81b031990921691909117919091179290921691909117905550505050505050505050505050565b611a95612cc3565b6000611a9f612d62565b90506115a68188888888888861300a565b611ab8612d09565b611ac181612aca565b6002806101000a81548164ffffffffff021916908364ffffffffff16021790555050565b6001600160481b03831660009081526006602090815260408083208584529091528082208151608081019092528054611b81929190829060ff166004811115611b3057611b30613f8e565b6004811115611b4157611b41613f8e565b8152905461010081046001600160c81b03166020830152600160d01b810460ff166040830152600160d81b900464ffffffffff1660609091015283612f45565b949350505050565b6000611ba260008051602061449b8339815191526125d3565b905090565b611baf612d09565b611bbf611bba612d62565b613195565b565b611bc9612d09565b60008381526004602081905260409182902054915163789d771160e01b81526001600160a01b03858116928201929092528315156024820152911690819063789d7711906044016111ec565b611c1d612d09565b6040516307b7ed9960e01b81526001600160a01b0382811660048301528391908216906307b7ed9990602401611578565b6000828152600160205260408120611c6690836131e3565b9392505050565b611c75612d09565b828114611cc45760405162461bcd60e51b815260206004820152601f60248201527f61646472735b5d2c20616d6f756e74735b5d3a2064696666206c656e677468006044820152606401610d1f565b60005b83811015611e5c576000858583818110611ce357611ce361429f565b9050602002016020810190611cf891906139f7565b6001600160a01b0316848484818110611d1357611d1361429f565b9050602002013560405160006040518083038185875af1925050503d8060008114611d5a576040519150601f19603f3d011682016040523d82523d6000602084013e611d5f565b606091505b5050905080611db05760405162461bcd60e51b815260206004820152601960248201527f466565206574686572207472616e73666572206661696c6564000000000000006044820152606401610d1f565b7faaa40a232aaf133fdd28f3485f6fdd163514cfadbffa981f3610f42398efe34b6000878785818110611de557611de561429f565b9050602002016020810190611dfa91906139f7565b868686818110611e0c57611e0c61429f565b90506020020135604051611e41939291906001600160a01b039384168152919092166020820152604081019190915260600190565b60405180910390a15080611e54816142d5565b915050611cc7565b5050505050565b6000828152600160205260408120611c669083612b36565b611e83612d09565b611e8b612e0a565b611ea360008051602061449b83398151915282612727565b6040516001600160a01b03821681527f10e1f7ce9fd7d1b90a66d13a2ab3cb8dd7f29f3f8d520b143b063ccfbab6906b9060200161131e565b611ee4612d09565b6002805460ff191660ff92909216919091179055565b6040805160808101825260008082526020808301829052828401829052606083018290528682526004815283822054935192936001600160a01b031692611f499188918591899189910161415d565b60408051808303601f19018152828252805160209182012060ff8c811660088d901b68ffffffffffffffff00161760008181526006855285812084825290945292849020608086019094528354919550919392918391166004811115611fb157611fb1613f8e565b6004811115611fc257611fc2613f8e565b8152905461010081046001600160c81b03166020830152600160d01b810460ff166040830152600160d81b900464ffffffffff166060909101529998505050505050505050565b612011612d09565b60405163025a3c9960e21b815282906001600160a01b03821690630968f2649061157890859060040161422f565b612047612d09565b60008281526004602081905260409182902080546001600160a01b0319169055905163a981575160e01b81529081018390526001600160a01b03828116602483015284919082169063a9815751906044016111ec565b6120a5612c5d565b6120ad612cc3565b6002600b5414156121005760405162461bcd60e51b815260206004820152601f60248201527f5265656e7472616e637947756172643a207265656e7472616e742063616c6c006044820152606401610d1f565b6002600b5560008381526004602090815260408083205490516001600160a01b039091169268ffffffffffffffff00600889901b1660ff8a161792909161214f9188918691899189910161415d565b60408051601f1981840301815282825280516020918201206001600160481b03861660009081526006835283812082825290925282822060808501909352825490945090929190829060ff1660048111156121ac576121ac613f8e565b60048111156121bd576121bd613f8e565b8152905461010081046001600160c81b0316602080840191909152600160d01b820460ff16604080850191909152600160d81b90920464ffffffffff1660609093019290925260008a815260049092529020549091506001600160a01b03166122645760405162461bcd60e51b81526020600482015260196024820152781b9bc81a185b991b195c88199bdc881c995cdbdd5c98d95251603a1b6044820152606401610d1f565b60028151600481111561227957612279613f8e565b14156122975761228e898988888b6001610e8c565b505050506125c7565b60006122a1612d62565b90506001826000015160048111156122bb576122bb613f8e565b11156122d95760405162461bcd60e51b8152600401610d1f906142f0565b6122e38282612f45565b156123285760405162461bcd60e51b81526020600482015260156024820152741c995b185e595c88185b1c9958591e481d9bdd1959605a1b6044820152606401610d1f565b60008251600481111561233d5761233d613f8e565b141561239d576040805160808101825260018082526000602083018190528284015264ffffffffff43166060830152915190935060008051602061447b83398151915291612390918d918d918890614128565b60405180910390a16123fe565b600254606083015164ffffffffff620100009092048216916123c191439116612c1b565b64ffffffffff1611156123fe57600480835260405160008051602061447b833981519152916123f5918d918d918890614128565b60405180910390a15b60048251600481111561241357612413613f8e565b146124e35761243861242482612f68565b83602001516001600160c81b031617612fb5565b6001600160c81b0316602083015260408201805190612456826142b5565b60ff1690525081516040517f25f8daaa4635a7729927ba3f5b3d59cc3320aca7c32c9db4e7ca7b957434364091612492918d918d918890614128565b60405180910390a1600254604083015160ff61010090920482169116106124e357600280835260405160008051602061447b833981519152916124da918d918d918890614128565b60405180910390a15b6001600160481b038416600090815260066020908152604080832086845290915290208251815484929190829060ff1916600183600481111561252857612528613f8e565b021790555060208201518154604084015160609094015164ffffffffff16600160d81b026001600160d81b0360ff909516600160d01b0260ff60d01b196001600160c81b039094166101000293909316610100600160d81b03199092169190911791909117929092169190911790556002825160048111156125ac576125ac613f8e565b14156125c1576125c18a8a89898c6000610e8c565b50505050505b50506001600b55505050565b6000818152600160205260408120610bf1906131ef565b6125f2612d09565b60008281526004602081905260409182902080546001600160a01b0319166001600160a01b038781169182179092559251635c7d1b9b60e11b81529182018590528316602482015284919063b8fa3736906044016111ec565b612653612d09565b60c861265d611b89565b106126a35760405162461bcd60e51b81526020600482015260166024820152751c995b185e595c9cc81b1a5b5a5d081c995858da195960521b6044820152606401610d1f565b6126bb60008051602061449b83398151915282611224565b6040516001600160a01b03821681527f03580ee9f53a62b7cb409a2cb56f9be87747dd15017afc5cef6eef321e4fb2c59060200161131e565b6126fc612d09565b6001600160a01b03919091166000908152600560205260409020805460ff1916911515919091179055565b60008281526001602052604090206002015461274590610865612d62565b6127aa5760405162461bcd60e51b815260206004820152603060248201527f416363657373436f6e74726f6c3a2073656e646572206d75737420626520616e60448201526f2061646d696e20746f207265766f6b6560801b6064820152608401610d1f565b6112b082826131f9565b6127bc612d09565b60025460ff166000816127d181610100614258565b6127db9190614277565b60008181526004602081905260409182902080546001600160a01b0319166001600160a01b038881169182179092559251635c7d1b9b60e11b815291820184905285166024820152919250849163b8fa373690604401600060405180830381600087803b15801561284b57600080fd5b505af115801561285f573d6000803e3d6000fd5b505060405163789d771160e01b81526001600160a01b038681166004830152600160248301528416925063789d771191506044016111ec565b6128a0612d09565b60ff82166000908152600360205260409020546001600160401b039081169082161161291d5760405162461bcd60e51b815260206004820152602660248201527f446f6573206e6f7420616c6c6f772064656372656d656e7473206f6620746865604482015265206e6f6e636560d01b6064820152608401610d1f565b60ff919091166000908152600360205260409020805467ffffffffffffffff19166001600160401b03909216919091179055565b6000807fc4cb5d35714699d6e85b9562b644e60393b418d974a5c1dd8efaadac37a142c5898989898960405161298892919061428f565b6040519081900381206129cb959493929160200194855260ff9390931660208501526001600160401b039190911660408401526060830152608082015260a00190565b60405160208183030381529060405280519060200120905060006129ee82612ed3565b90506000612a328287878080601f016020809104026020016040519081016040528093929190818152602001838380828437600092019190915250612f2192505050565b9050612a4c60008051602061449b83398151915282611e63565b9b9a5050505050505050505050565b612a63612d09565b611bbf612a6e612d62565b613262565b60006101008210612ac65760405162461bcd60e51b815260206004820152601c60248201527f76616c756520646f6573206e6f742066697420696e20382062697473000000006044820152606401610d1f565b5090565b6000650100000000008210612ac65760405162461bcd60e51b815260206004820152601d60248201527f76616c756520646f6573206e6f742066697420696e20343020626974730000006044820152606401610d1f565b6000611c66836001600160a01b0384166132ad565b6001600160a01b03811660009081526001830160205260408120541515611c66565b60ff8082166000908152600a602052604081205490911615612b8a575060ff1660009081526009602052604090205490565b505060075490565b919050565b6000612ba1612d62565b9050612bae600082611e63565b80612bcc5750612bcc60008051602061449b83398151915282611e63565b612c185760405162461bcd60e51b815260206004820152601e60248201527f73656e646572206973206e6f742072656c61796572206f722061646d696e00006044820152606401610d1f565b50565b6000611c6683836040518060400160405280601e81526020017f536166654d6174683a207375627472616374696f6e206f766572666c6f7700008152506132fc565b612c7760008051602061449b833981519152610865612d62565b611bbf5760405162461bcd60e51b815260206004820181905260248201527f73656e64657220646f65736e277420686176652072656c6179657220726f6c656044820152606401610d1f565b60005460ff1615611bbf5760405162461bcd60e51b815260206004820152601060248201526f14185d5cd8589b194e881c185d5cd95960821b6044820152606401610d1f565b612d166000610865612d62565b611bbf5760405162461bcd60e51b815260206004820152601e60248201527f73656e64657220646f65736e277420686176652061646d696e20726f6c6500006044820152606401610d1f565b60003360143610801590612d8e57506001600160a01b03811660009081526005602052604090205460ff165b15612b9257505036601319013560601c90565b6000828152600160205260409020612db99082612b21565b156112b057612dc6612d62565b6001600160a01b0316816001600160a01b0316837f2f8788117e7eff1d82e926ec794901d17c78024a50270940304540a733656f0d60405160405180910390a45050565b60005460ff16611bbf5760405162461bcd60e51b815260206004820152601460248201527314185d5cd8589b194e881b9bdd081c185d5cd95960621b6044820152606401610d1f565b612e5b612d62565b6001600160a01b0316816001600160a01b0316146127aa5760405162461bcd60e51b815260206004820152602f60248201527f416363657373436f6e74726f6c3a2063616e206f6e6c792072656e6f756e636560448201526e103937b632b9903337b91039b2b63360891b6064820152608401610d1f565b6000610bf1612ee0613336565b8360405161190160f01b6020820152602281018390526042810182905260009060620160405160208183030381529060405280519060200120905092915050565b6000806000612f30858561345d565b91509150612f3d816134a3565b509392505050565b60008083602001516001600160c81b0316612f5f84612f68565b16119392505050565b6001600160a01b03811660009081527f9b7fc797995519db25593326970d3304279d74cdaa6b7cc1a414e3eb0491de546020526040812054612fab906001612c1b565b6001901b92915050565b6000600160c81b8210612ac65760405162461bcd60e51b815260206004820152601e60248201527f76616c756520646f6573206e6f742066697420696e20323030206269747300006044820152606401610d1f565b34600061301688612b58565b90506130228183614333565b915080600860008282546130369190614277565b90915550506000878152600460205260409020546001600160a01b031680613071576040516308c231dd60e31b815260040160405180910390fd5b60ff8916600090815260036020526040812080548290613099906001600160401b031661434a565b91906101000a8154816001600160401b0302191690836001600160401b03160217905590506000826001600160a01b031663b07e54bb868c8f8d8d6040518663ffffffff1660e01b81526004016130f39493929190614371565b60006040518083038185885af1158015613111573d6000803e3d6000fd5b50505050506040513d6000823e601f3d908101601f1916820160405261313a91908101906143a6565b90508b6001600160a01b03167f17bc3181e17a9620a479c24e6c606e474ba84fc036877b768926872e8cd0e11f8c8c858d8d8760405161317f96959493929190614413565b60405180910390a2505050505050505050505050565b61319d612cc3565b6000805460ff191660011790556040516001600160a01b03821681527f62e78cea01bee320cd4e420270b5ea74000d11b0c9f74754ebdbfc544b05a2589060200161131e565b6000611c66838361365e565b6000610bf1825490565b60008281526001602052604090206132119082613688565b156112b05761321e612d62565b6001600160a01b0316816001600160a01b0316837ff6391f5c32d9c69d2a47ea670b442974b53935d1edc7fd64eb21e047a839171b60405160405180910390a45050565b61326a612e0a565b6000805460ff191690556040516001600160a01b03821681527f5db9ee0a495bf2e6ff9c91a7834c1ba4fdd244a5e8aa4e537bd38aeae4b073aa9060200161131e565b60008181526001830160205260408120546132f457508154600181810184556000848152602080822090930184905584548482528286019093526040902091909155610bf1565b506000610bf1565b600081848411156133205760405162461bcd60e51b8152600401610d1f919061422f565b50600061332d8486614333565b95945050505050565b6000306001600160a01b037f00000000000000000000000000000000000000000000000000000000000000001614801561338f57507f000000000000000000000000000000000000000000000000000000000000000046145b156133b957507f000000000000000000000000000000000000000000000000000000000000000090565b50604080517f00000000000000000000000000000000000000000000000000000000000000006020808301919091527f0000000000000000000000000000000000000000000000000000000000000000828401527f000000000000000000000000000000000000000000000000000000000000000060608301524660808301523060a0808401919091528351808403909101815260c0909201909252805191012090565b6000808251604114156134945760208301516040840151606085015160001a6134888782858561369d565b9450945050505061349c565b506000905060025b9250929050565b60008160048111156134b7576134b7613f8e565b14156134c05750565b60018160048111156134d4576134d4613f8e565b14156135225760405162461bcd60e51b815260206004820152601860248201527f45434453413a20696e76616c6964207369676e617475726500000000000000006044820152606401610d1f565b600281600481111561353657613536613f8e565b14156135845760405162461bcd60e51b815260206004820152601f60248201527f45434453413a20696e76616c6964207369676e6174757265206c656e677468006044820152606401610d1f565b600381600481111561359857613598613f8e565b14156135f15760405162461bcd60e51b815260206004820152602260248201527f45434453413a20696e76616c6964207369676e6174757265202773272076616c604482015261756560f01b6064820152608401610d1f565b600481600481111561360557613605613f8e565b1415612c185760405162461bcd60e51b815260206004820152602260248201527f45434453413a20696e76616c6964207369676e6174757265202776272076616c604482015261756560f01b6064820152608401610d1f565b60008260000182815481106136755761367561429f565b9060005260206000200154905092915050565b6000611c66836001600160a01b03841661378a565b6000807f7fffffffffffffffffffffffffffffff5d576e7357a4501ddfe92f46681b20a08311156136d45750600090506003613781565b8460ff16601b141580156136ec57508460ff16601c14155b156136fd5750600090506004613781565b6040805160008082526020820180845289905260ff881692820192909252606081018690526080810185905260019060a0016020604051602081039080840390855afa158015613751573d6000803e3d6000fd5b5050604051601f1901519150506001600160a01b03811661377a57600060019250925050613781565b9150600090505b94509492505050565b600081815260018301602052604081205480156138735760006137ae600183614333565b85549091506000906137c290600190614333565b90508181146138275760008660000182815481106137e2576137e261429f565b90600052602060002001549050808760000184815481106138055761380561429f565b6000918252602080832090910192909255918252600188019052604090208390555b855486908061383857613838614464565b600190038181906000526020600020016000905590558560010160008681526020019081526020016000206000905560019350505050610bf1565b6000915050610bf1565b803560ff81168114612b9257600080fd5b6000602082840312156138a057600080fd5b611c668261387d565b80356001600160401b0381168114612b9257600080fd5b6000806000606084860312156138d557600080fd5b6138de8461387d565b92506138ec602085016138a9565b9150604084013590509250925092565b60008083601f84011261390e57600080fd5b5081356001600160401b0381111561392557600080fd5b60208301915083602082850101111561349c57600080fd5b80358015158114612b9257600080fd5b60008060008060008060a0878903121561396657600080fd5b61396f8761387d565b955061397d602088016138a9565b945060408701356001600160401b0381111561399857600080fd5b6139a489828a016138fc565b909550935050606087013591506139bd6080880161393d565b90509295509295509295565b6000602082840312156139db57600080fd5b5035919050565b6001600160a01b0381168114612c1857600080fd5b600060208284031215613a0957600080fd5b8135611c66816139e2565b60008060408385031215613a2757600080fd5b823591506020830135613a39816139e2565b809150509250929050565b80356001600160e01b031981168114612b9257600080fd5b60008060008060008060c08789031215613a7557600080fd5b8635613a80816139e2565b9550602087013594506040870135613a97816139e2565b9350613aa560608801613a44565b9250608087013591506139bd60a08801613a44565b634e487b7160e01b600052604160045260246000fd5b604051601f8201601f191681016001600160401b0381118282101715613af857613af8613aba565b604052919050565b60006001600160401b03821115613b1957613b19613aba565b50601f01601f191660200190565b600082601f830112613b3857600080fd5b8135613b4b613b4682613b00565b613ad0565b818152846020838601011115613b6057600080fd5b816020850160208301376000918101602001919091529392505050565b60008060408385031215613b9057600080fd5b8235613b9b816139e2565b915060208301356001600160401b03811115613bb657600080fd5b613bc285828601613b27565b9150509250929050565b60008060408385031215613bdf57600080fd5b613be88361387d565b946020939093013593505050565b60008060008060008060a08789031215613c0f57600080fd5b613c188761387d565b95506020613c278189016138a9565b95506040880135945060608801356001600160401b0380821115613c4a57600080fd5b613c568b838c016138fc565b909650945060808a0135915080821115613c6f57600080fd5b818a0191508a601f830112613c8357600080fd5b813581811115613c9557613c95613aba565b8060051b613ca4858201613ad0565b918252838101850191858101908e841115613cbe57600080fd5b86860192505b83831015613cf8578483351115613cda57600080fd5b613ce98f888535890101613b27565b82529186019190860190613cc4565b809750505050505050509295509295509295565b60008060008060008060808789031215613d2557600080fd5b613d2e8761387d565b95506020870135945060408701356001600160401b0380821115613d5157600080fd5b613d5d8a838b016138fc565b90965094506060890135915080821115613d7657600080fd5b50613d8389828a016138fc565b979a9699509497509295939492505050565b600080600060608486031215613daa57600080fd5b83356001600160481b0381168114613dc157600080fd5b9250602084013591506040840135613dd8816139e2565b809150509250925092565b600080600060608486031215613df857600080fd5b833592506020840135613e0a816139e2565b9150613e186040850161393d565b90509250925092565b60008060408385031215613e3457600080fd5b8235613e3f816139e2565b91506020830135613a39816139e2565b60008060408385031215613e6257600080fd5b50508035926020909101359150565b60008083601f840112613e8357600080fd5b5081356001600160401b03811115613e9a57600080fd5b6020830191508360208260051b850101111561349c57600080fd5b60008060008060408587031215613ecb57600080fd5b84356001600160401b0380821115613ee257600080fd5b613eee88838901613e71565b90965094506020870135915080821115613f0757600080fd5b50613f1487828801613e71565b95989497509550505050565b600080600080600060808688031215613f3857600080fd5b613f418661387d565b9450613f4f602087016138a9565b93506040860135925060608601356001600160401b03811115613f7157600080fd5b613f7d888289016138fc565b969995985093965092949392505050565b634e487b7160e01b600052602160045260246000fd5b60058110613fc257634e487b7160e01b600052602160045260246000fd5b9052565b6000608082019050613fd9828451613fa4565b60018060c81b03602084015116602083015260ff604084015116604083015264ffffffffff606084015116606083015292915050565b60008060006060848603121561402457600080fd5b8335613dc1816139e2565b6000806040838503121561404257600080fd5b823561404d816139e2565b915061405b6020840161393d565b90509250929050565b6000806040838503121561407757600080fd5b6140808361387d565b915061405b602084016138a9565b600080600080600080600060a0888a0312156140a957600080fd5b6140b28861387d565b96506140c0602089016138a9565b95506040880135945060608801356001600160401b03808211156140e357600080fd5b6140ef8b838c016138fc565b909650945060808a013591508082111561410857600080fd5b506141158a828b016138fc565b989b979a50959850939692959293505050565b60ff851681526001600160401b03841660208201526080810161414e6040830185613fa4565b82606083015295945050505050565b8481526bffffffffffffffffffffffff198460601b16602082015281836034830137600091016034019081529392505050565b81835281816020850137506000828201602090810191909152601f909101601f19169091010190565b83815260406020820152600061332d604083018486614190565b60005b838110156141ee5781810151838201526020016141d6565b838111156141fd576000848401525b50505050565b6000815180845261421b8160208601602086016141d3565b601f01601f19169290920160200192915050565b602081526000611c666020830184614203565b634e487b7160e01b600052601160045260246000fd5b600081600019048311821515161561427257614272614242565b500290565b6000821982111561428a5761428a614242565b500190565b8183823760009101908152919050565b634e487b7160e01b600052603260045260246000fd5b600060ff821660ff8114156142cc576142cc614242565b60010192915050565b60006000198214156142e9576142e9614242565b5060010190565b60208082526023908201527f70726f706f73616c20616c72656164792065786563757465642f63616e63656c6040820152621b195960ea1b606082015260800190565b60008282101561434557614345614242565b500390565b60006001600160401b038083168181141561436757614367614242565b6001019392505050565b8481526001600160a01b038416602082015260606040820181905260009061439c9083018486614190565b9695505050505050565b6000602082840312156143b857600080fd5b81516001600160401b038111156143ce57600080fd5b8201601f810184136143df57600080fd5b80516143ed613b4682613b00565b81815285602083850101111561440257600080fd5b61332d8260208301602086016141d3565b60ff871681528560208201526001600160401b038516604082015260a06060820152600061444560a083018587614190565b82810360808401526144578185614203565b9998505050505050505050565b634e487b7160e01b600052603160045260246000fdfe968626a768e76ba1363efe44e322a6c4900c5f084e0b45f35e294dfddaa9e0d5e2b7fb3b832174769106daebcfd6d1970523240dda11281102db9363b83b0dc4a2646970667358221220287009483a53f42db3a8cfb19db9f14363828ee9fb2e0e9ec59c99247736d1b564736f6c634300080b0033",
  "linkReferences": {},
  "deployedLinkReferences": {}
}