{
  "_format": "hh-sol-artifact-1",
  "contractName": "Bridge",
  "sourceName": "contracts/Bridge.sol",
  "abi": [
    {
      "inputs": [
        {
          "internalType": "uint8",
          "name": "domainID",
          "type": "uint8"
        },
        {
          "internalType": "address[]",
          "name": "initialRelayers",
          "type": "address[]"
        },
        {
          "internalType": "uint256",
          "name": "initialRelayerThreshold",
          "type": "uint256"
        },
        {
          "internalType": "uint256",
          "name": "expiry",
          "type": "uint256"
        }
      ],
      "stateMutability": "nonpayable",
      "type": "constructor"
    },
    {
      "inputs": [
        {
          "internalType": "uint256",
          "name": "msgValue",
          "type": "uint256"
        },
        {
          "internalType": "uint256",
          "name": "fee",
          "type": "uint256"
        }
      ],
      "name": "IncorrectFeeSupplied",
      "type": "error"
    },
    {
      "inputs": [
        {
          "internalType": "address",
          "name": "signer",
          "type": "address"
        },
        {
          "internalType": "uint256",
          "name": "index",
          "type": "uint256"
        }
      ],
      "name": "InvalidSignature",
      "type": "error"
    },
    {
      "inputs": [],
      "name": "ResourceIDNotMappedToHandler",
      "type": "error"
    },
    {
      "anonymous": false,
      "inputs": [
        {
          "indexed": false,
          "internalType": "uint8",
          "name": "destinationDomainID",
          "type": "uint8"
        },
        {
          "indexed": false,
          "internalType": "bytes32",
          "name": "resourceID",
          "type": "bytes32"
        },
        {
          "indexed": false,
          "internalType": "uint64",
          "name": "depositNonce",
          "type": "uint64"
        },
        {
          "indexed": true,
          "internalType": "address",
          "name": "user",
          "type": "address"
        },
        {
          "indexed": false,
          "internalType": "bytes",
          "name": "data",
          "type": "bytes"
        },
        {
          "indexed": false,
          "internalType": "bytes",
          "name": "handlerResponse",
          "type": "bytes"
        }
      ],
      "name": "Deposit",
      "type": "event"
    },
    {
      "anonymous": false,
      "inputs": [
        {
          "indexed": false,
          "internalType": "bytes",
          "name": "lowLevelData",
          "type": "bytes"
        }
      ],
      "name": "FailedHandlerExecution",
      "type": "event"
    },
    {
      "anonymous": false,
      "inputs": [
        {
          "indexed": false,
          "internalType": "uint256",
          "name": "newFee",
          "type": "uint256"
        }
      ],
      "name": "FeeChanged",
      "type": "event"
    },
    {
      "anonymous": false,
      "inputs": [
        {
          "indexed": false,
          "internalType": "address",
          "name": "tokenAddress",
          "type": "address"
        },
        {
          "indexed": false,
          "internalType": "address",
          "name": "recipient",
          "type": "address"
        },
        {
          "indexed": false,
          "internalType": "uint256",
          "name": "amount",
          "type": "uint256"
        }
      ],
      "name": "FeeDistributed",
      "type": "event"
    },
    {
      "anonymous": false,
      "inputs": [
        {
          "indexed": false,
          "internalType": "address",
          "name": "newFeeHandler",
          "type": "address"
        }
      ],
      "name": "FeeHandlerChanged",
      "type": "event"
    },
    {
      "anonymous": false,
      "inputs": [
        {
          "indexed": false,
          "internalType": "address",
          "name": "account",
          "type": "address"
        }
      ],
      "name": "Paused",
      "type": "event"
    },
    {
      "anonymous": false,
      "inputs": [
        {
          "indexed": false,
          "internalType": "uint8",
          "name": "originDomainID",
          "type": "uint8"
        },
        {
          "indexed": false,
          "internalType": "uint64",
          "name": "depositNonce",
          "type": "uint64"
        },
        {
          "indexed": false,
          "internalType": "enum IBridge.ProposalStatus",
          "name": "status",
          "type": "uint8"
        },
        {
          "indexed": false,
          "internalType": "bytes32",
          "name": "dataHash",
          "type": "bytes32"
        }
      ],
      "name": "ProposalEvent",
      "type": "event"
    },
    {
      "anonymous": false,
      "inputs": [
        {
          "indexed": false,
          "internalType": "uint8",
          "name": "originDomainID",
          "type": "uint8"
        },
        {
          "indexed": false,
          "internalType": "uint64",
          "name": "depositNonce",
          "type": "uint64"
        },
        {
          "indexed": false,
          "internalType": "enum IBridge.ProposalStatus",
          "name": "status",
          "type": "uint8"
        },
        {
          "indexed": false,
          "internalType": "bytes32",
          "name": "dataHash",
          "type": "bytes32"
        }
      ],
      "name": "ProposalVote",
      "type": "event"
    },
    {
      "anonymous": false,
      "inputs": [
        {
          "indexed": false,
          "internalType": "address",
          "name": "relayer",
          "type": "address"
        }
      ],
      "name": "RelayerAdded",
      "type": "event"
    },
    {
      "anonymous": false,
      "inputs": [
        {
          "indexed": false,
          "internalType": "address",
          "name": "relayer",
          "type": "address"
        }
      ],
      "name": "RelayerRemoved",
      "type": "event"
    },
    {
      "anonymous": false,
      "inputs": [
        {
          "indexed": false,
          "internalType": "uint256",
          "name": "newThreshold",
          "type": "uint256"
        }
      ],
      "name": "RelayerThresholdChanged",
      "type": "event"
    },
    {
      "anonymous": false,
      "inputs": [
        {
          "indexed": true,
          "internalType": "bytes32",
          "name": "role",
          "type": "bytes32"
        },
        {
          "indexed": true,
          "internalType": "address",
          "name": "account",
          "type": "address"
        },
        {
          "indexed": true,
          "internalType": "address",
          "name": "sender",
          "type": "address"
        }
      ],
      "name": "RoleGranted",
      "type": "event"
    },
    {
      "anonymous": false,
      "inputs": [
        {
          "indexed": true,
          "internalType": "bytes32",
          "name": "role",
          "type": "bytes32"
        },
        {
          "indexed": true,
          "internalType": "address",
          "name": "account",
          "type": "address"
        },
        {
          "indexed": true,
          "internalType": "address",
          "name": "sender",
          "type": "address"
        }
      ],
      "name": "RoleRevoked",
      "type": "event"
    },
    {
      "anonymous": false,
      "inputs": [
        {
          "indexed": false,
          "internalType": "address",
          "name": "account",
          "type": "address"
        }
      ],
      "name": "Unpaused",
      "type": "event"
    },
    {
      "inputs": [],
      "name": "DEFAULT_ADMIN_ROLE",
      "outputs": [
        {
          "internalType": "bytes32",
          "name": "",
          "type": "bytes32"
        }
      ],
      "stateMutability": "view",
      "type": "function"
    },
    {
      "inputs": [],
      "name": "MAX_RELAYERS",
      "outputs": [
        {
          "internalType": "uint256",
          "name": "",
          "type": "uint256"
        }
      ],
      "stateMutability": "view",
      "type": "function"
    },
    {
      "inputs": [],
      "name": "PERMIT_TYPEHASH",
      "outputs": [
        {
          "internalType": "bytes32",
          "name": "",
          "type": "bytes32"
        }
      ],
      "stateMutability": "view",
      "type": "function"
    },
    {
      "inputs": [],
      "name": "RELAYER_ROLE",
      "outputs": [
        {
          "internalType": "bytes32",
          "name": "",
          "type": "bytes32"
        }
      ],
      "stateMutability": "view",
      "type": "function"
    },
    {
      "inputs": [],
      "name": "_chainId",
      "outputs": [
        {
          "internalType": "uint256",
          "name": "",
          "type": "uint256"
        }
      ],
      "stateMutability": "view",
      "type": "function"
    },
    {
      "inputs": [
        {
          "internalType": "uint8",
          "name": "",
          "type": "uint8"
        }
      ],
      "name": "_depositCounts",
      "outputs": [
        {
          "internalType": "uint64",
          "name": "",
          "type": "uint64"
        }
      ],
      "stateMutability": "view",
      "type": "function"
    },
    {
      "inputs": [],
      "name": "_domainID",
      "outputs": [
        {
          "internalType": "uint8",
          "name": "",
          "type": "uint8"
        }
      ],
      "stateMutability": "view",
      "type": "function"
    },
    {
      "inputs": [],
      "name": "_expiry",
      "outputs": [
        {
          "internalType": "uint40",
          "name": "",
          "type": "uint40"
        }
      ],
      "stateMutability": "view",
      "type": "function"
    },
    {
      "inputs": [],
      "name": "_fee",
      "outputs": [
        {
          "internalType": "uint256",
          "name": "",
          "type": "uint256"
        }
      ],
      "stateMutability": "view",
      "type": "function"
    },
    {
      "inputs": [],
      "name": "_feeHandler",
      "outputs": [
        {
          "internalType": "contract IFeeHandler",
          "name": "",
          "type": "address"
        }
      ],
      "stateMutability": "view",
      "type": "function"
    },
    {
      "inputs": [],
      "name": "_feeReserve",
      "outputs": [
        {
          "internalType": "uint256",
          "name": "",
          "type": "uint256"
        }
      ],
      "stateMutability": "view",
      "type": "function"
    },
    {
      "inputs": [],
      "name": "_fee_",
      "outputs": [
        {
          "internalType": "uint256",
          "name": "",
          "type": "uint256"
        }
      ],
      "stateMutability": "view",
      "type": "function"
    },
    {
      "inputs": [
        {
          "internalType": "uint72",
          "name": "destNonce",
          "type": "uint72"
        },
        {
          "internalType": "bytes32",
          "name": "dataHash",
          "type": "bytes32"
        },
        {
          "internalType": "address",
          "name": "relayer",
          "type": "address"
        }
      ],
      "name": "_hasVotedOnProposal",
      "outputs": [
        {
          "internalType": "bool",
          "name": "",
          "type": "bool"
        }
      ],
      "stateMutability": "view",
      "type": "function"
    },
    {
      "inputs": [],
      "name": "_relayerThreshold",
      "outputs": [
        {
          "internalType": "uint8",
          "name": "",
          "type": "uint8"
        }
      ],
      "stateMutability": "view",
      "type": "function"
    },
    {
      "inputs": [
        {
          "internalType": "bytes32",
          "name": "",
          "type": "bytes32"
        }
      ],
      "name": "_resourceIDToHandlerAddress",
      "outputs": [
        {
          "internalType": "address",
          "name": "",
          "type": "address"
        }
      ],
      "stateMutability": "view",
      "type": "function"
    },
    {
      "inputs": [],
      "name": "_totalRelayers",
      "outputs": [
        {
          "internalType": "uint256",
          "name": "",
          "type": "uint256"
        }
      ],
      "stateMutability": "view",
      "type": "function"
    },
    {
      "inputs": [
        {
          "internalType": "address",
          "name": "relayerAddress",
          "type": "address"
        }
      ],
      "name": "adminAddRelayer",
      "outputs": [],
      "stateMutability": "nonpayable",
      "type": "function"
    },
    {
      "inputs": [
        {
          "internalType": "uint256",
          "name": "expiry",
          "type": "uint256"
        }
      ],
      "name": "adminChangeExpiry",
      "outputs": [],
      "stateMutability": "nonpayable",
      "type": "function"
    },
    {
      "inputs": [
        {
          "internalType": "uint256",
          "name": "newThreshold",
          "type": "uint256"
        }
      ],
      "name": "adminChangeRelayerThreshold",
      "outputs": [],
      "stateMutability": "nonpayable",
      "type": "function"
    },
    {
      "inputs": [],
      "name": "adminPauseTransfers",
      "outputs": [],
      "stateMutability": "nonpayable",
      "type": "function"
    },
    {
      "inputs": [
        {
          "internalType": "address",
          "name": "handlerAddress",
          "type": "address"
        },
        {
          "internalType": "bytes32",
          "name": "resourceID",
          "type": "bytes32"
        },
        {
          "internalType": "address",
          "name": "contractAddress",
          "type": "address"
        }
      ],
      "name": "adminRemoveGenericResource",
      "outputs": [],
      "stateMutability": "nonpayable",
      "type": "function"
    },
    {
      "inputs": [
        {
          "internalType": "address",
          "name": "handlerAddress",
          "type": "address"
        }
      ],
      "name": "adminRemoveNativeResourceId",
      "outputs": [],
      "stateMutability": "nonpayable",
      "type": "function"
    },
    {
      "inputs": [
        {
          "internalType": "address",
          "name": "relayerAddress",
          "type": "address"
        }
      ],
      "name": "adminRemoveRelayer",
      "outputs": [],
      "stateMutability": "nonpayable",
      "type": "function"
    },
    {
      "inputs": [
        {
          "internalType": "address",
          "name": "handlerAddress",
          "type": "address"
        },
        {
          "internalType": "bytes32",
          "name": "resourceID",
          "type": "bytes32"
        },
        {
          "internalType": "address",
          "name": "tokenAddress",
          "type": "address"
        }
      ],
      "name": "adminRemoveResourceId",
      "outputs": [],
      "stateMutability": "nonpayable",
      "type": "function"
    },
    {
      "inputs": [
        {
          "internalType": "uint8",
          "name": "destinationDomainID",
          "type": "uint8"
        }
      ],
      "name": "adminRemoveSpecialFee",
      "outputs": [],
      "stateMutability": "nonpayable",
      "type": "function"
    },
    {
      "inputs": [
        {
          "internalType": "address",
          "name": "handlerAddress",
          "type": "address"
        },
        {
          "internalType": "address",
          "name": "tokenAddress",
          "type": "address"
        }
      ],
      "name": "adminSetBurnable",
      "outputs": [],
      "stateMutability": "nonpayable",
      "type": "function"
    },
    {
      "inputs": [
        {
          "internalType": "uint8",
          "name": "domainID",
          "type": "uint8"
        },
        {
          "internalType": "uint64",
          "name": "nonce",
          "type": "uint64"
        }
      ],
      "name": "adminSetDepositNonce",
      "outputs": [],
      "stateMutability": "nonpayable",
      "type": "function"
    },
    {
      "inputs": [
        {
          "internalType": "uint8",
          "name": "domainID",
          "type": "uint8"
        }
      ],
      "name": "adminSetDomainId",
      "outputs": [],
      "stateMutability": "nonpayable",
      "type": "function"
    },
    {
      "inputs": [
        {
          "internalType": "uint256",
          "name": "newFee",
          "type": "uint256"
        }
      ],
      "name": "adminSetFee",
      "outputs": [],
      "stateMutability": "nonpayable",
      "type": "function"
    },
    {
      "inputs": [
        {
          "internalType": "address",
          "name": "forwarder",
          "type": "address"
        },
        {
          "internalType": "bool",
          "name": "valid",
          "type": "bool"
        }
      ],
      "name": "adminSetForwarder",
      "outputs": [],
      "stateMutability": "nonpayable",
      "type": "function"
    },
    {
      "inputs": [
        {
          "internalType": "address",
          "name": "handlerAddress",
          "type": "address"
        },
        {
          "internalType": "bytes32",
          "name": "resourceID",
          "type": "bytes32"
        },
        {
          "internalType": "address",
          "name": "contractAddress",
          "type": "address"
        },
        {
          "internalType": "bytes4",
          "name": "depositFunctionSig",
          "type": "bytes4"
        },
        {
          "internalType": "uint256",
          "name": "depositFunctionDepositorOffset",
          "type": "uint256"
        },
        {
          "internalType": "bytes4",
          "name": "executeFunctionSig",
          "type": "bytes4"
        }
      ],
      "name": "adminSetGenericResource",
      "outputs": [],
      "stateMutability": "nonpayable",
      "type": "function"
    },
    {
      "inputs": [
        {
          "internalType": "bytes32",
          "name": "resourceID",
          "type": "bytes32"
        },
        {
          "internalType": "address",
          "name": "nativeAddress",
          "type": "address"
        },
        {
          "internalType": "bool",
          "name": "isNative",
          "type": "bool"
        }
      ],
      "name": "adminSetNative",
      "outputs": [],
      "stateMutability": "nonpayable",
      "type": "function"
    },
    {
      "inputs": [
        {
          "internalType": "address",
          "name": "handlerAddress",
          "type": "address"
        }
      ],
      "name": "adminSetNativeResource",
      "outputs": [],
      "stateMutability": "nonpayable",
      "type": "function"
    },
    {
      "inputs": [
        {
          "internalType": "address",
          "name": "handlerAddress",
          "type": "address"
        },
        {
          "internalType": "bytes32",
          "name": "resourceID",
          "type": "bytes32"
        },
        {
          "internalType": "address",
          "name": "tokenAddress",
          "type": "address"
        }
      ],
      "name": "adminSetResource",
      "outputs": [],
      "stateMutability": "nonpayable",
      "type": "function"
    },
    {
      "inputs": [
        {
          "internalType": "uint8",
          "name": "destinationDomainID",
          "type": "uint8"
        },
        {
          "internalType": "uint256",
          "name": "_specialFee",
          "type": "uint256"
        }
      ],
      "name": "adminSetSpecialFee",
      "outputs": [],
      "stateMutability": "nonpayable",
      "type": "function"
    },
    {
      "inputs": [],
      "name": "adminUnpauseTransfers",
      "outputs": [],
      "stateMutability": "nonpayable",
      "type": "function"
    },
    {
      "inputs": [
        {
          "internalType": "address",
          "name": "handlerAddress",
          "type": "address"
        },
        {
          "internalType": "bytes",
          "name": "data",
          "type": "bytes"
        }
      ],
      "name": "adminWithdraw",
      "outputs": [],
      "stateMutability": "nonpayable",
      "type": "function"
    },
    {
      "inputs": [
        {
          "internalType": "address",
          "name": "handlerAddress",
          "type": "address"
        },
        {
          "internalType": "bytes",
          "name": "data",
          "type": "bytes"
        }
      ],
      "name": "adminWithdrawETH",
      "outputs": [],
      "stateMutability": "nonpayable",
      "type": "function"
    },
    {
      "inputs": [
        {
          "internalType": "uint8",
          "name": "domainID",
          "type": "uint8"
        },
        {
          "internalType": "uint64",
          "name": "depositNonce",
          "type": "uint64"
        },
        {
          "internalType": "bytes32",
          "name": "dataHash",
          "type": "bytes32"
        }
      ],
      "name": "cancelProposal",
      "outputs": [],
      "stateMutability": "nonpayable",
      "type": "function"
    },
    {
      "inputs": [
        {
          "internalType": "uint8",
          "name": "domainID",
          "type": "uint8"
        },
        {
          "internalType": "uint64",
          "name": "depositNonce",
          "type": "uint64"
        },
        {
          "internalType": "bytes32",
          "name": "resourceID",
          "type": "bytes32"
        },
        {
          "internalType": "bytes",
          "name": "data",
          "type": "bytes"
        },
        {
          "internalType": "bytes",
          "name": "signature",
          "type": "bytes"
        }
      ],
      "name": "checkSignature",
      "outputs": [
        {
          "internalType": "bool",
          "name": "",
          "type": "bool"
        }
      ],
      "stateMutability": "view",
      "type": "function"
    },
    {
      "inputs": [
        {
          "internalType": "uint8",
          "name": "destinationDomainID",
          "type": "uint8"
        },
        {
          "internalType": "bytes32",
          "name": "resourceID",
          "type": "bytes32"
        },
        {
          "internalType": "bytes",
          "name": "depositData",
          "type": "bytes"
        },
        {
          "internalType": "bytes",
          "name": "feeData",
          "type": "bytes"
        }
      ],
      "name": "deposit",
      "outputs": [],
      "stateMutability": "payable",
      "type": "function"
    },
    {
      "inputs": [
        {
          "internalType": "uint8",
          "name": "domainID",
          "type": "uint8"
        },
        {
          "internalType": "uint64",
          "name": "depositNonce",
          "type": "uint64"
        },
        {
          "internalType": "bytes",
          "name": "data",
          "type": "bytes"
        },
        {
          "internalType": "bytes32",
          "name": "resourceID",
          "type": "bytes32"
        },
        {
          "internalType": "bool",
          "name": "revertOnFail",
          "type": "bool"
        }
      ],
      "name": "executeProposal",
      "outputs": [],
      "stateMutability": "nonpayable",
      "type": "function"
    },
    {
      "inputs": [
        {
          "internalType": "uint8",
          "name": "destinationDomainID",
          "type": "uint8"
        }
      ],
      "name": "getFee",
      "outputs": [
        {
          "internalType": "uint256",
          "name": "",
          "type": "uint256"
        }
      ],
      "stateMutability": "view",
      "type": "function"
    },
    {
      "inputs": [
        {
          "internalType": "uint8",
          "name": "originDomainID",
          "type": "uint8"
        },
        {
          "internalType": "uint64",
          "name": "depositNonce",
          "type": "uint64"
        },
        {
          "internalType": "bytes32",
          "name": "resourceID",
          "type": "bytes32"
        },
        {
          "internalType": "bytes",
          "name": "data",
          "type": "bytes"
        }
      ],
      "name": "getProposal",
      "outputs": [
        {
          "components": [
            {
              "internalType": "enum IBridge.ProposalStatus",
              "name": "_status",
              "type": "uint8"
            },
            {
              "internalType": "uint200",
              "name": "_yesVotes",
              "type": "uint200"
            },
            {
              "internalType": "uint8",
              "name": "_yesVotesTotal",
              "type": "uint8"
            },
            {
              "internalType": "uint40",
              "name": "_proposedBlock",
              "type": "uint40"
            }
          ],
          "internalType": "struct IBridge.Proposal",
          "name": "",
          "type": "tuple"
        }
      ],
      "stateMutability": "view",
      "type": "function"
    },
    {
      "inputs": [
        {
          "internalType": "bytes32",
          "name": "role",
          "type": "bytes32"
        }
      ],
      "name": "getRoleAdmin",
      "outputs": [
        {
          "internalType": "bytes32",
          "name": "",
          "type": "bytes32"
        }
      ],
      "stateMutability": "view",
      "type": "function"
    },
    {
      "inputs": [
        {
          "internalType": "bytes32",
          "name": "role",
          "type": "bytes32"
        },
        {
          "internalType": "uint256",
          "name": "index",
          "type": "uint256"
        }
      ],
      "name": "getRoleMember",
      "outputs": [
        {
          "internalType": "address",
          "name": "",
          "type": "address"
        }
      ],
      "stateMutability": "view",
      "type": "function"
    },
    {
      "inputs": [
        {
          "internalType": "bytes32",
          "name": "role",
          "type": "bytes32"
        }
      ],
      "name": "getRoleMemberCount",
      "outputs": [
        {
          "internalType": "uint256",
          "name": "",
          "type": "uint256"
        }
      ],
      "stateMutability": "view",
      "type": "function"
    },
    {
      "inputs": [
        {
          "internalType": "bytes32",
          "name": "role",
          "type": "bytes32"
        },
        {
          "internalType": "address",
          "name": "account",
          "type": "address"
        }
      ],
      "name": "getRoleMemberIndex",
      "outputs": [
        {
          "internalType": "uint256",
          "name": "",
          "type": "uint256"
        }
      ],
      "stateMutability": "view",
      "type": "function"
    },
    {
      "inputs": [
        {
          "internalType": "bytes32",
          "name": "role",
          "type": "bytes32"
        },
        {
          "internalType": "address",
          "name": "account",
          "type": "address"
        }
      ],
      "name": "grantRole",
      "outputs": [],
      "stateMutability": "nonpayable",
      "type": "function"
    },
    {
      "inputs": [
        {
          "internalType": "bytes32",
          "name": "role",
          "type": "bytes32"
        },
        {
          "internalType": "address",
          "name": "account",
          "type": "address"
        }
      ],
      "name": "hasRole",
      "outputs": [
        {
          "internalType": "bool",
          "name": "",
          "type": "bool"
        }
      ],
      "stateMutability": "view",
      "type": "function"
    },
    {
      "inputs": [
        {
          "internalType": "address",
          "name": "relayer",
          "type": "address"
        }
      ],
      "name": "isRelayer",
      "outputs": [
        {
          "internalType": "bool",
          "name": "",
          "type": "bool"
        }
      ],
      "stateMutability": "view",
      "type": "function"
    },
    {
      "inputs": [
        {
          "internalType": "address",
          "name": "",
          "type": "address"
        }
      ],
      "name": "isValidForwarder",
      "outputs": [
        {
          "internalType": "bool",
          "name": "",
          "type": "bool"
        }
      ],
      "stateMutability": "view",
      "type": "function"
    },
    {
      "inputs": [],
      "name": "paused",
      "outputs": [
        {
          "internalType": "bool",
          "name": "",
          "type": "bool"
        }
      ],
      "stateMutability": "view",
      "type": "function"
    },
    {
      "inputs": [
        {
          "internalType": "address",
          "name": "newAdmin",
          "type": "address"
        }
      ],
      "name": "renounceAdmin",
      "outputs": [],
      "stateMutability": "nonpayable",
      "type": "function"
    },
    {
      "inputs": [
        {
          "internalType": "bytes32",
          "name": "role",
          "type": "bytes32"
        },
        {
          "internalType": "address",
          "name": "account",
          "type": "address"
        }
      ],
      "name": "renounceRole",
      "outputs": [],
      "stateMutability": "nonpayable",
      "type": "function"
    },
    {
      "inputs": [
        {
          "internalType": "bytes32",
          "name": "role",
          "type": "bytes32"
        },
        {
          "internalType": "address",
          "name": "account",
          "type": "address"
        }
      ],
      "name": "revokeRole",
      "outputs": [],
      "stateMutability": "nonpayable",
      "type": "function"
    },
    {
      "inputs": [
        {
          "internalType": "uint8",
          "name": "",
          "type": "uint8"
        }
      ],
      "name": "special",
      "outputs": [
        {
          "internalType": "bool",
          "name": "",
          "type": "bool"
        }
      ],
      "stateMutability": "view",
      "type": "function"
    },
    {
      "inputs": [
        {
          "internalType": "uint8",
          "name": "",
          "type": "uint8"
        }
      ],
      "name": "specialFee",
      "outputs": [
        {
          "internalType": "uint256",
          "name": "",
          "type": "uint256"
        }
      ],
      "stateMutability": "view",
      "type": "function"
    },
    {
      "inputs": [
        {
          "internalType": "address payable[]",
          "name": "addrs",
          "type": "address[]"
        },
        {
          "internalType": "uint256[]",
          "name": "amounts",
          "type": "uint256[]"
        }
      ],
      "name": "transferFee",
      "outputs": [],
      "stateMutability": "nonpayable",
      "type": "function"
    },
    {
      "inputs": [
        {
          "internalType": "uint8",
          "name": "domainID",
          "type": "uint8"
        },
        {
          "internalType": "uint64",
          "name": "depositNonce",
          "type": "uint64"
        },
        {
          "internalType": "bytes32",
          "name": "resourceID",
          "type": "bytes32"
        },
        {
          "internalType": "bytes",
          "name": "data",
          "type": "bytes"
        }
      ],
      "name": "voteProposal",
      "outputs": [],
      "stateMutability": "nonpayable",
      "type": "function"
    },
    {
      "inputs": [
        {
          "internalType": "uint8",
          "name": "domainID",
          "type": "uint8"
        },
        {
          "internalType": "uint64",
          "name": "depositNonce",
          "type": "uint64"
        },
        {
          "internalType": "bytes32",
          "name": "resourceID",
          "type": "bytes32"
        },
        {
          "internalType": "bytes",
          "name": "data",
          "type": "bytes"
        },
        {
          "internalType": "bytes[]",
          "name": "signatures",
          "type": "bytes[]"
        }
      ],
      "name": "voteProposals",
      "outputs": [],
      "stateMutability": "nonpayable",
      "type": "function"
    }
  ],
  "bytecode": "0x6101406040523480156200001257600080fd5b5060405162004bd538038062004bd5833981016040819052620000359162000541565b604080518082018252600c81526b5065726d697442726964676560a01b6020808301918252835180850190945260038452620312e360ec1b908401528151902060e08190527fe6bbd6277e1bf288eed5e8d1780f9a50b239e86b153736bceebccf4ea79d90b36101008190524660a0529192917f8b73c3c69bb8fe3d512ecc4cf759cc79239f7b179b0ffacaa9a75d522b39400f620001198184846040805160208101859052908101839052606081018290524660808201523060a082015260009060c0016040516020818303038152906040528051906020012090509392505050565b6080523060c0526101205250506000805460ff199081169091556002805490911660ff8816179055506200015b90508262000247602090811b6200281117901c565b600260016101000a81548160ff021916908360ff1602179055506200018b81620002a460201b620028681760201c565b6002805464ffffffffff92909216620100000266ffffffffff000019909216919091179055620001c66000620001c0620002fd565b62000340565b60005b83518110156200023657620002217fe2b7fb3b832174769106daebcfd6d1970523240dda11281102db9363b83b0dc48583815181106200020d576200020d6200063f565b60200260200101516200035060201b60201c565b806200022d8162000655565b915050620001c9565b50506001600b55506200067f915050565b60006101008210620002a05760405162461bcd60e51b815260206004820152601c60248201527f76616c756520646f6573206e6f742066697420696e203820626974730000000060448201526064015b60405180910390fd5b5090565b6000650100000000008210620002a05760405162461bcd60e51b815260206004820152601d60248201527f76616c756520646f6573206e6f742066697420696e2034302062697473000000604482015260640162000297565b600033601436108015906200032a57506001600160a01b03811660009081526005602052604090205460ff165b156200033b575060131936013560601c5b919050565b6200034c8282620003dd565b5050565b600082815260016020526040902060020154620003779062000371620002fd565b62000458565b620003405760405162461bcd60e51b815260206004820152602f60248201527f416363657373436f6e74726f6c3a2073656e646572206d75737420626520616e60448201526e0818591b5a5b881d1bc819dc985b9d608a1b606482015260840162000297565b600082815260016020908152604090912062000404918390620028bf62000487821b17901c565b156200034c5762000414620002fd565b6001600160a01b0316816001600160a01b0316837f2f8788117e7eff1d82e926ec794901d17c78024a50270940304540a733656f0d60405160405180910390a45050565b600082815260016020908152604082206200047e918490620028d46200049e821b17901c565b90505b92915050565b60006200047e836001600160a01b038416620004c1565b6001600160a01b038116600090815260018301602052604081205415156200047e565b60008181526001830160205260408120546200050a5750815460018181018455600084815260208082209093018490558454848252828601909352604090209190915562000481565b50600062000481565b634e487b7160e01b600052604160045260246000fd5b80516001600160a01b03811681146200033b57600080fd5b600080600080608085870312156200055857600080fd5b845160ff811681146200056a57600080fd5b602086810151919550906001600160401b03808211156200058a57600080fd5b818801915088601f8301126200059f57600080fd5b815181811115620005b457620005b462000513565b8060051b604051601f19603f83011681018181108582111715620005dc57620005dc62000513565b60405291825284820192508381018501918b831115620005fb57600080fd5b938501935b828510156200062457620006148562000529565b8452938501939285019262000600565b60408b01516060909b0151999c909b50975050505050505050565b634e487b7160e01b600052603260045260246000fd5b60006000198214156200067857634e487b7160e01b600052601160045260246000fd5b5060010190565b60805160a05160c05160e0516101005161012051614506620006cf60003960006133d601526000613425015260006134000152600061335901526000613383015260006133ad01526145066000f3fe6080604052600436106103a25760003560e01c80639010d07c116101e7578063c5b37c221161010d578063e2469d40116100a0578063fe4648f41161006f578063fe4648f414610b86578063fe65c4be14610bb1578063fe6718a6146109b2578063ffaac0eb14610bd157600080fd5b8063e2469d4014610b00578063e7b14b5a14610b20578063edc20c3c14610b36578063f8c39e4414610b5657600080fd5b8063cdb0f73a116100dc578063cdb0f73a14610a81578063d15ef64e14610aa1578063d547741f14610ac1578063d7a9cd7914610ae157600080fd5b8063c5b37c22146109f2578063c5ec897014610a07578063ca15c87314610a41578063cb10f21514610a6157600080fd5b80639debb3bd11610185578063b67a4aaf11610154578063b67a4aaf14610965578063bd2a182014610992578063bea916f2146109b2578063c0331b3e146109d257600080fd5b80639debb3bd146108ee578063a06fbbff14610903578063a217fddf14610923578063a5c621f21461093857600080fd5b8063926d7d7f116101c1578063926d7d7f1461086a57806393cbe7831461088c5780639d82dd63146108a25780639dd694f4146108c257600080fd5b80639010d07c1461080a578063904e9b2b1461082a57806391d148541461084a57600080fd5b80635c975abb116102cc578063747734121161026a57806380ae1c281161023957806380ae1c281461076757806384db809f1461077c57806388b73be0146107ca5780638c0c2631146107ea57600080fd5b806374773412146106ff5780637d026d96146107125780637febe63f14610732578063802aabe81461075257600080fd5b80636d3b6eea116102a65780636d3b6eea1461068c5780636e2047bc146106ac5780637292dd91146106cc57806373c45c98146106ec57600080fd5b80635c975abb146106245780635e1fab0f1461063c57806362abd9ce1461065c57600080fd5b806336568abe116103445780634e37850a116103135780634e37850a146105945780634f2c0aec146105b4578063541d5548146105d45780635a1ad87c1461060457600080fd5b806336568abe146104c05780634b0b919d146104e05780634e0560051461052e5780634e0df3f61461054e57600080fd5b8063248a9ca311610380578063248a9ca31461041c5780632edb6f7c1461044c5780632f2ff15d1461046c57806330adf81f1461048c57600080fd5b8063083132c4146103a757806317f03ce5146103da578063206a98fd146103fc575b600080fd5b3480156103b357600080fd5b506103c76103c23660046138a4565b610be6565b6040519081526020015b60405180910390f35b3480156103e657600080fd5b506103fa6103f53660046138d6565b610bf7565b005b34801561040857600080fd5b506103fa610417366004613963565b610e8c565b34801561042857600080fd5b506103c76104373660046139df565b60009081526001602052604090206002015490565b34801561045857600080fd5b506103fa610467366004613a0d565b610f0f565b34801561047857600080fd5b506103fa610487366004613a2a565b610fc2565b34801561049857600080fd5b506103c77fc4cb5d35714699d6e85b9562b644e60393b418d974a5c1dd8efaadac37a142c581565b3480156104cc57600080fd5b506103fa6104db366004613a2a565b611052565b3480156104ec57600080fd5b506105166104fb3660046138a4565b6003602052600090815260409020546001600160401b031681565b6040516001600160401b0390911681526020016103d1565b34801561053a57600080fd5b506103fa6105493660046139df565b611064565b34801561055a57600080fd5b506103c7610569366004613a2a565b60008281526001602081815260408084206001600160a01b0386168552909201905290205492915050565b3480156105a057600080fd5b506103fa6105af3660046138a4565b6110c7565b3480156105c057600080fd5b506103fa6105cf3660046139df565b6110f5565b3480156105e057600080fd5b506105f46105ef366004613a0d565b611184565b60405190151581526020016103d1565b34801561061057600080fd5b506103fa61061f366004613a72565b61119e565b34801561063057600080fd5b5060005460ff166105f4565b34801561064857600080fd5b506103fa610657366004613a0d565b611254565b34801561066857600080fd5b506105f46106773660046138a4565b600a6020526000908152604090205460ff1681565b34801561069857600080fd5b506103fa6106a7366004613b93565b6112e0565b3480156106b857600080fd5b506103fa6106c7366004613be2565b61134d565b3480156106d857600080fd5b506103fa6106e7366004613c0c565b611380565b6103fa6106fa366004613d22565b61182b565b34801561070b57600080fd5b50466103c7565b34801561071e57600080fd5b506103fa61072d3660046139df565b61184e565b34801561073e57600080fd5b506105f461074d366004613dab565b611883565b34801561075e57600080fd5b506103c7611927565b34801561077357600080fd5b506103fa611945565b34801561078857600080fd5b506107b26107973660046139df565b6004602052600090815260409020546001600160a01b031681565b6040516001600160a01b0390911681526020016103d1565b3480156107d657600080fd5b506103fa6107e5366004613df9565b61195f565b3480156107f657600080fd5b506103fa610805366004613e37565b6119b3565b34801561081657600080fd5b506107b2610825366004613e65565b6119ec565b34801561083657600080fd5b506103fa610845366004613ecb565b611a0b565b34801561085657600080fd5b506105f4610865366004613a2a565b611c01565b34801561087657600080fd5b506103c76000805160206144b183398151915281565b34801561089857600080fd5b506103c760075481565b3480156108ae57600080fd5b506103fa6108bd366004613a0d565b611c19565b3480156108ce57600080fd5b506002546108dc9060ff1681565b60405160ff90911681526020016103d1565b3480156108fa57600080fd5b506103c760c881565b34801561090f57600080fd5b506103fa61091e3660046138a4565b611c7a565b34801561092f57600080fd5b506103c7600081565b34801561094457600080fd5b50610958610953366004613f36565b611c98565b6040516103d19190613fdc565b34801561097157600080fd5b506103c76109803660046138a4565b60096020526000908152604090205481565b34801561099e57600080fd5b506103fa6109ad366004613b93565b611da7565b3480156109be57600080fd5b506103fa6109cd366004614025565b611ddd565b3480156109de57600080fd5b506103fa6109ed366004613f36565b611e3b565b3480156109fe57600080fd5b506007546103c7565b348015610a1357600080fd5b50600254610a2b9062010000900464ffffffffff1681565b60405164ffffffffff90911681526020016103d1565b348015610a4d57600080fd5b506103c7610a5c3660046139df565b612371565b348015610a6d57600080fd5b506103fa610a7c366004614025565b612388565b348015610a8d57600080fd5b506103fa610a9c366004613a0d565b6123e9565b348015610aad57600080fd5b506103fa610abc366004614045565b612492565b348015610acd57600080fd5b506103fa610adc366004613a2a565b6124c5565b348015610aed57600080fd5b506002546108dc90610100900460ff1681565b348015610b0c57600080fd5b506103fa610b1b366004613a0d565b612552565b348015610b2c57600080fd5b506103c760085481565b348015610b4257600080fd5b506103fa610b5136600461407a565b612636565b348015610b6257600080fd5b506105f4610b71366004613a0d565b60056020526000908152604090205460ff1681565b348015610b9257600080fd5b506002546107b29067010000000000000090046001600160a01b031681565b348015610bbd57600080fd5b506105f4610bcc3660046140a4565b6126ef565b348015610bdd57600080fd5b506103fa6127f9565b6000610bf1826128f6565b92915050565b610bff612935565b60ff838116600884901b68ffffffffffffffff0016176000818152600660209081526040808320868452909152808220815160808101909252805493949293919290918391166004811115610c5657610c56613fa4565b6004811115610c6757610c67613fa4565b8152905461010081046001600160c81b03166020830152600160d01b810460ff166040830152600160d81b900464ffffffffff1660609091015280519091506001816004811115610cba57610cba613fa4565b1480610cd757506002816004811115610cd557610cd5613fa4565b145b610d285760405162461bcd60e51b815260206004820152601c60248201527f50726f706f73616c2063616e6e6f742062652063616e63656c6c65640000000060448201526064015b60405180910390fd5b600254606083015164ffffffffff62010000909204821691610d4c914391166129b9565b64ffffffffff1611610da05760405162461bcd60e51b815260206004820181905260248201527f50726f706f73616c206e6f7420617420657870697279207468726573686f6c646044820152606401610d1f565b60048083526001600160481b03841660009081526006602090815260408083208884529091529020835181548593839160ff1916906001908490811115610de957610de9613fa4565b02179055506020820151815460408085015160609095015164ffffffffff16600160d81b026001600160d81b0360ff909616600160d01b0260ff60d01b196001600160c81b039095166101000294909416610100600160d81b03199093169290921792909217939093169290921790555160008051602061449183398151915290610e7c9088908890600490899061413e565b60405180910390a1505050505050565b610e946129fb565b610e9c612a61565b6002600b541415610eef5760405162461bcd60e51b815260206004820152601f60248201527f5265656e7472616e637947756172643a207265656e7472616e742063616c6c006044820152606401610d1f565b6002600b55610f02868686868686612aa7565b50506001600b5550505050565b610f17612d1f565b60025460ff16600081610f2c81610100614189565b610f3691906141a8565b60008181526004602081905260409182902080546001600160a01b0319169055905163a981575160e01b81529081018290526001600160a01b038481166024830152919250849182169063a9815751906044015b600060405180830381600087803b158015610fa457600080fd5b505af1158015610fb8573d6000803e3d6000fd5b5050505050505050565b600082815260016020526040902060020154610fe090610865612d78565b6110445760405162461bcd60e51b815260206004820152602f60248201527f416363657373436f6e74726f6c3a2073656e646572206d75737420626520616e60448201526e0818591b5a5b881d1bc819dc985b9d608a1b6064820152608401610d1f565b61104e8282612db7565b5050565b61105a612e20565b61104e8282612e69565b61106c612d1f565b61107581612811565b6002805460ff929092166101000261ff00199092169190911790556040518181527fa20d6b84cd798a24038be305eff8a45ca82ef54a2aa2082005d8e14c0a4746c8906020015b60405180910390a150565b6110cf612d1f565b60ff166000908152600a60209081526040808320805460ff191690556009909152812055565b6110fd612d1f565b80600754141561114f5760405162461bcd60e51b815260206004820152601f60248201527f43757272656e742066656520697320657175616c20746f206e657720666565006044820152606401610d1f565b60078190556040518181527f6bbc57480a46553fa4d156ce702beef5f3ad66303b0ed1a5d4cb44966c6584c3906020016110bc565b6000610bf16000805160206144b183398151915283611c01565b6111a6612d1f565b60008581526004602081905260409182902080546001600160a01b0319166001600160a01b038a8116918217909255925163de319d9960e01b8152918201889052861660248201526001600160e01b03198086166044830152606482018590528316608482015287919063de319d999060a401600060405180830381600087803b15801561123357600080fd5b505af1158015611247573d6000803e3d6000fd5b5050505050505050505050565b61125c612d1f565b6000611266612d78565b9050816001600160a01b0316816001600160a01b031614156112ca5760405162461bcd60e51b815260206004820152601760248201527f43616e6e6f742072656e6f756e6365206f6e6573656c660000000000000000006044820152606401610d1f565b6112d5600083610fc2565b61104e600082611052565b6112e8612d1f565b60405163ab5c7bf160e01b815282906001600160a01b0382169063ab5c7bf19061131690859060040161421c565b600060405180830381600087803b15801561133057600080fd5b505af1158015611344573d6000803e3d6000fd5b50505050505050565b611355612d1f565b60ff9091166000908152600a60209081526040808320805460ff191660011790556009909152902055565b611388612a61565b6000848152600460205260409020546001600160a01b0316806113e95760405162461bcd60e51b81526020600482015260196024820152781b9bc81a185b991b195c88199bdc881c995cdbdd5c98d95251603a1b6044820152606401610d1f565b600085828686604051602001611402949392919061422f565b60408051808303601f190181529190528051602090910120835160025491925090610100900460ff168110156114885760405162461bcd60e51b815260206004820152602560248201527f5369676e617475726573206c656e677468203e3d2072656c61796572546872656044820152641cda1bdb1960da1b6064820152608401610d1f565b604080516080810182526001815260006020820181905281830181905264ffffffffff43166060830152915190919061154e907fc4cb5d35714699d6e85b9562b644e60393b418d974a5c1dd8efaadac37a142c5908d908d908d906114f0908e908e90614262565b604051908190038120611533959493929160200194855260ff9390931660208501526001600160401b039190911660408401526060830152608082015260a00190565b60405160208183030381529060405280519060200120612ee9565b905060005b8381101561166e5760006115808389848151811061157357611573614272565b6020026020010151612f37565b905061159a6000805160206144b183398151915282611c01565b6115c95760405163c41f0f6960e01b81526001600160a01b038216600482015260248101839052604401610d1f565b6115d38482612f5b565b156116185760405162461bcd60e51b81526020600482015260156024820152741c995b185e595c88185b1c9958591e481d9bdd1959605a1b6044820152606401610d1f565b61163861162482612f7e565b85602001516001600160c81b031617612fcb565b6001600160c81b031660208501526040840180519061165682614288565b60ff169052506116679050816142a8565b9050611553565b506003825260405163712467f960e11b815285906001600160a01b0382169063e248cff2906116a5908d908d908d906004016142ec565b600060405180830381600087803b1580156116bf57600080fd5b505af11580156116d3573d6000803e3d6000fd5b505050506000805160206144918339815191528c8c6003886040516116fb949392919061413e565b60405180910390a160ff8c811660088d901b68ffffffffffffffff00161760008181526006602090815260408083208a8452909152902054909160019116600481111561174a5761174a613fa4565b11156117685760405162461bcd60e51b8152600401610d1f90614306565b6001600160481b038116600090815260066020908152604080832089845290915290208451815486929190829060ff191660018360048111156117ad576117ad613fa4565b021790555060208201518154604084015160609094015164ffffffffff16600160d81b026001600160d81b0360ff909516600160d01b0260ff60d01b196001600160c81b039094166101000293909316610100600160d81b031990921691909117919091179290921691909117905550505050505050505050505050565b611833612a61565b600061183d612d78565b905061134481888888888888613020565b611856612d1f565b61185f81612868565b6002806101000a81548164ffffffffff021916908364ffffffffff16021790555050565b6001600160481b0383166000908152600660209081526040808320858452909152808220815160808101909252805461191f929190829060ff1660048111156118ce576118ce613fa4565b60048111156118df576118df613fa4565b8152905461010081046001600160c81b03166020830152600160d01b810460ff166040830152600160d81b900464ffffffffff1660609091015283612f5b565b949350505050565b60006119406000805160206144b1833981519152612371565b905090565b61194d612d1f565b61195d611958612d78565b6131ab565b565b611967612d1f565b60008381526004602081905260409182902054915163789d771160e01b81526001600160a01b03858116928201929092528315156024820152911690819063789d771190604401610f8a565b6119bb612d1f565b6040516307b7ed9960e01b81526001600160a01b0382811660048301528391908216906307b7ed9990602401611316565b6000828152600160205260408120611a0490836131f9565b9392505050565b611a13612d1f565b828114611a625760405162461bcd60e51b815260206004820152601f60248201527f61646472735b5d2c20616d6f756e74735b5d3a2064696666206c656e677468006044820152606401610d1f565b60005b83811015611bfa576000858583818110611a8157611a81614272565b9050602002016020810190611a969190613a0d565b6001600160a01b0316848484818110611ab157611ab1614272565b9050602002013560405160006040518083038185875af1925050503d8060008114611af8576040519150601f19603f3d011682016040523d82523d6000602084013e611afd565b606091505b5050905080611b4e5760405162461bcd60e51b815260206004820152601960248201527f466565206574686572207472616e73666572206661696c6564000000000000006044820152606401610d1f565b7faaa40a232aaf133fdd28f3485f6fdd163514cfadbffa981f3610f42398efe34b6000878785818110611b8357611b83614272565b9050602002016020810190611b989190613a0d565b868686818110611baa57611baa614272565b90506020020135604051611bdf939291906001600160a01b039384168152919092166020820152604081019190915260600190565b60405180910390a15080611bf2816142a8565b915050611a65565b5050505050565b6000828152600160205260408120611a0490836128d4565b611c21612d1f565b611c29612e20565b611c416000805160206144b1833981519152826124c5565b6040516001600160a01b03821681527f10e1f7ce9fd7d1b90a66d13a2ab3cb8dd7f29f3f8d520b143b063ccfbab6906b906020016110bc565b611c82612d1f565b6002805460ff191660ff92909216919091179055565b6040805160808101825260008082526020808301829052828401829052606083018290528682526004815283822054935192936001600160a01b031692611ce79188918591899189910161422f565b60408051808303601f19018152828252805160209182012060ff8c811660088d901b68ffffffffffffffff00161760008181526006855285812084825290945292849020608086019094528354919550919392918391166004811115611d4f57611d4f613fa4565b6004811115611d6057611d60613fa4565b8152905461010081046001600160c81b03166020830152600160d01b810460ff166040830152600160d81b900464ffffffffff166060909101529998505050505050505050565b611daf612d1f565b60405163025a3c9960e21b815282906001600160a01b03821690630968f2649061131690859060040161421c565b611de5612d1f565b60008281526004602081905260409182902080546001600160a01b0319169055905163a981575160e01b81529081018390526001600160a01b03828116602483015284919082169063a981575190604401610f8a565b611e436129fb565b611e4b612a61565b6002600b541415611e9e5760405162461bcd60e51b815260206004820152601f60248201527f5265656e7472616e637947756172643a207265656e7472616e742063616c6c006044820152606401610d1f565b6002600b5560008381526004602090815260408083205490516001600160a01b039091169268ffffffffffffffff00600889901b1660ff8a1617929091611eed9188918691899189910161422f565b60408051601f1981840301815282825280516020918201206001600160481b03861660009081526006835283812082825290925282822060808501909352825490945090929190829060ff166004811115611f4a57611f4a613fa4565b6004811115611f5b57611f5b613fa4565b8152905461010081046001600160c81b0316602080840191909152600160d01b820460ff16604080850191909152600160d81b90920464ffffffffff1660609093019290925260008a815260049092529020549091506001600160a01b03166120025760405162461bcd60e51b81526020600482015260196024820152781b9bc81a185b991b195c88199bdc881c995cdbdd5c98d95251603a1b6044820152606401610d1f565b60028151600481111561201757612017613fa4565b14156120355761202c898988888b6001612aa7565b50505050612365565b600061203f612d78565b905060018260000151600481111561205957612059613fa4565b11156120775760405162461bcd60e51b8152600401610d1f90614306565b6120818282612f5b565b156120c65760405162461bcd60e51b81526020600482015260156024820152741c995b185e595c88185b1c9958591e481d9bdd1959605a1b6044820152606401610d1f565b6000825160048111156120db576120db613fa4565b141561213b576040805160808101825260018082526000602083018190528284015264ffffffffff4316606083015291519093506000805160206144918339815191529161212e918d918d91889061413e565b60405180910390a161219c565b600254606083015164ffffffffff6201000090920482169161215f914391166129b9565b64ffffffffff16111561219c57600480835260405160008051602061449183398151915291612193918d918d91889061413e565b60405180910390a15b6004825160048111156121b1576121b1613fa4565b14612281576121d66121c282612f7e565b83602001516001600160c81b031617612fcb565b6001600160c81b03166020830152604082018051906121f482614288565b60ff1690525081516040517f25f8daaa4635a7729927ba3f5b3d59cc3320aca7c32c9db4e7ca7b957434364091612230918d918d91889061413e565b60405180910390a1600254604083015160ff610100909204821691161061228157600280835260405160008051602061449183398151915291612278918d918d91889061413e565b60405180910390a15b6001600160481b038416600090815260066020908152604080832086845290915290208251815484929190829060ff191660018360048111156122c6576122c6613fa4565b021790555060208201518154604084015160609094015164ffffffffff16600160d81b026001600160d81b0360ff909516600160d01b0260ff60d01b196001600160c81b039094166101000293909316610100600160d81b031990921691909117919091179290921691909117905560028251600481111561234a5761234a613fa4565b141561235f5761235f8a8a89898c6000612aa7565b50505050505b50506001600b55505050565b6000818152600160205260408120610bf190613205565b612390612d1f565b60008281526004602081905260409182902080546001600160a01b0319166001600160a01b038781169182179092559251635c7d1b9b60e11b81529182018590528316602482015284919063b8fa373690604401610f8a565b6123f1612d1f565b60c86123fb611927565b106124415760405162461bcd60e51b81526020600482015260166024820152751c995b185e595c9cc81b1a5b5a5d081c995858da195960521b6044820152606401610d1f565b6124596000805160206144b183398151915282610fc2565b6040516001600160a01b03821681527f03580ee9f53a62b7cb409a2cb56f9be87747dd15017afc5cef6eef321e4fb2c5906020016110bc565b61249a612d1f565b6001600160a01b03919091166000908152600560205260409020805460ff1916911515919091179055565b6000828152600160205260409020600201546124e390610865612d78565b6125485760405162461bcd60e51b815260206004820152603060248201527f416363657373436f6e74726f6c3a2073656e646572206d75737420626520616e60448201526f2061646d696e20746f207265766f6b6560801b6064820152608401610d1f565b61104e828261320f565b61255a612d1f565b60025460ff1660008161256f81610100614189565b61257991906141a8565b60008181526004602081905260409182902080546001600160a01b0319166001600160a01b038881169182179092559251635c7d1b9b60e11b815291820184905285166024820152919250849163b8fa373690604401600060405180830381600087803b1580156125e957600080fd5b505af11580156125fd573d6000803e3d6000fd5b505060405163789d771160e01b81526001600160a01b038681166004830152600160248301528416925063789d77119150604401610f8a565b61263e612d1f565b60ff82166000908152600360205260409020546001600160401b03908116908216116126bb5760405162461bcd60e51b815260206004820152602660248201527f446f6573206e6f7420616c6c6f772064656372656d656e7473206f6620746865604482015265206e6f6e636560d01b6064820152608401610d1f565b60ff919091166000908152600360205260409020805467ffffffffffffffff19166001600160401b03909216919091179055565b6000807fc4cb5d35714699d6e85b9562b644e60393b418d974a5c1dd8efaadac37a142c58989898989604051612726929190614262565b604051908190038120612769959493929160200194855260ff9390931660208501526001600160401b039190911660408401526060830152608082015260a00190565b604051602081830303815290604052805190602001209050600061278c82612ee9565b905060006127d08287878080601f016020809104026020016040519081016040528093929190818152602001838380828437600092019190915250612f3792505050565b90506127ea6000805160206144b183398151915282611c01565b9b9a5050505050505050505050565b612801612d1f565b61195d61280c612d78565b613278565b600061010082106128645760405162461bcd60e51b815260206004820152601c60248201527f76616c756520646f6573206e6f742066697420696e20382062697473000000006044820152606401610d1f565b5090565b60006501000000000082106128645760405162461bcd60e51b815260206004820152601d60248201527f76616c756520646f6573206e6f742066697420696e20343020626974730000006044820152606401610d1f565b6000611a04836001600160a01b0384166132c3565b6001600160a01b03811660009081526001830160205260408120541515611a04565b60ff8082166000908152600a602052604081205490911615612928575060ff1660009081526009602052604090205490565b505060075490565b919050565b600061293f612d78565b905061294c600082611c01565b8061296a575061296a6000805160206144b183398151915282611c01565b6129b65760405162461bcd60e51b815260206004820152601e60248201527f73656e646572206973206e6f742072656c61796572206f722061646d696e00006044820152606401610d1f565b50565b6000611a0483836040518060400160405280601e81526020017f536166654d6174683a207375627472616374696f6e206f766572666c6f770000815250613312565b612a156000805160206144b1833981519152610865612d78565b61195d5760405162461bcd60e51b815260206004820181905260248201527f73656e64657220646f65736e277420686176652072656c6179657220726f6c656044820152606401610d1f565b60005460ff161561195d5760405162461bcd60e51b815260206004820152601060248201526f14185d5cd8589b194e881c185d5cd95960821b6044820152606401610d1f565b60008281526004602090815260408083205490516001600160a01b039091169268ffffffffffffffff0060088a901b1660ff8b1617929091612af191879186918b918b910161422f565b60408051601f1981840301815291815281516020928301206001600160481b03851660009081526006845282812082825290935291209091506002815460ff166004811115612b4257612b42613fa4565b14612b8f5760405162461bcd60e51b815260206004820181905260248201527f50726f706f73616c206d757374206861766520506173736564207374617475736044820152606401610d1f565b805460ff19166003178155838515612c085760405163712467f960e11b81526001600160a01b0382169063e248cff290612bd1908a908d908d906004016142ec565b600060405180830381600087803b158015612beb57600080fd5b505af1158015612bff573d6000803e3d6000fd5b50505050612ce5565b60405163712467f960e11b81526001600160a01b0382169063e248cff290612c38908a908d908d906004016142ec565b600060405180830381600087803b158015612c5257600080fd5b505af1925050508015612c63575060015b612ce5573d808015612c91576040519150601f19603f3d011682016040523d82523d6000602084013e612c96565b606091505b50825460ff191660021783556040517fbd37c1f0d53bb2f33fe4c2104de272fcdeb4d2fef3acdbf1e4ddc3d6833ca37690612cd290839061421c565b60405180910390a1505050505050612d17565b6000805160206144918339815191528b8b600386604051612d09949392919061413e565b60405180910390a150505050505b505050505050565b612d2c6000610865612d78565b61195d5760405162461bcd60e51b815260206004820152601e60248201527f73656e64657220646f65736e277420686176652061646d696e20726f6c6500006044820152606401610d1f565b60003360143610801590612da457506001600160a01b03811660009081526005602052604090205460ff165b1561293057505036601319013560601c90565b6000828152600160205260409020612dcf90826128bf565b1561104e57612ddc612d78565b6001600160a01b0316816001600160a01b0316837f2f8788117e7eff1d82e926ec794901d17c78024a50270940304540a733656f0d60405160405180910390a45050565b60005460ff1661195d5760405162461bcd60e51b815260206004820152601460248201527314185d5cd8589b194e881b9bdd081c185d5cd95960621b6044820152606401610d1f565b612e71612d78565b6001600160a01b0316816001600160a01b0316146125485760405162461bcd60e51b815260206004820152602f60248201527f416363657373436f6e74726f6c3a2063616e206f6e6c792072656e6f756e636560448201526e103937b632b9903337b91039b2b63360891b6064820152608401610d1f565b6000610bf1612ef661334c565b8360405161190160f01b6020820152602281018390526042810182905260009060620160405160208183030381529060405280519060200120905092915050565b6000806000612f468585613473565b91509150612f53816134b9565b509392505050565b60008083602001516001600160c81b0316612f7584612f7e565b16119392505050565b6001600160a01b03811660009081527f9b7fc797995519db25593326970d3304279d74cdaa6b7cc1a414e3eb0491de546020526040812054612fc19060016129b9565b6001901b92915050565b6000600160c81b82106128645760405162461bcd60e51b815260206004820152601e60248201527f76616c756520646f6573206e6f742066697420696e20323030206269747300006044820152606401610d1f565b34600061302c886128f6565b90506130388183614349565b9150806008600082825461304c91906141a8565b90915550506000878152600460205260409020546001600160a01b031680613087576040516308c231dd60e31b815260040160405180910390fd5b60ff89166000908152600360205260408120805482906130af906001600160401b0316614360565b91906101000a8154816001600160401b0302191690836001600160401b03160217905590506000826001600160a01b031663b07e54bb868c8f8d8d6040518663ffffffff1660e01b81526004016131099493929190614387565b60006040518083038185885af1158015613127573d6000803e3d6000fd5b50505050506040513d6000823e601f3d908101601f1916820160405261315091908101906143bc565b90508b6001600160a01b03167f17bc3181e17a9620a479c24e6c606e474ba84fc036877b768926872e8cd0e11f8c8c858d8d8760405161319596959493929190614429565b60405180910390a2505050505050505050505050565b6131b3612a61565b6000805460ff191660011790556040516001600160a01b03821681527f62e78cea01bee320cd4e420270b5ea74000d11b0c9f74754ebdbfc544b05a258906020016110bc565b6000611a048383613674565b6000610bf1825490565b6000828152600160205260409020613227908261369e565b1561104e57613234612d78565b6001600160a01b0316816001600160a01b0316837ff6391f5c32d9c69d2a47ea670b442974b53935d1edc7fd64eb21e047a839171b60405160405180910390a45050565b613280612e20565b6000805460ff191690556040516001600160a01b03821681527f5db9ee0a495bf2e6ff9c91a7834c1ba4fdd244a5e8aa4e537bd38aeae4b073aa906020016110bc565b600081815260018301602052604081205461330a57508154600181810184556000848152602080822090930184905584548482528286019093526040902091909155610bf1565b506000610bf1565b600081848411156133365760405162461bcd60e51b8152600401610d1f919061421c565b5060006133438486614349565b95945050505050565b6000306001600160a01b037f0000000000000000000000000000000000000000000000000000000000000000161480156133a557507f000000000000000000000000000000000000000000000000000000000000000046145b156133cf57507f000000000000000000000000000000000000000000000000000000000000000090565b50604080517f00000000000000000000000000000000000000000000000000000000000000006020808301919091527f0000000000000000000000000000000000000000000000000000000000000000828401527f000000000000000000000000000000000000000000000000000000000000000060608301524660808301523060a0808401919091528351808403909101815260c0909201909252805191012090565b6000808251604114156134aa5760208301516040840151606085015160001a61349e878285856136b3565b945094505050506134b2565b506000905060025b9250929050565b60008160048111156134cd576134cd613fa4565b14156134d65750565b60018160048111156134ea576134ea613fa4565b14156135385760405162461bcd60e51b815260206004820152601860248201527f45434453413a20696e76616c6964207369676e617475726500000000000000006044820152606401610d1f565b600281600481111561354c5761354c613fa4565b141561359a5760405162461bcd60e51b815260206004820152601f60248201527f45434453413a20696e76616c6964207369676e6174757265206c656e677468006044820152606401610d1f565b60038160048111156135ae576135ae613fa4565b14156136075760405162461bcd60e51b815260206004820152602260248201527f45434453413a20696e76616c6964207369676e6174757265202773272076616c604482015261756560f01b6064820152608401610d1f565b600481600481111561361b5761361b613fa4565b14156129b65760405162461bcd60e51b815260206004820152602260248201527f45434453413a20696e76616c6964207369676e6174757265202776272076616c604482015261756560f01b6064820152608401610d1f565b600082600001828154811061368b5761368b614272565b9060005260206000200154905092915050565b6000611a04836001600160a01b0384166137a0565b6000807f7fffffffffffffffffffffffffffffff5d576e7357a4501ddfe92f46681b20a08311156136ea5750600090506003613797565b8460ff16601b1415801561370257508460ff16601c14155b156137135750600090506004613797565b6040805160008082526020820180845289905260ff881692820192909252606081018690526080810185905260019060a0016020604051602081039080840390855afa158015613767573d6000803e3d6000fd5b5050604051601f1901519150506001600160a01b03811661379057600060019250925050613797565b9150600090505b94509492505050565b600081815260018301602052604081205480156138895760006137c4600183614349565b85549091506000906137d890600190614349565b905081811461383d5760008660000182815481106137f8576137f8614272565b906000526020600020015490508087600001848154811061381b5761381b614272565b6000918252602080832090910192909255918252600188019052604090208390555b855486908061384e5761384e61447a565b600190038181906000526020600020016000905590558560010160008681526020019081526020016000206000905560019350505050610bf1565b6000915050610bf1565b803560ff8116811461293057600080fd5b6000602082840312156138b657600080fd5b611a0482613893565b80356001600160401b038116811461293057600080fd5b6000806000606084860312156138eb57600080fd5b6138f484613893565b9250613902602085016138bf565b9150604084013590509250925092565b60008083601f84011261392457600080fd5b5081356001600160401b0381111561393b57600080fd5b6020830191508360208285010111156134b257600080fd5b8035801515811461293057600080fd5b60008060008060008060a0878903121561397c57600080fd5b61398587613893565b9550613993602088016138bf565b945060408701356001600160401b038111156139ae57600080fd5b6139ba89828a01613912565b909550935050606087013591506139d360808801613953565b90509295509295509295565b6000602082840312156139f157600080fd5b5035919050565b6001600160a01b03811681146129b657600080fd5b600060208284031215613a1f57600080fd5b8135611a04816139f8565b60008060408385031215613a3d57600080fd5b823591506020830135613a4f816139f8565b809150509250929050565b80356001600160e01b03198116811461293057600080fd5b60008060008060008060c08789031215613a8b57600080fd5b8635613a96816139f8565b9550602087013594506040870135613aad816139f8565b9350613abb60608801613a5a565b9250608087013591506139d360a08801613a5a565b634e487b7160e01b600052604160045260246000fd5b604051601f8201601f191681016001600160401b0381118282101715613b0e57613b0e613ad0565b604052919050565b60006001600160401b03821115613b2f57613b2f613ad0565b50601f01601f191660200190565b600082601f830112613b4e57600080fd5b8135613b61613b5c82613b16565b613ae6565b818152846020838601011115613b7657600080fd5b816020850160208301376000918101602001919091529392505050565b60008060408385031215613ba657600080fd5b8235613bb1816139f8565b915060208301356001600160401b03811115613bcc57600080fd5b613bd885828601613b3d565b9150509250929050565b60008060408385031215613bf557600080fd5b613bfe83613893565b946020939093013593505050565b60008060008060008060a08789031215613c2557600080fd5b613c2e87613893565b95506020613c3d8189016138bf565b95506040880135945060608801356001600160401b0380821115613c6057600080fd5b613c6c8b838c01613912565b909650945060808a0135915080821115613c8557600080fd5b818a0191508a601f830112613c9957600080fd5b813581811115613cab57613cab613ad0565b8060051b613cba858201613ae6565b918252838101850191858101908e841115613cd457600080fd5b86860192505b83831015613d0e578483351115613cf057600080fd5b613cff8f888535890101613b3d565b82529186019190860190613cda565b809750505050505050509295509295509295565b60008060008060008060808789031215613d3b57600080fd5b613d4487613893565b95506020870135945060408701356001600160401b0380821115613d6757600080fd5b613d738a838b01613912565b90965094506060890135915080821115613d8c57600080fd5b50613d9989828a01613912565b979a9699509497509295939492505050565b600080600060608486031215613dc057600080fd5b83356001600160481b0381168114613dd757600080fd5b9250602084013591506040840135613dee816139f8565b809150509250925092565b600080600060608486031215613e0e57600080fd5b833592506020840135613e20816139f8565b9150613e2e60408501613953565b90509250925092565b60008060408385031215613e4a57600080fd5b8235613e55816139f8565b91506020830135613a4f816139f8565b60008060408385031215613e7857600080fd5b50508035926020909101359150565b60008083601f840112613e9957600080fd5b5081356001600160401b03811115613eb057600080fd5b6020830191508360208260051b85010111156134b257600080fd5b60008060008060408587031215613ee157600080fd5b84356001600160401b0380821115613ef857600080fd5b613f0488838901613e87565b90965094506020870135915080821115613f1d57600080fd5b50613f2a87828801613e87565b95989497509550505050565b600080600080600060808688031215613f4e57600080fd5b613f5786613893565b9450613f65602087016138bf565b93506040860135925060608601356001600160401b03811115613f8757600080fd5b613f9388828901613912565b969995985093965092949392505050565b634e487b7160e01b600052602160045260246000fd5b60058110613fd857634e487b7160e01b600052602160045260246000fd5b9052565b6000608082019050613fef828451613fba565b60018060c81b03602084015116602083015260ff604084015116604083015264ffffffffff606084015116606083015292915050565b60008060006060848603121561403a57600080fd5b8335613dd7816139f8565b6000806040838503121561405857600080fd5b8235614063816139f8565b915061407160208401613953565b90509250929050565b6000806040838503121561408d57600080fd5b61409683613893565b9150614071602084016138bf565b600080600080600080600060a0888a0312156140bf57600080fd5b6140c888613893565b96506140d6602089016138bf565b95506040880135945060608801356001600160401b03808211156140f957600080fd5b6141058b838c01613912565b909650945060808a013591508082111561411e57600080fd5b5061412b8a828b01613912565b989b979a50959850939692959293505050565b60ff851681526001600160401b0384166020820152608081016141646040830185613fba565b82606083015295945050505050565b634e487b7160e01b600052601160045260246000fd5b60008160001904831182151516156141a3576141a3614173565b500290565b600082198211156141bb576141bb614173565b500190565b60005b838110156141db5781810151838201526020016141c3565b838111156141ea576000848401525b50505050565b600081518084526142088160208601602086016141c0565b601f01601f19169290920160200192915050565b602081526000611a0460208301846141f0565b8481526bffffffffffffffffffffffff198460601b16602082015281836034830137600091016034019081529392505050565b8183823760009101908152919050565b634e487b7160e01b600052603260045260246000fd5b600060ff821660ff81141561429f5761429f614173565b60010192915050565b60006000198214156142bc576142bc614173565b5060010190565b81835281816020850137506000828201602090810191909152601f909101601f19169091010190565b8381526040602082015260006133436040830184866142c3565b60208082526023908201527f70726f706f73616c20616c72656164792065786563757465642f63616e63656c6040820152621b195960ea1b606082015260800190565b60008282101561435b5761435b614173565b500390565b60006001600160401b038083168181141561437d5761437d614173565b6001019392505050565b8481526001600160a01b03841660208201526060604082018190526000906143b290830184866142c3565b9695505050505050565b6000602082840312156143ce57600080fd5b81516001600160401b038111156143e457600080fd5b8201601f810184136143f557600080fd5b8051614403613b5c82613b16565b81815285602083850101111561441857600080fd5b6133438260208301602086016141c0565b60ff871681528560208201526001600160401b038516604082015260a06060820152600061445b60a0830185876142c3565b828103608084015261446d81856141f0565b9998505050505050505050565b634e487b7160e01b600052603160045260246000fdfe968626a768e76ba1363efe44e322a6c4900c5f084e0b45f35e294dfddaa9e0d5e2b7fb3b832174769106daebcfd6d1970523240dda11281102db9363b83b0dc4a26469706673582212204e511e12c00ee737dcf863f8fb2889e9f9e9f702a58ce21601e824ad22b9d41464736f6c634300080b0033",
  "linkReferences": {},
  "deployedLinkReferences": {}
}