{
  "_format": "hh-sol-artifact-1",
  "contractName": "Bridge",
  "sourceName": "contracts/Bridge.sol",
  "abi": [
    {
      "inputs": [
        {
          "internalType": "uint8",
          "name": "domainID",
          "type": "uint8"
        },
        {
          "internalType": "address[]",
          "name": "initialRelayers",
          "type": "address[]"
        },
        {
          "internalType": "uint256",
          "name": "initialRelayerThreshold",
          "type": "uint256"
        },
        {
          "internalType": "uint256",
          "name": "expiry",
          "type": "uint256"
        }
      ],
      "stateMutability": "nonpayable",
      "type": "constructor"
    },
    {
      "inputs": [
        {
          "internalType": "uint256",
          "name": "msgValue",
          "type": "uint256"
        },
        {
          "internalType": "uint256",
          "name": "fee",
          "type": "uint256"
        }
      ],
      "name": "IncorrectFeeSupplied",
      "type": "error"
    },
    {
      "inputs": [
        {
          "internalType": "address",
          "name": "signer",
          "type": "address"
        },
        {
          "internalType": "uint256",
          "name": "index",
          "type": "uint256"
        }
      ],
      "name": "InvalidSignature",
      "type": "error"
    },
    {
      "inputs": [],
      "name": "ResourceIDNotMappedToHandler",
      "type": "error"
    },
    {
      "anonymous": false,
      "inputs": [
        {
          "indexed": false,
          "internalType": "uint8",
          "name": "destinationDomainID",
          "type": "uint8"
        },
        {
          "indexed": false,
          "internalType": "bytes32",
          "name": "resourceID",
          "type": "bytes32"
        },
        {
          "indexed": false,
          "internalType": "uint64",
          "name": "depositNonce",
          "type": "uint64"
        },
        {
          "indexed": true,
          "internalType": "address",
          "name": "user",
          "type": "address"
        },
        {
          "indexed": false,
          "internalType": "bytes",
          "name": "data",
          "type": "bytes"
        },
        {
          "indexed": false,
          "internalType": "bytes",
          "name": "handlerResponse",
          "type": "bytes"
        }
      ],
      "name": "Deposit",
      "type": "event"
    },
    {
      "anonymous": false,
      "inputs": [
        {
          "indexed": false,
          "internalType": "bytes",
          "name": "lowLevelData",
          "type": "bytes"
        }
      ],
      "name": "FailedHandlerExecution",
      "type": "event"
    },
    {
      "anonymous": false,
      "inputs": [
        {
          "indexed": false,
          "internalType": "uint256",
          "name": "newFee",
          "type": "uint256"
        }
      ],
      "name": "FeeChanged",
      "type": "event"
    },
    {
      "anonymous": false,
      "inputs": [
        {
          "indexed": false,
          "internalType": "address",
          "name": "newFeeHandler",
          "type": "address"
        }
      ],
      "name": "FeeHandlerChanged",
      "type": "event"
    },
    {
      "anonymous": false,
      "inputs": [
        {
          "indexed": false,
          "internalType": "address",
          "name": "account",
          "type": "address"
        }
      ],
      "name": "Paused",
      "type": "event"
    },
    {
      "anonymous": false,
      "inputs": [
        {
          "indexed": false,
          "internalType": "uint8",
          "name": "originDomainID",
          "type": "uint8"
        },
        {
          "indexed": false,
          "internalType": "uint64",
          "name": "depositNonce",
          "type": "uint64"
        },
        {
          "indexed": false,
          "internalType": "enum IBridge.ProposalStatus",
          "name": "status",
          "type": "uint8"
        },
        {
          "indexed": false,
          "internalType": "bytes32",
          "name": "dataHash",
          "type": "bytes32"
        }
      ],
      "name": "ProposalEvent",
      "type": "event"
    },
    {
      "anonymous": false,
      "inputs": [
        {
          "indexed": false,
          "internalType": "uint8",
          "name": "originDomainID",
          "type": "uint8"
        },
        {
          "indexed": false,
          "internalType": "uint64",
          "name": "depositNonce",
          "type": "uint64"
        },
        {
          "indexed": false,
          "internalType": "enum IBridge.ProposalStatus",
          "name": "status",
          "type": "uint8"
        },
        {
          "indexed": false,
          "internalType": "bytes32",
          "name": "dataHash",
          "type": "bytes32"
        }
      ],
      "name": "ProposalVote",
      "type": "event"
    },
    {
      "anonymous": false,
      "inputs": [
        {
          "indexed": false,
          "internalType": "address",
          "name": "relayer",
          "type": "address"
        }
      ],
      "name": "RelayerAdded",
      "type": "event"
    },
    {
      "anonymous": false,
      "inputs": [
        {
          "indexed": false,
          "internalType": "address",
          "name": "relayer",
          "type": "address"
        }
      ],
      "name": "RelayerRemoved",
      "type": "event"
    },
    {
      "anonymous": false,
      "inputs": [
        {
          "indexed": false,
          "internalType": "uint256",
          "name": "newThreshold",
          "type": "uint256"
        }
      ],
      "name": "RelayerThresholdChanged",
      "type": "event"
    },
    {
      "anonymous": false,
      "inputs": [
        {
          "indexed": true,
          "internalType": "bytes32",
          "name": "role",
          "type": "bytes32"
        },
        {
          "indexed": true,
          "internalType": "address",
          "name": "account",
          "type": "address"
        },
        {
          "indexed": true,
          "internalType": "address",
          "name": "sender",
          "type": "address"
        }
      ],
      "name": "RoleGranted",
      "type": "event"
    },
    {
      "anonymous": false,
      "inputs": [
        {
          "indexed": true,
          "internalType": "bytes32",
          "name": "role",
          "type": "bytes32"
        },
        {
          "indexed": true,
          "internalType": "address",
          "name": "account",
          "type": "address"
        },
        {
          "indexed": true,
          "internalType": "address",
          "name": "sender",
          "type": "address"
        }
      ],
      "name": "RoleRevoked",
      "type": "event"
    },
    {
      "anonymous": false,
      "inputs": [
        {
          "indexed": false,
          "internalType": "address",
          "name": "account",
          "type": "address"
        }
      ],
      "name": "Unpaused",
      "type": "event"
    },
    {
      "inputs": [],
      "name": "DEFAULT_ADMIN_ROLE",
      "outputs": [
        {
          "internalType": "bytes32",
          "name": "",
          "type": "bytes32"
        }
      ],
      "stateMutability": "view",
      "type": "function"
    },
    {
      "inputs": [],
      "name": "MAX_RELAYERS",
      "outputs": [
        {
          "internalType": "uint256",
          "name": "",
          "type": "uint256"
        }
      ],
      "stateMutability": "view",
      "type": "function"
    },
    {
      "inputs": [],
      "name": "PERMIT_TYPEHASH",
      "outputs": [
        {
          "internalType": "bytes32",
          "name": "",
          "type": "bytes32"
        }
      ],
      "stateMutability": "view",
      "type": "function"
    },
    {
      "inputs": [],
      "name": "RELAYER_ROLE",
      "outputs": [
        {
          "internalType": "bytes32",
          "name": "",
          "type": "bytes32"
        }
      ],
      "stateMutability": "view",
      "type": "function"
    },
    {
      "inputs": [],
      "name": "_chainId",
      "outputs": [
        {
          "internalType": "uint256",
          "name": "",
          "type": "uint256"
        }
      ],
      "stateMutability": "view",
      "type": "function"
    },
    {
      "inputs": [
        {
          "internalType": "uint8",
          "name": "",
          "type": "uint8"
        }
      ],
      "name": "_depositCounts",
      "outputs": [
        {
          "internalType": "uint64",
          "name": "",
          "type": "uint64"
        }
      ],
      "stateMutability": "view",
      "type": "function"
    },
    {
      "inputs": [],
      "name": "_domainID",
      "outputs": [
        {
          "internalType": "uint8",
          "name": "",
          "type": "uint8"
        }
      ],
      "stateMutability": "view",
      "type": "function"
    },
    {
      "inputs": [],
      "name": "_expiry",
      "outputs": [
        {
          "internalType": "uint40",
          "name": "",
          "type": "uint40"
        }
      ],
      "stateMutability": "view",
      "type": "function"
    },
    {
      "inputs": [],
      "name": "_fee",
      "outputs": [
        {
          "internalType": "uint256",
          "name": "",
          "type": "uint256"
        }
      ],
      "stateMutability": "view",
      "type": "function"
    },
    {
      "inputs": [],
      "name": "_feeHandler",
      "outputs": [
        {
          "internalType": "contract IFeeHandler",
          "name": "",
          "type": "address"
        }
      ],
      "stateMutability": "view",
      "type": "function"
    },
    {
      "inputs": [],
      "name": "_feeReserve",
      "outputs": [
        {
          "internalType": "uint256",
          "name": "",
          "type": "uint256"
        }
      ],
      "stateMutability": "view",
      "type": "function"
    },
    {
      "inputs": [],
      "name": "_fee_",
      "outputs": [
        {
          "internalType": "uint256",
          "name": "",
          "type": "uint256"
        }
      ],
      "stateMutability": "view",
      "type": "function"
    },
    {
      "inputs": [
        {
          "internalType": "uint72",
          "name": "destNonce",
          "type": "uint72"
        },
        {
          "internalType": "bytes32",
          "name": "dataHash",
          "type": "bytes32"
        },
        {
          "internalType": "address",
          "name": "relayer",
          "type": "address"
        }
      ],
      "name": "_hasVotedOnProposal",
      "outputs": [
        {
          "internalType": "bool",
          "name": "",
          "type": "bool"
        }
      ],
      "stateMutability": "view",
      "type": "function"
    },
    {
      "inputs": [],
      "name": "_relayerThreshold",
      "outputs": [
        {
          "internalType": "uint8",
          "name": "",
          "type": "uint8"
        }
      ],
      "stateMutability": "view",
      "type": "function"
    },
    {
      "inputs": [
        {
          "internalType": "bytes32",
          "name": "",
          "type": "bytes32"
        }
      ],
      "name": "_resourceIDToHandlerAddress",
      "outputs": [
        {
          "internalType": "address",
          "name": "",
          "type": "address"
        }
      ],
      "stateMutability": "view",
      "type": "function"
    },
    {
      "inputs": [],
      "name": "_totalRelayers",
      "outputs": [
        {
          "internalType": "uint256",
          "name": "",
          "type": "uint256"
        }
      ],
      "stateMutability": "view",
      "type": "function"
    },
    {
      "inputs": [
        {
          "internalType": "address",
          "name": "relayerAddress",
          "type": "address"
        }
      ],
      "name": "adminAddRelayer",
      "outputs": [],
      "stateMutability": "nonpayable",
      "type": "function"
    },
    {
      "inputs": [
        {
          "internalType": "uint256",
          "name": "expiry",
          "type": "uint256"
        }
      ],
      "name": "adminChangeExpiry",
      "outputs": [],
      "stateMutability": "nonpayable",
      "type": "function"
    },
    {
      "inputs": [
        {
          "internalType": "address",
          "name": "newFeeHandler",
          "type": "address"
        }
      ],
      "name": "adminChangeFeeHandler",
      "outputs": [],
      "stateMutability": "nonpayable",
      "type": "function"
    },
    {
      "inputs": [
        {
          "internalType": "uint256",
          "name": "newThreshold",
          "type": "uint256"
        }
      ],
      "name": "adminChangeRelayerThreshold",
      "outputs": [],
      "stateMutability": "nonpayable",
      "type": "function"
    },
    {
      "inputs": [],
      "name": "adminPauseTransfers",
      "outputs": [],
      "stateMutability": "nonpayable",
      "type": "function"
    },
    {
      "inputs": [
        {
          "internalType": "address",
          "name": "relayerAddress",
          "type": "address"
        }
      ],
      "name": "adminRemoveRelayer",
      "outputs": [],
      "stateMutability": "nonpayable",
      "type": "function"
    },
    {
      "inputs": [
        {
          "internalType": "address",
          "name": "handlerAddress",
          "type": "address"
        },
        {
          "internalType": "address",
          "name": "tokenAddress",
          "type": "address"
        }
      ],
      "name": "adminSetBurnable",
      "outputs": [],
      "stateMutability": "nonpayable",
      "type": "function"
    },
    {
      "inputs": [
        {
          "internalType": "uint8",
          "name": "domainID",
          "type": "uint8"
        },
        {
          "internalType": "uint64",
          "name": "nonce",
          "type": "uint64"
        }
      ],
      "name": "adminSetDepositNonce",
      "outputs": [],
      "stateMutability": "nonpayable",
      "type": "function"
    },
    {
      "inputs": [
        {
          "internalType": "uint8",
          "name": "domainID",
          "type": "uint8"
        }
      ],
      "name": "adminSetDomainId",
      "outputs": [],
      "stateMutability": "nonpayable",
      "type": "function"
    },
    {
      "inputs": [
        {
          "internalType": "uint256",
          "name": "newFee",
          "type": "uint256"
        }
      ],
      "name": "adminSetFee",
      "outputs": [],
      "stateMutability": "nonpayable",
      "type": "function"
    },
    {
      "inputs": [
        {
          "internalType": "address",
          "name": "forwarder",
          "type": "address"
        },
        {
          "internalType": "bool",
          "name": "valid",
          "type": "bool"
        }
      ],
      "name": "adminSetForwarder",
      "outputs": [],
      "stateMutability": "nonpayable",
      "type": "function"
    },
    {
      "inputs": [
        {
          "internalType": "address",
          "name": "handlerAddress",
          "type": "address"
        },
        {
          "internalType": "bytes32",
          "name": "resourceID",
          "type": "bytes32"
        },
        {
          "internalType": "address",
          "name": "contractAddress",
          "type": "address"
        },
        {
          "internalType": "bytes4",
          "name": "depositFunctionSig",
          "type": "bytes4"
        },
        {
          "internalType": "uint256",
          "name": "depositFunctionDepositorOffset",
          "type": "uint256"
        },
        {
          "internalType": "bytes4",
          "name": "executeFunctionSig",
          "type": "bytes4"
        }
      ],
      "name": "adminSetGenericResource",
      "outputs": [],
      "stateMutability": "nonpayable",
      "type": "function"
    },
    {
      "inputs": [
        {
          "internalType": "bytes32",
          "name": "resourceID",
          "type": "bytes32"
        },
        {
          "internalType": "address",
          "name": "nativeAddress",
          "type": "address"
        },
        {
          "internalType": "bool",
          "name": "isNative",
          "type": "bool"
        }
      ],
      "name": "adminSetNative",
      "outputs": [],
      "stateMutability": "nonpayable",
      "type": "function"
    },
    {
      "inputs": [
        {
          "internalType": "address",
          "name": "handlerAddress",
          "type": "address"
        }
      ],
      "name": "adminSetNativeResource",
      "outputs": [],
      "stateMutability": "nonpayable",
      "type": "function"
    },
    {
      "inputs": [
        {
          "internalType": "address",
          "name": "handlerAddress",
          "type": "address"
        },
        {
          "internalType": "bytes32",
          "name": "resourceID",
          "type": "bytes32"
        },
        {
          "internalType": "address",
          "name": "tokenAddress",
          "type": "address"
        }
      ],
      "name": "adminSetResource",
      "outputs": [],
      "stateMutability": "nonpayable",
      "type": "function"
    },
    {
      "inputs": [
        {
          "internalType": "uint8",
          "name": "fromDomainID",
          "type": "uint8"
        },
        {
          "internalType": "uint256",
          "name": "_specialFee",
          "type": "uint256"
        }
      ],
      "name": "adminSetSpecialFee",
      "outputs": [],
      "stateMutability": "nonpayable",
      "type": "function"
    },
    {
      "inputs": [],
      "name": "adminUnpauseTransfers",
      "outputs": [],
      "stateMutability": "nonpayable",
      "type": "function"
    },
    {
      "inputs": [
        {
          "internalType": "address",
          "name": "handlerAddress",
          "type": "address"
        },
        {
          "internalType": "bytes",
          "name": "data",
          "type": "bytes"
        }
      ],
      "name": "adminWithdraw",
      "outputs": [],
      "stateMutability": "nonpayable",
      "type": "function"
    },
    {
      "inputs": [
        {
          "internalType": "address",
          "name": "handlerAddress",
          "type": "address"
        },
        {
          "internalType": "bytes",
          "name": "data",
          "type": "bytes"
        }
      ],
      "name": "adminWithdrawETH",
      "outputs": [],
      "stateMutability": "nonpayable",
      "type": "function"
    },
    {
      "inputs": [
        {
          "internalType": "uint8",
          "name": "destinationDomainID",
          "type": "uint8"
        },
        {
          "internalType": "bytes32",
          "name": "resourceID",
          "type": "bytes32"
        },
        {
          "internalType": "bytes",
          "name": "depositData",
          "type": "bytes"
        },
        {
          "internalType": "bytes",
          "name": "feeData",
          "type": "bytes"
        }
      ],
      "name": "calculateFee",
      "outputs": [
        {
          "internalType": "uint256",
          "name": "",
          "type": "uint256"
        }
      ],
      "stateMutability": "view",
      "type": "function"
    },
    {
      "inputs": [
        {
          "internalType": "uint8",
          "name": "domainID",
          "type": "uint8"
        },
        {
          "internalType": "uint64",
          "name": "depositNonce",
          "type": "uint64"
        },
        {
          "internalType": "bytes32",
          "name": "dataHash",
          "type": "bytes32"
        }
      ],
      "name": "cancelProposal",
      "outputs": [],
      "stateMutability": "nonpayable",
      "type": "function"
    },
    {
      "inputs": [
        {
          "internalType": "uint8",
          "name": "domainID",
          "type": "uint8"
        },
        {
          "internalType": "uint64",
          "name": "depositNonce",
          "type": "uint64"
        },
        {
          "internalType": "bytes32",
          "name": "resourceID",
          "type": "bytes32"
        },
        {
          "internalType": "bytes",
          "name": "data",
          "type": "bytes"
        },
        {
          "internalType": "bytes",
          "name": "signature",
          "type": "bytes"
        }
      ],
      "name": "checkSignature",
      "outputs": [
        {
          "internalType": "bool",
          "name": "",
          "type": "bool"
        }
      ],
      "stateMutability": "view",
      "type": "function"
    },
    {
      "inputs": [
        {
          "internalType": "uint8",
          "name": "destinationDomainID",
          "type": "uint8"
        },
        {
          "internalType": "bytes32",
          "name": "resourceID",
          "type": "bytes32"
        },
        {
          "internalType": "bytes",
          "name": "depositData",
          "type": "bytes"
        },
        {
          "internalType": "bytes",
          "name": "feeData",
          "type": "bytes"
        }
      ],
      "name": "deposit",
      "outputs": [],
      "stateMutability": "payable",
      "type": "function"
    },
    {
      "inputs": [
        {
          "internalType": "uint8",
          "name": "domainID",
          "type": "uint8"
        },
        {
          "internalType": "uint64",
          "name": "depositNonce",
          "type": "uint64"
        },
        {
          "internalType": "bytes",
          "name": "data",
          "type": "bytes"
        },
        {
          "internalType": "bytes32",
          "name": "resourceID",
          "type": "bytes32"
        },
        {
          "internalType": "bool",
          "name": "revertOnFail",
          "type": "bool"
        }
      ],
      "name": "executeProposal",
      "outputs": [],
      "stateMutability": "nonpayable",
      "type": "function"
    },
    {
      "inputs": [
        {
          "internalType": "uint8",
          "name": "originDomainID",
          "type": "uint8"
        },
        {
          "internalType": "uint64",
          "name": "depositNonce",
          "type": "uint64"
        },
        {
          "internalType": "bytes32",
          "name": "resourceID",
          "type": "bytes32"
        },
        {
          "internalType": "bytes",
          "name": "data",
          "type": "bytes"
        }
      ],
      "name": "getProposal",
      "outputs": [
        {
          "components": [
            {
              "internalType": "enum IBridge.ProposalStatus",
              "name": "_status",
              "type": "uint8"
            },
            {
              "internalType": "uint200",
              "name": "_yesVotes",
              "type": "uint200"
            },
            {
              "internalType": "uint8",
              "name": "_yesVotesTotal",
              "type": "uint8"
            },
            {
              "internalType": "uint40",
              "name": "_proposedBlock",
              "type": "uint40"
            }
          ],
          "internalType": "struct IBridge.Proposal",
          "name": "",
          "type": "tuple"
        }
      ],
      "stateMutability": "view",
      "type": "function"
    },
    {
      "inputs": [
        {
          "internalType": "bytes32",
          "name": "role",
          "type": "bytes32"
        }
      ],
      "name": "getRoleAdmin",
      "outputs": [
        {
          "internalType": "bytes32",
          "name": "",
          "type": "bytes32"
        }
      ],
      "stateMutability": "view",
      "type": "function"
    },
    {
      "inputs": [
        {
          "internalType": "bytes32",
          "name": "role",
          "type": "bytes32"
        },
        {
          "internalType": "uint256",
          "name": "index",
          "type": "uint256"
        }
      ],
      "name": "getRoleMember",
      "outputs": [
        {
          "internalType": "address",
          "name": "",
          "type": "address"
        }
      ],
      "stateMutability": "view",
      "type": "function"
    },
    {
      "inputs": [
        {
          "internalType": "bytes32",
          "name": "role",
          "type": "bytes32"
        }
      ],
      "name": "getRoleMemberCount",
      "outputs": [
        {
          "internalType": "uint256",
          "name": "",
          "type": "uint256"
        }
      ],
      "stateMutability": "view",
      "type": "function"
    },
    {
      "inputs": [
        {
          "internalType": "bytes32",
          "name": "role",
          "type": "bytes32"
        },
        {
          "internalType": "address",
          "name": "account",
          "type": "address"
        }
      ],
      "name": "getRoleMemberIndex",
      "outputs": [
        {
          "internalType": "uint256",
          "name": "",
          "type": "uint256"
        }
      ],
      "stateMutability": "view",
      "type": "function"
    },
    {
      "inputs": [
        {
          "internalType": "bytes32",
          "name": "role",
          "type": "bytes32"
        },
        {
          "internalType": "address",
          "name": "account",
          "type": "address"
        }
      ],
      "name": "grantRole",
      "outputs": [],
      "stateMutability": "nonpayable",
      "type": "function"
    },
    {
      "inputs": [
        {
          "internalType": "bytes32",
          "name": "role",
          "type": "bytes32"
        },
        {
          "internalType": "address",
          "name": "account",
          "type": "address"
        }
      ],
      "name": "hasRole",
      "outputs": [
        {
          "internalType": "bool",
          "name": "",
          "type": "bool"
        }
      ],
      "stateMutability": "view",
      "type": "function"
    },
    {
      "inputs": [
        {
          "internalType": "address",
          "name": "relayer",
          "type": "address"
        }
      ],
      "name": "isRelayer",
      "outputs": [
        {
          "internalType": "bool",
          "name": "",
          "type": "bool"
        }
      ],
      "stateMutability": "view",
      "type": "function"
    },
    {
      "inputs": [
        {
          "internalType": "address",
          "name": "",
          "type": "address"
        }
      ],
      "name": "isValidForwarder",
      "outputs": [
        {
          "internalType": "bool",
          "name": "",
          "type": "bool"
        }
      ],
      "stateMutability": "view",
      "type": "function"
    },
    {
      "inputs": [],
      "name": "paused",
      "outputs": [
        {
          "internalType": "bool",
          "name": "",
          "type": "bool"
        }
      ],
      "stateMutability": "view",
      "type": "function"
    },
    {
      "inputs": [
        {
          "internalType": "address",
          "name": "newAdmin",
          "type": "address"
        }
      ],
      "name": "renounceAdmin",
      "outputs": [],
      "stateMutability": "nonpayable",
      "type": "function"
    },
    {
      "inputs": [
        {
          "internalType": "bytes32",
          "name": "role",
          "type": "bytes32"
        },
        {
          "internalType": "address",
          "name": "account",
          "type": "address"
        }
      ],
      "name": "renounceRole",
      "outputs": [],
      "stateMutability": "nonpayable",
      "type": "function"
    },
    {
      "inputs": [
        {
          "internalType": "bytes32",
          "name": "role",
          "type": "bytes32"
        },
        {
          "internalType": "address",
          "name": "account",
          "type": "address"
        }
      ],
      "name": "revokeRole",
      "outputs": [],
      "stateMutability": "nonpayable",
      "type": "function"
    },
    {
      "inputs": [
        {
          "internalType": "uint8",
          "name": "",
          "type": "uint8"
        }
      ],
      "name": "special",
      "outputs": [
        {
          "internalType": "bool",
          "name": "",
          "type": "bool"
        }
      ],
      "stateMutability": "view",
      "type": "function"
    },
    {
      "inputs": [
        {
          "internalType": "uint8",
          "name": "",
          "type": "uint8"
        }
      ],
      "name": "specialFee",
      "outputs": [
        {
          "internalType": "uint256",
          "name": "",
          "type": "uint256"
        }
      ],
      "stateMutability": "view",
      "type": "function"
    },
    {
      "inputs": [
        {
          "internalType": "address",
          "name": "addr",
          "type": "address"
        },
        {
          "internalType": "uint256",
          "name": "amount",
          "type": "uint256"
        }
      ],
      "name": "transferFee",
      "outputs": [],
      "stateMutability": "nonpayable",
      "type": "function"
    },
    {
      "inputs": [
        {
          "internalType": "address payable[]",
          "name": "addrs",
          "type": "address[]"
        },
        {
          "internalType": "uint256[]",
          "name": "amounts",
          "type": "uint256[]"
        }
      ],
      "name": "transferFunds",
      "outputs": [],
      "stateMutability": "nonpayable",
      "type": "function"
    },
    {
      "inputs": [
        {
          "internalType": "uint8",
          "name": "domainID",
          "type": "uint8"
        },
        {
          "internalType": "uint64",
          "name": "depositNonce",
          "type": "uint64"
        },
        {
          "internalType": "bytes32",
          "name": "resourceID",
          "type": "bytes32"
        },
        {
          "internalType": "bytes",
          "name": "data",
          "type": "bytes"
        }
      ],
      "name": "voteProposal",
      "outputs": [],
      "stateMutability": "nonpayable",
      "type": "function"
    },
    {
      "inputs": [
        {
          "internalType": "uint8",
          "name": "domainID",
          "type": "uint8"
        },
        {
          "internalType": "uint64",
          "name": "depositNonce",
          "type": "uint64"
        },
        {
          "internalType": "bytes32",
          "name": "resourceID",
          "type": "bytes32"
        },
        {
          "internalType": "bytes",
          "name": "data",
          "type": "bytes"
        },
        {
          "internalType": "bytes[]",
          "name": "signatures",
          "type": "bytes[]"
        }
      ],
      "name": "voteProposals",
      "outputs": [],
      "stateMutability": "nonpayable",
      "type": "function"
    }
  ],
  "bytecode": "0x6101406040523480156200001257600080fd5b5060405162004b3a38038062004b3a83398101604081905262000035916200053b565b604080518082018252600c81526b5065726d697442726964676560a01b6020808301918252835180850190945260038452620312e360ec1b908401528151902060e08190527fe6bbd6277e1bf288eed5e8d1780f9a50b239e86b153736bceebccf4ea79d90b36101008190524660a0529192917f8b73c3c69bb8fe3d512ecc4cf759cc79239f7b179b0ffacaa9a75d522b39400f620001198184846040805160208101859052908101839052606081018290524660808201523060a082015260009060c0016040516020818303038152906040528051906020012090509392505050565b6080523060c0526101205250506000805460ff199081169091556002805490911660ff8816179055506200015b90508262000241602090811b6200293c17901c565b600260016101000a81548160ff021916908360ff1602179055506200018b816200029e60201b620029931760201c565b6002805464ffffffffff92909216620100000266ffffffffff000019909216919091179055620001c66000620001c0620002f7565b6200033a565b60005b83518110156200023657620002217fe2b7fb3b832174769106daebcfd6d1970523240dda11281102db9363b83b0dc48583815181106200020d576200020d62000639565b60200260200101516200034a60201b60201c565b806200022d816200064f565b915050620001c9565b505050505062000679565b600061010082106200029a5760405162461bcd60e51b815260206004820152601c60248201527f76616c756520646f6573206e6f742066697420696e203820626974730000000060448201526064015b60405180910390fd5b5090565b60006501000000000082106200029a5760405162461bcd60e51b815260206004820152601d60248201527f76616c756520646f6573206e6f742066697420696e2034302062697473000000604482015260640162000291565b600033601436108015906200032457506001600160a01b03811660009081526005602052604090205460ff165b1562000335575060131936013560601c5b919050565b620003468282620003d7565b5050565b60008281526001602052604090206002015462000371906200036b620002f7565b62000452565b6200033a5760405162461bcd60e51b815260206004820152602f60248201527f416363657373436f6e74726f6c3a2073656e646572206d75737420626520616e60448201526e0818591b5a5b881d1bc819dc985b9d608a1b606482015260840162000291565b6000828152600160209081526040909120620003fe918390620029ea62000481821b17901c565b1562000346576200040e620002f7565b6001600160a01b0316816001600160a01b0316837f2f8788117e7eff1d82e926ec794901d17c78024a50270940304540a733656f0d60405160405180910390a45050565b6000828152600160209081526040822062000478918490620029ff62000498821b17901c565b90505b92915050565b600062000478836001600160a01b038416620004bb565b6001600160a01b0381166000908152600183016020526040812054151562000478565b600081815260018301602052604081205462000504575081546001818101845560008481526020808220909301849055845484825282860190935260409020919091556200047b565b5060006200047b565b634e487b7160e01b600052604160045260246000fd5b80516001600160a01b03811681146200033557600080fd5b600080600080608085870312156200055257600080fd5b845160ff811681146200056457600080fd5b602086810151919550906001600160401b03808211156200058457600080fd5b818801915088601f8301126200059957600080fd5b815181811115620005ae57620005ae6200050d565b8060051b604051601f19603f83011681018181108582111715620005d657620005d66200050d565b60405291825284820192508381018501918b831115620005f557600080fd5b938501935b828510156200061e576200060e8562000523565b84529385019392850192620005fa565b60408b01516060909b0151999c909b50975050505050505050565b634e487b7160e01b600052603260045260246000fd5b60006000198214156200067257634e487b7160e01b600052601160045260246000fd5b5060010190565b60805160a05160c05160e0516101005161012051614471620006c96000396000613258015260006132a701526000613282015260006131db015260006132050152600061322f01526144716000f3fe60806040526004361061038c5760003560e01c80639010d07c116101dc578063c5b37c2211610102578063d7a9cd79116100a0578063f8c39e441161006f578063f8c39e4414610afa578063fe4648f414610b2a578063fe65c4be14610b51578063ffaac0eb14610b7157600080fd5b8063d7a9cd7914610a85578063e2469d4014610aa4578063e7b14b5a14610ac4578063edc20c3c14610ada57600080fd5b8063cb10f215116100dc578063cb10f21514610a05578063cdb0f73a14610a25578063d15ef64e14610a45578063d547741f14610a6557600080fd5b8063c5b37c2214610996578063c5ec8970146109ab578063ca15c873146109e557600080fd5b80639debb3bd1161017a578063b67a4aaf11610149578063b67a4aaf14610909578063bd2a182014610936578063bf363b1814610956578063c0331b3e1461097657600080fd5b80639debb3bd14610892578063a06fbbff146108a7578063a217fddf146108c7578063a5c621f2146108dc57600080fd5b806393cbe783116101b657806393cbe783146108105780639d4d39f5146108265780639d82dd63146108465780639dd694f41461086657600080fd5b80639010d07c146107ae57806391d14854146107ce578063926d7d7f146107ee57600080fd5b80635e1fab0f116102c15780637d026d961161025f57806384db809f1161022e57806384db809f1461070057806388b73be01461074e5780638b63aebf1461076e5780638c0c26311461078e57600080fd5b80637d026d96146106965780637febe63f146106b6578063802aabe8146106d657806380ae1c28146106eb57600080fd5b80636e2047bc1161029b5780636e2047bc146106305780637292dd911461065057806373c45c9814610670578063747734121461068357600080fd5b80635e1fab0f146105c057806362abd9ce146105e05780636d3b6eea1461061057600080fd5b80634b0b919d1161032e5780634f2c0aec116103085780634f2c0aec14610538578063541d5548146105585780635a1ad87c146105885780635c975abb146105a857600080fd5b80634b0b919d146104aa5780634e056005146104f85780634e0df3f61461051857600080fd5b80632f2ff15d1161036a5780632f2ff15d1461041657806330adf81f1461043657806336568abe1461046a5780634603ae381461048a57600080fd5b806317f03ce514610391578063206a98fd146103b3578063248a9ca3146103d3575b600080fd5b34801561039d57600080fd5b506103b16103ac3660046137a0565b610b86565b005b3480156103bf57600080fd5b506103b16103ce36600461382d565b610e1b565b3480156103df57600080fd5b506104036103ee3660046138a9565b60009081526001602052604090206002015490565b6040519081526020015b60405180910390f35b34801561042257600080fd5b506103b16104313660046138d7565b6110a3565b34801561044257600080fd5b506104037fc4cb5d35714699d6e85b9562b644e60393b418d974a5c1dd8efaadac37a142c581565b34801561047657600080fd5b506103b16104853660046138d7565b611133565b34801561049657600080fd5b506103b16104a536600461394b565b611145565b3480156104b657600080fd5b506104e06104c53660046139b6565b6003602052600090815260409020546001600160401b031681565b6040516001600160401b03909116815260200161040d565b34801561050457600080fd5b506103b16105133660046138a9565b6111e9565b34801561052457600080fd5b506104036105333660046138d7565b61124c565b34801561054457600080fd5b506103b16105533660046138a9565b611278565b34801561056457600080fd5b506105786105733660046139d1565b611307565b604051901515815260200161040d565b34801561059457600080fd5b506103b16105a3366004613a06565b611321565b3480156105b457600080fd5b5060005460ff16610578565b3480156105cc57600080fd5b506103b16105db3660046139d1565b6113d7565b3480156105ec57600080fd5b506105786105fb3660046139b6565b600a6020526000908152604090205460ff1681565b34801561061c57600080fd5b506103b161062b366004613b27565b611463565b34801561063c57600080fd5b506103b161064b366004613b76565b6114d0565b34801561065c57600080fd5b506103b161066b366004613ba0565b611503565b6103b161067e366004613cb6565b6119f2565b34801561068f57600080fd5b5046610403565b3480156106a257600080fd5b506103b16106b13660046138a9565b611a15565b3480156106c257600080fd5b506105786106d1366004613d3f565b611a4a565b3480156106e257600080fd5b50610403611aee565b3480156106f757600080fd5b506103b1611b0c565b34801561070c57600080fd5b5061073661071b3660046138a9565b6004602052600090815260409020546001600160a01b031681565b6040516001600160a01b03909116815260200161040d565b34801561075a57600080fd5b506103b1610769366004613d8d565b611b26565b34801561077a57600080fd5b506103b16107893660046139d1565b611bae565b34801561079a57600080fd5b506103b16107a9366004613dcb565b611c14565b3480156107ba57600080fd5b506107366107c9366004613df9565b611c4d565b3480156107da57600080fd5b506105786107e93660046138d7565b611c6c565b3480156107fa57600080fd5b5061040360008051602061441c83398151915281565b34801561081c57600080fd5b5061040360075481565b34801561083257600080fd5b50610403610841366004613cb6565b611c84565b34801561085257600080fd5b506103b16108613660046139d1565b611d4d565b34801561087257600080fd5b506002546108809060ff1681565b60405160ff909116815260200161040d565b34801561089e57600080fd5b5061040360c881565b3480156108b357600080fd5b506103b16108c23660046139b6565b611dae565b3480156108d357600080fd5b50610403600081565b3480156108e857600080fd5b506108fc6108f7366004613e1b565b611dcc565b60405161040d9190613ec1565b34801561091557600080fd5b506104036109243660046139b6565b60096020526000908152604090205481565b34801561094257600080fd5b506103b1610951366004613b27565b611edb565b34801561096257600080fd5b506103b1610971366004613f0a565b611f11565b34801561098257600080fd5b506103b1610991366004613e1b565b611fc1565b3480156109a257600080fd5b50600754610403565b3480156109b757600080fd5b506002546109cf9062010000900464ffffffffff1681565b60405164ffffffffff909116815260200161040d565b3480156109f157600080fd5b50610403610a003660046138a9565b612499565b348015610a1157600080fd5b506103b1610a20366004613f28565b6124b0565b348015610a3157600080fd5b506103b1610a403660046139d1565b612511565b348015610a5157600080fd5b506103b1610a60366004613f48565b6125ba565b348015610a7157600080fd5b506103b1610a803660046138d7565b6125ed565b348015610a9157600080fd5b5060025461088090610100900460ff1681565b348015610ab057600080fd5b506103b1610abf3660046139d1565b61267a565b348015610ad057600080fd5b5061040360085481565b348015610ae657600080fd5b506103b1610af5366004613f7d565b612761565b348015610b0657600080fd5b50610578610b153660046139d1565b60056020526000908152604090205460ff1681565b348015610b3657600080fd5b5060025461073690600160381b90046001600160a01b031681565b348015610b5d57600080fd5b50610578610b6c366004613fa7565b61281a565b348015610b7d57600080fd5b506103b1612924565b610b8e612a21565b60ff838116600884901b68ffffffffffffffff0016176000818152600660209081526040808320868452909152808220815160808101909252805493949293919290918391166004811115610be557610be5613e89565b6004811115610bf657610bf6613e89565b8152905461010081046001600160c81b03166020830152600160d01b810460ff166040830152600160d81b900464ffffffffff1660609091015280519091506001816004811115610c4957610c49613e89565b1480610c6657506002816004811115610c6457610c64613e89565b145b610cb75760405162461bcd60e51b815260206004820152601c60248201527f50726f706f73616c2063616e6e6f742062652063616e63656c6c65640000000060448201526064015b60405180910390fd5b600254606083015164ffffffffff62010000909204821691610cdb91439116612aa5565b64ffffffffff1611610d2f5760405162461bcd60e51b815260206004820181905260248201527f50726f706f73616c206e6f7420617420657870697279207468726573686f6c646044820152606401610cae565b60048083526001600160481b03841660009081526006602090815260408083208884529091529020835181548593839160ff1916906001908490811115610d7857610d78613e89565b02179055506020820151815460408085015160609095015164ffffffffff16600160d81b026001600160d81b0360ff909616600160d01b0260ff60d01b196001600160c81b039095166101000294909416610100600160d81b0319909316929092179290921793909316929092179055516000805160206143fc83398151915290610e0b90889088906004908990614041565b60405180910390a1505050505050565b610e23612ae7565b610e2b612b4d565b60008281526004602090815260408083205490516001600160a01b039091169268ffffffffffffffff0060088a901b1660ff8b1617929091610e7591879186918b918b9101614076565b60408051601f1981840301815291815281516020928301206001600160481b03851660009081526006845282812082825290935291209091506002815460ff166004811115610ec657610ec6613e89565b14610f135760405162461bcd60e51b815260206004820181905260248201527f50726f706f73616c206d757374206861766520506173736564207374617475736044820152606401610cae565b805460ff19166003178155838515610f8c5760405163712467f960e11b81526001600160a01b0382169063e248cff290610f55908a908d908d906004016140d2565b600060405180830381600087803b158015610f6f57600080fd5b505af1158015610f83573d6000803e3d6000fd5b50505050611069565b60405163712467f960e11b81526001600160a01b0382169063e248cff290610fbc908a908d908d906004016140d2565b600060405180830381600087803b158015610fd657600080fd5b505af1925050508015610fe7575060015b611069573d808015611015576040519150601f19603f3d011682016040523d82523d6000602084013e61101a565b606091505b50825460ff191660021783556040517fbd37c1f0d53bb2f33fe4c2104de272fcdeb4d2fef3acdbf1e4ddc3d6833ca37690611056908390614148565b60405180910390a150505050505061109b565b6000805160206143fc8339815191528b8b60038660405161108d9493929190614041565b60405180910390a150505050505b505050505050565b6000828152600160205260409020600201546110c1906107e9612b93565b6111255760405162461bcd60e51b815260206004820152602f60248201527f416363657373436f6e74726f6c3a2073656e646572206d75737420626520616e60448201526e0818591b5a5b881d1bc819dc985b9d608a1b6064820152608401610cae565b61112f8282612bd4565b5050565b61113b612c3d565b61112f8282612c86565b61114d612d06565b60005b838110156111e25784848281811061116a5761116a61415b565b905060200201602081019061117f91906139d1565b6001600160a01b03166108fc84848481811061119d5761119d61415b565b905060200201359081150290604051600060405180830381858888f193505050501580156111cf573d6000803e3d6000fd5b50806111da81614187565b915050611150565b5050505050565b6111f1612d06565b6111fa8161293c565b6002805460ff929092166101000261ff00199092169190911790556040518181527fa20d6b84cd798a24038be305eff8a45ca82ef54a2aa2082005d8e14c0a4746c8906020015b60405180910390a150565b60008281526001602081815260408084206001600160a01b038616855290920190529020545b92915050565b611280612d06565b8060075414156112d25760405162461bcd60e51b815260206004820152601f60248201527f43757272656e742066656520697320657175616c20746f206e657720666565006044820152606401610cae565b60078190556040518181527f6bbc57480a46553fa4d156ce702beef5f3ad66303b0ed1a5d4cb44966c6584c390602001611241565b600061127260008051602061441c83398151915283611c6c565b611329612d06565b60008581526004602081905260409182902080546001600160a01b0319166001600160a01b038a8116918217909255925163de319d9960e01b8152918201889052861660248201526001600160e01b03198086166044830152606482018590528316608482015287919063de319d999060a401600060405180830381600087803b1580156113b657600080fd5b505af11580156113ca573d6000803e3d6000fd5b5050505050505050505050565b6113df612d06565b60006113e9612b93565b9050816001600160a01b0316816001600160a01b0316141561144d5760405162461bcd60e51b815260206004820152601760248201527f43616e6e6f742072656e6f756e6365206f6e6573656c660000000000000000006044820152606401610cae565b6114586000836110a3565b61112f600082611133565b61146b612d06565b60405163ab5c7bf160e01b815282906001600160a01b0382169063ab5c7bf190611499908590600401614148565b600060405180830381600087803b1580156114b357600080fd5b505af11580156114c7573d6000803e3d6000fd5b50505050505050565b6114d8612d06565b60ff9091166000908152600a60209081526040808320805460ff191660011790556009909152902055565b61150b612b4d565b6000848152600460205260409020546001600160a01b03168061156c5760405162461bcd60e51b81526020600482015260196024820152781b9bc81a185b991b195c88199bdc881c995cdbdd5c98d95251603a1b6044820152606401610cae565b6000858286866040516020016115859493929190614076565b60408051808303601f190181529190528051602090910120835160025491925090610100900460ff1681101561160b5760405162461bcd60e51b815260206004820152602560248201527f5369676e617475726573206c656e677468203e3d2072656c61796572546872656044820152641cda1bdb1960da1b6064820152608401610cae565b604080516080810182526001815260006020820181905281830181905264ffffffffff4316606083015291519091906116d1907fc4cb5d35714699d6e85b9562b644e60393b418d974a5c1dd8efaadac37a142c5908d908d908d90611673908e908e906141a2565b6040519081900381206116b6959493929160200194855260ff9390931660208501526001600160401b039190911660408401526060830152608082015260a00190565b60405160208183030381529060405280519060200120612d5f565b905060005b83811015611835576000611703838984815181106116f6576116f661415b565b6020026020010151612dad565b905061171d60008051602061441c83398151915282611c6c565b61174c5760405163c41f0f6960e01b81526001600160a01b038216600482015260248101839052604401610cae565b6117568482612dd1565b1561179b5760405162461bcd60e51b81526020600482015260156024820152741c995b185e595c88185b1c9958591e481d9bdd1959605a1b6044820152606401610cae565b6117bb6117a782612df4565b85602001516001600160c81b031617612e22565b6001600160c81b03166020850152604084018051906117d9826141b2565b60ff1660ff16815250507f25f8daaa4635a7729927ba3f5b3d59cc3320aca7c32c9db4e7ca7b95743436408d8d86600001518960405161181c9493929190614041565b60405180910390a15061182e81614187565b90506116d6565b506003825260405163712467f960e11b815285906001600160a01b0382169063e248cff29061186c908d908d908d906004016140d2565b600060405180830381600087803b15801561188657600080fd5b505af115801561189a573d6000803e3d6000fd5b505050506000805160206143fc8339815191528c8c6003886040516118c29493929190614041565b60405180910390a160ff8c811660088d901b68ffffffffffffffff00161760008181526006602090815260408083208a8452909152902054909160019116600481111561191157611911613e89565b111561192f5760405162461bcd60e51b8152600401610cae906141d2565b6001600160481b038116600090815260066020908152604080832089845290915290208451815486929190829060ff1916600183600481111561197457611974613e89565b021790555060208201518154604084015160609094015164ffffffffff16600160d81b026001600160d81b0360ff909516600160d01b0260ff60d01b196001600160c81b039094166101000293909316610100600160d81b031990921691909117919091179290921691909117905550505050505050505050505050565b6119fa612b4d565b6000611a04612b93565b90506114c781888888888888612e77565b611a1d612d06565b611a2681612993565b6002806101000a81548164ffffffffff021916908364ffffffffff16021790555050565b6001600160481b03831660009081526006602090815260408083208584529091528082208151608081019092528054611ae6929190829060ff166004811115611a9557611a95613e89565b6004811115611aa657611aa6613e89565b8152905461010081046001600160c81b03166020830152600160d01b810460ff166040830152600160d81b900464ffffffffff1660609091015283612dd1565b949350505050565b6000611b0760008051602061441c833981519152612499565b905090565b611b14612d06565b611b24611b1f612b93565b61302d565b565b611b2e612d06565b60008381526004602081905260409182902054915163789d771160e01b81526001600160a01b03858116928201929092528315156024820152911690819063789d7711906044015b600060405180830381600087803b158015611b9057600080fd5b505af1158015611ba4573d6000803e3d6000fd5b5050505050505050565b611bb6612d06565b60028054670100000000000000600160d81b031916600160381b6001600160a01b038416908102919091179091556040519081527f729170bd142e4965055b26a285faeedf03baf2b915bfc5a7c75d24b45815ff2c90602001611241565b611c1c612d06565b6040516307b7ed9960e01b81526001600160a01b0382811660048301528391908216906307b7ed9990602401611499565b6000828152600160205260408120611c65908361307b565b9392505050565b6000828152600160205260408120611c6590836129ff565b600080611c8f612b93565b600254909150600160381b90046001600160a01b031615611d3d5760025460405163ef4f081f60e01b81526000916001600160a01b03600160381b8204169163ef4f081f91611cf291869160ff16908e908e908e908e908e908e90600401614215565b6040805180830381865afa158015611d0e573d6000803e3d6000fd5b505050506040513d601f19601f82011682018060405250810190611d329190614262565b509250611d43915050565b60009150505b9695505050505050565b611d55612d06565b611d5d612c3d565b611d7560008051602061441c833981519152826125ed565b6040516001600160a01b03821681527f10e1f7ce9fd7d1b90a66d13a2ab3cb8dd7f29f3f8d520b143b063ccfbab6906b90602001611241565b611db6612d06565b6002805460ff191660ff92909216919091179055565b6040805160808101825260008082526020808301829052828401829052606083018290528682526004815283822054935192936001600160a01b031692611e1b91889185918991899101614076565b60408051808303601f19018152828252805160209182012060ff8c811660088d901b68ffffffffffffffff00161760008181526006855285812084825290945292849020608086019094528354919550919392918391166004811115611e8357611e83613e89565b6004811115611e9457611e94613e89565b8152905461010081046001600160c81b03166020830152600160d01b810460ff166040830152600160d81b900464ffffffffff166060909101529998505050505050505050565b611ee3612d06565b60405163025a3c9960e21b815282906001600160a01b03821690630968f26490611499908590600401614148565b611f19612d06565b6000826001600160a01b03168260405160006040518083038185875af1925050503d8060008114611f66576040519150601f19603f3d011682016040523d82523d6000602084013e611f6b565b606091505b5050905080611fbc5760405162461bcd60e51b815260206004820152601960248201527f466565206574686572207472616e73666572206661696c6564000000000000006044820152606401610cae565b505050565b611fc9612ae7565b611fd1612b4d565b60008381526004602090815260408083205490516001600160a01b039091169268ffffffffffffffff00600889901b1660ff8a161792909161201b91889186918991899101614076565b60408051601f1981840301815282825280516020918201206001600160481b03861660009081526006835283812082825290925282822060808501909352825490945090929190829060ff16600481111561207857612078613e89565b600481111561208957612089613e89565b8152905461010081046001600160c81b0316602080840191909152600160d01b820460ff16604080850191909152600160d81b90920464ffffffffff1660609093019290925260008a815260049092529020549091506001600160a01b03166121305760405162461bcd60e51b81526020600482015260196024820152781b9bc81a185b991b195c88199bdc881c995cdbdd5c98d95251603a1b6044820152606401610cae565b60028151600481111561214557612145613e89565b14156121635761215a898988888b6001610e1b565b505050506111e2565b600061216d612b93565b905060018260000151600481111561218757612187613e89565b11156121a55760405162461bcd60e51b8152600401610cae906141d2565b6121af8282612dd1565b156121f45760405162461bcd60e51b81526020600482015260156024820152741c995b185e595c88185b1c9958591e481d9bdd1959605a1b6044820152606401610cae565b60008251600481111561220957612209613e89565b1415612269576040805160808101825260018082526000602083018190528284015264ffffffffff4316606083015291519093506000805160206143fc8339815191529161225c918d918d918890614041565b60405180910390a16122ca565b600254606083015164ffffffffff6201000090920482169161228d91439116612aa5565b64ffffffffff1611156122ca5760048083526040516000805160206143fc833981519152916122c1918d918d918890614041565b60405180910390a15b6004825160048111156122df576122df613e89565b146123af576123046122f082612df4565b83602001516001600160c81b031617612e22565b6001600160c81b0316602083015260408201805190612322826141b2565b60ff1690525081516040517f25f8daaa4635a7729927ba3f5b3d59cc3320aca7c32c9db4e7ca7b95743436409161235e918d918d918890614041565b60405180910390a1600254604083015160ff61010090920482169116106123af5760028083526040516000805160206143fc833981519152916123a6918d918d918890614041565b60405180910390a15b6001600160481b038416600090815260066020908152604080832086845290915290208251815484929190829060ff191660018360048111156123f4576123f4613e89565b021790555060208201518154604084015160609094015164ffffffffff16600160d81b026001600160d81b0360ff909516600160d01b0260ff60d01b196001600160c81b039094166101000293909316610100600160d81b031990921691909117919091179290921691909117905560028251600481111561247857612478613e89565b141561248d5761248d8a8a89898c6000610e1b565b50505050505050505050565b600081815260016020526040812061127290613087565b6124b8612d06565b60008281526004602081905260409182902080546001600160a01b0319166001600160a01b038781169182179092559251635c7d1b9b60e11b81529182018590528316602482015284919063b8fa373690604401611b76565b612519612d06565b60c8612523611aee565b106125695760405162461bcd60e51b81526020600482015260166024820152751c995b185e595c9cc81b1a5b5a5d081c995858da195960521b6044820152606401610cae565b61258160008051602061441c833981519152826110a3565b6040516001600160a01b03821681527f03580ee9f53a62b7cb409a2cb56f9be87747dd15017afc5cef6eef321e4fb2c590602001611241565b6125c2612d06565b6001600160a01b03919091166000908152600560205260409020805460ff1916911515919091179055565b60008281526001602052604090206002015461260b906107e9612b93565b6126705760405162461bcd60e51b815260206004820152603060248201527f416363657373436f6e74726f6c3a2073656e646572206d75737420626520616e60448201526f2061646d696e20746f207265766f6b6560801b6064820152608401610cae565b61112f8282613091565b612682612d06565b60025460019060009060ff1661269a83610100614287565b6126a491906142a6565b60008181526004602081905260409182902080546001600160a01b0319166001600160a01b038881169182179092559251635c7d1b9b60e11b815291820184905285166024820152919250849163b8fa373690604401600060405180830381600087803b15801561271457600080fd5b505af1158015612728573d6000803e3d6000fd5b505060405163789d771160e01b81526001600160a01b038681166004830152600160248301528416925063789d77119150604401611b76565b612769612d06565b60ff82166000908152600360205260409020546001600160401b03908116908216116127e65760405162461bcd60e51b815260206004820152602660248201527f446f6573206e6f7420616c6c6f772064656372656d656e7473206f6620746865604482015265206e6f6e636560d01b6064820152608401610cae565b60ff919091166000908152600360205260409020805467ffffffffffffffff19166001600160401b03909216919091179055565b6000807fc4cb5d35714699d6e85b9562b644e60393b418d974a5c1dd8efaadac37a142c589898989896040516128519291906141a2565b604051908190038120612894959493929160200194855260ff9390931660208501526001600160401b039190911660408401526060830152608082015260a00190565b60405160208183030381529060405280519060200120905060006128b782612d5f565b905060006128fb8287878080601f016020809104026020016040519081016040528093929190818152602001838380828437600092019190915250612dad92505050565b905061291560008051602061441c83398151915282611c6c565b9b9a5050505050505050505050565b61292c612d06565b611b24612937612b93565b6130fa565b6000610100821061298f5760405162461bcd60e51b815260206004820152601c60248201527f76616c756520646f6573206e6f742066697420696e20382062697473000000006044820152606401610cae565b5090565b600065010000000000821061298f5760405162461bcd60e51b815260206004820152601d60248201527f76616c756520646f6573206e6f742066697420696e20343020626974730000006044820152606401610cae565b6000611c65836001600160a01b038416613145565b6001600160a01b03811660009081526001830160205260408120541515611c65565b6000612a2b612b93565b9050612a38600082611c6c565b80612a565750612a5660008051602061441c83398151915282611c6c565b612aa25760405162461bcd60e51b815260206004820152601e60248201527f73656e646572206973206e6f742072656c61796572206f722061646d696e00006044820152606401610cae565b50565b6000611c6583836040518060400160405280601e81526020017f536166654d6174683a207375627472616374696f6e206f766572666c6f770000815250613194565b612b0160008051602061441c8339815191526107e9612b93565b611b245760405162461bcd60e51b815260206004820181905260248201527f73656e64657220646f65736e277420686176652072656c6179657220726f6c656044820152606401610cae565b60005460ff1615611b245760405162461bcd60e51b815260206004820152601060248201526f14185d5cd8589b194e881c185d5cd95960821b6044820152606401610cae565b60003360143610801590612bbf57506001600160a01b03811660009081526005602052604090205460ff165b15612bcf575060131936013560601c5b919050565b6000828152600160205260409020612bec90826129ea565b1561112f57612bf9612b93565b6001600160a01b0316816001600160a01b0316837f2f8788117e7eff1d82e926ec794901d17c78024a50270940304540a733656f0d60405160405180910390a45050565b60005460ff16611b245760405162461bcd60e51b815260206004820152601460248201527314185d5cd8589b194e881b9bdd081c185d5cd95960621b6044820152606401610cae565b612c8e612b93565b6001600160a01b0316816001600160a01b0316146126705760405162461bcd60e51b815260206004820152602f60248201527f416363657373436f6e74726f6c3a2063616e206f6e6c792072656e6f756e636560448201526e103937b632b9903337b91039b2b63360891b6064820152608401610cae565b612d1360006107e9612b93565b611b245760405162461bcd60e51b815260206004820152601e60248201527f73656e64657220646f65736e277420686176652061646d696e20726f6c6500006044820152606401610cae565b6000611272612d6c6131ce565b8360405161190160f01b6020820152602281018390526042810182905260009060620160405160208183030381529060405280519060200120905092915050565b6000806000612dbc85856132f5565b91509150612dc981613365565b509392505050565b60008083602001516001600160c81b0316612deb84612df4565b16119392505050565b6000612e18612e1160008051602061441c8339815191528461124c565b6001612aa5565b6001901b92915050565b6000600160c81b821061298f5760405162461bcd60e51b815260206004820152601e60248201527f76616c756520646f6573206e6f742066697420696e20323030206269747300006044820152606401610cae565b60ff8087166000908152600a6020526040812054349216612e9a57600754612eae565b60ff88166000908152600960205260409020545b9050612eba81836142be565b91508060086000828254612ece91906142a6565b90915550506000878152600460205260409020546001600160a01b031680612f09576040516308c231dd60e31b815260040160405180910390fd5b60ff8916600090815260036020526040812080548290612f31906001600160401b03166142d5565b91906101000a8154816001600160401b0302191690836001600160401b03160217905590506000826001600160a01b031663b07e54bb868c8f8d8d6040518663ffffffff1660e01b8152600401612f8b94939291906142fc565b60006040518083038185885af1158015612fa9573d6000803e3d6000fd5b50505050506040513d6000823e601f3d908101601f19168201604052612fd29190810190614327565b90508b6001600160a01b03167f17bc3181e17a9620a479c24e6c606e474ba84fc036877b768926872e8cd0e11f8c8c858d8d8760405161301796959493929190614394565b60405180910390a2505050505050505050505050565b613035612b4d565b6000805460ff191660011790556040516001600160a01b03821681527f62e78cea01bee320cd4e420270b5ea74000d11b0c9f74754ebdbfc544b05a25890602001611241565b6000611c658383613520565b6000611272825490565b60008281526001602052604090206130a9908261354a565b1561112f576130b6612b93565b6001600160a01b0316816001600160a01b0316837ff6391f5c32d9c69d2a47ea670b442974b53935d1edc7fd64eb21e047a839171b60405160405180910390a45050565b613102612c3d565b6000805460ff191690556040516001600160a01b03821681527f5db9ee0a495bf2e6ff9c91a7834c1ba4fdd244a5e8aa4e537bd38aeae4b073aa90602001611241565b600081815260018301602052604081205461318c57508154600181810184556000848152602080822090930184905584548482528286019093526040902091909155611272565b506000611272565b600081848411156131b85760405162461bcd60e51b8152600401610cae9190614148565b5060006131c584866142be565b95945050505050565b6000306001600160a01b037f00000000000000000000000000000000000000000000000000000000000000001614801561322757507f000000000000000000000000000000000000000000000000000000000000000046145b1561325157507f000000000000000000000000000000000000000000000000000000000000000090565b50604080517f00000000000000000000000000000000000000000000000000000000000000006020808301919091527f0000000000000000000000000000000000000000000000000000000000000000828401527f000000000000000000000000000000000000000000000000000000000000000060608301524660808301523060a0808401919091528351808403909101815260c0909201909252805191012090565b60008082516041141561332c5760208301516040840151606085015160001a6133208782858561355f565b9450945050505061335e565b825160401415613356576020830151604084015161334b86838361364c565b93509350505061335e565b506000905060025b9250929050565b600081600481111561337957613379613e89565b14156133825750565b600181600481111561339657613396613e89565b14156133e45760405162461bcd60e51b815260206004820152601860248201527f45434453413a20696e76616c6964207369676e617475726500000000000000006044820152606401610cae565b60028160048111156133f8576133f8613e89565b14156134465760405162461bcd60e51b815260206004820152601f60248201527f45434453413a20696e76616c6964207369676e6174757265206c656e677468006044820152606401610cae565b600381600481111561345a5761345a613e89565b14156134b35760405162461bcd60e51b815260206004820152602260248201527f45434453413a20696e76616c6964207369676e6174757265202773272076616c604482015261756560f01b6064820152608401610cae565b60048160048111156134c7576134c7613e89565b1415612aa25760405162461bcd60e51b815260206004820152602260248201527f45434453413a20696e76616c6964207369676e6174757265202776272076616c604482015261756560f01b6064820152608401610cae565b60008260000182815481106135375761353761415b565b9060005260206000200154905092915050565b6000611c65836001600160a01b038416613685565b6000807f7fffffffffffffffffffffffffffffff5d576e7357a4501ddfe92f46681b20a08311156135965750600090506003613643565b8460ff16601b141580156135ae57508460ff16601c14155b156135bf5750600090506004613643565b6040805160008082526020820180845289905260ff881692820192909252606081018690526080810185905260019060a0016020604051602081039080840390855afa158015613613573d6000803e3d6000fd5b5050604051601f1901519150506001600160a01b03811661363c57600060019250925050613643565b9150600090505b94509492505050565b6000806001600160ff1b0383168161366960ff86901c601b6142a6565b90506136778782888561355f565b935093505050935093915050565b6000818152600183016020526040812054801561376e5760006136a96001836142be565b85549091506000906136bd906001906142be565b90508181146137225760008660000182815481106136dd576136dd61415b565b90600052602060002001549050808760000184815481106137005761370061415b565b6000918252602080832090910192909255918252600188019052604090208390555b8554869080613733576137336143e5565b600190038181906000526020600020016000905590558560010160008681526020019081526020016000206000905560019350505050611272565b6000915050611272565b803560ff81168114612bcf57600080fd5b80356001600160401b0381168114612bcf57600080fd5b6000806000606084860312156137b557600080fd5b6137be84613778565b92506137cc60208501613789565b9150604084013590509250925092565b60008083601f8401126137ee57600080fd5b5081356001600160401b0381111561380557600080fd5b60208301915083602082850101111561335e57600080fd5b80358015158114612bcf57600080fd5b60008060008060008060a0878903121561384657600080fd5b61384f87613778565b955061385d60208801613789565b945060408701356001600160401b0381111561387857600080fd5b61388489828a016137dc565b9095509350506060870135915061389d6080880161381d565b90509295509295509295565b6000602082840312156138bb57600080fd5b5035919050565b6001600160a01b0381168114612aa257600080fd5b600080604083850312156138ea57600080fd5b8235915060208301356138fc816138c2565b809150509250929050565b60008083601f84011261391957600080fd5b5081356001600160401b0381111561393057600080fd5b6020830191508360208260051b850101111561335e57600080fd5b6000806000806040858703121561396157600080fd5b84356001600160401b038082111561397857600080fd5b61398488838901613907565b9096509450602087013591508082111561399d57600080fd5b506139aa87828801613907565b95989497509550505050565b6000602082840312156139c857600080fd5b611c6582613778565b6000602082840312156139e357600080fd5b8135611c65816138c2565b80356001600160e01b031981168114612bcf57600080fd5b60008060008060008060c08789031215613a1f57600080fd5b8635613a2a816138c2565b9550602087013594506040870135613a41816138c2565b9350613a4f606088016139ee565b92506080870135915061389d60a088016139ee565b634e487b7160e01b600052604160045260246000fd5b604051601f8201601f191681016001600160401b0381118282101715613aa257613aa2613a64565b604052919050565b60006001600160401b03821115613ac357613ac3613a64565b50601f01601f191660200190565b600082601f830112613ae257600080fd5b8135613af5613af082613aaa565b613a7a565b818152846020838601011115613b0a57600080fd5b816020850160208301376000918101602001919091529392505050565b60008060408385031215613b3a57600080fd5b8235613b45816138c2565b915060208301356001600160401b03811115613b6057600080fd5b613b6c85828601613ad1565b9150509250929050565b60008060408385031215613b8957600080fd5b613b9283613778565b946020939093013593505050565b60008060008060008060a08789031215613bb957600080fd5b613bc287613778565b95506020613bd1818901613789565b95506040880135945060608801356001600160401b0380821115613bf457600080fd5b613c008b838c016137dc565b909650945060808a0135915080821115613c1957600080fd5b818a0191508a601f830112613c2d57600080fd5b813581811115613c3f57613c3f613a64565b8060051b613c4e858201613a7a565b918252838101850191858101908e841115613c6857600080fd5b86860192505b83831015613ca2578483351115613c8457600080fd5b613c938f888535890101613ad1565b82529186019190860190613c6e565b809750505050505050509295509295509295565b60008060008060008060808789031215613ccf57600080fd5b613cd887613778565b95506020870135945060408701356001600160401b0380821115613cfb57600080fd5b613d078a838b016137dc565b90965094506060890135915080821115613d2057600080fd5b50613d2d89828a016137dc565b979a9699509497509295939492505050565b600080600060608486031215613d5457600080fd5b83356001600160481b0381168114613d6b57600080fd5b9250602084013591506040840135613d82816138c2565b809150509250925092565b600080600060608486031215613da257600080fd5b833592506020840135613db4816138c2565b9150613dc26040850161381d565b90509250925092565b60008060408385031215613dde57600080fd5b8235613de9816138c2565b915060208301356138fc816138c2565b60008060408385031215613e0c57600080fd5b50508035926020909101359150565b600080600080600060808688031215613e3357600080fd5b613e3c86613778565b9450613e4a60208701613789565b93506040860135925060608601356001600160401b03811115613e6c57600080fd5b613e78888289016137dc565b969995985093965092949392505050565b634e487b7160e01b600052602160045260246000fd5b60058110613ebd57634e487b7160e01b600052602160045260246000fd5b9052565b6000608082019050613ed4828451613e9f565b60018060c81b03602084015116602083015260ff604084015116604083015264ffffffffff606084015116606083015292915050565b60008060408385031215613f1d57600080fd5b8235613b92816138c2565b600080600060608486031215613f3d57600080fd5b8335613d6b816138c2565b60008060408385031215613f5b57600080fd5b8235613f66816138c2565b9150613f746020840161381d565b90509250929050565b60008060408385031215613f9057600080fd5b613f9983613778565b9150613f7460208401613789565b600080600080600080600060a0888a031215613fc257600080fd5b613fcb88613778565b9650613fd960208901613789565b95506040880135945060608801356001600160401b0380821115613ffc57600080fd5b6140088b838c016137dc565b909650945060808a013591508082111561402157600080fd5b5061402e8a828b016137dc565b989b979a50959850939692959293505050565b60ff851681526001600160401b0384166020820152608081016140676040830185613e9f565b82606083015295945050505050565b8481526bffffffffffffffffffffffff198460601b16602082015281836034830137600091016034019081529392505050565b81835281816020850137506000828201602090810191909152601f909101601f19169091010190565b8381526040602082015260006131c56040830184866140a9565b60005b838110156141075781810151838201526020016140ef565b83811115614116576000848401525b50505050565b600081518084526141348160208601602086016140ec565b601f01601f19169290920160200192915050565b602081526000611c65602083018461411c565b634e487b7160e01b600052603260045260246000fd5b634e487b7160e01b600052601160045260246000fd5b600060001982141561419b5761419b614171565b5060010190565b8183823760009101908152919050565b600060ff821660ff8114156141c9576141c9614171565b60010192915050565b60208082526023908201527f70726f706f73616c20616c72656164792065786563757465642f63616e63656c6040820152621b195960ea1b606082015260800190565b60018060a01b038916815260ff8816602082015260ff8716604082015285606082015260c06080820152600061424f60c0830186886140a9565b82810360a08401526129158185876140a9565b6000806040838503121561427557600080fd5b8251915060208301516138fc816138c2565b60008160001904831182151516156142a1576142a1614171565b500290565b600082198211156142b9576142b9614171565b500190565b6000828210156142d0576142d0614171565b500390565b60006001600160401b03808316818114156142f2576142f2614171565b6001019392505050565b8481526001600160a01b0384166020820152606060408201819052600090611d4390830184866140a9565b60006020828403121561433957600080fd5b81516001600160401b0381111561434f57600080fd5b8201601f8101841361436057600080fd5b805161436e613af082613aaa565b81815285602083850101111561438357600080fd5b6131c58260208301602086016140ec565b60ff871681528560208201526001600160401b038516604082015260a0606082015260006143c660a0830185876140a9565b82810360808401526143d8818561411c565b9998505050505050505050565b634e487b7160e01b600052603160045260246000fdfe968626a768e76ba1363efe44e322a6c4900c5f084e0b45f35e294dfddaa9e0d5e2b7fb3b832174769106daebcfd6d1970523240dda11281102db9363b83b0dc4a26469706673582212209065305cadae36e9654c15486e3d5726d8d6021d0693abfcc28505a3e9f8221d64736f6c634300080b0033",
  "linkReferences": {},
  "deployedLinkReferences": {}
}