{
  "_format": "hh-sol-artifact-1",
  "contractName": "Bridge",
  "sourceName": "contracts/Bridge.sol",
  "abi": [
    {
      "inputs": [
        {
          "internalType": "uint8",
          "name": "domainID",
          "type": "uint8"
        },
        {
          "internalType": "address[]",
          "name": "initialRelayers",
          "type": "address[]"
        },
        {
          "internalType": "uint256",
          "name": "initialRelayerThreshold",
          "type": "uint256"
        },
        {
          "internalType": "uint256",
          "name": "expiry",
          "type": "uint256"
        }
      ],
      "stateMutability": "nonpayable",
      "type": "constructor"
    },
    {
      "inputs": [
        {
          "internalType": "uint256",
          "name": "msgValue",
          "type": "uint256"
        },
        {
          "internalType": "uint256",
          "name": "fee",
          "type": "uint256"
        }
      ],
      "name": "IncorrectFeeSupplied",
      "type": "error"
    },
    {
      "inputs": [
        {
          "internalType": "address",
          "name": "signer",
          "type": "address"
        },
        {
          "internalType": "uint256",
          "name": "index",
          "type": "uint256"
        }
      ],
      "name": "InviladSignature",
      "type": "error"
    },
    {
      "inputs": [],
      "name": "ResourceIDNotMappedToHandler",
      "type": "error"
    },
    {
      "anonymous": false,
      "inputs": [
        {
          "indexed": false,
          "internalType": "uint8",
          "name": "destinationDomainID",
          "type": "uint8"
        },
        {
          "indexed": false,
          "internalType": "bytes32",
          "name": "resourceID",
          "type": "bytes32"
        },
        {
          "indexed": false,
          "internalType": "uint64",
          "name": "depositNonce",
          "type": "uint64"
        },
        {
          "indexed": true,
          "internalType": "address",
          "name": "user",
          "type": "address"
        },
        {
          "indexed": false,
          "internalType": "bytes",
          "name": "data",
          "type": "bytes"
        },
        {
          "indexed": false,
          "internalType": "bytes",
          "name": "handlerResponse",
          "type": "bytes"
        }
      ],
      "name": "Deposit",
      "type": "event"
    },
    {
      "anonymous": false,
      "inputs": [
        {
          "indexed": false,
          "internalType": "bytes",
          "name": "lowLevelData",
          "type": "bytes"
        }
      ],
      "name": "FailedHandlerExecution",
      "type": "event"
    },
    {
      "anonymous": false,
      "inputs": [
        {
          "indexed": false,
          "internalType": "address",
          "name": "newFeeHandler",
          "type": "address"
        }
      ],
      "name": "FeeHandlerChanged",
      "type": "event"
    },
    {
      "anonymous": false,
      "inputs": [
        {
          "indexed": false,
          "internalType": "address",
          "name": "account",
          "type": "address"
        }
      ],
      "name": "Paused",
      "type": "event"
    },
    {
      "anonymous": false,
      "inputs": [
        {
          "indexed": false,
          "internalType": "uint8",
          "name": "originDomainID",
          "type": "uint8"
        },
        {
          "indexed": false,
          "internalType": "uint64",
          "name": "depositNonce",
          "type": "uint64"
        },
        {
          "indexed": false,
          "internalType": "enum IBridge.ProposalStatus",
          "name": "status",
          "type": "uint8"
        },
        {
          "indexed": false,
          "internalType": "bytes32",
          "name": "dataHash",
          "type": "bytes32"
        }
      ],
      "name": "ProposalEvent",
      "type": "event"
    },
    {
      "anonymous": false,
      "inputs": [
        {
          "indexed": false,
          "internalType": "uint8",
          "name": "originDomainID",
          "type": "uint8"
        },
        {
          "indexed": false,
          "internalType": "uint64",
          "name": "depositNonce",
          "type": "uint64"
        },
        {
          "indexed": false,
          "internalType": "enum IBridge.ProposalStatus",
          "name": "status",
          "type": "uint8"
        },
        {
          "indexed": false,
          "internalType": "bytes32",
          "name": "dataHash",
          "type": "bytes32"
        }
      ],
      "name": "ProposalVote",
      "type": "event"
    },
    {
      "anonymous": false,
      "inputs": [
        {
          "indexed": false,
          "internalType": "address",
          "name": "relayer",
          "type": "address"
        }
      ],
      "name": "RelayerAdded",
      "type": "event"
    },
    {
      "anonymous": false,
      "inputs": [
        {
          "indexed": false,
          "internalType": "address",
          "name": "relayer",
          "type": "address"
        }
      ],
      "name": "RelayerRemoved",
      "type": "event"
    },
    {
      "anonymous": false,
      "inputs": [
        {
          "indexed": false,
          "internalType": "uint256",
          "name": "newThreshold",
          "type": "uint256"
        }
      ],
      "name": "RelayerThresholdChanged",
      "type": "event"
    },
    {
      "anonymous": false,
      "inputs": [
        {
          "indexed": true,
          "internalType": "bytes32",
          "name": "role",
          "type": "bytes32"
        },
        {
          "indexed": true,
          "internalType": "address",
          "name": "account",
          "type": "address"
        },
        {
          "indexed": true,
          "internalType": "address",
          "name": "sender",
          "type": "address"
        }
      ],
      "name": "RoleGranted",
      "type": "event"
    },
    {
      "anonymous": false,
      "inputs": [
        {
          "indexed": true,
          "internalType": "bytes32",
          "name": "role",
          "type": "bytes32"
        },
        {
          "indexed": true,
          "internalType": "address",
          "name": "account",
          "type": "address"
        },
        {
          "indexed": true,
          "internalType": "address",
          "name": "sender",
          "type": "address"
        }
      ],
      "name": "RoleRevoked",
      "type": "event"
    },
    {
      "anonymous": false,
      "inputs": [
        {
          "indexed": false,
          "internalType": "address",
          "name": "account",
          "type": "address"
        }
      ],
      "name": "Unpaused",
      "type": "event"
    },
    {
      "inputs": [],
      "name": "DEFAULT_ADMIN_ROLE",
      "outputs": [
        {
          "internalType": "bytes32",
          "name": "",
          "type": "bytes32"
        }
      ],
      "stateMutability": "view",
      "type": "function"
    },
    {
      "inputs": [],
      "name": "MAX_RELAYERS",
      "outputs": [
        {
          "internalType": "uint256",
          "name": "",
          "type": "uint256"
        }
      ],
      "stateMutability": "view",
      "type": "function"
    },
    {
      "inputs": [],
      "name": "PERMIT_TYPEHASH",
      "outputs": [
        {
          "internalType": "bytes32",
          "name": "",
          "type": "bytes32"
        }
      ],
      "stateMutability": "view",
      "type": "function"
    },
    {
      "inputs": [],
      "name": "RELAYER_ROLE",
      "outputs": [
        {
          "internalType": "bytes32",
          "name": "",
          "type": "bytes32"
        }
      ],
      "stateMutability": "view",
      "type": "function"
    },
    {
      "inputs": [],
      "name": "_chainId",
      "outputs": [
        {
          "internalType": "uint256",
          "name": "",
          "type": "uint256"
        }
      ],
      "stateMutability": "view",
      "type": "function"
    },
    {
      "inputs": [
        {
          "internalType": "uint8",
          "name": "",
          "type": "uint8"
        }
      ],
      "name": "_depositCounts",
      "outputs": [
        {
          "internalType": "uint64",
          "name": "",
          "type": "uint64"
        }
      ],
      "stateMutability": "view",
      "type": "function"
    },
    {
      "inputs": [],
      "name": "_domainID",
      "outputs": [
        {
          "internalType": "uint8",
          "name": "",
          "type": "uint8"
        }
      ],
      "stateMutability": "view",
      "type": "function"
    },
    {
      "inputs": [],
      "name": "_expiry",
      "outputs": [
        {
          "internalType": "uint40",
          "name": "",
          "type": "uint40"
        }
      ],
      "stateMutability": "view",
      "type": "function"
    },
    {
      "inputs": [],
      "name": "_fee",
      "outputs": [
        {
          "internalType": "uint256",
          "name": "",
          "type": "uint256"
        }
      ],
      "stateMutability": "view",
      "type": "function"
    },
    {
      "inputs": [],
      "name": "_feeHandler",
      "outputs": [
        {
          "internalType": "contract IFeeHandler",
          "name": "",
          "type": "address"
        }
      ],
      "stateMutability": "view",
      "type": "function"
    },
    {
      "inputs": [
        {
          "internalType": "uint72",
          "name": "destNonce",
          "type": "uint72"
        },
        {
          "internalType": "bytes32",
          "name": "dataHash",
          "type": "bytes32"
        },
        {
          "internalType": "address",
          "name": "relayer",
          "type": "address"
        }
      ],
      "name": "_hasVotedOnProposal",
      "outputs": [
        {
          "internalType": "bool",
          "name": "",
          "type": "bool"
        }
      ],
      "stateMutability": "view",
      "type": "function"
    },
    {
      "inputs": [],
      "name": "_relayerThreshold",
      "outputs": [
        {
          "internalType": "uint8",
          "name": "",
          "type": "uint8"
        }
      ],
      "stateMutability": "view",
      "type": "function"
    },
    {
      "inputs": [
        {
          "internalType": "bytes32",
          "name": "",
          "type": "bytes32"
        }
      ],
      "name": "_resourceIDToHandlerAddress",
      "outputs": [
        {
          "internalType": "address",
          "name": "",
          "type": "address"
        }
      ],
      "stateMutability": "view",
      "type": "function"
    },
    {
      "inputs": [],
      "name": "_totalRelayers",
      "outputs": [
        {
          "internalType": "uint256",
          "name": "",
          "type": "uint256"
        }
      ],
      "stateMutability": "view",
      "type": "function"
    },
    {
      "inputs": [
        {
          "internalType": "address",
          "name": "relayerAddress",
          "type": "address"
        }
      ],
      "name": "adminAddRelayer",
      "outputs": [],
      "stateMutability": "nonpayable",
      "type": "function"
    },
    {
      "inputs": [
        {
          "internalType": "uint256",
          "name": "expiry",
          "type": "uint256"
        }
      ],
      "name": "adminChangeExpiry",
      "outputs": [],
      "stateMutability": "nonpayable",
      "type": "function"
    },
    {
      "inputs": [
        {
          "internalType": "address",
          "name": "newFeeHandler",
          "type": "address"
        }
      ],
      "name": "adminChangeFeeHandler",
      "outputs": [],
      "stateMutability": "nonpayable",
      "type": "function"
    },
    {
      "inputs": [
        {
          "internalType": "uint256",
          "name": "newThreshold",
          "type": "uint256"
        }
      ],
      "name": "adminChangeRelayerThreshold",
      "outputs": [],
      "stateMutability": "nonpayable",
      "type": "function"
    },
    {
      "inputs": [],
      "name": "adminPauseTransfers",
      "outputs": [],
      "stateMutability": "nonpayable",
      "type": "function"
    },
    {
      "inputs": [
        {
          "internalType": "address",
          "name": "relayerAddress",
          "type": "address"
        }
      ],
      "name": "adminRemoveRelayer",
      "outputs": [],
      "stateMutability": "nonpayable",
      "type": "function"
    },
    {
      "inputs": [
        {
          "internalType": "address",
          "name": "handlerAddress",
          "type": "address"
        },
        {
          "internalType": "address",
          "name": "tokenAddress",
          "type": "address"
        }
      ],
      "name": "adminSetBurnable",
      "outputs": [],
      "stateMutability": "nonpayable",
      "type": "function"
    },
    {
      "inputs": [
        {
          "internalType": "uint8",
          "name": "domainID",
          "type": "uint8"
        },
        {
          "internalType": "uint64",
          "name": "nonce",
          "type": "uint64"
        }
      ],
      "name": "adminSetDepositNonce",
      "outputs": [],
      "stateMutability": "nonpayable",
      "type": "function"
    },
    {
      "inputs": [
        {
          "internalType": "address",
          "name": "forwarder",
          "type": "address"
        },
        {
          "internalType": "bool",
          "name": "valid",
          "type": "bool"
        }
      ],
      "name": "adminSetForwarder",
      "outputs": [],
      "stateMutability": "nonpayable",
      "type": "function"
    },
    {
      "inputs": [
        {
          "internalType": "address",
          "name": "handlerAddress",
          "type": "address"
        },
        {
          "internalType": "bytes32",
          "name": "resourceID",
          "type": "bytes32"
        },
        {
          "internalType": "address",
          "name": "contractAddress",
          "type": "address"
        },
        {
          "internalType": "bytes4",
          "name": "depositFunctionSig",
          "type": "bytes4"
        },
        {
          "internalType": "uint256",
          "name": "depositFunctionDepositerOffset",
          "type": "uint256"
        },
        {
          "internalType": "bytes4",
          "name": "executeFunctionSig",
          "type": "bytes4"
        }
      ],
      "name": "adminSetGenericResource",
      "outputs": [],
      "stateMutability": "nonpayable",
      "type": "function"
    },
    {
      "inputs": [
        {
          "internalType": "address",
          "name": "handlerAddress",
          "type": "address"
        },
        {
          "internalType": "bytes32",
          "name": "resourceID",
          "type": "bytes32"
        },
        {
          "internalType": "address",
          "name": "tokenAddress",
          "type": "address"
        }
      ],
      "name": "adminSetResource",
      "outputs": [],
      "stateMutability": "nonpayable",
      "type": "function"
    },
    {
      "inputs": [
        {
          "internalType": "bytes32",
          "name": "resourceID",
          "type": "bytes32"
        },
        {
          "internalType": "address",
          "name": "wtokenAddress",
          "type": "address"
        },
        {
          "internalType": "bool",
          "name": "isWtoken",
          "type": "bool"
        }
      ],
      "name": "adminSetWtoken",
      "outputs": [],
      "stateMutability": "nonpayable",
      "type": "function"
    },
    {
      "inputs": [],
      "name": "adminUnpauseTransfers",
      "outputs": [],
      "stateMutability": "nonpayable",
      "type": "function"
    },
    {
      "inputs": [
        {
          "internalType": "address",
          "name": "handlerAddress",
          "type": "address"
        },
        {
          "internalType": "bytes",
          "name": "data",
          "type": "bytes"
        }
      ],
      "name": "adminWithdraw",
      "outputs": [],
      "stateMutability": "nonpayable",
      "type": "function"
    },
    {
      "inputs": [
        {
          "internalType": "address",
          "name": "handlerAddress",
          "type": "address"
        },
        {
          "internalType": "bytes",
          "name": "data",
          "type": "bytes"
        }
      ],
      "name": "adminWithdrawETH",
      "outputs": [],
      "stateMutability": "nonpayable",
      "type": "function"
    },
    {
      "inputs": [
        {
          "internalType": "uint8",
          "name": "destinationDomainID",
          "type": "uint8"
        },
        {
          "internalType": "bytes32",
          "name": "resourceID",
          "type": "bytes32"
        },
        {
          "internalType": "bytes",
          "name": "depositData",
          "type": "bytes"
        },
        {
          "internalType": "bytes",
          "name": "feeData",
          "type": "bytes"
        }
      ],
      "name": "calculateFee",
      "outputs": [
        {
          "internalType": "uint256",
          "name": "",
          "type": "uint256"
        }
      ],
      "stateMutability": "view",
      "type": "function"
    },
    {
      "inputs": [
        {
          "internalType": "uint8",
          "name": "domainID",
          "type": "uint8"
        },
        {
          "internalType": "uint64",
          "name": "depositNonce",
          "type": "uint64"
        },
        {
          "internalType": "bytes32",
          "name": "dataHash",
          "type": "bytes32"
        }
      ],
      "name": "cancelProposal",
      "outputs": [],
      "stateMutability": "nonpayable",
      "type": "function"
    },
    {
      "inputs": [
        {
          "internalType": "uint8",
          "name": "domainID",
          "type": "uint8"
        },
        {
          "internalType": "uint64",
          "name": "depositNonce",
          "type": "uint64"
        },
        {
          "internalType": "bytes32",
          "name": "resourceID",
          "type": "bytes32"
        },
        {
          "internalType": "bytes",
          "name": "data",
          "type": "bytes"
        },
        {
          "internalType": "bytes",
          "name": "signature",
          "type": "bytes"
        }
      ],
      "name": "checkSignature",
      "outputs": [
        {
          "internalType": "bool",
          "name": "",
          "type": "bool"
        }
      ],
      "stateMutability": "view",
      "type": "function"
    },
    {
      "inputs": [
        {
          "internalType": "uint8",
          "name": "destinationDomainID",
          "type": "uint8"
        },
        {
          "internalType": "bytes32",
          "name": "resourceID",
          "type": "bytes32"
        },
        {
          "internalType": "bytes",
          "name": "depositData",
          "type": "bytes"
        },
        {
          "internalType": "bytes",
          "name": "feeData",
          "type": "bytes"
        }
      ],
      "name": "deposit",
      "outputs": [],
      "stateMutability": "payable",
      "type": "function"
    },
    {
      "inputs": [
        {
          "internalType": "uint8",
          "name": "domainID",
          "type": "uint8"
        },
        {
          "internalType": "uint64",
          "name": "depositNonce",
          "type": "uint64"
        },
        {
          "internalType": "bytes",
          "name": "data",
          "type": "bytes"
        },
        {
          "internalType": "bytes32",
          "name": "resourceID",
          "type": "bytes32"
        },
        {
          "internalType": "bool",
          "name": "revertOnFail",
          "type": "bool"
        }
      ],
      "name": "executeProposal",
      "outputs": [],
      "stateMutability": "nonpayable",
      "type": "function"
    },
    {
      "inputs": [
        {
          "internalType": "uint8",
          "name": "originDomainID",
          "type": "uint8"
        },
        {
          "internalType": "uint64",
          "name": "depositNonce",
          "type": "uint64"
        },
        {
          "internalType": "bytes32",
          "name": "dataHash",
          "type": "bytes32"
        }
      ],
      "name": "getProposal",
      "outputs": [
        {
          "components": [
            {
              "internalType": "enum IBridge.ProposalStatus",
              "name": "_status",
              "type": "uint8"
            },
            {
              "internalType": "uint200",
              "name": "_yesVotes",
              "type": "uint200"
            },
            {
              "internalType": "uint8",
              "name": "_yesVotesTotal",
              "type": "uint8"
            },
            {
              "internalType": "uint40",
              "name": "_proposedBlock",
              "type": "uint40"
            }
          ],
          "internalType": "struct IBridge.Proposal",
          "name": "",
          "type": "tuple"
        }
      ],
      "stateMutability": "view",
      "type": "function"
    },
    {
      "inputs": [
        {
          "internalType": "bytes32",
          "name": "role",
          "type": "bytes32"
        }
      ],
      "name": "getRoleAdmin",
      "outputs": [
        {
          "internalType": "bytes32",
          "name": "",
          "type": "bytes32"
        }
      ],
      "stateMutability": "view",
      "type": "function"
    },
    {
      "inputs": [
        {
          "internalType": "bytes32",
          "name": "role",
          "type": "bytes32"
        },
        {
          "internalType": "uint256",
          "name": "index",
          "type": "uint256"
        }
      ],
      "name": "getRoleMember",
      "outputs": [
        {
          "internalType": "address",
          "name": "",
          "type": "address"
        }
      ],
      "stateMutability": "view",
      "type": "function"
    },
    {
      "inputs": [
        {
          "internalType": "bytes32",
          "name": "role",
          "type": "bytes32"
        }
      ],
      "name": "getRoleMemberCount",
      "outputs": [
        {
          "internalType": "uint256",
          "name": "",
          "type": "uint256"
        }
      ],
      "stateMutability": "view",
      "type": "function"
    },
    {
      "inputs": [
        {
          "internalType": "bytes32",
          "name": "role",
          "type": "bytes32"
        },
        {
          "internalType": "address",
          "name": "account",
          "type": "address"
        }
      ],
      "name": "getRoleMemberIndex",
      "outputs": [
        {
          "internalType": "uint256",
          "name": "",
          "type": "uint256"
        }
      ],
      "stateMutability": "view",
      "type": "function"
    },
    {
      "inputs": [
        {
          "internalType": "bytes32",
          "name": "role",
          "type": "bytes32"
        },
        {
          "internalType": "address",
          "name": "account",
          "type": "address"
        }
      ],
      "name": "grantRole",
      "outputs": [],
      "stateMutability": "nonpayable",
      "type": "function"
    },
    {
      "inputs": [
        {
          "internalType": "bytes32",
          "name": "role",
          "type": "bytes32"
        },
        {
          "internalType": "address",
          "name": "account",
          "type": "address"
        }
      ],
      "name": "hasRole",
      "outputs": [
        {
          "internalType": "bool",
          "name": "",
          "type": "bool"
        }
      ],
      "stateMutability": "view",
      "type": "function"
    },
    {
      "inputs": [
        {
          "internalType": "address",
          "name": "relayer",
          "type": "address"
        }
      ],
      "name": "isRelayer",
      "outputs": [
        {
          "internalType": "bool",
          "name": "",
          "type": "bool"
        }
      ],
      "stateMutability": "view",
      "type": "function"
    },
    {
      "inputs": [
        {
          "internalType": "address",
          "name": "",
          "type": "address"
        }
      ],
      "name": "isValidForwarder",
      "outputs": [
        {
          "internalType": "bool",
          "name": "",
          "type": "bool"
        }
      ],
      "stateMutability": "view",
      "type": "function"
    },
    {
      "inputs": [],
      "name": "paused",
      "outputs": [
        {
          "internalType": "bool",
          "name": "",
          "type": "bool"
        }
      ],
      "stateMutability": "view",
      "type": "function"
    },
    {
      "inputs": [
        {
          "internalType": "address",
          "name": "newAdmin",
          "type": "address"
        }
      ],
      "name": "renounceAdmin",
      "outputs": [],
      "stateMutability": "nonpayable",
      "type": "function"
    },
    {
      "inputs": [
        {
          "internalType": "bytes32",
          "name": "role",
          "type": "bytes32"
        },
        {
          "internalType": "address",
          "name": "account",
          "type": "address"
        }
      ],
      "name": "renounceRole",
      "outputs": [],
      "stateMutability": "nonpayable",
      "type": "function"
    },
    {
      "inputs": [
        {
          "internalType": "bytes32",
          "name": "role",
          "type": "bytes32"
        },
        {
          "internalType": "address",
          "name": "account",
          "type": "address"
        }
      ],
      "name": "revokeRole",
      "outputs": [],
      "stateMutability": "nonpayable",
      "type": "function"
    },
    {
      "inputs": [
        {
          "internalType": "address payable[]",
          "name": "addrs",
          "type": "address[]"
        },
        {
          "internalType": "uint256[]",
          "name": "amounts",
          "type": "uint256[]"
        }
      ],
      "name": "transferFunds",
      "outputs": [],
      "stateMutability": "nonpayable",
      "type": "function"
    },
    {
      "inputs": [
        {
          "internalType": "uint8",
          "name": "domainID",
          "type": "uint8"
        },
        {
          "internalType": "uint64",
          "name": "depositNonce",
          "type": "uint64"
        },
        {
          "internalType": "bytes32",
          "name": "resourceID",
          "type": "bytes32"
        },
        {
          "internalType": "bytes",
          "name": "data",
          "type": "bytes"
        }
      ],
      "name": "voteProposal",
      "outputs": [],
      "stateMutability": "nonpayable",
      "type": "function"
    },
    {
      "inputs": [
        {
          "internalType": "uint8",
          "name": "domainID",
          "type": "uint8"
        },
        {
          "internalType": "uint64",
          "name": "depositNonce",
          "type": "uint64"
        },
        {
          "internalType": "bytes32",
          "name": "resourceID",
          "type": "bytes32"
        },
        {
          "internalType": "bytes",
          "name": "data",
          "type": "bytes"
        },
        {
          "internalType": "bytes[]",
          "name": "signatures",
          "type": "bytes[]"
        }
      ],
      "name": "voteProposals",
      "outputs": [],
      "stateMutability": "nonpayable",
      "type": "function"
    }
  ],
  "bytecode": "0x6101406040523480156200001257600080fd5b5060405162004a6b38038062004a6b83398101604081905262000035916200053b565b604080518082018252600c81526b5065726d697442726964676560a01b6020808301918252835180850190945260038452620312e360ec1b908401528151902060e08190527fe6bbd6277e1bf288eed5e8d1780f9a50b239e86b153736bceebccf4ea79d90b36101008190524660a0529192917f8b73c3c69bb8fe3d512ecc4cf759cc79239f7b179b0ffacaa9a75d522b39400f620001198184846040805160208101859052908101839052606081018290524660808201523060a082015260009060c0016040516020818303038152906040528051906020012090509392505050565b6080523060c0526101205250506000805460ff199081169091556002805490911660ff8816179055506200015b90508262000241602090811b62002af817901c565b600260016101000a81548160ff021916908360ff1602179055506200018b816200029e60201b62002b4f1760201c565b6002805464ffffffffff92909216620100000266ffffffffff000019909216919091179055620001c66000620001c0620002f7565b6200033a565b60005b83518110156200023657620002217fe2b7fb3b832174769106daebcfd6d1970523240dda11281102db9363b83b0dc48583815181106200020d576200020d62000639565b60200260200101516200034a60201b60201c565b806200022d816200064f565b915050620001c9565b505050505062000679565b600061010082106200029a5760405162461bcd60e51b815260206004820152601c60248201527f76616c756520646f6573206e6f742066697420696e203820626974730000000060448201526064015b60405180910390fd5b5090565b60006501000000000082106200029a5760405162461bcd60e51b815260206004820152601d60248201527f76616c756520646f6573206e6f742066697420696e2034302062697473000000604482015260640162000291565b600033601436108015906200032457506001600160a01b03811660009081526005602052604090205460ff165b1562000335575060131936013560601c5b919050565b620003468282620003d7565b5050565b60008281526001602052604090206002015462000371906200036b620002f7565b62000452565b6200033a5760405162461bcd60e51b815260206004820152602f60248201527f416363657373436f6e74726f6c3a2073656e646572206d75737420626520616e60448201526e0818591b5a5b881d1bc819dc985b9d608a1b606482015260840162000291565b6000828152600160209081526040909120620003fe91839062002ba662000481821b17901c565b1562000346576200040e620002f7565b6001600160a01b0316816001600160a01b0316837f2f8788117e7eff1d82e926ec794901d17c78024a50270940304540a733656f0d60405160405180910390a45050565b600082815260016020908152604082206200047891849062002bbb62000498821b17901c565b90505b92915050565b600062000478836001600160a01b038416620004bb565b6001600160a01b0381166000908152600183016020526040812054151562000478565b600081815260018301602052604081205462000504575081546001818101845560008481526020808220909301849055845484825282860190935260409020919091556200047b565b5060006200047b565b634e487b7160e01b600052604160045260246000fd5b80516001600160a01b03811681146200033557600080fd5b600080600080608085870312156200055257600080fd5b845160ff811681146200056457600080fd5b602086810151919550906001600160401b03808211156200058457600080fd5b818801915088601f8301126200059957600080fd5b815181811115620005ae57620005ae6200050d565b8060051b604051601f19603f83011681018181108582111715620005d657620005d66200050d565b60405291825284820192508381018501918b831115620005f557600080fd5b938501935b828510156200061e576200060e8562000523565b84529385019392850192620005fa565b60408b01516060909b0151999c909b50975050505050505050565b634e487b7160e01b600052603260045260246000fd5b60006000198214156200067257634e487b7160e01b600052601160045260246000fd5b5060010190565b60805160a05160c05160e05161010051610120516143a2620006c960003960006131aa015260006131f9015260006131d40152600061312d015260006131570152600061318101526143a26000f3fe6080604052600436106102c95760003560e01c80638c0c263111610175578063c5b37c22116100dc578063d547741f11610095578063f8c39e441161006f578063f8c39e441461090e578063fe4648f41461093e578063fe65c4be14610965578063ffaac0eb1461098557600080fd5b8063d547741f146108af578063d7a9cd79146108cf578063edc20c3c146108ee57600080fd5b8063c5b37c22146107e0578063c5ec8970146107f5578063ca15c8731461082f578063cb10f2151461084f578063cdb0f73a1461086f578063d15ef64e1461088f57600080fd5b80639dd694f41161012e5780639dd694f41461071d5780639debb3bd14610749578063a217fddf1461075e578063a9cf69fa14610773578063bd2a1820146107a0578063c0331b3e146107c057600080fd5b80638c0c26311461065b5780639010d07c1461067b57806391d148541461069b578063926d7d7f146106bb5780639d4d39f5146106dd5780639d82dd63146106fd57600080fd5b80635a1ad87c1161023457806374773412116101ed578063802aabe8116101c7578063802aabe8146105c357806380ae1c28146105d857806384db809f146105ed5780638b63aebf1461063b57600080fd5b806374773412146105705780637d026d96146105835780637febe63f146105a357600080fd5b80635a1ad87c146104c55780635c975abb146104e55780635e1fab0f146104fd5780636d3b6eea1461051d5780637292dd911461053d57806373c45c981461055d57600080fd5b806336568abe1161028657806336568abe146103c75780634603ae38146103e75780634b0b919d146104075780634e056005146104555780634e0df3f614610475578063541d55481461049557600080fd5b806317f03ce5146102ce578063206a98fd146102f0578063231de02014610310578063248a9ca3146103305780632f2ff15d1461037357806330adf81f14610393575b600080fd5b3480156102da57600080fd5b506102ee6102e9366004613726565b61099a565b005b3480156102fc57600080fd5b506102ee61030b3660046137b3565b610c2f565b34801561031c57600080fd5b506102ee61032b366004613844565b610eb5565b34801561033c57600080fd5b5061036061034b366004613882565b60009081526001602052604090206002015490565b6040519081526020015b60405180910390f35b34801561037f57600080fd5b506102ee61038e36600461389b565b610f3d565b34801561039f57600080fd5b506103607fc4cb5d35714699d6e85b9562b644e60393b418d974a5c1dd8efaadac37a142c581565b3480156103d357600080fd5b506102ee6103e236600461389b565b610fcd565b3480156103f357600080fd5b506102ee61040236600461390f565b611057565b34801561041357600080fd5b5061043d61042236600461397a565b6003602052600090815260409020546001600160401b031681565b6040516001600160401b03909116815260200161036a565b34801561046157600080fd5b506102ee610470366004613882565b6110fb565b34801561048157600080fd5b5061036061049036600461389b565b61115e565b3480156104a157600080fd5b506104b56104b0366004613995565b61118a565b604051901515815260200161036a565b3480156104d157600080fd5b506102ee6104e03660046139ca565b6111a4565b3480156104f157600080fd5b5060005460ff166104b5565b34801561050957600080fd5b506102ee610518366004613995565b61125a565b34801561052957600080fd5b506102ee610538366004613aeb565b6112e6565b34801561054957600080fd5b506102ee610558366004613b3a565b611353565b6102ee61056b366004613c50565b611a69565b34801561057c57600080fd5b5046610360565b34801561058f57600080fd5b506102ee61059e366004613882565b611d12565b3480156105af57600080fd5b506104b56105be366004613cd9565b611d47565b3480156105cf57600080fd5b50610360611deb565b3480156105e457600080fd5b506102ee611e09565b3480156105f957600080fd5b50610623610608366004613882565b6004602052600090815260409020546001600160a01b031681565b6040516001600160a01b03909116815260200161036a565b34801561064757600080fd5b506102ee610656366004613995565b611e23565b34801561066757600080fd5b506102ee610676366004613d27565b611e89565b34801561068757600080fd5b50610623610696366004613d55565b611ec2565b3480156106a757600080fd5b506104b56106b636600461389b565b611ee1565b3480156106c757600080fd5b5061036060008051602061434d83398151915281565b3480156106e957600080fd5b506103606106f8366004613c50565b611ef9565b34801561070957600080fd5b506102ee610718366004613995565b611fc2565b34801561072957600080fd5b506002546107379060ff1681565b60405160ff909116815260200161036a565b34801561075557600080fd5b5061036060c881565b34801561076a57600080fd5b50610360600081565b34801561077f57600080fd5b5061079361078e366004613726565b612077565b60405161036a9190613daf565b3480156107ac57600080fd5b506102ee6107bb366004613aeb565b612145565b3480156107cc57600080fd5b506102ee6107db366004613df8565b61217b565b3480156107ec57600080fd5b50610360612651565b34801561080157600080fd5b506002546108199062010000900464ffffffffff1681565b60405164ffffffffff909116815260200161036a565b34801561083b57600080fd5b5061036061084a366004613882565b6126e9565b34801561085b57600080fd5b506102ee61086a366004613e66565b612700565b34801561087b57600080fd5b506102ee61088a366004613995565b612761565b34801561089b57600080fd5b506102ee6108aa366004613e86565b612867565b3480156108bb57600080fd5b506102ee6108ca36600461389b565b61289a565b3480156108db57600080fd5b5060025461073790610100900460ff1681565b3480156108fa57600080fd5b506102ee610909366004613ebb565b61291d565b34801561091a57600080fd5b506104b5610929366004613995565b60056020526000908152604090205460ff1681565b34801561094a57600080fd5b5060025461062390600160381b90046001600160a01b031681565b34801561097157600080fd5b506104b5610980366004613ee5565b6129d6565b34801561099157600080fd5b506102ee612ae0565b6109a2612bdd565b60ff838116600884901b68ffffffffffffffff00161760008181526006602090815260408083208684529091528082208151608081019092528054939492939192909183911660048111156109f9576109f9613d77565b6004811115610a0a57610a0a613d77565b8152905461010081046001600160c81b03166020830152600160d01b810460ff166040830152600160d81b900464ffffffffff1660609091015280519091506001816004811115610a5d57610a5d613d77565b1480610a7a57506002816004811115610a7857610a78613d77565b145b610acb5760405162461bcd60e51b815260206004820152601c60248201527f50726f706f73616c2063616e6e6f742062652063616e63656c6c65640000000060448201526064015b60405180910390fd5b600254606083015164ffffffffff62010000909204821691610aef91439116612c61565b64ffffffffff1611610b435760405162461bcd60e51b815260206004820181905260248201527f50726f706f73616c206e6f7420617420657870697279207468726573686f6c646044820152606401610ac2565b60048083526001600160481b03841660009081526006602090815260408083208884529091529020835181548593839160ff1916906001908490811115610b8c57610b8c613d77565b02179055506020820151815460408085015160609095015164ffffffffff16600160d81b026001600160d81b0360ff909616600160d01b0260ff60d01b196001600160c81b039095166101000294909416610100600160d81b03199093169290921792909217939093169290921790555160008051602061432d83398151915290610c1f90889088906004908990613f7f565b60405180910390a1505050505050565b610c37612ca3565b610c3f612d09565b60008281526004602090815260408083205490516001600160a01b039091169268ffffffffffffffff0060088a901b1660ff8b1617929091610c879185918a918a9101613fb4565b60408051601f1981840301815291815281516020928301206001600160481b03851660009081526006845282812082825290935291209091506002815460ff166004811115610cd857610cd8613d77565b14610d255760405162461bcd60e51b815260206004820181905260248201527f50726f706f73616c206d757374206861766520506173736564207374617475736044820152606401610ac2565b805460ff19166003178155838515610d9e5760405163712467f960e11b81526001600160a01b0382169063e248cff290610d67908a908d908d90600401614009565b600060405180830381600087803b158015610d8157600080fd5b505af1158015610d95573d6000803e3d6000fd5b50505050610e7b565b60405163712467f960e11b81526001600160a01b0382169063e248cff290610dce908a908d908d90600401614009565b600060405180830381600087803b158015610de857600080fd5b505af1925050508015610df9575060015b610e7b573d808015610e27576040519150601f19603f3d011682016040523d82523d6000602084013e610e2c565b606091505b50825460ff191660021783556040517fbd37c1f0d53bb2f33fe4c2104de272fcdeb4d2fef3acdbf1e4ddc3d6833ca37690610e6890839061407f565b60405180910390a1505050505050610ead565b60008051602061432d8339815191528b8b600386604051610e9f9493929190613f7f565b60405180910390a150505050505b505050505050565b610ebd612d4f565b600083815260046020819052604091829020549151632129da1960e01b81526001600160a01b038581169282019290925283151560248201529116908190632129da19906044015b600060405180830381600087803b158015610f1f57600080fd5b505af1158015610f33573d6000803e3d6000fd5b5050505050505050565b600082815260016020526040902060020154610f5b906106b6612da8565b610fbf5760405162461bcd60e51b815260206004820152602f60248201527f416363657373436f6e74726f6c3a2073656e646572206d75737420626520616e60448201526e0818591b5a5b881d1bc819dc985b9d608a1b6064820152608401610ac2565b610fc98282612de9565b5050565b610fd5612da8565b6001600160a01b0316816001600160a01b03161461104d5760405162461bcd60e51b815260206004820152602f60248201527f416363657373436f6e74726f6c3a2063616e206f6e6c792072656e6f756e636560448201526e103937b632b9903337b91039b2b63360891b6064820152608401610ac2565b610fc98282612e52565b61105f612d4f565b60005b838110156110f45784848281811061107c5761107c614092565b90506020020160208101906110919190613995565b6001600160a01b03166108fc8484848181106110af576110af614092565b905060200201359081150290604051600060405180830381858888f193505050501580156110e1573d6000803e3d6000fd5b50806110ec816140be565b915050611062565b5050505050565b611103612d4f565b61110c81612af8565b6002805460ff929092166101000261ff00199092169190911790556040518181527fa20d6b84cd798a24038be305eff8a45ca82ef54a2aa2082005d8e14c0a4746c8906020015b60405180910390a150565b60008281526001602081815260408084206001600160a01b038616855290920190529020545b92915050565b600061118460008051602061434d83398151915283611ee1565b6111ac612d4f565b60008581526004602081905260409182902080546001600160a01b0319166001600160a01b038a8116918217909255925163de319d9960e01b8152918201889052861660248201526001600160e01b03198086166044830152606482018590528316608482015287919063de319d999060a401600060405180830381600087803b15801561123957600080fd5b505af115801561124d573d6000803e3d6000fd5b5050505050505050505050565b611262612d4f565b600061126c612da8565b9050816001600160a01b0316816001600160a01b031614156112d05760405162461bcd60e51b815260206004820152601760248201527f43616e6e6f742072656e6f756e6365206f6e6573656c660000000000000000006044820152606401610ac2565b6112db600083610f3d565b610fc9600082610fcd565b6112ee612d4f565b60405163ab5c7bf160e01b815282906001600160a01b0382169063ab5c7bf19061131c90859060040161407f565b600060405180830381600087803b15801561133657600080fd5b505af115801561134a573d6000803e3d6000fd5b50505050505050565b61135b612d09565b60008481526004602090815260408083205490516001600160a01b039091169268ffffffffffffffff0060088a901b1660ff8b16179290916113a39185918991899101613fb4565b60408051601f1981840301815282825280516020918201206001600160481b03861660009081526006835283812082825290925282822060808501909352825490945090929190829060ff16600481111561140057611400613d77565b600481111561141157611411613d77565b8152905461010081046001600160c81b0316602080840191909152600160d01b820460ff16604080850191909152600160d81b90920464ffffffffff1660609093019290925260008b815260049092529020549091506001600160a01b03166114b85760405162461bcd60e51b81526020600482015260196024820152781b9bc81a185b991b195c88199bdc881c995cdbdd5c98d95251603a1b6044820152606401610ac2565b60005b85518110156118f7576002825160048111156114d9576114d9613d77565b1415611575576003825260405163712467f960e11b815285906001600160a01b0382169063e248cff290611515908d908d908d90600401614009565b600060405180830381600087803b15801561152f57600080fd5b505af1158015611543573d6000803e3d6000fd5b5050505060008051602061432d8339815191528c8c60038760405161156b9493929190613f7f565b60405180910390a1505b60007fc4cb5d35714699d6e85b9562b644e60393b418d974a5c1dd8efaadac37a142c58c8c8c8c8c6040516115ab9291906140d9565b6040519081900381206115ee959493929160200194855260ff9390931660208501526001600160401b039190911660408401526060830152608082015260a00190565b604051602081830303815290604052805190602001209050600061161182612ebb565b90506000611638828a868151811061162b5761162b614092565b6020026020010151612f09565b905061165260008051602061434d83398151915282611ee1565b6116815760405163b4d8a3a160e01b81526001600160a01b038216600482015260248101859052604401610ac2565b8451600190600481111561169757611697613d77565b11156116b55760405162461bcd60e51b8152600401610ac2906140e9565b6116bf8582612f2d565b156117045760405162461bcd60e51b81526020600482015260156024820152741c995b185e595c88185b1c9958591e481d9bdd1959605a1b6044820152606401610ac2565b60008551600481111561171957611719613d77565b141561178a576040805160808101909152806001815260200160006001600160c81b03168152602001600060ff1681526020014364ffffffffff16815250945060008051602061432d8339815191528e8e60018960405161177d9493929190613f7f565b60405180910390a16117f0565b600254606086015164ffffffffff620100009092048216916117ae91439116612c61565b64ffffffffff1611156117f057600485818152505060008051602061432d8339815191528e8e6004896040516117e79493929190613f7f565b60405180910390a15b60048551600481111561180557611805613d77565b146118e15761182a61181682612f50565b86602001516001600160c81b031617612f7e565b6001600160c81b03166020860152604085018051906118488261412c565b60ff1660ff16815250507f25f8daaa4635a7729927ba3f5b3d59cc3320aca7c32c9db4e7ca7b95743436408e8e87600001518960405161188b9493929190613f7f565b60405180910390a1600254604086015160ff61010090920482169116106118e157600285818152505060008051602061432d8339815191528e8e6002896040516118d89493929190613f7f565b60405180910390a15b50505080806118ef906140be565b9150506114bb565b5060028151600481111561190d5761190d613d77565b14156119a9576003815260405163712467f960e11b815284906001600160a01b0382169063e248cff290611949908c908c908c90600401614009565b600060405180830381600087803b15801561196357600080fd5b505af1158015611977573d6000803e3d6000fd5b5050505060008051602061432d8339815191528b8b60038660405161199f9493929190613f7f565b60405180910390a1505b6001600160481b038316600090815260066020908152604080832085845290915290208151815483929190829060ff191660018360048111156119ee576119ee613d77565b021790555060208201518154604084015160609094015164ffffffffff16600160d81b026001600160d81b0360ff909516600160d01b0260ff60d01b196001600160c81b039094166101000293909316610100600160d81b031990921691909117919091179290921691909117905550505050505050505050565b611a71612d09565b6000611a7b612da8565b6002549091503490600160381b90046001600160a01b031615611bb35760025460405163ef4f081f60e01b81526000916001600160a01b03600160381b8204169163ef4f081f91611ae091879160ff16908e908e908e908e908e908e9060040161414c565b6040805180830381865afa158015611afc573d6000803e3d6000fd5b505050506040513d601f19601f82011682018060405250810190611b209190614199565b5090508015611bb157600254604051632530706560e01b81526001600160a01b03600160381b830416916325307065918491611b7091889160ff16908f908f908f908f908f908f9060040161414c565b6000604051808303818588803b158015611b8957600080fd5b505af1158015611b9d573d6000803e3d6000fd5b50505050508082611bae91906141be565b91505b505b6000878152600460205260409020546001600160a01b031680611be9576040516308c231dd60e31b815260040160405180910390fd5b60ff8916600090815260036020526040812080548290611c11906001600160401b03166141d5565b91906101000a8154816001600160401b0302191690836001600160401b031602179055905060008290506000816001600160a01b031663b07e54bb868d898e8e6040518663ffffffff1660e01b8152600401611c7094939291906141fc565b60006040518083038185885af1158015611c8e573d6000803e3d6000fd5b50505050506040513d6000823e601f3d908101601f19168201604052611cb79190810190614227565b9050856001600160a01b03167f17bc3181e17a9620a479c24e6c606e474ba84fc036877b768926872e8cd0e11f8d8d868e8e87604051611cfc96959493929190614294565b60405180910390a2505050505050505050505050565b611d1a612d4f565b611d2381612b4f565b6002806101000a81548164ffffffffff021916908364ffffffffff16021790555050565b6001600160481b03831660009081526006602090815260408083208584529091528082208151608081019092528054611de3929190829060ff166004811115611d9257611d92613d77565b6004811115611da357611da3613d77565b8152905461010081046001600160c81b03166020830152600160d01b810460ff166040830152600160d81b900464ffffffffff1660609091015283612f2d565b949350505050565b6000611e0460008051602061434d8339815191526126e9565b905090565b611e11612d4f565b611e21611e1c612da8565b612fd3565b565b611e2b612d4f565b60028054670100000000000000600160d81b031916600160381b6001600160a01b038416908102919091179091556040519081527f729170bd142e4965055b26a285faeedf03baf2b915bfc5a7c75d24b45815ff2c90602001611153565b611e91612d4f565b6040516307b7ed9960e01b81526001600160a01b0382811660048301528391908216906307b7ed999060240161131c565b6000828152600160205260408120611eda9083613021565b9392505050565b6000828152600160205260408120611eda9083612bbb565b600080611f04612da8565b600254909150600160381b90046001600160a01b031615611fb25760025460405163ef4f081f60e01b81526000916001600160a01b03600160381b8204169163ef4f081f91611f6791869160ff16908e908e908e908e908e908e9060040161414c565b6040805180830381865afa158015611f83573d6000803e3d6000fd5b505050506040513d601f19601f82011682018060405250810190611fa79190614199565b509250611fb8915050565b60009150505b9695505050505050565b611fda60008051602061434d83398151915282611ee1565b6120265760405162461bcd60e51b815260206004820152601f60248201527f6164647220646f65736e277420686176652072656c6179657220726f6c6521006044820152606401610ac2565b61203e60008051602061434d8339815191528261289a565b6040516001600160a01b03821681527f10e1f7ce9fd7d1b90a66d13a2ab3cb8dd7f29f3f8d520b143b063ccfbab6906b90602001611153565b60408051608081018252600080825260208201819052918101829052606081019190915260ff848116600885901b68ffffffffffffffff001617600081815260066020908152604080832087845290915290819020815160808101909252805492939192909183911660048111156120f1576120f1613d77565b600481111561210257612102613d77565b8152905461010081046001600160c81b03166020830152600160d01b810460ff166040830152600160d81b900464ffffffffff1660609091015295945050505050565b61214d612d4f565b60405163025a3c9960e21b815282906001600160a01b03821690630968f2649061131c90859060040161407f565b612183612ca3565b61218b612d09565b60008381526004602090815260408083205490516001600160a01b039091169268ffffffffffffffff00600889901b1660ff8a16179290916121d39185918891889101613fb4565b60408051601f1981840301815282825280516020918201206001600160481b03861660009081526006835283812082825290925282822060808501909352825490945090929190829060ff16600481111561223057612230613d77565b600481111561224157612241613d77565b8152905461010081046001600160c81b0316602080840191909152600160d01b820460ff16604080850191909152600160d81b90920464ffffffffff1660609093019290925260008a815260049092529020549091506001600160a01b03166122e85760405162461bcd60e51b81526020600482015260196024820152781b9bc81a185b991b195c88199bdc881c995cdbdd5c98d95251603a1b6044820152606401610ac2565b6002815160048111156122fd576122fd613d77565b141561231b57612312898988888b6001610c2f565b505050506110f4565b6000612325612da8565b905060018260000151600481111561233f5761233f613d77565b111561235d5760405162461bcd60e51b8152600401610ac2906140e9565b6123678282612f2d565b156123ac5760405162461bcd60e51b81526020600482015260156024820152741c995b185e595c88185b1c9958591e481d9bdd1959605a1b6044820152606401610ac2565b6000825160048111156123c1576123c1613d77565b1415612421576040805160808101825260018082526000602083018190528284015264ffffffffff43166060830152915190935060008051602061432d83398151915291612414918d918d918890613f7f565b60405180910390a1612482565b600254606083015164ffffffffff6201000090920482169161244591439116612c61565b64ffffffffff16111561248257600480835260405160008051602061432d83398151915291612479918d918d918890613f7f565b60405180910390a15b60048251600481111561249757612497613d77565b14612567576124bc6124a882612f50565b83602001516001600160c81b031617612f7e565b6001600160c81b03166020830152604082018051906124da8261412c565b60ff1690525081516040517f25f8daaa4635a7729927ba3f5b3d59cc3320aca7c32c9db4e7ca7b957434364091612516918d918d918890613f7f565b60405180910390a1600254604083015160ff610100909204821691161061256757600280835260405160008051602061432d8339815191529161255e918d918d918890613f7f565b60405180910390a15b6001600160481b038416600090815260066020908152604080832086845290915290208251815484929190829060ff191660018360048111156125ac576125ac613d77565b021790555060208201518154604084015160609094015164ffffffffff16600160d81b026001600160d81b0360ff909516600160d01b0260ff60d01b196001600160c81b039094166101000293909316610100600160d81b031990921691909117919091179290921691909117905560028251600481111561263057612630613d77565b1415612645576126458a8a89898c6000610c2f565b50505050505050505050565b600254600090600160381b90046001600160a01b0316156126e357600260079054906101000a90046001600160a01b03166001600160a01b031663c5b37c226040518163ffffffff1660e01b8152600401602060405180830381865afa1580156126bf573d6000803e3d6000fd5b505050506040513d601f19601f82011682018060405250810190611e0491906142e5565b50600090565b60008181526001602052604081206111849061302d565b612708612d4f565b60008281526004602081905260409182902080546001600160a01b0319166001600160a01b038781169182179092559251635c7d1b9b60e11b81529182018590528316602482015284919063b8fa373690604401610f05565b61277960008051602061434d83398151915282611ee1565b156127c65760405162461bcd60e51b815260206004820152601e60248201527f6164647220616c7265616479206861732072656c6179657220726f6c652100006044820152606401610ac2565b60c86127d0611deb565b106128165760405162461bcd60e51b81526020600482015260166024820152751c995b185e595c9cc81b1a5b5a5d081c995858da195960521b6044820152606401610ac2565b61282e60008051602061434d83398151915282610f3d565b6040516001600160a01b03821681527f03580ee9f53a62b7cb409a2cb56f9be87747dd15017afc5cef6eef321e4fb2c590602001611153565b61286f612d4f565b6001600160a01b03919091166000908152600560205260409020805460ff1916911515919091179055565b6000828152600160205260409020600201546128b8906106b6612da8565b61104d5760405162461bcd60e51b815260206004820152603060248201527f416363657373436f6e74726f6c3a2073656e646572206d75737420626520616e60448201526f2061646d696e20746f207265766f6b6560801b6064820152608401610ac2565b612925612d4f565b60ff82166000908152600360205260409020546001600160401b03908116908216116129a25760405162461bcd60e51b815260206004820152602660248201527f446f6573206e6f7420616c6c6f772064656372656d656e7473206f6620746865604482015265206e6f6e636560d01b6064820152608401610ac2565b60ff919091166000908152600360205260409020805467ffffffffffffffff19166001600160401b03909216919091179055565b6000807fc4cb5d35714699d6e85b9562b644e60393b418d974a5c1dd8efaadac37a142c58989898989604051612a0d9291906140d9565b604051908190038120612a50959493929160200194855260ff9390931660208501526001600160401b039190911660408401526060830152608082015260a00190565b6040516020818303038152906040528051906020012090506000612a7382612ebb565b90506000612ab78287878080601f016020809104026020016040519081016040528093929190818152602001838380828437600092019190915250612f0992505050565b9050612ad160008051602061434d83398151915282611ee1565b9b9a5050505050505050505050565b612ae8612d4f565b611e21612af3612da8565b613037565b60006101008210612b4b5760405162461bcd60e51b815260206004820152601c60248201527f76616c756520646f6573206e6f742066697420696e20382062697473000000006044820152606401610ac2565b5090565b6000650100000000008210612b4b5760405162461bcd60e51b815260206004820152601d60248201527f76616c756520646f6573206e6f742066697420696e20343020626974730000006044820152606401610ac2565b6000611eda836001600160a01b038416613082565b6001600160a01b03811660009081526001830160205260408120541515611eda565b6000612be7612da8565b9050612bf4600082611ee1565b80612c125750612c1260008051602061434d83398151915282611ee1565b612c5e5760405162461bcd60e51b815260206004820152601e60248201527f73656e646572206973206e6f742072656c61796572206f722061646d696e00006044820152606401610ac2565b50565b6000611eda83836040518060400160405280601e81526020017f536166654d6174683a207375627472616374696f6e206f766572666c6f7700008152506130d1565b612cbd60008051602061434d8339815191526106b6612da8565b611e215760405162461bcd60e51b815260206004820181905260248201527f73656e64657220646f65736e277420686176652072656c6179657220726f6c656044820152606401610ac2565b60005460ff1615611e215760405162461bcd60e51b815260206004820152601060248201526f14185d5cd8589b194e881c185d5cd95960821b6044820152606401610ac2565b612d5c60006106b6612da8565b611e215760405162461bcd60e51b815260206004820152601e60248201527f73656e64657220646f65736e277420686176652061646d696e20726f6c6500006044820152606401610ac2565b60003360143610801590612dd457506001600160a01b03811660009081526005602052604090205460ff165b15612de4575060131936013560601c5b919050565b6000828152600160205260409020612e019082612ba6565b15610fc957612e0e612da8565b6001600160a01b0316816001600160a01b0316837f2f8788117e7eff1d82e926ec794901d17c78024a50270940304540a733656f0d60405160405180910390a45050565b6000828152600160205260409020612e6a908261310b565b15610fc957612e77612da8565b6001600160a01b0316816001600160a01b0316837ff6391f5c32d9c69d2a47ea670b442974b53935d1edc7fd64eb21e047a839171b60405160405180910390a45050565b6000611184612ec8613120565b8360405161190160f01b6020820152602281018390526042810182905260009060620160405160208183030381529060405280519060200120905092915050565b6000806000612f188585613247565b91509150612f25816132b7565b509392505050565b60008083602001516001600160c81b0316612f4784612f50565b16119392505050565b6000612f74612f6d60008051602061434d8339815191528461115e565b6001612c61565b6001901b92915050565b6000600160c81b8210612b4b5760405162461bcd60e51b815260206004820152601e60248201527f76616c756520646f6573206e6f742066697420696e20323030206269747300006044820152606401610ac2565b612fdb612d09565b6000805460ff191660011790556040516001600160a01b03821681527f62e78cea01bee320cd4e420270b5ea74000d11b0c9f74754ebdbfc544b05a25890602001611153565b6000611eda8383613472565b6000611184825490565b61303f61349c565b6000805460ff191690556040516001600160a01b03821681527f5db9ee0a495bf2e6ff9c91a7834c1ba4fdd244a5e8aa4e537bd38aeae4b073aa90602001611153565b60008181526001830160205260408120546130c957508154600181810184556000848152602080822090930184905584548482528286019093526040902091909155611184565b506000611184565b600081848411156130f55760405162461bcd60e51b8152600401610ac2919061407f565b50600061310284866141be565b95945050505050565b6000611eda836001600160a01b0384166134e5565b6000306001600160a01b037f00000000000000000000000000000000000000000000000000000000000000001614801561317957507f000000000000000000000000000000000000000000000000000000000000000046145b156131a357507f000000000000000000000000000000000000000000000000000000000000000090565b50604080517f00000000000000000000000000000000000000000000000000000000000000006020808301919091527f0000000000000000000000000000000000000000000000000000000000000000828401527f000000000000000000000000000000000000000000000000000000000000000060608301524660808301523060a0808401919091528351808403909101815260c0909201909252805191012090565b60008082516041141561327e5760208301516040840151606085015160001a613272878285856135d8565b945094505050506132b0565b8251604014156132a8576020830151604084015161329d8683836136c5565b9350935050506132b0565b506000905060025b9250929050565b60008160048111156132cb576132cb613d77565b14156132d45750565b60018160048111156132e8576132e8613d77565b14156133365760405162461bcd60e51b815260206004820152601860248201527f45434453413a20696e76616c6964207369676e617475726500000000000000006044820152606401610ac2565b600281600481111561334a5761334a613d77565b14156133985760405162461bcd60e51b815260206004820152601f60248201527f45434453413a20696e76616c6964207369676e6174757265206c656e677468006044820152606401610ac2565b60038160048111156133ac576133ac613d77565b14156134055760405162461bcd60e51b815260206004820152602260248201527f45434453413a20696e76616c6964207369676e6174757265202773272076616c604482015261756560f01b6064820152608401610ac2565b600481600481111561341957613419613d77565b1415612c5e5760405162461bcd60e51b815260206004820152602260248201527f45434453413a20696e76616c6964207369676e6174757265202776272076616c604482015261756560f01b6064820152608401610ac2565b600082600001828154811061348957613489614092565b9060005260206000200154905092915050565b60005460ff16611e215760405162461bcd60e51b815260206004820152601460248201527314185d5cd8589b194e881b9bdd081c185d5cd95960621b6044820152606401610ac2565b600081815260018301602052604081205480156135ce5760006135096001836141be565b855490915060009061351d906001906141be565b905081811461358257600086600001828154811061353d5761353d614092565b906000526020600020015490508087600001848154811061356057613560614092565b6000918252602080832090910192909255918252600188019052604090208390555b8554869080613593576135936142fe565b600190038181906000526020600020016000905590558560010160008681526020019081526020016000206000905560019350505050611184565b6000915050611184565b6000807f7fffffffffffffffffffffffffffffff5d576e7357a4501ddfe92f46681b20a083111561360f57506000905060036136bc565b8460ff16601b1415801561362757508460ff16601c14155b1561363857506000905060046136bc565b6040805160008082526020820180845289905260ff881692820192909252606081018690526080810185905260019060a0016020604051602081039080840390855afa15801561368c573d6000803e3d6000fd5b5050604051601f1901519150506001600160a01b0381166136b5576000600192509250506136bc565b9150600090505b94509492505050565b6000806001600160ff1b038316816136e260ff86901c601b614314565b90506136f0878288856135d8565b935093505050935093915050565b803560ff81168114612de457600080fd5b80356001600160401b0381168114612de457600080fd5b60008060006060848603121561373b57600080fd5b613744846136fe565b92506137526020850161370f565b9150604084013590509250925092565b60008083601f84011261377457600080fd5b5081356001600160401b0381111561378b57600080fd5b6020830191508360208285010111156132b057600080fd5b80358015158114612de457600080fd5b60008060008060008060a087890312156137cc57600080fd5b6137d5876136fe565b95506137e36020880161370f565b945060408701356001600160401b038111156137fe57600080fd5b61380a89828a01613762565b90955093505060608701359150613823608088016137a3565b90509295509295509295565b6001600160a01b0381168114612c5e57600080fd5b60008060006060848603121561385957600080fd5b83359250602084013561386b8161382f565b9150613879604085016137a3565b90509250925092565b60006020828403121561389457600080fd5b5035919050565b600080604083850312156138ae57600080fd5b8235915060208301356138c08161382f565b809150509250929050565b60008083601f8401126138dd57600080fd5b5081356001600160401b038111156138f457600080fd5b6020830191508360208260051b85010111156132b057600080fd5b6000806000806040858703121561392557600080fd5b84356001600160401b038082111561393c57600080fd5b613948888389016138cb565b9096509450602087013591508082111561396157600080fd5b5061396e878288016138cb565b95989497509550505050565b60006020828403121561398c57600080fd5b611eda826136fe565b6000602082840312156139a757600080fd5b8135611eda8161382f565b80356001600160e01b031981168114612de457600080fd5b60008060008060008060c087890312156139e357600080fd5b86356139ee8161382f565b9550602087013594506040870135613a058161382f565b9350613a13606088016139b2565b92506080870135915061382360a088016139b2565b634e487b7160e01b600052604160045260246000fd5b604051601f8201601f191681016001600160401b0381118282101715613a6657613a66613a28565b604052919050565b60006001600160401b03821115613a8757613a87613a28565b50601f01601f191660200190565b600082601f830112613aa657600080fd5b8135613ab9613ab482613a6e565b613a3e565b818152846020838601011115613ace57600080fd5b816020850160208301376000918101602001919091529392505050565b60008060408385031215613afe57600080fd5b8235613b098161382f565b915060208301356001600160401b03811115613b2457600080fd5b613b3085828601613a95565b9150509250929050565b60008060008060008060a08789031215613b5357600080fd5b613b5c876136fe565b95506020613b6b81890161370f565b95506040880135945060608801356001600160401b0380821115613b8e57600080fd5b613b9a8b838c01613762565b909650945060808a0135915080821115613bb357600080fd5b818a0191508a601f830112613bc757600080fd5b813581811115613bd957613bd9613a28565b8060051b613be8858201613a3e565b918252838101850191858101908e841115613c0257600080fd5b86860192505b83831015613c3c578483351115613c1e57600080fd5b613c2d8f888535890101613a95565b82529186019190860190613c08565b809750505050505050509295509295509295565b60008060008060008060808789031215613c6957600080fd5b613c72876136fe565b95506020870135945060408701356001600160401b0380821115613c9557600080fd5b613ca18a838b01613762565b90965094506060890135915080821115613cba57600080fd5b50613cc789828a01613762565b979a9699509497509295939492505050565b600080600060608486031215613cee57600080fd5b83356001600160481b0381168114613d0557600080fd5b9250602084013591506040840135613d1c8161382f565b809150509250925092565b60008060408385031215613d3a57600080fd5b8235613d458161382f565b915060208301356138c08161382f565b60008060408385031215613d6857600080fd5b50508035926020909101359150565b634e487b7160e01b600052602160045260246000fd5b60058110613dab57634e487b7160e01b600052602160045260246000fd5b9052565b6000608082019050613dc2828451613d8d565b60018060c81b03602084015116602083015260ff604084015116604083015264ffffffffff606084015116606083015292915050565b600080600080600060808688031215613e1057600080fd5b613e19866136fe565b9450613e276020870161370f565b93506040860135925060608601356001600160401b03811115613e4957600080fd5b613e5588828901613762565b969995985093965092949392505050565b600080600060608486031215613e7b57600080fd5b8335613d058161382f565b60008060408385031215613e9957600080fd5b8235613ea48161382f565b9150613eb2602084016137a3565b90509250929050565b60008060408385031215613ece57600080fd5b613ed7836136fe565b9150613eb26020840161370f565b600080600080600080600060a0888a031215613f0057600080fd5b613f09886136fe565b9650613f176020890161370f565b95506040880135945060608801356001600160401b0380821115613f3a57600080fd5b613f468b838c01613762565b909650945060808a0135915080821115613f5f57600080fd5b50613f6c8a828b01613762565b989b979a50959850939692959293505050565b60ff851681526001600160401b038416602082015260808101613fa56040830185613d8d565b82606083015295945050505050565b6bffffffffffffffffffffffff198460601b168152818360148301376000910160140190815292915050565b81835281816020850137506000828201602090810191909152601f909101601f19169091010190565b838152604060208201526000613102604083018486613fe0565b60005b8381101561403e578181015183820152602001614026565b8381111561404d576000848401525b50505050565b6000815180845261406b816020860160208601614023565b601f01601f19169290920160200192915050565b602081526000611eda6020830184614053565b634e487b7160e01b600052603260045260246000fd5b634e487b7160e01b600052601160045260246000fd5b60006000198214156140d2576140d26140a8565b5060010190565b8183823760009101908152919050565b60208082526023908201527f70726f706f73616c20616c72656164792065786563757465642f63616e63656c6040820152621b195960ea1b606082015260800190565b600060ff821660ff811415614143576141436140a8565b60010192915050565b60018060a01b038916815260ff8816602082015260ff8716604082015285606082015260c06080820152600061418660c083018688613fe0565b82810360a0840152612ad1818587613fe0565b600080604083850312156141ac57600080fd5b8251915060208301516138c08161382f565b6000828210156141d0576141d06140a8565b500390565b60006001600160401b03808316818114156141f2576141f26140a8565b6001019392505050565b8481526001600160a01b0384166020820152606060408201819052600090611fb89083018486613fe0565b60006020828403121561423957600080fd5b81516001600160401b0381111561424f57600080fd5b8201601f8101841361426057600080fd5b805161426e613ab482613a6e565b81815285602083850101111561428357600080fd5b613102826020830160208601614023565b60ff871681528560208201526001600160401b038516604082015260a0606082015260006142c660a083018587613fe0565b82810360808401526142d88185614053565b9998505050505050505050565b6000602082840312156142f757600080fd5b5051919050565b634e487b7160e01b600052603160045260246000fd5b60008219821115614327576143276140a8565b50019056fe968626a768e76ba1363efe44e322a6c4900c5f084e0b45f35e294dfddaa9e0d5e2b7fb3b832174769106daebcfd6d1970523240dda11281102db9363b83b0dc4a2646970667358221220c1fbe03ae60c77a7a13efa063339a913d802007e3e8d7db7016d6861d1e7ab5b64736f6c634300080b0033",
  "linkReferences": {},
  "deployedLinkReferences": {}
}