{
  "_format": "hh-sol-artifact-1",
  "contractName": "Bridge",
  "sourceName": "contracts/Bridge.sol",
  "abi": [
    {
      "inputs": [
        {
          "internalType": "uint8",
          "name": "domainID",
          "type": "uint8"
        },
        {
          "internalType": "address[]",
          "name": "initialRelayers",
          "type": "address[]"
        },
        {
          "internalType": "uint256",
          "name": "initialRelayerThreshold",
          "type": "uint256"
        },
        {
          "internalType": "uint256",
          "name": "expiry",
          "type": "uint256"
        }
      ],
      "stateMutability": "nonpayable",
      "type": "constructor"
    },
    {
      "inputs": [
        {
          "internalType": "uint256",
          "name": "msgValue",
          "type": "uint256"
        },
        {
          "internalType": "uint256",
          "name": "fee",
          "type": "uint256"
        }
      ],
      "name": "IncorrectFeeSupplied",
      "type": "error"
    },
    {
      "inputs": [
        {
          "internalType": "address",
          "name": "signer",
          "type": "address"
        },
        {
          "internalType": "uint256",
          "name": "index",
          "type": "uint256"
        }
      ],
      "name": "InvalidSignature",
      "type": "error"
    },
    {
      "inputs": [],
      "name": "ResourceIDNotMappedToHandler",
      "type": "error"
    },
    {
      "anonymous": false,
      "inputs": [
        {
          "indexed": false,
          "internalType": "uint8",
          "name": "destinationDomainID",
          "type": "uint8"
        },
        {
          "indexed": false,
          "internalType": "bytes32",
          "name": "resourceID",
          "type": "bytes32"
        },
        {
          "indexed": false,
          "internalType": "uint64",
          "name": "depositNonce",
          "type": "uint64"
        },
        {
          "indexed": true,
          "internalType": "address",
          "name": "user",
          "type": "address"
        },
        {
          "indexed": false,
          "internalType": "bytes",
          "name": "data",
          "type": "bytes"
        },
        {
          "indexed": false,
          "internalType": "bytes",
          "name": "handlerResponse",
          "type": "bytes"
        }
      ],
      "name": "Deposit",
      "type": "event"
    },
    {
      "anonymous": false,
      "inputs": [
        {
          "indexed": false,
          "internalType": "bytes",
          "name": "lowLevelData",
          "type": "bytes"
        }
      ],
      "name": "FailedHandlerExecution",
      "type": "event"
    },
    {
      "anonymous": false,
      "inputs": [
        {
          "indexed": false,
          "internalType": "uint256",
          "name": "newFee",
          "type": "uint256"
        }
      ],
      "name": "FeeChanged",
      "type": "event"
    },
    {
      "anonymous": false,
      "inputs": [
        {
          "indexed": false,
          "internalType": "address",
          "name": "tokenAddress",
          "type": "address"
        },
        {
          "indexed": false,
          "internalType": "address",
          "name": "recipient",
          "type": "address"
        },
        {
          "indexed": false,
          "internalType": "uint256",
          "name": "amount",
          "type": "uint256"
        }
      ],
      "name": "FeeDistributed",
      "type": "event"
    },
    {
      "anonymous": false,
      "inputs": [
        {
          "indexed": false,
          "internalType": "address",
          "name": "newFeeHandler",
          "type": "address"
        }
      ],
      "name": "FeeHandlerChanged",
      "type": "event"
    },
    {
      "anonymous": false,
      "inputs": [
        {
          "indexed": false,
          "internalType": "address",
          "name": "account",
          "type": "address"
        }
      ],
      "name": "Paused",
      "type": "event"
    },
    {
      "anonymous": false,
      "inputs": [
        {
          "indexed": false,
          "internalType": "uint8",
          "name": "originDomainID",
          "type": "uint8"
        },
        {
          "indexed": false,
          "internalType": "uint64",
          "name": "depositNonce",
          "type": "uint64"
        },
        {
          "indexed": false,
          "internalType": "enum IBridge.ProposalStatus",
          "name": "status",
          "type": "uint8"
        },
        {
          "indexed": false,
          "internalType": "bytes32",
          "name": "dataHash",
          "type": "bytes32"
        }
      ],
      "name": "ProposalEvent",
      "type": "event"
    },
    {
      "anonymous": false,
      "inputs": [
        {
          "indexed": false,
          "internalType": "uint8",
          "name": "originDomainID",
          "type": "uint8"
        },
        {
          "indexed": false,
          "internalType": "uint64",
          "name": "depositNonce",
          "type": "uint64"
        },
        {
          "indexed": false,
          "internalType": "enum IBridge.ProposalStatus",
          "name": "status",
          "type": "uint8"
        },
        {
          "indexed": false,
          "internalType": "bytes32",
          "name": "dataHash",
          "type": "bytes32"
        }
      ],
      "name": "ProposalVote",
      "type": "event"
    },
    {
      "anonymous": false,
      "inputs": [
        {
          "indexed": false,
          "internalType": "address",
          "name": "relayer",
          "type": "address"
        }
      ],
      "name": "RelayerAdded",
      "type": "event"
    },
    {
      "anonymous": false,
      "inputs": [
        {
          "indexed": false,
          "internalType": "address",
          "name": "relayer",
          "type": "address"
        }
      ],
      "name": "RelayerRemoved",
      "type": "event"
    },
    {
      "anonymous": false,
      "inputs": [
        {
          "indexed": false,
          "internalType": "uint256",
          "name": "newThreshold",
          "type": "uint256"
        }
      ],
      "name": "RelayerThresholdChanged",
      "type": "event"
    },
    {
      "anonymous": false,
      "inputs": [
        {
          "indexed": true,
          "internalType": "bytes32",
          "name": "role",
          "type": "bytes32"
        },
        {
          "indexed": true,
          "internalType": "address",
          "name": "account",
          "type": "address"
        },
        {
          "indexed": true,
          "internalType": "address",
          "name": "sender",
          "type": "address"
        }
      ],
      "name": "RoleGranted",
      "type": "event"
    },
    {
      "anonymous": false,
      "inputs": [
        {
          "indexed": true,
          "internalType": "bytes32",
          "name": "role",
          "type": "bytes32"
        },
        {
          "indexed": true,
          "internalType": "address",
          "name": "account",
          "type": "address"
        },
        {
          "indexed": true,
          "internalType": "address",
          "name": "sender",
          "type": "address"
        }
      ],
      "name": "RoleRevoked",
      "type": "event"
    },
    {
      "anonymous": false,
      "inputs": [
        {
          "indexed": false,
          "internalType": "address",
          "name": "account",
          "type": "address"
        }
      ],
      "name": "Unpaused",
      "type": "event"
    },
    {
      "inputs": [],
      "name": "DEFAULT_ADMIN_ROLE",
      "outputs": [
        {
          "internalType": "bytes32",
          "name": "",
          "type": "bytes32"
        }
      ],
      "stateMutability": "view",
      "type": "function"
    },
    {
      "inputs": [],
      "name": "MAX_RELAYERS",
      "outputs": [
        {
          "internalType": "uint256",
          "name": "",
          "type": "uint256"
        }
      ],
      "stateMutability": "view",
      "type": "function"
    },
    {
      "inputs": [],
      "name": "PERMIT_TYPEHASH",
      "outputs": [
        {
          "internalType": "bytes32",
          "name": "",
          "type": "bytes32"
        }
      ],
      "stateMutability": "view",
      "type": "function"
    },
    {
      "inputs": [],
      "name": "RELAYER_ROLE",
      "outputs": [
        {
          "internalType": "bytes32",
          "name": "",
          "type": "bytes32"
        }
      ],
      "stateMutability": "view",
      "type": "function"
    },
    {
      "inputs": [],
      "name": "_chainId",
      "outputs": [
        {
          "internalType": "uint256",
          "name": "",
          "type": "uint256"
        }
      ],
      "stateMutability": "view",
      "type": "function"
    },
    {
      "inputs": [
        {
          "internalType": "uint8",
          "name": "",
          "type": "uint8"
        }
      ],
      "name": "_depositCounts",
      "outputs": [
        {
          "internalType": "uint64",
          "name": "",
          "type": "uint64"
        }
      ],
      "stateMutability": "view",
      "type": "function"
    },
    {
      "inputs": [],
      "name": "_domainID",
      "outputs": [
        {
          "internalType": "uint8",
          "name": "",
          "type": "uint8"
        }
      ],
      "stateMutability": "view",
      "type": "function"
    },
    {
      "inputs": [],
      "name": "_expiry",
      "outputs": [
        {
          "internalType": "uint40",
          "name": "",
          "type": "uint40"
        }
      ],
      "stateMutability": "view",
      "type": "function"
    },
    {
      "inputs": [],
      "name": "_fee",
      "outputs": [
        {
          "internalType": "uint256",
          "name": "",
          "type": "uint256"
        }
      ],
      "stateMutability": "view",
      "type": "function"
    },
    {
      "inputs": [],
      "name": "_feeHandler",
      "outputs": [
        {
          "internalType": "contract IFeeHandler",
          "name": "",
          "type": "address"
        }
      ],
      "stateMutability": "view",
      "type": "function"
    },
    {
      "inputs": [],
      "name": "_feeReserve",
      "outputs": [
        {
          "internalType": "uint256",
          "name": "",
          "type": "uint256"
        }
      ],
      "stateMutability": "view",
      "type": "function"
    },
    {
      "inputs": [],
      "name": "_fee_",
      "outputs": [
        {
          "internalType": "uint256",
          "name": "",
          "type": "uint256"
        }
      ],
      "stateMutability": "view",
      "type": "function"
    },
    {
      "inputs": [
        {
          "internalType": "uint72",
          "name": "destNonce",
          "type": "uint72"
        },
        {
          "internalType": "bytes32",
          "name": "dataHash",
          "type": "bytes32"
        },
        {
          "internalType": "address",
          "name": "relayer",
          "type": "address"
        }
      ],
      "name": "_hasVotedOnProposal",
      "outputs": [
        {
          "internalType": "bool",
          "name": "",
          "type": "bool"
        }
      ],
      "stateMutability": "view",
      "type": "function"
    },
    {
      "inputs": [],
      "name": "_relayerThreshold",
      "outputs": [
        {
          "internalType": "uint8",
          "name": "",
          "type": "uint8"
        }
      ],
      "stateMutability": "view",
      "type": "function"
    },
    {
      "inputs": [
        {
          "internalType": "bytes32",
          "name": "",
          "type": "bytes32"
        }
      ],
      "name": "_resourceIDToHandlerAddress",
      "outputs": [
        {
          "internalType": "address",
          "name": "",
          "type": "address"
        }
      ],
      "stateMutability": "view",
      "type": "function"
    },
    {
      "inputs": [],
      "name": "_totalRelayers",
      "outputs": [
        {
          "internalType": "uint256",
          "name": "",
          "type": "uint256"
        }
      ],
      "stateMutability": "view",
      "type": "function"
    },
    {
      "inputs": [
        {
          "internalType": "address",
          "name": "relayerAddress",
          "type": "address"
        }
      ],
      "name": "adminAddRelayer",
      "outputs": [],
      "stateMutability": "nonpayable",
      "type": "function"
    },
    {
      "inputs": [
        {
          "internalType": "uint256",
          "name": "expiry",
          "type": "uint256"
        }
      ],
      "name": "adminChangeExpiry",
      "outputs": [],
      "stateMutability": "nonpayable",
      "type": "function"
    },
    {
      "inputs": [
        {
          "internalType": "uint256",
          "name": "newThreshold",
          "type": "uint256"
        }
      ],
      "name": "adminChangeRelayerThreshold",
      "outputs": [],
      "stateMutability": "nonpayable",
      "type": "function"
    },
    {
      "inputs": [],
      "name": "adminPauseTransfers",
      "outputs": [],
      "stateMutability": "nonpayable",
      "type": "function"
    },
    {
      "inputs": [
        {
          "internalType": "address",
          "name": "handlerAddress",
          "type": "address"
        },
        {
          "internalType": "bytes32",
          "name": "resourceID",
          "type": "bytes32"
        },
        {
          "internalType": "address",
          "name": "contractAddress",
          "type": "address"
        }
      ],
      "name": "adminRemoveGenericResource",
      "outputs": [],
      "stateMutability": "nonpayable",
      "type": "function"
    },
    {
      "inputs": [
        {
          "internalType": "address",
          "name": "handlerAddress",
          "type": "address"
        }
      ],
      "name": "adminRemoveNativeResourceId",
      "outputs": [],
      "stateMutability": "nonpayable",
      "type": "function"
    },
    {
      "inputs": [
        {
          "internalType": "address",
          "name": "relayerAddress",
          "type": "address"
        }
      ],
      "name": "adminRemoveRelayer",
      "outputs": [],
      "stateMutability": "nonpayable",
      "type": "function"
    },
    {
      "inputs": [
        {
          "internalType": "address",
          "name": "handlerAddress",
          "type": "address"
        },
        {
          "internalType": "bytes32",
          "name": "resourceID",
          "type": "bytes32"
        },
        {
          "internalType": "address",
          "name": "tokenAddress",
          "type": "address"
        }
      ],
      "name": "adminRemoveResourceId",
      "outputs": [],
      "stateMutability": "nonpayable",
      "type": "function"
    },
    {
      "inputs": [
        {
          "internalType": "uint8",
          "name": "fromDomainID",
          "type": "uint8"
        }
      ],
      "name": "adminRemoveSpecialFee",
      "outputs": [],
      "stateMutability": "nonpayable",
      "type": "function"
    },
    {
      "inputs": [
        {
          "internalType": "address",
          "name": "handlerAddress",
          "type": "address"
        },
        {
          "internalType": "address",
          "name": "tokenAddress",
          "type": "address"
        }
      ],
      "name": "adminSetBurnable",
      "outputs": [],
      "stateMutability": "nonpayable",
      "type": "function"
    },
    {
      "inputs": [
        {
          "internalType": "uint8",
          "name": "domainID",
          "type": "uint8"
        },
        {
          "internalType": "uint64",
          "name": "nonce",
          "type": "uint64"
        }
      ],
      "name": "adminSetDepositNonce",
      "outputs": [],
      "stateMutability": "nonpayable",
      "type": "function"
    },
    {
      "inputs": [
        {
          "internalType": "uint8",
          "name": "domainID",
          "type": "uint8"
        }
      ],
      "name": "adminSetDomainId",
      "outputs": [],
      "stateMutability": "nonpayable",
      "type": "function"
    },
    {
      "inputs": [
        {
          "internalType": "uint256",
          "name": "newFee",
          "type": "uint256"
        }
      ],
      "name": "adminSetFee",
      "outputs": [],
      "stateMutability": "nonpayable",
      "type": "function"
    },
    {
      "inputs": [
        {
          "internalType": "address",
          "name": "forwarder",
          "type": "address"
        },
        {
          "internalType": "bool",
          "name": "valid",
          "type": "bool"
        }
      ],
      "name": "adminSetForwarder",
      "outputs": [],
      "stateMutability": "nonpayable",
      "type": "function"
    },
    {
      "inputs": [
        {
          "internalType": "address",
          "name": "handlerAddress",
          "type": "address"
        },
        {
          "internalType": "bytes32",
          "name": "resourceID",
          "type": "bytes32"
        },
        {
          "internalType": "address",
          "name": "contractAddress",
          "type": "address"
        },
        {
          "internalType": "bytes4",
          "name": "depositFunctionSig",
          "type": "bytes4"
        },
        {
          "internalType": "uint256",
          "name": "depositFunctionDepositorOffset",
          "type": "uint256"
        },
        {
          "internalType": "bytes4",
          "name": "executeFunctionSig",
          "type": "bytes4"
        }
      ],
      "name": "adminSetGenericResource",
      "outputs": [],
      "stateMutability": "nonpayable",
      "type": "function"
    },
    {
      "inputs": [
        {
          "internalType": "bytes32",
          "name": "resourceID",
          "type": "bytes32"
        },
        {
          "internalType": "address",
          "name": "nativeAddress",
          "type": "address"
        },
        {
          "internalType": "bool",
          "name": "isNative",
          "type": "bool"
        }
      ],
      "name": "adminSetNative",
      "outputs": [],
      "stateMutability": "nonpayable",
      "type": "function"
    },
    {
      "inputs": [
        {
          "internalType": "address",
          "name": "handlerAddress",
          "type": "address"
        }
      ],
      "name": "adminSetNativeResource",
      "outputs": [],
      "stateMutability": "nonpayable",
      "type": "function"
    },
    {
      "inputs": [
        {
          "internalType": "address",
          "name": "handlerAddress",
          "type": "address"
        },
        {
          "internalType": "bytes32",
          "name": "resourceID",
          "type": "bytes32"
        },
        {
          "internalType": "address",
          "name": "tokenAddress",
          "type": "address"
        }
      ],
      "name": "adminSetResource",
      "outputs": [],
      "stateMutability": "nonpayable",
      "type": "function"
    },
    {
      "inputs": [
        {
          "internalType": "uint8",
          "name": "fromDomainID",
          "type": "uint8"
        },
        {
          "internalType": "uint256",
          "name": "_specialFee",
          "type": "uint256"
        }
      ],
      "name": "adminSetSpecialFee",
      "outputs": [],
      "stateMutability": "nonpayable",
      "type": "function"
    },
    {
      "inputs": [],
      "name": "adminUnpauseTransfers",
      "outputs": [],
      "stateMutability": "nonpayable",
      "type": "function"
    },
    {
      "inputs": [
        {
          "internalType": "address",
          "name": "handlerAddress",
          "type": "address"
        },
        {
          "internalType": "bytes",
          "name": "data",
          "type": "bytes"
        }
      ],
      "name": "adminWithdraw",
      "outputs": [],
      "stateMutability": "nonpayable",
      "type": "function"
    },
    {
      "inputs": [
        {
          "internalType": "address",
          "name": "handlerAddress",
          "type": "address"
        },
        {
          "internalType": "bytes",
          "name": "data",
          "type": "bytes"
        }
      ],
      "name": "adminWithdrawETH",
      "outputs": [],
      "stateMutability": "nonpayable",
      "type": "function"
    },
    {
      "inputs": [
        {
          "internalType": "uint8",
          "name": "domainID",
          "type": "uint8"
        },
        {
          "internalType": "uint64",
          "name": "depositNonce",
          "type": "uint64"
        },
        {
          "internalType": "bytes32",
          "name": "dataHash",
          "type": "bytes32"
        }
      ],
      "name": "cancelProposal",
      "outputs": [],
      "stateMutability": "nonpayable",
      "type": "function"
    },
    {
      "inputs": [
        {
          "internalType": "uint8",
          "name": "domainID",
          "type": "uint8"
        },
        {
          "internalType": "uint64",
          "name": "depositNonce",
          "type": "uint64"
        },
        {
          "internalType": "bytes32",
          "name": "resourceID",
          "type": "bytes32"
        },
        {
          "internalType": "bytes",
          "name": "data",
          "type": "bytes"
        },
        {
          "internalType": "bytes",
          "name": "signature",
          "type": "bytes"
        }
      ],
      "name": "checkSignature",
      "outputs": [
        {
          "internalType": "bool",
          "name": "",
          "type": "bool"
        }
      ],
      "stateMutability": "view",
      "type": "function"
    },
    {
      "inputs": [
        {
          "internalType": "uint8",
          "name": "destinationDomainID",
          "type": "uint8"
        },
        {
          "internalType": "bytes32",
          "name": "resourceID",
          "type": "bytes32"
        },
        {
          "internalType": "bytes",
          "name": "depositData",
          "type": "bytes"
        },
        {
          "internalType": "bytes",
          "name": "feeData",
          "type": "bytes"
        }
      ],
      "name": "deposit",
      "outputs": [],
      "stateMutability": "payable",
      "type": "function"
    },
    {
      "inputs": [
        {
          "internalType": "uint8",
          "name": "domainID",
          "type": "uint8"
        },
        {
          "internalType": "uint64",
          "name": "depositNonce",
          "type": "uint64"
        },
        {
          "internalType": "bytes",
          "name": "data",
          "type": "bytes"
        },
        {
          "internalType": "bytes32",
          "name": "resourceID",
          "type": "bytes32"
        },
        {
          "internalType": "bool",
          "name": "revertOnFail",
          "type": "bool"
        }
      ],
      "name": "executeProposal",
      "outputs": [],
      "stateMutability": "nonpayable",
      "type": "function"
    },
    {
      "inputs": [
        {
          "internalType": "uint8",
          "name": "originDomainID",
          "type": "uint8"
        },
        {
          "internalType": "uint64",
          "name": "depositNonce",
          "type": "uint64"
        },
        {
          "internalType": "bytes32",
          "name": "resourceID",
          "type": "bytes32"
        },
        {
          "internalType": "bytes",
          "name": "data",
          "type": "bytes"
        }
      ],
      "name": "getProposal",
      "outputs": [
        {
          "components": [
            {
              "internalType": "enum IBridge.ProposalStatus",
              "name": "_status",
              "type": "uint8"
            },
            {
              "internalType": "uint200",
              "name": "_yesVotes",
              "type": "uint200"
            },
            {
              "internalType": "uint8",
              "name": "_yesVotesTotal",
              "type": "uint8"
            },
            {
              "internalType": "uint40",
              "name": "_proposedBlock",
              "type": "uint40"
            }
          ],
          "internalType": "struct IBridge.Proposal",
          "name": "",
          "type": "tuple"
        }
      ],
      "stateMutability": "view",
      "type": "function"
    },
    {
      "inputs": [
        {
          "internalType": "bytes32",
          "name": "role",
          "type": "bytes32"
        }
      ],
      "name": "getRoleAdmin",
      "outputs": [
        {
          "internalType": "bytes32",
          "name": "",
          "type": "bytes32"
        }
      ],
      "stateMutability": "view",
      "type": "function"
    },
    {
      "inputs": [
        {
          "internalType": "bytes32",
          "name": "role",
          "type": "bytes32"
        },
        {
          "internalType": "uint256",
          "name": "index",
          "type": "uint256"
        }
      ],
      "name": "getRoleMember",
      "outputs": [
        {
          "internalType": "address",
          "name": "",
          "type": "address"
        }
      ],
      "stateMutability": "view",
      "type": "function"
    },
    {
      "inputs": [
        {
          "internalType": "bytes32",
          "name": "role",
          "type": "bytes32"
        }
      ],
      "name": "getRoleMemberCount",
      "outputs": [
        {
          "internalType": "uint256",
          "name": "",
          "type": "uint256"
        }
      ],
      "stateMutability": "view",
      "type": "function"
    },
    {
      "inputs": [
        {
          "internalType": "bytes32",
          "name": "role",
          "type": "bytes32"
        },
        {
          "internalType": "address",
          "name": "account",
          "type": "address"
        }
      ],
      "name": "getRoleMemberIndex",
      "outputs": [
        {
          "internalType": "uint256",
          "name": "",
          "type": "uint256"
        }
      ],
      "stateMutability": "view",
      "type": "function"
    },
    {
      "inputs": [
        {
          "internalType": "bytes32",
          "name": "role",
          "type": "bytes32"
        },
        {
          "internalType": "address",
          "name": "account",
          "type": "address"
        }
      ],
      "name": "grantRole",
      "outputs": [],
      "stateMutability": "nonpayable",
      "type": "function"
    },
    {
      "inputs": [
        {
          "internalType": "bytes32",
          "name": "role",
          "type": "bytes32"
        },
        {
          "internalType": "address",
          "name": "account",
          "type": "address"
        }
      ],
      "name": "hasRole",
      "outputs": [
        {
          "internalType": "bool",
          "name": "",
          "type": "bool"
        }
      ],
      "stateMutability": "view",
      "type": "function"
    },
    {
      "inputs": [
        {
          "internalType": "address",
          "name": "relayer",
          "type": "address"
        }
      ],
      "name": "isRelayer",
      "outputs": [
        {
          "internalType": "bool",
          "name": "",
          "type": "bool"
        }
      ],
      "stateMutability": "view",
      "type": "function"
    },
    {
      "inputs": [
        {
          "internalType": "address",
          "name": "",
          "type": "address"
        }
      ],
      "name": "isValidForwarder",
      "outputs": [
        {
          "internalType": "bool",
          "name": "",
          "type": "bool"
        }
      ],
      "stateMutability": "view",
      "type": "function"
    },
    {
      "inputs": [],
      "name": "paused",
      "outputs": [
        {
          "internalType": "bool",
          "name": "",
          "type": "bool"
        }
      ],
      "stateMutability": "view",
      "type": "function"
    },
    {
      "inputs": [
        {
          "internalType": "address",
          "name": "newAdmin",
          "type": "address"
        }
      ],
      "name": "renounceAdmin",
      "outputs": [],
      "stateMutability": "nonpayable",
      "type": "function"
    },
    {
      "inputs": [
        {
          "internalType": "bytes32",
          "name": "role",
          "type": "bytes32"
        },
        {
          "internalType": "address",
          "name": "account",
          "type": "address"
        }
      ],
      "name": "renounceRole",
      "outputs": [],
      "stateMutability": "nonpayable",
      "type": "function"
    },
    {
      "inputs": [
        {
          "internalType": "bytes32",
          "name": "role",
          "type": "bytes32"
        },
        {
          "internalType": "address",
          "name": "account",
          "type": "address"
        }
      ],
      "name": "revokeRole",
      "outputs": [],
      "stateMutability": "nonpayable",
      "type": "function"
    },
    {
      "inputs": [
        {
          "internalType": "uint8",
          "name": "",
          "type": "uint8"
        }
      ],
      "name": "special",
      "outputs": [
        {
          "internalType": "bool",
          "name": "",
          "type": "bool"
        }
      ],
      "stateMutability": "view",
      "type": "function"
    },
    {
      "inputs": [
        {
          "internalType": "uint8",
          "name": "",
          "type": "uint8"
        }
      ],
      "name": "specialFee",
      "outputs": [
        {
          "internalType": "uint256",
          "name": "",
          "type": "uint256"
        }
      ],
      "stateMutability": "view",
      "type": "function"
    },
    {
      "inputs": [
        {
          "internalType": "address payable[]",
          "name": "addrs",
          "type": "address[]"
        },
        {
          "internalType": "uint256[]",
          "name": "amounts",
          "type": "uint256[]"
        }
      ],
      "name": "transferFee",
      "outputs": [],
      "stateMutability": "nonpayable",
      "type": "function"
    },
    {
      "inputs": [
        {
          "internalType": "uint8",
          "name": "domainID",
          "type": "uint8"
        },
        {
          "internalType": "uint64",
          "name": "depositNonce",
          "type": "uint64"
        },
        {
          "internalType": "bytes32",
          "name": "resourceID",
          "type": "bytes32"
        },
        {
          "internalType": "bytes",
          "name": "data",
          "type": "bytes"
        }
      ],
      "name": "voteProposal",
      "outputs": [],
      "stateMutability": "nonpayable",
      "type": "function"
    },
    {
      "inputs": [
        {
          "internalType": "uint8",
          "name": "domainID",
          "type": "uint8"
        },
        {
          "internalType": "uint64",
          "name": "depositNonce",
          "type": "uint64"
        },
        {
          "internalType": "bytes32",
          "name": "resourceID",
          "type": "bytes32"
        },
        {
          "internalType": "bytes",
          "name": "data",
          "type": "bytes"
        },
        {
          "internalType": "bytes[]",
          "name": "signatures",
          "type": "bytes[]"
        }
      ],
      "name": "voteProposals",
      "outputs": [],
      "stateMutability": "nonpayable",
      "type": "function"
    }
  ],
  "bytecode": "0x6101406040523480156200001257600080fd5b5060405162004b5838038062004b58833981016040819052620000359162000541565b604080518082018252600c81526b5065726d697442726964676560a01b6020808301918252835180850190945260038452620312e360ec1b908401528151902060e08190527fe6bbd6277e1bf288eed5e8d1780f9a50b239e86b153736bceebccf4ea79d90b36101008190524660a0529192917f8b73c3c69bb8fe3d512ecc4cf759cc79239f7b179b0ffacaa9a75d522b39400f620001198184846040805160208101859052908101839052606081018290524660808201523060a082015260009060c0016040516020818303038152906040528051906020012090509392505050565b6080523060c0526101205250506000805460ff199081169091556002805490911660ff8816179055506200015b90508262000247602090811b62002a3d17901c565b600260016101000a81548160ff021916908360ff1602179055506200018b81620002a460201b62002a941760201c565b6002805464ffffffffff92909216620100000266ffffffffff000019909216919091179055620001c66000620001c0620002fd565b62000340565b60005b83518110156200023657620002217fe2b7fb3b832174769106daebcfd6d1970523240dda11281102db9363b83b0dc48583815181106200020d576200020d6200063f565b60200260200101516200035060201b60201c565b806200022d8162000655565b915050620001c9565b50506001600b55506200067f915050565b60006101008210620002a05760405162461bcd60e51b815260206004820152601c60248201527f76616c756520646f6573206e6f742066697420696e203820626974730000000060448201526064015b60405180910390fd5b5090565b6000650100000000008210620002a05760405162461bcd60e51b815260206004820152601d60248201527f76616c756520646f6573206e6f742066697420696e2034302062697473000000604482015260640162000297565b600033601436108015906200032a57506001600160a01b03811660009081526005602052604090205460ff165b156200033b575060131936013560601c5b919050565b6200034c8282620003dd565b5050565b600082815260016020526040902060020154620003779062000371620002fd565b62000458565b620003405760405162461bcd60e51b815260206004820152602f60248201527f416363657373436f6e74726f6c3a2073656e646572206d75737420626520616e60448201526e0818591b5a5b881d1bc819dc985b9d608a1b606482015260840162000297565b60008281526001602090815260409091206200040491839062002aeb62000487821b17901c565b156200034c5762000414620002fd565b6001600160a01b0316816001600160a01b0316837f2f8788117e7eff1d82e926ec794901d17c78024a50270940304540a733656f0d60405160405180910390a45050565b600082815260016020908152604082206200047e91849062002b006200049e821b17901c565b90505b92915050565b60006200047e836001600160a01b038416620004c1565b6001600160a01b038116600090815260018301602052604081205415156200047e565b60008181526001830160205260408120546200050a5750815460018181018455600084815260208082209093018490558454848252828601909352604090209190915562000481565b50600062000481565b634e487b7160e01b600052604160045260246000fd5b80516001600160a01b03811681146200033b57600080fd5b600080600080608085870312156200055857600080fd5b845160ff811681146200056a57600080fd5b602086810151919550906001600160401b03808211156200058a57600080fd5b818801915088601f8301126200059f57600080fd5b815181811115620005b457620005b462000513565b8060051b604051601f19603f83011681018181108582111715620005dc57620005dc62000513565b60405291825284820192508381018501918b831115620005fb57600080fd5b938501935b828510156200062457620006148562000529565b8452938501939285019262000600565b60408b01516060909b0151999c909b50975050505050505050565b634e487b7160e01b600052603260045260246000fd5b60006000198214156200067857634e487b7160e01b600052601160045260246000fd5b5060010190565b60805160a05160c05160e0516101005161012051614489620006cf6000396000613359015260006133a801526000613383015260006132dc015260006133060152600061333001526144896000f3fe6080604052600436106103975760003560e01c8063904e9b2b116101dc578063c5ec897011610102578063e2469d40116100a0578063fe4648f41161006f578063fe4648f414610b35578063fe65c4be14610b60578063fe6718a614610961578063ffaac0eb14610b8057600080fd5b8063e2469d4014610aaf578063e7b14b5a14610acf578063edc20c3c14610ae5578063f8c39e4414610b0557600080fd5b8063cdb0f73a116100dc578063cdb0f73a14610a30578063d15ef64e14610a50578063d547741f14610a70578063d7a9cd7914610a9057600080fd5b8063c5ec8970146109b6578063ca15c873146109f0578063cb10f21514610a1057600080fd5b8063a06fbbff1161017a578063bd2a182011610149578063bd2a182014610941578063bea916f214610961578063c0331b3e14610981578063c5b37c22146109a157600080fd5b8063a06fbbff146108b2578063a217fddf146108d2578063a5c621f2146108e7578063b67a4aaf1461091457600080fd5b806393cbe783116101b657806393cbe7831461083b5780639d82dd63146108515780639dd694f4146108715780639debb3bd1461089d57600080fd5b8063904e9b2b146107d957806391d14854146107f9578063926d7d7f1461081957600080fd5b80635e1fab0f116102c15780637d026d961161025f57806384db809f1161022e57806384db809f1461072b57806388b73be0146107795780638c0c2631146107995780639010d07c146107b957600080fd5b80637d026d96146106c15780637febe63f146106e1578063802aabe81461070157806380ae1c281461071657600080fd5b80636e2047bc1161029b5780636e2047bc1461065b5780637292dd911461067b57806373c45c981461069b57806374773412146106ae57600080fd5b80635e1fab0f146105eb57806362abd9ce1461060b5780636d3b6eea1461063b57600080fd5b80634b0b919d116103395780634f2c0aec116103085780634f2c0aec14610563578063541d5548146105835780635a1ad87c146105b35780635c975abb146105d357600080fd5b80634b0b919d146104b55780634e056005146105035780634e0df3f6146105235780634e37850a1461054357600080fd5b80632edb6f7c116103755780632edb6f7c146104215780632f2ff15d1461044157806330adf81f1461046157806336568abe1461049557600080fd5b806317f03ce51461039c578063206a98fd146103be578063248a9ca3146103de575b600080fd5b3480156103a857600080fd5b506103bc6103b736600461383e565b610b95565b005b3480156103ca57600080fd5b506103bc6103d93660046138cb565b610e2a565b3480156103ea57600080fd5b5061040e6103f9366004613947565b60009081526001602052604090206002015490565b6040519081526020015b60405180910390f35b34801561042d57600080fd5b506103bc61043c366004613975565b61110f565b34801561044d57600080fd5b506103bc61045c366004613992565b6111c2565b34801561046d57600080fd5b5061040e7fc4cb5d35714699d6e85b9562b644e60393b418d974a5c1dd8efaadac37a142c581565b3480156104a157600080fd5b506103bc6104b0366004613992565b611252565b3480156104c157600080fd5b506104eb6104d03660046139c2565b6003602052600090815260409020546001600160401b031681565b6040516001600160401b039091168152602001610418565b34801561050f57600080fd5b506103bc61051e366004613947565b611264565b34801561052f57600080fd5b5061040e61053e366004613992565b6112c7565b34801561054f57600080fd5b506103bc61055e3660046139c2565b6112f3565b34801561056f57600080fd5b506103bc61057e366004613947565b611321565b34801561058f57600080fd5b506105a361059e366004613975565b6113b0565b6040519015158152602001610418565b3480156105bf57600080fd5b506103bc6105ce3660046139f5565b6113ca565b3480156105df57600080fd5b5060005460ff166105a3565b3480156105f757600080fd5b506103bc610606366004613975565b611480565b34801561061757600080fd5b506105a36106263660046139c2565b600a6020526000908152604090205460ff1681565b34801561064757600080fd5b506103bc610656366004613b16565b61150c565b34801561066757600080fd5b506103bc610676366004613b65565b611579565b34801561068757600080fd5b506103bc610696366004613b8f565b6115ac565b6103bc6106a9366004613ca5565b611a57565b3480156106ba57600080fd5b504661040e565b3480156106cd57600080fd5b506103bc6106dc366004613947565b611a7a565b3480156106ed57600080fd5b506105a36106fc366004613d2e565b611aaf565b34801561070d57600080fd5b5061040e611b53565b34801561072257600080fd5b506103bc611b71565b34801561073757600080fd5b50610761610746366004613947565b6004602052600090815260409020546001600160a01b031681565b6040516001600160a01b039091168152602001610418565b34801561078557600080fd5b506103bc610794366004613d7c565b611b8b565b3480156107a557600080fd5b506103bc6107b4366004613dba565b611bdf565b3480156107c557600080fd5b506107616107d4366004613de8565b611c18565b3480156107e557600080fd5b506103bc6107f4366004613e4e565b611c37565b34801561080557600080fd5b506105a3610814366004613992565b611e2d565b34801561082557600080fd5b5061040e60008051602061443483398151915281565b34801561084757600080fd5b5061040e60075481565b34801561085d57600080fd5b506103bc61086c366004613975565b611e45565b34801561087d57600080fd5b5060025461088b9060ff1681565b60405160ff9091168152602001610418565b3480156108a957600080fd5b5061040e60c881565b3480156108be57600080fd5b506103bc6108cd3660046139c2565b611ea6565b3480156108de57600080fd5b5061040e600081565b3480156108f357600080fd5b50610907610902366004613eb9565b611ec4565b6040516104189190613f5f565b34801561092057600080fd5b5061040e61092f3660046139c2565b60096020526000908152604090205481565b34801561094d57600080fd5b506103bc61095c366004613b16565b611fd3565b34801561096d57600080fd5b506103bc61097c366004613fa8565b612009565b34801561098d57600080fd5b506103bc61099c366004613eb9565b612067565b3480156109ad57600080fd5b5060075461040e565b3480156109c257600080fd5b506002546109da9062010000900464ffffffffff1681565b60405164ffffffffff9091168152602001610418565b3480156109fc57600080fd5b5061040e610a0b366004613947565b61259d565b348015610a1c57600080fd5b506103bc610a2b366004613fa8565b6125b4565b348015610a3c57600080fd5b506103bc610a4b366004613975565b612615565b348015610a5c57600080fd5b506103bc610a6b366004613fc8565b6126be565b348015610a7c57600080fd5b506103bc610a8b366004613992565b6126f1565b348015610a9c57600080fd5b5060025461088b90610100900460ff1681565b348015610abb57600080fd5b506103bc610aca366004613975565b61277e565b348015610adb57600080fd5b5061040e60085481565b348015610af157600080fd5b506103bc610b00366004613ffd565b612862565b348015610b1157600080fd5b506105a3610b20366004613975565b60056020526000908152604090205460ff1681565b348015610b4157600080fd5b506002546107619067010000000000000090046001600160a01b031681565b348015610b6c57600080fd5b506105a3610b7b366004614027565b61291b565b348015610b8c57600080fd5b506103bc612a25565b610b9d612b22565b60ff838116600884901b68ffffffffffffffff0016176000818152600660209081526040808320868452909152808220815160808101909252805493949293919290918391166004811115610bf457610bf4613f27565b6004811115610c0557610c05613f27565b8152905461010081046001600160c81b03166020830152600160d01b810460ff166040830152600160d81b900464ffffffffff1660609091015280519091506001816004811115610c5857610c58613f27565b1480610c7557506002816004811115610c7357610c73613f27565b145b610cc65760405162461bcd60e51b815260206004820152601c60248201527f50726f706f73616c2063616e6e6f742062652063616e63656c6c65640000000060448201526064015b60405180910390fd5b600254606083015164ffffffffff62010000909204821691610cea91439116612ba6565b64ffffffffff1611610d3e5760405162461bcd60e51b815260206004820181905260248201527f50726f706f73616c206e6f7420617420657870697279207468726573686f6c646044820152606401610cbd565b60048083526001600160481b03841660009081526006602090815260408083208884529091529020835181548593839160ff1916906001908490811115610d8757610d87613f27565b02179055506020820151815460408085015160609095015164ffffffffff16600160d81b026001600160d81b0360ff909616600160d01b0260ff60d01b196001600160c81b039095166101000294909416610100600160d81b03199093169290921792909217939093169290921790555160008051602061441483398151915290610e1a908890889060049089906140c1565b60405180910390a1505050505050565b610e32612be8565b610e3a612c4e565b6002600b541415610e8d5760405162461bcd60e51b815260206004820152601f60248201527f5265656e7472616e637947756172643a207265656e7472616e742063616c6c006044820152606401610cbd565b6002600b5560008281526004602090815260408083205490516001600160a01b039091169268ffffffffffffffff0060088a901b1660ff8b1617929091610edc91879186918b918b91016140f6565b60408051601f1981840301815291815281516020928301206001600160481b03851660009081526006845282812082825290935291209091506002815460ff166004811115610f2d57610f2d613f27565b14610f7a5760405162461bcd60e51b815260206004820181905260248201527f50726f706f73616c206d757374206861766520506173736564207374617475736044820152606401610cbd565b805460ff19166003178155838515610ff35760405163712467f960e11b81526001600160a01b0382169063e248cff290610fbc908a908d908d90600401614152565b600060405180830381600087803b158015610fd657600080fd5b505af1158015610fea573d6000803e3d6000fd5b505050506110d0565b60405163712467f960e11b81526001600160a01b0382169063e248cff290611023908a908d908d90600401614152565b600060405180830381600087803b15801561103d57600080fd5b505af192505050801561104e575060015b6110d0573d80801561107c576040519150601f19603f3d011682016040523d82523d6000602084013e611081565b606091505b50825460ff191660021783556040517fbd37c1f0d53bb2f33fe4c2104de272fcdeb4d2fef3acdbf1e4ddc3d6833ca376906110bd9083906141c8565b60405180910390a1505050505050611102565b6000805160206144148339815191528b8b6003866040516110f494939291906140c1565b60405180910390a150505050505b50506001600b5550505050565b611117612c94565b60025460ff1660008161112c816101006141f1565b6111369190614210565b60008181526004602081905260409182902080546001600160a01b0319169055905163a981575160e01b81529081018290526001600160a01b038481166024830152919250849182169063a9815751906044015b600060405180830381600087803b1580156111a457600080fd5b505af11580156111b8573d6000803e3d6000fd5b5050505050505050565b6000828152600160205260409020600201546111e090610814612ced565b6112445760405162461bcd60e51b815260206004820152602f60248201527f416363657373436f6e74726f6c3a2073656e646572206d75737420626520616e60448201526e0818591b5a5b881d1bc819dc985b9d608a1b6064820152608401610cbd565b61124e8282612d2e565b5050565b61125a612d97565b61124e8282612de0565b61126c612c94565b61127581612a3d565b6002805460ff929092166101000261ff00199092169190911790556040518181527fa20d6b84cd798a24038be305eff8a45ca82ef54a2aa2082005d8e14c0a4746c8906020015b60405180910390a150565b60008281526001602081815260408084206001600160a01b038616855290920190529020545b92915050565b6112fb612c94565b60ff166000908152600a60209081526040808320805460ff191690556009909152812055565b611329612c94565b80600754141561137b5760405162461bcd60e51b815260206004820152601f60248201527f43757272656e742066656520697320657175616c20746f206e657720666565006044820152606401610cbd565b60078190556040518181527f6bbc57480a46553fa4d156ce702beef5f3ad66303b0ed1a5d4cb44966c6584c3906020016112bc565b60006112ed60008051602061443483398151915283611e2d565b6113d2612c94565b60008581526004602081905260409182902080546001600160a01b0319166001600160a01b038a8116918217909255925163de319d9960e01b8152918201889052861660248201526001600160e01b03198086166044830152606482018590528316608482015287919063de319d999060a401600060405180830381600087803b15801561145f57600080fd5b505af1158015611473573d6000803e3d6000fd5b5050505050505050505050565b611488612c94565b6000611492612ced565b9050816001600160a01b0316816001600160a01b031614156114f65760405162461bcd60e51b815260206004820152601760248201527f43616e6e6f742072656e6f756e6365206f6e6573656c660000000000000000006044820152606401610cbd565b6115016000836111c2565b61124e600082611252565b611514612c94565b60405163ab5c7bf160e01b815282906001600160a01b0382169063ab5c7bf1906115429085906004016141c8565b600060405180830381600087803b15801561155c57600080fd5b505af1158015611570573d6000803e3d6000fd5b50505050505050565b611581612c94565b60ff9091166000908152600a60209081526040808320805460ff191660011790556009909152902055565b6115b4612c4e565b6000848152600460205260409020546001600160a01b0316806116155760405162461bcd60e51b81526020600482015260196024820152781b9bc81a185b991b195c88199bdc881c995cdbdd5c98d95251603a1b6044820152606401610cbd565b60008582868660405160200161162e94939291906140f6565b60408051808303601f190181529190528051602090910120835160025491925090610100900460ff168110156116b45760405162461bcd60e51b815260206004820152602560248201527f5369676e617475726573206c656e677468203e3d2072656c61796572546872656044820152641cda1bdb1960da1b6064820152608401610cbd565b604080516080810182526001815260006020820181905281830181905264ffffffffff43166060830152915190919061177a907fc4cb5d35714699d6e85b9562b644e60393b418d974a5c1dd8efaadac37a142c5908d908d908d9061171c908e908e90614228565b60405190819003812061175f959493929160200194855260ff9390931660208501526001600160401b039190911660408401526060830152608082015260a00190565b60405160208183030381529060405280519060200120612e60565b905060005b8381101561189a5760006117ac8389848151811061179f5761179f614238565b6020026020010151612eae565b90506117c660008051602061443483398151915282611e2d565b6117f55760405163c41f0f6960e01b81526001600160a01b038216600482015260248101839052604401610cbd565b6117ff8482612ed2565b156118445760405162461bcd60e51b81526020600482015260156024820152741c995b185e595c88185b1c9958591e481d9bdd1959605a1b6044820152606401610cbd565b61186461185082612ef5565b85602001516001600160c81b031617612f23565b6001600160c81b03166020850152604084018051906118828261424e565b60ff1690525061189390508161426e565b905061177f565b506003825260405163712467f960e11b815285906001600160a01b0382169063e248cff2906118d1908d908d908d90600401614152565b600060405180830381600087803b1580156118eb57600080fd5b505af11580156118ff573d6000803e3d6000fd5b505050506000805160206144148339815191528c8c60038860405161192794939291906140c1565b60405180910390a160ff8c811660088d901b68ffffffffffffffff00161760008181526006602090815260408083208a8452909152902054909160019116600481111561197657611976613f27565b11156119945760405162461bcd60e51b8152600401610cbd90614289565b6001600160481b038116600090815260066020908152604080832089845290915290208451815486929190829060ff191660018360048111156119d9576119d9613f27565b021790555060208201518154604084015160609094015164ffffffffff16600160d81b026001600160d81b0360ff909516600160d01b0260ff60d01b196001600160c81b039094166101000293909316610100600160d81b031990921691909117919091179290921691909117905550505050505050505050505050565b611a5f612c4e565b6000611a69612ced565b905061157081888888888888612f78565b611a82612c94565b611a8b81612a94565b6002806101000a81548164ffffffffff021916908364ffffffffff16021790555050565b6001600160481b03831660009081526006602090815260408083208584529091528082208151608081019092528054611b4b929190829060ff166004811115611afa57611afa613f27565b6004811115611b0b57611b0b613f27565b8152905461010081046001600160c81b03166020830152600160d01b810460ff166040830152600160d81b900464ffffffffff1660609091015283612ed2565b949350505050565b6000611b6c60008051602061443483398151915261259d565b905090565b611b79612c94565b611b89611b84612ced565b61312e565b565b611b93612c94565b60008381526004602081905260409182902054915163789d771160e01b81526001600160a01b03858116928201929092528315156024820152911690819063789d77119060440161118a565b611be7612c94565b6040516307b7ed9960e01b81526001600160a01b0382811660048301528391908216906307b7ed9990602401611542565b6000828152600160205260408120611c30908361317c565b9392505050565b611c3f612c94565b828114611c8e5760405162461bcd60e51b815260206004820152601f60248201527f61646472735b5d2c20616d6f756e74735b5d3a2064696666206c656e677468006044820152606401610cbd565b60005b83811015611e26576000858583818110611cad57611cad614238565b9050602002016020810190611cc29190613975565b6001600160a01b0316848484818110611cdd57611cdd614238565b9050602002013560405160006040518083038185875af1925050503d8060008114611d24576040519150601f19603f3d011682016040523d82523d6000602084013e611d29565b606091505b5050905080611d7a5760405162461bcd60e51b815260206004820152601960248201527f466565206574686572207472616e73666572206661696c6564000000000000006044820152606401610cbd565b7faaa40a232aaf133fdd28f3485f6fdd163514cfadbffa981f3610f42398efe34b6000878785818110611daf57611daf614238565b9050602002016020810190611dc49190613975565b868686818110611dd657611dd6614238565b90506020020135604051611e0b939291906001600160a01b039384168152919092166020820152604081019190915260600190565b60405180910390a15080611e1e8161426e565b915050611c91565b5050505050565b6000828152600160205260408120611c309083612b00565b611e4d612c94565b611e55612d97565b611e6d600080516020614434833981519152826126f1565b6040516001600160a01b03821681527f10e1f7ce9fd7d1b90a66d13a2ab3cb8dd7f29f3f8d520b143b063ccfbab6906b906020016112bc565b611eae612c94565b6002805460ff191660ff92909216919091179055565b6040805160808101825260008082526020808301829052828401829052606083018290528682526004815283822054935192936001600160a01b031692611f13918891859189918991016140f6565b60408051808303601f19018152828252805160209182012060ff8c811660088d901b68ffffffffffffffff00161760008181526006855285812084825290945292849020608086019094528354919550919392918391166004811115611f7b57611f7b613f27565b6004811115611f8c57611f8c613f27565b8152905461010081046001600160c81b03166020830152600160d01b810460ff166040830152600160d81b900464ffffffffff166060909101529998505050505050505050565b611fdb612c94565b60405163025a3c9960e21b815282906001600160a01b03821690630968f264906115429085906004016141c8565b612011612c94565b60008281526004602081905260409182902080546001600160a01b0319169055905163a981575160e01b81529081018390526001600160a01b03828116602483015284919082169063a98157519060440161118a565b61206f612be8565b612077612c4e565b6002600b5414156120ca5760405162461bcd60e51b815260206004820152601f60248201527f5265656e7472616e637947756172643a207265656e7472616e742063616c6c006044820152606401610cbd565b6002600b5560008381526004602090815260408083205490516001600160a01b039091169268ffffffffffffffff00600889901b1660ff8a1617929091612119918891869189918991016140f6565b60408051601f1981840301815282825280516020918201206001600160481b03861660009081526006835283812082825290925282822060808501909352825490945090929190829060ff16600481111561217657612176613f27565b600481111561218757612187613f27565b8152905461010081046001600160c81b0316602080840191909152600160d01b820460ff16604080850191909152600160d81b90920464ffffffffff1660609093019290925260008a815260049092529020549091506001600160a01b031661222e5760405162461bcd60e51b81526020600482015260196024820152781b9bc81a185b991b195c88199bdc881c995cdbdd5c98d95251603a1b6044820152606401610cbd565b60028151600481111561224357612243613f27565b141561226157612258898988888b6001610e2a565b50505050612591565b600061226b612ced565b905060018260000151600481111561228557612285613f27565b11156122a35760405162461bcd60e51b8152600401610cbd90614289565b6122ad8282612ed2565b156122f25760405162461bcd60e51b81526020600482015260156024820152741c995b185e595c88185b1c9958591e481d9bdd1959605a1b6044820152606401610cbd565b60008251600481111561230757612307613f27565b1415612367576040805160808101825260018082526000602083018190528284015264ffffffffff4316606083015291519093506000805160206144148339815191529161235a918d918d9188906140c1565b60405180910390a16123c8565b600254606083015164ffffffffff6201000090920482169161238b91439116612ba6565b64ffffffffff1611156123c8576004808352604051600080516020614414833981519152916123bf918d918d9188906140c1565b60405180910390a15b6004825160048111156123dd576123dd613f27565b146124ad576124026123ee82612ef5565b83602001516001600160c81b031617612f23565b6001600160c81b03166020830152604082018051906124208261424e565b60ff1690525081516040517f25f8daaa4635a7729927ba3f5b3d59cc3320aca7c32c9db4e7ca7b95743436409161245c918d918d9188906140c1565b60405180910390a1600254604083015160ff61010090920482169116106124ad576002808352604051600080516020614414833981519152916124a4918d918d9188906140c1565b60405180910390a15b6001600160481b038416600090815260066020908152604080832086845290915290208251815484929190829060ff191660018360048111156124f2576124f2613f27565b021790555060208201518154604084015160609094015164ffffffffff16600160d81b026001600160d81b0360ff909516600160d01b0260ff60d01b196001600160c81b039094166101000293909316610100600160d81b031990921691909117919091179290921691909117905560028251600481111561257657612576613f27565b141561258b5761258b8a8a89898c6000610e2a565b50505050505b50506001600b55505050565b60008181526001602052604081206112ed90613188565b6125bc612c94565b60008281526004602081905260409182902080546001600160a01b0319166001600160a01b038781169182179092559251635c7d1b9b60e11b81529182018590528316602482015284919063b8fa37369060440161118a565b61261d612c94565b60c8612627611b53565b1061266d5760405162461bcd60e51b81526020600482015260166024820152751c995b185e595c9cc81b1a5b5a5d081c995858da195960521b6044820152606401610cbd565b612685600080516020614434833981519152826111c2565b6040516001600160a01b03821681527f03580ee9f53a62b7cb409a2cb56f9be87747dd15017afc5cef6eef321e4fb2c5906020016112bc565b6126c6612c94565b6001600160a01b03919091166000908152600560205260409020805460ff1916911515919091179055565b60008281526001602052604090206002015461270f90610814612ced565b6127745760405162461bcd60e51b815260206004820152603060248201527f416363657373436f6e74726f6c3a2073656e646572206d75737420626520616e60448201526f2061646d696e20746f207265766f6b6560801b6064820152608401610cbd565b61124e8282613192565b612786612c94565b60025460ff1660008161279b816101006141f1565b6127a59190614210565b60008181526004602081905260409182902080546001600160a01b0319166001600160a01b038881169182179092559251635c7d1b9b60e11b815291820184905285166024820152919250849163b8fa373690604401600060405180830381600087803b15801561281557600080fd5b505af1158015612829573d6000803e3d6000fd5b505060405163789d771160e01b81526001600160a01b038681166004830152600160248301528416925063789d7711915060440161118a565b61286a612c94565b60ff82166000908152600360205260409020546001600160401b03908116908216116128e75760405162461bcd60e51b815260206004820152602660248201527f446f6573206e6f7420616c6c6f772064656372656d656e7473206f6620746865604482015265206e6f6e636560d01b6064820152608401610cbd565b60ff919091166000908152600360205260409020805467ffffffffffffffff19166001600160401b03909216919091179055565b6000807fc4cb5d35714699d6e85b9562b644e60393b418d974a5c1dd8efaadac37a142c58989898989604051612952929190614228565b604051908190038120612995959493929160200194855260ff9390931660208501526001600160401b039190911660408401526060830152608082015260a00190565b60405160208183030381529060405280519060200120905060006129b882612e60565b905060006129fc8287878080601f016020809104026020016040519081016040528093929190818152602001838380828437600092019190915250612eae92505050565b9050612a1660008051602061443483398151915282611e2d565b9b9a5050505050505050505050565b612a2d612c94565b611b89612a38612ced565b6131fb565b60006101008210612a905760405162461bcd60e51b815260206004820152601c60248201527f76616c756520646f6573206e6f742066697420696e20382062697473000000006044820152606401610cbd565b5090565b6000650100000000008210612a905760405162461bcd60e51b815260206004820152601d60248201527f76616c756520646f6573206e6f742066697420696e20343020626974730000006044820152606401610cbd565b6000611c30836001600160a01b038416613246565b6001600160a01b03811660009081526001830160205260408120541515611c30565b6000612b2c612ced565b9050612b39600082611e2d565b80612b575750612b5760008051602061443483398151915282611e2d565b612ba35760405162461bcd60e51b815260206004820152601e60248201527f73656e646572206973206e6f742072656c61796572206f722061646d696e00006044820152606401610cbd565b50565b6000611c3083836040518060400160405280601e81526020017f536166654d6174683a207375627472616374696f6e206f766572666c6f770000815250613295565b612c02600080516020614434833981519152610814612ced565b611b895760405162461bcd60e51b815260206004820181905260248201527f73656e64657220646f65736e277420686176652072656c6179657220726f6c656044820152606401610cbd565b60005460ff1615611b895760405162461bcd60e51b815260206004820152601060248201526f14185d5cd8589b194e881c185d5cd95960821b6044820152606401610cbd565b612ca16000610814612ced565b611b895760405162461bcd60e51b815260206004820152601e60248201527f73656e64657220646f65736e277420686176652061646d696e20726f6c6500006044820152606401610cbd565b60003360143610801590612d1957506001600160a01b03811660009081526005602052604090205460ff165b15612d29575060131936013560601c5b919050565b6000828152600160205260409020612d469082612aeb565b1561124e57612d53612ced565b6001600160a01b0316816001600160a01b0316837f2f8788117e7eff1d82e926ec794901d17c78024a50270940304540a733656f0d60405160405180910390a45050565b60005460ff16611b895760405162461bcd60e51b815260206004820152601460248201527314185d5cd8589b194e881b9bdd081c185d5cd95960621b6044820152606401610cbd565b612de8612ced565b6001600160a01b0316816001600160a01b0316146127745760405162461bcd60e51b815260206004820152602f60248201527f416363657373436f6e74726f6c3a2063616e206f6e6c792072656e6f756e636560448201526e103937b632b9903337b91039b2b63360891b6064820152608401610cbd565b60006112ed612e6d6132cf565b8360405161190160f01b6020820152602281018390526042810182905260009060620160405160208183030381529060405280519060200120905092915050565b6000806000612ebd85856133f6565b91509150612eca8161343c565b509392505050565b60008083602001516001600160c81b0316612eec84612ef5565b16119392505050565b6000612f19612f12600080516020614434833981519152846112c7565b6001612ba6565b6001901b92915050565b6000600160c81b8210612a905760405162461bcd60e51b815260206004820152601e60248201527f76616c756520646f6573206e6f742066697420696e20323030206269747300006044820152606401610cbd565b60ff8087166000908152600a6020526040812054349216612f9b57600754612faf565b60ff88166000908152600960205260409020545b9050612fbb81836142cc565b91508060086000828254612fcf9190614210565b90915550506000878152600460205260409020546001600160a01b03168061300a576040516308c231dd60e31b815260040160405180910390fd5b60ff8916600090815260036020526040812080548290613032906001600160401b03166142e3565b91906101000a8154816001600160401b0302191690836001600160401b03160217905590506000826001600160a01b031663b07e54bb868c8f8d8d6040518663ffffffff1660e01b815260040161308c949392919061430a565b60006040518083038185885af11580156130aa573d6000803e3d6000fd5b50505050506040513d6000823e601f3d908101601f191682016040526130d3919081019061433f565b90508b6001600160a01b03167f17bc3181e17a9620a479c24e6c606e474ba84fc036877b768926872e8cd0e11f8c8c858d8d87604051613118969594939291906143ac565b60405180910390a2505050505050505050505050565b613136612c4e565b6000805460ff191660011790556040516001600160a01b03821681527f62e78cea01bee320cd4e420270b5ea74000d11b0c9f74754ebdbfc544b05a258906020016112bc565b6000611c3083836135f7565b60006112ed825490565b60008281526001602052604090206131aa9082613621565b1561124e576131b7612ced565b6001600160a01b0316816001600160a01b0316837ff6391f5c32d9c69d2a47ea670b442974b53935d1edc7fd64eb21e047a839171b60405160405180910390a45050565b613203612d97565b6000805460ff191690556040516001600160a01b03821681527f5db9ee0a495bf2e6ff9c91a7834c1ba4fdd244a5e8aa4e537bd38aeae4b073aa906020016112bc565b600081815260018301602052604081205461328d575081546001818101845560008481526020808220909301849055845484825282860190935260409020919091556112ed565b5060006112ed565b600081848411156132b95760405162461bcd60e51b8152600401610cbd91906141c8565b5060006132c684866142cc565b95945050505050565b6000306001600160a01b037f00000000000000000000000000000000000000000000000000000000000000001614801561332857507f000000000000000000000000000000000000000000000000000000000000000046145b1561335257507f000000000000000000000000000000000000000000000000000000000000000090565b50604080517f00000000000000000000000000000000000000000000000000000000000000006020808301919091527f0000000000000000000000000000000000000000000000000000000000000000828401527f000000000000000000000000000000000000000000000000000000000000000060608301524660808301523060a0808401919091528351808403909101815260c0909201909252805191012090565b60008082516041141561342d5760208301516040840151606085015160001a61342187828585613636565b94509450505050613435565b506000905060025b9250929050565b600081600481111561345057613450613f27565b14156134595750565b600181600481111561346d5761346d613f27565b14156134bb5760405162461bcd60e51b815260206004820152601860248201527f45434453413a20696e76616c6964207369676e617475726500000000000000006044820152606401610cbd565b60028160048111156134cf576134cf613f27565b141561351d5760405162461bcd60e51b815260206004820152601f60248201527f45434453413a20696e76616c6964207369676e6174757265206c656e677468006044820152606401610cbd565b600381600481111561353157613531613f27565b141561358a5760405162461bcd60e51b815260206004820152602260248201527f45434453413a20696e76616c6964207369676e6174757265202773272076616c604482015261756560f01b6064820152608401610cbd565b600481600481111561359e5761359e613f27565b1415612ba35760405162461bcd60e51b815260206004820152602260248201527f45434453413a20696e76616c6964207369676e6174757265202776272076616c604482015261756560f01b6064820152608401610cbd565b600082600001828154811061360e5761360e614238565b9060005260206000200154905092915050565b6000611c30836001600160a01b038416613723565b6000807f7fffffffffffffffffffffffffffffff5d576e7357a4501ddfe92f46681b20a083111561366d575060009050600361371a565b8460ff16601b1415801561368557508460ff16601c14155b15613696575060009050600461371a565b6040805160008082526020820180845289905260ff881692820192909252606081018690526080810185905260019060a0016020604051602081039080840390855afa1580156136ea573d6000803e3d6000fd5b5050604051601f1901519150506001600160a01b0381166137135760006001925092505061371a565b9150600090505b94509492505050565b6000818152600183016020526040812054801561380c5760006137476001836142cc565b855490915060009061375b906001906142cc565b90508181146137c057600086600001828154811061377b5761377b614238565b906000526020600020015490508087600001848154811061379e5761379e614238565b6000918252602080832090910192909255918252600188019052604090208390555b85548690806137d1576137d16143fd565b6001900381819060005260206000200160009055905585600101600086815260200190815260200160002060009055600193505050506112ed565b60009150506112ed565b803560ff81168114612d2957600080fd5b80356001600160401b0381168114612d2957600080fd5b60008060006060848603121561385357600080fd5b61385c84613816565b925061386a60208501613827565b9150604084013590509250925092565b60008083601f84011261388c57600080fd5b5081356001600160401b038111156138a357600080fd5b60208301915083602082850101111561343557600080fd5b80358015158114612d2957600080fd5b60008060008060008060a087890312156138e457600080fd5b6138ed87613816565b95506138fb60208801613827565b945060408701356001600160401b0381111561391657600080fd5b61392289828a0161387a565b9095509350506060870135915061393b608088016138bb565b90509295509295509295565b60006020828403121561395957600080fd5b5035919050565b6001600160a01b0381168114612ba357600080fd5b60006020828403121561398757600080fd5b8135611c3081613960565b600080604083850312156139a557600080fd5b8235915060208301356139b781613960565b809150509250929050565b6000602082840312156139d457600080fd5b611c3082613816565b80356001600160e01b031981168114612d2957600080fd5b60008060008060008060c08789031215613a0e57600080fd5b8635613a1981613960565b9550602087013594506040870135613a3081613960565b9350613a3e606088016139dd565b92506080870135915061393b60a088016139dd565b634e487b7160e01b600052604160045260246000fd5b604051601f8201601f191681016001600160401b0381118282101715613a9157613a91613a53565b604052919050565b60006001600160401b03821115613ab257613ab2613a53565b50601f01601f191660200190565b600082601f830112613ad157600080fd5b8135613ae4613adf82613a99565b613a69565b818152846020838601011115613af957600080fd5b816020850160208301376000918101602001919091529392505050565b60008060408385031215613b2957600080fd5b8235613b3481613960565b915060208301356001600160401b03811115613b4f57600080fd5b613b5b85828601613ac0565b9150509250929050565b60008060408385031215613b7857600080fd5b613b8183613816565b946020939093013593505050565b60008060008060008060a08789031215613ba857600080fd5b613bb187613816565b95506020613bc0818901613827565b95506040880135945060608801356001600160401b0380821115613be357600080fd5b613bef8b838c0161387a565b909650945060808a0135915080821115613c0857600080fd5b818a0191508a601f830112613c1c57600080fd5b813581811115613c2e57613c2e613a53565b8060051b613c3d858201613a69565b918252838101850191858101908e841115613c5757600080fd5b86860192505b83831015613c91578483351115613c7357600080fd5b613c828f888535890101613ac0565b82529186019190860190613c5d565b809750505050505050509295509295509295565b60008060008060008060808789031215613cbe57600080fd5b613cc787613816565b95506020870135945060408701356001600160401b0380821115613cea57600080fd5b613cf68a838b0161387a565b90965094506060890135915080821115613d0f57600080fd5b50613d1c89828a0161387a565b979a9699509497509295939492505050565b600080600060608486031215613d4357600080fd5b83356001600160481b0381168114613d5a57600080fd5b9250602084013591506040840135613d7181613960565b809150509250925092565b600080600060608486031215613d9157600080fd5b833592506020840135613da381613960565b9150613db1604085016138bb565b90509250925092565b60008060408385031215613dcd57600080fd5b8235613dd881613960565b915060208301356139b781613960565b60008060408385031215613dfb57600080fd5b50508035926020909101359150565b60008083601f840112613e1c57600080fd5b5081356001600160401b03811115613e3357600080fd5b6020830191508360208260051b850101111561343557600080fd5b60008060008060408587031215613e6457600080fd5b84356001600160401b0380821115613e7b57600080fd5b613e8788838901613e0a565b90965094506020870135915080821115613ea057600080fd5b50613ead87828801613e0a565b95989497509550505050565b600080600080600060808688031215613ed157600080fd5b613eda86613816565b9450613ee860208701613827565b93506040860135925060608601356001600160401b03811115613f0a57600080fd5b613f168882890161387a565b969995985093965092949392505050565b634e487b7160e01b600052602160045260246000fd5b60058110613f5b57634e487b7160e01b600052602160045260246000fd5b9052565b6000608082019050613f72828451613f3d565b60018060c81b03602084015116602083015260ff604084015116604083015264ffffffffff606084015116606083015292915050565b600080600060608486031215613fbd57600080fd5b8335613d5a81613960565b60008060408385031215613fdb57600080fd5b8235613fe681613960565b9150613ff4602084016138bb565b90509250929050565b6000806040838503121561401057600080fd5b61401983613816565b9150613ff460208401613827565b600080600080600080600060a0888a03121561404257600080fd5b61404b88613816565b965061405960208901613827565b95506040880135945060608801356001600160401b038082111561407c57600080fd5b6140888b838c0161387a565b909650945060808a01359150808211156140a157600080fd5b506140ae8a828b0161387a565b989b979a50959850939692959293505050565b60ff851681526001600160401b0384166020820152608081016140e76040830185613f3d565b82606083015295945050505050565b8481526bffffffffffffffffffffffff198460601b16602082015281836034830137600091016034019081529392505050565b81835281816020850137506000828201602090810191909152601f909101601f19169091010190565b8381526040602082015260006132c6604083018486614129565b60005b8381101561418757818101518382015260200161416f565b83811115614196576000848401525b50505050565b600081518084526141b481602086016020860161416c565b601f01601f19169290920160200192915050565b602081526000611c30602083018461419c565b634e487b7160e01b600052601160045260246000fd5b600081600019048311821515161561420b5761420b6141db565b500290565b60008219821115614223576142236141db565b500190565b8183823760009101908152919050565b634e487b7160e01b600052603260045260246000fd5b600060ff821660ff811415614265576142656141db565b60010192915050565b6000600019821415614282576142826141db565b5060010190565b60208082526023908201527f70726f706f73616c20616c72656164792065786563757465642f63616e63656c6040820152621b195960ea1b606082015260800190565b6000828210156142de576142de6141db565b500390565b60006001600160401b0380831681811415614300576143006141db565b6001019392505050565b8481526001600160a01b03841660208201526060604082018190526000906143359083018486614129565b9695505050505050565b60006020828403121561435157600080fd5b81516001600160401b0381111561436757600080fd5b8201601f8101841361437857600080fd5b8051614386613adf82613a99565b81815285602083850101111561439b57600080fd5b6132c682602083016020860161416c565b60ff871681528560208201526001600160401b038516604082015260a0606082015260006143de60a083018587614129565b82810360808401526143f0818561419c565b9998505050505050505050565b634e487b7160e01b600052603160045260246000fdfe968626a768e76ba1363efe44e322a6c4900c5f084e0b45f35e294dfddaa9e0d5e2b7fb3b832174769106daebcfd6d1970523240dda11281102db9363b83b0dc4a264697066735822122097510dda78f008db504d48590f9ff5e0b200f967df60b4d1c3c4a827d34fa29564736f6c634300080b0033",
  "linkReferences": {},
  "deployedLinkReferences": {}
}