{
  "_format": "hh-sol-artifact-1",
  "contractName": "Bridge",
  "sourceName": "contracts/Bridge.sol",
  "abi": [
    {
      "inputs": [
        {
          "internalType": "uint8",
          "name": "domainID",
          "type": "uint8"
        },
        {
          "internalType": "address[]",
          "name": "initialRelayers",
          "type": "address[]"
        },
        {
          "internalType": "uint256",
          "name": "initialRelayerThreshold",
          "type": "uint256"
        },
        {
          "internalType": "uint256",
          "name": "expiry",
          "type": "uint256"
        }
      ],
      "stateMutability": "nonpayable",
      "type": "constructor"
    },
    {
      "inputs": [
        {
          "internalType": "uint256",
          "name": "msgValue",
          "type": "uint256"
        },
        {
          "internalType": "uint256",
          "name": "fee",
          "type": "uint256"
        }
      ],
      "name": "IncorrectFeeSupplied",
      "type": "error"
    },
    {
      "inputs": [
        {
          "internalType": "address",
          "name": "signer",
          "type": "address"
        },
        {
          "internalType": "uint256",
          "name": "index",
          "type": "uint256"
        }
      ],
      "name": "InvalidSignature",
      "type": "error"
    },
    {
      "inputs": [],
      "name": "ResourceIDNotMappedToHandler",
      "type": "error"
    },
    {
      "anonymous": false,
      "inputs": [
        {
          "indexed": false,
          "internalType": "uint8",
          "name": "destinationDomainID",
          "type": "uint8"
        },
        {
          "indexed": false,
          "internalType": "bytes32",
          "name": "resourceID",
          "type": "bytes32"
        },
        {
          "indexed": false,
          "internalType": "uint64",
          "name": "depositNonce",
          "type": "uint64"
        },
        {
          "indexed": true,
          "internalType": "address",
          "name": "user",
          "type": "address"
        },
        {
          "indexed": false,
          "internalType": "bytes",
          "name": "data",
          "type": "bytes"
        },
        {
          "indexed": false,
          "internalType": "bytes",
          "name": "handlerResponse",
          "type": "bytes"
        }
      ],
      "name": "Deposit",
      "type": "event"
    },
    {
      "anonymous": false,
      "inputs": [
        {
          "indexed": false,
          "internalType": "bytes",
          "name": "lowLevelData",
          "type": "bytes"
        }
      ],
      "name": "FailedHandlerExecution",
      "type": "event"
    },
    {
      "anonymous": false,
      "inputs": [
        {
          "indexed": false,
          "internalType": "uint256",
          "name": "newFee",
          "type": "uint256"
        }
      ],
      "name": "FeeChanged",
      "type": "event"
    },
    {
      "anonymous": false,
      "inputs": [
        {
          "indexed": false,
          "internalType": "address",
          "name": "tokenAddress",
          "type": "address"
        },
        {
          "indexed": false,
          "internalType": "address",
          "name": "recipient",
          "type": "address"
        },
        {
          "indexed": false,
          "internalType": "uint256",
          "name": "amount",
          "type": "uint256"
        }
      ],
      "name": "FeeDistributed",
      "type": "event"
    },
    {
      "anonymous": false,
      "inputs": [
        {
          "indexed": false,
          "internalType": "address",
          "name": "newFeeHandler",
          "type": "address"
        }
      ],
      "name": "FeeHandlerChanged",
      "type": "event"
    },
    {
      "anonymous": false,
      "inputs": [
        {
          "indexed": false,
          "internalType": "address",
          "name": "account",
          "type": "address"
        }
      ],
      "name": "Paused",
      "type": "event"
    },
    {
      "anonymous": false,
      "inputs": [
        {
          "indexed": false,
          "internalType": "uint8",
          "name": "originDomainID",
          "type": "uint8"
        },
        {
          "indexed": false,
          "internalType": "uint64",
          "name": "depositNonce",
          "type": "uint64"
        },
        {
          "indexed": false,
          "internalType": "enum IBridge.ProposalStatus",
          "name": "status",
          "type": "uint8"
        },
        {
          "indexed": false,
          "internalType": "bytes32",
          "name": "dataHash",
          "type": "bytes32"
        }
      ],
      "name": "ProposalEvent",
      "type": "event"
    },
    {
      "anonymous": false,
      "inputs": [
        {
          "indexed": false,
          "internalType": "uint8",
          "name": "originDomainID",
          "type": "uint8"
        },
        {
          "indexed": false,
          "internalType": "uint64",
          "name": "depositNonce",
          "type": "uint64"
        },
        {
          "indexed": false,
          "internalType": "enum IBridge.ProposalStatus",
          "name": "status",
          "type": "uint8"
        },
        {
          "indexed": false,
          "internalType": "bytes32",
          "name": "dataHash",
          "type": "bytes32"
        }
      ],
      "name": "ProposalVote",
      "type": "event"
    },
    {
      "anonymous": false,
      "inputs": [
        {
          "indexed": false,
          "internalType": "address",
          "name": "relayer",
          "type": "address"
        }
      ],
      "name": "RelayerAdded",
      "type": "event"
    },
    {
      "anonymous": false,
      "inputs": [
        {
          "indexed": false,
          "internalType": "address",
          "name": "relayer",
          "type": "address"
        }
      ],
      "name": "RelayerRemoved",
      "type": "event"
    },
    {
      "anonymous": false,
      "inputs": [
        {
          "indexed": false,
          "internalType": "uint256",
          "name": "newThreshold",
          "type": "uint256"
        }
      ],
      "name": "RelayerThresholdChanged",
      "type": "event"
    },
    {
      "anonymous": false,
      "inputs": [
        {
          "indexed": true,
          "internalType": "bytes32",
          "name": "role",
          "type": "bytes32"
        },
        {
          "indexed": true,
          "internalType": "address",
          "name": "account",
          "type": "address"
        },
        {
          "indexed": true,
          "internalType": "address",
          "name": "sender",
          "type": "address"
        }
      ],
      "name": "RoleGranted",
      "type": "event"
    },
    {
      "anonymous": false,
      "inputs": [
        {
          "indexed": true,
          "internalType": "bytes32",
          "name": "role",
          "type": "bytes32"
        },
        {
          "indexed": true,
          "internalType": "address",
          "name": "account",
          "type": "address"
        },
        {
          "indexed": true,
          "internalType": "address",
          "name": "sender",
          "type": "address"
        }
      ],
      "name": "RoleRevoked",
      "type": "event"
    },
    {
      "anonymous": false,
      "inputs": [
        {
          "indexed": false,
          "internalType": "address",
          "name": "account",
          "type": "address"
        }
      ],
      "name": "Unpaused",
      "type": "event"
    },
    {
      "inputs": [],
      "name": "DEFAULT_ADMIN_ROLE",
      "outputs": [
        {
          "internalType": "bytes32",
          "name": "",
          "type": "bytes32"
        }
      ],
      "stateMutability": "view",
      "type": "function"
    },
    {
      "inputs": [],
      "name": "MAX_RELAYERS",
      "outputs": [
        {
          "internalType": "uint256",
          "name": "",
          "type": "uint256"
        }
      ],
      "stateMutability": "view",
      "type": "function"
    },
    {
      "inputs": [],
      "name": "PERMIT_TYPEHASH",
      "outputs": [
        {
          "internalType": "bytes32",
          "name": "",
          "type": "bytes32"
        }
      ],
      "stateMutability": "view",
      "type": "function"
    },
    {
      "inputs": [],
      "name": "RELAYER_ROLE",
      "outputs": [
        {
          "internalType": "bytes32",
          "name": "",
          "type": "bytes32"
        }
      ],
      "stateMutability": "view",
      "type": "function"
    },
    {
      "inputs": [],
      "name": "_chainId",
      "outputs": [
        {
          "internalType": "uint256",
          "name": "",
          "type": "uint256"
        }
      ],
      "stateMutability": "view",
      "type": "function"
    },
    {
      "inputs": [
        {
          "internalType": "uint8",
          "name": "",
          "type": "uint8"
        }
      ],
      "name": "_depositCounts",
      "outputs": [
        {
          "internalType": "uint64",
          "name": "",
          "type": "uint64"
        }
      ],
      "stateMutability": "view",
      "type": "function"
    },
    {
      "inputs": [],
      "name": "_domainID",
      "outputs": [
        {
          "internalType": "uint8",
          "name": "",
          "type": "uint8"
        }
      ],
      "stateMutability": "view",
      "type": "function"
    },
    {
      "inputs": [],
      "name": "_expiry",
      "outputs": [
        {
          "internalType": "uint40",
          "name": "",
          "type": "uint40"
        }
      ],
      "stateMutability": "view",
      "type": "function"
    },
    {
      "inputs": [],
      "name": "_fee",
      "outputs": [
        {
          "internalType": "uint256",
          "name": "",
          "type": "uint256"
        }
      ],
      "stateMutability": "view",
      "type": "function"
    },
    {
      "inputs": [],
      "name": "_feeHandler",
      "outputs": [
        {
          "internalType": "contract IFeeHandler",
          "name": "",
          "type": "address"
        }
      ],
      "stateMutability": "view",
      "type": "function"
    },
    {
      "inputs": [],
      "name": "_feeReserve",
      "outputs": [
        {
          "internalType": "uint256",
          "name": "",
          "type": "uint256"
        }
      ],
      "stateMutability": "view",
      "type": "function"
    },
    {
      "inputs": [],
      "name": "_fee_",
      "outputs": [
        {
          "internalType": "uint256",
          "name": "",
          "type": "uint256"
        }
      ],
      "stateMutability": "view",
      "type": "function"
    },
    {
      "inputs": [
        {
          "internalType": "uint72",
          "name": "destNonce",
          "type": "uint72"
        },
        {
          "internalType": "bytes32",
          "name": "dataHash",
          "type": "bytes32"
        },
        {
          "internalType": "address",
          "name": "relayer",
          "type": "address"
        }
      ],
      "name": "_hasVotedOnProposal",
      "outputs": [
        {
          "internalType": "bool",
          "name": "",
          "type": "bool"
        }
      ],
      "stateMutability": "view",
      "type": "function"
    },
    {
      "inputs": [],
      "name": "_relayerThreshold",
      "outputs": [
        {
          "internalType": "uint8",
          "name": "",
          "type": "uint8"
        }
      ],
      "stateMutability": "view",
      "type": "function"
    },
    {
      "inputs": [
        {
          "internalType": "bytes32",
          "name": "",
          "type": "bytes32"
        }
      ],
      "name": "_resourceIDToHandlerAddress",
      "outputs": [
        {
          "internalType": "address",
          "name": "",
          "type": "address"
        }
      ],
      "stateMutability": "view",
      "type": "function"
    },
    {
      "inputs": [],
      "name": "_totalRelayers",
      "outputs": [
        {
          "internalType": "uint256",
          "name": "",
          "type": "uint256"
        }
      ],
      "stateMutability": "view",
      "type": "function"
    },
    {
      "inputs": [
        {
          "internalType": "address",
          "name": "relayerAddress",
          "type": "address"
        }
      ],
      "name": "adminAddRelayer",
      "outputs": [],
      "stateMutability": "nonpayable",
      "type": "function"
    },
    {
      "inputs": [
        {
          "internalType": "uint256",
          "name": "expiry",
          "type": "uint256"
        }
      ],
      "name": "adminChangeExpiry",
      "outputs": [],
      "stateMutability": "nonpayable",
      "type": "function"
    },
    {
      "inputs": [
        {
          "internalType": "uint256",
          "name": "newThreshold",
          "type": "uint256"
        }
      ],
      "name": "adminChangeRelayerThreshold",
      "outputs": [],
      "stateMutability": "nonpayable",
      "type": "function"
    },
    {
      "inputs": [],
      "name": "adminPauseTransfers",
      "outputs": [],
      "stateMutability": "nonpayable",
      "type": "function"
    },
    {
      "inputs": [
        {
          "internalType": "address",
          "name": "relayerAddress",
          "type": "address"
        }
      ],
      "name": "adminRemoveRelayer",
      "outputs": [],
      "stateMutability": "nonpayable",
      "type": "function"
    },
    {
      "inputs": [
        {
          "internalType": "address",
          "name": "handlerAddress",
          "type": "address"
        },
        {
          "internalType": "address",
          "name": "tokenAddress",
          "type": "address"
        }
      ],
      "name": "adminSetBurnable",
      "outputs": [],
      "stateMutability": "nonpayable",
      "type": "function"
    },
    {
      "inputs": [
        {
          "internalType": "uint8",
          "name": "domainID",
          "type": "uint8"
        },
        {
          "internalType": "uint64",
          "name": "nonce",
          "type": "uint64"
        }
      ],
      "name": "adminSetDepositNonce",
      "outputs": [],
      "stateMutability": "nonpayable",
      "type": "function"
    },
    {
      "inputs": [
        {
          "internalType": "uint8",
          "name": "domainID",
          "type": "uint8"
        }
      ],
      "name": "adminSetDomainId",
      "outputs": [],
      "stateMutability": "nonpayable",
      "type": "function"
    },
    {
      "inputs": [
        {
          "internalType": "uint256",
          "name": "newFee",
          "type": "uint256"
        }
      ],
      "name": "adminSetFee",
      "outputs": [],
      "stateMutability": "nonpayable",
      "type": "function"
    },
    {
      "inputs": [
        {
          "internalType": "address",
          "name": "forwarder",
          "type": "address"
        },
        {
          "internalType": "bool",
          "name": "valid",
          "type": "bool"
        }
      ],
      "name": "adminSetForwarder",
      "outputs": [],
      "stateMutability": "nonpayable",
      "type": "function"
    },
    {
      "inputs": [
        {
          "internalType": "address",
          "name": "handlerAddress",
          "type": "address"
        },
        {
          "internalType": "bytes32",
          "name": "resourceID",
          "type": "bytes32"
        },
        {
          "internalType": "address",
          "name": "contractAddress",
          "type": "address"
        },
        {
          "internalType": "bytes4",
          "name": "depositFunctionSig",
          "type": "bytes4"
        },
        {
          "internalType": "uint256",
          "name": "depositFunctionDepositorOffset",
          "type": "uint256"
        },
        {
          "internalType": "bytes4",
          "name": "executeFunctionSig",
          "type": "bytes4"
        }
      ],
      "name": "adminSetGenericResource",
      "outputs": [],
      "stateMutability": "nonpayable",
      "type": "function"
    },
    {
      "inputs": [
        {
          "internalType": "bytes32",
          "name": "resourceID",
          "type": "bytes32"
        },
        {
          "internalType": "address",
          "name": "nativeAddress",
          "type": "address"
        },
        {
          "internalType": "bool",
          "name": "isNative",
          "type": "bool"
        }
      ],
      "name": "adminSetNative",
      "outputs": [],
      "stateMutability": "nonpayable",
      "type": "function"
    },
    {
      "inputs": [
        {
          "internalType": "address",
          "name": "handlerAddress",
          "type": "address"
        }
      ],
      "name": "adminSetNativeResource",
      "outputs": [],
      "stateMutability": "nonpayable",
      "type": "function"
    },
    {
      "inputs": [
        {
          "internalType": "address",
          "name": "handlerAddress",
          "type": "address"
        },
        {
          "internalType": "bytes32",
          "name": "resourceID",
          "type": "bytes32"
        },
        {
          "internalType": "address",
          "name": "tokenAddress",
          "type": "address"
        }
      ],
      "name": "adminSetResource",
      "outputs": [],
      "stateMutability": "nonpayable",
      "type": "function"
    },
    {
      "inputs": [
        {
          "internalType": "uint8",
          "name": "fromDomainID",
          "type": "uint8"
        },
        {
          "internalType": "uint256",
          "name": "_specialFee",
          "type": "uint256"
        }
      ],
      "name": "adminSetSpecialFee",
      "outputs": [],
      "stateMutability": "nonpayable",
      "type": "function"
    },
    {
      "inputs": [],
      "name": "adminUnpauseTransfers",
      "outputs": [],
      "stateMutability": "nonpayable",
      "type": "function"
    },
    {
      "inputs": [
        {
          "internalType": "address",
          "name": "handlerAddress",
          "type": "address"
        },
        {
          "internalType": "bytes",
          "name": "data",
          "type": "bytes"
        }
      ],
      "name": "adminWithdraw",
      "outputs": [],
      "stateMutability": "nonpayable",
      "type": "function"
    },
    {
      "inputs": [
        {
          "internalType": "address",
          "name": "handlerAddress",
          "type": "address"
        },
        {
          "internalType": "bytes",
          "name": "data",
          "type": "bytes"
        }
      ],
      "name": "adminWithdrawETH",
      "outputs": [],
      "stateMutability": "nonpayable",
      "type": "function"
    },
    {
      "inputs": [
        {
          "internalType": "uint8",
          "name": "domainID",
          "type": "uint8"
        },
        {
          "internalType": "uint64",
          "name": "depositNonce",
          "type": "uint64"
        },
        {
          "internalType": "bytes32",
          "name": "dataHash",
          "type": "bytes32"
        }
      ],
      "name": "cancelProposal",
      "outputs": [],
      "stateMutability": "nonpayable",
      "type": "function"
    },
    {
      "inputs": [
        {
          "internalType": "uint8",
          "name": "domainID",
          "type": "uint8"
        },
        {
          "internalType": "uint64",
          "name": "depositNonce",
          "type": "uint64"
        },
        {
          "internalType": "bytes32",
          "name": "resourceID",
          "type": "bytes32"
        },
        {
          "internalType": "bytes",
          "name": "data",
          "type": "bytes"
        },
        {
          "internalType": "bytes",
          "name": "signature",
          "type": "bytes"
        }
      ],
      "name": "checkSignature",
      "outputs": [
        {
          "internalType": "bool",
          "name": "",
          "type": "bool"
        }
      ],
      "stateMutability": "view",
      "type": "function"
    },
    {
      "inputs": [
        {
          "internalType": "uint8",
          "name": "destinationDomainID",
          "type": "uint8"
        },
        {
          "internalType": "bytes32",
          "name": "resourceID",
          "type": "bytes32"
        },
        {
          "internalType": "bytes",
          "name": "depositData",
          "type": "bytes"
        },
        {
          "internalType": "bytes",
          "name": "feeData",
          "type": "bytes"
        }
      ],
      "name": "deposit",
      "outputs": [],
      "stateMutability": "payable",
      "type": "function"
    },
    {
      "inputs": [
        {
          "internalType": "uint8",
          "name": "domainID",
          "type": "uint8"
        },
        {
          "internalType": "uint64",
          "name": "depositNonce",
          "type": "uint64"
        },
        {
          "internalType": "bytes",
          "name": "data",
          "type": "bytes"
        },
        {
          "internalType": "bytes32",
          "name": "resourceID",
          "type": "bytes32"
        },
        {
          "internalType": "bool",
          "name": "revertOnFail",
          "type": "bool"
        }
      ],
      "name": "executeProposal",
      "outputs": [],
      "stateMutability": "nonpayable",
      "type": "function"
    },
    {
      "inputs": [
        {
          "internalType": "uint8",
          "name": "originDomainID",
          "type": "uint8"
        },
        {
          "internalType": "uint64",
          "name": "depositNonce",
          "type": "uint64"
        },
        {
          "internalType": "bytes32",
          "name": "resourceID",
          "type": "bytes32"
        },
        {
          "internalType": "bytes",
          "name": "data",
          "type": "bytes"
        }
      ],
      "name": "getProposal",
      "outputs": [
        {
          "components": [
            {
              "internalType": "enum IBridge.ProposalStatus",
              "name": "_status",
              "type": "uint8"
            },
            {
              "internalType": "uint200",
              "name": "_yesVotes",
              "type": "uint200"
            },
            {
              "internalType": "uint8",
              "name": "_yesVotesTotal",
              "type": "uint8"
            },
            {
              "internalType": "uint40",
              "name": "_proposedBlock",
              "type": "uint40"
            }
          ],
          "internalType": "struct IBridge.Proposal",
          "name": "",
          "type": "tuple"
        }
      ],
      "stateMutability": "view",
      "type": "function"
    },
    {
      "inputs": [
        {
          "internalType": "bytes32",
          "name": "role",
          "type": "bytes32"
        }
      ],
      "name": "getRoleAdmin",
      "outputs": [
        {
          "internalType": "bytes32",
          "name": "",
          "type": "bytes32"
        }
      ],
      "stateMutability": "view",
      "type": "function"
    },
    {
      "inputs": [
        {
          "internalType": "bytes32",
          "name": "role",
          "type": "bytes32"
        },
        {
          "internalType": "uint256",
          "name": "index",
          "type": "uint256"
        }
      ],
      "name": "getRoleMember",
      "outputs": [
        {
          "internalType": "address",
          "name": "",
          "type": "address"
        }
      ],
      "stateMutability": "view",
      "type": "function"
    },
    {
      "inputs": [
        {
          "internalType": "bytes32",
          "name": "role",
          "type": "bytes32"
        }
      ],
      "name": "getRoleMemberCount",
      "outputs": [
        {
          "internalType": "uint256",
          "name": "",
          "type": "uint256"
        }
      ],
      "stateMutability": "view",
      "type": "function"
    },
    {
      "inputs": [
        {
          "internalType": "bytes32",
          "name": "role",
          "type": "bytes32"
        },
        {
          "internalType": "address",
          "name": "account",
          "type": "address"
        }
      ],
      "name": "getRoleMemberIndex",
      "outputs": [
        {
          "internalType": "uint256",
          "name": "",
          "type": "uint256"
        }
      ],
      "stateMutability": "view",
      "type": "function"
    },
    {
      "inputs": [
        {
          "internalType": "bytes32",
          "name": "role",
          "type": "bytes32"
        },
        {
          "internalType": "address",
          "name": "account",
          "type": "address"
        }
      ],
      "name": "grantRole",
      "outputs": [],
      "stateMutability": "nonpayable",
      "type": "function"
    },
    {
      "inputs": [
        {
          "internalType": "bytes32",
          "name": "role",
          "type": "bytes32"
        },
        {
          "internalType": "address",
          "name": "account",
          "type": "address"
        }
      ],
      "name": "hasRole",
      "outputs": [
        {
          "internalType": "bool",
          "name": "",
          "type": "bool"
        }
      ],
      "stateMutability": "view",
      "type": "function"
    },
    {
      "inputs": [
        {
          "internalType": "address",
          "name": "relayer",
          "type": "address"
        }
      ],
      "name": "isRelayer",
      "outputs": [
        {
          "internalType": "bool",
          "name": "",
          "type": "bool"
        }
      ],
      "stateMutability": "view",
      "type": "function"
    },
    {
      "inputs": [
        {
          "internalType": "address",
          "name": "",
          "type": "address"
        }
      ],
      "name": "isValidForwarder",
      "outputs": [
        {
          "internalType": "bool",
          "name": "",
          "type": "bool"
        }
      ],
      "stateMutability": "view",
      "type": "function"
    },
    {
      "inputs": [],
      "name": "paused",
      "outputs": [
        {
          "internalType": "bool",
          "name": "",
          "type": "bool"
        }
      ],
      "stateMutability": "view",
      "type": "function"
    },
    {
      "inputs": [
        {
          "internalType": "address",
          "name": "newAdmin",
          "type": "address"
        }
      ],
      "name": "renounceAdmin",
      "outputs": [],
      "stateMutability": "nonpayable",
      "type": "function"
    },
    {
      "inputs": [
        {
          "internalType": "bytes32",
          "name": "role",
          "type": "bytes32"
        },
        {
          "internalType": "address",
          "name": "account",
          "type": "address"
        }
      ],
      "name": "renounceRole",
      "outputs": [],
      "stateMutability": "nonpayable",
      "type": "function"
    },
    {
      "inputs": [
        {
          "internalType": "bytes32",
          "name": "role",
          "type": "bytes32"
        },
        {
          "internalType": "address",
          "name": "account",
          "type": "address"
        }
      ],
      "name": "revokeRole",
      "outputs": [],
      "stateMutability": "nonpayable",
      "type": "function"
    },
    {
      "inputs": [
        {
          "internalType": "uint8",
          "name": "",
          "type": "uint8"
        }
      ],
      "name": "special",
      "outputs": [
        {
          "internalType": "bool",
          "name": "",
          "type": "bool"
        }
      ],
      "stateMutability": "view",
      "type": "function"
    },
    {
      "inputs": [
        {
          "internalType": "uint8",
          "name": "",
          "type": "uint8"
        }
      ],
      "name": "specialFee",
      "outputs": [
        {
          "internalType": "uint256",
          "name": "",
          "type": "uint256"
        }
      ],
      "stateMutability": "view",
      "type": "function"
    },
    {
      "inputs": [
        {
          "internalType": "address payable[]",
          "name": "addrs",
          "type": "address[]"
        },
        {
          "internalType": "uint256[]",
          "name": "amounts",
          "type": "uint256[]"
        }
      ],
      "name": "transferFee",
      "outputs": [],
      "stateMutability": "nonpayable",
      "type": "function"
    },
    {
      "inputs": [
        {
          "internalType": "address payable[]",
          "name": "addrs",
          "type": "address[]"
        },
        {
          "internalType": "uint256[]",
          "name": "amounts",
          "type": "uint256[]"
        }
      ],
      "name": "transferFunds",
      "outputs": [],
      "stateMutability": "nonpayable",
      "type": "function"
    },
    {
      "inputs": [
        {
          "internalType": "uint8",
          "name": "domainID",
          "type": "uint8"
        },
        {
          "internalType": "uint64",
          "name": "depositNonce",
          "type": "uint64"
        },
        {
          "internalType": "bytes32",
          "name": "resourceID",
          "type": "bytes32"
        },
        {
          "internalType": "bytes",
          "name": "data",
          "type": "bytes"
        }
      ],
      "name": "voteProposal",
      "outputs": [],
      "stateMutability": "nonpayable",
      "type": "function"
    },
    {
      "inputs": [
        {
          "internalType": "uint8",
          "name": "domainID",
          "type": "uint8"
        },
        {
          "internalType": "uint64",
          "name": "depositNonce",
          "type": "uint64"
        },
        {
          "internalType": "bytes32",
          "name": "resourceID",
          "type": "bytes32"
        },
        {
          "internalType": "bytes",
          "name": "data",
          "type": "bytes"
        },
        {
          "internalType": "bytes[]",
          "name": "signatures",
          "type": "bytes[]"
        }
      ],
      "name": "voteProposals",
      "outputs": [],
      "stateMutability": "nonpayable",
      "type": "function"
    }
  ],
  "bytecode": "0x6101406040523480156200001257600080fd5b5060405162004a7238038062004a7283398101604081905262000035916200053b565b604080518082018252600c81526b5065726d697442726964676560a01b6020808301918252835180850190945260038452620312e360ec1b908401528151902060e08190527fe6bbd6277e1bf288eed5e8d1780f9a50b239e86b153736bceebccf4ea79d90b36101008190524660a0529192917f8b73c3c69bb8fe3d512ecc4cf759cc79239f7b179b0ffacaa9a75d522b39400f620001198184846040805160208101859052908101839052606081018290524660808201523060a082015260009060c0016040516020818303038152906040528051906020012090509392505050565b6080523060c0526101205250506000805460ff199081169091556002805490911660ff8816179055506200015b90508262000241602090811b620028fa17901c565b600260016101000a81548160ff021916908360ff1602179055506200018b816200029e60201b620029511760201c565b6002805464ffffffffff92909216620100000266ffffffffff000019909216919091179055620001c66000620001c0620002f7565b6200033a565b60005b83518110156200023657620002217fe2b7fb3b832174769106daebcfd6d1970523240dda11281102db9363b83b0dc48583815181106200020d576200020d62000639565b60200260200101516200034a60201b60201c565b806200022d816200064f565b915050620001c9565b505050505062000679565b600061010082106200029a5760405162461bcd60e51b815260206004820152601c60248201527f76616c756520646f6573206e6f742066697420696e203820626974730000000060448201526064015b60405180910390fd5b5090565b60006501000000000082106200029a5760405162461bcd60e51b815260206004820152601d60248201527f76616c756520646f6573206e6f742066697420696e2034302062697473000000604482015260640162000291565b600033601436108015906200032457506001600160a01b03811660009081526005602052604090205460ff165b1562000335575060131936013560601c5b919050565b620003468282620003d7565b5050565b60008281526001602052604090206002015462000371906200036b620002f7565b62000452565b6200033a5760405162461bcd60e51b815260206004820152602f60248201527f416363657373436f6e74726f6c3a2073656e646572206d75737420626520616e60448201526e0818591b5a5b881d1bc819dc985b9d608a1b606482015260840162000291565b6000828152600160209081526040909120620003fe918390620029a862000481821b17901c565b1562000346576200040e620002f7565b6001600160a01b0316816001600160a01b0316837f2f8788117e7eff1d82e926ec794901d17c78024a50270940304540a733656f0d60405160405180910390a45050565b6000828152600160209081526040822062000478918490620029bd62000498821b17901c565b90505b92915050565b600062000478836001600160a01b038416620004bb565b6001600160a01b0381166000908152600183016020526040812054151562000478565b600081815260018301602052604081205462000504575081546001818101845560008481526020808220909301849055845484825282860190935260409020919091556200047b565b5060006200047b565b634e487b7160e01b600052604160045260246000fd5b80516001600160a01b03811681146200033557600080fd5b600080600080608085870312156200055257600080fd5b845160ff811681146200056457600080fd5b602086810151919550906001600160401b03808211156200058457600080fd5b818801915088601f8301126200059957600080fd5b815181811115620005ae57620005ae6200050d565b8060051b604051601f19603f83011681018181108582111715620005d657620005d66200050d565b60405291825284820192508381018501918b831115620005f557600080fd5b938501935b828510156200061e576200060e8562000523565b84529385019392850192620005fa565b60408b01516060909b0151999c909b50975050505050505050565b634e487b7160e01b600052603260045260246000fd5b60006000198214156200067257634e487b7160e01b600052601160045260246000fd5b5060010190565b60805160a05160c05160e05161010051610120516143a9620006c96000396000613216015260006132650152600061324001526000613199015260006131c3015260006131ed01526143a96000f3fe6080604052600436106103765760003560e01c80639010d07c116101d1578063c5b37c2211610102578063d7a9cd79116100a0578063f8c39e441161006f578063f8c39e4414610aa4578063fe4648f414610ad4578063fe65c4be14610aff578063ffaac0eb14610b1f57600080fd5b8063d7a9cd7914610a2f578063e2469d4014610a4e578063e7b14b5a14610a6e578063edc20c3c14610a8457600080fd5b8063cb10f215116100dc578063cb10f215146109af578063cdb0f73a146109cf578063d15ef64e146109ef578063d547741f14610a0f57600080fd5b8063c5b37c2214610940578063c5ec897014610955578063ca15c8731461098f57600080fd5b80639debb3bd1161016f578063a5c621f211610149578063a5c621f2146108a6578063b67a4aaf146108d3578063bd2a182014610900578063c0331b3e1461092057600080fd5b80639debb3bd1461085c578063a06fbbff14610871578063a217fddf1461089157600080fd5b8063926d7d7f116101ab578063926d7d7f146107d857806393cbe783146107fa5780639d82dd63146108105780639dd694f41461083057600080fd5b80639010d07c14610778578063904e9b2b1461079857806391d14854146107b857600080fd5b80635e1fab0f116102ab5780637d026d961161024957806380ae1c281161022357806380ae1c28146106d557806384db809f146106ea57806388b73be0146107385780638c0c26311461075857600080fd5b80637d026d96146106805780637febe63f146106a0578063802aabe8146106c057600080fd5b80636e2047bc116102855780636e2047bc1461061a5780637292dd911461063a57806373c45c981461065a578063747734121461066d57600080fd5b80635e1fab0f146105aa57806362abd9ce146105ca5780636d3b6eea146105fa57600080fd5b80634b0b919d116103185780634f2c0aec116102f25780634f2c0aec14610522578063541d5548146105425780635a1ad87c146105725780635c975abb1461059257600080fd5b80634b0b919d146104945780634e056005146104e25780634e0df3f61461050257600080fd5b80632f2ff15d116103545780632f2ff15d1461040057806330adf81f1461042057806336568abe146104545780634603ae381461047457600080fd5b806317f03ce51461037b578063206a98fd1461039d578063248a9ca3146103bd575b600080fd5b34801561038757600080fd5b5061039b61039636600461375e565b610b34565b005b3480156103a957600080fd5b5061039b6103b83660046137eb565b610dc9565b3480156103c957600080fd5b506103ed6103d8366004613867565b60009081526001602052604090206002015490565b6040519081526020015b60405180910390f35b34801561040c57600080fd5b5061039b61041b366004613895565b611051565b34801561042c57600080fd5b506103ed7fc4cb5d35714699d6e85b9562b644e60393b418d974a5c1dd8efaadac37a142c581565b34801561046057600080fd5b5061039b61046f366004613895565b6110e1565b34801561048057600080fd5b5061039b61048f366004613909565b6110f3565b3480156104a057600080fd5b506104ca6104af366004613974565b6003602052600090815260409020546001600160401b031681565b6040516001600160401b0390911681526020016103f7565b3480156104ee57600080fd5b5061039b6104fd366004613867565b611197565b34801561050e57600080fd5b506103ed61051d366004613895565b6111fa565b34801561052e57600080fd5b5061039b61053d366004613867565b611226565b34801561054e57600080fd5b5061056261055d36600461398f565b6112b5565b60405190151581526020016103f7565b34801561057e57600080fd5b5061039b61058d3660046139c4565b6112cf565b34801561059e57600080fd5b5060005460ff16610562565b3480156105b657600080fd5b5061039b6105c536600461398f565b611385565b3480156105d657600080fd5b506105626105e5366004613974565b600a6020526000908152604090205460ff1681565b34801561060657600080fd5b5061039b610615366004613ae5565b611411565b34801561062657600080fd5b5061039b610635366004613b34565b61147e565b34801561064657600080fd5b5061039b610655366004613b5e565b6114b1565b61039b610668366004613c74565b6119a0565b34801561067957600080fd5b50466103ed565b34801561068c57600080fd5b5061039b61069b366004613867565b6119c3565b3480156106ac57600080fd5b506105626106bb366004613cfd565b6119f8565b3480156106cc57600080fd5b506103ed611a9c565b3480156106e157600080fd5b5061039b611aba565b3480156106f657600080fd5b50610720610705366004613867565b6004602052600090815260409020546001600160a01b031681565b6040516001600160a01b0390911681526020016103f7565b34801561074457600080fd5b5061039b610753366004613d4b565b611ad4565b34801561076457600080fd5b5061039b610773366004613d89565b611b5c565b34801561078457600080fd5b50610720610793366004613db7565b611b95565b3480156107a457600080fd5b5061039b6107b3366004613909565b611bb4565b3480156107c457600080fd5b506105626107d3366004613895565b611da3565b3480156107e457600080fd5b506103ed60008051602061435483398151915281565b34801561080657600080fd5b506103ed60075481565b34801561081c57600080fd5b5061039b61082b36600461398f565b611dbb565b34801561083c57600080fd5b5060025461084a9060ff1681565b60405160ff90911681526020016103f7565b34801561086857600080fd5b506103ed60c881565b34801561087d57600080fd5b5061039b61088c366004613974565b611e1c565b34801561089d57600080fd5b506103ed600081565b3480156108b257600080fd5b506108c66108c1366004613dd9565b611e3a565b6040516103f79190613e7f565b3480156108df57600080fd5b506103ed6108ee366004613974565b60096020526000908152604090205481565b34801561090c57600080fd5b5061039b61091b366004613ae5565b611f49565b34801561092c57600080fd5b5061039b61093b366004613dd9565b611f7f565b34801561094c57600080fd5b506007546103ed565b34801561096157600080fd5b506002546109799062010000900464ffffffffff1681565b60405164ffffffffff90911681526020016103f7565b34801561099b57600080fd5b506103ed6109aa366004613867565b612457565b3480156109bb57600080fd5b5061039b6109ca366004613ec8565b61246e565b3480156109db57600080fd5b5061039b6109ea36600461398f565b6124cf565b3480156109fb57600080fd5b5061039b610a0a366004613ee8565b612578565b348015610a1b57600080fd5b5061039b610a2a366004613895565b6125ab565b348015610a3b57600080fd5b5060025461084a90610100900460ff1681565b348015610a5a57600080fd5b5061039b610a6936600461398f565b612638565b348015610a7a57600080fd5b506103ed60085481565b348015610a9057600080fd5b5061039b610a9f366004613f1d565b61271f565b348015610ab057600080fd5b50610562610abf36600461398f565b60056020526000908152604090205460ff1681565b348015610ae057600080fd5b506002546107209067010000000000000090046001600160a01b031681565b348015610b0b57600080fd5b50610562610b1a366004613f47565b6127d8565b348015610b2b57600080fd5b5061039b6128e2565b610b3c6129df565b60ff838116600884901b68ffffffffffffffff0016176000818152600660209081526040808320868452909152808220815160808101909252805493949293919290918391166004811115610b9357610b93613e47565b6004811115610ba457610ba4613e47565b8152905461010081046001600160c81b03166020830152600160d01b810460ff166040830152600160d81b900464ffffffffff1660609091015280519091506001816004811115610bf757610bf7613e47565b1480610c1457506002816004811115610c1257610c12613e47565b145b610c655760405162461bcd60e51b815260206004820152601c60248201527f50726f706f73616c2063616e6e6f742062652063616e63656c6c65640000000060448201526064015b60405180910390fd5b600254606083015164ffffffffff62010000909204821691610c8991439116612a63565b64ffffffffff1611610cdd5760405162461bcd60e51b815260206004820181905260248201527f50726f706f73616c206e6f7420617420657870697279207468726573686f6c646044820152606401610c5c565b60048083526001600160481b03841660009081526006602090815260408083208884529091529020835181548593839160ff1916906001908490811115610d2657610d26613e47565b02179055506020820151815460408085015160609095015164ffffffffff16600160d81b026001600160d81b0360ff909616600160d01b0260ff60d01b196001600160c81b039095166101000294909416610100600160d81b03199093169290921792909217939093169290921790555160008051602061433483398151915290610db990889088906004908990613fe1565b60405180910390a1505050505050565b610dd1612aa5565b610dd9612b0b565b60008281526004602090815260408083205490516001600160a01b039091169268ffffffffffffffff0060088a901b1660ff8b1617929091610e2391879186918b918b9101614016565b60408051601f1981840301815291815281516020928301206001600160481b03851660009081526006845282812082825290935291209091506002815460ff166004811115610e7457610e74613e47565b14610ec15760405162461bcd60e51b815260206004820181905260248201527f50726f706f73616c206d757374206861766520506173736564207374617475736044820152606401610c5c565b805460ff19166003178155838515610f3a5760405163712467f960e11b81526001600160a01b0382169063e248cff290610f03908a908d908d90600401614072565b600060405180830381600087803b158015610f1d57600080fd5b505af1158015610f31573d6000803e3d6000fd5b50505050611017565b60405163712467f960e11b81526001600160a01b0382169063e248cff290610f6a908a908d908d90600401614072565b600060405180830381600087803b158015610f8457600080fd5b505af1925050508015610f95575060015b611017573d808015610fc3576040519150601f19603f3d011682016040523d82523d6000602084013e610fc8565b606091505b50825460ff191660021783556040517fbd37c1f0d53bb2f33fe4c2104de272fcdeb4d2fef3acdbf1e4ddc3d6833ca376906110049083906140e8565b60405180910390a1505050505050611049565b6000805160206143348339815191528b8b60038660405161103b9493929190613fe1565b60405180910390a150505050505b505050505050565b60008281526001602052604090206002015461106f906107d3612b51565b6110d35760405162461bcd60e51b815260206004820152602f60248201527f416363657373436f6e74726f6c3a2073656e646572206d75737420626520616e60448201526e0818591b5a5b881d1bc819dc985b9d608a1b6064820152608401610c5c565b6110dd8282612b92565b5050565b6110e9612bfb565b6110dd8282612c44565b6110fb612cc4565b60005b8381101561119057848482818110611118576111186140fb565b905060200201602081019061112d919061398f565b6001600160a01b03166108fc84848481811061114b5761114b6140fb565b905060200201359081150290604051600060405180830381858888f1935050505015801561117d573d6000803e3d6000fd5b508061118881614127565b9150506110fe565b5050505050565b61119f612cc4565b6111a8816128fa565b6002805460ff929092166101000261ff00199092169190911790556040518181527fa20d6b84cd798a24038be305eff8a45ca82ef54a2aa2082005d8e14c0a4746c8906020015b60405180910390a150565b60008281526001602081815260408084206001600160a01b038616855290920190529020545b92915050565b61122e612cc4565b8060075414156112805760405162461bcd60e51b815260206004820152601f60248201527f43757272656e742066656520697320657175616c20746f206e657720666565006044820152606401610c5c565b60078190556040518181527f6bbc57480a46553fa4d156ce702beef5f3ad66303b0ed1a5d4cb44966c6584c3906020016111ef565b600061122060008051602061435483398151915283611da3565b6112d7612cc4565b60008581526004602081905260409182902080546001600160a01b0319166001600160a01b038a8116918217909255925163de319d9960e01b8152918201889052861660248201526001600160e01b03198086166044830152606482018590528316608482015287919063de319d999060a401600060405180830381600087803b15801561136457600080fd5b505af1158015611378573d6000803e3d6000fd5b5050505050505050505050565b61138d612cc4565b6000611397612b51565b9050816001600160a01b0316816001600160a01b031614156113fb5760405162461bcd60e51b815260206004820152601760248201527f43616e6e6f742072656e6f756e6365206f6e6573656c660000000000000000006044820152606401610c5c565b611406600083611051565b6110dd6000826110e1565b611419612cc4565b60405163ab5c7bf160e01b815282906001600160a01b0382169063ab5c7bf1906114479085906004016140e8565b600060405180830381600087803b15801561146157600080fd5b505af1158015611475573d6000803e3d6000fd5b50505050505050565b611486612cc4565b60ff9091166000908152600a60209081526040808320805460ff191660011790556009909152902055565b6114b9612b0b565b6000848152600460205260409020546001600160a01b03168061151a5760405162461bcd60e51b81526020600482015260196024820152781b9bc81a185b991b195c88199bdc881c995cdbdd5c98d95251603a1b6044820152606401610c5c565b6000858286866040516020016115339493929190614016565b60408051808303601f190181529190528051602090910120835160025491925090610100900460ff168110156115b95760405162461bcd60e51b815260206004820152602560248201527f5369676e617475726573206c656e677468203e3d2072656c61796572546872656044820152641cda1bdb1960da1b6064820152608401610c5c565b604080516080810182526001815260006020820181905281830181905264ffffffffff43166060830152915190919061167f907fc4cb5d35714699d6e85b9562b644e60393b418d974a5c1dd8efaadac37a142c5908d908d908d90611621908e908e90614142565b604051908190038120611664959493929160200194855260ff9390931660208501526001600160401b039190911660408401526060830152608082015260a00190565b60405160208183030381529060405280519060200120612d1d565b905060005b838110156117e35760006116b1838984815181106116a4576116a46140fb565b6020026020010151612d6b565b90506116cb60008051602061435483398151915282611da3565b6116fa5760405163c41f0f6960e01b81526001600160a01b038216600482015260248101839052604401610c5c565b6117048482612d8f565b156117495760405162461bcd60e51b81526020600482015260156024820152741c995b185e595c88185b1c9958591e481d9bdd1959605a1b6044820152606401610c5c565b61176961175582612db2565b85602001516001600160c81b031617612de0565b6001600160c81b031660208501526040840180519061178782614152565b60ff1660ff16815250507f25f8daaa4635a7729927ba3f5b3d59cc3320aca7c32c9db4e7ca7b95743436408d8d8660000151896040516117ca9493929190613fe1565b60405180910390a1506117dc81614127565b9050611684565b506003825260405163712467f960e11b815285906001600160a01b0382169063e248cff29061181a908d908d908d90600401614072565b600060405180830381600087803b15801561183457600080fd5b505af1158015611848573d6000803e3d6000fd5b505050506000805160206143348339815191528c8c6003886040516118709493929190613fe1565b60405180910390a160ff8c811660088d901b68ffffffffffffffff00161760008181526006602090815260408083208a845290915290205490916001911660048111156118bf576118bf613e47565b11156118dd5760405162461bcd60e51b8152600401610c5c90614172565b6001600160481b038116600090815260066020908152604080832089845290915290208451815486929190829060ff1916600183600481111561192257611922613e47565b021790555060208201518154604084015160609094015164ffffffffff16600160d81b026001600160d81b0360ff909516600160d01b0260ff60d01b196001600160c81b039094166101000293909316610100600160d81b031990921691909117919091179290921691909117905550505050505050505050505050565b6119a8612b0b565b60006119b2612b51565b905061147581888888888888612e35565b6119cb612cc4565b6119d481612951565b6002806101000a81548164ffffffffff021916908364ffffffffff16021790555050565b6001600160481b03831660009081526006602090815260408083208584529091528082208151608081019092528054611a94929190829060ff166004811115611a4357611a43613e47565b6004811115611a5457611a54613e47565b8152905461010081046001600160c81b03166020830152600160d01b810460ff166040830152600160d81b900464ffffffffff1660609091015283612d8f565b949350505050565b6000611ab5600080516020614354833981519152612457565b905090565b611ac2612cc4565b611ad2611acd612b51565b612feb565b565b611adc612cc4565b60008381526004602081905260409182902054915163789d771160e01b81526001600160a01b03858116928201929092528315156024820152911690819063789d7711906044015b600060405180830381600087803b158015611b3e57600080fd5b505af1158015611b52573d6000803e3d6000fd5b5050505050505050565b611b64612cc4565b6040516307b7ed9960e01b81526001600160a01b0382811660048301528391908216906307b7ed9990602401611447565b6000828152600160205260408120611bad9083613039565b9392505050565b611bbc612cc4565b828114611c0b5760405162461bcd60e51b815260206004820152601f60248201527f61646472735b5d2c20616d6f756e74735b5d3a2064696666206c656e677468006044820152606401610c5c565b60005b83811015611190576000858583818110611c2a57611c2a6140fb565b9050602002016020810190611c3f919061398f565b6001600160a01b0316848484818110611c5a57611c5a6140fb565b9050602002013560405160006040518083038185875af1925050503d8060008114611ca1576040519150601f19603f3d011682016040523d82523d6000602084013e611ca6565b606091505b5050905080611cf75760405162461bcd60e51b815260206004820152601960248201527f466565206574686572207472616e73666572206661696c6564000000000000006044820152606401610c5c565b7faaa40a232aaf133fdd28f3485f6fdd163514cfadbffa981f3610f42398efe34b6000878785818110611d2c57611d2c6140fb565b9050602002016020810190611d41919061398f565b868686818110611d5357611d536140fb565b90506020020135604051611d88939291906001600160a01b039384168152919092166020820152604081019190915260600190565b60405180910390a15080611d9b81614127565b915050611c0e565b6000828152600160205260408120611bad90836129bd565b611dc3612cc4565b611dcb612bfb565b611de3600080516020614354833981519152826125ab565b6040516001600160a01b03821681527f10e1f7ce9fd7d1b90a66d13a2ab3cb8dd7f29f3f8d520b143b063ccfbab6906b906020016111ef565b611e24612cc4565b6002805460ff191660ff92909216919091179055565b6040805160808101825260008082526020808301829052828401829052606083018290528682526004815283822054935192936001600160a01b031692611e8991889185918991899101614016565b60408051808303601f19018152828252805160209182012060ff8c811660088d901b68ffffffffffffffff00161760008181526006855285812084825290945292849020608086019094528354919550919392918391166004811115611ef157611ef1613e47565b6004811115611f0257611f02613e47565b8152905461010081046001600160c81b03166020830152600160d01b810460ff166040830152600160d81b900464ffffffffff166060909101529998505050505050505050565b611f51612cc4565b60405163025a3c9960e21b815282906001600160a01b03821690630968f264906114479085906004016140e8565b611f87612aa5565b611f8f612b0b565b60008381526004602090815260408083205490516001600160a01b039091169268ffffffffffffffff00600889901b1660ff8a1617929091611fd991889186918991899101614016565b60408051601f1981840301815282825280516020918201206001600160481b03861660009081526006835283812082825290925282822060808501909352825490945090929190829060ff16600481111561203657612036613e47565b600481111561204757612047613e47565b8152905461010081046001600160c81b0316602080840191909152600160d01b820460ff16604080850191909152600160d81b90920464ffffffffff1660609093019290925260008a815260049092529020549091506001600160a01b03166120ee5760405162461bcd60e51b81526020600482015260196024820152781b9bc81a185b991b195c88199bdc881c995cdbdd5c98d95251603a1b6044820152606401610c5c565b60028151600481111561210357612103613e47565b141561212157612118898988888b6001610dc9565b50505050611190565b600061212b612b51565b905060018260000151600481111561214557612145613e47565b11156121635760405162461bcd60e51b8152600401610c5c90614172565b61216d8282612d8f565b156121b25760405162461bcd60e51b81526020600482015260156024820152741c995b185e595c88185b1c9958591e481d9bdd1959605a1b6044820152606401610c5c565b6000825160048111156121c7576121c7613e47565b1415612227576040805160808101825260018082526000602083018190528284015264ffffffffff4316606083015291519093506000805160206143348339815191529161221a918d918d918890613fe1565b60405180910390a1612288565b600254606083015164ffffffffff6201000090920482169161224b91439116612a63565b64ffffffffff1611156122885760048083526040516000805160206143348339815191529161227f918d918d918890613fe1565b60405180910390a15b60048251600481111561229d5761229d613e47565b1461236d576122c26122ae82612db2565b83602001516001600160c81b031617612de0565b6001600160c81b03166020830152604082018051906122e082614152565b60ff1690525081516040517f25f8daaa4635a7729927ba3f5b3d59cc3320aca7c32c9db4e7ca7b95743436409161231c918d918d918890613fe1565b60405180910390a1600254604083015160ff610100909204821691161061236d57600280835260405160008051602061433483398151915291612364918d918d918890613fe1565b60405180910390a15b6001600160481b038416600090815260066020908152604080832086845290915290208251815484929190829060ff191660018360048111156123b2576123b2613e47565b021790555060208201518154604084015160609094015164ffffffffff16600160d81b026001600160d81b0360ff909516600160d01b0260ff60d01b196001600160c81b039094166101000293909316610100600160d81b031990921691909117919091179290921691909117905560028251600481111561243657612436613e47565b141561244b5761244b8a8a89898c6000610dc9565b50505050505050505050565b600081815260016020526040812061122090613045565b612476612cc4565b60008281526004602081905260409182902080546001600160a01b0319166001600160a01b038781169182179092559251635c7d1b9b60e11b81529182018590528316602482015284919063b8fa373690604401611b24565b6124d7612cc4565b60c86124e1611a9c565b106125275760405162461bcd60e51b81526020600482015260166024820152751c995b185e595c9cc81b1a5b5a5d081c995858da195960521b6044820152606401610c5c565b61253f60008051602061435483398151915282611051565b6040516001600160a01b03821681527f03580ee9f53a62b7cb409a2cb56f9be87747dd15017afc5cef6eef321e4fb2c5906020016111ef565b612580612cc4565b6001600160a01b03919091166000908152600560205260409020805460ff1916911515919091179055565b6000828152600160205260409020600201546125c9906107d3612b51565b61262e5760405162461bcd60e51b815260206004820152603060248201527f416363657373436f6e74726f6c3a2073656e646572206d75737420626520616e60448201526f2061646d696e20746f207265766f6b6560801b6064820152608401610c5c565b6110dd828261304f565b612640612cc4565b60025460019060009060ff16612658836101006141b5565b61266291906141d4565b60008181526004602081905260409182902080546001600160a01b0319166001600160a01b038881169182179092559251635c7d1b9b60e11b815291820184905285166024820152919250849163b8fa373690604401600060405180830381600087803b1580156126d257600080fd5b505af11580156126e6573d6000803e3d6000fd5b505060405163789d771160e01b81526001600160a01b038681166004830152600160248301528416925063789d77119150604401611b24565b612727612cc4565b60ff82166000908152600360205260409020546001600160401b03908116908216116127a45760405162461bcd60e51b815260206004820152602660248201527f446f6573206e6f7420616c6c6f772064656372656d656e7473206f6620746865604482015265206e6f6e636560d01b6064820152608401610c5c565b60ff919091166000908152600360205260409020805467ffffffffffffffff19166001600160401b03909216919091179055565b6000807fc4cb5d35714699d6e85b9562b644e60393b418d974a5c1dd8efaadac37a142c5898989898960405161280f929190614142565b604051908190038120612852959493929160200194855260ff9390931660208501526001600160401b039190911660408401526060830152608082015260a00190565b604051602081830303815290604052805190602001209050600061287582612d1d565b905060006128b98287878080601f016020809104026020016040519081016040528093929190818152602001838380828437600092019190915250612d6b92505050565b90506128d360008051602061435483398151915282611da3565b9b9a5050505050505050505050565b6128ea612cc4565b611ad26128f5612b51565b6130b8565b6000610100821061294d5760405162461bcd60e51b815260206004820152601c60248201527f76616c756520646f6573206e6f742066697420696e20382062697473000000006044820152606401610c5c565b5090565b600065010000000000821061294d5760405162461bcd60e51b815260206004820152601d60248201527f76616c756520646f6573206e6f742066697420696e20343020626974730000006044820152606401610c5c565b6000611bad836001600160a01b038416613103565b6001600160a01b03811660009081526001830160205260408120541515611bad565b60006129e9612b51565b90506129f6600082611da3565b80612a145750612a1460008051602061435483398151915282611da3565b612a605760405162461bcd60e51b815260206004820152601e60248201527f73656e646572206973206e6f742072656c61796572206f722061646d696e00006044820152606401610c5c565b50565b6000611bad83836040518060400160405280601e81526020017f536166654d6174683a207375627472616374696f6e206f766572666c6f770000815250613152565b612abf6000805160206143548339815191526107d3612b51565b611ad25760405162461bcd60e51b815260206004820181905260248201527f73656e64657220646f65736e277420686176652072656c6179657220726f6c656044820152606401610c5c565b60005460ff1615611ad25760405162461bcd60e51b815260206004820152601060248201526f14185d5cd8589b194e881c185d5cd95960821b6044820152606401610c5c565b60003360143610801590612b7d57506001600160a01b03811660009081526005602052604090205460ff165b15612b8d575060131936013560601c5b919050565b6000828152600160205260409020612baa90826129a8565b156110dd57612bb7612b51565b6001600160a01b0316816001600160a01b0316837f2f8788117e7eff1d82e926ec794901d17c78024a50270940304540a733656f0d60405160405180910390a45050565b60005460ff16611ad25760405162461bcd60e51b815260206004820152601460248201527314185d5cd8589b194e881b9bdd081c185d5cd95960621b6044820152606401610c5c565b612c4c612b51565b6001600160a01b0316816001600160a01b03161461262e5760405162461bcd60e51b815260206004820152602f60248201527f416363657373436f6e74726f6c3a2063616e206f6e6c792072656e6f756e636560448201526e103937b632b9903337b91039b2b63360891b6064820152608401610c5c565b612cd160006107d3612b51565b611ad25760405162461bcd60e51b815260206004820152601e60248201527f73656e64657220646f65736e277420686176652061646d696e20726f6c6500006044820152606401610c5c565b6000611220612d2a61318c565b8360405161190160f01b6020820152602281018390526042810182905260009060620160405160208183030381529060405280519060200120905092915050565b6000806000612d7a85856132b3565b91509150612d8781613323565b509392505050565b60008083602001516001600160c81b0316612da984612db2565b16119392505050565b6000612dd6612dcf600080516020614354833981519152846111fa565b6001612a63565b6001901b92915050565b6000600160c81b821061294d5760405162461bcd60e51b815260206004820152601e60248201527f76616c756520646f6573206e6f742066697420696e20323030206269747300006044820152606401610c5c565b60ff8087166000908152600a6020526040812054349216612e5857600754612e6c565b60ff88166000908152600960205260409020545b9050612e7881836141ec565b91508060086000828254612e8c91906141d4565b90915550506000878152600460205260409020546001600160a01b031680612ec7576040516308c231dd60e31b815260040160405180910390fd5b60ff8916600090815260036020526040812080548290612eef906001600160401b0316614203565b91906101000a8154816001600160401b0302191690836001600160401b03160217905590506000826001600160a01b031663b07e54bb868c8f8d8d6040518663ffffffff1660e01b8152600401612f49949392919061422a565b60006040518083038185885af1158015612f67573d6000803e3d6000fd5b50505050506040513d6000823e601f3d908101601f19168201604052612f90919081019061425f565b90508b6001600160a01b03167f17bc3181e17a9620a479c24e6c606e474ba84fc036877b768926872e8cd0e11f8c8c858d8d87604051612fd5969594939291906142cc565b60405180910390a2505050505050505050505050565b612ff3612b0b565b6000805460ff191660011790556040516001600160a01b03821681527f62e78cea01bee320cd4e420270b5ea74000d11b0c9f74754ebdbfc544b05a258906020016111ef565b6000611bad83836134de565b6000611220825490565b60008281526001602052604090206130679082613508565b156110dd57613074612b51565b6001600160a01b0316816001600160a01b0316837ff6391f5c32d9c69d2a47ea670b442974b53935d1edc7fd64eb21e047a839171b60405160405180910390a45050565b6130c0612bfb565b6000805460ff191690556040516001600160a01b03821681527f5db9ee0a495bf2e6ff9c91a7834c1ba4fdd244a5e8aa4e537bd38aeae4b073aa906020016111ef565b600081815260018301602052604081205461314a57508154600181810184556000848152602080822090930184905584548482528286019093526040902091909155611220565b506000611220565b600081848411156131765760405162461bcd60e51b8152600401610c5c91906140e8565b50600061318384866141ec565b95945050505050565b6000306001600160a01b037f0000000000000000000000000000000000000000000000000000000000000000161480156131e557507f000000000000000000000000000000000000000000000000000000000000000046145b1561320f57507f000000000000000000000000000000000000000000000000000000000000000090565b50604080517f00000000000000000000000000000000000000000000000000000000000000006020808301919091527f0000000000000000000000000000000000000000000000000000000000000000828401527f000000000000000000000000000000000000000000000000000000000000000060608301524660808301523060a0808401919091528351808403909101815260c0909201909252805191012090565b6000808251604114156132ea5760208301516040840151606085015160001a6132de8782858561351d565b9450945050505061331c565b825160401415613314576020830151604084015161330986838361360a565b93509350505061331c565b506000905060025b9250929050565b600081600481111561333757613337613e47565b14156133405750565b600181600481111561335457613354613e47565b14156133a25760405162461bcd60e51b815260206004820152601860248201527f45434453413a20696e76616c6964207369676e617475726500000000000000006044820152606401610c5c565b60028160048111156133b6576133b6613e47565b14156134045760405162461bcd60e51b815260206004820152601f60248201527f45434453413a20696e76616c6964207369676e6174757265206c656e677468006044820152606401610c5c565b600381600481111561341857613418613e47565b14156134715760405162461bcd60e51b815260206004820152602260248201527f45434453413a20696e76616c6964207369676e6174757265202773272076616c604482015261756560f01b6064820152608401610c5c565b600481600481111561348557613485613e47565b1415612a605760405162461bcd60e51b815260206004820152602260248201527f45434453413a20696e76616c6964207369676e6174757265202776272076616c604482015261756560f01b6064820152608401610c5c565b60008260000182815481106134f5576134f56140fb565b9060005260206000200154905092915050565b6000611bad836001600160a01b038416613643565b6000807f7fffffffffffffffffffffffffffffff5d576e7357a4501ddfe92f46681b20a08311156135545750600090506003613601565b8460ff16601b1415801561356c57508460ff16601c14155b1561357d5750600090506004613601565b6040805160008082526020820180845289905260ff881692820192909252606081018690526080810185905260019060a0016020604051602081039080840390855afa1580156135d1573d6000803e3d6000fd5b5050604051601f1901519150506001600160a01b0381166135fa57600060019250925050613601565b9150600090505b94509492505050565b6000806001600160ff1b0383168161362760ff86901c601b6141d4565b90506136358782888561351d565b935093505050935093915050565b6000818152600183016020526040812054801561372c5760006136676001836141ec565b855490915060009061367b906001906141ec565b90508181146136e057600086600001828154811061369b5761369b6140fb565b90600052602060002001549050808760000184815481106136be576136be6140fb565b6000918252602080832090910192909255918252600188019052604090208390555b85548690806136f1576136f161431d565b600190038181906000526020600020016000905590558560010160008681526020019081526020016000206000905560019350505050611220565b6000915050611220565b803560ff81168114612b8d57600080fd5b80356001600160401b0381168114612b8d57600080fd5b60008060006060848603121561377357600080fd5b61377c84613736565b925061378a60208501613747565b9150604084013590509250925092565b60008083601f8401126137ac57600080fd5b5081356001600160401b038111156137c357600080fd5b60208301915083602082850101111561331c57600080fd5b80358015158114612b8d57600080fd5b60008060008060008060a0878903121561380457600080fd5b61380d87613736565b955061381b60208801613747565b945060408701356001600160401b0381111561383657600080fd5b61384289828a0161379a565b9095509350506060870135915061385b608088016137db565b90509295509295509295565b60006020828403121561387957600080fd5b5035919050565b6001600160a01b0381168114612a6057600080fd5b600080604083850312156138a857600080fd5b8235915060208301356138ba81613880565b809150509250929050565b60008083601f8401126138d757600080fd5b5081356001600160401b038111156138ee57600080fd5b6020830191508360208260051b850101111561331c57600080fd5b6000806000806040858703121561391f57600080fd5b84356001600160401b038082111561393657600080fd5b613942888389016138c5565b9096509450602087013591508082111561395b57600080fd5b50613968878288016138c5565b95989497509550505050565b60006020828403121561398657600080fd5b611bad82613736565b6000602082840312156139a157600080fd5b8135611bad81613880565b80356001600160e01b031981168114612b8d57600080fd5b60008060008060008060c087890312156139dd57600080fd5b86356139e881613880565b95506020870135945060408701356139ff81613880565b9350613a0d606088016139ac565b92506080870135915061385b60a088016139ac565b634e487b7160e01b600052604160045260246000fd5b604051601f8201601f191681016001600160401b0381118282101715613a6057613a60613a22565b604052919050565b60006001600160401b03821115613a8157613a81613a22565b50601f01601f191660200190565b600082601f830112613aa057600080fd5b8135613ab3613aae82613a68565b613a38565b818152846020838601011115613ac857600080fd5b816020850160208301376000918101602001919091529392505050565b60008060408385031215613af857600080fd5b8235613b0381613880565b915060208301356001600160401b03811115613b1e57600080fd5b613b2a85828601613a8f565b9150509250929050565b60008060408385031215613b4757600080fd5b613b5083613736565b946020939093013593505050565b60008060008060008060a08789031215613b7757600080fd5b613b8087613736565b95506020613b8f818901613747565b95506040880135945060608801356001600160401b0380821115613bb257600080fd5b613bbe8b838c0161379a565b909650945060808a0135915080821115613bd757600080fd5b818a0191508a601f830112613beb57600080fd5b813581811115613bfd57613bfd613a22565b8060051b613c0c858201613a38565b918252838101850191858101908e841115613c2657600080fd5b86860192505b83831015613c60578483351115613c4257600080fd5b613c518f888535890101613a8f565b82529186019190860190613c2c565b809750505050505050509295509295509295565b60008060008060008060808789031215613c8d57600080fd5b613c9687613736565b95506020870135945060408701356001600160401b0380821115613cb957600080fd5b613cc58a838b0161379a565b90965094506060890135915080821115613cde57600080fd5b50613ceb89828a0161379a565b979a9699509497509295939492505050565b600080600060608486031215613d1257600080fd5b83356001600160481b0381168114613d2957600080fd5b9250602084013591506040840135613d4081613880565b809150509250925092565b600080600060608486031215613d6057600080fd5b833592506020840135613d7281613880565b9150613d80604085016137db565b90509250925092565b60008060408385031215613d9c57600080fd5b8235613da781613880565b915060208301356138ba81613880565b60008060408385031215613dca57600080fd5b50508035926020909101359150565b600080600080600060808688031215613df157600080fd5b613dfa86613736565b9450613e0860208701613747565b93506040860135925060608601356001600160401b03811115613e2a57600080fd5b613e368882890161379a565b969995985093965092949392505050565b634e487b7160e01b600052602160045260246000fd5b60058110613e7b57634e487b7160e01b600052602160045260246000fd5b9052565b6000608082019050613e92828451613e5d565b60018060c81b03602084015116602083015260ff604084015116604083015264ffffffffff606084015116606083015292915050565b600080600060608486031215613edd57600080fd5b8335613d2981613880565b60008060408385031215613efb57600080fd5b8235613f0681613880565b9150613f14602084016137db565b90509250929050565b60008060408385031215613f3057600080fd5b613f3983613736565b9150613f1460208401613747565b600080600080600080600060a0888a031215613f6257600080fd5b613f6b88613736565b9650613f7960208901613747565b95506040880135945060608801356001600160401b0380821115613f9c57600080fd5b613fa88b838c0161379a565b909650945060808a0135915080821115613fc157600080fd5b50613fce8a828b0161379a565b989b979a50959850939692959293505050565b60ff851681526001600160401b0384166020820152608081016140076040830185613e5d565b82606083015295945050505050565b8481526bffffffffffffffffffffffff198460601b16602082015281836034830137600091016034019081529392505050565b81835281816020850137506000828201602090810191909152601f909101601f19169091010190565b838152604060208201526000613183604083018486614049565b60005b838110156140a757818101518382015260200161408f565b838111156140b6576000848401525b50505050565b600081518084526140d481602086016020860161408c565b601f01601f19169290920160200192915050565b602081526000611bad60208301846140bc565b634e487b7160e01b600052603260045260246000fd5b634e487b7160e01b600052601160045260246000fd5b600060001982141561413b5761413b614111565b5060010190565b8183823760009101908152919050565b600060ff821660ff81141561416957614169614111565b60010192915050565b60208082526023908201527f70726f706f73616c20616c72656164792065786563757465642f63616e63656c6040820152621b195960ea1b606082015260800190565b60008160001904831182151516156141cf576141cf614111565b500290565b600082198211156141e7576141e7614111565b500190565b6000828210156141fe576141fe614111565b500390565b60006001600160401b038083168181141561422057614220614111565b6001019392505050565b8481526001600160a01b03841660208201526060604082018190526000906142559083018486614049565b9695505050505050565b60006020828403121561427157600080fd5b81516001600160401b0381111561428757600080fd5b8201601f8101841361429857600080fd5b80516142a6613aae82613a68565b8181528560208385010111156142bb57600080fd5b61318382602083016020860161408c565b60ff871681528560208201526001600160401b038516604082015260a0606082015260006142fe60a083018587614049565b828103608084015261431081856140bc565b9998505050505050505050565b634e487b7160e01b600052603160045260246000fdfe968626a768e76ba1363efe44e322a6c4900c5f084e0b45f35e294dfddaa9e0d5e2b7fb3b832174769106daebcfd6d1970523240dda11281102db9363b83b0dc4a264697066735822122045731a9d9a50befc44c70be00ced612f7ed5722bbc3d0a9347ae46bab690b1df64736f6c634300080b0033",
  "linkReferences": {},
  "deployedLinkReferences": {}
}