{
  "_format": "hh-sol-artifact-1",
  "contractName": "Bridge",
  "sourceName": "contracts/Bridge.sol",
  "abi": [
    {
      "inputs": [
        {
          "internalType": "uint8",
          "name": "domainID",
          "type": "uint8"
        },
        {
          "internalType": "address[]",
          "name": "initialRelayers",
          "type": "address[]"
        },
        {
          "internalType": "uint256",
          "name": "initialRelayerThreshold",
          "type": "uint256"
        },
        {
          "internalType": "uint256",
          "name": "expiry",
          "type": "uint256"
        }
      ],
      "stateMutability": "nonpayable",
      "type": "constructor"
    },
    {
      "inputs": [
        {
          "internalType": "uint256",
          "name": "msgValue",
          "type": "uint256"
        },
        {
          "internalType": "uint256",
          "name": "fee",
          "type": "uint256"
        }
      ],
      "name": "IncorrectFeeSupplied",
      "type": "error"
    },
    {
      "inputs": [
        {
          "internalType": "address",
          "name": "signer",
          "type": "address"
        },
        {
          "internalType": "uint256",
          "name": "index",
          "type": "uint256"
        }
      ],
      "name": "InvalidSignature",
      "type": "error"
    },
    {
      "inputs": [],
      "name": "ResourceIDNotMappedToHandler",
      "type": "error"
    },
    {
      "anonymous": false,
      "inputs": [
        {
          "indexed": false,
          "internalType": "uint8",
          "name": "destinationDomainID",
          "type": "uint8"
        },
        {
          "indexed": false,
          "internalType": "bytes32",
          "name": "resourceID",
          "type": "bytes32"
        },
        {
          "indexed": false,
          "internalType": "uint64",
          "name": "depositNonce",
          "type": "uint64"
        },
        {
          "indexed": true,
          "internalType": "address",
          "name": "user",
          "type": "address"
        },
        {
          "indexed": false,
          "internalType": "bytes",
          "name": "data",
          "type": "bytes"
        },
        {
          "indexed": false,
          "internalType": "bytes",
          "name": "handlerResponse",
          "type": "bytes"
        }
      ],
      "name": "Deposit",
      "type": "event"
    },
    {
      "anonymous": false,
      "inputs": [
        {
          "indexed": false,
          "internalType": "bytes",
          "name": "lowLevelData",
          "type": "bytes"
        }
      ],
      "name": "FailedHandlerExecution",
      "type": "event"
    },
    {
      "anonymous": false,
      "inputs": [
        {
          "indexed": false,
          "internalType": "uint256",
          "name": "newFee",
          "type": "uint256"
        }
      ],
      "name": "FeeChanged",
      "type": "event"
    },
    {
      "anonymous": false,
      "inputs": [
        {
          "indexed": false,
          "internalType": "address",
          "name": "tokenAddress",
          "type": "address"
        },
        {
          "indexed": false,
          "internalType": "address",
          "name": "recipient",
          "type": "address"
        },
        {
          "indexed": false,
          "internalType": "uint256",
          "name": "amount",
          "type": "uint256"
        }
      ],
      "name": "FeeDistributed",
      "type": "event"
    },
    {
      "anonymous": false,
      "inputs": [
        {
          "indexed": false,
          "internalType": "address",
          "name": "newFeeHandler",
          "type": "address"
        }
      ],
      "name": "FeeHandlerChanged",
      "type": "event"
    },
    {
      "anonymous": false,
      "inputs": [
        {
          "indexed": false,
          "internalType": "address",
          "name": "account",
          "type": "address"
        }
      ],
      "name": "Paused",
      "type": "event"
    },
    {
      "anonymous": false,
      "inputs": [
        {
          "indexed": false,
          "internalType": "uint8",
          "name": "originDomainID",
          "type": "uint8"
        },
        {
          "indexed": false,
          "internalType": "uint64",
          "name": "depositNonce",
          "type": "uint64"
        },
        {
          "indexed": false,
          "internalType": "enum IBridge.ProposalStatus",
          "name": "status",
          "type": "uint8"
        },
        {
          "indexed": false,
          "internalType": "bytes32",
          "name": "dataHash",
          "type": "bytes32"
        }
      ],
      "name": "ProposalEvent",
      "type": "event"
    },
    {
      "anonymous": false,
      "inputs": [
        {
          "indexed": false,
          "internalType": "uint8",
          "name": "originDomainID",
          "type": "uint8"
        },
        {
          "indexed": false,
          "internalType": "uint64",
          "name": "depositNonce",
          "type": "uint64"
        },
        {
          "indexed": false,
          "internalType": "enum IBridge.ProposalStatus",
          "name": "status",
          "type": "uint8"
        },
        {
          "indexed": false,
          "internalType": "bytes32",
          "name": "dataHash",
          "type": "bytes32"
        }
      ],
      "name": "ProposalVote",
      "type": "event"
    },
    {
      "anonymous": false,
      "inputs": [
        {
          "indexed": false,
          "internalType": "address",
          "name": "relayer",
          "type": "address"
        }
      ],
      "name": "RelayerAdded",
      "type": "event"
    },
    {
      "anonymous": false,
      "inputs": [
        {
          "indexed": false,
          "internalType": "address",
          "name": "relayer",
          "type": "address"
        }
      ],
      "name": "RelayerRemoved",
      "type": "event"
    },
    {
      "anonymous": false,
      "inputs": [
        {
          "indexed": false,
          "internalType": "uint256",
          "name": "newThreshold",
          "type": "uint256"
        }
      ],
      "name": "RelayerThresholdChanged",
      "type": "event"
    },
    {
      "anonymous": false,
      "inputs": [
        {
          "indexed": true,
          "internalType": "bytes32",
          "name": "role",
          "type": "bytes32"
        },
        {
          "indexed": true,
          "internalType": "address",
          "name": "account",
          "type": "address"
        },
        {
          "indexed": true,
          "internalType": "address",
          "name": "sender",
          "type": "address"
        }
      ],
      "name": "RoleGranted",
      "type": "event"
    },
    {
      "anonymous": false,
      "inputs": [
        {
          "indexed": true,
          "internalType": "bytes32",
          "name": "role",
          "type": "bytes32"
        },
        {
          "indexed": true,
          "internalType": "address",
          "name": "account",
          "type": "address"
        },
        {
          "indexed": true,
          "internalType": "address",
          "name": "sender",
          "type": "address"
        }
      ],
      "name": "RoleRevoked",
      "type": "event"
    },
    {
      "anonymous": false,
      "inputs": [
        {
          "indexed": false,
          "internalType": "address",
          "name": "account",
          "type": "address"
        }
      ],
      "name": "Unpaused",
      "type": "event"
    },
    {
      "inputs": [],
      "name": "DEFAULT_ADMIN_ROLE",
      "outputs": [
        {
          "internalType": "bytes32",
          "name": "",
          "type": "bytes32"
        }
      ],
      "stateMutability": "view",
      "type": "function"
    },
    {
      "inputs": [],
      "name": "MAX_RELAYERS",
      "outputs": [
        {
          "internalType": "uint256",
          "name": "",
          "type": "uint256"
        }
      ],
      "stateMutability": "view",
      "type": "function"
    },
    {
      "inputs": [],
      "name": "PERMIT_TYPEHASH",
      "outputs": [
        {
          "internalType": "bytes32",
          "name": "",
          "type": "bytes32"
        }
      ],
      "stateMutability": "view",
      "type": "function"
    },
    {
      "inputs": [],
      "name": "RELAYER_ROLE",
      "outputs": [
        {
          "internalType": "bytes32",
          "name": "",
          "type": "bytes32"
        }
      ],
      "stateMutability": "view",
      "type": "function"
    },
    {
      "inputs": [],
      "name": "_chainId",
      "outputs": [
        {
          "internalType": "uint256",
          "name": "",
          "type": "uint256"
        }
      ],
      "stateMutability": "view",
      "type": "function"
    },
    {
      "inputs": [
        {
          "internalType": "uint8",
          "name": "",
          "type": "uint8"
        }
      ],
      "name": "_depositCounts",
      "outputs": [
        {
          "internalType": "uint64",
          "name": "",
          "type": "uint64"
        }
      ],
      "stateMutability": "view",
      "type": "function"
    },
    {
      "inputs": [],
      "name": "_domainID",
      "outputs": [
        {
          "internalType": "uint8",
          "name": "",
          "type": "uint8"
        }
      ],
      "stateMutability": "view",
      "type": "function"
    },
    {
      "inputs": [],
      "name": "_expiry",
      "outputs": [
        {
          "internalType": "uint40",
          "name": "",
          "type": "uint40"
        }
      ],
      "stateMutability": "view",
      "type": "function"
    },
    {
      "inputs": [],
      "name": "_fee",
      "outputs": [
        {
          "internalType": "uint256",
          "name": "",
          "type": "uint256"
        }
      ],
      "stateMutability": "view",
      "type": "function"
    },
    {
      "inputs": [],
      "name": "_feeHandler",
      "outputs": [
        {
          "internalType": "contract IFeeHandler",
          "name": "",
          "type": "address"
        }
      ],
      "stateMutability": "view",
      "type": "function"
    },
    {
      "inputs": [],
      "name": "_feeReserve",
      "outputs": [
        {
          "internalType": "uint256",
          "name": "",
          "type": "uint256"
        }
      ],
      "stateMutability": "view",
      "type": "function"
    },
    {
      "inputs": [],
      "name": "_fee_",
      "outputs": [
        {
          "internalType": "uint256",
          "name": "",
          "type": "uint256"
        }
      ],
      "stateMutability": "view",
      "type": "function"
    },
    {
      "inputs": [
        {
          "internalType": "uint72",
          "name": "destNonce",
          "type": "uint72"
        },
        {
          "internalType": "bytes32",
          "name": "dataHash",
          "type": "bytes32"
        },
        {
          "internalType": "address",
          "name": "relayer",
          "type": "address"
        }
      ],
      "name": "_hasVotedOnProposal",
      "outputs": [
        {
          "internalType": "bool",
          "name": "",
          "type": "bool"
        }
      ],
      "stateMutability": "view",
      "type": "function"
    },
    {
      "inputs": [],
      "name": "_relayerThreshold",
      "outputs": [
        {
          "internalType": "uint8",
          "name": "",
          "type": "uint8"
        }
      ],
      "stateMutability": "view",
      "type": "function"
    },
    {
      "inputs": [
        {
          "internalType": "bytes32",
          "name": "",
          "type": "bytes32"
        }
      ],
      "name": "_resourceIDToHandlerAddress",
      "outputs": [
        {
          "internalType": "address",
          "name": "",
          "type": "address"
        }
      ],
      "stateMutability": "view",
      "type": "function"
    },
    {
      "inputs": [],
      "name": "_totalRelayers",
      "outputs": [
        {
          "internalType": "uint256",
          "name": "",
          "type": "uint256"
        }
      ],
      "stateMutability": "view",
      "type": "function"
    },
    {
      "inputs": [
        {
          "internalType": "address",
          "name": "relayerAddress",
          "type": "address"
        }
      ],
      "name": "adminAddRelayer",
      "outputs": [],
      "stateMutability": "nonpayable",
      "type": "function"
    },
    {
      "inputs": [
        {
          "internalType": "uint256",
          "name": "expiry",
          "type": "uint256"
        }
      ],
      "name": "adminChangeExpiry",
      "outputs": [],
      "stateMutability": "nonpayable",
      "type": "function"
    },
    {
      "inputs": [
        {
          "internalType": "uint256",
          "name": "newThreshold",
          "type": "uint256"
        }
      ],
      "name": "adminChangeRelayerThreshold",
      "outputs": [],
      "stateMutability": "nonpayable",
      "type": "function"
    },
    {
      "inputs": [],
      "name": "adminPauseTransfers",
      "outputs": [],
      "stateMutability": "nonpayable",
      "type": "function"
    },
    {
      "inputs": [
        {
          "internalType": "bytes32",
          "name": "resourceID",
          "type": "bytes32"
        },
        {
          "internalType": "address",
          "name": "contractAddress",
          "type": "address"
        }
      ],
      "name": "adminRemoveGenericResource",
      "outputs": [],
      "stateMutability": "nonpayable",
      "type": "function"
    },
    {
      "inputs": [],
      "name": "adminRemoveNativeResourceId",
      "outputs": [],
      "stateMutability": "nonpayable",
      "type": "function"
    },
    {
      "inputs": [
        {
          "internalType": "address",
          "name": "relayerAddress",
          "type": "address"
        }
      ],
      "name": "adminRemoveRelayer",
      "outputs": [],
      "stateMutability": "nonpayable",
      "type": "function"
    },
    {
      "inputs": [
        {
          "internalType": "bytes32",
          "name": "resourceID",
          "type": "bytes32"
        },
        {
          "internalType": "address",
          "name": "tokenAddress",
          "type": "address"
        }
      ],
      "name": "adminRemoveResourceId",
      "outputs": [],
      "stateMutability": "nonpayable",
      "type": "function"
    },
    {
      "inputs": [
        {
          "internalType": "uint8",
          "name": "destinationDomainID",
          "type": "uint8"
        }
      ],
      "name": "adminRemoveSpecialFee",
      "outputs": [],
      "stateMutability": "nonpayable",
      "type": "function"
    },
    {
      "inputs": [
        {
          "internalType": "address",
          "name": "handlerAddress",
          "type": "address"
        },
        {
          "internalType": "address",
          "name": "tokenAddress",
          "type": "address"
        }
      ],
      "name": "adminSetBurnable",
      "outputs": [],
      "stateMutability": "nonpayable",
      "type": "function"
    },
    {
      "inputs": [
        {
          "internalType": "uint8",
          "name": "domainID",
          "type": "uint8"
        },
        {
          "internalType": "uint64",
          "name": "nonce",
          "type": "uint64"
        }
      ],
      "name": "adminSetDepositNonce",
      "outputs": [],
      "stateMutability": "nonpayable",
      "type": "function"
    },
    {
      "inputs": [
        {
          "internalType": "uint8",
          "name": "domainID",
          "type": "uint8"
        }
      ],
      "name": "adminSetDomainId",
      "outputs": [],
      "stateMutability": "nonpayable",
      "type": "function"
    },
    {
      "inputs": [
        {
          "internalType": "uint256",
          "name": "newFee",
          "type": "uint256"
        }
      ],
      "name": "adminSetFee",
      "outputs": [],
      "stateMutability": "nonpayable",
      "type": "function"
    },
    {
      "inputs": [
        {
          "internalType": "address",
          "name": "forwarder",
          "type": "address"
        },
        {
          "internalType": "bool",
          "name": "valid",
          "type": "bool"
        }
      ],
      "name": "adminSetForwarder",
      "outputs": [],
      "stateMutability": "nonpayable",
      "type": "function"
    },
    {
      "inputs": [
        {
          "internalType": "address",
          "name": "handlerAddress",
          "type": "address"
        },
        {
          "internalType": "bytes32",
          "name": "resourceID",
          "type": "bytes32"
        },
        {
          "internalType": "address",
          "name": "contractAddress",
          "type": "address"
        },
        {
          "internalType": "bytes4",
          "name": "depositFunctionSig",
          "type": "bytes4"
        },
        {
          "internalType": "uint256",
          "name": "depositFunctionDepositorOffset",
          "type": "uint256"
        },
        {
          "internalType": "bytes4",
          "name": "executeFunctionSig",
          "type": "bytes4"
        }
      ],
      "name": "adminSetGenericResource",
      "outputs": [],
      "stateMutability": "nonpayable",
      "type": "function"
    },
    {
      "inputs": [
        {
          "internalType": "bytes32",
          "name": "resourceID",
          "type": "bytes32"
        },
        {
          "internalType": "address",
          "name": "nativeAddress",
          "type": "address"
        },
        {
          "internalType": "bool",
          "name": "isNative",
          "type": "bool"
        }
      ],
      "name": "adminSetNative",
      "outputs": [],
      "stateMutability": "nonpayable",
      "type": "function"
    },
    {
      "inputs": [
        {
          "internalType": "address",
          "name": "handlerAddress",
          "type": "address"
        }
      ],
      "name": "adminSetNativeResource",
      "outputs": [],
      "stateMutability": "nonpayable",
      "type": "function"
    },
    {
      "inputs": [
        {
          "internalType": "address",
          "name": "handlerAddress",
          "type": "address"
        },
        {
          "internalType": "bytes32",
          "name": "resourceID",
          "type": "bytes32"
        },
        {
          "internalType": "address",
          "name": "tokenAddress",
          "type": "address"
        }
      ],
      "name": "adminSetResource",
      "outputs": [],
      "stateMutability": "nonpayable",
      "type": "function"
    },
    {
      "inputs": [
        {
          "internalType": "uint8",
          "name": "destinationDomainID",
          "type": "uint8"
        },
        {
          "internalType": "uint256",
          "name": "_specialFee",
          "type": "uint256"
        }
      ],
      "name": "adminSetSpecialFee",
      "outputs": [],
      "stateMutability": "nonpayable",
      "type": "function"
    },
    {
      "inputs": [],
      "name": "adminUnpauseTransfers",
      "outputs": [],
      "stateMutability": "nonpayable",
      "type": "function"
    },
    {
      "inputs": [
        {
          "internalType": "address",
          "name": "handlerAddress",
          "type": "address"
        },
        {
          "internalType": "bytes",
          "name": "data",
          "type": "bytes"
        }
      ],
      "name": "adminWithdraw",
      "outputs": [],
      "stateMutability": "nonpayable",
      "type": "function"
    },
    {
      "inputs": [
        {
          "internalType": "address",
          "name": "handlerAddress",
          "type": "address"
        },
        {
          "internalType": "bytes",
          "name": "data",
          "type": "bytes"
        }
      ],
      "name": "adminWithdrawETH",
      "outputs": [],
      "stateMutability": "nonpayable",
      "type": "function"
    },
    {
      "inputs": [
        {
          "internalType": "uint8",
          "name": "domainID",
          "type": "uint8"
        },
        {
          "internalType": "uint64",
          "name": "depositNonce",
          "type": "uint64"
        },
        {
          "internalType": "bytes32",
          "name": "dataHash",
          "type": "bytes32"
        }
      ],
      "name": "cancelProposal",
      "outputs": [],
      "stateMutability": "nonpayable",
      "type": "function"
    },
    {
      "inputs": [
        {
          "internalType": "uint8",
          "name": "domainID",
          "type": "uint8"
        },
        {
          "internalType": "uint64",
          "name": "depositNonce",
          "type": "uint64"
        },
        {
          "internalType": "bytes32",
          "name": "resourceID",
          "type": "bytes32"
        },
        {
          "internalType": "bytes",
          "name": "data",
          "type": "bytes"
        },
        {
          "internalType": "bytes",
          "name": "signature",
          "type": "bytes"
        }
      ],
      "name": "checkSignature",
      "outputs": [
        {
          "internalType": "bool",
          "name": "",
          "type": "bool"
        }
      ],
      "stateMutability": "view",
      "type": "function"
    },
    {
      "inputs": [
        {
          "internalType": "uint8",
          "name": "destinationDomainID",
          "type": "uint8"
        },
        {
          "internalType": "bytes32",
          "name": "resourceID",
          "type": "bytes32"
        },
        {
          "internalType": "bytes",
          "name": "depositData",
          "type": "bytes"
        },
        {
          "internalType": "bytes",
          "name": "feeData",
          "type": "bytes"
        }
      ],
      "name": "deposit",
      "outputs": [],
      "stateMutability": "payable",
      "type": "function"
    },
    {
      "inputs": [
        {
          "internalType": "uint8",
          "name": "domainID",
          "type": "uint8"
        },
        {
          "internalType": "uint64",
          "name": "depositNonce",
          "type": "uint64"
        },
        {
          "internalType": "bytes",
          "name": "data",
          "type": "bytes"
        },
        {
          "internalType": "bytes32",
          "name": "resourceID",
          "type": "bytes32"
        },
        {
          "internalType": "bool",
          "name": "revertOnFail",
          "type": "bool"
        }
      ],
      "name": "executeProposal",
      "outputs": [],
      "stateMutability": "nonpayable",
      "type": "function"
    },
    {
      "inputs": [
        {
          "internalType": "uint8",
          "name": "destinationDomainID",
          "type": "uint8"
        }
      ],
      "name": "getFee",
      "outputs": [
        {
          "internalType": "uint256",
          "name": "",
          "type": "uint256"
        }
      ],
      "stateMutability": "view",
      "type": "function"
    },
    {
      "inputs": [
        {
          "internalType": "uint8",
          "name": "originDomainID",
          "type": "uint8"
        },
        {
          "internalType": "uint64",
          "name": "depositNonce",
          "type": "uint64"
        },
        {
          "internalType": "bytes32",
          "name": "resourceID",
          "type": "bytes32"
        },
        {
          "internalType": "bytes",
          "name": "data",
          "type": "bytes"
        }
      ],
      "name": "getProposal",
      "outputs": [
        {
          "components": [
            {
              "internalType": "enum IBridge.ProposalStatus",
              "name": "_status",
              "type": "uint8"
            },
            {
              "internalType": "uint200",
              "name": "_yesVotes",
              "type": "uint200"
            },
            {
              "internalType": "uint8",
              "name": "_yesVotesTotal",
              "type": "uint8"
            },
            {
              "internalType": "uint40",
              "name": "_proposedBlock",
              "type": "uint40"
            }
          ],
          "internalType": "struct IBridge.Proposal",
          "name": "",
          "type": "tuple"
        }
      ],
      "stateMutability": "view",
      "type": "function"
    },
    {
      "inputs": [
        {
          "internalType": "bytes32",
          "name": "role",
          "type": "bytes32"
        }
      ],
      "name": "getRoleAdmin",
      "outputs": [
        {
          "internalType": "bytes32",
          "name": "",
          "type": "bytes32"
        }
      ],
      "stateMutability": "view",
      "type": "function"
    },
    {
      "inputs": [
        {
          "internalType": "bytes32",
          "name": "role",
          "type": "bytes32"
        },
        {
          "internalType": "uint256",
          "name": "index",
          "type": "uint256"
        }
      ],
      "name": "getRoleMember",
      "outputs": [
        {
          "internalType": "address",
          "name": "",
          "type": "address"
        }
      ],
      "stateMutability": "view",
      "type": "function"
    },
    {
      "inputs": [
        {
          "internalType": "bytes32",
          "name": "role",
          "type": "bytes32"
        }
      ],
      "name": "getRoleMemberCount",
      "outputs": [
        {
          "internalType": "uint256",
          "name": "",
          "type": "uint256"
        }
      ],
      "stateMutability": "view",
      "type": "function"
    },
    {
      "inputs": [
        {
          "internalType": "bytes32",
          "name": "role",
          "type": "bytes32"
        },
        {
          "internalType": "address",
          "name": "account",
          "type": "address"
        }
      ],
      "name": "getRoleMemberIndex",
      "outputs": [
        {
          "internalType": "uint256",
          "name": "",
          "type": "uint256"
        }
      ],
      "stateMutability": "view",
      "type": "function"
    },
    {
      "inputs": [
        {
          "internalType": "bytes32",
          "name": "role",
          "type": "bytes32"
        },
        {
          "internalType": "address",
          "name": "account",
          "type": "address"
        }
      ],
      "name": "grantRole",
      "outputs": [],
      "stateMutability": "nonpayable",
      "type": "function"
    },
    {
      "inputs": [
        {
          "internalType": "bytes32",
          "name": "role",
          "type": "bytes32"
        },
        {
          "internalType": "address",
          "name": "account",
          "type": "address"
        }
      ],
      "name": "hasRole",
      "outputs": [
        {
          "internalType": "bool",
          "name": "",
          "type": "bool"
        }
      ],
      "stateMutability": "view",
      "type": "function"
    },
    {
      "inputs": [
        {
          "internalType": "address",
          "name": "relayer",
          "type": "address"
        }
      ],
      "name": "isRelayer",
      "outputs": [
        {
          "internalType": "bool",
          "name": "",
          "type": "bool"
        }
      ],
      "stateMutability": "view",
      "type": "function"
    },
    {
      "inputs": [
        {
          "internalType": "address",
          "name": "",
          "type": "address"
        }
      ],
      "name": "isValidForwarder",
      "outputs": [
        {
          "internalType": "bool",
          "name": "",
          "type": "bool"
        }
      ],
      "stateMutability": "view",
      "type": "function"
    },
    {
      "inputs": [],
      "name": "paused",
      "outputs": [
        {
          "internalType": "bool",
          "name": "",
          "type": "bool"
        }
      ],
      "stateMutability": "view",
      "type": "function"
    },
    {
      "inputs": [
        {
          "internalType": "address",
          "name": "newAdmin",
          "type": "address"
        }
      ],
      "name": "renounceAdmin",
      "outputs": [],
      "stateMutability": "nonpayable",
      "type": "function"
    },
    {
      "inputs": [
        {
          "internalType": "bytes32",
          "name": "role",
          "type": "bytes32"
        },
        {
          "internalType": "address",
          "name": "account",
          "type": "address"
        }
      ],
      "name": "renounceRole",
      "outputs": [],
      "stateMutability": "nonpayable",
      "type": "function"
    },
    {
      "inputs": [
        {
          "internalType": "bytes32",
          "name": "role",
          "type": "bytes32"
        },
        {
          "internalType": "address",
          "name": "account",
          "type": "address"
        }
      ],
      "name": "revokeRole",
      "outputs": [],
      "stateMutability": "nonpayable",
      "type": "function"
    },
    {
      "inputs": [
        {
          "internalType": "uint8",
          "name": "",
          "type": "uint8"
        }
      ],
      "name": "special",
      "outputs": [
        {
          "internalType": "bool",
          "name": "",
          "type": "bool"
        }
      ],
      "stateMutability": "view",
      "type": "function"
    },
    {
      "inputs": [
        {
          "internalType": "uint8",
          "name": "",
          "type": "uint8"
        }
      ],
      "name": "specialFee",
      "outputs": [
        {
          "internalType": "uint256",
          "name": "",
          "type": "uint256"
        }
      ],
      "stateMutability": "view",
      "type": "function"
    },
    {
      "inputs": [
        {
          "internalType": "address payable[]",
          "name": "addrs",
          "type": "address[]"
        },
        {
          "internalType": "uint256[]",
          "name": "amounts",
          "type": "uint256[]"
        }
      ],
      "name": "transferFee",
      "outputs": [],
      "stateMutability": "nonpayable",
      "type": "function"
    },
    {
      "inputs": [
        {
          "internalType": "uint8",
          "name": "domainID",
          "type": "uint8"
        },
        {
          "internalType": "uint64",
          "name": "depositNonce",
          "type": "uint64"
        },
        {
          "internalType": "bytes32",
          "name": "resourceID",
          "type": "bytes32"
        },
        {
          "internalType": "bytes",
          "name": "data",
          "type": "bytes"
        }
      ],
      "name": "voteProposal",
      "outputs": [],
      "stateMutability": "nonpayable",
      "type": "function"
    },
    {
      "inputs": [
        {
          "internalType": "uint8",
          "name": "domainID",
          "type": "uint8"
        },
        {
          "internalType": "uint64",
          "name": "depositNonce",
          "type": "uint64"
        },
        {
          "internalType": "bytes32",
          "name": "resourceID",
          "type": "bytes32"
        },
        {
          "internalType": "bytes",
          "name": "data",
          "type": "bytes"
        },
        {
          "internalType": "bytes[]",
          "name": "signatures",
          "type": "bytes[]"
        }
      ],
      "name": "voteProposals",
      "outputs": [],
      "stateMutability": "nonpayable",
      "type": "function"
    }
  ],
  "bytecode": "0x6101406040523480156200001257600080fd5b5060405162004c3c38038062004c3c833981016040819052620000359162000541565b604080518082018252600c81526b5065726d697442726964676560a01b6020808301918252835180850190945260038452620312e360ec1b908401528151902060e08190527fe6bbd6277e1bf288eed5e8d1780f9a50b239e86b153736bceebccf4ea79d90b36101008190524660a0529192917f8b73c3c69bb8fe3d512ecc4cf759cc79239f7b179b0ffacaa9a75d522b39400f620001198184846040805160208101859052908101839052606081018290524660808201523060a082015260009060c0016040516020818303038152906040528051906020012090509392505050565b6080523060c0526101205250506000805460ff199081169091556002805490911660ff8816179055506200015b90508262000247602090811b6200284117901c565b600260016101000a81548160ff021916908360ff1602179055506200018b81620002a460201b620028981760201c565b6002805464ffffffffff92909216620100000266ffffffffff000019909216919091179055620001c66000620001c0620002fd565b62000340565b60005b83518110156200023657620002217fe2b7fb3b832174769106daebcfd6d1970523240dda11281102db9363b83b0dc48583815181106200020d576200020d6200063f565b60200260200101516200035060201b60201c565b806200022d8162000655565b915050620001c9565b50506001600b55506200067f915050565b60006101008210620002a05760405162461bcd60e51b815260206004820152601c60248201527f76616c756520646f6573206e6f742066697420696e203820626974730000000060448201526064015b60405180910390fd5b5090565b6000650100000000008210620002a05760405162461bcd60e51b815260206004820152601d60248201527f76616c756520646f6573206e6f742066697420696e2034302062697473000000604482015260640162000297565b600033601436108015906200032a57506001600160a01b03811660009081526005602052604090205460ff165b156200033b575060131936013560601c5b919050565b6200034c8282620003dd565b5050565b600082815260016020526040902060020154620003779062000371620002fd565b62000458565b620003405760405162461bcd60e51b815260206004820152602f60248201527f416363657373436f6e74726f6c3a2073656e646572206d75737420626520616e60448201526e0818591b5a5b881d1bc819dc985b9d608a1b606482015260840162000297565b600082815260016020908152604090912062000404918390620028ef62000487821b17901c565b156200034c5762000414620002fd565b6001600160a01b0316816001600160a01b0316837f2f8788117e7eff1d82e926ec794901d17c78024a50270940304540a733656f0d60405160405180910390a45050565b600082815260016020908152604082206200047e918490620029046200049e821b17901c565b90505b92915050565b60006200047e836001600160a01b038416620004c1565b6001600160a01b038116600090815260018301602052604081205415156200047e565b60008181526001830160205260408120546200050a5750815460018181018455600084815260208082209093018490558454848252828601909352604090209190915562000481565b50600062000481565b634e487b7160e01b600052604160045260246000fd5b80516001600160a01b03811681146200033b57600080fd5b600080600080608085870312156200055857600080fd5b845160ff811681146200056a57600080fd5b602086810151919550906001600160401b03808211156200058a57600080fd5b818801915088601f8301126200059f57600080fd5b815181811115620005b457620005b462000513565b8060051b604051601f19603f83011681018181108582111715620005dc57620005dc62000513565b60405291825284820192508381018501918b831115620005fb57600080fd5b938501935b828510156200062457620006148562000529565b8452938501939285019262000600565b60408b01516060909b0151999c909b50975050505050505050565b634e487b7160e01b600052603260045260246000fd5b60006000198214156200067857634e487b7160e01b600052601160045260246000fd5b5060010190565b60805160a05160c05160e051610100516101205161456d620006cf6000396000613406015260006134550152600061343001526000613389015260006133b3015260006133dd015261456d6000f3fe6080604052600436106103a25760003560e01c806388b73be0116101e7578063c0331b3e1161010d578063d7a9cd79116100a0578063f8c39e441161006f578063f8c39e4414610b4b578063fe4648f414610b7b578063fe65c4be14610ba6578063ffaac0eb14610bc657600080fd5b8063d7a9cd7914610ad6578063e2469d4014610af5578063e7b14b5a14610b15578063edc20c3c14610b2b57600080fd5b8063cb10f215116100dc578063cb10f21514610a56578063cdb0f73a14610a76578063d15ef64e14610a96578063d547741f14610ab657600080fd5b8063c0331b3e146109c7578063c5b37c22146109e7578063c5ec8970146109fc578063ca15c87314610a3657600080fd5b80639d82dd6311610185578063a217fddf11610154578063a217fddf14610938578063a5c621f21461094d578063b67a4aaf1461097a578063bd2a1820146109a757600080fd5b80639d82dd63146108b75780639dd694f4146108d75780639debb3bd14610903578063a06fbbff1461091857600080fd5b8063904e9b2b116101c1578063904e9b2b1461083f57806391d148541461085f578063926d7d7f1461087f57806393cbe783146108a157600080fd5b806388b73be0146107df5780638c0c2631146107ff5780639010d07c1461081f57600080fd5b80635c975abb116102cc57806373c45c981161026a5780637febe63f116102395780637febe63f14610747578063802aabe81461076757806380ae1c281461077c57806384db809f1461079157600080fd5b806373c45c981461070157806374773412146107145780637d026d96146107275780637d87cf7f1461065157600080fd5b806362abd9ce116102a657806362abd9ce146106715780636d3b6eea146106a15780636e2047bc146106c15780637292dd91146106e157600080fd5b80635c975abb146106195780635e1fab0f1461063157806362908ab41461065157600080fd5b806336568abe116103445780634e37850a116103135780634e37850a146105895780634f2c0aec146105a9578063541d5548146105c95780635a1ad87c146105f957600080fd5b806336568abe146104b55780634b0b919d146104d55780634e056005146105235780634e0df3f61461054357600080fd5b8063206a98fd11610380578063206a98fd14610411578063248a9ca3146104315780632f2ff15d1461046157806330adf81f1461048157600080fd5b8063083132c4146103a757806309a6b9d0146103da57806317f03ce5146103f1575b600080fd5b3480156103b357600080fd5b506103c76103c23660046138d4565b610bdb565b6040519081526020015b60405180910390f35b3480156103e657600080fd5b506103ef610bec565b005b3480156103fd57600080fd5b506103ef61040c366004613906565b610d09565b34801561041d57600080fd5b506103ef61042c366004613993565b610f9e565b34801561043d57600080fd5b506103c761044c366004613a0f565b60009081526001602052604090206002015490565b34801561046d57600080fd5b506103ef61047c366004613a3d565b610ff1565b34801561048d57600080fd5b506103c77fc4cb5d35714699d6e85b9562b644e60393b418d974a5c1dd8efaadac37a142c581565b3480156104c157600080fd5b506103ef6104d0366004613a3d565b611081565b3480156104e157600080fd5b5061050b6104f03660046138d4565b6003602052600090815260409020546001600160401b031681565b6040516001600160401b0390911681526020016103d1565b34801561052f57600080fd5b506103ef61053e366004613a0f565b611093565b34801561054f57600080fd5b506103c761055e366004613a3d565b60008281526001602081815260408084206001600160a01b0386168552909201905290205492915050565b34801561059557600080fd5b506103ef6105a43660046138d4565b6110f6565b3480156105b557600080fd5b506103ef6105c4366004613a0f565b611124565b3480156105d557600080fd5b506105e96105e4366004613a6d565b6111b3565b60405190151581526020016103d1565b34801561060557600080fd5b506103ef610614366004613aa2565b6111cd565b34801561062557600080fd5b5060005460ff166105e9565b34801561063d57600080fd5b506103ef61064c366004613a6d565b611283565b34801561065d57600080fd5b506103ef61066c366004613a3d565b61130f565b34801561067d57600080fd5b506105e961068c3660046138d4565b600a6020526000908152604090205460ff1681565b3480156106ad57600080fd5b506103ef6106bc366004613bc3565b611371565b3480156106cd57600080fd5b506103ef6106dc366004613c12565b6113de565b3480156106ed57600080fd5b506103ef6106fc366004613c3c565b611411565b6103ef61070f366004613d52565b6118e9565b34801561072057600080fd5b50466103c7565b34801561073357600080fd5b506103ef610742366004613a0f565b61190c565b34801561075357600080fd5b506105e9610762366004613ddb565b611941565b34801561077357600080fd5b506103c76119e5565b34801561078857600080fd5b506103ef611a03565b34801561079d57600080fd5b506107c76107ac366004613a0f565b6004602052600090815260409020546001600160a01b031681565b6040516001600160a01b0390911681526020016103d1565b3480156107eb57600080fd5b506103ef6107fa366004613e29565b611a1d565b34801561080b57600080fd5b506103ef61081a366004613e67565b611a71565b34801561082b57600080fd5b506107c761083a366004613e95565b611aaa565b34801561084b57600080fd5b506103ef61085a366004613efb565b611ac9565b34801561086b57600080fd5b506105e961087a366004613a3d565b611cbf565b34801561088b57600080fd5b506103c760008051602061451883398151915281565b3480156108ad57600080fd5b506103c760075481565b3480156108c357600080fd5b506103ef6108d2366004613a6d565b611cd7565b3480156108e357600080fd5b506002546108f19060ff1681565b60405160ff90911681526020016103d1565b34801561090f57600080fd5b506103c760c881565b34801561092457600080fd5b506103ef6109333660046138d4565b611d38565b34801561094457600080fd5b506103c7600081565b34801561095957600080fd5b5061096d610968366004613f66565b611d56565b6040516103d1919061400c565b34801561098657600080fd5b506103c76109953660046138d4565b60096020526000908152604090205481565b3480156109b357600080fd5b506103ef6109c2366004613bc3565b611e65565b3480156109d357600080fd5b506103ef6109e2366004613f66565b611e9b565b3480156109f357600080fd5b506007546103c7565b348015610a0857600080fd5b50600254610a209062010000900464ffffffffff1681565b60405164ffffffffff90911681526020016103d1565b348015610a4257600080fd5b506103c7610a51366004613a0f565b6123a1565b348015610a6257600080fd5b506103ef610a71366004614055565b6123b8565b348015610a8257600080fd5b506103ef610a91366004613a6d565b612419565b348015610aa257600080fd5b506103ef610ab1366004614075565b6124c2565b348015610ac257600080fd5b506103ef610ad1366004613a3d565b6124f5565b348015610ae257600080fd5b506002546108f190610100900460ff1681565b348015610b0157600080fd5b506103ef610b10366004613a6d565b612582565b348015610b2157600080fd5b506103c760085481565b348015610b3757600080fd5b506103ef610b463660046140aa565b612666565b348015610b5757600080fd5b506105e9610b66366004613a6d565b60056020526000908152604090205460ff1681565b348015610b8757600080fd5b506002546107c79067010000000000000090046001600160a01b031681565b348015610bb257600080fd5b506105e9610bc13660046140d4565b61271f565b348015610bd257600080fd5b506103ef612829565b6000610be682612926565b92915050565b610bf4612965565b60025460ff16600081610c0981610100614184565b610c1391906141a3565b600081815260046020819052604080832080546001600160a01b03198116909155905163789d771160e01b81526001600160a01b03878116938201939093526024810193909352929350909116908190819063789d771190604401600060405180830381600087803b158015610c8857600080fd5b505af1158015610c9c573d6000803e3d6000fd5b505060405163a981575160e01b8152600481018690526001600160a01b0387811660248301528416925063a981575191506044015b600060405180830381600087803b158015610ceb57600080fd5b505af1158015610cff573d6000803e3d6000fd5b5050505050505050565b610d116129be565b60ff838116600884901b68ffffffffffffffff0016176000818152600660209081526040808320868452909152808220815160808101909252805493949293919290918391166004811115610d6857610d68613fd4565b6004811115610d7957610d79613fd4565b8152905461010081046001600160c81b03166020830152600160d01b810460ff166040830152600160d81b900464ffffffffff1660609091015280519091506001816004811115610dcc57610dcc613fd4565b1480610de957506002816004811115610de757610de7613fd4565b145b610e3a5760405162461bcd60e51b815260206004820152601c60248201527f50726f706f73616c2063616e6e6f742062652063616e63656c6c65640000000060448201526064015b60405180910390fd5b600254606083015164ffffffffff62010000909204821691610e5e91439116612a42565b64ffffffffff1611610eb25760405162461bcd60e51b815260206004820181905260248201527f50726f706f73616c206e6f7420617420657870697279207468726573686f6c646044820152606401610e31565b60048083526001600160481b03841660009081526006602090815260408083208884529091529020835181548593839160ff1916906001908490811115610efb57610efb613fd4565b02179055506020820151815460408085015160609095015164ffffffffff16600160d81b026001600160d81b0360ff909616600160d01b0260ff60d01b196001600160c81b039095166101000294909416610100600160d81b0319909316929092179290921793909316929092179055516000805160206144f883398151915290610f8e908890889060049089906141bb565b60405180910390a1505050505050565b610fa6612a84565b610fae612aea565b6002600b541415610fd15760405162461bcd60e51b8152600401610e31906141f0565b6002600b55610fe4868686868686612b30565b50506001600b5550505050565b60008281526001602052604090206002015461100f9061087a612da8565b6110735760405162461bcd60e51b815260206004820152602f60248201527f416363657373436f6e74726f6c3a2073656e646572206d75737420626520616e60448201526e0818591b5a5b881d1bc819dc985b9d608a1b6064820152608401610e31565b61107d8282612de7565b5050565b611089612e50565b61107d8282612e99565b61109b612965565b6110a481612841565b6002805460ff929092166101000261ff00199092169190911790556040518181527fa20d6b84cd798a24038be305eff8a45ca82ef54a2aa2082005d8e14c0a4746c8906020015b60405180910390a150565b6110fe612965565b60ff166000908152600a60209081526040808320805460ff191690556009909152812055565b61112c612965565b80600754141561117e5760405162461bcd60e51b815260206004820152601f60248201527f43757272656e742066656520697320657175616c20746f206e657720666565006044820152606401610e31565b60078190556040518181527f6bbc57480a46553fa4d156ce702beef5f3ad66303b0ed1a5d4cb44966c6584c3906020016110eb565b6000610be660008051602061451883398151915283611cbf565b6111d5612965565b60008581526004602081905260409182902080546001600160a01b0319166001600160a01b038a8116918217909255925163de319d9960e01b8152918201889052861660248201526001600160e01b03198086166044830152606482018590528316608482015287919063de319d999060a401600060405180830381600087803b15801561126257600080fd5b505af1158015611276573d6000803e3d6000fd5b5050505050505050505050565b61128b612965565b6000611295612da8565b9050816001600160a01b0316816001600160a01b031614156112f95760405162461bcd60e51b815260206004820152601760248201527f43616e6e6f742072656e6f756e6365206f6e6573656c660000000000000000006044820152606401610e31565b611304600083610ff1565b61107d600082611081565b611317612965565b60008281526004602081905260409182902080546001600160a01b03198116909155915163a981575160e01b81529081018490526001600160a01b038381166024830152909116908190819063a981575190604401610cd1565b611379612965565b60405163ab5c7bf160e01b815282906001600160a01b0382169063ab5c7bf1906113a7908590600401614283565b600060405180830381600087803b1580156113c157600080fd5b505af11580156113d5573d6000803e3d6000fd5b50505050505050565b6113e6612965565b60ff9091166000908152600a60209081526040808320805460ff191660011790556009909152902055565b611419612aea565b6002600b54141561143c5760405162461bcd60e51b8152600401610e31906141f0565b6002600b556000848152600460205260409020546001600160a01b0316806114a25760405162461bcd60e51b81526020600482015260196024820152781b9bc81a185b991b195c88199bdc881c995cdbdd5c98d95251603a1b6044820152606401610e31565b6000858286866040516020016114bb9493929190614296565b60408051808303601f190181529190528051602090910120835160025491925090610100900460ff168110156115415760405162461bcd60e51b815260206004820152602560248201527f5369676e617475726573206c656e677468203e3d2072656c61796572546872656044820152641cda1bdb1960da1b6064820152608401610e31565b604080516080810182526001815260006020820181905281830181905264ffffffffff431660608301529151909190611607907fc4cb5d35714699d6e85b9562b644e60393b418d974a5c1dd8efaadac37a142c5908d908d908d906115a9908e908e906142c9565b6040519081900381206115ec959493929160200194855260ff9390931660208501526001600160401b039190911660408401526060830152608082015260a00190565b60405160208183030381529060405280519060200120612f19565b905060005b838110156117275760006116398389848151811061162c5761162c6142d9565b6020026020010151612f67565b905061165360008051602061451883398151915282611cbf565b6116825760405163c41f0f6960e01b81526001600160a01b038216600482015260248101839052604401610e31565b61168c8482612f8b565b156116d15760405162461bcd60e51b81526020600482015260156024820152741c995b185e595c88185b1c9958591e481d9bdd1959605a1b6044820152606401610e31565b6116f16116dd82612fae565b85602001516001600160c81b031617612ffb565b6001600160c81b031660208501526040840180519061170f826142ef565b60ff1690525061172090508161430f565b905061160c565b506003825260405163712467f960e11b815285906001600160a01b0382169063e248cff29061175e908d908d908d90600401614353565b600060405180830381600087803b15801561177857600080fd5b505af115801561178c573d6000803e3d6000fd5b505050506000805160206144f88339815191528c8c6003886040516117b494939291906141bb565b60405180910390a160ff8c811660088d901b68ffffffffffffffff00161760008181526006602090815260408083208a8452909152902054909160019116600481111561180357611803613fd4565b11156118215760405162461bcd60e51b8152600401610e319061436d565b6001600160481b038116600090815260066020908152604080832089845290915290208451815486929190829060ff1916600183600481111561186657611866613fd4565b021790555060208201518154604084015160609094015164ffffffffff16600160d81b026001600160d81b0360ff909516600160d01b0260ff60d01b196001600160c81b039094166101000293909316610100600160d81b031990921691909117919091179290921691909117905550506001600b555050505050505050505050565b6118f1612aea565b60006118fb612da8565b90506113d581888888888888613050565b611914612965565b61191d81612898565b6002806101000a81548164ffffffffff021916908364ffffffffff16021790555050565b6001600160481b038316600090815260066020908152604080832085845290915280822081516080810190925280546119dd929190829060ff16600481111561198c5761198c613fd4565b600481111561199d5761199d613fd4565b8152905461010081046001600160c81b03166020830152600160d01b810460ff166040830152600160d81b900464ffffffffff1660609091015283612f8b565b949350505050565b60006119fe6000805160206145188339815191526123a1565b905090565b611a0b612965565b611a1b611a16612da8565b6131db565b565b611a25612965565b60008381526004602081905260409182902054915163789d771160e01b81526001600160a01b03858116928201929092528315156024820152911690819063789d771190604401610cd1565b611a79612965565b6040516307b7ed9960e01b81526001600160a01b0382811660048301528391908216906307b7ed99906024016113a7565b6000828152600160205260408120611ac29083613229565b9392505050565b611ad1612965565b828114611b205760405162461bcd60e51b815260206004820152601f60248201527f61646472735b5d2c20616d6f756e74735b5d3a2064696666206c656e677468006044820152606401610e31565b60005b83811015611cb8576000858583818110611b3f57611b3f6142d9565b9050602002016020810190611b549190613a6d565b6001600160a01b0316848484818110611b6f57611b6f6142d9565b9050602002013560405160006040518083038185875af1925050503d8060008114611bb6576040519150601f19603f3d011682016040523d82523d6000602084013e611bbb565b606091505b5050905080611c0c5760405162461bcd60e51b815260206004820152601960248201527f466565206574686572207472616e73666572206661696c6564000000000000006044820152606401610e31565b7faaa40a232aaf133fdd28f3485f6fdd163514cfadbffa981f3610f42398efe34b6000878785818110611c4157611c416142d9565b9050602002016020810190611c569190613a6d565b868686818110611c6857611c686142d9565b90506020020135604051611c9d939291906001600160a01b039384168152919092166020820152604081019190915260600190565b60405180910390a15080611cb08161430f565b915050611b23565b5050505050565b6000828152600160205260408120611ac29083612904565b611cdf612965565b611ce7612e50565b611cff600080516020614518833981519152826124f5565b6040516001600160a01b03821681527f10e1f7ce9fd7d1b90a66d13a2ab3cb8dd7f29f3f8d520b143b063ccfbab6906b906020016110eb565b611d40612965565b6002805460ff191660ff92909216919091179055565b6040805160808101825260008082526020808301829052828401829052606083018290528682526004815283822054935192936001600160a01b031692611da591889185918991899101614296565b60408051808303601f19018152828252805160209182012060ff8c811660088d901b68ffffffffffffffff00161760008181526006855285812084825290945292849020608086019094528354919550919392918391166004811115611e0d57611e0d613fd4565b6004811115611e1e57611e1e613fd4565b8152905461010081046001600160c81b03166020830152600160d01b810460ff166040830152600160d81b900464ffffffffff166060909101529998505050505050505050565b611e6d612965565b60405163025a3c9960e21b815282906001600160a01b03821690630968f264906113a7908590600401614283565b611ea3612a84565b611eab612aea565b6002600b541415611ece5760405162461bcd60e51b8152600401610e31906141f0565b6002600b5560008381526004602090815260408083205490516001600160a01b039091169268ffffffffffffffff00600889901b1660ff8a1617929091611f1d91889186918991899101614296565b60408051601f1981840301815282825280516020918201206001600160481b03861660009081526006835283812082825290925282822060808501909352825490945090929190829060ff166004811115611f7a57611f7a613fd4565b6004811115611f8b57611f8b613fd4565b8152905461010081046001600160c81b0316602080840191909152600160d01b820460ff16604080850191909152600160d81b90920464ffffffffff1660609093019290925260008a815260049092529020549091506001600160a01b03166120325760405162461bcd60e51b81526020600482015260196024820152781b9bc81a185b991b195c88199bdc881c995cdbdd5c98d95251603a1b6044820152606401610e31565b60028151600481111561204757612047613fd4565b14156120655761205c898988888b6001612b30565b50505050612395565b600061206f612da8565b905060018260000151600481111561208957612089613fd4565b11156120a75760405162461bcd60e51b8152600401610e319061436d565b6120b18282612f8b565b156120f65760405162461bcd60e51b81526020600482015260156024820152741c995b185e595c88185b1c9958591e481d9bdd1959605a1b6044820152606401610e31565b60008251600481111561210b5761210b613fd4565b141561216b576040805160808101825260018082526000602083018190528284015264ffffffffff4316606083015291519093506000805160206144f88339815191529161215e918d918d9188906141bb565b60405180910390a16121cc565b600254606083015164ffffffffff6201000090920482169161218f91439116612a42565b64ffffffffff1611156121cc5760048083526040516000805160206144f8833981519152916121c3918d918d9188906141bb565b60405180910390a15b6004825160048111156121e1576121e1613fd4565b146122b1576122066121f282612fae565b83602001516001600160c81b031617612ffb565b6001600160c81b0316602083015260408201805190612224826142ef565b60ff1690525081516040517f25f8daaa4635a7729927ba3f5b3d59cc3320aca7c32c9db4e7ca7b957434364091612260918d918d9188906141bb565b60405180910390a1600254604083015160ff61010090920482169116106122b15760028083526040516000805160206144f8833981519152916122a8918d918d9188906141bb565b60405180910390a15b6001600160481b038416600090815260066020908152604080832086845290915290208251815484929190829060ff191660018360048111156122f6576122f6613fd4565b021790555060208201518154604084015160609094015164ffffffffff16600160d81b026001600160d81b0360ff909516600160d01b0260ff60d01b196001600160c81b039094166101000293909316610100600160d81b031990921691909117919091179290921691909117905560028251600481111561237a5761237a613fd4565b141561238f5761238f8a8a89898c6000612b30565b50505050505b50506001600b55505050565b6000818152600160205260408120610be690613235565b6123c0612965565b60008281526004602081905260409182902080546001600160a01b0319166001600160a01b038781169182179092559251635c7d1b9b60e11b81529182018590528316602482015284919063b8fa373690604401610cd1565b612421612965565b60c861242b6119e5565b106124715760405162461bcd60e51b81526020600482015260166024820152751c995b185e595c9cc81b1a5b5a5d081c995858da195960521b6044820152606401610e31565b61248960008051602061451883398151915282610ff1565b6040516001600160a01b03821681527f03580ee9f53a62b7cb409a2cb56f9be87747dd15017afc5cef6eef321e4fb2c5906020016110eb565b6124ca612965565b6001600160a01b03919091166000908152600560205260409020805460ff1916911515919091179055565b6000828152600160205260409020600201546125139061087a612da8565b6125785760405162461bcd60e51b815260206004820152603060248201527f416363657373436f6e74726f6c3a2073656e646572206d75737420626520616e60448201526f2061646d696e20746f207265766f6b6560801b6064820152608401610e31565b61107d828261323f565b61258a612965565b60025460ff1660008161259f81610100614184565b6125a991906141a3565b60008181526004602081905260409182902080546001600160a01b0319166001600160a01b038881169182179092559251635c7d1b9b60e11b815291820184905285166024820152919250849163b8fa373690604401600060405180830381600087803b15801561261957600080fd5b505af115801561262d573d6000803e3d6000fd5b505060405163789d771160e01b81526001600160a01b038681166004830152600160248301528416925063789d77119150604401610cd1565b61266e612965565b60ff82166000908152600360205260409020546001600160401b03908116908216116126eb5760405162461bcd60e51b815260206004820152602660248201527f446f6573206e6f7420616c6c6f772064656372656d656e7473206f6620746865604482015265206e6f6e636560d01b6064820152608401610e31565b60ff919091166000908152600360205260409020805467ffffffffffffffff19166001600160401b03909216919091179055565b6000807fc4cb5d35714699d6e85b9562b644e60393b418d974a5c1dd8efaadac37a142c589898989896040516127569291906142c9565b604051908190038120612799959493929160200194855260ff9390931660208501526001600160401b039190911660408401526060830152608082015260a00190565b60405160208183030381529060405280519060200120905060006127bc82612f19565b905060006128008287878080601f016020809104026020016040519081016040528093929190818152602001838380828437600092019190915250612f6792505050565b905061281a60008051602061451883398151915282611cbf565b9b9a5050505050505050505050565b612831612965565b611a1b61283c612da8565b6132a8565b600061010082106128945760405162461bcd60e51b815260206004820152601c60248201527f76616c756520646f6573206e6f742066697420696e20382062697473000000006044820152606401610e31565b5090565b60006501000000000082106128945760405162461bcd60e51b815260206004820152601d60248201527f76616c756520646f6573206e6f742066697420696e20343020626974730000006044820152606401610e31565b6000611ac2836001600160a01b0384166132f3565b6001600160a01b03811660009081526001830160205260408120541515611ac2565b60ff8082166000908152600a602052604081205490911615612958575060ff1660009081526009602052604090205490565b505060075490565b919050565b612972600061087a612da8565b611a1b5760405162461bcd60e51b815260206004820152601e60248201527f73656e64657220646f65736e277420686176652061646d696e20726f6c6500006044820152606401610e31565b60006129c8612da8565b90506129d5600082611cbf565b806129f357506129f360008051602061451883398151915282611cbf565b612a3f5760405162461bcd60e51b815260206004820152601e60248201527f73656e646572206973206e6f742072656c61796572206f722061646d696e00006044820152606401610e31565b50565b6000611ac283836040518060400160405280601e81526020017f536166654d6174683a207375627472616374696f6e206f766572666c6f770000815250613342565b612a9e60008051602061451883398151915261087a612da8565b611a1b5760405162461bcd60e51b815260206004820181905260248201527f73656e64657220646f65736e277420686176652072656c6179657220726f6c656044820152606401610e31565b60005460ff1615611a1b5760405162461bcd60e51b815260206004820152601060248201526f14185d5cd8589b194e881c185d5cd95960821b6044820152606401610e31565b60008281526004602090815260408083205490516001600160a01b039091169268ffffffffffffffff0060088a901b1660ff8b1617929091612b7a91879186918b918b9101614296565b60408051601f1981840301815291815281516020928301206001600160481b03851660009081526006845282812082825290935291209091506002815460ff166004811115612bcb57612bcb613fd4565b14612c185760405162461bcd60e51b815260206004820181905260248201527f50726f706f73616c206d757374206861766520506173736564207374617475736044820152606401610e31565b805460ff19166003178155838515612c915760405163712467f960e11b81526001600160a01b0382169063e248cff290612c5a908a908d908d90600401614353565b600060405180830381600087803b158015612c7457600080fd5b505af1158015612c88573d6000803e3d6000fd5b50505050612d6e565b60405163712467f960e11b81526001600160a01b0382169063e248cff290612cc1908a908d908d90600401614353565b600060405180830381600087803b158015612cdb57600080fd5b505af1925050508015612cec575060015b612d6e573d808015612d1a576040519150601f19603f3d011682016040523d82523d6000602084013e612d1f565b606091505b50825460ff191660021783556040517fbd37c1f0d53bb2f33fe4c2104de272fcdeb4d2fef3acdbf1e4ddc3d6833ca37690612d5b908390614283565b60405180910390a1505050505050612da0565b6000805160206144f88339815191528b8b600386604051612d9294939291906141bb565b60405180910390a150505050505b505050505050565b60003360143610801590612dd457506001600160a01b03811660009081526005602052604090205460ff165b1561296057505036601319013560601c90565b6000828152600160205260409020612dff90826128ef565b1561107d57612e0c612da8565b6001600160a01b0316816001600160a01b0316837f2f8788117e7eff1d82e926ec794901d17c78024a50270940304540a733656f0d60405160405180910390a45050565b60005460ff16611a1b5760405162461bcd60e51b815260206004820152601460248201527314185d5cd8589b194e881b9bdd081c185d5cd95960621b6044820152606401610e31565b612ea1612da8565b6001600160a01b0316816001600160a01b0316146125785760405162461bcd60e51b815260206004820152602f60248201527f416363657373436f6e74726f6c3a2063616e206f6e6c792072656e6f756e636560448201526e103937b632b9903337b91039b2b63360891b6064820152608401610e31565b6000610be6612f2661337c565b8360405161190160f01b6020820152602281018390526042810182905260009060620160405160208183030381529060405280519060200120905092915050565b6000806000612f7685856134a3565b91509150612f83816134e9565b509392505050565b60008083602001516001600160c81b0316612fa584612fae565b16119392505050565b6001600160a01b03811660009081527f9b7fc797995519db25593326970d3304279d74cdaa6b7cc1a414e3eb0491de546020526040812054612ff1906001612a42565b6001901b92915050565b6000600160c81b82106128945760405162461bcd60e51b815260206004820152601e60248201527f76616c756520646f6573206e6f742066697420696e20323030206269747300006044820152606401610e31565b34600061305c88612926565b905061306881836143b0565b9150806008600082825461307c91906141a3565b90915550506000878152600460205260409020546001600160a01b0316806130b7576040516308c231dd60e31b815260040160405180910390fd5b60ff89166000908152600360205260408120805482906130df906001600160401b03166143c7565b91906101000a8154816001600160401b0302191690836001600160401b03160217905590506000826001600160a01b031663b07e54bb868c8f8d8d6040518663ffffffff1660e01b815260040161313994939291906143ee565b60006040518083038185885af1158015613157573d6000803e3d6000fd5b50505050506040513d6000823e601f3d908101601f191682016040526131809190810190614423565b90508b6001600160a01b03167f17bc3181e17a9620a479c24e6c606e474ba84fc036877b768926872e8cd0e11f8c8c858d8d876040516131c596959493929190614490565b60405180910390a2505050505050505050505050565b6131e3612aea565b6000805460ff191660011790556040516001600160a01b03821681527f62e78cea01bee320cd4e420270b5ea74000d11b0c9f74754ebdbfc544b05a258906020016110eb565b6000611ac283836136a4565b6000610be6825490565b600082815260016020526040902061325790826136ce565b1561107d57613264612da8565b6001600160a01b0316816001600160a01b0316837ff6391f5c32d9c69d2a47ea670b442974b53935d1edc7fd64eb21e047a839171b60405160405180910390a45050565b6132b0612e50565b6000805460ff191690556040516001600160a01b03821681527f5db9ee0a495bf2e6ff9c91a7834c1ba4fdd244a5e8aa4e537bd38aeae4b073aa906020016110eb565b600081815260018301602052604081205461333a57508154600181810184556000848152602080822090930184905584548482528286019093526040902091909155610be6565b506000610be6565b600081848411156133665760405162461bcd60e51b8152600401610e319190614283565b50600061337384866143b0565b95945050505050565b6000306001600160a01b037f0000000000000000000000000000000000000000000000000000000000000000161480156133d557507f000000000000000000000000000000000000000000000000000000000000000046145b156133ff57507f000000000000000000000000000000000000000000000000000000000000000090565b50604080517f00000000000000000000000000000000000000000000000000000000000000006020808301919091527f0000000000000000000000000000000000000000000000000000000000000000828401527f000000000000000000000000000000000000000000000000000000000000000060608301524660808301523060a0808401919091528351808403909101815260c0909201909252805191012090565b6000808251604114156134da5760208301516040840151606085015160001a6134ce878285856136e3565b945094505050506134e2565b506000905060025b9250929050565b60008160048111156134fd576134fd613fd4565b14156135065750565b600181600481111561351a5761351a613fd4565b14156135685760405162461bcd60e51b815260206004820152601860248201527f45434453413a20696e76616c6964207369676e617475726500000000000000006044820152606401610e31565b600281600481111561357c5761357c613fd4565b14156135ca5760405162461bcd60e51b815260206004820152601f60248201527f45434453413a20696e76616c6964207369676e6174757265206c656e677468006044820152606401610e31565b60038160048111156135de576135de613fd4565b14156136375760405162461bcd60e51b815260206004820152602260248201527f45434453413a20696e76616c6964207369676e6174757265202773272076616c604482015261756560f01b6064820152608401610e31565b600481600481111561364b5761364b613fd4565b1415612a3f5760405162461bcd60e51b815260206004820152602260248201527f45434453413a20696e76616c6964207369676e6174757265202776272076616c604482015261756560f01b6064820152608401610e31565b60008260000182815481106136bb576136bb6142d9565b9060005260206000200154905092915050565b6000611ac2836001600160a01b0384166137d0565b6000807f7fffffffffffffffffffffffffffffff5d576e7357a4501ddfe92f46681b20a083111561371a57506000905060036137c7565b8460ff16601b1415801561373257508460ff16601c14155b1561374357506000905060046137c7565b6040805160008082526020820180845289905260ff881692820192909252606081018690526080810185905260019060a0016020604051602081039080840390855afa158015613797573d6000803e3d6000fd5b5050604051601f1901519150506001600160a01b0381166137c0576000600192509250506137c7565b9150600090505b94509492505050565b600081815260018301602052604081205480156138b95760006137f46001836143b0565b8554909150600090613808906001906143b0565b905081811461386d576000866000018281548110613828576138286142d9565b906000526020600020015490508087600001848154811061384b5761384b6142d9565b6000918252602080832090910192909255918252600188019052604090208390555b855486908061387e5761387e6144e1565b600190038181906000526020600020016000905590558560010160008681526020019081526020016000206000905560019350505050610be6565b6000915050610be6565b803560ff8116811461296057600080fd5b6000602082840312156138e657600080fd5b611ac2826138c3565b80356001600160401b038116811461296057600080fd5b60008060006060848603121561391b57600080fd5b613924846138c3565b9250613932602085016138ef565b9150604084013590509250925092565b60008083601f84011261395457600080fd5b5081356001600160401b0381111561396b57600080fd5b6020830191508360208285010111156134e257600080fd5b8035801515811461296057600080fd5b60008060008060008060a087890312156139ac57600080fd5b6139b5876138c3565b95506139c3602088016138ef565b945060408701356001600160401b038111156139de57600080fd5b6139ea89828a01613942565b90955093505060608701359150613a0360808801613983565b90509295509295509295565b600060208284031215613a2157600080fd5b5035919050565b6001600160a01b0381168114612a3f57600080fd5b60008060408385031215613a5057600080fd5b823591506020830135613a6281613a28565b809150509250929050565b600060208284031215613a7f57600080fd5b8135611ac281613a28565b80356001600160e01b03198116811461296057600080fd5b60008060008060008060c08789031215613abb57600080fd5b8635613ac681613a28565b9550602087013594506040870135613add81613a28565b9350613aeb60608801613a8a565b925060808701359150613a0360a08801613a8a565b634e487b7160e01b600052604160045260246000fd5b604051601f8201601f191681016001600160401b0381118282101715613b3e57613b3e613b00565b604052919050565b60006001600160401b03821115613b5f57613b5f613b00565b50601f01601f191660200190565b600082601f830112613b7e57600080fd5b8135613b91613b8c82613b46565b613b16565b818152846020838601011115613ba657600080fd5b816020850160208301376000918101602001919091529392505050565b60008060408385031215613bd657600080fd5b8235613be181613a28565b915060208301356001600160401b03811115613bfc57600080fd5b613c0885828601613b6d565b9150509250929050565b60008060408385031215613c2557600080fd5b613c2e836138c3565b946020939093013593505050565b60008060008060008060a08789031215613c5557600080fd5b613c5e876138c3565b95506020613c6d8189016138ef565b95506040880135945060608801356001600160401b0380821115613c9057600080fd5b613c9c8b838c01613942565b909650945060808a0135915080821115613cb557600080fd5b818a0191508a601f830112613cc957600080fd5b813581811115613cdb57613cdb613b00565b8060051b613cea858201613b16565b918252838101850191858101908e841115613d0457600080fd5b86860192505b83831015613d3e578483351115613d2057600080fd5b613d2f8f888535890101613b6d565b82529186019190860190613d0a565b809750505050505050509295509295509295565b60008060008060008060808789031215613d6b57600080fd5b613d74876138c3565b95506020870135945060408701356001600160401b0380821115613d9757600080fd5b613da38a838b01613942565b90965094506060890135915080821115613dbc57600080fd5b50613dc989828a01613942565b979a9699509497509295939492505050565b600080600060608486031215613df057600080fd5b83356001600160481b0381168114613e0757600080fd5b9250602084013591506040840135613e1e81613a28565b809150509250925092565b600080600060608486031215613e3e57600080fd5b833592506020840135613e5081613a28565b9150613e5e60408501613983565b90509250925092565b60008060408385031215613e7a57600080fd5b8235613e8581613a28565b91506020830135613a6281613a28565b60008060408385031215613ea857600080fd5b50508035926020909101359150565b60008083601f840112613ec957600080fd5b5081356001600160401b03811115613ee057600080fd5b6020830191508360208260051b85010111156134e257600080fd5b60008060008060408587031215613f1157600080fd5b84356001600160401b0380821115613f2857600080fd5b613f3488838901613eb7565b90965094506020870135915080821115613f4d57600080fd5b50613f5a87828801613eb7565b95989497509550505050565b600080600080600060808688031215613f7e57600080fd5b613f87866138c3565b9450613f95602087016138ef565b93506040860135925060608601356001600160401b03811115613fb757600080fd5b613fc388828901613942565b969995985093965092949392505050565b634e487b7160e01b600052602160045260246000fd5b6005811061400857634e487b7160e01b600052602160045260246000fd5b9052565b600060808201905061401f828451613fea565b60018060c81b03602084015116602083015260ff604084015116604083015264ffffffffff606084015116606083015292915050565b60008060006060848603121561406a57600080fd5b8335613e0781613a28565b6000806040838503121561408857600080fd5b823561409381613a28565b91506140a160208401613983565b90509250929050565b600080604083850312156140bd57600080fd5b6140c6836138c3565b91506140a1602084016138ef565b600080600080600080600060a0888a0312156140ef57600080fd5b6140f8886138c3565b9650614106602089016138ef565b95506040880135945060608801356001600160401b038082111561412957600080fd5b6141358b838c01613942565b909650945060808a013591508082111561414e57600080fd5b5061415b8a828b01613942565b989b979a50959850939692959293505050565b634e487b7160e01b600052601160045260246000fd5b600081600019048311821515161561419e5761419e61416e565b500290565b600082198211156141b6576141b661416e565b500190565b60ff851681526001600160401b0384166020820152608081016141e16040830185613fea565b82606083015295945050505050565b6020808252601f908201527f5265656e7472616e637947756172643a207265656e7472616e742063616c6c00604082015260600190565b60005b8381101561424257818101518382015260200161422a565b83811115614251576000848401525b50505050565b6000815180845261426f816020860160208601614227565b601f01601f19169290920160200192915050565b602081526000611ac26020830184614257565b8481526bffffffffffffffffffffffff198460601b16602082015281836034830137600091016034019081529392505050565b8183823760009101908152919050565b634e487b7160e01b600052603260045260246000fd5b600060ff821660ff8114156143065761430661416e565b60010192915050565b60006000198214156143235761432361416e565b5060010190565b81835281816020850137506000828201602090810191909152601f909101601f19169091010190565b83815260406020820152600061337360408301848661432a565b60208082526023908201527f70726f706f73616c20616c72656164792065786563757465642f63616e63656c6040820152621b195960ea1b606082015260800190565b6000828210156143c2576143c261416e565b500390565b60006001600160401b03808316818114156143e4576143e461416e565b6001019392505050565b8481526001600160a01b0384166020820152606060408201819052600090614419908301848661432a565b9695505050505050565b60006020828403121561443557600080fd5b81516001600160401b0381111561444b57600080fd5b8201601f8101841361445c57600080fd5b805161446a613b8c82613b46565b81815285602083850101111561447f57600080fd5b613373826020830160208601614227565b60ff871681528560208201526001600160401b038516604082015260a0606082015260006144c260a08301858761432a565b82810360808401526144d48185614257565b9998505050505050505050565b634e487b7160e01b600052603160045260246000fdfe968626a768e76ba1363efe44e322a6c4900c5f084e0b45f35e294dfddaa9e0d5e2b7fb3b832174769106daebcfd6d1970523240dda11281102db9363b83b0dc4a26469706673582212206f523f2b72f53c7df97c8112532cb21b88fa3b4d7ce0b09d564fa147382dfd6d64736f6c634300080b0033",
  "linkReferences": {},
  "deployedLinkReferences": {}
}