{
  "_format": "hh-sol-artifact-1",
  "contractName": "Bridge",
  "sourceName": "contracts/Bridge.sol",
  "abi": [
    {
      "inputs": [
        {
          "internalType": "uint8",
          "name": "domainID",
          "type": "uint8"
        },
        {
          "internalType": "address[]",
          "name": "initialRelayers",
          "type": "address[]"
        },
        {
          "internalType": "uint256",
          "name": "initialRelayerThreshold",
          "type": "uint256"
        },
        {
          "internalType": "uint256",
          "name": "expiry",
          "type": "uint256"
        }
      ],
      "stateMutability": "nonpayable",
      "type": "constructor"
    },
    {
      "inputs": [
        {
          "internalType": "uint256",
          "name": "msgValue",
          "type": "uint256"
        },
        {
          "internalType": "uint256",
          "name": "fee",
          "type": "uint256"
        }
      ],
      "name": "IncorrectFeeSupplied",
      "type": "error"
    },
    {
      "inputs": [
        {
          "internalType": "address",
          "name": "signer",
          "type": "address"
        },
        {
          "internalType": "uint256",
          "name": "index",
          "type": "uint256"
        }
      ],
      "name": "InviladSignature",
      "type": "error"
    },
    {
      "inputs": [],
      "name": "ResourceIDNotMappedToHandler",
      "type": "error"
    },
    {
      "anonymous": false,
      "inputs": [
        {
          "indexed": false,
          "internalType": "uint8",
          "name": "destinationDomainID",
          "type": "uint8"
        },
        {
          "indexed": false,
          "internalType": "bytes32",
          "name": "resourceID",
          "type": "bytes32"
        },
        {
          "indexed": false,
          "internalType": "uint64",
          "name": "depositNonce",
          "type": "uint64"
        },
        {
          "indexed": true,
          "internalType": "address",
          "name": "user",
          "type": "address"
        },
        {
          "indexed": false,
          "internalType": "bytes",
          "name": "data",
          "type": "bytes"
        },
        {
          "indexed": false,
          "internalType": "bytes",
          "name": "handlerResponse",
          "type": "bytes"
        }
      ],
      "name": "Deposit",
      "type": "event"
    },
    {
      "anonymous": false,
      "inputs": [
        {
          "indexed": false,
          "internalType": "bytes",
          "name": "lowLevelData",
          "type": "bytes"
        }
      ],
      "name": "FailedHandlerExecution",
      "type": "event"
    },
    {
      "anonymous": false,
      "inputs": [
        {
          "indexed": false,
          "internalType": "address",
          "name": "newFeeHandler",
          "type": "address"
        }
      ],
      "name": "FeeHandlerChanged",
      "type": "event"
    },
    {
      "anonymous": false,
      "inputs": [
        {
          "indexed": false,
          "internalType": "address",
          "name": "account",
          "type": "address"
        }
      ],
      "name": "Paused",
      "type": "event"
    },
    {
      "anonymous": false,
      "inputs": [
        {
          "indexed": false,
          "internalType": "uint8",
          "name": "originDomainID",
          "type": "uint8"
        },
        {
          "indexed": false,
          "internalType": "uint64",
          "name": "depositNonce",
          "type": "uint64"
        },
        {
          "indexed": false,
          "internalType": "enum IBridge.ProposalStatus",
          "name": "status",
          "type": "uint8"
        },
        {
          "indexed": false,
          "internalType": "bytes32",
          "name": "dataHash",
          "type": "bytes32"
        }
      ],
      "name": "ProposalEvent",
      "type": "event"
    },
    {
      "anonymous": false,
      "inputs": [
        {
          "indexed": false,
          "internalType": "uint8",
          "name": "originDomainID",
          "type": "uint8"
        },
        {
          "indexed": false,
          "internalType": "uint64",
          "name": "depositNonce",
          "type": "uint64"
        },
        {
          "indexed": false,
          "internalType": "enum IBridge.ProposalStatus",
          "name": "status",
          "type": "uint8"
        },
        {
          "indexed": false,
          "internalType": "bytes32",
          "name": "dataHash",
          "type": "bytes32"
        }
      ],
      "name": "ProposalVote",
      "type": "event"
    },
    {
      "anonymous": false,
      "inputs": [
        {
          "indexed": false,
          "internalType": "address",
          "name": "relayer",
          "type": "address"
        }
      ],
      "name": "RelayerAdded",
      "type": "event"
    },
    {
      "anonymous": false,
      "inputs": [
        {
          "indexed": false,
          "internalType": "address",
          "name": "relayer",
          "type": "address"
        }
      ],
      "name": "RelayerRemoved",
      "type": "event"
    },
    {
      "anonymous": false,
      "inputs": [
        {
          "indexed": false,
          "internalType": "uint256",
          "name": "newThreshold",
          "type": "uint256"
        }
      ],
      "name": "RelayerThresholdChanged",
      "type": "event"
    },
    {
      "anonymous": false,
      "inputs": [
        {
          "indexed": true,
          "internalType": "bytes32",
          "name": "role",
          "type": "bytes32"
        },
        {
          "indexed": true,
          "internalType": "address",
          "name": "account",
          "type": "address"
        },
        {
          "indexed": true,
          "internalType": "address",
          "name": "sender",
          "type": "address"
        }
      ],
      "name": "RoleGranted",
      "type": "event"
    },
    {
      "anonymous": false,
      "inputs": [
        {
          "indexed": true,
          "internalType": "bytes32",
          "name": "role",
          "type": "bytes32"
        },
        {
          "indexed": true,
          "internalType": "address",
          "name": "account",
          "type": "address"
        },
        {
          "indexed": true,
          "internalType": "address",
          "name": "sender",
          "type": "address"
        }
      ],
      "name": "RoleRevoked",
      "type": "event"
    },
    {
      "anonymous": false,
      "inputs": [
        {
          "indexed": false,
          "internalType": "address",
          "name": "account",
          "type": "address"
        }
      ],
      "name": "Unpaused",
      "type": "event"
    },
    {
      "inputs": [],
      "name": "DEFAULT_ADMIN_ROLE",
      "outputs": [
        {
          "internalType": "bytes32",
          "name": "",
          "type": "bytes32"
        }
      ],
      "stateMutability": "view",
      "type": "function"
    },
    {
      "inputs": [],
      "name": "MAX_RELAYERS",
      "outputs": [
        {
          "internalType": "uint256",
          "name": "",
          "type": "uint256"
        }
      ],
      "stateMutability": "view",
      "type": "function"
    },
    {
      "inputs": [],
      "name": "PERMIT_TYPEHASH",
      "outputs": [
        {
          "internalType": "bytes32",
          "name": "",
          "type": "bytes32"
        }
      ],
      "stateMutability": "view",
      "type": "function"
    },
    {
      "inputs": [],
      "name": "RELAYER_ROLE",
      "outputs": [
        {
          "internalType": "bytes32",
          "name": "",
          "type": "bytes32"
        }
      ],
      "stateMutability": "view",
      "type": "function"
    },
    {
      "inputs": [],
      "name": "_chainId",
      "outputs": [
        {
          "internalType": "uint256",
          "name": "",
          "type": "uint256"
        }
      ],
      "stateMutability": "view",
      "type": "function"
    },
    {
      "inputs": [
        {
          "internalType": "uint8",
          "name": "",
          "type": "uint8"
        }
      ],
      "name": "_depositCounts",
      "outputs": [
        {
          "internalType": "uint64",
          "name": "",
          "type": "uint64"
        }
      ],
      "stateMutability": "view",
      "type": "function"
    },
    {
      "inputs": [],
      "name": "_domainID",
      "outputs": [
        {
          "internalType": "uint8",
          "name": "",
          "type": "uint8"
        }
      ],
      "stateMutability": "view",
      "type": "function"
    },
    {
      "inputs": [],
      "name": "_expiry",
      "outputs": [
        {
          "internalType": "uint40",
          "name": "",
          "type": "uint40"
        }
      ],
      "stateMutability": "view",
      "type": "function"
    },
    {
      "inputs": [],
      "name": "_fee",
      "outputs": [
        {
          "internalType": "uint256",
          "name": "",
          "type": "uint256"
        }
      ],
      "stateMutability": "view",
      "type": "function"
    },
    {
      "inputs": [],
      "name": "_feeHandler",
      "outputs": [
        {
          "internalType": "contract IFeeHandler",
          "name": "",
          "type": "address"
        }
      ],
      "stateMutability": "view",
      "type": "function"
    },
    {
      "inputs": [
        {
          "internalType": "uint72",
          "name": "destNonce",
          "type": "uint72"
        },
        {
          "internalType": "bytes32",
          "name": "dataHash",
          "type": "bytes32"
        },
        {
          "internalType": "address",
          "name": "relayer",
          "type": "address"
        }
      ],
      "name": "_hasVotedOnProposal",
      "outputs": [
        {
          "internalType": "bool",
          "name": "",
          "type": "bool"
        }
      ],
      "stateMutability": "view",
      "type": "function"
    },
    {
      "inputs": [],
      "name": "_relayerThreshold",
      "outputs": [
        {
          "internalType": "uint8",
          "name": "",
          "type": "uint8"
        }
      ],
      "stateMutability": "view",
      "type": "function"
    },
    {
      "inputs": [
        {
          "internalType": "bytes32",
          "name": "",
          "type": "bytes32"
        }
      ],
      "name": "_resourceIDToHandlerAddress",
      "outputs": [
        {
          "internalType": "address",
          "name": "",
          "type": "address"
        }
      ],
      "stateMutability": "view",
      "type": "function"
    },
    {
      "inputs": [],
      "name": "_totalRelayers",
      "outputs": [
        {
          "internalType": "uint256",
          "name": "",
          "type": "uint256"
        }
      ],
      "stateMutability": "view",
      "type": "function"
    },
    {
      "inputs": [
        {
          "internalType": "address",
          "name": "relayerAddress",
          "type": "address"
        }
      ],
      "name": "adminAddRelayer",
      "outputs": [],
      "stateMutability": "nonpayable",
      "type": "function"
    },
    {
      "inputs": [
        {
          "internalType": "uint256",
          "name": "expiry",
          "type": "uint256"
        }
      ],
      "name": "adminChangeExpiry",
      "outputs": [],
      "stateMutability": "nonpayable",
      "type": "function"
    },
    {
      "inputs": [
        {
          "internalType": "address",
          "name": "newFeeHandler",
          "type": "address"
        }
      ],
      "name": "adminChangeFeeHandler",
      "outputs": [],
      "stateMutability": "nonpayable",
      "type": "function"
    },
    {
      "inputs": [
        {
          "internalType": "uint256",
          "name": "newThreshold",
          "type": "uint256"
        }
      ],
      "name": "adminChangeRelayerThreshold",
      "outputs": [],
      "stateMutability": "nonpayable",
      "type": "function"
    },
    {
      "inputs": [],
      "name": "adminPauseTransfers",
      "outputs": [],
      "stateMutability": "nonpayable",
      "type": "function"
    },
    {
      "inputs": [
        {
          "internalType": "address",
          "name": "relayerAddress",
          "type": "address"
        }
      ],
      "name": "adminRemoveRelayer",
      "outputs": [],
      "stateMutability": "nonpayable",
      "type": "function"
    },
    {
      "inputs": [
        {
          "internalType": "address",
          "name": "handlerAddress",
          "type": "address"
        },
        {
          "internalType": "address",
          "name": "tokenAddress",
          "type": "address"
        }
      ],
      "name": "adminSetBurnable",
      "outputs": [],
      "stateMutability": "nonpayable",
      "type": "function"
    },
    {
      "inputs": [
        {
          "internalType": "uint8",
          "name": "domainID",
          "type": "uint8"
        },
        {
          "internalType": "uint64",
          "name": "nonce",
          "type": "uint64"
        }
      ],
      "name": "adminSetDepositNonce",
      "outputs": [],
      "stateMutability": "nonpayable",
      "type": "function"
    },
    {
      "inputs": [
        {
          "internalType": "uint8",
          "name": "domainID",
          "type": "uint8"
        }
      ],
      "name": "adminSetDomainId",
      "outputs": [],
      "stateMutability": "nonpayable",
      "type": "function"
    },
    {
      "inputs": [
        {
          "internalType": "address",
          "name": "forwarder",
          "type": "address"
        },
        {
          "internalType": "bool",
          "name": "valid",
          "type": "bool"
        }
      ],
      "name": "adminSetForwarder",
      "outputs": [],
      "stateMutability": "nonpayable",
      "type": "function"
    },
    {
      "inputs": [
        {
          "internalType": "address",
          "name": "handlerAddress",
          "type": "address"
        },
        {
          "internalType": "bytes32",
          "name": "resourceID",
          "type": "bytes32"
        },
        {
          "internalType": "address",
          "name": "contractAddress",
          "type": "address"
        },
        {
          "internalType": "bytes4",
          "name": "depositFunctionSig",
          "type": "bytes4"
        },
        {
          "internalType": "uint256",
          "name": "depositFunctionDepositerOffset",
          "type": "uint256"
        },
        {
          "internalType": "bytes4",
          "name": "executeFunctionSig",
          "type": "bytes4"
        }
      ],
      "name": "adminSetGenericResource",
      "outputs": [],
      "stateMutability": "nonpayable",
      "type": "function"
    },
    {
      "inputs": [
        {
          "internalType": "bytes32",
          "name": "resourceID",
          "type": "bytes32"
        },
        {
          "internalType": "address",
          "name": "nativeAddress",
          "type": "address"
        },
        {
          "internalType": "bool",
          "name": "isNative",
          "type": "bool"
        }
      ],
      "name": "adminSetNative",
      "outputs": [],
      "stateMutability": "nonpayable",
      "type": "function"
    },
    {
      "inputs": [
        {
          "internalType": "address",
          "name": "handlerAddress",
          "type": "address"
        }
      ],
      "name": "adminSetNativeResource",
      "outputs": [],
      "stateMutability": "nonpayable",
      "type": "function"
    },
    {
      "inputs": [
        {
          "internalType": "address",
          "name": "handlerAddress",
          "type": "address"
        },
        {
          "internalType": "bytes32",
          "name": "resourceID",
          "type": "bytes32"
        },
        {
          "internalType": "address",
          "name": "tokenAddress",
          "type": "address"
        }
      ],
      "name": "adminSetResource",
      "outputs": [],
      "stateMutability": "nonpayable",
      "type": "function"
    },
    {
      "inputs": [],
      "name": "adminUnpauseTransfers",
      "outputs": [],
      "stateMutability": "nonpayable",
      "type": "function"
    },
    {
      "inputs": [
        {
          "internalType": "address",
          "name": "handlerAddress",
          "type": "address"
        },
        {
          "internalType": "bytes",
          "name": "data",
          "type": "bytes"
        }
      ],
      "name": "adminWithdraw",
      "outputs": [],
      "stateMutability": "nonpayable",
      "type": "function"
    },
    {
      "inputs": [
        {
          "internalType": "address",
          "name": "handlerAddress",
          "type": "address"
        },
        {
          "internalType": "bytes",
          "name": "data",
          "type": "bytes"
        }
      ],
      "name": "adminWithdrawETH",
      "outputs": [],
      "stateMutability": "nonpayable",
      "type": "function"
    },
    {
      "inputs": [
        {
          "internalType": "uint8",
          "name": "destinationDomainID",
          "type": "uint8"
        },
        {
          "internalType": "bytes32",
          "name": "resourceID",
          "type": "bytes32"
        },
        {
          "internalType": "bytes",
          "name": "depositData",
          "type": "bytes"
        },
        {
          "internalType": "bytes",
          "name": "feeData",
          "type": "bytes"
        }
      ],
      "name": "calculateFee",
      "outputs": [
        {
          "internalType": "uint256",
          "name": "",
          "type": "uint256"
        }
      ],
      "stateMutability": "view",
      "type": "function"
    },
    {
      "inputs": [
        {
          "internalType": "uint8",
          "name": "domainID",
          "type": "uint8"
        },
        {
          "internalType": "uint64",
          "name": "depositNonce",
          "type": "uint64"
        },
        {
          "internalType": "bytes32",
          "name": "dataHash",
          "type": "bytes32"
        }
      ],
      "name": "cancelProposal",
      "outputs": [],
      "stateMutability": "nonpayable",
      "type": "function"
    },
    {
      "inputs": [
        {
          "internalType": "uint8",
          "name": "domainID",
          "type": "uint8"
        },
        {
          "internalType": "uint64",
          "name": "depositNonce",
          "type": "uint64"
        },
        {
          "internalType": "bytes32",
          "name": "resourceID",
          "type": "bytes32"
        },
        {
          "internalType": "bytes",
          "name": "data",
          "type": "bytes"
        },
        {
          "internalType": "bytes",
          "name": "signature",
          "type": "bytes"
        }
      ],
      "name": "checkSignature",
      "outputs": [
        {
          "internalType": "bool",
          "name": "",
          "type": "bool"
        }
      ],
      "stateMutability": "view",
      "type": "function"
    },
    {
      "inputs": [
        {
          "internalType": "uint8",
          "name": "destinationDomainID",
          "type": "uint8"
        },
        {
          "internalType": "bytes32",
          "name": "resourceID",
          "type": "bytes32"
        },
        {
          "internalType": "bytes",
          "name": "depositData",
          "type": "bytes"
        },
        {
          "internalType": "bytes",
          "name": "feeData",
          "type": "bytes"
        }
      ],
      "name": "deposit",
      "outputs": [],
      "stateMutability": "payable",
      "type": "function"
    },
    {
      "inputs": [
        {
          "internalType": "uint8",
          "name": "domainID",
          "type": "uint8"
        },
        {
          "internalType": "uint64",
          "name": "depositNonce",
          "type": "uint64"
        },
        {
          "internalType": "bytes",
          "name": "data",
          "type": "bytes"
        },
        {
          "internalType": "bytes32",
          "name": "resourceID",
          "type": "bytes32"
        },
        {
          "internalType": "bool",
          "name": "revertOnFail",
          "type": "bool"
        }
      ],
      "name": "executeProposal",
      "outputs": [],
      "stateMutability": "nonpayable",
      "type": "function"
    },
    {
      "inputs": [
        {
          "internalType": "uint8",
          "name": "originDomainID",
          "type": "uint8"
        },
        {
          "internalType": "uint64",
          "name": "depositNonce",
          "type": "uint64"
        },
        {
          "internalType": "bytes32",
          "name": "dataHash",
          "type": "bytes32"
        }
      ],
      "name": "getProposal",
      "outputs": [
        {
          "components": [
            {
              "internalType": "enum IBridge.ProposalStatus",
              "name": "_status",
              "type": "uint8"
            },
            {
              "internalType": "uint200",
              "name": "_yesVotes",
              "type": "uint200"
            },
            {
              "internalType": "uint8",
              "name": "_yesVotesTotal",
              "type": "uint8"
            },
            {
              "internalType": "uint40",
              "name": "_proposedBlock",
              "type": "uint40"
            }
          ],
          "internalType": "struct IBridge.Proposal",
          "name": "",
          "type": "tuple"
        }
      ],
      "stateMutability": "view",
      "type": "function"
    },
    {
      "inputs": [
        {
          "internalType": "bytes32",
          "name": "role",
          "type": "bytes32"
        }
      ],
      "name": "getRoleAdmin",
      "outputs": [
        {
          "internalType": "bytes32",
          "name": "",
          "type": "bytes32"
        }
      ],
      "stateMutability": "view",
      "type": "function"
    },
    {
      "inputs": [
        {
          "internalType": "bytes32",
          "name": "role",
          "type": "bytes32"
        },
        {
          "internalType": "uint256",
          "name": "index",
          "type": "uint256"
        }
      ],
      "name": "getRoleMember",
      "outputs": [
        {
          "internalType": "address",
          "name": "",
          "type": "address"
        }
      ],
      "stateMutability": "view",
      "type": "function"
    },
    {
      "inputs": [
        {
          "internalType": "bytes32",
          "name": "role",
          "type": "bytes32"
        }
      ],
      "name": "getRoleMemberCount",
      "outputs": [
        {
          "internalType": "uint256",
          "name": "",
          "type": "uint256"
        }
      ],
      "stateMutability": "view",
      "type": "function"
    },
    {
      "inputs": [
        {
          "internalType": "bytes32",
          "name": "role",
          "type": "bytes32"
        },
        {
          "internalType": "address",
          "name": "account",
          "type": "address"
        }
      ],
      "name": "getRoleMemberIndex",
      "outputs": [
        {
          "internalType": "uint256",
          "name": "",
          "type": "uint256"
        }
      ],
      "stateMutability": "view",
      "type": "function"
    },
    {
      "inputs": [
        {
          "internalType": "bytes32",
          "name": "role",
          "type": "bytes32"
        },
        {
          "internalType": "address",
          "name": "account",
          "type": "address"
        }
      ],
      "name": "grantRole",
      "outputs": [],
      "stateMutability": "nonpayable",
      "type": "function"
    },
    {
      "inputs": [
        {
          "internalType": "bytes32",
          "name": "role",
          "type": "bytes32"
        },
        {
          "internalType": "address",
          "name": "account",
          "type": "address"
        }
      ],
      "name": "hasRole",
      "outputs": [
        {
          "internalType": "bool",
          "name": "",
          "type": "bool"
        }
      ],
      "stateMutability": "view",
      "type": "function"
    },
    {
      "inputs": [
        {
          "internalType": "address",
          "name": "relayer",
          "type": "address"
        }
      ],
      "name": "isRelayer",
      "outputs": [
        {
          "internalType": "bool",
          "name": "",
          "type": "bool"
        }
      ],
      "stateMutability": "view",
      "type": "function"
    },
    {
      "inputs": [
        {
          "internalType": "address",
          "name": "",
          "type": "address"
        }
      ],
      "name": "isValidForwarder",
      "outputs": [
        {
          "internalType": "bool",
          "name": "",
          "type": "bool"
        }
      ],
      "stateMutability": "view",
      "type": "function"
    },
    {
      "inputs": [],
      "name": "paused",
      "outputs": [
        {
          "internalType": "bool",
          "name": "",
          "type": "bool"
        }
      ],
      "stateMutability": "view",
      "type": "function"
    },
    {
      "inputs": [
        {
          "internalType": "address",
          "name": "newAdmin",
          "type": "address"
        }
      ],
      "name": "renounceAdmin",
      "outputs": [],
      "stateMutability": "nonpayable",
      "type": "function"
    },
    {
      "inputs": [
        {
          "internalType": "bytes32",
          "name": "role",
          "type": "bytes32"
        },
        {
          "internalType": "address",
          "name": "account",
          "type": "address"
        }
      ],
      "name": "renounceRole",
      "outputs": [],
      "stateMutability": "nonpayable",
      "type": "function"
    },
    {
      "inputs": [
        {
          "internalType": "bytes32",
          "name": "role",
          "type": "bytes32"
        },
        {
          "internalType": "address",
          "name": "account",
          "type": "address"
        }
      ],
      "name": "revokeRole",
      "outputs": [],
      "stateMutability": "nonpayable",
      "type": "function"
    },
    {
      "inputs": [
        {
          "internalType": "address payable[]",
          "name": "addrs",
          "type": "address[]"
        },
        {
          "internalType": "uint256[]",
          "name": "amounts",
          "type": "uint256[]"
        }
      ],
      "name": "transferFunds",
      "outputs": [],
      "stateMutability": "nonpayable",
      "type": "function"
    },
    {
      "inputs": [
        {
          "internalType": "uint8",
          "name": "domainID",
          "type": "uint8"
        },
        {
          "internalType": "uint64",
          "name": "depositNonce",
          "type": "uint64"
        },
        {
          "internalType": "bytes32",
          "name": "resourceID",
          "type": "bytes32"
        },
        {
          "internalType": "bytes",
          "name": "data",
          "type": "bytes"
        }
      ],
      "name": "voteProposal",
      "outputs": [],
      "stateMutability": "nonpayable",
      "type": "function"
    },
    {
      "inputs": [
        {
          "internalType": "uint8",
          "name": "domainID",
          "type": "uint8"
        },
        {
          "internalType": "uint64",
          "name": "depositNonce",
          "type": "uint64"
        },
        {
          "internalType": "bytes32",
          "name": "resourceID",
          "type": "bytes32"
        },
        {
          "internalType": "bytes",
          "name": "data",
          "type": "bytes"
        },
        {
          "internalType": "bytes[]",
          "name": "signatures",
          "type": "bytes[]"
        }
      ],
      "name": "voteProposals",
      "outputs": [],
      "stateMutability": "nonpayable",
      "type": "function"
    }
  ],
  "bytecode": "0x6101406040523480156200001257600080fd5b5060405162004b4c38038062004b4c83398101604081905262000035916200053b565b604080518082018252600c81526b5065726d697442726964676560a01b6020808301918252835180850190945260038452620312e360ec1b908401528151902060e08190527fe6bbd6277e1bf288eed5e8d1780f9a50b239e86b153736bceebccf4ea79d90b36101008190524660a0529192917f8b73c3c69bb8fe3d512ecc4cf759cc79239f7b179b0ffacaa9a75d522b39400f620001198184846040805160208101859052908101839052606081018290524660808201523060a082015260009060c0016040516020818303038152906040528051906020012090509392505050565b6080523060c0526101205250506000805460ff199081169091556002805490911660ff8816179055506200015b90508262000241602090811b62002bba17901c565b600260016101000a81548160ff021916908360ff1602179055506200018b816200029e60201b62002c111760201c565b6002805464ffffffffff92909216620100000266ffffffffff000019909216919091179055620001c66000620001c0620002f7565b6200033a565b60005b83518110156200023657620002217fe2b7fb3b832174769106daebcfd6d1970523240dda11281102db9363b83b0dc48583815181106200020d576200020d62000639565b60200260200101516200034a60201b60201c565b806200022d816200064f565b915050620001c9565b505050505062000679565b600061010082106200029a5760405162461bcd60e51b815260206004820152601c60248201527f76616c756520646f6573206e6f742066697420696e203820626974730000000060448201526064015b60405180910390fd5b5090565b60006501000000000082106200029a5760405162461bcd60e51b815260206004820152601d60248201527f76616c756520646f6573206e6f742066697420696e2034302062697473000000604482015260640162000291565b600033601436108015906200032457506001600160a01b03811660009081526005602052604090205460ff165b1562000335575060131936013560601c5b919050565b620003468282620003d7565b5050565b60008281526001602052604090206002015462000371906200036b620002f7565b62000452565b6200033a5760405162461bcd60e51b815260206004820152602f60248201527f416363657373436f6e74726f6c3a2073656e646572206d75737420626520616e60448201526e0818591b5a5b881d1bc819dc985b9d608a1b606482015260840162000291565b6000828152600160209081526040909120620003fe91839062002c6862000481821b17901c565b1562000346576200040e620002f7565b6001600160a01b0316816001600160a01b0316837f2f8788117e7eff1d82e926ec794901d17c78024a50270940304540a733656f0d60405160405180910390a45050565b600082815260016020908152604082206200047891849062002c7d62000498821b17901c565b90505b92915050565b600062000478836001600160a01b038416620004bb565b6001600160a01b0381166000908152600183016020526040812054151562000478565b600081815260018301602052604081205462000504575081546001818101845560008481526020808220909301849055845484825282860190935260409020919091556200047b565b5060006200047b565b634e487b7160e01b600052604160045260246000fd5b80516001600160a01b03811681146200033557600080fd5b600080600080608085870312156200055257600080fd5b845160ff811681146200056457600080fd5b602086810151919550906001600160401b03808211156200058457600080fd5b818801915088601f8301126200059957600080fd5b815181811115620005ae57620005ae6200050d565b8060051b604051601f19603f83011681018181108582111715620005d657620005d66200050d565b60405291825284820192508381018501918b831115620005f557600080fd5b938501935b828510156200061e576200060e8562000523565b84529385019392850192620005fa565b60408b01516060909b0151999c909b50975050505050505050565b634e487b7160e01b600052603260045260246000fd5b60006000198214156200067257634e487b7160e01b600052601160045260246000fd5b5060010190565b60805160a05160c05160e0516101005161012051614483620006c9600039600061326c015260006132bb01526000613296015260006131ef015260006132190152600061324301526144836000f3fe6080604052600436106102ff5760003560e01c80639010d07c11610190578063c5ec8970116100dc578063d7a9cd7911610095578063f8c39e441161006f578063f8c39e4414610984578063fe4648f4146109b4578063fe65c4be146109db578063ffaac0eb146109fb57600080fd5b8063d7a9cd7914610925578063e2469d4014610944578063edc20c3c1461096457600080fd5b8063c5ec89701461084b578063ca15c87314610885578063cb10f215146108a5578063cdb0f73a146108c5578063d15ef64e146108e5578063d547741f1461090557600080fd5b80639debb3bd11610149578063a9cf69fa11610123578063a9cf69fa146107c9578063bd2a1820146107f6578063c0331b3e14610816578063c5b37c221461083657600080fd5b80639debb3bd1461077f578063a06fbbff14610794578063a217fddf146107b457600080fd5b80639010d07c146106b157806391d14854146106d1578063926d7d7f146106f15780639d4d39f5146107135780639d82dd63146107335780639dd694f41461075357600080fd5b80635e1fab0f1161024f5780637febe63f1161020857806384db809f116101e257806384db809f1461060357806388b73be0146106515780638b63aebf146106715780638c0c26311461069157600080fd5b80637febe63f146105b9578063802aabe8146105d957806380ae1c28146105ee57600080fd5b80635e1fab0f146105135780636d3b6eea146105335780637292dd911461055357806373c45c981461057357806374773412146105865780637d026d961461059957600080fd5b80634603ae38116102bc5780634e0df3f6116102965780634e0df3f61461048b578063541d5548146104ab5780635a1ad87c146104db5780635c975abb146104fb57600080fd5b80634603ae38146103fd5780634b0b919d1461041d5780634e0560051461046b57600080fd5b806317f03ce514610304578063206a98fd14610326578063248a9ca3146103465780632f2ff15d1461038957806330adf81f146103a957806336568abe146103dd575b600080fd5b34801561031057600080fd5b5061032461031f3660046137e8565b610a10565b005b34801561033257600080fd5b50610324610341366004613875565b610ca5565b34801561035257600080fd5b506103766103613660046138f1565b60009081526001602052604090206002015490565b6040519081526020015b60405180910390f35b34801561039557600080fd5b506103246103a436600461391f565b610f2b565b3480156103b557600080fd5b506103767fc4cb5d35714699d6e85b9562b644e60393b418d974a5c1dd8efaadac37a142c581565b3480156103e957600080fd5b506103246103f836600461391f565b610fbb565b34801561040957600080fd5b50610324610418366004613993565b611045565b34801561042957600080fd5b506104536104383660046139fe565b6003602052600090815260409020546001600160401b031681565b6040516001600160401b039091168152602001610380565b34801561047757600080fd5b506103246104863660046138f1565b6110e9565b34801561049757600080fd5b506103766104a636600461391f565b61114c565b3480156104b757600080fd5b506104cb6104c6366004613a19565b611178565b6040519015158152602001610380565b3480156104e757600080fd5b506103246104f6366004613a4e565b611192565b34801561050757600080fd5b5060005460ff166104cb565b34801561051f57600080fd5b5061032461052e366004613a19565b611248565b34801561053f57600080fd5b5061032461054e366004613b6f565b6112d4565b34801561055f57600080fd5b5061032461056e366004613bbe565b611341565b610324610581366004613cd4565b611a57565b34801561059257600080fd5b5046610376565b3480156105a557600080fd5b506103246105b43660046138f1565b611d00565b3480156105c557600080fd5b506104cb6105d4366004613d5d565b611d35565b3480156105e557600080fd5b50610376611dd9565b3480156105fa57600080fd5b50610324611df7565b34801561060f57600080fd5b5061063961061e3660046138f1565b6004602052600090815260409020546001600160a01b031681565b6040516001600160a01b039091168152602001610380565b34801561065d57600080fd5b5061032461066c366004613dab565b611e11565b34801561067d57600080fd5b5061032461068c366004613a19565b611e99565b34801561069d57600080fd5b506103246106ac366004613de9565b611eff565b3480156106bd57600080fd5b506106396106cc366004613e17565b611f38565b3480156106dd57600080fd5b506104cb6106ec36600461391f565b611f57565b3480156106fd57600080fd5b5061037660008051602061442e83398151915281565b34801561071f57600080fd5b5061037661072e366004613cd4565b611f6f565b34801561073f57600080fd5b5061032461074e366004613a19565b612038565b34801561075f57600080fd5b5060025461076d9060ff1681565b60405160ff9091168152602001610380565b34801561078b57600080fd5b5061037660c881565b3480156107a057600080fd5b506103246107af3660046139fe565b612091565b3480156107c057600080fd5b50610376600081565b3480156107d557600080fd5b506107e96107e43660046137e8565b6120af565b6040516103809190613e71565b34801561080257600080fd5b50610324610811366004613b6f565b61217d565b34801561082257600080fd5b50610324610831366004613eba565b6121b3565b34801561084257600080fd5b50610376612689565b34801561085757600080fd5b5060025461086f9062010000900464ffffffffff1681565b60405164ffffffffff9091168152602001610380565b34801561089157600080fd5b506103766108a03660046138f1565b612721565b3480156108b157600080fd5b506103246108c0366004613f28565b612738565b3480156108d157600080fd5b506103246108e0366004613a19565b612799565b3480156108f157600080fd5b50610324610900366004613f48565b612842565b34801561091157600080fd5b5061032461092036600461391f565b612875565b34801561093157600080fd5b5060025461076d90610100900460ff1681565b34801561095057600080fd5b5061032461095f366004613a19565b6128f8565b34801561097057600080fd5b5061032461097f366004613f7d565b6129df565b34801561099057600080fd5b506104cb61099f366004613a19565b60056020526000908152604090205460ff1681565b3480156109c057600080fd5b5060025461063990600160381b90046001600160a01b031681565b3480156109e757600080fd5b506104cb6109f6366004613fa7565b612a98565b348015610a0757600080fd5b50610324612ba2565b610a18612c9f565b60ff838116600884901b68ffffffffffffffff0016176000818152600660209081526040808320868452909152808220815160808101909252805493949293919290918391166004811115610a6f57610a6f613e39565b6004811115610a8057610a80613e39565b8152905461010081046001600160c81b03166020830152600160d01b810460ff166040830152600160d81b900464ffffffffff1660609091015280519091506001816004811115610ad357610ad3613e39565b1480610af057506002816004811115610aee57610aee613e39565b145b610b415760405162461bcd60e51b815260206004820152601c60248201527f50726f706f73616c2063616e6e6f742062652063616e63656c6c65640000000060448201526064015b60405180910390fd5b600254606083015164ffffffffff62010000909204821691610b6591439116612d23565b64ffffffffff1611610bb95760405162461bcd60e51b815260206004820181905260248201527f50726f706f73616c206e6f7420617420657870697279207468726573686f6c646044820152606401610b38565b60048083526001600160481b03841660009081526006602090815260408083208884529091529020835181548593839160ff1916906001908490811115610c0257610c02613e39565b02179055506020820151815460408085015160609095015164ffffffffff16600160d81b026001600160d81b0360ff909616600160d01b0260ff60d01b196001600160c81b039095166101000294909416610100600160d81b03199093169290921792909217939093169290921790555160008051602061440e83398151915290610c9590889088906004908990614041565b60405180910390a1505050505050565b610cad612d65565b610cb5612dcb565b60008281526004602090815260408083205490516001600160a01b039091169268ffffffffffffffff0060088a901b1660ff8b1617929091610cfd9185918a918a9101614076565b60408051601f1981840301815291815281516020928301206001600160481b03851660009081526006845282812082825290935291209091506002815460ff166004811115610d4e57610d4e613e39565b14610d9b5760405162461bcd60e51b815260206004820181905260248201527f50726f706f73616c206d757374206861766520506173736564207374617475736044820152606401610b38565b805460ff19166003178155838515610e145760405163712467f960e11b81526001600160a01b0382169063e248cff290610ddd908a908d908d906004016140cb565b600060405180830381600087803b158015610df757600080fd5b505af1158015610e0b573d6000803e3d6000fd5b50505050610ef1565b60405163712467f960e11b81526001600160a01b0382169063e248cff290610e44908a908d908d906004016140cb565b600060405180830381600087803b158015610e5e57600080fd5b505af1925050508015610e6f575060015b610ef1573d808015610e9d576040519150601f19603f3d011682016040523d82523d6000602084013e610ea2565b606091505b50825460ff191660021783556040517fbd37c1f0d53bb2f33fe4c2104de272fcdeb4d2fef3acdbf1e4ddc3d6833ca37690610ede908390614141565b60405180910390a1505050505050610f23565b60008051602061440e8339815191528b8b600386604051610f159493929190614041565b60405180910390a150505050505b505050505050565b600082815260016020526040902060020154610f49906106ec612e11565b610fad5760405162461bcd60e51b815260206004820152602f60248201527f416363657373436f6e74726f6c3a2073656e646572206d75737420626520616e60448201526e0818591b5a5b881d1bc819dc985b9d608a1b6064820152608401610b38565b610fb78282612e52565b5050565b610fc3612e11565b6001600160a01b0316816001600160a01b03161461103b5760405162461bcd60e51b815260206004820152602f60248201527f416363657373436f6e74726f6c3a2063616e206f6e6c792072656e6f756e636560448201526e103937b632b9903337b91039b2b63360891b6064820152608401610b38565b610fb78282612ebb565b61104d612f24565b60005b838110156110e25784848281811061106a5761106a614154565b905060200201602081019061107f9190613a19565b6001600160a01b03166108fc84848481811061109d5761109d614154565b905060200201359081150290604051600060405180830381858888f193505050501580156110cf573d6000803e3d6000fd5b50806110da81614180565b915050611050565b5050505050565b6110f1612f24565b6110fa81612bba565b6002805460ff929092166101000261ff00199092169190911790556040518181527fa20d6b84cd798a24038be305eff8a45ca82ef54a2aa2082005d8e14c0a4746c8906020015b60405180910390a150565b60008281526001602081815260408084206001600160a01b038616855290920190529020545b92915050565b600061117260008051602061442e83398151915283611f57565b61119a612f24565b60008581526004602081905260409182902080546001600160a01b0319166001600160a01b038a8116918217909255925163de319d9960e01b8152918201889052861660248201526001600160e01b03198086166044830152606482018590528316608482015287919063de319d999060a401600060405180830381600087803b15801561122757600080fd5b505af115801561123b573d6000803e3d6000fd5b5050505050505050505050565b611250612f24565b600061125a612e11565b9050816001600160a01b0316816001600160a01b031614156112be5760405162461bcd60e51b815260206004820152601760248201527f43616e6e6f742072656e6f756e6365206f6e6573656c660000000000000000006044820152606401610b38565b6112c9600083610f2b565b610fb7600082610fbb565b6112dc612f24565b60405163ab5c7bf160e01b815282906001600160a01b0382169063ab5c7bf19061130a908590600401614141565b600060405180830381600087803b15801561132457600080fd5b505af1158015611338573d6000803e3d6000fd5b50505050505050565b611349612dcb565b60008481526004602090815260408083205490516001600160a01b039091169268ffffffffffffffff0060088a901b1660ff8b16179290916113919185918991899101614076565b60408051601f1981840301815282825280516020918201206001600160481b03861660009081526006835283812082825290925282822060808501909352825490945090929190829060ff1660048111156113ee576113ee613e39565b60048111156113ff576113ff613e39565b8152905461010081046001600160c81b0316602080840191909152600160d01b820460ff16604080850191909152600160d81b90920464ffffffffff1660609093019290925260008b815260049092529020549091506001600160a01b03166114a65760405162461bcd60e51b81526020600482015260196024820152781b9bc81a185b991b195c88199bdc881c995cdbdd5c98d95251603a1b6044820152606401610b38565b60005b85518110156118e5576002825160048111156114c7576114c7613e39565b1415611563576003825260405163712467f960e11b815285906001600160a01b0382169063e248cff290611503908d908d908d906004016140cb565b600060405180830381600087803b15801561151d57600080fd5b505af1158015611531573d6000803e3d6000fd5b5050505060008051602061440e8339815191528c8c6003876040516115599493929190614041565b60405180910390a1505b60007fc4cb5d35714699d6e85b9562b644e60393b418d974a5c1dd8efaadac37a142c58c8c8c8c8c60405161159992919061419b565b6040519081900381206115dc959493929160200194855260ff9390931660208501526001600160401b039190911660408401526060830152608082015260a00190565b60405160208183030381529060405280519060200120905060006115ff82612f7d565b90506000611626828a868151811061161957611619614154565b6020026020010151612fcb565b905061164060008051602061442e83398151915282611f57565b61166f5760405163b4d8a3a160e01b81526001600160a01b038216600482015260248101859052604401610b38565b8451600190600481111561168557611685613e39565b11156116a35760405162461bcd60e51b8152600401610b38906141ab565b6116ad8582612fef565b156116f25760405162461bcd60e51b81526020600482015260156024820152741c995b185e595c88185b1c9958591e481d9bdd1959605a1b6044820152606401610b38565b60008551600481111561170757611707613e39565b1415611778576040805160808101909152806001815260200160006001600160c81b03168152602001600060ff1681526020014364ffffffffff16815250945060008051602061440e8339815191528e8e60018960405161176b9493929190614041565b60405180910390a16117de565b600254606086015164ffffffffff6201000090920482169161179c91439116612d23565b64ffffffffff1611156117de57600485818152505060008051602061440e8339815191528e8e6004896040516117d59493929190614041565b60405180910390a15b6004855160048111156117f3576117f3613e39565b146118cf5761181861180482613012565b86602001516001600160c81b031617613040565b6001600160c81b0316602086015260408501805190611836826141ee565b60ff1660ff16815250507f25f8daaa4635a7729927ba3f5b3d59cc3320aca7c32c9db4e7ca7b95743436408e8e8760000151896040516118799493929190614041565b60405180910390a1600254604086015160ff61010090920482169116106118cf57600285818152505060008051602061440e8339815191528e8e6002896040516118c69493929190614041565b60405180910390a15b50505080806118dd90614180565b9150506114a9565b506002815160048111156118fb576118fb613e39565b1415611997576003815260405163712467f960e11b815284906001600160a01b0382169063e248cff290611937908c908c908c906004016140cb565b600060405180830381600087803b15801561195157600080fd5b505af1158015611965573d6000803e3d6000fd5b5050505060008051602061440e8339815191528b8b60038660405161198d9493929190614041565b60405180910390a1505b6001600160481b038316600090815260066020908152604080832085845290915290208151815483929190829060ff191660018360048111156119dc576119dc613e39565b021790555060208201518154604084015160609094015164ffffffffff16600160d81b026001600160d81b0360ff909516600160d01b0260ff60d01b196001600160c81b039094166101000293909316610100600160d81b031990921691909117919091179290921691909117905550505050505050505050565b611a5f612dcb565b6000611a69612e11565b6002549091503490600160381b90046001600160a01b031615611ba15760025460405163ef4f081f60e01b81526000916001600160a01b03600160381b8204169163ef4f081f91611ace91879160ff16908e908e908e908e908e908e9060040161420e565b6040805180830381865afa158015611aea573d6000803e3d6000fd5b505050506040513d601f19601f82011682018060405250810190611b0e919061425b565b5090508015611b9f57600254604051632530706560e01b81526001600160a01b03600160381b830416916325307065918491611b5e91889160ff16908f908f908f908f908f908f9060040161420e565b6000604051808303818588803b158015611b7757600080fd5b505af1158015611b8b573d6000803e3d6000fd5b50505050508082611b9c9190614280565b91505b505b6000878152600460205260409020546001600160a01b031680611bd7576040516308c231dd60e31b815260040160405180910390fd5b60ff8916600090815260036020526040812080548290611bff906001600160401b0316614297565b91906101000a8154816001600160401b0302191690836001600160401b031602179055905060008290506000816001600160a01b031663b07e54bb868d898e8e6040518663ffffffff1660e01b8152600401611c5e94939291906142be565b60006040518083038185885af1158015611c7c573d6000803e3d6000fd5b50505050506040513d6000823e601f3d908101601f19168201604052611ca591908101906142e9565b9050856001600160a01b03167f17bc3181e17a9620a479c24e6c606e474ba84fc036877b768926872e8cd0e11f8d8d868e8e87604051611cea96959493929190614356565b60405180910390a2505050505050505050505050565b611d08612f24565b611d1181612c11565b6002806101000a81548164ffffffffff021916908364ffffffffff16021790555050565b6001600160481b03831660009081526006602090815260408083208584529091528082208151608081019092528054611dd1929190829060ff166004811115611d8057611d80613e39565b6004811115611d9157611d91613e39565b8152905461010081046001600160c81b03166020830152600160d01b810460ff166040830152600160d81b900464ffffffffff1660609091015283612fef565b949350505050565b6000611df260008051602061442e833981519152612721565b905090565b611dff612f24565b611e0f611e0a612e11565b613095565b565b611e19612f24565b60008381526004602081905260409182902054915163789d771160e01b81526001600160a01b03858116928201929092528315156024820152911690819063789d7711906044015b600060405180830381600087803b158015611e7b57600080fd5b505af1158015611e8f573d6000803e3d6000fd5b5050505050505050565b611ea1612f24565b60028054670100000000000000600160d81b031916600160381b6001600160a01b038416908102919091179091556040519081527f729170bd142e4965055b26a285faeedf03baf2b915bfc5a7c75d24b45815ff2c90602001611141565b611f07612f24565b6040516307b7ed9960e01b81526001600160a01b0382811660048301528391908216906307b7ed999060240161130a565b6000828152600160205260408120611f5090836130e3565b9392505050565b6000828152600160205260408120611f509083612c7d565b600080611f7a612e11565b600254909150600160381b90046001600160a01b0316156120285760025460405163ef4f081f60e01b81526000916001600160a01b03600160381b8204169163ef4f081f91611fdd91869160ff16908e908e908e908e908e908e9060040161420e565b6040805180830381865afa158015611ff9573d6000803e3d6000fd5b505050506040513d601f19601f8201168201806040525081019061201d919061425b565b50925061202e915050565b60009150505b9695505050505050565b612040612f24565b61205860008051602061442e83398151915282612875565b6040516001600160a01b03821681527f10e1f7ce9fd7d1b90a66d13a2ab3cb8dd7f29f3f8d520b143b063ccfbab6906b90602001611141565b612099612f24565b6002805460ff191660ff92909216919091179055565b60408051608081018252600080825260208201819052918101829052606081019190915260ff848116600885901b68ffffffffffffffff0016176000818152600660209081526040808320878452909152908190208151608081019092528054929391929091839116600481111561212957612129613e39565b600481111561213a5761213a613e39565b8152905461010081046001600160c81b03166020830152600160d01b810460ff166040830152600160d81b900464ffffffffff1660609091015295945050505050565b612185612f24565b60405163025a3c9960e21b815282906001600160a01b03821690630968f2649061130a908590600401614141565b6121bb612d65565b6121c3612dcb565b60008381526004602090815260408083205490516001600160a01b039091169268ffffffffffffffff00600889901b1660ff8a161792909161220b9185918891889101614076565b60408051601f1981840301815282825280516020918201206001600160481b03861660009081526006835283812082825290925282822060808501909352825490945090929190829060ff16600481111561226857612268613e39565b600481111561227957612279613e39565b8152905461010081046001600160c81b0316602080840191909152600160d01b820460ff16604080850191909152600160d81b90920464ffffffffff1660609093019290925260008a815260049092529020549091506001600160a01b03166123205760405162461bcd60e51b81526020600482015260196024820152781b9bc81a185b991b195c88199bdc881c995cdbdd5c98d95251603a1b6044820152606401610b38565b60028151600481111561233557612335613e39565b14156123535761234a898988888b6001610ca5565b505050506110e2565b600061235d612e11565b905060018260000151600481111561237757612377613e39565b11156123955760405162461bcd60e51b8152600401610b38906141ab565b61239f8282612fef565b156123e45760405162461bcd60e51b81526020600482015260156024820152741c995b185e595c88185b1c9958591e481d9bdd1959605a1b6044820152606401610b38565b6000825160048111156123f9576123f9613e39565b1415612459576040805160808101825260018082526000602083018190528284015264ffffffffff43166060830152915190935060008051602061440e8339815191529161244c918d918d918890614041565b60405180910390a16124ba565b600254606083015164ffffffffff6201000090920482169161247d91439116612d23565b64ffffffffff1611156124ba57600480835260405160008051602061440e833981519152916124b1918d918d918890614041565b60405180910390a15b6004825160048111156124cf576124cf613e39565b1461259f576124f46124e082613012565b83602001516001600160c81b031617613040565b6001600160c81b0316602083015260408201805190612512826141ee565b60ff1690525081516040517f25f8daaa4635a7729927ba3f5b3d59cc3320aca7c32c9db4e7ca7b95743436409161254e918d918d918890614041565b60405180910390a1600254604083015160ff610100909204821691161061259f57600280835260405160008051602061440e83398151915291612596918d918d918890614041565b60405180910390a15b6001600160481b038416600090815260066020908152604080832086845290915290208251815484929190829060ff191660018360048111156125e4576125e4613e39565b021790555060208201518154604084015160609094015164ffffffffff16600160d81b026001600160d81b0360ff909516600160d01b0260ff60d01b196001600160c81b039094166101000293909316610100600160d81b031990921691909117919091179290921691909117905560028251600481111561266857612668613e39565b141561267d5761267d8a8a89898c6000610ca5565b50505050505050505050565b600254600090600160381b90046001600160a01b03161561271b57600260079054906101000a90046001600160a01b03166001600160a01b031663c5b37c226040518163ffffffff1660e01b8152600401602060405180830381865afa1580156126f7573d6000803e3d6000fd5b505050506040513d601f19601f82011682018060405250810190611df291906143a7565b50600090565b6000818152600160205260408120611172906130ef565b612740612f24565b60008281526004602081905260409182902080546001600160a01b0319166001600160a01b038781169182179092559251635c7d1b9b60e11b81529182018590528316602482015284919063b8fa373690604401611e61565b6127a1612f24565b60c86127ab611dd9565b106127f15760405162461bcd60e51b81526020600482015260166024820152751c995b185e595c9cc81b1a5b5a5d081c995858da195960521b6044820152606401610b38565b61280960008051602061442e83398151915282610f2b565b6040516001600160a01b03821681527f03580ee9f53a62b7cb409a2cb56f9be87747dd15017afc5cef6eef321e4fb2c590602001611141565b61284a612f24565b6001600160a01b03919091166000908152600560205260409020805460ff1916911515919091179055565b600082815260016020526040902060020154612893906106ec612e11565b61103b5760405162461bcd60e51b815260206004820152603060248201527f416363657373436f6e74726f6c3a2073656e646572206d75737420626520616e60448201526f2061646d696e20746f207265766f6b6560801b6064820152608401610b38565b612900612f24565b60025460019060009060ff16612918836101006143c0565b61292291906143df565b60008181526004602081905260409182902080546001600160a01b0319166001600160a01b038881169182179092559251635c7d1b9b60e11b815291820184905285166024820152919250849163b8fa373690604401600060405180830381600087803b15801561299257600080fd5b505af11580156129a6573d6000803e3d6000fd5b505060405163789d771160e01b81526001600160a01b038681166004830152600160248301528416925063789d77119150604401611e61565b6129e7612f24565b60ff82166000908152600360205260409020546001600160401b0390811690821611612a645760405162461bcd60e51b815260206004820152602660248201527f446f6573206e6f7420616c6c6f772064656372656d656e7473206f6620746865604482015265206e6f6e636560d01b6064820152608401610b38565b60ff919091166000908152600360205260409020805467ffffffffffffffff19166001600160401b03909216919091179055565b6000807fc4cb5d35714699d6e85b9562b644e60393b418d974a5c1dd8efaadac37a142c58989898989604051612acf92919061419b565b604051908190038120612b12959493929160200194855260ff9390931660208501526001600160401b039190911660408401526060830152608082015260a00190565b6040516020818303038152906040528051906020012090506000612b3582612f7d565b90506000612b798287878080601f016020809104026020016040519081016040528093929190818152602001838380828437600092019190915250612fcb92505050565b9050612b9360008051602061442e83398151915282611f57565b9b9a5050505050505050505050565b612baa612f24565b611e0f612bb5612e11565b6130f9565b60006101008210612c0d5760405162461bcd60e51b815260206004820152601c60248201527f76616c756520646f6573206e6f742066697420696e20382062697473000000006044820152606401610b38565b5090565b6000650100000000008210612c0d5760405162461bcd60e51b815260206004820152601d60248201527f76616c756520646f6573206e6f742066697420696e20343020626974730000006044820152606401610b38565b6000611f50836001600160a01b038416613144565b6001600160a01b03811660009081526001830160205260408120541515611f50565b6000612ca9612e11565b9050612cb6600082611f57565b80612cd45750612cd460008051602061442e83398151915282611f57565b612d205760405162461bcd60e51b815260206004820152601e60248201527f73656e646572206973206e6f742072656c61796572206f722061646d696e00006044820152606401610b38565b50565b6000611f5083836040518060400160405280601e81526020017f536166654d6174683a207375627472616374696f6e206f766572666c6f770000815250613193565b612d7f60008051602061442e8339815191526106ec612e11565b611e0f5760405162461bcd60e51b815260206004820181905260248201527f73656e64657220646f65736e277420686176652072656c6179657220726f6c656044820152606401610b38565b60005460ff1615611e0f5760405162461bcd60e51b815260206004820152601060248201526f14185d5cd8589b194e881c185d5cd95960821b6044820152606401610b38565b60003360143610801590612e3d57506001600160a01b03811660009081526005602052604090205460ff165b15612e4d575060131936013560601c5b919050565b6000828152600160205260409020612e6a9082612c68565b15610fb757612e77612e11565b6001600160a01b0316816001600160a01b0316837f2f8788117e7eff1d82e926ec794901d17c78024a50270940304540a733656f0d60405160405180910390a45050565b6000828152600160205260409020612ed390826131cd565b15610fb757612ee0612e11565b6001600160a01b0316816001600160a01b0316837ff6391f5c32d9c69d2a47ea670b442974b53935d1edc7fd64eb21e047a839171b60405160405180910390a45050565b612f3160006106ec612e11565b611e0f5760405162461bcd60e51b815260206004820152601e60248201527f73656e64657220646f65736e277420686176652061646d696e20726f6c6500006044820152606401610b38565b6000611172612f8a6131e2565b8360405161190160f01b6020820152602281018390526042810182905260009060620160405160208183030381529060405280519060200120905092915050565b6000806000612fda8585613309565b91509150612fe781613379565b509392505050565b60008083602001516001600160c81b031661300984613012565b16119392505050565b600061303661302f60008051602061442e8339815191528461114c565b6001612d23565b6001901b92915050565b6000600160c81b8210612c0d5760405162461bcd60e51b815260206004820152601e60248201527f76616c756520646f6573206e6f742066697420696e20323030206269747300006044820152606401610b38565b61309d612dcb565b6000805460ff191660011790556040516001600160a01b03821681527f62e78cea01bee320cd4e420270b5ea74000d11b0c9f74754ebdbfc544b05a25890602001611141565b6000611f508383613534565b6000611172825490565b61310161355e565b6000805460ff191690556040516001600160a01b03821681527f5db9ee0a495bf2e6ff9c91a7834c1ba4fdd244a5e8aa4e537bd38aeae4b073aa90602001611141565b600081815260018301602052604081205461318b57508154600181810184556000848152602080822090930184905584548482528286019093526040902091909155611172565b506000611172565b600081848411156131b75760405162461bcd60e51b8152600401610b389190614141565b5060006131c48486614280565b95945050505050565b6000611f50836001600160a01b0384166135a7565b6000306001600160a01b037f00000000000000000000000000000000000000000000000000000000000000001614801561323b57507f000000000000000000000000000000000000000000000000000000000000000046145b1561326557507f000000000000000000000000000000000000000000000000000000000000000090565b50604080517f00000000000000000000000000000000000000000000000000000000000000006020808301919091527f0000000000000000000000000000000000000000000000000000000000000000828401527f000000000000000000000000000000000000000000000000000000000000000060608301524660808301523060a0808401919091528351808403909101815260c0909201909252805191012090565b6000808251604114156133405760208301516040840151606085015160001a6133348782858561369a565b94509450505050613372565b82516040141561336a576020830151604084015161335f868383613787565b935093505050613372565b506000905060025b9250929050565b600081600481111561338d5761338d613e39565b14156133965750565b60018160048111156133aa576133aa613e39565b14156133f85760405162461bcd60e51b815260206004820152601860248201527f45434453413a20696e76616c6964207369676e617475726500000000000000006044820152606401610b38565b600281600481111561340c5761340c613e39565b141561345a5760405162461bcd60e51b815260206004820152601f60248201527f45434453413a20696e76616c6964207369676e6174757265206c656e677468006044820152606401610b38565b600381600481111561346e5761346e613e39565b14156134c75760405162461bcd60e51b815260206004820152602260248201527f45434453413a20696e76616c6964207369676e6174757265202773272076616c604482015261756560f01b6064820152608401610b38565b60048160048111156134db576134db613e39565b1415612d205760405162461bcd60e51b815260206004820152602260248201527f45434453413a20696e76616c6964207369676e6174757265202776272076616c604482015261756560f01b6064820152608401610b38565b600082600001828154811061354b5761354b614154565b9060005260206000200154905092915050565b60005460ff16611e0f5760405162461bcd60e51b815260206004820152601460248201527314185d5cd8589b194e881b9bdd081c185d5cd95960621b6044820152606401610b38565b600081815260018301602052604081205480156136905760006135cb600183614280565b85549091506000906135df90600190614280565b90508181146136445760008660000182815481106135ff576135ff614154565b906000526020600020015490508087600001848154811061362257613622614154565b6000918252602080832090910192909255918252600188019052604090208390555b8554869080613655576136556143f7565b600190038181906000526020600020016000905590558560010160008681526020019081526020016000206000905560019350505050611172565b6000915050611172565b6000807f7fffffffffffffffffffffffffffffff5d576e7357a4501ddfe92f46681b20a08311156136d1575060009050600361377e565b8460ff16601b141580156136e957508460ff16601c14155b156136fa575060009050600461377e565b6040805160008082526020820180845289905260ff881692820192909252606081018690526080810185905260019060a0016020604051602081039080840390855afa15801561374e573d6000803e3d6000fd5b5050604051601f1901519150506001600160a01b0381166137775760006001925092505061377e565b9150600090505b94509492505050565b6000806001600160ff1b038316816137a460ff86901c601b6143df565b90506137b28782888561369a565b935093505050935093915050565b803560ff81168114612e4d57600080fd5b80356001600160401b0381168114612e4d57600080fd5b6000806000606084860312156137fd57600080fd5b613806846137c0565b9250613814602085016137d1565b9150604084013590509250925092565b60008083601f84011261383657600080fd5b5081356001600160401b0381111561384d57600080fd5b60208301915083602082850101111561337257600080fd5b80358015158114612e4d57600080fd5b60008060008060008060a0878903121561388e57600080fd5b613897876137c0565b95506138a5602088016137d1565b945060408701356001600160401b038111156138c057600080fd5b6138cc89828a01613824565b909550935050606087013591506138e560808801613865565b90509295509295509295565b60006020828403121561390357600080fd5b5035919050565b6001600160a01b0381168114612d2057600080fd5b6000806040838503121561393257600080fd5b8235915060208301356139448161390a565b809150509250929050565b60008083601f84011261396157600080fd5b5081356001600160401b0381111561397857600080fd5b6020830191508360208260051b850101111561337257600080fd5b600080600080604085870312156139a957600080fd5b84356001600160401b03808211156139c057600080fd5b6139cc8883890161394f565b909650945060208701359150808211156139e557600080fd5b506139f28782880161394f565b95989497509550505050565b600060208284031215613a1057600080fd5b611f50826137c0565b600060208284031215613a2b57600080fd5b8135611f508161390a565b80356001600160e01b031981168114612e4d57600080fd5b60008060008060008060c08789031215613a6757600080fd5b8635613a728161390a565b9550602087013594506040870135613a898161390a565b9350613a9760608801613a36565b9250608087013591506138e560a08801613a36565b634e487b7160e01b600052604160045260246000fd5b604051601f8201601f191681016001600160401b0381118282101715613aea57613aea613aac565b604052919050565b60006001600160401b03821115613b0b57613b0b613aac565b50601f01601f191660200190565b600082601f830112613b2a57600080fd5b8135613b3d613b3882613af2565b613ac2565b818152846020838601011115613b5257600080fd5b816020850160208301376000918101602001919091529392505050565b60008060408385031215613b8257600080fd5b8235613b8d8161390a565b915060208301356001600160401b03811115613ba857600080fd5b613bb485828601613b19565b9150509250929050565b60008060008060008060a08789031215613bd757600080fd5b613be0876137c0565b95506020613bef8189016137d1565b95506040880135945060608801356001600160401b0380821115613c1257600080fd5b613c1e8b838c01613824565b909650945060808a0135915080821115613c3757600080fd5b818a0191508a601f830112613c4b57600080fd5b813581811115613c5d57613c5d613aac565b8060051b613c6c858201613ac2565b918252838101850191858101908e841115613c8657600080fd5b86860192505b83831015613cc0578483351115613ca257600080fd5b613cb18f888535890101613b19565b82529186019190860190613c8c565b809750505050505050509295509295509295565b60008060008060008060808789031215613ced57600080fd5b613cf6876137c0565b95506020870135945060408701356001600160401b0380821115613d1957600080fd5b613d258a838b01613824565b90965094506060890135915080821115613d3e57600080fd5b50613d4b89828a01613824565b979a9699509497509295939492505050565b600080600060608486031215613d7257600080fd5b83356001600160481b0381168114613d8957600080fd5b9250602084013591506040840135613da08161390a565b809150509250925092565b600080600060608486031215613dc057600080fd5b833592506020840135613dd28161390a565b9150613de060408501613865565b90509250925092565b60008060408385031215613dfc57600080fd5b8235613e078161390a565b915060208301356139448161390a565b60008060408385031215613e2a57600080fd5b50508035926020909101359150565b634e487b7160e01b600052602160045260246000fd5b60058110613e6d57634e487b7160e01b600052602160045260246000fd5b9052565b6000608082019050613e84828451613e4f565b60018060c81b03602084015116602083015260ff604084015116604083015264ffffffffff606084015116606083015292915050565b600080600080600060808688031215613ed257600080fd5b613edb866137c0565b9450613ee9602087016137d1565b93506040860135925060608601356001600160401b03811115613f0b57600080fd5b613f1788828901613824565b969995985093965092949392505050565b600080600060608486031215613f3d57600080fd5b8335613d898161390a565b60008060408385031215613f5b57600080fd5b8235613f668161390a565b9150613f7460208401613865565b90509250929050565b60008060408385031215613f9057600080fd5b613f99836137c0565b9150613f74602084016137d1565b600080600080600080600060a0888a031215613fc257600080fd5b613fcb886137c0565b9650613fd9602089016137d1565b95506040880135945060608801356001600160401b0380821115613ffc57600080fd5b6140088b838c01613824565b909650945060808a013591508082111561402157600080fd5b5061402e8a828b01613824565b989b979a50959850939692959293505050565b60ff851681526001600160401b0384166020820152608081016140676040830185613e4f565b82606083015295945050505050565b6bffffffffffffffffffffffff198460601b168152818360148301376000910160140190815292915050565b81835281816020850137506000828201602090810191909152601f909101601f19169091010190565b8381526040602082015260006131c46040830184866140a2565b60005b838110156141005781810151838201526020016140e8565b8381111561410f576000848401525b50505050565b6000815180845261412d8160208601602086016140e5565b601f01601f19169290920160200192915050565b602081526000611f506020830184614115565b634e487b7160e01b600052603260045260246000fd5b634e487b7160e01b600052601160045260246000fd5b60006000198214156141945761419461416a565b5060010190565b8183823760009101908152919050565b60208082526023908201527f70726f706f73616c20616c72656164792065786563757465642f63616e63656c6040820152621b195960ea1b606082015260800190565b600060ff821660ff8114156142055761420561416a565b60010192915050565b60018060a01b038916815260ff8816602082015260ff8716604082015285606082015260c06080820152600061424860c0830186886140a2565b82810360a0840152612b938185876140a2565b6000806040838503121561426e57600080fd5b8251915060208301516139448161390a565b6000828210156142925761429261416a565b500390565b60006001600160401b03808316818114156142b4576142b461416a565b6001019392505050565b8481526001600160a01b038416602082015260606040820181905260009061202e90830184866140a2565b6000602082840312156142fb57600080fd5b81516001600160401b0381111561431157600080fd5b8201601f8101841361432257600080fd5b8051614330613b3882613af2565b81815285602083850101111561434557600080fd5b6131c48260208301602086016140e5565b60ff871681528560208201526001600160401b038516604082015260a06060820152600061438860a0830185876140a2565b828103608084015261439a8185614115565b9998505050505050505050565b6000602082840312156143b957600080fd5b5051919050565b60008160001904831182151516156143da576143da61416a565b500290565b600082198211156143f2576143f261416a565b500190565b634e487b7160e01b600052603160045260246000fdfe968626a768e76ba1363efe44e322a6c4900c5f084e0b45f35e294dfddaa9e0d5e2b7fb3b832174769106daebcfd6d1970523240dda11281102db9363b83b0dc4a2646970667358221220ddda1cef0b9dc1e2bbd7529d88edfb92e5368fbc7c35fefe037897f9874bd85c64736f6c634300080b0033",
  "linkReferences": {},
  "deployedLinkReferences": {}
}