{
  "_format": "hh-sol-artifact-1",
  "contractName": "Bridge",
  "sourceName": "contracts/Bridge.sol",
  "abi": [
    {
      "inputs": [
        {
          "internalType": "uint8",
          "name": "domainID",
          "type": "uint8"
        },
        {
          "internalType": "address[]",
          "name": "initialRelayers",
          "type": "address[]"
        },
        {
          "internalType": "uint256",
          "name": "initialRelayerThreshold",
          "type": "uint256"
        },
        {
          "internalType": "uint256",
          "name": "expiry",
          "type": "uint256"
        }
      ],
      "stateMutability": "nonpayable",
      "type": "constructor"
    },
    {
      "inputs": [
        {
          "internalType": "uint256",
          "name": "msgValue",
          "type": "uint256"
        },
        {
          "internalType": "uint256",
          "name": "fee",
          "type": "uint256"
        }
      ],
      "name": "IncorrectFeeSupplied",
      "type": "error"
    },
    {
      "inputs": [
        {
          "internalType": "address",
          "name": "signer",
          "type": "address"
        },
        {
          "internalType": "uint256",
          "name": "index",
          "type": "uint256"
        }
      ],
      "name": "InvalidSignature",
      "type": "error"
    },
    {
      "inputs": [],
      "name": "ResourceIDNotMappedToHandler",
      "type": "error"
    },
    {
      "anonymous": false,
      "inputs": [
        {
          "indexed": false,
          "internalType": "uint8",
          "name": "destinationDomainID",
          "type": "uint8"
        },
        {
          "indexed": false,
          "internalType": "bytes32",
          "name": "resourceID",
          "type": "bytes32"
        },
        {
          "indexed": false,
          "internalType": "uint64",
          "name": "depositNonce",
          "type": "uint64"
        },
        {
          "indexed": true,
          "internalType": "address",
          "name": "user",
          "type": "address"
        },
        {
          "indexed": false,
          "internalType": "bytes",
          "name": "data",
          "type": "bytes"
        },
        {
          "indexed": false,
          "internalType": "bytes",
          "name": "handlerResponse",
          "type": "bytes"
        }
      ],
      "name": "Deposit",
      "type": "event"
    },
    {
      "anonymous": false,
      "inputs": [
        {
          "indexed": false,
          "internalType": "bytes",
          "name": "lowLevelData",
          "type": "bytes"
        }
      ],
      "name": "FailedHandlerExecution",
      "type": "event"
    },
    {
      "anonymous": false,
      "inputs": [
        {
          "indexed": false,
          "internalType": "uint256",
          "name": "newFee",
          "type": "uint256"
        }
      ],
      "name": "FeeChanged",
      "type": "event"
    },
    {
      "anonymous": false,
      "inputs": [
        {
          "indexed": false,
          "internalType": "address",
          "name": "tokenAddress",
          "type": "address"
        },
        {
          "indexed": false,
          "internalType": "address",
          "name": "recipient",
          "type": "address"
        },
        {
          "indexed": false,
          "internalType": "uint256",
          "name": "amount",
          "type": "uint256"
        }
      ],
      "name": "FeeDistributed",
      "type": "event"
    },
    {
      "anonymous": false,
      "inputs": [
        {
          "indexed": false,
          "internalType": "address",
          "name": "newFeeHandler",
          "type": "address"
        }
      ],
      "name": "FeeHandlerChanged",
      "type": "event"
    },
    {
      "anonymous": false,
      "inputs": [
        {
          "indexed": false,
          "internalType": "address",
          "name": "account",
          "type": "address"
        }
      ],
      "name": "Paused",
      "type": "event"
    },
    {
      "anonymous": false,
      "inputs": [
        {
          "indexed": false,
          "internalType": "uint8",
          "name": "originDomainID",
          "type": "uint8"
        },
        {
          "indexed": false,
          "internalType": "uint64",
          "name": "depositNonce",
          "type": "uint64"
        },
        {
          "indexed": false,
          "internalType": "enum IBridge.ProposalStatus",
          "name": "status",
          "type": "uint8"
        },
        {
          "indexed": false,
          "internalType": "bytes32",
          "name": "dataHash",
          "type": "bytes32"
        }
      ],
      "name": "ProposalEvent",
      "type": "event"
    },
    {
      "anonymous": false,
      "inputs": [
        {
          "indexed": false,
          "internalType": "uint8",
          "name": "originDomainID",
          "type": "uint8"
        },
        {
          "indexed": false,
          "internalType": "uint64",
          "name": "depositNonce",
          "type": "uint64"
        },
        {
          "indexed": false,
          "internalType": "enum IBridge.ProposalStatus",
          "name": "status",
          "type": "uint8"
        },
        {
          "indexed": false,
          "internalType": "bytes32",
          "name": "dataHash",
          "type": "bytes32"
        }
      ],
      "name": "ProposalVote",
      "type": "event"
    },
    {
      "anonymous": false,
      "inputs": [
        {
          "indexed": false,
          "internalType": "address",
          "name": "relayer",
          "type": "address"
        }
      ],
      "name": "RelayerAdded",
      "type": "event"
    },
    {
      "anonymous": false,
      "inputs": [
        {
          "indexed": false,
          "internalType": "address",
          "name": "relayer",
          "type": "address"
        }
      ],
      "name": "RelayerRemoved",
      "type": "event"
    },
    {
      "anonymous": false,
      "inputs": [
        {
          "indexed": false,
          "internalType": "uint256",
          "name": "newThreshold",
          "type": "uint256"
        }
      ],
      "name": "RelayerThresholdChanged",
      "type": "event"
    },
    {
      "anonymous": false,
      "inputs": [
        {
          "indexed": true,
          "internalType": "bytes32",
          "name": "role",
          "type": "bytes32"
        },
        {
          "indexed": true,
          "internalType": "address",
          "name": "account",
          "type": "address"
        },
        {
          "indexed": true,
          "internalType": "address",
          "name": "sender",
          "type": "address"
        }
      ],
      "name": "RoleGranted",
      "type": "event"
    },
    {
      "anonymous": false,
      "inputs": [
        {
          "indexed": true,
          "internalType": "bytes32",
          "name": "role",
          "type": "bytes32"
        },
        {
          "indexed": true,
          "internalType": "address",
          "name": "account",
          "type": "address"
        },
        {
          "indexed": true,
          "internalType": "address",
          "name": "sender",
          "type": "address"
        }
      ],
      "name": "RoleRevoked",
      "type": "event"
    },
    {
      "anonymous": false,
      "inputs": [
        {
          "indexed": false,
          "internalType": "address",
          "name": "account",
          "type": "address"
        }
      ],
      "name": "Unpaused",
      "type": "event"
    },
    {
      "inputs": [],
      "name": "DEFAULT_ADMIN_ROLE",
      "outputs": [
        {
          "internalType": "bytes32",
          "name": "",
          "type": "bytes32"
        }
      ],
      "stateMutability": "view",
      "type": "function"
    },
    {
      "inputs": [],
      "name": "MAX_RELAYERS",
      "outputs": [
        {
          "internalType": "uint256",
          "name": "",
          "type": "uint256"
        }
      ],
      "stateMutability": "view",
      "type": "function"
    },
    {
      "inputs": [],
      "name": "PERMIT_TYPEHASH",
      "outputs": [
        {
          "internalType": "bytes32",
          "name": "",
          "type": "bytes32"
        }
      ],
      "stateMutability": "view",
      "type": "function"
    },
    {
      "inputs": [],
      "name": "RELAYER_ROLE",
      "outputs": [
        {
          "internalType": "bytes32",
          "name": "",
          "type": "bytes32"
        }
      ],
      "stateMutability": "view",
      "type": "function"
    },
    {
      "inputs": [],
      "name": "_chainId",
      "outputs": [
        {
          "internalType": "uint256",
          "name": "",
          "type": "uint256"
        }
      ],
      "stateMutability": "view",
      "type": "function"
    },
    {
      "inputs": [
        {
          "internalType": "uint8",
          "name": "",
          "type": "uint8"
        }
      ],
      "name": "_depositCounts",
      "outputs": [
        {
          "internalType": "uint64",
          "name": "",
          "type": "uint64"
        }
      ],
      "stateMutability": "view",
      "type": "function"
    },
    {
      "inputs": [],
      "name": "_domainID",
      "outputs": [
        {
          "internalType": "uint8",
          "name": "",
          "type": "uint8"
        }
      ],
      "stateMutability": "view",
      "type": "function"
    },
    {
      "inputs": [],
      "name": "_expiry",
      "outputs": [
        {
          "internalType": "uint40",
          "name": "",
          "type": "uint40"
        }
      ],
      "stateMutability": "view",
      "type": "function"
    },
    {
      "inputs": [],
      "name": "_fee",
      "outputs": [
        {
          "internalType": "uint256",
          "name": "",
          "type": "uint256"
        }
      ],
      "stateMutability": "view",
      "type": "function"
    },
    {
      "inputs": [],
      "name": "_feeHandler",
      "outputs": [
        {
          "internalType": "contract IFeeHandler",
          "name": "",
          "type": "address"
        }
      ],
      "stateMutability": "view",
      "type": "function"
    },
    {
      "inputs": [],
      "name": "_feeReserve",
      "outputs": [
        {
          "internalType": "uint256",
          "name": "",
          "type": "uint256"
        }
      ],
      "stateMutability": "view",
      "type": "function"
    },
    {
      "inputs": [],
      "name": "_fee_",
      "outputs": [
        {
          "internalType": "uint256",
          "name": "",
          "type": "uint256"
        }
      ],
      "stateMutability": "view",
      "type": "function"
    },
    {
      "inputs": [
        {
          "internalType": "uint72",
          "name": "destNonce",
          "type": "uint72"
        },
        {
          "internalType": "bytes32",
          "name": "dataHash",
          "type": "bytes32"
        },
        {
          "internalType": "address",
          "name": "relayer",
          "type": "address"
        }
      ],
      "name": "_hasVotedOnProposal",
      "outputs": [
        {
          "internalType": "bool",
          "name": "",
          "type": "bool"
        }
      ],
      "stateMutability": "view",
      "type": "function"
    },
    {
      "inputs": [],
      "name": "_relayerThreshold",
      "outputs": [
        {
          "internalType": "uint8",
          "name": "",
          "type": "uint8"
        }
      ],
      "stateMutability": "view",
      "type": "function"
    },
    {
      "inputs": [
        {
          "internalType": "bytes32",
          "name": "",
          "type": "bytes32"
        }
      ],
      "name": "_resourceIDToHandlerAddress",
      "outputs": [
        {
          "internalType": "address",
          "name": "",
          "type": "address"
        }
      ],
      "stateMutability": "view",
      "type": "function"
    },
    {
      "inputs": [],
      "name": "_totalRelayers",
      "outputs": [
        {
          "internalType": "uint256",
          "name": "",
          "type": "uint256"
        }
      ],
      "stateMutability": "view",
      "type": "function"
    },
    {
      "inputs": [
        {
          "internalType": "address",
          "name": "relayerAddress",
          "type": "address"
        }
      ],
      "name": "adminAddRelayer",
      "outputs": [],
      "stateMutability": "nonpayable",
      "type": "function"
    },
    {
      "inputs": [
        {
          "internalType": "uint256",
          "name": "expiry",
          "type": "uint256"
        }
      ],
      "name": "adminChangeExpiry",
      "outputs": [],
      "stateMutability": "nonpayable",
      "type": "function"
    },
    {
      "inputs": [
        {
          "internalType": "uint256",
          "name": "newThreshold",
          "type": "uint256"
        }
      ],
      "name": "adminChangeRelayerThreshold",
      "outputs": [],
      "stateMutability": "nonpayable",
      "type": "function"
    },
    {
      "inputs": [],
      "name": "adminPauseTransfers",
      "outputs": [],
      "stateMutability": "nonpayable",
      "type": "function"
    },
    {
      "inputs": [
        {
          "internalType": "bytes32",
          "name": "resourceID",
          "type": "bytes32"
        },
        {
          "internalType": "address",
          "name": "contractAddress",
          "type": "address"
        }
      ],
      "name": "adminRemoveGenericResource",
      "outputs": [],
      "stateMutability": "nonpayable",
      "type": "function"
    },
    {
      "inputs": [
        {
          "internalType": "address",
          "name": "handlerAddress",
          "type": "address"
        }
      ],
      "name": "adminRemoveNativeResourceId",
      "outputs": [],
      "stateMutability": "nonpayable",
      "type": "function"
    },
    {
      "inputs": [
        {
          "internalType": "address",
          "name": "relayerAddress",
          "type": "address"
        }
      ],
      "name": "adminRemoveRelayer",
      "outputs": [],
      "stateMutability": "nonpayable",
      "type": "function"
    },
    {
      "inputs": [
        {
          "internalType": "bytes32",
          "name": "resourceID",
          "type": "bytes32"
        },
        {
          "internalType": "address",
          "name": "tokenAddress",
          "type": "address"
        }
      ],
      "name": "adminRemoveResourceId",
      "outputs": [],
      "stateMutability": "nonpayable",
      "type": "function"
    },
    {
      "inputs": [
        {
          "internalType": "uint8",
          "name": "destinationDomainID",
          "type": "uint8"
        }
      ],
      "name": "adminRemoveSpecialFee",
      "outputs": [],
      "stateMutability": "nonpayable",
      "type": "function"
    },
    {
      "inputs": [
        {
          "internalType": "address",
          "name": "handlerAddress",
          "type": "address"
        },
        {
          "internalType": "address",
          "name": "tokenAddress",
          "type": "address"
        }
      ],
      "name": "adminSetBurnable",
      "outputs": [],
      "stateMutability": "nonpayable",
      "type": "function"
    },
    {
      "inputs": [
        {
          "internalType": "uint8",
          "name": "domainID",
          "type": "uint8"
        },
        {
          "internalType": "uint64",
          "name": "nonce",
          "type": "uint64"
        }
      ],
      "name": "adminSetDepositNonce",
      "outputs": [],
      "stateMutability": "nonpayable",
      "type": "function"
    },
    {
      "inputs": [
        {
          "internalType": "uint8",
          "name": "domainID",
          "type": "uint8"
        }
      ],
      "name": "adminSetDomainId",
      "outputs": [],
      "stateMutability": "nonpayable",
      "type": "function"
    },
    {
      "inputs": [
        {
          "internalType": "uint256",
          "name": "newFee",
          "type": "uint256"
        }
      ],
      "name": "adminSetFee",
      "outputs": [],
      "stateMutability": "nonpayable",
      "type": "function"
    },
    {
      "inputs": [
        {
          "internalType": "address",
          "name": "forwarder",
          "type": "address"
        },
        {
          "internalType": "bool",
          "name": "valid",
          "type": "bool"
        }
      ],
      "name": "adminSetForwarder",
      "outputs": [],
      "stateMutability": "nonpayable",
      "type": "function"
    },
    {
      "inputs": [
        {
          "internalType": "address",
          "name": "handlerAddress",
          "type": "address"
        },
        {
          "internalType": "bytes32",
          "name": "resourceID",
          "type": "bytes32"
        },
        {
          "internalType": "address",
          "name": "contractAddress",
          "type": "address"
        },
        {
          "internalType": "bytes4",
          "name": "depositFunctionSig",
          "type": "bytes4"
        },
        {
          "internalType": "uint256",
          "name": "depositFunctionDepositorOffset",
          "type": "uint256"
        },
        {
          "internalType": "bytes4",
          "name": "executeFunctionSig",
          "type": "bytes4"
        }
      ],
      "name": "adminSetGenericResource",
      "outputs": [],
      "stateMutability": "nonpayable",
      "type": "function"
    },
    {
      "inputs": [
        {
          "internalType": "bytes32",
          "name": "resourceID",
          "type": "bytes32"
        },
        {
          "internalType": "address",
          "name": "nativeAddress",
          "type": "address"
        },
        {
          "internalType": "bool",
          "name": "isNative",
          "type": "bool"
        }
      ],
      "name": "adminSetNative",
      "outputs": [],
      "stateMutability": "nonpayable",
      "type": "function"
    },
    {
      "inputs": [
        {
          "internalType": "address",
          "name": "handlerAddress",
          "type": "address"
        }
      ],
      "name": "adminSetNativeResource",
      "outputs": [],
      "stateMutability": "nonpayable",
      "type": "function"
    },
    {
      "inputs": [
        {
          "internalType": "address",
          "name": "handlerAddress",
          "type": "address"
        },
        {
          "internalType": "bytes32",
          "name": "resourceID",
          "type": "bytes32"
        },
        {
          "internalType": "address",
          "name": "tokenAddress",
          "type": "address"
        }
      ],
      "name": "adminSetResource",
      "outputs": [],
      "stateMutability": "nonpayable",
      "type": "function"
    },
    {
      "inputs": [
        {
          "internalType": "uint8",
          "name": "destinationDomainID",
          "type": "uint8"
        },
        {
          "internalType": "uint256",
          "name": "_specialFee",
          "type": "uint256"
        }
      ],
      "name": "adminSetSpecialFee",
      "outputs": [],
      "stateMutability": "nonpayable",
      "type": "function"
    },
    {
      "inputs": [],
      "name": "adminUnpauseTransfers",
      "outputs": [],
      "stateMutability": "nonpayable",
      "type": "function"
    },
    {
      "inputs": [
        {
          "internalType": "address",
          "name": "handlerAddress",
          "type": "address"
        },
        {
          "internalType": "bytes",
          "name": "data",
          "type": "bytes"
        }
      ],
      "name": "adminWithdraw",
      "outputs": [],
      "stateMutability": "nonpayable",
      "type": "function"
    },
    {
      "inputs": [
        {
          "internalType": "address",
          "name": "handlerAddress",
          "type": "address"
        },
        {
          "internalType": "bytes",
          "name": "data",
          "type": "bytes"
        }
      ],
      "name": "adminWithdrawETH",
      "outputs": [],
      "stateMutability": "nonpayable",
      "type": "function"
    },
    {
      "inputs": [
        {
          "internalType": "uint8",
          "name": "domainID",
          "type": "uint8"
        },
        {
          "internalType": "uint64",
          "name": "depositNonce",
          "type": "uint64"
        },
        {
          "internalType": "bytes32",
          "name": "dataHash",
          "type": "bytes32"
        }
      ],
      "name": "cancelProposal",
      "outputs": [],
      "stateMutability": "nonpayable",
      "type": "function"
    },
    {
      "inputs": [
        {
          "internalType": "uint8",
          "name": "domainID",
          "type": "uint8"
        },
        {
          "internalType": "uint64",
          "name": "depositNonce",
          "type": "uint64"
        },
        {
          "internalType": "bytes32",
          "name": "resourceID",
          "type": "bytes32"
        },
        {
          "internalType": "bytes",
          "name": "data",
          "type": "bytes"
        },
        {
          "internalType": "bytes",
          "name": "signature",
          "type": "bytes"
        }
      ],
      "name": "checkSignature",
      "outputs": [
        {
          "internalType": "bool",
          "name": "",
          "type": "bool"
        }
      ],
      "stateMutability": "view",
      "type": "function"
    },
    {
      "inputs": [
        {
          "internalType": "uint8",
          "name": "destinationDomainID",
          "type": "uint8"
        },
        {
          "internalType": "bytes32",
          "name": "resourceID",
          "type": "bytes32"
        },
        {
          "internalType": "bytes",
          "name": "depositData",
          "type": "bytes"
        },
        {
          "internalType": "bytes",
          "name": "feeData",
          "type": "bytes"
        }
      ],
      "name": "deposit",
      "outputs": [],
      "stateMutability": "payable",
      "type": "function"
    },
    {
      "inputs": [
        {
          "internalType": "uint8",
          "name": "domainID",
          "type": "uint8"
        },
        {
          "internalType": "uint64",
          "name": "depositNonce",
          "type": "uint64"
        },
        {
          "internalType": "bytes",
          "name": "data",
          "type": "bytes"
        },
        {
          "internalType": "bytes32",
          "name": "resourceID",
          "type": "bytes32"
        },
        {
          "internalType": "bool",
          "name": "revertOnFail",
          "type": "bool"
        }
      ],
      "name": "executeProposal",
      "outputs": [],
      "stateMutability": "nonpayable",
      "type": "function"
    },
    {
      "inputs": [
        {
          "internalType": "uint8",
          "name": "destinationDomainID",
          "type": "uint8"
        }
      ],
      "name": "getFee",
      "outputs": [
        {
          "internalType": "uint256",
          "name": "",
          "type": "uint256"
        }
      ],
      "stateMutability": "view",
      "type": "function"
    },
    {
      "inputs": [
        {
          "internalType": "uint8",
          "name": "originDomainID",
          "type": "uint8"
        },
        {
          "internalType": "uint64",
          "name": "depositNonce",
          "type": "uint64"
        },
        {
          "internalType": "bytes32",
          "name": "resourceID",
          "type": "bytes32"
        },
        {
          "internalType": "bytes",
          "name": "data",
          "type": "bytes"
        }
      ],
      "name": "getProposal",
      "outputs": [
        {
          "components": [
            {
              "internalType": "enum IBridge.ProposalStatus",
              "name": "_status",
              "type": "uint8"
            },
            {
              "internalType": "uint200",
              "name": "_yesVotes",
              "type": "uint200"
            },
            {
              "internalType": "uint8",
              "name": "_yesVotesTotal",
              "type": "uint8"
            },
            {
              "internalType": "uint40",
              "name": "_proposedBlock",
              "type": "uint40"
            }
          ],
          "internalType": "struct IBridge.Proposal",
          "name": "",
          "type": "tuple"
        }
      ],
      "stateMutability": "view",
      "type": "function"
    },
    {
      "inputs": [
        {
          "internalType": "bytes32",
          "name": "role",
          "type": "bytes32"
        }
      ],
      "name": "getRoleAdmin",
      "outputs": [
        {
          "internalType": "bytes32",
          "name": "",
          "type": "bytes32"
        }
      ],
      "stateMutability": "view",
      "type": "function"
    },
    {
      "inputs": [
        {
          "internalType": "bytes32",
          "name": "role",
          "type": "bytes32"
        },
        {
          "internalType": "uint256",
          "name": "index",
          "type": "uint256"
        }
      ],
      "name": "getRoleMember",
      "outputs": [
        {
          "internalType": "address",
          "name": "",
          "type": "address"
        }
      ],
      "stateMutability": "view",
      "type": "function"
    },
    {
      "inputs": [
        {
          "internalType": "bytes32",
          "name": "role",
          "type": "bytes32"
        }
      ],
      "name": "getRoleMemberCount",
      "outputs": [
        {
          "internalType": "uint256",
          "name": "",
          "type": "uint256"
        }
      ],
      "stateMutability": "view",
      "type": "function"
    },
    {
      "inputs": [
        {
          "internalType": "bytes32",
          "name": "role",
          "type": "bytes32"
        },
        {
          "internalType": "address",
          "name": "account",
          "type": "address"
        }
      ],
      "name": "getRoleMemberIndex",
      "outputs": [
        {
          "internalType": "uint256",
          "name": "",
          "type": "uint256"
        }
      ],
      "stateMutability": "view",
      "type": "function"
    },
    {
      "inputs": [
        {
          "internalType": "bytes32",
          "name": "role",
          "type": "bytes32"
        },
        {
          "internalType": "address",
          "name": "account",
          "type": "address"
        }
      ],
      "name": "grantRole",
      "outputs": [],
      "stateMutability": "nonpayable",
      "type": "function"
    },
    {
      "inputs": [
        {
          "internalType": "bytes32",
          "name": "role",
          "type": "bytes32"
        },
        {
          "internalType": "address",
          "name": "account",
          "type": "address"
        }
      ],
      "name": "hasRole",
      "outputs": [
        {
          "internalType": "bool",
          "name": "",
          "type": "bool"
        }
      ],
      "stateMutability": "view",
      "type": "function"
    },
    {
      "inputs": [
        {
          "internalType": "address",
          "name": "relayer",
          "type": "address"
        }
      ],
      "name": "isRelayer",
      "outputs": [
        {
          "internalType": "bool",
          "name": "",
          "type": "bool"
        }
      ],
      "stateMutability": "view",
      "type": "function"
    },
    {
      "inputs": [
        {
          "internalType": "address",
          "name": "",
          "type": "address"
        }
      ],
      "name": "isValidForwarder",
      "outputs": [
        {
          "internalType": "bool",
          "name": "",
          "type": "bool"
        }
      ],
      "stateMutability": "view",
      "type": "function"
    },
    {
      "inputs": [],
      "name": "paused",
      "outputs": [
        {
          "internalType": "bool",
          "name": "",
          "type": "bool"
        }
      ],
      "stateMutability": "view",
      "type": "function"
    },
    {
      "inputs": [
        {
          "internalType": "address",
          "name": "newAdmin",
          "type": "address"
        }
      ],
      "name": "renounceAdmin",
      "outputs": [],
      "stateMutability": "nonpayable",
      "type": "function"
    },
    {
      "inputs": [
        {
          "internalType": "bytes32",
          "name": "role",
          "type": "bytes32"
        },
        {
          "internalType": "address",
          "name": "account",
          "type": "address"
        }
      ],
      "name": "renounceRole",
      "outputs": [],
      "stateMutability": "nonpayable",
      "type": "function"
    },
    {
      "inputs": [
        {
          "internalType": "bytes32",
          "name": "role",
          "type": "bytes32"
        },
        {
          "internalType": "address",
          "name": "account",
          "type": "address"
        }
      ],
      "name": "revokeRole",
      "outputs": [],
      "stateMutability": "nonpayable",
      "type": "function"
    },
    {
      "inputs": [
        {
          "internalType": "uint8",
          "name": "",
          "type": "uint8"
        }
      ],
      "name": "special",
      "outputs": [
        {
          "internalType": "bool",
          "name": "",
          "type": "bool"
        }
      ],
      "stateMutability": "view",
      "type": "function"
    },
    {
      "inputs": [
        {
          "internalType": "uint8",
          "name": "",
          "type": "uint8"
        }
      ],
      "name": "specialFee",
      "outputs": [
        {
          "internalType": "uint256",
          "name": "",
          "type": "uint256"
        }
      ],
      "stateMutability": "view",
      "type": "function"
    },
    {
      "inputs": [
        {
          "internalType": "address payable[]",
          "name": "addrs",
          "type": "address[]"
        },
        {
          "internalType": "uint256[]",
          "name": "amounts",
          "type": "uint256[]"
        }
      ],
      "name": "transferFee",
      "outputs": [],
      "stateMutability": "nonpayable",
      "type": "function"
    },
    {
      "inputs": [
        {
          "internalType": "uint8",
          "name": "domainID",
          "type": "uint8"
        },
        {
          "internalType": "uint64",
          "name": "depositNonce",
          "type": "uint64"
        },
        {
          "internalType": "bytes32",
          "name": "resourceID",
          "type": "bytes32"
        },
        {
          "internalType": "bytes",
          "name": "data",
          "type": "bytes"
        }
      ],
      "name": "voteProposal",
      "outputs": [],
      "stateMutability": "nonpayable",
      "type": "function"
    },
    {
      "inputs": [
        {
          "internalType": "uint8",
          "name": "domainID",
          "type": "uint8"
        },
        {
          "internalType": "uint64",
          "name": "depositNonce",
          "type": "uint64"
        },
        {
          "internalType": "bytes32",
          "name": "resourceID",
          "type": "bytes32"
        },
        {
          "internalType": "bytes",
          "name": "data",
          "type": "bytes"
        },
        {
          "internalType": "bytes[]",
          "name": "signatures",
          "type": "bytes[]"
        }
      ],
      "name": "voteProposals",
      "outputs": [],
      "stateMutability": "nonpayable",
      "type": "function"
    }
  ],
  "bytecode": "0x6101406040523480156200001257600080fd5b5060405162004bd938038062004bd9833981016040819052620000359162000541565b604080518082018252600c81526b5065726d697442726964676560a01b6020808301918252835180850190945260038452620312e360ec1b908401528151902060e08190527fe6bbd6277e1bf288eed5e8d1780f9a50b239e86b153736bceebccf4ea79d90b36101008190524660a0529192917f8b73c3c69bb8fe3d512ecc4cf759cc79239f7b179b0ffacaa9a75d522b39400f620001198184846040805160208101859052908101839052606081018290524660808201523060a082015260009060c0016040516020818303038152906040528051906020012090509392505050565b6080523060c0526101205250506000805460ff199081169091556002805490911660ff8816179055506200015b90508262000247602090811b6200281517901c565b600260016101000a81548160ff021916908360ff1602179055506200018b81620002a460201b6200286c1760201c565b6002805464ffffffffff92909216620100000266ffffffffff000019909216919091179055620001c66000620001c0620002fd565b62000340565b60005b83518110156200023657620002217fe2b7fb3b832174769106daebcfd6d1970523240dda11281102db9363b83b0dc48583815181106200020d576200020d6200063f565b60200260200101516200035060201b60201c565b806200022d8162000655565b915050620001c9565b50506001600b55506200067f915050565b60006101008210620002a05760405162461bcd60e51b815260206004820152601c60248201527f76616c756520646f6573206e6f742066697420696e203820626974730000000060448201526064015b60405180910390fd5b5090565b6000650100000000008210620002a05760405162461bcd60e51b815260206004820152601d60248201527f76616c756520646f6573206e6f742066697420696e2034302062697473000000604482015260640162000297565b600033601436108015906200032a57506001600160a01b03811660009081526005602052604090205460ff165b156200033b575060131936013560601c5b919050565b6200034c8282620003dd565b5050565b600082815260016020526040902060020154620003779062000371620002fd565b62000458565b620003405760405162461bcd60e51b815260206004820152602f60248201527f416363657373436f6e74726f6c3a2073656e646572206d75737420626520616e60448201526e0818591b5a5b881d1bc819dc985b9d608a1b606482015260840162000297565b600082815260016020908152604090912062000404918390620028c362000487821b17901c565b156200034c5762000414620002fd565b6001600160a01b0316816001600160a01b0316837f2f8788117e7eff1d82e926ec794901d17c78024a50270940304540a733656f0d60405160405180910390a45050565b600082815260016020908152604082206200047e918490620028d86200049e821b17901c565b90505b92915050565b60006200047e836001600160a01b038416620004c1565b6001600160a01b038116600090815260018301602052604081205415156200047e565b60008181526001830160205260408120546200050a5750815460018181018455600084815260208082209093018490558454848252828601909352604090209190915562000481565b50600062000481565b634e487b7160e01b600052604160045260246000fd5b80516001600160a01b03811681146200033b57600080fd5b600080600080608085870312156200055857600080fd5b845160ff811681146200056a57600080fd5b602086810151919550906001600160401b03808211156200058a57600080fd5b818801915088601f8301126200059f57600080fd5b815181811115620005b457620005b462000513565b8060051b604051601f19603f83011681018181108582111715620005dc57620005dc62000513565b60405291825284820192508381018501918b831115620005fb57600080fd5b938501935b828510156200062457620006148562000529565b8452938501939285019262000600565b60408b01516060909b0151999c909b50975050505050505050565b634e487b7160e01b600052603260045260246000fd5b60006000198214156200067857634e487b7160e01b600052601160045260246000fd5b5060010190565b60805160a05160c05160e051610100516101205161450a620006cf60003960006133da01526000613429015260006134040152600061335d01526000613387015260006133b1015261450a6000f3fe6080604052600436106103a25760003560e01c806388b73be0116101e7578063c0331b3e1161010d578063d7a9cd79116100a0578063f8c39e441161006f578063f8c39e4414610b56578063fe4648f414610b86578063fe65c4be14610bb1578063ffaac0eb14610bd157600080fd5b8063d7a9cd7914610ae1578063e2469d4014610b00578063e7b14b5a14610b20578063edc20c3c14610b3657600080fd5b8063cb10f215116100dc578063cb10f21514610a61578063cdb0f73a14610a81578063d15ef64e14610aa1578063d547741f14610ac157600080fd5b8063c0331b3e146109d2578063c5b37c22146109f2578063c5ec897014610a07578063ca15c87314610a4157600080fd5b80639d82dd6311610185578063a217fddf11610154578063a217fddf14610943578063a5c621f214610958578063b67a4aaf14610985578063bd2a1820146109b257600080fd5b80639d82dd63146108c25780639dd694f4146108e25780639debb3bd1461090e578063a06fbbff1461092357600080fd5b8063904e9b2b116101c1578063904e9b2b1461084a57806391d148541461086a578063926d7d7f1461088a57806393cbe783146108ac57600080fd5b806388b73be0146107ea5780638c0c26311461080a5780639010d07c1461082a57600080fd5b80635c975abb116102cc57806373c45c981161026a5780637febe63f116102395780637febe63f14610752578063802aabe81461077257806380ae1c281461078757806384db809f1461079c57600080fd5b806373c45c981461070c578063747734121461071f5780637d026d96146107325780637d87cf7f1461065c57600080fd5b806362abd9ce116102a657806362abd9ce1461067c5780636d3b6eea146106ac5780636e2047bc146106cc5780637292dd91146106ec57600080fd5b80635c975abb146106245780635e1fab0f1461063c57806362908ab41461065c57600080fd5b806336568abe116103445780634e37850a116103135780634e37850a146105945780634f2c0aec146105b4578063541d5548146105d45780635a1ad87c1461060457600080fd5b806336568abe146104c05780634b0b919d146104e05780634e0560051461052e5780634e0df3f61461054e57600080fd5b8063248a9ca311610380578063248a9ca31461041c5780632edb6f7c1461044c5780632f2ff15d1461046c57806330adf81f1461048c57600080fd5b8063083132c4146103a757806317f03ce5146103da578063206a98fd146103fc575b600080fd5b3480156103b357600080fd5b506103c76103c23660046138a8565b610be6565b6040519081526020015b60405180910390f35b3480156103e657600080fd5b506103fa6103f53660046138da565b610bf7565b005b34801561040857600080fd5b506103fa610417366004613967565b610e8c565b34801561042857600080fd5b506103c76104373660046139e3565b60009081526001602052604090206002015490565b34801561045857600080fd5b506103fa610467366004613a11565b610f0f565b34801561047857600080fd5b506103fa610487366004613a2e565b610fc2565b34801561049857600080fd5b506103c77fc4cb5d35714699d6e85b9562b644e60393b418d974a5c1dd8efaadac37a142c581565b3480156104cc57600080fd5b506103fa6104db366004613a2e565b611052565b3480156104ec57600080fd5b506105166104fb3660046138a8565b6003602052600090815260409020546001600160401b031681565b6040516001600160401b0390911681526020016103d1565b34801561053a57600080fd5b506103fa6105493660046139e3565b611064565b34801561055a57600080fd5b506103c7610569366004613a2e565b60008281526001602081815260408084206001600160a01b0386168552909201905290205492915050565b3480156105a057600080fd5b506103fa6105af3660046138a8565b6110c7565b3480156105c057600080fd5b506103fa6105cf3660046139e3565b6110f5565b3480156105e057600080fd5b506105f46105ef366004613a11565b611184565b60405190151581526020016103d1565b34801561061057600080fd5b506103fa61061f366004613a76565b61119e565b34801561063057600080fd5b5060005460ff166105f4565b34801561064857600080fd5b506103fa610657366004613a11565b611254565b34801561066857600080fd5b506103fa610677366004613a2e565b6112e0565b34801561068857600080fd5b506105f46106973660046138a8565b600a6020526000908152604090205460ff1681565b3480156106b857600080fd5b506103fa6106c7366004613b97565b611342565b3480156106d857600080fd5b506103fa6106e7366004613be6565b6113af565b3480156106f857600080fd5b506103fa610707366004613c10565b6113e2565b6103fa61071a366004613d26565b61188d565b34801561072b57600080fd5b50466103c7565b34801561073e57600080fd5b506103fa61074d3660046139e3565b6118b0565b34801561075e57600080fd5b506105f461076d366004613daf565b6118e5565b34801561077e57600080fd5b506103c7611989565b34801561079357600080fd5b506103fa6119a7565b3480156107a857600080fd5b506107d26107b73660046139e3565b6004602052600090815260409020546001600160a01b031681565b6040516001600160a01b0390911681526020016103d1565b3480156107f657600080fd5b506103fa610805366004613dfd565b6119c1565b34801561081657600080fd5b506103fa610825366004613e3b565b611a15565b34801561083657600080fd5b506107d2610845366004613e69565b611a4e565b34801561085657600080fd5b506103fa610865366004613ecf565b611a6d565b34801561087657600080fd5b506105f4610885366004613a2e565b611c63565b34801561089657600080fd5b506103c76000805160206144b583398151915281565b3480156108b857600080fd5b506103c760075481565b3480156108ce57600080fd5b506103fa6108dd366004613a11565b611c7b565b3480156108ee57600080fd5b506002546108fc9060ff1681565b60405160ff90911681526020016103d1565b34801561091a57600080fd5b506103c760c881565b34801561092f57600080fd5b506103fa61093e3660046138a8565b611cdc565b34801561094f57600080fd5b506103c7600081565b34801561096457600080fd5b50610978610973366004613f3a565b611cfa565b6040516103d19190613fe0565b34801561099157600080fd5b506103c76109a03660046138a8565b60096020526000908152604090205481565b3480156109be57600080fd5b506103fa6109cd366004613b97565b611e09565b3480156109de57600080fd5b506103fa6109ed366004613f3a565b611e3f565b3480156109fe57600080fd5b506007546103c7565b348015610a1357600080fd5b50600254610a2b9062010000900464ffffffffff1681565b60405164ffffffffff90911681526020016103d1565b348015610a4d57600080fd5b506103c7610a5c3660046139e3565b612375565b348015610a6d57600080fd5b506103fa610a7c366004614029565b61238c565b348015610a8d57600080fd5b506103fa610a9c366004613a11565b6123ed565b348015610aad57600080fd5b506103fa610abc366004614049565b612496565b348015610acd57600080fd5b506103fa610adc366004613a2e565b6124c9565b348015610aed57600080fd5b506002546108fc90610100900460ff1681565b348015610b0c57600080fd5b506103fa610b1b366004613a11565b612556565b348015610b2c57600080fd5b506103c760085481565b348015610b4257600080fd5b506103fa610b5136600461407e565b61263a565b348015610b6257600080fd5b506105f4610b71366004613a11565b60056020526000908152604090205460ff1681565b348015610b9257600080fd5b506002546107d29067010000000000000090046001600160a01b031681565b348015610bbd57600080fd5b506105f4610bcc3660046140a8565b6126f3565b348015610bdd57600080fd5b506103fa6127fd565b6000610bf1826128fa565b92915050565b610bff612939565b60ff838116600884901b68ffffffffffffffff0016176000818152600660209081526040808320868452909152808220815160808101909252805493949293919290918391166004811115610c5657610c56613fa8565b6004811115610c6757610c67613fa8565b8152905461010081046001600160c81b03166020830152600160d01b810460ff166040830152600160d81b900464ffffffffff1660609091015280519091506001816004811115610cba57610cba613fa8565b1480610cd757506002816004811115610cd557610cd5613fa8565b145b610d285760405162461bcd60e51b815260206004820152601c60248201527f50726f706f73616c2063616e6e6f742062652063616e63656c6c65640000000060448201526064015b60405180910390fd5b600254606083015164ffffffffff62010000909204821691610d4c914391166129bd565b64ffffffffff1611610da05760405162461bcd60e51b815260206004820181905260248201527f50726f706f73616c206e6f7420617420657870697279207468726573686f6c646044820152606401610d1f565b60048083526001600160481b03841660009081526006602090815260408083208884529091529020835181548593839160ff1916906001908490811115610de957610de9613fa8565b02179055506020820151815460408085015160609095015164ffffffffff16600160d81b026001600160d81b0360ff909616600160d01b0260ff60d01b196001600160c81b039095166101000294909416610100600160d81b03199093169290921792909217939093169290921790555160008051602061449583398151915290610e7c90889088906004908990614142565b60405180910390a1505050505050565b610e946129ff565b610e9c612a65565b6002600b541415610eef5760405162461bcd60e51b815260206004820152601f60248201527f5265656e7472616e637947756172643a207265656e7472616e742063616c6c006044820152606401610d1f565b6002600b55610f02868686868686612aab565b50506001600b5550505050565b610f17612d23565b60025460ff16600081610f2c8161010061418d565b610f3691906141ac565b60008181526004602081905260409182902080546001600160a01b0319169055905163a981575160e01b81529081018290526001600160a01b038481166024830152919250849182169063a9815751906044015b600060405180830381600087803b158015610fa457600080fd5b505af1158015610fb8573d6000803e3d6000fd5b5050505050505050565b600082815260016020526040902060020154610fe090610885612d7c565b6110445760405162461bcd60e51b815260206004820152602f60248201527f416363657373436f6e74726f6c3a2073656e646572206d75737420626520616e60448201526e0818591b5a5b881d1bc819dc985b9d608a1b6064820152608401610d1f565b61104e8282612dbb565b5050565b61105a612e24565b61104e8282612e6d565b61106c612d23565b61107581612815565b6002805460ff929092166101000261ff00199092169190911790556040518181527fa20d6b84cd798a24038be305eff8a45ca82ef54a2aa2082005d8e14c0a4746c8906020015b60405180910390a150565b6110cf612d23565b60ff166000908152600a60209081526040808320805460ff191690556009909152812055565b6110fd612d23565b80600754141561114f5760405162461bcd60e51b815260206004820152601f60248201527f43757272656e742066656520697320657175616c20746f206e657720666565006044820152606401610d1f565b60078190556040518181527f6bbc57480a46553fa4d156ce702beef5f3ad66303b0ed1a5d4cb44966c6584c3906020016110bc565b6000610bf16000805160206144b583398151915283611c63565b6111a6612d23565b60008581526004602081905260409182902080546001600160a01b0319166001600160a01b038a8116918217909255925163de319d9960e01b8152918201889052861660248201526001600160e01b03198086166044830152606482018590528316608482015287919063de319d999060a401600060405180830381600087803b15801561123357600080fd5b505af1158015611247573d6000803e3d6000fd5b5050505050505050505050565b61125c612d23565b6000611266612d7c565b9050816001600160a01b0316816001600160a01b031614156112ca5760405162461bcd60e51b815260206004820152601760248201527f43616e6e6f742072656e6f756e6365206f6e6573656c660000000000000000006044820152606401610d1f565b6112d5600083610fc2565b61104e600082611052565b6112e8612d23565b60008281526004602081905260409182902080546001600160a01b03198116909155915163a981575160e01b81529081018490526001600160a01b038381166024830152909116908190819063a981575190604401610f8a565b61134a612d23565b60405163ab5c7bf160e01b815282906001600160a01b0382169063ab5c7bf190611378908590600401614220565b600060405180830381600087803b15801561139257600080fd5b505af11580156113a6573d6000803e3d6000fd5b50505050505050565b6113b7612d23565b60ff9091166000908152600a60209081526040808320805460ff191660011790556009909152902055565b6113ea612a65565b6000848152600460205260409020546001600160a01b03168061144b5760405162461bcd60e51b81526020600482015260196024820152781b9bc81a185b991b195c88199bdc881c995cdbdd5c98d95251603a1b6044820152606401610d1f565b6000858286866040516020016114649493929190614233565b60408051808303601f190181529190528051602090910120835160025491925090610100900460ff168110156114ea5760405162461bcd60e51b815260206004820152602560248201527f5369676e617475726573206c656e677468203e3d2072656c61796572546872656044820152641cda1bdb1960da1b6064820152608401610d1f565b604080516080810182526001815260006020820181905281830181905264ffffffffff4316606083015291519091906115b0907fc4cb5d35714699d6e85b9562b644e60393b418d974a5c1dd8efaadac37a142c5908d908d908d90611552908e908e90614266565b604051908190038120611595959493929160200194855260ff9390931660208501526001600160401b039190911660408401526060830152608082015260a00190565b60405160208183030381529060405280519060200120612eed565b905060005b838110156116d05760006115e2838984815181106115d5576115d5614276565b6020026020010151612f3b565b90506115fc6000805160206144b583398151915282611c63565b61162b5760405163c41f0f6960e01b81526001600160a01b038216600482015260248101839052604401610d1f565b6116358482612f5f565b1561167a5760405162461bcd60e51b81526020600482015260156024820152741c995b185e595c88185b1c9958591e481d9bdd1959605a1b6044820152606401610d1f565b61169a61168682612f82565b85602001516001600160c81b031617612fcf565b6001600160c81b03166020850152604084018051906116b88261428c565b60ff169052506116c99050816142ac565b90506115b5565b506003825260405163712467f960e11b815285906001600160a01b0382169063e248cff290611707908d908d908d906004016142f0565b600060405180830381600087803b15801561172157600080fd5b505af1158015611735573d6000803e3d6000fd5b505050506000805160206144958339815191528c8c60038860405161175d9493929190614142565b60405180910390a160ff8c811660088d901b68ffffffffffffffff00161760008181526006602090815260408083208a845290915290205490916001911660048111156117ac576117ac613fa8565b11156117ca5760405162461bcd60e51b8152600401610d1f9061430a565b6001600160481b038116600090815260066020908152604080832089845290915290208451815486929190829060ff1916600183600481111561180f5761180f613fa8565b021790555060208201518154604084015160609094015164ffffffffff16600160d81b026001600160d81b0360ff909516600160d01b0260ff60d01b196001600160c81b039094166101000293909316610100600160d81b031990921691909117919091179290921691909117905550505050505050505050505050565b611895612a65565b600061189f612d7c565b90506113a681888888888888613024565b6118b8612d23565b6118c18161286c565b6002806101000a81548164ffffffffff021916908364ffffffffff16021790555050565b6001600160481b03831660009081526006602090815260408083208584529091528082208151608081019092528054611981929190829060ff16600481111561193057611930613fa8565b600481111561194157611941613fa8565b8152905461010081046001600160c81b03166020830152600160d01b810460ff166040830152600160d81b900464ffffffffff1660609091015283612f5f565b949350505050565b60006119a26000805160206144b5833981519152612375565b905090565b6119af612d23565b6119bf6119ba612d7c565b6131af565b565b6119c9612d23565b60008381526004602081905260409182902054915163789d771160e01b81526001600160a01b03858116928201929092528315156024820152911690819063789d771190604401610f8a565b611a1d612d23565b6040516307b7ed9960e01b81526001600160a01b0382811660048301528391908216906307b7ed9990602401611378565b6000828152600160205260408120611a6690836131fd565b9392505050565b611a75612d23565b828114611ac45760405162461bcd60e51b815260206004820152601f60248201527f61646472735b5d2c20616d6f756e74735b5d3a2064696666206c656e677468006044820152606401610d1f565b60005b83811015611c5c576000858583818110611ae357611ae3614276565b9050602002016020810190611af89190613a11565b6001600160a01b0316848484818110611b1357611b13614276565b9050602002013560405160006040518083038185875af1925050503d8060008114611b5a576040519150601f19603f3d011682016040523d82523d6000602084013e611b5f565b606091505b5050905080611bb05760405162461bcd60e51b815260206004820152601960248201527f466565206574686572207472616e73666572206661696c6564000000000000006044820152606401610d1f565b7faaa40a232aaf133fdd28f3485f6fdd163514cfadbffa981f3610f42398efe34b6000878785818110611be557611be5614276565b9050602002016020810190611bfa9190613a11565b868686818110611c0c57611c0c614276565b90506020020135604051611c41939291906001600160a01b039384168152919092166020820152604081019190915260600190565b60405180910390a15080611c54816142ac565b915050611ac7565b5050505050565b6000828152600160205260408120611a6690836128d8565b611c83612d23565b611c8b612e24565b611ca36000805160206144b5833981519152826124c9565b6040516001600160a01b03821681527f10e1f7ce9fd7d1b90a66d13a2ab3cb8dd7f29f3f8d520b143b063ccfbab6906b906020016110bc565b611ce4612d23565b6002805460ff191660ff92909216919091179055565b6040805160808101825260008082526020808301829052828401829052606083018290528682526004815283822054935192936001600160a01b031692611d4991889185918991899101614233565b60408051808303601f19018152828252805160209182012060ff8c811660088d901b68ffffffffffffffff00161760008181526006855285812084825290945292849020608086019094528354919550919392918391166004811115611db157611db1613fa8565b6004811115611dc257611dc2613fa8565b8152905461010081046001600160c81b03166020830152600160d01b810460ff166040830152600160d81b900464ffffffffff166060909101529998505050505050505050565b611e11612d23565b60405163025a3c9960e21b815282906001600160a01b03821690630968f26490611378908590600401614220565b611e476129ff565b611e4f612a65565b6002600b541415611ea25760405162461bcd60e51b815260206004820152601f60248201527f5265656e7472616e637947756172643a207265656e7472616e742063616c6c006044820152606401610d1f565b6002600b5560008381526004602090815260408083205490516001600160a01b039091169268ffffffffffffffff00600889901b1660ff8a1617929091611ef191889186918991899101614233565b60408051601f1981840301815282825280516020918201206001600160481b03861660009081526006835283812082825290925282822060808501909352825490945090929190829060ff166004811115611f4e57611f4e613fa8565b6004811115611f5f57611f5f613fa8565b8152905461010081046001600160c81b0316602080840191909152600160d01b820460ff16604080850191909152600160d81b90920464ffffffffff1660609093019290925260008a815260049092529020549091506001600160a01b03166120065760405162461bcd60e51b81526020600482015260196024820152781b9bc81a185b991b195c88199bdc881c995cdbdd5c98d95251603a1b6044820152606401610d1f565b60028151600481111561201b5761201b613fa8565b141561203957612030898988888b6001612aab565b50505050612369565b6000612043612d7c565b905060018260000151600481111561205d5761205d613fa8565b111561207b5760405162461bcd60e51b8152600401610d1f9061430a565b6120858282612f5f565b156120ca5760405162461bcd60e51b81526020600482015260156024820152741c995b185e595c88185b1c9958591e481d9bdd1959605a1b6044820152606401610d1f565b6000825160048111156120df576120df613fa8565b141561213f576040805160808101825260018082526000602083018190528284015264ffffffffff43166060830152915190935060008051602061449583398151915291612132918d918d918890614142565b60405180910390a16121a0565b600254606083015164ffffffffff62010000909204821691612163914391166129bd565b64ffffffffff1611156121a057600480835260405160008051602061449583398151915291612197918d918d918890614142565b60405180910390a15b6004825160048111156121b5576121b5613fa8565b14612285576121da6121c682612f82565b83602001516001600160c81b031617612fcf565b6001600160c81b03166020830152604082018051906121f88261428c565b60ff1690525081516040517f25f8daaa4635a7729927ba3f5b3d59cc3320aca7c32c9db4e7ca7b957434364091612234918d918d918890614142565b60405180910390a1600254604083015160ff61010090920482169116106122855760028083526040516000805160206144958339815191529161227c918d918d918890614142565b60405180910390a15b6001600160481b038416600090815260066020908152604080832086845290915290208251815484929190829060ff191660018360048111156122ca576122ca613fa8565b021790555060208201518154604084015160609094015164ffffffffff16600160d81b026001600160d81b0360ff909516600160d01b0260ff60d01b196001600160c81b039094166101000293909316610100600160d81b031990921691909117919091179290921691909117905560028251600481111561234e5761234e613fa8565b1415612363576123638a8a89898c6000612aab565b50505050505b50506001600b55505050565b6000818152600160205260408120610bf190613209565b612394612d23565b60008281526004602081905260409182902080546001600160a01b0319166001600160a01b038781169182179092559251635c7d1b9b60e11b81529182018590528316602482015284919063b8fa373690604401610f8a565b6123f5612d23565b60c86123ff611989565b106124455760405162461bcd60e51b81526020600482015260166024820152751c995b185e595c9cc81b1a5b5a5d081c995858da195960521b6044820152606401610d1f565b61245d6000805160206144b583398151915282610fc2565b6040516001600160a01b03821681527f03580ee9f53a62b7cb409a2cb56f9be87747dd15017afc5cef6eef321e4fb2c5906020016110bc565b61249e612d23565b6001600160a01b03919091166000908152600560205260409020805460ff1916911515919091179055565b6000828152600160205260409020600201546124e790610885612d7c565b61254c5760405162461bcd60e51b815260206004820152603060248201527f416363657373436f6e74726f6c3a2073656e646572206d75737420626520616e60448201526f2061646d696e20746f207265766f6b6560801b6064820152608401610d1f565b61104e8282613213565b61255e612d23565b60025460ff166000816125738161010061418d565b61257d91906141ac565b60008181526004602081905260409182902080546001600160a01b0319166001600160a01b038881169182179092559251635c7d1b9b60e11b815291820184905285166024820152919250849163b8fa373690604401600060405180830381600087803b1580156125ed57600080fd5b505af1158015612601573d6000803e3d6000fd5b505060405163789d771160e01b81526001600160a01b038681166004830152600160248301528416925063789d77119150604401610f8a565b612642612d23565b60ff82166000908152600360205260409020546001600160401b03908116908216116126bf5760405162461bcd60e51b815260206004820152602660248201527f446f6573206e6f7420616c6c6f772064656372656d656e7473206f6620746865604482015265206e6f6e636560d01b6064820152608401610d1f565b60ff919091166000908152600360205260409020805467ffffffffffffffff19166001600160401b03909216919091179055565b6000807fc4cb5d35714699d6e85b9562b644e60393b418d974a5c1dd8efaadac37a142c5898989898960405161272a929190614266565b60405190819003812061276d959493929160200194855260ff9390931660208501526001600160401b039190911660408401526060830152608082015260a00190565b604051602081830303815290604052805190602001209050600061279082612eed565b905060006127d48287878080601f016020809104026020016040519081016040528093929190818152602001838380828437600092019190915250612f3b92505050565b90506127ee6000805160206144b583398151915282611c63565b9b9a5050505050505050505050565b612805612d23565b6119bf612810612d7c565b61327c565b600061010082106128685760405162461bcd60e51b815260206004820152601c60248201527f76616c756520646f6573206e6f742066697420696e20382062697473000000006044820152606401610d1f565b5090565b60006501000000000082106128685760405162461bcd60e51b815260206004820152601d60248201527f76616c756520646f6573206e6f742066697420696e20343020626974730000006044820152606401610d1f565b6000611a66836001600160a01b0384166132c7565b6001600160a01b03811660009081526001830160205260408120541515611a66565b60ff8082166000908152600a60205260408120549091161561292c575060ff1660009081526009602052604090205490565b505060075490565b919050565b6000612943612d7c565b9050612950600082611c63565b8061296e575061296e6000805160206144b583398151915282611c63565b6129ba5760405162461bcd60e51b815260206004820152601e60248201527f73656e646572206973206e6f742072656c61796572206f722061646d696e00006044820152606401610d1f565b50565b6000611a6683836040518060400160405280601e81526020017f536166654d6174683a207375627472616374696f6e206f766572666c6f770000815250613316565b612a196000805160206144b5833981519152610885612d7c565b6119bf5760405162461bcd60e51b815260206004820181905260248201527f73656e64657220646f65736e277420686176652072656c6179657220726f6c656044820152606401610d1f565b60005460ff16156119bf5760405162461bcd60e51b815260206004820152601060248201526f14185d5cd8589b194e881c185d5cd95960821b6044820152606401610d1f565b60008281526004602090815260408083205490516001600160a01b039091169268ffffffffffffffff0060088a901b1660ff8b1617929091612af591879186918b918b9101614233565b60408051601f1981840301815291815281516020928301206001600160481b03851660009081526006845282812082825290935291209091506002815460ff166004811115612b4657612b46613fa8565b14612b935760405162461bcd60e51b815260206004820181905260248201527f50726f706f73616c206d757374206861766520506173736564207374617475736044820152606401610d1f565b805460ff19166003178155838515612c0c5760405163712467f960e11b81526001600160a01b0382169063e248cff290612bd5908a908d908d906004016142f0565b600060405180830381600087803b158015612bef57600080fd5b505af1158015612c03573d6000803e3d6000fd5b50505050612ce9565b60405163712467f960e11b81526001600160a01b0382169063e248cff290612c3c908a908d908d906004016142f0565b600060405180830381600087803b158015612c5657600080fd5b505af1925050508015612c67575060015b612ce9573d808015612c95576040519150601f19603f3d011682016040523d82523d6000602084013e612c9a565b606091505b50825460ff191660021783556040517fbd37c1f0d53bb2f33fe4c2104de272fcdeb4d2fef3acdbf1e4ddc3d6833ca37690612cd6908390614220565b60405180910390a1505050505050612d1b565b6000805160206144958339815191528b8b600386604051612d0d9493929190614142565b60405180910390a150505050505b505050505050565b612d306000610885612d7c565b6119bf5760405162461bcd60e51b815260206004820152601e60248201527f73656e64657220646f65736e277420686176652061646d696e20726f6c6500006044820152606401610d1f565b60003360143610801590612da857506001600160a01b03811660009081526005602052604090205460ff165b1561293457505036601319013560601c90565b6000828152600160205260409020612dd390826128c3565b1561104e57612de0612d7c565b6001600160a01b0316816001600160a01b0316837f2f8788117e7eff1d82e926ec794901d17c78024a50270940304540a733656f0d60405160405180910390a45050565b60005460ff166119bf5760405162461bcd60e51b815260206004820152601460248201527314185d5cd8589b194e881b9bdd081c185d5cd95960621b6044820152606401610d1f565b612e75612d7c565b6001600160a01b0316816001600160a01b03161461254c5760405162461bcd60e51b815260206004820152602f60248201527f416363657373436f6e74726f6c3a2063616e206f6e6c792072656e6f756e636560448201526e103937b632b9903337b91039b2b63360891b6064820152608401610d1f565b6000610bf1612efa613350565b8360405161190160f01b6020820152602281018390526042810182905260009060620160405160208183030381529060405280519060200120905092915050565b6000806000612f4a8585613477565b91509150612f57816134bd565b509392505050565b60008083602001516001600160c81b0316612f7984612f82565b16119392505050565b6001600160a01b03811660009081527f9b7fc797995519db25593326970d3304279d74cdaa6b7cc1a414e3eb0491de546020526040812054612fc59060016129bd565b6001901b92915050565b6000600160c81b82106128685760405162461bcd60e51b815260206004820152601e60248201527f76616c756520646f6573206e6f742066697420696e20323030206269747300006044820152606401610d1f565b346000613030886128fa565b905061303c818361434d565b9150806008600082825461305091906141ac565b90915550506000878152600460205260409020546001600160a01b03168061308b576040516308c231dd60e31b815260040160405180910390fd5b60ff89166000908152600360205260408120805482906130b3906001600160401b0316614364565b91906101000a8154816001600160401b0302191690836001600160401b03160217905590506000826001600160a01b031663b07e54bb868c8f8d8d6040518663ffffffff1660e01b815260040161310d949392919061438b565b60006040518083038185885af115801561312b573d6000803e3d6000fd5b50505050506040513d6000823e601f3d908101601f1916820160405261315491908101906143c0565b90508b6001600160a01b03167f17bc3181e17a9620a479c24e6c606e474ba84fc036877b768926872e8cd0e11f8c8c858d8d876040516131999695949392919061442d565b60405180910390a2505050505050505050505050565b6131b7612a65565b6000805460ff191660011790556040516001600160a01b03821681527f62e78cea01bee320cd4e420270b5ea74000d11b0c9f74754ebdbfc544b05a258906020016110bc565b6000611a668383613678565b6000610bf1825490565b600082815260016020526040902061322b90826136a2565b1561104e57613238612d7c565b6001600160a01b0316816001600160a01b0316837ff6391f5c32d9c69d2a47ea670b442974b53935d1edc7fd64eb21e047a839171b60405160405180910390a45050565b613284612e24565b6000805460ff191690556040516001600160a01b03821681527f5db9ee0a495bf2e6ff9c91a7834c1ba4fdd244a5e8aa4e537bd38aeae4b073aa906020016110bc565b600081815260018301602052604081205461330e57508154600181810184556000848152602080822090930184905584548482528286019093526040902091909155610bf1565b506000610bf1565b6000818484111561333a5760405162461bcd60e51b8152600401610d1f9190614220565b506000613347848661434d565b95945050505050565b6000306001600160a01b037f0000000000000000000000000000000000000000000000000000000000000000161480156133a957507f000000000000000000000000000000000000000000000000000000000000000046145b156133d357507f000000000000000000000000000000000000000000000000000000000000000090565b50604080517f00000000000000000000000000000000000000000000000000000000000000006020808301919091527f0000000000000000000000000000000000000000000000000000000000000000828401527f000000000000000000000000000000000000000000000000000000000000000060608301524660808301523060a0808401919091528351808403909101815260c0909201909252805191012090565b6000808251604114156134ae5760208301516040840151606085015160001a6134a2878285856136b7565b945094505050506134b6565b506000905060025b9250929050565b60008160048111156134d1576134d1613fa8565b14156134da5750565b60018160048111156134ee576134ee613fa8565b141561353c5760405162461bcd60e51b815260206004820152601860248201527f45434453413a20696e76616c6964207369676e617475726500000000000000006044820152606401610d1f565b600281600481111561355057613550613fa8565b141561359e5760405162461bcd60e51b815260206004820152601f60248201527f45434453413a20696e76616c6964207369676e6174757265206c656e677468006044820152606401610d1f565b60038160048111156135b2576135b2613fa8565b141561360b5760405162461bcd60e51b815260206004820152602260248201527f45434453413a20696e76616c6964207369676e6174757265202773272076616c604482015261756560f01b6064820152608401610d1f565b600481600481111561361f5761361f613fa8565b14156129ba5760405162461bcd60e51b815260206004820152602260248201527f45434453413a20696e76616c6964207369676e6174757265202776272076616c604482015261756560f01b6064820152608401610d1f565b600082600001828154811061368f5761368f614276565b9060005260206000200154905092915050565b6000611a66836001600160a01b0384166137a4565b6000807f7fffffffffffffffffffffffffffffff5d576e7357a4501ddfe92f46681b20a08311156136ee575060009050600361379b565b8460ff16601b1415801561370657508460ff16601c14155b15613717575060009050600461379b565b6040805160008082526020820180845289905260ff881692820192909252606081018690526080810185905260019060a0016020604051602081039080840390855afa15801561376b573d6000803e3d6000fd5b5050604051601f1901519150506001600160a01b0381166137945760006001925092505061379b565b9150600090505b94509492505050565b6000818152600183016020526040812054801561388d5760006137c860018361434d565b85549091506000906137dc9060019061434d565b90508181146138415760008660000182815481106137fc576137fc614276565b906000526020600020015490508087600001848154811061381f5761381f614276565b6000918252602080832090910192909255918252600188019052604090208390555b85548690806138525761385261447e565b600190038181906000526020600020016000905590558560010160008681526020019081526020016000206000905560019350505050610bf1565b6000915050610bf1565b803560ff8116811461293457600080fd5b6000602082840312156138ba57600080fd5b611a6682613897565b80356001600160401b038116811461293457600080fd5b6000806000606084860312156138ef57600080fd5b6138f884613897565b9250613906602085016138c3565b9150604084013590509250925092565b60008083601f84011261392857600080fd5b5081356001600160401b0381111561393f57600080fd5b6020830191508360208285010111156134b657600080fd5b8035801515811461293457600080fd5b60008060008060008060a0878903121561398057600080fd5b61398987613897565b9550613997602088016138c3565b945060408701356001600160401b038111156139b257600080fd5b6139be89828a01613916565b909550935050606087013591506139d760808801613957565b90509295509295509295565b6000602082840312156139f557600080fd5b5035919050565b6001600160a01b03811681146129ba57600080fd5b600060208284031215613a2357600080fd5b8135611a66816139fc565b60008060408385031215613a4157600080fd5b823591506020830135613a53816139fc565b809150509250929050565b80356001600160e01b03198116811461293457600080fd5b60008060008060008060c08789031215613a8f57600080fd5b8635613a9a816139fc565b9550602087013594506040870135613ab1816139fc565b9350613abf60608801613a5e565b9250608087013591506139d760a08801613a5e565b634e487b7160e01b600052604160045260246000fd5b604051601f8201601f191681016001600160401b0381118282101715613b1257613b12613ad4565b604052919050565b60006001600160401b03821115613b3357613b33613ad4565b50601f01601f191660200190565b600082601f830112613b5257600080fd5b8135613b65613b6082613b1a565b613aea565b818152846020838601011115613b7a57600080fd5b816020850160208301376000918101602001919091529392505050565b60008060408385031215613baa57600080fd5b8235613bb5816139fc565b915060208301356001600160401b03811115613bd057600080fd5b613bdc85828601613b41565b9150509250929050565b60008060408385031215613bf957600080fd5b613c0283613897565b946020939093013593505050565b60008060008060008060a08789031215613c2957600080fd5b613c3287613897565b95506020613c418189016138c3565b95506040880135945060608801356001600160401b0380821115613c6457600080fd5b613c708b838c01613916565b909650945060808a0135915080821115613c8957600080fd5b818a0191508a601f830112613c9d57600080fd5b813581811115613caf57613caf613ad4565b8060051b613cbe858201613aea565b918252838101850191858101908e841115613cd857600080fd5b86860192505b83831015613d12578483351115613cf457600080fd5b613d038f888535890101613b41565b82529186019190860190613cde565b809750505050505050509295509295509295565b60008060008060008060808789031215613d3f57600080fd5b613d4887613897565b95506020870135945060408701356001600160401b0380821115613d6b57600080fd5b613d778a838b01613916565b90965094506060890135915080821115613d9057600080fd5b50613d9d89828a01613916565b979a9699509497509295939492505050565b600080600060608486031215613dc457600080fd5b83356001600160481b0381168114613ddb57600080fd5b9250602084013591506040840135613df2816139fc565b809150509250925092565b600080600060608486031215613e1257600080fd5b833592506020840135613e24816139fc565b9150613e3260408501613957565b90509250925092565b60008060408385031215613e4e57600080fd5b8235613e59816139fc565b91506020830135613a53816139fc565b60008060408385031215613e7c57600080fd5b50508035926020909101359150565b60008083601f840112613e9d57600080fd5b5081356001600160401b03811115613eb457600080fd5b6020830191508360208260051b85010111156134b657600080fd5b60008060008060408587031215613ee557600080fd5b84356001600160401b0380821115613efc57600080fd5b613f0888838901613e8b565b90965094506020870135915080821115613f2157600080fd5b50613f2e87828801613e8b565b95989497509550505050565b600080600080600060808688031215613f5257600080fd5b613f5b86613897565b9450613f69602087016138c3565b93506040860135925060608601356001600160401b03811115613f8b57600080fd5b613f9788828901613916565b969995985093965092949392505050565b634e487b7160e01b600052602160045260246000fd5b60058110613fdc57634e487b7160e01b600052602160045260246000fd5b9052565b6000608082019050613ff3828451613fbe565b60018060c81b03602084015116602083015260ff604084015116604083015264ffffffffff606084015116606083015292915050565b60008060006060848603121561403e57600080fd5b8335613ddb816139fc565b6000806040838503121561405c57600080fd5b8235614067816139fc565b915061407560208401613957565b90509250929050565b6000806040838503121561409157600080fd5b61409a83613897565b9150614075602084016138c3565b600080600080600080600060a0888a0312156140c357600080fd5b6140cc88613897565b96506140da602089016138c3565b95506040880135945060608801356001600160401b03808211156140fd57600080fd5b6141098b838c01613916565b909650945060808a013591508082111561412257600080fd5b5061412f8a828b01613916565b989b979a50959850939692959293505050565b60ff851681526001600160401b0384166020820152608081016141686040830185613fbe565b82606083015295945050505050565b634e487b7160e01b600052601160045260246000fd5b60008160001904831182151516156141a7576141a7614177565b500290565b600082198211156141bf576141bf614177565b500190565b60005b838110156141df5781810151838201526020016141c7565b838111156141ee576000848401525b50505050565b6000815180845261420c8160208601602086016141c4565b601f01601f19169290920160200192915050565b602081526000611a6660208301846141f4565b8481526bffffffffffffffffffffffff198460601b16602082015281836034830137600091016034019081529392505050565b8183823760009101908152919050565b634e487b7160e01b600052603260045260246000fd5b600060ff821660ff8114156142a3576142a3614177565b60010192915050565b60006000198214156142c0576142c0614177565b5060010190565b81835281816020850137506000828201602090810191909152601f909101601f19169091010190565b8381526040602082015260006133476040830184866142c7565b60208082526023908201527f70726f706f73616c20616c72656164792065786563757465642f63616e63656c6040820152621b195960ea1b606082015260800190565b60008282101561435f5761435f614177565b500390565b60006001600160401b038083168181141561438157614381614177565b6001019392505050565b8481526001600160a01b03841660208201526060604082018190526000906143b690830184866142c7565b9695505050505050565b6000602082840312156143d257600080fd5b81516001600160401b038111156143e857600080fd5b8201601f810184136143f957600080fd5b8051614407613b6082613b1a565b81815285602083850101111561441c57600080fd5b6133478260208301602086016141c4565b60ff871681528560208201526001600160401b038516604082015260a06060820152600061445f60a0830185876142c7565b828103608084015261447181856141f4565b9998505050505050505050565b634e487b7160e01b600052603160045260246000fdfe968626a768e76ba1363efe44e322a6c4900c5f084e0b45f35e294dfddaa9e0d5e2b7fb3b832174769106daebcfd6d1970523240dda11281102db9363b83b0dc4a2646970667358221220f8dfa13eee230fb42f41ed7400bfe61d23b38c093cfe69ddee2315da89fd021964736f6c634300080b0033",
  "linkReferences": {},
  "deployedLinkReferences": {}
}