{
  "_format": "hh-sol-artifact-1",
  "contractName": "Bridge",
  "sourceName": "contracts/Bridge.sol",
  "abi": [
    {
      "inputs": [
        {
          "internalType": "uint8",
          "name": "domainID",
          "type": "uint8"
        },
        {
          "internalType": "address[]",
          "name": "initialRelayers",
          "type": "address[]"
        },
        {
          "internalType": "uint256",
          "name": "initialRelayerThreshold",
          "type": "uint256"
        },
        {
          "internalType": "uint256",
          "name": "expiry",
          "type": "uint256"
        }
      ],
      "stateMutability": "nonpayable",
      "type": "constructor"
    },
    {
      "inputs": [
        {
          "internalType": "uint256",
          "name": "msgValue",
          "type": "uint256"
        },
        {
          "internalType": "uint256",
          "name": "fee",
          "type": "uint256"
        }
      ],
      "name": "IncorrectFeeSupplied",
      "type": "error"
    },
    {
      "inputs": [
        {
          "internalType": "address",
          "name": "signer",
          "type": "address"
        },
        {
          "internalType": "uint256",
          "name": "index",
          "type": "uint256"
        }
      ],
      "name": "InvalidSignature",
      "type": "error"
    },
    {
      "inputs": [],
      "name": "ResourceIDNotMappedToHandler",
      "type": "error"
    },
    {
      "anonymous": false,
      "inputs": [
        {
          "indexed": false,
          "internalType": "uint8",
          "name": "destinationDomainID",
          "type": "uint8"
        },
        {
          "indexed": false,
          "internalType": "bytes32",
          "name": "resourceID",
          "type": "bytes32"
        },
        {
          "indexed": false,
          "internalType": "uint64",
          "name": "depositNonce",
          "type": "uint64"
        },
        {
          "indexed": true,
          "internalType": "address",
          "name": "user",
          "type": "address"
        },
        {
          "indexed": false,
          "internalType": "bytes",
          "name": "data",
          "type": "bytes"
        },
        {
          "indexed": false,
          "internalType": "bytes",
          "name": "handlerResponse",
          "type": "bytes"
        }
      ],
      "name": "Deposit",
      "type": "event"
    },
    {
      "anonymous": false,
      "inputs": [
        {
          "indexed": false,
          "internalType": "bytes",
          "name": "lowLevelData",
          "type": "bytes"
        }
      ],
      "name": "FailedHandlerExecution",
      "type": "event"
    },
    {
      "anonymous": false,
      "inputs": [
        {
          "indexed": false,
          "internalType": "address",
          "name": "newFeeHandler",
          "type": "address"
        }
      ],
      "name": "FeeHandlerChanged",
      "type": "event"
    },
    {
      "anonymous": false,
      "inputs": [
        {
          "indexed": false,
          "internalType": "address",
          "name": "account",
          "type": "address"
        }
      ],
      "name": "Paused",
      "type": "event"
    },
    {
      "anonymous": false,
      "inputs": [
        {
          "indexed": false,
          "internalType": "uint8",
          "name": "originDomainID",
          "type": "uint8"
        },
        {
          "indexed": false,
          "internalType": "uint64",
          "name": "depositNonce",
          "type": "uint64"
        },
        {
          "indexed": false,
          "internalType": "enum IBridge.ProposalStatus",
          "name": "status",
          "type": "uint8"
        },
        {
          "indexed": false,
          "internalType": "bytes32",
          "name": "dataHash",
          "type": "bytes32"
        }
      ],
      "name": "ProposalEvent",
      "type": "event"
    },
    {
      "anonymous": false,
      "inputs": [
        {
          "indexed": false,
          "internalType": "uint8",
          "name": "originDomainID",
          "type": "uint8"
        },
        {
          "indexed": false,
          "internalType": "uint64",
          "name": "depositNonce",
          "type": "uint64"
        },
        {
          "indexed": false,
          "internalType": "enum IBridge.ProposalStatus",
          "name": "status",
          "type": "uint8"
        },
        {
          "indexed": false,
          "internalType": "bytes32",
          "name": "dataHash",
          "type": "bytes32"
        }
      ],
      "name": "ProposalVote",
      "type": "event"
    },
    {
      "anonymous": false,
      "inputs": [
        {
          "indexed": false,
          "internalType": "address",
          "name": "relayer",
          "type": "address"
        }
      ],
      "name": "RelayerAdded",
      "type": "event"
    },
    {
      "anonymous": false,
      "inputs": [
        {
          "indexed": false,
          "internalType": "address",
          "name": "relayer",
          "type": "address"
        }
      ],
      "name": "RelayerRemoved",
      "type": "event"
    },
    {
      "anonymous": false,
      "inputs": [
        {
          "indexed": false,
          "internalType": "uint256",
          "name": "newThreshold",
          "type": "uint256"
        }
      ],
      "name": "RelayerThresholdChanged",
      "type": "event"
    },
    {
      "anonymous": false,
      "inputs": [
        {
          "indexed": true,
          "internalType": "bytes32",
          "name": "role",
          "type": "bytes32"
        },
        {
          "indexed": true,
          "internalType": "address",
          "name": "account",
          "type": "address"
        },
        {
          "indexed": true,
          "internalType": "address",
          "name": "sender",
          "type": "address"
        }
      ],
      "name": "RoleGranted",
      "type": "event"
    },
    {
      "anonymous": false,
      "inputs": [
        {
          "indexed": true,
          "internalType": "bytes32",
          "name": "role",
          "type": "bytes32"
        },
        {
          "indexed": true,
          "internalType": "address",
          "name": "account",
          "type": "address"
        },
        {
          "indexed": true,
          "internalType": "address",
          "name": "sender",
          "type": "address"
        }
      ],
      "name": "RoleRevoked",
      "type": "event"
    },
    {
      "anonymous": false,
      "inputs": [
        {
          "indexed": false,
          "internalType": "address",
          "name": "account",
          "type": "address"
        }
      ],
      "name": "Unpaused",
      "type": "event"
    },
    {
      "inputs": [],
      "name": "DEFAULT_ADMIN_ROLE",
      "outputs": [
        {
          "internalType": "bytes32",
          "name": "",
          "type": "bytes32"
        }
      ],
      "stateMutability": "view",
      "type": "function"
    },
    {
      "inputs": [],
      "name": "MAX_RELAYERS",
      "outputs": [
        {
          "internalType": "uint256",
          "name": "",
          "type": "uint256"
        }
      ],
      "stateMutability": "view",
      "type": "function"
    },
    {
      "inputs": [],
      "name": "PERMIT_TYPEHASH",
      "outputs": [
        {
          "internalType": "bytes32",
          "name": "",
          "type": "bytes32"
        }
      ],
      "stateMutability": "view",
      "type": "function"
    },
    {
      "inputs": [],
      "name": "RELAYER_ROLE",
      "outputs": [
        {
          "internalType": "bytes32",
          "name": "",
          "type": "bytes32"
        }
      ],
      "stateMutability": "view",
      "type": "function"
    },
    {
      "inputs": [],
      "name": "_chainId",
      "outputs": [
        {
          "internalType": "uint256",
          "name": "",
          "type": "uint256"
        }
      ],
      "stateMutability": "view",
      "type": "function"
    },
    {
      "inputs": [
        {
          "internalType": "uint8",
          "name": "",
          "type": "uint8"
        }
      ],
      "name": "_depositCounts",
      "outputs": [
        {
          "internalType": "uint64",
          "name": "",
          "type": "uint64"
        }
      ],
      "stateMutability": "view",
      "type": "function"
    },
    {
      "inputs": [],
      "name": "_domainID",
      "outputs": [
        {
          "internalType": "uint8",
          "name": "",
          "type": "uint8"
        }
      ],
      "stateMutability": "view",
      "type": "function"
    },
    {
      "inputs": [],
      "name": "_expiry",
      "outputs": [
        {
          "internalType": "uint40",
          "name": "",
          "type": "uint40"
        }
      ],
      "stateMutability": "view",
      "type": "function"
    },
    {
      "inputs": [],
      "name": "_fee",
      "outputs": [
        {
          "internalType": "uint256",
          "name": "",
          "type": "uint256"
        }
      ],
      "stateMutability": "view",
      "type": "function"
    },
    {
      "inputs": [],
      "name": "_feeHandler",
      "outputs": [
        {
          "internalType": "contract IFeeHandler",
          "name": "",
          "type": "address"
        }
      ],
      "stateMutability": "view",
      "type": "function"
    },
    {
      "inputs": [
        {
          "internalType": "uint72",
          "name": "destNonce",
          "type": "uint72"
        },
        {
          "internalType": "bytes32",
          "name": "dataHash",
          "type": "bytes32"
        },
        {
          "internalType": "address",
          "name": "relayer",
          "type": "address"
        }
      ],
      "name": "_hasVotedOnProposal",
      "outputs": [
        {
          "internalType": "bool",
          "name": "",
          "type": "bool"
        }
      ],
      "stateMutability": "view",
      "type": "function"
    },
    {
      "inputs": [],
      "name": "_relayerThreshold",
      "outputs": [
        {
          "internalType": "uint8",
          "name": "",
          "type": "uint8"
        }
      ],
      "stateMutability": "view",
      "type": "function"
    },
    {
      "inputs": [
        {
          "internalType": "bytes32",
          "name": "",
          "type": "bytes32"
        }
      ],
      "name": "_resourceIDToHandlerAddress",
      "outputs": [
        {
          "internalType": "address",
          "name": "",
          "type": "address"
        }
      ],
      "stateMutability": "view",
      "type": "function"
    },
    {
      "inputs": [],
      "name": "_totalRelayers",
      "outputs": [
        {
          "internalType": "uint256",
          "name": "",
          "type": "uint256"
        }
      ],
      "stateMutability": "view",
      "type": "function"
    },
    {
      "inputs": [
        {
          "internalType": "address",
          "name": "relayerAddress",
          "type": "address"
        }
      ],
      "name": "adminAddRelayer",
      "outputs": [],
      "stateMutability": "nonpayable",
      "type": "function"
    },
    {
      "inputs": [
        {
          "internalType": "uint256",
          "name": "expiry",
          "type": "uint256"
        }
      ],
      "name": "adminChangeExpiry",
      "outputs": [],
      "stateMutability": "nonpayable",
      "type": "function"
    },
    {
      "inputs": [
        {
          "internalType": "address",
          "name": "newFeeHandler",
          "type": "address"
        }
      ],
      "name": "adminChangeFeeHandler",
      "outputs": [],
      "stateMutability": "nonpayable",
      "type": "function"
    },
    {
      "inputs": [
        {
          "internalType": "uint256",
          "name": "newThreshold",
          "type": "uint256"
        }
      ],
      "name": "adminChangeRelayerThreshold",
      "outputs": [],
      "stateMutability": "nonpayable",
      "type": "function"
    },
    {
      "inputs": [],
      "name": "adminPauseTransfers",
      "outputs": [],
      "stateMutability": "nonpayable",
      "type": "function"
    },
    {
      "inputs": [
        {
          "internalType": "address",
          "name": "relayerAddress",
          "type": "address"
        }
      ],
      "name": "adminRemoveRelayer",
      "outputs": [],
      "stateMutability": "nonpayable",
      "type": "function"
    },
    {
      "inputs": [
        {
          "internalType": "address",
          "name": "handlerAddress",
          "type": "address"
        },
        {
          "internalType": "address",
          "name": "tokenAddress",
          "type": "address"
        }
      ],
      "name": "adminSetBurnable",
      "outputs": [],
      "stateMutability": "nonpayable",
      "type": "function"
    },
    {
      "inputs": [
        {
          "internalType": "uint8",
          "name": "domainID",
          "type": "uint8"
        },
        {
          "internalType": "uint64",
          "name": "nonce",
          "type": "uint64"
        }
      ],
      "name": "adminSetDepositNonce",
      "outputs": [],
      "stateMutability": "nonpayable",
      "type": "function"
    },
    {
      "inputs": [
        {
          "internalType": "uint8",
          "name": "domainID",
          "type": "uint8"
        }
      ],
      "name": "adminSetDomainId",
      "outputs": [],
      "stateMutability": "nonpayable",
      "type": "function"
    },
    {
      "inputs": [
        {
          "internalType": "address",
          "name": "forwarder",
          "type": "address"
        },
        {
          "internalType": "bool",
          "name": "valid",
          "type": "bool"
        }
      ],
      "name": "adminSetForwarder",
      "outputs": [],
      "stateMutability": "nonpayable",
      "type": "function"
    },
    {
      "inputs": [
        {
          "internalType": "address",
          "name": "handlerAddress",
          "type": "address"
        },
        {
          "internalType": "bytes32",
          "name": "resourceID",
          "type": "bytes32"
        },
        {
          "internalType": "address",
          "name": "contractAddress",
          "type": "address"
        },
        {
          "internalType": "bytes4",
          "name": "depositFunctionSig",
          "type": "bytes4"
        },
        {
          "internalType": "uint256",
          "name": "depositFunctionDepositorOffset",
          "type": "uint256"
        },
        {
          "internalType": "bytes4",
          "name": "executeFunctionSig",
          "type": "bytes4"
        }
      ],
      "name": "adminSetGenericResource",
      "outputs": [],
      "stateMutability": "nonpayable",
      "type": "function"
    },
    {
      "inputs": [
        {
          "internalType": "bytes32",
          "name": "resourceID",
          "type": "bytes32"
        },
        {
          "internalType": "address",
          "name": "nativeAddress",
          "type": "address"
        },
        {
          "internalType": "bool",
          "name": "isNative",
          "type": "bool"
        }
      ],
      "name": "adminSetNative",
      "outputs": [],
      "stateMutability": "nonpayable",
      "type": "function"
    },
    {
      "inputs": [
        {
          "internalType": "address",
          "name": "handlerAddress",
          "type": "address"
        }
      ],
      "name": "adminSetNativeResource",
      "outputs": [],
      "stateMutability": "nonpayable",
      "type": "function"
    },
    {
      "inputs": [
        {
          "internalType": "address",
          "name": "handlerAddress",
          "type": "address"
        },
        {
          "internalType": "bytes32",
          "name": "resourceID",
          "type": "bytes32"
        },
        {
          "internalType": "address",
          "name": "tokenAddress",
          "type": "address"
        }
      ],
      "name": "adminSetResource",
      "outputs": [],
      "stateMutability": "nonpayable",
      "type": "function"
    },
    {
      "inputs": [],
      "name": "adminUnpauseTransfers",
      "outputs": [],
      "stateMutability": "nonpayable",
      "type": "function"
    },
    {
      "inputs": [
        {
          "internalType": "address",
          "name": "handlerAddress",
          "type": "address"
        },
        {
          "internalType": "bytes",
          "name": "data",
          "type": "bytes"
        }
      ],
      "name": "adminWithdraw",
      "outputs": [],
      "stateMutability": "nonpayable",
      "type": "function"
    },
    {
      "inputs": [
        {
          "internalType": "address",
          "name": "handlerAddress",
          "type": "address"
        },
        {
          "internalType": "bytes",
          "name": "data",
          "type": "bytes"
        }
      ],
      "name": "adminWithdrawETH",
      "outputs": [],
      "stateMutability": "nonpayable",
      "type": "function"
    },
    {
      "inputs": [
        {
          "internalType": "uint8",
          "name": "destinationDomainID",
          "type": "uint8"
        },
        {
          "internalType": "bytes32",
          "name": "resourceID",
          "type": "bytes32"
        },
        {
          "internalType": "bytes",
          "name": "depositData",
          "type": "bytes"
        },
        {
          "internalType": "bytes",
          "name": "feeData",
          "type": "bytes"
        }
      ],
      "name": "calculateFee",
      "outputs": [
        {
          "internalType": "uint256",
          "name": "",
          "type": "uint256"
        }
      ],
      "stateMutability": "view",
      "type": "function"
    },
    {
      "inputs": [
        {
          "internalType": "uint8",
          "name": "domainID",
          "type": "uint8"
        },
        {
          "internalType": "uint64",
          "name": "depositNonce",
          "type": "uint64"
        },
        {
          "internalType": "bytes32",
          "name": "dataHash",
          "type": "bytes32"
        }
      ],
      "name": "cancelProposal",
      "outputs": [],
      "stateMutability": "nonpayable",
      "type": "function"
    },
    {
      "inputs": [
        {
          "internalType": "uint8",
          "name": "domainID",
          "type": "uint8"
        },
        {
          "internalType": "uint64",
          "name": "depositNonce",
          "type": "uint64"
        },
        {
          "internalType": "bytes32",
          "name": "resourceID",
          "type": "bytes32"
        },
        {
          "internalType": "bytes",
          "name": "data",
          "type": "bytes"
        },
        {
          "internalType": "bytes",
          "name": "signature",
          "type": "bytes"
        }
      ],
      "name": "checkSignature",
      "outputs": [
        {
          "internalType": "bool",
          "name": "",
          "type": "bool"
        }
      ],
      "stateMutability": "view",
      "type": "function"
    },
    {
      "inputs": [
        {
          "internalType": "uint8",
          "name": "destinationDomainID",
          "type": "uint8"
        },
        {
          "internalType": "bytes32",
          "name": "resourceID",
          "type": "bytes32"
        },
        {
          "internalType": "bytes",
          "name": "depositData",
          "type": "bytes"
        },
        {
          "internalType": "bytes",
          "name": "feeData",
          "type": "bytes"
        }
      ],
      "name": "deposit",
      "outputs": [],
      "stateMutability": "payable",
      "type": "function"
    },
    {
      "inputs": [
        {
          "internalType": "uint8",
          "name": "domainID",
          "type": "uint8"
        },
        {
          "internalType": "uint64",
          "name": "depositNonce",
          "type": "uint64"
        },
        {
          "internalType": "bytes",
          "name": "data",
          "type": "bytes"
        },
        {
          "internalType": "bytes32",
          "name": "resourceID",
          "type": "bytes32"
        },
        {
          "internalType": "bool",
          "name": "revertOnFail",
          "type": "bool"
        }
      ],
      "name": "executeProposal",
      "outputs": [],
      "stateMutability": "nonpayable",
      "type": "function"
    },
    {
      "inputs": [
        {
          "internalType": "uint8",
          "name": "originDomainID",
          "type": "uint8"
        },
        {
          "internalType": "uint64",
          "name": "depositNonce",
          "type": "uint64"
        },
        {
          "internalType": "bytes32",
          "name": "resourceID",
          "type": "bytes32"
        },
        {
          "internalType": "bytes",
          "name": "data",
          "type": "bytes"
        }
      ],
      "name": "getProposal",
      "outputs": [
        {
          "components": [
            {
              "internalType": "enum IBridge.ProposalStatus",
              "name": "_status",
              "type": "uint8"
            },
            {
              "internalType": "uint200",
              "name": "_yesVotes",
              "type": "uint200"
            },
            {
              "internalType": "uint8",
              "name": "_yesVotesTotal",
              "type": "uint8"
            },
            {
              "internalType": "uint40",
              "name": "_proposedBlock",
              "type": "uint40"
            }
          ],
          "internalType": "struct IBridge.Proposal",
          "name": "",
          "type": "tuple"
        }
      ],
      "stateMutability": "view",
      "type": "function"
    },
    {
      "inputs": [
        {
          "internalType": "bytes32",
          "name": "role",
          "type": "bytes32"
        }
      ],
      "name": "getRoleAdmin",
      "outputs": [
        {
          "internalType": "bytes32",
          "name": "",
          "type": "bytes32"
        }
      ],
      "stateMutability": "view",
      "type": "function"
    },
    {
      "inputs": [
        {
          "internalType": "bytes32",
          "name": "role",
          "type": "bytes32"
        },
        {
          "internalType": "uint256",
          "name": "index",
          "type": "uint256"
        }
      ],
      "name": "getRoleMember",
      "outputs": [
        {
          "internalType": "address",
          "name": "",
          "type": "address"
        }
      ],
      "stateMutability": "view",
      "type": "function"
    },
    {
      "inputs": [
        {
          "internalType": "bytes32",
          "name": "role",
          "type": "bytes32"
        }
      ],
      "name": "getRoleMemberCount",
      "outputs": [
        {
          "internalType": "uint256",
          "name": "",
          "type": "uint256"
        }
      ],
      "stateMutability": "view",
      "type": "function"
    },
    {
      "inputs": [
        {
          "internalType": "bytes32",
          "name": "role",
          "type": "bytes32"
        },
        {
          "internalType": "address",
          "name": "account",
          "type": "address"
        }
      ],
      "name": "getRoleMemberIndex",
      "outputs": [
        {
          "internalType": "uint256",
          "name": "",
          "type": "uint256"
        }
      ],
      "stateMutability": "view",
      "type": "function"
    },
    {
      "inputs": [
        {
          "internalType": "bytes32",
          "name": "role",
          "type": "bytes32"
        },
        {
          "internalType": "address",
          "name": "account",
          "type": "address"
        }
      ],
      "name": "grantRole",
      "outputs": [],
      "stateMutability": "nonpayable",
      "type": "function"
    },
    {
      "inputs": [
        {
          "internalType": "bytes32",
          "name": "role",
          "type": "bytes32"
        },
        {
          "internalType": "address",
          "name": "account",
          "type": "address"
        }
      ],
      "name": "hasRole",
      "outputs": [
        {
          "internalType": "bool",
          "name": "",
          "type": "bool"
        }
      ],
      "stateMutability": "view",
      "type": "function"
    },
    {
      "inputs": [
        {
          "internalType": "address",
          "name": "relayer",
          "type": "address"
        }
      ],
      "name": "isRelayer",
      "outputs": [
        {
          "internalType": "bool",
          "name": "",
          "type": "bool"
        }
      ],
      "stateMutability": "view",
      "type": "function"
    },
    {
      "inputs": [
        {
          "internalType": "address",
          "name": "",
          "type": "address"
        }
      ],
      "name": "isValidForwarder",
      "outputs": [
        {
          "internalType": "bool",
          "name": "",
          "type": "bool"
        }
      ],
      "stateMutability": "view",
      "type": "function"
    },
    {
      "inputs": [],
      "name": "paused",
      "outputs": [
        {
          "internalType": "bool",
          "name": "",
          "type": "bool"
        }
      ],
      "stateMutability": "view",
      "type": "function"
    },
    {
      "inputs": [
        {
          "internalType": "address",
          "name": "newAdmin",
          "type": "address"
        }
      ],
      "name": "renounceAdmin",
      "outputs": [],
      "stateMutability": "nonpayable",
      "type": "function"
    },
    {
      "inputs": [
        {
          "internalType": "bytes32",
          "name": "role",
          "type": "bytes32"
        },
        {
          "internalType": "address",
          "name": "account",
          "type": "address"
        }
      ],
      "name": "renounceRole",
      "outputs": [],
      "stateMutability": "nonpayable",
      "type": "function"
    },
    {
      "inputs": [
        {
          "internalType": "bytes32",
          "name": "role",
          "type": "bytes32"
        },
        {
          "internalType": "address",
          "name": "account",
          "type": "address"
        }
      ],
      "name": "revokeRole",
      "outputs": [],
      "stateMutability": "nonpayable",
      "type": "function"
    },
    {
      "inputs": [
        {
          "internalType": "address payable[]",
          "name": "addrs",
          "type": "address[]"
        },
        {
          "internalType": "uint256[]",
          "name": "amounts",
          "type": "uint256[]"
        }
      ],
      "name": "transferFunds",
      "outputs": [],
      "stateMutability": "nonpayable",
      "type": "function"
    },
    {
      "inputs": [
        {
          "internalType": "uint8",
          "name": "domainID",
          "type": "uint8"
        },
        {
          "internalType": "uint64",
          "name": "depositNonce",
          "type": "uint64"
        },
        {
          "internalType": "bytes32",
          "name": "resourceID",
          "type": "bytes32"
        },
        {
          "internalType": "bytes",
          "name": "data",
          "type": "bytes"
        }
      ],
      "name": "voteProposal",
      "outputs": [],
      "stateMutability": "nonpayable",
      "type": "function"
    },
    {
      "inputs": [
        {
          "internalType": "uint8",
          "name": "domainID",
          "type": "uint8"
        },
        {
          "internalType": "uint64",
          "name": "depositNonce",
          "type": "uint64"
        },
        {
          "internalType": "bytes32",
          "name": "resourceID",
          "type": "bytes32"
        },
        {
          "internalType": "bytes",
          "name": "data",
          "type": "bytes"
        },
        {
          "internalType": "bytes[]",
          "name": "signatures",
          "type": "bytes[]"
        }
      ],
      "name": "voteProposals",
      "outputs": [],
      "stateMutability": "nonpayable",
      "type": "function"
    }
  ],
  "bytecode": "0x6101406040523480156200001257600080fd5b50604051620049993803806200499983398101604081905262000035916200053b565b604080518082018252600c81526b5065726d697442726964676560a01b6020808301918252835180850190945260038452620312e360ec1b908401528151902060e08190527fe6bbd6277e1bf288eed5e8d1780f9a50b239e86b153736bceebccf4ea79d90b36101008190524660a0529192917f8b73c3c69bb8fe3d512ecc4cf759cc79239f7b179b0ffacaa9a75d522b39400f620001198184846040805160208101859052908101839052606081018290524660808201523060a082015260009060c0016040516020818303038152906040528051906020012090509392505050565b6080523060c0526101205250506000805460ff199081169091556002805490911660ff8816179055506200015b90508262000241602090811b620026ec17901c565b600260016101000a81548160ff021916908360ff1602179055506200018b816200029e60201b620027431760201c565b6002805464ffffffffff92909216620100000266ffffffffff000019909216919091179055620001c66000620001c0620002f7565b6200033a565b60005b83518110156200023657620002217fe2b7fb3b832174769106daebcfd6d1970523240dda11281102db9363b83b0dc48583815181106200020d576200020d62000639565b60200260200101516200034a60201b60201c565b806200022d816200064f565b915050620001c9565b505050505062000679565b600061010082106200029a5760405162461bcd60e51b815260206004820152601c60248201527f76616c756520646f6573206e6f742066697420696e203820626974730000000060448201526064015b60405180910390fd5b5090565b60006501000000000082106200029a5760405162461bcd60e51b815260206004820152601d60248201527f76616c756520646f6573206e6f742066697420696e2034302062697473000000604482015260640162000291565b600033601436108015906200032457506001600160a01b03811660009081526005602052604090205460ff165b1562000335575060131936013560601c5b919050565b620003468282620003d7565b5050565b60008281526001602052604090206002015462000371906200036b620002f7565b62000452565b6200033a5760405162461bcd60e51b815260206004820152602f60248201527f416363657373436f6e74726f6c3a2073656e646572206d75737420626520616e60448201526e0818591b5a5b881d1bc819dc985b9d608a1b606482015260840162000291565b6000828152600160209081526040909120620003fe9183906200279a62000481821b17901c565b1562000346576200040e620002f7565b6001600160a01b0316816001600160a01b0316837f2f8788117e7eff1d82e926ec794901d17c78024a50270940304540a733656f0d60405160405180910390a45050565b6000828152600160209081526040822062000478918490620027af62000498821b17901c565b90505b92915050565b600062000478836001600160a01b038416620004bb565b6001600160a01b0381166000908152600183016020526040812054151562000478565b600081815260018301602052604081205462000504575081546001818101845560008481526020808220909301849055845484825282860190935260409020919091556200047b565b5060006200047b565b634e487b7160e01b600052604160045260246000fd5b80516001600160a01b03811681146200033557600080fd5b600080600080608085870312156200055257600080fd5b845160ff811681146200056457600080fd5b602086810151919550906001600160401b03808211156200058457600080fd5b818801915088601f8301126200059957600080fd5b815181811115620005ae57620005ae6200050d565b8060051b604051601f19603f83011681018181108582111715620005d657620005d66200050d565b60405291825284820192508381018501918b831115620005f557600080fd5b938501935b828510156200061e576200060e8562000523565b84529385019392850192620005fa565b60408b01516060909b0151999c909b50975050505050505050565b634e487b7160e01b600052603260045260246000fd5b60006000198214156200067257634e487b7160e01b600052601160045260246000fd5b5060010190565b60805160a05160c05160e05161010051610120516142d0620006c960003960006130e601526000613135015260006131100152600061306901526000613093015260006130bd01526142d06000f3fe6080604052600436106102ff5760003560e01c80639010d07c11610190578063c5ec8970116100dc578063d7a9cd7911610095578063f8c39e441161006f578063f8c39e4414610984578063fe4648f4146109b4578063fe65c4be146109db578063ffaac0eb146109fb57600080fd5b8063d7a9cd7914610925578063e2469d4014610944578063edc20c3c1461096457600080fd5b8063c5ec89701461084b578063ca15c87314610885578063cb10f215146108a5578063cdb0f73a146108c5578063d15ef64e146108e5578063d547741f1461090557600080fd5b80639debb3bd11610149578063a5c621f211610123578063a5c621f2146107c9578063bd2a1820146107f6578063c0331b3e14610816578063c5b37c221461083657600080fd5b80639debb3bd1461077f578063a06fbbff14610794578063a217fddf146107b457600080fd5b80639010d07c146106b157806391d14854146106d1578063926d7d7f146106f15780639d4d39f5146107135780639d82dd63146107335780639dd694f41461075357600080fd5b80635e1fab0f1161024f5780637febe63f1161020857806384db809f116101e257806384db809f1461060357806388b73be0146106515780638b63aebf146106715780638c0c26311461069157600080fd5b80637febe63f146105b9578063802aabe8146105d957806380ae1c28146105ee57600080fd5b80635e1fab0f146105135780636d3b6eea146105335780637292dd911461055357806373c45c981461057357806374773412146105865780637d026d961461059957600080fd5b80634603ae38116102bc5780634e0df3f6116102965780634e0df3f61461048b578063541d5548146104ab5780635a1ad87c146104db5780635c975abb146104fb57600080fd5b80634603ae38146103fd5780634b0b919d1461041d5780634e0560051461046b57600080fd5b806317f03ce514610304578063206a98fd14610326578063248a9ca3146103465780632f2ff15d1461038957806330adf81f146103a957806336568abe146103dd575b600080fd5b34801561031057600080fd5b5061032461031f36600461362e565b610a10565b005b34801561033257600080fd5b506103246103413660046136bb565b610ca5565b34801561035257600080fd5b50610376610361366004613737565b60009081526001602052604090206002015490565b6040519081526020015b60405180910390f35b34801561039557600080fd5b506103246103a4366004613765565b610f2d565b3480156103b557600080fd5b506103767fc4cb5d35714699d6e85b9562b644e60393b418d974a5c1dd8efaadac37a142c581565b3480156103e957600080fd5b506103246103f8366004613765565b610fbd565b34801561040957600080fd5b506103246104183660046137d9565b610fcf565b34801561042957600080fd5b50610453610438366004613844565b6003602052600090815260409020546001600160401b031681565b6040516001600160401b039091168152602001610380565b34801561047757600080fd5b50610324610486366004613737565b611073565b34801561049757600080fd5b506103766104a6366004613765565b6110d6565b3480156104b757600080fd5b506104cb6104c636600461385f565b611102565b6040519015158152602001610380565b3480156104e757600080fd5b506103246104f6366004613894565b61111c565b34801561050757600080fd5b5060005460ff166104cb565b34801561051f57600080fd5b5061032461052e36600461385f565b6111d2565b34801561053f57600080fd5b5061032461054e3660046139b5565b61125e565b34801561055f57600080fd5b5061032461056e366004613a04565b6112cb565b610324610581366004613b1a565b6117ba565b34801561059257600080fd5b5046610376565b3480156105a557600080fd5b506103246105b4366004613737565b6117dd565b3480156105c557600080fd5b506104cb6105d4366004613ba3565b611812565b3480156105e557600080fd5b506103766118b6565b3480156105fa57600080fd5b506103246118d4565b34801561060f57600080fd5b5061063961061e366004613737565b6004602052600090815260409020546001600160a01b031681565b6040516001600160a01b039091168152602001610380565b34801561065d57600080fd5b5061032461066c366004613bf1565b6118ee565b34801561067d57600080fd5b5061032461068c36600461385f565b611976565b34801561069d57600080fd5b506103246106ac366004613c2f565b6119dc565b3480156106bd57600080fd5b506106396106cc366004613c5d565b611a15565b3480156106dd57600080fd5b506104cb6106ec366004613765565b611a34565b3480156106fd57600080fd5b5061037660008051602061427b83398151915281565b34801561071f57600080fd5b5061037661072e366004613b1a565b611a4c565b34801561073f57600080fd5b5061032461074e36600461385f565b611b15565b34801561075f57600080fd5b5060025461076d9060ff1681565b60405160ff9091168152602001610380565b34801561078b57600080fd5b5061037660c881565b3480156107a057600080fd5b506103246107af366004613844565b611b76565b3480156107c057600080fd5b50610376600081565b3480156107d557600080fd5b506107e96107e4366004613c7f565b611b94565b6040516103809190613d25565b34801561080257600080fd5b506103246108113660046139b5565b611ca3565b34801561082257600080fd5b50610324610831366004613c7f565b611cd9565b34801561084257600080fd5b506103766121b1565b34801561085757600080fd5b5060025461086f9062010000900464ffffffffff1681565b60405164ffffffffff9091168152602001610380565b34801561089157600080fd5b506103766108a0366004613737565b612249565b3480156108b157600080fd5b506103246108c0366004613d6e565b612260565b3480156108d157600080fd5b506103246108e036600461385f565b6122c1565b3480156108f157600080fd5b50610324610900366004613d8e565b61236a565b34801561091157600080fd5b50610324610920366004613765565b61239d565b34801561093157600080fd5b5060025461076d90610100900460ff1681565b34801561095057600080fd5b5061032461095f36600461385f565b61242a565b34801561097057600080fd5b5061032461097f366004613dc3565b612511565b34801561099057600080fd5b506104cb61099f36600461385f565b60056020526000908152604090205460ff1681565b3480156109c057600080fd5b5060025461063990600160381b90046001600160a01b031681565b3480156109e757600080fd5b506104cb6109f6366004613ded565b6125ca565b348015610a0757600080fd5b506103246126d4565b610a186127d1565b60ff838116600884901b68ffffffffffffffff0016176000818152600660209081526040808320868452909152808220815160808101909252805493949293919290918391166004811115610a6f57610a6f613ced565b6004811115610a8057610a80613ced565b8152905461010081046001600160c81b03166020830152600160d01b810460ff166040830152600160d81b900464ffffffffff1660609091015280519091506001816004811115610ad357610ad3613ced565b1480610af057506002816004811115610aee57610aee613ced565b145b610b415760405162461bcd60e51b815260206004820152601c60248201527f50726f706f73616c2063616e6e6f742062652063616e63656c6c65640000000060448201526064015b60405180910390fd5b600254606083015164ffffffffff62010000909204821691610b6591439116612855565b64ffffffffff1611610bb95760405162461bcd60e51b815260206004820181905260248201527f50726f706f73616c206e6f7420617420657870697279207468726573686f6c646044820152606401610b38565b60048083526001600160481b03841660009081526006602090815260408083208884529091529020835181548593839160ff1916906001908490811115610c0257610c02613ced565b02179055506020820151815460408085015160609095015164ffffffffff16600160d81b026001600160d81b0360ff909616600160d01b0260ff60d01b196001600160c81b039095166101000294909416610100600160d81b03199093169290921792909217939093169290921790555160008051602061425b83398151915290610c9590889088906004908990613e87565b60405180910390a1505050505050565b610cad612897565b610cb56128fd565b60008281526004602090815260408083205490516001600160a01b039091169268ffffffffffffffff0060088a901b1660ff8b1617929091610cff91879186918b918b9101613ebc565b60408051601f1981840301815291815281516020928301206001600160481b03851660009081526006845282812082825290935291209091506002815460ff166004811115610d5057610d50613ced565b14610d9d5760405162461bcd60e51b815260206004820181905260248201527f50726f706f73616c206d757374206861766520506173736564207374617475736044820152606401610b38565b805460ff19166003178155838515610e165760405163712467f960e11b81526001600160a01b0382169063e248cff290610ddf908a908d908d90600401613f18565b600060405180830381600087803b158015610df957600080fd5b505af1158015610e0d573d6000803e3d6000fd5b50505050610ef3565b60405163712467f960e11b81526001600160a01b0382169063e248cff290610e46908a908d908d90600401613f18565b600060405180830381600087803b158015610e6057600080fd5b505af1925050508015610e71575060015b610ef3573d808015610e9f576040519150601f19603f3d011682016040523d82523d6000602084013e610ea4565b606091505b50825460ff191660021783556040517fbd37c1f0d53bb2f33fe4c2104de272fcdeb4d2fef3acdbf1e4ddc3d6833ca37690610ee0908390613f8e565b60405180910390a1505050505050610f25565b60008051602061425b8339815191528b8b600386604051610f179493929190613e87565b60405180910390a150505050505b505050505050565b600082815260016020526040902060020154610f4b906106ec612943565b610faf5760405162461bcd60e51b815260206004820152602f60248201527f416363657373436f6e74726f6c3a2073656e646572206d75737420626520616e60448201526e0818591b5a5b881d1bc819dc985b9d608a1b6064820152608401610b38565b610fb98282612984565b5050565b610fc56129ed565b610fb98282612a36565b610fd7612ab6565b60005b8381101561106c57848482818110610ff457610ff4613fa1565b9050602002016020810190611009919061385f565b6001600160a01b03166108fc84848481811061102757611027613fa1565b905060200201359081150290604051600060405180830381858888f19350505050158015611059573d6000803e3d6000fd5b508061106481613fcd565b915050610fda565b5050505050565b61107b612ab6565b611084816126ec565b6002805460ff929092166101000261ff00199092169190911790556040518181527fa20d6b84cd798a24038be305eff8a45ca82ef54a2aa2082005d8e14c0a4746c8906020015b60405180910390a150565b60008281526001602081815260408084206001600160a01b038616855290920190529020545b92915050565b60006110fc60008051602061427b83398151915283611a34565b611124612ab6565b60008581526004602081905260409182902080546001600160a01b0319166001600160a01b038a8116918217909255925163de319d9960e01b8152918201889052861660248201526001600160e01b03198086166044830152606482018590528316608482015287919063de319d999060a401600060405180830381600087803b1580156111b157600080fd5b505af11580156111c5573d6000803e3d6000fd5b5050505050505050505050565b6111da612ab6565b60006111e4612943565b9050816001600160a01b0316816001600160a01b031614156112485760405162461bcd60e51b815260206004820152601760248201527f43616e6e6f742072656e6f756e6365206f6e6573656c660000000000000000006044820152606401610b38565b611253600083610f2d565b610fb9600082610fbd565b611266612ab6565b60405163ab5c7bf160e01b815282906001600160a01b0382169063ab5c7bf190611294908590600401613f8e565b600060405180830381600087803b1580156112ae57600080fd5b505af11580156112c2573d6000803e3d6000fd5b50505050505050565b6112d36128fd565b6000848152600460205260409020546001600160a01b0316806113345760405162461bcd60e51b81526020600482015260196024820152781b9bc81a185b991b195c88199bdc881c995cdbdd5c98d95251603a1b6044820152606401610b38565b60008582868660405160200161134d9493929190613ebc565b60408051808303601f190181529190528051602090910120835160025491925090610100900460ff168110156113d35760405162461bcd60e51b815260206004820152602560248201527f5369676e617475726573206c656e677468203e3d2072656c61796572546872656044820152641cda1bdb1960da1b6064820152608401610b38565b604080516080810182526001815260006020820181905281830181905264ffffffffff431660608301529151909190611499907fc4cb5d35714699d6e85b9562b644e60393b418d974a5c1dd8efaadac37a142c5908d908d908d9061143b908e908e90613fe8565b60405190819003812061147e959493929160200194855260ff9390931660208501526001600160401b039190911660408401526060830152608082015260a00190565b60405160208183030381529060405280519060200120612b0f565b905060005b838110156115fd5760006114cb838984815181106114be576114be613fa1565b6020026020010151612b5d565b90506114e560008051602061427b83398151915282611a34565b6115145760405163c41f0f6960e01b81526001600160a01b038216600482015260248101839052604401610b38565b61151e8482612b81565b156115635760405162461bcd60e51b81526020600482015260156024820152741c995b185e595c88185b1c9958591e481d9bdd1959605a1b6044820152606401610b38565b61158361156f82612ba4565b85602001516001600160c81b031617612bd2565b6001600160c81b03166020850152604084018051906115a182613ff8565b60ff1660ff16815250507f25f8daaa4635a7729927ba3f5b3d59cc3320aca7c32c9db4e7ca7b95743436408d8d8660000151896040516115e49493929190613e87565b60405180910390a1506115f681613fcd565b905061149e565b506003825260405163712467f960e11b815285906001600160a01b0382169063e248cff290611634908d908d908d90600401613f18565b600060405180830381600087803b15801561164e57600080fd5b505af1158015611662573d6000803e3d6000fd5b5050505060008051602061425b8339815191528c8c60038860405161168a9493929190613e87565b60405180910390a160ff8c811660088d901b68ffffffffffffffff00161760008181526006602090815260408083208a845290915290205490916001911660048111156116d9576116d9613ced565b11156116f75760405162461bcd60e51b8152600401610b3890614018565b6001600160481b038116600090815260066020908152604080832089845290915290208451815486929190829060ff1916600183600481111561173c5761173c613ced565b021790555060208201518154604084015160609094015164ffffffffff16600160d81b026001600160d81b0360ff909516600160d01b0260ff60d01b196001600160c81b039094166101000293909316610100600160d81b031990921691909117919091179290921691909117905550505050505050505050505050565b6117c26128fd565b60006117cc612943565b90506112c281888888888888612c27565b6117e5612ab6565b6117ee81612743565b6002806101000a81548164ffffffffff021916908364ffffffffff16021790555050565b6001600160481b038316600090815260066020908152604080832085845290915280822081516080810190925280546118ae929190829060ff16600481111561185d5761185d613ced565b600481111561186e5761186e613ced565b8152905461010081046001600160c81b03166020830152600160d01b810460ff166040830152600160d81b900464ffffffffff1660609091015283612b81565b949350505050565b60006118cf60008051602061427b833981519152612249565b905090565b6118dc612ab6565b6118ec6118e7612943565b612ebb565b565b6118f6612ab6565b60008381526004602081905260409182902054915163789d771160e01b81526001600160a01b03858116928201929092528315156024820152911690819063789d7711906044015b600060405180830381600087803b15801561195857600080fd5b505af115801561196c573d6000803e3d6000fd5b5050505050505050565b61197e612ab6565b60028054670100000000000000600160d81b031916600160381b6001600160a01b038416908102919091179091556040519081527f729170bd142e4965055b26a285faeedf03baf2b915bfc5a7c75d24b45815ff2c906020016110cb565b6119e4612ab6565b6040516307b7ed9960e01b81526001600160a01b0382811660048301528391908216906307b7ed9990602401611294565b6000828152600160205260408120611a2d9083612f09565b9392505050565b6000828152600160205260408120611a2d90836127af565b600080611a57612943565b600254909150600160381b90046001600160a01b031615611b055760025460405163ef4f081f60e01b81526000916001600160a01b03600160381b8204169163ef4f081f91611aba91869160ff16908e908e908e908e908e908e9060040161405b565b6040805180830381865afa158015611ad6573d6000803e3d6000fd5b505050506040513d601f19601f82011682018060405250810190611afa91906140a8565b509250611b0b915050565b60009150505b9695505050505050565b611b1d612ab6565b611b256129ed565b611b3d60008051602061427b8339815191528261239d565b6040516001600160a01b03821681527f10e1f7ce9fd7d1b90a66d13a2ab3cb8dd7f29f3f8d520b143b063ccfbab6906b906020016110cb565b611b7e612ab6565b6002805460ff191660ff92909216919091179055565b6040805160808101825260008082526020808301829052828401829052606083018290528682526004815283822054935192936001600160a01b031692611be391889185918991899101613ebc565b60408051808303601f19018152828252805160209182012060ff8c811660088d901b68ffffffffffffffff00161760008181526006855285812084825290945292849020608086019094528354919550919392918391166004811115611c4b57611c4b613ced565b6004811115611c5c57611c5c613ced565b8152905461010081046001600160c81b03166020830152600160d01b810460ff166040830152600160d81b900464ffffffffff166060909101529998505050505050505050565b611cab612ab6565b60405163025a3c9960e21b815282906001600160a01b03821690630968f26490611294908590600401613f8e565b611ce1612897565b611ce96128fd565b60008381526004602090815260408083205490516001600160a01b039091169268ffffffffffffffff00600889901b1660ff8a1617929091611d3391889186918991899101613ebc565b60408051601f1981840301815282825280516020918201206001600160481b03861660009081526006835283812082825290925282822060808501909352825490945090929190829060ff166004811115611d9057611d90613ced565b6004811115611da157611da1613ced565b8152905461010081046001600160c81b0316602080840191909152600160d01b820460ff16604080850191909152600160d81b90920464ffffffffff1660609093019290925260008a815260049092529020549091506001600160a01b0316611e485760405162461bcd60e51b81526020600482015260196024820152781b9bc81a185b991b195c88199bdc881c995cdbdd5c98d95251603a1b6044820152606401610b38565b600281516004811115611e5d57611e5d613ced565b1415611e7b57611e72898988888b6001610ca5565b5050505061106c565b6000611e85612943565b9050600182600001516004811115611e9f57611e9f613ced565b1115611ebd5760405162461bcd60e51b8152600401610b3890614018565b611ec78282612b81565b15611f0c5760405162461bcd60e51b81526020600482015260156024820152741c995b185e595c88185b1c9958591e481d9bdd1959605a1b6044820152606401610b38565b600082516004811115611f2157611f21613ced565b1415611f81576040805160808101825260018082526000602083018190528284015264ffffffffff43166060830152915190935060008051602061425b83398151915291611f74918d918d918890613e87565b60405180910390a1611fe2565b600254606083015164ffffffffff62010000909204821691611fa591439116612855565b64ffffffffff161115611fe257600480835260405160008051602061425b83398151915291611fd9918d918d918890613e87565b60405180910390a15b600482516004811115611ff757611ff7613ced565b146120c75761201c61200882612ba4565b83602001516001600160c81b031617612bd2565b6001600160c81b031660208301526040820180519061203a82613ff8565b60ff1690525081516040517f25f8daaa4635a7729927ba3f5b3d59cc3320aca7c32c9db4e7ca7b957434364091612076918d918d918890613e87565b60405180910390a1600254604083015160ff61010090920482169116106120c757600280835260405160008051602061425b833981519152916120be918d918d918890613e87565b60405180910390a15b6001600160481b038416600090815260066020908152604080832086845290915290208251815484929190829060ff1916600183600481111561210c5761210c613ced565b021790555060208201518154604084015160609094015164ffffffffff16600160d81b026001600160d81b0360ff909516600160d01b0260ff60d01b196001600160c81b039094166101000293909316610100600160d81b031990921691909117919091179290921691909117905560028251600481111561219057612190613ced565b14156121a5576121a58a8a89898c6000610ca5565b50505050505050505050565b600254600090600160381b90046001600160a01b03161561224357600260079054906101000a90046001600160a01b03166001600160a01b031663c5b37c226040518163ffffffff1660e01b8152600401602060405180830381865afa15801561221f573d6000803e3d6000fd5b505050506040513d601f19601f820116820180604052508101906118cf91906140cd565b50600090565b60008181526001602052604081206110fc90612f15565b612268612ab6565b60008281526004602081905260409182902080546001600160a01b0319166001600160a01b038781169182179092559251635c7d1b9b60e11b81529182018590528316602482015284919063b8fa37369060440161193e565b6122c9612ab6565b60c86122d36118b6565b106123195760405162461bcd60e51b81526020600482015260166024820152751c995b185e595c9cc81b1a5b5a5d081c995858da195960521b6044820152606401610b38565b61233160008051602061427b83398151915282610f2d565b6040516001600160a01b03821681527f03580ee9f53a62b7cb409a2cb56f9be87747dd15017afc5cef6eef321e4fb2c5906020016110cb565b612372612ab6565b6001600160a01b03919091166000908152600560205260409020805460ff1916911515919091179055565b6000828152600160205260409020600201546123bb906106ec612943565b6124205760405162461bcd60e51b815260206004820152603060248201527f416363657373436f6e74726f6c3a2073656e646572206d75737420626520616e60448201526f2061646d696e20746f207265766f6b6560801b6064820152608401610b38565b610fb98282612f1f565b612432612ab6565b60025460019060009060ff1661244a836101006140e6565b6124549190614105565b60008181526004602081905260409182902080546001600160a01b0319166001600160a01b038881169182179092559251635c7d1b9b60e11b815291820184905285166024820152919250849163b8fa373690604401600060405180830381600087803b1580156124c457600080fd5b505af11580156124d8573d6000803e3d6000fd5b505060405163789d771160e01b81526001600160a01b038681166004830152600160248301528416925063789d7711915060440161193e565b612519612ab6565b60ff82166000908152600360205260409020546001600160401b03908116908216116125965760405162461bcd60e51b815260206004820152602660248201527f446f6573206e6f7420616c6c6f772064656372656d656e7473206f6620746865604482015265206e6f6e636560d01b6064820152608401610b38565b60ff919091166000908152600360205260409020805467ffffffffffffffff19166001600160401b03909216919091179055565b6000807fc4cb5d35714699d6e85b9562b644e60393b418d974a5c1dd8efaadac37a142c58989898989604051612601929190613fe8565b604051908190038120612644959493929160200194855260ff9390931660208501526001600160401b039190911660408401526060830152608082015260a00190565b604051602081830303815290604052805190602001209050600061266782612b0f565b905060006126ab8287878080601f016020809104026020016040519081016040528093929190818152602001838380828437600092019190915250612b5d92505050565b90506126c560008051602061427b83398151915282611a34565b9b9a5050505050505050505050565b6126dc612ab6565b6118ec6126e7612943565b612f88565b6000610100821061273f5760405162461bcd60e51b815260206004820152601c60248201527f76616c756520646f6573206e6f742066697420696e20382062697473000000006044820152606401610b38565b5090565b600065010000000000821061273f5760405162461bcd60e51b815260206004820152601d60248201527f76616c756520646f6573206e6f742066697420696e20343020626974730000006044820152606401610b38565b6000611a2d836001600160a01b038416612fd3565b6001600160a01b03811660009081526001830160205260408120541515611a2d565b60006127db612943565b90506127e8600082611a34565b80612806575061280660008051602061427b83398151915282611a34565b6128525760405162461bcd60e51b815260206004820152601e60248201527f73656e646572206973206e6f742072656c61796572206f722061646d696e00006044820152606401610b38565b50565b6000611a2d83836040518060400160405280601e81526020017f536166654d6174683a207375627472616374696f6e206f766572666c6f770000815250613022565b6128b160008051602061427b8339815191526106ec612943565b6118ec5760405162461bcd60e51b815260206004820181905260248201527f73656e64657220646f65736e277420686176652072656c6179657220726f6c656044820152606401610b38565b60005460ff16156118ec5760405162461bcd60e51b815260206004820152601060248201526f14185d5cd8589b194e881c185d5cd95960821b6044820152606401610b38565b6000336014361080159061296f57506001600160a01b03811660009081526005602052604090205460ff165b1561297f575060131936013560601c5b919050565b600082815260016020526040902061299c908261279a565b15610fb9576129a9612943565b6001600160a01b0316816001600160a01b0316837f2f8788117e7eff1d82e926ec794901d17c78024a50270940304540a733656f0d60405160405180910390a45050565b60005460ff166118ec5760405162461bcd60e51b815260206004820152601460248201527314185d5cd8589b194e881b9bdd081c185d5cd95960621b6044820152606401610b38565b612a3e612943565b6001600160a01b0316816001600160a01b0316146124205760405162461bcd60e51b815260206004820152602f60248201527f416363657373436f6e74726f6c3a2063616e206f6e6c792072656e6f756e636560448201526e103937b632b9903337b91039b2b63360891b6064820152608401610b38565b612ac360006106ec612943565b6118ec5760405162461bcd60e51b815260206004820152601e60248201527f73656e64657220646f65736e277420686176652061646d696e20726f6c6500006044820152606401610b38565b60006110fc612b1c61305c565b8360405161190160f01b6020820152602281018390526042810182905260009060620160405160208183030381529060405280519060200120905092915050565b6000806000612b6c8585613183565b91509150612b79816131f3565b509392505050565b60008083602001516001600160c81b0316612b9b84612ba4565b16119392505050565b6000612bc8612bc160008051602061427b833981519152846110d6565b6001612855565b6001901b92915050565b6000600160c81b821061273f5760405162461bcd60e51b815260206004820152601e60248201527f76616c756520646f6573206e6f742066697420696e20323030206269747300006044820152606401610b38565b6002543490600160381b90046001600160a01b031615612d5c5760025460405163ef4f081f60e01b81526000916001600160a01b03600160381b8204169163ef4f081f91612c89918d9160ff16908d908d908d908d908d908d9060040161405b565b6040805180830381865afa158015612ca5573d6000803e3d6000fd5b505050506040513d601f19601f82011682018060405250810190612cc991906140a8565b5090508015612d5a57600254604051632530706560e01b81526001600160a01b03600160381b830416916325307065918491612d19918e9160ff16908e908e908e908e908e908e9060040161405b565b6000604051808303818588803b158015612d3257600080fd5b505af1158015612d46573d6000803e3d6000fd5b50505050508082612d57919061411d565b91505b505b6000868152600460205260409020546001600160a01b031680612d92576040516308c231dd60e31b815260040160405180910390fd5b60ff8816600090815260036020526040812080548290612dba906001600160401b0316614134565b91906101000a8154816001600160401b0302191690836001600160401b031602179055905060008290506000816001600160a01b031663b07e54bb868c8f8d8d6040518663ffffffff1660e01b8152600401612e19949392919061415b565b60006040518083038185885af1158015612e37573d6000803e3d6000fd5b50505050506040513d6000823e601f3d908101601f19168201604052612e609190810190614186565b90508b6001600160a01b03167f17bc3181e17a9620a479c24e6c606e474ba84fc036877b768926872e8cd0e11f8c8c868d8d87604051612ea5969594939291906141f3565b60405180910390a2505050505050505050505050565b612ec36128fd565b6000805460ff191660011790556040516001600160a01b03821681527f62e78cea01bee320cd4e420270b5ea74000d11b0c9f74754ebdbfc544b05a258906020016110cb565b6000611a2d83836133ae565b60006110fc825490565b6000828152600160205260409020612f3790826133d8565b15610fb957612f44612943565b6001600160a01b0316816001600160a01b0316837ff6391f5c32d9c69d2a47ea670b442974b53935d1edc7fd64eb21e047a839171b60405160405180910390a45050565b612f906129ed565b6000805460ff191690556040516001600160a01b03821681527f5db9ee0a495bf2e6ff9c91a7834c1ba4fdd244a5e8aa4e537bd38aeae4b073aa906020016110cb565b600081815260018301602052604081205461301a575081546001818101845560008481526020808220909301849055845484825282860190935260409020919091556110fc565b5060006110fc565b600081848411156130465760405162461bcd60e51b8152600401610b389190613f8e565b506000613053848661411d565b95945050505050565b6000306001600160a01b037f0000000000000000000000000000000000000000000000000000000000000000161480156130b557507f000000000000000000000000000000000000000000000000000000000000000046145b156130df57507f000000000000000000000000000000000000000000000000000000000000000090565b50604080517f00000000000000000000000000000000000000000000000000000000000000006020808301919091527f0000000000000000000000000000000000000000000000000000000000000000828401527f000000000000000000000000000000000000000000000000000000000000000060608301524660808301523060a0808401919091528351808403909101815260c0909201909252805191012090565b6000808251604114156131ba5760208301516040840151606085015160001a6131ae878285856133ed565b945094505050506131ec565b8251604014156131e457602083015160408401516131d98683836134da565b9350935050506131ec565b506000905060025b9250929050565b600081600481111561320757613207613ced565b14156132105750565b600181600481111561322457613224613ced565b14156132725760405162461bcd60e51b815260206004820152601860248201527f45434453413a20696e76616c6964207369676e617475726500000000000000006044820152606401610b38565b600281600481111561328657613286613ced565b14156132d45760405162461bcd60e51b815260206004820152601f60248201527f45434453413a20696e76616c6964207369676e6174757265206c656e677468006044820152606401610b38565b60038160048111156132e8576132e8613ced565b14156133415760405162461bcd60e51b815260206004820152602260248201527f45434453413a20696e76616c6964207369676e6174757265202773272076616c604482015261756560f01b6064820152608401610b38565b600481600481111561335557613355613ced565b14156128525760405162461bcd60e51b815260206004820152602260248201527f45434453413a20696e76616c6964207369676e6174757265202776272076616c604482015261756560f01b6064820152608401610b38565b60008260000182815481106133c5576133c5613fa1565b9060005260206000200154905092915050565b6000611a2d836001600160a01b038416613513565b6000807f7fffffffffffffffffffffffffffffff5d576e7357a4501ddfe92f46681b20a083111561342457506000905060036134d1565b8460ff16601b1415801561343c57508460ff16601c14155b1561344d57506000905060046134d1565b6040805160008082526020820180845289905260ff881692820192909252606081018690526080810185905260019060a0016020604051602081039080840390855afa1580156134a1573d6000803e3d6000fd5b5050604051601f1901519150506001600160a01b0381166134ca576000600192509250506134d1565b9150600090505b94509492505050565b6000806001600160ff1b038316816134f760ff86901c601b614105565b9050613505878288856133ed565b935093505050935093915050565b600081815260018301602052604081205480156135fc57600061353760018361411d565b855490915060009061354b9060019061411d565b90508181146135b057600086600001828154811061356b5761356b613fa1565b906000526020600020015490508087600001848154811061358e5761358e613fa1565b6000918252602080832090910192909255918252600188019052604090208390555b85548690806135c1576135c1614244565b6001900381819060005260206000200160009055905585600101600086815260200190815260200160002060009055600193505050506110fc565b60009150506110fc565b803560ff8116811461297f57600080fd5b80356001600160401b038116811461297f57600080fd5b60008060006060848603121561364357600080fd5b61364c84613606565b925061365a60208501613617565b9150604084013590509250925092565b60008083601f84011261367c57600080fd5b5081356001600160401b0381111561369357600080fd5b6020830191508360208285010111156131ec57600080fd5b8035801515811461297f57600080fd5b60008060008060008060a087890312156136d457600080fd5b6136dd87613606565b95506136eb60208801613617565b945060408701356001600160401b0381111561370657600080fd5b61371289828a0161366a565b9095509350506060870135915061372b608088016136ab565b90509295509295509295565b60006020828403121561374957600080fd5b5035919050565b6001600160a01b038116811461285257600080fd5b6000806040838503121561377857600080fd5b82359150602083013561378a81613750565b809150509250929050565b60008083601f8401126137a757600080fd5b5081356001600160401b038111156137be57600080fd5b6020830191508360208260051b85010111156131ec57600080fd5b600080600080604085870312156137ef57600080fd5b84356001600160401b038082111561380657600080fd5b61381288838901613795565b9096509450602087013591508082111561382b57600080fd5b5061383887828801613795565b95989497509550505050565b60006020828403121561385657600080fd5b611a2d82613606565b60006020828403121561387157600080fd5b8135611a2d81613750565b80356001600160e01b03198116811461297f57600080fd5b60008060008060008060c087890312156138ad57600080fd5b86356138b881613750565b95506020870135945060408701356138cf81613750565b93506138dd6060880161387c565b92506080870135915061372b60a0880161387c565b634e487b7160e01b600052604160045260246000fd5b604051601f8201601f191681016001600160401b0381118282101715613930576139306138f2565b604052919050565b60006001600160401b03821115613951576139516138f2565b50601f01601f191660200190565b600082601f83011261397057600080fd5b813561398361397e82613938565b613908565b81815284602083860101111561399857600080fd5b816020850160208301376000918101602001919091529392505050565b600080604083850312156139c857600080fd5b82356139d381613750565b915060208301356001600160401b038111156139ee57600080fd5b6139fa8582860161395f565b9150509250929050565b60008060008060008060a08789031215613a1d57600080fd5b613a2687613606565b95506020613a35818901613617565b95506040880135945060608801356001600160401b0380821115613a5857600080fd5b613a648b838c0161366a565b909650945060808a0135915080821115613a7d57600080fd5b818a0191508a601f830112613a9157600080fd5b813581811115613aa357613aa36138f2565b8060051b613ab2858201613908565b918252838101850191858101908e841115613acc57600080fd5b86860192505b83831015613b06578483351115613ae857600080fd5b613af78f88853589010161395f565b82529186019190860190613ad2565b809750505050505050509295509295509295565b60008060008060008060808789031215613b3357600080fd5b613b3c87613606565b95506020870135945060408701356001600160401b0380821115613b5f57600080fd5b613b6b8a838b0161366a565b90965094506060890135915080821115613b8457600080fd5b50613b9189828a0161366a565b979a9699509497509295939492505050565b600080600060608486031215613bb857600080fd5b83356001600160481b0381168114613bcf57600080fd5b9250602084013591506040840135613be681613750565b809150509250925092565b600080600060608486031215613c0657600080fd5b833592506020840135613c1881613750565b9150613c26604085016136ab565b90509250925092565b60008060408385031215613c4257600080fd5b8235613c4d81613750565b9150602083013561378a81613750565b60008060408385031215613c7057600080fd5b50508035926020909101359150565b600080600080600060808688031215613c9757600080fd5b613ca086613606565b9450613cae60208701613617565b93506040860135925060608601356001600160401b03811115613cd057600080fd5b613cdc8882890161366a565b969995985093965092949392505050565b634e487b7160e01b600052602160045260246000fd5b60058110613d2157634e487b7160e01b600052602160045260246000fd5b9052565b6000608082019050613d38828451613d03565b60018060c81b03602084015116602083015260ff604084015116604083015264ffffffffff606084015116606083015292915050565b600080600060608486031215613d8357600080fd5b8335613bcf81613750565b60008060408385031215613da157600080fd5b8235613dac81613750565b9150613dba602084016136ab565b90509250929050565b60008060408385031215613dd657600080fd5b613ddf83613606565b9150613dba60208401613617565b600080600080600080600060a0888a031215613e0857600080fd5b613e1188613606565b9650613e1f60208901613617565b95506040880135945060608801356001600160401b0380821115613e4257600080fd5b613e4e8b838c0161366a565b909650945060808a0135915080821115613e6757600080fd5b50613e748a828b0161366a565b989b979a50959850939692959293505050565b60ff851681526001600160401b038416602082015260808101613ead6040830185613d03565b82606083015295945050505050565b8481526bffffffffffffffffffffffff198460601b16602082015281836034830137600091016034019081529392505050565b81835281816020850137506000828201602090810191909152601f909101601f19169091010190565b838152604060208201526000613053604083018486613eef565b60005b83811015613f4d578181015183820152602001613f35565b83811115613f5c576000848401525b50505050565b60008151808452613f7a816020860160208601613f32565b601f01601f19169290920160200192915050565b602081526000611a2d6020830184613f62565b634e487b7160e01b600052603260045260246000fd5b634e487b7160e01b600052601160045260246000fd5b6000600019821415613fe157613fe1613fb7565b5060010190565b8183823760009101908152919050565b600060ff821660ff81141561400f5761400f613fb7565b60010192915050565b60208082526023908201527f70726f706f73616c20616c72656164792065786563757465642f63616e63656c6040820152621b195960ea1b606082015260800190565b60018060a01b038916815260ff8816602082015260ff8716604082015285606082015260c06080820152600061409560c083018688613eef565b82810360a08401526126c5818587613eef565b600080604083850312156140bb57600080fd5b82519150602083015161378a81613750565b6000602082840312156140df57600080fd5b5051919050565b600081600019048311821515161561410057614100613fb7565b500290565b6000821982111561411857614118613fb7565b500190565b60008282101561412f5761412f613fb7565b500390565b60006001600160401b038083168181141561415157614151613fb7565b6001019392505050565b8481526001600160a01b0384166020820152606060408201819052600090611b0b9083018486613eef565b60006020828403121561419857600080fd5b81516001600160401b038111156141ae57600080fd5b8201601f810184136141bf57600080fd5b80516141cd61397e82613938565b8181528560208385010111156141e257600080fd5b613053826020830160208601613f32565b60ff871681528560208201526001600160401b038516604082015260a06060820152600061422560a083018587613eef565b82810360808401526142378185613f62565b9998505050505050505050565b634e487b7160e01b600052603160045260246000fdfe968626a768e76ba1363efe44e322a6c4900c5f084e0b45f35e294dfddaa9e0d5e2b7fb3b832174769106daebcfd6d1970523240dda11281102db9363b83b0dc4a2646970667358221220d60d04272215806aca19755eb140b00ebce39c0052c299300942250ce6c2d80d64736f6c634300080b0033",
  "linkReferences": {},
  "deployedLinkReferences": {}
}