{
  "_format": "hh-sol-artifact-1",
  "contractName": "Bridge",
  "sourceName": "contracts/Bridge.sol",
  "abi": [
    {
      "inputs": [
        {
          "internalType": "uint8",
          "name": "domainID",
          "type": "uint8"
        },
        {
          "internalType": "address[]",
          "name": "initialRelayers",
          "type": "address[]"
        },
        {
          "internalType": "uint256",
          "name": "initialRelayerThreshold",
          "type": "uint256"
        },
        {
          "internalType": "uint256",
          "name": "fee",
          "type": "uint256"
        },
        {
          "internalType": "uint256",
          "name": "expiry",
          "type": "uint256"
        },
        {
          "internalType": "bytes32",
          "name": "_ETHresourceID",
          "type": "bytes32"
        },
        {
          "internalType": "address",
          "name": "_WETH",
          "type": "address"
        }
      ],
      "stateMutability": "nonpayable",
      "type": "constructor"
    },
    {
      "anonymous": false,
      "inputs": [
        {
          "indexed": false,
          "internalType": "uint8",
          "name": "destinationDomainID",
          "type": "uint8"
        },
        {
          "indexed": false,
          "internalType": "bytes32",
          "name": "resourceID",
          "type": "bytes32"
        },
        {
          "indexed": false,
          "internalType": "uint64",
          "name": "depositNonce",
          "type": "uint64"
        },
        {
          "indexed": true,
          "internalType": "address",
          "name": "user",
          "type": "address"
        },
        {
          "indexed": false,
          "internalType": "bytes",
          "name": "data",
          "type": "bytes"
        },
        {
          "indexed": false,
          "internalType": "bytes",
          "name": "handlerResponse",
          "type": "bytes"
        }
      ],
      "name": "Deposit",
      "type": "event"
    },
    {
      "anonymous": false,
      "inputs": [
        {
          "indexed": false,
          "internalType": "bytes",
          "name": "lowLevelData",
          "type": "bytes"
        }
      ],
      "name": "FailedHandlerExecution",
      "type": "event"
    },
    {
      "anonymous": false,
      "inputs": [
        {
          "indexed": false,
          "internalType": "address",
          "name": "account",
          "type": "address"
        }
      ],
      "name": "Paused",
      "type": "event"
    },
    {
      "anonymous": false,
      "inputs": [
        {
          "indexed": false,
          "internalType": "uint8",
          "name": "originDomainID",
          "type": "uint8"
        },
        {
          "indexed": false,
          "internalType": "uint64",
          "name": "depositNonce",
          "type": "uint64"
        },
        {
          "indexed": false,
          "internalType": "enum Bridge.ProposalStatus",
          "name": "status",
          "type": "uint8"
        },
        {
          "indexed": false,
          "internalType": "bytes32",
          "name": "dataHash",
          "type": "bytes32"
        }
      ],
      "name": "ProposalEvent",
      "type": "event"
    },
    {
      "anonymous": false,
      "inputs": [
        {
          "indexed": false,
          "internalType": "uint8",
          "name": "originDomainID",
          "type": "uint8"
        },
        {
          "indexed": false,
          "internalType": "uint64",
          "name": "depositNonce",
          "type": "uint64"
        },
        {
          "indexed": false,
          "internalType": "enum Bridge.ProposalStatus",
          "name": "status",
          "type": "uint8"
        },
        {
          "indexed": false,
          "internalType": "bytes32",
          "name": "dataHash",
          "type": "bytes32"
        }
      ],
      "name": "ProposalVote",
      "type": "event"
    },
    {
      "anonymous": false,
      "inputs": [
        {
          "indexed": false,
          "internalType": "address",
          "name": "relayer",
          "type": "address"
        }
      ],
      "name": "RelayerAdded",
      "type": "event"
    },
    {
      "anonymous": false,
      "inputs": [
        {
          "indexed": false,
          "internalType": "address",
          "name": "relayer",
          "type": "address"
        }
      ],
      "name": "RelayerRemoved",
      "type": "event"
    },
    {
      "anonymous": false,
      "inputs": [
        {
          "indexed": false,
          "internalType": "uint256",
          "name": "newThreshold",
          "type": "uint256"
        }
      ],
      "name": "RelayerThresholdChanged",
      "type": "event"
    },
    {
      "anonymous": false,
      "inputs": [
        {
          "indexed": true,
          "internalType": "bytes32",
          "name": "role",
          "type": "bytes32"
        },
        {
          "indexed": true,
          "internalType": "address",
          "name": "account",
          "type": "address"
        },
        {
          "indexed": true,
          "internalType": "address",
          "name": "sender",
          "type": "address"
        }
      ],
      "name": "RoleGranted",
      "type": "event"
    },
    {
      "anonymous": false,
      "inputs": [
        {
          "indexed": true,
          "internalType": "bytes32",
          "name": "role",
          "type": "bytes32"
        },
        {
          "indexed": true,
          "internalType": "address",
          "name": "account",
          "type": "address"
        },
        {
          "indexed": true,
          "internalType": "address",
          "name": "sender",
          "type": "address"
        }
      ],
      "name": "RoleRevoked",
      "type": "event"
    },
    {
      "anonymous": false,
      "inputs": [
        {
          "indexed": false,
          "internalType": "address",
          "name": "account",
          "type": "address"
        }
      ],
      "name": "Unpaused",
      "type": "event"
    },
    {
      "inputs": [],
      "name": "DEFAULT_ADMIN_ROLE",
      "outputs": [
        {
          "internalType": "bytes32",
          "name": "",
          "type": "bytes32"
        }
      ],
      "stateMutability": "view",
      "type": "function"
    },
    {
      "inputs": [],
      "name": "MAX_RELAYERS",
      "outputs": [
        {
          "internalType": "uint256",
          "name": "",
          "type": "uint256"
        }
      ],
      "stateMutability": "view",
      "type": "function"
    },
    {
      "inputs": [],
      "name": "PERMIT_TYPEHASH",
      "outputs": [
        {
          "internalType": "bytes32",
          "name": "",
          "type": "bytes32"
        }
      ],
      "stateMutability": "view",
      "type": "function"
    },
    {
      "inputs": [],
      "name": "RELAYER_ROLE",
      "outputs": [
        {
          "internalType": "bytes32",
          "name": "",
          "type": "bytes32"
        }
      ],
      "stateMutability": "view",
      "type": "function"
    },
    {
      "inputs": [
        {
          "internalType": "uint8",
          "name": "",
          "type": "uint8"
        }
      ],
      "name": "_depositCounts",
      "outputs": [
        {
          "internalType": "uint64",
          "name": "",
          "type": "uint64"
        }
      ],
      "stateMutability": "view",
      "type": "function"
    },
    {
      "inputs": [],
      "name": "_domainID",
      "outputs": [
        {
          "internalType": "uint8",
          "name": "",
          "type": "uint8"
        }
      ],
      "stateMutability": "view",
      "type": "function"
    },
    {
      "inputs": [],
      "name": "_expiry",
      "outputs": [
        {
          "internalType": "uint40",
          "name": "",
          "type": "uint40"
        }
      ],
      "stateMutability": "view",
      "type": "function"
    },
    {
      "inputs": [],
      "name": "_fee",
      "outputs": [
        {
          "internalType": "uint128",
          "name": "",
          "type": "uint128"
        }
      ],
      "stateMutability": "view",
      "type": "function"
    },
    {
      "inputs": [
        {
          "internalType": "uint72",
          "name": "destNonce",
          "type": "uint72"
        },
        {
          "internalType": "bytes32",
          "name": "dataHash",
          "type": "bytes32"
        },
        {
          "internalType": "address",
          "name": "relayer",
          "type": "address"
        }
      ],
      "name": "_hasVotedOnProposal",
      "outputs": [
        {
          "internalType": "bool",
          "name": "",
          "type": "bool"
        }
      ],
      "stateMutability": "view",
      "type": "function"
    },
    {
      "inputs": [],
      "name": "_relayerThreshold",
      "outputs": [
        {
          "internalType": "uint8",
          "name": "",
          "type": "uint8"
        }
      ],
      "stateMutability": "view",
      "type": "function"
    },
    {
      "inputs": [
        {
          "internalType": "bytes32",
          "name": "",
          "type": "bytes32"
        }
      ],
      "name": "_resourceIDToHandlerAddress",
      "outputs": [
        {
          "internalType": "address",
          "name": "",
          "type": "address"
        }
      ],
      "stateMutability": "view",
      "type": "function"
    },
    {
      "inputs": [
        {
          "internalType": "uint8",
          "name": "",
          "type": "uint8"
        }
      ],
      "name": "_specialFee",
      "outputs": [
        {
          "internalType": "uint256",
          "name": "",
          "type": "uint256"
        }
      ],
      "stateMutability": "view",
      "type": "function"
    },
    {
      "inputs": [],
      "name": "_totalRelayers",
      "outputs": [
        {
          "internalType": "uint256",
          "name": "",
          "type": "uint256"
        }
      ],
      "stateMutability": "view",
      "type": "function"
    },
    {
      "inputs": [
        {
          "internalType": "address",
          "name": "relayerAddress",
          "type": "address"
        }
      ],
      "name": "adminAddRelayer",
      "outputs": [],
      "stateMutability": "nonpayable",
      "type": "function"
    },
    {
      "inputs": [
        {
          "internalType": "uint256",
          "name": "expiry",
          "type": "uint256"
        }
      ],
      "name": "adminChangeExpiry",
      "outputs": [],
      "stateMutability": "nonpayable",
      "type": "function"
    },
    {
      "inputs": [
        {
          "internalType": "uint256",
          "name": "newFee",
          "type": "uint256"
        }
      ],
      "name": "adminChangeFee",
      "outputs": [],
      "stateMutability": "nonpayable",
      "type": "function"
    },
    {
      "inputs": [
        {
          "internalType": "uint256",
          "name": "newThreshold",
          "type": "uint256"
        }
      ],
      "name": "adminChangeRelayerThreshold",
      "outputs": [],
      "stateMutability": "nonpayable",
      "type": "function"
    },
    {
      "inputs": [
        {
          "internalType": "uint256",
          "name": "newFee",
          "type": "uint256"
        },
        {
          "internalType": "uint8",
          "name": "chainID",
          "type": "uint8"
        }
      ],
      "name": "adminChangeSpecialFee",
      "outputs": [],
      "stateMutability": "nonpayable",
      "type": "function"
    },
    {
      "inputs": [],
      "name": "adminPauseTransfers",
      "outputs": [],
      "stateMutability": "nonpayable",
      "type": "function"
    },
    {
      "inputs": [
        {
          "internalType": "address",
          "name": "relayerAddress",
          "type": "address"
        }
      ],
      "name": "adminRemoveRelayer",
      "outputs": [],
      "stateMutability": "nonpayable",
      "type": "function"
    },
    {
      "inputs": [
        {
          "internalType": "address",
          "name": "handlerAddress",
          "type": "address"
        },
        {
          "internalType": "address",
          "name": "tokenAddress",
          "type": "address"
        }
      ],
      "name": "adminSetBurnable",
      "outputs": [],
      "stateMutability": "nonpayable",
      "type": "function"
    },
    {
      "inputs": [
        {
          "internalType": "uint8",
          "name": "domainID",
          "type": "uint8"
        },
        {
          "internalType": "uint64",
          "name": "nonce",
          "type": "uint64"
        }
      ],
      "name": "adminSetDepositNonce",
      "outputs": [],
      "stateMutability": "nonpayable",
      "type": "function"
    },
    {
      "inputs": [
        {
          "internalType": "address",
          "name": "forwarder",
          "type": "address"
        },
        {
          "internalType": "bool",
          "name": "valid",
          "type": "bool"
        }
      ],
      "name": "adminSetForwarder",
      "outputs": [],
      "stateMutability": "nonpayable",
      "type": "function"
    },
    {
      "inputs": [
        {
          "internalType": "address",
          "name": "handlerAddress",
          "type": "address"
        },
        {
          "internalType": "bytes32",
          "name": "resourceID",
          "type": "bytes32"
        },
        {
          "internalType": "address",
          "name": "contractAddress",
          "type": "address"
        },
        {
          "internalType": "bytes4",
          "name": "depositFunctionSig",
          "type": "bytes4"
        },
        {
          "internalType": "uint256",
          "name": "depositFunctionDepositerOffset",
          "type": "uint256"
        },
        {
          "internalType": "bytes4",
          "name": "executeFunctionSig",
          "type": "bytes4"
        }
      ],
      "name": "adminSetGenericResource",
      "outputs": [],
      "stateMutability": "nonpayable",
      "type": "function"
    },
    {
      "inputs": [
        {
          "internalType": "address",
          "name": "handlerAddress",
          "type": "address"
        },
        {
          "internalType": "bytes32",
          "name": "resourceID",
          "type": "bytes32"
        },
        {
          "internalType": "address",
          "name": "tokenAddress",
          "type": "address"
        }
      ],
      "name": "adminSetResource",
      "outputs": [],
      "stateMutability": "nonpayable",
      "type": "function"
    },
    {
      "inputs": [],
      "name": "adminUnpauseTransfers",
      "outputs": [],
      "stateMutability": "nonpayable",
      "type": "function"
    },
    {
      "inputs": [
        {
          "internalType": "address",
          "name": "handlerAddress",
          "type": "address"
        },
        {
          "internalType": "bytes",
          "name": "data",
          "type": "bytes"
        }
      ],
      "name": "adminWithdraw",
      "outputs": [],
      "stateMutability": "nonpayable",
      "type": "function"
    },
    {
      "inputs": [
        {
          "internalType": "uint8",
          "name": "domainID",
          "type": "uint8"
        },
        {
          "internalType": "uint64",
          "name": "depositNonce",
          "type": "uint64"
        },
        {
          "internalType": "bytes32",
          "name": "dataHash",
          "type": "bytes32"
        }
      ],
      "name": "cancelProposal",
      "outputs": [],
      "stateMutability": "nonpayable",
      "type": "function"
    },
    {
      "inputs": [
        {
          "internalType": "uint8",
          "name": "destinationDomainID",
          "type": "uint8"
        },
        {
          "internalType": "bytes32",
          "name": "resourceID",
          "type": "bytes32"
        },
        {
          "internalType": "bytes",
          "name": "data",
          "type": "bytes"
        }
      ],
      "name": "deposit",
      "outputs": [],
      "stateMutability": "payable",
      "type": "function"
    },
    {
      "inputs": [
        {
          "internalType": "uint8",
          "name": "destinationDomainID",
          "type": "uint8"
        },
        {
          "internalType": "bytes32",
          "name": "resourceID",
          "type": "bytes32"
        },
        {
          "internalType": "bytes",
          "name": "data",
          "type": "bytes"
        }
      ],
      "name": "depositETH",
      "outputs": [],
      "stateMutability": "payable",
      "type": "function"
    },
    {
      "inputs": [
        {
          "internalType": "uint8",
          "name": "domainID",
          "type": "uint8"
        },
        {
          "internalType": "uint64",
          "name": "depositNonce",
          "type": "uint64"
        },
        {
          "internalType": "bytes",
          "name": "data",
          "type": "bytes"
        },
        {
          "internalType": "bytes32",
          "name": "resourceID",
          "type": "bytes32"
        },
        {
          "internalType": "bool",
          "name": "revertOnFail",
          "type": "bool"
        }
      ],
      "name": "executeProposal",
      "outputs": [],
      "stateMutability": "nonpayable",
      "type": "function"
    },
    {
      "inputs": [
        {
          "internalType": "uint8",
          "name": "destinationDomainID",
          "type": "uint8"
        }
      ],
      "name": "getFee",
      "outputs": [
        {
          "internalType": "uint256",
          "name": "",
          "type": "uint256"
        }
      ],
      "stateMutability": "view",
      "type": "function"
    },
    {
      "inputs": [
        {
          "internalType": "uint8",
          "name": "originDomainID",
          "type": "uint8"
        },
        {
          "internalType": "uint64",
          "name": "depositNonce",
          "type": "uint64"
        },
        {
          "internalType": "bytes32",
          "name": "dataHash",
          "type": "bytes32"
        }
      ],
      "name": "getProposal",
      "outputs": [
        {
          "components": [
            {
              "internalType": "enum Bridge.ProposalStatus",
              "name": "_status",
              "type": "uint8"
            },
            {
              "internalType": "uint200",
              "name": "_yesVotes",
              "type": "uint200"
            },
            {
              "internalType": "uint8",
              "name": "_yesVotesTotal",
              "type": "uint8"
            },
            {
              "internalType": "uint40",
              "name": "_proposedBlock",
              "type": "uint40"
            }
          ],
          "internalType": "struct Bridge.Proposal",
          "name": "",
          "type": "tuple"
        }
      ],
      "stateMutability": "view",
      "type": "function"
    },
    {
      "inputs": [
        {
          "internalType": "bytes32",
          "name": "role",
          "type": "bytes32"
        }
      ],
      "name": "getRoleAdmin",
      "outputs": [
        {
          "internalType": "bytes32",
          "name": "",
          "type": "bytes32"
        }
      ],
      "stateMutability": "view",
      "type": "function"
    },
    {
      "inputs": [
        {
          "internalType": "bytes32",
          "name": "role",
          "type": "bytes32"
        },
        {
          "internalType": "uint256",
          "name": "index",
          "type": "uint256"
        }
      ],
      "name": "getRoleMember",
      "outputs": [
        {
          "internalType": "address",
          "name": "",
          "type": "address"
        }
      ],
      "stateMutability": "view",
      "type": "function"
    },
    {
      "inputs": [
        {
          "internalType": "bytes32",
          "name": "role",
          "type": "bytes32"
        }
      ],
      "name": "getRoleMemberCount",
      "outputs": [
        {
          "internalType": "uint256",
          "name": "",
          "type": "uint256"
        }
      ],
      "stateMutability": "view",
      "type": "function"
    },
    {
      "inputs": [
        {
          "internalType": "bytes32",
          "name": "role",
          "type": "bytes32"
        },
        {
          "internalType": "address",
          "name": "account",
          "type": "address"
        }
      ],
      "name": "getRoleMemberIndex",
      "outputs": [
        {
          "internalType": "uint256",
          "name": "",
          "type": "uint256"
        }
      ],
      "stateMutability": "view",
      "type": "function"
    },
    {
      "inputs": [
        {
          "internalType": "bytes32",
          "name": "role",
          "type": "bytes32"
        },
        {
          "internalType": "address",
          "name": "account",
          "type": "address"
        }
      ],
      "name": "grantRole",
      "outputs": [],
      "stateMutability": "nonpayable",
      "type": "function"
    },
    {
      "inputs": [
        {
          "internalType": "bytes32",
          "name": "role",
          "type": "bytes32"
        },
        {
          "internalType": "address",
          "name": "account",
          "type": "address"
        }
      ],
      "name": "hasRole",
      "outputs": [
        {
          "internalType": "bool",
          "name": "",
          "type": "bool"
        }
      ],
      "stateMutability": "view",
      "type": "function"
    },
    {
      "inputs": [
        {
          "internalType": "address",
          "name": "relayer",
          "type": "address"
        }
      ],
      "name": "isRelayer",
      "outputs": [
        {
          "internalType": "bool",
          "name": "",
          "type": "bool"
        }
      ],
      "stateMutability": "view",
      "type": "function"
    },
    {
      "inputs": [
        {
          "internalType": "address",
          "name": "",
          "type": "address"
        }
      ],
      "name": "isValidForwarder",
      "outputs": [
        {
          "internalType": "bool",
          "name": "",
          "type": "bool"
        }
      ],
      "stateMutability": "view",
      "type": "function"
    },
    {
      "inputs": [],
      "name": "paused",
      "outputs": [
        {
          "internalType": "bool",
          "name": "",
          "type": "bool"
        }
      ],
      "stateMutability": "view",
      "type": "function"
    },
    {
      "inputs": [
        {
          "internalType": "address",
          "name": "newAdmin",
          "type": "address"
        }
      ],
      "name": "renounceAdmin",
      "outputs": [],
      "stateMutability": "nonpayable",
      "type": "function"
    },
    {
      "inputs": [
        {
          "internalType": "bytes32",
          "name": "role",
          "type": "bytes32"
        },
        {
          "internalType": "address",
          "name": "account",
          "type": "address"
        }
      ],
      "name": "renounceRole",
      "outputs": [],
      "stateMutability": "nonpayable",
      "type": "function"
    },
    {
      "inputs": [
        {
          "internalType": "bytes32",
          "name": "role",
          "type": "bytes32"
        },
        {
          "internalType": "address",
          "name": "account",
          "type": "address"
        }
      ],
      "name": "revokeRole",
      "outputs": [],
      "stateMutability": "nonpayable",
      "type": "function"
    },
    {
      "inputs": [
        {
          "internalType": "address payable[]",
          "name": "addrs",
          "type": "address[]"
        },
        {
          "internalType": "uint256[]",
          "name": "amounts",
          "type": "uint256[]"
        }
      ],
      "name": "transferFunds",
      "outputs": [],
      "stateMutability": "nonpayable",
      "type": "function"
    },
    {
      "inputs": [
        {
          "internalType": "uint8",
          "name": "domainID",
          "type": "uint8"
        },
        {
          "internalType": "uint64",
          "name": "depositNonce",
          "type": "uint64"
        },
        {
          "internalType": "bytes32",
          "name": "resourceID",
          "type": "bytes32"
        },
        {
          "internalType": "bytes",
          "name": "data",
          "type": "bytes"
        }
      ],
      "name": "voteProposal",
      "outputs": [],
      "stateMutability": "nonpayable",
      "type": "function"
    },
    {
      "inputs": [
        {
          "internalType": "uint8",
          "name": "domainID",
          "type": "uint8"
        },
        {
          "internalType": "uint64",
          "name": "depositNonce",
          "type": "uint64"
        },
        {
          "internalType": "bytes32",
          "name": "resourceID",
          "type": "bytes32"
        },
        {
          "internalType": "bytes",
          "name": "data",
          "type": "bytes"
        },
        {
          "internalType": "uint256",
          "name": "deadline",
          "type": "uint256"
        },
        {
          "internalType": "bytes[]",
          "name": "signatures",
          "type": "bytes[]"
        }
      ],
      "name": "voteProposals",
      "outputs": [],
      "stateMutability": "nonpayable",
      "type": "function"
    }
  ],
  "bytecode": "0x6101806040523480156200001257600080fd5b5060405162004c7c38038062004c7c83398101604081905262000035916200062a565b604080518082018252600c81526b5065726d697442726964676560a01b6020808301918252835180850190945260038452620312e360ec1b908401528151902060e08190527fe6bbd6277e1bf288eed5e8d1780f9a50b239e86b153736bceebccf4ea79d90b36101008190524660a0529192917f8b73c3c69bb8fe3d512ecc4cf759cc79239f7b179b0ffacaa9a75d522b39400f620001198184846040805160208101859052908101839052606081018290524660808201523060a082015260009060c0016040516020818303038152906040528051906020012090509392505050565b6080523060c0526101205250506000805460ff199081169091556002805490911660ff8b16179055506200015b905085620002dd602090811b62002c3e17901c565b600260016101000a81548160ff021916908360ff1602179055506200018b846200033660201b62002c951760201c565b6002806101000a8154816001600160801b0302191690836001600160801b03160217905550620001c6836200038d60201b62002cea1760201c565b6002805464ffffffffff92909216600160901b0264ffffffffff60901b19909216919091179055620002036000620001fd620003e6565b62000429565b60005b865181101562000273576200025e7fe2b7fb3b832174769106daebcfd6d1970523240dda11281102db9363b83b0dc48883815181106200024a576200024a62000753565b60200260200101516200043960201b60201c565b806200026a8162000769565b91505062000206565b506101408290526001600160a01b038116620002c35760405162461bcd60e51b815260206004820152600a6024820152690ae8aa89040d2e64060f60b31b60448201526064015b60405180910390fd5b6001600160a01b0316610160525062000793945050505050565b60006101008210620003325760405162461bcd60e51b815260206004820152601c60248201527f76616c756520646f6573206e6f742066697420696e20382062697473000000006044820152606401620002ba565b5090565b6000600160801b8210620003325760405162461bcd60e51b815260206004820152601e60248201527f76616c756520646f6573206e6f742066697420696e20313238206269747300006044820152606401620002ba565b6000650100000000008210620003325760405162461bcd60e51b815260206004820152601d60248201527f76616c756520646f6573206e6f742066697420696e20343020626974730000006044820152606401620002ba565b600033601436108015906200041357506001600160a01b03811660009081526006602052604090205460ff165b1562000424575060131936013560601c5b919050565b620004358282620004c6565b5050565b60008281526001602052604090206002015462000460906200045a620003e6565b62000541565b620004295760405162461bcd60e51b815260206004820152602f60248201527f416363657373436f6e74726f6c3a2073656e646572206d75737420626520616e60448201526e0818591b5a5b881d1bc819dc985b9d608a1b6064820152608401620002ba565b6000828152600160209081526040909120620004ed91839062002d4162000570821b17901c565b156200043557620004fd620003e6565b6001600160a01b0316816001600160a01b0316837f2f8788117e7eff1d82e926ec794901d17c78024a50270940304540a733656f0d60405160405180910390a45050565b600082815260016020908152604082206200056791849062002d5662000587821b17901c565b90505b92915050565b600062000567836001600160a01b038416620005aa565b6001600160a01b0381166000908152600183016020526040812054151562000567565b6000818152600183016020526040812054620005f3575081546001818101845560008481526020808220909301849055845484825282860190935260409020919091556200056a565b5060006200056a565b634e487b7160e01b600052604160045260246000fd5b80516001600160a01b03811681146200042457600080fd5b600080600080600080600060e0888a0312156200064657600080fd5b875160ff811681146200065857600080fd5b602089810151919850906001600160401b03808211156200067857600080fd5b818b0191508b601f8301126200068d57600080fd5b815181811115620006a257620006a2620005fc565b8060051b604051601f19603f83011681018181108582111715620006ca57620006ca620005fc565b60405291825284820192508381018501918e831115620006e957600080fd5b938501935b828510156200071257620007028562000612565b84529385019392850192620006ee565b809b5050505050505060408801519450606088015193506080880151925060a088015191506200074560c0890162000612565b905092959891949750929550565b634e487b7160e01b600052603260045260246000fd5b60006000198214156200078c57634e487b7160e01b600052601160045260246000fd5b5060010190565b60805160a05160c05160e0516101005161012051610140516101605161446e6200080e6000396000612a430152600081816128f80152818161297e01528181612b1d0152612bdc0152600061334d0152600061339c01526000613377015260006132d0015260006132fa01526000613324015261446e6000f3fe6080604052600436106102935760003560e01c80638c0c26311161015a578063c5b37c22116100c1578063d547741f1161007a578063d547741f146108c3578063d7a9cd79146108e3578063edc20c3c14610902578063f179637c14610922578063f8c39e4414610935578063ffaac0eb1461096557600080fd5b8063c5b37c22146107ca578063c5ec897014610808578063ca15c87314610843578063cb10f21514610863578063cdb0f73a14610883578063d15ef64e146108a357600080fd5b80639dd694f4116101135780639dd694f4146107075780639debb3bd14610733578063a217fddf14610748578063a9cf69fa1461075d578063bd2a18201461078a578063c0331b3e146107aa57600080fd5b80638c0c2631146106455780639010d07c1461066557806391c404ac1461068557806391d14854146106a5578063926d7d7f146106c55780639d82dd63146106e757600080fd5b80634e056005116101fe57806369a8c246116101b757806369a8c2461461056d5780637d026d961461058d5780637febe63f146105ad578063802aabe8146105cd57806380ae1c28146105e257806384db809f146105f757600080fd5b80634e0560051461047f5780634e0df3f61461049f578063541d5548146104e55780635a1ad87c146105155780635c975abb146105355780635e1fab0f1461054d57600080fd5b8063248a9ca311610250578063248a9ca31461036d5780632f2ff15d1461039d57806330adf81f146103bd57806336568abe146103f15780634603ae38146104115780634b0b919d1461043157600080fd5b806302dbcbb41461029857806305e2ca17146102ba578063083132c4146102cd57806317f03ce5146103005780631a5ae9ad14610320578063206a98fd1461034d575b600080fd5b3480156102a457600080fd5b506102b86102b3366004613a1c565b61097a565b005b6102b86102c8366004613b42565b61109e565b3480156102d957600080fd5b506102ed6102e8366004613b9b565b61128b565b6040519081526020015b60405180910390f35b34801561030c57600080fd5b506102b861031b366004613bb6565b61129c565b34801561032c57600080fd5b506102ed61033b366004613b9b565b60036020526000908152604090205481565b34801561035957600080fd5b506102b8610368366004613c02565b61152d565b34801561037957600080fd5b506102ed610388366004613c7e565b60009081526001602052604090206002015490565b3480156103a957600080fd5b506102b86103b8366004613cac565b6117b3565b3480156103c957600080fd5b506102ed7f2d4bf2f549618aef3da754fb1db8d08f4e7fca928c58fa22476f387e7fa3aabe81565b3480156103fd57600080fd5b506102b861040c366004613cac565b611843565b34801561041d57600080fd5b506102b861042c366004613d20565b6118cd565b34801561043d57600080fd5b5061046761044c366004613b9b565b6004602052600090815260409020546001600160401b031681565b6040516001600160401b0390911681526020016102f7565b34801561048b57600080fd5b506102b861049a366004613c7e565b611971565b3480156104ab57600080fd5b506102ed6104ba366004613cac565b60008281526001602081815260408084206001600160a01b0386168552909201905290205492915050565b3480156104f157600080fd5b50610505610500366004613d7f565b6119d4565b60405190151581526020016102f7565b34801561052157600080fd5b506102b8610530366004613db4565b6119ee565b34801561054157600080fd5b5060005460ff16610505565b34801561055957600080fd5b506102b8610568366004613d7f565b611a97565b34801561057957600080fd5b506102b8610588366004613e12565b611b23565b34801561059957600080fd5b506102b86105a8366004613c7e565b611bb5565b3480156105b957600080fd5b506105056105c8366004613e3e565b611beb565b3480156105d957600080fd5b506102ed611c8f565b3480156105ee57600080fd5b506102b8611cad565b34801561060357600080fd5b5061062d610612366004613c7e565b6005602052600090815260409020546001600160a01b031681565b6040516001600160a01b0390911681526020016102f7565b34801561065157600080fd5b506102b8610660366004613e8c565b611cc7565b34801561067157600080fd5b5061062d610680366004613eba565b611d2a565b34801561069157600080fd5b506102b86106a0366004613c7e565b611d49565b3480156106b157600080fd5b506105056106c0366004613cac565b611de3565b3480156106d157600080fd5b506102ed60008051602061441983398151915281565b3480156106f357600080fd5b506102b8610702366004613d7f565b611dfb565b34801561071357600080fd5b506002546107219060ff1681565b60405160ff90911681526020016102f7565b34801561073f57600080fd5b506102ed60c881565b34801561075457600080fd5b506102ed600081565b34801561076957600080fd5b5061077d610778366004613bb6565b611eb0565b6040516102f79190613f14565b34801561079657600080fd5b506102b86107a5366004613f5d565b611f7e565b3480156107b657600080fd5b506102b86107c5366004613fac565b611fb4565b3480156107d657600080fd5b506002546107f0906201000090046001600160801b031681565b6040516001600160801b0390911681526020016102f7565b34801561081457600080fd5b5060025461082d90600160901b900464ffffffffff1681565b60405164ffffffffff90911681526020016102f7565b34801561084f57600080fd5b506102ed61085e366004613c7e565b612579565b34801561086f57600080fd5b506102b861087e36600461401a565b612590565b34801561088f57600080fd5b506102b861089e366004613d7f565b612624565b3480156108af57600080fd5b506102b86108be36600461403a565b61272a565b3480156108cf57600080fd5b506102b86108de366004613cac565b61275d565b3480156108ef57600080fd5b5060025461072190610100900460ff1681565b34801561090e57600080fd5b506102b861091d366004614066565b6127e0565b6102b8610930366004613b42565b612899565b34801561094157600080fd5b50610505610950366004613d7f565b60066020526000908152604090205460ff1681565b34801561097157600080fd5b506102b8612c26565b610982612d78565b60008581526005602090815260408083205490516001600160a01b039091169268ffffffffffffffff0060088b901b1660ff8c16179290916109ca9185918a918a9101614090565b60408051601f1981840301815282825280516020918201206001600160481b03861660009081526007835283812082825290925282822060808501909352825490945090929190829060ff166004811115610a2757610a27613edc565b6004811115610a3857610a38613edc565b8152905461010081046001600160c81b03166020830152600160d01b810460ff166040830152600160d81b900464ffffffffff16606090910152905042861015610ab45760405162461bcd60e51b8152602060048201526008602482015267657870697265642160c01b60448201526064015b60405180910390fd5b6000898152600560205260409020546001600160a01b0316610b145760405162461bcd60e51b81526020600482015260196024820152781b9bc81a185b991b195c88199bdc881c995cdbdd5c98d95251603a1b6044820152606401610aab565b60005b8551811015610eba57600282516004811115610b3557610b35613edc565b1415610b5457610b4a8c8c8b8b8e600161152d565b5050505050611095565b60007f2d4bf2f549618aef3da754fb1db8d08f4e7fca928c58fa22476f387e7fa3aabe8d8d8d8d8d8d604051602001610b9397969594939291906140e5565b6040516020818303038152906040528051906020012090506000610bb682612dbe565b90506000610bdd828a8681518110610bd057610bd0614131565b6020026020010151612e0c565b9050610bf760008051602061441983398151915282611de3565b610c435760405162461bcd60e51b815260206004820181905260248201527f73656e64657220646f65736e277420686176652072656c6179657220726f6c656044820152606401610aab565b84516001906004811115610c5957610c59613edc565b1115610c775760405162461bcd60e51b8152600401610aab90614147565b610c818582612e30565b15610cc65760405162461bcd60e51b81526020600482015260156024820152741c995b185e595c88185b1c9958591e481d9bdd1959605a1b6044820152606401610aab565b600085516004811115610cdb57610cdb613edc565b1415610d4c576040805160808101909152806001815260200160006001600160c81b03168152602001600060ff1681526020014364ffffffffff1681525094506000805160206143f98339815191528f8f600189604051610d3f949392919061418a565b60405180910390a1610db3565b600254606086015164ffffffffff600160901b909204821691610d7191439116612e53565b64ffffffffff161115610db35760048581815250506000805160206143f98339815191528f8f600489604051610daa949392919061418a565b60405180910390a15b600485516004811115610dc857610dc8613edc565b14610ea457610ded610dd982612e95565b86602001516001600160c81b031617612ee2565b6001600160c81b0316602086015260408501805190610e0b826141d5565b60ff1660ff16815250507f25f8daaa4635a7729927ba3f5b3d59cc3320aca7c32c9db4e7ca7b95743436408f8f876000015189604051610e4e949392919061418a565b60405180910390a1600254604086015160ff6101009092048216911610610ea45760028581815250506000805160206143f98339815191528f8f600289604051610e9b949392919061418a565b60405180910390a15b5050508080610eb2906141f5565b915050610b17565b506001600160481b038316600090815260076020908152604080832085845290915290208151815483929190829060ff19166001836004811115610f0057610f00613edc565b021790555060208201518154604084015160609094015164ffffffffff16600160d81b026001600160d81b0360ff909516600160d01b0260ff60d01b196001600160c81b039094166101000293909316610100600160d81b0319909216919091179190911792909216919091179055600281516004811115610f8457610f84613edc565b14156110905760405163712467f960e11b815284906001600160a01b0382169063e248cff290610fbc908d908d908d90600401614210565b600060405180830381600087803b158015610fd657600080fd5b505af1925050508015610fe7575060015b611062573d808015611015576040519150601f19603f3d011682016040523d82523d6000602084013e61101a565b606091505b50600283526040517fbd37c1f0d53bb2f33fe4c2104de272fcdeb4d2fef3acdbf1e4ddc3d6833ca3769061104f908390614286565b60405180910390a1505050505050611095565b6000805160206143f98339815191528c8c600386604051611086949392919061418a565b60405180910390a1505b505050505b50505050505050565b6110a6612d78565b6110af84612f37565b34146110f65760405162461bcd60e51b8152602060048201526016602482015275125b98dbdc9c9958dd08199959481cdd5c1c1b1a595960521b6044820152606401610aab565b6000838152600560205260409020546001600160a01b03168061115b5760405162461bcd60e51b815260206004820181905260248201527f7265736f757263654944206e6f74206d617070656420746f2068616e646c65726044820152606401610aab565b60ff8516600090815260046020526040812080548290611183906001600160401b0316614299565b91906101000a8154816001600160401b0302191690836001600160401b031602179055905060006111b2612f6f565b60405163b07e54bb60e01b815290915083906000906001600160a01b0383169063b07e54bb906111ec908b9087908c908c906004016142c0565b6000604051808303816000875af115801561120b573d6000803e3d6000fd5b505050506040513d6000823e601f3d908101601f1916820160405261123391908101906142f5565b9050826001600160a01b03167f17bc3181e17a9620a479c24e6c606e474ba84fc036877b768926872e8cd0e11f8a8a878b8b8760405161127896959493929190614362565b60405180910390a2505050505050505050565b600061129682612f37565b92915050565b6112a4612fb0565b60ff838116600884901b68ffffffffffffffff00161760008181526007602090815260408083208684529091528082208151608081019092528054939492939192909183911660048111156112fb576112fb613edc565b600481111561130c5761130c613edc565b8152905461010081046001600160c81b03166020830152600160d01b810460ff166040830152600160d81b900464ffffffffff166060909101528051909150600181600481111561135f5761135f613edc565b148061137c5750600281600481111561137a5761137a613edc565b145b6113c85760405162461bcd60e51b815260206004820152601c60248201527f50726f706f73616c2063616e6e6f742062652063616e63656c6c6564000000006044820152606401610aab565b600254606083015164ffffffffff600160901b9092048216916113ed91439116612e53565b64ffffffffff16116114415760405162461bcd60e51b815260206004820181905260248201527f50726f706f73616c206e6f7420617420657870697279207468726573686f6c646044820152606401610aab565b60048083526001600160481b03841660009081526007602090815260408083208884529091529020835181548593839160ff191690600190849081111561148a5761148a613edc565b02179055506020820151815460408085015160609095015164ffffffffff16600160d81b026001600160d81b0360ff909616600160d01b0260ff60d01b196001600160c81b039095166101000294909416610100600160d81b0319909316929092179290921793909316929092179055516000805160206143f98339815191529061151d9088908890600490899061418a565b60405180910390a1505050505050565b611535613034565b61153d612d78565b60008281526005602090815260408083205490516001600160a01b039091169268ffffffffffffffff0060088a901b1660ff8b16179290916115859185918a918a9101614090565b60408051601f1981840301815291815281516020928301206001600160481b03851660009081526007845282812082825290935291209091506002815460ff1660048111156115d6576115d6613edc565b146116235760405162461bcd60e51b815260206004820181905260248201527f50726f706f73616c206d757374206861766520506173736564207374617475736044820152606401610aab565b805460ff1916600317815583851561169c5760405163712467f960e11b81526001600160a01b0382169063e248cff290611665908a908d908d90600401614210565b600060405180830381600087803b15801561167f57600080fd5b505af1158015611693573d6000803e3d6000fd5b50505050611779565b60405163712467f960e11b81526001600160a01b0382169063e248cff2906116cc908a908d908d90600401614210565b600060405180830381600087803b1580156116e657600080fd5b505af19250505080156116f7575060015b611779573d808015611725576040519150601f19603f3d011682016040523d82523d6000602084013e61172a565b606091505b50825460ff191660021783556040517fbd37c1f0d53bb2f33fe4c2104de272fcdeb4d2fef3acdbf1e4ddc3d6833ca37690611766908390614286565b60405180910390a15050505050506117ab565b6000805160206143f98339815191528b8b60038660405161179d949392919061418a565b60405180910390a150505050505b505050505050565b6000828152600160205260409020600201546117d1906106c0612f6f565b6118355760405162461bcd60e51b815260206004820152602f60248201527f416363657373436f6e74726f6c3a2073656e646572206d75737420626520616e60448201526e0818591b5a5b881d1bc819dc985b9d608a1b6064820152608401610aab565b61183f828261309a565b5050565b61184b612f6f565b6001600160a01b0316816001600160a01b0316146118c35760405162461bcd60e51b815260206004820152602f60248201527f416363657373436f6e74726f6c3a2063616e206f6e6c792072656e6f756e636560448201526e103937b632b9903337b91039b2b63360891b6064820152608401610aab565b61183f8282613103565b6118d561316c565b60005b8381101561196a578484828181106118f2576118f2614131565b90506020020160208101906119079190613d7f565b6001600160a01b03166108fc84848481811061192557611925614131565b905060200201359081150290604051600060405180830381858888f19350505050158015611957573d6000803e3d6000fd5b5080611962816141f5565b9150506118d8565b5050505050565b61197961316c565b61198281612c3e565b6002805460ff929092166101000261ff00199092169190911790556040518181527fa20d6b84cd798a24038be305eff8a45ca82ef54a2aa2082005d8e14c0a4746c8906020015b60405180910390a150565b600061129660008051602061441983398151915283611de3565b6119f661316c565b6000858152600560205260409081902080546001600160a01b0319166001600160a01b03898116918217909255915163de319d9960e01b81526004810188905290861660248201526001600160e01b03198086166044830152606482018590528316608482015287919063de319d999060a401600060405180830381600087803b158015611a8357600080fd5b505af1158015611090573d6000803e3d6000fd5b611a9f61316c565b6000611aa9612f6f565b9050816001600160a01b0316816001600160a01b03161415611b0d5760405162461bcd60e51b815260206004820152601760248201527f43616e6e6f742072656e6f756e6365206f6e6573656c660000000000000000006044820152606401610aab565b611b186000836117b3565b61183f600082611843565b611b2b61316c565b60ff811660009081526003602052604090205482811415611ba05760405162461bcd60e51b815260206004820152602960248201527f43757272656e74207370656369616c2066656520657175616c7320746f20746860448201526865206e65772066656560b81b6064820152608401610aab565b5060ff16600090815260036020526040902055565b611bbd61316c565b611bc681612cea565b600260126101000a81548164ffffffffff021916908364ffffffffff16021790555050565b6001600160481b03831660009081526007602090815260408083208584529091528082208151608081019092528054611c87929190829060ff166004811115611c3657611c36613edc565b6004811115611c4757611c47613edc565b8152905461010081046001600160c81b03166020830152600160d01b810460ff166040830152600160d81b900464ffffffffff1660609091015283612e30565b949350505050565b6000611ca8600080516020614419833981519152612579565b905090565b611cb561316c565b611cc5611cc0612f6f565b6131c5565b565b611ccf61316c565b6040516307b7ed9960e01b81526001600160a01b0382811660048301528391908216906307b7ed99906024015b600060405180830381600087803b158015611d1657600080fd5b505af1158015611095573d6000803e3d6000fd5b6000828152600160205260408120611d429083613213565b9392505050565b611d5161316c565b6002546201000090046001600160801b0316811415611db25760405162461bcd60e51b815260206004820152601f60248201527f43757272656e742066656520697320657175616c20746f206e657720666565006044820152606401610aab565b611dbb81612c95565b6002806101000a8154816001600160801b0302191690836001600160801b0316021790555050565b6000828152600160205260408120611d429083612d56565b611e1360008051602061441983398151915282611de3565b611e5f5760405162461bcd60e51b815260206004820152601f60248201527f6164647220646f65736e277420686176652072656c6179657220726f6c6521006044820152606401610aab565b611e776000805160206144198339815191528261275d565b6040516001600160a01b03821681527f10e1f7ce9fd7d1b90a66d13a2ab3cb8dd7f29f3f8d520b143b063ccfbab6906b906020016119c9565b60408051608081018252600080825260208201819052918101829052606081019190915260ff848116600885901b68ffffffffffffffff00161760008181526007602090815260408083208784529091529081902081516080810190925280549293919290918391166004811115611f2a57611f2a613edc565b6004811115611f3b57611f3b613edc565b8152905461010081046001600160c81b03166020830152600160d01b810460ff166040830152600160d81b900464ffffffffff1660609091015295945050505050565b611f8661316c565b60405163025a3c9960e21b815282906001600160a01b03821690630968f26490611cfc908590600401614286565b611fbc613034565b611fc4612d78565b60008381526005602090815260408083205490516001600160a01b039091169268ffffffffffffffff00600889901b1660ff8a161792909161200c9185918891889101614090565b60408051601f1981840301815282825280516020918201206001600160481b03861660009081526007835283812082825290925282822060808501909352825490945090929190829060ff16600481111561206957612069613edc565b600481111561207a5761207a613edc565b8152905461010081046001600160c81b0316602080840191909152600160d01b820460ff16604080850191909152600160d81b90920464ffffffffff1660609093019290925260008a815260059092529020549091506001600160a01b03166121215760405162461bcd60e51b81526020600482015260196024820152781b9bc81a185b991b195c88199bdc881c995cdbdd5c98d95251603a1b6044820152606401610aab565b60028151600481111561213657612136613edc565b14156121545761214b898988888b600161152d565b5050505061196a565b600061215e612f6f565b905060018260000151600481111561217857612178613edc565b11156121965760405162461bcd60e51b8152600401610aab90614147565b6121a08282612e30565b156121e55760405162461bcd60e51b81526020600482015260156024820152741c995b185e595c88185b1c9958591e481d9bdd1959605a1b6044820152606401610aab565b6000825160048111156121fa576121fa613edc565b141561225a576040805160808101825260018082526000602083018190528284015264ffffffffff4316606083015291519093506000805160206143f98339815191529161224d918d918d91889061418a565b60405180910390a16122bc565b600254606083015164ffffffffff600160901b90920482169161227f91439116612e53565b64ffffffffff1611156122bc5760048083526040516000805160206143f9833981519152916122b3918d918d91889061418a565b60405180910390a15b6004825160048111156122d1576122d1613edc565b146123a1576122f66122e282612e95565b83602001516001600160c81b031617612ee2565b6001600160c81b0316602083015260408201805190612314826141d5565b60ff1690525081516040517f25f8daaa4635a7729927ba3f5b3d59cc3320aca7c32c9db4e7ca7b957434364091612350918d918d91889061418a565b60405180910390a1600254604083015160ff61010090920482169116106123a15760028083526040516000805160206143f983398151915291612398918d918d91889061418a565b60405180910390a15b6001600160481b038416600090815260076020908152604080832086845290915290208251815484929190829060ff191660018360048111156123e6576123e6613edc565b021790555060208201518154604084015160609094015164ffffffffff16600160d81b026001600160d81b0360ff909516600160d01b0260ff60d01b196001600160c81b039094166101000293909316610100600160d81b031990921691909117919091179290921691909117905560028251600481111561246a5761246a613edc565b141561256d5760405163712467f960e11b815285906001600160a01b0382169063e248cff2906124a2908c908c908c90600401614210565b600060405180830381600087803b1580156124bc57600080fd5b505af19250505080156124cd575060015b612549573d8080156124fb576040519150601f19603f3d011682016040523d82523d6000602084013e612500565b606091505b50600284526040517fbd37c1f0d53bb2f33fe4c2104de272fcdeb4d2fef3acdbf1e4ddc3d6833ca37690612535908390614286565b60405180910390a15050505050505061196a565b6000805160206143f98339815191528b8b60038760405161179d949392919061418a565b50505050505050505050565b60008181526001602052604081206112969061321f565b61259861316c565b6000828152600560205260409081902080546001600160a01b0319166001600160a01b038681169182179092559151635c7d1b9b60e11b815260048101859052908316602482015284919063b8fa373690604401600060405180830381600087803b15801561260657600080fd5b505af115801561261a573d6000803e3d6000fd5b5050505050505050565b61263c60008051602061441983398151915282611de3565b156126895760405162461bcd60e51b815260206004820152601e60248201527f6164647220616c7265616479206861732072656c6179657220726f6c652100006044820152606401610aab565b60c8612693611c8f565b106126d95760405162461bcd60e51b81526020600482015260166024820152751c995b185e595c9cc81b1a5b5a5d081c995858da195960521b6044820152606401610aab565b6126f1600080516020614419833981519152826117b3565b6040516001600160a01b03821681527f03580ee9f53a62b7cb409a2cb56f9be87747dd15017afc5cef6eef321e4fb2c5906020016119c9565b61273261316c565b6001600160a01b03919091166000908152600660205260409020805460ff1916911515919091179055565b60008281526001602052604090206002015461277b906106c0612f6f565b6118c35760405162461bcd60e51b815260206004820152603060248201527f416363657373436f6e74726f6c3a2073656e646572206d75737420626520616e60448201526f2061646d696e20746f207265766f6b6560801b6064820152608401610aab565b6127e861316c565b60ff82166000908152600460205260409020546001600160401b03908116908216116128655760405162461bcd60e51b815260206004820152602660248201527f446f6573206e6f7420616c6c6f772064656372656d656e7473206f6620746865604482015265206e6f6e636560d01b6064820152608401610aab565b60ff919091166000908152600460205260409020805467ffffffffffffffff19166001600160401b03909216919091179055565b6128a1612d78565b60006128ac85612f37565b90508034116128f65760405162461bcd60e51b8152602060048201526016602482015275125b98dbdc9c9958dd08199959481cdd5c1c1b1a595960521b6044820152606401610aab565b7f00000000000000000000000000000000000000000000000000000000000000006000908152600560205260409020546001600160a01b03168061297c5760405162461bcd60e51b815260206004820181905260248201527f7265736f757263654944206e6f74206d617070656420746f2068616e646c65726044820152606401610aab565b7f000000000000000000000000000000000000000000000000000000000000000085146129e15760405162461bcd60e51b81526020600482015260136024820152720e4cae6deeae4c6ca928840dcdee840ae8aa89606b1b6044820152606401610aab565b60006129ed83346143b3565b9050608435808214612a415760405162461bcd60e51b815260206004820152601d60248201527f6d73672e76616c756520616e642064617461206d69736d6174636865640000006044820152606401610aab565b7f00000000000000000000000000000000000000000000000000000000000000006001600160a01b031663d0e30db0836040518263ffffffff1660e01b81526004016000604051808303818588803b158015612a9c57600080fd5b505af1158015612ab0573d6000803e3d6000fd5b50505060ff8a166000908152600460205260408120805491935091508290612ae0906001600160401b0316614299565b91906101000a8154816001600160401b0302191690836001600160401b031602179055905060008490506000816001600160a01b031663b07e54bb7f0000000000000000000000000000000000000000000000000000000000000000308c8c6040518563ffffffff1660e01b8152600401612b5e94939291906142c0565b6000604051808303816000875af1158015612b7d573d6000803e3d6000fd5b505050506040513d6000823e601f3d908101601f19168201604052612ba591908101906142f5565b9050612baf612f6f565b6001600160a01b03167f17bc3181e17a9620a479c24e6c606e474ba84fc036877b768926872e8cd0e11f8c7f0000000000000000000000000000000000000000000000000000000000000000868d8d87604051612c1196959493929190614362565b60405180910390a25050505050505050505050565b612c2e61316c565b611cc5612c39612f6f565b613229565b60006101008210612c915760405162461bcd60e51b815260206004820152601c60248201527f76616c756520646f6573206e6f742066697420696e20382062697473000000006044820152606401610aab565b5090565b6000600160801b8210612c915760405162461bcd60e51b815260206004820152601e60248201527f76616c756520646f6573206e6f742066697420696e20313238206269747300006044820152606401610aab565b6000650100000000008210612c915760405162461bcd60e51b815260206004820152601d60248201527f76616c756520646f6573206e6f742066697420696e20343020626974730000006044820152606401610aab565b6000611d42836001600160a01b038416613274565b6001600160a01b03811660009081526001830160205260408120541515611d42565b60005460ff1615611cc55760405162461bcd60e51b815260206004820152601060248201526f14185d5cd8589b194e881c185d5cd95960821b6044820152606401610aab565b6000611296612dcb6132c3565b8360405161190160f01b6020820152602281018390526042810182905260009060620160405160208183030381529060405280519060200120905092915050565b6000806000612e1b85856133ea565b91509150612e288161345a565b509392505050565b60008083602001516001600160c81b0316612e4a84612e95565b16119392505050565b6000611d4283836040518060400160405280601e81526020017f536166654d6174683a207375627472616374696f6e206f766572666c6f770000815250613615565b6001600160a01b03811660009081527f9b7fc797995519db25593326970d3304279d74cdaa6b7cc1a414e3eb0491de546020526040812054612ed8906001612e53565b6001901b92915050565b6000600160c81b8210612c915760405162461bcd60e51b815260206004820152601e60248201527f76616c756520646f6573206e6f742066697420696e20323030206269747300006044820152606401610aab565b60ff81166000908152600360205260408120548015612f565792915050565b50506002546201000090046001600160801b0316919050565b60003360143610801590612f9b57506001600160a01b03811660009081526006602052604090205460ff165b15612fab575060131936013560601c5b919050565b6000612fba612f6f565b9050612fc7600082611de3565b80612fe55750612fe560008051602061441983398151915282611de3565b6130315760405162461bcd60e51b815260206004820152601e60248201527f73656e646572206973206e6f742072656c61796572206f722061646d696e00006044820152606401610aab565b50565b61304e6000805160206144198339815191526106c0612f6f565b611cc55760405162461bcd60e51b815260206004820181905260248201527f73656e64657220646f65736e277420686176652072656c6179657220726f6c656044820152606401610aab565b60008281526001602052604090206130b29082612d41565b1561183f576130bf612f6f565b6001600160a01b0316816001600160a01b0316837f2f8788117e7eff1d82e926ec794901d17c78024a50270940304540a733656f0d60405160405180910390a45050565b600082815260016020526040902061311b908261364f565b1561183f57613128612f6f565b6001600160a01b0316816001600160a01b0316837ff6391f5c32d9c69d2a47ea670b442974b53935d1edc7fd64eb21e047a839171b60405160405180910390a45050565b61317960006106c0612f6f565b611cc55760405162461bcd60e51b815260206004820152601e60248201527f73656e64657220646f65736e277420686176652061646d696e20726f6c6500006044820152606401610aab565b6131cd612d78565b6000805460ff191660011790556040516001600160a01b03821681527f62e78cea01bee320cd4e420270b5ea74000d11b0c9f74754ebdbfc544b05a258906020016119c9565b6000611d428383613664565b6000611296825490565b61323161368e565b6000805460ff191690556040516001600160a01b03821681527f5db9ee0a495bf2e6ff9c91a7834c1ba4fdd244a5e8aa4e537bd38aeae4b073aa906020016119c9565b60008181526001830160205260408120546132bb57508154600181810184556000848152602080822090930184905584548482528286019093526040902091909155611296565b506000611296565b6000306001600160a01b037f00000000000000000000000000000000000000000000000000000000000000001614801561331c57507f000000000000000000000000000000000000000000000000000000000000000046145b1561334657507f000000000000000000000000000000000000000000000000000000000000000090565b50604080517f00000000000000000000000000000000000000000000000000000000000000006020808301919091527f0000000000000000000000000000000000000000000000000000000000000000828401527f000000000000000000000000000000000000000000000000000000000000000060608301524660808301523060a0808401919091528351808403909101815260c0909201909252805191012090565b6000808251604114156134215760208301516040840151606085015160001a613415878285856136d7565b94509450505050613453565b82516040141561344b57602083015160408401516134408683836137c4565b935093505050613453565b506000905060025b9250929050565b600081600481111561346e5761346e613edc565b14156134775750565b600181600481111561348b5761348b613edc565b14156134d95760405162461bcd60e51b815260206004820152601860248201527f45434453413a20696e76616c6964207369676e617475726500000000000000006044820152606401610aab565b60028160048111156134ed576134ed613edc565b141561353b5760405162461bcd60e51b815260206004820152601f60248201527f45434453413a20696e76616c6964207369676e6174757265206c656e677468006044820152606401610aab565b600381600481111561354f5761354f613edc565b14156135a85760405162461bcd60e51b815260206004820152602260248201527f45434453413a20696e76616c6964207369676e6174757265202773272076616c604482015261756560f01b6064820152608401610aab565b60048160048111156135bc576135bc613edc565b14156130315760405162461bcd60e51b815260206004820152602260248201527f45434453413a20696e76616c6964207369676e6174757265202776272076616c604482015261756560f01b6064820152608401610aab565b600081848411156136395760405162461bcd60e51b8152600401610aab9190614286565b50600061364684866143b3565b95945050505050565b6000611d42836001600160a01b0384166137fd565b600082600001828154811061367b5761367b614131565b9060005260206000200154905092915050565b60005460ff16611cc55760405162461bcd60e51b815260206004820152601460248201527314185d5cd8589b194e881b9bdd081c185d5cd95960621b6044820152606401610aab565b6000807f7fffffffffffffffffffffffffffffff5d576e7357a4501ddfe92f46681b20a083111561370e57506000905060036137bb565b8460ff16601b1415801561372657508460ff16601c14155b1561373757506000905060046137bb565b6040805160008082526020820180845289905260ff881692820192909252606081018690526080810185905260019060a0016020604051602081039080840390855afa15801561378b573d6000803e3d6000fd5b5050604051601f1901519150506001600160a01b0381166137b4576000600192509250506137bb565b9150600090505b94509492505050565b6000806001600160ff1b038316816137e160ff86901c601b6143ca565b90506137ef878288856136d7565b935093505050935093915050565b600081815260018301602052604081205480156138e65760006138216001836143b3565b8554909150600090613835906001906143b3565b905081811461389a57600086600001828154811061385557613855614131565b906000526020600020015490508087600001848154811061387857613878614131565b6000918252602080832090910192909255918252600188019052604090208390555b85548690806138ab576138ab6143e2565b600190038181906000526020600020016000905590558560010160008681526020019081526020016000206000905560019350505050611296565b6000915050611296565b803560ff81168114612fab57600080fd5b80356001600160401b0381168114612fab57600080fd5b60008083601f84011261392a57600080fd5b5081356001600160401b0381111561394157600080fd5b60208301915083602082850101111561345357600080fd5b634e487b7160e01b600052604160045260246000fd5b604051601f8201601f191681016001600160401b038111828210171561399757613997613959565b604052919050565b60006001600160401b038211156139b8576139b8613959565b50601f01601f191660200190565b600082601f8301126139d757600080fd5b81356139ea6139e58261399f565b61396f565b8181528460208386010111156139ff57600080fd5b816020850160208301376000918101602001919091529392505050565b600080600080600080600060c0888a031215613a3757600080fd5b613a40886138f0565b9650613a4e60208901613901565b95506040880135945060608801356001600160401b0380821115613a7157600080fd5b613a7d8b838c01613918565b909650945060808a0135935060a08a0135915080821115613a9d57600080fd5b818a0191508a601f830112613ab157600080fd5b813581811115613ac357613ac3613959565b8060051b613ad36020820161396f565b9182526020818501810192908101908e841115613aef57600080fd5b6020860192505b83831015613b2d578483351115613b0c57600080fd5b613b1c8f602085358901016139c6565b825260209283019290910190613af6565b80965050505050505092959891949750929550565b60008060008060608587031215613b5857600080fd5b613b61856138f0565b93506020850135925060408501356001600160401b03811115613b8357600080fd5b613b8f87828801613918565b95989497509550505050565b600060208284031215613bad57600080fd5b611d42826138f0565b600080600060608486031215613bcb57600080fd5b613bd4846138f0565b9250613be260208501613901565b9150604084013590509250925092565b80358015158114612fab57600080fd5b60008060008060008060a08789031215613c1b57600080fd5b613c24876138f0565b9550613c3260208801613901565b945060408701356001600160401b03811115613c4d57600080fd5b613c5989828a01613918565b90955093505060608701359150613c7260808801613bf2565b90509295509295509295565b600060208284031215613c9057600080fd5b5035919050565b6001600160a01b038116811461303157600080fd5b60008060408385031215613cbf57600080fd5b823591506020830135613cd181613c97565b809150509250929050565b60008083601f840112613cee57600080fd5b5081356001600160401b03811115613d0557600080fd5b6020830191508360208260051b850101111561345357600080fd5b60008060008060408587031215613d3657600080fd5b84356001600160401b0380821115613d4d57600080fd5b613d5988838901613cdc565b90965094506020870135915080821115613d7257600080fd5b50613b8f87828801613cdc565b600060208284031215613d9157600080fd5b8135611d4281613c97565b80356001600160e01b031981168114612fab57600080fd5b60008060008060008060c08789031215613dcd57600080fd5b8635613dd881613c97565b9550602087013594506040870135613def81613c97565b9350613dfd60608801613d9c565b925060808701359150613c7260a08801613d9c565b60008060408385031215613e2557600080fd5b82359150613e35602084016138f0565b90509250929050565b600080600060608486031215613e5357600080fd5b83356001600160481b0381168114613e6a57600080fd5b9250602084013591506040840135613e8181613c97565b809150509250925092565b60008060408385031215613e9f57600080fd5b8235613eaa81613c97565b91506020830135613cd181613c97565b60008060408385031215613ecd57600080fd5b50508035926020909101359150565b634e487b7160e01b600052602160045260246000fd5b60058110613f1057634e487b7160e01b600052602160045260246000fd5b9052565b6000608082019050613f27828451613ef2565b60018060c81b03602084015116602083015260ff604084015116604083015264ffffffffff606084015116606083015292915050565b60008060408385031215613f7057600080fd5b8235613f7b81613c97565b915060208301356001600160401b03811115613f9657600080fd5b613fa2858286016139c6565b9150509250929050565b600080600080600060808688031215613fc457600080fd5b613fcd866138f0565b9450613fdb60208701613901565b93506040860135925060608601356001600160401b03811115613ffd57600080fd5b61400988828901613918565b969995985093965092949392505050565b60008060006060848603121561402f57600080fd5b8335613e6a81613c97565b6000806040838503121561404d57600080fd5b823561405881613c97565b9150613e3560208401613bf2565b6000806040838503121561407957600080fd5b614082836138f0565b9150613e3560208401613901565b6bffffffffffffffffffffffff198460601b168152818360148301376000910160140190815292915050565b81835281816020850137506000828201602090810191909152601f909101601f19169091010190565b87815260ff871660208201526001600160401b038616604082015284606082015260c06080820152600061411d60c0830185876140bc565b90508260a083015298975050505050505050565b634e487b7160e01b600052603260045260246000fd5b60208082526023908201527f70726f706f73616c20616c72656164792065786563757465642f63616e63656c6040820152621b195960ea1b606082015260800190565b60ff851681526001600160401b0384166020820152608081016141b06040830185613ef2565b82606083015295945050505050565b634e487b7160e01b600052601160045260246000fd5b600060ff821660ff8114156141ec576141ec6141bf565b60010192915050565b6000600019821415614209576142096141bf565b5060010190565b8381526040602082015260006136466040830184866140bc565b60005b8381101561424557818101518382015260200161422d565b83811115614254576000848401525b50505050565b6000815180845261427281602086016020860161422a565b601f01601f19169290920160200192915050565b602081526000611d42602083018461425a565b60006001600160401b03808316818114156142b6576142b66141bf565b6001019392505050565b8481526001600160a01b03841660208201526060604082018190526000906142eb90830184866140bc565b9695505050505050565b60006020828403121561430757600080fd5b81516001600160401b0381111561431d57600080fd5b8201601f8101841361432e57600080fd5b805161433c6139e58261399f565b81815285602083850101111561435157600080fd5b61364682602083016020860161422a565b60ff871681528560208201526001600160401b038516604082015260a06060820152600061439460a0830185876140bc565b82810360808401526143a6818561425a565b9998505050505050505050565b6000828210156143c5576143c56141bf565b500390565b600082198211156143dd576143dd6141bf565b500190565b634e487b7160e01b600052603160045260246000fdfe968626a768e76ba1363efe44e322a6c4900c5f084e0b45f35e294dfddaa9e0d5e2b7fb3b832174769106daebcfd6d1970523240dda11281102db9363b83b0dc4a264697066735822122014807b866b4c20805c82993f461b441ab6d981ecb7ccb620c14633945426a8a064736f6c634300080b0033",
  "linkReferences": {},
  "deployedLinkReferences": {}
}