{
  "_format": "hh-sol-artifact-1",
  "contractName": "Bridge",
  "sourceName": "contracts/Bridge.sol",
  "abi": [
    {
      "inputs": [
        {
          "internalType": "uint8",
          "name": "domainID",
          "type": "uint8"
        },
        {
          "internalType": "address[]",
          "name": "initialRelayers",
          "type": "address[]"
        },
        {
          "internalType": "uint256",
          "name": "initialRelayerThreshold",
          "type": "uint256"
        },
        {
          "internalType": "uint256",
          "name": "fee",
          "type": "uint256"
        },
        {
          "internalType": "uint256",
          "name": "expiry",
          "type": "uint256"
        },
        {
          "internalType": "bytes32",
          "name": "_ETHresourceID",
          "type": "bytes32"
        },
        {
          "internalType": "address",
          "name": "_WETH",
          "type": "address"
        }
      ],
      "stateMutability": "nonpayable",
      "type": "constructor"
    },
    {
      "inputs": [
        {
          "internalType": "address",
          "name": "signer",
          "type": "address"
        },
        {
          "internalType": "uint256",
          "name": "index",
          "type": "uint256"
        }
      ],
      "name": "InviladSignature",
      "type": "error"
    },
    {
      "anonymous": false,
      "inputs": [
        {
          "indexed": false,
          "internalType": "uint8",
          "name": "destinationDomainID",
          "type": "uint8"
        },
        {
          "indexed": false,
          "internalType": "bytes32",
          "name": "resourceID",
          "type": "bytes32"
        },
        {
          "indexed": false,
          "internalType": "uint64",
          "name": "depositNonce",
          "type": "uint64"
        },
        {
          "indexed": true,
          "internalType": "address",
          "name": "user",
          "type": "address"
        },
        {
          "indexed": false,
          "internalType": "bytes",
          "name": "data",
          "type": "bytes"
        },
        {
          "indexed": false,
          "internalType": "bytes",
          "name": "handlerResponse",
          "type": "bytes"
        }
      ],
      "name": "Deposit",
      "type": "event"
    },
    {
      "anonymous": false,
      "inputs": [
        {
          "indexed": false,
          "internalType": "bytes",
          "name": "lowLevelData",
          "type": "bytes"
        }
      ],
      "name": "FailedHandlerExecution",
      "type": "event"
    },
    {
      "anonymous": false,
      "inputs": [
        {
          "indexed": false,
          "internalType": "address",
          "name": "account",
          "type": "address"
        }
      ],
      "name": "Paused",
      "type": "event"
    },
    {
      "anonymous": false,
      "inputs": [
        {
          "indexed": false,
          "internalType": "uint8",
          "name": "originDomainID",
          "type": "uint8"
        },
        {
          "indexed": false,
          "internalType": "uint64",
          "name": "depositNonce",
          "type": "uint64"
        },
        {
          "indexed": false,
          "internalType": "enum IBridge.ProposalStatus",
          "name": "status",
          "type": "uint8"
        },
        {
          "indexed": false,
          "internalType": "bytes32",
          "name": "dataHash",
          "type": "bytes32"
        }
      ],
      "name": "ProposalEvent",
      "type": "event"
    },
    {
      "anonymous": false,
      "inputs": [
        {
          "indexed": false,
          "internalType": "uint8",
          "name": "originDomainID",
          "type": "uint8"
        },
        {
          "indexed": false,
          "internalType": "uint64",
          "name": "depositNonce",
          "type": "uint64"
        },
        {
          "indexed": false,
          "internalType": "enum IBridge.ProposalStatus",
          "name": "status",
          "type": "uint8"
        },
        {
          "indexed": false,
          "internalType": "bytes32",
          "name": "dataHash",
          "type": "bytes32"
        }
      ],
      "name": "ProposalVote",
      "type": "event"
    },
    {
      "anonymous": false,
      "inputs": [
        {
          "indexed": false,
          "internalType": "address",
          "name": "relayer",
          "type": "address"
        }
      ],
      "name": "RelayerAdded",
      "type": "event"
    },
    {
      "anonymous": false,
      "inputs": [
        {
          "indexed": false,
          "internalType": "address",
          "name": "relayer",
          "type": "address"
        }
      ],
      "name": "RelayerRemoved",
      "type": "event"
    },
    {
      "anonymous": false,
      "inputs": [
        {
          "indexed": false,
          "internalType": "uint256",
          "name": "newThreshold",
          "type": "uint256"
        }
      ],
      "name": "RelayerThresholdChanged",
      "type": "event"
    },
    {
      "anonymous": false,
      "inputs": [
        {
          "indexed": true,
          "internalType": "bytes32",
          "name": "role",
          "type": "bytes32"
        },
        {
          "indexed": true,
          "internalType": "address",
          "name": "account",
          "type": "address"
        },
        {
          "indexed": true,
          "internalType": "address",
          "name": "sender",
          "type": "address"
        }
      ],
      "name": "RoleGranted",
      "type": "event"
    },
    {
      "anonymous": false,
      "inputs": [
        {
          "indexed": true,
          "internalType": "bytes32",
          "name": "role",
          "type": "bytes32"
        },
        {
          "indexed": true,
          "internalType": "address",
          "name": "account",
          "type": "address"
        },
        {
          "indexed": true,
          "internalType": "address",
          "name": "sender",
          "type": "address"
        }
      ],
      "name": "RoleRevoked",
      "type": "event"
    },
    {
      "anonymous": false,
      "inputs": [
        {
          "indexed": false,
          "internalType": "address",
          "name": "account",
          "type": "address"
        }
      ],
      "name": "Unpaused",
      "type": "event"
    },
    {
      "inputs": [],
      "name": "DEFAULT_ADMIN_ROLE",
      "outputs": [
        {
          "internalType": "bytes32",
          "name": "",
          "type": "bytes32"
        }
      ],
      "stateMutability": "view",
      "type": "function"
    },
    {
      "inputs": [],
      "name": "MAX_RELAYERS",
      "outputs": [
        {
          "internalType": "uint256",
          "name": "",
          "type": "uint256"
        }
      ],
      "stateMutability": "view",
      "type": "function"
    },
    {
      "inputs": [],
      "name": "PERMIT_TYPEHASH",
      "outputs": [
        {
          "internalType": "bytes32",
          "name": "",
          "type": "bytes32"
        }
      ],
      "stateMutability": "view",
      "type": "function"
    },
    {
      "inputs": [],
      "name": "RELAYER_ROLE",
      "outputs": [
        {
          "internalType": "bytes32",
          "name": "",
          "type": "bytes32"
        }
      ],
      "stateMutability": "view",
      "type": "function"
    },
    {
      "inputs": [],
      "name": "_chainId",
      "outputs": [
        {
          "internalType": "uint256",
          "name": "",
          "type": "uint256"
        }
      ],
      "stateMutability": "view",
      "type": "function"
    },
    {
      "inputs": [
        {
          "internalType": "uint8",
          "name": "",
          "type": "uint8"
        }
      ],
      "name": "_depositCounts",
      "outputs": [
        {
          "internalType": "uint64",
          "name": "",
          "type": "uint64"
        }
      ],
      "stateMutability": "view",
      "type": "function"
    },
    {
      "inputs": [],
      "name": "_domainID",
      "outputs": [
        {
          "internalType": "uint8",
          "name": "",
          "type": "uint8"
        }
      ],
      "stateMutability": "view",
      "type": "function"
    },
    {
      "inputs": [],
      "name": "_expiry",
      "outputs": [
        {
          "internalType": "uint40",
          "name": "",
          "type": "uint40"
        }
      ],
      "stateMutability": "view",
      "type": "function"
    },
    {
      "inputs": [],
      "name": "_fee",
      "outputs": [
        {
          "internalType": "uint128",
          "name": "",
          "type": "uint128"
        }
      ],
      "stateMutability": "view",
      "type": "function"
    },
    {
      "inputs": [
        {
          "internalType": "uint72",
          "name": "destNonce",
          "type": "uint72"
        },
        {
          "internalType": "bytes32",
          "name": "dataHash",
          "type": "bytes32"
        },
        {
          "internalType": "address",
          "name": "relayer",
          "type": "address"
        }
      ],
      "name": "_hasVotedOnProposal",
      "outputs": [
        {
          "internalType": "bool",
          "name": "",
          "type": "bool"
        }
      ],
      "stateMutability": "view",
      "type": "function"
    },
    {
      "inputs": [],
      "name": "_relayerThreshold",
      "outputs": [
        {
          "internalType": "uint8",
          "name": "",
          "type": "uint8"
        }
      ],
      "stateMutability": "view",
      "type": "function"
    },
    {
      "inputs": [
        {
          "internalType": "bytes32",
          "name": "",
          "type": "bytes32"
        }
      ],
      "name": "_resourceIDToHandlerAddress",
      "outputs": [
        {
          "internalType": "address",
          "name": "",
          "type": "address"
        }
      ],
      "stateMutability": "view",
      "type": "function"
    },
    {
      "inputs": [
        {
          "internalType": "uint8",
          "name": "",
          "type": "uint8"
        }
      ],
      "name": "_specialFee",
      "outputs": [
        {
          "internalType": "uint256",
          "name": "",
          "type": "uint256"
        }
      ],
      "stateMutability": "view",
      "type": "function"
    },
    {
      "inputs": [],
      "name": "_totalRelayers",
      "outputs": [
        {
          "internalType": "uint256",
          "name": "",
          "type": "uint256"
        }
      ],
      "stateMutability": "view",
      "type": "function"
    },
    {
      "inputs": [
        {
          "internalType": "address",
          "name": "relayerAddress",
          "type": "address"
        }
      ],
      "name": "adminAddRelayer",
      "outputs": [],
      "stateMutability": "nonpayable",
      "type": "function"
    },
    {
      "inputs": [
        {
          "internalType": "uint256",
          "name": "expiry",
          "type": "uint256"
        }
      ],
      "name": "adminChangeExpiry",
      "outputs": [],
      "stateMutability": "nonpayable",
      "type": "function"
    },
    {
      "inputs": [
        {
          "internalType": "uint256",
          "name": "newFee",
          "type": "uint256"
        }
      ],
      "name": "adminChangeFee",
      "outputs": [],
      "stateMutability": "nonpayable",
      "type": "function"
    },
    {
      "inputs": [
        {
          "internalType": "uint256",
          "name": "newThreshold",
          "type": "uint256"
        }
      ],
      "name": "adminChangeRelayerThreshold",
      "outputs": [],
      "stateMutability": "nonpayable",
      "type": "function"
    },
    {
      "inputs": [
        {
          "internalType": "uint256",
          "name": "newFee",
          "type": "uint256"
        },
        {
          "internalType": "uint8",
          "name": "chainID",
          "type": "uint8"
        }
      ],
      "name": "adminChangeSpecialFee",
      "outputs": [],
      "stateMutability": "nonpayable",
      "type": "function"
    },
    {
      "inputs": [],
      "name": "adminPauseTransfers",
      "outputs": [],
      "stateMutability": "nonpayable",
      "type": "function"
    },
    {
      "inputs": [
        {
          "internalType": "address",
          "name": "relayerAddress",
          "type": "address"
        }
      ],
      "name": "adminRemoveRelayer",
      "outputs": [],
      "stateMutability": "nonpayable",
      "type": "function"
    },
    {
      "inputs": [
        {
          "internalType": "address",
          "name": "handlerAddress",
          "type": "address"
        },
        {
          "internalType": "address",
          "name": "tokenAddress",
          "type": "address"
        }
      ],
      "name": "adminSetBurnable",
      "outputs": [],
      "stateMutability": "nonpayable",
      "type": "function"
    },
    {
      "inputs": [
        {
          "internalType": "uint8",
          "name": "domainID",
          "type": "uint8"
        },
        {
          "internalType": "uint64",
          "name": "nonce",
          "type": "uint64"
        }
      ],
      "name": "adminSetDepositNonce",
      "outputs": [],
      "stateMutability": "nonpayable",
      "type": "function"
    },
    {
      "inputs": [
        {
          "internalType": "address",
          "name": "forwarder",
          "type": "address"
        },
        {
          "internalType": "bool",
          "name": "valid",
          "type": "bool"
        }
      ],
      "name": "adminSetForwarder",
      "outputs": [],
      "stateMutability": "nonpayable",
      "type": "function"
    },
    {
      "inputs": [
        {
          "internalType": "address",
          "name": "handlerAddress",
          "type": "address"
        },
        {
          "internalType": "bytes32",
          "name": "resourceID",
          "type": "bytes32"
        },
        {
          "internalType": "address",
          "name": "contractAddress",
          "type": "address"
        },
        {
          "internalType": "bytes4",
          "name": "depositFunctionSig",
          "type": "bytes4"
        },
        {
          "internalType": "uint256",
          "name": "depositFunctionDepositerOffset",
          "type": "uint256"
        },
        {
          "internalType": "bytes4",
          "name": "executeFunctionSig",
          "type": "bytes4"
        }
      ],
      "name": "adminSetGenericResource",
      "outputs": [],
      "stateMutability": "nonpayable",
      "type": "function"
    },
    {
      "inputs": [
        {
          "internalType": "address",
          "name": "handlerAddress",
          "type": "address"
        },
        {
          "internalType": "bytes32",
          "name": "resourceID",
          "type": "bytes32"
        },
        {
          "internalType": "address",
          "name": "tokenAddress",
          "type": "address"
        }
      ],
      "name": "adminSetResource",
      "outputs": [],
      "stateMutability": "nonpayable",
      "type": "function"
    },
    {
      "inputs": [],
      "name": "adminUnpauseTransfers",
      "outputs": [],
      "stateMutability": "nonpayable",
      "type": "function"
    },
    {
      "inputs": [
        {
          "internalType": "address",
          "name": "handlerAddress",
          "type": "address"
        },
        {
          "internalType": "bytes",
          "name": "data",
          "type": "bytes"
        }
      ],
      "name": "adminWithdraw",
      "outputs": [],
      "stateMutability": "nonpayable",
      "type": "function"
    },
    {
      "inputs": [
        {
          "internalType": "uint8",
          "name": "domainID",
          "type": "uint8"
        },
        {
          "internalType": "uint64",
          "name": "depositNonce",
          "type": "uint64"
        },
        {
          "internalType": "bytes32",
          "name": "dataHash",
          "type": "bytes32"
        }
      ],
      "name": "cancelProposal",
      "outputs": [],
      "stateMutability": "nonpayable",
      "type": "function"
    },
    {
      "inputs": [
        {
          "internalType": "uint8",
          "name": "domainID",
          "type": "uint8"
        },
        {
          "internalType": "uint64",
          "name": "depositNonce",
          "type": "uint64"
        },
        {
          "internalType": "bytes32",
          "name": "resourceID",
          "type": "bytes32"
        },
        {
          "internalType": "bytes",
          "name": "data",
          "type": "bytes"
        },
        {
          "internalType": "bytes",
          "name": "signature",
          "type": "bytes"
        }
      ],
      "name": "checkSignature",
      "outputs": [
        {
          "internalType": "bool",
          "name": "",
          "type": "bool"
        }
      ],
      "stateMutability": "view",
      "type": "function"
    },
    {
      "inputs": [
        {
          "internalType": "uint8",
          "name": "destinationDomainID",
          "type": "uint8"
        },
        {
          "internalType": "bytes32",
          "name": "resourceID",
          "type": "bytes32"
        },
        {
          "internalType": "bytes",
          "name": "data",
          "type": "bytes"
        }
      ],
      "name": "deposit",
      "outputs": [],
      "stateMutability": "payable",
      "type": "function"
    },
    {
      "inputs": [
        {
          "internalType": "uint8",
          "name": "destinationDomainID",
          "type": "uint8"
        },
        {
          "internalType": "bytes32",
          "name": "resourceID",
          "type": "bytes32"
        },
        {
          "internalType": "bytes",
          "name": "data",
          "type": "bytes"
        }
      ],
      "name": "depositETH",
      "outputs": [],
      "stateMutability": "payable",
      "type": "function"
    },
    {
      "inputs": [
        {
          "internalType": "uint8",
          "name": "domainID",
          "type": "uint8"
        },
        {
          "internalType": "uint64",
          "name": "depositNonce",
          "type": "uint64"
        },
        {
          "internalType": "bytes",
          "name": "data",
          "type": "bytes"
        },
        {
          "internalType": "bytes32",
          "name": "resourceID",
          "type": "bytes32"
        },
        {
          "internalType": "bool",
          "name": "revertOnFail",
          "type": "bool"
        }
      ],
      "name": "executeProposal",
      "outputs": [],
      "stateMutability": "nonpayable",
      "type": "function"
    },
    {
      "inputs": [
        {
          "internalType": "uint8",
          "name": "destinationDomainID",
          "type": "uint8"
        }
      ],
      "name": "getFee",
      "outputs": [
        {
          "internalType": "uint256",
          "name": "",
          "type": "uint256"
        }
      ],
      "stateMutability": "view",
      "type": "function"
    },
    {
      "inputs": [
        {
          "internalType": "uint8",
          "name": "originDomainID",
          "type": "uint8"
        },
        {
          "internalType": "uint64",
          "name": "depositNonce",
          "type": "uint64"
        },
        {
          "internalType": "bytes32",
          "name": "dataHash",
          "type": "bytes32"
        }
      ],
      "name": "getProposal",
      "outputs": [
        {
          "components": [
            {
              "internalType": "enum IBridge.ProposalStatus",
              "name": "_status",
              "type": "uint8"
            },
            {
              "internalType": "uint200",
              "name": "_yesVotes",
              "type": "uint200"
            },
            {
              "internalType": "uint8",
              "name": "_yesVotesTotal",
              "type": "uint8"
            },
            {
              "internalType": "uint40",
              "name": "_proposedBlock",
              "type": "uint40"
            }
          ],
          "internalType": "struct IBridge.Proposal",
          "name": "",
          "type": "tuple"
        }
      ],
      "stateMutability": "view",
      "type": "function"
    },
    {
      "inputs": [
        {
          "internalType": "bytes32",
          "name": "role",
          "type": "bytes32"
        }
      ],
      "name": "getRoleAdmin",
      "outputs": [
        {
          "internalType": "bytes32",
          "name": "",
          "type": "bytes32"
        }
      ],
      "stateMutability": "view",
      "type": "function"
    },
    {
      "inputs": [
        {
          "internalType": "bytes32",
          "name": "role",
          "type": "bytes32"
        },
        {
          "internalType": "uint256",
          "name": "index",
          "type": "uint256"
        }
      ],
      "name": "getRoleMember",
      "outputs": [
        {
          "internalType": "address",
          "name": "",
          "type": "address"
        }
      ],
      "stateMutability": "view",
      "type": "function"
    },
    {
      "inputs": [
        {
          "internalType": "bytes32",
          "name": "role",
          "type": "bytes32"
        }
      ],
      "name": "getRoleMemberCount",
      "outputs": [
        {
          "internalType": "uint256",
          "name": "",
          "type": "uint256"
        }
      ],
      "stateMutability": "view",
      "type": "function"
    },
    {
      "inputs": [
        {
          "internalType": "bytes32",
          "name": "role",
          "type": "bytes32"
        },
        {
          "internalType": "address",
          "name": "account",
          "type": "address"
        }
      ],
      "name": "getRoleMemberIndex",
      "outputs": [
        {
          "internalType": "uint256",
          "name": "",
          "type": "uint256"
        }
      ],
      "stateMutability": "view",
      "type": "function"
    },
    {
      "inputs": [
        {
          "internalType": "bytes32",
          "name": "role",
          "type": "bytes32"
        },
        {
          "internalType": "address",
          "name": "account",
          "type": "address"
        }
      ],
      "name": "grantRole",
      "outputs": [],
      "stateMutability": "nonpayable",
      "type": "function"
    },
    {
      "inputs": [
        {
          "internalType": "bytes32",
          "name": "role",
          "type": "bytes32"
        },
        {
          "internalType": "address",
          "name": "account",
          "type": "address"
        }
      ],
      "name": "hasRole",
      "outputs": [
        {
          "internalType": "bool",
          "name": "",
          "type": "bool"
        }
      ],
      "stateMutability": "view",
      "type": "function"
    },
    {
      "inputs": [
        {
          "internalType": "address",
          "name": "relayer",
          "type": "address"
        }
      ],
      "name": "isRelayer",
      "outputs": [
        {
          "internalType": "bool",
          "name": "",
          "type": "bool"
        }
      ],
      "stateMutability": "view",
      "type": "function"
    },
    {
      "inputs": [
        {
          "internalType": "address",
          "name": "",
          "type": "address"
        }
      ],
      "name": "isValidForwarder",
      "outputs": [
        {
          "internalType": "bool",
          "name": "",
          "type": "bool"
        }
      ],
      "stateMutability": "view",
      "type": "function"
    },
    {
      "inputs": [],
      "name": "paused",
      "outputs": [
        {
          "internalType": "bool",
          "name": "",
          "type": "bool"
        }
      ],
      "stateMutability": "view",
      "type": "function"
    },
    {
      "inputs": [
        {
          "internalType": "address",
          "name": "newAdmin",
          "type": "address"
        }
      ],
      "name": "renounceAdmin",
      "outputs": [],
      "stateMutability": "nonpayable",
      "type": "function"
    },
    {
      "inputs": [
        {
          "internalType": "bytes32",
          "name": "role",
          "type": "bytes32"
        },
        {
          "internalType": "address",
          "name": "account",
          "type": "address"
        }
      ],
      "name": "renounceRole",
      "outputs": [],
      "stateMutability": "nonpayable",
      "type": "function"
    },
    {
      "inputs": [
        {
          "internalType": "bytes32",
          "name": "role",
          "type": "bytes32"
        },
        {
          "internalType": "address",
          "name": "account",
          "type": "address"
        }
      ],
      "name": "revokeRole",
      "outputs": [],
      "stateMutability": "nonpayable",
      "type": "function"
    },
    {
      "inputs": [
        {
          "internalType": "address payable[]",
          "name": "addrs",
          "type": "address[]"
        },
        {
          "internalType": "uint256[]",
          "name": "amounts",
          "type": "uint256[]"
        }
      ],
      "name": "transferFunds",
      "outputs": [],
      "stateMutability": "nonpayable",
      "type": "function"
    },
    {
      "inputs": [
        {
          "internalType": "uint8",
          "name": "domainID",
          "type": "uint8"
        },
        {
          "internalType": "uint64",
          "name": "depositNonce",
          "type": "uint64"
        },
        {
          "internalType": "bytes32",
          "name": "resourceID",
          "type": "bytes32"
        },
        {
          "internalType": "bytes",
          "name": "data",
          "type": "bytes"
        }
      ],
      "name": "voteProposal",
      "outputs": [],
      "stateMutability": "nonpayable",
      "type": "function"
    },
    {
      "inputs": [
        {
          "internalType": "uint8",
          "name": "domainID",
          "type": "uint8"
        },
        {
          "internalType": "uint64",
          "name": "depositNonce",
          "type": "uint64"
        },
        {
          "internalType": "bytes32",
          "name": "resourceID",
          "type": "bytes32"
        },
        {
          "internalType": "bytes",
          "name": "data",
          "type": "bytes"
        },
        {
          "internalType": "bytes[]",
          "name": "signatures",
          "type": "bytes[]"
        }
      ],
      "name": "voteProposals",
      "outputs": [],
      "stateMutability": "nonpayable",
      "type": "function"
    }
  ],
  "bytecode": "0x6101806040523480156200001257600080fd5b5060405162004ec138038062004ec183398101604081905262000035916200062a565b604080518082018252600c81526b5065726d697442726964676560a01b6020808301918252835180850190945260038452620312e360ec1b908401528151902060e08190527fe6bbd6277e1bf288eed5e8d1780f9a50b239e86b153736bceebccf4ea79d90b36101008190524660a0529192917f8b73c3c69bb8fe3d512ecc4cf759cc79239f7b179b0ffacaa9a75d522b39400f620001198184846040805160208101859052908101839052606081018290524660808201523060a082015260009060c0016040516020818303038152906040528051906020012090509392505050565b6080523060c0526101205250506000805460ff199081169091556002805490911660ff8b16179055506200015b905085620002dd602090811b62002dfa17901c565b600260016101000a81548160ff021916908360ff1602179055506200018b846200033660201b62002e511760201c565b6002806101000a8154816001600160801b0302191690836001600160801b03160217905550620001c6836200038d60201b62002ea61760201c565b6002805464ffffffffff92909216600160901b0264ffffffffff60901b19909216919091179055620002036000620001fd620003e6565b62000429565b60005b865181101562000273576200025e7fe2b7fb3b832174769106daebcfd6d1970523240dda11281102db9363b83b0dc48883815181106200024a576200024a62000753565b60200260200101516200043960201b60201c565b806200026a8162000769565b91505062000206565b506101408290526001600160a01b038116620002c35760405162461bcd60e51b815260206004820152600a6024820152690ae8aa89040d2e64060f60b31b60448201526064015b60405180910390fd5b6001600160a01b0316610160525062000793945050505050565b60006101008210620003325760405162461bcd60e51b815260206004820152601c60248201527f76616c756520646f6573206e6f742066697420696e20382062697473000000006044820152606401620002ba565b5090565b6000600160801b8210620003325760405162461bcd60e51b815260206004820152601e60248201527f76616c756520646f6573206e6f742066697420696e20313238206269747300006044820152606401620002ba565b6000650100000000008210620003325760405162461bcd60e51b815260206004820152601d60248201527f76616c756520646f6573206e6f742066697420696e20343020626974730000006044820152606401620002ba565b600033601436108015906200041357506001600160a01b03811660009081526006602052604090205460ff165b1562000424575060131936013560601c5b919050565b620004358282620004c6565b5050565b60008281526001602052604090206002015462000460906200045a620003e6565b62000541565b620004295760405162461bcd60e51b815260206004820152602f60248201527f416363657373436f6e74726f6c3a2073656e646572206d75737420626520616e60448201526e0818591b5a5b881d1bc819dc985b9d608a1b6064820152608401620002ba565b6000828152600160209081526040909120620004ed91839062002efd62000570821b17901c565b156200043557620004fd620003e6565b6001600160a01b0316816001600160a01b0316837f2f8788117e7eff1d82e926ec794901d17c78024a50270940304540a733656f0d60405160405180910390a45050565b600082815260016020908152604082206200056791849062002f1262000587821b17901c565b90505b92915050565b600062000567836001600160a01b038416620005aa565b6001600160a01b0381166000908152600183016020526040812054151562000567565b6000818152600183016020526040812054620005f3575081546001818101845560008481526020808220909301849055845484825282860190935260409020919091556200056a565b5060006200056a565b634e487b7160e01b600052604160045260246000fd5b80516001600160a01b03811681146200042457600080fd5b600080600080600080600060e0888a0312156200064657600080fd5b875160ff811681146200065857600080fd5b602089810151919850906001600160401b03808211156200067857600080fd5b818b0191508b601f8301126200068d57600080fd5b815181811115620006a257620006a2620005fc565b8060051b604051601f19603f83011681018181108582111715620006ca57620006ca620005fc565b60405291825284820192508381018501918e831115620006e957600080fd5b938501935b828510156200071257620007028562000612565b84529385019392850192620006ee565b809b5050505050505060408801519450606088015193506080880151925060a088015191506200074560c0890162000612565b905092959891949750929550565b634e487b7160e01b600052603260045260246000fd5b60006000198214156200078c57634e487b7160e01b600052601160045260246000fd5b5060010190565b60805160a05160c05160e051610100516101205161014051610160516146a56200081c600039600081816129cc01528181612ab60152612be90152600081816128810152818161290701528181612b4b0152612c8e01526000613558015260006135a701526000613582015260006134db015260006135050152600061352f01526146a56000f3fe6080604052600436106102c95760003560e01c80638c0c263111610175578063c5b37c22116100dc578063d547741f11610095578063f179637c1161006f578063f179637c1461096b578063f8c39e441461097e578063fe65c4be146109ae578063ffaac0eb146109ce57600080fd5b8063d547741f1461090c578063d7a9cd791461092c578063edc20c3c1461094b57600080fd5b8063c5b37c2214610813578063c5ec897014610851578063ca15c8731461088c578063cb10f215146108ac578063cdb0f73a146108cc578063d15ef64e146108ec57600080fd5b80639dd694f41161012e5780639dd694f4146107505780639debb3bd1461077c578063a217fddf14610791578063a9cf69fa146107a6578063bd2a1820146107d3578063c0331b3e146107f357600080fd5b80638c0c26311461068e5780639010d07c146106ae57806391c404ac146106ce57806391d14854146106ee578063926d7d7f1461070e5780639d82dd631461073057600080fd5b80634e0df3f6116102345780637292dd91116101ed5780637febe63f116101c75780637febe63f146105f6578063802aabe81461061657806380ae1c281461062b57806384db809f1461064057600080fd5b80637292dd91146105a357806374773412146105c35780637d026d96146105d657600080fd5b80634e0df3f6146104b5578063541d5548146104fb5780635a1ad87c1461052b5780635c975abb1461054b5780635e1fab0f1461056357806369a8c2461461058357600080fd5b80632f2ff15d116102865780632f2ff15d146103b357806330adf81f146103d357806336568abe146104075780634603ae38146104275780634b0b919d146104475780634e0560051461049557600080fd5b806305e2ca17146102ce578063083132c4146102e357806317f03ce5146103165780631a5ae9ad14610336578063206a98fd14610363578063248a9ca314610383575b600080fd5b6102e16102dc366004613afe565b6109e3565b005b3480156102ef57600080fd5b506103036102fe366004613b57565b610bd5565b6040519081526020015b60405180910390f35b34801561032257600080fd5b506102e1610331366004613b89565b610be6565b34801561034257600080fd5b50610303610351366004613b57565b60036020526000908152604090205481565b34801561036f57600080fd5b506102e161037e366004613bd3565b610e77565b34801561038f57600080fd5b5061030361039e366004613c53565b60009081526001602052604090206002015490565b3480156103bf57600080fd5b506102e16103ce366004613c81565b6110fd565b3480156103df57600080fd5b506103037fc4cb5d35714699d6e85b9562b644e60393b418d974a5c1dd8efaadac37a142c581565b34801561041357600080fd5b506102e1610422366004613c81565b61118d565b34801561043357600080fd5b506102e1610442366004613cf5565b611217565b34801561045357600080fd5b5061047d610462366004613b57565b6004602052600090815260409020546001600160401b031681565b6040516001600160401b03909116815260200161030d565b3480156104a157600080fd5b506102e16104b0366004613c53565b6112bb565b3480156104c157600080fd5b506103036104d0366004613c81565b60008281526001602081815260408084206001600160a01b0386168552909201905290205492915050565b34801561050757600080fd5b5061051b610516366004613d54565b61131e565b604051901515815260200161030d565b34801561053757600080fd5b506102e1610546366004613d89565b611338565b34801561055757600080fd5b5060005460ff1661051b565b34801561056f57600080fd5b506102e161057e366004613d54565b6113ee565b34801561058f57600080fd5b506102e161059e366004613df3565b61147a565b3480156105af57600080fd5b506102e16105be366004613ee2565b61150c565b3480156105cf57600080fd5b5046610303565b3480156105e257600080fd5b506102e16105f1366004613c53565b611c23565b34801561060257600080fd5b5061051b610611366004613ff8565b611c59565b34801561062257600080fd5b50610303611cfd565b34801561063757600080fd5b506102e1611d1b565b34801561064c57600080fd5b5061067661065b366004613c53565b6005602052600090815260409020546001600160a01b031681565b6040516001600160a01b03909116815260200161030d565b34801561069a57600080fd5b506102e16106a9366004614046565b611d35565b3480156106ba57600080fd5b506106766106c9366004614074565b611da1565b3480156106da57600080fd5b506102e16106e9366004613c53565b611dc0565b3480156106fa57600080fd5b5061051b610709366004613c81565b611e5a565b34801561071a57600080fd5b5061030360008051602061465083398151915281565b34801561073c57600080fd5b506102e161074b366004613d54565b611e72565b34801561075c57600080fd5b5060025461076a9060ff1681565b60405160ff909116815260200161030d565b34801561078857600080fd5b5061030360c881565b34801561079d57600080fd5b50610303600081565b3480156107b257600080fd5b506107c66107c1366004613b89565b611f27565b60405161030d91906140ce565b3480156107df57600080fd5b506102e16107ee366004614117565b611ff5565b3480156107ff57600080fd5b506102e161080e366004614166565b61202b565b34801561081f57600080fd5b50600254610839906201000090046001600160801b031681565b6040516001600160801b03909116815260200161030d565b34801561085d57600080fd5b5060025461087690600160901b900464ffffffffff1681565b60405164ffffffffff909116815260200161030d565b34801561089857600080fd5b506103036108a7366004613c53565b612502565b3480156108b857600080fd5b506102e16108c73660046141d4565b612519565b3480156108d857600080fd5b506102e16108e7366004613d54565b6125ad565b3480156108f857600080fd5b506102e16109073660046141f4565b6126b3565b34801561091857600080fd5b506102e1610927366004613c81565b6126e6565b34801561093857600080fd5b5060025461076a90610100900460ff1681565b34801561095757600080fd5b506102e1610966366004614222565b612769565b6102e1610979366004613afe565b612822565b34801561098a57600080fd5b5061051b610999366004613d54565b60066020526000908152604090205460ff1681565b3480156109ba57600080fd5b5061051b6109c936600461424c565b612cd8565b3480156109da57600080fd5b506102e1612de2565b6109eb612f34565b6109f484612f7a565b3414610a405760405162461bcd60e51b8152602060048201526016602482015275125b98dbdc9c9958dd08199959481cdd5c1c1b1a595960521b60448201526064015b60405180910390fd5b6000838152600560205260409020546001600160a01b031680610aa55760405162461bcd60e51b815260206004820181905260248201527f7265736f757263654944206e6f74206d617070656420746f2068616e646c65726044820152606401610a37565b60ff8516600090815260046020526040812080548290610acd906001600160401b03166142fc565b91906101000a8154816001600160401b0302191690836001600160401b03160217905590506000610afc612fb2565b60405163b07e54bb60e01b815290915083906000906001600160a01b0383169063b07e54bb90610b36908b9087908c908c9060040161434c565b6000604051808303816000875af1158015610b55573d6000803e3d6000fd5b505050506040513d6000823e601f3d908101601f19168201604052610b7d91908101906143b1565b9050826001600160a01b03167f17bc3181e17a9620a479c24e6c606e474ba84fc036877b768926872e8cd0e11f8a8a878b8b87604051610bc29695949392919061444a565b60405180910390a2505050505050505050565b6000610be082612f7a565b92915050565b610bee612ff3565b60ff838116600884901b68ffffffffffffffff0016176000818152600760209081526040808320868452909152808220815160808101909252805493949293919290918391166004811115610c4557610c45614096565b6004811115610c5657610c56614096565b8152905461010081046001600160c81b03166020830152600160d01b810460ff166040830152600160d81b900464ffffffffff1660609091015280519091506001816004811115610ca957610ca9614096565b1480610cc657506002816004811115610cc457610cc4614096565b145b610d125760405162461bcd60e51b815260206004820152601c60248201527f50726f706f73616c2063616e6e6f742062652063616e63656c6c6564000000006044820152606401610a37565b600254606083015164ffffffffff600160901b909204821691610d3791439116613077565b64ffffffffff1611610d8b5760405162461bcd60e51b815260206004820181905260248201527f50726f706f73616c206e6f7420617420657870697279207468726573686f6c646044820152606401610a37565b60048083526001600160481b03841660009081526007602090815260408083208884529091529020835181548593839160ff1916906001908490811115610dd457610dd4614096565b02179055506020820151815460408085015160609095015164ffffffffff16600160d81b026001600160d81b0360ff909616600160d01b0260ff60d01b196001600160c81b039095166101000294909416610100600160d81b03199093169290921792909217939093169290921790555160008051602061463083398151915290610e679088908890600490899061449b565b60405180910390a1505050505050565b610e7f6130b9565b610e87612f34565b60008281526005602090815260408083205490516001600160a01b039091169268ffffffffffffffff0060088a901b1660ff8b1617929091610ecf9185918a918a91016144d0565b60408051601f1981840301815291815281516020928301206001600160481b03851660009081526007845282812082825290935291209091506002815460ff166004811115610f2057610f20614096565b14610f6d5760405162461bcd60e51b815260206004820181905260248201527f50726f706f73616c206d757374206861766520506173736564207374617475736044820152606401610a37565b805460ff19166003178155838515610fe65760405163712467f960e11b81526001600160a01b0382169063e248cff290610faf908a908d908d906004016144fc565b600060405180830381600087803b158015610fc957600080fd5b505af1158015610fdd573d6000803e3d6000fd5b505050506110c3565b60405163712467f960e11b81526001600160a01b0382169063e248cff290611016908a908d908d906004016144fc565b600060405180830381600087803b15801561103057600080fd5b505af1925050508015611041575060015b6110c3573d80801561106f576040519150601f19603f3d011682016040523d82523d6000602084013e611074565b606091505b50825460ff191660021783556040517fbd37c1f0d53bb2f33fe4c2104de272fcdeb4d2fef3acdbf1e4ddc3d6833ca376906110b0908390614516565b60405180910390a15050505050506110f5565b6000805160206146308339815191528b8b6003866040516110e7949392919061449b565b60405180910390a150505050505b505050505050565b60008281526001602052604090206002015461111b90610709612fb2565b61117f5760405162461bcd60e51b815260206004820152602f60248201527f416363657373436f6e74726f6c3a2073656e646572206d75737420626520616e60448201526e0818591b5a5b881d1bc819dc985b9d608a1b6064820152608401610a37565b611189828261311f565b5050565b611195612fb2565b6001600160a01b0316816001600160a01b03161461120d5760405162461bcd60e51b815260206004820152602f60248201527f416363657373436f6e74726f6c3a2063616e206f6e6c792072656e6f756e636560448201526e103937b632b9903337b91039b2b63360891b6064820152608401610a37565b6111898282613188565b61121f6131f1565b60005b838110156112b45784848281811061123c5761123c614529565b90506020020160208101906112519190613d54565b6001600160a01b03166108fc84848481811061126f5761126f614529565b905060200201359081150290604051600060405180830381858888f193505050501580156112a1573d6000803e3d6000fd5b50806112ac8161453f565b915050611222565b5050505050565b6112c36131f1565b6112cc81612dfa565b6002805460ff929092166101000261ff00199092169190911790556040518181527fa20d6b84cd798a24038be305eff8a45ca82ef54a2aa2082005d8e14c0a4746c8906020015b60405180910390a150565b6000610be060008051602061465083398151915283611e5a565b6113406131f1565b6000858152600560205260409081902080546001600160a01b0319166001600160a01b03898116918217909255915163de319d9960e01b81526004810188905290861660248201526001600160e01b03198086166044830152606482018590528316608482015287919063de319d999060a401600060405180830381600087803b1580156113cd57600080fd5b505af11580156113e1573d6000803e3d6000fd5b5050505050505050505050565b6113f66131f1565b6000611400612fb2565b9050816001600160a01b0316816001600160a01b031614156114645760405162461bcd60e51b815260206004820152601760248201527f43616e6e6f742072656e6f756e6365206f6e6573656c660000000000000000006044820152606401610a37565b61146f6000836110fd565b61118960008261118d565b6114826131f1565b60ff8116600090815260036020526040902054828114156114f75760405162461bcd60e51b815260206004820152602960248201527f43757272656e74207370656369616c2066656520657175616c7320746f20746860448201526865206e65772066656560b81b6064820152608401610a37565b5060ff16600090815260036020526040902055565b611514612f34565b60008481526005602090815260408083205490516001600160a01b039091169268ffffffffffffffff0060088a901b1660ff8b161792909161155c91859189918991016144d0565b60408051601f1981840301815282825280516020918201206001600160481b03861660009081526007835283812082825290925282822060808501909352825490945090929190829060ff1660048111156115b9576115b9614096565b60048111156115ca576115ca614096565b8152905461010081046001600160c81b0316602080840191909152600160d01b820460ff16604080850191909152600160d81b90920464ffffffffff1660609093019290925260008b815260059092529020549091506001600160a01b03166116715760405162461bcd60e51b81526020600482015260196024820152781b9bc81a185b991b195c88199bdc881c995cdbdd5c98d95251603a1b6044820152606401610a37565b60005b8551811015611ab15760028251600481111561169257611692614096565b141561172e576003825260405163712467f960e11b815285906001600160a01b0382169063e248cff2906116ce908d908d908d906004016144fc565b600060405180830381600087803b1580156116e857600080fd5b505af11580156116fc573d6000803e3d6000fd5b505050506000805160206146308339815191528c8c600387604051611724949392919061449b565b60405180910390a1505b60007fc4cb5d35714699d6e85b9562b644e60393b418d974a5c1dd8efaadac37a142c58c8c8c8c8c60405161176492919061455a565b6040519081900381206117a7959493929160200194855260ff9390931660208501526001600160401b039190911660408401526060830152608082015260a00190565b60405160208183030381529060405280519060200120905060006117ca8261324a565b905060006117f1828a86815181106117e4576117e4614529565b6020026020010151613298565b905061180b60008051602061465083398151915282611e5a565b61183a5760405163b4d8a3a160e01b81526001600160a01b038216600482015260248101859052604401610a37565b8451600190600481111561185057611850614096565b111561186e5760405162461bcd60e51b8152600401610a379061456a565b61187885826132bc565b156118bd5760405162461bcd60e51b81526020600482015260156024820152741c995b185e595c88185b1c9958591e481d9bdd1959605a1b6044820152606401610a37565b6000855160048111156118d2576118d2614096565b1415611943576040805160808101909152806001815260200160006001600160c81b03168152602001600060ff1681526020014364ffffffffff1681525094506000805160206146308339815191528e8e600189604051611936949392919061449b565b60405180910390a16119aa565b600254606086015164ffffffffff600160901b90920482169161196891439116613077565b64ffffffffff1611156119aa5760048581815250506000805160206146308339815191528e8e6004896040516119a1949392919061449b565b60405180910390a15b6004855160048111156119bf576119bf614096565b14611a9b576119e46119d0826132df565b86602001516001600160c81b03161761332c565b6001600160c81b0316602086015260408501805190611a02826145ad565b60ff1660ff16815250507f25f8daaa4635a7729927ba3f5b3d59cc3320aca7c32c9db4e7ca7b95743436408e8e876000015189604051611a45949392919061449b565b60405180910390a1600254604086015160ff6101009092048216911610611a9b5760028581815250506000805160206146308339815191528e8e600289604051611a92949392919061449b565b60405180910390a15b5050508080611aa99061453f565b915050611674565b50600281516004811115611ac757611ac7614096565b1415611b63576003815260405163712467f960e11b815284906001600160a01b0382169063e248cff290611b03908c908c908c906004016144fc565b600060405180830381600087803b158015611b1d57600080fd5b505af1158015611b31573d6000803e3d6000fd5b505050506000805160206146308339815191528b8b600386604051611b59949392919061449b565b60405180910390a1505b6001600160481b038316600090815260076020908152604080832085845290915290208151815483929190829060ff19166001836004811115611ba857611ba8614096565b021790555060208201518154604084015160609094015164ffffffffff16600160d81b026001600160d81b0360ff909516600160d01b0260ff60d01b196001600160c81b039094166101000293909316610100600160d81b031990921691909117919091179290921691909117905550505050505050505050565b611c2b6131f1565b611c3481612ea6565b600260126101000a81548164ffffffffff021916908364ffffffffff16021790555050565b6001600160481b03831660009081526007602090815260408083208584529091528082208151608081019092528054611cf5929190829060ff166004811115611ca457611ca4614096565b6004811115611cb557611cb5614096565b8152905461010081046001600160c81b03166020830152600160d01b810460ff166040830152600160d81b900464ffffffffff16606090910152836132bc565b949350505050565b6000611d16600080516020614650833981519152612502565b905090565b611d236131f1565b611d33611d2e612fb2565b613381565b565b611d3d6131f1565b6040516307b7ed9960e01b81526001600160a01b0382811660048301528391908216906307b7ed99906024015b600060405180830381600087803b158015611d8457600080fd5b505af1158015611d98573d6000803e3d6000fd5b50505050505050565b6000828152600160205260408120611db990836133cf565b9392505050565b611dc86131f1565b6002546201000090046001600160801b0316811415611e295760405162461bcd60e51b815260206004820152601f60248201527f43757272656e742066656520697320657175616c20746f206e657720666565006044820152606401610a37565b611e3281612e51565b6002806101000a8154816001600160801b0302191690836001600160801b0316021790555050565b6000828152600160205260408120611db99083612f12565b611e8a60008051602061465083398151915282611e5a565b611ed65760405162461bcd60e51b815260206004820152601f60248201527f6164647220646f65736e277420686176652072656c6179657220726f6c6521006044820152606401610a37565b611eee600080516020614650833981519152826126e6565b6040516001600160a01b03821681527f10e1f7ce9fd7d1b90a66d13a2ab3cb8dd7f29f3f8d520b143b063ccfbab6906b90602001611313565b60408051608081018252600080825260208201819052918101829052606081019190915260ff848116600885901b68ffffffffffffffff00161760008181526007602090815260408083208784529091529081902081516080810190925280549293919290918391166004811115611fa157611fa1614096565b6004811115611fb257611fb2614096565b8152905461010081046001600160c81b03166020830152600160d01b810460ff166040830152600160d81b900464ffffffffff1660609091015295945050505050565b611ffd6131f1565b60405163025a3c9960e21b815282906001600160a01b03821690630968f26490611d6a908590600401614516565b6120336130b9565b61203b612f34565b60008381526005602090815260408083205490516001600160a01b039091169268ffffffffffffffff00600889901b1660ff8a161792909161208391859188918891016144d0565b60408051601f1981840301815282825280516020918201206001600160481b03861660009081526007835283812082825290925282822060808501909352825490945090929190829060ff1660048111156120e0576120e0614096565b60048111156120f1576120f1614096565b8152905461010081046001600160c81b0316602080840191909152600160d01b820460ff16604080850191909152600160d81b90920464ffffffffff1660609093019290925260008a815260059092529020549091506001600160a01b03166121985760405162461bcd60e51b81526020600482015260196024820152781b9bc81a185b991b195c88199bdc881c995cdbdd5c98d95251603a1b6044820152606401610a37565b6002815160048111156121ad576121ad614096565b14156121cb576121c2898988888b6001610e77565b505050506112b4565b60006121d5612fb2565b90506001826000015160048111156121ef576121ef614096565b111561220d5760405162461bcd60e51b8152600401610a379061456a565b61221782826132bc565b1561225c5760405162461bcd60e51b81526020600482015260156024820152741c995b185e595c88185b1c9958591e481d9bdd1959605a1b6044820152606401610a37565b60008251600481111561227157612271614096565b14156122d1576040805160808101825260018082526000602083018190528284015264ffffffffff431660608301529151909350600080516020614630833981519152916122c4918d918d91889061449b565b60405180910390a1612333565b600254606083015164ffffffffff600160901b9092048216916122f691439116613077565b64ffffffffff1611156123335760048083526040516000805160206146308339815191529161232a918d918d91889061449b565b60405180910390a15b60048251600481111561234857612348614096565b146124185761236d612359826132df565b83602001516001600160c81b03161761332c565b6001600160c81b031660208301526040820180519061238b826145ad565b60ff1690525081516040517f25f8daaa4635a7729927ba3f5b3d59cc3320aca7c32c9db4e7ca7b9574343640916123c7918d918d91889061449b565b60405180910390a1600254604083015160ff61010090920482169116106124185760028083526040516000805160206146308339815191529161240f918d918d91889061449b565b60405180910390a15b6001600160481b038416600090815260076020908152604080832086845290915290208251815484929190829060ff1916600183600481111561245d5761245d614096565b021790555060208201518154604084015160609094015164ffffffffff16600160d81b026001600160d81b0360ff909516600160d01b0260ff60d01b196001600160c81b039094166101000293909316610100600160d81b03199092169190911791909117929092169190911790556002825160048111156124e1576124e1614096565b14156124f6576124f68a8a89898c6000610e77565b50505050505050505050565b6000818152600160205260408120610be0906133db565b6125216131f1565b6000828152600560205260409081902080546001600160a01b0319166001600160a01b038681169182179092559151635c7d1b9b60e11b815260048101859052908316602482015284919063b8fa373690604401600060405180830381600087803b15801561258f57600080fd5b505af11580156125a3573d6000803e3d6000fd5b5050505050505050565b6125c560008051602061465083398151915282611e5a565b156126125760405162461bcd60e51b815260206004820152601e60248201527f6164647220616c7265616479206861732072656c6179657220726f6c652100006044820152606401610a37565b60c861261c611cfd565b106126625760405162461bcd60e51b81526020600482015260166024820152751c995b185e595c9cc81b1a5b5a5d081c995858da195960521b6044820152606401610a37565b61267a600080516020614650833981519152826110fd565b6040516001600160a01b03821681527f03580ee9f53a62b7cb409a2cb56f9be87747dd15017afc5cef6eef321e4fb2c590602001611313565b6126bb6131f1565b6001600160a01b03919091166000908152600660205260409020805460ff1916911515919091179055565b60008281526001602052604090206002015461270490610709612fb2565b61120d5760405162461bcd60e51b815260206004820152603060248201527f416363657373436f6e74726f6c3a2073656e646572206d75737420626520616e60448201526f2061646d696e20746f207265766f6b6560801b6064820152608401610a37565b6127716131f1565b60ff82166000908152600460205260409020546001600160401b03908116908216116127ee5760405162461bcd60e51b815260206004820152602660248201527f446f6573206e6f7420616c6c6f772064656372656d656e7473206f6620746865604482015265206e6f6e636560d01b6064820152608401610a37565b60ff919091166000908152600460205260409020805467ffffffffffffffff19166001600160401b03909216919091179055565b61282a612f34565b600061283585612f7a565b905080341161287f5760405162461bcd60e51b8152602060048201526016602482015275125b98dbdc9c9958dd08199959481cdd5c1c1b1a595960521b6044820152606401610a37565b7f00000000000000000000000000000000000000000000000000000000000000006000908152600560205260409020546001600160a01b0316806129055760405162461bcd60e51b815260206004820181905260248201527f7265736f757263654944206e6f74206d617070656420746f2068616e646c65726044820152606401610a37565b7f0000000000000000000000000000000000000000000000000000000000000000851461296a5760405162461bcd60e51b81526020600482015260136024820152720e4cae6deeae4c6ca928840dcdee840ae8aa89606b1b6044820152606401610a37565b600061297683346145cd565b90506084358082146129ca5760405162461bcd60e51b815260206004820152601d60248201527f6d73672e76616c756520616e642064617461206d69736d6174636865640000006044820152606401610a37565b7f00000000000000000000000000000000000000000000000000000000000000006001600160a01b031663d0e30db0836040518263ffffffff1660e01b81526004016000604051808303818588803b158015612a2557600080fd5b505af1158015612a39573d6000803e3d6000fd5b50505060ff8a166000908152600460205260408120805491935091508290612a69906001600160401b03166142fc565b82546001600160401b038083166101009490940a938402930219169190911790915560405163095ea7b360e01b81526001600160a01b0380871660048301526024820186905291925085917f0000000000000000000000000000000000000000000000000000000000000000169063095ea7b3906044016020604051808303816000875af1158015612aff573d6000803e3d6000fd5b505050506040513d601f19601f82011682018060405250810190612b2391906145e4565b5060405163b07e54bb60e01b81526000906001600160a01b0383169063b07e54bb90612b79907f00000000000000000000000000000000000000000000000000000000000000009030908e908e9060040161434c565b6000604051808303816000875af1158015612b98573d6000803e3d6000fd5b505050506040513d6000823e601f3d908101601f19168201604052612bc091908101906143b1565b60405163095ea7b360e01b81526001600160a01b038481166004830152600060248301529192507f00000000000000000000000000000000000000000000000000000000000000009091169063095ea7b3906044016020604051808303816000875af1158015612c34573d6000803e3d6000fd5b505050506040513d601f19601f82011682018060405250810190612c5891906145e4565b50612c61612fb2565b6001600160a01b03167f17bc3181e17a9620a479c24e6c606e474ba84fc036877b768926872e8cd0e11f8c7f0000000000000000000000000000000000000000000000000000000000000000868d8d87604051612cc39695949392919061444a565b60405180910390a25050505050505050505050565b6000807fc4cb5d35714699d6e85b9562b644e60393b418d974a5c1dd8efaadac37a142c58989898989604051612d0f92919061455a565b604051908190038120612d52959493929160200194855260ff9390931660208501526001600160401b039190911660408401526060830152608082015260a00190565b6040516020818303038152906040528051906020012090506000612d758261324a565b90506000612db98287878080601f01602080910402602001604051908101604052809392919081815260200183838082843760009201919091525061329892505050565b9050612dd360008051602061465083398151915282611e5a565b9b9a5050505050505050505050565b612dea6131f1565b611d33612df5612fb2565b6133e5565b60006101008210612e4d5760405162461bcd60e51b815260206004820152601c60248201527f76616c756520646f6573206e6f742066697420696e20382062697473000000006044820152606401610a37565b5090565b6000600160801b8210612e4d5760405162461bcd60e51b815260206004820152601e60248201527f76616c756520646f6573206e6f742066697420696e20313238206269747300006044820152606401610a37565b6000650100000000008210612e4d5760405162461bcd60e51b815260206004820152601d60248201527f76616c756520646f6573206e6f742066697420696e20343020626974730000006044820152606401610a37565b6000611db9836001600160a01b038416613430565b6001600160a01b03811660009081526001830160205260408120541515611db9565b60005460ff1615611d335760405162461bcd60e51b815260206004820152601060248201526f14185d5cd8589b194e881c185d5cd95960821b6044820152606401610a37565b60ff81166000908152600360205260408120548015612f995792915050565b50506002546201000090046001600160801b0316919050565b60003360143610801590612fde57506001600160a01b03811660009081526006602052604090205460ff165b15612fee575060131936013560601c5b919050565b6000612ffd612fb2565b905061300a600082611e5a565b80613028575061302860008051602061465083398151915282611e5a565b6130745760405162461bcd60e51b815260206004820152601e60248201527f73656e646572206973206e6f742072656c61796572206f722061646d696e00006044820152606401610a37565b50565b6000611db983836040518060400160405280601e81526020017f536166654d6174683a207375627472616374696f6e206f766572666c6f77000081525061347f565b6130d3600080516020614650833981519152610709612fb2565b611d335760405162461bcd60e51b815260206004820181905260248201527f73656e64657220646f65736e277420686176652072656c6179657220726f6c656044820152606401610a37565b60008281526001602052604090206131379082612efd565b1561118957613144612fb2565b6001600160a01b0316816001600160a01b0316837f2f8788117e7eff1d82e926ec794901d17c78024a50270940304540a733656f0d60405160405180910390a45050565b60008281526001602052604090206131a090826134b9565b15611189576131ad612fb2565b6001600160a01b0316816001600160a01b0316837ff6391f5c32d9c69d2a47ea670b442974b53935d1edc7fd64eb21e047a839171b60405160405180910390a45050565b6131fe6000610709612fb2565b611d335760405162461bcd60e51b815260206004820152601e60248201527f73656e64657220646f65736e277420686176652061646d696e20726f6c6500006044820152606401610a37565b6000610be06132576134ce565b8360405161190160f01b6020820152602281018390526042810182905260009060620160405160208183030381529060405280519060200120905092915050565b60008060006132a785856135f5565b915091506132b481613665565b509392505050565b60008083602001516001600160c81b03166132d6846132df565b16119392505050565b6001600160a01b03811660009081527f9b7fc797995519db25593326970d3304279d74cdaa6b7cc1a414e3eb0491de546020526040812054613322906001613077565b6001901b92915050565b6000600160c81b8210612e4d5760405162461bcd60e51b815260206004820152601e60248201527f76616c756520646f6573206e6f742066697420696e20323030206269747300006044820152606401610a37565b613389612f34565b6000805460ff191660011790556040516001600160a01b03821681527f62e78cea01bee320cd4e420270b5ea74000d11b0c9f74754ebdbfc544b05a25890602001611313565b6000611db98383613820565b6000610be0825490565b6133ed61384a565b6000805460ff191690556040516001600160a01b03821681527f5db9ee0a495bf2e6ff9c91a7834c1ba4fdd244a5e8aa4e537bd38aeae4b073aa90602001611313565b600081815260018301602052604081205461347757508154600181810184556000848152602080822090930184905584548482528286019093526040902091909155610be0565b506000610be0565b600081848411156134a35760405162461bcd60e51b8152600401610a379190614516565b5060006134b084866145cd565b95945050505050565b6000611db9836001600160a01b038416613893565b6000306001600160a01b037f00000000000000000000000000000000000000000000000000000000000000001614801561352757507f000000000000000000000000000000000000000000000000000000000000000046145b1561355157507f000000000000000000000000000000000000000000000000000000000000000090565b50604080517f00000000000000000000000000000000000000000000000000000000000000006020808301919091527f0000000000000000000000000000000000000000000000000000000000000000828401527f000000000000000000000000000000000000000000000000000000000000000060608301524660808301523060a0808401919091528351808403909101815260c0909201909252805191012090565b60008082516041141561362c5760208301516040840151606085015160001a61362087828585613986565b9450945050505061365e565b825160401415613656576020830151604084015161364b868383613a73565b93509350505061365e565b506000905060025b9250929050565b600081600481111561367957613679614096565b14156136825750565b600181600481111561369657613696614096565b14156136e45760405162461bcd60e51b815260206004820152601860248201527f45434453413a20696e76616c6964207369676e617475726500000000000000006044820152606401610a37565b60028160048111156136f8576136f8614096565b14156137465760405162461bcd60e51b815260206004820152601f60248201527f45434453413a20696e76616c6964207369676e6174757265206c656e677468006044820152606401610a37565b600381600481111561375a5761375a614096565b14156137b35760405162461bcd60e51b815260206004820152602260248201527f45434453413a20696e76616c6964207369676e6174757265202773272076616c604482015261756560f01b6064820152608401610a37565b60048160048111156137c7576137c7614096565b14156130745760405162461bcd60e51b815260206004820152602260248201527f45434453413a20696e76616c6964207369676e6174757265202776272076616c604482015261756560f01b6064820152608401610a37565b600082600001828154811061383757613837614529565b9060005260206000200154905092915050565b60005460ff16611d335760405162461bcd60e51b815260206004820152601460248201527314185d5cd8589b194e881b9bdd081c185d5cd95960621b6044820152606401610a37565b6000818152600183016020526040812054801561397c5760006138b76001836145cd565b85549091506000906138cb906001906145cd565b90508181146139305760008660000182815481106138eb576138eb614529565b906000526020600020015490508087600001848154811061390e5761390e614529565b6000918252602080832090910192909255918252600188019052604090208390555b855486908061394157613941614601565b600190038181906000526020600020016000905590558560010160008681526020019081526020016000206000905560019350505050610be0565b6000915050610be0565b6000807f7fffffffffffffffffffffffffffffff5d576e7357a4501ddfe92f46681b20a08311156139bd5750600090506003613a6a565b8460ff16601b141580156139d557508460ff16601c14155b156139e65750600090506004613a6a565b6040805160008082526020820180845289905260ff881692820192909252606081018690526080810185905260019060a0016020604051602081039080840390855afa158015613a3a573d6000803e3d6000fd5b5050604051601f1901519150506001600160a01b038116613a6357600060019250925050613a6a565b9150600090505b94509492505050565b6000806001600160ff1b03831681613a9060ff86901c601b614617565b9050613a9e87828885613986565b935093505050935093915050565b803560ff81168114612fee57600080fd5b60008083601f840112613acf57600080fd5b5081356001600160401b03811115613ae657600080fd5b60208301915083602082850101111561365e57600080fd5b60008060008060608587031215613b1457600080fd5b613b1d85613aac565b93506020850135925060408501356001600160401b03811115613b3f57600080fd5b613b4b87828801613abd565b95989497509550505050565b600060208284031215613b6957600080fd5b611db982613aac565b80356001600160401b0381168114612fee57600080fd5b600080600060608486031215613b9e57600080fd5b613ba784613aac565b9250613bb560208501613b72565b9150604084013590509250925092565b801515811461307457600080fd5b60008060008060008060a08789031215613bec57600080fd5b613bf587613aac565b9550613c0360208801613b72565b945060408701356001600160401b03811115613c1e57600080fd5b613c2a89828a01613abd565b909550935050606087013591506080870135613c4581613bc5565b809150509295509295509295565b600060208284031215613c6557600080fd5b5035919050565b6001600160a01b038116811461307457600080fd5b60008060408385031215613c9457600080fd5b823591506020830135613ca681613c6c565b809150509250929050565b60008083601f840112613cc357600080fd5b5081356001600160401b03811115613cda57600080fd5b6020830191508360208260051b850101111561365e57600080fd5b60008060008060408587031215613d0b57600080fd5b84356001600160401b0380821115613d2257600080fd5b613d2e88838901613cb1565b90965094506020870135915080821115613d4757600080fd5b50613b4b87828801613cb1565b600060208284031215613d6657600080fd5b8135611db981613c6c565b80356001600160e01b031981168114612fee57600080fd5b60008060008060008060c08789031215613da257600080fd5b8635613dad81613c6c565b9550602087013594506040870135613dc481613c6c565b9350613dd260608801613d71565b925060808701359150613de760a08801613d71565b90509295509295509295565b60008060408385031215613e0657600080fd5b82359150613e1660208401613aac565b90509250929050565b634e487b7160e01b600052604160045260246000fd5b604051601f8201601f191681016001600160401b0381118282101715613e5d57613e5d613e1f565b604052919050565b60006001600160401b03821115613e7e57613e7e613e1f565b50601f01601f191660200190565b600082601f830112613e9d57600080fd5b8135613eb0613eab82613e65565b613e35565b818152846020838601011115613ec557600080fd5b816020850160208301376000918101602001919091529392505050565b60008060008060008060a08789031215613efb57600080fd5b613f0487613aac565b95506020613f13818901613b72565b95506040880135945060608801356001600160401b0380821115613f3657600080fd5b613f428b838c01613abd565b909650945060808a0135915080821115613f5b57600080fd5b818a0191508a601f830112613f6f57600080fd5b813581811115613f8157613f81613e1f565b8060051b613f90858201613e35565b918252838101850191858101908e841115613faa57600080fd5b86860192505b83831015613fe4578483351115613fc657600080fd5b613fd58f888535890101613e8c565b82529186019190860190613fb0565b809750505050505050509295509295509295565b60008060006060848603121561400d57600080fd5b83356001600160481b038116811461402457600080fd5b925060208401359150604084013561403b81613c6c565b809150509250925092565b6000806040838503121561405957600080fd5b823561406481613c6c565b91506020830135613ca681613c6c565b6000806040838503121561408757600080fd5b50508035926020909101359150565b634e487b7160e01b600052602160045260246000fd5b600581106140ca57634e487b7160e01b600052602160045260246000fd5b9052565b60006080820190506140e18284516140ac565b60018060c81b03602084015116602083015260ff604084015116604083015264ffffffffff606084015116606083015292915050565b6000806040838503121561412a57600080fd5b823561413581613c6c565b915060208301356001600160401b0381111561415057600080fd5b61415c85828601613e8c565b9150509250929050565b60008060008060006080868803121561417e57600080fd5b61418786613aac565b945061419560208701613b72565b93506040860135925060608601356001600160401b038111156141b757600080fd5b6141c388828901613abd565b969995985093965092949392505050565b6000806000606084860312156141e957600080fd5b833561402481613c6c565b6000806040838503121561420757600080fd5b823561421281613c6c565b91506020830135613ca681613bc5565b6000806040838503121561423557600080fd5b61423e83613aac565b9150613e1660208401613b72565b600080600080600080600060a0888a03121561426757600080fd5b61427088613aac565b965061427e60208901613b72565b95506040880135945060608801356001600160401b03808211156142a157600080fd5b6142ad8b838c01613abd565b909650945060808a01359150808211156142c657600080fd5b506142d38a828b01613abd565b989b979a50959850939692959293505050565b634e487b7160e01b600052601160045260246000fd5b60006001600160401b0380831681811415614319576143196142e6565b6001019392505050565b81835281816020850137506000828201602090810191909152601f909101601f19169091010190565b8481526001600160a01b03841660208201526060604082018190526000906143779083018486614323565b9695505050505050565b60005b8381101561439c578181015183820152602001614384565b838111156143ab576000848401525b50505050565b6000602082840312156143c357600080fd5b81516001600160401b038111156143d957600080fd5b8201601f810184136143ea57600080fd5b80516143f8613eab82613e65565b81815285602083850101111561440d57600080fd5b6134b0826020830160208601614381565b60008151808452614436816020860160208601614381565b601f01601f19169290920160200192915050565b60ff871681528560208201526001600160401b038516604082015260a06060820152600061447c60a083018587614323565b828103608084015261448e818561441e565b9998505050505050505050565b60ff851681526001600160401b0384166020820152608081016144c160408301856140ac565b82606083015295945050505050565b6bffffffffffffffffffffffff198460601b168152818360148301376000910160140190815292915050565b8381526040602082015260006134b0604083018486614323565b602081526000611db9602083018461441e565b634e487b7160e01b600052603260045260246000fd5b6000600019821415614553576145536142e6565b5060010190565b8183823760009101908152919050565b60208082526023908201527f70726f706f73616c20616c72656164792065786563757465642f63616e63656c6040820152621b195960ea1b606082015260800190565b600060ff821660ff8114156145c4576145c46142e6565b60010192915050565b6000828210156145df576145df6142e6565b500390565b6000602082840312156145f657600080fd5b8151611db981613bc5565b634e487b7160e01b600052603160045260246000fd5b6000821982111561462a5761462a6142e6565b50019056fe968626a768e76ba1363efe44e322a6c4900c5f084e0b45f35e294dfddaa9e0d5e2b7fb3b832174769106daebcfd6d1970523240dda11281102db9363b83b0dc4a2646970667358221220b0220093b5a0633977b5ffaf7fc36a5cd72d5ed0a36e38bae74599a07854bc3164736f6c634300080b0033",
  "linkReferences": {},
  "deployedLinkReferences": {}
}