{
  "_format": "hh-sol-artifact-1",
  "contractName": "ERC721Handler",
  "sourceName": "contracts/handlers/ERC721Handler.sol",
  "abi": [
    {
      "inputs": [
        {
          "internalType": "address",
          "name": "bridgeAddress",
          "type": "address"
        }
      ],
      "stateMutability": "nonpayable",
      "type": "constructor"
    },
    {
      "inputs": [],
      "name": "_bridgeAddress",
      "outputs": [
        {
          "internalType": "address",
          "name": "",
          "type": "address"
        }
      ],
      "stateMutability": "view",
      "type": "function"
    },
    {
      "inputs": [
        {
          "internalType": "address",
          "name": "",
          "type": "address"
        }
      ],
      "name": "_burnList",
      "outputs": [
        {
          "internalType": "bool",
          "name": "",
          "type": "bool"
        }
      ],
      "stateMutability": "view",
      "type": "function"
    },
    {
      "inputs": [
        {
          "internalType": "address",
          "name": "",
          "type": "address"
        }
      ],
      "name": "_contractWhitelist",
      "outputs": [
        {
          "internalType": "bool",
          "name": "",
          "type": "bool"
        }
      ],
      "stateMutability": "view",
      "type": "function"
    },
    {
      "inputs": [
        {
          "internalType": "bytes32",
          "name": "",
          "type": "bytes32"
        }
      ],
      "name": "_resourceIDToTokenContractAddress",
      "outputs": [
        {
          "internalType": "address",
          "name": "",
          "type": "address"
        }
      ],
      "stateMutability": "view",
      "type": "function"
    },
    {
      "inputs": [
        {
          "internalType": "address",
          "name": "",
          "type": "address"
        }
      ],
      "name": "_tokenContractAddressToResourceID",
      "outputs": [
        {
          "internalType": "bytes32",
          "name": "",
          "type": "bytes32"
        }
      ],
      "stateMutability": "view",
      "type": "function"
    },
    {
      "inputs": [
        {
          "internalType": "bytes32",
          "name": "resourceID",
          "type": "bytes32"
        },
        {
          "internalType": "address",
          "name": "depositer",
          "type": "address"
        },
        {
          "internalType": "bytes",
          "name": "data",
          "type": "bytes"
        }
      ],
      "name": "deposit",
      "outputs": [
        {
          "internalType": "bytes",
          "name": "metaData",
          "type": "bytes"
        }
      ],
      "stateMutability": "payable",
      "type": "function"
    },
    {
      "inputs": [
        {
          "internalType": "bytes32",
          "name": "resourceID",
          "type": "bytes32"
        },
        {
          "internalType": "bytes",
          "name": "data",
          "type": "bytes"
        }
      ],
      "name": "executeProposal",
      "outputs": [],
      "stateMutability": "nonpayable",
      "type": "function"
    },
    {
      "inputs": [
        {
          "internalType": "address",
          "name": "",
          "type": "address"
        }
      ],
      "name": "isWtoken",
      "outputs": [
        {
          "internalType": "bool",
          "name": "",
          "type": "bool"
        }
      ],
      "stateMutability": "view",
      "type": "function"
    },
    {
      "inputs": [
        {
          "internalType": "address",
          "name": "contractAddress",
          "type": "address"
        }
      ],
      "name": "setBurnable",
      "outputs": [],
      "stateMutability": "nonpayable",
      "type": "function"
    },
    {
      "inputs": [
        {
          "internalType": "bytes32",
          "name": "resourceID",
          "type": "bytes32"
        },
        {
          "internalType": "address",
          "name": "contractAddress",
          "type": "address"
        }
      ],
      "name": "setResource",
      "outputs": [],
      "stateMutability": "nonpayable",
      "type": "function"
    },
    {
      "inputs": [
        {
          "internalType": "address",
          "name": "wtokenAddress",
          "type": "address"
        },
        {
          "internalType": "bool",
          "name": "_isWtoken",
          "type": "bool"
        }
      ],
      "name": "setWtoken",
      "outputs": [],
      "stateMutability": "nonpayable",
      "type": "function"
    },
    {
      "inputs": [
        {
          "internalType": "bytes",
          "name": "data",
          "type": "bytes"
        }
      ],
      "name": "withdraw",
      "outputs": [],
      "stateMutability": "nonpayable",
      "type": "function"
    }
  ],
  "bytecode": "0x60a060405234801561001057600080fd5b50604051610fba380380610fba83398101604081905261002f91610040565b6001600160a01b0316608052610070565b60006020828403121561005257600080fd5b81516001600160a01b038116811461006957600080fd5b9392505050565b608051610f28610092600039600081816101b301526106c50152610f286000f3fe6080604052600436106100a75760003560e01c80636a70d081116100645780636a70d081146101d55780637f79bea814610205578063b07e54bb14610235578063b8fa373614610255578063c8ba6c8714610275578063e248cff2146102b057600080fd5b8063045dff97146100ac57806307b7ed99146100f15780630968f264146101135780630a6d55d8146101335780632129da1914610181578063318c136e146101a1575b600080fd5b3480156100b857600080fd5b506100dc6100c7366004610a2a565b60046020526000908152604090205460ff1681565b60405190151581526020015b60405180910390f35b3480156100fd57600080fd5b5061011161010c366004610a2a565b6102d0565b005b34801561011f57600080fd5b5061011161012e366004610abd565b6102e4565b34801561013f57600080fd5b5061016961014e366004610b3d565b6000602081905290815260409020546001600160a01b031681565b6040516001600160a01b0390911681526020016100e8565b34801561018d57600080fd5b5061011161019c366004610b64565b61031e565b3480156101ad57600080fd5b506101697f000000000000000000000000000000000000000000000000000000000000000081565b3480156101e157600080fd5b506100dc6101f0366004610a2a565b60036020526000908152604090205460ff1681565b34801561021157600080fd5b506100dc610220366004610a2a565b60026020526000908152604090205460ff1681565b610248610243366004610be6565b610351565b6040516100e89190610c9a565b34801561026157600080fd5b50610111610270366004610cad565b6104d1565b34801561028157600080fd5b506102a2610290366004610a2a565b60016020526000908152604090205481565b6040519081526020016100e8565b3480156102bc57600080fd5b506101116102cb366004610cd2565b610526565b6102d86106ba565b6102e181610734565b50565b6102ec6106ba565b6000806000838060200190518101906103059190610d1e565b91945092509050610318833084846107cc565b50505050565b6103266106ba565b6001600160a01b03919091166000908152600460205260409020805460ff1916911515919091179055565b606061035b6106ba565b34156103a35760405162461bcd60e51b81526020600482015260126024820152711b5cd9cb9d985b1d59481b9bdd081b9d5b1b60721b60448201526064015b60405180910390fd5b60006103b183850185610b3d565b600087815260208181526040808320546001600160a01b03168084526002909252909120549192509060ff166103f95760405162461bcd60e51b815260040161039a90610d61565b6104136001600160a01b038216635b5e139f60e01b610841565b1561048b5760405163c87b56dd60e01b81526004810183905281906001600160a01b0382169063c87b56dd90602401600060405180830381865afa15801561045f573d6000803e3d6000fd5b505050506040513d6000823e601f3d908101601f191682016040526104879190810190610da9565b9350505b6001600160a01b03811660009081526003602052604090205460ff16156104bb576104b68183610866565b6104c7565b6104c7818730856107cc565b5050949350505050565b6104d96106ba565b60008281526020818152604080832080546001600160a01b0319166001600160a01b039590951694851790559282526001808252838320949094556002905220805460ff19169091179055565b61052e6106ba565b600080606081808261054287890189610e20565b9096509450610552856040610e42565b9250610561836040898b610e68565b8080601f0160208091040260200160405190810160405280939291908181526020018383808284376000920191909152509296506105a79250899150859050818b610e68565b8101906105b49190610b3d565b915087876105c3856020610e42565b90846105d0876020610e42565b6105da9190610e42565b926105e793929190610e68565b8080601f01602080910402602001604051908101604052809392919081815260200183838082843760009201829052506020898101518f83528282526040808420546001600160a01b0316808552600290935290922054959650909490935060ff16915061066990505760405162461bcd60e51b815260040161039a90610d61565b6001600160a01b03811660009081526003602052604090205460ff161561069e57610699818360601c8a866108c7565b6106ad565b6106ad81308460601c8b6107cc565b5050505050505050505050565b336001600160a01b037f000000000000000000000000000000000000000000000000000000000000000016146107325760405162461bcd60e51b815260206004820152601e60248201527f73656e646572206d7573742062652062726964676520636f6e74726163740000604482015260640161039a565b565b6001600160a01b03811660009081526002602052604090205460ff166107a85760405162461bcd60e51b8152602060048201526024808201527f70726f766964656420636f6e7472616374206973206e6f742077686974656c696044820152631cdd195960e21b606482015260840161039a565b6001600160a01b03166000908152600360205260409020805460ff19166001179055565b6040516323b872dd60e01b81526001600160a01b0384811660048301528381166024830152604482018390528591908216906323b872dd906064015b600060405180830381600087803b15801561082257600080fd5b505af1158015610836573d6000803e3d6000fd5b505050505050505050565b600061084c836108f9565b801561085d575061085d838361092c565b90505b92915050565b604051630852cd8d60e31b81526004810182905282906001600160a01b038216906342966c6890602401600060405180830381600087803b1580156108aa57600080fd5b505af11580156108be573d6000803e3d6000fd5b50505050505050565b6040516334ff261960e21b815284906001600160a01b0382169063d3fc98649061080890879087908790600401610e92565b600061090c826301ffc9a760e01b61092c565b80156108605750610925826001600160e01b031961092c565b1592915050565b604080516001600160e01b0319831660248083019190915282518083039091018152604490910182526020810180516001600160e01b03166301ffc9a760e01b179052905160009190829081906001600160a01b0387169061753090610993908690610eb9565b6000604051808303818686fa925050503d80600081146109cf576040519150601f19603f3d011682016040523d82523d6000602084013e6109d4565b606091505b50915091506020815110156109ef5760009350505050610860565b818015610a0b575080806020019051810190610a0b9190610ed5565b9695505050505050565b6001600160a01b03811681146102e157600080fd5b600060208284031215610a3c57600080fd5b8135610a4781610a15565b9392505050565b634e487b7160e01b600052604160045260246000fd5b604051601f8201601f1916810167ffffffffffffffff81118282101715610a8d57610a8d610a4e565b604052919050565b600067ffffffffffffffff821115610aaf57610aaf610a4e565b50601f01601f191660200190565b600060208284031215610acf57600080fd5b813567ffffffffffffffff811115610ae657600080fd5b8201601f81018413610af757600080fd5b8035610b0a610b0582610a95565b610a64565b818152856020838501011115610b1f57600080fd5b81602084016020830137600091810160200191909152949350505050565b600060208284031215610b4f57600080fd5b5035919050565b80151581146102e157600080fd5b60008060408385031215610b7757600080fd5b8235610b8281610a15565b91506020830135610b9281610b56565b809150509250929050565b60008083601f840112610baf57600080fd5b50813567ffffffffffffffff811115610bc757600080fd5b602083019150836020828501011115610bdf57600080fd5b9250929050565b60008060008060608587031215610bfc57600080fd5b843593506020850135610c0e81610a15565b9250604085013567ffffffffffffffff811115610c2a57600080fd5b610c3687828801610b9d565b95989497509550505050565b60005b83811015610c5d578181015183820152602001610c45565b838111156103185750506000910152565b60008151808452610c86816020860160208601610c42565b601f01601f19169290920160200192915050565b60208152600061085d6020830184610c6e565b60008060408385031215610cc057600080fd5b823591506020830135610b9281610a15565b600080600060408486031215610ce757600080fd5b83359250602084013567ffffffffffffffff811115610d0557600080fd5b610d1186828701610b9d565b9497909650939450505050565b600080600060608486031215610d3357600080fd5b8351610d3e81610a15565b6020850151909350610d4f81610a15565b80925050604084015190509250925092565b60208082526028908201527f70726f766964656420746f6b656e41646472657373206973206e6f74207768696040820152671d195b1a5cdd195960c21b606082015260800190565b600060208284031215610dbb57600080fd5b815167ffffffffffffffff811115610dd257600080fd5b8201601f81018413610de357600080fd5b8051610df1610b0582610a95565b818152856020838501011115610e0657600080fd5b610e17826020830160208601610c42565b95945050505050565b60008060408385031215610e3357600080fd5b50508035926020909101359150565b60008219821115610e6357634e487b7160e01b600052601160045260246000fd5b500190565b60008085851115610e7857600080fd5b83861115610e8557600080fd5b5050820193919092039150565b60018060a01b0384168152826020820152606060408201526000610e176060830184610c6e565b60008251610ecb818460208701610c42565b9190910192915050565b600060208284031215610ee757600080fd5b8151610a4781610b5656fea2646970667358221220f69d871ceea59f44a71ec4f95df1df3beccfd3384c31bdb86fb6feb9fb8a133564736f6c634300080b0033",
  "linkReferences": {},
  "deployedLinkReferences": {}
}