{
  "_format": "hh-sol-artifact-1",
  "contractName": "ERC721Handler",
  "sourceName": "contracts/handlers/ERC721Handler.sol",
  "abi": [
    {
      "inputs": [
        {
          "internalType": "address",
          "name": "bridgeAddress",
          "type": "address"
        }
      ],
      "stateMutability": "nonpayable",
      "type": "constructor"
    },
    {
      "inputs": [],
      "name": "_bridgeAddress",
      "outputs": [
        {
          "internalType": "address",
          "name": "",
          "type": "address"
        }
      ],
      "stateMutability": "view",
      "type": "function"
    },
    {
      "inputs": [
        {
          "internalType": "address",
          "name": "",
          "type": "address"
        }
      ],
      "name": "_burnList",
      "outputs": [
        {
          "internalType": "bool",
          "name": "",
          "type": "bool"
        }
      ],
      "stateMutability": "view",
      "type": "function"
    },
    {
      "inputs": [
        {
          "internalType": "address",
          "name": "",
          "type": "address"
        }
      ],
      "name": "_contractWhitelist",
      "outputs": [
        {
          "internalType": "bool",
          "name": "",
          "type": "bool"
        }
      ],
      "stateMutability": "view",
      "type": "function"
    },
    {
      "inputs": [
        {
          "internalType": "bytes32",
          "name": "",
          "type": "bytes32"
        }
      ],
      "name": "_resourceIDToTokenContractAddress",
      "outputs": [
        {
          "internalType": "address",
          "name": "",
          "type": "address"
        }
      ],
      "stateMutability": "view",
      "type": "function"
    },
    {
      "inputs": [
        {
          "internalType": "address",
          "name": "",
          "type": "address"
        }
      ],
      "name": "_tokenContractAddressToResourceID",
      "outputs": [
        {
          "internalType": "bytes32",
          "name": "",
          "type": "bytes32"
        }
      ],
      "stateMutability": "view",
      "type": "function"
    },
    {
      "inputs": [
        {
          "internalType": "bytes32",
          "name": "resourceID",
          "type": "bytes32"
        },
        {
          "internalType": "address",
          "name": "depositor",
          "type": "address"
        },
        {
          "internalType": "bytes",
          "name": "data",
          "type": "bytes"
        }
      ],
      "name": "deposit",
      "outputs": [
        {
          "internalType": "bytes",
          "name": "metaData",
          "type": "bytes"
        }
      ],
      "stateMutability": "payable",
      "type": "function"
    },
    {
      "inputs": [
        {
          "internalType": "bytes32",
          "name": "resourceID",
          "type": "bytes32"
        },
        {
          "internalType": "bytes",
          "name": "data",
          "type": "bytes"
        }
      ],
      "name": "executeProposal",
      "outputs": [],
      "stateMutability": "nonpayable",
      "type": "function"
    },
    {
      "inputs": [
        {
          "internalType": "address",
          "name": "",
          "type": "address"
        }
      ],
      "name": "isNative",
      "outputs": [
        {
          "internalType": "bool",
          "name": "",
          "type": "bool"
        }
      ],
      "stateMutability": "view",
      "type": "function"
    },
    {
      "inputs": [
        {
          "internalType": "address",
          "name": "contractAddress",
          "type": "address"
        }
      ],
      "name": "setBurnable",
      "outputs": [],
      "stateMutability": "nonpayable",
      "type": "function"
    },
    {
      "inputs": [
        {
          "internalType": "address",
          "name": "nativeAddress",
          "type": "address"
        },
        {
          "internalType": "bool",
          "name": "_isNative",
          "type": "bool"
        }
      ],
      "name": "setNative",
      "outputs": [],
      "stateMutability": "nonpayable",
      "type": "function"
    },
    {
      "inputs": [
        {
          "internalType": "bytes32",
          "name": "resourceID",
          "type": "bytes32"
        },
        {
          "internalType": "address",
          "name": "contractAddress",
          "type": "address"
        }
      ],
      "name": "setResource",
      "outputs": [],
      "stateMutability": "nonpayable",
      "type": "function"
    },
    {
      "inputs": [
        {
          "internalType": "bytes",
          "name": "data",
          "type": "bytes"
        }
      ],
      "name": "withdraw",
      "outputs": [],
      "stateMutability": "nonpayable",
      "type": "function"
    },
    {
      "inputs": [
        {
          "internalType": "bytes",
          "name": "data",
          "type": "bytes"
        }
      ],
      "name": "withdrawETH",
      "outputs": [],
      "stateMutability": "nonpayable",
      "type": "function"
    }
  ],
  "bytecode": "0x60a060405234801561001057600080fd5b506040516110c53803806110c583398101604081905261002f91610040565b6001600160a01b0316608052610070565b60006020828403121561005257600080fd5b81516001600160a01b038116811461006957600080fd5b9392505050565b6080516110336100926000396000818161016e01526106f801526110336000f3fe6080604052600436106100c25760003560e01c80637f79bea81161007f578063b2b8b5dd11610059578063b2b8b5dd1461025e578063b8fa37361461028e578063c8ba6c87146102ae578063e248cff2146102e957600080fd5b80637f79bea8146101f0578063ab5c7bf114610220578063b07e54bb1461023e57600080fd5b806307b7ed99146100c75780630968f264146100e95780630a6d55d814610109578063318c136e1461015c5780636a70d08114610190578063789d7711146101d0575b600080fd5b3480156100d357600080fd5b506100e76100e2366004610b18565b610309565b005b3480156100f557600080fd5b506100e7610104366004610bab565b61031a565b34801561011557600080fd5b5061013f610124366004610c2b565b6000602081905290815260409020546001600160a01b031681565b6040516001600160a01b0390911681526020015b60405180910390f35b34801561016857600080fd5b5061013f7f000000000000000000000000000000000000000000000000000000000000000081565b34801561019c57600080fd5b506101c06101ab366004610b18565b60036020526000908152604090205460ff1681565b6040519015158152602001610153565b3480156101dc57600080fd5b506100e76101eb366004610c52565b610354565b3480156101fc57600080fd5b506101c061020b366004610b18565b60026020526000908152604090205460ff1681565b34801561022c57600080fd5b506100e761023b366004610bab565b50565b61025161024c366004610cd4565b610387565b6040516101539190610d88565b34801561026a57600080fd5b506101c0610279366004610b18565b60046020526000908152604090205460ff1681565b34801561029a57600080fd5b506100e76102a9366004610d9b565b610504565b3480156102ba57600080fd5b506102db6102c9366004610b18565b60016020526000908152604090205481565b604051908152602001610153565b3480156102f557600080fd5b506100e7610304366004610dc0565b610559565b6103116106ed565b61023b81610767565b6103226106ed565b60008060008380602001905181019061033b9190610e0c565b9194509250905061034e833084846107ff565b50505050565b61035c6106ed565b6001600160a01b03919091166000908152600460205260409020805460ff1916911515919091179055565b60606103916106ed565b34156103d55760405162461bcd60e51b815260206004820152600e60248201526d06d73672e76616c756520213d20360941b60448201526064015b60405180910390fd5b60006103e383850185610c2b565b600087815260208181526040808320546001600160a01b03168084526002909252909120549192509060ff1661042b5760405162461bcd60e51b81526004016103cc90610e4f565b6104456001600160a01b038216635b5e139f60e01b610874565b156104bd5760405163c87b56dd60e01b81526004810183905281906001600160a01b0382169063c87b56dd90602401600060405180830381865afa158015610491573d6000803e3d6000fd5b505050506040513d6000823e601f3d908101601f191682016040526104b99190810190610e97565b9350505b6001600160a01b03811660009081526003602052604090205460ff16156104ee576104e9818784610899565b6104fa565b6104fa818730856107ff565b5050949350505050565b61050c6106ed565b60008281526020818152604080832080546001600160a01b0319166001600160a01b039590951694851790559282526001808252838320949094556002905220805460ff19169091179055565b6105616106ed565b600080606081808261057587890189610f0e565b9096509450610585856040610f30565b9250610594836040898b610f56565b8080601f0160208091040260200160405190810160405280939291908181526020018383808284376000920191909152509296506105da9250899150859050818b610f56565b8101906105e79190610c2b565b915087876105f6856020610f30565b9084610603876020610f30565b61060d9190610f30565b9261061a93929190610f56565b8080601f01602080910402602001604051908101604052809392919081815260200183838082843760009201829052506020898101518f83528282526040808420546001600160a01b0316808552600290935290922054959650909490935060ff16915061069c90505760405162461bcd60e51b81526004016103cc90610e4f565b6001600160a01b03811660009081526003602052604090205460ff16156106d1576106cc818360601c8a866109b5565b6106e0565b6106e081308460601c8b6107ff565b5050505050505050505050565b336001600160a01b037f000000000000000000000000000000000000000000000000000000000000000016146107655760405162461bcd60e51b815260206004820152601e60248201527f73656e646572206d7573742062652062726964676520636f6e7472616374000060448201526064016103cc565b565b6001600160a01b03811660009081526002602052604090205460ff166107db5760405162461bcd60e51b8152602060048201526024808201527f70726f766964656420636f6e7472616374206973206e6f742077686974656c696044820152631cdd195960e21b60648201526084016103cc565b6001600160a01b03166000908152600360205260409020805460ff19166001179055565b6040516323b872dd60e01b81526001600160a01b0384811660048301528381166024830152604482018390528591908216906323b872dd906064015b600060405180830381600087803b15801561085557600080fd5b505af1158015610869573d6000803e3d6000fd5b505050505050505050565b600061087f836109e7565b801561089057506108908383610a1a565b90505b92915050565b6040516331a9108f60e11b81526004810182905283906001600160a01b038481169190831690636352211e90602401602060405180830381865afa1580156108e5573d6000803e3d6000fd5b505050506040513d601f19601f820116820180604052508101906109099190610f80565b6001600160a01b0316146109555760405162461bcd60e51b8152602060048201526013602482015272213ab937103737ba10333937b69037bbb732b960691b60448201526064016103cc565b604051630852cd8d60e31b8152600481018390526001600160a01b038216906342966c6890602401600060405180830381600087803b15801561099757600080fd5b505af11580156109ab573d6000803e3d6000fd5b5050505050505050565b6040516334ff261960e21b815284906001600160a01b0382169063d3fc98649061083b90879087908790600401610f9d565b60006109fa826301ffc9a760e01b610a1a565b80156108935750610a13826001600160e01b0319610a1a565b1592915050565b604080516001600160e01b0319831660248083019190915282518083039091018152604490910182526020810180516001600160e01b03166301ffc9a760e01b179052905160009190829081906001600160a01b0387169061753090610a81908690610fc4565b6000604051808303818686fa925050503d8060008114610abd576040519150601f19603f3d011682016040523d82523d6000602084013e610ac2565b606091505b5091509150602081511015610add5760009350505050610893565b818015610af9575080806020019051810190610af99190610fe0565b9695505050505050565b6001600160a01b038116811461023b57600080fd5b600060208284031215610b2a57600080fd5b8135610b3581610b03565b9392505050565b634e487b7160e01b600052604160045260246000fd5b604051601f8201601f1916810167ffffffffffffffff81118282101715610b7b57610b7b610b3c565b604052919050565b600067ffffffffffffffff821115610b9d57610b9d610b3c565b50601f01601f191660200190565b600060208284031215610bbd57600080fd5b813567ffffffffffffffff811115610bd457600080fd5b8201601f81018413610be557600080fd5b8035610bf8610bf382610b83565b610b52565b818152856020838501011115610c0d57600080fd5b81602084016020830137600091810160200191909152949350505050565b600060208284031215610c3d57600080fd5b5035919050565b801515811461023b57600080fd5b60008060408385031215610c6557600080fd5b8235610c7081610b03565b91506020830135610c8081610c44565b809150509250929050565b60008083601f840112610c9d57600080fd5b50813567ffffffffffffffff811115610cb557600080fd5b602083019150836020828501011115610ccd57600080fd5b9250929050565b60008060008060608587031215610cea57600080fd5b843593506020850135610cfc81610b03565b9250604085013567ffffffffffffffff811115610d1857600080fd5b610d2487828801610c8b565b95989497509550505050565b60005b83811015610d4b578181015183820152602001610d33565b8381111561034e5750506000910152565b60008151808452610d74816020860160208601610d30565b601f01601f19169290920160200192915050565b6020815260006108906020830184610d5c565b60008060408385031215610dae57600080fd5b823591506020830135610c8081610b03565b600080600060408486031215610dd557600080fd5b83359250602084013567ffffffffffffffff811115610df357600080fd5b610dff86828701610c8b565b9497909650939450505050565b600080600060608486031215610e2157600080fd5b8351610e2c81610b03565b6020850151909350610e3d81610b03565b80925050604084015190509250925092565b60208082526028908201527f70726f766964656420746f6b656e41646472657373206973206e6f74207768696040820152671d195b1a5cdd195960c21b606082015260800190565b600060208284031215610ea957600080fd5b815167ffffffffffffffff811115610ec057600080fd5b8201601f81018413610ed157600080fd5b8051610edf610bf382610b83565b818152856020838501011115610ef457600080fd5b610f05826020830160208601610d30565b95945050505050565b60008060408385031215610f2157600080fd5b50508035926020909101359150565b60008219821115610f5157634e487b7160e01b600052601160045260246000fd5b500190565b60008085851115610f6657600080fd5b83861115610f7357600080fd5b5050820193919092039150565b600060208284031215610f9257600080fd5b8151610b3581610b03565b60018060a01b0384168152826020820152606060408201526000610f056060830184610d5c565b60008251610fd6818460208701610d30565b9190910192915050565b600060208284031215610ff257600080fd5b8151610b3581610c4456fea26469706673582212203c4ee665658631d8dd7bec6c1da5a8a39b370792d335cc39ec2788317027f21264736f6c634300080b0033",
  "linkReferences": {},
  "deployedLinkReferences": {}
}