{
  "_format": "hh-sol-artifact-1",
  "contractName": "HandlerRevert",
  "sourceName": "contracts/TestContracts.sol",
  "abi": [
    {
      "inputs": [
        {
          "internalType": "address",
          "name": "bridgeAddress",
          "type": "address"
        }
      ],
      "stateMutability": "nonpayable",
      "type": "constructor"
    },
    {
      "inputs": [],
      "name": "_bridgeAddress",
      "outputs": [
        {
          "internalType": "address",
          "name": "",
          "type": "address"
        }
      ],
      "stateMutability": "view",
      "type": "function"
    },
    {
      "inputs": [
        {
          "internalType": "address",
          "name": "",
          "type": "address"
        }
      ],
      "name": "_burnList",
      "outputs": [
        {
          "internalType": "bool",
          "name": "",
          "type": "bool"
        }
      ],
      "stateMutability": "view",
      "type": "function"
    },
    {
      "inputs": [
        {
          "internalType": "address",
          "name": "",
          "type": "address"
        }
      ],
      "name": "_contractWhitelist",
      "outputs": [
        {
          "internalType": "bool",
          "name": "",
          "type": "bool"
        }
      ],
      "stateMutability": "view",
      "type": "function"
    },
    {
      "inputs": [
        {
          "internalType": "bytes32",
          "name": "",
          "type": "bytes32"
        }
      ],
      "name": "_resourceIDToTokenContractAddress",
      "outputs": [
        {
          "internalType": "address",
          "name": "",
          "type": "address"
        }
      ],
      "stateMutability": "view",
      "type": "function"
    },
    {
      "inputs": [
        {
          "internalType": "address",
          "name": "",
          "type": "address"
        }
      ],
      "name": "_tokenContractAddressToResourceID",
      "outputs": [
        {
          "internalType": "bytes32",
          "name": "",
          "type": "bytes32"
        }
      ],
      "stateMutability": "view",
      "type": "function"
    },
    {
      "inputs": [
        {
          "internalType": "bytes32",
          "name": "",
          "type": "bytes32"
        },
        {
          "internalType": "bytes",
          "name": "",
          "type": "bytes"
        }
      ],
      "name": "executeProposal",
      "outputs": [],
      "stateMutability": "view",
      "type": "function"
    },
    {
      "inputs": [
        {
          "internalType": "address",
          "name": "",
          "type": "address"
        }
      ],
      "name": "isWtoken",
      "outputs": [
        {
          "internalType": "bool",
          "name": "",
          "type": "bool"
        }
      ],
      "stateMutability": "view",
      "type": "function"
    },
    {
      "inputs": [
        {
          "internalType": "address",
          "name": "contractAddress",
          "type": "address"
        }
      ],
      "name": "setBurnable",
      "outputs": [],
      "stateMutability": "nonpayable",
      "type": "function"
    },
    {
      "inputs": [
        {
          "internalType": "bytes32",
          "name": "resourceID",
          "type": "bytes32"
        },
        {
          "internalType": "address",
          "name": "contractAddress",
          "type": "address"
        }
      ],
      "name": "setResource",
      "outputs": [],
      "stateMutability": "nonpayable",
      "type": "function"
    },
    {
      "inputs": [
        {
          "internalType": "address",
          "name": "wtokenAddress",
          "type": "address"
        },
        {
          "internalType": "bool",
          "name": "_isWtoken",
          "type": "bool"
        }
      ],
      "name": "setWtoken",
      "outputs": [],
      "stateMutability": "nonpayable",
      "type": "function"
    },
    {
      "inputs": [
        {
          "internalType": "uint256",
          "name": "amount",
          "type": "uint256"
        }
      ],
      "name": "virtualIncreaseBalance",
      "outputs": [],
      "stateMutability": "nonpayable",
      "type": "function"
    },
    {
      "inputs": [
        {
          "internalType": "bytes",
          "name": "data",
          "type": "bytes"
        }
      ],
      "name": "withdraw",
      "outputs": [],
      "stateMutability": "nonpayable",
      "type": "function"
    }
  ],
  "bytecode": "0x60a060405234801561001057600080fd5b5060405161070638038061070683398101604081905261002f91610040565b6001600160a01b0316608052610070565b60006020828403121561005257600080fd5b81516001600160a01b038116811461006957600080fd5b9392505050565b60805161067461009260003960008181610170015261033501526106746000f3fe608060405234801561001057600080fd5b50600436106100b45760003560e01c80636a70d081116100715780636a70d081146101925780637f79bea8146101b5578063b8fa3736146101d8578063c238eea1146101eb578063c8ba6c87146101fe578063e248cff21461022c57600080fd5b8063045dff97146100b957806307b7ed99146100f15780630968f264146101065780630a6d55d8146101175780632129da1914610158578063318c136e1461016b575b600080fd5b6100dc6100c7366004610458565b60046020526000908152604090205460ff1681565b60405190151581526020015b60405180910390f35b6101046100ff366004610458565b61023f565b005b610104610114366004610490565b50565b610140610125366004610541565b6000602081905290815260409020546001600160a01b031681565b6040516001600160a01b0390911681526020016100e8565b61010461016636600461055a565b610250565b6101407f000000000000000000000000000000000000000000000000000000000000000081565b6100dc6101a0366004610458565b60036020526000908152604090205460ff1681565b6100dc6101c3366004610458565b60026020526000908152604090205460ff1681565b6101046101e6366004610596565b610283565b6101046101f9366004610541565b600555565b61021e61020c366004610458565b60016020526000908152604090205481565b6040519081526020016100e8565b61010461023a3660046105c2565b6102d8565b61024761032a565b610114816103a4565b61025861032a565b6001600160a01b03919091166000908152600460205260409020805460ff1916911515919091179055565b61028b61032a565b60008281526020818152604080832080546001600160a01b0319166001600160a01b039590951694851790559282526001808252838320949094556002905220805460ff19169091179055565b6005546103255760405162461bcd60e51b815260206004820152601660248201527514dbdb595d1a1a5b99c8189859081a185c1c195b995960521b60448201526064015b60405180910390fd5b505050565b336001600160a01b037f000000000000000000000000000000000000000000000000000000000000000016146103a25760405162461bcd60e51b815260206004820152601e60248201527f73656e646572206d7573742062652062726964676520636f6e74726163740000604482015260640161031c565b565b6001600160a01b03811660009081526002602052604090205460ff166104185760405162461bcd60e51b8152602060048201526024808201527f70726f766964656420636f6e7472616374206973206e6f742077686974656c696044820152631cdd195960e21b606482015260840161031c565b6001600160a01b03166000908152600360205260409020805460ff19166001179055565b80356001600160a01b038116811461045357600080fd5b919050565b60006020828403121561046a57600080fd5b6104738261043c565b9392505050565b634e487b7160e01b600052604160045260246000fd5b6000602082840312156104a257600080fd5b813567ffffffffffffffff808211156104ba57600080fd5b818401915084601f8301126104ce57600080fd5b8135818111156104e0576104e061047a565b604051601f8201601f19908116603f011681019083821181831017156105085761050861047a565b8160405282815287602084870101111561052157600080fd5b826020860160208301376000928101602001929092525095945050505050565b60006020828403121561055357600080fd5b5035919050565b6000806040838503121561056d57600080fd5b6105768361043c565b91506020830135801515811461058b57600080fd5b809150509250929050565b600080604083850312156105a957600080fd5b823591506105b96020840161043c565b90509250929050565b6000806000604084860312156105d757600080fd5b83359250602084013567ffffffffffffffff808211156105f657600080fd5b818601915086601f83011261060a57600080fd5b81358181111561061957600080fd5b87602082850101111561062b57600080fd5b602083019450809350505050925092509256fea26469706673582212206d11e36948dbfa18a722e52cc1046486435d715b2a9899cd5f3a39eda0b1e9f564736f6c634300080b0033",
  "linkReferences": {},
  "deployedLinkReferences": {}
}