{
  "_format": "hh-sol-artifact-1",
  "contractName": "HandlerRevert",
  "sourceName": "contracts/TestContracts.sol",
  "abi": [
    {
      "inputs": [
        {
          "internalType": "address",
          "name": "bridgeAddress",
          "type": "address"
        }
      ],
      "stateMutability": "nonpayable",
      "type": "constructor"
    },
    {
      "inputs": [],
      "name": "_bridgeAddress",
      "outputs": [
        {
          "internalType": "address",
          "name": "",
          "type": "address"
        }
      ],
      "stateMutability": "view",
      "type": "function"
    },
    {
      "inputs": [
        {
          "internalType": "address",
          "name": "",
          "type": "address"
        }
      ],
      "name": "_burnList",
      "outputs": [
        {
          "internalType": "bool",
          "name": "",
          "type": "bool"
        }
      ],
      "stateMutability": "view",
      "type": "function"
    },
    {
      "inputs": [
        {
          "internalType": "address",
          "name": "",
          "type": "address"
        }
      ],
      "name": "_contractWhitelist",
      "outputs": [
        {
          "internalType": "bool",
          "name": "",
          "type": "bool"
        }
      ],
      "stateMutability": "view",
      "type": "function"
    },
    {
      "inputs": [
        {
          "internalType": "bytes32",
          "name": "",
          "type": "bytes32"
        }
      ],
      "name": "_resourceIDToTokenContractAddress",
      "outputs": [
        {
          "internalType": "address",
          "name": "",
          "type": "address"
        }
      ],
      "stateMutability": "view",
      "type": "function"
    },
    {
      "inputs": [
        {
          "internalType": "address",
          "name": "",
          "type": "address"
        }
      ],
      "name": "_tokenContractAddressToResourceID",
      "outputs": [
        {
          "internalType": "bytes32",
          "name": "",
          "type": "bytes32"
        }
      ],
      "stateMutability": "view",
      "type": "function"
    },
    {
      "inputs": [
        {
          "internalType": "bytes32",
          "name": "",
          "type": "bytes32"
        },
        {
          "internalType": "bytes",
          "name": "",
          "type": "bytes"
        }
      ],
      "name": "executeProposal",
      "outputs": [],
      "stateMutability": "view",
      "type": "function"
    },
    {
      "inputs": [
        {
          "internalType": "address",
          "name": "contractAddress",
          "type": "address"
        }
      ],
      "name": "setBurnable",
      "outputs": [],
      "stateMutability": "nonpayable",
      "type": "function"
    },
    {
      "inputs": [
        {
          "internalType": "bytes32",
          "name": "resourceID",
          "type": "bytes32"
        },
        {
          "internalType": "address",
          "name": "contractAddress",
          "type": "address"
        }
      ],
      "name": "setResource",
      "outputs": [],
      "stateMutability": "nonpayable",
      "type": "function"
    },
    {
      "inputs": [
        {
          "internalType": "uint256",
          "name": "amount",
          "type": "uint256"
        }
      ],
      "name": "virtualIncreaseBalance",
      "outputs": [],
      "stateMutability": "nonpayable",
      "type": "function"
    },
    {
      "inputs": [
        {
          "internalType": "bytes",
          "name": "data",
          "type": "bytes"
        }
      ],
      "name": "withdraw",
      "outputs": [],
      "stateMutability": "nonpayable",
      "type": "function"
    }
  ],
  "bytecode": "0x60a060405234801561001057600080fd5b5060405161064b38038061064b83398101604081905261002f91610040565b6001600160a01b0316608052610070565b60006020828403121561005257600080fd5b81516001600160a01b038116811461006957600080fd5b9392505050565b6080516105b96100926000396000818161011401526102b601526105b96000f3fe608060405234801561001057600080fd5b506004361061009e5760003560e01c80637f79bea8116100665780637f79bea814610169578063b8fa37361461018c578063c238eea11461019f578063c8ba6c87146101b2578063e248cff2146101e057600080fd5b806307b7ed99146100a35780630968f264146100b85780630a6d55d8146100c9578063318c136e1461010f5780636a70d08114610136575b600080fd5b6100b66100b13660046103d9565b6101f3565b005b6100b66100c6366004610411565b50565b6100f26100d73660046104c2565b6000602081905290815260409020546001600160a01b031681565b6040516001600160a01b0390911681526020015b60405180910390f35b6100f27f000000000000000000000000000000000000000000000000000000000000000081565b6101596101443660046103d9565b60036020526000908152604090205460ff1681565b6040519015158152602001610106565b6101596101773660046103d9565b60026020526000908152604090205460ff1681565b6100b661019a3660046104db565b610204565b6100b66101ad3660046104c2565b600455565b6101d26101c03660046103d9565b60016020526000908152604090205481565b604051908152602001610106565b6100b66101ee366004610507565b610259565b6101fb6102ab565b6100c681610325565b61020c6102ab565b60008281526020818152604080832080546001600160a01b0319166001600160a01b039590951694851790559282526001808252838320949094556002905220805460ff19169091179055565b6004546102a65760405162461bcd60e51b815260206004820152601660248201527514dbdb595d1a1a5b99c8189859081a185c1c195b995960521b60448201526064015b60405180910390fd5b505050565b336001600160a01b037f000000000000000000000000000000000000000000000000000000000000000016146103235760405162461bcd60e51b815260206004820152601e60248201527f73656e646572206d7573742062652062726964676520636f6e74726163740000604482015260640161029d565b565b6001600160a01b03811660009081526002602052604090205460ff166103995760405162461bcd60e51b8152602060048201526024808201527f70726f766964656420636f6e7472616374206973206e6f742077686974656c696044820152631cdd195960e21b606482015260840161029d565b6001600160a01b03166000908152600360205260409020805460ff19166001179055565b80356001600160a01b03811681146103d457600080fd5b919050565b6000602082840312156103eb57600080fd5b6103f4826103bd565b9392505050565b634e487b7160e01b600052604160045260246000fd5b60006020828403121561042357600080fd5b813567ffffffffffffffff8082111561043b57600080fd5b818401915084601f83011261044f57600080fd5b813581811115610461576104616103fb565b604051601f8201601f19908116603f01168101908382118183101715610489576104896103fb565b816040528281528760208487010111156104a257600080fd5b826020860160208301376000928101602001929092525095945050505050565b6000602082840312156104d457600080fd5b5035919050565b600080604083850312156104ee57600080fd5b823591506104fe602084016103bd565b90509250929050565b60008060006040848603121561051c57600080fd5b83359250602084013567ffffffffffffffff8082111561053b57600080fd5b818601915086601f83011261054f57600080fd5b81358181111561055e57600080fd5b87602082850101111561057057600080fd5b602083019450809350505050925092509256fea264697066735822122082c0608aa949fd4547fb8cfe416a7e65f827fec183ff61f3870a4252bf8c1c9164736f6c634300080b0033",
  "linkReferences": {},
  "deployedLinkReferences": {}
}