{
  "_format": "hh-sol-artifact-1",
  "contractName": "HandlerRevert",
  "sourceName": "contracts/TestContracts.sol",
  "abi": [
    {
      "inputs": [
        {
          "internalType": "address",
          "name": "bridgeAddress",
          "type": "address"
        }
      ],
      "stateMutability": "nonpayable",
      "type": "constructor"
    },
    {
      "inputs": [],
      "name": "_bridgeAddress",
      "outputs": [
        {
          "internalType": "address",
          "name": "",
          "type": "address"
        }
      ],
      "stateMutability": "view",
      "type": "function"
    },
    {
      "inputs": [
        {
          "internalType": "address",
          "name": "",
          "type": "address"
        }
      ],
      "name": "_burnList",
      "outputs": [
        {
          "internalType": "bool",
          "name": "",
          "type": "bool"
        }
      ],
      "stateMutability": "view",
      "type": "function"
    },
    {
      "inputs": [
        {
          "internalType": "address",
          "name": "",
          "type": "address"
        }
      ],
      "name": "_contractWhitelist",
      "outputs": [
        {
          "internalType": "bool",
          "name": "",
          "type": "bool"
        }
      ],
      "stateMutability": "view",
      "type": "function"
    },
    {
      "inputs": [
        {
          "internalType": "bytes32",
          "name": "",
          "type": "bytes32"
        }
      ],
      "name": "_resourceIDToTokenContractAddress",
      "outputs": [
        {
          "internalType": "address",
          "name": "",
          "type": "address"
        }
      ],
      "stateMutability": "view",
      "type": "function"
    },
    {
      "inputs": [
        {
          "internalType": "address",
          "name": "",
          "type": "address"
        }
      ],
      "name": "_tokenContractAddressToResourceID",
      "outputs": [
        {
          "internalType": "bytes32",
          "name": "",
          "type": "bytes32"
        }
      ],
      "stateMutability": "view",
      "type": "function"
    },
    {
      "inputs": [
        {
          "internalType": "bytes32",
          "name": "",
          "type": "bytes32"
        },
        {
          "internalType": "bytes",
          "name": "",
          "type": "bytes"
        }
      ],
      "name": "executeProposal",
      "outputs": [],
      "stateMutability": "view",
      "type": "function"
    },
    {
      "inputs": [
        {
          "internalType": "address",
          "name": "",
          "type": "address"
        }
      ],
      "name": "isWtoken",
      "outputs": [
        {
          "internalType": "bool",
          "name": "",
          "type": "bool"
        }
      ],
      "stateMutability": "view",
      "type": "function"
    },
    {
      "inputs": [
        {
          "internalType": "address",
          "name": "contractAddress",
          "type": "address"
        }
      ],
      "name": "setBurnable",
      "outputs": [],
      "stateMutability": "nonpayable",
      "type": "function"
    },
    {
      "inputs": [
        {
          "internalType": "bytes32",
          "name": "resourceID",
          "type": "bytes32"
        },
        {
          "internalType": "address",
          "name": "contractAddress",
          "type": "address"
        }
      ],
      "name": "setResource",
      "outputs": [],
      "stateMutability": "nonpayable",
      "type": "function"
    },
    {
      "inputs": [
        {
          "internalType": "address",
          "name": "wtokenAddress",
          "type": "address"
        },
        {
          "internalType": "bool",
          "name": "_isWtoken",
          "type": "bool"
        }
      ],
      "name": "setWtoken",
      "outputs": [],
      "stateMutability": "nonpayable",
      "type": "function"
    },
    {
      "inputs": [
        {
          "internalType": "uint256",
          "name": "amount",
          "type": "uint256"
        }
      ],
      "name": "virtualIncreaseBalance",
      "outputs": [],
      "stateMutability": "nonpayable",
      "type": "function"
    },
    {
      "inputs": [
        {
          "internalType": "bytes",
          "name": "data",
          "type": "bytes"
        }
      ],
      "name": "withdraw",
      "outputs": [],
      "stateMutability": "nonpayable",
      "type": "function"
    },
    {
      "inputs": [
        {
          "internalType": "bytes",
          "name": "data",
          "type": "bytes"
        }
      ],
      "name": "withdrawETH",
      "outputs": [],
      "stateMutability": "nonpayable",
      "type": "function"
    }
  ],
  "bytecode": "0x60a060405234801561001057600080fd5b5060405161072138038061072183398101604081905261002f91610040565b6001600160a01b0316608052610070565b60006020828403121561005257600080fd5b81516001600160a01b038116811461006957600080fd5b9392505050565b60805161068f6100926000396000818161018b0152610350015261068f6000f3fe608060405234801561001057600080fd5b50600436106100cf5760003560e01c80636a70d0811161008c578063b8fa373611610066578063b8fa3736146101f3578063c238eea114610206578063c8ba6c8714610219578063e248cff21461024757600080fd5b80636a70d081146101ad5780637f79bea8146101d0578063ab5c7bf11461012157600080fd5b8063045dff97146100d457806307b7ed991461010c5780630968f264146101215780630a6d55d8146101325780632129da1914610173578063318c136e14610186575b600080fd5b6100f76100e2366004610473565b60046020526000908152604090205460ff1681565b60405190151581526020015b60405180910390f35b61011f61011a366004610473565b61025a565b005b61011f61012f3660046104ab565b50565b61015b61014036600461055c565b6000602081905290815260409020546001600160a01b031681565b6040516001600160a01b039091168152602001610103565b61011f610181366004610575565b61026b565b61015b7f000000000000000000000000000000000000000000000000000000000000000081565b6100f76101bb366004610473565b60036020526000908152604090205460ff1681565b6100f76101de366004610473565b60026020526000908152604090205460ff1681565b61011f6102013660046105b1565b61029e565b61011f61021436600461055c565b600555565b610239610227366004610473565b60016020526000908152604090205481565b604051908152602001610103565b61011f6102553660046105dd565b6102f3565b610262610345565b61012f816103bf565b610273610345565b6001600160a01b03919091166000908152600460205260409020805460ff1916911515919091179055565b6102a6610345565b60008281526020818152604080832080546001600160a01b0319166001600160a01b039590951694851790559282526001808252838320949094556002905220805460ff19169091179055565b6005546103405760405162461bcd60e51b815260206004820152601660248201527514dbdb595d1a1a5b99c8189859081a185c1c195b995960521b60448201526064015b60405180910390fd5b505050565b336001600160a01b037f000000000000000000000000000000000000000000000000000000000000000016146103bd5760405162461bcd60e51b815260206004820152601e60248201527f73656e646572206d7573742062652062726964676520636f6e747261637400006044820152606401610337565b565b6001600160a01b03811660009081526002602052604090205460ff166104335760405162461bcd60e51b8152602060048201526024808201527f70726f766964656420636f6e7472616374206973206e6f742077686974656c696044820152631cdd195960e21b6064820152608401610337565b6001600160a01b03166000908152600360205260409020805460ff19166001179055565b80356001600160a01b038116811461046e57600080fd5b919050565b60006020828403121561048557600080fd5b61048e82610457565b9392505050565b634e487b7160e01b600052604160045260246000fd5b6000602082840312156104bd57600080fd5b813567ffffffffffffffff808211156104d557600080fd5b818401915084601f8301126104e957600080fd5b8135818111156104fb576104fb610495565b604051601f8201601f19908116603f0116810190838211818310171561052357610523610495565b8160405282815287602084870101111561053c57600080fd5b826020860160208301376000928101602001929092525095945050505050565b60006020828403121561056e57600080fd5b5035919050565b6000806040838503121561058857600080fd5b61059183610457565b9150602083013580151581146105a657600080fd5b809150509250929050565b600080604083850312156105c457600080fd5b823591506105d460208401610457565b90509250929050565b6000806000604084860312156105f257600080fd5b83359250602084013567ffffffffffffffff8082111561061157600080fd5b818601915086601f83011261062557600080fd5b81358181111561063457600080fd5b87602082850101111561064657600080fd5b602083019450809350505050925092509256fea264697066735822122084ae77b21f7ce79e6fdedb5390d58a9343d3f0245c6dd2ba140e6abc5b5cf46164736f6c634300080b0033",
  "linkReferences": {},
  "deployedLinkReferences": {}
}