{
  "_format": "hh-sol-artifact-1",
  "contractName": "HandlerRevert",
  "sourceName": "contracts/TestContracts.sol",
  "abi": [
    {
      "inputs": [
        {
          "internalType": "address",
          "name": "bridgeAddress",
          "type": "address"
        }
      ],
      "stateMutability": "nonpayable",
      "type": "constructor"
    },
    {
      "inputs": [],
      "name": "_bridgeAddress",
      "outputs": [
        {
          "internalType": "address",
          "name": "",
          "type": "address"
        }
      ],
      "stateMutability": "view",
      "type": "function"
    },
    {
      "inputs": [
        {
          "internalType": "address",
          "name": "",
          "type": "address"
        }
      ],
      "name": "_burnList",
      "outputs": [
        {
          "internalType": "bool",
          "name": "",
          "type": "bool"
        }
      ],
      "stateMutability": "view",
      "type": "function"
    },
    {
      "inputs": [
        {
          "internalType": "address",
          "name": "",
          "type": "address"
        }
      ],
      "name": "_contractWhitelist",
      "outputs": [
        {
          "internalType": "bool",
          "name": "",
          "type": "bool"
        }
      ],
      "stateMutability": "view",
      "type": "function"
    },
    {
      "inputs": [
        {
          "internalType": "bytes32",
          "name": "",
          "type": "bytes32"
        }
      ],
      "name": "_resourceIDToTokenContractAddress",
      "outputs": [
        {
          "internalType": "address",
          "name": "",
          "type": "address"
        }
      ],
      "stateMutability": "view",
      "type": "function"
    },
    {
      "inputs": [
        {
          "internalType": "address",
          "name": "",
          "type": "address"
        }
      ],
      "name": "_tokenContractAddressToResourceID",
      "outputs": [
        {
          "internalType": "bytes32",
          "name": "",
          "type": "bytes32"
        }
      ],
      "stateMutability": "view",
      "type": "function"
    },
    {
      "inputs": [
        {
          "internalType": "bytes32",
          "name": "",
          "type": "bytes32"
        },
        {
          "internalType": "bytes",
          "name": "",
          "type": "bytes"
        }
      ],
      "name": "executeProposal",
      "outputs": [],
      "stateMutability": "view",
      "type": "function"
    },
    {
      "inputs": [
        {
          "internalType": "address",
          "name": "",
          "type": "address"
        }
      ],
      "name": "isNative",
      "outputs": [
        {
          "internalType": "bool",
          "name": "",
          "type": "bool"
        }
      ],
      "stateMutability": "view",
      "type": "function"
    },
    {
      "inputs": [
        {
          "internalType": "bytes32",
          "name": "resourceID",
          "type": "bytes32"
        },
        {
          "internalType": "address",
          "name": "contractAddress",
          "type": "address"
        }
      ],
      "name": "removeResource",
      "outputs": [],
      "stateMutability": "nonpayable",
      "type": "function"
    },
    {
      "inputs": [
        {
          "internalType": "address",
          "name": "contractAddress",
          "type": "address"
        }
      ],
      "name": "setBurnable",
      "outputs": [],
      "stateMutability": "nonpayable",
      "type": "function"
    },
    {
      "inputs": [
        {
          "internalType": "address",
          "name": "nativeAddress",
          "type": "address"
        },
        {
          "internalType": "bool",
          "name": "_isNative",
          "type": "bool"
        }
      ],
      "name": "setNative",
      "outputs": [],
      "stateMutability": "nonpayable",
      "type": "function"
    },
    {
      "inputs": [
        {
          "internalType": "bytes32",
          "name": "resourceID",
          "type": "bytes32"
        },
        {
          "internalType": "address",
          "name": "contractAddress",
          "type": "address"
        }
      ],
      "name": "setResource",
      "outputs": [],
      "stateMutability": "nonpayable",
      "type": "function"
    },
    {
      "inputs": [
        {
          "internalType": "uint256",
          "name": "amount",
          "type": "uint256"
        }
      ],
      "name": "virtualIncreaseBalance",
      "outputs": [],
      "stateMutability": "nonpayable",
      "type": "function"
    },
    {
      "inputs": [
        {
          "internalType": "bytes",
          "name": "data",
          "type": "bytes"
        }
      ],
      "name": "withdraw",
      "outputs": [],
      "stateMutability": "nonpayable",
      "type": "function"
    },
    {
      "inputs": [
        {
          "internalType": "bytes",
          "name": "data",
          "type": "bytes"
        }
      ],
      "name": "withdrawETH",
      "outputs": [],
      "stateMutability": "nonpayable",
      "type": "function"
    }
  ],
  "bytecode": "0x60a060405234801561001057600080fd5b5060405161079c38038061079c83398101604081905261002f91610040565b6001600160a01b0316608052610070565b60006020828403121561005257600080fd5b81516001600160a01b038116811461006957600080fd5b9392505050565b60805161070a6100926000396000818161016001526103cb015261070a6000f3fe608060405234801561001057600080fd5b50600436106100ea5760003560e01c8063a98157511161008c578063b8fa373611610066578063b8fa373614610221578063c238eea114610234578063c8ba6c8714610247578063e248cff21461027557600080fd5b8063a9815751146101eb578063ab5c7bf114610104578063b2b8b5dd146101fe57600080fd5b8063318c136e116100c8578063318c136e1461015b5780636a70d08114610182578063789d7711146101b55780637f79bea8146101c857600080fd5b806307b7ed99146100ef5780630968f264146101045780630a6d55d814610115575b600080fd5b6101026100fd3660046104ee565b610288565b005b610102610112366004610526565b50565b61013e6101233660046105d7565b6000602081905290815260409020546001600160a01b031681565b6040516001600160a01b0390911681526020015b60405180910390f35b61013e7f000000000000000000000000000000000000000000000000000000000000000081565b6101a56101903660046104ee565b60036020526000908152604090205460ff1681565b6040519015158152602001610152565b6101026101c33660046105f0565b610299565b6101a56101d63660046104ee565b60026020526000908152604090205460ff1681565b6101026101f936600461062c565b6102cc565b6101a561020c3660046104ee565b60046020526000908152604090205460ff1681565b61010261022f36600461062c565b610319565b6101026102423660046105d7565b600555565b6102676102553660046104ee565b60016020526000908152604090205481565b604051908152602001610152565b610102610283366004610658565b61036e565b6102906103c0565b6101128161043a565b6102a16103c0565b6001600160a01b03919091166000908152600460205260409020805460ff1916911515919091179055565b6102d46103c0565b60009182526020828152604080842080546001600160a01b03191690556001600160a01b0392909216835260018152818320839055600290529020805460ff19169055565b6103216103c0565b60008281526020818152604080832080546001600160a01b0319166001600160a01b039590951694851790559282526001808252838320949094556002905220805460ff19169091179055565b6005546103bb5760405162461bcd60e51b815260206004820152601660248201527514dbdb595d1a1a5b99c8189859081a185c1c195b995960521b60448201526064015b60405180910390fd5b505050565b336001600160a01b037f000000000000000000000000000000000000000000000000000000000000000016146104385760405162461bcd60e51b815260206004820152601e60248201527f73656e646572206d7573742062652062726964676520636f6e7472616374000060448201526064016103b2565b565b6001600160a01b03811660009081526002602052604090205460ff166104ae5760405162461bcd60e51b8152602060048201526024808201527f70726f766964656420636f6e7472616374206973206e6f742077686974656c696044820152631cdd195960e21b60648201526084016103b2565b6001600160a01b03166000908152600360205260409020805460ff19166001179055565b80356001600160a01b03811681146104e957600080fd5b919050565b60006020828403121561050057600080fd5b610509826104d2565b9392505050565b634e487b7160e01b600052604160045260246000fd5b60006020828403121561053857600080fd5b813567ffffffffffffffff8082111561055057600080fd5b818401915084601f83011261056457600080fd5b81358181111561057657610576610510565b604051601f8201601f19908116603f0116810190838211818310171561059e5761059e610510565b816040528281528760208487010111156105b757600080fd5b826020860160208301376000928101602001929092525095945050505050565b6000602082840312156105e957600080fd5b5035919050565b6000806040838503121561060357600080fd5b61060c836104d2565b91506020830135801515811461062157600080fd5b809150509250929050565b6000806040838503121561063f57600080fd5b8235915061064f602084016104d2565b90509250929050565b60008060006040848603121561066d57600080fd5b83359250602084013567ffffffffffffffff8082111561068c57600080fd5b818601915086601f8301126106a057600080fd5b8135818111156106af57600080fd5b8760208285010111156106c157600080fd5b602083019450809350505050925092509256fea264697066735822122099d06e73db89d345a60dca75a45cea299f349931d6ee5f20f27841b06181ac0f64736f6c634300080b0033",
  "linkReferences": {},
  "deployedLinkReferences": {}
}