{
  "_format": "hh-sol-artifact-1",
  "contractName": "NoArgument",
  "sourceName": "contracts/TestContracts.sol",
  "abi": [
    {
      "anonymous": false,
      "inputs": [],
      "name": "NoArgumentCalled",
      "type": "event"
    },
    {
      "inputs": [],
      "name": "noArgument",
      "outputs": [],
      "stateMutability": "nonpayable",
      "type": "function"
    }
  ],
  "bytecode": "0x6080604052348015600f57600080fd5b5060968061001e6000396000f3fe6080604052348015600f57600080fd5b506004361060285760003560e01c8063568959ca14602d575b600080fd5b60336035565b005b6040517fc582abe1670c5a7f7cad8f171e4af03c793dd9f59fee6714179f56b6e9aea26f90600090a156fea26469706673582212201a28a3a6f68a1323381301bb2a7bebd45bdad7ac548f74d9074a6f9a2279e9f764736f6c634300080b0033",
  "linkReferences": {},
  "deployedLinkReferences": {}
}