{
  "_format": "hh-sol-artifact-1",
  "contractName": "OneArgument",
  "sourceName": "contracts/TestContracts.sol",
  "abi": [
    {
      "anonymous": false,
      "inputs": [
        {
          "indexed": true,
          "internalType": "uint256",
          "name": "argumentOne",
          "type": "uint256"
        }
      ],
      "name": "OneArgumentCalled",
      "type": "event"
    },
    {
      "inputs": [
        {
          "internalType": "uint256",
          "name": "argumentOne",
          "type": "uint256"
        }
      ],
      "name": "oneArgument",
      "outputs": [],
      "stateMutability": "nonpayable",
      "type": "function"
    }
  ],
  "bytecode": "0x608060405234801561001057600080fd5b5060ba8061001f6000396000f3fe6080604052348015600f57600080fd5b506004361060285760003560e01c8063c95cf0d814602d575b600080fd5b603c6038366004606c565b603e565b005b60405181907f29ab08c845830c69b55a1fba5c95718f65dc24361a471e3da14cd5ff2b37315990600090a250565b600060208284031215607d57600080fd5b503591905056fea2646970667358221220f7fa066d346623f1bfae89ed76e04434ea958b11ab18f90b9d539fdbe9795f0564736f6c634300080b0033",
  "linkReferences": {},
  "deployedLinkReferences": {}
}