{
  "_format": "hh-sol-artifact-1",
  "contractName": "WithDepositor",
  "sourceName": "contracts/TestContracts.sol",
  "abi": [
    {
      "anonymous": false,
      "inputs": [
        {
          "indexed": false,
          "internalType": "address",
          "name": "argumentOne",
          "type": "address"
        },
        {
          "indexed": false,
          "internalType": "uint256",
          "name": "argumentTwo",
          "type": "uint256"
        }
      ],
      "name": "WithDepositorCalled",
      "type": "event"
    },
    {
      "inputs": [
        {
          "internalType": "address",
          "name": "argumentOne",
          "type": "address"
        },
        {
          "internalType": "uint256",
          "name": "argumentTwo",
          "type": "uint256"
        }
      ],
      "name": "withDepositor",
      "outputs": [],
      "stateMutability": "nonpayable",
      "type": "function"
    }
  ],
  "bytecode": "0x608060405234801561001057600080fd5b5060f08061001f6000396000f3fe6080604052348015600f57600080fd5b506004361060285760003560e01c8063244c2d9f14602d575b600080fd5b603c60383660046084565b603e565b005b604080516001600160a01b0384168152602081018390527fe671660ec73e1a876b538ddb8bddcb62ce9791b3ff847a6121973424e99e4d29910160405180910390a15050565b60008060408385031215609657600080fd5b82356001600160a01b038116811460ac57600080fd5b94602093909301359350505056fea264697066735822122098df3b500c85704b1008003f4e11faabb1b63bb64163937bed80a881eda2be4364736f6c634300080b0033",
  "linkReferences": {},
  "deployedLinkReferences": {}
}