{
  "_format": "hh-sol-artifact-1",
  "contractName": "WithDepositer",
  "sourceName": "contracts/TestContracts.sol",
  "abi": [
    {
      "anonymous": false,
      "inputs": [
        {
          "indexed": false,
          "internalType": "address",
          "name": "argumentOne",
          "type": "address"
        },
        {
          "indexed": false,
          "internalType": "uint256",
          "name": "argumentTwo",
          "type": "uint256"
        }
      ],
      "name": "WithDepositerCalled",
      "type": "event"
    },
    {
      "inputs": [
        {
          "internalType": "address",
          "name": "argumentOne",
          "type": "address"
        },
        {
          "internalType": "uint256",
          "name": "argumentTwo",
          "type": "uint256"
        }
      ],
      "name": "withDepositer",
      "outputs": [],
      "stateMutability": "nonpayable",
      "type": "function"
    }
  ],
  "bytecode": "0x608060405234801561001057600080fd5b5060f08061001f6000396000f3fe6080604052348015600f57600080fd5b506004361060285760003560e01c80630a357c4f14602d575b600080fd5b603c60383660046084565b603e565b005b604080516001600160a01b0384168152602081018390527f0c190bb7953fe744192f379d4b36b025584bb5f386755d164648a99b8ff9e5bb910160405180910390a15050565b60008060408385031215609657600080fd5b82356001600160a01b038116811460ac57600080fd5b94602093909301359350505056fea264697066735822122030e218c35bd5b10689411d2815ab84616a303eee40eeee040d5d4bd9338d81eb64736f6c634300080b0033",
  "linkReferences": {},
  "deployedLinkReferences": {}
}