{
  "_format": "hh-sol-artifact-1",
  "contractName": "TransparentUpgradeableProxy",
  "sourceName": "contracts/proxy/TransparentUpgradeableProxy.sol",
  "abi": [
    {
      "inputs": [
        {
          "internalType": "address",
          "name": "_logic",
          "type": "address"
        },
        {
          "internalType": "address",
          "name": "admin_",
          "type": "address"
        },
        {
          "internalType": "bytes",
          "name": "_data",
          "type": "bytes"
        }
      ],
      "stateMutability": "payable",
      "type": "constructor"
    },
    {
      "anonymous": false,
      "inputs": [
        {
          "indexed": false,
          "internalType": "address",
          "name": "previousAdmin",
          "type": "address"
        },
        {
          "indexed": false,
          "internalType": "address",
          "name": "newAdmin",
          "type": "address"
        }
      ],
      "name": "AdminChanged",
      "type": "event"
    },
    {
      "anonymous": false,
      "inputs": [
        {
          "indexed": true,
          "internalType": "address",
          "name": "beacon",
          "type": "address"
        }
      ],
      "name": "BeaconUpgraded",
      "type": "event"
    },
    {
      "anonymous": false,
      "inputs": [
        {
          "indexed": true,
          "internalType": "address",
          "name": "implementation",
          "type": "address"
        }
      ],
      "name": "Upgraded",
      "type": "event"
    },
    {
      "stateMutability": "payable",
      "type": "fallback"
    },
    {
      "inputs": [],
      "name": "_admin",
      "outputs": [
        {
          "internalType": "address",
          "name": "",
          "type": "address"
        }
      ],
      "stateMutability": "view",
      "type": "function"
    },
    {
      "inputs": [],
      "name": "_implementation",
      "outputs": [
        {
          "internalType": "address",
          "name": "impl",
          "type": "address"
        }
      ],
      "stateMutability": "view",
      "type": "function"
    },
    {
      "inputs": [],
      "name": "admin",
      "outputs": [
        {
          "internalType": "address",
          "name": "admin_",
          "type": "address"
        }
      ],
      "stateMutability": "nonpayable",
      "type": "function"
    },
    {
      "inputs": [
        {
          "internalType": "address",
          "name": "newAdmin",
          "type": "address"
        }
      ],
      "name": "changeAdmin",
      "outputs": [],
      "stateMutability": "nonpayable",
      "type": "function"
    },
    {
      "inputs": [],
      "name": "implementation",
      "outputs": [
        {
          "internalType": "address",
          "name": "implementation_",
          "type": "address"
        }
      ],
      "stateMutability": "nonpayable",
      "type": "function"
    },
    {
      "inputs": [
        {
          "internalType": "address",
          "name": "newImplementation",
          "type": "address"
        }
      ],
      "name": "upgradeTo",
      "outputs": [],
      "stateMutability": "nonpayable",
      "type": "function"
    },
    {
      "inputs": [
        {
          "internalType": "address",
          "name": "newImplementation",
          "type": "address"
        },
        {
          "internalType": "bytes",
          "name": "data",
          "type": "bytes"
        }
      ],
      "name": "upgradeToAndCall",
      "outputs": [],
      "stateMutability": "payable",
      "type": "function"
    },
    {
      "stateMutability": "payable",
      "type": "receive"
    }
  ],
  "bytecode": "0x608060405260405162000f9338038062000f93833981016040819052620000269162000507565b82816200005560017f360894a13ba1a3210667c828492db98dca3e2076cc3735a920a3ca505d382bbd620005e7565b60008051602062000f4c833981519152146200007557620000756200060d565b6200008382826000620000e7565b50620000b3905060017fb53127684a568b3173ae13b9f8a6016e243e63b6e8ee1178d6a717850b5d6104620005e7565b60008051602062000f2c83398151915214620000d357620000d36200060d565b620000de8262000124565b50505062000676565b620000f2836200017f565b600082511180620001005750805b156200011f576200011d8383620001c160201b620002c41760201c565b505b505050565b7f7e644d79422f17c01e4894b5f4f588d331ebfa28653d42ae832dc59e38c9798f6200014f620001f0565b604080516001600160a01b03928316815291841660208301520160405180910390a16200017c8162000229565b50565b6200018a81620002de565b6040516001600160a01b038216907fbc7cd75a20ee27fd9adebab32041f755214dbc6bffa90cc0225b39da2e5c2d3b90600090a250565b6060620001e9838360405180606001604052806027815260200162000f6c6027913962000381565b9392505050565b60006200021a60008051602062000f2c83398151915260001b6200045e60201b6200026c1760201c565b546001600160a01b0316919050565b6001600160a01b038116620002945760405162461bcd60e51b815260206004820152602660248201527f455243313936373a206e65772061646d696e20697320746865207a65726f206160448201526564647265737360d01b60648201526084015b60405180910390fd5b80620002bd60008051602062000f2c83398151915260001b6200045e60201b6200026c1760201c565b80546001600160a01b0319166001600160a01b039290921691909117905550565b620002f4816200046160201b620002f01760201c565b620003585760405162461bcd60e51b815260206004820152602d60248201527f455243313936373a206e657720696d706c656d656e746174696f6e206973206e60448201526c1bdd08184818dbdb9d1c9858dd609a1b60648201526084016200028b565b80620002bd60008051602062000f4c83398151915260001b6200045e60201b6200026c1760201c565b6060833b620003e25760405162461bcd60e51b815260206004820152602660248201527f416464726573733a2064656c65676174652063616c6c20746f206e6f6e2d636f6044820152651b9d1c9858dd60d21b60648201526084016200028b565b600080856001600160a01b031685604051620003ff919062000623565b600060405180830381855af49150503d80600081146200043c576040519150601f19603f3d011682016040523d82523d6000602084013e62000441565b606091505b5090925090506200045482828662000467565b9695505050505050565b90565b3b151590565b6060831562000478575081620001e9565b825115620004895782518084602001fd5b8160405162461bcd60e51b81526004016200028b919062000641565b80516001600160a01b0381168114620004bd57600080fd5b919050565b634e487b7160e01b600052604160045260246000fd5b60005b83811015620004f5578181015183820152602001620004db565b838111156200011d5750506000910152565b6000806000606084860312156200051d57600080fd5b6200052884620004a5565b92506200053860208501620004a5565b60408501519092506001600160401b03808211156200055657600080fd5b818601915086601f8301126200056b57600080fd5b815181811115620005805762000580620004c2565b604051601f8201601f19908116603f01168101908382118183101715620005ab57620005ab620004c2565b81604052828152896020848701011115620005c557600080fd5b620005d8836020830160208801620004d8565b80955050505050509250925092565b6000828210156200060857634e487b7160e01b600052601160045260246000fd5b500390565b634e487b7160e01b600052600160045260246000fd5b6000825162000637818460208701620004d8565b9190910192915050565b602081526000825180602084015262000662816040850160208701620004d8565b601f01601f19169190910160400192915050565b6108a680620006866000396000f3fe6080604052600436106100745760003560e01c806359679b0f1161004e57806359679b0f146100ef5780635c60da1b146101045780638f28397014610119578063f851a4401461013957610083565b806301bc45c91461008b5780633659cfe6146100bc5780634f1ef286146100dc57610083565b366100835761008161014e565b005b61008161014e565b34801561009757600080fd5b506100a0610168565b6040516001600160a01b03909116815260200160405180910390f35b3480156100c857600080fd5b506100816100d7366004610730565b610177565b6100816100ea36600461074b565b6101be565b3480156100fb57600080fd5b506100a061022f565b34801561011057600080fd5b506100a0610239565b34801561012557600080fd5b50610081610134366004610730565b61026f565b34801561014557600080fd5b506100a0610299565b6101566102f6565b61016661016161022f565b610395565b565b60006101726103b9565b905090565b61017f6103b9565b6001600160a01b0316336001600160a01b031614156101b6576101b3816040518060200160405280600081525060006103ec565b50565b6101b361014e565b6101c66103b9565b6001600160a01b0316336001600160a01b03161415610227576102228383838080601f016020809104026020016040519081016040528093929190818152602001838380828437600092019190915250600192506103ec915050565b505050565b61022261014e565b6000610172610417565b60006102436103b9565b6001600160a01b0316336001600160a01b031614156102645761017261022f565b61026c61014e565b90565b6102776103b9565b6001600160a01b0316336001600160a01b031614156101b6576101b38161043f565b60006102a36103b9565b6001600160a01b0316336001600160a01b03161415610264576101726103b9565b60606102e9838360405180606001604052806027815260200161084a60279139610493565b9392505050565b3b151590565b6102fe6103b9565b6001600160a01b0316336001600160a01b031614156101665760405162461bcd60e51b815260206004820152604260248201527f5472616e73706172656e745570677261646561626c6550726f78793a2061646d60448201527f696e2063616e6e6f742066616c6c6261636b20746f2070726f78792074617267606482015261195d60f21b608482015260a4015b60405180910390fd5b3660008037600080366000845af43d6000803e8080156103b4573d6000f35b3d6000fd5b60007fb53127684a568b3173ae13b9f8a6016e243e63b6e8ee1178d6a717850b5d61035b546001600160a01b0316919050565b6103f583610567565b6000825111806104025750805b156102225761041183836102c4565b50505050565b60007f360894a13ba1a3210667c828492db98dca3e2076cc3735a920a3ca505d382bbc6103dd565b7f7e644d79422f17c01e4894b5f4f588d331ebfa28653d42ae832dc59e38c9798f6104686103b9565b604080516001600160a01b03928316815291841660208301520160405180910390a16101b3816105a7565b6060833b6104f25760405162461bcd60e51b815260206004820152602660248201527f416464726573733a2064656c65676174652063616c6c20746f206e6f6e2d636f6044820152651b9d1c9858dd60d21b606482015260840161038c565b600080856001600160a01b03168560405161050d91906107fa565b600060405180830381855af49150503d8060008114610548576040519150601f19603f3d011682016040523d82523d6000602084013e61054d565b606091505b509150915061055d828286610650565b9695505050505050565b61057081610689565b6040516001600160a01b038216907fbc7cd75a20ee27fd9adebab32041f755214dbc6bffa90cc0225b39da2e5c2d3b90600090a250565b6001600160a01b03811661060c5760405162461bcd60e51b815260206004820152602660248201527f455243313936373a206e65772061646d696e20697320746865207a65726f206160448201526564647265737360d01b606482015260840161038c565b807fb53127684a568b3173ae13b9f8a6016e243e63b6e8ee1178d6a717850b5d61035b80546001600160a01b0319166001600160a01b039290921691909117905550565b6060831561065f5750816102e9565b82511561066f5782518084602001fd5b8160405162461bcd60e51b815260040161038c9190610816565b803b6106ed5760405162461bcd60e51b815260206004820152602d60248201527f455243313936373a206e657720696d706c656d656e746174696f6e206973206e60448201526c1bdd08184818dbdb9d1c9858dd609a1b606482015260840161038c565b807f360894a13ba1a3210667c828492db98dca3e2076cc3735a920a3ca505d382bbc61062f565b80356001600160a01b038116811461072b57600080fd5b919050565b60006020828403121561074257600080fd5b6102e982610714565b60008060006040848603121561076057600080fd5b61076984610714565b9250602084013567ffffffffffffffff8082111561078657600080fd5b818601915086601f83011261079a57600080fd5b8135818111156107a957600080fd5b8760208285010111156107bb57600080fd5b6020830194508093505050509250925092565b60005b838110156107e95781810151838201526020016107d1565b838111156104115750506000910152565b6000825161080c8184602087016107ce565b9190910192915050565b60208152600082518060208401526108358160408501602087016107ce565b601f01601f1916919091016040019291505056fe416464726573733a206c6f772d6c6576656c2064656c65676174652063616c6c206661696c6564a26469706673582212200feed045ad61cd00600049acd9c8ccbbe4bcd37e9628fdc0f76cbd4d3af363d864736f6c634300080b0033b53127684a568b3173ae13b9f8a6016e243e63b6e8ee1178d6a717850b5d6103360894a13ba1a3210667c828492db98dca3e2076cc3735a920a3ca505d382bbc416464726573733a206c6f772d6c6576656c2064656c65676174652063616c6c206661696c6564",
  "linkReferences": {},
  "deployedLinkReferences": {}
}