{
  "_format": "hh-sol-artifact-1",
  "contractName": "FeeHandlerWithOracle",
  "sourceName": "contracts/handlers/fee/FeeHandlerWithOracle.sol",
  "abi": [
    {
      "inputs": [
        {
          "internalType": "address",
          "name": "bridgeAddress",
          "type": "address"
        }
      ],
      "stateMutability": "nonpayable",
      "type": "constructor"
    },
    {
      "anonymous": false,
      "inputs": [
        {
          "indexed": false,
          "internalType": "address",
          "name": "sender",
          "type": "address"
        },
        {
          "indexed": false,
          "internalType": "uint8",
          "name": "fromDomainID",
          "type": "uint8"
        },
        {
          "indexed": false,
          "internalType": "uint8",
          "name": "destinationDomainID",
          "type": "uint8"
        },
        {
          "indexed": false,
          "internalType": "bytes32",
          "name": "resourceID",
          "type": "bytes32"
        },
        {
          "indexed": false,
          "internalType": "uint256",
          "name": "fee",
          "type": "uint256"
        },
        {
          "indexed": false,
          "internalType": "address",
          "name": "tokenAddress",
          "type": "address"
        }
      ],
      "name": "FeeCollected",
      "type": "event"
    },
    {
      "anonymous": false,
      "inputs": [
        {
          "indexed": false,
          "internalType": "address",
          "name": "tokenAddress",
          "type": "address"
        },
        {
          "indexed": false,
          "internalType": "address",
          "name": "recipient",
          "type": "address"
        },
        {
          "indexed": false,
          "internalType": "uint256",
          "name": "amount",
          "type": "uint256"
        }
      ],
      "name": "FeeDistributed",
      "type": "event"
    },
    {
      "anonymous": false,
      "inputs": [
        {
          "indexed": true,
          "internalType": "bytes32",
          "name": "role",
          "type": "bytes32"
        },
        {
          "indexed": true,
          "internalType": "address",
          "name": "account",
          "type": "address"
        },
        {
          "indexed": true,
          "internalType": "address",
          "name": "sender",
          "type": "address"
        }
      ],
      "name": "RoleGranted",
      "type": "event"
    },
    {
      "anonymous": false,
      "inputs": [
        {
          "indexed": true,
          "internalType": "bytes32",
          "name": "role",
          "type": "bytes32"
        },
        {
          "indexed": true,
          "internalType": "address",
          "name": "account",
          "type": "address"
        },
        {
          "indexed": true,
          "internalType": "address",
          "name": "sender",
          "type": "address"
        }
      ],
      "name": "RoleRevoked",
      "type": "event"
    },
    {
      "inputs": [],
      "name": "DEFAULT_ADMIN_ROLE",
      "outputs": [
        {
          "internalType": "bytes32",
          "name": "",
          "type": "bytes32"
        }
      ],
      "stateMutability": "view",
      "type": "function"
    },
    {
      "inputs": [],
      "name": "ETHReserve",
      "outputs": [
        {
          "internalType": "uint256",
          "name": "",
          "type": "uint256"
        }
      ],
      "stateMutability": "view",
      "type": "function"
    },
    {
      "inputs": [],
      "name": "_bridgeAddress",
      "outputs": [
        {
          "internalType": "address",
          "name": "",
          "type": "address"
        }
      ],
      "stateMutability": "view",
      "type": "function"
    },
    {
      "inputs": [],
      "name": "_fee",
      "outputs": [
        {
          "internalType": "uint256",
          "name": "",
          "type": "uint256"
        }
      ],
      "stateMutability": "view",
      "type": "function"
    },
    {
      "inputs": [],
      "name": "_feePercent",
      "outputs": [
        {
          "internalType": "uint16",
          "name": "",
          "type": "uint16"
        }
      ],
      "stateMutability": "view",
      "type": "function"
    },
    {
      "inputs": [],
      "name": "_gasUsed",
      "outputs": [
        {
          "internalType": "uint32",
          "name": "",
          "type": "uint32"
        }
      ],
      "stateMutability": "view",
      "type": "function"
    },
    {
      "inputs": [],
      "name": "_oracleAddress",
      "outputs": [
        {
          "internalType": "address",
          "name": "",
          "type": "address"
        }
      ],
      "stateMutability": "view",
      "type": "function"
    },
    {
      "inputs": [
        {
          "internalType": "address",
          "name": "sender",
          "type": "address"
        },
        {
          "internalType": "uint8",
          "name": "fromDomainID",
          "type": "uint8"
        },
        {
          "internalType": "uint8",
          "name": "destinationDomainID",
          "type": "uint8"
        },
        {
          "internalType": "bytes32",
          "name": "resourceID",
          "type": "bytes32"
        },
        {
          "internalType": "bytes",
          "name": "depositData",
          "type": "bytes"
        },
        {
          "internalType": "bytes",
          "name": "feeData",
          "type": "bytes"
        }
      ],
      "name": "calculateFee",
      "outputs": [
        {
          "internalType": "uint256",
          "name": "fee",
          "type": "uint256"
        },
        {
          "internalType": "address",
          "name": "tokenAddress",
          "type": "address"
        }
      ],
      "stateMutability": "view",
      "type": "function"
    },
    {
      "inputs": [
        {
          "internalType": "address",
          "name": "sender",
          "type": "address"
        },
        {
          "internalType": "uint8",
          "name": "fromDomainID",
          "type": "uint8"
        },
        {
          "internalType": "uint8",
          "name": "destinationDomainID",
          "type": "uint8"
        },
        {
          "internalType": "bytes32",
          "name": "resourceID",
          "type": "bytes32"
        },
        {
          "internalType": "bytes",
          "name": "depositData",
          "type": "bytes"
        },
        {
          "internalType": "bytes",
          "name": "feeData",
          "type": "bytes"
        }
      ],
      "name": "collectFee",
      "outputs": [],
      "stateMutability": "payable",
      "type": "function"
    },
    {
      "inputs": [
        {
          "internalType": "bytes32",
          "name": "role",
          "type": "bytes32"
        }
      ],
      "name": "getRoleAdmin",
      "outputs": [
        {
          "internalType": "bytes32",
          "name": "",
          "type": "bytes32"
        }
      ],
      "stateMutability": "view",
      "type": "function"
    },
    {
      "inputs": [
        {
          "internalType": "bytes32",
          "name": "role",
          "type": "bytes32"
        },
        {
          "internalType": "uint256",
          "name": "index",
          "type": "uint256"
        }
      ],
      "name": "getRoleMember",
      "outputs": [
        {
          "internalType": "address",
          "name": "",
          "type": "address"
        }
      ],
      "stateMutability": "view",
      "type": "function"
    },
    {
      "inputs": [
        {
          "internalType": "bytes32",
          "name": "role",
          "type": "bytes32"
        }
      ],
      "name": "getRoleMemberCount",
      "outputs": [
        {
          "internalType": "uint256",
          "name": "",
          "type": "uint256"
        }
      ],
      "stateMutability": "view",
      "type": "function"
    },
    {
      "inputs": [
        {
          "internalType": "bytes32",
          "name": "role",
          "type": "bytes32"
        },
        {
          "internalType": "address",
          "name": "account",
          "type": "address"
        }
      ],
      "name": "getRoleMemberIndex",
      "outputs": [
        {
          "internalType": "uint256",
          "name": "",
          "type": "uint256"
        }
      ],
      "stateMutability": "view",
      "type": "function"
    },
    {
      "inputs": [
        {
          "internalType": "bytes32",
          "name": "role",
          "type": "bytes32"
        },
        {
          "internalType": "address",
          "name": "account",
          "type": "address"
        }
      ],
      "name": "grantRole",
      "outputs": [],
      "stateMutability": "nonpayable",
      "type": "function"
    },
    {
      "inputs": [
        {
          "internalType": "bytes32",
          "name": "role",
          "type": "bytes32"
        },
        {
          "internalType": "address",
          "name": "account",
          "type": "address"
        }
      ],
      "name": "hasRole",
      "outputs": [
        {
          "internalType": "bool",
          "name": "",
          "type": "bool"
        }
      ],
      "stateMutability": "view",
      "type": "function"
    },
    {
      "inputs": [
        {
          "internalType": "address",
          "name": "newAdmin",
          "type": "address"
        }
      ],
      "name": "renounceAdmin",
      "outputs": [],
      "stateMutability": "nonpayable",
      "type": "function"
    },
    {
      "inputs": [
        {
          "internalType": "bytes32",
          "name": "role",
          "type": "bytes32"
        },
        {
          "internalType": "address",
          "name": "account",
          "type": "address"
        }
      ],
      "name": "renounceRole",
      "outputs": [],
      "stateMutability": "nonpayable",
      "type": "function"
    },
    {
      "inputs": [
        {
          "internalType": "bytes32",
          "name": "role",
          "type": "bytes32"
        },
        {
          "internalType": "address",
          "name": "account",
          "type": "address"
        }
      ],
      "name": "revokeRole",
      "outputs": [],
      "stateMutability": "nonpayable",
      "type": "function"
    },
    {
      "inputs": [
        {
          "internalType": "address",
          "name": "oracleAddress",
          "type": "address"
        }
      ],
      "name": "setFeeOracle",
      "outputs": [],
      "stateMutability": "nonpayable",
      "type": "function"
    },
    {
      "inputs": [
        {
          "internalType": "uint32",
          "name": "gasUsed",
          "type": "uint32"
        },
        {
          "internalType": "uint16",
          "name": "feePercent",
          "type": "uint16"
        }
      ],
      "name": "setFeeProperties",
      "outputs": [],
      "stateMutability": "nonpayable",
      "type": "function"
    },
    {
      "inputs": [
        {
          "internalType": "bytes32",
          "name": "resourceID",
          "type": "bytes32"
        },
        {
          "internalType": "address[]",
          "name": "addrs",
          "type": "address[]"
        },
        {
          "internalType": "uint256[]",
          "name": "amounts",
          "type": "uint256[]"
        }
      ],
      "name": "transferFee",
      "outputs": [],
      "stateMutability": "nonpayable",
      "type": "function"
    }
  ],
  "bytecode": "0x60a060405260006003553480156200001657600080fd5b5060405162001e1f38038062001e1f833981016040819052620000399162000143565b6001600160a01b038116608052620000536000336200005a565b5062000175565b6200006682826200006a565b5050565b6000828152602081815260409091206200008f91839062000b0a620000d1821b17901c565b15620000665760405133906001600160a01b0383169084907f2f8788117e7eff1d82e926ec794901d17c78024a50270940304540a733656f0d90600090a45050565b6000620000e8836001600160a01b038416620000f1565b90505b92915050565b60008181526001830160205260408120546200013a57508154600181810184556000848152602080822090930184905584548482528286019093526040902091909155620000eb565b506000620000eb565b6000602082840312156200015657600080fd5b81516001600160a01b03811681146200016e57600080fd5b9392505050565b608051611c79620001a6600039600081816101b90152818161080e01528181610b2a0152610ddf0152611c796000f3fe60806040526004361061012a5760003560e01c806391d14854116100ab578063c5b37c221161006f578063c5b37c221461036e578063ca15c87314610384578063d547741f146103a4578063ddafda46146103c4578063ef4f081f146103da578063fc818cfb1461041757600080fd5b806391d14854146102c9578063a217fddf146102f9578063a8a989621461030e578063bff427551461032e578063c297983f1461034e57600080fd5b80634e0df3f6116100f25780634e0df3f6146102135780635e1fab0f1461023357806369222948146102535780636fb7cb57146102895780639010d07c146102a957600080fd5b8063248a9ca31461012f57806325307065146101725780632f2ff15d14610187578063318c136e146101a757806336568abe146101f3575b600080fd5b34801561013b57600080fd5b5061015f61014a366004611751565b60009081526020819052604090206002015490565b6040519081526020015b60405180910390f35b6101856101803660046117d0565b610449565b005b34801561019357600080fd5b506101856101a2366004611881565b610535565b3480156101b357600080fd5b506101db7f000000000000000000000000000000000000000000000000000000000000000081565b6040516001600160a01b039091168152602001610169565b3480156101ff57600080fd5b5061018561020e366004611881565b6105c3565b34801561021f57600080fd5b5061015f61022e366004611881565b61063d565b34801561023f57600080fd5b5061018561024e3660046118b1565b610668565b34801561025f57600080fd5b5060045461027690640100000000900461ffff1681565b60405161ffff9091168152602001610169565b34801561029557600080fd5b506002546101db906001600160a01b031681565b3480156102b557600080fd5b506101db6102c43660046118ce565b6106ff565b3480156102d557600080fd5b506102e96102e4366004611881565b61071e565b6040519015158152602001610169565b34801561030557600080fd5b5061015f600081565b34801561031a57600080fd5b506101856103293660046118b1565b610736565b34801561033a57600080fd5b50610185610349366004611935565b61077f565b34801561035a57600080fd5b506101856103693660046119af565b6109fa565b34801561037a57600080fd5b5061015f60035481565b34801561039057600080fd5b5061015f61039f366004611751565b610a4e565b3480156103b057600080fd5b506101856103bf366004611881565b610a65565b3480156103d057600080fd5b5061015f60015481565b3480156103e657600080fd5b506103fa6103f53660046117d0565b610ae6565b604080519283526001600160a01b03909116602083015201610169565b34801561042357600080fd5b506004546104349063ffffffff1681565b60405163ffffffff9091168152602001610169565b610451610b1f565b34156104a45760405162461bcd60e51b815260206004820152601a60248201527f636f6c6c6563744665653a206d73672e76616c756520213d203000000000000060448201526064015b60405180910390fd5b6000806104b78a8a8a8a8a8a8a8a610b99565b915091506104c7818b3085610f56565b604080516001600160a01b038c8116825260ff8c811660208401528b1682840152606082018a905260808201859052831660a082015290517fbd231b7fa4103e15e7a238c72f07e8aff310701af121895aa6c793b80245e4339181900360c00190a150505050505050505050565b600082815260208190526040902060020154610551903361071e565b6105b55760405162461bcd60e51b815260206004820152602f60248201527f416363657373436f6e74726f6c3a2073656e646572206d75737420626520616e60448201526e0818591b5a5b881d1bc819dc985b9d608a1b606482015260840161049b565b6105bf8282610f6a565b5050565b6001600160a01b03811633146106335760405162461bcd60e51b815260206004820152602f60248201527f416363657373436f6e74726f6c3a2063616e206f6e6c792072656e6f756e636560448201526e103937b632b9903337b91039b2b63360891b606482015260840161049b565b6105bf8282610fc3565b6000828152602081815260408083206001600160a01b03851684526001019091529020545b92915050565b61067360003361071e565b61068f5760405162461bcd60e51b815260040161049b906119ed565b336001600160a01b0382168114156106e95760405162461bcd60e51b815260206004820152601760248201527f43616e6e6f742072656e6f756e6365206f6e6573656c66000000000000000000604482015260640161049b565b6106f4600083610535565b6105bf6000826105c3565b6000828152602081905260408120610717908361101c565b9392505050565b60008281526020819052604081206107179083611028565b61074160003361071e565b61075d5760405162461bcd60e51b815260040161049b906119ed565b600280546001600160a01b0319166001600160a01b0392909216919091179055565b61078a60003361071e565b6107a65760405162461bcd60e51b815260040161049b906119ed565b8281146107f55760405162461bcd60e51b815260206004820152601f60248201527f61646472735b5d2c20616d6f756e74735b5d3a2064696666206c656e67746800604482015260640161049b565b6040516384db809f60e01b8152600481018690526000907f00000000000000000000000000000000000000000000000000000000000000006001600160a01b0316906384db809f90602401602060405180830381865afa15801561085d573d6000803e3d6000fd5b505050506040513d601f19601f820116820180604052508101906108819190611a24565b60405163014daabb60e31b8152600481018890529091506000906001600160a01b03831690630a6d55d890602401602060405180830381865afa1580156108cc573d6000803e3d6000fd5b505050506040513d601f19601f820116820180604052508101906108f09190611a24565b905060005b858110156109f0576109468288888481811061091357610913611a41565b905060200201602081019061092891906118b1565b87878581811061093a5761093a611a41565b9050602002013561104a565b7faaa40a232aaf133fdd28f3485f6fdd163514cfadbffa981f3610f42398efe34b8288888481811061097a5761097a611a41565b905060200201602081019061098f91906118b1565b8787858181106109a1576109a1611a41565b905060200201356040516109d6939291906001600160a01b039384168152919092166020820152604081019190915260600190565b60405180910390a1806109e881611a6d565b9150506108f5565b5050505050505050565b610a0560003361071e565b610a215760405162461bcd60e51b815260040161049b906119ed565b6004805461ffff9092166401000000000265ffffffffffff1990921663ffffffff90931692909217179055565b60008181526020819052604081206106629061105c565b600082815260208190526040902060020154610a81903361071e565b6106335760405162461bcd60e51b815260206004820152603060248201527f416363657373436f6e74726f6c3a2073656e646572206d75737420626520616e60448201526f2061646d696e20746f207265766f6b6560801b606482015260840161049b565b600080610af98a8a8a8a8a8a8a8a610b99565b915091509850989650505050505050565b6000610717836001600160a01b038416611066565b336001600160a01b037f00000000000000000000000000000000000000000000000000000000000000001614610b975760405162461bcd60e51b815260206004820152601e60248201527f73656e646572206d7573742062652062726964676520636f6e74726163740000604482015260640161049b565b565b6000806101418314610bed5760405162461bcd60e51b815260206004820152601860248201527f496e636f72726563742066656544617461206c656e6774680000000000000000604482015260640161049b565b610c1160405180606001604052806060815260200160608152602001600081525090565b610c1f60e060008688611a88565b8080601f016020809104026020016040519081016040528093929190818152602001838380828437600092019190915250505090825250610c6561012160e08688611a88565b8080601f0160208091040260200160405190810160405280939291908181526020018383808284376000920191909152505050506020820152610cac846101218188611a88565b810190610cb99190611751565b604082015280518051600091610cd791810160209081019101611ac2565b90508060600151421115610d245760405162461bcd60e51b81526020600482015260146024820152734f62736f6c657465206f7261636c65206461746160601b604482015260640161049b565b8a60ff16816080015160ff16148015610d4657508960ff168160a0015160ff16145b8015610d555750888160c00151145b610da15760405162461bcd60e51b815260206004820152601860248201527f496e636f7272656374206465706f73697420706172616d730000000000000000604482015260640161049b565b8151805160209182012090830151600254610dc69183916001600160a01b03166110b5565b6040516384db809f60e01b8152600481018b90526000907f00000000000000000000000000000000000000000000000000000000000000006001600160a01b0316906384db809f90602401602060405180830381865afa158015610e2e573d6000803e3d6000fd5b505050506040513d601f19601f82011682018060405250810190610e529190611a24565b60405163014daabb60e31b8152600481018d90529091506000906001600160a01b03831690630a6d55d890602401602060405180830381865afa158015610e9d573d6000803e3d6000fd5b505050506040513d601f19601f82011682018060405250810190610ec19190611a24565b60208501516004546040870151929350600092670de0b6b3a76400009291610ef19163ffffffff90911690611b62565b610efb9190611b62565b610f059190611b81565b600454604088015191925061271091610f2a91640100000000900461ffff1690611b62565b610f349190611b81565b975080881015610f42578097505b509450505050509850989650505050505050565b83610f6381858585611118565b5050505050565b6000828152602081905260409020610f829082610b0a565b156105bf5760405133906001600160a01b0383169084907f2f8788117e7eff1d82e926ec794901d17c78024a50270940304540a733656f0d90600090a45050565b6000828152602081905260409020610fdb9082611183565b156105bf5760405133906001600160a01b0383169084907ff6391f5c32d9c69d2a47ea670b442974b53935d1edc7fd64eb21e047a839171b90600090a45050565b60006107178383611198565b6001600160a01b03811660009081526001830160205260408120541515610717565b826110568184846111c2565b50505050565b6000610662825490565b60008181526001830160205260408120546110ad57508154600181810184556000848152602080822090930184905584548482528286019093526040902091909155610662565b506000610662565b60006110c184846111f7565b9050816001600160a01b0316816001600160a01b0316146110565760405162461bcd60e51b8152602060048201526011602482015270496e76616c6964207369676e617475726560781b604482015260640161049b565b6040516001600160a01b03808516602483015283166044820152606481018290526110569085906323b872dd60e01b906084015b60408051601f198184030181529190526020810180516001600160e01b03166001600160e01b03199093169290921790915261121b565b6000610717836001600160a01b03841661136d565b60008260000182815481106111af576111af611a41565b9060005260206000200154905092915050565b6040516001600160a01b0383166024820152604481018290526111f290849063a9059cbb60e01b9060640161114c565b505050565b60008060006112068585611460565b91509150611213816114a6565b509392505050565b813b806112625760405162461bcd60e51b8152602060048201526015602482015274115490cc8c0e881b9bdd08184818dbdb9d1c9858dd605a1b604482015260640161049b565b600080846001600160a01b03168460405161127d9190611ba3565b6000604051808303816000865af19150503d80600081146112ba576040519150601f19603f3d011682016040523d82523d6000602084013e6112bf565b606091505b5091509150816113065760405162461bcd60e51b8152602060048201526012602482015271115490cc8c0e8818d85b1b0819985a5b195960721b604482015260640161049b565b805115610f6357808060200190518101906113219190611bde565b610f635760405162461bcd60e51b815260206004820181905260248201527f45524332303a206f7065726174696f6e20646964206e6f742073756363656564604482015260640161049b565b60008181526001830160205260408120548015611456576000611391600183611c00565b85549091506000906113a590600190611c00565b905081811461140a5760008660000182815481106113c5576113c5611a41565b90600052602060002001549050808760000184815481106113e8576113e8611a41565b6000918252602080832090910192909255918252600188019052604090208390555b855486908061141b5761141b611c17565b600190038181906000526020600020016000905590558560010160008681526020019081526020016000206000905560019350505050610662565b6000915050610662565b6000808251604114156114975760208301516040840151606085015160001a61148b87828585611664565b9450945050505061149f565b506000905060025b9250929050565b60008160048111156114ba576114ba611c2d565b14156114c35750565b60018160048111156114d7576114d7611c2d565b14156115255760405162461bcd60e51b815260206004820152601860248201527f45434453413a20696e76616c6964207369676e61747572650000000000000000604482015260640161049b565b600281600481111561153957611539611c2d565b14156115875760405162461bcd60e51b815260206004820152601f60248201527f45434453413a20696e76616c6964207369676e6174757265206c656e67746800604482015260640161049b565b600381600481111561159b5761159b611c2d565b14156115f45760405162461bcd60e51b815260206004820152602260248201527f45434453413a20696e76616c6964207369676e6174757265202773272076616c604482015261756560f01b606482015260840161049b565b600481600481111561160857611608611c2d565b14156116615760405162461bcd60e51b815260206004820152602260248201527f45434453413a20696e76616c6964207369676e6174757265202776272076616c604482015261756560f01b606482015260840161049b565b50565b6000807f7fffffffffffffffffffffffffffffff5d576e7357a4501ddfe92f46681b20a083111561169b5750600090506003611748565b8460ff16601b141580156116b357508460ff16601c14155b156116c45750600090506004611748565b6040805160008082526020820180845289905260ff881692820192909252606081018690526080810185905260019060a0016020604051602081039080840390855afa158015611718573d6000803e3d6000fd5b5050604051601f1901519150506001600160a01b03811661174157600060019250925050611748565b9150600090505b94509492505050565b60006020828403121561176357600080fd5b5035919050565b6001600160a01b038116811461166157600080fd5b60ff8116811461166157600080fd5b60008083601f8401126117a057600080fd5b50813567ffffffffffffffff8111156117b857600080fd5b60208301915083602082850101111561149f57600080fd5b60008060008060008060008060c0898b0312156117ec57600080fd5b88356117f78161176a565b975060208901356118078161177f565b965060408901356118178161177f565b955060608901359450608089013567ffffffffffffffff8082111561183b57600080fd5b6118478c838d0161178e565b909650945060a08b013591508082111561186057600080fd5b5061186d8b828c0161178e565b999c989b5096995094979396929594505050565b6000806040838503121561189457600080fd5b8235915060208301356118a68161176a565b809150509250929050565b6000602082840312156118c357600080fd5b81356107178161176a565b600080604083850312156118e157600080fd5b50508035926020909101359150565b60008083601f84011261190257600080fd5b50813567ffffffffffffffff81111561191a57600080fd5b6020830191508360208260051b850101111561149f57600080fd5b60008060008060006060868803121561194d57600080fd5b85359450602086013567ffffffffffffffff8082111561196c57600080fd5b61197889838a016118f0565b9096509450604088013591508082111561199157600080fd5b5061199e888289016118f0565b969995985093965092949392505050565b600080604083850312156119c257600080fd5b823563ffffffff811681146119d657600080fd5b9150602083013561ffff811681146118a657600080fd5b6020808252601e908201527f73656e64657220646f65736e277420686176652061646d696e20726f6c650000604082015260600190565b600060208284031215611a3657600080fd5b81516107178161176a565b634e487b7160e01b600052603260045260246000fd5b634e487b7160e01b600052601160045260246000fd5b6000600019821415611a8157611a81611a57565b5060010190565b60008085851115611a9857600080fd5b83861115611aa557600080fd5b5050820193919092039150565b8051611abd8161177f565b919050565b600060e08284031215611ad457600080fd5b60405160e0810181811067ffffffffffffffff82111715611b0557634e487b7160e01b600052604160045260246000fd5b806040525082518152602083015160208201526040830151604082015260608301516060820152611b3860808401611ab2565b6080820152611b4960a08401611ab2565b60a082015260c083015160c08201528091505092915050565b6000816000190483118215151615611b7c57611b7c611a57565b500290565b600082611b9e57634e487b7160e01b600052601260045260246000fd5b500490565b6000825160005b81811015611bc45760208186018101518583015201611baa565b81811115611bd3576000828501525b509190910192915050565b600060208284031215611bf057600080fd5b8151801515811461071757600080fd5b600082821015611c1257611c12611a57565b500390565b634e487b7160e01b600052603160045260246000fd5b634e487b7160e01b600052602160045260246000fdfea2646970667358221220d015a767f68bd8ca2db404c4a338f78046ca4acd43c46728678715cc0fda88ea64736f6c634300080b0033",
  "linkReferences": {},
  "deployedLinkReferences": {}
}