{
  "_format": "hh-sol-artifact-1",
  "contractName": "ERC20Handler",
  "sourceName": "contracts/handlers/ERC20Handler.sol",
  "abi": [
    {
      "inputs": [
        {
          "internalType": "address",
          "name": "bridgeAddress",
          "type": "address"
        }
      ],
      "stateMutability": "nonpayable",
      "type": "constructor"
    },
    {
      "inputs": [],
      "name": "ProvidedTokenAddressIsNotWhitelisted",
      "type": "error"
    },
    {
      "inputs": [],
      "name": "_bridgeAddress",
      "outputs": [
        {
          "internalType": "address",
          "name": "",
          "type": "address"
        }
      ],
      "stateMutability": "view",
      "type": "function"
    },
    {
      "inputs": [
        {
          "internalType": "address",
          "name": "",
          "type": "address"
        }
      ],
      "name": "_burnList",
      "outputs": [
        {
          "internalType": "bool",
          "name": "",
          "type": "bool"
        }
      ],
      "stateMutability": "view",
      "type": "function"
    },
    {
      "inputs": [
        {
          "internalType": "address",
          "name": "",
          "type": "address"
        }
      ],
      "name": "_contractWhitelist",
      "outputs": [
        {
          "internalType": "bool",
          "name": "",
          "type": "bool"
        }
      ],
      "stateMutability": "view",
      "type": "function"
    },
    {
      "inputs": [
        {
          "internalType": "bytes32",
          "name": "",
          "type": "bytes32"
        }
      ],
      "name": "_resourceIDToTokenContractAddress",
      "outputs": [
        {
          "internalType": "address",
          "name": "",
          "type": "address"
        }
      ],
      "stateMutability": "view",
      "type": "function"
    },
    {
      "inputs": [
        {
          "internalType": "address",
          "name": "",
          "type": "address"
        }
      ],
      "name": "_tokenContractAddressToResourceID",
      "outputs": [
        {
          "internalType": "bytes32",
          "name": "",
          "type": "bytes32"
        }
      ],
      "stateMutability": "view",
      "type": "function"
    },
    {
      "inputs": [
        {
          "internalType": "bytes32",
          "name": "resourceID",
          "type": "bytes32"
        },
        {
          "internalType": "address",
          "name": "depositer",
          "type": "address"
        },
        {
          "internalType": "bytes",
          "name": "data",
          "type": "bytes"
        }
      ],
      "name": "deposit",
      "outputs": [
        {
          "internalType": "bytes",
          "name": "",
          "type": "bytes"
        }
      ],
      "stateMutability": "nonpayable",
      "type": "function"
    },
    {
      "inputs": [
        {
          "internalType": "bytes32",
          "name": "resourceID",
          "type": "bytes32"
        },
        {
          "internalType": "bytes",
          "name": "data",
          "type": "bytes"
        }
      ],
      "name": "executeProposal",
      "outputs": [],
      "stateMutability": "nonpayable",
      "type": "function"
    },
    {
      "inputs": [
        {
          "internalType": "address",
          "name": "contractAddress",
          "type": "address"
        }
      ],
      "name": "setBurnable",
      "outputs": [],
      "stateMutability": "nonpayable",
      "type": "function"
    },
    {
      "inputs": [
        {
          "internalType": "bytes32",
          "name": "resourceID",
          "type": "bytes32"
        },
        {
          "internalType": "address",
          "name": "contractAddress",
          "type": "address"
        }
      ],
      "name": "setResource",
      "outputs": [],
      "stateMutability": "nonpayable",
      "type": "function"
    },
    {
      "inputs": [
        {
          "internalType": "bytes",
          "name": "data",
          "type": "bytes"
        }
      ],
      "name": "withdraw",
      "outputs": [],
      "stateMutability": "nonpayable",
      "type": "function"
    }
  ],
  "bytecode": "0x60a060405234801561001057600080fd5b50604051610cbc380380610cbc83398101604081905261002f91610040565b6001600160a01b0316608052610070565b60006020828403121561005257600080fd5b81516001600160a01b038116811461006957600080fd5b9392505050565b608051610c2a6100926000396000818161011601526104b50152610c2a6000f3fe608060405234801561001057600080fd5b506004361061009e5760003560e01c80637f79bea8116100665780637f79bea81461016b578063b07e54bb1461018e578063b8fa3736146101ae578063c8ba6c87146101c1578063e248cff2146101ef57600080fd5b806307b7ed99146100a35780630968f264146100b85780630a6d55d8146100cb578063318c136e146101115780636a70d08114610138575b600080fd5b6100b66100b136600461087d565b610202565b005b6100b66100c63660046108b7565b610216565b6100f46100d9366004610968565b6000602081905290815260409020546001600160a01b031681565b6040516001600160a01b0390911681526020015b60405180910390f35b6100f47f000000000000000000000000000000000000000000000000000000000000000081565b61015b61014636600461087d565b60036020526000908152604090205460ff1681565b6040519015158152602001610108565b61015b61017936600461087d565b60026020526000908152604090205460ff1681565b6101a161019c3660046109ca565b61024f565b6040516101089190610a52565b6100b66101bc366004610a85565b610307565b6101e16101cf36600461087d565b60016020526000908152604090205481565b604051908152602001610108565b6100b66101fd366004610ab5565b61035c565b61020a6104aa565b61021381610524565b50565b61021e6104aa565b6000806000838060200190518101906102379190610b01565b919450925090506102498383836105bc565b50505050565b60606102596104aa565b600061026783850185610968565b600087815260208181526040808320546001600160a01b03168084526002909252909120549192509060ff166102b057604051631556d7e160e11b815260040160405180910390fd5b6001600160a01b03811660009081526003602052604090205460ff16156102e1576102dc8187846105c8565b6102ed565b6102ed8187308561062a565b505060408051600081526020810190915295945050505050565b61030f6104aa565b60008281526020818152604080832080546001600160a01b0319166001600160a01b039590951694851790559282526001808252838320949094556002905220805460ff19169091179055565b6103646104aa565b600080606061037584860186610b44565b9093509150846040856103888583610b66565b9261039593929190610b8c565b8080601f01602080910402602001604051908101604052809392919081815260200183838082843760009201829052508a81526020818152604080832054828801516001600160a01b039091168085526002909352922054959650909490935060ff16915061045e90505760405162461bcd60e51b815260206004820152602860248201527f70726f766964656420746f6b656e41646472657373206973206e6f74207768696044820152671d195b1a5cdd195960c21b60648201526084015b60405180910390fd5b6001600160a01b03811660009081526003602052604090205460ff16156104925761048d818360601c8761063e565b6104a0565b6104a0818360601c876105bc565b5050505050505050565b336001600160a01b037f000000000000000000000000000000000000000000000000000000000000000016146105225760405162461bcd60e51b815260206004820152601e60248201527f73656e646572206d7573742062652062726964676520636f6e747261637400006044820152606401610455565b565b6001600160a01b03811660009081526002602052604090205460ff166105985760405162461bcd60e51b8152602060048201526024808201527f70726f766964656420636f6e7472616374206973206e6f742077686974656c696044820152631cdd195960e21b6064820152608401610455565b6001600160a01b03166000908152600360205260409020805460ff19166001179055565b82610249818484610676565b60405163079cc67960e41b81526001600160a01b038381166004830152602482018390528491908216906379cc6790906044015b600060405180830381600087803b15801561061657600080fd5b505af11580156104a0573d6000803e3d6000fd5b83610637818585856106de565b5050505050565b6040516340c10f1960e01b81526001600160a01b038381166004830152602482018390528491908216906340c10f19906044016105fc565b6040516001600160a01b0383166024820152604481018290526106d990849063a9059cbb60e01b906064015b60408051601f198184030181529190526020810180516001600160e01b03166001600160e01b031990931692909217909152610716565b505050565b6040516001600160a01b03808516602483015283166044820152606481018290526102499085906323b872dd60e01b906084016106a2565b813b8061075d5760405162461bcd60e51b8152602060048201526015602482015274115490cc8c0e881b9bdd08184818dbdb9d1c9858dd605a1b6044820152606401610455565b600080846001600160a01b0316846040516107789190610bb6565b6000604051808303816000865af19150503d80600081146107b5576040519150601f19603f3d011682016040523d82523d6000602084013e6107ba565b606091505b5091509150816108015760405162461bcd60e51b8152602060048201526012602482015271115490cc8c0e8818d85b1b0819985a5b195960721b6044820152606401610455565b805115610637578080602001905181019061081c9190610bd2565b6106375760405162461bcd60e51b815260206004820181905260248201527f45524332303a206f7065726174696f6e20646964206e6f7420737563636565646044820152606401610455565b6001600160a01b038116811461021357600080fd5b60006020828403121561088f57600080fd5b813561089a81610868565b9392505050565b634e487b7160e01b600052604160045260246000fd5b6000602082840312156108c957600080fd5b813567ffffffffffffffff808211156108e157600080fd5b818401915084601f8301126108f557600080fd5b813581811115610907576109076108a1565b604051601f8201601f19908116603f0116810190838211818310171561092f5761092f6108a1565b8160405282815287602084870101111561094857600080fd5b826020860160208301376000928101602001929092525095945050505050565b60006020828403121561097a57600080fd5b5035919050565b60008083601f84011261099357600080fd5b50813567ffffffffffffffff8111156109ab57600080fd5b6020830191508360208285010111156109c357600080fd5b9250929050565b600080600080606085870312156109e057600080fd5b8435935060208501356109f281610868565b9250604085013567ffffffffffffffff811115610a0e57600080fd5b610a1a87828801610981565b95989497509550505050565b60005b83811015610a41578181015183820152602001610a29565b838111156102495750506000910152565b6020815260008251806020840152610a71816040850160208701610a26565b601f01601f19169190910160400192915050565b60008060408385031215610a9857600080fd5b823591506020830135610aaa81610868565b809150509250929050565b600080600060408486031215610aca57600080fd5b83359250602084013567ffffffffffffffff811115610ae857600080fd5b610af486828701610981565b9497909650939450505050565b600080600060608486031215610b1657600080fd5b8351610b2181610868565b6020850151909350610b3281610868565b80925050604084015190509250925092565b60008060408385031215610b5757600080fd5b50508035926020909101359150565b60008219821115610b8757634e487b7160e01b600052601160045260246000fd5b500190565b60008085851115610b9c57600080fd5b83861115610ba957600080fd5b5050820193919092039150565b60008251610bc8818460208701610a26565b9190910192915050565b600060208284031215610be457600080fd5b8151801515811461089a57600080fdfea2646970667358221220bac75ce63098499f6740d98c897c8d0d55aefeaeeef1a3635a414a826ef9ecc364736f6c634300080b0033",
  "linkReferences": {},
  "deployedLinkReferences": {}
}