{
  "_format": "hh-sol-artifact-1",
  "contractName": "ERC20Handler",
  "sourceName": "contracts/handlers/ERC20Handler.sol",
  "abi": [
    {
      "inputs": [
        {
          "internalType": "address",
          "name": "bridgeAddress",
          "type": "address"
        }
      ],
      "stateMutability": "nonpayable",
      "type": "constructor"
    },
    {
      "inputs": [],
      "name": "ProvidedTokenAddressIsNotWhitelisted",
      "type": "error"
    },
    {
      "inputs": [],
      "name": "ETHReserve",
      "outputs": [
        {
          "internalType": "uint256",
          "name": "",
          "type": "uint256"
        }
      ],
      "stateMutability": "view",
      "type": "function"
    },
    {
      "inputs": [],
      "name": "_bridgeAddress",
      "outputs": [
        {
          "internalType": "address",
          "name": "",
          "type": "address"
        }
      ],
      "stateMutability": "view",
      "type": "function"
    },
    {
      "inputs": [
        {
          "internalType": "address",
          "name": "",
          "type": "address"
        }
      ],
      "name": "_burnList",
      "outputs": [
        {
          "internalType": "bool",
          "name": "",
          "type": "bool"
        }
      ],
      "stateMutability": "view",
      "type": "function"
    },
    {
      "inputs": [
        {
          "internalType": "address",
          "name": "",
          "type": "address"
        }
      ],
      "name": "_contractWhitelist",
      "outputs": [
        {
          "internalType": "bool",
          "name": "",
          "type": "bool"
        }
      ],
      "stateMutability": "view",
      "type": "function"
    },
    {
      "inputs": [
        {
          "internalType": "bytes32",
          "name": "",
          "type": "bytes32"
        }
      ],
      "name": "_resourceIDToTokenContractAddress",
      "outputs": [
        {
          "internalType": "address",
          "name": "",
          "type": "address"
        }
      ],
      "stateMutability": "view",
      "type": "function"
    },
    {
      "inputs": [
        {
          "internalType": "address",
          "name": "",
          "type": "address"
        }
      ],
      "name": "_tokenContractAddressToResourceID",
      "outputs": [
        {
          "internalType": "bytes32",
          "name": "",
          "type": "bytes32"
        }
      ],
      "stateMutability": "view",
      "type": "function"
    },
    {
      "inputs": [
        {
          "internalType": "bytes32",
          "name": "resourceID",
          "type": "bytes32"
        },
        {
          "internalType": "address",
          "name": "depositor",
          "type": "address"
        },
        {
          "internalType": "bytes",
          "name": "data",
          "type": "bytes"
        }
      ],
      "name": "deposit",
      "outputs": [
        {
          "internalType": "bytes",
          "name": "",
          "type": "bytes"
        }
      ],
      "stateMutability": "payable",
      "type": "function"
    },
    {
      "inputs": [
        {
          "internalType": "bytes32",
          "name": "resourceID",
          "type": "bytes32"
        },
        {
          "internalType": "bytes",
          "name": "data",
          "type": "bytes"
        }
      ],
      "name": "executeProposal",
      "outputs": [],
      "stateMutability": "nonpayable",
      "type": "function"
    },
    {
      "inputs": [
        {
          "internalType": "address",
          "name": "",
          "type": "address"
        }
      ],
      "name": "isNative",
      "outputs": [
        {
          "internalType": "bool",
          "name": "",
          "type": "bool"
        }
      ],
      "stateMutability": "view",
      "type": "function"
    },
    {
      "inputs": [
        {
          "internalType": "bytes32",
          "name": "resourceID",
          "type": "bytes32"
        },
        {
          "internalType": "address",
          "name": "contractAddress",
          "type": "address"
        }
      ],
      "name": "removeResource",
      "outputs": [],
      "stateMutability": "nonpayable",
      "type": "function"
    },
    {
      "inputs": [
        {
          "internalType": "address",
          "name": "contractAddress",
          "type": "address"
        }
      ],
      "name": "setBurnable",
      "outputs": [],
      "stateMutability": "nonpayable",
      "type": "function"
    },
    {
      "inputs": [
        {
          "internalType": "address",
          "name": "nativeAddress",
          "type": "address"
        },
        {
          "internalType": "bool",
          "name": "_isNative",
          "type": "bool"
        }
      ],
      "name": "setNative",
      "outputs": [],
      "stateMutability": "nonpayable",
      "type": "function"
    },
    {
      "inputs": [
        {
          "internalType": "bytes32",
          "name": "resourceID",
          "type": "bytes32"
        },
        {
          "internalType": "address",
          "name": "contractAddress",
          "type": "address"
        }
      ],
      "name": "setResource",
      "outputs": [],
      "stateMutability": "nonpayable",
      "type": "function"
    },
    {
      "inputs": [
        {
          "internalType": "bytes",
          "name": "data",
          "type": "bytes"
        }
      ],
      "name": "withdraw",
      "outputs": [],
      "stateMutability": "nonpayable",
      "type": "function"
    },
    {
      "inputs": [
        {
          "internalType": "bytes",
          "name": "data",
          "type": "bytes"
        }
      ],
      "name": "withdrawETH",
      "outputs": [],
      "stateMutability": "nonpayable",
      "type": "function"
    }
  ],
  "bytecode": "0x60a060405234801561001057600080fd5b5060405161119438038061119483398101604081905261002f91610040565b6001600160a01b0316608052610070565b60006020828403121561005257600080fd5b81516001600160a01b038116811461006957600080fd5b9392505050565b60805161110261009260003960008181610194015261072501526111026000f3fe6080604052600436106100e85760003560e01c8063a98157511161008a578063b8fa373611610059578063b8fa3736146102d6578063c8ba6c87146102f6578063ddafda4614610331578063e248cff21461034757600080fd5b8063a981575114610246578063ab5c7bf114610266578063b07e54bb14610286578063b2b8b5dd146102a657600080fd5b8063318c136e116100c6578063318c136e146101825780636a70d081146101b6578063789d7711146101f65780637f79bea81461021657600080fd5b806307b7ed99146100ed5780630968f2641461010f5780630a6d55d81461012f575b600080fd5b3480156100f957600080fd5b5061010d610108366004610cd1565b610367565b005b34801561011b57600080fd5b5061010d61012a366004610d0b565b61037b565b34801561013b57600080fd5b5061016561014a366004610dbc565b6000602081905290815260409020546001600160a01b031681565b6040516001600160a01b0390911681526020015b60405180910390f35b34801561018e57600080fd5b506101657f000000000000000000000000000000000000000000000000000000000000000081565b3480156101c257600080fd5b506101e66101d1366004610cd1565b60036020526000908152604090205460ff1681565b6040519015158152602001610179565b34801561020257600080fd5b5061010d610211366004610de3565b6103b4565b34801561022257600080fd5b506101e6610231366004610cd1565b60026020526000908152604090205460ff1681565b34801561025257600080fd5b5061010d610261366004610e1c565b6103e7565b34801561027257600080fd5b5061010d610281366004610d0b565b610434565b610299610294366004610e8a565b610467565b6040516101799190610f12565b3480156102b257600080fd5b506101e66102c1366004610cd1565b60046020526000908152604090205460ff1681565b3480156102e257600080fd5b5061010d6102f1366004610e1c565b610549565b34801561030257600080fd5b50610323610311366004610cd1565b60016020526000908152604090205481565b604051908152602001610179565b34801561033d57600080fd5b5061032360055481565b34801561035357600080fd5b5061010d610362366004610f45565b61059e565b61036f61071a565b61037881610794565b50565b61038361071a565b60008060008380602001905181019061039c9190610f91565b919450925090506103ae83838361082c565b50505050565b6103bc61071a565b6001600160a01b03919091166000908152600460205260409020805460ff1916911515919091179055565b6103ef61071a565b60009182526020828152604080842080546001600160a01b03191690556001600160a01b0392909216835260018152818320839055600290529020805460ff19169055565b61043c61071a565b600080828060200190518101906104539190610fd4565b90925090506104628282610838565b505050565b606061047161071a565b600061047f83850185610dbc565b600087815260208181526040808320546001600160a01b03168084526002909252909120549192509060ff166104c857604051631556d7e160e11b815260040160405180910390fd5b6001600160a01b03811660009081526003602052604090205460ff16156104f9576104f481878461089c565b61052f565b6001600160a01b03811660009081526004602052604090205460ff1615610523576104f4826108fe565b61052f818730856109a9565b505060408051600081526020810190915295945050505050565b61055161071a565b60008281526020818152604080832080546001600160a01b0319166001600160a01b039590951694851790559282526001808252838320949094556002905220805460ff19169091179055565b6105a661071a565b60008060606105b784860186611002565b9093509150846040856105ca858361103a565b926105d793929190611052565b8080601f01602080910402602001604051908101604052809392919081815260200183838082843760009201829052508a81526020818152604080832054828801516001600160a01b039091168085526002909352922054959650909490935060ff1691506106a090505760405162461bcd60e51b815260206004820152602860248201527f70726f766964656420746f6b656e41646472657373206973206e6f74207768696044820152671d195b1a5cdd195960c21b60648201526084015b60405180910390fd5b6001600160a01b03811660009081526003602052604090205460ff16156106d4576106cf818360601c876109bd565b610710565b6001600160a01b03811660009081526004602052604090205460ff1615610702576106cf8260601c86610838565b610710818360601c8761082c565b5050505050505050565b336001600160a01b037f000000000000000000000000000000000000000000000000000000000000000016146107925760405162461bcd60e51b815260206004820152601e60248201527f73656e646572206d7573742062652062726964676520636f6e747261637400006044820152606401610697565b565b6001600160a01b03811660009081526002602052604090205460ff166108085760405162461bcd60e51b8152602060048201526024808201527f70726f766964656420636f6e7472616374206973206e6f742077686974656c696044820152631cdd195960e21b6064820152608401610697565b6001600160a01b03166000908152600360205260409020805460ff19166001179055565b826103ae8184846109f5565b476108438383610a58565b61084d828261107c565b47146108935760405162461bcd60e51b815260206004820152601560248201527445524332303a207769746864726177206661696c2160581b6044820152606401610697565b50504760055550565b60405163079cc67960e41b81526001600160a01b038381166004830152602482018390528491908216906379cc6790906044015b600060405180830381600087803b1580156108ea57600080fd5b505af1158015610710573d6000803e3d6000fd5b34811461094d5760405162461bcd60e51b815260206004820152601d60248201527f6d73672e76616c756520616e642064617461206d69736d6174636865640000006044820152606401610697565b8060055461095b919061103a565b4710156109a25760405162461bcd60e51b815260206004820152601560248201527411551214995cd95c9d99481b5a5cdb585d18da1959605a1b6044820152606401610697565b5047600555565b836109b681858585610b32565b5050505050565b6040516340c10f1960e01b81526001600160a01b038381166004830152602482018390528491908216906340c10f19906044016108d0565b6040516001600160a01b03831660248201526044810182905261046290849063a9059cbb60e01b906064015b60408051601f198184030181529190526020810180516001600160e01b03166001600160e01b031990931692909217909152610b6a565b604080516000808252602082019092526001600160a01b038416908390604051610a829190611093565b60006040518083038185875af1925050503d8060008114610abf576040519150601f19603f3d011682016040523d82523d6000602084013e610ac4565b606091505b50509050806104625760405162461bcd60e51b815260206004820152603460248201527f5472616e7366657248656c7065723a3a736166655472616e736665724554483a60448201527308115512081d1c985b9cd9995c8819985a5b195960621b6064820152608401610697565b6040516001600160a01b03808516602483015283166044820152606481018290526103ae9085906323b872dd60e01b90608401610a21565b813b80610bb15760405162461bcd60e51b8152602060048201526015602482015274115490cc8c0e881b9bdd08184818dbdb9d1c9858dd605a1b6044820152606401610697565b600080846001600160a01b031684604051610bcc9190611093565b6000604051808303816000865af19150503d8060008114610c09576040519150601f19603f3d011682016040523d82523d6000602084013e610c0e565b606091505b509150915081610c555760405162461bcd60e51b8152602060048201526012602482015271115490cc8c0e8818d85b1b0819985a5b195960721b6044820152606401610697565b8051156109b65780806020019051810190610c7091906110af565b6109b65760405162461bcd60e51b815260206004820181905260248201527f45524332303a206f7065726174696f6e20646964206e6f7420737563636565646044820152606401610697565b6001600160a01b038116811461037857600080fd5b600060208284031215610ce357600080fd5b8135610cee81610cbc565b9392505050565b634e487b7160e01b600052604160045260246000fd5b600060208284031215610d1d57600080fd5b813567ffffffffffffffff80821115610d3557600080fd5b818401915084601f830112610d4957600080fd5b813581811115610d5b57610d5b610cf5565b604051601f8201601f19908116603f01168101908382118183101715610d8357610d83610cf5565b81604052828152876020848701011115610d9c57600080fd5b826020860160208301376000928101602001929092525095945050505050565b600060208284031215610dce57600080fd5b5035919050565b801515811461037857600080fd5b60008060408385031215610df657600080fd5b8235610e0181610cbc565b91506020830135610e1181610dd5565b809150509250929050565b60008060408385031215610e2f57600080fd5b823591506020830135610e1181610cbc565b60008083601f840112610e5357600080fd5b50813567ffffffffffffffff811115610e6b57600080fd5b602083019150836020828501011115610e8357600080fd5b9250929050565b60008060008060608587031215610ea057600080fd5b843593506020850135610eb281610cbc565b9250604085013567ffffffffffffffff811115610ece57600080fd5b610eda87828801610e41565b95989497509550505050565b60005b83811015610f01578181015183820152602001610ee9565b838111156103ae5750506000910152565b6020815260008251806020840152610f31816040850160208701610ee6565b601f01601f19169190910160400192915050565b600080600060408486031215610f5a57600080fd5b83359250602084013567ffffffffffffffff811115610f7857600080fd5b610f8486828701610e41565b9497909650939450505050565b600080600060608486031215610fa657600080fd5b8351610fb181610cbc565b6020850151909350610fc281610cbc565b80925050604084015190509250925092565b60008060408385031215610fe757600080fd5b8251610ff281610cbc565b6020939093015192949293505050565b6000806040838503121561101557600080fd5b50508035926020909101359150565b634e487b7160e01b600052601160045260246000fd5b6000821982111561104d5761104d611024565b500190565b6000808585111561106257600080fd5b8386111561106f57600080fd5b5050820193919092039150565b60008282101561108e5761108e611024565b500390565b600082516110a5818460208701610ee6565b9190910192915050565b6000602082840312156110c157600080fd5b8151610cee81610dd556fea2646970667358221220982249f46f73845c695ec95afaa576ec6babd46d2f63bdaa1724f8b3d3ba60f564736f6c634300080b0033",
  "linkReferences": {},
  "deployedLinkReferences": {}
}