{
  "_format": "hh-sol-artifact-1",
  "contractName": "ERC20Safe",
  "sourceName": "contracts/ERC20Safe.sol",
  "abi": [
    {
      "inputs": [],
      "name": "ETHReserve",
      "outputs": [
        {
          "internalType": "uint256",
          "name": "",
          "type": "uint256"
        }
      ],
      "stateMutability": "view",
      "type": "function"
    }
  ],
  "bytecode": "0x6080604052348015600f57600080fd5b50607d8061001e6000396000f3fe6080604052348015600f57600080fd5b506004361060285760003560e01c8063ddafda4614602d575b600080fd5b603560005481565b60405190815260200160405180910390f3fea2646970667358221220541b981ea9852ff1511aa0d3a42f3e8a6723ed12155ceb097fcb81423af8508164736f6c634300080b0033",
  "linkReferences": {},
  "deployedLinkReferences": {}
}