{
  "_format": "hh-sol-artifact-1",
  "contractName": "ERC20Safe",
  "sourceName": "contracts/ERC20Safe.sol",
  "abi": [
    {
      "inputs": [],
      "name": "ETHReserve",
      "outputs": [
        {
          "internalType": "uint256",
          "name": "",
          "type": "uint256"
        }
      ],
      "stateMutability": "view",
      "type": "function"
    }
  ],
  "bytecode": "0x6080604052348015600f57600080fd5b50607d8061001e6000396000f3fe6080604052348015600f57600080fd5b506004361060285760003560e01c8063ddafda4614602d575b600080fd5b603560005481565b60405190815260200160405180910390f3fea26469706673582212201bd2c2b0563676c6dedade18977050c876a2c776a9b7f7368a6ca35d8c207a4c64736f6c634300080b0033",
  "linkReferences": {},
  "deployedLinkReferences": {}
}