{
  "_format": "hh-sol-artifact-1",
  "contractName": "ERC20HandlerUpgradeable",
  "sourceName": "contracts/handlers/ERC20HandlerUpgradeable.sol",
  "abi": [
    {
      "inputs": [],
      "name": "ProvidedTokenAddressIsNotWhitelisted",
      "type": "error"
    },
    {
      "inputs": [],
      "name": "ETHReserve",
      "outputs": [
        {
          "internalType": "uint256",
          "name": "",
          "type": "uint256"
        }
      ],
      "stateMutability": "view",
      "type": "function"
    },
    {
      "inputs": [],
      "name": "_bridgeAddress",
      "outputs": [
        {
          "internalType": "address",
          "name": "",
          "type": "address"
        }
      ],
      "stateMutability": "view",
      "type": "function"
    },
    {
      "inputs": [
        {
          "internalType": "address",
          "name": "",
          "type": "address"
        }
      ],
      "name": "_burnList",
      "outputs": [
        {
          "internalType": "bool",
          "name": "",
          "type": "bool"
        }
      ],
      "stateMutability": "view",
      "type": "function"
    },
    {
      "inputs": [
        {
          "internalType": "address",
          "name": "",
          "type": "address"
        }
      ],
      "name": "_contractWhitelist",
      "outputs": [
        {
          "internalType": "bool",
          "name": "",
          "type": "bool"
        }
      ],
      "stateMutability": "view",
      "type": "function"
    },
    {
      "inputs": [
        {
          "internalType": "bytes32",
          "name": "",
          "type": "bytes32"
        }
      ],
      "name": "_resourceIDToTokenContractAddress",
      "outputs": [
        {
          "internalType": "address",
          "name": "",
          "type": "address"
        }
      ],
      "stateMutability": "view",
      "type": "function"
    },
    {
      "inputs": [
        {
          "internalType": "address",
          "name": "",
          "type": "address"
        }
      ],
      "name": "_tokenContractAddressToResourceID",
      "outputs": [
        {
          "internalType": "bytes32",
          "name": "",
          "type": "bytes32"
        }
      ],
      "stateMutability": "view",
      "type": "function"
    },
    {
      "inputs": [
        {
          "internalType": "bytes32",
          "name": "resourceID",
          "type": "bytes32"
        },
        {
          "internalType": "address",
          "name": "depositer",
          "type": "address"
        },
        {
          "internalType": "bytes",
          "name": "data",
          "type": "bytes"
        }
      ],
      "name": "deposit",
      "outputs": [
        {
          "internalType": "bytes",
          "name": "",
          "type": "bytes"
        }
      ],
      "stateMutability": "payable",
      "type": "function"
    },
    {
      "inputs": [
        {
          "internalType": "bytes32",
          "name": "resourceID",
          "type": "bytes32"
        },
        {
          "internalType": "bytes",
          "name": "data",
          "type": "bytes"
        }
      ],
      "name": "executeProposal",
      "outputs": [],
      "stateMutability": "nonpayable",
      "type": "function"
    },
    {
      "inputs": [
        {
          "internalType": "address",
          "name": "bridgeAddress",
          "type": "address"
        }
      ],
      "name": "initialize",
      "outputs": [],
      "stateMutability": "nonpayable",
      "type": "function"
    },
    {
      "inputs": [
        {
          "internalType": "address",
          "name": "",
          "type": "address"
        }
      ],
      "name": "isNative",
      "outputs": [
        {
          "internalType": "bool",
          "name": "",
          "type": "bool"
        }
      ],
      "stateMutability": "view",
      "type": "function"
    },
    {
      "inputs": [
        {
          "internalType": "address",
          "name": "contractAddress",
          "type": "address"
        }
      ],
      "name": "setBurnable",
      "outputs": [],
      "stateMutability": "nonpayable",
      "type": "function"
    },
    {
      "inputs": [
        {
          "internalType": "address",
          "name": "nativeAddress",
          "type": "address"
        },
        {
          "internalType": "bool",
          "name": "_isNative",
          "type": "bool"
        }
      ],
      "name": "setNative",
      "outputs": [],
      "stateMutability": "nonpayable",
      "type": "function"
    },
    {
      "inputs": [
        {
          "internalType": "bytes32",
          "name": "resourceID",
          "type": "bytes32"
        },
        {
          "internalType": "address",
          "name": "contractAddress",
          "type": "address"
        }
      ],
      "name": "setResource",
      "outputs": [],
      "stateMutability": "nonpayable",
      "type": "function"
    },
    {
      "inputs": [
        {
          "internalType": "bytes",
          "name": "data",
          "type": "bytes"
        }
      ],
      "name": "withdraw",
      "outputs": [],
      "stateMutability": "nonpayable",
      "type": "function"
    },
    {
      "inputs": [
        {
          "internalType": "bytes",
          "name": "data",
          "type": "bytes"
        }
      ],
      "name": "withdrawETH",
      "outputs": [],
      "stateMutability": "nonpayable",
      "type": "function"
    }
  ],
  "bytecode": "0x608060405234801561001057600080fd5b50611222806100206000396000f3fe6080604052600436106100e85760003560e01c8063ab5c7bf11161008a578063c4d66de811610059578063c4d66de8146102c8578063c8ba6c87146102e8578063ddafda4614610323578063e248cff21461033957600080fd5b8063ab5c7bf114610238578063b07e54bb14610258578063b2b8b5dd14610278578063b8fa3736146102a857600080fd5b8063318c136e116100c6578063318c136e146101825780636a70d081146101a8578063789d7711146101e85780637f79bea81461020857600080fd5b806307b7ed99146100ed5780630968f2641461010f5780630a6d55d81461012f575b600080fd5b3480156100f957600080fd5b5061010d610108366004610da3565b610359565b005b34801561011b57600080fd5b5061010d61012a366004610ddd565b61036d565b34801561013b57600080fd5b5061016561014a366004610e8e565b6001602052600090815260409020546001600160a01b031681565b6040516001600160a01b0390911681526020015b60405180910390f35b34801561018e57600080fd5b50600054610165906201000090046001600160a01b031681565b3480156101b457600080fd5b506101d86101c3366004610da3565b60046020526000908152604090205460ff1681565b6040519015158152602001610179565b3480156101f457600080fd5b5061010d610203366004610eb5565b6103a6565b34801561021457600080fd5b506101d8610223366004610da3565b60036020526000908152604090205460ff1681565b34801561024457600080fd5b5061010d610253366004610ddd565b6103d9565b61026b610266366004610f37565b61040c565b6040516101799190610fbf565b34801561028457600080fd5b506101d8610293366004610da3565b60056020526000908152604090205460ff1681565b3480156102b457600080fd5b5061010d6102c3366004610ff2565b6104f0565b3480156102d457600080fd5b5061010d6102e3366004610da3565b61054c565b3480156102f457600080fd5b50610315610303366004610da3565b60026020526000908152604090205481565b604051908152602001610179565b34801561032f57600080fd5b5061031560065481565b34801561034557600080fd5b5061010d610354366004611017565b6105d0565b610361610749565b61036a816107ab565b50565b610375610749565b60008060008380602001905181019061038e9190611063565b919450925090506103a0838383610843565b50505050565b6103ae610749565b6001600160a01b03919091166000908152600560205260409020805460ff1916911515919091179055565b6103e1610749565b600080828060200190518101906103f891906110a6565b9092509050610407828261084f565b505050565b6060610416610749565b600061042483850185610e8e565b6000878152600160209081526040808320546001600160a01b03168084526003909252909120549192509060ff1661046f57604051631556d7e160e11b815260040160405180910390fd5b6001600160a01b03811660009081526004602052604090205460ff16156104a05761049b8187846108b3565b6104d6565b6001600160a01b03811660009081526005602052604090205460ff16156104ca5761049b82610915565b6104d6818730856109c0565b505060408051600081526020810190915295945050505050565b6104f8610749565b600082815260016020818152604080842080546001600160a01b0319166001600160a01b0387169081179091558452600282528084208690556003909152909120805460ff191690911790555050565b5050565b600054610100900460ff166105675760005460ff161561056b565b303b155b6105905760405162461bcd60e51b8152600401610587906110d4565b60405180910390fd5b600054610100900460ff161580156105b2576000805461ffff19166101011790555b6105bb826109d4565b8015610548576000805461ff00191690555050565b6105d8610749565b60008060606105e984860186611122565b9093509150846040856105fc858361115a565b9261060993929190611172565b8080601f01602080910402602001604051908101604052809392919081815260200183838082843760009201829052508a815260016020908152604080832054828801516001600160a01b039091168085526003909352922054959650909490935060ff1691506106cf90505760405162461bcd60e51b815260206004820152602860248201527f70726f766964656420746f6b656e41646472657373206973206e6f74207768696044820152671d195b1a5cdd195960c21b6064820152608401610587565b6001600160a01b03811660009081526004602052604090205460ff1615610703576106fe818360601c87610a68565b61073f565b6001600160a01b03811660009081526005602052604090205460ff1615610731576106fe8260601c8661084f565b61073f818360601c87610843565b5050505050505050565b6000546201000090046001600160a01b031633146107a95760405162461bcd60e51b815260206004820152601e60248201527f73656e646572206d7573742062652062726964676520636f6e747261637400006044820152606401610587565b565b6001600160a01b03811660009081526003602052604090205460ff1661081f5760405162461bcd60e51b8152602060048201526024808201527f70726f766964656420636f6e7472616374206973206e6f742077686974656c696044820152631cdd195960e21b6064820152608401610587565b6001600160a01b03166000908152600460205260409020805460ff19166001179055565b826103a0818484610aa0565b4761085a8383610b03565b610864828261119c565b47146108aa5760405162461bcd60e51b815260206004820152601560248201527445524332303a207769746864726177206661696c2160581b6044820152606401610587565b50504760065550565b60405163079cc67960e41b81526001600160a01b038381166004830152602482018390528491908216906379cc6790906044015b600060405180830381600087803b15801561090157600080fd5b505af115801561073f573d6000803e3d6000fd5b3481146109645760405162461bcd60e51b815260206004820152601d60248201527f6d73672e76616c756520616e642064617461206d69736d6174636865640000006044820152606401610587565b80600654610972919061115a565b4710156109b95760405162461bcd60e51b815260206004820152601560248201527411551214995cd95c9d99481b5a5cdb585d18da1959605a1b6044820152606401610587565b5047600655565b836109cd81858585610c04565b5050505050565b600054610100900460ff166109ef5760005460ff16156109f3565b303b155b610a0f5760405162461bcd60e51b8152600401610587906110d4565b600054610100900460ff16158015610a31576000805461ffff19166101011790555b6000805462010000600160b01b031916620100006001600160a01b038516021790558015610548576000805461ff00191690555050565b6040516340c10f1960e01b81526001600160a01b038381166004830152602482018390528491908216906340c10f19906044016108e7565b6040516001600160a01b03831660248201526044810182905261040790849063a9059cbb60e01b906064015b60408051601f198184030181529190526020810180516001600160e01b03166001600160e01b031990931692909217909152610c3c565b600080836001600160a01b03168360405160006040518083038185875af1925050503d8060008114610b51576040519150601f19603f3d011682016040523d82523d6000602084013e610b56565b606091505b509150915081610b9d5760405162461bcd60e51b8152602060048201526012602482015271115490cc8c0e8818d85b1b0819985a5b195960721b6044820152606401610587565b8051156103a05780806020019051810190610bb891906111b3565b6103a05760405162461bcd60e51b815260206004820181905260248201527f45524332303a206f7065726174696f6e20646964206e6f7420737563636565646044820152606401610587565b6040516001600160a01b03808516602483015283166044820152606481018290526103a09085906323b872dd60e01b90608401610acc565b813b80610c835760405162461bcd60e51b8152602060048201526015602482015274115490cc8c0e881b9bdd08184818dbdb9d1c9858dd605a1b6044820152606401610587565b600080846001600160a01b031684604051610c9e91906111d0565b6000604051808303816000865af19150503d8060008114610cdb576040519150601f19603f3d011682016040523d82523d6000602084013e610ce0565b606091505b509150915081610d275760405162461bcd60e51b8152602060048201526012602482015271115490cc8c0e8818d85b1b0819985a5b195960721b6044820152606401610587565b8051156109cd5780806020019051810190610d4291906111b3565b6109cd5760405162461bcd60e51b815260206004820181905260248201527f45524332303a206f7065726174696f6e20646964206e6f7420737563636565646044820152606401610587565b6001600160a01b038116811461036a57600080fd5b600060208284031215610db557600080fd5b8135610dc081610d8e565b9392505050565b634e487b7160e01b600052604160045260246000fd5b600060208284031215610def57600080fd5b813567ffffffffffffffff80821115610e0757600080fd5b818401915084601f830112610e1b57600080fd5b813581811115610e2d57610e2d610dc7565b604051601f8201601f19908116603f01168101908382118183101715610e5557610e55610dc7565b81604052828152876020848701011115610e6e57600080fd5b826020860160208301376000928101602001929092525095945050505050565b600060208284031215610ea057600080fd5b5035919050565b801515811461036a57600080fd5b60008060408385031215610ec857600080fd5b8235610ed381610d8e565b91506020830135610ee381610ea7565b809150509250929050565b60008083601f840112610f0057600080fd5b50813567ffffffffffffffff811115610f1857600080fd5b602083019150836020828501011115610f3057600080fd5b9250929050565b60008060008060608587031215610f4d57600080fd5b843593506020850135610f5f81610d8e565b9250604085013567ffffffffffffffff811115610f7b57600080fd5b610f8787828801610eee565b95989497509550505050565b60005b83811015610fae578181015183820152602001610f96565b838111156103a05750506000910152565b6020815260008251806020840152610fde816040850160208701610f93565b601f01601f19169190910160400192915050565b6000806040838503121561100557600080fd5b823591506020830135610ee381610d8e565b60008060006040848603121561102c57600080fd5b83359250602084013567ffffffffffffffff81111561104a57600080fd5b61105686828701610eee565b9497909650939450505050565b60008060006060848603121561107857600080fd5b835161108381610d8e565b602085015190935061109481610d8e565b80925050604084015190509250925092565b600080604083850312156110b957600080fd5b82516110c481610d8e565b6020939093015192949293505050565b6020808252602e908201527f496e697469616c697a61626c653a20636f6e747261637420697320616c72656160408201526d191e481a5b9a5d1a585b1a5e995960921b606082015260800190565b6000806040838503121561113557600080fd5b50508035926020909101359150565b634e487b7160e01b600052601160045260246000fd5b6000821982111561116d5761116d611144565b500190565b6000808585111561118257600080fd5b8386111561118f57600080fd5b5050820193919092039150565b6000828210156111ae576111ae611144565b500390565b6000602082840312156111c557600080fd5b8151610dc081610ea7565b600082516111e2818460208701610f93565b919091019291505056fea2646970667358221220b9c0ccd9cd7fbb28cb208e2477c84abc08a160e7f8c681b846b595f58d70343064736f6c634300080b0033",
  "linkReferences": {},
  "deployedLinkReferences": {}
}