{
  "_format": "hh-sol-artifact-1",
  "contractName": "ERC20HandlerUpgradeable",
  "sourceName": "contracts/handlers/ERC20HandlerUpgradeable.sol",
  "abi": [
    {
      "inputs": [],
      "name": "ProvidedTokenAddressIsNotWhitelisted",
      "type": "error"
    },
    {
      "inputs": [],
      "name": "ETHReserve",
      "outputs": [
        {
          "internalType": "uint256",
          "name": "",
          "type": "uint256"
        }
      ],
      "stateMutability": "view",
      "type": "function"
    },
    {
      "inputs": [],
      "name": "_bridgeAddress",
      "outputs": [
        {
          "internalType": "address",
          "name": "",
          "type": "address"
        }
      ],
      "stateMutability": "view",
      "type": "function"
    },
    {
      "inputs": [
        {
          "internalType": "address",
          "name": "",
          "type": "address"
        }
      ],
      "name": "_burnList",
      "outputs": [
        {
          "internalType": "bool",
          "name": "",
          "type": "bool"
        }
      ],
      "stateMutability": "view",
      "type": "function"
    },
    {
      "inputs": [
        {
          "internalType": "address",
          "name": "",
          "type": "address"
        }
      ],
      "name": "_contractWhitelist",
      "outputs": [
        {
          "internalType": "bool",
          "name": "",
          "type": "bool"
        }
      ],
      "stateMutability": "view",
      "type": "function"
    },
    {
      "inputs": [
        {
          "internalType": "bytes32",
          "name": "",
          "type": "bytes32"
        }
      ],
      "name": "_resourceIDToTokenContractAddress",
      "outputs": [
        {
          "internalType": "address",
          "name": "",
          "type": "address"
        }
      ],
      "stateMutability": "view",
      "type": "function"
    },
    {
      "inputs": [
        {
          "internalType": "address",
          "name": "",
          "type": "address"
        }
      ],
      "name": "_tokenContractAddressToResourceID",
      "outputs": [
        {
          "internalType": "bytes32",
          "name": "",
          "type": "bytes32"
        }
      ],
      "stateMutability": "view",
      "type": "function"
    },
    {
      "inputs": [
        {
          "internalType": "bytes32",
          "name": "resourceID",
          "type": "bytes32"
        },
        {
          "internalType": "address",
          "name": "depositor",
          "type": "address"
        },
        {
          "internalType": "bytes",
          "name": "data",
          "type": "bytes"
        }
      ],
      "name": "deposit",
      "outputs": [
        {
          "internalType": "bytes",
          "name": "",
          "type": "bytes"
        }
      ],
      "stateMutability": "payable",
      "type": "function"
    },
    {
      "inputs": [
        {
          "internalType": "bytes32",
          "name": "resourceID",
          "type": "bytes32"
        },
        {
          "internalType": "bytes",
          "name": "data",
          "type": "bytes"
        }
      ],
      "name": "executeProposal",
      "outputs": [],
      "stateMutability": "nonpayable",
      "type": "function"
    },
    {
      "inputs": [
        {
          "internalType": "address",
          "name": "bridgeAddress",
          "type": "address"
        }
      ],
      "name": "initialize",
      "outputs": [],
      "stateMutability": "nonpayable",
      "type": "function"
    },
    {
      "inputs": [
        {
          "internalType": "address",
          "name": "",
          "type": "address"
        }
      ],
      "name": "isNative",
      "outputs": [
        {
          "internalType": "bool",
          "name": "",
          "type": "bool"
        }
      ],
      "stateMutability": "view",
      "type": "function"
    },
    {
      "inputs": [
        {
          "internalType": "bytes32",
          "name": "resourceID",
          "type": "bytes32"
        },
        {
          "internalType": "address",
          "name": "contractAddress",
          "type": "address"
        }
      ],
      "name": "removeResource",
      "outputs": [],
      "stateMutability": "nonpayable",
      "type": "function"
    },
    {
      "inputs": [
        {
          "internalType": "address",
          "name": "contractAddress",
          "type": "address"
        }
      ],
      "name": "setBurnable",
      "outputs": [],
      "stateMutability": "nonpayable",
      "type": "function"
    },
    {
      "inputs": [
        {
          "internalType": "address",
          "name": "nativeAddress",
          "type": "address"
        },
        {
          "internalType": "bool",
          "name": "_isNative",
          "type": "bool"
        }
      ],
      "name": "setNative",
      "outputs": [],
      "stateMutability": "nonpayable",
      "type": "function"
    },
    {
      "inputs": [
        {
          "internalType": "bytes32",
          "name": "resourceID",
          "type": "bytes32"
        },
        {
          "internalType": "address",
          "name": "contractAddress",
          "type": "address"
        }
      ],
      "name": "setResource",
      "outputs": [],
      "stateMutability": "nonpayable",
      "type": "function"
    },
    {
      "inputs": [
        {
          "internalType": "bytes",
          "name": "data",
          "type": "bytes"
        }
      ],
      "name": "withdraw",
      "outputs": [],
      "stateMutability": "nonpayable",
      "type": "function"
    },
    {
      "inputs": [
        {
          "internalType": "bytes",
          "name": "data",
          "type": "bytes"
        }
      ],
      "name": "withdrawETH",
      "outputs": [],
      "stateMutability": "nonpayable",
      "type": "function"
    }
  ],
  "bytecode": "0x608060405234801561001057600080fd5b50611275806100206000396000f3fe6080604052600436106100f35760003560e01c8063ab5c7bf11161008a578063c4d66de811610059578063c4d66de8146102f3578063c8ba6c8714610313578063ddafda461461034e578063e248cff21461036457600080fd5b8063ab5c7bf114610263578063b07e54bb14610283578063b2b8b5dd146102a3578063b8fa3736146102d357600080fd5b80636a70d081116100c65780636a70d081146101b3578063789d7711146101f35780637f79bea814610213578063a98157511461024357600080fd5b806307b7ed99146100f85780630968f2641461011a5780630a6d55d81461013a578063318c136e1461018d575b600080fd5b34801561010457600080fd5b50610118610113366004610df6565b610384565b005b34801561012657600080fd5b50610118610135366004610e30565b610398565b34801561014657600080fd5b50610170610155366004610ee1565b6001602052600090815260409020546001600160a01b031681565b6040516001600160a01b0390911681526020015b60405180910390f35b34801561019957600080fd5b50600054610170906201000090046001600160a01b031681565b3480156101bf57600080fd5b506101e36101ce366004610df6565b60046020526000908152604090205460ff1681565b6040519015158152602001610184565b3480156101ff57600080fd5b5061011861020e366004610f08565b6103d1565b34801561021f57600080fd5b506101e361022e366004610df6565b60036020526000908152604090205460ff1681565b34801561024f57600080fd5b5061011861025e366004610f41565b610404565b34801561026f57600080fd5b5061011861027e366004610e30565b610457565b610296610291366004610faf565b61048a565b6040516101849190611037565b3480156102af57600080fd5b506101e36102be366004610df6565b60056020526000908152604090205460ff1681565b3480156102df57600080fd5b506101186102ee366004610f41565b61056e565b3480156102ff57600080fd5b5061011861030e366004610df6565b6105c6565b34801561031f57600080fd5b5061034061032e366004610df6565b60026020526000908152604090205481565b604051908152602001610184565b34801561035a57600080fd5b5061034060065481565b34801561037057600080fd5b5061011861037f36600461106a565b61064a565b61038c6107c3565b61039581610825565b50565b6103a06107c3565b6000806000838060200190518101906103b991906110b6565b919450925090506103cb8383836108bd565b50505050565b6103d96107c3565b6001600160a01b03919091166000908152600560205260409020805460ff1916911515919091179055565b61040c6107c3565b600091825260016020908152604080842080546001600160a01b03191690556001600160a01b0392909216835260028152818320839055600390529020805460ff19169055565b5050565b61045f6107c3565b6000808280602001905181019061047691906110f9565b909250905061048582826108c9565b505050565b60606104946107c3565b60006104a283850185610ee1565b6000878152600160209081526040808320546001600160a01b03168084526003909252909120549192509060ff166104ed57604051631556d7e160e11b815260040160405180910390fd5b6001600160a01b03811660009081526004602052604090205460ff161561051e5761051981878461092d565b610554565b6001600160a01b03811660009081526005602052604090205460ff1615610548576105198261098f565b61055481873085610a3a565b505060408051600081526020810190915295945050505050565b6105766107c3565b600082815260016020818152604080842080546001600160a01b0319166001600160a01b0387169081179091558452600282528084208690556003909152909120805460ff191690911790555050565b600054610100900460ff166105e15760005460ff16156105e5565b303b155b61060a5760405162461bcd60e51b815260040161060190611127565b60405180910390fd5b600054610100900460ff1615801561062c576000805461ffff19166101011790555b61063582610a4e565b8015610453576000805461ff00191690555050565b6106526107c3565b600080606061066384860186611175565b90935091508460408561067685836111ad565b92610683939291906111c5565b8080601f01602080910402602001604051908101604052809392919081815260200183838082843760009201829052508a815260016020908152604080832054828801516001600160a01b039091168085526003909352922054959650909490935060ff16915061074990505760405162461bcd60e51b815260206004820152602860248201527f70726f766964656420746f6b656e41646472657373206973206e6f74207768696044820152671d195b1a5cdd195960c21b6064820152608401610601565b6001600160a01b03811660009081526004602052604090205460ff161561077d57610778818360601c87610ae2565b6107b9565b6001600160a01b03811660009081526005602052604090205460ff16156107ab576107788260601c866108c9565b6107b9818360601c876108bd565b5050505050505050565b6000546201000090046001600160a01b031633146108235760405162461bcd60e51b815260206004820152601e60248201527f73656e646572206d7573742062652062726964676520636f6e747261637400006044820152606401610601565b565b6001600160a01b03811660009081526003602052604090205460ff166108995760405162461bcd60e51b8152602060048201526024808201527f70726f766964656420636f6e7472616374206973206e6f742077686974656c696044820152631cdd195960e21b6064820152608401610601565b6001600160a01b03166000908152600460205260409020805460ff19166001179055565b826103cb818484610b1a565b476108d48383610b7d565b6108de82826111ef565b47146109245760405162461bcd60e51b815260206004820152601560248201527445524332303a207769746864726177206661696c2160581b6044820152606401610601565b50504760065550565b60405163079cc67960e41b81526001600160a01b038381166004830152602482018390528491908216906379cc6790906044015b600060405180830381600087803b15801561097b57600080fd5b505af11580156107b9573d6000803e3d6000fd5b3481146109de5760405162461bcd60e51b815260206004820152601d60248201527f6d73672e76616c756520616e642064617461206d69736d6174636865640000006044820152606401610601565b806006546109ec91906111ad565b471015610a335760405162461bcd60e51b815260206004820152601560248201527411551214995cd95c9d99481b5a5cdb585d18da1959605a1b6044820152606401610601565b5047600655565b83610a4781858585610c57565b5050505050565b600054610100900460ff16610a695760005460ff1615610a6d565b303b155b610a895760405162461bcd60e51b815260040161060190611127565b600054610100900460ff16158015610aab576000805461ffff19166101011790555b6000805462010000600160b01b031916620100006001600160a01b038516021790558015610453576000805461ff00191690555050565b6040516340c10f1960e01b81526001600160a01b038381166004830152602482018390528491908216906340c10f1990604401610961565b6040516001600160a01b03831660248201526044810182905261048590849063a9059cbb60e01b906064015b60408051601f198184030181529190526020810180516001600160e01b03166001600160e01b031990931692909217909152610c8f565b604080516000808252602082019092526001600160a01b038416908390604051610ba79190611206565b60006040518083038185875af1925050503d8060008114610be4576040519150601f19603f3d011682016040523d82523d6000602084013e610be9565b606091505b50509050806104855760405162461bcd60e51b815260206004820152603460248201527f5472616e7366657248656c7065723a3a736166655472616e736665724554483a60448201527308115512081d1c985b9cd9995c8819985a5b195960621b6064820152608401610601565b6040516001600160a01b03808516602483015283166044820152606481018290526103cb9085906323b872dd60e01b90608401610b46565b813b80610cd65760405162461bcd60e51b8152602060048201526015602482015274115490cc8c0e881b9bdd08184818dbdb9d1c9858dd605a1b6044820152606401610601565b600080846001600160a01b031684604051610cf19190611206565b6000604051808303816000865af19150503d8060008114610d2e576040519150601f19603f3d011682016040523d82523d6000602084013e610d33565b606091505b509150915081610d7a5760405162461bcd60e51b8152602060048201526012602482015271115490cc8c0e8818d85b1b0819985a5b195960721b6044820152606401610601565b805115610a475780806020019051810190610d959190611222565b610a475760405162461bcd60e51b815260206004820181905260248201527f45524332303a206f7065726174696f6e20646964206e6f7420737563636565646044820152606401610601565b6001600160a01b038116811461039557600080fd5b600060208284031215610e0857600080fd5b8135610e1381610de1565b9392505050565b634e487b7160e01b600052604160045260246000fd5b600060208284031215610e4257600080fd5b813567ffffffffffffffff80821115610e5a57600080fd5b818401915084601f830112610e6e57600080fd5b813581811115610e8057610e80610e1a565b604051601f8201601f19908116603f01168101908382118183101715610ea857610ea8610e1a565b81604052828152876020848701011115610ec157600080fd5b826020860160208301376000928101602001929092525095945050505050565b600060208284031215610ef357600080fd5b5035919050565b801515811461039557600080fd5b60008060408385031215610f1b57600080fd5b8235610f2681610de1565b91506020830135610f3681610efa565b809150509250929050565b60008060408385031215610f5457600080fd5b823591506020830135610f3681610de1565b60008083601f840112610f7857600080fd5b50813567ffffffffffffffff811115610f9057600080fd5b602083019150836020828501011115610fa857600080fd5b9250929050565b60008060008060608587031215610fc557600080fd5b843593506020850135610fd781610de1565b9250604085013567ffffffffffffffff811115610ff357600080fd5b610fff87828801610f66565b95989497509550505050565b60005b8381101561102657818101518382015260200161100e565b838111156103cb5750506000910152565b602081526000825180602084015261105681604085016020870161100b565b601f01601f19169190910160400192915050565b60008060006040848603121561107f57600080fd5b83359250602084013567ffffffffffffffff81111561109d57600080fd5b6110a986828701610f66565b9497909650939450505050565b6000806000606084860312156110cb57600080fd5b83516110d681610de1565b60208501519093506110e781610de1565b80925050604084015190509250925092565b6000806040838503121561110c57600080fd5b825161111781610de1565b6020939093015192949293505050565b6020808252602e908201527f496e697469616c697a61626c653a20636f6e747261637420697320616c72656160408201526d191e481a5b9a5d1a585b1a5e995960921b606082015260800190565b6000806040838503121561118857600080fd5b50508035926020909101359150565b634e487b7160e01b600052601160045260246000fd5b600082198211156111c0576111c0611197565b500190565b600080858511156111d557600080fd5b838611156111e257600080fd5b5050820193919092039150565b60008282101561120157611201611197565b500390565b6000825161121881846020870161100b565b9190910192915050565b60006020828403121561123457600080fd5b8151610e1381610efa56fea26469706673582212203baef1012569d336558d470bda9bbd70d066f29af6f2738641aad899dc240f4164736f6c634300080b0033",
  "linkReferences": {},
  "deployedLinkReferences": {}
}