{
  "_format": "hh-sol-artifact-1",
  "contractName": "ERC20HandlerUpgradeable",
  "sourceName": "contracts/handlers/ERC20HandlerUpgradeable.sol",
  "abi": [
    {
      "inputs": [],
      "name": "ProvidedTokenAddressIsNotWhitelisted",
      "type": "error"
    },
    {
      "inputs": [],
      "name": "_bridgeAddress",
      "outputs": [
        {
          "internalType": "address",
          "name": "",
          "type": "address"
        }
      ],
      "stateMutability": "view",
      "type": "function"
    },
    {
      "inputs": [
        {
          "internalType": "address",
          "name": "",
          "type": "address"
        }
      ],
      "name": "_burnList",
      "outputs": [
        {
          "internalType": "bool",
          "name": "",
          "type": "bool"
        }
      ],
      "stateMutability": "view",
      "type": "function"
    },
    {
      "inputs": [
        {
          "internalType": "address",
          "name": "",
          "type": "address"
        }
      ],
      "name": "_contractWhitelist",
      "outputs": [
        {
          "internalType": "bool",
          "name": "",
          "type": "bool"
        }
      ],
      "stateMutability": "view",
      "type": "function"
    },
    {
      "inputs": [
        {
          "internalType": "bytes32",
          "name": "",
          "type": "bytes32"
        }
      ],
      "name": "_resourceIDToTokenContractAddress",
      "outputs": [
        {
          "internalType": "address",
          "name": "",
          "type": "address"
        }
      ],
      "stateMutability": "view",
      "type": "function"
    },
    {
      "inputs": [
        {
          "internalType": "address",
          "name": "",
          "type": "address"
        }
      ],
      "name": "_tokenContractAddressToResourceID",
      "outputs": [
        {
          "internalType": "bytes32",
          "name": "",
          "type": "bytes32"
        }
      ],
      "stateMutability": "view",
      "type": "function"
    },
    {
      "inputs": [
        {
          "internalType": "bytes32",
          "name": "resourceID",
          "type": "bytes32"
        },
        {
          "internalType": "address",
          "name": "depositer",
          "type": "address"
        },
        {
          "internalType": "bytes",
          "name": "data",
          "type": "bytes"
        }
      ],
      "name": "deposit",
      "outputs": [
        {
          "internalType": "bytes",
          "name": "",
          "type": "bytes"
        }
      ],
      "stateMutability": "payable",
      "type": "function"
    },
    {
      "inputs": [
        {
          "internalType": "bytes32",
          "name": "resourceID",
          "type": "bytes32"
        },
        {
          "internalType": "bytes",
          "name": "data",
          "type": "bytes"
        }
      ],
      "name": "executeProposal",
      "outputs": [],
      "stateMutability": "nonpayable",
      "type": "function"
    },
    {
      "inputs": [
        {
          "internalType": "address",
          "name": "bridgeAddress",
          "type": "address"
        }
      ],
      "name": "initialize",
      "outputs": [],
      "stateMutability": "nonpayable",
      "type": "function"
    },
    {
      "inputs": [
        {
          "internalType": "address",
          "name": "",
          "type": "address"
        }
      ],
      "name": "isWtoken",
      "outputs": [
        {
          "internalType": "bool",
          "name": "",
          "type": "bool"
        }
      ],
      "stateMutability": "view",
      "type": "function"
    },
    {
      "inputs": [
        {
          "internalType": "address",
          "name": "contractAddress",
          "type": "address"
        }
      ],
      "name": "setBurnable",
      "outputs": [],
      "stateMutability": "nonpayable",
      "type": "function"
    },
    {
      "inputs": [
        {
          "internalType": "bytes32",
          "name": "resourceID",
          "type": "bytes32"
        },
        {
          "internalType": "address",
          "name": "contractAddress",
          "type": "address"
        }
      ],
      "name": "setResource",
      "outputs": [],
      "stateMutability": "nonpayable",
      "type": "function"
    },
    {
      "inputs": [
        {
          "internalType": "address",
          "name": "wtokenAddress",
          "type": "address"
        },
        {
          "internalType": "bool",
          "name": "_isWtoken",
          "type": "bool"
        }
      ],
      "name": "setWtoken",
      "outputs": [],
      "stateMutability": "nonpayable",
      "type": "function"
    },
    {
      "inputs": [
        {
          "internalType": "bytes",
          "name": "data",
          "type": "bytes"
        }
      ],
      "name": "withdraw",
      "outputs": [],
      "stateMutability": "nonpayable",
      "type": "function"
    },
    {
      "inputs": [],
      "name": "wtoken",
      "outputs": [
        {
          "internalType": "address",
          "name": "",
          "type": "address"
        }
      ],
      "stateMutability": "view",
      "type": "function"
    }
  ],
  "bytecode": "0x608060405234801561001057600080fd5b506111b6806100206000396000f3fe6080604052600436106100dd5760003560e01c80637f79bea81161007f578063b8fa373611610059578063b8fa37361461029d578063c4d66de8146102bd578063c8ba6c87146102dd578063e248cff21461031857600080fd5b80637f79bea81461022d5780639c0591c81461025d578063b07e54bb1461027d57600080fd5b80630a6d55d8116100bb5780630a6d55d8146101695780632129da19146101b7578063318c136e146101d75780636a70d081146101fd57600080fd5b8063045dff97146100e257806307b7ed99146101275780630968f26414610149575b600080fd5b3480156100ee57600080fd5b506101126100fd366004610d84565b60066020526000908152604090205460ff1681565b60405190151581526020015b60405180910390f35b34801561013357600080fd5b50610147610142366004610d84565b610338565b005b34801561015557600080fd5b50610147610164366004610dbe565b61034c565b34801561017557600080fd5b5061019f610184366004610e6f565b6002602052600090815260409020546001600160a01b031681565b6040516001600160a01b03909116815260200161011e565b3480156101c357600080fd5b506101476101d2366004610e96565b610385565b3480156101e357600080fd5b5060005461019f906201000090046001600160a01b031681565b34801561020957600080fd5b50610112610218366004610d84565b60056020526000908152604090205460ff1681565b34801561023957600080fd5b50610112610248366004610d84565b60046020526000908152604090205460ff1681565b34801561026957600080fd5b5060015461019f906001600160a01b031681565b61029061028b366004610f18565b6103b8565b60405161011e9190610fa0565b3480156102a957600080fd5b506101476102b8366004610fd3565b61049d565b3480156102c957600080fd5b506101476102d8366004610d84565b6104f8565b3480156102e957600080fd5b5061030a6102f8366004610d84565b60036020526000908152604090205481565b60405190815260200161011e565b34801561032457600080fd5b50610147610333366004610ff8565b61057c565b6103406106f6565b61034981610758565b50565b6103546106f6565b60008060008380602001905181019061036d9190611044565b9194509250905061037f8383836107f0565b50505050565b61038d6106f6565b6001600160a01b03919091166000908152600660205260409020805460ff1916911515919091179055565b60606103c26106f6565b60006103d083850185610e6f565b6000878152600260209081526040808320546001600160a01b03168084526004909252909120549192509060ff1661041b57604051631556d7e160e11b815260040160405180910390fd5b6001600160a01b03811660009081526005602052604090205460ff161561044c576104478187846107fc565b610483565b6001600160a01b03811660009081526006602052604090205460ff161561047757610447818361085e565b610483818730856108ed565b505060408051600081526020810190915295945050505050565b6104a56106f6565b600082815260026020908152604080832080546001600160a01b0319166001600160a01b03861690811790915583526003825280832085905560049091529020805460ff191660011790555050565b5050565b600054610100900460ff166105135760005460ff1615610517565b303b155b61053c5760405162461bcd60e51b815260040161053390611087565b60405180910390fd5b600054610100900460ff1615801561055e576000805461ffff19166101011790555b61056782610901565b80156104f4576000805461ff00191690555050565b6105846106f6565b6000806060610595848601866110d5565b9093509150846040856105a885836110f7565b926105b59392919061111d565b8080601f01602080910402602001604051908101604052809392919081815260200183838082843760009201829052508a815260026020908152604080832054828801516001600160a01b039091168085526004909352922054959650909490935060ff16915061067b90505760405162461bcd60e51b815260206004820152602860248201527f70726f766964656420746f6b656e41646472657373206973206e6f74207768696044820152671d195b1a5cdd195960c21b6064820152608401610533565b6001600160a01b03811660009081526005602052604090205460ff16156106af576106aa818360601c87610995565b6106ec565b6001600160a01b03811660009081526006602052604090205460ff16156106de576106aa818360601c876109cd565b6106ec818360601c876107f0565b5050505050505050565b6000546201000090046001600160a01b031633146107565760405162461bcd60e51b815260206004820152601e60248201527f73656e646572206d7573742062652062726964676520636f6e747261637400006044820152606401610533565b565b6001600160a01b03811660009081526004602052604090205460ff166107cc5760405162461bcd60e51b8152602060048201526024808201527f70726f766964656420636f6e7472616374206973206e6f742077686974656c696044820152631cdd195960e21b6064820152608401610533565b6001600160a01b03166000908152600560205260409020805460ff19166001179055565b8261037f818484610a7c565b60405163079cc67960e41b81526001600160a01b038381166004830152602482018390528491908216906379cc6790906044015b600060405180830381600087803b15801561084a57600080fd5b505af11580156106ec573d6000803e3d6000fd5b3481146108ad5760405162461bcd60e51b815260206004820152601d60248201527f6d73672e76616c756520616e642064617461206d69736d6174636865640000006044820152606401610533565b6000829050806001600160a01b031663d0e30db0836040518263ffffffff1660e01b81526004016000604051808303818588803b15801561084a57600080fd5b836108fa81858585610ae4565b5050505050565b600054610100900460ff1661091c5760005460ff1615610920565b303b155b61093c5760405162461bcd60e51b815260040161053390611087565b600054610100900460ff1615801561095e576000805461ffff19166101011790555b6000805462010000600160b01b031916620100006001600160a01b0385160217905580156104f4576000805461ff00191690555050565b6040516340c10f1960e01b81526001600160a01b038381166004830152602482018390528491908216906340c10f1990604401610830565b604051632e1a7d4d60e01b815260048101829052839047906001600160a01b03831690632e1a7d4d90602401600060405180830381600087803b158015610a1357600080fd5b505af1158015610a27573d6000803e3d6000fd5b50505050610a358484610b1c565b8047146108fa5760405162461bcd60e51b815260206004820152601560248201527445524332303a207769746864726177206661696c2160581b6044820152606401610533565b6040516001600160a01b038316602482015260448101829052610adf90849063a9059cbb60e01b906064015b60408051601f198184030181529190526020810180516001600160e01b03166001600160e01b031990931692909217909152610c1d565b505050565b6040516001600160a01b038085166024830152831660448201526064810182905261037f9085906323b872dd60e01b90608401610aa8565b600080836001600160a01b03168360405160006040518083038185875af1925050503d8060008114610b6a576040519150601f19603f3d011682016040523d82523d6000602084013e610b6f565b606091505b509150915081610bb65760405162461bcd60e51b8152602060048201526012602482015271115490cc8c0e8818d85b1b0819985a5b195960721b6044820152606401610533565b80511561037f5780806020019051810190610bd19190611147565b61037f5760405162461bcd60e51b815260206004820181905260248201527f45524332303a206f7065726174696f6e20646964206e6f7420737563636565646044820152606401610533565b813b80610c645760405162461bcd60e51b8152602060048201526015602482015274115490cc8c0e881b9bdd08184818dbdb9d1c9858dd605a1b6044820152606401610533565b600080846001600160a01b031684604051610c7f9190611164565b6000604051808303816000865af19150503d8060008114610cbc576040519150601f19603f3d011682016040523d82523d6000602084013e610cc1565b606091505b509150915081610d085760405162461bcd60e51b8152602060048201526012602482015271115490cc8c0e8818d85b1b0819985a5b195960721b6044820152606401610533565b8051156108fa5780806020019051810190610d239190611147565b6108fa5760405162461bcd60e51b815260206004820181905260248201527f45524332303a206f7065726174696f6e20646964206e6f7420737563636565646044820152606401610533565b6001600160a01b038116811461034957600080fd5b600060208284031215610d9657600080fd5b8135610da181610d6f565b9392505050565b634e487b7160e01b600052604160045260246000fd5b600060208284031215610dd057600080fd5b813567ffffffffffffffff80821115610de857600080fd5b818401915084601f830112610dfc57600080fd5b813581811115610e0e57610e0e610da8565b604051601f8201601f19908116603f01168101908382118183101715610e3657610e36610da8565b81604052828152876020848701011115610e4f57600080fd5b826020860160208301376000928101602001929092525095945050505050565b600060208284031215610e8157600080fd5b5035919050565b801515811461034957600080fd5b60008060408385031215610ea957600080fd5b8235610eb481610d6f565b91506020830135610ec481610e88565b809150509250929050565b60008083601f840112610ee157600080fd5b50813567ffffffffffffffff811115610ef957600080fd5b602083019150836020828501011115610f1157600080fd5b9250929050565b60008060008060608587031215610f2e57600080fd5b843593506020850135610f4081610d6f565b9250604085013567ffffffffffffffff811115610f5c57600080fd5b610f6887828801610ecf565b95989497509550505050565b60005b83811015610f8f578181015183820152602001610f77565b8381111561037f5750506000910152565b6020815260008251806020840152610fbf816040850160208701610f74565b601f01601f19169190910160400192915050565b60008060408385031215610fe657600080fd5b823591506020830135610ec481610d6f565b60008060006040848603121561100d57600080fd5b83359250602084013567ffffffffffffffff81111561102b57600080fd5b61103786828701610ecf565b9497909650939450505050565b60008060006060848603121561105957600080fd5b835161106481610d6f565b602085015190935061107581610d6f565b80925050604084015190509250925092565b6020808252602e908201527f496e697469616c697a61626c653a20636f6e747261637420697320616c72656160408201526d191e481a5b9a5d1a585b1a5e995960921b606082015260800190565b600080604083850312156110e857600080fd5b50508035926020909101359150565b6000821982111561111857634e487b7160e01b600052601160045260246000fd5b500190565b6000808585111561112d57600080fd5b8386111561113a57600080fd5b5050820193919092039150565b60006020828403121561115957600080fd5b8151610da181610e88565b60008251611176818460208701610f74565b919091019291505056fea26469706673582212207e5295df07205b05a99394a61588ed6cb62e9ca385c421067fd7ab3b6636280764736f6c634300080b0033",
  "linkReferences": {},
  "deployedLinkReferences": {}
}