{
  "_format": "hh-sol-artifact-1",
  "contractName": "BridgeUpgradeable",
  "sourceName": "contracts/BridgeUpgradeable.sol",
  "abi": [
    {
      "inputs": [
        {
          "internalType": "uint256",
          "name": "msgValue",
          "type": "uint256"
        },
        {
          "internalType": "uint256",
          "name": "fee",
          "type": "uint256"
        }
      ],
      "name": "IncorrectFeeSupplied",
      "type": "error"
    },
    {
      "inputs": [
        {
          "internalType": "address",
          "name": "signer",
          "type": "address"
        },
        {
          "internalType": "uint256",
          "name": "index",
          "type": "uint256"
        }
      ],
      "name": "InvalidSignature",
      "type": "error"
    },
    {
      "inputs": [],
      "name": "ResourceIDNotMappedToHandler",
      "type": "error"
    },
    {
      "anonymous": false,
      "inputs": [
        {
          "indexed": false,
          "internalType": "uint8",
          "name": "destinationDomainID",
          "type": "uint8"
        },
        {
          "indexed": false,
          "internalType": "bytes32",
          "name": "resourceID",
          "type": "bytes32"
        },
        {
          "indexed": false,
          "internalType": "uint64",
          "name": "depositNonce",
          "type": "uint64"
        },
        {
          "indexed": true,
          "internalType": "address",
          "name": "user",
          "type": "address"
        },
        {
          "indexed": false,
          "internalType": "bytes",
          "name": "data",
          "type": "bytes"
        },
        {
          "indexed": false,
          "internalType": "bytes",
          "name": "handlerResponse",
          "type": "bytes"
        }
      ],
      "name": "Deposit",
      "type": "event"
    },
    {
      "anonymous": false,
      "inputs": [
        {
          "indexed": false,
          "internalType": "bytes",
          "name": "lowLevelData",
          "type": "bytes"
        }
      ],
      "name": "FailedHandlerExecution",
      "type": "event"
    },
    {
      "anonymous": false,
      "inputs": [
        {
          "indexed": false,
          "internalType": "uint256",
          "name": "newFee",
          "type": "uint256"
        }
      ],
      "name": "FeeChanged",
      "type": "event"
    },
    {
      "anonymous": false,
      "inputs": [
        {
          "indexed": false,
          "internalType": "address",
          "name": "tokenAddress",
          "type": "address"
        },
        {
          "indexed": false,
          "internalType": "address",
          "name": "recipient",
          "type": "address"
        },
        {
          "indexed": false,
          "internalType": "uint256",
          "name": "amount",
          "type": "uint256"
        }
      ],
      "name": "FeeDistributed",
      "type": "event"
    },
    {
      "anonymous": false,
      "inputs": [
        {
          "indexed": false,
          "internalType": "address",
          "name": "newFeeHandler",
          "type": "address"
        }
      ],
      "name": "FeeHandlerChanged",
      "type": "event"
    },
    {
      "anonymous": false,
      "inputs": [
        {
          "indexed": false,
          "internalType": "address",
          "name": "account",
          "type": "address"
        }
      ],
      "name": "Paused",
      "type": "event"
    },
    {
      "anonymous": false,
      "inputs": [
        {
          "indexed": false,
          "internalType": "uint8",
          "name": "originDomainID",
          "type": "uint8"
        },
        {
          "indexed": false,
          "internalType": "uint64",
          "name": "depositNonce",
          "type": "uint64"
        },
        {
          "indexed": false,
          "internalType": "enum IBridge.ProposalStatus",
          "name": "status",
          "type": "uint8"
        },
        {
          "indexed": false,
          "internalType": "bytes32",
          "name": "dataHash",
          "type": "bytes32"
        }
      ],
      "name": "ProposalEvent",
      "type": "event"
    },
    {
      "anonymous": false,
      "inputs": [
        {
          "indexed": false,
          "internalType": "uint8",
          "name": "originDomainID",
          "type": "uint8"
        },
        {
          "indexed": false,
          "internalType": "uint64",
          "name": "depositNonce",
          "type": "uint64"
        },
        {
          "indexed": false,
          "internalType": "enum IBridge.ProposalStatus",
          "name": "status",
          "type": "uint8"
        },
        {
          "indexed": false,
          "internalType": "bytes32",
          "name": "dataHash",
          "type": "bytes32"
        }
      ],
      "name": "ProposalVote",
      "type": "event"
    },
    {
      "anonymous": false,
      "inputs": [
        {
          "indexed": false,
          "internalType": "address",
          "name": "relayer",
          "type": "address"
        }
      ],
      "name": "RelayerAdded",
      "type": "event"
    },
    {
      "anonymous": false,
      "inputs": [
        {
          "indexed": false,
          "internalType": "address",
          "name": "relayer",
          "type": "address"
        }
      ],
      "name": "RelayerRemoved",
      "type": "event"
    },
    {
      "anonymous": false,
      "inputs": [
        {
          "indexed": false,
          "internalType": "uint256",
          "name": "newThreshold",
          "type": "uint256"
        }
      ],
      "name": "RelayerThresholdChanged",
      "type": "event"
    },
    {
      "anonymous": false,
      "inputs": [
        {
          "indexed": true,
          "internalType": "bytes32",
          "name": "role",
          "type": "bytes32"
        },
        {
          "indexed": true,
          "internalType": "address",
          "name": "account",
          "type": "address"
        },
        {
          "indexed": true,
          "internalType": "address",
          "name": "sender",
          "type": "address"
        }
      ],
      "name": "RoleGranted",
      "type": "event"
    },
    {
      "anonymous": false,
      "inputs": [
        {
          "indexed": true,
          "internalType": "bytes32",
          "name": "role",
          "type": "bytes32"
        },
        {
          "indexed": true,
          "internalType": "address",
          "name": "account",
          "type": "address"
        },
        {
          "indexed": true,
          "internalType": "address",
          "name": "sender",
          "type": "address"
        }
      ],
      "name": "RoleRevoked",
      "type": "event"
    },
    {
      "anonymous": false,
      "inputs": [
        {
          "indexed": false,
          "internalType": "address",
          "name": "account",
          "type": "address"
        }
      ],
      "name": "Unpaused",
      "type": "event"
    },
    {
      "inputs": [],
      "name": "DEFAULT_ADMIN_ROLE",
      "outputs": [
        {
          "internalType": "bytes32",
          "name": "",
          "type": "bytes32"
        }
      ],
      "stateMutability": "view",
      "type": "function"
    },
    {
      "inputs": [],
      "name": "MAX_RELAYERS",
      "outputs": [
        {
          "internalType": "uint256",
          "name": "",
          "type": "uint256"
        }
      ],
      "stateMutability": "view",
      "type": "function"
    },
    {
      "inputs": [],
      "name": "PERMIT_TYPEHASH",
      "outputs": [
        {
          "internalType": "bytes32",
          "name": "",
          "type": "bytes32"
        }
      ],
      "stateMutability": "view",
      "type": "function"
    },
    {
      "inputs": [],
      "name": "RELAYER_ROLE",
      "outputs": [
        {
          "internalType": "bytes32",
          "name": "",
          "type": "bytes32"
        }
      ],
      "stateMutability": "view",
      "type": "function"
    },
    {
      "inputs": [],
      "name": "_chainId",
      "outputs": [
        {
          "internalType": "uint256",
          "name": "",
          "type": "uint256"
        }
      ],
      "stateMutability": "view",
      "type": "function"
    },
    {
      "inputs": [
        {
          "internalType": "uint8",
          "name": "",
          "type": "uint8"
        }
      ],
      "name": "_depositCounts",
      "outputs": [
        {
          "internalType": "uint64",
          "name": "",
          "type": "uint64"
        }
      ],
      "stateMutability": "view",
      "type": "function"
    },
    {
      "inputs": [],
      "name": "_domainID",
      "outputs": [
        {
          "internalType": "uint8",
          "name": "",
          "type": "uint8"
        }
      ],
      "stateMutability": "view",
      "type": "function"
    },
    {
      "inputs": [],
      "name": "_expiry",
      "outputs": [
        {
          "internalType": "uint40",
          "name": "",
          "type": "uint40"
        }
      ],
      "stateMutability": "view",
      "type": "function"
    },
    {
      "inputs": [],
      "name": "_fee",
      "outputs": [
        {
          "internalType": "uint256",
          "name": "",
          "type": "uint256"
        }
      ],
      "stateMutability": "view",
      "type": "function"
    },
    {
      "inputs": [],
      "name": "_feeHandler",
      "outputs": [
        {
          "internalType": "contract IFeeHandler",
          "name": "",
          "type": "address"
        }
      ],
      "stateMutability": "view",
      "type": "function"
    },
    {
      "inputs": [],
      "name": "_feeReserve",
      "outputs": [
        {
          "internalType": "uint256",
          "name": "",
          "type": "uint256"
        }
      ],
      "stateMutability": "view",
      "type": "function"
    },
    {
      "inputs": [],
      "name": "_fee_",
      "outputs": [
        {
          "internalType": "uint256",
          "name": "",
          "type": "uint256"
        }
      ],
      "stateMutability": "view",
      "type": "function"
    },
    {
      "inputs": [
        {
          "internalType": "uint72",
          "name": "destNonce",
          "type": "uint72"
        },
        {
          "internalType": "bytes32",
          "name": "dataHash",
          "type": "bytes32"
        },
        {
          "internalType": "address",
          "name": "relayer",
          "type": "address"
        }
      ],
      "name": "_hasVotedOnProposal",
      "outputs": [
        {
          "internalType": "bool",
          "name": "",
          "type": "bool"
        }
      ],
      "stateMutability": "view",
      "type": "function"
    },
    {
      "inputs": [],
      "name": "_relayerThreshold",
      "outputs": [
        {
          "internalType": "uint8",
          "name": "",
          "type": "uint8"
        }
      ],
      "stateMutability": "view",
      "type": "function"
    },
    {
      "inputs": [
        {
          "internalType": "bytes32",
          "name": "",
          "type": "bytes32"
        }
      ],
      "name": "_resourceIDToHandlerAddress",
      "outputs": [
        {
          "internalType": "address",
          "name": "",
          "type": "address"
        }
      ],
      "stateMutability": "view",
      "type": "function"
    },
    {
      "inputs": [],
      "name": "_totalRelayers",
      "outputs": [
        {
          "internalType": "uint256",
          "name": "",
          "type": "uint256"
        }
      ],
      "stateMutability": "view",
      "type": "function"
    },
    {
      "inputs": [
        {
          "internalType": "address",
          "name": "relayerAddress",
          "type": "address"
        }
      ],
      "name": "adminAddRelayer",
      "outputs": [],
      "stateMutability": "nonpayable",
      "type": "function"
    },
    {
      "inputs": [
        {
          "internalType": "uint256",
          "name": "expiry",
          "type": "uint256"
        }
      ],
      "name": "adminChangeExpiry",
      "outputs": [],
      "stateMutability": "nonpayable",
      "type": "function"
    },
    {
      "inputs": [
        {
          "internalType": "uint256",
          "name": "newThreshold",
          "type": "uint256"
        }
      ],
      "name": "adminChangeRelayerThreshold",
      "outputs": [],
      "stateMutability": "nonpayable",
      "type": "function"
    },
    {
      "inputs": [],
      "name": "adminPauseTransfers",
      "outputs": [],
      "stateMutability": "nonpayable",
      "type": "function"
    },
    {
      "inputs": [
        {
          "internalType": "address",
          "name": "handlerAddress",
          "type": "address"
        },
        {
          "internalType": "bytes32",
          "name": "resourceID",
          "type": "bytes32"
        },
        {
          "internalType": "address",
          "name": "contractAddress",
          "type": "address"
        }
      ],
      "name": "adminRemoveGenericResource",
      "outputs": [],
      "stateMutability": "nonpayable",
      "type": "function"
    },
    {
      "inputs": [
        {
          "internalType": "address",
          "name": "handlerAddress",
          "type": "address"
        }
      ],
      "name": "adminRemoveNativeResourceId",
      "outputs": [],
      "stateMutability": "nonpayable",
      "type": "function"
    },
    {
      "inputs": [
        {
          "internalType": "address",
          "name": "relayerAddress",
          "type": "address"
        }
      ],
      "name": "adminRemoveRelayer",
      "outputs": [],
      "stateMutability": "nonpayable",
      "type": "function"
    },
    {
      "inputs": [
        {
          "internalType": "address",
          "name": "handlerAddress",
          "type": "address"
        },
        {
          "internalType": "bytes32",
          "name": "resourceID",
          "type": "bytes32"
        },
        {
          "internalType": "address",
          "name": "tokenAddress",
          "type": "address"
        }
      ],
      "name": "adminRemoveResourceId",
      "outputs": [],
      "stateMutability": "nonpayable",
      "type": "function"
    },
    {
      "inputs": [
        {
          "internalType": "uint8",
          "name": "fromDomainID",
          "type": "uint8"
        }
      ],
      "name": "adminRemoveSpecialFee",
      "outputs": [],
      "stateMutability": "nonpayable",
      "type": "function"
    },
    {
      "inputs": [
        {
          "internalType": "address",
          "name": "handlerAddress",
          "type": "address"
        },
        {
          "internalType": "address",
          "name": "tokenAddress",
          "type": "address"
        }
      ],
      "name": "adminSetBurnable",
      "outputs": [],
      "stateMutability": "nonpayable",
      "type": "function"
    },
    {
      "inputs": [
        {
          "internalType": "uint8",
          "name": "domainID",
          "type": "uint8"
        },
        {
          "internalType": "uint64",
          "name": "nonce",
          "type": "uint64"
        }
      ],
      "name": "adminSetDepositNonce",
      "outputs": [],
      "stateMutability": "nonpayable",
      "type": "function"
    },
    {
      "inputs": [
        {
          "internalType": "uint8",
          "name": "domainID",
          "type": "uint8"
        }
      ],
      "name": "adminSetDomainId",
      "outputs": [],
      "stateMutability": "nonpayable",
      "type": "function"
    },
    {
      "inputs": [
        {
          "internalType": "uint256",
          "name": "newFee",
          "type": "uint256"
        }
      ],
      "name": "adminSetFee",
      "outputs": [],
      "stateMutability": "nonpayable",
      "type": "function"
    },
    {
      "inputs": [
        {
          "internalType": "address",
          "name": "forwarder",
          "type": "address"
        },
        {
          "internalType": "bool",
          "name": "valid",
          "type": "bool"
        }
      ],
      "name": "adminSetForwarder",
      "outputs": [],
      "stateMutability": "nonpayable",
      "type": "function"
    },
    {
      "inputs": [
        {
          "internalType": "address",
          "name": "handlerAddress",
          "type": "address"
        },
        {
          "internalType": "bytes32",
          "name": "resourceID",
          "type": "bytes32"
        },
        {
          "internalType": "address",
          "name": "contractAddress",
          "type": "address"
        },
        {
          "internalType": "bytes4",
          "name": "depositFunctionSig",
          "type": "bytes4"
        },
        {
          "internalType": "uint256",
          "name": "depositFunctionDepositorOffset",
          "type": "uint256"
        },
        {
          "internalType": "bytes4",
          "name": "executeFunctionSig",
          "type": "bytes4"
        }
      ],
      "name": "adminSetGenericResource",
      "outputs": [],
      "stateMutability": "nonpayable",
      "type": "function"
    },
    {
      "inputs": [
        {
          "internalType": "bytes32",
          "name": "resourceID",
          "type": "bytes32"
        },
        {
          "internalType": "address",
          "name": "nativeAddress",
          "type": "address"
        },
        {
          "internalType": "bool",
          "name": "isNative",
          "type": "bool"
        }
      ],
      "name": "adminSetNative",
      "outputs": [],
      "stateMutability": "nonpayable",
      "type": "function"
    },
    {
      "inputs": [
        {
          "internalType": "address",
          "name": "handlerAddress",
          "type": "address"
        }
      ],
      "name": "adminSetNativeResource",
      "outputs": [],
      "stateMutability": "nonpayable",
      "type": "function"
    },
    {
      "inputs": [
        {
          "internalType": "address",
          "name": "handlerAddress",
          "type": "address"
        },
        {
          "internalType": "bytes32",
          "name": "resourceID",
          "type": "bytes32"
        },
        {
          "internalType": "address",
          "name": "tokenAddress",
          "type": "address"
        }
      ],
      "name": "adminSetResource",
      "outputs": [],
      "stateMutability": "nonpayable",
      "type": "function"
    },
    {
      "inputs": [
        {
          "internalType": "uint8",
          "name": "fromDomainID",
          "type": "uint8"
        },
        {
          "internalType": "uint256",
          "name": "_specialFee",
          "type": "uint256"
        }
      ],
      "name": "adminSetSpecialFee",
      "outputs": [],
      "stateMutability": "nonpayable",
      "type": "function"
    },
    {
      "inputs": [],
      "name": "adminUnpauseTransfers",
      "outputs": [],
      "stateMutability": "nonpayable",
      "type": "function"
    },
    {
      "inputs": [
        {
          "internalType": "address",
          "name": "handlerAddress",
          "type": "address"
        },
        {
          "internalType": "bytes",
          "name": "data",
          "type": "bytes"
        }
      ],
      "name": "adminWithdraw",
      "outputs": [],
      "stateMutability": "nonpayable",
      "type": "function"
    },
    {
      "inputs": [
        {
          "internalType": "address",
          "name": "handlerAddress",
          "type": "address"
        },
        {
          "internalType": "bytes",
          "name": "data",
          "type": "bytes"
        }
      ],
      "name": "adminWithdrawETH",
      "outputs": [],
      "stateMutability": "nonpayable",
      "type": "function"
    },
    {
      "inputs": [
        {
          "internalType": "uint8",
          "name": "domainID",
          "type": "uint8"
        },
        {
          "internalType": "uint64",
          "name": "depositNonce",
          "type": "uint64"
        },
        {
          "internalType": "bytes32",
          "name": "dataHash",
          "type": "bytes32"
        }
      ],
      "name": "cancelProposal",
      "outputs": [],
      "stateMutability": "nonpayable",
      "type": "function"
    },
    {
      "inputs": [
        {
          "internalType": "uint8",
          "name": "domainID",
          "type": "uint8"
        },
        {
          "internalType": "uint64",
          "name": "depositNonce",
          "type": "uint64"
        },
        {
          "internalType": "bytes32",
          "name": "resourceID",
          "type": "bytes32"
        },
        {
          "internalType": "bytes",
          "name": "data",
          "type": "bytes"
        },
        {
          "internalType": "bytes",
          "name": "signature",
          "type": "bytes"
        }
      ],
      "name": "checkSignature",
      "outputs": [
        {
          "internalType": "bool",
          "name": "",
          "type": "bool"
        }
      ],
      "stateMutability": "view",
      "type": "function"
    },
    {
      "inputs": [
        {
          "internalType": "uint8",
          "name": "destinationDomainID",
          "type": "uint8"
        },
        {
          "internalType": "bytes32",
          "name": "resourceID",
          "type": "bytes32"
        },
        {
          "internalType": "bytes",
          "name": "depositData",
          "type": "bytes"
        },
        {
          "internalType": "bytes",
          "name": "feeData",
          "type": "bytes"
        }
      ],
      "name": "deposit",
      "outputs": [],
      "stateMutability": "payable",
      "type": "function"
    },
    {
      "inputs": [
        {
          "internalType": "uint8",
          "name": "domainID",
          "type": "uint8"
        },
        {
          "internalType": "uint64",
          "name": "depositNonce",
          "type": "uint64"
        },
        {
          "internalType": "bytes",
          "name": "data",
          "type": "bytes"
        },
        {
          "internalType": "bytes32",
          "name": "resourceID",
          "type": "bytes32"
        },
        {
          "internalType": "bool",
          "name": "revertOnFail",
          "type": "bool"
        }
      ],
      "name": "executeProposal",
      "outputs": [],
      "stateMutability": "nonpayable",
      "type": "function"
    },
    {
      "inputs": [
        {
          "internalType": "uint8",
          "name": "originDomainID",
          "type": "uint8"
        },
        {
          "internalType": "uint64",
          "name": "depositNonce",
          "type": "uint64"
        },
        {
          "internalType": "bytes32",
          "name": "resourceID",
          "type": "bytes32"
        },
        {
          "internalType": "bytes",
          "name": "data",
          "type": "bytes"
        }
      ],
      "name": "getProposal",
      "outputs": [
        {
          "components": [
            {
              "internalType": "enum IBridge.ProposalStatus",
              "name": "_status",
              "type": "uint8"
            },
            {
              "internalType": "uint200",
              "name": "_yesVotes",
              "type": "uint200"
            },
            {
              "internalType": "uint8",
              "name": "_yesVotesTotal",
              "type": "uint8"
            },
            {
              "internalType": "uint40",
              "name": "_proposedBlock",
              "type": "uint40"
            }
          ],
          "internalType": "struct IBridge.Proposal",
          "name": "",
          "type": "tuple"
        }
      ],
      "stateMutability": "view",
      "type": "function"
    },
    {
      "inputs": [
        {
          "internalType": "bytes32",
          "name": "role",
          "type": "bytes32"
        }
      ],
      "name": "getRoleAdmin",
      "outputs": [
        {
          "internalType": "bytes32",
          "name": "",
          "type": "bytes32"
        }
      ],
      "stateMutability": "view",
      "type": "function"
    },
    {
      "inputs": [
        {
          "internalType": "bytes32",
          "name": "role",
          "type": "bytes32"
        },
        {
          "internalType": "uint256",
          "name": "index",
          "type": "uint256"
        }
      ],
      "name": "getRoleMember",
      "outputs": [
        {
          "internalType": "address",
          "name": "",
          "type": "address"
        }
      ],
      "stateMutability": "view",
      "type": "function"
    },
    {
      "inputs": [
        {
          "internalType": "bytes32",
          "name": "role",
          "type": "bytes32"
        }
      ],
      "name": "getRoleMemberCount",
      "outputs": [
        {
          "internalType": "uint256",
          "name": "",
          "type": "uint256"
        }
      ],
      "stateMutability": "view",
      "type": "function"
    },
    {
      "inputs": [
        {
          "internalType": "bytes32",
          "name": "role",
          "type": "bytes32"
        },
        {
          "internalType": "address",
          "name": "account",
          "type": "address"
        }
      ],
      "name": "getRoleMemberIndex",
      "outputs": [
        {
          "internalType": "uint256",
          "name": "",
          "type": "uint256"
        }
      ],
      "stateMutability": "view",
      "type": "function"
    },
    {
      "inputs": [
        {
          "internalType": "bytes32",
          "name": "role",
          "type": "bytes32"
        },
        {
          "internalType": "address",
          "name": "account",
          "type": "address"
        }
      ],
      "name": "grantRole",
      "outputs": [],
      "stateMutability": "nonpayable",
      "type": "function"
    },
    {
      "inputs": [
        {
          "internalType": "bytes32",
          "name": "role",
          "type": "bytes32"
        },
        {
          "internalType": "address",
          "name": "account",
          "type": "address"
        }
      ],
      "name": "hasRole",
      "outputs": [
        {
          "internalType": "bool",
          "name": "",
          "type": "bool"
        }
      ],
      "stateMutability": "view",
      "type": "function"
    },
    {
      "inputs": [
        {
          "internalType": "uint8",
          "name": "domainID",
          "type": "uint8"
        },
        {
          "internalType": "address[]",
          "name": "initialRelayers",
          "type": "address[]"
        },
        {
          "internalType": "uint256",
          "name": "initialRelayerThreshold",
          "type": "uint256"
        },
        {
          "internalType": "uint256",
          "name": "expiry",
          "type": "uint256"
        },
        {
          "internalType": "address",
          "name": "admin",
          "type": "address"
        }
      ],
      "name": "initialize",
      "outputs": [],
      "stateMutability": "nonpayable",
      "type": "function"
    },
    {
      "inputs": [
        {
          "internalType": "address",
          "name": "relayer",
          "type": "address"
        }
      ],
      "name": "isRelayer",
      "outputs": [
        {
          "internalType": "bool",
          "name": "",
          "type": "bool"
        }
      ],
      "stateMutability": "view",
      "type": "function"
    },
    {
      "inputs": [
        {
          "internalType": "address",
          "name": "",
          "type": "address"
        }
      ],
      "name": "isValidForwarder",
      "outputs": [
        {
          "internalType": "bool",
          "name": "",
          "type": "bool"
        }
      ],
      "stateMutability": "view",
      "type": "function"
    },
    {
      "inputs": [],
      "name": "paused",
      "outputs": [
        {
          "internalType": "bool",
          "name": "",
          "type": "bool"
        }
      ],
      "stateMutability": "view",
      "type": "function"
    },
    {
      "inputs": [
        {
          "internalType": "address",
          "name": "newAdmin",
          "type": "address"
        }
      ],
      "name": "renounceAdmin",
      "outputs": [],
      "stateMutability": "nonpayable",
      "type": "function"
    },
    {
      "inputs": [
        {
          "internalType": "bytes32",
          "name": "role",
          "type": "bytes32"
        },
        {
          "internalType": "address",
          "name": "account",
          "type": "address"
        }
      ],
      "name": "renounceRole",
      "outputs": [],
      "stateMutability": "nonpayable",
      "type": "function"
    },
    {
      "inputs": [
        {
          "internalType": "bytes32",
          "name": "role",
          "type": "bytes32"
        },
        {
          "internalType": "address",
          "name": "account",
          "type": "address"
        }
      ],
      "name": "revokeRole",
      "outputs": [],
      "stateMutability": "nonpayable",
      "type": "function"
    },
    {
      "inputs": [
        {
          "internalType": "uint8",
          "name": "",
          "type": "uint8"
        }
      ],
      "name": "special",
      "outputs": [
        {
          "internalType": "bool",
          "name": "",
          "type": "bool"
        }
      ],
      "stateMutability": "view",
      "type": "function"
    },
    {
      "inputs": [
        {
          "internalType": "uint8",
          "name": "",
          "type": "uint8"
        }
      ],
      "name": "specialFee",
      "outputs": [
        {
          "internalType": "uint256",
          "name": "",
          "type": "uint256"
        }
      ],
      "stateMutability": "view",
      "type": "function"
    },
    {
      "inputs": [
        {
          "internalType": "address payable[]",
          "name": "addrs",
          "type": "address[]"
        },
        {
          "internalType": "uint256[]",
          "name": "amounts",
          "type": "uint256[]"
        }
      ],
      "name": "transferFee",
      "outputs": [],
      "stateMutability": "nonpayable",
      "type": "function"
    },
    {
      "inputs": [
        {
          "internalType": "uint8",
          "name": "domainID",
          "type": "uint8"
        },
        {
          "internalType": "uint64",
          "name": "depositNonce",
          "type": "uint64"
        },
        {
          "internalType": "bytes32",
          "name": "resourceID",
          "type": "bytes32"
        },
        {
          "internalType": "bytes",
          "name": "data",
          "type": "bytes"
        }
      ],
      "name": "voteProposal",
      "outputs": [],
      "stateMutability": "nonpayable",
      "type": "function"
    },
    {
      "inputs": [
        {
          "internalType": "uint8",
          "name": "domainID",
          "type": "uint8"
        },
        {
          "internalType": "uint64",
          "name": "depositNonce",
          "type": "uint64"
        },
        {
          "internalType": "bytes32",
          "name": "resourceID",
          "type": "bytes32"
        },
        {
          "internalType": "bytes",
          "name": "data",
          "type": "bytes"
        },
        {
          "internalType": "bytes[]",
          "name": "signatures",
          "type": "bytes[]"
        }
      ],
      "name": "voteProposals",
      "outputs": [],
      "stateMutability": "nonpayable",
      "type": "function"
    }
  ],
  "bytecode": "0x608060405234801561001057600080fd5b506148d9806100206000396000f3fe6080604052600436106103a25760003560e01c80639010d07c116101e7578063c5b37c221161010d578063e2469d40116100a0578063fe4648f41161006f578063fe4648f414610b60578063fe65c4be14610b8b578063fe6718a61461098c578063ffaac0eb14610bab57600080fd5b8063e2469d4014610ada578063e7b14b5a14610afa578063edc20c3c14610b10578063f8c39e4414610b3057600080fd5b8063cdb0f73a116100dc578063cdb0f73a14610a5b578063d15ef64e14610a7b578063d547741f14610a9b578063d7a9cd7914610abb57600080fd5b8063c5b37c22146109cc578063c5ec8970146109e1578063ca15c87314610a1b578063cb10f21514610a3b57600080fd5b80639debb3bd11610185578063b67a4aaf11610154578063b67a4aaf1461093f578063bd2a18201461096c578063bea916f21461098c578063c0331b3e146109ac57600080fd5b80639debb3bd146108c8578063a06fbbff146108dd578063a217fddf146108fd578063a5c621f21461091257600080fd5b8063926d7d7f116101c1578063926d7d7f1461084457806393cbe783146108665780639d82dd631461087c5780639dd694f41461089c57600080fd5b80639010d07c146107e4578063904e9b2b1461080457806391d148541461082457600080fd5b80635c975abb116102cc578063747734121161026a57806380ae1c281161023957806380ae1c281461074157806384db809f1461075657806388b73be0146107a45780638c0c2631146107c457600080fd5b806374773412146106d95780637d026d96146106ec5780637febe63f1461070c578063802aabe81461072c57600080fd5b80636d3b6eea116102a65780636d3b6eea146106665780636e2047bc146106865780637292dd91146106a657806373c45c98146106c657600080fd5b80635c975abb146105fe5780635e1fab0f1461061657806362abd9ce1461063657600080fd5b806336568abe116103445780634e37850a116103135780634e37850a1461056e5780634f2c0aec1461058e578063541d5548146105ae5780635a1ad87c146105de57600080fd5b806336568abe146104c05780634b0b919d146104e05780634e0560051461052e5780634e0df3f61461054e57600080fd5b8063248a9ca311610380578063248a9ca3146104095780632edb6f7c1461044c5780632f2ff15d1461046c57806330adf81f1461048c57600080fd5b80630d7d75b3146103a757806317f03ce5146103c9578063206a98fd146103e9575b600080fd5b3480156103b357600080fd5b506103c76103c2366004613b7d565b610bc0565b005b3480156103d557600080fd5b506103c76103e4366004613c67565b610d51565b3480156103f557600080fd5b506103c7610404366004613cf4565b610fe1565b34801561041557600080fd5b50610439610424366004613d70565b60009081526099602052604090206002015490565b6040519081526020015b60405180910390f35b34801561045857600080fd5b506103c7610467366004613d89565b6112c6565b34801561047857600080fd5b506103c7610487366004613da6565b611377565b34801561049857600080fd5b506104397fc4cb5d35714699d6e85b9562b644e60393b418d974a5c1dd8efaadac37a142c581565b3480156104cc57600080fd5b506103c76104db366004613da6565b611407565b3480156104ec57600080fd5b506105166104fb366004613dd6565b609b602052600090815260409020546001600160401b031681565b6040516001600160401b039091168152602001610443565b34801561053a57600080fd5b506103c7610549366004613d70565b611419565b34801561055a57600080fd5b50610439610569366004613da6565b61147c565b34801561057a57600080fd5b506103c7610589366004613dd6565b6114a9565b34801561059a57600080fd5b506103c76105a9366004613d70565b6114d7565b3480156105ba57600080fd5b506105ce6105c9366004613d89565b611566565b6040519015158152602001610443565b3480156105ea57600080fd5b506103c76105f9366004613e09565b611580565b34801561060a57600080fd5b5060355460ff166105ce565b34801561062257600080fd5b506103c7610631366004613d89565b611636565b34801561064257600080fd5b506105ce610651366004613dd6565b60a26020526000908152604090205460ff1681565b34801561067257600080fd5b506103c7610681366004613edf565b6116c2565b34801561069257600080fd5b506103c76106a1366004613f2e565b61172f565b3480156106b257600080fd5b506103c76106c1366004613f58565b611762565b6103c76106d436600461405c565b611c0d565b3480156106e557600080fd5b5046610439565b3480156106f857600080fd5b506103c7610707366004613d70565b611c30565b34801561071857600080fd5b506105ce6107273660046140e5565b611c66565b34801561073857600080fd5b50610439611d0a565b34801561074d57600080fd5b506103c7611d28565b34801561076257600080fd5b5061078c610771366004613d70565b609c602052600090815260409020546001600160a01b031681565b6040516001600160a01b039091168152602001610443565b3480156107b057600080fd5b506103c76107bf366004614133565b611d42565b3480156107d057600080fd5b506103c76107df366004614171565b611d93565b3480156107f057600080fd5b5061078c6107ff36600461419f565b611dcc565b34801561081057600080fd5b506103c761081f366004614205565b611deb565b34801561083057600080fd5b506105ce61083f366004613da6565b611fe1565b34801561085057600080fd5b5061043960008051602061488483398151915281565b34801561087257600080fd5b50610439609f5481565b34801561088857600080fd5b506103c7610897366004613d89565b611ff9565b3480156108a857600080fd5b50609a546108b69060ff1681565b60405160ff9091168152602001610443565b3480156108d457600080fd5b5061043960c881565b3480156108e957600080fd5b506103c76108f8366004613dd6565b61205a565b34801561090957600080fd5b50610439600081565b34801561091e57600080fd5b5061093261092d366004614270565b612078565b6040516104439190614316565b34801561094b57600080fd5b5061043961095a366004613dd6565b60a16020526000908152604090205481565b34801561097857600080fd5b506103c7610987366004613edf565b612187565b34801561099857600080fd5b506103c76109a736600461435f565b6121bd565b3480156109b857600080fd5b506103c76109c7366004614270565b612219565b3480156109d857600080fd5b50609f54610439565b3480156109ed57600080fd5b50609a54610a059062010000900464ffffffffff1681565b60405164ffffffffff9091168152602001610443565b348015610a2757600080fd5b50610439610a36366004613d70565b61274f565b348015610a4757600080fd5b506103c7610a5636600461435f565b612766565b348015610a6757600080fd5b506103c7610a76366004613d89565b6127c7565b348015610a8757600080fd5b506103c7610a9636600461437f565b612870565b348015610aa757600080fd5b506103c7610ab6366004613da6565b6128a3565b348015610ac757600080fd5b50609a546108b690610100900460ff1681565b348015610ae657600080fd5b506103c7610af5366004613d89565b612930565b348015610b0657600080fd5b5061043960a05481565b348015610b1c57600080fd5b506103c7610b2b3660046143b4565b612a14565b348015610b3c57600080fd5b506105ce610b4b366004613d89565b609d6020526000908152604090205460ff1681565b348015610b6c57600080fd5b50609a5461078c9067010000000000000090046001600160a01b031681565b348015610b9757600080fd5b506105ce610ba63660046143de565b612acd565b348015610bb757600080fd5b506103c7612bd7565b600054610100900460ff16610bdb5760005460ff1615610bdf565b303b155b610c045760405162461bcd60e51b8152600401610bfb90614478565b60405180910390fd5b600054610100900460ff16158015610c26576000805461ffff19166101011790555b610c2e612bef565b610c776040518060400160405280600c81526020016b5065726d697442726964676560a01b815250604051806040016040528060038152602001620312e360ec1b815250612c69565b609a805460ff191660ff8816179055610c8f84612c9a565b609a60016101000a81548160ff021916908360ff160217905550610cb283612cf1565b609a805464ffffffffff92909216620100000266ffffffffff000019909216919091179055610ce26000836113f9565b60005b8551811015610d3157610d1f600080516020614884833981519152878381518110610d1257610d126144c6565b6020026020010151611377565b80610d29816144f2565b915050610ce5565b50600160a3558015610d49576000805461ff00191690555b505050505050565b610d59612d48565b60ff838116600884901b68ffffffffffffffff0016176000818152609e60209081526040808320868452909152808220815160808101909252805493949293919290918391166004811115610db057610db06142de565b6004811115610dc157610dc16142de565b8152905461010081046001600160c81b03166020830152600160d01b810460ff166040830152600160d81b900464ffffffffff1660609091015280519091506001816004811115610e1457610e146142de565b1480610e3157506002816004811115610e2f57610e2f6142de565b145b610e7d5760405162461bcd60e51b815260206004820152601c60248201527f50726f706f73616c2063616e6e6f742062652063616e63656c6c6564000000006044820152606401610bfb565b609a54606083015164ffffffffff62010000909204821691610ea191439116612dc9565b64ffffffffff1611610ef55760405162461bcd60e51b815260206004820181905260248201527f50726f706f73616c206e6f7420617420657870697279207468726573686f6c646044820152606401610bfb565b60048083526001600160481b0384166000908152609e602090815260408083208884529091529020835181548593839160ff1916906001908490811115610f3e57610f3e6142de565b02179055506020820151815460408085015160609095015164ffffffffff16600160d81b026001600160d81b0360ff909616600160d01b0260ff60d01b196001600160c81b039095166101000294909416610100600160d81b03199093169290921792909217939093169290921790555160008051602061486483398151915290610fd19088908890600490899061450d565b60405180910390a1505050505050565b610fe9612e0b565b610ff1612e71565b600260a35414156110445760405162461bcd60e51b815260206004820152601f60248201527f5265656e7472616e637947756172643a207265656e7472616e742063616c6c006044820152606401610bfb565b600260a3556000828152609c602090815260408083205490516001600160a01b039091169268ffffffffffffffff0060088a901b1660ff8b161792909161109391879186918b918b9101614542565b60408051601f1981840301815291815281516020928301206001600160481b0385166000908152609e845282812082825290935291209091506002815460ff1660048111156110e4576110e46142de565b146111315760405162461bcd60e51b815260206004820181905260248201527f50726f706f73616c206d757374206861766520506173736564207374617475736044820152606401610bfb565b805460ff191660031781558385156111aa5760405163712467f960e11b81526001600160a01b0382169063e248cff290611173908a908d908d9060040161459e565b600060405180830381600087803b15801561118d57600080fd5b505af11580156111a1573d6000803e3d6000fd5b50505050611287565b60405163712467f960e11b81526001600160a01b0382169063e248cff2906111da908a908d908d9060040161459e565b600060405180830381600087803b1580156111f457600080fd5b505af1925050508015611205575060015b611287573d808015611233576040519150601f19603f3d011682016040523d82523d6000602084013e611238565b606091505b50825460ff191660021783556040517fbd37c1f0d53bb2f33fe4c2104de272fcdeb4d2fef3acdbf1e4ddc3d6833ca37690611274908390614614565b60405180910390a15050505050506112b9565b6000805160206148648339815191528b8b6003866040516112ab949392919061450d565b60405180910390a150505050505b5050600160a35550505050565b6112ce612eb7565b609a5460ff166000816112e381610100614627565b6112ed9190614646565b6000818152609c60205260409081902080546001600160a01b03191690555163a981575160e01b8152600481018290526001600160a01b038481166024830152919250849182169063a9815751906044015b600060405180830381600087803b15801561135957600080fd5b505af115801561136d573d6000803e3d6000fd5b5050505050505050565b6000828152609960205260409020600201546113959061083f612f10565b6113f95760405162461bcd60e51b815260206004820152602f60248201527f416363657373436f6e74726f6c3a2073656e646572206d75737420626520616e60448201526e0818591b5a5b881d1bc819dc985b9d608a1b6064820152608401610bfb565b6114038282612f51565b5050565b61140f612fba565b6114038282613003565b611421612eb7565b61142a81612c9a565b609a805460ff929092166101000261ff00199092169190911790556040518181527fa20d6b84cd798a24038be305eff8a45ca82ef54a2aa2082005d8e14c0a4746c8906020015b60405180910390a150565b60008281526099602090815260408083206001600160a01b03851684526001019091529020545b92915050565b6114b1612eb7565b60ff16600090815260a260209081526040808320805460ff1916905560a1909152812055565b6114df612eb7565b80609f5414156115315760405162461bcd60e51b815260206004820152601f60248201527f43757272656e742066656520697320657175616c20746f206e657720666565006044820152606401610bfb565b609f8190556040518181527f6bbc57480a46553fa4d156ce702beef5f3ad66303b0ed1a5d4cb44966c6584c390602001611471565b60006114a360008051602061488483398151915283611fe1565b611588612eb7565b6000858152609c60205260409081902080546001600160a01b0319166001600160a01b03898116918217909255915163de319d9960e01b81526004810188905290861660248201526001600160e01b03198086166044830152606482018590528316608482015287919063de319d999060a401600060405180830381600087803b15801561161557600080fd5b505af1158015611629573d6000803e3d6000fd5b5050505050505050505050565b61163e612eb7565b6000611648612f10565b9050816001600160a01b0316816001600160a01b031614156116ac5760405162461bcd60e51b815260206004820152601760248201527f43616e6e6f742072656e6f756e6365206f6e6573656c660000000000000000006044820152606401610bfb565b6116b7600083611377565b611403600082611407565b6116ca612eb7565b60405163ab5c7bf160e01b815282906001600160a01b0382169063ab5c7bf1906116f8908590600401614614565b600060405180830381600087803b15801561171257600080fd5b505af1158015611726573d6000803e3d6000fd5b50505050505050565b611737612eb7565b60ff909116600090815260a260209081526040808320805460ff1916600117905560a1909152902055565b61176a612e71565b6000848152609c60205260409020546001600160a01b0316806117cb5760405162461bcd60e51b81526020600482015260196024820152781b9bc81a185b991b195c88199bdc881c995cdbdd5c98d95251603a1b6044820152606401610bfb565b6000858286866040516020016117e49493929190614542565b60408051808303601f1901815291905280516020909101208351609a5491925090610100900460ff1681101561186a5760405162461bcd60e51b815260206004820152602560248201527f5369676e617475726573206c656e677468203e3d2072656c61796572546872656044820152641cda1bdb1960da1b6064820152608401610bfb565b604080516080810182526001815260006020820181905281830181905264ffffffffff431660608301529151909190611930907fc4cb5d35714699d6e85b9562b644e60393b418d974a5c1dd8efaadac37a142c5908d908d908d906118d2908e908e9061465e565b604051908190038120611915959493929160200194855260ff9390931660208501526001600160401b039190911660408401526060830152608082015260a00190565b60405160208183030381529060405280519060200120613083565b905060005b83811015611a5057600061196283898481518110611955576119556144c6565b60200260200101516130d1565b905061197c60008051602061488483398151915282611fe1565b6119ab5760405163c41f0f6960e01b81526001600160a01b038216600482015260248101839052604401610bfb565b6119b584826130f5565b156119fa5760405162461bcd60e51b81526020600482015260156024820152741c995b185e595c88185b1c9958591e481d9bdd1959605a1b6044820152606401610bfb565b611a1a611a0682613118565b85602001516001600160c81b031617613146565b6001600160c81b0316602085015260408401805190611a388261466e565b60ff16905250611a499050816144f2565b9050611935565b506003825260405163712467f960e11b815285906001600160a01b0382169063e248cff290611a87908d908d908d9060040161459e565b600060405180830381600087803b158015611aa157600080fd5b505af1158015611ab5573d6000803e3d6000fd5b505050506000805160206148648339815191528c8c600388604051611add949392919061450d565b60405180910390a160ff8c811660088d901b68ffffffffffffffff0016176000818152609e602090815260408083208a84529091529020549091600191166004811115611b2c57611b2c6142de565b1115611b4a5760405162461bcd60e51b8152600401610bfb9061468e565b6001600160481b0381166000908152609e6020908152604080832089845290915290208451815486929190829060ff19166001836004811115611b8f57611b8f6142de565b021790555060208201518154604084015160609094015164ffffffffff16600160d81b026001600160d81b0360ff909516600160d01b0260ff60d01b196001600160c81b039094166101000293909316610100600160d81b031990921691909117919091179290921691909117905550505050505050505050505050565b611c15612e71565b6000611c1f612f10565b90506117268188888888888861319b565b611c38612eb7565b611c4181612cf1565b609a60026101000a81548164ffffffffff021916908364ffffffffff16021790555050565b6001600160481b0383166000908152609e602090815260408083208584529091528082208151608081019092528054611d02929190829060ff166004811115611cb157611cb16142de565b6004811115611cc257611cc26142de565b8152905461010081046001600160c81b03166020830152600160d01b810460ff166040830152600160d81b900464ffffffffff16606090910152836130f5565b949350505050565b6000611d2360008051602061488483398151915261274f565b905090565b611d30612eb7565b611d40611d3b612f10565b613351565b565b611d4a612eb7565b6000838152609c60205260409081902054905163789d771160e01b81526001600160a01b038481166004830152831515602483015290911690819063789d77119060440161133f565b611d9b612eb7565b6040516307b7ed9960e01b81526001600160a01b0382811660048301528391908216906307b7ed99906024016116f8565b6000828152609960205260408120611de4908361339f565b9392505050565b611df3612eb7565b828114611e425760405162461bcd60e51b815260206004820152601f60248201527f61646472735b5d2c20616d6f756e74735b5d3a2064696666206c656e677468006044820152606401610bfb565b60005b83811015611fda576000858583818110611e6157611e616144c6565b9050602002016020810190611e769190613d89565b6001600160a01b0316848484818110611e9157611e916144c6565b9050602002013560405160006040518083038185875af1925050503d8060008114611ed8576040519150601f19603f3d011682016040523d82523d6000602084013e611edd565b606091505b5050905080611f2e5760405162461bcd60e51b815260206004820152601960248201527f466565206574686572207472616e73666572206661696c6564000000000000006044820152606401610bfb565b7faaa40a232aaf133fdd28f3485f6fdd163514cfadbffa981f3610f42398efe34b6000878785818110611f6357611f636144c6565b9050602002016020810190611f789190613d89565b868686818110611f8a57611f8a6144c6565b90506020020135604051611fbf939291906001600160a01b039384168152919092166020820152604081019190915260600190565b60405180910390a15080611fd2816144f2565b915050611e45565b5050505050565b6000828152609960205260408120611de490836133ab565b612001612eb7565b612009612fba565b612021600080516020614884833981519152826128a3565b6040516001600160a01b03821681527f10e1f7ce9fd7d1b90a66d13a2ab3cb8dd7f29f3f8d520b143b063ccfbab6906b90602001611471565b612062612eb7565b609a805460ff191660ff92909216919091179055565b604080516080810182526000808252602080830182905282840182905260608301829052868252609c815283822054935192936001600160a01b0316926120c791889185918991899101614542565b60408051808303601f19018152828252805160209182012060ff8c811660088d901b68ffffffffffffffff0016176000818152609e85528581208482529094529284902060808601909452835491955091939291839116600481111561212f5761212f6142de565b6004811115612140576121406142de565b8152905461010081046001600160c81b03166020830152600160d01b810460ff166040830152600160d81b900464ffffffffff166060909101529998505050505050505050565b61218f612eb7565b60405163025a3c9960e21b815282906001600160a01b03821690630968f264906116f8908590600401614614565b6121c5612eb7565b6000828152609c60205260409081902080546001600160a01b03191690555163a981575160e01b8152600481018390526001600160a01b03828116602483015284919082169063a98157519060440161133f565b612221612e0b565b612229612e71565b600260a354141561227c5760405162461bcd60e51b815260206004820152601f60248201527f5265656e7472616e637947756172643a207265656e7472616e742063616c6c006044820152606401610bfb565b600260a3556000838152609c602090815260408083205490516001600160a01b039091169268ffffffffffffffff00600889901b1660ff8a16179290916122cb91889186918991899101614542565b60408051601f1981840301815282825280516020918201206001600160481b0386166000908152609e835283812082825290925282822060808501909352825490945090929190829060ff166004811115612328576123286142de565b6004811115612339576123396142de565b8152905461010081046001600160c81b0316602080840191909152600160d01b820460ff16604080850191909152600160d81b90920464ffffffffff1660609093019290925260008a8152609c9092529020549091506001600160a01b03166123e05760405162461bcd60e51b81526020600482015260196024820152781b9bc81a185b991b195c88199bdc881c995cdbdd5c98d95251603a1b6044820152606401610bfb565b6002815160048111156123f5576123f56142de565b14156124135761240a898988888b6001610fe1565b50505050612743565b600061241d612f10565b9050600182600001516004811115612437576124376142de565b11156124555760405162461bcd60e51b8152600401610bfb9061468e565b61245f82826130f5565b156124a45760405162461bcd60e51b81526020600482015260156024820152741c995b185e595c88185b1c9958591e481d9bdd1959605a1b6044820152606401610bfb565b6000825160048111156124b9576124b96142de565b1415612519576040805160808101825260018082526000602083018190528284015264ffffffffff4316606083015291519093506000805160206148648339815191529161250c918d918d91889061450d565b60405180910390a161257a565b609a54606083015164ffffffffff6201000090920482169161253d91439116612dc9565b64ffffffffff16111561257a57600480835260405160008051602061486483398151915291612571918d918d91889061450d565b60405180910390a15b60048251600481111561258f5761258f6142de565b1461265f576125b46125a082613118565b83602001516001600160c81b031617613146565b6001600160c81b03166020830152604082018051906125d28261466e565b60ff1690525081516040517f25f8daaa4635a7729927ba3f5b3d59cc3320aca7c32c9db4e7ca7b95743436409161260e918d918d91889061450d565b60405180910390a1609a54604083015160ff610100909204821691161061265f57600280835260405160008051602061486483398151915291612656918d918d91889061450d565b60405180910390a15b6001600160481b0384166000908152609e6020908152604080832086845290915290208251815484929190829060ff191660018360048111156126a4576126a46142de565b021790555060208201518154604084015160609094015164ffffffffff16600160d81b026001600160d81b0360ff909516600160d01b0260ff60d01b196001600160c81b039094166101000293909316610100600160d81b0319909216919091179190911792909216919091179055600282516004811115612728576127286142de565b141561273d5761273d8a8a89898c6000610fe1565b50505050505b5050600160a355505050565b60008181526099602052604081206114a3906133cd565b61276e612eb7565b6000828152609c60205260409081902080546001600160a01b0319166001600160a01b038681169182179092559151635c7d1b9b60e11b815260048101859052908316602482015284919063b8fa37369060440161133f565b6127cf612eb7565b60c86127d9611d0a565b1061281f5760405162461bcd60e51b81526020600482015260166024820152751c995b185e595c9cc81b1a5b5a5d081c995858da195960521b6044820152606401610bfb565b61283760008051602061488483398151915282611377565b6040516001600160a01b03821681527f03580ee9f53a62b7cb409a2cb56f9be87747dd15017afc5cef6eef321e4fb2c590602001611471565b612878612eb7565b6001600160a01b03919091166000908152609d60205260409020805460ff1916911515919091179055565b6000828152609960205260409020600201546128c19061083f612f10565b6129265760405162461bcd60e51b815260206004820152603060248201527f416363657373436f6e74726f6c3a2073656e646572206d75737420626520616e60448201526f2061646d696e20746f207265766f6b6560801b6064820152608401610bfb565b61140382826133d7565b612938612eb7565b609a5460ff1660008161294d81610100614627565b6129579190614646565b6000818152609c60205260409081902080546001600160a01b0319166001600160a01b038781169182179092559151635c7d1b9b60e11b8152600481018490529085166024820152919250849163b8fa373690604401600060405180830381600087803b1580156129c757600080fd5b505af11580156129db573d6000803e3d6000fd5b505060405163789d771160e01b81526001600160a01b038681166004830152600160248301528416925063789d7711915060440161133f565b612a1c612eb7565b60ff82166000908152609b60205260409020546001600160401b0390811690821611612a995760405162461bcd60e51b815260206004820152602660248201527f446f6573206e6f7420616c6c6f772064656372656d656e7473206f6620746865604482015265206e6f6e636560d01b6064820152608401610bfb565b60ff919091166000908152609b60205260409020805467ffffffffffffffff19166001600160401b03909216919091179055565b6000807fc4cb5d35714699d6e85b9562b644e60393b418d974a5c1dd8efaadac37a142c58989898989604051612b0492919061465e565b604051908190038120612b47959493929160200194855260ff9390931660208501526001600160401b039190911660408401526060830152608082015260a00190565b6040516020818303038152906040528051906020012090506000612b6a82613083565b90506000612bae8287878080601f0160208091040260200160405190810160405280939291908181526020018383808284376000920191909152506130d192505050565b9050612bc860008051602061488483398151915282611fe1565b9b9a5050505050505050505050565b612bdf612eb7565b611d40612bea612f10565b613440565b600054610100900460ff16612c0a5760005460ff1615612c0e565b303b155b612c2a5760405162461bcd60e51b8152600401610bfb90614478565b600054610100900460ff16158015612c4c576000805461ffff19166101011790555b612c5461348b565b8015612c66576000805461ff00191690555b50565b600054610100900460ff16612c905760405162461bcd60e51b8152600401610bfb906146d1565b6114038282613506565b60006101008210612ced5760405162461bcd60e51b815260206004820152601c60248201527f76616c756520646f6573206e6f742066697420696e20382062697473000000006044820152606401610bfb565b5090565b6000650100000000008210612ced5760405162461bcd60e51b815260206004820152601d60248201527f76616c756520646f6573206e6f742066697420696e20343020626974730000006044820152606401610bfb565b6000612d52612f10565b9050612d5f600082611fe1565b80612d7d5750612d7d60008051602061488483398151915282611fe1565b612c665760405162461bcd60e51b815260206004820152601e60248201527f73656e646572206973206e6f742072656c61796572206f722061646d696e00006044820152606401610bfb565b6000611de483836040518060400160405280601e81526020017f536166654d6174683a207375627472616374696f6e206f766572666c6f770000815250613547565b612e2560008051602061488483398151915261083f612f10565b611d405760405162461bcd60e51b815260206004820181905260248201527f73656e64657220646f65736e277420686176652072656c6179657220726f6c656044820152606401610bfb565b60355460ff1615611d405760405162461bcd60e51b815260206004820152601060248201526f14185d5cd8589b194e881c185d5cd95960821b6044820152606401610bfb565b612ec4600061083f612f10565b611d405760405162461bcd60e51b815260206004820152601e60248201527f73656e64657220646f65736e277420686176652061646d696e20726f6c6500006044820152606401610bfb565b60003360143610801590612f3c57506001600160a01b0381166000908152609d602052604090205460ff165b15612f4c575060131936013560601c5b919050565b6000828152609960205260409020612f699082613581565b1561140357612f76612f10565b6001600160a01b0316816001600160a01b0316837f2f8788117e7eff1d82e926ec794901d17c78024a50270940304540a733656f0d60405160405180910390a45050565b60355460ff16611d405760405162461bcd60e51b815260206004820152601460248201527314185d5cd8589b194e881b9bdd081c185d5cd95960621b6044820152606401610bfb565b61300b612f10565b6001600160a01b0316816001600160a01b0316146129265760405162461bcd60e51b815260206004820152602f60248201527f416363657373436f6e74726f6c3a2063616e206f6e6c792072656e6f756e636560448201526e103937b632b9903337b91039b2b63360891b6064820152608401610bfb565b60006114a3613090613596565b8360405161190160f01b6020820152602281018390526042810182905260009060620160405160208183030381529060405280519060200120905092915050565b60008060006130e08585613611565b915091506130ed81613681565b509392505050565b60008083602001516001600160c81b031661310f84613118565b16119392505050565b600061313c6131356000805160206148848339815191528461147c565b6001612dc9565b6001901b92915050565b6000600160c81b8210612ced5760405162461bcd60e51b815260206004820152601e60248201527f76616c756520646f6573206e6f742066697420696e20323030206269747300006044820152606401610bfb565b60ff808716600090815260a260205260408120543492166131be57609f546131d2565b60ff8816600090815260a160205260409020545b90506131de818361471c565b91508060a060008282546131f29190614646565b90915550506000878152609c60205260409020546001600160a01b03168061322d576040516308c231dd60e31b815260040160405180910390fd5b60ff89166000908152609b6020526040812080548290613255906001600160401b0316614733565b91906101000a8154816001600160401b0302191690836001600160401b03160217905590506000826001600160a01b031663b07e54bb868c8f8d8d6040518663ffffffff1660e01b81526004016132af949392919061475a565b60006040518083038185885af11580156132cd573d6000803e3d6000fd5b50505050506040513d6000823e601f3d908101601f191682016040526132f6919081019061478f565b90508b6001600160a01b03167f17bc3181e17a9620a479c24e6c606e474ba84fc036877b768926872e8cd0e11f8c8c858d8d8760405161333b969594939291906147fc565b60405180910390a2505050505050505050505050565b613359612e71565b6035805460ff191660011790556040516001600160a01b03821681527f62e78cea01bee320cd4e420270b5ea74000d11b0c9f74754ebdbfc544b05a25890602001611471565b6000611de4838361383c565b6001600160a01b03811660009081526001830160205260408120541515611de4565b60006114a3825490565b60008281526099602052604090206133ef9082613866565b15611403576133fc612f10565b6001600160a01b0316816001600160a01b0316837ff6391f5c32d9c69d2a47ea670b442974b53935d1edc7fd64eb21e047a839171b60405160405180910390a45050565b613448612fba565b6035805460ff191690556040516001600160a01b03821681527f5db9ee0a495bf2e6ff9c91a7834c1ba4fdd244a5e8aa4e537bd38aeae4b073aa90602001611471565b600054610100900460ff166134a65760005460ff16156134aa565b303b155b6134c65760405162461bcd60e51b8152600401610bfb90614478565b600054610100900460ff161580156134e8576000805461ffff19166101011790555b6035805460ff191690558015612c66576000805461ff001916905550565b600054610100900460ff1661352d5760405162461bcd60e51b8152600401610bfb906146d1565b815160209283012081519190920120600191909155600255565b6000818484111561356b5760405162461bcd60e51b8152600401610bfb9190614614565b506000613578848661471c565b95945050505050565b6000611de4836001600160a01b03841661387b565b6000611d237f8b73c3c69bb8fe3d512ecc4cf759cc79239f7b179b0ffacaa9a75d522b39400f6135c560015490565b6002546040805160208101859052908101839052606081018290524660808201523060a082015260009060c0016040516020818303038152906040528051906020012090509392505050565b6000808251604114156136485760208301516040840151606085015160001a61363c878285856138ca565b9450945050505061367a565b82516040141561367257602083015160408401516136678683836139b7565b93509350505061367a565b506000905060025b9250929050565b6000816004811115613695576136956142de565b141561369e5750565b60018160048111156136b2576136b26142de565b14156137005760405162461bcd60e51b815260206004820152601860248201527f45434453413a20696e76616c6964207369676e617475726500000000000000006044820152606401610bfb565b6002816004811115613714576137146142de565b14156137625760405162461bcd60e51b815260206004820152601f60248201527f45434453413a20696e76616c6964207369676e6174757265206c656e677468006044820152606401610bfb565b6003816004811115613776576137766142de565b14156137cf5760405162461bcd60e51b815260206004820152602260248201527f45434453413a20696e76616c6964207369676e6174757265202773272076616c604482015261756560f01b6064820152608401610bfb565b60048160048111156137e3576137e36142de565b1415612c665760405162461bcd60e51b815260206004820152602260248201527f45434453413a20696e76616c6964207369676e6174757265202776272076616c604482015261756560f01b6064820152608401610bfb565b6000826000018281548110613853576138536144c6565b9060005260206000200154905092915050565b6000611de4836001600160a01b0384166139f0565b60008181526001830160205260408120546138c2575081546001818101845560008481526020808220909301849055845484825282860190935260409020919091556114a3565b5060006114a3565b6000807f7fffffffffffffffffffffffffffffff5d576e7357a4501ddfe92f46681b20a083111561390157506000905060036139ae565b8460ff16601b1415801561391957508460ff16601c14155b1561392a57506000905060046139ae565b6040805160008082526020820180845289905260ff881692820192909252606081018690526080810185905260019060a0016020604051602081039080840390855afa15801561397e573d6000803e3d6000fd5b5050604051601f1901519150506001600160a01b0381166139a7576000600192509250506139ae565b9150600090505b94509492505050565b6000806001600160ff1b038316816139d460ff86901c601b614646565b90506139e2878288856138ca565b935093505050935093915050565b60008181526001830160205260408120548015613ad9576000613a1460018361471c565b8554909150600090613a289060019061471c565b9050818114613a8d576000866000018281548110613a4857613a486144c6565b9060005260206000200154905080876000018481548110613a6b57613a6b6144c6565b6000918252602080832090910192909255918252600188019052604090208390555b8554869080613a9e57613a9e61484d565b6001900381819060005260206000200160009055905585600101600086815260200190815260200160002060009055600193505050506114a3565b60009150506114a3565b803560ff81168114612f4c57600080fd5b634e487b7160e01b600052604160045260246000fd5b604051601f8201601f191681016001600160401b0381118282101715613b3257613b32613af4565b604052919050565b60006001600160401b03821115613b5357613b53613af4565b5060051b60200190565b6001600160a01b0381168114612c6657600080fd5b8035612f4c81613b5d565b600080600080600060a08688031215613b9557600080fd5b613b9e86613ae3565b94506020808701356001600160401b03811115613bba57600080fd5b8701601f81018913613bcb57600080fd5b8035613bde613bd982613b3a565b613b0a565b81815260059190911b8201830190838101908b831115613bfd57600080fd5b928401925b82841015613c24578335613c1581613b5d565b82529284019290840190613c02565b9750505050604087013593505060608601359150613c4460808701613b72565b90509295509295909350565b80356001600160401b0381168114612f4c57600080fd5b600080600060608486031215613c7c57600080fd5b613c8584613ae3565b9250613c9360208501613c50565b9150604084013590509250925092565b60008083601f840112613cb557600080fd5b5081356001600160401b03811115613ccc57600080fd5b60208301915083602082850101111561367a57600080fd5b80358015158114612f4c57600080fd5b60008060008060008060a08789031215613d0d57600080fd5b613d1687613ae3565b9550613d2460208801613c50565b945060408701356001600160401b03811115613d3f57600080fd5b613d4b89828a01613ca3565b90955093505060608701359150613d6460808801613ce4565b90509295509295509295565b600060208284031215613d8257600080fd5b5035919050565b600060208284031215613d9b57600080fd5b8135611de481613b5d565b60008060408385031215613db957600080fd5b823591506020830135613dcb81613b5d565b809150509250929050565b600060208284031215613de857600080fd5b611de482613ae3565b80356001600160e01b031981168114612f4c57600080fd5b60008060008060008060c08789031215613e2257600080fd5b8635613e2d81613b5d565b9550602087013594506040870135613e4481613b5d565b9350613e5260608801613df1565b925060808701359150613d6460a08801613df1565b60006001600160401b03821115613e8057613e80613af4565b50601f01601f191660200190565b600082601f830112613e9f57600080fd5b8135613ead613bd982613e67565b818152846020838601011115613ec257600080fd5b816020850160208301376000918101602001919091529392505050565b60008060408385031215613ef257600080fd5b8235613efd81613b5d565b915060208301356001600160401b03811115613f1857600080fd5b613f2485828601613e8e565b9150509250929050565b60008060408385031215613f4157600080fd5b613f4a83613ae3565b946020939093013593505050565b60008060008060008060a08789031215613f7157600080fd5b613f7a87613ae3565b95506020613f89818901613c50565b95506040880135945060608801356001600160401b0380821115613fac57600080fd5b613fb88b838c01613ca3565b909650945060808a0135915080821115613fd157600080fd5b818a0191508a601f830112613fe557600080fd5b8135613ff3613bd982613b3a565b81815260059190911b8301840190848101908d83111561401257600080fd5b8585015b8381101561404857848135111561402c57600080fd5b61403b8f888335890101613e8e565b8352918601918601614016565b508096505050505050509295509295509295565b6000806000806000806080878903121561407557600080fd5b61407e87613ae3565b95506020870135945060408701356001600160401b03808211156140a157600080fd5b6140ad8a838b01613ca3565b909650945060608901359150808211156140c657600080fd5b506140d389828a01613ca3565b979a9699509497509295939492505050565b6000806000606084860312156140fa57600080fd5b83356001600160481b038116811461411157600080fd5b925060208401359150604084013561412881613b5d565b809150509250925092565b60008060006060848603121561414857600080fd5b83359250602084013561415a81613b5d565b915061416860408501613ce4565b90509250925092565b6000806040838503121561418457600080fd5b823561418f81613b5d565b91506020830135613dcb81613b5d565b600080604083850312156141b257600080fd5b50508035926020909101359150565b60008083601f8401126141d357600080fd5b5081356001600160401b038111156141ea57600080fd5b6020830191508360208260051b850101111561367a57600080fd5b6000806000806040858703121561421b57600080fd5b84356001600160401b038082111561423257600080fd5b61423e888389016141c1565b9096509450602087013591508082111561425757600080fd5b50614264878288016141c1565b95989497509550505050565b60008060008060006080868803121561428857600080fd5b61429186613ae3565b945061429f60208701613c50565b93506040860135925060608601356001600160401b038111156142c157600080fd5b6142cd88828901613ca3565b969995985093965092949392505050565b634e487b7160e01b600052602160045260246000fd5b6005811061431257634e487b7160e01b600052602160045260246000fd5b9052565b60006080820190506143298284516142f4565b60018060c81b03602084015116602083015260ff604084015116604083015264ffffffffff606084015116606083015292915050565b60008060006060848603121561437457600080fd5b833561411181613b5d565b6000806040838503121561439257600080fd5b823561439d81613b5d565b91506143ab60208401613ce4565b90509250929050565b600080604083850312156143c757600080fd5b6143d083613ae3565b91506143ab60208401613c50565b600080600080600080600060a0888a0312156143f957600080fd5b61440288613ae3565b965061441060208901613c50565b95506040880135945060608801356001600160401b038082111561443357600080fd5b61443f8b838c01613ca3565b909650945060808a013591508082111561445857600080fd5b506144658a828b01613ca3565b989b979a50959850939692959293505050565b6020808252602e908201527f496e697469616c697a61626c653a20636f6e747261637420697320616c72656160408201526d191e481a5b9a5d1a585b1a5e995960921b606082015260800190565b634e487b7160e01b600052603260045260246000fd5b634e487b7160e01b600052601160045260246000fd5b6000600019821415614506576145066144dc565b5060010190565b60ff851681526001600160401b03841660208201526080810161453360408301856142f4565b82606083015295945050505050565b8481526bffffffffffffffffffffffff198460601b16602082015281836034830137600091016034019081529392505050565b81835281816020850137506000828201602090810191909152601f909101601f19169091010190565b838152604060208201526000613578604083018486614575565b60005b838110156145d35781810151838201526020016145bb565b838111156145e2576000848401525b50505050565b600081518084526146008160208601602086016145b8565b601f01601f19169290920160200192915050565b602081526000611de460208301846145e8565b6000816000190483118215151615614641576146416144dc565b500290565b60008219821115614659576146596144dc565b500190565b8183823760009101908152919050565b600060ff821660ff811415614685576146856144dc565b60010192915050565b60208082526023908201527f70726f706f73616c20616c72656164792065786563757465642f63616e63656c6040820152621b195960ea1b606082015260800190565b6020808252602b908201527f496e697469616c697a61626c653a20636f6e7472616374206973206e6f74206960408201526a6e697469616c697a696e6760a81b606082015260800190565b60008282101561472e5761472e6144dc565b500390565b60006001600160401b0380831681811415614750576147506144dc565b6001019392505050565b8481526001600160a01b03841660208201526060604082018190526000906147859083018486614575565b9695505050505050565b6000602082840312156147a157600080fd5b81516001600160401b038111156147b757600080fd5b8201601f810184136147c857600080fd5b80516147d6613bd982613e67565b8181528560208385010111156147eb57600080fd5b6135788260208301602086016145b8565b60ff871681528560208201526001600160401b038516604082015260a06060820152600061482e60a083018587614575565b828103608084015261484081856145e8565b9998505050505050505050565b634e487b7160e01b600052603160045260246000fdfe968626a768e76ba1363efe44e322a6c4900c5f084e0b45f35e294dfddaa9e0d5e2b7fb3b832174769106daebcfd6d1970523240dda11281102db9363b83b0dc4a2646970667358221220601c8da4aa0e0e93dc1337453b8b174069d524685dd38d16ca133ed8e865f5d464736f6c634300080b0033",
  "linkReferences": {},
  "deployedLinkReferences": {}
}