{
  "_format": "hh-sol-artifact-1",
  "contractName": "BridgeUpgradeable",
  "sourceName": "contracts/BridgeUpgradeable.sol",
  "abi": [
    {
      "inputs": [
        {
          "internalType": "uint256",
          "name": "msgValue",
          "type": "uint256"
        },
        {
          "internalType": "uint256",
          "name": "fee",
          "type": "uint256"
        }
      ],
      "name": "IncorrectFeeSupplied",
      "type": "error"
    },
    {
      "inputs": [
        {
          "internalType": "address",
          "name": "signer",
          "type": "address"
        },
        {
          "internalType": "uint256",
          "name": "index",
          "type": "uint256"
        }
      ],
      "name": "InviladSignature",
      "type": "error"
    },
    {
      "inputs": [],
      "name": "ResourceIDNotMappedToHandler",
      "type": "error"
    },
    {
      "anonymous": false,
      "inputs": [
        {
          "indexed": false,
          "internalType": "uint8",
          "name": "destinationDomainID",
          "type": "uint8"
        },
        {
          "indexed": false,
          "internalType": "bytes32",
          "name": "resourceID",
          "type": "bytes32"
        },
        {
          "indexed": false,
          "internalType": "uint64",
          "name": "depositNonce",
          "type": "uint64"
        },
        {
          "indexed": true,
          "internalType": "address",
          "name": "user",
          "type": "address"
        },
        {
          "indexed": false,
          "internalType": "bytes",
          "name": "data",
          "type": "bytes"
        },
        {
          "indexed": false,
          "internalType": "bytes",
          "name": "handlerResponse",
          "type": "bytes"
        }
      ],
      "name": "Deposit",
      "type": "event"
    },
    {
      "anonymous": false,
      "inputs": [
        {
          "indexed": false,
          "internalType": "bytes",
          "name": "lowLevelData",
          "type": "bytes"
        }
      ],
      "name": "FailedHandlerExecution",
      "type": "event"
    },
    {
      "anonymous": false,
      "inputs": [
        {
          "indexed": false,
          "internalType": "address",
          "name": "newFeeHandler",
          "type": "address"
        }
      ],
      "name": "FeeHandlerChanged",
      "type": "event"
    },
    {
      "anonymous": false,
      "inputs": [
        {
          "indexed": false,
          "internalType": "address",
          "name": "account",
          "type": "address"
        }
      ],
      "name": "Paused",
      "type": "event"
    },
    {
      "anonymous": false,
      "inputs": [
        {
          "indexed": false,
          "internalType": "uint8",
          "name": "originDomainID",
          "type": "uint8"
        },
        {
          "indexed": false,
          "internalType": "uint64",
          "name": "depositNonce",
          "type": "uint64"
        },
        {
          "indexed": false,
          "internalType": "enum IBridge.ProposalStatus",
          "name": "status",
          "type": "uint8"
        },
        {
          "indexed": false,
          "internalType": "bytes32",
          "name": "dataHash",
          "type": "bytes32"
        }
      ],
      "name": "ProposalEvent",
      "type": "event"
    },
    {
      "anonymous": false,
      "inputs": [
        {
          "indexed": false,
          "internalType": "uint8",
          "name": "originDomainID",
          "type": "uint8"
        },
        {
          "indexed": false,
          "internalType": "uint64",
          "name": "depositNonce",
          "type": "uint64"
        },
        {
          "indexed": false,
          "internalType": "enum IBridge.ProposalStatus",
          "name": "status",
          "type": "uint8"
        },
        {
          "indexed": false,
          "internalType": "bytes32",
          "name": "dataHash",
          "type": "bytes32"
        }
      ],
      "name": "ProposalVote",
      "type": "event"
    },
    {
      "anonymous": false,
      "inputs": [
        {
          "indexed": false,
          "internalType": "address",
          "name": "relayer",
          "type": "address"
        }
      ],
      "name": "RelayerAdded",
      "type": "event"
    },
    {
      "anonymous": false,
      "inputs": [
        {
          "indexed": false,
          "internalType": "address",
          "name": "relayer",
          "type": "address"
        }
      ],
      "name": "RelayerRemoved",
      "type": "event"
    },
    {
      "anonymous": false,
      "inputs": [
        {
          "indexed": false,
          "internalType": "uint256",
          "name": "newThreshold",
          "type": "uint256"
        }
      ],
      "name": "RelayerThresholdChanged",
      "type": "event"
    },
    {
      "anonymous": false,
      "inputs": [
        {
          "indexed": true,
          "internalType": "bytes32",
          "name": "role",
          "type": "bytes32"
        },
        {
          "indexed": true,
          "internalType": "address",
          "name": "account",
          "type": "address"
        },
        {
          "indexed": true,
          "internalType": "address",
          "name": "sender",
          "type": "address"
        }
      ],
      "name": "RoleGranted",
      "type": "event"
    },
    {
      "anonymous": false,
      "inputs": [
        {
          "indexed": true,
          "internalType": "bytes32",
          "name": "role",
          "type": "bytes32"
        },
        {
          "indexed": true,
          "internalType": "address",
          "name": "account",
          "type": "address"
        },
        {
          "indexed": true,
          "internalType": "address",
          "name": "sender",
          "type": "address"
        }
      ],
      "name": "RoleRevoked",
      "type": "event"
    },
    {
      "anonymous": false,
      "inputs": [
        {
          "indexed": false,
          "internalType": "address",
          "name": "account",
          "type": "address"
        }
      ],
      "name": "Unpaused",
      "type": "event"
    },
    {
      "inputs": [],
      "name": "DEFAULT_ADMIN_ROLE",
      "outputs": [
        {
          "internalType": "bytes32",
          "name": "",
          "type": "bytes32"
        }
      ],
      "stateMutability": "view",
      "type": "function"
    },
    {
      "inputs": [],
      "name": "MAX_RELAYERS",
      "outputs": [
        {
          "internalType": "uint256",
          "name": "",
          "type": "uint256"
        }
      ],
      "stateMutability": "view",
      "type": "function"
    },
    {
      "inputs": [],
      "name": "PERMIT_TYPEHASH",
      "outputs": [
        {
          "internalType": "bytes32",
          "name": "",
          "type": "bytes32"
        }
      ],
      "stateMutability": "view",
      "type": "function"
    },
    {
      "inputs": [],
      "name": "RELAYER_ROLE",
      "outputs": [
        {
          "internalType": "bytes32",
          "name": "",
          "type": "bytes32"
        }
      ],
      "stateMutability": "view",
      "type": "function"
    },
    {
      "inputs": [],
      "name": "_chainId",
      "outputs": [
        {
          "internalType": "uint256",
          "name": "",
          "type": "uint256"
        }
      ],
      "stateMutability": "view",
      "type": "function"
    },
    {
      "inputs": [
        {
          "internalType": "uint8",
          "name": "",
          "type": "uint8"
        }
      ],
      "name": "_depositCounts",
      "outputs": [
        {
          "internalType": "uint64",
          "name": "",
          "type": "uint64"
        }
      ],
      "stateMutability": "view",
      "type": "function"
    },
    {
      "inputs": [],
      "name": "_domainID",
      "outputs": [
        {
          "internalType": "uint8",
          "name": "",
          "type": "uint8"
        }
      ],
      "stateMutability": "view",
      "type": "function"
    },
    {
      "inputs": [],
      "name": "_expiry",
      "outputs": [
        {
          "internalType": "uint40",
          "name": "",
          "type": "uint40"
        }
      ],
      "stateMutability": "view",
      "type": "function"
    },
    {
      "inputs": [],
      "name": "_fee",
      "outputs": [
        {
          "internalType": "uint256",
          "name": "",
          "type": "uint256"
        }
      ],
      "stateMutability": "view",
      "type": "function"
    },
    {
      "inputs": [],
      "name": "_feeHandler",
      "outputs": [
        {
          "internalType": "contract IFeeHandler",
          "name": "",
          "type": "address"
        }
      ],
      "stateMutability": "view",
      "type": "function"
    },
    {
      "inputs": [
        {
          "internalType": "uint72",
          "name": "destNonce",
          "type": "uint72"
        },
        {
          "internalType": "bytes32",
          "name": "dataHash",
          "type": "bytes32"
        },
        {
          "internalType": "address",
          "name": "relayer",
          "type": "address"
        }
      ],
      "name": "_hasVotedOnProposal",
      "outputs": [
        {
          "internalType": "bool",
          "name": "",
          "type": "bool"
        }
      ],
      "stateMutability": "view",
      "type": "function"
    },
    {
      "inputs": [],
      "name": "_relayerThreshold",
      "outputs": [
        {
          "internalType": "uint8",
          "name": "",
          "type": "uint8"
        }
      ],
      "stateMutability": "view",
      "type": "function"
    },
    {
      "inputs": [
        {
          "internalType": "bytes32",
          "name": "",
          "type": "bytes32"
        }
      ],
      "name": "_resourceIDToHandlerAddress",
      "outputs": [
        {
          "internalType": "address",
          "name": "",
          "type": "address"
        }
      ],
      "stateMutability": "view",
      "type": "function"
    },
    {
      "inputs": [],
      "name": "_totalRelayers",
      "outputs": [
        {
          "internalType": "uint256",
          "name": "",
          "type": "uint256"
        }
      ],
      "stateMutability": "view",
      "type": "function"
    },
    {
      "inputs": [
        {
          "internalType": "address",
          "name": "relayerAddress",
          "type": "address"
        }
      ],
      "name": "adminAddRelayer",
      "outputs": [],
      "stateMutability": "nonpayable",
      "type": "function"
    },
    {
      "inputs": [
        {
          "internalType": "uint256",
          "name": "expiry",
          "type": "uint256"
        }
      ],
      "name": "adminChangeExpiry",
      "outputs": [],
      "stateMutability": "nonpayable",
      "type": "function"
    },
    {
      "inputs": [
        {
          "internalType": "address",
          "name": "newFeeHandler",
          "type": "address"
        }
      ],
      "name": "adminChangeFeeHandler",
      "outputs": [],
      "stateMutability": "nonpayable",
      "type": "function"
    },
    {
      "inputs": [
        {
          "internalType": "uint256",
          "name": "newThreshold",
          "type": "uint256"
        }
      ],
      "name": "adminChangeRelayerThreshold",
      "outputs": [],
      "stateMutability": "nonpayable",
      "type": "function"
    },
    {
      "inputs": [],
      "name": "adminPauseTransfers",
      "outputs": [],
      "stateMutability": "nonpayable",
      "type": "function"
    },
    {
      "inputs": [
        {
          "internalType": "address",
          "name": "relayerAddress",
          "type": "address"
        }
      ],
      "name": "adminRemoveRelayer",
      "outputs": [],
      "stateMutability": "nonpayable",
      "type": "function"
    },
    {
      "inputs": [
        {
          "internalType": "address",
          "name": "handlerAddress",
          "type": "address"
        },
        {
          "internalType": "address",
          "name": "tokenAddress",
          "type": "address"
        }
      ],
      "name": "adminSetBurnable",
      "outputs": [],
      "stateMutability": "nonpayable",
      "type": "function"
    },
    {
      "inputs": [
        {
          "internalType": "uint8",
          "name": "domainID",
          "type": "uint8"
        },
        {
          "internalType": "uint64",
          "name": "nonce",
          "type": "uint64"
        }
      ],
      "name": "adminSetDepositNonce",
      "outputs": [],
      "stateMutability": "nonpayable",
      "type": "function"
    },
    {
      "inputs": [
        {
          "internalType": "address",
          "name": "forwarder",
          "type": "address"
        },
        {
          "internalType": "bool",
          "name": "valid",
          "type": "bool"
        }
      ],
      "name": "adminSetForwarder",
      "outputs": [],
      "stateMutability": "nonpayable",
      "type": "function"
    },
    {
      "inputs": [
        {
          "internalType": "address",
          "name": "handlerAddress",
          "type": "address"
        },
        {
          "internalType": "bytes32",
          "name": "resourceID",
          "type": "bytes32"
        },
        {
          "internalType": "address",
          "name": "contractAddress",
          "type": "address"
        },
        {
          "internalType": "bytes4",
          "name": "depositFunctionSig",
          "type": "bytes4"
        },
        {
          "internalType": "uint256",
          "name": "depositFunctionDepositerOffset",
          "type": "uint256"
        },
        {
          "internalType": "bytes4",
          "name": "executeFunctionSig",
          "type": "bytes4"
        }
      ],
      "name": "adminSetGenericResource",
      "outputs": [],
      "stateMutability": "nonpayable",
      "type": "function"
    },
    {
      "inputs": [
        {
          "internalType": "address",
          "name": "handlerAddress",
          "type": "address"
        }
      ],
      "name": "adminSetNativeResource",
      "outputs": [],
      "stateMutability": "nonpayable",
      "type": "function"
    },
    {
      "inputs": [
        {
          "internalType": "address",
          "name": "handlerAddress",
          "type": "address"
        },
        {
          "internalType": "bytes32",
          "name": "resourceID",
          "type": "bytes32"
        },
        {
          "internalType": "address",
          "name": "tokenAddress",
          "type": "address"
        }
      ],
      "name": "adminSetResource",
      "outputs": [],
      "stateMutability": "nonpayable",
      "type": "function"
    },
    {
      "inputs": [],
      "name": "adminUnpauseTransfers",
      "outputs": [],
      "stateMutability": "nonpayable",
      "type": "function"
    },
    {
      "inputs": [
        {
          "internalType": "address",
          "name": "handlerAddress",
          "type": "address"
        },
        {
          "internalType": "bytes",
          "name": "data",
          "type": "bytes"
        }
      ],
      "name": "adminWithdraw",
      "outputs": [],
      "stateMutability": "nonpayable",
      "type": "function"
    },
    {
      "inputs": [
        {
          "internalType": "address",
          "name": "handlerAddress",
          "type": "address"
        },
        {
          "internalType": "bytes",
          "name": "data",
          "type": "bytes"
        }
      ],
      "name": "adminWithdrawETH",
      "outputs": [],
      "stateMutability": "nonpayable",
      "type": "function"
    },
    {
      "inputs": [
        {
          "internalType": "bytes32",
          "name": "resourceID",
          "type": "bytes32"
        },
        {
          "internalType": "address",
          "name": "nativeAddress",
          "type": "address"
        },
        {
          "internalType": "bool",
          "name": "isNative",
          "type": "bool"
        }
      ],
      "name": "adminsetNative",
      "outputs": [],
      "stateMutability": "nonpayable",
      "type": "function"
    },
    {
      "inputs": [
        {
          "internalType": "uint8",
          "name": "destinationDomainID",
          "type": "uint8"
        },
        {
          "internalType": "bytes32",
          "name": "resourceID",
          "type": "bytes32"
        },
        {
          "internalType": "bytes",
          "name": "depositData",
          "type": "bytes"
        },
        {
          "internalType": "bytes",
          "name": "feeData",
          "type": "bytes"
        }
      ],
      "name": "calculateFee",
      "outputs": [
        {
          "internalType": "uint256",
          "name": "",
          "type": "uint256"
        }
      ],
      "stateMutability": "view",
      "type": "function"
    },
    {
      "inputs": [
        {
          "internalType": "uint8",
          "name": "domainID",
          "type": "uint8"
        },
        {
          "internalType": "uint64",
          "name": "depositNonce",
          "type": "uint64"
        },
        {
          "internalType": "bytes32",
          "name": "dataHash",
          "type": "bytes32"
        }
      ],
      "name": "cancelProposal",
      "outputs": [],
      "stateMutability": "nonpayable",
      "type": "function"
    },
    {
      "inputs": [
        {
          "internalType": "uint8",
          "name": "domainID",
          "type": "uint8"
        },
        {
          "internalType": "uint64",
          "name": "depositNonce",
          "type": "uint64"
        },
        {
          "internalType": "bytes32",
          "name": "resourceID",
          "type": "bytes32"
        },
        {
          "internalType": "bytes",
          "name": "data",
          "type": "bytes"
        },
        {
          "internalType": "bytes",
          "name": "signature",
          "type": "bytes"
        }
      ],
      "name": "checkSignature",
      "outputs": [
        {
          "internalType": "bool",
          "name": "",
          "type": "bool"
        }
      ],
      "stateMutability": "view",
      "type": "function"
    },
    {
      "inputs": [
        {
          "internalType": "uint8",
          "name": "destinationDomainID",
          "type": "uint8"
        },
        {
          "internalType": "bytes32",
          "name": "resourceID",
          "type": "bytes32"
        },
        {
          "internalType": "bytes",
          "name": "depositData",
          "type": "bytes"
        },
        {
          "internalType": "bytes",
          "name": "feeData",
          "type": "bytes"
        }
      ],
      "name": "deposit",
      "outputs": [],
      "stateMutability": "payable",
      "type": "function"
    },
    {
      "inputs": [
        {
          "internalType": "uint8",
          "name": "domainID",
          "type": "uint8"
        },
        {
          "internalType": "uint64",
          "name": "depositNonce",
          "type": "uint64"
        },
        {
          "internalType": "bytes",
          "name": "data",
          "type": "bytes"
        },
        {
          "internalType": "bytes32",
          "name": "resourceID",
          "type": "bytes32"
        },
        {
          "internalType": "bool",
          "name": "revertOnFail",
          "type": "bool"
        }
      ],
      "name": "executeProposal",
      "outputs": [],
      "stateMutability": "nonpayable",
      "type": "function"
    },
    {
      "inputs": [
        {
          "internalType": "uint8",
          "name": "originDomainID",
          "type": "uint8"
        },
        {
          "internalType": "uint64",
          "name": "depositNonce",
          "type": "uint64"
        },
        {
          "internalType": "bytes32",
          "name": "dataHash",
          "type": "bytes32"
        }
      ],
      "name": "getProposal",
      "outputs": [
        {
          "components": [
            {
              "internalType": "enum IBridge.ProposalStatus",
              "name": "_status",
              "type": "uint8"
            },
            {
              "internalType": "uint200",
              "name": "_yesVotes",
              "type": "uint200"
            },
            {
              "internalType": "uint8",
              "name": "_yesVotesTotal",
              "type": "uint8"
            },
            {
              "internalType": "uint40",
              "name": "_proposedBlock",
              "type": "uint40"
            }
          ],
          "internalType": "struct IBridge.Proposal",
          "name": "",
          "type": "tuple"
        }
      ],
      "stateMutability": "view",
      "type": "function"
    },
    {
      "inputs": [
        {
          "internalType": "bytes32",
          "name": "role",
          "type": "bytes32"
        }
      ],
      "name": "getRoleAdmin",
      "outputs": [
        {
          "internalType": "bytes32",
          "name": "",
          "type": "bytes32"
        }
      ],
      "stateMutability": "view",
      "type": "function"
    },
    {
      "inputs": [
        {
          "internalType": "bytes32",
          "name": "role",
          "type": "bytes32"
        },
        {
          "internalType": "uint256",
          "name": "index",
          "type": "uint256"
        }
      ],
      "name": "getRoleMember",
      "outputs": [
        {
          "internalType": "address",
          "name": "",
          "type": "address"
        }
      ],
      "stateMutability": "view",
      "type": "function"
    },
    {
      "inputs": [
        {
          "internalType": "bytes32",
          "name": "role",
          "type": "bytes32"
        }
      ],
      "name": "getRoleMemberCount",
      "outputs": [
        {
          "internalType": "uint256",
          "name": "",
          "type": "uint256"
        }
      ],
      "stateMutability": "view",
      "type": "function"
    },
    {
      "inputs": [
        {
          "internalType": "bytes32",
          "name": "role",
          "type": "bytes32"
        },
        {
          "internalType": "address",
          "name": "account",
          "type": "address"
        }
      ],
      "name": "getRoleMemberIndex",
      "outputs": [
        {
          "internalType": "uint256",
          "name": "",
          "type": "uint256"
        }
      ],
      "stateMutability": "view",
      "type": "function"
    },
    {
      "inputs": [
        {
          "internalType": "bytes32",
          "name": "role",
          "type": "bytes32"
        },
        {
          "internalType": "address",
          "name": "account",
          "type": "address"
        }
      ],
      "name": "grantRole",
      "outputs": [],
      "stateMutability": "nonpayable",
      "type": "function"
    },
    {
      "inputs": [
        {
          "internalType": "bytes32",
          "name": "role",
          "type": "bytes32"
        },
        {
          "internalType": "address",
          "name": "account",
          "type": "address"
        }
      ],
      "name": "hasRole",
      "outputs": [
        {
          "internalType": "bool",
          "name": "",
          "type": "bool"
        }
      ],
      "stateMutability": "view",
      "type": "function"
    },
    {
      "inputs": [
        {
          "internalType": "uint8",
          "name": "domainID",
          "type": "uint8"
        },
        {
          "internalType": "address[]",
          "name": "initialRelayers",
          "type": "address[]"
        },
        {
          "internalType": "uint256",
          "name": "initialRelayerThreshold",
          "type": "uint256"
        },
        {
          "internalType": "uint256",
          "name": "expiry",
          "type": "uint256"
        }
      ],
      "name": "initialize",
      "outputs": [],
      "stateMutability": "nonpayable",
      "type": "function"
    },
    {
      "inputs": [
        {
          "internalType": "address",
          "name": "relayer",
          "type": "address"
        }
      ],
      "name": "isRelayer",
      "outputs": [
        {
          "internalType": "bool",
          "name": "",
          "type": "bool"
        }
      ],
      "stateMutability": "view",
      "type": "function"
    },
    {
      "inputs": [
        {
          "internalType": "address",
          "name": "",
          "type": "address"
        }
      ],
      "name": "isValidForwarder",
      "outputs": [
        {
          "internalType": "bool",
          "name": "",
          "type": "bool"
        }
      ],
      "stateMutability": "view",
      "type": "function"
    },
    {
      "inputs": [],
      "name": "paused",
      "outputs": [
        {
          "internalType": "bool",
          "name": "",
          "type": "bool"
        }
      ],
      "stateMutability": "view",
      "type": "function"
    },
    {
      "inputs": [
        {
          "internalType": "address",
          "name": "newAdmin",
          "type": "address"
        }
      ],
      "name": "renounceAdmin",
      "outputs": [],
      "stateMutability": "nonpayable",
      "type": "function"
    },
    {
      "inputs": [
        {
          "internalType": "bytes32",
          "name": "role",
          "type": "bytes32"
        },
        {
          "internalType": "address",
          "name": "account",
          "type": "address"
        }
      ],
      "name": "renounceRole",
      "outputs": [],
      "stateMutability": "nonpayable",
      "type": "function"
    },
    {
      "inputs": [
        {
          "internalType": "bytes32",
          "name": "role",
          "type": "bytes32"
        },
        {
          "internalType": "address",
          "name": "account",
          "type": "address"
        }
      ],
      "name": "revokeRole",
      "outputs": [],
      "stateMutability": "nonpayable",
      "type": "function"
    },
    {
      "inputs": [
        {
          "internalType": "address payable[]",
          "name": "addrs",
          "type": "address[]"
        },
        {
          "internalType": "uint256[]",
          "name": "amounts",
          "type": "uint256[]"
        }
      ],
      "name": "transferFunds",
      "outputs": [],
      "stateMutability": "nonpayable",
      "type": "function"
    },
    {
      "inputs": [
        {
          "internalType": "uint8",
          "name": "domainID",
          "type": "uint8"
        },
        {
          "internalType": "uint64",
          "name": "depositNonce",
          "type": "uint64"
        },
        {
          "internalType": "bytes32",
          "name": "resourceID",
          "type": "bytes32"
        },
        {
          "internalType": "bytes",
          "name": "data",
          "type": "bytes"
        }
      ],
      "name": "voteProposal",
      "outputs": [],
      "stateMutability": "nonpayable",
      "type": "function"
    },
    {
      "inputs": [
        {
          "internalType": "uint8",
          "name": "domainID",
          "type": "uint8"
        },
        {
          "internalType": "uint64",
          "name": "depositNonce",
          "type": "uint64"
        },
        {
          "internalType": "bytes32",
          "name": "resourceID",
          "type": "bytes32"
        },
        {
          "internalType": "bytes",
          "name": "data",
          "type": "bytes"
        },
        {
          "internalType": "bytes[]",
          "name": "signatures",
          "type": "bytes[]"
        }
      ],
      "name": "voteProposals",
      "outputs": [],
      "stateMutability": "nonpayable",
      "type": "function"
    }
  ],
  "bytecode": "0x608060405234801561001057600080fd5b5061480a806100206000396000f3fe6080604052600436106102ff5760003560e01c80639010d07c11610190578063c5ec8970116100dc578063d7a9cd7911610095578063f8c39e441161006f578063f8c39e4414610984578063fe4648f4146109b4578063fe65c4be146109db578063ffaac0eb146109fb57600080fd5b8063d7a9cd7914610925578063e2469d4014610944578063edc20c3c1461096457600080fd5b8063c5ec89701461084b578063ca15c87314610885578063cb10f215146108a5578063cdb0f73a146108c5578063d15ef64e146108e5578063d547741f1461090557600080fd5b80639debb3bd11610149578063b4d89a0711610123578063b4d89a07146107d6578063bd2a1820146107f6578063c0331b3e14610816578063c5b37c221461083657600080fd5b80639debb3bd1461077f578063a217fddf14610794578063a9cf69fa146107a957600080fd5b80639010d07c146106b157806391d14854146106d1578063926d7d7f146106f15780639d4d39f5146107135780639d82dd63146107335780639dd694f41461075357600080fd5b80635c975abb1161024f5780637d026d961161020857806380ae1c28116101e257806380ae1c281461060e57806384db809f146106235780638b63aebf146106715780638c0c26311461069157600080fd5b80637d026d96146105b95780637febe63f146105d9578063802aabe8146105f957600080fd5b80635c975abb1461051b5780635e1fab0f146105335780636d3b6eea146105535780637292dd911461057357806373c45c981461059357806374773412146105a657600080fd5b806336568abe116102bc5780634e056005116102965780634e0560051461048b5780634e0df3f6146104ab578063541d5548146104cb5780635a1ad87c146104fb57600080fd5b806336568abe146103fd5780634603ae381461041d5780634b0b919d1461043d57600080fd5b806317f03ce514610304578063206a98fd146103265780632214262714610346578063248a9ca3146103665780632f2ff15d146103a957806330adf81f146103c9575b600080fd5b34801561031057600080fd5b5061032461031f366004613a0b565b610a10565b005b34801561033257600080fd5b50610324610341366004613a98565b610ca5565b34801561035257600080fd5b50610324610361366004613b29565b610f2b565b34801561037257600080fd5b50610396610381366004613b67565b60009081526099602052604090206002015490565b6040519081526020015b60405180910390f35b3480156103b557600080fd5b506103246103c4366004613b80565b610fb0565b3480156103d557600080fd5b506103967fc4cb5d35714699d6e85b9562b644e60393b418d974a5c1dd8efaadac37a142c581565b34801561040957600080fd5b50610324610418366004613b80565b611040565b34801561042957600080fd5b50610324610438366004613bf4565b6110ca565b34801561044957600080fd5b50610473610458366004613c5f565b609b602052600090815260409020546001600160401b031681565b6040516001600160401b0390911681526020016103a0565b34801561049757600080fd5b506103246104a6366004613b67565b61116e565b3480156104b757600080fd5b506103966104c6366004613b80565b6111d1565b3480156104d757600080fd5b506104eb6104e6366004613c7a565b6111fe565b60405190151581526020016103a0565b34801561050757600080fd5b50610324610516366004613caf565b611218565b34801561052757600080fd5b5060355460ff166104eb565b34801561053f57600080fd5b5061032461054e366004613c7a565b6112ce565b34801561055f57600080fd5b5061032461056e366004613dd0565b61135a565b34801561057f57600080fd5b5061032461058e366004613e42565b6113c7565b6103246105a1366004613f46565b611add565b3480156105b257600080fd5b5046610396565b3480156105c557600080fd5b506103246105d4366004613b67565b611d86565b3480156105e557600080fd5b506104eb6105f4366004613fcf565b611dbc565b34801561060557600080fd5b50610396611e60565b34801561061a57600080fd5b50610324611e7e565b34801561062f57600080fd5b5061065961063e366004613b67565b609c602052600090815260409020546001600160a01b031681565b6040516001600160a01b0390911681526020016103a0565b34801561067d57600080fd5b5061032461068c366004613c7a565b611e98565b34801561069d57600080fd5b506103246106ac36600461401d565b611efe565b3480156106bd57600080fd5b506106596106cc36600461404b565b611f37565b3480156106dd57600080fd5b506104eb6106ec366004613b80565b611f56565b3480156106fd57600080fd5b506103966000805160206147b583398151915281565b34801561071f57600080fd5b5061039661072e366004613f46565b611f6e565b34801561073f57600080fd5b5061032461074e366004613c7a565b612037565b34801561075f57600080fd5b50609a5461076d9060ff1681565b60405160ff90911681526020016103a0565b34801561078b57600080fd5b5061039660c881565b3480156107a057600080fd5b50610396600081565b3480156107b557600080fd5b506107c96107c4366004613a0b565b612090565b6040516103a091906140a5565b3480156107e257600080fd5b506103246107f13660046140ee565b61215e565b34801561080257600080fd5b50610324610811366004613dd0565b6122e6565b34801561082257600080fd5b506103246108313660046141a8565b61231c565b34801561084257600080fd5b506103966127f2565b34801561085757600080fd5b50609a5461086f9062010000900464ffffffffff1681565b60405164ffffffffff90911681526020016103a0565b34801561089157600080fd5b506103966108a0366004613b67565b61288a565b3480156108b157600080fd5b506103246108c0366004614216565b6128a1565b3480156108d157600080fd5b506103246108e0366004613c7a565b612902565b3480156108f157600080fd5b50610324610900366004614236565b6129ab565b34801561091157600080fd5b50610324610920366004613b80565b6129de565b34801561093157600080fd5b50609a5461076d90610100900460ff1681565b34801561095057600080fd5b5061032461095f366004613c7a565b612a61565b34801561097057600080fd5b5061032461097f36600461426b565b612b48565b34801561099057600080fd5b506104eb61099f366004613c7a565b609d6020526000908152604090205460ff1681565b3480156109c057600080fd5b50609a5461065990600160381b90046001600160a01b031681565b3480156109e757600080fd5b506104eb6109f6366004614295565b612c01565b348015610a0757600080fd5b50610324612d0b565b610a18612d23565b60ff838116600884901b68ffffffffffffffff0016176000818152609e60209081526040808320868452909152808220815160808101909252805493949293919290918391166004811115610a6f57610a6f61406d565b6004811115610a8057610a8061406d565b8152905461010081046001600160c81b03166020830152600160d01b810460ff166040830152600160d81b900464ffffffffff1660609091015280519091506001816004811115610ad357610ad361406d565b1480610af057506002816004811115610aee57610aee61406d565b145b610b415760405162461bcd60e51b815260206004820152601c60248201527f50726f706f73616c2063616e6e6f742062652063616e63656c6c65640000000060448201526064015b60405180910390fd5b609a54606083015164ffffffffff62010000909204821691610b6591439116612da7565b64ffffffffff1611610bb95760405162461bcd60e51b815260206004820181905260248201527f50726f706f73616c206e6f7420617420657870697279207468726573686f6c646044820152606401610b38565b60048083526001600160481b0384166000908152609e602090815260408083208884529091529020835181548593839160ff1916906001908490811115610c0257610c0261406d565b02179055506020820151815460408085015160609095015164ffffffffff16600160d81b026001600160d81b0360ff909616600160d01b0260ff60d01b196001600160c81b039095166101000294909416610100600160d81b03199093169290921792909217939093169290921790555160008051602061479583398151915290610c959088908890600490899061432f565b60405180910390a1505050505050565b610cad612de9565b610cb5612e4f565b6000828152609c602090815260408083205490516001600160a01b039091169268ffffffffffffffff0060088a901b1660ff8b1617929091610cfd9185918a918a9101614364565b60408051601f1981840301815291815281516020928301206001600160481b0385166000908152609e845282812082825290935291209091506002815460ff166004811115610d4e57610d4e61406d565b14610d9b5760405162461bcd60e51b815260206004820181905260248201527f50726f706f73616c206d757374206861766520506173736564207374617475736044820152606401610b38565b805460ff19166003178155838515610e145760405163712467f960e11b81526001600160a01b0382169063e248cff290610ddd908a908d908d906004016143b9565b600060405180830381600087803b158015610df757600080fd5b505af1158015610e0b573d6000803e3d6000fd5b50505050610ef1565b60405163712467f960e11b81526001600160a01b0382169063e248cff290610e44908a908d908d906004016143b9565b600060405180830381600087803b158015610e5e57600080fd5b505af1925050508015610e6f575060015b610ef1573d808015610e9d576040519150601f19603f3d011682016040523d82523d6000602084013e610ea2565b606091505b50825460ff191660021783556040517fbd37c1f0d53bb2f33fe4c2104de272fcdeb4d2fef3acdbf1e4ddc3d6833ca37690610ede90839061442f565b60405180910390a1505050505050610f23565b6000805160206147958339815191528b8b600386604051610f15949392919061432f565b60405180910390a150505050505b505050505050565b610f33612e95565b6000838152609c60205260409081902054905163789d771160e01b81526001600160a01b038481166004830152831515602483015290911690819063789d7711906044015b600060405180830381600087803b158015610f9257600080fd5b505af1158015610fa6573d6000803e3d6000fd5b5050505050505050565b600082815260996020526040902060020154610fce906106ec612eee565b6110325760405162461bcd60e51b815260206004820152602f60248201527f416363657373436f6e74726f6c3a2073656e646572206d75737420626520616e60448201526e0818591b5a5b881d1bc819dc985b9d608a1b6064820152608401610b38565b61103c8282612f2f565b5050565b611048612eee565b6001600160a01b0316816001600160a01b0316146110c05760405162461bcd60e51b815260206004820152602f60248201527f416363657373436f6e74726f6c3a2063616e206f6e6c792072656e6f756e636560448201526e103937b632b9903337b91039b2b63360891b6064820152608401610b38565b61103c8282612f98565b6110d2612e95565b60005b83811015611167578484828181106110ef576110ef614442565b90506020020160208101906111049190613c7a565b6001600160a01b03166108fc84848481811061112257611122614442565b905060200201359081150290604051600060405180830381858888f19350505050158015611154573d6000803e3d6000fd5b508061115f8161446e565b9150506110d5565b5050505050565b611176612e95565b61117f81613001565b609a805460ff929092166101000261ff00199092169190911790556040518181527fa20d6b84cd798a24038be305eff8a45ca82ef54a2aa2082005d8e14c0a4746c8906020015b60405180910390a150565b60008281526099602090815260408083206001600160a01b03851684526001019091529020545b92915050565b60006111f86000805160206147b583398151915283611f56565b611220612e95565b6000858152609c60205260409081902080546001600160a01b0319166001600160a01b03898116918217909255915163de319d9960e01b81526004810188905290861660248201526001600160e01b03198086166044830152606482018590528316608482015287919063de319d999060a401600060405180830381600087803b1580156112ad57600080fd5b505af11580156112c1573d6000803e3d6000fd5b5050505050505050505050565b6112d6612e95565b60006112e0612eee565b9050816001600160a01b0316816001600160a01b031614156113445760405162461bcd60e51b815260206004820152601760248201527f43616e6e6f742072656e6f756e6365206f6e6573656c660000000000000000006044820152606401610b38565b61134f600083610fb0565b61103c600082611040565b611362612e95565b60405163ab5c7bf160e01b815282906001600160a01b0382169063ab5c7bf19061139090859060040161442f565b600060405180830381600087803b1580156113aa57600080fd5b505af11580156113be573d6000803e3d6000fd5b50505050505050565b6113cf612e4f565b6000848152609c602090815260408083205490516001600160a01b039091169268ffffffffffffffff0060088a901b1660ff8b16179290916114179185918991899101614364565b60408051601f1981840301815282825280516020918201206001600160481b0386166000908152609e835283812082825290925282822060808501909352825490945090929190829060ff1660048111156114745761147461406d565b60048111156114855761148561406d565b8152905461010081046001600160c81b0316602080840191909152600160d01b820460ff16604080850191909152600160d81b90920464ffffffffff1660609093019290925260008b8152609c9092529020549091506001600160a01b031661152c5760405162461bcd60e51b81526020600482015260196024820152781b9bc81a185b991b195c88199bdc881c995cdbdd5c98d95251603a1b6044820152606401610b38565b60005b855181101561196b5760028251600481111561154d5761154d61406d565b14156115e9576003825260405163712467f960e11b815285906001600160a01b0382169063e248cff290611589908d908d908d906004016143b9565b600060405180830381600087803b1580156115a357600080fd5b505af11580156115b7573d6000803e3d6000fd5b505050506000805160206147958339815191528c8c6003876040516115df949392919061432f565b60405180910390a1505b60007fc4cb5d35714699d6e85b9562b644e60393b418d974a5c1dd8efaadac37a142c58c8c8c8c8c60405161161f929190614489565b604051908190038120611662959493929160200194855260ff9390931660208501526001600160401b039190911660408401526060830152608082015260a00190565b604051602081830303815290604052805190602001209050600061168582613058565b905060006116ac828a868151811061169f5761169f614442565b60200260200101516130a6565b90506116c66000805160206147b583398151915282611f56565b6116f55760405163b4d8a3a160e01b81526001600160a01b038216600482015260248101859052604401610b38565b8451600190600481111561170b5761170b61406d565b11156117295760405162461bcd60e51b8152600401610b3890614499565b61173385826130ca565b156117785760405162461bcd60e51b81526020600482015260156024820152741c995b185e595c88185b1c9958591e481d9bdd1959605a1b6044820152606401610b38565b60008551600481111561178d5761178d61406d565b14156117fe576040805160808101909152806001815260200160006001600160c81b03168152602001600060ff1681526020014364ffffffffff1681525094506000805160206147958339815191528e8e6001896040516117f1949392919061432f565b60405180910390a1611864565b609a54606086015164ffffffffff6201000090920482169161182291439116612da7565b64ffffffffff1611156118645760048581815250506000805160206147958339815191528e8e60048960405161185b949392919061432f565b60405180910390a15b6004855160048111156118795761187961406d565b146119555761189e61188a826130ed565b86602001516001600160c81b03161761311b565b6001600160c81b03166020860152604085018051906118bc826144dc565b60ff1660ff16815250507f25f8daaa4635a7729927ba3f5b3d59cc3320aca7c32c9db4e7ca7b95743436408e8e8760000151896040516118ff949392919061432f565b60405180910390a1609a54604086015160ff61010090920482169116106119555760028581815250506000805160206147958339815191528e8e60028960405161194c949392919061432f565b60405180910390a15b50505080806119639061446e565b91505061152f565b506002815160048111156119815761198161406d565b1415611a1d576003815260405163712467f960e11b815284906001600160a01b0382169063e248cff2906119bd908c908c908c906004016143b9565b600060405180830381600087803b1580156119d757600080fd5b505af11580156119eb573d6000803e3d6000fd5b505050506000805160206147958339815191528b8b600386604051611a13949392919061432f565b60405180910390a1505b6001600160481b0383166000908152609e6020908152604080832085845290915290208151815483929190829060ff19166001836004811115611a6257611a6261406d565b021790555060208201518154604084015160609094015164ffffffffff16600160d81b026001600160d81b0360ff909516600160d01b0260ff60d01b196001600160c81b039094166101000293909316610100600160d81b031990921691909117919091179290921691909117905550505050505050505050565b611ae5612e4f565b6000611aef612eee565b609a549091503490600160381b90046001600160a01b031615611c2757609a5460405163ef4f081f60e01b81526000916001600160a01b03600160381b8204169163ef4f081f91611b5491879160ff16908e908e908e908e908e908e906004016144fc565b6040805180830381865afa158015611b70573d6000803e3d6000fd5b505050506040513d601f19601f82011682018060405250810190611b949190614549565b5090508015611c2557609a54604051632530706560e01b81526001600160a01b03600160381b830416916325307065918491611be491889160ff16908f908f908f908f908f908f906004016144fc565b6000604051808303818588803b158015611bfd57600080fd5b505af1158015611c11573d6000803e3d6000fd5b50505050508082611c22919061456e565b91505b505b6000878152609c60205260409020546001600160a01b031680611c5d576040516308c231dd60e31b815260040160405180910390fd5b60ff89166000908152609b6020526040812080548290611c85906001600160401b0316614585565b91906101000a8154816001600160401b0302191690836001600160401b031602179055905060008290506000816001600160a01b031663b07e54bb868d898e8e6040518663ffffffff1660e01b8152600401611ce494939291906145ac565b60006040518083038185885af1158015611d02573d6000803e3d6000fd5b50505050506040513d6000823e601f3d908101601f19168201604052611d2b91908101906145d7565b9050856001600160a01b03167f17bc3181e17a9620a479c24e6c606e474ba84fc036877b768926872e8cd0e11f8d8d868e8e87604051611d7096959493929190614644565b60405180910390a2505050505050505050505050565b611d8e612e95565b611d9781613170565b609a60026101000a81548164ffffffffff021916908364ffffffffff16021790555050565b6001600160481b0383166000908152609e602090815260408083208584529091528082208151608081019092528054611e58929190829060ff166004811115611e0757611e0761406d565b6004811115611e1857611e1861406d565b8152905461010081046001600160c81b03166020830152600160d01b810460ff166040830152600160d81b900464ffffffffff16606090910152836130ca565b949350505050565b6000611e796000805160206147b583398151915261288a565b905090565b611e86612e95565b611e96611e91612eee565b6131c7565b565b611ea0612e95565b609a8054670100000000000000600160d81b031916600160381b6001600160a01b038416908102919091179091556040519081527f729170bd142e4965055b26a285faeedf03baf2b915bfc5a7c75d24b45815ff2c906020016111c6565b611f06612e95565b6040516307b7ed9960e01b81526001600160a01b0382811660048301528391908216906307b7ed9990602401611390565b6000828152609960205260408120611f4f9083613215565b9392505050565b6000828152609960205260408120611f4f9083613221565b600080611f79612eee565b609a54909150600160381b90046001600160a01b03161561202757609a5460405163ef4f081f60e01b81526000916001600160a01b03600160381b8204169163ef4f081f91611fdc91869160ff16908e908e908e908e908e908e906004016144fc565b6040805180830381865afa158015611ff8573d6000803e3d6000fd5b505050506040513d601f19601f8201168201806040525081019061201c9190614549565b50925061202d915050565b60009150505b9695505050505050565b61203f612e95565b6120576000805160206147b5833981519152826129de565b6040516001600160a01b03821681527f10e1f7ce9fd7d1b90a66d13a2ab3cb8dd7f29f3f8d520b143b063ccfbab6906b906020016111c6565b60408051608081018252600080825260208201819052918101829052606081019190915260ff848116600885901b68ffffffffffffffff0016176000818152609e60209081526040808320878452909152908190208151608081019092528054929391929091839116600481111561210a5761210a61406d565b600481111561211b5761211b61406d565b8152905461010081046001600160c81b03166020830152600160d01b810460ff166040830152600160d81b900464ffffffffff1660609091015295945050505050565b600054610100900460ff166121795760005460ff161561217d565b303b155b6121995760405162461bcd60e51b8152600401610b3890614695565b600054610100900460ff161580156121bb576000805461ffff19166101011790555b6121c3613243565b61220c6040518060400160405280600c81526020016b5065726d697442726964676560a01b815250604051806040016040528060038152602001620312e360ec1b8152506132bc565b609a805460ff191660ff871617905561222483613001565b609a60016101000a81548160ff021916908360ff16021790555061224782613170565b609a805464ffffffffff92909216620100000266ffffffffff00001990921691909117905561227e6000612279612eee565b611032565b60005b84518110156122cd576122bb6000805160206147b58339815191528683815181106122ae576122ae614442565b6020026020010151610fb0565b806122c58161446e565b915050612281565b508015611167576000805461ff00191690555050505050565b6122ee612e95565b60405163025a3c9960e21b815282906001600160a01b03821690630968f2649061139090859060040161442f565b612324612de9565b61232c612e4f565b6000838152609c602090815260408083205490516001600160a01b039091169268ffffffffffffffff00600889901b1660ff8a16179290916123749185918891889101614364565b60408051601f1981840301815282825280516020918201206001600160481b0386166000908152609e835283812082825290925282822060808501909352825490945090929190829060ff1660048111156123d1576123d161406d565b60048111156123e2576123e261406d565b8152905461010081046001600160c81b0316602080840191909152600160d01b820460ff16604080850191909152600160d81b90920464ffffffffff1660609093019290925260008a8152609c9092529020549091506001600160a01b03166124895760405162461bcd60e51b81526020600482015260196024820152781b9bc81a185b991b195c88199bdc881c995cdbdd5c98d95251603a1b6044820152606401610b38565b60028151600481111561249e5761249e61406d565b14156124bc576124b3898988888b6001610ca5565b50505050611167565b60006124c6612eee565b90506001826000015160048111156124e0576124e061406d565b11156124fe5760405162461bcd60e51b8152600401610b3890614499565b61250882826130ca565b1561254d5760405162461bcd60e51b81526020600482015260156024820152741c995b185e595c88185b1c9958591e481d9bdd1959605a1b6044820152606401610b38565b6000825160048111156125625761256261406d565b14156125c2576040805160808101825260018082526000602083018190528284015264ffffffffff431660608301529151909350600080516020614795833981519152916125b5918d918d91889061432f565b60405180910390a1612623565b609a54606083015164ffffffffff620100009092048216916125e691439116612da7565b64ffffffffff1611156126235760048083526040516000805160206147958339815191529161261a918d918d91889061432f565b60405180910390a15b6004825160048111156126385761263861406d565b146127085761265d612649826130ed565b83602001516001600160c81b03161761311b565b6001600160c81b031660208301526040820180519061267b826144dc565b60ff1690525081516040517f25f8daaa4635a7729927ba3f5b3d59cc3320aca7c32c9db4e7ca7b9574343640916126b7918d918d91889061432f565b60405180910390a1609a54604083015160ff6101009092048216911610612708576002808352604051600080516020614795833981519152916126ff918d918d91889061432f565b60405180910390a15b6001600160481b0384166000908152609e6020908152604080832086845290915290208251815484929190829060ff1916600183600481111561274d5761274d61406d565b021790555060208201518154604084015160609094015164ffffffffff16600160d81b026001600160d81b0360ff909516600160d01b0260ff60d01b196001600160c81b039094166101000293909316610100600160d81b03199092169190911791909117929092169190911790556002825160048111156127d1576127d161406d565b14156127e6576127e68a8a89898c6000610ca5565b50505050505050505050565b609a54600090600160381b90046001600160a01b03161561288457609a60079054906101000a90046001600160a01b03166001600160a01b031663c5b37c226040518163ffffffff1660e01b8152600401602060405180830381865afa158015612860573d6000803e3d6000fd5b505050506040513d601f19601f82011682018060405250810190611e7991906146e3565b50600090565b60008181526099602052604081206111f8906132ed565b6128a9612e95565b6000828152609c60205260409081902080546001600160a01b0319166001600160a01b038681169182179092559151635c7d1b9b60e11b815260048101859052908316602482015284919063b8fa373690604401610f78565b61290a612e95565b60c8612914611e60565b1061295a5760405162461bcd60e51b81526020600482015260166024820152751c995b185e595c9cc81b1a5b5a5d081c995858da195960521b6044820152606401610b38565b6129726000805160206147b583398151915282610fb0565b6040516001600160a01b03821681527f03580ee9f53a62b7cb409a2cb56f9be87747dd15017afc5cef6eef321e4fb2c5906020016111c6565b6129b3612e95565b6001600160a01b03919091166000908152609d60205260409020805460ff1916911515919091179055565b6000828152609960205260409020600201546129fc906106ec612eee565b6110c05760405162461bcd60e51b815260206004820152603060248201527f416363657373436f6e74726f6c3a2073656e646572206d75737420626520616e60448201526f2061646d696e20746f207265766f6b6560801b6064820152608401610b38565b612a69612e95565b609a5460019060009060ff16612a81836101006146fc565b612a8b919061471b565b6000818152609c60205260409081902080546001600160a01b0319166001600160a01b038781169182179092559151635c7d1b9b60e11b8152600481018490529085166024820152919250849163b8fa373690604401600060405180830381600087803b158015612afb57600080fd5b505af1158015612b0f573d6000803e3d6000fd5b505060405163789d771160e01b81526001600160a01b038681166004830152600160248301528416925063789d77119150604401610f78565b612b50612e95565b60ff82166000908152609b60205260409020546001600160401b0390811690821611612bcd5760405162461bcd60e51b815260206004820152602660248201527f446f6573206e6f7420616c6c6f772064656372656d656e7473206f6620746865604482015265206e6f6e636560d01b6064820152608401610b38565b60ff919091166000908152609b60205260409020805467ffffffffffffffff19166001600160401b03909216919091179055565b6000807fc4cb5d35714699d6e85b9562b644e60393b418d974a5c1dd8efaadac37a142c58989898989604051612c38929190614489565b604051908190038120612c7b959493929160200194855260ff9390931660208501526001600160401b039190911660408401526060830152608082015260a00190565b6040516020818303038152906040528051906020012090506000612c9e82613058565b90506000612ce28287878080601f0160208091040260200160405190810160405280939291908181526020018383808284376000920191909152506130a692505050565b9050612cfc6000805160206147b583398151915282611f56565b9b9a5050505050505050505050565b612d13612e95565b611e96612d1e612eee565b6132f7565b6000612d2d612eee565b9050612d3a600082611f56565b80612d585750612d586000805160206147b583398151915282611f56565b612da45760405162461bcd60e51b815260206004820152601e60248201527f73656e646572206973206e6f742072656c61796572206f722061646d696e00006044820152606401610b38565b50565b6000611f4f83836040518060400160405280601e81526020017f536166654d6174683a207375627472616374696f6e206f766572666c6f770000815250613342565b612e036000805160206147b58339815191526106ec612eee565b611e965760405162461bcd60e51b815260206004820181905260248201527f73656e64657220646f65736e277420686176652072656c6179657220726f6c656044820152606401610b38565b60355460ff1615611e965760405162461bcd60e51b815260206004820152601060248201526f14185d5cd8589b194e881c185d5cd95960821b6044820152606401610b38565b612ea260006106ec612eee565b611e965760405162461bcd60e51b815260206004820152601e60248201527f73656e64657220646f65736e277420686176652061646d696e20726f6c6500006044820152606401610b38565b60003360143610801590612f1a57506001600160a01b0381166000908152609d602052604090205460ff165b15612f2a575060131936013560601c5b919050565b6000828152609960205260409020612f47908261337c565b1561103c57612f54612eee565b6001600160a01b0316816001600160a01b0316837f2f8788117e7eff1d82e926ec794901d17c78024a50270940304540a733656f0d60405160405180910390a45050565b6000828152609960205260409020612fb09082613391565b1561103c57612fbd612eee565b6001600160a01b0316816001600160a01b0316837ff6391f5c32d9c69d2a47ea670b442974b53935d1edc7fd64eb21e047a839171b60405160405180910390a45050565b600061010082106130545760405162461bcd60e51b815260206004820152601c60248201527f76616c756520646f6573206e6f742066697420696e20382062697473000000006044820152606401610b38565b5090565b60006111f86130656133a6565b8360405161190160f01b6020820152602281018390526042810182905260009060620160405160208183030381529060405280519060200120905092915050565b60008060006130b58585613421565b915091506130c281613491565b509392505050565b60008083602001516001600160c81b03166130e4846130ed565b16119392505050565b600061311161310a6000805160206147b5833981519152846111d1565b6001612da7565b6001901b92915050565b6000600160c81b82106130545760405162461bcd60e51b815260206004820152601e60248201527f76616c756520646f6573206e6f742066697420696e20323030206269747300006044820152606401610b38565b60006501000000000082106130545760405162461bcd60e51b815260206004820152601d60248201527f76616c756520646f6573206e6f742066697420696e20343020626974730000006044820152606401610b38565b6131cf612e4f565b6035805460ff191660011790556040516001600160a01b03821681527f62e78cea01bee320cd4e420270b5ea74000d11b0c9f74754ebdbfc544b05a258906020016111c6565b6000611f4f838361364c565b6001600160a01b03811660009081526001830160205260408120541515611f4f565b600054610100900460ff1661325e5760005460ff1615613262565b303b155b61327e5760405162461bcd60e51b8152600401610b3890614695565b600054610100900460ff161580156132a0576000805461ffff19166101011790555b6132a8613676565b8015612da4576000805461ff001916905550565b600054610100900460ff166132e35760405162461bcd60e51b8152600401610b3890614733565b61103c82826136f1565b60006111f8825490565b6132ff613732565b6035805460ff191690556040516001600160a01b03821681527f5db9ee0a495bf2e6ff9c91a7834c1ba4fdd244a5e8aa4e537bd38aeae4b073aa906020016111c6565b600081848411156133665760405162461bcd60e51b8152600401610b38919061442f565b506000613373848661456e565b95945050505050565b6000611f4f836001600160a01b03841661377b565b6000611f4f836001600160a01b0384166137ca565b6000611e797f8b73c3c69bb8fe3d512ecc4cf759cc79239f7b179b0ffacaa9a75d522b39400f6133d560015490565b6002546040805160208101859052908101839052606081018290524660808201523060a082015260009060c0016040516020818303038152906040528051906020012090509392505050565b6000808251604114156134585760208301516040840151606085015160001a61344c878285856138bd565b9450945050505061348a565b82516040141561348257602083015160408401516134778683836139aa565b93509350505061348a565b506000905060025b9250929050565b60008160048111156134a5576134a561406d565b14156134ae5750565b60018160048111156134c2576134c261406d565b14156135105760405162461bcd60e51b815260206004820152601860248201527f45434453413a20696e76616c6964207369676e617475726500000000000000006044820152606401610b38565b60028160048111156135245761352461406d565b14156135725760405162461bcd60e51b815260206004820152601f60248201527f45434453413a20696e76616c6964207369676e6174757265206c656e677468006044820152606401610b38565b60038160048111156135865761358661406d565b14156135df5760405162461bcd60e51b815260206004820152602260248201527f45434453413a20696e76616c6964207369676e6174757265202773272076616c604482015261756560f01b6064820152608401610b38565b60048160048111156135f3576135f361406d565b1415612da45760405162461bcd60e51b815260206004820152602260248201527f45434453413a20696e76616c6964207369676e6174757265202776272076616c604482015261756560f01b6064820152608401610b38565b600082600001828154811061366357613663614442565b9060005260206000200154905092915050565b600054610100900460ff166136915760005460ff1615613695565b303b155b6136b15760405162461bcd60e51b8152600401610b3890614695565b600054610100900460ff161580156136d3576000805461ffff19166101011790555b6035805460ff191690558015612da4576000805461ff001916905550565b600054610100900460ff166137185760405162461bcd60e51b8152600401610b3890614733565b815160209283012081519190920120600191909155600255565b60355460ff16611e965760405162461bcd60e51b815260206004820152601460248201527314185d5cd8589b194e881b9bdd081c185d5cd95960621b6044820152606401610b38565b60008181526001830160205260408120546137c2575081546001818101845560008481526020808220909301849055845484825282860190935260409020919091556111f8565b5060006111f8565b600081815260018301602052604081205480156138b35760006137ee60018361456e565b85549091506000906138029060019061456e565b905081811461386757600086600001828154811061382257613822614442565b906000526020600020015490508087600001848154811061384557613845614442565b6000918252602080832090910192909255918252600188019052604090208390555b85548690806138785761387861477e565b6001900381819060005260206000200160009055905585600101600086815260200190815260200160002060009055600193505050506111f8565b60009150506111f8565b6000807f7fffffffffffffffffffffffffffffff5d576e7357a4501ddfe92f46681b20a08311156138f457506000905060036139a1565b8460ff16601b1415801561390c57508460ff16601c14155b1561391d57506000905060046139a1565b6040805160008082526020820180845289905260ff881692820192909252606081018690526080810185905260019060a0016020604051602081039080840390855afa158015613971573d6000803e3d6000fd5b5050604051601f1901519150506001600160a01b03811661399a576000600192509250506139a1565b9150600090505b94509492505050565b6000806001600160ff1b038316816139c760ff86901c601b61471b565b90506139d5878288856138bd565b935093505050935093915050565b803560ff81168114612f2a57600080fd5b80356001600160401b0381168114612f2a57600080fd5b600080600060608486031215613a2057600080fd5b613a29846139e3565b9250613a37602085016139f4565b9150604084013590509250925092565b60008083601f840112613a5957600080fd5b5081356001600160401b03811115613a7057600080fd5b60208301915083602082850101111561348a57600080fd5b80358015158114612f2a57600080fd5b60008060008060008060a08789031215613ab157600080fd5b613aba876139e3565b9550613ac8602088016139f4565b945060408701356001600160401b03811115613ae357600080fd5b613aef89828a01613a47565b90955093505060608701359150613b0860808801613a88565b90509295509295509295565b6001600160a01b0381168114612da457600080fd5b600080600060608486031215613b3e57600080fd5b833592506020840135613b5081613b14565b9150613b5e60408501613a88565b90509250925092565b600060208284031215613b7957600080fd5b5035919050565b60008060408385031215613b9357600080fd5b823591506020830135613ba581613b14565b809150509250929050565b60008083601f840112613bc257600080fd5b5081356001600160401b03811115613bd957600080fd5b6020830191508360208260051b850101111561348a57600080fd5b60008060008060408587031215613c0a57600080fd5b84356001600160401b0380821115613c2157600080fd5b613c2d88838901613bb0565b90965094506020870135915080821115613c4657600080fd5b50613c5387828801613bb0565b95989497509550505050565b600060208284031215613c7157600080fd5b611f4f826139e3565b600060208284031215613c8c57600080fd5b8135611f4f81613b14565b80356001600160e01b031981168114612f2a57600080fd5b60008060008060008060c08789031215613cc857600080fd5b8635613cd381613b14565b9550602087013594506040870135613cea81613b14565b9350613cf860608801613c97565b925060808701359150613b0860a08801613c97565b634e487b7160e01b600052604160045260246000fd5b604051601f8201601f191681016001600160401b0381118282101715613d4b57613d4b613d0d565b604052919050565b60006001600160401b03821115613d6c57613d6c613d0d565b50601f01601f191660200190565b600082601f830112613d8b57600080fd5b8135613d9e613d9982613d53565b613d23565b818152846020838601011115613db357600080fd5b816020850160208301376000918101602001919091529392505050565b60008060408385031215613de357600080fd5b8235613dee81613b14565b915060208301356001600160401b03811115613e0957600080fd5b613e1585828601613d7a565b9150509250929050565b60006001600160401b03821115613e3857613e38613d0d565b5060051b60200190565b60008060008060008060a08789031215613e5b57600080fd5b613e64876139e3565b95506020613e738189016139f4565b95506040880135945060608801356001600160401b0380821115613e9657600080fd5b613ea28b838c01613a47565b909650945060808a0135915080821115613ebb57600080fd5b818a0191508a601f830112613ecf57600080fd5b8135613edd613d9982613e1f565b81815260059190911b8301840190848101908d831115613efc57600080fd5b8585015b83811015613f32578481351115613f1657600080fd5b613f258f888335890101613d7a565b8352918601918601613f00565b508096505050505050509295509295509295565b60008060008060008060808789031215613f5f57600080fd5b613f68876139e3565b95506020870135945060408701356001600160401b0380821115613f8b57600080fd5b613f978a838b01613a47565b90965094506060890135915080821115613fb057600080fd5b50613fbd89828a01613a47565b979a9699509497509295939492505050565b600080600060608486031215613fe457600080fd5b83356001600160481b0381168114613ffb57600080fd5b925060208401359150604084013561401281613b14565b809150509250925092565b6000806040838503121561403057600080fd5b823561403b81613b14565b91506020830135613ba581613b14565b6000806040838503121561405e57600080fd5b50508035926020909101359150565b634e487b7160e01b600052602160045260246000fd5b600581106140a157634e487b7160e01b600052602160045260246000fd5b9052565b60006080820190506140b8828451614083565b60018060c81b03602084015116602083015260ff604084015116604083015264ffffffffff606084015116606083015292915050565b6000806000806080858703121561410457600080fd5b61410d856139e3565b93506020808601356001600160401b0381111561412957600080fd5b8601601f8101881361413a57600080fd5b8035614148613d9982613e1f565b81815260059190911b8201830190838101908a83111561416757600080fd5b928401925b8284101561418e57833561417f81613b14565b8252928401929084019061416c565b979a97995050505060408601359560600135949350505050565b6000806000806000608086880312156141c057600080fd5b6141c9866139e3565b94506141d7602087016139f4565b93506040860135925060608601356001600160401b038111156141f957600080fd5b61420588828901613a47565b969995985093965092949392505050565b60008060006060848603121561422b57600080fd5b8335613ffb81613b14565b6000806040838503121561424957600080fd5b823561425481613b14565b915061426260208401613a88565b90509250929050565b6000806040838503121561427e57600080fd5b614287836139e3565b9150614262602084016139f4565b600080600080600080600060a0888a0312156142b057600080fd5b6142b9886139e3565b96506142c7602089016139f4565b95506040880135945060608801356001600160401b03808211156142ea57600080fd5b6142f68b838c01613a47565b909650945060808a013591508082111561430f57600080fd5b5061431c8a828b01613a47565b989b979a50959850939692959293505050565b60ff851681526001600160401b0384166020820152608081016143556040830185614083565b82606083015295945050505050565b6bffffffffffffffffffffffff198460601b168152818360148301376000910160140190815292915050565b81835281816020850137506000828201602090810191909152601f909101601f19169091010190565b838152604060208201526000613373604083018486614390565b60005b838110156143ee5781810151838201526020016143d6565b838111156143fd576000848401525b50505050565b6000815180845261441b8160208601602086016143d3565b601f01601f19169290920160200192915050565b602081526000611f4f6020830184614403565b634e487b7160e01b600052603260045260246000fd5b634e487b7160e01b600052601160045260246000fd5b600060001982141561448257614482614458565b5060010190565b8183823760009101908152919050565b60208082526023908201527f70726f706f73616c20616c72656164792065786563757465642f63616e63656c6040820152621b195960ea1b606082015260800190565b600060ff821660ff8114156144f3576144f3614458565b60010192915050565b60018060a01b038916815260ff8816602082015260ff8716604082015285606082015260c06080820152600061453660c083018688614390565b82810360a0840152612cfc818587614390565b6000806040838503121561455c57600080fd5b825191506020830151613ba581613b14565b60008282101561458057614580614458565b500390565b60006001600160401b03808316818114156145a2576145a2614458565b6001019392505050565b8481526001600160a01b038416602082015260606040820181905260009061202d9083018486614390565b6000602082840312156145e957600080fd5b81516001600160401b038111156145ff57600080fd5b8201601f8101841361461057600080fd5b805161461e613d9982613d53565b81815285602083850101111561463357600080fd5b6133738260208301602086016143d3565b60ff871681528560208201526001600160401b038516604082015260a06060820152600061467660a083018587614390565b82810360808401526146888185614403565b9998505050505050505050565b6020808252602e908201527f496e697469616c697a61626c653a20636f6e747261637420697320616c72656160408201526d191e481a5b9a5d1a585b1a5e995960921b606082015260800190565b6000602082840312156146f557600080fd5b5051919050565b600081600019048311821515161561471657614716614458565b500290565b6000821982111561472e5761472e614458565b500190565b6020808252602b908201527f496e697469616c697a61626c653a20636f6e7472616374206973206e6f74206960408201526a6e697469616c697a696e6760a81b606082015260800190565b634e487b7160e01b600052603160045260246000fdfe968626a768e76ba1363efe44e322a6c4900c5f084e0b45f35e294dfddaa9e0d5e2b7fb3b832174769106daebcfd6d1970523240dda11281102db9363b83b0dc4a264697066735822122080873b2b5bf8bd9a185f50770d6e88fb3da226a1aea8078faa0e6c5119495d1364736f6c634300080b0033",
  "linkReferences": {},
  "deployedLinkReferences": {}
}