{
  "_format": "hh-sol-artifact-1",
  "contractName": "BridgeUpgradeable",
  "sourceName": "contracts/BridgeUpgradeable.sol",
  "abi": [
    {
      "inputs": [
        {
          "internalType": "uint256",
          "name": "msgValue",
          "type": "uint256"
        },
        {
          "internalType": "uint256",
          "name": "fee",
          "type": "uint256"
        }
      ],
      "name": "IncorrectFeeSupplied",
      "type": "error"
    },
    {
      "inputs": [
        {
          "internalType": "address",
          "name": "signer",
          "type": "address"
        },
        {
          "internalType": "uint256",
          "name": "index",
          "type": "uint256"
        }
      ],
      "name": "InvalidSignature",
      "type": "error"
    },
    {
      "inputs": [],
      "name": "ResourceIDNotMappedToHandler",
      "type": "error"
    },
    {
      "anonymous": false,
      "inputs": [
        {
          "indexed": false,
          "internalType": "uint8",
          "name": "destinationDomainID",
          "type": "uint8"
        },
        {
          "indexed": false,
          "internalType": "bytes32",
          "name": "resourceID",
          "type": "bytes32"
        },
        {
          "indexed": false,
          "internalType": "uint64",
          "name": "depositNonce",
          "type": "uint64"
        },
        {
          "indexed": true,
          "internalType": "address",
          "name": "user",
          "type": "address"
        },
        {
          "indexed": false,
          "internalType": "bytes",
          "name": "data",
          "type": "bytes"
        },
        {
          "indexed": false,
          "internalType": "bytes",
          "name": "handlerResponse",
          "type": "bytes"
        }
      ],
      "name": "Deposit",
      "type": "event"
    },
    {
      "anonymous": false,
      "inputs": [
        {
          "indexed": false,
          "internalType": "bytes",
          "name": "lowLevelData",
          "type": "bytes"
        }
      ],
      "name": "FailedHandlerExecution",
      "type": "event"
    },
    {
      "anonymous": false,
      "inputs": [
        {
          "indexed": false,
          "internalType": "uint256",
          "name": "newFee",
          "type": "uint256"
        }
      ],
      "name": "FeeChanged",
      "type": "event"
    },
    {
      "anonymous": false,
      "inputs": [
        {
          "indexed": false,
          "internalType": "address",
          "name": "tokenAddress",
          "type": "address"
        },
        {
          "indexed": false,
          "internalType": "address",
          "name": "recipient",
          "type": "address"
        },
        {
          "indexed": false,
          "internalType": "uint256",
          "name": "amount",
          "type": "uint256"
        }
      ],
      "name": "FeeDistributed",
      "type": "event"
    },
    {
      "anonymous": false,
      "inputs": [
        {
          "indexed": false,
          "internalType": "address",
          "name": "newFeeHandler",
          "type": "address"
        }
      ],
      "name": "FeeHandlerChanged",
      "type": "event"
    },
    {
      "anonymous": false,
      "inputs": [
        {
          "indexed": false,
          "internalType": "address",
          "name": "account",
          "type": "address"
        }
      ],
      "name": "Paused",
      "type": "event"
    },
    {
      "anonymous": false,
      "inputs": [
        {
          "indexed": false,
          "internalType": "uint8",
          "name": "originDomainID",
          "type": "uint8"
        },
        {
          "indexed": false,
          "internalType": "uint64",
          "name": "depositNonce",
          "type": "uint64"
        },
        {
          "indexed": false,
          "internalType": "enum IBridge.ProposalStatus",
          "name": "status",
          "type": "uint8"
        },
        {
          "indexed": false,
          "internalType": "bytes32",
          "name": "dataHash",
          "type": "bytes32"
        }
      ],
      "name": "ProposalEvent",
      "type": "event"
    },
    {
      "anonymous": false,
      "inputs": [
        {
          "indexed": false,
          "internalType": "uint8",
          "name": "originDomainID",
          "type": "uint8"
        },
        {
          "indexed": false,
          "internalType": "uint64",
          "name": "depositNonce",
          "type": "uint64"
        },
        {
          "indexed": false,
          "internalType": "enum IBridge.ProposalStatus",
          "name": "status",
          "type": "uint8"
        },
        {
          "indexed": false,
          "internalType": "bytes32",
          "name": "dataHash",
          "type": "bytes32"
        }
      ],
      "name": "ProposalVote",
      "type": "event"
    },
    {
      "anonymous": false,
      "inputs": [
        {
          "indexed": false,
          "internalType": "address",
          "name": "relayer",
          "type": "address"
        }
      ],
      "name": "RelayerAdded",
      "type": "event"
    },
    {
      "anonymous": false,
      "inputs": [
        {
          "indexed": false,
          "internalType": "address",
          "name": "relayer",
          "type": "address"
        }
      ],
      "name": "RelayerRemoved",
      "type": "event"
    },
    {
      "anonymous": false,
      "inputs": [
        {
          "indexed": false,
          "internalType": "uint256",
          "name": "newThreshold",
          "type": "uint256"
        }
      ],
      "name": "RelayerThresholdChanged",
      "type": "event"
    },
    {
      "anonymous": false,
      "inputs": [
        {
          "indexed": true,
          "internalType": "bytes32",
          "name": "role",
          "type": "bytes32"
        },
        {
          "indexed": true,
          "internalType": "address",
          "name": "account",
          "type": "address"
        },
        {
          "indexed": true,
          "internalType": "address",
          "name": "sender",
          "type": "address"
        }
      ],
      "name": "RoleGranted",
      "type": "event"
    },
    {
      "anonymous": false,
      "inputs": [
        {
          "indexed": true,
          "internalType": "bytes32",
          "name": "role",
          "type": "bytes32"
        },
        {
          "indexed": true,
          "internalType": "address",
          "name": "account",
          "type": "address"
        },
        {
          "indexed": true,
          "internalType": "address",
          "name": "sender",
          "type": "address"
        }
      ],
      "name": "RoleRevoked",
      "type": "event"
    },
    {
      "anonymous": false,
      "inputs": [
        {
          "indexed": false,
          "internalType": "address",
          "name": "account",
          "type": "address"
        }
      ],
      "name": "Unpaused",
      "type": "event"
    },
    {
      "inputs": [],
      "name": "DEFAULT_ADMIN_ROLE",
      "outputs": [
        {
          "internalType": "bytes32",
          "name": "",
          "type": "bytes32"
        }
      ],
      "stateMutability": "view",
      "type": "function"
    },
    {
      "inputs": [],
      "name": "MAX_RELAYERS",
      "outputs": [
        {
          "internalType": "uint256",
          "name": "",
          "type": "uint256"
        }
      ],
      "stateMutability": "view",
      "type": "function"
    },
    {
      "inputs": [],
      "name": "PERMIT_TYPEHASH",
      "outputs": [
        {
          "internalType": "bytes32",
          "name": "",
          "type": "bytes32"
        }
      ],
      "stateMutability": "view",
      "type": "function"
    },
    {
      "inputs": [],
      "name": "RELAYER_ROLE",
      "outputs": [
        {
          "internalType": "bytes32",
          "name": "",
          "type": "bytes32"
        }
      ],
      "stateMutability": "view",
      "type": "function"
    },
    {
      "inputs": [],
      "name": "_chainId",
      "outputs": [
        {
          "internalType": "uint256",
          "name": "",
          "type": "uint256"
        }
      ],
      "stateMutability": "view",
      "type": "function"
    },
    {
      "inputs": [
        {
          "internalType": "uint8",
          "name": "",
          "type": "uint8"
        }
      ],
      "name": "_depositCounts",
      "outputs": [
        {
          "internalType": "uint64",
          "name": "",
          "type": "uint64"
        }
      ],
      "stateMutability": "view",
      "type": "function"
    },
    {
      "inputs": [],
      "name": "_domainID",
      "outputs": [
        {
          "internalType": "uint8",
          "name": "",
          "type": "uint8"
        }
      ],
      "stateMutability": "view",
      "type": "function"
    },
    {
      "inputs": [],
      "name": "_expiry",
      "outputs": [
        {
          "internalType": "uint40",
          "name": "",
          "type": "uint40"
        }
      ],
      "stateMutability": "view",
      "type": "function"
    },
    {
      "inputs": [],
      "name": "_fee",
      "outputs": [
        {
          "internalType": "uint256",
          "name": "",
          "type": "uint256"
        }
      ],
      "stateMutability": "view",
      "type": "function"
    },
    {
      "inputs": [],
      "name": "_feeHandler",
      "outputs": [
        {
          "internalType": "contract IFeeHandler",
          "name": "",
          "type": "address"
        }
      ],
      "stateMutability": "view",
      "type": "function"
    },
    {
      "inputs": [],
      "name": "_feeReserve",
      "outputs": [
        {
          "internalType": "uint256",
          "name": "",
          "type": "uint256"
        }
      ],
      "stateMutability": "view",
      "type": "function"
    },
    {
      "inputs": [],
      "name": "_fee_",
      "outputs": [
        {
          "internalType": "uint256",
          "name": "",
          "type": "uint256"
        }
      ],
      "stateMutability": "view",
      "type": "function"
    },
    {
      "inputs": [
        {
          "internalType": "uint72",
          "name": "destNonce",
          "type": "uint72"
        },
        {
          "internalType": "bytes32",
          "name": "dataHash",
          "type": "bytes32"
        },
        {
          "internalType": "address",
          "name": "relayer",
          "type": "address"
        }
      ],
      "name": "_hasVotedOnProposal",
      "outputs": [
        {
          "internalType": "bool",
          "name": "",
          "type": "bool"
        }
      ],
      "stateMutability": "view",
      "type": "function"
    },
    {
      "inputs": [],
      "name": "_relayerThreshold",
      "outputs": [
        {
          "internalType": "uint8",
          "name": "",
          "type": "uint8"
        }
      ],
      "stateMutability": "view",
      "type": "function"
    },
    {
      "inputs": [
        {
          "internalType": "bytes32",
          "name": "",
          "type": "bytes32"
        }
      ],
      "name": "_resourceIDToHandlerAddress",
      "outputs": [
        {
          "internalType": "address",
          "name": "",
          "type": "address"
        }
      ],
      "stateMutability": "view",
      "type": "function"
    },
    {
      "inputs": [],
      "name": "_totalRelayers",
      "outputs": [
        {
          "internalType": "uint256",
          "name": "",
          "type": "uint256"
        }
      ],
      "stateMutability": "view",
      "type": "function"
    },
    {
      "inputs": [
        {
          "internalType": "address",
          "name": "relayerAddress",
          "type": "address"
        }
      ],
      "name": "adminAddRelayer",
      "outputs": [],
      "stateMutability": "nonpayable",
      "type": "function"
    },
    {
      "inputs": [
        {
          "internalType": "uint256",
          "name": "expiry",
          "type": "uint256"
        }
      ],
      "name": "adminChangeExpiry",
      "outputs": [],
      "stateMutability": "nonpayable",
      "type": "function"
    },
    {
      "inputs": [
        {
          "internalType": "uint256",
          "name": "newThreshold",
          "type": "uint256"
        }
      ],
      "name": "adminChangeRelayerThreshold",
      "outputs": [],
      "stateMutability": "nonpayable",
      "type": "function"
    },
    {
      "inputs": [],
      "name": "adminPauseTransfers",
      "outputs": [],
      "stateMutability": "nonpayable",
      "type": "function"
    },
    {
      "inputs": [
        {
          "internalType": "address",
          "name": "relayerAddress",
          "type": "address"
        }
      ],
      "name": "adminRemoveRelayer",
      "outputs": [],
      "stateMutability": "nonpayable",
      "type": "function"
    },
    {
      "inputs": [
        {
          "internalType": "address",
          "name": "handlerAddress",
          "type": "address"
        },
        {
          "internalType": "address",
          "name": "tokenAddress",
          "type": "address"
        }
      ],
      "name": "adminSetBurnable",
      "outputs": [],
      "stateMutability": "nonpayable",
      "type": "function"
    },
    {
      "inputs": [
        {
          "internalType": "uint8",
          "name": "domainID",
          "type": "uint8"
        },
        {
          "internalType": "uint64",
          "name": "nonce",
          "type": "uint64"
        }
      ],
      "name": "adminSetDepositNonce",
      "outputs": [],
      "stateMutability": "nonpayable",
      "type": "function"
    },
    {
      "inputs": [
        {
          "internalType": "uint8",
          "name": "domainID",
          "type": "uint8"
        }
      ],
      "name": "adminSetDomainId",
      "outputs": [],
      "stateMutability": "nonpayable",
      "type": "function"
    },
    {
      "inputs": [
        {
          "internalType": "uint256",
          "name": "newFee",
          "type": "uint256"
        }
      ],
      "name": "adminSetFee",
      "outputs": [],
      "stateMutability": "nonpayable",
      "type": "function"
    },
    {
      "inputs": [
        {
          "internalType": "address",
          "name": "forwarder",
          "type": "address"
        },
        {
          "internalType": "bool",
          "name": "valid",
          "type": "bool"
        }
      ],
      "name": "adminSetForwarder",
      "outputs": [],
      "stateMutability": "nonpayable",
      "type": "function"
    },
    {
      "inputs": [
        {
          "internalType": "address",
          "name": "handlerAddress",
          "type": "address"
        },
        {
          "internalType": "bytes32",
          "name": "resourceID",
          "type": "bytes32"
        },
        {
          "internalType": "address",
          "name": "contractAddress",
          "type": "address"
        },
        {
          "internalType": "bytes4",
          "name": "depositFunctionSig",
          "type": "bytes4"
        },
        {
          "internalType": "uint256",
          "name": "depositFunctionDepositorOffset",
          "type": "uint256"
        },
        {
          "internalType": "bytes4",
          "name": "executeFunctionSig",
          "type": "bytes4"
        }
      ],
      "name": "adminSetGenericResource",
      "outputs": [],
      "stateMutability": "nonpayable",
      "type": "function"
    },
    {
      "inputs": [
        {
          "internalType": "bytes32",
          "name": "resourceID",
          "type": "bytes32"
        },
        {
          "internalType": "address",
          "name": "nativeAddress",
          "type": "address"
        },
        {
          "internalType": "bool",
          "name": "isNative",
          "type": "bool"
        }
      ],
      "name": "adminSetNative",
      "outputs": [],
      "stateMutability": "nonpayable",
      "type": "function"
    },
    {
      "inputs": [
        {
          "internalType": "address",
          "name": "handlerAddress",
          "type": "address"
        }
      ],
      "name": "adminSetNativeResource",
      "outputs": [],
      "stateMutability": "nonpayable",
      "type": "function"
    },
    {
      "inputs": [
        {
          "internalType": "address",
          "name": "handlerAddress",
          "type": "address"
        },
        {
          "internalType": "bytes32",
          "name": "resourceID",
          "type": "bytes32"
        },
        {
          "internalType": "address",
          "name": "tokenAddress",
          "type": "address"
        }
      ],
      "name": "adminSetResource",
      "outputs": [],
      "stateMutability": "nonpayable",
      "type": "function"
    },
    {
      "inputs": [
        {
          "internalType": "uint8",
          "name": "fromDomainID",
          "type": "uint8"
        },
        {
          "internalType": "uint256",
          "name": "_specialFee",
          "type": "uint256"
        }
      ],
      "name": "adminSetSpecialFee",
      "outputs": [],
      "stateMutability": "nonpayable",
      "type": "function"
    },
    {
      "inputs": [],
      "name": "adminUnpauseTransfers",
      "outputs": [],
      "stateMutability": "nonpayable",
      "type": "function"
    },
    {
      "inputs": [
        {
          "internalType": "address",
          "name": "handlerAddress",
          "type": "address"
        },
        {
          "internalType": "bytes",
          "name": "data",
          "type": "bytes"
        }
      ],
      "name": "adminWithdraw",
      "outputs": [],
      "stateMutability": "nonpayable",
      "type": "function"
    },
    {
      "inputs": [
        {
          "internalType": "address",
          "name": "handlerAddress",
          "type": "address"
        },
        {
          "internalType": "bytes",
          "name": "data",
          "type": "bytes"
        }
      ],
      "name": "adminWithdrawETH",
      "outputs": [],
      "stateMutability": "nonpayable",
      "type": "function"
    },
    {
      "inputs": [
        {
          "internalType": "uint8",
          "name": "domainID",
          "type": "uint8"
        },
        {
          "internalType": "uint64",
          "name": "depositNonce",
          "type": "uint64"
        },
        {
          "internalType": "bytes32",
          "name": "dataHash",
          "type": "bytes32"
        }
      ],
      "name": "cancelProposal",
      "outputs": [],
      "stateMutability": "nonpayable",
      "type": "function"
    },
    {
      "inputs": [
        {
          "internalType": "uint8",
          "name": "domainID",
          "type": "uint8"
        },
        {
          "internalType": "uint64",
          "name": "depositNonce",
          "type": "uint64"
        },
        {
          "internalType": "bytes32",
          "name": "resourceID",
          "type": "bytes32"
        },
        {
          "internalType": "bytes",
          "name": "data",
          "type": "bytes"
        },
        {
          "internalType": "bytes",
          "name": "signature",
          "type": "bytes"
        }
      ],
      "name": "checkSignature",
      "outputs": [
        {
          "internalType": "bool",
          "name": "",
          "type": "bool"
        }
      ],
      "stateMutability": "view",
      "type": "function"
    },
    {
      "inputs": [
        {
          "internalType": "uint8",
          "name": "destinationDomainID",
          "type": "uint8"
        },
        {
          "internalType": "bytes32",
          "name": "resourceID",
          "type": "bytes32"
        },
        {
          "internalType": "bytes",
          "name": "depositData",
          "type": "bytes"
        },
        {
          "internalType": "bytes",
          "name": "feeData",
          "type": "bytes"
        }
      ],
      "name": "deposit",
      "outputs": [],
      "stateMutability": "payable",
      "type": "function"
    },
    {
      "inputs": [
        {
          "internalType": "uint8",
          "name": "domainID",
          "type": "uint8"
        },
        {
          "internalType": "uint64",
          "name": "depositNonce",
          "type": "uint64"
        },
        {
          "internalType": "bytes",
          "name": "data",
          "type": "bytes"
        },
        {
          "internalType": "bytes32",
          "name": "resourceID",
          "type": "bytes32"
        },
        {
          "internalType": "bool",
          "name": "revertOnFail",
          "type": "bool"
        }
      ],
      "name": "executeProposal",
      "outputs": [],
      "stateMutability": "nonpayable",
      "type": "function"
    },
    {
      "inputs": [
        {
          "internalType": "uint8",
          "name": "originDomainID",
          "type": "uint8"
        },
        {
          "internalType": "uint64",
          "name": "depositNonce",
          "type": "uint64"
        },
        {
          "internalType": "bytes32",
          "name": "resourceID",
          "type": "bytes32"
        },
        {
          "internalType": "bytes",
          "name": "data",
          "type": "bytes"
        }
      ],
      "name": "getProposal",
      "outputs": [
        {
          "components": [
            {
              "internalType": "enum IBridge.ProposalStatus",
              "name": "_status",
              "type": "uint8"
            },
            {
              "internalType": "uint200",
              "name": "_yesVotes",
              "type": "uint200"
            },
            {
              "internalType": "uint8",
              "name": "_yesVotesTotal",
              "type": "uint8"
            },
            {
              "internalType": "uint40",
              "name": "_proposedBlock",
              "type": "uint40"
            }
          ],
          "internalType": "struct IBridge.Proposal",
          "name": "",
          "type": "tuple"
        }
      ],
      "stateMutability": "view",
      "type": "function"
    },
    {
      "inputs": [
        {
          "internalType": "bytes32",
          "name": "role",
          "type": "bytes32"
        }
      ],
      "name": "getRoleAdmin",
      "outputs": [
        {
          "internalType": "bytes32",
          "name": "",
          "type": "bytes32"
        }
      ],
      "stateMutability": "view",
      "type": "function"
    },
    {
      "inputs": [
        {
          "internalType": "bytes32",
          "name": "role",
          "type": "bytes32"
        },
        {
          "internalType": "uint256",
          "name": "index",
          "type": "uint256"
        }
      ],
      "name": "getRoleMember",
      "outputs": [
        {
          "internalType": "address",
          "name": "",
          "type": "address"
        }
      ],
      "stateMutability": "view",
      "type": "function"
    },
    {
      "inputs": [
        {
          "internalType": "bytes32",
          "name": "role",
          "type": "bytes32"
        }
      ],
      "name": "getRoleMemberCount",
      "outputs": [
        {
          "internalType": "uint256",
          "name": "",
          "type": "uint256"
        }
      ],
      "stateMutability": "view",
      "type": "function"
    },
    {
      "inputs": [
        {
          "internalType": "bytes32",
          "name": "role",
          "type": "bytes32"
        },
        {
          "internalType": "address",
          "name": "account",
          "type": "address"
        }
      ],
      "name": "getRoleMemberIndex",
      "outputs": [
        {
          "internalType": "uint256",
          "name": "",
          "type": "uint256"
        }
      ],
      "stateMutability": "view",
      "type": "function"
    },
    {
      "inputs": [
        {
          "internalType": "bytes32",
          "name": "role",
          "type": "bytes32"
        },
        {
          "internalType": "address",
          "name": "account",
          "type": "address"
        }
      ],
      "name": "grantRole",
      "outputs": [],
      "stateMutability": "nonpayable",
      "type": "function"
    },
    {
      "inputs": [
        {
          "internalType": "bytes32",
          "name": "role",
          "type": "bytes32"
        },
        {
          "internalType": "address",
          "name": "account",
          "type": "address"
        }
      ],
      "name": "hasRole",
      "outputs": [
        {
          "internalType": "bool",
          "name": "",
          "type": "bool"
        }
      ],
      "stateMutability": "view",
      "type": "function"
    },
    {
      "inputs": [
        {
          "internalType": "uint8",
          "name": "domainID",
          "type": "uint8"
        },
        {
          "internalType": "address[]",
          "name": "initialRelayers",
          "type": "address[]"
        },
        {
          "internalType": "uint256",
          "name": "initialRelayerThreshold",
          "type": "uint256"
        },
        {
          "internalType": "uint256",
          "name": "expiry",
          "type": "uint256"
        },
        {
          "internalType": "address",
          "name": "admin",
          "type": "address"
        }
      ],
      "name": "initialize",
      "outputs": [],
      "stateMutability": "nonpayable",
      "type": "function"
    },
    {
      "inputs": [
        {
          "internalType": "address",
          "name": "relayer",
          "type": "address"
        }
      ],
      "name": "isRelayer",
      "outputs": [
        {
          "internalType": "bool",
          "name": "",
          "type": "bool"
        }
      ],
      "stateMutability": "view",
      "type": "function"
    },
    {
      "inputs": [
        {
          "internalType": "address",
          "name": "",
          "type": "address"
        }
      ],
      "name": "isValidForwarder",
      "outputs": [
        {
          "internalType": "bool",
          "name": "",
          "type": "bool"
        }
      ],
      "stateMutability": "view",
      "type": "function"
    },
    {
      "inputs": [],
      "name": "paused",
      "outputs": [
        {
          "internalType": "bool",
          "name": "",
          "type": "bool"
        }
      ],
      "stateMutability": "view",
      "type": "function"
    },
    {
      "inputs": [
        {
          "internalType": "address",
          "name": "newAdmin",
          "type": "address"
        }
      ],
      "name": "renounceAdmin",
      "outputs": [],
      "stateMutability": "nonpayable",
      "type": "function"
    },
    {
      "inputs": [
        {
          "internalType": "bytes32",
          "name": "role",
          "type": "bytes32"
        },
        {
          "internalType": "address",
          "name": "account",
          "type": "address"
        }
      ],
      "name": "renounceRole",
      "outputs": [],
      "stateMutability": "nonpayable",
      "type": "function"
    },
    {
      "inputs": [
        {
          "internalType": "bytes32",
          "name": "role",
          "type": "bytes32"
        },
        {
          "internalType": "address",
          "name": "account",
          "type": "address"
        }
      ],
      "name": "revokeRole",
      "outputs": [],
      "stateMutability": "nonpayable",
      "type": "function"
    },
    {
      "inputs": [
        {
          "internalType": "uint8",
          "name": "",
          "type": "uint8"
        }
      ],
      "name": "special",
      "outputs": [
        {
          "internalType": "bool",
          "name": "",
          "type": "bool"
        }
      ],
      "stateMutability": "view",
      "type": "function"
    },
    {
      "inputs": [
        {
          "internalType": "uint8",
          "name": "",
          "type": "uint8"
        }
      ],
      "name": "specialFee",
      "outputs": [
        {
          "internalType": "uint256",
          "name": "",
          "type": "uint256"
        }
      ],
      "stateMutability": "view",
      "type": "function"
    },
    {
      "inputs": [
        {
          "internalType": "address payable[]",
          "name": "addrs",
          "type": "address[]"
        },
        {
          "internalType": "uint256[]",
          "name": "amounts",
          "type": "uint256[]"
        }
      ],
      "name": "transferFee",
      "outputs": [],
      "stateMutability": "nonpayable",
      "type": "function"
    },
    {
      "inputs": [
        {
          "internalType": "address payable[]",
          "name": "addrs",
          "type": "address[]"
        },
        {
          "internalType": "uint256[]",
          "name": "amounts",
          "type": "uint256[]"
        }
      ],
      "name": "transferFunds",
      "outputs": [],
      "stateMutability": "nonpayable",
      "type": "function"
    },
    {
      "inputs": [
        {
          "internalType": "uint8",
          "name": "domainID",
          "type": "uint8"
        },
        {
          "internalType": "uint64",
          "name": "depositNonce",
          "type": "uint64"
        },
        {
          "internalType": "bytes32",
          "name": "resourceID",
          "type": "bytes32"
        },
        {
          "internalType": "bytes",
          "name": "data",
          "type": "bytes"
        }
      ],
      "name": "voteProposal",
      "outputs": [],
      "stateMutability": "nonpayable",
      "type": "function"
    },
    {
      "inputs": [
        {
          "internalType": "uint8",
          "name": "domainID",
          "type": "uint8"
        },
        {
          "internalType": "uint64",
          "name": "depositNonce",
          "type": "uint64"
        },
        {
          "internalType": "bytes32",
          "name": "resourceID",
          "type": "bytes32"
        },
        {
          "internalType": "bytes",
          "name": "data",
          "type": "bytes"
        },
        {
          "internalType": "bytes[]",
          "name": "signatures",
          "type": "bytes[]"
        }
      ],
      "name": "voteProposals",
      "outputs": [],
      "stateMutability": "nonpayable",
      "type": "function"
    }
  ],
  "bytecode": "0x608060405234801561001057600080fd5b50614794806100206000396000f3fe6080604052600436106103815760003560e01c80639010d07c116101d1578063c5b37c2211610102578063d7a9cd79116100a0578063f8c39e441161006f578063f8c39e4414610acf578063fe4648f414610aff578063fe65c4be14610b2a578063ffaac0eb14610b4a57600080fd5b8063d7a9cd7914610a5a578063e2469d4014610a79578063e7b14b5a14610a99578063edc20c3c14610aaf57600080fd5b8063cb10f215116100dc578063cb10f215146109da578063cdb0f73a146109fa578063d15ef64e14610a1a578063d547741f14610a3a57600080fd5b8063c5b37c221461096b578063c5ec897014610980578063ca15c873146109ba57600080fd5b80639debb3bd1161016f578063a5c621f211610149578063a5c621f2146108d1578063b67a4aaf146108fe578063bd2a18201461092b578063c0331b3e1461094b57600080fd5b80639debb3bd14610887578063a06fbbff1461089c578063a217fddf146108bc57600080fd5b8063926d7d7f116101ab578063926d7d7f1461080357806393cbe783146108255780639d82dd631461083b5780639dd694f41461085b57600080fd5b80639010d07c146107a3578063904e9b2b146107c357806391d14854146107e357600080fd5b80635c975abb116102b6578063747734121161025457806380ae1c281161022357806380ae1c281461070057806384db809f1461071557806388b73be0146107635780638c0c26311461078357600080fd5b806374773412146106985780637d026d96146106ab5780637febe63f146106cb578063802aabe8146106eb57600080fd5b80636d3b6eea116102905780636d3b6eea146106255780636e2047bc146106455780637292dd911461066557806373c45c981461068557600080fd5b80635c975abb146105bd5780635e1fab0f146105d557806362abd9ce146105f557600080fd5b80634603ae38116103235780634e0df3f6116102fd5780634e0df3f61461052d5780634f2c0aec1461054d578063541d55481461056d5780635a1ad87c1461059d57600080fd5b80634603ae381461049f5780634b0b919d146104bf5780634e0560051461050d57600080fd5b8063248a9ca31161035f578063248a9ca3146103e85780632f2ff15d1461042b57806330adf81f1461044b57806336568abe1461047f57600080fd5b80630d7d75b31461038657806317f03ce5146103a8578063206a98fd146103c8575b600080fd5b34801561039257600080fd5b506103a66103a1366004613a38565b610b5f565b005b3480156103b457600080fd5b506103a66103c3366004613b22565b610ceb565b3480156103d457600080fd5b506103a66103e3366004613baf565b610f7b565b3480156103f457600080fd5b50610418610403366004613c2b565b60009081526099602052604090206002015490565b6040519081526020015b60405180910390f35b34801561043757600080fd5b506103a6610446366004613c44565b611202565b34801561045757600080fd5b506104187fc4cb5d35714699d6e85b9562b644e60393b418d974a5c1dd8efaadac37a142c581565b34801561048b57600080fd5b506103a661049a366004613c44565b611292565b3480156104ab57600080fd5b506103a66104ba366004613cb8565b6112a4565b3480156104cb57600080fd5b506104f56104da366004613d23565b609b602052600090815260409020546001600160401b031681565b6040516001600160401b039091168152602001610422565b34801561051957600080fd5b506103a6610528366004613c2b565b611348565b34801561053957600080fd5b50610418610548366004613c44565b6113ab565b34801561055957600080fd5b506103a6610568366004613c2b565b6113d8565b34801561057957600080fd5b5061058d610588366004613d3e565b611467565b6040519015158152602001610422565b3480156105a957600080fd5b506103a66105b8366004613d73565b611481565b3480156105c957600080fd5b5060355460ff1661058d565b3480156105e157600080fd5b506103a66105f0366004613d3e565b611537565b34801561060157600080fd5b5061058d610610366004613d23565b60a26020526000908152604090205460ff1681565b34801561063157600080fd5b506103a6610640366004613e49565b6115c3565b34801561065157600080fd5b506103a6610660366004613e98565b611630565b34801561067157600080fd5b506103a6610680366004613ec2565b611663565b6103a6610693366004613fc6565b611b52565b3480156106a457600080fd5b5046610418565b3480156106b757600080fd5b506103a66106c6366004613c2b565b611b75565b3480156106d757600080fd5b5061058d6106e636600461404f565b611bab565b3480156106f757600080fd5b50610418611c4f565b34801561070c57600080fd5b506103a6611c6d565b34801561072157600080fd5b5061074b610730366004613c2b565b609c602052600090815260409020546001600160a01b031681565b6040516001600160a01b039091168152602001610422565b34801561076f57600080fd5b506103a661077e36600461409d565b611c87565b34801561078f57600080fd5b506103a661079e3660046140db565b611d0c565b3480156107af57600080fd5b5061074b6107be366004614109565b611d45565b3480156107cf57600080fd5b506103a66107de366004613cb8565b611d64565b3480156107ef57600080fd5b5061058d6107fe366004613c44565b611f53565b34801561080f57600080fd5b5061041860008051602061473f83398151915281565b34801561083157600080fd5b50610418609f5481565b34801561084757600080fd5b506103a6610856366004613d3e565b611f6b565b34801561086757600080fd5b50609a546108759060ff1681565b60405160ff9091168152602001610422565b34801561089357600080fd5b5061041860c881565b3480156108a857600080fd5b506103a66108b7366004613d23565b611fcc565b3480156108c857600080fd5b50610418600081565b3480156108dd57600080fd5b506108f16108ec36600461412b565b611fea565b60405161042291906141d1565b34801561090a57600080fd5b50610418610919366004613d23565b60a16020526000908152604090205481565b34801561093757600080fd5b506103a6610946366004613e49565b6120f9565b34801561095757600080fd5b506103a661096636600461412b565b61212f565b34801561097757600080fd5b50609f54610418565b34801561098c57600080fd5b50609a546109a49062010000900464ffffffffff1681565b60405164ffffffffff9091168152602001610422565b3480156109c657600080fd5b506104186109d5366004613c2b565b612607565b3480156109e657600080fd5b506103a66109f536600461421a565b61261e565b348015610a0657600080fd5b506103a6610a15366004613d3e565b61267f565b348015610a2657600080fd5b506103a6610a3536600461423a565b612728565b348015610a4657600080fd5b506103a6610a55366004613c44565b61275b565b348015610a6657600080fd5b50609a5461087590610100900460ff1681565b348015610a8557600080fd5b506103a6610a94366004613d3e565b6127e8565b348015610aa557600080fd5b5061041860a05481565b348015610abb57600080fd5b506103a6610aca36600461426f565b6128cf565b348015610adb57600080fd5b5061058d610aea366004613d3e565b609d6020526000908152604090205460ff1681565b348015610b0b57600080fd5b50609a5461074b9067010000000000000090046001600160a01b031681565b348015610b3657600080fd5b5061058d610b45366004614299565b612988565b348015610b5657600080fd5b506103a6612a92565b600054610100900460ff16610b7a5760005460ff1615610b7e565b303b155b610ba35760405162461bcd60e51b8152600401610b9a90614333565b60405180910390fd5b600054610100900460ff16158015610bc5576000805461ffff19166101011790555b610bcd612aaa565b610c166040518060400160405280600c81526020016b5065726d697442726964676560a01b815250604051806040016040528060038152602001620312e360ec1b815250612b24565b609a805460ff191660ff8816179055610c2e84612b55565b609a60016101000a81548160ff021916908360ff160217905550610c5183612bac565b609a805464ffffffffff92909216620100000266ffffffffff000019909216919091179055610c81600083611284565b60005b8551811015610cd057610cbe60008051602061473f833981519152878381518110610cb157610cb1614381565b6020026020010151611202565b80610cc8816143ad565b915050610c84565b508015610ce3576000805461ff00191690555b505050505050565b610cf3612c03565b60ff838116600884901b68ffffffffffffffff0016176000818152609e60209081526040808320868452909152808220815160808101909252805493949293919290918391166004811115610d4a57610d4a614199565b6004811115610d5b57610d5b614199565b8152905461010081046001600160c81b03166020830152600160d01b810460ff166040830152600160d81b900464ffffffffff1660609091015280519091506001816004811115610dae57610dae614199565b1480610dcb57506002816004811115610dc957610dc9614199565b145b610e175760405162461bcd60e51b815260206004820152601c60248201527f50726f706f73616c2063616e6e6f742062652063616e63656c6c6564000000006044820152606401610b9a565b609a54606083015164ffffffffff62010000909204821691610e3b91439116612c84565b64ffffffffff1611610e8f5760405162461bcd60e51b815260206004820181905260248201527f50726f706f73616c206e6f7420617420657870697279207468726573686f6c646044820152606401610b9a565b60048083526001600160481b0384166000908152609e602090815260408083208884529091529020835181548593839160ff1916906001908490811115610ed857610ed8614199565b02179055506020820151815460408085015160609095015164ffffffffff16600160d81b026001600160d81b0360ff909616600160d01b0260ff60d01b196001600160c81b039095166101000294909416610100600160d81b03199093169290921792909217939093169290921790555160008051602061471f83398151915290610f6b908890889060049089906143c8565b60405180910390a1505050505050565b610f83612cc6565b610f8b612d2c565b6000828152609c602090815260408083205490516001600160a01b039091169268ffffffffffffffff0060088a901b1660ff8b1617929091610fd591879186918b918b91016143fd565b60408051601f1981840301815291815281516020928301206001600160481b0385166000908152609e845282812082825290935291209091506002815460ff16600481111561102657611026614199565b146110735760405162461bcd60e51b815260206004820181905260248201527f50726f706f73616c206d757374206861766520506173736564207374617475736044820152606401610b9a565b805460ff191660031781558385156110ec5760405163712467f960e11b81526001600160a01b0382169063e248cff2906110b5908a908d908d90600401614459565b600060405180830381600087803b1580156110cf57600080fd5b505af11580156110e3573d6000803e3d6000fd5b505050506111c9565b60405163712467f960e11b81526001600160a01b0382169063e248cff29061111c908a908d908d90600401614459565b600060405180830381600087803b15801561113657600080fd5b505af1925050508015611147575060015b6111c9573d808015611175576040519150601f19603f3d011682016040523d82523d6000602084013e61117a565b606091505b50825460ff191660021783556040517fbd37c1f0d53bb2f33fe4c2104de272fcdeb4d2fef3acdbf1e4ddc3d6833ca376906111b69083906144cf565b60405180910390a1505050505050610ce3565b60008051602061471f8339815191528b8b6003866040516111ed94939291906143c8565b60405180910390a15050505050505050505050565b600082815260996020526040902060020154611220906107fe612d72565b6112845760405162461bcd60e51b815260206004820152602f60248201527f416363657373436f6e74726f6c3a2073656e646572206d75737420626520616e60448201526e0818591b5a5b881d1bc819dc985b9d608a1b6064820152608401610b9a565b61128e8282612db3565b5050565b61129a612e1c565b61128e8282612e65565b6112ac612ee5565b60005b83811015611341578484828181106112c9576112c9614381565b90506020020160208101906112de9190613d3e565b6001600160a01b03166108fc8484848181106112fc576112fc614381565b905060200201359081150290604051600060405180830381858888f1935050505015801561132e573d6000803e3d6000fd5b5080611339816143ad565b9150506112af565b5050505050565b611350612ee5565b61135981612b55565b609a805460ff929092166101000261ff00199092169190911790556040518181527fa20d6b84cd798a24038be305eff8a45ca82ef54a2aa2082005d8e14c0a4746c8906020015b60405180910390a150565b60008281526099602090815260408083206001600160a01b03851684526001019091529020545b92915050565b6113e0612ee5565b80609f5414156114325760405162461bcd60e51b815260206004820152601f60248201527f43757272656e742066656520697320657175616c20746f206e657720666565006044820152606401610b9a565b609f8190556040518181527f6bbc57480a46553fa4d156ce702beef5f3ad66303b0ed1a5d4cb44966c6584c3906020016113a0565b60006113d260008051602061473f83398151915283611f53565b611489612ee5565b6000858152609c60205260409081902080546001600160a01b0319166001600160a01b03898116918217909255915163de319d9960e01b81526004810188905290861660248201526001600160e01b03198086166044830152606482018590528316608482015287919063de319d999060a401600060405180830381600087803b15801561151657600080fd5b505af115801561152a573d6000803e3d6000fd5b5050505050505050505050565b61153f612ee5565b6000611549612d72565b9050816001600160a01b0316816001600160a01b031614156115ad5760405162461bcd60e51b815260206004820152601760248201527f43616e6e6f742072656e6f756e6365206f6e6573656c660000000000000000006044820152606401610b9a565b6115b8600083611202565b61128e600082611292565b6115cb612ee5565b60405163ab5c7bf160e01b815282906001600160a01b0382169063ab5c7bf1906115f99085906004016144cf565b600060405180830381600087803b15801561161357600080fd5b505af1158015611627573d6000803e3d6000fd5b50505050505050565b611638612ee5565b60ff909116600090815260a260209081526040808320805460ff1916600117905560a1909152902055565b61166b612d2c565b6000848152609c60205260409020546001600160a01b0316806116cc5760405162461bcd60e51b81526020600482015260196024820152781b9bc81a185b991b195c88199bdc881c995cdbdd5c98d95251603a1b6044820152606401610b9a565b6000858286866040516020016116e594939291906143fd565b60408051808303601f1901815291905280516020909101208351609a5491925090610100900460ff1681101561176b5760405162461bcd60e51b815260206004820152602560248201527f5369676e617475726573206c656e677468203e3d2072656c61796572546872656044820152641cda1bdb1960da1b6064820152608401610b9a565b604080516080810182526001815260006020820181905281830181905264ffffffffff431660608301529151909190611831907fc4cb5d35714699d6e85b9562b644e60393b418d974a5c1dd8efaadac37a142c5908d908d908d906117d3908e908e906144e2565b604051908190038120611816959493929160200194855260ff9390931660208501526001600160401b039190911660408401526060830152608082015260a00190565b60405160208183030381529060405280519060200120612f3e565b905060005b838110156119955760006118638389848151811061185657611856614381565b6020026020010151612f8c565b905061187d60008051602061473f83398151915282611f53565b6118ac5760405163c41f0f6960e01b81526001600160a01b038216600482015260248101839052604401610b9a565b6118b68482612fb0565b156118fb5760405162461bcd60e51b81526020600482015260156024820152741c995b185e595c88185b1c9958591e481d9bdd1959605a1b6044820152606401610b9a565b61191b61190782612fd3565b85602001516001600160c81b031617613001565b6001600160c81b0316602085015260408401805190611939826144f2565b60ff1660ff16815250507f25f8daaa4635a7729927ba3f5b3d59cc3320aca7c32c9db4e7ca7b95743436408d8d86600001518960405161197c94939291906143c8565b60405180910390a15061198e816143ad565b9050611836565b506003825260405163712467f960e11b815285906001600160a01b0382169063e248cff2906119cc908d908d908d90600401614459565b600060405180830381600087803b1580156119e657600080fd5b505af11580156119fa573d6000803e3d6000fd5b5050505060008051602061471f8339815191528c8c600388604051611a2294939291906143c8565b60405180910390a160ff8c811660088d901b68ffffffffffffffff0016176000818152609e602090815260408083208a84529091529020549091600191166004811115611a7157611a71614199565b1115611a8f5760405162461bcd60e51b8152600401610b9a90614512565b6001600160481b0381166000908152609e6020908152604080832089845290915290208451815486929190829060ff19166001836004811115611ad457611ad4614199565b021790555060208201518154604084015160609094015164ffffffffff16600160d81b026001600160d81b0360ff909516600160d01b0260ff60d01b196001600160c81b039094166101000293909316610100600160d81b031990921691909117919091179290921691909117905550505050505050505050505050565b611b5a612d2c565b6000611b64612d72565b905061162781888888888888613056565b611b7d612ee5565b611b8681612bac565b609a60026101000a81548164ffffffffff021916908364ffffffffff16021790555050565b6001600160481b0383166000908152609e602090815260408083208584529091528082208151608081019092528054611c47929190829060ff166004811115611bf657611bf6614199565b6004811115611c0757611c07614199565b8152905461010081046001600160c81b03166020830152600160d01b810460ff166040830152600160d81b900464ffffffffff1660609091015283612fb0565b949350505050565b6000611c6860008051602061473f833981519152612607565b905090565b611c75612ee5565b611c85611c80612d72565b61320c565b565b611c8f612ee5565b6000838152609c60205260409081902054905163789d771160e01b81526001600160a01b038481166004830152831515602483015290911690819063789d7711906044015b600060405180830381600087803b158015611cee57600080fd5b505af1158015611d02573d6000803e3d6000fd5b5050505050505050565b611d14612ee5565b6040516307b7ed9960e01b81526001600160a01b0382811660048301528391908216906307b7ed99906024016115f9565b6000828152609960205260408120611d5d908361325a565b9392505050565b611d6c612ee5565b828114611dbb5760405162461bcd60e51b815260206004820152601f60248201527f61646472735b5d2c20616d6f756e74735b5d3a2064696666206c656e677468006044820152606401610b9a565b60005b83811015611341576000858583818110611dda57611dda614381565b9050602002016020810190611def9190613d3e565b6001600160a01b0316848484818110611e0a57611e0a614381565b9050602002013560405160006040518083038185875af1925050503d8060008114611e51576040519150601f19603f3d011682016040523d82523d6000602084013e611e56565b606091505b5050905080611ea75760405162461bcd60e51b815260206004820152601960248201527f466565206574686572207472616e73666572206661696c6564000000000000006044820152606401610b9a565b7faaa40a232aaf133fdd28f3485f6fdd163514cfadbffa981f3610f42398efe34b6000878785818110611edc57611edc614381565b9050602002016020810190611ef19190613d3e565b868686818110611f0357611f03614381565b90506020020135604051611f38939291906001600160a01b039384168152919092166020820152604081019190915260600190565b60405180910390a15080611f4b816143ad565b915050611dbe565b6000828152609960205260408120611d5d9083613266565b611f73612ee5565b611f7b612e1c565b611f9360008051602061473f8339815191528261275b565b6040516001600160a01b03821681527f10e1f7ce9fd7d1b90a66d13a2ab3cb8dd7f29f3f8d520b143b063ccfbab6906b906020016113a0565b611fd4612ee5565b609a805460ff191660ff92909216919091179055565b604080516080810182526000808252602080830182905282840182905260608301829052868252609c815283822054935192936001600160a01b031692612039918891859189918991016143fd565b60408051808303601f19018152828252805160209182012060ff8c811660088d901b68ffffffffffffffff0016176000818152609e8552858120848252909452928490206080860190945283549195509193929183911660048111156120a1576120a1614199565b60048111156120b2576120b2614199565b8152905461010081046001600160c81b03166020830152600160d01b810460ff166040830152600160d81b900464ffffffffff166060909101529998505050505050505050565b612101612ee5565b60405163025a3c9960e21b815282906001600160a01b03821690630968f264906115f99085906004016144cf565b612137612cc6565b61213f612d2c565b6000838152609c602090815260408083205490516001600160a01b039091169268ffffffffffffffff00600889901b1660ff8a1617929091612189918891869189918991016143fd565b60408051601f1981840301815282825280516020918201206001600160481b0386166000908152609e835283812082825290925282822060808501909352825490945090929190829060ff1660048111156121e6576121e6614199565b60048111156121f7576121f7614199565b8152905461010081046001600160c81b0316602080840191909152600160d01b820460ff16604080850191909152600160d81b90920464ffffffffff1660609093019290925260008a8152609c9092529020549091506001600160a01b031661229e5760405162461bcd60e51b81526020600482015260196024820152781b9bc81a185b991b195c88199bdc881c995cdbdd5c98d95251603a1b6044820152606401610b9a565b6002815160048111156122b3576122b3614199565b14156122d1576122c8898988888b6001610f7b565b50505050611341565b60006122db612d72565b90506001826000015160048111156122f5576122f5614199565b11156123135760405162461bcd60e51b8152600401610b9a90614512565b61231d8282612fb0565b156123625760405162461bcd60e51b81526020600482015260156024820152741c995b185e595c88185b1c9958591e481d9bdd1959605a1b6044820152606401610b9a565b60008251600481111561237757612377614199565b14156123d7576040805160808101825260018082526000602083018190528284015264ffffffffff43166060830152915190935060008051602061471f833981519152916123ca918d918d9188906143c8565b60405180910390a1612438565b609a54606083015164ffffffffff620100009092048216916123fb91439116612c84565b64ffffffffff16111561243857600480835260405160008051602061471f8339815191529161242f918d918d9188906143c8565b60405180910390a15b60048251600481111561244d5761244d614199565b1461251d5761247261245e82612fd3565b83602001516001600160c81b031617613001565b6001600160c81b0316602083015260408201805190612490826144f2565b60ff1690525081516040517f25f8daaa4635a7729927ba3f5b3d59cc3320aca7c32c9db4e7ca7b9574343640916124cc918d918d9188906143c8565b60405180910390a1609a54604083015160ff610100909204821691161061251d57600280835260405160008051602061471f83398151915291612514918d918d9188906143c8565b60405180910390a15b6001600160481b0384166000908152609e6020908152604080832086845290915290208251815484929190829060ff1916600183600481111561256257612562614199565b021790555060208201518154604084015160609094015164ffffffffff16600160d81b026001600160d81b0360ff909516600160d01b0260ff60d01b196001600160c81b039094166101000293909316610100600160d81b03199092169190911791909117929092169190911790556002825160048111156125e6576125e6614199565b14156125fb576125fb8a8a89898c6000610f7b565b50505050505050505050565b60008181526099602052604081206113d290613288565b612626612ee5565b6000828152609c60205260409081902080546001600160a01b0319166001600160a01b038681169182179092559151635c7d1b9b60e11b815260048101859052908316602482015284919063b8fa373690604401611cd4565b612687612ee5565b60c8612691611c4f565b106126d75760405162461bcd60e51b81526020600482015260166024820152751c995b185e595c9cc81b1a5b5a5d081c995858da195960521b6044820152606401610b9a565b6126ef60008051602061473f83398151915282611202565b6040516001600160a01b03821681527f03580ee9f53a62b7cb409a2cb56f9be87747dd15017afc5cef6eef321e4fb2c5906020016113a0565b612730612ee5565b6001600160a01b03919091166000908152609d60205260409020805460ff1916911515919091179055565b600082815260996020526040902060020154612779906107fe612d72565b6127de5760405162461bcd60e51b815260206004820152603060248201527f416363657373436f6e74726f6c3a2073656e646572206d75737420626520616e60448201526f2061646d696e20746f207265766f6b6560801b6064820152608401610b9a565b61128e8282613292565b6127f0612ee5565b609a5460019060009060ff1661280883610100614555565b6128129190614574565b6000818152609c60205260409081902080546001600160a01b0319166001600160a01b038781169182179092559151635c7d1b9b60e11b8152600481018490529085166024820152919250849163b8fa373690604401600060405180830381600087803b15801561288257600080fd5b505af1158015612896573d6000803e3d6000fd5b505060405163789d771160e01b81526001600160a01b038681166004830152600160248301528416925063789d77119150604401611cd4565b6128d7612ee5565b60ff82166000908152609b60205260409020546001600160401b03908116908216116129545760405162461bcd60e51b815260206004820152602660248201527f446f6573206e6f7420616c6c6f772064656372656d656e7473206f6620746865604482015265206e6f6e636560d01b6064820152608401610b9a565b60ff919091166000908152609b60205260409020805467ffffffffffffffff19166001600160401b03909216919091179055565b6000807fc4cb5d35714699d6e85b9562b644e60393b418d974a5c1dd8efaadac37a142c589898989896040516129bf9291906144e2565b604051908190038120612a02959493929160200194855260ff9390931660208501526001600160401b039190911660408401526060830152608082015260a00190565b6040516020818303038152906040528051906020012090506000612a2582612f3e565b90506000612a698287878080601f016020809104026020016040519081016040528093929190818152602001838380828437600092019190915250612f8c92505050565b9050612a8360008051602061473f83398151915282611f53565b9b9a5050505050505050505050565b612a9a612ee5565b611c85612aa5612d72565b6132fb565b600054610100900460ff16612ac55760005460ff1615612ac9565b303b155b612ae55760405162461bcd60e51b8152600401610b9a90614333565b600054610100900460ff16158015612b07576000805461ffff19166101011790555b612b0f613346565b8015612b21576000805461ff00191690555b50565b600054610100900460ff16612b4b5760405162461bcd60e51b8152600401610b9a9061458c565b61128e82826133c1565b60006101008210612ba85760405162461bcd60e51b815260206004820152601c60248201527f76616c756520646f6573206e6f742066697420696e20382062697473000000006044820152606401610b9a565b5090565b6000650100000000008210612ba85760405162461bcd60e51b815260206004820152601d60248201527f76616c756520646f6573206e6f742066697420696e20343020626974730000006044820152606401610b9a565b6000612c0d612d72565b9050612c1a600082611f53565b80612c385750612c3860008051602061473f83398151915282611f53565b612b215760405162461bcd60e51b815260206004820152601e60248201527f73656e646572206973206e6f742072656c61796572206f722061646d696e00006044820152606401610b9a565b6000611d5d83836040518060400160405280601e81526020017f536166654d6174683a207375627472616374696f6e206f766572666c6f770000815250613402565b612ce060008051602061473f8339815191526107fe612d72565b611c855760405162461bcd60e51b815260206004820181905260248201527f73656e64657220646f65736e277420686176652072656c6179657220726f6c656044820152606401610b9a565b60355460ff1615611c855760405162461bcd60e51b815260206004820152601060248201526f14185d5cd8589b194e881c185d5cd95960821b6044820152606401610b9a565b60003360143610801590612d9e57506001600160a01b0381166000908152609d602052604090205460ff165b15612dae575060131936013560601c5b919050565b6000828152609960205260409020612dcb908261343c565b1561128e57612dd8612d72565b6001600160a01b0316816001600160a01b0316837f2f8788117e7eff1d82e926ec794901d17c78024a50270940304540a733656f0d60405160405180910390a45050565b60355460ff16611c855760405162461bcd60e51b815260206004820152601460248201527314185d5cd8589b194e881b9bdd081c185d5cd95960621b6044820152606401610b9a565b612e6d612d72565b6001600160a01b0316816001600160a01b0316146127de5760405162461bcd60e51b815260206004820152602f60248201527f416363657373436f6e74726f6c3a2063616e206f6e6c792072656e6f756e636560448201526e103937b632b9903337b91039b2b63360891b6064820152608401610b9a565b612ef260006107fe612d72565b611c855760405162461bcd60e51b815260206004820152601e60248201527f73656e64657220646f65736e277420686176652061646d696e20726f6c6500006044820152606401610b9a565b60006113d2612f4b613451565b8360405161190160f01b6020820152602281018390526042810182905260009060620160405160208183030381529060405280519060200120905092915050565b6000806000612f9b85856134cc565b91509150612fa88161353c565b509392505050565b60008083602001516001600160c81b0316612fca84612fd3565b16119392505050565b6000612ff7612ff060008051602061473f833981519152846113ab565b6001612c84565b6001901b92915050565b6000600160c81b8210612ba85760405162461bcd60e51b815260206004820152601e60248201527f76616c756520646f6573206e6f742066697420696e20323030206269747300006044820152606401610b9a565b60ff808716600090815260a2602052604081205434921661307957609f5461308d565b60ff8816600090815260a160205260409020545b905061309981836145d7565b91508060a060008282546130ad9190614574565b90915550506000878152609c60205260409020546001600160a01b0316806130e8576040516308c231dd60e31b815260040160405180910390fd5b60ff89166000908152609b6020526040812080548290613110906001600160401b03166145ee565b91906101000a8154816001600160401b0302191690836001600160401b03160217905590506000826001600160a01b031663b07e54bb868c8f8d8d6040518663ffffffff1660e01b815260040161316a9493929190614615565b60006040518083038185885af1158015613188573d6000803e3d6000fd5b50505050506040513d6000823e601f3d908101601f191682016040526131b1919081019061464a565b90508b6001600160a01b03167f17bc3181e17a9620a479c24e6c606e474ba84fc036877b768926872e8cd0e11f8c8c858d8d876040516131f6969594939291906146b7565b60405180910390a2505050505050505050505050565b613214612d2c565b6035805460ff191660011790556040516001600160a01b03821681527f62e78cea01bee320cd4e420270b5ea74000d11b0c9f74754ebdbfc544b05a258906020016113a0565b6000611d5d83836136f7565b6001600160a01b03811660009081526001830160205260408120541515611d5d565b60006113d2825490565b60008281526099602052604090206132aa9082613721565b1561128e576132b7612d72565b6001600160a01b0316816001600160a01b0316837ff6391f5c32d9c69d2a47ea670b442974b53935d1edc7fd64eb21e047a839171b60405160405180910390a45050565b613303612e1c565b6035805460ff191690556040516001600160a01b03821681527f5db9ee0a495bf2e6ff9c91a7834c1ba4fdd244a5e8aa4e537bd38aeae4b073aa906020016113a0565b600054610100900460ff166133615760005460ff1615613365565b303b155b6133815760405162461bcd60e51b8152600401610b9a90614333565b600054610100900460ff161580156133a3576000805461ffff19166101011790555b6035805460ff191690558015612b21576000805461ff001916905550565b600054610100900460ff166133e85760405162461bcd60e51b8152600401610b9a9061458c565b815160209283012081519190920120600191909155600255565b600081848411156134265760405162461bcd60e51b8152600401610b9a91906144cf565b50600061343384866145d7565b95945050505050565b6000611d5d836001600160a01b038416613736565b6000611c687f8b73c3c69bb8fe3d512ecc4cf759cc79239f7b179b0ffacaa9a75d522b39400f61348060015490565b6002546040805160208101859052908101839052606081018290524660808201523060a082015260009060c0016040516020818303038152906040528051906020012090509392505050565b6000808251604114156135035760208301516040840151606085015160001a6134f787828585613785565b94509450505050613535565b82516040141561352d5760208301516040840151613522868383613872565b935093505050613535565b506000905060025b9250929050565b600081600481111561355057613550614199565b14156135595750565b600181600481111561356d5761356d614199565b14156135bb5760405162461bcd60e51b815260206004820152601860248201527f45434453413a20696e76616c6964207369676e617475726500000000000000006044820152606401610b9a565b60028160048111156135cf576135cf614199565b141561361d5760405162461bcd60e51b815260206004820152601f60248201527f45434453413a20696e76616c6964207369676e6174757265206c656e677468006044820152606401610b9a565b600381600481111561363157613631614199565b141561368a5760405162461bcd60e51b815260206004820152602260248201527f45434453413a20696e76616c6964207369676e6174757265202773272076616c604482015261756560f01b6064820152608401610b9a565b600481600481111561369e5761369e614199565b1415612b215760405162461bcd60e51b815260206004820152602260248201527f45434453413a20696e76616c6964207369676e6174757265202776272076616c604482015261756560f01b6064820152608401610b9a565b600082600001828154811061370e5761370e614381565b9060005260206000200154905092915050565b6000611d5d836001600160a01b0384166138ab565b600081815260018301602052604081205461377d575081546001818101845560008481526020808220909301849055845484825282860190935260409020919091556113d2565b5060006113d2565b6000807f7fffffffffffffffffffffffffffffff5d576e7357a4501ddfe92f46681b20a08311156137bc5750600090506003613869565b8460ff16601b141580156137d457508460ff16601c14155b156137e55750600090506004613869565b6040805160008082526020820180845289905260ff881692820192909252606081018690526080810185905260019060a0016020604051602081039080840390855afa158015613839573d6000803e3d6000fd5b5050604051601f1901519150506001600160a01b03811661386257600060019250925050613869565b9150600090505b94509492505050565b6000806001600160ff1b0383168161388f60ff86901c601b614574565b905061389d87828885613785565b935093505050935093915050565b600081815260018301602052604081205480156139945760006138cf6001836145d7565b85549091506000906138e3906001906145d7565b905081811461394857600086600001828154811061390357613903614381565b906000526020600020015490508087600001848154811061392657613926614381565b6000918252602080832090910192909255918252600188019052604090208390555b855486908061395957613959614708565b6001900381819060005260206000200160009055905585600101600086815260200190815260200160002060009055600193505050506113d2565b60009150506113d2565b803560ff81168114612dae57600080fd5b634e487b7160e01b600052604160045260246000fd5b604051601f8201601f191681016001600160401b03811182821017156139ed576139ed6139af565b604052919050565b60006001600160401b03821115613a0e57613a0e6139af565b5060051b60200190565b6001600160a01b0381168114612b2157600080fd5b8035612dae81613a18565b600080600080600060a08688031215613a5057600080fd5b613a598661399e565b94506020808701356001600160401b03811115613a7557600080fd5b8701601f81018913613a8657600080fd5b8035613a99613a94826139f5565b6139c5565b81815260059190911b8201830190838101908b831115613ab857600080fd5b928401925b82841015613adf578335613ad081613a18565b82529284019290840190613abd565b9750505050604087013593505060608601359150613aff60808701613a2d565b90509295509295909350565b80356001600160401b0381168114612dae57600080fd5b600080600060608486031215613b3757600080fd5b613b408461399e565b9250613b4e60208501613b0b565b9150604084013590509250925092565b60008083601f840112613b7057600080fd5b5081356001600160401b03811115613b8757600080fd5b60208301915083602082850101111561353557600080fd5b80358015158114612dae57600080fd5b60008060008060008060a08789031215613bc857600080fd5b613bd18761399e565b9550613bdf60208801613b0b565b945060408701356001600160401b03811115613bfa57600080fd5b613c0689828a01613b5e565b90955093505060608701359150613c1f60808801613b9f565b90509295509295509295565b600060208284031215613c3d57600080fd5b5035919050565b60008060408385031215613c5757600080fd5b823591506020830135613c6981613a18565b809150509250929050565b60008083601f840112613c8657600080fd5b5081356001600160401b03811115613c9d57600080fd5b6020830191508360208260051b850101111561353557600080fd5b60008060008060408587031215613cce57600080fd5b84356001600160401b0380821115613ce557600080fd5b613cf188838901613c74565b90965094506020870135915080821115613d0a57600080fd5b50613d1787828801613c74565b95989497509550505050565b600060208284031215613d3557600080fd5b611d5d8261399e565b600060208284031215613d5057600080fd5b8135611d5d81613a18565b80356001600160e01b031981168114612dae57600080fd5b60008060008060008060c08789031215613d8c57600080fd5b8635613d9781613a18565b9550602087013594506040870135613dae81613a18565b9350613dbc60608801613d5b565b925060808701359150613c1f60a08801613d5b565b60006001600160401b03821115613dea57613dea6139af565b50601f01601f191660200190565b600082601f830112613e0957600080fd5b8135613e17613a9482613dd1565b818152846020838601011115613e2c57600080fd5b816020850160208301376000918101602001919091529392505050565b60008060408385031215613e5c57600080fd5b8235613e6781613a18565b915060208301356001600160401b03811115613e8257600080fd5b613e8e85828601613df8565b9150509250929050565b60008060408385031215613eab57600080fd5b613eb48361399e565b946020939093013593505050565b60008060008060008060a08789031215613edb57600080fd5b613ee48761399e565b95506020613ef3818901613b0b565b95506040880135945060608801356001600160401b0380821115613f1657600080fd5b613f228b838c01613b5e565b909650945060808a0135915080821115613f3b57600080fd5b818a0191508a601f830112613f4f57600080fd5b8135613f5d613a94826139f5565b81815260059190911b8301840190848101908d831115613f7c57600080fd5b8585015b83811015613fb2578481351115613f9657600080fd5b613fa58f888335890101613df8565b8352918601918601613f80565b508096505050505050509295509295509295565b60008060008060008060808789031215613fdf57600080fd5b613fe88761399e565b95506020870135945060408701356001600160401b038082111561400b57600080fd5b6140178a838b01613b5e565b9096509450606089013591508082111561403057600080fd5b5061403d89828a01613b5e565b979a9699509497509295939492505050565b60008060006060848603121561406457600080fd5b83356001600160481b038116811461407b57600080fd5b925060208401359150604084013561409281613a18565b809150509250925092565b6000806000606084860312156140b257600080fd5b8335925060208401356140c481613a18565b91506140d260408501613b9f565b90509250925092565b600080604083850312156140ee57600080fd5b82356140f981613a18565b91506020830135613c6981613a18565b6000806040838503121561411c57600080fd5b50508035926020909101359150565b60008060008060006080868803121561414357600080fd5b61414c8661399e565b945061415a60208701613b0b565b93506040860135925060608601356001600160401b0381111561417c57600080fd5b61418888828901613b5e565b969995985093965092949392505050565b634e487b7160e01b600052602160045260246000fd5b600581106141cd57634e487b7160e01b600052602160045260246000fd5b9052565b60006080820190506141e48284516141af565b60018060c81b03602084015116602083015260ff604084015116604083015264ffffffffff606084015116606083015292915050565b60008060006060848603121561422f57600080fd5b833561407b81613a18565b6000806040838503121561424d57600080fd5b823561425881613a18565b915061426660208401613b9f565b90509250929050565b6000806040838503121561428257600080fd5b61428b8361399e565b915061426660208401613b0b565b600080600080600080600060a0888a0312156142b457600080fd5b6142bd8861399e565b96506142cb60208901613b0b565b95506040880135945060608801356001600160401b03808211156142ee57600080fd5b6142fa8b838c01613b5e565b909650945060808a013591508082111561431357600080fd5b506143208a828b01613b5e565b989b979a50959850939692959293505050565b6020808252602e908201527f496e697469616c697a61626c653a20636f6e747261637420697320616c72656160408201526d191e481a5b9a5d1a585b1a5e995960921b606082015260800190565b634e487b7160e01b600052603260045260246000fd5b634e487b7160e01b600052601160045260246000fd5b60006000198214156143c1576143c1614397565b5060010190565b60ff851681526001600160401b0384166020820152608081016143ee60408301856141af565b82606083015295945050505050565b8481526bffffffffffffffffffffffff198460601b16602082015281836034830137600091016034019081529392505050565b81835281816020850137506000828201602090810191909152601f909101601f19169091010190565b838152604060208201526000613433604083018486614430565b60005b8381101561448e578181015183820152602001614476565b8381111561449d576000848401525b50505050565b600081518084526144bb816020860160208601614473565b601f01601f19169290920160200192915050565b602081526000611d5d60208301846144a3565b8183823760009101908152919050565b600060ff821660ff81141561450957614509614397565b60010192915050565b60208082526023908201527f70726f706f73616c20616c72656164792065786563757465642f63616e63656c6040820152621b195960ea1b606082015260800190565b600081600019048311821515161561456f5761456f614397565b500290565b6000821982111561458757614587614397565b500190565b6020808252602b908201527f496e697469616c697a61626c653a20636f6e7472616374206973206e6f74206960408201526a6e697469616c697a696e6760a81b606082015260800190565b6000828210156145e9576145e9614397565b500390565b60006001600160401b038083168181141561460b5761460b614397565b6001019392505050565b8481526001600160a01b03841660208201526060604082018190526000906146409083018486614430565b9695505050505050565b60006020828403121561465c57600080fd5b81516001600160401b0381111561467257600080fd5b8201601f8101841361468357600080fd5b8051614691613a9482613dd1565b8181528560208385010111156146a657600080fd5b613433826020830160208601614473565b60ff871681528560208201526001600160401b038516604082015260a0606082015260006146e960a083018587614430565b82810360808401526146fb81856144a3565b9998505050505050505050565b634e487b7160e01b600052603160045260246000fdfe968626a768e76ba1363efe44e322a6c4900c5f084e0b45f35e294dfddaa9e0d5e2b7fb3b832174769106daebcfd6d1970523240dda11281102db9363b83b0dc4a26469706673582212203fe4cec1a1a80050969a789f77f410cc73e451f541fc1af764c66e8e3c903b9464736f6c634300080b0033",
  "linkReferences": {},
  "deployedLinkReferences": {}
}