{
  "_format": "hh-sol-artifact-1",
  "contractName": "BridgeUpgradeable",
  "sourceName": "contracts/BridgeUpgradeable.sol",
  "abi": [
    {
      "inputs": [
        {
          "internalType": "uint256",
          "name": "msgValue",
          "type": "uint256"
        },
        {
          "internalType": "uint256",
          "name": "fee",
          "type": "uint256"
        }
      ],
      "name": "IncorrectFeeSupplied",
      "type": "error"
    },
    {
      "inputs": [
        {
          "internalType": "address",
          "name": "signer",
          "type": "address"
        },
        {
          "internalType": "uint256",
          "name": "index",
          "type": "uint256"
        }
      ],
      "name": "InvalidSignature",
      "type": "error"
    },
    {
      "inputs": [],
      "name": "ResourceIDNotMappedToHandler",
      "type": "error"
    },
    {
      "anonymous": false,
      "inputs": [
        {
          "indexed": false,
          "internalType": "uint8",
          "name": "destinationDomainID",
          "type": "uint8"
        },
        {
          "indexed": false,
          "internalType": "bytes32",
          "name": "resourceID",
          "type": "bytes32"
        },
        {
          "indexed": false,
          "internalType": "uint64",
          "name": "depositNonce",
          "type": "uint64"
        },
        {
          "indexed": true,
          "internalType": "address",
          "name": "user",
          "type": "address"
        },
        {
          "indexed": false,
          "internalType": "bytes",
          "name": "data",
          "type": "bytes"
        },
        {
          "indexed": false,
          "internalType": "bytes",
          "name": "handlerResponse",
          "type": "bytes"
        }
      ],
      "name": "Deposit",
      "type": "event"
    },
    {
      "anonymous": false,
      "inputs": [
        {
          "indexed": false,
          "internalType": "bytes",
          "name": "lowLevelData",
          "type": "bytes"
        }
      ],
      "name": "FailedHandlerExecution",
      "type": "event"
    },
    {
      "anonymous": false,
      "inputs": [
        {
          "indexed": false,
          "internalType": "uint256",
          "name": "newFee",
          "type": "uint256"
        }
      ],
      "name": "FeeChanged",
      "type": "event"
    },
    {
      "anonymous": false,
      "inputs": [
        {
          "indexed": false,
          "internalType": "address",
          "name": "tokenAddress",
          "type": "address"
        },
        {
          "indexed": false,
          "internalType": "address",
          "name": "recipient",
          "type": "address"
        },
        {
          "indexed": false,
          "internalType": "uint256",
          "name": "amount",
          "type": "uint256"
        }
      ],
      "name": "FeeDistributed",
      "type": "event"
    },
    {
      "anonymous": false,
      "inputs": [
        {
          "indexed": false,
          "internalType": "address",
          "name": "newFeeHandler",
          "type": "address"
        }
      ],
      "name": "FeeHandlerChanged",
      "type": "event"
    },
    {
      "anonymous": false,
      "inputs": [
        {
          "indexed": false,
          "internalType": "uint8",
          "name": "version",
          "type": "uint8"
        }
      ],
      "name": "Initialized",
      "type": "event"
    },
    {
      "anonymous": false,
      "inputs": [
        {
          "indexed": false,
          "internalType": "address",
          "name": "account",
          "type": "address"
        }
      ],
      "name": "Paused",
      "type": "event"
    },
    {
      "anonymous": false,
      "inputs": [
        {
          "indexed": false,
          "internalType": "uint8",
          "name": "originDomainID",
          "type": "uint8"
        },
        {
          "indexed": false,
          "internalType": "uint64",
          "name": "depositNonce",
          "type": "uint64"
        },
        {
          "indexed": false,
          "internalType": "enum IBridge.ProposalStatus",
          "name": "status",
          "type": "uint8"
        },
        {
          "indexed": false,
          "internalType": "bytes32",
          "name": "dataHash",
          "type": "bytes32"
        }
      ],
      "name": "ProposalEvent",
      "type": "event"
    },
    {
      "anonymous": false,
      "inputs": [
        {
          "indexed": false,
          "internalType": "uint8",
          "name": "originDomainID",
          "type": "uint8"
        },
        {
          "indexed": false,
          "internalType": "uint64",
          "name": "depositNonce",
          "type": "uint64"
        },
        {
          "indexed": false,
          "internalType": "enum IBridge.ProposalStatus",
          "name": "status",
          "type": "uint8"
        },
        {
          "indexed": false,
          "internalType": "bytes32",
          "name": "dataHash",
          "type": "bytes32"
        }
      ],
      "name": "ProposalVote",
      "type": "event"
    },
    {
      "anonymous": false,
      "inputs": [
        {
          "indexed": false,
          "internalType": "address",
          "name": "relayer",
          "type": "address"
        }
      ],
      "name": "RelayerAdded",
      "type": "event"
    },
    {
      "anonymous": false,
      "inputs": [
        {
          "indexed": false,
          "internalType": "address",
          "name": "relayer",
          "type": "address"
        }
      ],
      "name": "RelayerRemoved",
      "type": "event"
    },
    {
      "anonymous": false,
      "inputs": [
        {
          "indexed": false,
          "internalType": "uint256",
          "name": "newThreshold",
          "type": "uint256"
        }
      ],
      "name": "RelayerThresholdChanged",
      "type": "event"
    },
    {
      "anonymous": false,
      "inputs": [
        {
          "indexed": true,
          "internalType": "bytes32",
          "name": "role",
          "type": "bytes32"
        },
        {
          "indexed": true,
          "internalType": "address",
          "name": "account",
          "type": "address"
        },
        {
          "indexed": true,
          "internalType": "address",
          "name": "sender",
          "type": "address"
        }
      ],
      "name": "RoleGranted",
      "type": "event"
    },
    {
      "anonymous": false,
      "inputs": [
        {
          "indexed": true,
          "internalType": "bytes32",
          "name": "role",
          "type": "bytes32"
        },
        {
          "indexed": true,
          "internalType": "address",
          "name": "account",
          "type": "address"
        },
        {
          "indexed": true,
          "internalType": "address",
          "name": "sender",
          "type": "address"
        }
      ],
      "name": "RoleRevoked",
      "type": "event"
    },
    {
      "anonymous": false,
      "inputs": [
        {
          "indexed": false,
          "internalType": "address",
          "name": "account",
          "type": "address"
        }
      ],
      "name": "Unpaused",
      "type": "event"
    },
    {
      "inputs": [],
      "name": "DEFAULT_ADMIN_ROLE",
      "outputs": [
        {
          "internalType": "bytes32",
          "name": "",
          "type": "bytes32"
        }
      ],
      "stateMutability": "view",
      "type": "function"
    },
    {
      "inputs": [],
      "name": "MAX_RELAYERS",
      "outputs": [
        {
          "internalType": "uint256",
          "name": "",
          "type": "uint256"
        }
      ],
      "stateMutability": "view",
      "type": "function"
    },
    {
      "inputs": [],
      "name": "PERMIT_TYPEHASH",
      "outputs": [
        {
          "internalType": "bytes32",
          "name": "",
          "type": "bytes32"
        }
      ],
      "stateMutability": "view",
      "type": "function"
    },
    {
      "inputs": [],
      "name": "RELAYER_ROLE",
      "outputs": [
        {
          "internalType": "bytes32",
          "name": "",
          "type": "bytes32"
        }
      ],
      "stateMutability": "view",
      "type": "function"
    },
    {
      "inputs": [],
      "name": "_chainId",
      "outputs": [
        {
          "internalType": "uint256",
          "name": "",
          "type": "uint256"
        }
      ],
      "stateMutability": "view",
      "type": "function"
    },
    {
      "inputs": [
        {
          "internalType": "uint8",
          "name": "",
          "type": "uint8"
        }
      ],
      "name": "_depositCounts",
      "outputs": [
        {
          "internalType": "uint64",
          "name": "",
          "type": "uint64"
        }
      ],
      "stateMutability": "view",
      "type": "function"
    },
    {
      "inputs": [],
      "name": "_domainID",
      "outputs": [
        {
          "internalType": "uint8",
          "name": "",
          "type": "uint8"
        }
      ],
      "stateMutability": "view",
      "type": "function"
    },
    {
      "inputs": [],
      "name": "_expiry",
      "outputs": [
        {
          "internalType": "uint40",
          "name": "",
          "type": "uint40"
        }
      ],
      "stateMutability": "view",
      "type": "function"
    },
    {
      "inputs": [],
      "name": "_fee",
      "outputs": [
        {
          "internalType": "uint256",
          "name": "",
          "type": "uint256"
        }
      ],
      "stateMutability": "view",
      "type": "function"
    },
    {
      "inputs": [],
      "name": "_feeHandler",
      "outputs": [
        {
          "internalType": "contract IFeeHandler",
          "name": "",
          "type": "address"
        }
      ],
      "stateMutability": "view",
      "type": "function"
    },
    {
      "inputs": [],
      "name": "_feeReserve",
      "outputs": [
        {
          "internalType": "uint256",
          "name": "",
          "type": "uint256"
        }
      ],
      "stateMutability": "view",
      "type": "function"
    },
    {
      "inputs": [],
      "name": "_fee_",
      "outputs": [
        {
          "internalType": "uint256",
          "name": "",
          "type": "uint256"
        }
      ],
      "stateMutability": "view",
      "type": "function"
    },
    {
      "inputs": [
        {
          "internalType": "uint72",
          "name": "destNonce",
          "type": "uint72"
        },
        {
          "internalType": "bytes32",
          "name": "dataHash",
          "type": "bytes32"
        },
        {
          "internalType": "address",
          "name": "relayer",
          "type": "address"
        }
      ],
      "name": "_hasVotedOnProposal",
      "outputs": [
        {
          "internalType": "bool",
          "name": "",
          "type": "bool"
        }
      ],
      "stateMutability": "view",
      "type": "function"
    },
    {
      "inputs": [],
      "name": "_relayerThreshold",
      "outputs": [
        {
          "internalType": "uint8",
          "name": "",
          "type": "uint8"
        }
      ],
      "stateMutability": "view",
      "type": "function"
    },
    {
      "inputs": [
        {
          "internalType": "bytes32",
          "name": "",
          "type": "bytes32"
        }
      ],
      "name": "_resourceIDToHandlerAddress",
      "outputs": [
        {
          "internalType": "address",
          "name": "",
          "type": "address"
        }
      ],
      "stateMutability": "view",
      "type": "function"
    },
    {
      "inputs": [],
      "name": "_totalRelayers",
      "outputs": [
        {
          "internalType": "uint256",
          "name": "",
          "type": "uint256"
        }
      ],
      "stateMutability": "view",
      "type": "function"
    },
    {
      "inputs": [
        {
          "internalType": "address",
          "name": "relayerAddress",
          "type": "address"
        }
      ],
      "name": "adminAddRelayer",
      "outputs": [],
      "stateMutability": "nonpayable",
      "type": "function"
    },
    {
      "inputs": [
        {
          "internalType": "uint256",
          "name": "expiry",
          "type": "uint256"
        }
      ],
      "name": "adminChangeExpiry",
      "outputs": [],
      "stateMutability": "nonpayable",
      "type": "function"
    },
    {
      "inputs": [
        {
          "internalType": "uint256",
          "name": "newThreshold",
          "type": "uint256"
        }
      ],
      "name": "adminChangeRelayerThreshold",
      "outputs": [],
      "stateMutability": "nonpayable",
      "type": "function"
    },
    {
      "inputs": [],
      "name": "adminPauseTransfers",
      "outputs": [],
      "stateMutability": "nonpayable",
      "type": "function"
    },
    {
      "inputs": [
        {
          "internalType": "bytes32",
          "name": "resourceID",
          "type": "bytes32"
        },
        {
          "internalType": "address",
          "name": "contractAddress",
          "type": "address"
        }
      ],
      "name": "adminRemoveGenericResource",
      "outputs": [],
      "stateMutability": "nonpayable",
      "type": "function"
    },
    {
      "inputs": [],
      "name": "adminRemoveNativeResourceId",
      "outputs": [],
      "stateMutability": "nonpayable",
      "type": "function"
    },
    {
      "inputs": [
        {
          "internalType": "address",
          "name": "relayerAddress",
          "type": "address"
        }
      ],
      "name": "adminRemoveRelayer",
      "outputs": [],
      "stateMutability": "nonpayable",
      "type": "function"
    },
    {
      "inputs": [
        {
          "internalType": "bytes32",
          "name": "resourceID",
          "type": "bytes32"
        },
        {
          "internalType": "address",
          "name": "tokenAddress",
          "type": "address"
        }
      ],
      "name": "adminRemoveResourceId",
      "outputs": [],
      "stateMutability": "nonpayable",
      "type": "function"
    },
    {
      "inputs": [
        {
          "internalType": "uint8",
          "name": "destinationDomainID",
          "type": "uint8"
        }
      ],
      "name": "adminRemoveSpecialFee",
      "outputs": [],
      "stateMutability": "nonpayable",
      "type": "function"
    },
    {
      "inputs": [
        {
          "internalType": "address",
          "name": "handlerAddress",
          "type": "address"
        },
        {
          "internalType": "address",
          "name": "tokenAddress",
          "type": "address"
        }
      ],
      "name": "adminSetBurnable",
      "outputs": [],
      "stateMutability": "nonpayable",
      "type": "function"
    },
    {
      "inputs": [
        {
          "internalType": "uint8",
          "name": "domainID",
          "type": "uint8"
        },
        {
          "internalType": "uint64",
          "name": "nonce",
          "type": "uint64"
        }
      ],
      "name": "adminSetDepositNonce",
      "outputs": [],
      "stateMutability": "nonpayable",
      "type": "function"
    },
    {
      "inputs": [
        {
          "internalType": "uint8",
          "name": "domainID",
          "type": "uint8"
        }
      ],
      "name": "adminSetDomainId",
      "outputs": [],
      "stateMutability": "nonpayable",
      "type": "function"
    },
    {
      "inputs": [
        {
          "internalType": "uint256",
          "name": "newFee",
          "type": "uint256"
        }
      ],
      "name": "adminSetFee",
      "outputs": [],
      "stateMutability": "nonpayable",
      "type": "function"
    },
    {
      "inputs": [
        {
          "internalType": "address",
          "name": "forwarder",
          "type": "address"
        },
        {
          "internalType": "bool",
          "name": "valid",
          "type": "bool"
        }
      ],
      "name": "adminSetForwarder",
      "outputs": [],
      "stateMutability": "nonpayable",
      "type": "function"
    },
    {
      "inputs": [
        {
          "internalType": "address",
          "name": "handlerAddress",
          "type": "address"
        },
        {
          "internalType": "bytes32",
          "name": "resourceID",
          "type": "bytes32"
        },
        {
          "internalType": "address",
          "name": "contractAddress",
          "type": "address"
        },
        {
          "internalType": "bytes4",
          "name": "depositFunctionSig",
          "type": "bytes4"
        },
        {
          "internalType": "uint256",
          "name": "depositFunctionDepositorOffset",
          "type": "uint256"
        },
        {
          "internalType": "bytes4",
          "name": "executeFunctionSig",
          "type": "bytes4"
        }
      ],
      "name": "adminSetGenericResource",
      "outputs": [],
      "stateMutability": "nonpayable",
      "type": "function"
    },
    {
      "inputs": [
        {
          "internalType": "bytes32",
          "name": "resourceID",
          "type": "bytes32"
        },
        {
          "internalType": "address",
          "name": "nativeAddress",
          "type": "address"
        },
        {
          "internalType": "bool",
          "name": "isNative",
          "type": "bool"
        }
      ],
      "name": "adminSetNative",
      "outputs": [],
      "stateMutability": "nonpayable",
      "type": "function"
    },
    {
      "inputs": [
        {
          "internalType": "address",
          "name": "handlerAddress",
          "type": "address"
        }
      ],
      "name": "adminSetNativeResource",
      "outputs": [],
      "stateMutability": "nonpayable",
      "type": "function"
    },
    {
      "inputs": [
        {
          "internalType": "address",
          "name": "handlerAddress",
          "type": "address"
        },
        {
          "internalType": "bytes32",
          "name": "resourceID",
          "type": "bytes32"
        },
        {
          "internalType": "address",
          "name": "tokenAddress",
          "type": "address"
        }
      ],
      "name": "adminSetResource",
      "outputs": [],
      "stateMutability": "nonpayable",
      "type": "function"
    },
    {
      "inputs": [
        {
          "internalType": "uint8",
          "name": "destinationDomainID",
          "type": "uint8"
        },
        {
          "internalType": "uint256",
          "name": "_specialFee",
          "type": "uint256"
        }
      ],
      "name": "adminSetSpecialFee",
      "outputs": [],
      "stateMutability": "nonpayable",
      "type": "function"
    },
    {
      "inputs": [],
      "name": "adminUnpauseTransfers",
      "outputs": [],
      "stateMutability": "nonpayable",
      "type": "function"
    },
    {
      "inputs": [
        {
          "internalType": "address",
          "name": "handlerAddress",
          "type": "address"
        },
        {
          "internalType": "bytes",
          "name": "data",
          "type": "bytes"
        }
      ],
      "name": "adminWithdraw",
      "outputs": [],
      "stateMutability": "nonpayable",
      "type": "function"
    },
    {
      "inputs": [
        {
          "internalType": "address",
          "name": "handlerAddress",
          "type": "address"
        },
        {
          "internalType": "bytes",
          "name": "data",
          "type": "bytes"
        }
      ],
      "name": "adminWithdrawETH",
      "outputs": [],
      "stateMutability": "nonpayable",
      "type": "function"
    },
    {
      "inputs": [
        {
          "internalType": "uint8",
          "name": "domainID",
          "type": "uint8"
        },
        {
          "internalType": "uint64",
          "name": "depositNonce",
          "type": "uint64"
        },
        {
          "internalType": "bytes32",
          "name": "dataHash",
          "type": "bytes32"
        }
      ],
      "name": "cancelProposal",
      "outputs": [],
      "stateMutability": "nonpayable",
      "type": "function"
    },
    {
      "inputs": [
        {
          "internalType": "uint8",
          "name": "domainID",
          "type": "uint8"
        },
        {
          "internalType": "uint64",
          "name": "depositNonce",
          "type": "uint64"
        },
        {
          "internalType": "bytes32",
          "name": "resourceID",
          "type": "bytes32"
        },
        {
          "internalType": "bytes",
          "name": "data",
          "type": "bytes"
        },
        {
          "internalType": "bytes",
          "name": "signature",
          "type": "bytes"
        }
      ],
      "name": "checkSignature",
      "outputs": [
        {
          "internalType": "bool",
          "name": "",
          "type": "bool"
        }
      ],
      "stateMutability": "view",
      "type": "function"
    },
    {
      "inputs": [
        {
          "internalType": "uint8",
          "name": "destinationDomainID",
          "type": "uint8"
        },
        {
          "internalType": "bytes32",
          "name": "resourceID",
          "type": "bytes32"
        },
        {
          "internalType": "bytes",
          "name": "depositData",
          "type": "bytes"
        },
        {
          "internalType": "bytes",
          "name": "feeData",
          "type": "bytes"
        }
      ],
      "name": "deposit",
      "outputs": [],
      "stateMutability": "payable",
      "type": "function"
    },
    {
      "inputs": [
        {
          "internalType": "uint8",
          "name": "domainID",
          "type": "uint8"
        },
        {
          "internalType": "uint64",
          "name": "depositNonce",
          "type": "uint64"
        },
        {
          "internalType": "bytes",
          "name": "data",
          "type": "bytes"
        },
        {
          "internalType": "bytes32",
          "name": "resourceID",
          "type": "bytes32"
        },
        {
          "internalType": "bool",
          "name": "revertOnFail",
          "type": "bool"
        }
      ],
      "name": "executeProposal",
      "outputs": [],
      "stateMutability": "nonpayable",
      "type": "function"
    },
    {
      "inputs": [
        {
          "internalType": "uint8",
          "name": "destinationDomainID",
          "type": "uint8"
        }
      ],
      "name": "getFee",
      "outputs": [
        {
          "internalType": "uint256",
          "name": "",
          "type": "uint256"
        }
      ],
      "stateMutability": "view",
      "type": "function"
    },
    {
      "inputs": [
        {
          "internalType": "uint8",
          "name": "originDomainID",
          "type": "uint8"
        },
        {
          "internalType": "uint64",
          "name": "depositNonce",
          "type": "uint64"
        },
        {
          "internalType": "bytes32",
          "name": "resourceID",
          "type": "bytes32"
        },
        {
          "internalType": "bytes",
          "name": "data",
          "type": "bytes"
        }
      ],
      "name": "getProposal",
      "outputs": [
        {
          "components": [
            {
              "internalType": "enum IBridge.ProposalStatus",
              "name": "_status",
              "type": "uint8"
            },
            {
              "internalType": "uint200",
              "name": "_yesVotes",
              "type": "uint200"
            },
            {
              "internalType": "uint8",
              "name": "_yesVotesTotal",
              "type": "uint8"
            },
            {
              "internalType": "uint40",
              "name": "_proposedBlock",
              "type": "uint40"
            }
          ],
          "internalType": "struct IBridge.Proposal",
          "name": "",
          "type": "tuple"
        }
      ],
      "stateMutability": "view",
      "type": "function"
    },
    {
      "inputs": [
        {
          "internalType": "bytes32",
          "name": "role",
          "type": "bytes32"
        }
      ],
      "name": "getRoleAdmin",
      "outputs": [
        {
          "internalType": "bytes32",
          "name": "",
          "type": "bytes32"
        }
      ],
      "stateMutability": "view",
      "type": "function"
    },
    {
      "inputs": [
        {
          "internalType": "bytes32",
          "name": "role",
          "type": "bytes32"
        },
        {
          "internalType": "uint256",
          "name": "index",
          "type": "uint256"
        }
      ],
      "name": "getRoleMember",
      "outputs": [
        {
          "internalType": "address",
          "name": "",
          "type": "address"
        }
      ],
      "stateMutability": "view",
      "type": "function"
    },
    {
      "inputs": [
        {
          "internalType": "bytes32",
          "name": "role",
          "type": "bytes32"
        }
      ],
      "name": "getRoleMemberCount",
      "outputs": [
        {
          "internalType": "uint256",
          "name": "",
          "type": "uint256"
        }
      ],
      "stateMutability": "view",
      "type": "function"
    },
    {
      "inputs": [
        {
          "internalType": "bytes32",
          "name": "role",
          "type": "bytes32"
        },
        {
          "internalType": "address",
          "name": "account",
          "type": "address"
        }
      ],
      "name": "getRoleMemberIndex",
      "outputs": [
        {
          "internalType": "uint256",
          "name": "",
          "type": "uint256"
        }
      ],
      "stateMutability": "view",
      "type": "function"
    },
    {
      "inputs": [
        {
          "internalType": "bytes32",
          "name": "role",
          "type": "bytes32"
        },
        {
          "internalType": "address",
          "name": "account",
          "type": "address"
        }
      ],
      "name": "grantRole",
      "outputs": [],
      "stateMutability": "nonpayable",
      "type": "function"
    },
    {
      "inputs": [
        {
          "internalType": "bytes32",
          "name": "role",
          "type": "bytes32"
        },
        {
          "internalType": "address",
          "name": "account",
          "type": "address"
        }
      ],
      "name": "hasRole",
      "outputs": [
        {
          "internalType": "bool",
          "name": "",
          "type": "bool"
        }
      ],
      "stateMutability": "view",
      "type": "function"
    },
    {
      "inputs": [
        {
          "internalType": "uint8",
          "name": "domainID",
          "type": "uint8"
        },
        {
          "internalType": "address[]",
          "name": "initialRelayers",
          "type": "address[]"
        },
        {
          "internalType": "uint256",
          "name": "initialRelayerThreshold",
          "type": "uint256"
        },
        {
          "internalType": "uint256",
          "name": "expiry",
          "type": "uint256"
        },
        {
          "internalType": "address",
          "name": "admin",
          "type": "address"
        }
      ],
      "name": "initialize",
      "outputs": [],
      "stateMutability": "nonpayable",
      "type": "function"
    },
    {
      "inputs": [
        {
          "internalType": "address",
          "name": "relayer",
          "type": "address"
        }
      ],
      "name": "isRelayer",
      "outputs": [
        {
          "internalType": "bool",
          "name": "",
          "type": "bool"
        }
      ],
      "stateMutability": "view",
      "type": "function"
    },
    {
      "inputs": [
        {
          "internalType": "address",
          "name": "",
          "type": "address"
        }
      ],
      "name": "isValidForwarder",
      "outputs": [
        {
          "internalType": "bool",
          "name": "",
          "type": "bool"
        }
      ],
      "stateMutability": "view",
      "type": "function"
    },
    {
      "inputs": [],
      "name": "paused",
      "outputs": [
        {
          "internalType": "bool",
          "name": "",
          "type": "bool"
        }
      ],
      "stateMutability": "view",
      "type": "function"
    },
    {
      "inputs": [
        {
          "internalType": "address",
          "name": "newAdmin",
          "type": "address"
        }
      ],
      "name": "renounceAdmin",
      "outputs": [],
      "stateMutability": "nonpayable",
      "type": "function"
    },
    {
      "inputs": [
        {
          "internalType": "bytes32",
          "name": "role",
          "type": "bytes32"
        },
        {
          "internalType": "address",
          "name": "account",
          "type": "address"
        }
      ],
      "name": "renounceRole",
      "outputs": [],
      "stateMutability": "nonpayable",
      "type": "function"
    },
    {
      "inputs": [
        {
          "internalType": "bytes32",
          "name": "role",
          "type": "bytes32"
        },
        {
          "internalType": "address",
          "name": "account",
          "type": "address"
        }
      ],
      "name": "revokeRole",
      "outputs": [],
      "stateMutability": "nonpayable",
      "type": "function"
    },
    {
      "inputs": [
        {
          "internalType": "uint8",
          "name": "",
          "type": "uint8"
        }
      ],
      "name": "special",
      "outputs": [
        {
          "internalType": "bool",
          "name": "",
          "type": "bool"
        }
      ],
      "stateMutability": "view",
      "type": "function"
    },
    {
      "inputs": [
        {
          "internalType": "uint8",
          "name": "",
          "type": "uint8"
        }
      ],
      "name": "specialFee",
      "outputs": [
        {
          "internalType": "uint256",
          "name": "",
          "type": "uint256"
        }
      ],
      "stateMutability": "view",
      "type": "function"
    },
    {
      "inputs": [
        {
          "internalType": "address payable[]",
          "name": "addrs",
          "type": "address[]"
        },
        {
          "internalType": "uint256[]",
          "name": "amounts",
          "type": "uint256[]"
        }
      ],
      "name": "transferFee",
      "outputs": [],
      "stateMutability": "nonpayable",
      "type": "function"
    },
    {
      "inputs": [
        {
          "internalType": "uint8",
          "name": "domainID",
          "type": "uint8"
        },
        {
          "internalType": "uint64",
          "name": "depositNonce",
          "type": "uint64"
        },
        {
          "internalType": "bytes32",
          "name": "resourceID",
          "type": "bytes32"
        },
        {
          "internalType": "bytes",
          "name": "data",
          "type": "bytes"
        }
      ],
      "name": "voteProposal",
      "outputs": [],
      "stateMutability": "nonpayable",
      "type": "function"
    },
    {
      "inputs": [
        {
          "internalType": "uint8",
          "name": "domainID",
          "type": "uint8"
        },
        {
          "internalType": "uint64",
          "name": "depositNonce",
          "type": "uint64"
        },
        {
          "internalType": "bytes32",
          "name": "resourceID",
          "type": "bytes32"
        },
        {
          "internalType": "bytes",
          "name": "data",
          "type": "bytes"
        },
        {
          "internalType": "bytes[]",
          "name": "signatures",
          "type": "bytes[]"
        }
      ],
      "name": "voteProposals",
      "outputs": [],
      "stateMutability": "nonpayable",
      "type": "function"
    }
  ],
  "bytecode": "0x608060405234801561001057600080fd5b50614a2d806100206000396000f3fe6080604052600436106103ad5760003560e01c806388b73be0116101e7578063c0331b3e1161010d578063d7a9cd79116100a0578063f8c39e441161006f578063f8c39e4414610b77578063fe4648f414610ba7578063fe65c4be14610bd2578063ffaac0eb14610bf257600080fd5b8063d7a9cd7914610b02578063e2469d4014610b21578063e7b14b5a14610b41578063edc20c3c14610b5757600080fd5b8063cb10f215116100dc578063cb10f21514610a82578063cdb0f73a14610aa2578063d15ef64e14610ac2578063d547741f14610ae257600080fd5b8063c0331b3e146109f3578063c5b37c2214610a13578063c5ec897014610a28578063ca15c87314610a6257600080fd5b80639d82dd6311610185578063a217fddf11610154578063a217fddf14610964578063a5c621f214610979578063b67a4aaf146109a6578063bd2a1820146109d357600080fd5b80639d82dd63146108e35780639dd694f4146109035780639debb3bd1461092f578063a06fbbff1461094457600080fd5b8063904e9b2b116101c1578063904e9b2b1461086b57806391d148541461088b578063926d7d7f146108ab57806393cbe783146108cd57600080fd5b806388b73be01461080b5780638c0c26311461082b5780639010d07c1461084b57600080fd5b80635a1ad87c116102d757806373c45c981161026a5780637febe63f116102395780637febe63f14610773578063802aabe81461079357806380ae1c28146107a857806384db809f146107bd57600080fd5b806373c45c981461072d57806374773412146107405780637d026d96146107535780637d87cf7f1461067d57600080fd5b806362abd9ce116102a657806362abd9ce1461069d5780636d3b6eea146106cd5780636e2047bc146106ed5780637292dd911461070d57600080fd5b80635a1ad87c146106255780635c975abb146106455780635e1fab0f1461065d57806362908ab41461067d57600080fd5b806330adf81f1161034f5780634e0df3f61161031e5780634e0df3f61461056e5780634e37850a146105b55780634f2c0aec146105d5578063541d5548146105f557600080fd5b806330adf81f146104ac57806336568abe146104e05780634b0b919d146105005780634e0560051461054e57600080fd5b806317f03ce51161038b57806317f03ce51461041c578063206a98fd1461043c578063248a9ca31461045c5780632f2ff15d1461048c57600080fd5b8063083132c4146103b257806309a6b9d0146103e55780630d7d75b3146103fc575b600080fd5b3480156103be57600080fd5b506103d26103cd366004613c11565b610c07565b6040519081526020015b60405180910390f35b3480156103f157600080fd5b506103fa610c18565b005b34801561040857600080fd5b506103fa610417366004613cb5565b610d2f565b34801561042857600080fd5b506103fa610437366004613d9f565b610f11565b34801561044857600080fd5b506103fa610457366004613e2c565b611191565b34801561046857600080fd5b506103d2610477366004613ea8565b60009081526099602052604090206002015490565b34801561049857600080fd5b506103fa6104a7366004613ec1565b6111e4565b3480156104b857600080fd5b506103d27fc4cb5d35714699d6e85b9562b644e60393b418d974a5c1dd8efaadac37a142c581565b3480156104ec57600080fd5b506103fa6104fb366004613ec1565b611274565b34801561050c57600080fd5b5061053661051b366004613c11565b609b602052600090815260409020546001600160401b031681565b6040516001600160401b0390911681526020016103dc565b34801561055a57600080fd5b506103fa610569366004613ea8565b611286565b34801561057a57600080fd5b506103d2610589366004613ec1565b60008281526099602090815260408083206001600160a01b038516845260010190915290205492915050565b3480156105c157600080fd5b506103fa6105d0366004613c11565b6112e9565b3480156105e157600080fd5b506103fa6105f0366004613ea8565b611317565b34801561060157600080fd5b50610615610610366004613ef1565b6113a6565b60405190151581526020016103dc565b34801561063157600080fd5b506103fa610640366004613f26565b6113c0565b34801561065157600080fd5b5060355460ff16610615565b34801561066957600080fd5b506103fa610678366004613ef1565b611476565b34801561068957600080fd5b506103fa610698366004613ec1565b611502565b3480156106a957600080fd5b506106156106b8366004613c11565b60a26020526000908152604090205460ff1681565b3480156106d957600080fd5b506103fa6106e8366004613ffc565b611563565b3480156106f957600080fd5b506103fa61070836600461404b565b6115d0565b34801561071957600080fd5b506103fa610728366004614075565b611603565b6103fa61073b366004614179565b611adb565b34801561074c57600080fd5b50466103d2565b34801561075f57600080fd5b506103fa61076e366004613ea8565b611afe565b34801561077f57600080fd5b5061061561078e366004614202565b611b34565b34801561079f57600080fd5b506103d2611bd8565b3480156107b457600080fd5b506103fa611bf6565b3480156107c957600080fd5b506107f36107d8366004613ea8565b609c602052600090815260409020546001600160a01b031681565b6040516001600160a01b0390911681526020016103dc565b34801561081757600080fd5b506103fa610826366004614250565b611c10565b34801561083757600080fd5b506103fa61084636600461428e565b611c61565b34801561085757600080fd5b506107f36108663660046142bc565b611c9a565b34801561087757600080fd5b506103fa610886366004614322565b611cb9565b34801561089757600080fd5b506106156108a6366004613ec1565b611eaf565b3480156108b757600080fd5b506103d26000805160206149d883398151915281565b3480156108d957600080fd5b506103d2609f5481565b3480156108ef57600080fd5b506103fa6108fe366004613ef1565b611ec7565b34801561090f57600080fd5b50609a5461091d9060ff1681565b60405160ff90911681526020016103dc565b34801561093b57600080fd5b506103d260c881565b34801561095057600080fd5b506103fa61095f366004613c11565b611f28565b34801561097057600080fd5b506103d2600081565b34801561098557600080fd5b5061099961099436600461438d565b611f46565b6040516103dc9190614433565b3480156109b257600080fd5b506103d26109c1366004613c11565b60a16020526000908152604090205481565b3480156109df57600080fd5b506103fa6109ee366004613ffc565b612055565b3480156109ff57600080fd5b506103fa610a0e36600461438d565b61208b565b348015610a1f57600080fd5b50609f546103d2565b348015610a3457600080fd5b50609a54610a4c9062010000900464ffffffffff1681565b60405164ffffffffff90911681526020016103dc565b348015610a6e57600080fd5b506103d2610a7d366004613ea8565b612591565b348015610a8e57600080fd5b506103fa610a9d36600461447c565b6125a8565b348015610aae57600080fd5b506103fa610abd366004613ef1565b612609565b348015610ace57600080fd5b506103fa610add36600461449c565b6126b2565b348015610aee57600080fd5b506103fa610afd366004613ec1565b6126e5565b348015610b0e57600080fd5b50609a5461091d90610100900460ff1681565b348015610b2d57600080fd5b506103fa610b3c366004613ef1565b612772565b348015610b4d57600080fd5b506103d260a05481565b348015610b6357600080fd5b506103fa610b723660046144d1565b612856565b348015610b8357600080fd5b50610615610b92366004613ef1565b609d6020526000908152604090205460ff1681565b348015610bb357600080fd5b50609a546107f39067010000000000000090046001600160a01b031681565b348015610bde57600080fd5b50610615610bed3660046144fb565b61290f565b348015610bfe57600080fd5b506103fa612a19565b6000610c1282612a31565b92915050565b610c20612a70565b609a5460ff16600081610c35816101006145ab565b610c3f91906145ca565b6000818152609c602052604080822080546001600160a01b03198116909155905163789d771160e01b81526001600160a01b038681166004830152602482019390935292935016908190819063789d771190604401600060405180830381600087803b158015610cae57600080fd5b505af1158015610cc2573d6000803e3d6000fd5b505060405163a981575160e01b8152600481018690526001600160a01b0387811660248301528416925063a981575191506044015b600060405180830381600087803b158015610d1157600080fd5b505af1158015610d25573d6000803e3d6000fd5b5050505050505050565b600054610100900460ff1615808015610d4f5750600054600160ff909116105b80610d695750303b158015610d69575060005460ff166001145b610d8e5760405162461bcd60e51b8152600401610d85906145e2565b60405180910390fd5b6000805460ff191660011790558015610db1576000805461ff0019166101001790555b610db9612ac9565b610e026040518060400160405280600c81526020016b5065726d697442726964676560a01b815250604051806040016040528060038152602001620312e360ec1b815250612b8f565b609a805460ff191660ff8816179055610e1a84612bc0565b609a60016101000a81548160ff021916908360ff160217905550610e3d83612c17565b609a805464ffffffffff92909216620100000266ffffffffff000019909216919091179055610e6d600083611266565b60005b8551811015610ebc57610eaa6000805160206149d8833981519152878381518110610e9d57610e9d614630565b60200260200101516111e4565b80610eb481614646565b915050610e70565b50600160a3558015610f09576000805461ff0019169055604051600181527f7f26b83ff96e1f2b6a682f133852f6798a09c465da95921460cefb3847402498906020015b60405180910390a15b505050505050565b610f19612c6e565b60ff838116600884901b68ffffffffffffffff0016176000818152609e60209081526040808320868452909152808220815160808101909252805493949293919290918391166004811115610f7057610f706143fb565b6004811115610f8157610f816143fb565b8152905461010081046001600160c81b03166020830152600160d01b810460ff166040830152600160d81b900464ffffffffff1660609091015280519091506001816004811115610fd457610fd46143fb565b1480610ff157506002816004811115610fef57610fef6143fb565b145b61103d5760405162461bcd60e51b815260206004820152601c60248201527f50726f706f73616c2063616e6e6f742062652063616e63656c6c6564000000006044820152606401610d85565b609a54606083015164ffffffffff6201000090920482169161106191439116612cef565b64ffffffffff16116110b55760405162461bcd60e51b815260206004820181905260248201527f50726f706f73616c206e6f7420617420657870697279207468726573686f6c646044820152606401610d85565b60048083526001600160481b0384166000908152609e602090815260408083208884529091529020835181548593839160ff19169060019084908111156110fe576110fe6143fb565b02179055506020820151815460408085015160609095015164ffffffffff16600160d81b026001600160d81b0360ff909616600160d01b0260ff60d01b196001600160c81b039095166101000294909416610100600160d81b0319909316929092179290921793909316929092179055516000805160206149b883398151915290610f0090889088906004908990614661565b611199612d31565b6111a1612d97565b600260a35414156111c45760405162461bcd60e51b8152600401610d8590614696565b600260a3556111d7868686868686612ddd565b5050600160a35550505050565b600082815260996020526040902060020154611202906108a6613054565b6112665760405162461bcd60e51b815260206004820152602f60248201527f416363657373436f6e74726f6c3a2073656e646572206d75737420626520616e60448201526e0818591b5a5b881d1bc819dc985b9d608a1b6064820152608401610d85565b6112708282613093565b5050565b61127c6130fc565b6112708282613145565b61128e612a70565b61129781612bc0565b609a805460ff929092166101000261ff00199092169190911790556040518181527fa20d6b84cd798a24038be305eff8a45ca82ef54a2aa2082005d8e14c0a4746c8906020015b60405180910390a150565b6112f1612a70565b60ff16600090815260a260209081526040808320805460ff1916905560a1909152812055565b61131f612a70565b80609f5414156113715760405162461bcd60e51b815260206004820152601f60248201527f43757272656e742066656520697320657175616c20746f206e657720666565006044820152606401610d85565b609f8190556040518181527f6bbc57480a46553fa4d156ce702beef5f3ad66303b0ed1a5d4cb44966c6584c3906020016112de565b6000610c126000805160206149d883398151915283611eaf565b6113c8612a70565b6000858152609c60205260409081902080546001600160a01b0319166001600160a01b03898116918217909255915163de319d9960e01b81526004810188905290861660248201526001600160e01b03198086166044830152606482018590528316608482015287919063de319d999060a401600060405180830381600087803b15801561145557600080fd5b505af1158015611469573d6000803e3d6000fd5b5050505050505050505050565b61147e612a70565b6000611488613054565b9050816001600160a01b0316816001600160a01b031614156114ec5760405162461bcd60e51b815260206004820152601760248201527f43616e6e6f742072656e6f756e6365206f6e6573656c660000000000000000006044820152606401610d85565b6114f76000836111e4565b611270600082611274565b61150a612a70565b6000828152609c60205260409081902080546001600160a01b03198116909155905163a981575160e01b8152600481018490526001600160a01b038381166024830152909116908190819063a981575190604401610cf7565b61156b612a70565b60405163ab5c7bf160e01b815282906001600160a01b0382169063ab5c7bf190611599908590600401614729565b600060405180830381600087803b1580156115b357600080fd5b505af11580156115c7573d6000803e3d6000fd5b50505050505050565b6115d8612a70565b60ff909116600090815260a260209081526040808320805460ff1916600117905560a1909152902055565b61160b612d97565b600260a354141561162e5760405162461bcd60e51b8152600401610d8590614696565b600260a3556000848152609c60205260409020546001600160a01b0316806116945760405162461bcd60e51b81526020600482015260196024820152781b9bc81a185b991b195c88199bdc881c995cdbdd5c98d95251603a1b6044820152606401610d85565b6000858286866040516020016116ad949392919061473c565b60408051808303601f1901815291905280516020909101208351609a5491925090610100900460ff168110156117335760405162461bcd60e51b815260206004820152602560248201527f5369676e617475726573206c656e677468203e3d2072656c61796572546872656044820152641cda1bdb1960da1b6064820152608401610d85565b604080516080810182526001815260006020820181905281830181905264ffffffffff4316606083015291519091906117f9907fc4cb5d35714699d6e85b9562b644e60393b418d974a5c1dd8efaadac37a142c5908d908d908d9061179b908e908e9061476f565b6040519081900381206117de959493929160200194855260ff9390931660208501526001600160401b039190911660408401526060830152608082015260a00190565b604051602081830303815290604052805190602001206131c5565b905060005b8381101561191957600061182b8389848151811061181e5761181e614630565b6020026020010151613213565b90506118456000805160206149d883398151915282611eaf565b6118745760405163c41f0f6960e01b81526001600160a01b038216600482015260248101839052604401610d85565b61187e8482613237565b156118c35760405162461bcd60e51b81526020600482015260156024820152741c995b185e595c88185b1c9958591e481d9bdd1959605a1b6044820152606401610d85565b6118e36118cf8261325a565b85602001516001600160c81b0316176132a7565b6001600160c81b03166020850152604084018051906119018261477f565b60ff16905250611912905081614646565b90506117fe565b506003825260405163712467f960e11b815285906001600160a01b0382169063e248cff290611950908d908d908d906004016147c8565b600060405180830381600087803b15801561196a57600080fd5b505af115801561197e573d6000803e3d6000fd5b505050506000805160206149b88339815191528c8c6003886040516119a69493929190614661565b60405180910390a160ff8c811660088d901b68ffffffffffffffff0016176000818152609e602090815260408083208a845290915290205490916001911660048111156119f5576119f56143fb565b1115611a135760405162461bcd60e51b8152600401610d85906147e2565b6001600160481b0381166000908152609e6020908152604080832089845290915290208451815486929190829060ff19166001836004811115611a5857611a586143fb565b021790555060208201518154604084015160609094015164ffffffffff16600160d81b026001600160d81b0360ff909516600160d01b0260ff60d01b196001600160c81b039094166101000293909316610100600160d81b03199092169190911791909117929092169190911790555050600160a3555050505050505050505050565b611ae3612d97565b6000611aed613054565b90506115c7818888888888886132fc565b611b06612a70565b611b0f81612c17565b609a60026101000a81548164ffffffffff021916908364ffffffffff16021790555050565b6001600160481b0383166000908152609e602090815260408083208584529091528082208151608081019092528054611bd0929190829060ff166004811115611b7f57611b7f6143fb565b6004811115611b9057611b906143fb565b8152905461010081046001600160c81b03166020830152600160d01b810460ff166040830152600160d81b900464ffffffffff1660609091015283613237565b949350505050565b6000611bf16000805160206149d8833981519152612591565b905090565b611bfe612a70565b611c0e611c09613054565b613487565b565b611c18612a70565b6000838152609c60205260409081902054905163789d771160e01b81526001600160a01b038481166004830152831515602483015290911690819063789d771190604401610cf7565b611c69612a70565b6040516307b7ed9960e01b81526001600160a01b0382811660048301528391908216906307b7ed9990602401611599565b6000828152609960205260408120611cb290836134d5565b9392505050565b611cc1612a70565b828114611d105760405162461bcd60e51b815260206004820152601f60248201527f61646472735b5d2c20616d6f756e74735b5d3a2064696666206c656e677468006044820152606401610d85565b60005b83811015611ea8576000858583818110611d2f57611d2f614630565b9050602002016020810190611d449190613ef1565b6001600160a01b0316848484818110611d5f57611d5f614630565b9050602002013560405160006040518083038185875af1925050503d8060008114611da6576040519150601f19603f3d011682016040523d82523d6000602084013e611dab565b606091505b5050905080611dfc5760405162461bcd60e51b815260206004820152601960248201527f466565206574686572207472616e73666572206661696c6564000000000000006044820152606401610d85565b7faaa40a232aaf133fdd28f3485f6fdd163514cfadbffa981f3610f42398efe34b6000878785818110611e3157611e31614630565b9050602002016020810190611e469190613ef1565b868686818110611e5857611e58614630565b90506020020135604051611e8d939291906001600160a01b039384168152919092166020820152604081019190915260600190565b60405180910390a15080611ea081614646565b915050611d13565b5050505050565b6000828152609960205260408120611cb290836134e1565b611ecf612a70565b611ed76130fc565b611eef6000805160206149d8833981519152826126e5565b6040516001600160a01b03821681527f10e1f7ce9fd7d1b90a66d13a2ab3cb8dd7f29f3f8d520b143b063ccfbab6906b906020016112de565b611f30612a70565b609a805460ff191660ff92909216919091179055565b604080516080810182526000808252602080830182905282840182905260608301829052868252609c815283822054935192936001600160a01b031692611f959188918591899189910161473c565b60408051808303601f19018152828252805160209182012060ff8c811660088d901b68ffffffffffffffff0016176000818152609e855285812084825290945292849020608086019094528354919550919392918391166004811115611ffd57611ffd6143fb565b600481111561200e5761200e6143fb565b8152905461010081046001600160c81b03166020830152600160d01b810460ff166040830152600160d81b900464ffffffffff166060909101529998505050505050505050565b61205d612a70565b60405163025a3c9960e21b815282906001600160a01b03821690630968f26490611599908590600401614729565b612093612d31565b61209b612d97565b600260a35414156120be5760405162461bcd60e51b8152600401610d8590614696565b600260a3556000838152609c602090815260408083205490516001600160a01b039091169268ffffffffffffffff00600889901b1660ff8a161792909161210d9188918691899189910161473c565b60408051601f1981840301815282825280516020918201206001600160481b0386166000908152609e835283812082825290925282822060808501909352825490945090929190829060ff16600481111561216a5761216a6143fb565b600481111561217b5761217b6143fb565b8152905461010081046001600160c81b0316602080840191909152600160d01b820460ff16604080850191909152600160d81b90920464ffffffffff1660609093019290925260008a8152609c9092529020549091506001600160a01b03166122225760405162461bcd60e51b81526020600482015260196024820152781b9bc81a185b991b195c88199bdc881c995cdbdd5c98d95251603a1b6044820152606401610d85565b600281516004811115612237576122376143fb565b14156122555761224c898988888b6001612ddd565b50505050612585565b600061225f613054565b9050600182600001516004811115612279576122796143fb565b11156122975760405162461bcd60e51b8152600401610d85906147e2565b6122a18282613237565b156122e65760405162461bcd60e51b81526020600482015260156024820152741c995b185e595c88185b1c9958591e481d9bdd1959605a1b6044820152606401610d85565b6000825160048111156122fb576122fb6143fb565b141561235b576040805160808101825260018082526000602083018190528284015264ffffffffff4316606083015291519093506000805160206149b88339815191529161234e918d918d918890614661565b60405180910390a16123bc565b609a54606083015164ffffffffff6201000090920482169161237f91439116612cef565b64ffffffffff1611156123bc5760048083526040516000805160206149b8833981519152916123b3918d918d918890614661565b60405180910390a15b6004825160048111156123d1576123d16143fb565b146124a1576123f66123e28261325a565b83602001516001600160c81b0316176132a7565b6001600160c81b03166020830152604082018051906124148261477f565b60ff1690525081516040517f25f8daaa4635a7729927ba3f5b3d59cc3320aca7c32c9db4e7ca7b957434364091612450918d918d918890614661565b60405180910390a1609a54604083015160ff61010090920482169116106124a15760028083526040516000805160206149b883398151915291612498918d918d918890614661565b60405180910390a15b6001600160481b0384166000908152609e6020908152604080832086845290915290208251815484929190829060ff191660018360048111156124e6576124e66143fb565b021790555060208201518154604084015160609094015164ffffffffff16600160d81b026001600160d81b0360ff909516600160d01b0260ff60d01b196001600160c81b039094166101000293909316610100600160d81b031990921691909117919091179290921691909117905560028251600481111561256a5761256a6143fb565b141561257f5761257f8a8a89898c6000612ddd565b50505050505b5050600160a355505050565b6000818152609960205260408120610c1290613503565b6125b0612a70565b6000828152609c60205260409081902080546001600160a01b0319166001600160a01b038681169182179092559151635c7d1b9b60e11b815260048101859052908316602482015284919063b8fa373690604401610cf7565b612611612a70565b60c861261b611bd8565b106126615760405162461bcd60e51b81526020600482015260166024820152751c995b185e595c9cc81b1a5b5a5d081c995858da195960521b6044820152606401610d85565b6126796000805160206149d8833981519152826111e4565b6040516001600160a01b03821681527f03580ee9f53a62b7cb409a2cb56f9be87747dd15017afc5cef6eef321e4fb2c5906020016112de565b6126ba612a70565b6001600160a01b03919091166000908152609d60205260409020805460ff1916911515919091179055565b600082815260996020526040902060020154612703906108a6613054565b6127685760405162461bcd60e51b815260206004820152603060248201527f416363657373436f6e74726f6c3a2073656e646572206d75737420626520616e60448201526f2061646d696e20746f207265766f6b6560801b6064820152608401610d85565b611270828261350d565b61277a612a70565b609a5460ff1660008161278f816101006145ab565b61279991906145ca565b6000818152609c60205260409081902080546001600160a01b0319166001600160a01b038781169182179092559151635c7d1b9b60e11b8152600481018490529085166024820152919250849163b8fa373690604401600060405180830381600087803b15801561280957600080fd5b505af115801561281d573d6000803e3d6000fd5b505060405163789d771160e01b81526001600160a01b038681166004830152600160248301528416925063789d77119150604401610cf7565b61285e612a70565b60ff82166000908152609b60205260409020546001600160401b03908116908216116128db5760405162461bcd60e51b815260206004820152602660248201527f446f6573206e6f7420616c6c6f772064656372656d656e7473206f6620746865604482015265206e6f6e636560d01b6064820152608401610d85565b60ff919091166000908152609b60205260409020805467ffffffffffffffff19166001600160401b03909216919091179055565b6000807fc4cb5d35714699d6e85b9562b644e60393b418d974a5c1dd8efaadac37a142c5898989898960405161294692919061476f565b604051908190038120612989959493929160200194855260ff9390931660208501526001600160401b039190911660408401526060830152608082015260a00190565b60405160208183030381529060405280519060200120905060006129ac826131c5565b905060006129f08287878080601f01602080910402602001604051908101604052809392919081815260200183838082843760009201919091525061321392505050565b9050612a0a6000805160206149d883398151915282611eaf565b9b9a5050505050505050505050565b612a21612a70565b611c0e612a2c613054565b613576565b60ff808216600090815260a2602052604081205490911615612a63575060ff16600090815260a1602052604090205490565b5050609f5490565b919050565b612a7d60006108a6613054565b611c0e5760405162461bcd60e51b815260206004820152601e60248201527f73656e64657220646f65736e277420686176652061646d696e20726f6c6500006044820152606401610d85565b600054610100900460ff1615808015612ae95750600054600160ff909116105b80612b035750303b158015612b03575060005460ff166001145b612b1f5760405162461bcd60e51b8152600401610d85906145e2565b6000805460ff191660011790558015612b42576000805461ff0019166101001790555b612b4a6135c1565b8015612b8c576000805461ff0019169055604051600181527f7f26b83ff96e1f2b6a682f133852f6798a09c465da95921460cefb3847402498906020016112de565b50565b600054610100900460ff16612bb65760405162461bcd60e51b8152600401610d8590614825565b6112708282613686565b60006101008210612c135760405162461bcd60e51b815260206004820152601c60248201527f76616c756520646f6573206e6f742066697420696e20382062697473000000006044820152606401610d85565b5090565b6000650100000000008210612c135760405162461bcd60e51b815260206004820152601d60248201527f76616c756520646f6573206e6f742066697420696e20343020626974730000006044820152606401610d85565b6000612c78613054565b9050612c85600082611eaf565b80612ca35750612ca36000805160206149d883398151915282611eaf565b612b8c5760405162461bcd60e51b815260206004820152601e60248201527f73656e646572206973206e6f742072656c61796572206f722061646d696e00006044820152606401610d85565b6000611cb283836040518060400160405280601e81526020017f536166654d6174683a207375627472616374696f6e206f766572666c6f7700008152506136c7565b612d4b6000805160206149d88339815191526108a6613054565b611c0e5760405162461bcd60e51b815260206004820181905260248201527f73656e64657220646f65736e277420686176652072656c6179657220726f6c656044820152606401610d85565b60355460ff1615611c0e5760405162461bcd60e51b815260206004820152601060248201526f14185d5cd8589b194e881c185d5cd95960821b6044820152606401610d85565b6000828152609c602090815260408083205490516001600160a01b039091169268ffffffffffffffff0060088a901b1660ff8b1617929091612e2791879186918b918b910161473c565b60408051601f1981840301815291815281516020928301206001600160481b0385166000908152609e845282812082825290935291209091506002815460ff166004811115612e7857612e786143fb565b14612ec55760405162461bcd60e51b815260206004820181905260248201527f50726f706f73616c206d757374206861766520506173736564207374617475736044820152606401610d85565b805460ff19166003178155838515612f3e5760405163712467f960e11b81526001600160a01b0382169063e248cff290612f07908a908d908d906004016147c8565b600060405180830381600087803b158015612f2157600080fd5b505af1158015612f35573d6000803e3d6000fd5b5050505061301b565b60405163712467f960e11b81526001600160a01b0382169063e248cff290612f6e908a908d908d906004016147c8565b600060405180830381600087803b158015612f8857600080fd5b505af1925050508015612f99575060015b61301b573d808015612fc7576040519150601f19603f3d011682016040523d82523d6000602084013e612fcc565b606091505b50825460ff191660021783556040517fbd37c1f0d53bb2f33fe4c2104de272fcdeb4d2fef3acdbf1e4ddc3d6833ca37690613008908390614729565b60405180910390a1505050505050610f09565b6000805160206149b88339815191528b8b60038660405161303f9493929190614661565b60405180910390a15050505050505050505050565b6000336014361080159061308057506001600160a01b0381166000908152609d602052604090205460ff165b15612a6b57505036601319013560601c90565b60008281526099602052604090206130ab9082613701565b15611270576130b8613054565b6001600160a01b0316816001600160a01b0316837f2f8788117e7eff1d82e926ec794901d17c78024a50270940304540a733656f0d60405160405180910390a45050565b60355460ff16611c0e5760405162461bcd60e51b815260206004820152601460248201527314185d5cd8589b194e881b9bdd081c185d5cd95960621b6044820152606401610d85565b61314d613054565b6001600160a01b0316816001600160a01b0316146127685760405162461bcd60e51b815260206004820152602f60248201527f416363657373436f6e74726f6c3a2063616e206f6e6c792072656e6f756e636560448201526e103937b632b9903337b91039b2b63360891b6064820152608401610d85565b6000610c126131d2613716565b8360405161190160f01b6020820152602281018390526042810182905260009060620160405160208183030381529060405280519060200120905092915050565b60008060006132228585613791565b9150915061322f816137d7565b509392505050565b60008083602001516001600160c81b03166132518461325a565b16119392505050565b6001600160a01b03811660009081527f466bdf72c8d8887d601776818ca0e11d24e204c6df385da2c5ab68f6700d138d602052604081205461329d906001612cef565b6001901b92915050565b6000600160c81b8210612c135760405162461bcd60e51b815260206004820152601e60248201527f76616c756520646f6573206e6f742066697420696e20323030206269747300006044820152606401610d85565b34600061330888612a31565b90506133148183614870565b91508060a0600082825461332891906145ca565b90915550506000878152609c60205260409020546001600160a01b031680613363576040516308c231dd60e31b815260040160405180910390fd5b60ff89166000908152609b602052604081208054829061338b906001600160401b0316614887565b91906101000a8154816001600160401b0302191690836001600160401b03160217905590506000826001600160a01b031663b07e54bb868c8f8d8d6040518663ffffffff1660e01b81526004016133e594939291906148ae565b60006040518083038185885af1158015613403573d6000803e3d6000fd5b50505050506040513d6000823e601f3d908101601f1916820160405261342c91908101906148e3565b90508b6001600160a01b03167f17bc3181e17a9620a479c24e6c606e474ba84fc036877b768926872e8cd0e11f8c8c858d8d8760405161347196959493929190614950565b60405180910390a2505050505050505050505050565b61348f612d97565b6035805460ff191660011790556040516001600160a01b03821681527f62e78cea01bee320cd4e420270b5ea74000d11b0c9f74754ebdbfc544b05a258906020016112de565b6000611cb28383613992565b6001600160a01b03811660009081526001830160205260408120541515611cb2565b6000610c12825490565b600082815260996020526040902061352590826139bc565b1561127057613532613054565b6001600160a01b0316816001600160a01b0316837ff6391f5c32d9c69d2a47ea670b442974b53935d1edc7fd64eb21e047a839171b60405160405180910390a45050565b61357e6130fc565b6035805460ff191690556040516001600160a01b03821681527f5db9ee0a495bf2e6ff9c91a7834c1ba4fdd244a5e8aa4e537bd38aeae4b073aa906020016112de565b600054610100900460ff16158080156135e15750600054600160ff909116105b806135fb5750303b1580156135fb575060005460ff166001145b6136175760405162461bcd60e51b8152600401610d85906145e2565b6000805460ff19166001179055801561363a576000805461ff0019166101001790555b6035805460ff191690558015612b8c576000805461ff0019169055604051600181527f7f26b83ff96e1f2b6a682f133852f6798a09c465da95921460cefb3847402498906020016112de565b600054610100900460ff166136ad5760405162461bcd60e51b8152600401610d8590614825565b815160209283012081519190920120600191909155600255565b600081848411156136eb5760405162461bcd60e51b8152600401610d859190614729565b5060006136f88486614870565b95945050505050565b6000611cb2836001600160a01b0384166139d1565b6000611bf17f8b73c3c69bb8fe3d512ecc4cf759cc79239f7b179b0ffacaa9a75d522b39400f61374560015490565b6002546040805160208101859052908101839052606081018290524660808201523060a082015260009060c0016040516020818303038152906040528051906020012090509392505050565b6000808251604114156137c85760208301516040840151606085015160001a6137bc87828585613a20565b945094505050506137d0565b506000905060025b9250929050565b60008160048111156137eb576137eb6143fb565b14156137f45750565b6001816004811115613808576138086143fb565b14156138565760405162461bcd60e51b815260206004820152601860248201527f45434453413a20696e76616c6964207369676e617475726500000000000000006044820152606401610d85565b600281600481111561386a5761386a6143fb565b14156138b85760405162461bcd60e51b815260206004820152601f60248201527f45434453413a20696e76616c6964207369676e6174757265206c656e677468006044820152606401610d85565b60038160048111156138cc576138cc6143fb565b14156139255760405162461bcd60e51b815260206004820152602260248201527f45434453413a20696e76616c6964207369676e6174757265202773272076616c604482015261756560f01b6064820152608401610d85565b6004816004811115613939576139396143fb565b1415612b8c5760405162461bcd60e51b815260206004820152602260248201527f45434453413a20696e76616c6964207369676e6174757265202776272076616c604482015261756560f01b6064820152608401610d85565b60008260000182815481106139a9576139a9614630565b9060005260206000200154905092915050565b6000611cb2836001600160a01b038416613b0d565b6000818152600183016020526040812054613a1857508154600181810184556000848152602080822090930184905584548482528286019093526040902091909155610c12565b506000610c12565b6000807f7fffffffffffffffffffffffffffffff5d576e7357a4501ddfe92f46681b20a0831115613a575750600090506003613b04565b8460ff16601b14158015613a6f57508460ff16601c14155b15613a805750600090506004613b04565b6040805160008082526020820180845289905260ff881692820192909252606081018690526080810185905260019060a0016020604051602081039080840390855afa158015613ad4573d6000803e3d6000fd5b5050604051601f1901519150506001600160a01b038116613afd57600060019250925050613b04565b9150600090505b94509492505050565b60008181526001830160205260408120548015613bf6576000613b31600183614870565b8554909150600090613b4590600190614870565b9050818114613baa576000866000018281548110613b6557613b65614630565b9060005260206000200154905080876000018481548110613b8857613b88614630565b6000918252602080832090910192909255918252600188019052604090208390555b8554869080613bbb57613bbb6149a1565b600190038181906000526020600020016000905590558560010160008681526020019081526020016000206000905560019350505050610c12565b6000915050610c12565b803560ff81168114612a6b57600080fd5b600060208284031215613c2357600080fd5b611cb282613c00565b634e487b7160e01b600052604160045260246000fd5b604051601f8201601f191681016001600160401b0381118282101715613c6a57613c6a613c2c565b604052919050565b60006001600160401b03821115613c8b57613c8b613c2c565b5060051b60200190565b6001600160a01b0381168114612b8c57600080fd5b8035612a6b81613c95565b600080600080600060a08688031215613ccd57600080fd5b613cd686613c00565b94506020808701356001600160401b03811115613cf257600080fd5b8701601f81018913613d0357600080fd5b8035613d16613d1182613c72565b613c42565b81815260059190911b8201830190838101908b831115613d3557600080fd5b928401925b82841015613d5c578335613d4d81613c95565b82529284019290840190613d3a565b9750505050604087013593505060608601359150613d7c60808701613caa565b90509295509295909350565b80356001600160401b0381168114612a6b57600080fd5b600080600060608486031215613db457600080fd5b613dbd84613c00565b9250613dcb60208501613d88565b9150604084013590509250925092565b60008083601f840112613ded57600080fd5b5081356001600160401b03811115613e0457600080fd5b6020830191508360208285010111156137d057600080fd5b80358015158114612a6b57600080fd5b60008060008060008060a08789031215613e4557600080fd5b613e4e87613c00565b9550613e5c60208801613d88565b945060408701356001600160401b03811115613e7757600080fd5b613e8389828a01613ddb565b90955093505060608701359150613e9c60808801613e1c565b90509295509295509295565b600060208284031215613eba57600080fd5b5035919050565b60008060408385031215613ed457600080fd5b823591506020830135613ee681613c95565b809150509250929050565b600060208284031215613f0357600080fd5b8135611cb281613c95565b80356001600160e01b031981168114612a6b57600080fd5b60008060008060008060c08789031215613f3f57600080fd5b8635613f4a81613c95565b9550602087013594506040870135613f6181613c95565b9350613f6f60608801613f0e565b925060808701359150613e9c60a08801613f0e565b60006001600160401b03821115613f9d57613f9d613c2c565b50601f01601f191660200190565b600082601f830112613fbc57600080fd5b8135613fca613d1182613f84565b818152846020838601011115613fdf57600080fd5b816020850160208301376000918101602001919091529392505050565b6000806040838503121561400f57600080fd5b823561401a81613c95565b915060208301356001600160401b0381111561403557600080fd5b61404185828601613fab565b9150509250929050565b6000806040838503121561405e57600080fd5b61406783613c00565b946020939093013593505050565b60008060008060008060a0878903121561408e57600080fd5b61409787613c00565b955060206140a6818901613d88565b95506040880135945060608801356001600160401b03808211156140c957600080fd5b6140d58b838c01613ddb565b909650945060808a01359150808211156140ee57600080fd5b818a0191508a601f83011261410257600080fd5b8135614110613d1182613c72565b81815260059190911b8301840190848101908d83111561412f57600080fd5b8585015b8381101561416557848135111561414957600080fd5b6141588f888335890101613fab565b8352918601918601614133565b508096505050505050509295509295509295565b6000806000806000806080878903121561419257600080fd5b61419b87613c00565b95506020870135945060408701356001600160401b03808211156141be57600080fd5b6141ca8a838b01613ddb565b909650945060608901359150808211156141e357600080fd5b506141f089828a01613ddb565b979a9699509497509295939492505050565b60008060006060848603121561421757600080fd5b83356001600160481b038116811461422e57600080fd5b925060208401359150604084013561424581613c95565b809150509250925092565b60008060006060848603121561426557600080fd5b83359250602084013561427781613c95565b915061428560408501613e1c565b90509250925092565b600080604083850312156142a157600080fd5b82356142ac81613c95565b91506020830135613ee681613c95565b600080604083850312156142cf57600080fd5b50508035926020909101359150565b60008083601f8401126142f057600080fd5b5081356001600160401b0381111561430757600080fd5b6020830191508360208260051b85010111156137d057600080fd5b6000806000806040858703121561433857600080fd5b84356001600160401b038082111561434f57600080fd5b61435b888389016142de565b9096509450602087013591508082111561437457600080fd5b50614381878288016142de565b95989497509550505050565b6000806000806000608086880312156143a557600080fd5b6143ae86613c00565b94506143bc60208701613d88565b93506040860135925060608601356001600160401b038111156143de57600080fd5b6143ea88828901613ddb565b969995985093965092949392505050565b634e487b7160e01b600052602160045260246000fd5b6005811061442f57634e487b7160e01b600052602160045260246000fd5b9052565b6000608082019050614446828451614411565b60018060c81b03602084015116602083015260ff604084015116604083015264ffffffffff606084015116606083015292915050565b60008060006060848603121561449157600080fd5b833561422e81613c95565b600080604083850312156144af57600080fd5b82356144ba81613c95565b91506144c860208401613e1c565b90509250929050565b600080604083850312156144e457600080fd5b6144ed83613c00565b91506144c860208401613d88565b600080600080600080600060a0888a03121561451657600080fd5b61451f88613c00565b965061452d60208901613d88565b95506040880135945060608801356001600160401b038082111561455057600080fd5b61455c8b838c01613ddb565b909650945060808a013591508082111561457557600080fd5b506145828a828b01613ddb565b989b979a50959850939692959293505050565b634e487b7160e01b600052601160045260246000fd5b60008160001904831182151516156145c5576145c5614595565b500290565b600082198211156145dd576145dd614595565b500190565b6020808252602e908201527f496e697469616c697a61626c653a20636f6e747261637420697320616c72656160408201526d191e481a5b9a5d1a585b1a5e995960921b606082015260800190565b634e487b7160e01b600052603260045260246000fd5b600060001982141561465a5761465a614595565b5060010190565b60ff851681526001600160401b0384166020820152608081016146876040830185614411565b82606083015295945050505050565b6020808252601f908201527f5265656e7472616e637947756172643a207265656e7472616e742063616c6c00604082015260600190565b60005b838110156146e85781810151838201526020016146d0565b838111156146f7576000848401525b50505050565b600081518084526147158160208601602086016146cd565b601f01601f19169290920160200192915050565b602081526000611cb260208301846146fd565b8481526bffffffffffffffffffffffff198460601b16602082015281836034830137600091016034019081529392505050565b8183823760009101908152919050565b600060ff821660ff81141561479657614796614595565b60010192915050565b81835281816020850137506000828201602090810191909152601f909101601f19169091010190565b8381526040602082015260006136f860408301848661479f565b60208082526023908201527f70726f706f73616c20616c72656164792065786563757465642f63616e63656c6040820152621b195960ea1b606082015260800190565b6020808252602b908201527f496e697469616c697a61626c653a20636f6e7472616374206973206e6f74206960408201526a6e697469616c697a696e6760a81b606082015260800190565b60008282101561488257614882614595565b500390565b60006001600160401b03808316818114156148a4576148a4614595565b6001019392505050565b8481526001600160a01b03841660208201526060604082018190526000906148d9908301848661479f565b9695505050505050565b6000602082840312156148f557600080fd5b81516001600160401b0381111561490b57600080fd5b8201601f8101841361491c57600080fd5b805161492a613d1182613f84565b81815285602083850101111561493f57600080fd5b6136f88260208301602086016146cd565b60ff871681528560208201526001600160401b038516604082015260a06060820152600061498260a08301858761479f565b828103608084015261499481856146fd565b9998505050505050505050565b634e487b7160e01b600052603160045260246000fdfe968626a768e76ba1363efe44e322a6c4900c5f084e0b45f35e294dfddaa9e0d5e2b7fb3b832174769106daebcfd6d1970523240dda11281102db9363b83b0dc4a2646970667358221220a893487d4c6fb970d170878595f7d17806f4fca488ca22fd069cc66893b3ae0664736f6c634300080b0033",
  "linkReferences": {},
  "deployedLinkReferences": {}
}