{
  "_format": "hh-sol-artifact-1",
  "contractName": "BridgeUpgradeable",
  "sourceName": "contracts/BridgeUpgradeable.sol",
  "abi": [
    {
      "anonymous": false,
      "inputs": [
        {
          "indexed": false,
          "internalType": "uint8",
          "name": "destinationDomainID",
          "type": "uint8"
        },
        {
          "indexed": false,
          "internalType": "bytes32",
          "name": "resourceID",
          "type": "bytes32"
        },
        {
          "indexed": false,
          "internalType": "uint64",
          "name": "depositNonce",
          "type": "uint64"
        },
        {
          "indexed": true,
          "internalType": "address",
          "name": "user",
          "type": "address"
        },
        {
          "indexed": false,
          "internalType": "bytes",
          "name": "data",
          "type": "bytes"
        },
        {
          "indexed": false,
          "internalType": "bytes",
          "name": "handlerResponse",
          "type": "bytes"
        }
      ],
      "name": "Deposit",
      "type": "event"
    },
    {
      "anonymous": false,
      "inputs": [
        {
          "indexed": false,
          "internalType": "bytes",
          "name": "lowLevelData",
          "type": "bytes"
        }
      ],
      "name": "FailedHandlerExecution",
      "type": "event"
    },
    {
      "anonymous": false,
      "inputs": [
        {
          "indexed": false,
          "internalType": "address",
          "name": "account",
          "type": "address"
        }
      ],
      "name": "Paused",
      "type": "event"
    },
    {
      "anonymous": false,
      "inputs": [
        {
          "indexed": false,
          "internalType": "uint8",
          "name": "originDomainID",
          "type": "uint8"
        },
        {
          "indexed": false,
          "internalType": "uint64",
          "name": "depositNonce",
          "type": "uint64"
        },
        {
          "indexed": false,
          "internalType": "enum BridgeUpgradeable.ProposalStatus",
          "name": "status",
          "type": "uint8"
        },
        {
          "indexed": false,
          "internalType": "bytes32",
          "name": "dataHash",
          "type": "bytes32"
        }
      ],
      "name": "ProposalEvent",
      "type": "event"
    },
    {
      "anonymous": false,
      "inputs": [
        {
          "indexed": false,
          "internalType": "uint8",
          "name": "originDomainID",
          "type": "uint8"
        },
        {
          "indexed": false,
          "internalType": "uint64",
          "name": "depositNonce",
          "type": "uint64"
        },
        {
          "indexed": false,
          "internalType": "enum BridgeUpgradeable.ProposalStatus",
          "name": "status",
          "type": "uint8"
        },
        {
          "indexed": false,
          "internalType": "bytes32",
          "name": "dataHash",
          "type": "bytes32"
        }
      ],
      "name": "ProposalVote",
      "type": "event"
    },
    {
      "anonymous": false,
      "inputs": [
        {
          "indexed": false,
          "internalType": "address",
          "name": "relayer",
          "type": "address"
        }
      ],
      "name": "RelayerAdded",
      "type": "event"
    },
    {
      "anonymous": false,
      "inputs": [
        {
          "indexed": false,
          "internalType": "address",
          "name": "relayer",
          "type": "address"
        }
      ],
      "name": "RelayerRemoved",
      "type": "event"
    },
    {
      "anonymous": false,
      "inputs": [
        {
          "indexed": false,
          "internalType": "uint256",
          "name": "newThreshold",
          "type": "uint256"
        }
      ],
      "name": "RelayerThresholdChanged",
      "type": "event"
    },
    {
      "anonymous": false,
      "inputs": [
        {
          "indexed": true,
          "internalType": "bytes32",
          "name": "role",
          "type": "bytes32"
        },
        {
          "indexed": true,
          "internalType": "address",
          "name": "account",
          "type": "address"
        },
        {
          "indexed": true,
          "internalType": "address",
          "name": "sender",
          "type": "address"
        }
      ],
      "name": "RoleGranted",
      "type": "event"
    },
    {
      "anonymous": false,
      "inputs": [
        {
          "indexed": true,
          "internalType": "bytes32",
          "name": "role",
          "type": "bytes32"
        },
        {
          "indexed": true,
          "internalType": "address",
          "name": "account",
          "type": "address"
        },
        {
          "indexed": true,
          "internalType": "address",
          "name": "sender",
          "type": "address"
        }
      ],
      "name": "RoleRevoked",
      "type": "event"
    },
    {
      "anonymous": false,
      "inputs": [
        {
          "indexed": false,
          "internalType": "address",
          "name": "account",
          "type": "address"
        }
      ],
      "name": "Unpaused",
      "type": "event"
    },
    {
      "inputs": [],
      "name": "DEFAULT_ADMIN_ROLE",
      "outputs": [
        {
          "internalType": "bytes32",
          "name": "",
          "type": "bytes32"
        }
      ],
      "stateMutability": "view",
      "type": "function"
    },
    {
      "inputs": [],
      "name": "MAX_RELAYERS",
      "outputs": [
        {
          "internalType": "uint256",
          "name": "",
          "type": "uint256"
        }
      ],
      "stateMutability": "view",
      "type": "function"
    },
    {
      "inputs": [],
      "name": "PERMIT_TYPEHASH",
      "outputs": [
        {
          "internalType": "bytes32",
          "name": "",
          "type": "bytes32"
        }
      ],
      "stateMutability": "view",
      "type": "function"
    },
    {
      "inputs": [],
      "name": "RELAYER_ROLE",
      "outputs": [
        {
          "internalType": "bytes32",
          "name": "",
          "type": "bytes32"
        }
      ],
      "stateMutability": "view",
      "type": "function"
    },
    {
      "inputs": [
        {
          "internalType": "uint8",
          "name": "",
          "type": "uint8"
        }
      ],
      "name": "_depositCounts",
      "outputs": [
        {
          "internalType": "uint64",
          "name": "",
          "type": "uint64"
        }
      ],
      "stateMutability": "view",
      "type": "function"
    },
    {
      "inputs": [],
      "name": "_domainID",
      "outputs": [
        {
          "internalType": "uint8",
          "name": "",
          "type": "uint8"
        }
      ],
      "stateMutability": "view",
      "type": "function"
    },
    {
      "inputs": [],
      "name": "_expiry",
      "outputs": [
        {
          "internalType": "uint40",
          "name": "",
          "type": "uint40"
        }
      ],
      "stateMutability": "view",
      "type": "function"
    },
    {
      "inputs": [],
      "name": "_fee",
      "outputs": [
        {
          "internalType": "uint128",
          "name": "",
          "type": "uint128"
        }
      ],
      "stateMutability": "view",
      "type": "function"
    },
    {
      "inputs": [
        {
          "internalType": "uint72",
          "name": "destNonce",
          "type": "uint72"
        },
        {
          "internalType": "bytes32",
          "name": "dataHash",
          "type": "bytes32"
        },
        {
          "internalType": "address",
          "name": "relayer",
          "type": "address"
        }
      ],
      "name": "_hasVotedOnProposal",
      "outputs": [
        {
          "internalType": "bool",
          "name": "",
          "type": "bool"
        }
      ],
      "stateMutability": "view",
      "type": "function"
    },
    {
      "inputs": [],
      "name": "_relayerThreshold",
      "outputs": [
        {
          "internalType": "uint8",
          "name": "",
          "type": "uint8"
        }
      ],
      "stateMutability": "view",
      "type": "function"
    },
    {
      "inputs": [
        {
          "internalType": "bytes32",
          "name": "",
          "type": "bytes32"
        }
      ],
      "name": "_resourceIDToHandlerAddress",
      "outputs": [
        {
          "internalType": "address",
          "name": "",
          "type": "address"
        }
      ],
      "stateMutability": "view",
      "type": "function"
    },
    {
      "inputs": [
        {
          "internalType": "uint8",
          "name": "",
          "type": "uint8"
        }
      ],
      "name": "_specialFee",
      "outputs": [
        {
          "internalType": "uint256",
          "name": "",
          "type": "uint256"
        }
      ],
      "stateMutability": "view",
      "type": "function"
    },
    {
      "inputs": [],
      "name": "_totalRelayers",
      "outputs": [
        {
          "internalType": "uint256",
          "name": "",
          "type": "uint256"
        }
      ],
      "stateMutability": "view",
      "type": "function"
    },
    {
      "inputs": [
        {
          "internalType": "address",
          "name": "relayerAddress",
          "type": "address"
        }
      ],
      "name": "adminAddRelayer",
      "outputs": [],
      "stateMutability": "nonpayable",
      "type": "function"
    },
    {
      "inputs": [
        {
          "internalType": "uint256",
          "name": "expiry",
          "type": "uint256"
        }
      ],
      "name": "adminChangeExpiry",
      "outputs": [],
      "stateMutability": "nonpayable",
      "type": "function"
    },
    {
      "inputs": [
        {
          "internalType": "uint256",
          "name": "newFee",
          "type": "uint256"
        }
      ],
      "name": "adminChangeFee",
      "outputs": [],
      "stateMutability": "nonpayable",
      "type": "function"
    },
    {
      "inputs": [
        {
          "internalType": "uint256",
          "name": "newThreshold",
          "type": "uint256"
        }
      ],
      "name": "adminChangeRelayerThreshold",
      "outputs": [],
      "stateMutability": "nonpayable",
      "type": "function"
    },
    {
      "inputs": [
        {
          "internalType": "uint256",
          "name": "newFee",
          "type": "uint256"
        },
        {
          "internalType": "uint8",
          "name": "chainID",
          "type": "uint8"
        }
      ],
      "name": "adminChangeSpecialFee",
      "outputs": [],
      "stateMutability": "nonpayable",
      "type": "function"
    },
    {
      "inputs": [],
      "name": "adminPauseTransfers",
      "outputs": [],
      "stateMutability": "nonpayable",
      "type": "function"
    },
    {
      "inputs": [
        {
          "internalType": "address",
          "name": "relayerAddress",
          "type": "address"
        }
      ],
      "name": "adminRemoveRelayer",
      "outputs": [],
      "stateMutability": "nonpayable",
      "type": "function"
    },
    {
      "inputs": [
        {
          "internalType": "address",
          "name": "handlerAddress",
          "type": "address"
        },
        {
          "internalType": "address",
          "name": "tokenAddress",
          "type": "address"
        }
      ],
      "name": "adminSetBurnable",
      "outputs": [],
      "stateMutability": "nonpayable",
      "type": "function"
    },
    {
      "inputs": [
        {
          "internalType": "uint8",
          "name": "domainID",
          "type": "uint8"
        },
        {
          "internalType": "uint64",
          "name": "nonce",
          "type": "uint64"
        }
      ],
      "name": "adminSetDepositNonce",
      "outputs": [],
      "stateMutability": "nonpayable",
      "type": "function"
    },
    {
      "inputs": [
        {
          "internalType": "address",
          "name": "forwarder",
          "type": "address"
        },
        {
          "internalType": "bool",
          "name": "valid",
          "type": "bool"
        }
      ],
      "name": "adminSetForwarder",
      "outputs": [],
      "stateMutability": "nonpayable",
      "type": "function"
    },
    {
      "inputs": [
        {
          "internalType": "address",
          "name": "handlerAddress",
          "type": "address"
        },
        {
          "internalType": "bytes32",
          "name": "resourceID",
          "type": "bytes32"
        },
        {
          "internalType": "address",
          "name": "contractAddress",
          "type": "address"
        },
        {
          "internalType": "bytes4",
          "name": "depositFunctionSig",
          "type": "bytes4"
        },
        {
          "internalType": "uint256",
          "name": "depositFunctionDepositerOffset",
          "type": "uint256"
        },
        {
          "internalType": "bytes4",
          "name": "executeFunctionSig",
          "type": "bytes4"
        }
      ],
      "name": "adminSetGenericResource",
      "outputs": [],
      "stateMutability": "nonpayable",
      "type": "function"
    },
    {
      "inputs": [
        {
          "internalType": "address",
          "name": "handlerAddress",
          "type": "address"
        },
        {
          "internalType": "bytes32",
          "name": "resourceID",
          "type": "bytes32"
        },
        {
          "internalType": "address",
          "name": "tokenAddress",
          "type": "address"
        }
      ],
      "name": "adminSetResource",
      "outputs": [],
      "stateMutability": "nonpayable",
      "type": "function"
    },
    {
      "inputs": [],
      "name": "adminUnpauseTransfers",
      "outputs": [],
      "stateMutability": "nonpayable",
      "type": "function"
    },
    {
      "inputs": [
        {
          "internalType": "address",
          "name": "handlerAddress",
          "type": "address"
        },
        {
          "internalType": "bytes",
          "name": "data",
          "type": "bytes"
        }
      ],
      "name": "adminWithdraw",
      "outputs": [],
      "stateMutability": "nonpayable",
      "type": "function"
    },
    {
      "inputs": [
        {
          "internalType": "uint8",
          "name": "domainID",
          "type": "uint8"
        },
        {
          "internalType": "uint64",
          "name": "depositNonce",
          "type": "uint64"
        },
        {
          "internalType": "bytes32",
          "name": "dataHash",
          "type": "bytes32"
        }
      ],
      "name": "cancelProposal",
      "outputs": [],
      "stateMutability": "nonpayable",
      "type": "function"
    },
    {
      "inputs": [
        {
          "internalType": "uint8",
          "name": "destinationDomainID",
          "type": "uint8"
        },
        {
          "internalType": "bytes32",
          "name": "resourceID",
          "type": "bytes32"
        },
        {
          "internalType": "bytes",
          "name": "data",
          "type": "bytes"
        }
      ],
      "name": "deposit",
      "outputs": [],
      "stateMutability": "payable",
      "type": "function"
    },
    {
      "inputs": [
        {
          "internalType": "uint8",
          "name": "destinationDomainID",
          "type": "uint8"
        },
        {
          "internalType": "bytes32",
          "name": "resourceID",
          "type": "bytes32"
        },
        {
          "internalType": "bytes",
          "name": "data",
          "type": "bytes"
        }
      ],
      "name": "depositETH",
      "outputs": [],
      "stateMutability": "payable",
      "type": "function"
    },
    {
      "inputs": [
        {
          "internalType": "uint8",
          "name": "domainID",
          "type": "uint8"
        },
        {
          "internalType": "uint64",
          "name": "depositNonce",
          "type": "uint64"
        },
        {
          "internalType": "bytes",
          "name": "data",
          "type": "bytes"
        },
        {
          "internalType": "bytes32",
          "name": "resourceID",
          "type": "bytes32"
        },
        {
          "internalType": "bool",
          "name": "revertOnFail",
          "type": "bool"
        }
      ],
      "name": "executeProposal",
      "outputs": [],
      "stateMutability": "nonpayable",
      "type": "function"
    },
    {
      "inputs": [
        {
          "internalType": "uint8",
          "name": "destinationDomainID",
          "type": "uint8"
        }
      ],
      "name": "getFee",
      "outputs": [
        {
          "internalType": "uint256",
          "name": "",
          "type": "uint256"
        }
      ],
      "stateMutability": "view",
      "type": "function"
    },
    {
      "inputs": [
        {
          "internalType": "uint8",
          "name": "originDomainID",
          "type": "uint8"
        },
        {
          "internalType": "uint64",
          "name": "depositNonce",
          "type": "uint64"
        },
        {
          "internalType": "bytes32",
          "name": "dataHash",
          "type": "bytes32"
        }
      ],
      "name": "getProposal",
      "outputs": [
        {
          "components": [
            {
              "internalType": "enum BridgeUpgradeable.ProposalStatus",
              "name": "_status",
              "type": "uint8"
            },
            {
              "internalType": "uint200",
              "name": "_yesVotes",
              "type": "uint200"
            },
            {
              "internalType": "uint8",
              "name": "_yesVotesTotal",
              "type": "uint8"
            },
            {
              "internalType": "uint40",
              "name": "_proposedBlock",
              "type": "uint40"
            }
          ],
          "internalType": "struct BridgeUpgradeable.Proposal",
          "name": "",
          "type": "tuple"
        }
      ],
      "stateMutability": "view",
      "type": "function"
    },
    {
      "inputs": [
        {
          "internalType": "bytes32",
          "name": "role",
          "type": "bytes32"
        }
      ],
      "name": "getRoleAdmin",
      "outputs": [
        {
          "internalType": "bytes32",
          "name": "",
          "type": "bytes32"
        }
      ],
      "stateMutability": "view",
      "type": "function"
    },
    {
      "inputs": [
        {
          "internalType": "bytes32",
          "name": "role",
          "type": "bytes32"
        },
        {
          "internalType": "uint256",
          "name": "index",
          "type": "uint256"
        }
      ],
      "name": "getRoleMember",
      "outputs": [
        {
          "internalType": "address",
          "name": "",
          "type": "address"
        }
      ],
      "stateMutability": "view",
      "type": "function"
    },
    {
      "inputs": [
        {
          "internalType": "bytes32",
          "name": "role",
          "type": "bytes32"
        }
      ],
      "name": "getRoleMemberCount",
      "outputs": [
        {
          "internalType": "uint256",
          "name": "",
          "type": "uint256"
        }
      ],
      "stateMutability": "view",
      "type": "function"
    },
    {
      "inputs": [
        {
          "internalType": "bytes32",
          "name": "role",
          "type": "bytes32"
        },
        {
          "internalType": "address",
          "name": "account",
          "type": "address"
        }
      ],
      "name": "getRoleMemberIndex",
      "outputs": [
        {
          "internalType": "uint256",
          "name": "",
          "type": "uint256"
        }
      ],
      "stateMutability": "view",
      "type": "function"
    },
    {
      "inputs": [
        {
          "internalType": "bytes32",
          "name": "role",
          "type": "bytes32"
        },
        {
          "internalType": "address",
          "name": "account",
          "type": "address"
        }
      ],
      "name": "grantRole",
      "outputs": [],
      "stateMutability": "nonpayable",
      "type": "function"
    },
    {
      "inputs": [
        {
          "internalType": "bytes32",
          "name": "role",
          "type": "bytes32"
        },
        {
          "internalType": "address",
          "name": "account",
          "type": "address"
        }
      ],
      "name": "hasRole",
      "outputs": [
        {
          "internalType": "bool",
          "name": "",
          "type": "bool"
        }
      ],
      "stateMutability": "view",
      "type": "function"
    },
    {
      "inputs": [
        {
          "internalType": "uint8",
          "name": "domainID",
          "type": "uint8"
        },
        {
          "internalType": "address[]",
          "name": "initialRelayers",
          "type": "address[]"
        },
        {
          "internalType": "uint256",
          "name": "initialRelayerThreshold",
          "type": "uint256"
        },
        {
          "internalType": "uint256",
          "name": "fee",
          "type": "uint256"
        },
        {
          "internalType": "uint256",
          "name": "expiry",
          "type": "uint256"
        },
        {
          "internalType": "bytes32",
          "name": "_ETHresourceID",
          "type": "bytes32"
        },
        {
          "internalType": "address",
          "name": "_WETH",
          "type": "address"
        }
      ],
      "name": "initialize",
      "outputs": [],
      "stateMutability": "nonpayable",
      "type": "function"
    },
    {
      "inputs": [
        {
          "internalType": "address",
          "name": "relayer",
          "type": "address"
        }
      ],
      "name": "isRelayer",
      "outputs": [
        {
          "internalType": "bool",
          "name": "",
          "type": "bool"
        }
      ],
      "stateMutability": "view",
      "type": "function"
    },
    {
      "inputs": [
        {
          "internalType": "address",
          "name": "",
          "type": "address"
        }
      ],
      "name": "isValidForwarder",
      "outputs": [
        {
          "internalType": "bool",
          "name": "",
          "type": "bool"
        }
      ],
      "stateMutability": "view",
      "type": "function"
    },
    {
      "inputs": [],
      "name": "paused",
      "outputs": [
        {
          "internalType": "bool",
          "name": "",
          "type": "bool"
        }
      ],
      "stateMutability": "view",
      "type": "function"
    },
    {
      "inputs": [
        {
          "internalType": "address",
          "name": "newAdmin",
          "type": "address"
        }
      ],
      "name": "renounceAdmin",
      "outputs": [],
      "stateMutability": "nonpayable",
      "type": "function"
    },
    {
      "inputs": [
        {
          "internalType": "bytes32",
          "name": "role",
          "type": "bytes32"
        },
        {
          "internalType": "address",
          "name": "account",
          "type": "address"
        }
      ],
      "name": "renounceRole",
      "outputs": [],
      "stateMutability": "nonpayable",
      "type": "function"
    },
    {
      "inputs": [
        {
          "internalType": "bytes32",
          "name": "role",
          "type": "bytes32"
        },
        {
          "internalType": "address",
          "name": "account",
          "type": "address"
        }
      ],
      "name": "revokeRole",
      "outputs": [],
      "stateMutability": "nonpayable",
      "type": "function"
    },
    {
      "inputs": [
        {
          "internalType": "address payable[]",
          "name": "addrs",
          "type": "address[]"
        },
        {
          "internalType": "uint256[]",
          "name": "amounts",
          "type": "uint256[]"
        }
      ],
      "name": "transferFunds",
      "outputs": [],
      "stateMutability": "nonpayable",
      "type": "function"
    },
    {
      "inputs": [
        {
          "internalType": "uint8",
          "name": "domainID",
          "type": "uint8"
        },
        {
          "internalType": "uint64",
          "name": "depositNonce",
          "type": "uint64"
        },
        {
          "internalType": "bytes32",
          "name": "resourceID",
          "type": "bytes32"
        },
        {
          "internalType": "bytes",
          "name": "data",
          "type": "bytes"
        }
      ],
      "name": "voteProposal",
      "outputs": [],
      "stateMutability": "nonpayable",
      "type": "function"
    },
    {
      "inputs": [
        {
          "internalType": "uint8",
          "name": "domainID",
          "type": "uint8"
        },
        {
          "internalType": "uint64",
          "name": "depositNonce",
          "type": "uint64"
        },
        {
          "internalType": "bytes32",
          "name": "resourceID",
          "type": "bytes32"
        },
        {
          "internalType": "bytes",
          "name": "data",
          "type": "bytes"
        },
        {
          "internalType": "uint256",
          "name": "deadline",
          "type": "uint256"
        },
        {
          "internalType": "bytes[]",
          "name": "signatures",
          "type": "bytes[]"
        }
      ],
      "name": "voteProposals",
      "outputs": [],
      "stateMutability": "nonpayable",
      "type": "function"
    }
  ],
  "bytecode": "0x608060405234801561001057600080fd5b5061488d806100206000396000f3fe6080604052600436106102ae5760003560e01c80638c0c263111610175578063c5b37c22116100dc578063d15ef64e11610095578063edc20c3c1161006f578063edc20c3c1461093e578063f179637c1461095e578063f8c39e4414610971578063ffaac0eb146109a157600080fd5b8063d15ef64e146108df578063d547741f146108ff578063d7a9cd791461091f57600080fd5b8063c5b37c22146107e6578063c5ec897014610824578063c6a3d5e31461085f578063ca15c8731461087f578063cb10f2151461089f578063cdb0f73a146108bf57600080fd5b80639dd694f41161012e5780639dd694f4146107235780639debb3bd1461074f578063a217fddf14610764578063a9cf69fa14610779578063bd2a1820146107a6578063c0331b3e146107c657600080fd5b80638c0c2631146106615780639010d07c1461068157806391c404ac146106a157806391d14854146106c1578063926d7d7f146106e15780639d82dd631461070357600080fd5b80634e0560051161021957806369a8c246116101d257806369a8c246146105895780637d026d96146105a95780637febe63f146105c9578063802aabe8146105e957806380ae1c28146105fe57806384db809f1461061357600080fd5b80634e0560051461049a5780634e0df3f6146104ba578063541d5548146105015780635a1ad87c146105315780635c975abb146105515780635e1fab0f1461056957600080fd5b8063248a9ca31161026b578063248a9ca3146103885780632f2ff15d146103b857806330adf81f146103d857806336568abe1461040c5780634603ae381461042c5780634b0b919d1461044c57600080fd5b806302dbcbb4146102b357806305e2ca17146102d5578063083132c4146102e857806317f03ce51461031b5780631a5ae9ad1461033b578063206a98fd14610368575b600080fd5b3480156102bf57600080fd5b506102d36102ce366004613cc9565b6109b6565b005b6102d36102e3366004613ddc565b6110da565b3480156102f457600080fd5b50610308610303366004613e35565b6112c7565b6040519081526020015b60405180910390f35b34801561032757600080fd5b506102d3610336366004613e50565b6112d8565b34801561034757600080fd5b50610308610356366004613e35565b60696020526000908152604090205481565b34801561037457600080fd5b506102d3610383366004613e9c565b611569565b34801561039457600080fd5b506103086103a3366004613f18565b60009081526067602052604090206002015490565b3480156103c457600080fd5b506102d36103d3366004613f51565b6117ef565b3480156103e457600080fd5b506103087f2d4bf2f549618aef3da754fb1db8d08f4e7fca928c58fa22476f387e7fa3aabe81565b34801561041857600080fd5b506102d3610427366004613f51565b61187f565b34801561043857600080fd5b506102d3610447366004613fc5565b611909565b34801561045857600080fd5b50610482610467366004613e35565b606c602052600090815260409020546001600160401b031681565b6040516001600160401b039091168152602001610312565b3480156104a657600080fd5b506102d36104b5366004613f18565b6119ad565b3480156104c657600080fd5b506103086104d5366004613f51565b60008281526067602090815260408083206001600160a01b038516845260010190915290205492915050565b34801561050d57600080fd5b5061052161051c366004614024565b611a10565b6040519015158152602001610312565b34801561053d57600080fd5b506102d361054c366004614059565b611a2a565b34801561055d57600080fd5b5060355460ff16610521565b34801561057557600080fd5b506102d3610584366004614024565b611ad3565b34801561059557600080fd5b506102d36105a43660046140b7565b611b5f565b3480156105b557600080fd5b506102d36105c4366004613f18565b611bf1565b3480156105d557600080fd5b506105216105e43660046140e3565b611c27565b3480156105f557600080fd5b50610308611ccb565b34801561060a57600080fd5b506102d3611ce9565b34801561061f57600080fd5b5061064961062e366004613f18565b606d602052600090815260409020546001600160a01b031681565b6040516001600160a01b039091168152602001610312565b34801561066d57600080fd5b506102d361067c366004614131565b611d03565b34801561068d57600080fd5b5061064961069c36600461415f565b611d66565b3480156106ad57600080fd5b506102d36106bc366004613f18565b611d85565b3480156106cd57600080fd5b506105216106dc366004613f51565b611e20565b3480156106ed57600080fd5b5061030860008051602061483883398151915281565b34801561070f57600080fd5b506102d361071e366004614024565b611e38565b34801561072f57600080fd5b5060685461073d9060ff1681565b60405160ff9091168152602001610312565b34801561075b57600080fd5b5061030860c881565b34801561077057600080fd5b50610308600081565b34801561078557600080fd5b50610799610794366004613e50565b611eed565b60405161031291906141b9565b3480156107b257600080fd5b506102d36107c1366004614202565b611fbb565b3480156107d257600080fd5b506102d36107e1366004614251565b611ff1565b3480156107f257600080fd5b5060685461080c906201000090046001600160801b031681565b6040516001600160801b039091168152602001610312565b34801561083057600080fd5b5060685461084990600160901b900464ffffffffff1681565b60405164ffffffffff9091168152602001610312565b34801561086b57600080fd5b506102d361087a3660046142bf565b6125b6565b34801561088b57600080fd5b5061030861089a366004613f18565b6127d6565b3480156108ab57600080fd5b506102d36108ba3660046143a0565b6127ed565b3480156108cb57600080fd5b506102d36108da366004614024565b612877565b3480156108eb57600080fd5b506102d36108fa3660046143c0565b61297d565b34801561090b57600080fd5b506102d361091a366004613f51565b6129b0565b34801561092b57600080fd5b5060685461073d90610100900460ff1681565b34801561094a57600080fd5b506102d36109593660046143ec565b612a33565b6102d361096c366004613ddc565b612aec565b34801561097d57600080fd5b5061052161098c366004614024565b606e6020526000908152604090205460ff1681565b3480156109ad57600080fd5b506102d3612df6565b6109be612e0e565b6000858152606d602090815260408083205490516001600160a01b039091169268ffffffffffffffff0060088b901b1660ff8c1617929091610a069185918a918a9101614416565b60408051601f1981840301815282825280516020918201206001600160481b0386166000908152606f835283812082825290925282822060808501909352825490945090929190829060ff166004811115610a6357610a63614181565b6004811115610a7457610a74614181565b8152905461010081046001600160c81b03166020830152600160d01b810460ff166040830152600160d81b900464ffffffffff16606090910152905042861015610af05760405162461bcd60e51b8152602060048201526008602482015267657870697265642160c01b60448201526064015b60405180910390fd5b6000898152606d60205260409020546001600160a01b0316610b505760405162461bcd60e51b81526020600482015260196024820152781b9bc81a185b991b195c88199bdc881c995cdbdd5c98d95251603a1b6044820152606401610ae7565b60005b8551811015610ef657600282516004811115610b7157610b71614181565b1415610b9057610b868c8c8b8b8e6001611569565b50505050506110d1565b60007f2d4bf2f549618aef3da754fb1db8d08f4e7fca928c58fa22476f387e7fa3aabe8d8d8d8d8d8d604051602001610bcf979695949392919061446b565b6040516020818303038152906040528051906020012090506000610bf282612e54565b90506000610c19828a8681518110610c0c57610c0c6144b7565b6020026020010151612ea2565b9050610c3360008051602061483883398151915282611e20565b610c7f5760405162461bcd60e51b815260206004820181905260248201527f73656e64657220646f65736e277420686176652072656c6179657220726f6c656044820152606401610ae7565b84516001906004811115610c9557610c95614181565b1115610cb35760405162461bcd60e51b8152600401610ae7906144cd565b610cbd8582612ec6565b15610d025760405162461bcd60e51b81526020600482015260156024820152741c995b185e595c88185b1c9958591e481d9bdd1959605a1b6044820152606401610ae7565b600085516004811115610d1757610d17614181565b1415610d88576040805160808101909152806001815260200160006001600160c81b03168152602001600060ff1681526020014364ffffffffff1681525094506000805160206148188339815191528f8f600189604051610d7b9493929190614510565b60405180910390a1610def565b606854606086015164ffffffffff600160901b909204821691610dad91439116612ee9565b64ffffffffff161115610def5760048581815250506000805160206148188339815191528f8f600489604051610de69493929190614510565b60405180910390a15b600485516004811115610e0457610e04614181565b14610ee057610e29610e1582612f2b565b86602001516001600160c81b031617612f78565b6001600160c81b0316602086015260408501805190610e478261455b565b60ff1660ff16815250507f25f8daaa4635a7729927ba3f5b3d59cc3320aca7c32c9db4e7ca7b95743436408f8f876000015189604051610e8a9493929190614510565b60405180910390a1606854604086015160ff6101009092048216911610610ee05760028581815250506000805160206148188339815191528f8f600289604051610ed79493929190614510565b60405180910390a15b5050508080610eee9061457b565b915050610b53565b506001600160481b0383166000908152606f6020908152604080832085845290915290208151815483929190829060ff19166001836004811115610f3c57610f3c614181565b021790555060208201518154604084015160609094015164ffffffffff16600160d81b026001600160d81b0360ff909516600160d01b0260ff60d01b196001600160c81b039094166101000293909316610100600160d81b0319909216919091179190911792909216919091179055600281516004811115610fc057610fc0614181565b14156110cc5760405163712467f960e11b815284906001600160a01b0382169063e248cff290610ff8908d908d908d90600401614596565b600060405180830381600087803b15801561101257600080fd5b505af1925050508015611023575060015b61109e573d808015611051576040519150601f19603f3d011682016040523d82523d6000602084013e611056565b606091505b50600283526040517fbd37c1f0d53bb2f33fe4c2104de272fcdeb4d2fef3acdbf1e4ddc3d6833ca3769061108b90839061460c565b60405180910390a15050505050506110d1565b6000805160206148188339815191528c8c6003866040516110c29493929190614510565b60405180910390a1505b505050505b50505050505050565b6110e2612e0e565b6110eb84612fd1565b34146111325760405162461bcd60e51b8152602060048201526016602482015275125b98dbdc9c9958dd08199959481cdd5c1c1b1a595960521b6044820152606401610ae7565b6000838152606d60205260409020546001600160a01b0316806111975760405162461bcd60e51b815260206004820181905260248201527f7265736f757263654944206e6f74206d617070656420746f2068616e646c65726044820152606401610ae7565b60ff85166000908152606c60205260408120805482906111bf906001600160401b031661461f565b91906101000a8154816001600160401b0302191690836001600160401b031602179055905060006111ee613009565b60405163b07e54bb60e01b815290915083906000906001600160a01b0383169063b07e54bb90611228908b9087908c908c90600401614646565b6000604051808303816000875af1158015611247573d6000803e3d6000fd5b505050506040513d6000823e601f3d908101601f1916820160405261126f919081019061467b565b9050826001600160a01b03167f17bc3181e17a9620a479c24e6c606e474ba84fc036877b768926872e8cd0e11f8a8a878b8b876040516112b4969594939291906146e8565b60405180910390a2505050505050505050565b60006112d282612fd1565b92915050565b6112e061304a565b60ff838116600884901b68ffffffffffffffff0016176000818152606f6020908152604080832086845290915280822081516080810190925280549394929391929091839116600481111561133757611337614181565b600481111561134857611348614181565b8152905461010081046001600160c81b03166020830152600160d01b810460ff166040830152600160d81b900464ffffffffff166060909101528051909150600181600481111561139b5761139b614181565b14806113b8575060028160048111156113b6576113b6614181565b145b6114045760405162461bcd60e51b815260206004820152601c60248201527f50726f706f73616c2063616e6e6f742062652063616e63656c6c6564000000006044820152606401610ae7565b606854606083015164ffffffffff600160901b90920482169161142991439116612ee9565b64ffffffffff161161147d5760405162461bcd60e51b815260206004820181905260248201527f50726f706f73616c206e6f7420617420657870697279207468726573686f6c646044820152606401610ae7565b60048083526001600160481b0384166000908152606f602090815260408083208884529091529020835181548593839160ff19169060019084908111156114c6576114c6614181565b02179055506020820151815460408085015160609095015164ffffffffff16600160d81b026001600160d81b0360ff909616600160d01b0260ff60d01b196001600160c81b039095166101000294909416610100600160d81b0319909316929092179290921793909316929092179055516000805160206148188339815191529061155990889088906004908990614510565b60405180910390a1505050505050565b6115716130ce565b611579612e0e565b6000828152606d602090815260408083205490516001600160a01b039091169268ffffffffffffffff0060088a901b1660ff8b16179290916115c19185918a918a9101614416565b60408051601f1981840301815291815281516020928301206001600160481b0385166000908152606f845282812082825290935291209091506002815460ff16600481111561161257611612614181565b1461165f5760405162461bcd60e51b815260206004820181905260248201527f50726f706f73616c206d757374206861766520506173736564207374617475736044820152606401610ae7565b805460ff191660031781558385156116d85760405163712467f960e11b81526001600160a01b0382169063e248cff2906116a1908a908d908d90600401614596565b600060405180830381600087803b1580156116bb57600080fd5b505af11580156116cf573d6000803e3d6000fd5b505050506117b5565b60405163712467f960e11b81526001600160a01b0382169063e248cff290611708908a908d908d90600401614596565b600060405180830381600087803b15801561172257600080fd5b505af1925050508015611733575060015b6117b5573d808015611761576040519150601f19603f3d011682016040523d82523d6000602084013e611766565b606091505b50825460ff191660021783556040517fbd37c1f0d53bb2f33fe4c2104de272fcdeb4d2fef3acdbf1e4ddc3d6833ca376906117a290839061460c565b60405180910390a15050505050506117e7565b6000805160206148188339815191528b8b6003866040516117d99493929190614510565b60405180910390a150505050505b505050505050565b60008281526067602052604090206002015461180d906106dc613009565b6118715760405162461bcd60e51b815260206004820152602f60248201527f416363657373436f6e74726f6c3a2073656e646572206d75737420626520616e60448201526e0818591b5a5b881d1bc819dc985b9d608a1b6064820152608401610ae7565b61187b8282613134565b5050565b611887613009565b6001600160a01b0316816001600160a01b0316146118ff5760405162461bcd60e51b815260206004820152602f60248201527f416363657373436f6e74726f6c3a2063616e206f6e6c792072656e6f756e636560448201526e103937b632b9903337b91039b2b63360891b6064820152608401610ae7565b61187b828261319d565b611911613206565b60005b838110156119a65784848281811061192e5761192e6144b7565b90506020020160208101906119439190614024565b6001600160a01b03166108fc848484818110611961576119616144b7565b905060200201359081150290604051600060405180830381858888f19350505050158015611993573d6000803e3d6000fd5b508061199e8161457b565b915050611914565b5050505050565b6119b5613206565b6119be8161325f565b6068805460ff929092166101000261ff00199092169190911790556040518181527fa20d6b84cd798a24038be305eff8a45ca82ef54a2aa2082005d8e14c0a4746c8906020015b60405180910390a150565b60006112d260008051602061483883398151915283611e20565b611a32613206565b6000858152606d60205260409081902080546001600160a01b0319166001600160a01b03898116918217909255915163de319d9960e01b81526004810188905290861660248201526001600160e01b03198086166044830152606482018590528316608482015287919063de319d999060a401600060405180830381600087803b158015611abf57600080fd5b505af11580156110cc573d6000803e3d6000fd5b611adb613206565b6000611ae5613009565b9050816001600160a01b0316816001600160a01b03161415611b495760405162461bcd60e51b815260206004820152601760248201527f43616e6e6f742072656e6f756e6365206f6e6573656c660000000000000000006044820152606401610ae7565b611b546000836117ef565b61187b60008261187f565b611b67613206565b60ff811660009081526069602052604090205482811415611bdc5760405162461bcd60e51b815260206004820152602960248201527f43757272656e74207370656369616c2066656520657175616c7320746f20746860448201526865206e65772066656560b81b6064820152608401610ae7565b5060ff16600090815260696020526040902055565b611bf9613206565b611c02816132b2565b606860126101000a81548164ffffffffff021916908364ffffffffff16021790555050565b6001600160481b0383166000908152606f602090815260408083208584529091528082208151608081019092528054611cc3929190829060ff166004811115611c7257611c72614181565b6004811115611c8357611c83614181565b8152905461010081046001600160c81b03166020830152600160d01b810460ff166040830152600160d81b900464ffffffffff1660609091015283612ec6565b949350505050565b6000611ce46000805160206148388339815191526127d6565b905090565b611cf1613206565b611d01611cfc613009565b613309565b565b611d0b613206565b6040516307b7ed9960e01b81526001600160a01b0382811660048301528391908216906307b7ed99906024015b600060405180830381600087803b158015611d5257600080fd5b505af11580156110d1573d6000803e3d6000fd5b6000828152606760205260408120611d7e9083613357565b9392505050565b611d8d613206565b6068546201000090046001600160801b0316811415611dee5760405162461bcd60e51b815260206004820152601f60248201527f43757272656e742066656520697320657175616c20746f206e657720666565006044820152606401610ae7565b611df781613363565b606860026101000a8154816001600160801b0302191690836001600160801b0316021790555050565b6000828152606760205260408120611d7e90836133b8565b611e5060008051602061483883398151915282611e20565b611e9c5760405162461bcd60e51b815260206004820152601f60248201527f6164647220646f65736e277420686176652072656c6179657220726f6c6521006044820152606401610ae7565b611eb4600080516020614838833981519152826129b0565b6040516001600160a01b03821681527f10e1f7ce9fd7d1b90a66d13a2ab3cb8dd7f29f3f8d520b143b063ccfbab6906b90602001611a05565b60408051608081018252600080825260208201819052918101829052606081019190915260ff848116600885901b68ffffffffffffffff0016176000818152606f602090815260408083208784529091529081902081516080810190925280549293919290918391166004811115611f6757611f67614181565b6004811115611f7857611f78614181565b8152905461010081046001600160c81b03166020830152600160d01b810460ff166040830152600160d81b900464ffffffffff1660609091015295945050505050565b611fc3613206565b60405163025a3c9960e21b815282906001600160a01b03821690630968f26490611d3890859060040161460c565b611ff96130ce565b612001612e0e565b6000838152606d602090815260408083205490516001600160a01b039091169268ffffffffffffffff00600889901b1660ff8a16179290916120499185918891889101614416565b60408051601f1981840301815282825280516020918201206001600160481b0386166000908152606f835283812082825290925282822060808501909352825490945090929190829060ff1660048111156120a6576120a6614181565b60048111156120b7576120b7614181565b8152905461010081046001600160c81b0316602080840191909152600160d01b820460ff16604080850191909152600160d81b90920464ffffffffff1660609093019290925260008a8152606d9092529020549091506001600160a01b031661215e5760405162461bcd60e51b81526020600482015260196024820152781b9bc81a185b991b195c88199bdc881c995cdbdd5c98d95251603a1b6044820152606401610ae7565b60028151600481111561217357612173614181565b141561219157612188898988888b6001611569565b505050506119a6565b600061219b613009565b90506001826000015160048111156121b5576121b5614181565b11156121d35760405162461bcd60e51b8152600401610ae7906144cd565b6121dd8282612ec6565b156122225760405162461bcd60e51b81526020600482015260156024820152741c995b185e595c88185b1c9958591e481d9bdd1959605a1b6044820152606401610ae7565b60008251600481111561223757612237614181565b1415612297576040805160808101825260018082526000602083018190528284015264ffffffffff4316606083015291519093506000805160206148188339815191529161228a918d918d918890614510565b60405180910390a16122f9565b606854606083015164ffffffffff600160901b9092048216916122bc91439116612ee9565b64ffffffffff1611156122f9576004808352604051600080516020614818833981519152916122f0918d918d918890614510565b60405180910390a15b60048251600481111561230e5761230e614181565b146123de5761233361231f82612f2b565b83602001516001600160c81b031617612f78565b6001600160c81b03166020830152604082018051906123518261455b565b60ff1690525081516040517f25f8daaa4635a7729927ba3f5b3d59cc3320aca7c32c9db4e7ca7b95743436409161238d918d918d918890614510565b60405180910390a1606854604083015160ff61010090920482169116106123de576002808352604051600080516020614818833981519152916123d5918d918d918890614510565b60405180910390a15b6001600160481b0384166000908152606f6020908152604080832086845290915290208251815484929190829060ff1916600183600481111561242357612423614181565b021790555060208201518154604084015160609094015164ffffffffff16600160d81b026001600160d81b0360ff909516600160d01b0260ff60d01b196001600160c81b039094166101000293909316610100600160d81b03199092169190911791909117929092169190911790556002825160048111156124a7576124a7614181565b14156125aa5760405163712467f960e11b815285906001600160a01b0382169063e248cff2906124df908c908c908c90600401614596565b600060405180830381600087803b1580156124f957600080fd5b505af192505050801561250a575060015b612586573d808015612538576040519150601f19603f3d011682016040523d82523d6000602084013e61253d565b606091505b50600284526040517fbd37c1f0d53bb2f33fe4c2104de272fcdeb4d2fef3acdbf1e4ddc3d6833ca3769061257290839061460c565b60405180910390a1505050505050506119a6565b6000805160206148188339815191528b8b6003876040516117d99493929190614510565b50505050505050505050565b600054610100900460ff166125d15760005460ff16156125d5565b303b155b6125f15760405162461bcd60e51b8152600401610ae790614739565b600054610100900460ff16158015612613576000805461ffff19166101011790555b61261b6133da565b6126646040518060400160405280600c81526020016b5065726d697442726964676560a01b815250604051806040016040528060038152602001620312e360ec1b815250613453565b6068805460ff191660ff8a1617905561267c8661325f565b606860016101000a81548160ff021916908360ff16021790555061269f85613363565b606860026101000a8154816001600160801b0302191690836001600160801b031602179055506126ce846132b2565b6068805464ffffffffff92909216600160901b0264ffffffffff60901b199092169190911790556127076000612702613009565b611871565b60005b875181101561275657612744600080516020614838833981519152898381518110612737576127376144b7565b60200260200101516117ef565b8061274e8161457b565b91505061270a565b50606a8390556001600160a01b03821661279f5760405162461bcd60e51b815260206004820152600a6024820152690ae8aa89040d2e64060f60b31b6044820152606401610ae7565b606b80546001600160a01b0319166001600160a01b03841617905580156127cc576000805461ff00191690555b5050505050505050565b60008181526067602052604081206112d290613484565b6127f5613206565b6000828152606d60205260409081902080546001600160a01b0319166001600160a01b038681169182179092559151635c7d1b9b60e11b815260048101859052908316602482015284919063b8fa373690604401600060405180830381600087803b15801561286357600080fd5b505af11580156127cc573d6000803e3d6000fd5b61288f60008051602061483883398151915282611e20565b156128dc5760405162461bcd60e51b815260206004820152601e60248201527f6164647220616c7265616479206861732072656c6179657220726f6c652100006044820152606401610ae7565b60c86128e6611ccb565b1061292c5760405162461bcd60e51b81526020600482015260166024820152751c995b185e595c9cc81b1a5b5a5d081c995858da195960521b6044820152606401610ae7565b612944600080516020614838833981519152826117ef565b6040516001600160a01b03821681527f03580ee9f53a62b7cb409a2cb56f9be87747dd15017afc5cef6eef321e4fb2c590602001611a05565b612985613206565b6001600160a01b03919091166000908152606e60205260409020805460ff1916911515919091179055565b6000828152606760205260409020600201546129ce906106dc613009565b6118ff5760405162461bcd60e51b815260206004820152603060248201527f416363657373436f6e74726f6c3a2073656e646572206d75737420626520616e60448201526f2061646d696e20746f207265766f6b6560801b6064820152608401610ae7565b612a3b613206565b60ff82166000908152606c60205260409020546001600160401b0390811690821611612ab85760405162461bcd60e51b815260206004820152602660248201527f446f6573206e6f7420616c6c6f772064656372656d656e7473206f6620746865604482015265206e6f6e636560d01b6064820152608401610ae7565b60ff919091166000908152606c60205260409020805467ffffffffffffffff19166001600160401b03909216919091179055565b612af4612e0e565b6000612aff85612fd1565b9050803411612b495760405162461bcd60e51b8152602060048201526016602482015275125b98dbdc9c9958dd08199959481cdd5c1c1b1a595960521b6044820152606401610ae7565b606a546000908152606d60205260409020546001600160a01b031680612bb15760405162461bcd60e51b815260206004820181905260248201527f7265736f757263654944206e6f74206d617070656420746f2068616e646c65726044820152606401610ae7565b606a548514612bf85760405162461bcd60e51b81526020600482015260136024820152720e4cae6deeae4c6ca928840dcdee840ae8aa89606b1b6044820152606401610ae7565b6000612c048334614787565b9050608435808214612c585760405162461bcd60e51b815260206004820152601d60248201527f6d73672e76616c756520616e642064617461206d69736d6174636865640000006044820152606401610ae7565b606b60009054906101000a90046001600160a01b03166001600160a01b031663d0e30db0836040518263ffffffff1660e01b81526004016000604051808303818588803b158015612ca857600080fd5b505af1158015612cbc573d6000803e3d6000fd5b50505060ff8a166000908152606c60205260408120805491935091508290612cec906001600160401b031661461f565b91906101000a8154816001600160401b0302191690836001600160401b031602179055905060008490506000816001600160a01b031663b07e54bb606a54308c8c6040518563ffffffff1660e01b8152600401612d4c9493929190614646565b6000604051808303816000875af1158015612d6b573d6000803e3d6000fd5b505050506040513d6000823e601f3d908101601f19168201604052612d93919081019061467b565b9050612d9d613009565b6001600160a01b03167f17bc3181e17a9620a479c24e6c606e474ba84fc036877b768926872e8cd0e11f8c606a54868d8d87604051612de1969594939291906146e8565b60405180910390a25050505050505050505050565b612dfe613206565b611d01612e09613009565b61348e565b60355460ff1615611d015760405162461bcd60e51b815260206004820152601060248201526f14185d5cd8589b194e881c185d5cd95960821b6044820152606401610ae7565b60006112d2612e616134d9565b8360405161190160f01b6020820152602281018390526042810182905260009060620160405160208183030381529060405280519060200120905092915050565b6000806000612eb18585613554565b91509150612ebe816135c4565b509392505050565b60008083602001516001600160c81b0316612ee084612f2b565b16119392505050565b6000611d7e83836040518060400160405280601e81526020017f536166654d6174683a207375627472616374696f6e206f766572666c6f77000081525061377f565b6001600160a01b03811660009081527fabd3ffed9693673989a183f88c94cb820e3a0c7df2069601f5145140fa5300e36020526040812054612f6e906001612ee9565b6001901b92915050565b6000600160c81b8210612fcd5760405162461bcd60e51b815260206004820152601e60248201527f76616c756520646f6573206e6f742066697420696e20323030206269747300006044820152606401610ae7565b5090565b60ff81166000908152606960205260408120548015612ff05792915050565b50506068546201000090046001600160801b0316919050565b6000336014361080159061303557506001600160a01b0381166000908152606e602052604090205460ff165b15613045575060131936013560601c5b919050565b6000613054613009565b9050613061600082611e20565b8061307f575061307f60008051602061483883398151915282611e20565b6130cb5760405162461bcd60e51b815260206004820152601e60248201527f73656e646572206973206e6f742072656c61796572206f722061646d696e00006044820152606401610ae7565b50565b6130e86000805160206148388339815191526106dc613009565b611d015760405162461bcd60e51b815260206004820181905260248201527f73656e64657220646f65736e277420686176652072656c6179657220726f6c656044820152606401610ae7565b600082815260676020526040902061314c90826137b9565b1561187b57613159613009565b6001600160a01b0316816001600160a01b0316837f2f8788117e7eff1d82e926ec794901d17c78024a50270940304540a733656f0d60405160405180910390a45050565b60008281526067602052604090206131b590826137ce565b1561187b576131c2613009565b6001600160a01b0316816001600160a01b0316837ff6391f5c32d9c69d2a47ea670b442974b53935d1edc7fd64eb21e047a839171b60405160405180910390a45050565b61321360006106dc613009565b611d015760405162461bcd60e51b815260206004820152601e60248201527f73656e64657220646f65736e277420686176652061646d696e20726f6c6500006044820152606401610ae7565b60006101008210612fcd5760405162461bcd60e51b815260206004820152601c60248201527f76616c756520646f6573206e6f742066697420696e20382062697473000000006044820152606401610ae7565b6000650100000000008210612fcd5760405162461bcd60e51b815260206004820152601d60248201527f76616c756520646f6573206e6f742066697420696e20343020626974730000006044820152606401610ae7565b613311612e0e565b6035805460ff191660011790556040516001600160a01b03821681527f62e78cea01bee320cd4e420270b5ea74000d11b0c9f74754ebdbfc544b05a25890602001611a05565b6000611d7e83836137e3565b6000600160801b8210612fcd5760405162461bcd60e51b815260206004820152601e60248201527f76616c756520646f6573206e6f742066697420696e20313238206269747300006044820152606401610ae7565b6001600160a01b03811660009081526001830160205260408120541515611d7e565b600054610100900460ff166133f55760005460ff16156133f9565b303b155b6134155760405162461bcd60e51b8152600401610ae790614739565b600054610100900460ff16158015613437576000805461ffff19166101011790555b61343f61380d565b80156130cb576000805461ff001916905550565b600054610100900460ff1661347a5760405162461bcd60e51b8152600401610ae79061479e565b61187b8282613888565b60006112d2825490565b6134966138c9565b6035805460ff191690556040516001600160a01b03821681527f5db9ee0a495bf2e6ff9c91a7834c1ba4fdd244a5e8aa4e537bd38aeae4b073aa90602001611a05565b6000611ce47f8b73c3c69bb8fe3d512ecc4cf759cc79239f7b179b0ffacaa9a75d522b39400f61350860015490565b6002546040805160208101859052908101839052606081018290524660808201523060a082015260009060c0016040516020818303038152906040528051906020012090509392505050565b60008082516041141561358b5760208301516040840151606085015160001a61357f87828585613912565b945094505050506135bd565b8251604014156135b557602083015160408401516135aa8683836139ff565b9350935050506135bd565b506000905060025b9250929050565b60008160048111156135d8576135d8614181565b14156135e15750565b60018160048111156135f5576135f5614181565b14156136435760405162461bcd60e51b815260206004820152601860248201527f45434453413a20696e76616c6964207369676e617475726500000000000000006044820152606401610ae7565b600281600481111561365757613657614181565b14156136a55760405162461bcd60e51b815260206004820152601f60248201527f45434453413a20696e76616c6964207369676e6174757265206c656e677468006044820152606401610ae7565b60038160048111156136b9576136b9614181565b14156137125760405162461bcd60e51b815260206004820152602260248201527f45434453413a20696e76616c6964207369676e6174757265202773272076616c604482015261756560f01b6064820152608401610ae7565b600481600481111561372657613726614181565b14156130cb5760405162461bcd60e51b815260206004820152602260248201527f45434453413a20696e76616c6964207369676e6174757265202776272076616c604482015261756560f01b6064820152608401610ae7565b600081848411156137a35760405162461bcd60e51b8152600401610ae7919061460c565b5060006137b08486614787565b95945050505050565b6000611d7e836001600160a01b038416613a38565b6000611d7e836001600160a01b038416613a87565b60008260000182815481106137fa576137fa6144b7565b9060005260206000200154905092915050565b600054610100900460ff166138285760005460ff161561382c565b303b155b6138485760405162461bcd60e51b8152600401610ae790614739565b600054610100900460ff1615801561386a576000805461ffff19166101011790555b6035805460ff1916905580156130cb576000805461ff001916905550565b600054610100900460ff166138af5760405162461bcd60e51b8152600401610ae79061479e565b815160209283012081519190920120600191909155600255565b60355460ff16611d015760405162461bcd60e51b815260206004820152601460248201527314185d5cd8589b194e881b9bdd081c185d5cd95960621b6044820152606401610ae7565b6000807f7fffffffffffffffffffffffffffffff5d576e7357a4501ddfe92f46681b20a083111561394957506000905060036139f6565b8460ff16601b1415801561396157508460ff16601c14155b1561397257506000905060046139f6565b6040805160008082526020820180845289905260ff881692820192909252606081018690526080810185905260019060a0016020604051602081039080840390855afa1580156139c6573d6000803e3d6000fd5b5050604051601f1901519150506001600160a01b0381166139ef576000600192509250506139f6565b9150600090505b94509492505050565b6000806001600160ff1b03831681613a1c60ff86901c601b6147e9565b9050613a2a87828885613912565b935093505050935093915050565b6000818152600183016020526040812054613a7f575081546001818101845560008481526020808220909301849055845484825282860190935260409020919091556112d2565b5060006112d2565b60008181526001830160205260408120548015613b70576000613aab600183614787565b8554909150600090613abf90600190614787565b9050818114613b24576000866000018281548110613adf57613adf6144b7565b9060005260206000200154905080876000018481548110613b0257613b026144b7565b6000918252602080832090910192909255918252600188019052604090208390555b8554869080613b3557613b35614801565b6001900381819060005260206000200160009055905585600101600086815260200190815260200160002060009055600193505050506112d2565b60009150506112d2565b803560ff8116811461304557600080fd5b80356001600160401b038116811461304557600080fd5b60008083601f840112613bb457600080fd5b5081356001600160401b03811115613bcb57600080fd5b6020830191508360208285010111156135bd57600080fd5b634e487b7160e01b600052604160045260246000fd5b604051601f8201601f191681016001600160401b0381118282101715613c2157613c21613be3565b604052919050565b60006001600160401b03821115613c4257613c42613be3565b5060051b60200190565b60006001600160401b03821115613c6557613c65613be3565b50601f01601f191660200190565b600082601f830112613c8457600080fd5b8135613c97613c9282613c4c565b613bf9565b818152846020838601011115613cac57600080fd5b816020850160208301376000918101602001919091529392505050565b600080600080600080600060c0888a031215613ce457600080fd5b613ced88613b7a565b9650613cfb60208901613b8b565b95506040880135945060608801356001600160401b0380821115613d1e57600080fd5b613d2a8b838c01613ba2565b909650945060808a0135935060a08a0135915080821115613d4a57600080fd5b818a0191508a601f830112613d5e57600080fd5b8135613d6c613c9282613c29565b8082825260208201915060208360051b86010192508d831115613d8e57600080fd5b602085015b83811015613dc7578481351115613da957600080fd5b613db98f60208335890101613c73565b835260209283019201613d93565b50809550505050505092959891949750929550565b60008060008060608587031215613df257600080fd5b613dfb85613b7a565b93506020850135925060408501356001600160401b03811115613e1d57600080fd5b613e2987828801613ba2565b95989497509550505050565b600060208284031215613e4757600080fd5b611d7e82613b7a565b600080600060608486031215613e6557600080fd5b613e6e84613b7a565b9250613e7c60208501613b8b565b9150604084013590509250925092565b8035801515811461304557600080fd5b60008060008060008060a08789031215613eb557600080fd5b613ebe87613b7a565b9550613ecc60208801613b8b565b945060408701356001600160401b03811115613ee757600080fd5b613ef389828a01613ba2565b90955093505060608701359150613f0c60808801613e8c565b90509295509295509295565b600060208284031215613f2a57600080fd5b5035919050565b6001600160a01b03811681146130cb57600080fd5b803561304581613f31565b60008060408385031215613f6457600080fd5b823591506020830135613f7681613f31565b809150509250929050565b60008083601f840112613f9357600080fd5b5081356001600160401b03811115613faa57600080fd5b6020830191508360208260051b85010111156135bd57600080fd5b60008060008060408587031215613fdb57600080fd5b84356001600160401b0380821115613ff257600080fd5b613ffe88838901613f81565b9096509450602087013591508082111561401757600080fd5b50613e2987828801613f81565b60006020828403121561403657600080fd5b8135611d7e81613f31565b80356001600160e01b03198116811461304557600080fd5b60008060008060008060c0878903121561407257600080fd5b863561407d81613f31565b955060208701359450604087013561409481613f31565b93506140a260608801614041565b925060808701359150613f0c60a08801614041565b600080604083850312156140ca57600080fd5b823591506140da60208401613b7a565b90509250929050565b6000806000606084860312156140f857600080fd5b83356001600160481b038116811461410f57600080fd5b925060208401359150604084013561412681613f31565b809150509250925092565b6000806040838503121561414457600080fd5b823561414f81613f31565b91506020830135613f7681613f31565b6000806040838503121561417257600080fd5b50508035926020909101359150565b634e487b7160e01b600052602160045260246000fd5b600581106141b557634e487b7160e01b600052602160045260246000fd5b9052565b60006080820190506141cc828451614197565b60018060c81b03602084015116602083015260ff604084015116604083015264ffffffffff606084015116606083015292915050565b6000806040838503121561421557600080fd5b823561422081613f31565b915060208301356001600160401b0381111561423b57600080fd5b61424785828601613c73565b9150509250929050565b60008060008060006080868803121561426957600080fd5b61427286613b7a565b945061428060208701613b8b565b93506040860135925060608601356001600160401b038111156142a257600080fd5b6142ae88828901613ba2565b969995985093965092949392505050565b600080600080600080600060e0888a0312156142da57600080fd5b6142e388613b7a565b96506020808901356001600160401b038111156142ff57600080fd5b8901601f81018b1361431057600080fd5b803561431e613c9282613c29565b81815260059190911b8201830190838101908d83111561433d57600080fd5b928401925b8284101561436457833561435581613f31565b82529284019290840190614342565b99505050506040890135955050606088013593506080880135925060a0880135915061439260c08901613f46565b905092959891949750929550565b6000806000606084860312156143b557600080fd5b833561410f81613f31565b600080604083850312156143d357600080fd5b82356143de81613f31565b91506140da60208401613e8c565b600080604083850312156143ff57600080fd5b61440883613b7a565b91506140da60208401613b8b565b6bffffffffffffffffffffffff198460601b168152818360148301376000910160140190815292915050565b81835281816020850137506000828201602090810191909152601f909101601f19169091010190565b87815260ff871660208201526001600160401b038616604082015284606082015260c0608082015260006144a360c083018587614442565b90508260a083015298975050505050505050565b634e487b7160e01b600052603260045260246000fd5b60208082526023908201527f70726f706f73616c20616c72656164792065786563757465642f63616e63656c6040820152621b195960ea1b606082015260800190565b60ff851681526001600160401b0384166020820152608081016145366040830185614197565b82606083015295945050505050565b634e487b7160e01b600052601160045260246000fd5b600060ff821660ff81141561457257614572614545565b60010192915050565b600060001982141561458f5761458f614545565b5060010190565b8381526040602082015260006137b0604083018486614442565b60005b838110156145cb5781810151838201526020016145b3565b838111156145da576000848401525b50505050565b600081518084526145f88160208601602086016145b0565b601f01601f19169290920160200192915050565b602081526000611d7e60208301846145e0565b60006001600160401b038083168181141561463c5761463c614545565b6001019392505050565b8481526001600160a01b03841660208201526060604082018190526000906146719083018486614442565b9695505050505050565b60006020828403121561468d57600080fd5b81516001600160401b038111156146a357600080fd5b8201601f810184136146b457600080fd5b80516146c2613c9282613c4c565b8181528560208385010111156146d757600080fd5b6137b08260208301602086016145b0565b60ff871681528560208201526001600160401b038516604082015260a06060820152600061471a60a083018587614442565b828103608084015261472c81856145e0565b9998505050505050505050565b6020808252602e908201527f496e697469616c697a61626c653a20636f6e747261637420697320616c72656160408201526d191e481a5b9a5d1a585b1a5e995960921b606082015260800190565b60008282101561479957614799614545565b500390565b6020808252602b908201527f496e697469616c697a61626c653a20636f6e7472616374206973206e6f74206960408201526a6e697469616c697a696e6760a81b606082015260800190565b600082198211156147fc576147fc614545565b500190565b634e487b7160e01b600052603160045260246000fdfe968626a768e76ba1363efe44e322a6c4900c5f084e0b45f35e294dfddaa9e0d5e2b7fb3b832174769106daebcfd6d1970523240dda11281102db9363b83b0dc4a26469706673582212208cbef0f212f1b22f0ffc01139b5d529c0332866f7946b7e34a3b16cdaf92ee3264736f6c634300080b0033",
  "linkReferences": {},
  "deployedLinkReferences": {}
}