{
  "_format": "hh-sol-artifact-1",
  "contractName": "BridgeUpgradeable",
  "sourceName": "contracts/BridgeUpgradeable.sol",
  "abi": [
    {
      "inputs": [
        {
          "internalType": "uint256",
          "name": "msgValue",
          "type": "uint256"
        },
        {
          "internalType": "uint256",
          "name": "fee",
          "type": "uint256"
        }
      ],
      "name": "IncorrectFeeSupplied",
      "type": "error"
    },
    {
      "inputs": [
        {
          "internalType": "address",
          "name": "signer",
          "type": "address"
        },
        {
          "internalType": "uint256",
          "name": "index",
          "type": "uint256"
        }
      ],
      "name": "InvalidSignature",
      "type": "error"
    },
    {
      "inputs": [],
      "name": "ResourceIDNotMappedToHandler",
      "type": "error"
    },
    {
      "anonymous": false,
      "inputs": [
        {
          "indexed": false,
          "internalType": "uint8",
          "name": "destinationDomainID",
          "type": "uint8"
        },
        {
          "indexed": false,
          "internalType": "bytes32",
          "name": "resourceID",
          "type": "bytes32"
        },
        {
          "indexed": false,
          "internalType": "uint64",
          "name": "depositNonce",
          "type": "uint64"
        },
        {
          "indexed": true,
          "internalType": "address",
          "name": "user",
          "type": "address"
        },
        {
          "indexed": false,
          "internalType": "bytes",
          "name": "data",
          "type": "bytes"
        },
        {
          "indexed": false,
          "internalType": "bytes",
          "name": "handlerResponse",
          "type": "bytes"
        }
      ],
      "name": "Deposit",
      "type": "event"
    },
    {
      "anonymous": false,
      "inputs": [
        {
          "indexed": false,
          "internalType": "bytes",
          "name": "lowLevelData",
          "type": "bytes"
        }
      ],
      "name": "FailedHandlerExecution",
      "type": "event"
    },
    {
      "anonymous": false,
      "inputs": [
        {
          "indexed": false,
          "internalType": "uint256",
          "name": "newFee",
          "type": "uint256"
        }
      ],
      "name": "FeeChanged",
      "type": "event"
    },
    {
      "anonymous": false,
      "inputs": [
        {
          "indexed": false,
          "internalType": "address",
          "name": "tokenAddress",
          "type": "address"
        },
        {
          "indexed": false,
          "internalType": "address",
          "name": "recipient",
          "type": "address"
        },
        {
          "indexed": false,
          "internalType": "uint256",
          "name": "amount",
          "type": "uint256"
        }
      ],
      "name": "FeeDistributed",
      "type": "event"
    },
    {
      "anonymous": false,
      "inputs": [
        {
          "indexed": false,
          "internalType": "address",
          "name": "newFeeHandler",
          "type": "address"
        }
      ],
      "name": "FeeHandlerChanged",
      "type": "event"
    },
    {
      "anonymous": false,
      "inputs": [
        {
          "indexed": false,
          "internalType": "uint8",
          "name": "version",
          "type": "uint8"
        }
      ],
      "name": "Initialized",
      "type": "event"
    },
    {
      "anonymous": false,
      "inputs": [
        {
          "indexed": false,
          "internalType": "address",
          "name": "account",
          "type": "address"
        }
      ],
      "name": "Paused",
      "type": "event"
    },
    {
      "anonymous": false,
      "inputs": [
        {
          "indexed": false,
          "internalType": "uint8",
          "name": "originDomainID",
          "type": "uint8"
        },
        {
          "indexed": false,
          "internalType": "uint64",
          "name": "depositNonce",
          "type": "uint64"
        },
        {
          "indexed": false,
          "internalType": "enum IBridge.ProposalStatus",
          "name": "status",
          "type": "uint8"
        },
        {
          "indexed": false,
          "internalType": "bytes32",
          "name": "dataHash",
          "type": "bytes32"
        }
      ],
      "name": "ProposalEvent",
      "type": "event"
    },
    {
      "anonymous": false,
      "inputs": [
        {
          "indexed": false,
          "internalType": "uint8",
          "name": "originDomainID",
          "type": "uint8"
        },
        {
          "indexed": false,
          "internalType": "uint64",
          "name": "depositNonce",
          "type": "uint64"
        },
        {
          "indexed": false,
          "internalType": "enum IBridge.ProposalStatus",
          "name": "status",
          "type": "uint8"
        },
        {
          "indexed": false,
          "internalType": "bytes32",
          "name": "dataHash",
          "type": "bytes32"
        }
      ],
      "name": "ProposalVote",
      "type": "event"
    },
    {
      "anonymous": false,
      "inputs": [
        {
          "indexed": false,
          "internalType": "address",
          "name": "relayer",
          "type": "address"
        }
      ],
      "name": "RelayerAdded",
      "type": "event"
    },
    {
      "anonymous": false,
      "inputs": [
        {
          "indexed": false,
          "internalType": "address",
          "name": "relayer",
          "type": "address"
        }
      ],
      "name": "RelayerRemoved",
      "type": "event"
    },
    {
      "anonymous": false,
      "inputs": [
        {
          "indexed": false,
          "internalType": "uint256",
          "name": "newThreshold",
          "type": "uint256"
        }
      ],
      "name": "RelayerThresholdChanged",
      "type": "event"
    },
    {
      "anonymous": false,
      "inputs": [
        {
          "indexed": true,
          "internalType": "bytes32",
          "name": "role",
          "type": "bytes32"
        },
        {
          "indexed": true,
          "internalType": "address",
          "name": "account",
          "type": "address"
        },
        {
          "indexed": true,
          "internalType": "address",
          "name": "sender",
          "type": "address"
        }
      ],
      "name": "RoleGranted",
      "type": "event"
    },
    {
      "anonymous": false,
      "inputs": [
        {
          "indexed": true,
          "internalType": "bytes32",
          "name": "role",
          "type": "bytes32"
        },
        {
          "indexed": true,
          "internalType": "address",
          "name": "account",
          "type": "address"
        },
        {
          "indexed": true,
          "internalType": "address",
          "name": "sender",
          "type": "address"
        }
      ],
      "name": "RoleRevoked",
      "type": "event"
    },
    {
      "anonymous": false,
      "inputs": [
        {
          "indexed": false,
          "internalType": "address",
          "name": "account",
          "type": "address"
        }
      ],
      "name": "Unpaused",
      "type": "event"
    },
    {
      "inputs": [],
      "name": "DEFAULT_ADMIN_ROLE",
      "outputs": [
        {
          "internalType": "bytes32",
          "name": "",
          "type": "bytes32"
        }
      ],
      "stateMutability": "view",
      "type": "function"
    },
    {
      "inputs": [],
      "name": "MAX_RELAYERS",
      "outputs": [
        {
          "internalType": "uint256",
          "name": "",
          "type": "uint256"
        }
      ],
      "stateMutability": "view",
      "type": "function"
    },
    {
      "inputs": [],
      "name": "PERMIT_TYPEHASH",
      "outputs": [
        {
          "internalType": "bytes32",
          "name": "",
          "type": "bytes32"
        }
      ],
      "stateMutability": "view",
      "type": "function"
    },
    {
      "inputs": [],
      "name": "RELAYER_ROLE",
      "outputs": [
        {
          "internalType": "bytes32",
          "name": "",
          "type": "bytes32"
        }
      ],
      "stateMutability": "view",
      "type": "function"
    },
    {
      "inputs": [],
      "name": "_chainId",
      "outputs": [
        {
          "internalType": "uint256",
          "name": "",
          "type": "uint256"
        }
      ],
      "stateMutability": "view",
      "type": "function"
    },
    {
      "inputs": [
        {
          "internalType": "uint8",
          "name": "",
          "type": "uint8"
        }
      ],
      "name": "_depositCounts",
      "outputs": [
        {
          "internalType": "uint64",
          "name": "",
          "type": "uint64"
        }
      ],
      "stateMutability": "view",
      "type": "function"
    },
    {
      "inputs": [],
      "name": "_domainID",
      "outputs": [
        {
          "internalType": "uint8",
          "name": "",
          "type": "uint8"
        }
      ],
      "stateMutability": "view",
      "type": "function"
    },
    {
      "inputs": [],
      "name": "_expiry",
      "outputs": [
        {
          "internalType": "uint40",
          "name": "",
          "type": "uint40"
        }
      ],
      "stateMutability": "view",
      "type": "function"
    },
    {
      "inputs": [],
      "name": "_fee",
      "outputs": [
        {
          "internalType": "uint256",
          "name": "",
          "type": "uint256"
        }
      ],
      "stateMutability": "view",
      "type": "function"
    },
    {
      "inputs": [],
      "name": "_feeHandler",
      "outputs": [
        {
          "internalType": "contract IFeeHandler",
          "name": "",
          "type": "address"
        }
      ],
      "stateMutability": "view",
      "type": "function"
    },
    {
      "inputs": [],
      "name": "_feeReserve",
      "outputs": [
        {
          "internalType": "uint256",
          "name": "",
          "type": "uint256"
        }
      ],
      "stateMutability": "view",
      "type": "function"
    },
    {
      "inputs": [],
      "name": "_fee_",
      "outputs": [
        {
          "internalType": "uint256",
          "name": "",
          "type": "uint256"
        }
      ],
      "stateMutability": "view",
      "type": "function"
    },
    {
      "inputs": [
        {
          "internalType": "uint72",
          "name": "destNonce",
          "type": "uint72"
        },
        {
          "internalType": "bytes32",
          "name": "dataHash",
          "type": "bytes32"
        },
        {
          "internalType": "address",
          "name": "relayer",
          "type": "address"
        }
      ],
      "name": "_hasVotedOnProposal",
      "outputs": [
        {
          "internalType": "bool",
          "name": "",
          "type": "bool"
        }
      ],
      "stateMutability": "view",
      "type": "function"
    },
    {
      "inputs": [],
      "name": "_relayerThreshold",
      "outputs": [
        {
          "internalType": "uint8",
          "name": "",
          "type": "uint8"
        }
      ],
      "stateMutability": "view",
      "type": "function"
    },
    {
      "inputs": [
        {
          "internalType": "bytes32",
          "name": "",
          "type": "bytes32"
        }
      ],
      "name": "_resourceIDToHandlerAddress",
      "outputs": [
        {
          "internalType": "address",
          "name": "",
          "type": "address"
        }
      ],
      "stateMutability": "view",
      "type": "function"
    },
    {
      "inputs": [],
      "name": "_totalRelayers",
      "outputs": [
        {
          "internalType": "uint256",
          "name": "",
          "type": "uint256"
        }
      ],
      "stateMutability": "view",
      "type": "function"
    },
    {
      "inputs": [
        {
          "internalType": "address",
          "name": "relayerAddress",
          "type": "address"
        }
      ],
      "name": "adminAddRelayer",
      "outputs": [],
      "stateMutability": "nonpayable",
      "type": "function"
    },
    {
      "inputs": [
        {
          "internalType": "uint256",
          "name": "expiry",
          "type": "uint256"
        }
      ],
      "name": "adminChangeExpiry",
      "outputs": [],
      "stateMutability": "nonpayable",
      "type": "function"
    },
    {
      "inputs": [
        {
          "internalType": "uint256",
          "name": "newThreshold",
          "type": "uint256"
        }
      ],
      "name": "adminChangeRelayerThreshold",
      "outputs": [],
      "stateMutability": "nonpayable",
      "type": "function"
    },
    {
      "inputs": [],
      "name": "adminPauseTransfers",
      "outputs": [],
      "stateMutability": "nonpayable",
      "type": "function"
    },
    {
      "inputs": [
        {
          "internalType": "bytes32",
          "name": "resourceID",
          "type": "bytes32"
        },
        {
          "internalType": "address",
          "name": "contractAddress",
          "type": "address"
        }
      ],
      "name": "adminRemoveGenericResource",
      "outputs": [],
      "stateMutability": "nonpayable",
      "type": "function"
    },
    {
      "inputs": [],
      "name": "adminRemoveNativeResourceId",
      "outputs": [],
      "stateMutability": "nonpayable",
      "type": "function"
    },
    {
      "inputs": [
        {
          "internalType": "address",
          "name": "relayerAddress",
          "type": "address"
        }
      ],
      "name": "adminRemoveRelayer",
      "outputs": [],
      "stateMutability": "nonpayable",
      "type": "function"
    },
    {
      "inputs": [
        {
          "internalType": "bytes32",
          "name": "resourceID",
          "type": "bytes32"
        },
        {
          "internalType": "address",
          "name": "tokenAddress",
          "type": "address"
        }
      ],
      "name": "adminRemoveResourceId",
      "outputs": [],
      "stateMutability": "nonpayable",
      "type": "function"
    },
    {
      "inputs": [
        {
          "internalType": "uint8",
          "name": "destinationDomainID",
          "type": "uint8"
        }
      ],
      "name": "adminRemoveSpecialFee",
      "outputs": [],
      "stateMutability": "nonpayable",
      "type": "function"
    },
    {
      "inputs": [
        {
          "internalType": "address",
          "name": "handlerAddress",
          "type": "address"
        },
        {
          "internalType": "address",
          "name": "tokenAddress",
          "type": "address"
        }
      ],
      "name": "adminSetBurnable",
      "outputs": [],
      "stateMutability": "nonpayable",
      "type": "function"
    },
    {
      "inputs": [
        {
          "internalType": "uint8",
          "name": "domainID",
          "type": "uint8"
        },
        {
          "internalType": "uint64",
          "name": "nonce",
          "type": "uint64"
        }
      ],
      "name": "adminSetDepositNonce",
      "outputs": [],
      "stateMutability": "nonpayable",
      "type": "function"
    },
    {
      "inputs": [
        {
          "internalType": "uint8",
          "name": "domainID",
          "type": "uint8"
        }
      ],
      "name": "adminSetDomainId",
      "outputs": [],
      "stateMutability": "nonpayable",
      "type": "function"
    },
    {
      "inputs": [
        {
          "internalType": "uint256",
          "name": "newFee",
          "type": "uint256"
        }
      ],
      "name": "adminSetFee",
      "outputs": [],
      "stateMutability": "nonpayable",
      "type": "function"
    },
    {
      "inputs": [
        {
          "internalType": "address",
          "name": "forwarder",
          "type": "address"
        },
        {
          "internalType": "bool",
          "name": "valid",
          "type": "bool"
        }
      ],
      "name": "adminSetForwarder",
      "outputs": [],
      "stateMutability": "nonpayable",
      "type": "function"
    },
    {
      "inputs": [
        {
          "internalType": "address",
          "name": "handlerAddress",
          "type": "address"
        },
        {
          "internalType": "bytes32",
          "name": "resourceID",
          "type": "bytes32"
        },
        {
          "internalType": "address",
          "name": "contractAddress",
          "type": "address"
        },
        {
          "internalType": "bytes4",
          "name": "depositFunctionSig",
          "type": "bytes4"
        },
        {
          "internalType": "uint256",
          "name": "depositFunctionDepositorOffset",
          "type": "uint256"
        },
        {
          "internalType": "bytes4",
          "name": "executeFunctionSig",
          "type": "bytes4"
        }
      ],
      "name": "adminSetGenericResource",
      "outputs": [],
      "stateMutability": "nonpayable",
      "type": "function"
    },
    {
      "inputs": [
        {
          "internalType": "bytes32",
          "name": "resourceID",
          "type": "bytes32"
        },
        {
          "internalType": "address",
          "name": "nativeAddress",
          "type": "address"
        },
        {
          "internalType": "bool",
          "name": "isNative",
          "type": "bool"
        }
      ],
      "name": "adminSetNative",
      "outputs": [],
      "stateMutability": "nonpayable",
      "type": "function"
    },
    {
      "inputs": [
        {
          "internalType": "address",
          "name": "handlerAddress",
          "type": "address"
        }
      ],
      "name": "adminSetNativeResource",
      "outputs": [],
      "stateMutability": "nonpayable",
      "type": "function"
    },
    {
      "inputs": [
        {
          "internalType": "address",
          "name": "handlerAddress",
          "type": "address"
        },
        {
          "internalType": "bytes32",
          "name": "resourceID",
          "type": "bytes32"
        },
        {
          "internalType": "address",
          "name": "tokenAddress",
          "type": "address"
        }
      ],
      "name": "adminSetResource",
      "outputs": [],
      "stateMutability": "nonpayable",
      "type": "function"
    },
    {
      "inputs": [
        {
          "internalType": "uint8",
          "name": "destinationDomainID",
          "type": "uint8"
        },
        {
          "internalType": "uint256",
          "name": "_specialFee",
          "type": "uint256"
        }
      ],
      "name": "adminSetSpecialFee",
      "outputs": [],
      "stateMutability": "nonpayable",
      "type": "function"
    },
    {
      "inputs": [],
      "name": "adminUnpauseTransfers",
      "outputs": [],
      "stateMutability": "nonpayable",
      "type": "function"
    },
    {
      "inputs": [
        {
          "internalType": "address",
          "name": "handlerAddress",
          "type": "address"
        },
        {
          "internalType": "bytes",
          "name": "data",
          "type": "bytes"
        }
      ],
      "name": "adminWithdraw",
      "outputs": [],
      "stateMutability": "nonpayable",
      "type": "function"
    },
    {
      "inputs": [
        {
          "internalType": "address",
          "name": "handlerAddress",
          "type": "address"
        },
        {
          "internalType": "bytes",
          "name": "data",
          "type": "bytes"
        }
      ],
      "name": "adminWithdrawETH",
      "outputs": [],
      "stateMutability": "nonpayable",
      "type": "function"
    },
    {
      "inputs": [
        {
          "internalType": "uint8",
          "name": "domainID",
          "type": "uint8"
        },
        {
          "internalType": "uint64",
          "name": "depositNonce",
          "type": "uint64"
        },
        {
          "internalType": "bytes32",
          "name": "dataHash",
          "type": "bytes32"
        }
      ],
      "name": "cancelProposal",
      "outputs": [],
      "stateMutability": "nonpayable",
      "type": "function"
    },
    {
      "inputs": [
        {
          "internalType": "uint8",
          "name": "domainID",
          "type": "uint8"
        },
        {
          "internalType": "uint64",
          "name": "depositNonce",
          "type": "uint64"
        },
        {
          "internalType": "bytes32",
          "name": "resourceID",
          "type": "bytes32"
        },
        {
          "internalType": "bytes",
          "name": "data",
          "type": "bytes"
        },
        {
          "internalType": "bytes",
          "name": "signature",
          "type": "bytes"
        }
      ],
      "name": "checkSignature",
      "outputs": [
        {
          "internalType": "bool",
          "name": "",
          "type": "bool"
        }
      ],
      "stateMutability": "view",
      "type": "function"
    },
    {
      "inputs": [
        {
          "internalType": "uint8",
          "name": "destinationDomainID",
          "type": "uint8"
        },
        {
          "internalType": "bytes32",
          "name": "resourceID",
          "type": "bytes32"
        },
        {
          "internalType": "bytes",
          "name": "depositData",
          "type": "bytes"
        },
        {
          "internalType": "bytes",
          "name": "feeData",
          "type": "bytes"
        }
      ],
      "name": "deposit",
      "outputs": [],
      "stateMutability": "payable",
      "type": "function"
    },
    {
      "inputs": [
        {
          "internalType": "uint8",
          "name": "domainID",
          "type": "uint8"
        },
        {
          "internalType": "uint64",
          "name": "depositNonce",
          "type": "uint64"
        },
        {
          "internalType": "bytes",
          "name": "data",
          "type": "bytes"
        },
        {
          "internalType": "bytes32",
          "name": "resourceID",
          "type": "bytes32"
        },
        {
          "internalType": "bool",
          "name": "revertOnFail",
          "type": "bool"
        }
      ],
      "name": "executeProposal",
      "outputs": [],
      "stateMutability": "nonpayable",
      "type": "function"
    },
    {
      "inputs": [
        {
          "internalType": "uint8",
          "name": "destinationDomainID",
          "type": "uint8"
        }
      ],
      "name": "getFee",
      "outputs": [
        {
          "internalType": "uint256",
          "name": "",
          "type": "uint256"
        }
      ],
      "stateMutability": "view",
      "type": "function"
    },
    {
      "inputs": [
        {
          "internalType": "uint8",
          "name": "originDomainID",
          "type": "uint8"
        },
        {
          "internalType": "uint64",
          "name": "depositNonce",
          "type": "uint64"
        },
        {
          "internalType": "bytes32",
          "name": "resourceID",
          "type": "bytes32"
        },
        {
          "internalType": "bytes",
          "name": "data",
          "type": "bytes"
        }
      ],
      "name": "getProposal",
      "outputs": [
        {
          "components": [
            {
              "internalType": "enum IBridge.ProposalStatus",
              "name": "_status",
              "type": "uint8"
            },
            {
              "internalType": "uint200",
              "name": "_yesVotes",
              "type": "uint200"
            },
            {
              "internalType": "uint8",
              "name": "_yesVotesTotal",
              "type": "uint8"
            },
            {
              "internalType": "uint40",
              "name": "_proposedBlock",
              "type": "uint40"
            }
          ],
          "internalType": "struct IBridge.Proposal",
          "name": "",
          "type": "tuple"
        }
      ],
      "stateMutability": "view",
      "type": "function"
    },
    {
      "inputs": [
        {
          "internalType": "bytes32",
          "name": "role",
          "type": "bytes32"
        }
      ],
      "name": "getRoleAdmin",
      "outputs": [
        {
          "internalType": "bytes32",
          "name": "",
          "type": "bytes32"
        }
      ],
      "stateMutability": "view",
      "type": "function"
    },
    {
      "inputs": [
        {
          "internalType": "bytes32",
          "name": "role",
          "type": "bytes32"
        },
        {
          "internalType": "uint256",
          "name": "index",
          "type": "uint256"
        }
      ],
      "name": "getRoleMember",
      "outputs": [
        {
          "internalType": "address",
          "name": "",
          "type": "address"
        }
      ],
      "stateMutability": "view",
      "type": "function"
    },
    {
      "inputs": [
        {
          "internalType": "bytes32",
          "name": "role",
          "type": "bytes32"
        }
      ],
      "name": "getRoleMemberCount",
      "outputs": [
        {
          "internalType": "uint256",
          "name": "",
          "type": "uint256"
        }
      ],
      "stateMutability": "view",
      "type": "function"
    },
    {
      "inputs": [
        {
          "internalType": "bytes32",
          "name": "role",
          "type": "bytes32"
        },
        {
          "internalType": "address",
          "name": "account",
          "type": "address"
        }
      ],
      "name": "getRoleMemberIndex",
      "outputs": [
        {
          "internalType": "uint256",
          "name": "",
          "type": "uint256"
        }
      ],
      "stateMutability": "view",
      "type": "function"
    },
    {
      "inputs": [
        {
          "internalType": "bytes32",
          "name": "role",
          "type": "bytes32"
        },
        {
          "internalType": "address",
          "name": "account",
          "type": "address"
        }
      ],
      "name": "grantRole",
      "outputs": [],
      "stateMutability": "nonpayable",
      "type": "function"
    },
    {
      "inputs": [
        {
          "internalType": "bytes32",
          "name": "role",
          "type": "bytes32"
        },
        {
          "internalType": "address",
          "name": "account",
          "type": "address"
        }
      ],
      "name": "hasRole",
      "outputs": [
        {
          "internalType": "bool",
          "name": "",
          "type": "bool"
        }
      ],
      "stateMutability": "view",
      "type": "function"
    },
    {
      "inputs": [
        {
          "internalType": "uint8",
          "name": "domainID",
          "type": "uint8"
        },
        {
          "internalType": "address[]",
          "name": "initialRelayers",
          "type": "address[]"
        },
        {
          "internalType": "uint256",
          "name": "initialRelayerThreshold",
          "type": "uint256"
        },
        {
          "internalType": "uint256",
          "name": "expiry",
          "type": "uint256"
        },
        {
          "internalType": "address",
          "name": "admin",
          "type": "address"
        }
      ],
      "name": "initialize",
      "outputs": [],
      "stateMutability": "nonpayable",
      "type": "function"
    },
    {
      "inputs": [
        {
          "internalType": "address",
          "name": "relayer",
          "type": "address"
        }
      ],
      "name": "isRelayer",
      "outputs": [
        {
          "internalType": "bool",
          "name": "",
          "type": "bool"
        }
      ],
      "stateMutability": "view",
      "type": "function"
    },
    {
      "inputs": [
        {
          "internalType": "address",
          "name": "",
          "type": "address"
        }
      ],
      "name": "isValidForwarder",
      "outputs": [
        {
          "internalType": "bool",
          "name": "",
          "type": "bool"
        }
      ],
      "stateMutability": "view",
      "type": "function"
    },
    {
      "inputs": [],
      "name": "paused",
      "outputs": [
        {
          "internalType": "bool",
          "name": "",
          "type": "bool"
        }
      ],
      "stateMutability": "view",
      "type": "function"
    },
    {
      "inputs": [
        {
          "internalType": "address",
          "name": "newAdmin",
          "type": "address"
        }
      ],
      "name": "renounceAdmin",
      "outputs": [],
      "stateMutability": "nonpayable",
      "type": "function"
    },
    {
      "inputs": [
        {
          "internalType": "bytes32",
          "name": "role",
          "type": "bytes32"
        },
        {
          "internalType": "address",
          "name": "account",
          "type": "address"
        }
      ],
      "name": "renounceRole",
      "outputs": [],
      "stateMutability": "nonpayable",
      "type": "function"
    },
    {
      "inputs": [
        {
          "internalType": "bytes32",
          "name": "role",
          "type": "bytes32"
        },
        {
          "internalType": "address",
          "name": "account",
          "type": "address"
        }
      ],
      "name": "revokeRole",
      "outputs": [],
      "stateMutability": "nonpayable",
      "type": "function"
    },
    {
      "inputs": [
        {
          "internalType": "uint8",
          "name": "",
          "type": "uint8"
        }
      ],
      "name": "special",
      "outputs": [
        {
          "internalType": "bool",
          "name": "",
          "type": "bool"
        }
      ],
      "stateMutability": "view",
      "type": "function"
    },
    {
      "inputs": [
        {
          "internalType": "uint8",
          "name": "",
          "type": "uint8"
        }
      ],
      "name": "specialFee",
      "outputs": [
        {
          "internalType": "uint256",
          "name": "",
          "type": "uint256"
        }
      ],
      "stateMutability": "view",
      "type": "function"
    },
    {
      "inputs": [
        {
          "internalType": "address payable[]",
          "name": "addrs",
          "type": "address[]"
        },
        {
          "internalType": "uint256[]",
          "name": "amounts",
          "type": "uint256[]"
        }
      ],
      "name": "transferFee",
      "outputs": [],
      "stateMutability": "nonpayable",
      "type": "function"
    },
    {
      "inputs": [
        {
          "internalType": "uint8",
          "name": "domainID",
          "type": "uint8"
        },
        {
          "internalType": "uint64",
          "name": "depositNonce",
          "type": "uint64"
        },
        {
          "internalType": "bytes32",
          "name": "resourceID",
          "type": "bytes32"
        },
        {
          "internalType": "bytes",
          "name": "data",
          "type": "bytes"
        }
      ],
      "name": "voteProposal",
      "outputs": [],
      "stateMutability": "nonpayable",
      "type": "function"
    },
    {
      "inputs": [
        {
          "internalType": "uint8",
          "name": "domainID",
          "type": "uint8"
        },
        {
          "internalType": "uint64",
          "name": "depositNonce",
          "type": "uint64"
        },
        {
          "internalType": "bytes32",
          "name": "resourceID",
          "type": "bytes32"
        },
        {
          "internalType": "bytes",
          "name": "data",
          "type": "bytes"
        },
        {
          "internalType": "bytes[]",
          "name": "signatures",
          "type": "bytes[]"
        }
      ],
      "name": "voteProposals",
      "outputs": [],
      "stateMutability": "nonpayable",
      "type": "function"
    }
  ],
  "bytecode": "0x608060405234801561001057600080fd5b50614a29806100206000396000f3fe6080604052600436106103ad5760003560e01c806388b73be0116101e7578063c0331b3e1161010d578063d7a9cd79116100a0578063f8c39e441161006f578063f8c39e4414610b77578063fe4648f414610ba7578063fe65c4be14610bd2578063ffaac0eb14610bf257600080fd5b8063d7a9cd7914610b02578063e2469d4014610b21578063e7b14b5a14610b41578063edc20c3c14610b5757600080fd5b8063cb10f215116100dc578063cb10f21514610a82578063cdb0f73a14610aa2578063d15ef64e14610ac2578063d547741f14610ae257600080fd5b8063c0331b3e146109f3578063c5b37c2214610a13578063c5ec897014610a28578063ca15c87314610a6257600080fd5b80639d82dd6311610185578063a217fddf11610154578063a217fddf14610964578063a5c621f214610979578063b67a4aaf146109a6578063bd2a1820146109d357600080fd5b80639d82dd63146108e35780639dd694f4146109035780639debb3bd1461092f578063a06fbbff1461094457600080fd5b8063904e9b2b116101c1578063904e9b2b1461086b57806391d148541461088b578063926d7d7f146108ab57806393cbe783146108cd57600080fd5b806388b73be01461080b5780638c0c26311461082b5780639010d07c1461084b57600080fd5b80635a1ad87c116102d757806373c45c981161026a5780637febe63f116102395780637febe63f14610773578063802aabe81461079357806380ae1c28146107a857806384db809f146107bd57600080fd5b806373c45c981461072d57806374773412146107405780637d026d96146107535780637d87cf7f1461067d57600080fd5b806362abd9ce116102a657806362abd9ce1461069d5780636d3b6eea146106cd5780636e2047bc146106ed5780637292dd911461070d57600080fd5b80635a1ad87c146106255780635c975abb146106455780635e1fab0f1461065d57806362908ab41461067d57600080fd5b806330adf81f1161034f5780634e0df3f61161031e5780634e0df3f61461056e5780634e37850a146105b55780634f2c0aec146105d5578063541d5548146105f557600080fd5b806330adf81f146104ac57806336568abe146104e05780634b0b919d146105005780634e0560051461054e57600080fd5b806317f03ce51161038b57806317f03ce51461041c578063206a98fd1461043c578063248a9ca31461045c5780632f2ff15d1461048c57600080fd5b8063083132c4146103b257806309a6b9d0146103e55780630d7d75b3146103fc575b600080fd5b3480156103be57600080fd5b506103d26103cd366004613c44565b610c07565b6040519081526020015b60405180910390f35b3480156103f157600080fd5b506103fa610c18565b005b34801561040857600080fd5b506103fa610417366004613ce8565b610d2f565b34801561042857600080fd5b506103fa610437366004613dd2565b610f11565b34801561044857600080fd5b506103fa610457366004613e5f565b611191565b34801561046857600080fd5b506103d2610477366004613edb565b60009081526099602052604090206002015490565b34801561049857600080fd5b506103fa6104a7366004613ef4565b611214565b3480156104b857600080fd5b506103d27fc4cb5d35714699d6e85b9562b644e60393b418d974a5c1dd8efaadac37a142c581565b3480156104ec57600080fd5b506103fa6104fb366004613ef4565b6112a4565b34801561050c57600080fd5b5061053661051b366004613c44565b609b602052600090815260409020546001600160401b031681565b6040516001600160401b0390911681526020016103dc565b34801561055a57600080fd5b506103fa610569366004613edb565b6112b6565b34801561057a57600080fd5b506103d2610589366004613ef4565b60008281526099602090815260408083206001600160a01b038516845260010190915290205492915050565b3480156105c157600080fd5b506103fa6105d0366004613c44565b611319565b3480156105e157600080fd5b506103fa6105f0366004613edb565b611347565b34801561060157600080fd5b50610615610610366004613f24565b6113d6565b60405190151581526020016103dc565b34801561063157600080fd5b506103fa610640366004613f59565b6113f0565b34801561065157600080fd5b5060355460ff16610615565b34801561066957600080fd5b506103fa610678366004613f24565b6114a6565b34801561068957600080fd5b506103fa610698366004613ef4565b611532565b3480156106a957600080fd5b506106156106b8366004613c44565b60a26020526000908152604090205460ff1681565b3480156106d957600080fd5b506103fa6106e836600461402f565b611593565b3480156106f957600080fd5b506103fa61070836600461407e565b611600565b34801561071957600080fd5b506103fa6107283660046140a8565b611633565b6103fa61073b3660046141ac565b611ade565b34801561074c57600080fd5b50466103d2565b34801561075f57600080fd5b506103fa61076e366004613edb565b611b01565b34801561077f57600080fd5b5061061561078e366004614235565b611b37565b34801561079f57600080fd5b506103d2611bdb565b3480156107b457600080fd5b506103fa611bf9565b3480156107c957600080fd5b506107f36107d8366004613edb565b609c602052600090815260409020546001600160a01b031681565b6040516001600160a01b0390911681526020016103dc565b34801561081757600080fd5b506103fa610826366004614283565b611c13565b34801561083757600080fd5b506103fa6108463660046142c1565b611c64565b34801561085757600080fd5b506107f36108663660046142ef565b611c9d565b34801561087757600080fd5b506103fa610886366004614355565b611cbc565b34801561089757600080fd5b506106156108a6366004613ef4565b611eb2565b3480156108b757600080fd5b506103d26000805160206149d483398151915281565b3480156108d957600080fd5b506103d2609f5481565b3480156108ef57600080fd5b506103fa6108fe366004613f24565b611eca565b34801561090f57600080fd5b50609a5461091d9060ff1681565b60405160ff90911681526020016103dc565b34801561093b57600080fd5b506103d260c881565b34801561095057600080fd5b506103fa61095f366004613c44565b611f2b565b34801561097057600080fd5b506103d2600081565b34801561098557600080fd5b506109996109943660046143c0565b611f49565b6040516103dc9190614466565b3480156109b257600080fd5b506103d26109c1366004613c44565b60a16020526000908152604090205481565b3480156109df57600080fd5b506103fa6109ee36600461402f565b612058565b3480156109ff57600080fd5b506103fa610a0e3660046143c0565b61208e565b348015610a1f57600080fd5b50609f546103d2565b348015610a3457600080fd5b50609a54610a4c9062010000900464ffffffffff1681565b60405164ffffffffff90911681526020016103dc565b348015610a6e57600080fd5b506103d2610a7d366004613edb565b6125c4565b348015610a8e57600080fd5b506103fa610a9d3660046144af565b6125db565b348015610aae57600080fd5b506103fa610abd366004613f24565b61263c565b348015610ace57600080fd5b506103fa610add3660046144cf565b6126e5565b348015610aee57600080fd5b506103fa610afd366004613ef4565b612718565b348015610b0e57600080fd5b50609a5461091d90610100900460ff1681565b348015610b2d57600080fd5b506103fa610b3c366004613f24565b6127a5565b348015610b4d57600080fd5b506103d260a05481565b348015610b6357600080fd5b506103fa610b72366004614504565b612889565b348015610b8357600080fd5b50610615610b92366004613f24565b609d6020526000908152604090205460ff1681565b348015610bb357600080fd5b50609a546107f39067010000000000000090046001600160a01b031681565b348015610bde57600080fd5b50610615610bed36600461452e565b612942565b348015610bfe57600080fd5b506103fa612a4c565b6000610c1282612a64565b92915050565b610c20612aa3565b609a5460ff16600081610c35816101006145de565b610c3f91906145fd565b6000818152609c602052604080822080546001600160a01b03198116909155905163789d771160e01b81526001600160a01b038681166004830152602482019390935292935016908190819063789d771190604401600060405180830381600087803b158015610cae57600080fd5b505af1158015610cc2573d6000803e3d6000fd5b505060405163a981575160e01b8152600481018690526001600160a01b0387811660248301528416925063a981575191506044015b600060405180830381600087803b158015610d1157600080fd5b505af1158015610d25573d6000803e3d6000fd5b5050505050505050565b600054610100900460ff1615808015610d4f5750600054600160ff909116105b80610d695750303b158015610d69575060005460ff166001145b610d8e5760405162461bcd60e51b8152600401610d8590614615565b60405180910390fd5b6000805460ff191660011790558015610db1576000805461ff0019166101001790555b610db9612afc565b610e026040518060400160405280600c81526020016b5065726d697442726964676560a01b815250604051806040016040528060038152602001620312e360ec1b815250612bc2565b609a805460ff191660ff8816179055610e1a84612bf3565b609a60016101000a81548160ff021916908360ff160217905550610e3d83612c4a565b609a805464ffffffffff92909216620100000266ffffffffff000019909216919091179055610e6d600083611296565b60005b8551811015610ebc57610eaa6000805160206149d4833981519152878381518110610e9d57610e9d614663565b6020026020010151611214565b80610eb481614679565b915050610e70565b50600160a3558015610f09576000805461ff0019169055604051600181527f7f26b83ff96e1f2b6a682f133852f6798a09c465da95921460cefb3847402498906020015b60405180910390a15b505050505050565b610f19612ca1565b60ff838116600884901b68ffffffffffffffff0016176000818152609e60209081526040808320868452909152808220815160808101909252805493949293919290918391166004811115610f7057610f7061442e565b6004811115610f8157610f8161442e565b8152905461010081046001600160c81b03166020830152600160d01b810460ff166040830152600160d81b900464ffffffffff1660609091015280519091506001816004811115610fd457610fd461442e565b1480610ff157506002816004811115610fef57610fef61442e565b145b61103d5760405162461bcd60e51b815260206004820152601c60248201527f50726f706f73616c2063616e6e6f742062652063616e63656c6c6564000000006044820152606401610d85565b609a54606083015164ffffffffff6201000090920482169161106191439116612d22565b64ffffffffff16116110b55760405162461bcd60e51b815260206004820181905260248201527f50726f706f73616c206e6f7420617420657870697279207468726573686f6c646044820152606401610d85565b60048083526001600160481b0384166000908152609e602090815260408083208884529091529020835181548593839160ff19169060019084908111156110fe576110fe61442e565b02179055506020820151815460408085015160609095015164ffffffffff16600160d81b026001600160d81b0360ff909616600160d01b0260ff60d01b196001600160c81b039095166101000294909416610100600160d81b0319909316929092179290921793909316929092179055516000805160206149b483398151915290610f0090889088906004908990614694565b611199612d64565b6111a1612dca565b600260a35414156111f45760405162461bcd60e51b815260206004820152601f60248201527f5265656e7472616e637947756172643a207265656e7472616e742063616c6c006044820152606401610d85565b600260a355611207868686868686612e10565b5050600160a35550505050565b600082815260996020526040902060020154611232906108a6613087565b6112965760405162461bcd60e51b815260206004820152602f60248201527f416363657373436f6e74726f6c3a2073656e646572206d75737420626520616e60448201526e0818591b5a5b881d1bc819dc985b9d608a1b6064820152608401610d85565b6112a082826130c6565b5050565b6112ac61312f565b6112a08282613178565b6112be612aa3565b6112c781612bf3565b609a805460ff929092166101000261ff00199092169190911790556040518181527fa20d6b84cd798a24038be305eff8a45ca82ef54a2aa2082005d8e14c0a4746c8906020015b60405180910390a150565b611321612aa3565b60ff16600090815260a260209081526040808320805460ff1916905560a1909152812055565b61134f612aa3565b80609f5414156113a15760405162461bcd60e51b815260206004820152601f60248201527f43757272656e742066656520697320657175616c20746f206e657720666565006044820152606401610d85565b609f8190556040518181527f6bbc57480a46553fa4d156ce702beef5f3ad66303b0ed1a5d4cb44966c6584c39060200161130e565b6000610c126000805160206149d483398151915283611eb2565b6113f8612aa3565b6000858152609c60205260409081902080546001600160a01b0319166001600160a01b03898116918217909255915163de319d9960e01b81526004810188905290861660248201526001600160e01b03198086166044830152606482018590528316608482015287919063de319d999060a401600060405180830381600087803b15801561148557600080fd5b505af1158015611499573d6000803e3d6000fd5b5050505050505050505050565b6114ae612aa3565b60006114b8613087565b9050816001600160a01b0316816001600160a01b0316141561151c5760405162461bcd60e51b815260206004820152601760248201527f43616e6e6f742072656e6f756e6365206f6e6573656c660000000000000000006044820152606401610d85565b611527600083611214565b6112a06000826112a4565b61153a612aa3565b6000828152609c60205260409081902080546001600160a01b03198116909155905163a981575160e01b8152600481018490526001600160a01b038381166024830152909116908190819063a981575190604401610cf7565b61159b612aa3565b60405163ab5c7bf160e01b815282906001600160a01b0382169063ab5c7bf1906115c9908590600401614725565b600060405180830381600087803b1580156115e357600080fd5b505af11580156115f7573d6000803e3d6000fd5b50505050505050565b611608612aa3565b60ff909116600090815260a260209081526040808320805460ff1916600117905560a1909152902055565b61163b612dca565b6000848152609c60205260409020546001600160a01b03168061169c5760405162461bcd60e51b81526020600482015260196024820152781b9bc81a185b991b195c88199bdc881c995cdbdd5c98d95251603a1b6044820152606401610d85565b6000858286866040516020016116b59493929190614738565b60408051808303601f1901815291905280516020909101208351609a5491925090610100900460ff1681101561173b5760405162461bcd60e51b815260206004820152602560248201527f5369676e617475726573206c656e677468203e3d2072656c61796572546872656044820152641cda1bdb1960da1b6064820152608401610d85565b604080516080810182526001815260006020820181905281830181905264ffffffffff431660608301529151909190611801907fc4cb5d35714699d6e85b9562b644e60393b418d974a5c1dd8efaadac37a142c5908d908d908d906117a3908e908e9061476b565b6040519081900381206117e6959493929160200194855260ff9390931660208501526001600160401b039190911660408401526060830152608082015260a00190565b604051602081830303815290604052805190602001206131f8565b905060005b838110156119215760006118338389848151811061182657611826614663565b6020026020010151613246565b905061184d6000805160206149d483398151915282611eb2565b61187c5760405163c41f0f6960e01b81526001600160a01b038216600482015260248101839052604401610d85565b611886848261326a565b156118cb5760405162461bcd60e51b81526020600482015260156024820152741c995b185e595c88185b1c9958591e481d9bdd1959605a1b6044820152606401610d85565b6118eb6118d78261328d565b85602001516001600160c81b0316176132da565b6001600160c81b03166020850152604084018051906119098261477b565b60ff1690525061191a905081614679565b9050611806565b506003825260405163712467f960e11b815285906001600160a01b0382169063e248cff290611958908d908d908d906004016147c4565b600060405180830381600087803b15801561197257600080fd5b505af1158015611986573d6000803e3d6000fd5b505050506000805160206149b48339815191528c8c6003886040516119ae9493929190614694565b60405180910390a160ff8c811660088d901b68ffffffffffffffff0016176000818152609e602090815260408083208a845290915290205490916001911660048111156119fd576119fd61442e565b1115611a1b5760405162461bcd60e51b8152600401610d85906147de565b6001600160481b0381166000908152609e6020908152604080832089845290915290208451815486929190829060ff19166001836004811115611a6057611a6061442e565b021790555060208201518154604084015160609094015164ffffffffff16600160d81b026001600160d81b0360ff909516600160d01b0260ff60d01b196001600160c81b039094166101000293909316610100600160d81b031990921691909117919091179290921691909117905550505050505050505050505050565b611ae6612dca565b6000611af0613087565b90506115f78188888888888861332f565b611b09612aa3565b611b1281612c4a565b609a60026101000a81548164ffffffffff021916908364ffffffffff16021790555050565b6001600160481b0383166000908152609e602090815260408083208584529091528082208151608081019092528054611bd3929190829060ff166004811115611b8257611b8261442e565b6004811115611b9357611b9361442e565b8152905461010081046001600160c81b03166020830152600160d01b810460ff166040830152600160d81b900464ffffffffff166060909101528361326a565b949350505050565b6000611bf46000805160206149d48339815191526125c4565b905090565b611c01612aa3565b611c11611c0c613087565b6134ba565b565b611c1b612aa3565b6000838152609c60205260409081902054905163789d771160e01b81526001600160a01b038481166004830152831515602483015290911690819063789d771190604401610cf7565b611c6c612aa3565b6040516307b7ed9960e01b81526001600160a01b0382811660048301528391908216906307b7ed99906024016115c9565b6000828152609960205260408120611cb59083613508565b9392505050565b611cc4612aa3565b828114611d135760405162461bcd60e51b815260206004820152601f60248201527f61646472735b5d2c20616d6f756e74735b5d3a2064696666206c656e677468006044820152606401610d85565b60005b83811015611eab576000858583818110611d3257611d32614663565b9050602002016020810190611d479190613f24565b6001600160a01b0316848484818110611d6257611d62614663565b9050602002013560405160006040518083038185875af1925050503d8060008114611da9576040519150601f19603f3d011682016040523d82523d6000602084013e611dae565b606091505b5050905080611dff5760405162461bcd60e51b815260206004820152601960248201527f466565206574686572207472616e73666572206661696c6564000000000000006044820152606401610d85565b7faaa40a232aaf133fdd28f3485f6fdd163514cfadbffa981f3610f42398efe34b6000878785818110611e3457611e34614663565b9050602002016020810190611e499190613f24565b868686818110611e5b57611e5b614663565b90506020020135604051611e90939291906001600160a01b039384168152919092166020820152604081019190915260600190565b60405180910390a15080611ea381614679565b915050611d16565b5050505050565b6000828152609960205260408120611cb59083613514565b611ed2612aa3565b611eda61312f565b611ef26000805160206149d483398151915282612718565b6040516001600160a01b03821681527f10e1f7ce9fd7d1b90a66d13a2ab3cb8dd7f29f3f8d520b143b063ccfbab6906b9060200161130e565b611f33612aa3565b609a805460ff191660ff92909216919091179055565b604080516080810182526000808252602080830182905282840182905260608301829052868252609c815283822054935192936001600160a01b031692611f9891889185918991899101614738565b60408051808303601f19018152828252805160209182012060ff8c811660088d901b68ffffffffffffffff0016176000818152609e8552858120848252909452928490206080860190945283549195509193929183911660048111156120005761200061442e565b60048111156120115761201161442e565b8152905461010081046001600160c81b03166020830152600160d01b810460ff166040830152600160d81b900464ffffffffff166060909101529998505050505050505050565b612060612aa3565b60405163025a3c9960e21b815282906001600160a01b03821690630968f264906115c9908590600401614725565b612096612d64565b61209e612dca565b600260a35414156120f15760405162461bcd60e51b815260206004820152601f60248201527f5265656e7472616e637947756172643a207265656e7472616e742063616c6c006044820152606401610d85565b600260a3556000838152609c602090815260408083205490516001600160a01b039091169268ffffffffffffffff00600889901b1660ff8a161792909161214091889186918991899101614738565b60408051601f1981840301815282825280516020918201206001600160481b0386166000908152609e835283812082825290925282822060808501909352825490945090929190829060ff16600481111561219d5761219d61442e565b60048111156121ae576121ae61442e565b8152905461010081046001600160c81b0316602080840191909152600160d01b820460ff16604080850191909152600160d81b90920464ffffffffff1660609093019290925260008a8152609c9092529020549091506001600160a01b03166122555760405162461bcd60e51b81526020600482015260196024820152781b9bc81a185b991b195c88199bdc881c995cdbdd5c98d95251603a1b6044820152606401610d85565b60028151600481111561226a5761226a61442e565b14156122885761227f898988888b6001612e10565b505050506125b8565b6000612292613087565b90506001826000015160048111156122ac576122ac61442e565b11156122ca5760405162461bcd60e51b8152600401610d85906147de565b6122d4828261326a565b156123195760405162461bcd60e51b81526020600482015260156024820152741c995b185e595c88185b1c9958591e481d9bdd1959605a1b6044820152606401610d85565b60008251600481111561232e5761232e61442e565b141561238e576040805160808101825260018082526000602083018190528284015264ffffffffff4316606083015291519093506000805160206149b483398151915291612381918d918d918890614694565b60405180910390a16123ef565b609a54606083015164ffffffffff620100009092048216916123b291439116612d22565b64ffffffffff1611156123ef5760048083526040516000805160206149b4833981519152916123e6918d918d918890614694565b60405180910390a15b6004825160048111156124045761240461442e565b146124d4576124296124158261328d565b83602001516001600160c81b0316176132da565b6001600160c81b03166020830152604082018051906124478261477b565b60ff1690525081516040517f25f8daaa4635a7729927ba3f5b3d59cc3320aca7c32c9db4e7ca7b957434364091612483918d918d918890614694565b60405180910390a1609a54604083015160ff61010090920482169116106124d45760028083526040516000805160206149b4833981519152916124cb918d918d918890614694565b60405180910390a15b6001600160481b0384166000908152609e6020908152604080832086845290915290208251815484929190829060ff191660018360048111156125195761251961442e565b021790555060208201518154604084015160609094015164ffffffffff16600160d81b026001600160d81b0360ff909516600160d01b0260ff60d01b196001600160c81b039094166101000293909316610100600160d81b031990921691909117919091179290921691909117905560028251600481111561259d5761259d61442e565b14156125b2576125b28a8a89898c6000612e10565b50505050505b5050600160a355505050565b6000818152609960205260408120610c1290613536565b6125e3612aa3565b6000828152609c60205260409081902080546001600160a01b0319166001600160a01b038681169182179092559151635c7d1b9b60e11b815260048101859052908316602482015284919063b8fa373690604401610cf7565b612644612aa3565b60c861264e611bdb565b106126945760405162461bcd60e51b81526020600482015260166024820152751c995b185e595c9cc81b1a5b5a5d081c995858da195960521b6044820152606401610d85565b6126ac6000805160206149d483398151915282611214565b6040516001600160a01b03821681527f03580ee9f53a62b7cb409a2cb56f9be87747dd15017afc5cef6eef321e4fb2c59060200161130e565b6126ed612aa3565b6001600160a01b03919091166000908152609d60205260409020805460ff1916911515919091179055565b600082815260996020526040902060020154612736906108a6613087565b61279b5760405162461bcd60e51b815260206004820152603060248201527f416363657373436f6e74726f6c3a2073656e646572206d75737420626520616e60448201526f2061646d696e20746f207265766f6b6560801b6064820152608401610d85565b6112a08282613540565b6127ad612aa3565b609a5460ff166000816127c2816101006145de565b6127cc91906145fd565b6000818152609c60205260409081902080546001600160a01b0319166001600160a01b038781169182179092559151635c7d1b9b60e11b8152600481018490529085166024820152919250849163b8fa373690604401600060405180830381600087803b15801561283c57600080fd5b505af1158015612850573d6000803e3d6000fd5b505060405163789d771160e01b81526001600160a01b038681166004830152600160248301528416925063789d77119150604401610cf7565b612891612aa3565b60ff82166000908152609b60205260409020546001600160401b039081169082161161290e5760405162461bcd60e51b815260206004820152602660248201527f446f6573206e6f7420616c6c6f772064656372656d656e7473206f6620746865604482015265206e6f6e636560d01b6064820152608401610d85565b60ff919091166000908152609b60205260409020805467ffffffffffffffff19166001600160401b03909216919091179055565b6000807fc4cb5d35714699d6e85b9562b644e60393b418d974a5c1dd8efaadac37a142c5898989898960405161297992919061476b565b6040519081900381206129bc959493929160200194855260ff9390931660208501526001600160401b039190911660408401526060830152608082015260a00190565b60405160208183030381529060405280519060200120905060006129df826131f8565b90506000612a238287878080601f01602080910402602001604051908101604052809392919081815260200183838082843760009201919091525061324692505050565b9050612a3d6000805160206149d483398151915282611eb2565b9b9a5050505050505050505050565b612a54612aa3565b611c11612a5f613087565b6135a9565b60ff808216600090815260a2602052604081205490911615612a96575060ff16600090815260a1602052604090205490565b5050609f5490565b919050565b612ab060006108a6613087565b611c115760405162461bcd60e51b815260206004820152601e60248201527f73656e64657220646f65736e277420686176652061646d696e20726f6c6500006044820152606401610d85565b600054610100900460ff1615808015612b1c5750600054600160ff909116105b80612b365750303b158015612b36575060005460ff166001145b612b525760405162461bcd60e51b8152600401610d8590614615565b6000805460ff191660011790558015612b75576000805461ff0019166101001790555b612b7d6135f4565b8015612bbf576000805461ff0019169055604051600181527f7f26b83ff96e1f2b6a682f133852f6798a09c465da95921460cefb38474024989060200161130e565b50565b600054610100900460ff16612be95760405162461bcd60e51b8152600401610d8590614821565b6112a082826136b9565b60006101008210612c465760405162461bcd60e51b815260206004820152601c60248201527f76616c756520646f6573206e6f742066697420696e20382062697473000000006044820152606401610d85565b5090565b6000650100000000008210612c465760405162461bcd60e51b815260206004820152601d60248201527f76616c756520646f6573206e6f742066697420696e20343020626974730000006044820152606401610d85565b6000612cab613087565b9050612cb8600082611eb2565b80612cd65750612cd66000805160206149d483398151915282611eb2565b612bbf5760405162461bcd60e51b815260206004820152601e60248201527f73656e646572206973206e6f742072656c61796572206f722061646d696e00006044820152606401610d85565b6000611cb583836040518060400160405280601e81526020017f536166654d6174683a207375627472616374696f6e206f766572666c6f7700008152506136fa565b612d7e6000805160206149d48339815191526108a6613087565b611c115760405162461bcd60e51b815260206004820181905260248201527f73656e64657220646f65736e277420686176652072656c6179657220726f6c656044820152606401610d85565b60355460ff1615611c115760405162461bcd60e51b815260206004820152601060248201526f14185d5cd8589b194e881c185d5cd95960821b6044820152606401610d85565b6000828152609c602090815260408083205490516001600160a01b039091169268ffffffffffffffff0060088a901b1660ff8b1617929091612e5a91879186918b918b9101614738565b60408051601f1981840301815291815281516020928301206001600160481b0385166000908152609e845282812082825290935291209091506002815460ff166004811115612eab57612eab61442e565b14612ef85760405162461bcd60e51b815260206004820181905260248201527f50726f706f73616c206d757374206861766520506173736564207374617475736044820152606401610d85565b805460ff19166003178155838515612f715760405163712467f960e11b81526001600160a01b0382169063e248cff290612f3a908a908d908d906004016147c4565b600060405180830381600087803b158015612f5457600080fd5b505af1158015612f68573d6000803e3d6000fd5b5050505061304e565b60405163712467f960e11b81526001600160a01b0382169063e248cff290612fa1908a908d908d906004016147c4565b600060405180830381600087803b158015612fbb57600080fd5b505af1925050508015612fcc575060015b61304e573d808015612ffa576040519150601f19603f3d011682016040523d82523d6000602084013e612fff565b606091505b50825460ff191660021783556040517fbd37c1f0d53bb2f33fe4c2104de272fcdeb4d2fef3acdbf1e4ddc3d6833ca3769061303b908390614725565b60405180910390a1505050505050610f09565b6000805160206149b48339815191528b8b6003866040516130729493929190614694565b60405180910390a15050505050505050505050565b600033601436108015906130b357506001600160a01b0381166000908152609d602052604090205460ff165b15612a9e57505036601319013560601c90565b60008281526099602052604090206130de9082613734565b156112a0576130eb613087565b6001600160a01b0316816001600160a01b0316837f2f8788117e7eff1d82e926ec794901d17c78024a50270940304540a733656f0d60405160405180910390a45050565b60355460ff16611c115760405162461bcd60e51b815260206004820152601460248201527314185d5cd8589b194e881b9bdd081c185d5cd95960621b6044820152606401610d85565b613180613087565b6001600160a01b0316816001600160a01b03161461279b5760405162461bcd60e51b815260206004820152602f60248201527f416363657373436f6e74726f6c3a2063616e206f6e6c792072656e6f756e636560448201526e103937b632b9903337b91039b2b63360891b6064820152608401610d85565b6000610c12613205613749565b8360405161190160f01b6020820152602281018390526042810182905260009060620160405160208183030381529060405280519060200120905092915050565b600080600061325585856137c4565b915091506132628161380a565b509392505050565b60008083602001516001600160c81b03166132848461328d565b16119392505050565b6001600160a01b03811660009081527f466bdf72c8d8887d601776818ca0e11d24e204c6df385da2c5ab68f6700d138d60205260408120546132d0906001612d22565b6001901b92915050565b6000600160c81b8210612c465760405162461bcd60e51b815260206004820152601e60248201527f76616c756520646f6573206e6f742066697420696e20323030206269747300006044820152606401610d85565b34600061333b88612a64565b9050613347818361486c565b91508060a0600082825461335b91906145fd565b90915550506000878152609c60205260409020546001600160a01b031680613396576040516308c231dd60e31b815260040160405180910390fd5b60ff89166000908152609b60205260408120805482906133be906001600160401b0316614883565b91906101000a8154816001600160401b0302191690836001600160401b03160217905590506000826001600160a01b031663b07e54bb868c8f8d8d6040518663ffffffff1660e01b815260040161341894939291906148aa565b60006040518083038185885af1158015613436573d6000803e3d6000fd5b50505050506040513d6000823e601f3d908101601f1916820160405261345f91908101906148df565b90508b6001600160a01b03167f17bc3181e17a9620a479c24e6c606e474ba84fc036877b768926872e8cd0e11f8c8c858d8d876040516134a49695949392919061494c565b60405180910390a2505050505050505050505050565b6134c2612dca565b6035805460ff191660011790556040516001600160a01b03821681527f62e78cea01bee320cd4e420270b5ea74000d11b0c9f74754ebdbfc544b05a2589060200161130e565b6000611cb583836139c5565b6001600160a01b03811660009081526001830160205260408120541515611cb5565b6000610c12825490565b600082815260996020526040902061355890826139ef565b156112a057613565613087565b6001600160a01b0316816001600160a01b0316837ff6391f5c32d9c69d2a47ea670b442974b53935d1edc7fd64eb21e047a839171b60405160405180910390a45050565b6135b161312f565b6035805460ff191690556040516001600160a01b03821681527f5db9ee0a495bf2e6ff9c91a7834c1ba4fdd244a5e8aa4e537bd38aeae4b073aa9060200161130e565b600054610100900460ff16158080156136145750600054600160ff909116105b8061362e5750303b15801561362e575060005460ff166001145b61364a5760405162461bcd60e51b8152600401610d8590614615565b6000805460ff19166001179055801561366d576000805461ff0019166101001790555b6035805460ff191690558015612bbf576000805461ff0019169055604051600181527f7f26b83ff96e1f2b6a682f133852f6798a09c465da95921460cefb38474024989060200161130e565b600054610100900460ff166136e05760405162461bcd60e51b8152600401610d8590614821565b815160209283012081519190920120600191909155600255565b6000818484111561371e5760405162461bcd60e51b8152600401610d859190614725565b50600061372b848661486c565b95945050505050565b6000611cb5836001600160a01b038416613a04565b6000611bf47f8b73c3c69bb8fe3d512ecc4cf759cc79239f7b179b0ffacaa9a75d522b39400f61377860015490565b6002546040805160208101859052908101839052606081018290524660808201523060a082015260009060c0016040516020818303038152906040528051906020012090509392505050565b6000808251604114156137fb5760208301516040840151606085015160001a6137ef87828585613a53565b94509450505050613803565b506000905060025b9250929050565b600081600481111561381e5761381e61442e565b14156138275750565b600181600481111561383b5761383b61442e565b14156138895760405162461bcd60e51b815260206004820152601860248201527f45434453413a20696e76616c6964207369676e617475726500000000000000006044820152606401610d85565b600281600481111561389d5761389d61442e565b14156138eb5760405162461bcd60e51b815260206004820152601f60248201527f45434453413a20696e76616c6964207369676e6174757265206c656e677468006044820152606401610d85565b60038160048111156138ff576138ff61442e565b14156139585760405162461bcd60e51b815260206004820152602260248201527f45434453413a20696e76616c6964207369676e6174757265202773272076616c604482015261756560f01b6064820152608401610d85565b600481600481111561396c5761396c61442e565b1415612bbf5760405162461bcd60e51b815260206004820152602260248201527f45434453413a20696e76616c6964207369676e6174757265202776272076616c604482015261756560f01b6064820152608401610d85565b60008260000182815481106139dc576139dc614663565b9060005260206000200154905092915050565b6000611cb5836001600160a01b038416613b40565b6000818152600183016020526040812054613a4b57508154600181810184556000848152602080822090930184905584548482528286019093526040902091909155610c12565b506000610c12565b6000807f7fffffffffffffffffffffffffffffff5d576e7357a4501ddfe92f46681b20a0831115613a8a5750600090506003613b37565b8460ff16601b14158015613aa257508460ff16601c14155b15613ab35750600090506004613b37565b6040805160008082526020820180845289905260ff881692820192909252606081018690526080810185905260019060a0016020604051602081039080840390855afa158015613b07573d6000803e3d6000fd5b5050604051601f1901519150506001600160a01b038116613b3057600060019250925050613b37565b9150600090505b94509492505050565b60008181526001830160205260408120548015613c29576000613b6460018361486c565b8554909150600090613b789060019061486c565b9050818114613bdd576000866000018281548110613b9857613b98614663565b9060005260206000200154905080876000018481548110613bbb57613bbb614663565b6000918252602080832090910192909255918252600188019052604090208390555b8554869080613bee57613bee61499d565b600190038181906000526020600020016000905590558560010160008681526020019081526020016000206000905560019350505050610c12565b6000915050610c12565b803560ff81168114612a9e57600080fd5b600060208284031215613c5657600080fd5b611cb582613c33565b634e487b7160e01b600052604160045260246000fd5b604051601f8201601f191681016001600160401b0381118282101715613c9d57613c9d613c5f565b604052919050565b60006001600160401b03821115613cbe57613cbe613c5f565b5060051b60200190565b6001600160a01b0381168114612bbf57600080fd5b8035612a9e81613cc8565b600080600080600060a08688031215613d0057600080fd5b613d0986613c33565b94506020808701356001600160401b03811115613d2557600080fd5b8701601f81018913613d3657600080fd5b8035613d49613d4482613ca5565b613c75565b81815260059190911b8201830190838101908b831115613d6857600080fd5b928401925b82841015613d8f578335613d8081613cc8565b82529284019290840190613d6d565b9750505050604087013593505060608601359150613daf60808701613cdd565b90509295509295909350565b80356001600160401b0381168114612a9e57600080fd5b600080600060608486031215613de757600080fd5b613df084613c33565b9250613dfe60208501613dbb565b9150604084013590509250925092565b60008083601f840112613e2057600080fd5b5081356001600160401b03811115613e3757600080fd5b60208301915083602082850101111561380357600080fd5b80358015158114612a9e57600080fd5b60008060008060008060a08789031215613e7857600080fd5b613e8187613c33565b9550613e8f60208801613dbb565b945060408701356001600160401b03811115613eaa57600080fd5b613eb689828a01613e0e565b90955093505060608701359150613ecf60808801613e4f565b90509295509295509295565b600060208284031215613eed57600080fd5b5035919050565b60008060408385031215613f0757600080fd5b823591506020830135613f1981613cc8565b809150509250929050565b600060208284031215613f3657600080fd5b8135611cb581613cc8565b80356001600160e01b031981168114612a9e57600080fd5b60008060008060008060c08789031215613f7257600080fd5b8635613f7d81613cc8565b9550602087013594506040870135613f9481613cc8565b9350613fa260608801613f41565b925060808701359150613ecf60a08801613f41565b60006001600160401b03821115613fd057613fd0613c5f565b50601f01601f191660200190565b600082601f830112613fef57600080fd5b8135613ffd613d4482613fb7565b81815284602083860101111561401257600080fd5b816020850160208301376000918101602001919091529392505050565b6000806040838503121561404257600080fd5b823561404d81613cc8565b915060208301356001600160401b0381111561406857600080fd5b61407485828601613fde565b9150509250929050565b6000806040838503121561409157600080fd5b61409a83613c33565b946020939093013593505050565b60008060008060008060a087890312156140c157600080fd5b6140ca87613c33565b955060206140d9818901613dbb565b95506040880135945060608801356001600160401b03808211156140fc57600080fd5b6141088b838c01613e0e565b909650945060808a013591508082111561412157600080fd5b818a0191508a601f83011261413557600080fd5b8135614143613d4482613ca5565b81815260059190911b8301840190848101908d83111561416257600080fd5b8585015b8381101561419857848135111561417c57600080fd5b61418b8f888335890101613fde565b8352918601918601614166565b508096505050505050509295509295509295565b600080600080600080608087890312156141c557600080fd5b6141ce87613c33565b95506020870135945060408701356001600160401b03808211156141f157600080fd5b6141fd8a838b01613e0e565b9096509450606089013591508082111561421657600080fd5b5061422389828a01613e0e565b979a9699509497509295939492505050565b60008060006060848603121561424a57600080fd5b83356001600160481b038116811461426157600080fd5b925060208401359150604084013561427881613cc8565b809150509250925092565b60008060006060848603121561429857600080fd5b8335925060208401356142aa81613cc8565b91506142b860408501613e4f565b90509250925092565b600080604083850312156142d457600080fd5b82356142df81613cc8565b91506020830135613f1981613cc8565b6000806040838503121561430257600080fd5b50508035926020909101359150565b60008083601f84011261432357600080fd5b5081356001600160401b0381111561433a57600080fd5b6020830191508360208260051b850101111561380357600080fd5b6000806000806040858703121561436b57600080fd5b84356001600160401b038082111561438257600080fd5b61438e88838901614311565b909650945060208701359150808211156143a757600080fd5b506143b487828801614311565b95989497509550505050565b6000806000806000608086880312156143d857600080fd5b6143e186613c33565b94506143ef60208701613dbb565b93506040860135925060608601356001600160401b0381111561441157600080fd5b61441d88828901613e0e565b969995985093965092949392505050565b634e487b7160e01b600052602160045260246000fd5b6005811061446257634e487b7160e01b600052602160045260246000fd5b9052565b6000608082019050614479828451614444565b60018060c81b03602084015116602083015260ff604084015116604083015264ffffffffff606084015116606083015292915050565b6000806000606084860312156144c457600080fd5b833561426181613cc8565b600080604083850312156144e257600080fd5b82356144ed81613cc8565b91506144fb60208401613e4f565b90509250929050565b6000806040838503121561451757600080fd5b61452083613c33565b91506144fb60208401613dbb565b600080600080600080600060a0888a03121561454957600080fd5b61455288613c33565b965061456060208901613dbb565b95506040880135945060608801356001600160401b038082111561458357600080fd5b61458f8b838c01613e0e565b909650945060808a01359150808211156145a857600080fd5b506145b58a828b01613e0e565b989b979a50959850939692959293505050565b634e487b7160e01b600052601160045260246000fd5b60008160001904831182151516156145f8576145f86145c8565b500290565b60008219821115614610576146106145c8565b500190565b6020808252602e908201527f496e697469616c697a61626c653a20636f6e747261637420697320616c72656160408201526d191e481a5b9a5d1a585b1a5e995960921b606082015260800190565b634e487b7160e01b600052603260045260246000fd5b600060001982141561468d5761468d6145c8565b5060010190565b60ff851681526001600160401b0384166020820152608081016146ba6040830185614444565b82606083015295945050505050565b60005b838110156146e45781810151838201526020016146cc565b838111156146f3576000848401525b50505050565b600081518084526147118160208601602086016146c9565b601f01601f19169290920160200192915050565b602081526000611cb560208301846146f9565b8481526bffffffffffffffffffffffff198460601b16602082015281836034830137600091016034019081529392505050565b8183823760009101908152919050565b600060ff821660ff811415614792576147926145c8565b60010192915050565b81835281816020850137506000828201602090810191909152601f909101601f19169091010190565b83815260406020820152600061372b60408301848661479b565b60208082526023908201527f70726f706f73616c20616c72656164792065786563757465642f63616e63656c6040820152621b195960ea1b606082015260800190565b6020808252602b908201527f496e697469616c697a61626c653a20636f6e7472616374206973206e6f74206960408201526a6e697469616c697a696e6760a81b606082015260800190565b60008282101561487e5761487e6145c8565b500390565b60006001600160401b03808316818114156148a0576148a06145c8565b6001019392505050565b8481526001600160a01b03841660208201526060604082018190526000906148d5908301848661479b565b9695505050505050565b6000602082840312156148f157600080fd5b81516001600160401b0381111561490757600080fd5b8201601f8101841361491857600080fd5b8051614926613d4482613fb7565b81815285602083850101111561493b57600080fd5b61372b8260208301602086016146c9565b60ff871681528560208201526001600160401b038516604082015260a06060820152600061497e60a08301858761479b565b828103608084015261499081856146f9565b9998505050505050505050565b634e487b7160e01b600052603160045260246000fdfe968626a768e76ba1363efe44e322a6c4900c5f084e0b45f35e294dfddaa9e0d5e2b7fb3b832174769106daebcfd6d1970523240dda11281102db9363b83b0dc4a2646970667358221220ba14a295906d7f0f96904c05c01480a020620e2dfb6d807bbb86cbe8d89453fc64736f6c634300080b0033",
  "linkReferences": {},
  "deployedLinkReferences": {}
}