{
  "_format": "hh-sol-artifact-1",
  "contractName": "BridgeUpgradeable",
  "sourceName": "contracts/BridgeUpgradeable.sol",
  "abi": [
    {
      "inputs": [
        {
          "internalType": "uint256",
          "name": "msgValue",
          "type": "uint256"
        },
        {
          "internalType": "uint256",
          "name": "fee",
          "type": "uint256"
        }
      ],
      "name": "IncorrectFeeSupplied",
      "type": "error"
    },
    {
      "inputs": [
        {
          "internalType": "address",
          "name": "signer",
          "type": "address"
        },
        {
          "internalType": "uint256",
          "name": "index",
          "type": "uint256"
        }
      ],
      "name": "InvalidSignature",
      "type": "error"
    },
    {
      "inputs": [],
      "name": "ResourceIDNotMappedToHandler",
      "type": "error"
    },
    {
      "anonymous": false,
      "inputs": [
        {
          "indexed": false,
          "internalType": "uint8",
          "name": "destinationDomainID",
          "type": "uint8"
        },
        {
          "indexed": false,
          "internalType": "bytes32",
          "name": "resourceID",
          "type": "bytes32"
        },
        {
          "indexed": false,
          "internalType": "uint64",
          "name": "depositNonce",
          "type": "uint64"
        },
        {
          "indexed": true,
          "internalType": "address",
          "name": "user",
          "type": "address"
        },
        {
          "indexed": false,
          "internalType": "bytes",
          "name": "data",
          "type": "bytes"
        },
        {
          "indexed": false,
          "internalType": "bytes",
          "name": "handlerResponse",
          "type": "bytes"
        }
      ],
      "name": "Deposit",
      "type": "event"
    },
    {
      "anonymous": false,
      "inputs": [
        {
          "indexed": false,
          "internalType": "bytes",
          "name": "lowLevelData",
          "type": "bytes"
        }
      ],
      "name": "FailedHandlerExecution",
      "type": "event"
    },
    {
      "anonymous": false,
      "inputs": [
        {
          "indexed": false,
          "internalType": "uint256",
          "name": "newFee",
          "type": "uint256"
        }
      ],
      "name": "FeeChanged",
      "type": "event"
    },
    {
      "anonymous": false,
      "inputs": [
        {
          "indexed": false,
          "internalType": "address",
          "name": "newFeeHandler",
          "type": "address"
        }
      ],
      "name": "FeeHandlerChanged",
      "type": "event"
    },
    {
      "anonymous": false,
      "inputs": [
        {
          "indexed": false,
          "internalType": "address",
          "name": "account",
          "type": "address"
        }
      ],
      "name": "Paused",
      "type": "event"
    },
    {
      "anonymous": false,
      "inputs": [
        {
          "indexed": false,
          "internalType": "uint8",
          "name": "originDomainID",
          "type": "uint8"
        },
        {
          "indexed": false,
          "internalType": "uint64",
          "name": "depositNonce",
          "type": "uint64"
        },
        {
          "indexed": false,
          "internalType": "enum IBridge.ProposalStatus",
          "name": "status",
          "type": "uint8"
        },
        {
          "indexed": false,
          "internalType": "bytes32",
          "name": "dataHash",
          "type": "bytes32"
        }
      ],
      "name": "ProposalEvent",
      "type": "event"
    },
    {
      "anonymous": false,
      "inputs": [
        {
          "indexed": false,
          "internalType": "uint8",
          "name": "originDomainID",
          "type": "uint8"
        },
        {
          "indexed": false,
          "internalType": "uint64",
          "name": "depositNonce",
          "type": "uint64"
        },
        {
          "indexed": false,
          "internalType": "enum IBridge.ProposalStatus",
          "name": "status",
          "type": "uint8"
        },
        {
          "indexed": false,
          "internalType": "bytes32",
          "name": "dataHash",
          "type": "bytes32"
        }
      ],
      "name": "ProposalVote",
      "type": "event"
    },
    {
      "anonymous": false,
      "inputs": [
        {
          "indexed": false,
          "internalType": "address",
          "name": "relayer",
          "type": "address"
        }
      ],
      "name": "RelayerAdded",
      "type": "event"
    },
    {
      "anonymous": false,
      "inputs": [
        {
          "indexed": false,
          "internalType": "address",
          "name": "relayer",
          "type": "address"
        }
      ],
      "name": "RelayerRemoved",
      "type": "event"
    },
    {
      "anonymous": false,
      "inputs": [
        {
          "indexed": false,
          "internalType": "uint256",
          "name": "newThreshold",
          "type": "uint256"
        }
      ],
      "name": "RelayerThresholdChanged",
      "type": "event"
    },
    {
      "anonymous": false,
      "inputs": [
        {
          "indexed": true,
          "internalType": "bytes32",
          "name": "role",
          "type": "bytes32"
        },
        {
          "indexed": true,
          "internalType": "address",
          "name": "account",
          "type": "address"
        },
        {
          "indexed": true,
          "internalType": "address",
          "name": "sender",
          "type": "address"
        }
      ],
      "name": "RoleGranted",
      "type": "event"
    },
    {
      "anonymous": false,
      "inputs": [
        {
          "indexed": true,
          "internalType": "bytes32",
          "name": "role",
          "type": "bytes32"
        },
        {
          "indexed": true,
          "internalType": "address",
          "name": "account",
          "type": "address"
        },
        {
          "indexed": true,
          "internalType": "address",
          "name": "sender",
          "type": "address"
        }
      ],
      "name": "RoleRevoked",
      "type": "event"
    },
    {
      "anonymous": false,
      "inputs": [
        {
          "indexed": false,
          "internalType": "address",
          "name": "account",
          "type": "address"
        }
      ],
      "name": "Unpaused",
      "type": "event"
    },
    {
      "inputs": [],
      "name": "DEFAULT_ADMIN_ROLE",
      "outputs": [
        {
          "internalType": "bytes32",
          "name": "",
          "type": "bytes32"
        }
      ],
      "stateMutability": "view",
      "type": "function"
    },
    {
      "inputs": [],
      "name": "MAX_RELAYERS",
      "outputs": [
        {
          "internalType": "uint256",
          "name": "",
          "type": "uint256"
        }
      ],
      "stateMutability": "view",
      "type": "function"
    },
    {
      "inputs": [],
      "name": "PERMIT_TYPEHASH",
      "outputs": [
        {
          "internalType": "bytes32",
          "name": "",
          "type": "bytes32"
        }
      ],
      "stateMutability": "view",
      "type": "function"
    },
    {
      "inputs": [],
      "name": "RELAYER_ROLE",
      "outputs": [
        {
          "internalType": "bytes32",
          "name": "",
          "type": "bytes32"
        }
      ],
      "stateMutability": "view",
      "type": "function"
    },
    {
      "inputs": [],
      "name": "_chainId",
      "outputs": [
        {
          "internalType": "uint256",
          "name": "",
          "type": "uint256"
        }
      ],
      "stateMutability": "view",
      "type": "function"
    },
    {
      "inputs": [
        {
          "internalType": "uint8",
          "name": "",
          "type": "uint8"
        }
      ],
      "name": "_depositCounts",
      "outputs": [
        {
          "internalType": "uint64",
          "name": "",
          "type": "uint64"
        }
      ],
      "stateMutability": "view",
      "type": "function"
    },
    {
      "inputs": [],
      "name": "_domainID",
      "outputs": [
        {
          "internalType": "uint8",
          "name": "",
          "type": "uint8"
        }
      ],
      "stateMutability": "view",
      "type": "function"
    },
    {
      "inputs": [],
      "name": "_expiry",
      "outputs": [
        {
          "internalType": "uint40",
          "name": "",
          "type": "uint40"
        }
      ],
      "stateMutability": "view",
      "type": "function"
    },
    {
      "inputs": [],
      "name": "_fee",
      "outputs": [
        {
          "internalType": "uint256",
          "name": "",
          "type": "uint256"
        }
      ],
      "stateMutability": "view",
      "type": "function"
    },
    {
      "inputs": [],
      "name": "_feeHandler",
      "outputs": [
        {
          "internalType": "contract IFeeHandler",
          "name": "",
          "type": "address"
        }
      ],
      "stateMutability": "view",
      "type": "function"
    },
    {
      "inputs": [],
      "name": "_feeReserve",
      "outputs": [
        {
          "internalType": "uint256",
          "name": "",
          "type": "uint256"
        }
      ],
      "stateMutability": "view",
      "type": "function"
    },
    {
      "inputs": [],
      "name": "_fee_",
      "outputs": [
        {
          "internalType": "uint256",
          "name": "",
          "type": "uint256"
        }
      ],
      "stateMutability": "view",
      "type": "function"
    },
    {
      "inputs": [
        {
          "internalType": "uint72",
          "name": "destNonce",
          "type": "uint72"
        },
        {
          "internalType": "bytes32",
          "name": "dataHash",
          "type": "bytes32"
        },
        {
          "internalType": "address",
          "name": "relayer",
          "type": "address"
        }
      ],
      "name": "_hasVotedOnProposal",
      "outputs": [
        {
          "internalType": "bool",
          "name": "",
          "type": "bool"
        }
      ],
      "stateMutability": "view",
      "type": "function"
    },
    {
      "inputs": [],
      "name": "_relayerThreshold",
      "outputs": [
        {
          "internalType": "uint8",
          "name": "",
          "type": "uint8"
        }
      ],
      "stateMutability": "view",
      "type": "function"
    },
    {
      "inputs": [
        {
          "internalType": "bytes32",
          "name": "",
          "type": "bytes32"
        }
      ],
      "name": "_resourceIDToHandlerAddress",
      "outputs": [
        {
          "internalType": "address",
          "name": "",
          "type": "address"
        }
      ],
      "stateMutability": "view",
      "type": "function"
    },
    {
      "inputs": [],
      "name": "_totalRelayers",
      "outputs": [
        {
          "internalType": "uint256",
          "name": "",
          "type": "uint256"
        }
      ],
      "stateMutability": "view",
      "type": "function"
    },
    {
      "inputs": [
        {
          "internalType": "address",
          "name": "relayerAddress",
          "type": "address"
        }
      ],
      "name": "adminAddRelayer",
      "outputs": [],
      "stateMutability": "nonpayable",
      "type": "function"
    },
    {
      "inputs": [
        {
          "internalType": "uint256",
          "name": "expiry",
          "type": "uint256"
        }
      ],
      "name": "adminChangeExpiry",
      "outputs": [],
      "stateMutability": "nonpayable",
      "type": "function"
    },
    {
      "inputs": [
        {
          "internalType": "address",
          "name": "newFeeHandler",
          "type": "address"
        }
      ],
      "name": "adminChangeFeeHandler",
      "outputs": [],
      "stateMutability": "nonpayable",
      "type": "function"
    },
    {
      "inputs": [
        {
          "internalType": "uint256",
          "name": "newThreshold",
          "type": "uint256"
        }
      ],
      "name": "adminChangeRelayerThreshold",
      "outputs": [],
      "stateMutability": "nonpayable",
      "type": "function"
    },
    {
      "inputs": [],
      "name": "adminPauseTransfers",
      "outputs": [],
      "stateMutability": "nonpayable",
      "type": "function"
    },
    {
      "inputs": [
        {
          "internalType": "address",
          "name": "relayerAddress",
          "type": "address"
        }
      ],
      "name": "adminRemoveRelayer",
      "outputs": [],
      "stateMutability": "nonpayable",
      "type": "function"
    },
    {
      "inputs": [
        {
          "internalType": "address",
          "name": "handlerAddress",
          "type": "address"
        },
        {
          "internalType": "address",
          "name": "tokenAddress",
          "type": "address"
        }
      ],
      "name": "adminSetBurnable",
      "outputs": [],
      "stateMutability": "nonpayable",
      "type": "function"
    },
    {
      "inputs": [
        {
          "internalType": "uint8",
          "name": "domainID",
          "type": "uint8"
        },
        {
          "internalType": "uint64",
          "name": "nonce",
          "type": "uint64"
        }
      ],
      "name": "adminSetDepositNonce",
      "outputs": [],
      "stateMutability": "nonpayable",
      "type": "function"
    },
    {
      "inputs": [
        {
          "internalType": "uint8",
          "name": "domainID",
          "type": "uint8"
        }
      ],
      "name": "adminSetDomainId",
      "outputs": [],
      "stateMutability": "nonpayable",
      "type": "function"
    },
    {
      "inputs": [
        {
          "internalType": "uint256",
          "name": "newFee",
          "type": "uint256"
        }
      ],
      "name": "adminSetFee",
      "outputs": [],
      "stateMutability": "nonpayable",
      "type": "function"
    },
    {
      "inputs": [
        {
          "internalType": "address",
          "name": "forwarder",
          "type": "address"
        },
        {
          "internalType": "bool",
          "name": "valid",
          "type": "bool"
        }
      ],
      "name": "adminSetForwarder",
      "outputs": [],
      "stateMutability": "nonpayable",
      "type": "function"
    },
    {
      "inputs": [
        {
          "internalType": "address",
          "name": "handlerAddress",
          "type": "address"
        },
        {
          "internalType": "bytes32",
          "name": "resourceID",
          "type": "bytes32"
        },
        {
          "internalType": "address",
          "name": "contractAddress",
          "type": "address"
        },
        {
          "internalType": "bytes4",
          "name": "depositFunctionSig",
          "type": "bytes4"
        },
        {
          "internalType": "uint256",
          "name": "depositFunctionDepositorOffset",
          "type": "uint256"
        },
        {
          "internalType": "bytes4",
          "name": "executeFunctionSig",
          "type": "bytes4"
        }
      ],
      "name": "adminSetGenericResource",
      "outputs": [],
      "stateMutability": "nonpayable",
      "type": "function"
    },
    {
      "inputs": [
        {
          "internalType": "bytes32",
          "name": "resourceID",
          "type": "bytes32"
        },
        {
          "internalType": "address",
          "name": "nativeAddress",
          "type": "address"
        },
        {
          "internalType": "bool",
          "name": "isNative",
          "type": "bool"
        }
      ],
      "name": "adminSetNative",
      "outputs": [],
      "stateMutability": "nonpayable",
      "type": "function"
    },
    {
      "inputs": [
        {
          "internalType": "address",
          "name": "handlerAddress",
          "type": "address"
        }
      ],
      "name": "adminSetNativeResource",
      "outputs": [],
      "stateMutability": "nonpayable",
      "type": "function"
    },
    {
      "inputs": [
        {
          "internalType": "address",
          "name": "handlerAddress",
          "type": "address"
        },
        {
          "internalType": "bytes32",
          "name": "resourceID",
          "type": "bytes32"
        },
        {
          "internalType": "address",
          "name": "tokenAddress",
          "type": "address"
        }
      ],
      "name": "adminSetResource",
      "outputs": [],
      "stateMutability": "nonpayable",
      "type": "function"
    },
    {
      "inputs": [
        {
          "internalType": "uint8",
          "name": "fromDomainID",
          "type": "uint8"
        },
        {
          "internalType": "uint256",
          "name": "_specialFee",
          "type": "uint256"
        }
      ],
      "name": "adminSetSpecialFee",
      "outputs": [],
      "stateMutability": "nonpayable",
      "type": "function"
    },
    {
      "inputs": [],
      "name": "adminUnpauseTransfers",
      "outputs": [],
      "stateMutability": "nonpayable",
      "type": "function"
    },
    {
      "inputs": [
        {
          "internalType": "address",
          "name": "handlerAddress",
          "type": "address"
        },
        {
          "internalType": "bytes",
          "name": "data",
          "type": "bytes"
        }
      ],
      "name": "adminWithdraw",
      "outputs": [],
      "stateMutability": "nonpayable",
      "type": "function"
    },
    {
      "inputs": [
        {
          "internalType": "address",
          "name": "handlerAddress",
          "type": "address"
        },
        {
          "internalType": "bytes",
          "name": "data",
          "type": "bytes"
        }
      ],
      "name": "adminWithdrawETH",
      "outputs": [],
      "stateMutability": "nonpayable",
      "type": "function"
    },
    {
      "inputs": [
        {
          "internalType": "uint8",
          "name": "destinationDomainID",
          "type": "uint8"
        },
        {
          "internalType": "bytes32",
          "name": "resourceID",
          "type": "bytes32"
        },
        {
          "internalType": "bytes",
          "name": "depositData",
          "type": "bytes"
        },
        {
          "internalType": "bytes",
          "name": "feeData",
          "type": "bytes"
        }
      ],
      "name": "calculateFee",
      "outputs": [
        {
          "internalType": "uint256",
          "name": "",
          "type": "uint256"
        }
      ],
      "stateMutability": "view",
      "type": "function"
    },
    {
      "inputs": [
        {
          "internalType": "uint8",
          "name": "domainID",
          "type": "uint8"
        },
        {
          "internalType": "uint64",
          "name": "depositNonce",
          "type": "uint64"
        },
        {
          "internalType": "bytes32",
          "name": "dataHash",
          "type": "bytes32"
        }
      ],
      "name": "cancelProposal",
      "outputs": [],
      "stateMutability": "nonpayable",
      "type": "function"
    },
    {
      "inputs": [
        {
          "internalType": "uint8",
          "name": "domainID",
          "type": "uint8"
        },
        {
          "internalType": "uint64",
          "name": "depositNonce",
          "type": "uint64"
        },
        {
          "internalType": "bytes32",
          "name": "resourceID",
          "type": "bytes32"
        },
        {
          "internalType": "bytes",
          "name": "data",
          "type": "bytes"
        },
        {
          "internalType": "bytes",
          "name": "signature",
          "type": "bytes"
        }
      ],
      "name": "checkSignature",
      "outputs": [
        {
          "internalType": "bool",
          "name": "",
          "type": "bool"
        }
      ],
      "stateMutability": "view",
      "type": "function"
    },
    {
      "inputs": [
        {
          "internalType": "uint8",
          "name": "destinationDomainID",
          "type": "uint8"
        },
        {
          "internalType": "bytes32",
          "name": "resourceID",
          "type": "bytes32"
        },
        {
          "internalType": "bytes",
          "name": "depositData",
          "type": "bytes"
        },
        {
          "internalType": "bytes",
          "name": "feeData",
          "type": "bytes"
        }
      ],
      "name": "deposit",
      "outputs": [],
      "stateMutability": "payable",
      "type": "function"
    },
    {
      "inputs": [
        {
          "internalType": "uint8",
          "name": "domainID",
          "type": "uint8"
        },
        {
          "internalType": "uint64",
          "name": "depositNonce",
          "type": "uint64"
        },
        {
          "internalType": "bytes",
          "name": "data",
          "type": "bytes"
        },
        {
          "internalType": "bytes32",
          "name": "resourceID",
          "type": "bytes32"
        },
        {
          "internalType": "bool",
          "name": "revertOnFail",
          "type": "bool"
        }
      ],
      "name": "executeProposal",
      "outputs": [],
      "stateMutability": "nonpayable",
      "type": "function"
    },
    {
      "inputs": [
        {
          "internalType": "uint8",
          "name": "originDomainID",
          "type": "uint8"
        },
        {
          "internalType": "uint64",
          "name": "depositNonce",
          "type": "uint64"
        },
        {
          "internalType": "bytes32",
          "name": "resourceID",
          "type": "bytes32"
        },
        {
          "internalType": "bytes",
          "name": "data",
          "type": "bytes"
        }
      ],
      "name": "getProposal",
      "outputs": [
        {
          "components": [
            {
              "internalType": "enum IBridge.ProposalStatus",
              "name": "_status",
              "type": "uint8"
            },
            {
              "internalType": "uint200",
              "name": "_yesVotes",
              "type": "uint200"
            },
            {
              "internalType": "uint8",
              "name": "_yesVotesTotal",
              "type": "uint8"
            },
            {
              "internalType": "uint40",
              "name": "_proposedBlock",
              "type": "uint40"
            }
          ],
          "internalType": "struct IBridge.Proposal",
          "name": "",
          "type": "tuple"
        }
      ],
      "stateMutability": "view",
      "type": "function"
    },
    {
      "inputs": [
        {
          "internalType": "bytes32",
          "name": "role",
          "type": "bytes32"
        }
      ],
      "name": "getRoleAdmin",
      "outputs": [
        {
          "internalType": "bytes32",
          "name": "",
          "type": "bytes32"
        }
      ],
      "stateMutability": "view",
      "type": "function"
    },
    {
      "inputs": [
        {
          "internalType": "bytes32",
          "name": "role",
          "type": "bytes32"
        },
        {
          "internalType": "uint256",
          "name": "index",
          "type": "uint256"
        }
      ],
      "name": "getRoleMember",
      "outputs": [
        {
          "internalType": "address",
          "name": "",
          "type": "address"
        }
      ],
      "stateMutability": "view",
      "type": "function"
    },
    {
      "inputs": [
        {
          "internalType": "bytes32",
          "name": "role",
          "type": "bytes32"
        }
      ],
      "name": "getRoleMemberCount",
      "outputs": [
        {
          "internalType": "uint256",
          "name": "",
          "type": "uint256"
        }
      ],
      "stateMutability": "view",
      "type": "function"
    },
    {
      "inputs": [
        {
          "internalType": "bytes32",
          "name": "role",
          "type": "bytes32"
        },
        {
          "internalType": "address",
          "name": "account",
          "type": "address"
        }
      ],
      "name": "getRoleMemberIndex",
      "outputs": [
        {
          "internalType": "uint256",
          "name": "",
          "type": "uint256"
        }
      ],
      "stateMutability": "view",
      "type": "function"
    },
    {
      "inputs": [
        {
          "internalType": "bytes32",
          "name": "role",
          "type": "bytes32"
        },
        {
          "internalType": "address",
          "name": "account",
          "type": "address"
        }
      ],
      "name": "grantRole",
      "outputs": [],
      "stateMutability": "nonpayable",
      "type": "function"
    },
    {
      "inputs": [
        {
          "internalType": "bytes32",
          "name": "role",
          "type": "bytes32"
        },
        {
          "internalType": "address",
          "name": "account",
          "type": "address"
        }
      ],
      "name": "hasRole",
      "outputs": [
        {
          "internalType": "bool",
          "name": "",
          "type": "bool"
        }
      ],
      "stateMutability": "view",
      "type": "function"
    },
    {
      "inputs": [
        {
          "internalType": "uint8",
          "name": "domainID",
          "type": "uint8"
        },
        {
          "internalType": "address[]",
          "name": "initialRelayers",
          "type": "address[]"
        },
        {
          "internalType": "uint256",
          "name": "initialRelayerThreshold",
          "type": "uint256"
        },
        {
          "internalType": "uint256",
          "name": "expiry",
          "type": "uint256"
        },
        {
          "internalType": "address",
          "name": "admin",
          "type": "address"
        }
      ],
      "name": "initialize",
      "outputs": [],
      "stateMutability": "nonpayable",
      "type": "function"
    },
    {
      "inputs": [
        {
          "internalType": "address",
          "name": "relayer",
          "type": "address"
        }
      ],
      "name": "isRelayer",
      "outputs": [
        {
          "internalType": "bool",
          "name": "",
          "type": "bool"
        }
      ],
      "stateMutability": "view",
      "type": "function"
    },
    {
      "inputs": [
        {
          "internalType": "address",
          "name": "",
          "type": "address"
        }
      ],
      "name": "isValidForwarder",
      "outputs": [
        {
          "internalType": "bool",
          "name": "",
          "type": "bool"
        }
      ],
      "stateMutability": "view",
      "type": "function"
    },
    {
      "inputs": [],
      "name": "paused",
      "outputs": [
        {
          "internalType": "bool",
          "name": "",
          "type": "bool"
        }
      ],
      "stateMutability": "view",
      "type": "function"
    },
    {
      "inputs": [
        {
          "internalType": "address",
          "name": "newAdmin",
          "type": "address"
        }
      ],
      "name": "renounceAdmin",
      "outputs": [],
      "stateMutability": "nonpayable",
      "type": "function"
    },
    {
      "inputs": [
        {
          "internalType": "bytes32",
          "name": "role",
          "type": "bytes32"
        },
        {
          "internalType": "address",
          "name": "account",
          "type": "address"
        }
      ],
      "name": "renounceRole",
      "outputs": [],
      "stateMutability": "nonpayable",
      "type": "function"
    },
    {
      "inputs": [
        {
          "internalType": "bytes32",
          "name": "role",
          "type": "bytes32"
        },
        {
          "internalType": "address",
          "name": "account",
          "type": "address"
        }
      ],
      "name": "revokeRole",
      "outputs": [],
      "stateMutability": "nonpayable",
      "type": "function"
    },
    {
      "inputs": [
        {
          "internalType": "uint8",
          "name": "",
          "type": "uint8"
        }
      ],
      "name": "special",
      "outputs": [
        {
          "internalType": "bool",
          "name": "",
          "type": "bool"
        }
      ],
      "stateMutability": "view",
      "type": "function"
    },
    {
      "inputs": [
        {
          "internalType": "uint8",
          "name": "",
          "type": "uint8"
        }
      ],
      "name": "specialFee",
      "outputs": [
        {
          "internalType": "uint256",
          "name": "",
          "type": "uint256"
        }
      ],
      "stateMutability": "view",
      "type": "function"
    },
    {
      "inputs": [
        {
          "internalType": "address",
          "name": "addr",
          "type": "address"
        },
        {
          "internalType": "uint256",
          "name": "amount",
          "type": "uint256"
        }
      ],
      "name": "transferFee",
      "outputs": [],
      "stateMutability": "nonpayable",
      "type": "function"
    },
    {
      "inputs": [
        {
          "internalType": "address payable[]",
          "name": "addrs",
          "type": "address[]"
        },
        {
          "internalType": "uint256[]",
          "name": "amounts",
          "type": "uint256[]"
        }
      ],
      "name": "transferFunds",
      "outputs": [],
      "stateMutability": "nonpayable",
      "type": "function"
    },
    {
      "inputs": [
        {
          "internalType": "uint8",
          "name": "domainID",
          "type": "uint8"
        },
        {
          "internalType": "uint64",
          "name": "depositNonce",
          "type": "uint64"
        },
        {
          "internalType": "bytes32",
          "name": "resourceID",
          "type": "bytes32"
        },
        {
          "internalType": "bytes",
          "name": "data",
          "type": "bytes"
        }
      ],
      "name": "voteProposal",
      "outputs": [],
      "stateMutability": "nonpayable",
      "type": "function"
    },
    {
      "inputs": [
        {
          "internalType": "uint8",
          "name": "domainID",
          "type": "uint8"
        },
        {
          "internalType": "uint64",
          "name": "depositNonce",
          "type": "uint64"
        },
        {
          "internalType": "bytes32",
          "name": "resourceID",
          "type": "bytes32"
        },
        {
          "internalType": "bytes",
          "name": "data",
          "type": "bytes"
        },
        {
          "internalType": "bytes[]",
          "name": "signatures",
          "type": "bytes[]"
        }
      ],
      "name": "voteProposals",
      "outputs": [],
      "stateMutability": "nonpayable",
      "type": "function"
    }
  ],
  "bytecode": "0x608060405234801561001057600080fd5b5061485c806100206000396000f3fe6080604052600436106103975760003560e01c80639010d07c116101dc578063c5b37c2211610102578063d7a9cd79116100a0578063f8c39e441161006f578063f8c39e4414610b25578063fe4648f414610b55578063fe65c4be14610b7c578063ffaac0eb14610b9c57600080fd5b8063d7a9cd7914610ab0578063e2469d4014610acf578063e7b14b5a14610aef578063edc20c3c14610b0557600080fd5b8063cb10f215116100dc578063cb10f21514610a30578063cdb0f73a14610a50578063d15ef64e14610a70578063d547741f14610a9057600080fd5b8063c5b37c22146109c1578063c5ec8970146109d6578063ca15c87314610a1057600080fd5b80639debb3bd1161017a578063b67a4aaf11610149578063b67a4aaf14610934578063bd2a182014610961578063bf363b1814610981578063c0331b3e146109a157600080fd5b80639debb3bd146108bd578063a06fbbff146108d2578063a217fddf146108f2578063a5c621f21461090757600080fd5b806393cbe783116101b657806393cbe7831461083b5780639d4d39f5146108515780639d82dd63146108715780639dd694f41461089157600080fd5b80639010d07c146107d957806391d14854146107f9578063926d7d7f1461081957600080fd5b80635e1fab0f116102c15780637d026d961161025f57806384db809f1161022e57806384db809f1461072b57806388b73be0146107795780638b63aebf146107995780638c0c2631146107b957600080fd5b80637d026d96146106c15780637febe63f146106e1578063802aabe81461070157806380ae1c281461071657600080fd5b80636e2047bc1161029b5780636e2047bc1461065b5780637292dd911461067b57806373c45c981461069b57806374773412146106ae57600080fd5b80635e1fab0f146105eb57806362abd9ce1461060b5780636d3b6eea1461063b57600080fd5b80634603ae38116103395780634f2c0aec116103085780634f2c0aec14610563578063541d5548146105835780635a1ad87c146105b35780635c975abb146105d357600080fd5b80634603ae38146104b55780634b0b919d146104d55780634e056005146105235780634e0df3f61461054357600080fd5b8063248a9ca311610375578063248a9ca3146103fe5780632f2ff15d1461044157806330adf81f1461046157806336568abe1461049557600080fd5b80630d7d75b31461039c57806317f03ce5146103be578063206a98fd146103de575b600080fd5b3480156103a857600080fd5b506103bc6103b7366004613a7a565b610bb1565b005b3480156103ca57600080fd5b506103bc6103d9366004613b64565b610d3d565b3480156103ea57600080fd5b506103bc6103f9366004613bf1565b610fcd565b34801561040a57600080fd5b5061042e610419366004613c6d565b60009081526099602052604090206002015490565b6040519081526020015b60405180910390f35b34801561044d57600080fd5b506103bc61045c366004613c86565b611254565b34801561046d57600080fd5b5061042e7fc4cb5d35714699d6e85b9562b644e60393b418d974a5c1dd8efaadac37a142c581565b3480156104a157600080fd5b506103bc6104b0366004613c86565b6112e4565b3480156104c157600080fd5b506103bc6104d0366004613cfa565b6112f6565b3480156104e157600080fd5b5061050b6104f0366004613d65565b609b602052600090815260409020546001600160401b031681565b6040516001600160401b039091168152602001610438565b34801561052f57600080fd5b506103bc61053e366004613c6d565b61139a565b34801561054f57600080fd5b5061042e61055e366004613c86565b6113fd565b34801561056f57600080fd5b506103bc61057e366004613c6d565b61142a565b34801561058f57600080fd5b506105a361059e366004613d80565b6114b9565b6040519015158152602001610438565b3480156105bf57600080fd5b506103bc6105ce366004613db5565b6114d3565b3480156105df57600080fd5b5060355460ff166105a3565b3480156105f757600080fd5b506103bc610606366004613d80565b611589565b34801561061757600080fd5b506105a3610626366004613d65565b60a26020526000908152604090205460ff1681565b34801561064757600080fd5b506103bc610656366004613e8b565b611615565b34801561066757600080fd5b506103bc610676366004613eda565b611682565b34801561068757600080fd5b506103bc610696366004613f04565b6116b5565b6103bc6106a9366004614008565b611ba4565b3480156106ba57600080fd5b504661042e565b3480156106cd57600080fd5b506103bc6106dc366004613c6d565b611bc7565b3480156106ed57600080fd5b506105a36106fc366004614091565b611bfd565b34801561070d57600080fd5b5061042e611ca1565b34801561072257600080fd5b506103bc611cbf565b34801561073757600080fd5b50610761610746366004613c6d565b609c602052600090815260409020546001600160a01b031681565b6040516001600160a01b039091168152602001610438565b34801561078557600080fd5b506103bc6107943660046140df565b611cd9565b3480156107a557600080fd5b506103bc6107b4366004613d80565b611d5e565b3480156107c557600080fd5b506103bc6107d436600461411d565b611dc4565b3480156107e557600080fd5b506107616107f436600461414b565b611dfd565b34801561080557600080fd5b506105a3610814366004613c86565b611e1c565b34801561082557600080fd5b5061042e60008051602061480783398151915281565b34801561084757600080fd5b5061042e609f5481565b34801561085d57600080fd5b5061042e61086c366004614008565b611e34565b34801561087d57600080fd5b506103bc61088c366004613d80565b611efd565b34801561089d57600080fd5b50609a546108ab9060ff1681565b60405160ff9091168152602001610438565b3480156108c957600080fd5b5061042e60c881565b3480156108de57600080fd5b506103bc6108ed366004613d65565b611f5e565b3480156108fe57600080fd5b5061042e600081565b34801561091357600080fd5b5061092761092236600461416d565b611f7c565b6040516104389190614213565b34801561094057600080fd5b5061042e61094f366004613d65565b60a16020526000908152604090205481565b34801561096d57600080fd5b506103bc61097c366004613e8b565b61208b565b34801561098d57600080fd5b506103bc61099c36600461425c565b6120c1565b3480156109ad57600080fd5b506103bc6109bc36600461416d565b612171565b3480156109cd57600080fd5b50609f5461042e565b3480156109e257600080fd5b50609a546109fa9062010000900464ffffffffff1681565b60405164ffffffffff9091168152602001610438565b348015610a1c57600080fd5b5061042e610a2b366004613c6d565b612649565b348015610a3c57600080fd5b506103bc610a4b36600461427a565b612660565b348015610a5c57600080fd5b506103bc610a6b366004613d80565b6126c1565b348015610a7c57600080fd5b506103bc610a8b36600461429a565b61276a565b348015610a9c57600080fd5b506103bc610aab366004613c86565b61279d565b348015610abc57600080fd5b50609a546108ab90610100900460ff1681565b348015610adb57600080fd5b506103bc610aea366004613d80565b61282a565b348015610afb57600080fd5b5061042e60a05481565b348015610b1157600080fd5b506103bc610b203660046142cf565b612911565b348015610b3157600080fd5b506105a3610b40366004613d80565b609d6020526000908152604090205460ff1681565b348015610b6157600080fd5b50609a5461076190600160381b90046001600160a01b031681565b348015610b8857600080fd5b506105a3610b973660046142f9565b6129ca565b348015610ba857600080fd5b506103bc612ad4565b600054610100900460ff16610bcc5760005460ff1615610bd0565b303b155b610bf55760405162461bcd60e51b8152600401610bec90614393565b60405180910390fd5b600054610100900460ff16158015610c17576000805461ffff19166101011790555b610c1f612aec565b610c686040518060400160405280600c81526020016b5065726d697442726964676560a01b815250604051806040016040528060038152602001620312e360ec1b815250612b66565b609a805460ff191660ff8816179055610c8084612b97565b609a60016101000a81548160ff021916908360ff160217905550610ca383612bee565b609a805464ffffffffff92909216620100000266ffffffffff000019909216919091179055610cd36000836112d6565b60005b8551811015610d2257610d10600080516020614807833981519152878381518110610d0357610d036143e1565b6020026020010151611254565b80610d1a8161440d565b915050610cd6565b508015610d35576000805461ff00191690555b505050505050565b610d45612c45565b60ff838116600884901b68ffffffffffffffff0016176000818152609e60209081526040808320868452909152808220815160808101909252805493949293919290918391166004811115610d9c57610d9c6141db565b6004811115610dad57610dad6141db565b8152905461010081046001600160c81b03166020830152600160d01b810460ff166040830152600160d81b900464ffffffffff1660609091015280519091506001816004811115610e0057610e006141db565b1480610e1d57506002816004811115610e1b57610e1b6141db565b145b610e695760405162461bcd60e51b815260206004820152601c60248201527f50726f706f73616c2063616e6e6f742062652063616e63656c6c6564000000006044820152606401610bec565b609a54606083015164ffffffffff62010000909204821691610e8d91439116612cc6565b64ffffffffff1611610ee15760405162461bcd60e51b815260206004820181905260248201527f50726f706f73616c206e6f7420617420657870697279207468726573686f6c646044820152606401610bec565b60048083526001600160481b0384166000908152609e602090815260408083208884529091529020835181548593839160ff1916906001908490811115610f2a57610f2a6141db565b02179055506020820151815460408085015160609095015164ffffffffff16600160d81b026001600160d81b0360ff909616600160d01b0260ff60d01b196001600160c81b039095166101000294909416610100600160d81b0319909316929092179290921793909316929092179055516000805160206147e783398151915290610fbd90889088906004908990614428565b60405180910390a1505050505050565b610fd5612d08565b610fdd612d6e565b6000828152609c602090815260408083205490516001600160a01b039091169268ffffffffffffffff0060088a901b1660ff8b161792909161102791879186918b918b910161445d565b60408051601f1981840301815291815281516020928301206001600160481b0385166000908152609e845282812082825290935291209091506002815460ff166004811115611078576110786141db565b146110c55760405162461bcd60e51b815260206004820181905260248201527f50726f706f73616c206d757374206861766520506173736564207374617475736044820152606401610bec565b805460ff1916600317815583851561113e5760405163712467f960e11b81526001600160a01b0382169063e248cff290611107908a908d908d906004016144b9565b600060405180830381600087803b15801561112157600080fd5b505af1158015611135573d6000803e3d6000fd5b5050505061121b565b60405163712467f960e11b81526001600160a01b0382169063e248cff29061116e908a908d908d906004016144b9565b600060405180830381600087803b15801561118857600080fd5b505af1925050508015611199575060015b61121b573d8080156111c7576040519150601f19603f3d011682016040523d82523d6000602084013e6111cc565b606091505b50825460ff191660021783556040517fbd37c1f0d53bb2f33fe4c2104de272fcdeb4d2fef3acdbf1e4ddc3d6833ca3769061120890839061452f565b60405180910390a1505050505050610d35565b6000805160206147e78339815191528b8b60038660405161123f9493929190614428565b60405180910390a15050505050505050505050565b60008281526099602052604090206002015461127290610814612db4565b6112d65760405162461bcd60e51b815260206004820152602f60248201527f416363657373436f6e74726f6c3a2073656e646572206d75737420626520616e60448201526e0818591b5a5b881d1bc819dc985b9d608a1b6064820152608401610bec565b6112e08282612df5565b5050565b6112ec612e5e565b6112e08282612ea7565b6112fe612f27565b60005b838110156113935784848281811061131b5761131b6143e1565b90506020020160208101906113309190613d80565b6001600160a01b03166108fc84848481811061134e5761134e6143e1565b905060200201359081150290604051600060405180830381858888f19350505050158015611380573d6000803e3d6000fd5b508061138b8161440d565b915050611301565b5050505050565b6113a2612f27565b6113ab81612b97565b609a805460ff929092166101000261ff00199092169190911790556040518181527fa20d6b84cd798a24038be305eff8a45ca82ef54a2aa2082005d8e14c0a4746c8906020015b60405180910390a150565b60008281526099602090815260408083206001600160a01b03851684526001019091529020545b92915050565b611432612f27565b80609f5414156114845760405162461bcd60e51b815260206004820152601f60248201527f43757272656e742066656520697320657175616c20746f206e657720666565006044820152606401610bec565b609f8190556040518181527f6bbc57480a46553fa4d156ce702beef5f3ad66303b0ed1a5d4cb44966c6584c3906020016113f2565b600061142460008051602061480783398151915283611e1c565b6114db612f27565b6000858152609c60205260409081902080546001600160a01b0319166001600160a01b03898116918217909255915163de319d9960e01b81526004810188905290861660248201526001600160e01b03198086166044830152606482018590528316608482015287919063de319d999060a401600060405180830381600087803b15801561156857600080fd5b505af115801561157c573d6000803e3d6000fd5b5050505050505050505050565b611591612f27565b600061159b612db4565b9050816001600160a01b0316816001600160a01b031614156115ff5760405162461bcd60e51b815260206004820152601760248201527f43616e6e6f742072656e6f756e6365206f6e6573656c660000000000000000006044820152606401610bec565b61160a600083611254565b6112e06000826112e4565b61161d612f27565b60405163ab5c7bf160e01b815282906001600160a01b0382169063ab5c7bf19061164b90859060040161452f565b600060405180830381600087803b15801561166557600080fd5b505af1158015611679573d6000803e3d6000fd5b50505050505050565b61168a612f27565b60ff909116600090815260a260209081526040808320805460ff1916600117905560a1909152902055565b6116bd612d6e565b6000848152609c60205260409020546001600160a01b03168061171e5760405162461bcd60e51b81526020600482015260196024820152781b9bc81a185b991b195c88199bdc881c995cdbdd5c98d95251603a1b6044820152606401610bec565b600085828686604051602001611737949392919061445d565b60408051808303601f1901815291905280516020909101208351609a5491925090610100900460ff168110156117bd5760405162461bcd60e51b815260206004820152602560248201527f5369676e617475726573206c656e677468203e3d2072656c61796572546872656044820152641cda1bdb1960da1b6064820152608401610bec565b604080516080810182526001815260006020820181905281830181905264ffffffffff431660608301529151909190611883907fc4cb5d35714699d6e85b9562b644e60393b418d974a5c1dd8efaadac37a142c5908d908d908d90611825908e908e90614542565b604051908190038120611868959493929160200194855260ff9390931660208501526001600160401b039190911660408401526060830152608082015260a00190565b60405160208183030381529060405280519060200120612f80565b905060005b838110156119e75760006118b5838984815181106118a8576118a86143e1565b6020026020010151612fce565b90506118cf60008051602061480783398151915282611e1c565b6118fe5760405163c41f0f6960e01b81526001600160a01b038216600482015260248101839052604401610bec565b6119088482612ff2565b1561194d5760405162461bcd60e51b81526020600482015260156024820152741c995b185e595c88185b1c9958591e481d9bdd1959605a1b6044820152606401610bec565b61196d61195982613015565b85602001516001600160c81b031617613043565b6001600160c81b031660208501526040840180519061198b82614552565b60ff1660ff16815250507f25f8daaa4635a7729927ba3f5b3d59cc3320aca7c32c9db4e7ca7b95743436408d8d8660000151896040516119ce9493929190614428565b60405180910390a1506119e08161440d565b9050611888565b506003825260405163712467f960e11b815285906001600160a01b0382169063e248cff290611a1e908d908d908d906004016144b9565b600060405180830381600087803b158015611a3857600080fd5b505af1158015611a4c573d6000803e3d6000fd5b505050506000805160206147e78339815191528c8c600388604051611a749493929190614428565b60405180910390a160ff8c811660088d901b68ffffffffffffffff0016176000818152609e602090815260408083208a84529091529020549091600191166004811115611ac357611ac36141db565b1115611ae15760405162461bcd60e51b8152600401610bec90614572565b6001600160481b0381166000908152609e6020908152604080832089845290915290208451815486929190829060ff19166001836004811115611b2657611b266141db565b021790555060208201518154604084015160609094015164ffffffffff16600160d81b026001600160d81b0360ff909516600160d01b0260ff60d01b196001600160c81b039094166101000293909316610100600160d81b031990921691909117919091179290921691909117905550505050505050505050505050565b611bac612d6e565b6000611bb6612db4565b905061167981888888888888613098565b611bcf612f27565b611bd881612bee565b609a60026101000a81548164ffffffffff021916908364ffffffffff16021790555050565b6001600160481b0383166000908152609e602090815260408083208584529091528082208151608081019092528054611c99929190829060ff166004811115611c4857611c486141db565b6004811115611c5957611c596141db565b8152905461010081046001600160c81b03166020830152600160d01b810460ff166040830152600160d81b900464ffffffffff1660609091015283612ff2565b949350505050565b6000611cba600080516020614807833981519152612649565b905090565b611cc7612f27565b611cd7611cd2612db4565b61324e565b565b611ce1612f27565b6000838152609c60205260409081902054905163789d771160e01b81526001600160a01b038481166004830152831515602483015290911690819063789d7711906044015b600060405180830381600087803b158015611d4057600080fd5b505af1158015611d54573d6000803e3d6000fd5b5050505050505050565b611d66612f27565b609a8054670100000000000000600160d81b031916600160381b6001600160a01b038416908102919091179091556040519081527f729170bd142e4965055b26a285faeedf03baf2b915bfc5a7c75d24b45815ff2c906020016113f2565b611dcc612f27565b6040516307b7ed9960e01b81526001600160a01b0382811660048301528391908216906307b7ed999060240161164b565b6000828152609960205260408120611e15908361329c565b9392505050565b6000828152609960205260408120611e1590836132a8565b600080611e3f612db4565b609a54909150600160381b90046001600160a01b031615611eed57609a5460405163ef4f081f60e01b81526000916001600160a01b03600160381b8204169163ef4f081f91611ea291869160ff16908e908e908e908e908e908e906004016145b5565b6040805180830381865afa158015611ebe573d6000803e3d6000fd5b505050506040513d601f19601f82011682018060405250810190611ee29190614602565b509250611ef3915050565b60009150505b9695505050505050565b611f05612f27565b611f0d612e5e565b611f256000805160206148078339815191528261279d565b6040516001600160a01b03821681527f10e1f7ce9fd7d1b90a66d13a2ab3cb8dd7f29f3f8d520b143b063ccfbab6906b906020016113f2565b611f66612f27565b609a805460ff191660ff92909216919091179055565b604080516080810182526000808252602080830182905282840182905260608301829052868252609c815283822054935192936001600160a01b031692611fcb9188918591899189910161445d565b60408051808303601f19018152828252805160209182012060ff8c811660088d901b68ffffffffffffffff0016176000818152609e855285812084825290945292849020608086019094528354919550919392918391166004811115612033576120336141db565b6004811115612044576120446141db565b8152905461010081046001600160c81b03166020830152600160d01b810460ff166040830152600160d81b900464ffffffffff166060909101529998505050505050505050565b612093612f27565b60405163025a3c9960e21b815282906001600160a01b03821690630968f2649061164b90859060040161452f565b6120c9612f27565b6000826001600160a01b03168260405160006040518083038185875af1925050503d8060008114612116576040519150601f19603f3d011682016040523d82523d6000602084013e61211b565b606091505b505090508061216c5760405162461bcd60e51b815260206004820152601960248201527f466565206574686572207472616e73666572206661696c6564000000000000006044820152606401610bec565b505050565b612179612d08565b612181612d6e565b6000838152609c602090815260408083205490516001600160a01b039091169268ffffffffffffffff00600889901b1660ff8a16179290916121cb9188918691899189910161445d565b60408051601f1981840301815282825280516020918201206001600160481b0386166000908152609e835283812082825290925282822060808501909352825490945090929190829060ff166004811115612228576122286141db565b6004811115612239576122396141db565b8152905461010081046001600160c81b0316602080840191909152600160d01b820460ff16604080850191909152600160d81b90920464ffffffffff1660609093019290925260008a8152609c9092529020549091506001600160a01b03166122e05760405162461bcd60e51b81526020600482015260196024820152781b9bc81a185b991b195c88199bdc881c995cdbdd5c98d95251603a1b6044820152606401610bec565b6002815160048111156122f5576122f56141db565b14156123135761230a898988888b6001610fcd565b50505050611393565b600061231d612db4565b9050600182600001516004811115612337576123376141db565b11156123555760405162461bcd60e51b8152600401610bec90614572565b61235f8282612ff2565b156123a45760405162461bcd60e51b81526020600482015260156024820152741c995b185e595c88185b1c9958591e481d9bdd1959605a1b6044820152606401610bec565b6000825160048111156123b9576123b96141db565b1415612419576040805160808101825260018082526000602083018190528284015264ffffffffff4316606083015291519093506000805160206147e78339815191529161240c918d918d918890614428565b60405180910390a161247a565b609a54606083015164ffffffffff6201000090920482169161243d91439116612cc6565b64ffffffffff16111561247a5760048083526040516000805160206147e783398151915291612471918d918d918890614428565b60405180910390a15b60048251600481111561248f5761248f6141db565b1461255f576124b46124a082613015565b83602001516001600160c81b031617613043565b6001600160c81b03166020830152604082018051906124d282614552565b60ff1690525081516040517f25f8daaa4635a7729927ba3f5b3d59cc3320aca7c32c9db4e7ca7b95743436409161250e918d918d918890614428565b60405180910390a1609a54604083015160ff610100909204821691161061255f5760028083526040516000805160206147e783398151915291612556918d918d918890614428565b60405180910390a15b6001600160481b0384166000908152609e6020908152604080832086845290915290208251815484929190829060ff191660018360048111156125a4576125a46141db565b021790555060208201518154604084015160609094015164ffffffffff16600160d81b026001600160d81b0360ff909516600160d01b0260ff60d01b196001600160c81b039094166101000293909316610100600160d81b0319909216919091179190911792909216919091179055600282516004811115612628576126286141db565b141561263d5761263d8a8a89898c6000610fcd565b50505050505050505050565b6000818152609960205260408120611424906132ca565b612668612f27565b6000828152609c60205260409081902080546001600160a01b0319166001600160a01b038681169182179092559151635c7d1b9b60e11b815260048101859052908316602482015284919063b8fa373690604401611d26565b6126c9612f27565b60c86126d3611ca1565b106127195760405162461bcd60e51b81526020600482015260166024820152751c995b185e595c9cc81b1a5b5a5d081c995858da195960521b6044820152606401610bec565b61273160008051602061480783398151915282611254565b6040516001600160a01b03821681527f03580ee9f53a62b7cb409a2cb56f9be87747dd15017afc5cef6eef321e4fb2c5906020016113f2565b612772612f27565b6001600160a01b03919091166000908152609d60205260409020805460ff1916911515919091179055565b6000828152609960205260409020600201546127bb90610814612db4565b6128205760405162461bcd60e51b815260206004820152603060248201527f416363657373436f6e74726f6c3a2073656e646572206d75737420626520616e60448201526f2061646d696e20746f207265766f6b6560801b6064820152608401610bec565b6112e082826132d4565b612832612f27565b609a5460019060009060ff1661284a83610100614627565b6128549190614646565b6000818152609c60205260409081902080546001600160a01b0319166001600160a01b038781169182179092559151635c7d1b9b60e11b8152600481018490529085166024820152919250849163b8fa373690604401600060405180830381600087803b1580156128c457600080fd5b505af11580156128d8573d6000803e3d6000fd5b505060405163789d771160e01b81526001600160a01b038681166004830152600160248301528416925063789d77119150604401611d26565b612919612f27565b60ff82166000908152609b60205260409020546001600160401b03908116908216116129965760405162461bcd60e51b815260206004820152602660248201527f446f6573206e6f7420616c6c6f772064656372656d656e7473206f6620746865604482015265206e6f6e636560d01b6064820152608401610bec565b60ff919091166000908152609b60205260409020805467ffffffffffffffff19166001600160401b03909216919091179055565b6000807fc4cb5d35714699d6e85b9562b644e60393b418d974a5c1dd8efaadac37a142c58989898989604051612a01929190614542565b604051908190038120612a44959493929160200194855260ff9390931660208501526001600160401b039190911660408401526060830152608082015260a00190565b6040516020818303038152906040528051906020012090506000612a6782612f80565b90506000612aab8287878080601f016020809104026020016040519081016040528093929190818152602001838380828437600092019190915250612fce92505050565b9050612ac560008051602061480783398151915282611e1c565b9b9a5050505050505050505050565b612adc612f27565b611cd7612ae7612db4565b61333d565b600054610100900460ff16612b075760005460ff1615612b0b565b303b155b612b275760405162461bcd60e51b8152600401610bec90614393565b600054610100900460ff16158015612b49576000805461ffff19166101011790555b612b51613388565b8015612b63576000805461ff00191690555b50565b600054610100900460ff16612b8d5760405162461bcd60e51b8152600401610bec9061465e565b6112e08282613403565b60006101008210612bea5760405162461bcd60e51b815260206004820152601c60248201527f76616c756520646f6573206e6f742066697420696e20382062697473000000006044820152606401610bec565b5090565b6000650100000000008210612bea5760405162461bcd60e51b815260206004820152601d60248201527f76616c756520646f6573206e6f742066697420696e20343020626974730000006044820152606401610bec565b6000612c4f612db4565b9050612c5c600082611e1c565b80612c7a5750612c7a60008051602061480783398151915282611e1c565b612b635760405162461bcd60e51b815260206004820152601e60248201527f73656e646572206973206e6f742072656c61796572206f722061646d696e00006044820152606401610bec565b6000611e1583836040518060400160405280601e81526020017f536166654d6174683a207375627472616374696f6e206f766572666c6f770000815250613444565b612d22600080516020614807833981519152610814612db4565b611cd75760405162461bcd60e51b815260206004820181905260248201527f73656e64657220646f65736e277420686176652072656c6179657220726f6c656044820152606401610bec565b60355460ff1615611cd75760405162461bcd60e51b815260206004820152601060248201526f14185d5cd8589b194e881c185d5cd95960821b6044820152606401610bec565b60003360143610801590612de057506001600160a01b0381166000908152609d602052604090205460ff165b15612df0575060131936013560601c5b919050565b6000828152609960205260409020612e0d908261347e565b156112e057612e1a612db4565b6001600160a01b0316816001600160a01b0316837f2f8788117e7eff1d82e926ec794901d17c78024a50270940304540a733656f0d60405160405180910390a45050565b60355460ff16611cd75760405162461bcd60e51b815260206004820152601460248201527314185d5cd8589b194e881b9bdd081c185d5cd95960621b6044820152606401610bec565b612eaf612db4565b6001600160a01b0316816001600160a01b0316146128205760405162461bcd60e51b815260206004820152602f60248201527f416363657373436f6e74726f6c3a2063616e206f6e6c792072656e6f756e636560448201526e103937b632b9903337b91039b2b63360891b6064820152608401610bec565b612f346000610814612db4565b611cd75760405162461bcd60e51b815260206004820152601e60248201527f73656e64657220646f65736e277420686176652061646d696e20726f6c6500006044820152606401610bec565b6000611424612f8d613493565b8360405161190160f01b6020820152602281018390526042810182905260009060620160405160208183030381529060405280519060200120905092915050565b6000806000612fdd858561350e565b91509150612fea8161357e565b509392505050565b60008083602001516001600160c81b031661300c84613015565b16119392505050565b6000613039613032600080516020614807833981519152846113fd565b6001612cc6565b6001901b92915050565b6000600160c81b8210612bea5760405162461bcd60e51b815260206004820152601e60248201527f76616c756520646f6573206e6f742066697420696e20323030206269747300006044820152606401610bec565b60ff808716600090815260a260205260408120543492166130bb57609f546130cf565b60ff8816600090815260a160205260409020545b90506130db81836146a9565b91508060a060008282546130ef9190614646565b90915550506000878152609c60205260409020546001600160a01b03168061312a576040516308c231dd60e31b815260040160405180910390fd5b60ff89166000908152609b6020526040812080548290613152906001600160401b03166146c0565b91906101000a8154816001600160401b0302191690836001600160401b03160217905590506000826001600160a01b031663b07e54bb868c8f8d8d6040518663ffffffff1660e01b81526004016131ac94939291906146e7565b60006040518083038185885af11580156131ca573d6000803e3d6000fd5b50505050506040513d6000823e601f3d908101601f191682016040526131f39190810190614712565b90508b6001600160a01b03167f17bc3181e17a9620a479c24e6c606e474ba84fc036877b768926872e8cd0e11f8c8c858d8d876040516132389695949392919061477f565b60405180910390a2505050505050505050505050565b613256612d6e565b6035805460ff191660011790556040516001600160a01b03821681527f62e78cea01bee320cd4e420270b5ea74000d11b0c9f74754ebdbfc544b05a258906020016113f2565b6000611e158383613739565b6001600160a01b03811660009081526001830160205260408120541515611e15565b6000611424825490565b60008281526099602052604090206132ec9082613763565b156112e0576132f9612db4565b6001600160a01b0316816001600160a01b0316837ff6391f5c32d9c69d2a47ea670b442974b53935d1edc7fd64eb21e047a839171b60405160405180910390a45050565b613345612e5e565b6035805460ff191690556040516001600160a01b03821681527f5db9ee0a495bf2e6ff9c91a7834c1ba4fdd244a5e8aa4e537bd38aeae4b073aa906020016113f2565b600054610100900460ff166133a35760005460ff16156133a7565b303b155b6133c35760405162461bcd60e51b8152600401610bec90614393565b600054610100900460ff161580156133e5576000805461ffff19166101011790555b6035805460ff191690558015612b63576000805461ff001916905550565b600054610100900460ff1661342a5760405162461bcd60e51b8152600401610bec9061465e565b815160209283012081519190920120600191909155600255565b600081848411156134685760405162461bcd60e51b8152600401610bec919061452f565b50600061347584866146a9565b95945050505050565b6000611e15836001600160a01b038416613778565b6000611cba7f8b73c3c69bb8fe3d512ecc4cf759cc79239f7b179b0ffacaa9a75d522b39400f6134c260015490565b6002546040805160208101859052908101839052606081018290524660808201523060a082015260009060c0016040516020818303038152906040528051906020012090509392505050565b6000808251604114156135455760208301516040840151606085015160001a613539878285856137c7565b94509450505050613577565b82516040141561356f57602083015160408401516135648683836138b4565b935093505050613577565b506000905060025b9250929050565b6000816004811115613592576135926141db565b141561359b5750565b60018160048111156135af576135af6141db565b14156135fd5760405162461bcd60e51b815260206004820152601860248201527f45434453413a20696e76616c6964207369676e617475726500000000000000006044820152606401610bec565b6002816004811115613611576136116141db565b141561365f5760405162461bcd60e51b815260206004820152601f60248201527f45434453413a20696e76616c6964207369676e6174757265206c656e677468006044820152606401610bec565b6003816004811115613673576136736141db565b14156136cc5760405162461bcd60e51b815260206004820152602260248201527f45434453413a20696e76616c6964207369676e6174757265202773272076616c604482015261756560f01b6064820152608401610bec565b60048160048111156136e0576136e06141db565b1415612b635760405162461bcd60e51b815260206004820152602260248201527f45434453413a20696e76616c6964207369676e6174757265202776272076616c604482015261756560f01b6064820152608401610bec565b6000826000018281548110613750576137506143e1565b9060005260206000200154905092915050565b6000611e15836001600160a01b0384166138ed565b60008181526001830160205260408120546137bf57508154600181810184556000848152602080822090930184905584548482528286019093526040902091909155611424565b506000611424565b6000807f7fffffffffffffffffffffffffffffff5d576e7357a4501ddfe92f46681b20a08311156137fe57506000905060036138ab565b8460ff16601b1415801561381657508460ff16601c14155b1561382757506000905060046138ab565b6040805160008082526020820180845289905260ff881692820192909252606081018690526080810185905260019060a0016020604051602081039080840390855afa15801561387b573d6000803e3d6000fd5b5050604051601f1901519150506001600160a01b0381166138a4576000600192509250506138ab565b9150600090505b94509492505050565b6000806001600160ff1b038316816138d160ff86901c601b614646565b90506138df878288856137c7565b935093505050935093915050565b600081815260018301602052604081205480156139d65760006139116001836146a9565b8554909150600090613925906001906146a9565b905081811461398a576000866000018281548110613945576139456143e1565b9060005260206000200154905080876000018481548110613968576139686143e1565b6000918252602080832090910192909255918252600188019052604090208390555b855486908061399b5761399b6147d0565b600190038181906000526020600020016000905590558560010160008681526020019081526020016000206000905560019350505050611424565b6000915050611424565b803560ff81168114612df057600080fd5b634e487b7160e01b600052604160045260246000fd5b604051601f8201601f191681016001600160401b0381118282101715613a2f57613a2f6139f1565b604052919050565b60006001600160401b03821115613a5057613a506139f1565b5060051b60200190565b6001600160a01b0381168114612b6357600080fd5b8035612df081613a5a565b600080600080600060a08688031215613a9257600080fd5b613a9b866139e0565b94506020808701356001600160401b03811115613ab757600080fd5b8701601f81018913613ac857600080fd5b8035613adb613ad682613a37565b613a07565b81815260059190911b8201830190838101908b831115613afa57600080fd5b928401925b82841015613b21578335613b1281613a5a565b82529284019290840190613aff565b9750505050604087013593505060608601359150613b4160808701613a6f565b90509295509295909350565b80356001600160401b0381168114612df057600080fd5b600080600060608486031215613b7957600080fd5b613b82846139e0565b9250613b9060208501613b4d565b9150604084013590509250925092565b60008083601f840112613bb257600080fd5b5081356001600160401b03811115613bc957600080fd5b60208301915083602082850101111561357757600080fd5b80358015158114612df057600080fd5b60008060008060008060a08789031215613c0a57600080fd5b613c13876139e0565b9550613c2160208801613b4d565b945060408701356001600160401b03811115613c3c57600080fd5b613c4889828a01613ba0565b90955093505060608701359150613c6160808801613be1565b90509295509295509295565b600060208284031215613c7f57600080fd5b5035919050565b60008060408385031215613c9957600080fd5b823591506020830135613cab81613a5a565b809150509250929050565b60008083601f840112613cc857600080fd5b5081356001600160401b03811115613cdf57600080fd5b6020830191508360208260051b850101111561357757600080fd5b60008060008060408587031215613d1057600080fd5b84356001600160401b0380821115613d2757600080fd5b613d3388838901613cb6565b90965094506020870135915080821115613d4c57600080fd5b50613d5987828801613cb6565b95989497509550505050565b600060208284031215613d7757600080fd5b611e15826139e0565b600060208284031215613d9257600080fd5b8135611e1581613a5a565b80356001600160e01b031981168114612df057600080fd5b60008060008060008060c08789031215613dce57600080fd5b8635613dd981613a5a565b9550602087013594506040870135613df081613a5a565b9350613dfe60608801613d9d565b925060808701359150613c6160a08801613d9d565b60006001600160401b03821115613e2c57613e2c6139f1565b50601f01601f191660200190565b600082601f830112613e4b57600080fd5b8135613e59613ad682613e13565b818152846020838601011115613e6e57600080fd5b816020850160208301376000918101602001919091529392505050565b60008060408385031215613e9e57600080fd5b8235613ea981613a5a565b915060208301356001600160401b03811115613ec457600080fd5b613ed085828601613e3a565b9150509250929050565b60008060408385031215613eed57600080fd5b613ef6836139e0565b946020939093013593505050565b60008060008060008060a08789031215613f1d57600080fd5b613f26876139e0565b95506020613f35818901613b4d565b95506040880135945060608801356001600160401b0380821115613f5857600080fd5b613f648b838c01613ba0565b909650945060808a0135915080821115613f7d57600080fd5b818a0191508a601f830112613f9157600080fd5b8135613f9f613ad682613a37565b81815260059190911b8301840190848101908d831115613fbe57600080fd5b8585015b83811015613ff4578481351115613fd857600080fd5b613fe78f888335890101613e3a565b8352918601918601613fc2565b508096505050505050509295509295509295565b6000806000806000806080878903121561402157600080fd5b61402a876139e0565b95506020870135945060408701356001600160401b038082111561404d57600080fd5b6140598a838b01613ba0565b9096509450606089013591508082111561407257600080fd5b5061407f89828a01613ba0565b979a9699509497509295939492505050565b6000806000606084860312156140a657600080fd5b83356001600160481b03811681146140bd57600080fd5b92506020840135915060408401356140d481613a5a565b809150509250925092565b6000806000606084860312156140f457600080fd5b83359250602084013561410681613a5a565b915061411460408501613be1565b90509250925092565b6000806040838503121561413057600080fd5b823561413b81613a5a565b91506020830135613cab81613a5a565b6000806040838503121561415e57600080fd5b50508035926020909101359150565b60008060008060006080868803121561418557600080fd5b61418e866139e0565b945061419c60208701613b4d565b93506040860135925060608601356001600160401b038111156141be57600080fd5b6141ca88828901613ba0565b969995985093965092949392505050565b634e487b7160e01b600052602160045260246000fd5b6005811061420f57634e487b7160e01b600052602160045260246000fd5b9052565b60006080820190506142268284516141f1565b60018060c81b03602084015116602083015260ff604084015116604083015264ffffffffff606084015116606083015292915050565b6000806040838503121561426f57600080fd5b8235613ef681613a5a565b60008060006060848603121561428f57600080fd5b83356140bd81613a5a565b600080604083850312156142ad57600080fd5b82356142b881613a5a565b91506142c660208401613be1565b90509250929050565b600080604083850312156142e257600080fd5b6142eb836139e0565b91506142c660208401613b4d565b600080600080600080600060a0888a03121561431457600080fd5b61431d886139e0565b965061432b60208901613b4d565b95506040880135945060608801356001600160401b038082111561434e57600080fd5b61435a8b838c01613ba0565b909650945060808a013591508082111561437357600080fd5b506143808a828b01613ba0565b989b979a50959850939692959293505050565b6020808252602e908201527f496e697469616c697a61626c653a20636f6e747261637420697320616c72656160408201526d191e481a5b9a5d1a585b1a5e995960921b606082015260800190565b634e487b7160e01b600052603260045260246000fd5b634e487b7160e01b600052601160045260246000fd5b6000600019821415614421576144216143f7565b5060010190565b60ff851681526001600160401b03841660208201526080810161444e60408301856141f1565b82606083015295945050505050565b8481526bffffffffffffffffffffffff198460601b16602082015281836034830137600091016034019081529392505050565b81835281816020850137506000828201602090810191909152601f909101601f19169091010190565b838152604060208201526000613475604083018486614490565b60005b838110156144ee5781810151838201526020016144d6565b838111156144fd576000848401525b50505050565b6000815180845261451b8160208601602086016144d3565b601f01601f19169290920160200192915050565b602081526000611e156020830184614503565b8183823760009101908152919050565b600060ff821660ff811415614569576145696143f7565b60010192915050565b60208082526023908201527f70726f706f73616c20616c72656164792065786563757465642f63616e63656c6040820152621b195960ea1b606082015260800190565b60018060a01b038916815260ff8816602082015260ff8716604082015285606082015260c0608082015260006145ef60c083018688614490565b82810360a0840152612ac5818587614490565b6000806040838503121561461557600080fd5b825191506020830151613cab81613a5a565b6000816000190483118215151615614641576146416143f7565b500290565b60008219821115614659576146596143f7565b500190565b6020808252602b908201527f496e697469616c697a61626c653a20636f6e7472616374206973206e6f74206960408201526a6e697469616c697a696e6760a81b606082015260800190565b6000828210156146bb576146bb6143f7565b500390565b60006001600160401b03808316818114156146dd576146dd6143f7565b6001019392505050565b8481526001600160a01b0384166020820152606060408201819052600090611ef39083018486614490565b60006020828403121561472457600080fd5b81516001600160401b0381111561473a57600080fd5b8201601f8101841361474b57600080fd5b8051614759613ad682613e13565b81815285602083850101111561476e57600080fd5b6134758260208301602086016144d3565b60ff871681528560208201526001600160401b038516604082015260a0606082015260006147b160a083018587614490565b82810360808401526147c38185614503565b9998505050505050505050565b634e487b7160e01b600052603160045260246000fdfe968626a768e76ba1363efe44e322a6c4900c5f084e0b45f35e294dfddaa9e0d5e2b7fb3b832174769106daebcfd6d1970523240dda11281102db9363b83b0dc4a2646970667358221220eebf6b247aae490c845749be05993c9001a465d73b4cf0a56c2372c6a8ce67ce64736f6c634300080b0033",
  "linkReferences": {},
  "deployedLinkReferences": {}
}