{
  "_format": "hh-sol-artifact-1",
  "contractName": "BridgeUpgradeable",
  "sourceName": "contracts/BridgeUpgradeable.sol",
  "abi": [
    {
      "inputs": [
        {
          "internalType": "uint256",
          "name": "msgValue",
          "type": "uint256"
        },
        {
          "internalType": "uint256",
          "name": "fee",
          "type": "uint256"
        }
      ],
      "name": "IncorrectFeeSupplied",
      "type": "error"
    },
    {
      "inputs": [
        {
          "internalType": "address",
          "name": "signer",
          "type": "address"
        },
        {
          "internalType": "uint256",
          "name": "index",
          "type": "uint256"
        }
      ],
      "name": "InviladSignature",
      "type": "error"
    },
    {
      "inputs": [],
      "name": "ResourceIDNotMappedToHandler",
      "type": "error"
    },
    {
      "anonymous": false,
      "inputs": [
        {
          "indexed": false,
          "internalType": "uint8",
          "name": "destinationDomainID",
          "type": "uint8"
        },
        {
          "indexed": false,
          "internalType": "bytes32",
          "name": "resourceID",
          "type": "bytes32"
        },
        {
          "indexed": false,
          "internalType": "uint64",
          "name": "depositNonce",
          "type": "uint64"
        },
        {
          "indexed": true,
          "internalType": "address",
          "name": "user",
          "type": "address"
        },
        {
          "indexed": false,
          "internalType": "bytes",
          "name": "data",
          "type": "bytes"
        },
        {
          "indexed": false,
          "internalType": "bytes",
          "name": "handlerResponse",
          "type": "bytes"
        }
      ],
      "name": "Deposit",
      "type": "event"
    },
    {
      "anonymous": false,
      "inputs": [
        {
          "indexed": false,
          "internalType": "bytes",
          "name": "lowLevelData",
          "type": "bytes"
        }
      ],
      "name": "FailedHandlerExecution",
      "type": "event"
    },
    {
      "anonymous": false,
      "inputs": [
        {
          "indexed": false,
          "internalType": "address",
          "name": "newFeeHandler",
          "type": "address"
        }
      ],
      "name": "FeeHandlerChanged",
      "type": "event"
    },
    {
      "anonymous": false,
      "inputs": [
        {
          "indexed": false,
          "internalType": "address",
          "name": "account",
          "type": "address"
        }
      ],
      "name": "Paused",
      "type": "event"
    },
    {
      "anonymous": false,
      "inputs": [
        {
          "indexed": false,
          "internalType": "uint8",
          "name": "originDomainID",
          "type": "uint8"
        },
        {
          "indexed": false,
          "internalType": "uint64",
          "name": "depositNonce",
          "type": "uint64"
        },
        {
          "indexed": false,
          "internalType": "enum IBridge.ProposalStatus",
          "name": "status",
          "type": "uint8"
        },
        {
          "indexed": false,
          "internalType": "bytes32",
          "name": "dataHash",
          "type": "bytes32"
        }
      ],
      "name": "ProposalEvent",
      "type": "event"
    },
    {
      "anonymous": false,
      "inputs": [
        {
          "indexed": false,
          "internalType": "uint8",
          "name": "originDomainID",
          "type": "uint8"
        },
        {
          "indexed": false,
          "internalType": "uint64",
          "name": "depositNonce",
          "type": "uint64"
        },
        {
          "indexed": false,
          "internalType": "enum IBridge.ProposalStatus",
          "name": "status",
          "type": "uint8"
        },
        {
          "indexed": false,
          "internalType": "bytes32",
          "name": "dataHash",
          "type": "bytes32"
        }
      ],
      "name": "ProposalVote",
      "type": "event"
    },
    {
      "anonymous": false,
      "inputs": [
        {
          "indexed": false,
          "internalType": "address",
          "name": "relayer",
          "type": "address"
        }
      ],
      "name": "RelayerAdded",
      "type": "event"
    },
    {
      "anonymous": false,
      "inputs": [
        {
          "indexed": false,
          "internalType": "address",
          "name": "relayer",
          "type": "address"
        }
      ],
      "name": "RelayerRemoved",
      "type": "event"
    },
    {
      "anonymous": false,
      "inputs": [
        {
          "indexed": false,
          "internalType": "uint256",
          "name": "newThreshold",
          "type": "uint256"
        }
      ],
      "name": "RelayerThresholdChanged",
      "type": "event"
    },
    {
      "anonymous": false,
      "inputs": [
        {
          "indexed": true,
          "internalType": "bytes32",
          "name": "role",
          "type": "bytes32"
        },
        {
          "indexed": true,
          "internalType": "address",
          "name": "account",
          "type": "address"
        },
        {
          "indexed": true,
          "internalType": "address",
          "name": "sender",
          "type": "address"
        }
      ],
      "name": "RoleGranted",
      "type": "event"
    },
    {
      "anonymous": false,
      "inputs": [
        {
          "indexed": true,
          "internalType": "bytes32",
          "name": "role",
          "type": "bytes32"
        },
        {
          "indexed": true,
          "internalType": "address",
          "name": "account",
          "type": "address"
        },
        {
          "indexed": true,
          "internalType": "address",
          "name": "sender",
          "type": "address"
        }
      ],
      "name": "RoleRevoked",
      "type": "event"
    },
    {
      "anonymous": false,
      "inputs": [
        {
          "indexed": false,
          "internalType": "address",
          "name": "account",
          "type": "address"
        }
      ],
      "name": "Unpaused",
      "type": "event"
    },
    {
      "inputs": [],
      "name": "DEFAULT_ADMIN_ROLE",
      "outputs": [
        {
          "internalType": "bytes32",
          "name": "",
          "type": "bytes32"
        }
      ],
      "stateMutability": "view",
      "type": "function"
    },
    {
      "inputs": [],
      "name": "MAX_RELAYERS",
      "outputs": [
        {
          "internalType": "uint256",
          "name": "",
          "type": "uint256"
        }
      ],
      "stateMutability": "view",
      "type": "function"
    },
    {
      "inputs": [],
      "name": "PERMIT_TYPEHASH",
      "outputs": [
        {
          "internalType": "bytes32",
          "name": "",
          "type": "bytes32"
        }
      ],
      "stateMutability": "view",
      "type": "function"
    },
    {
      "inputs": [],
      "name": "RELAYER_ROLE",
      "outputs": [
        {
          "internalType": "bytes32",
          "name": "",
          "type": "bytes32"
        }
      ],
      "stateMutability": "view",
      "type": "function"
    },
    {
      "inputs": [],
      "name": "_chainId",
      "outputs": [
        {
          "internalType": "uint256",
          "name": "",
          "type": "uint256"
        }
      ],
      "stateMutability": "view",
      "type": "function"
    },
    {
      "inputs": [
        {
          "internalType": "uint8",
          "name": "",
          "type": "uint8"
        }
      ],
      "name": "_depositCounts",
      "outputs": [
        {
          "internalType": "uint64",
          "name": "",
          "type": "uint64"
        }
      ],
      "stateMutability": "view",
      "type": "function"
    },
    {
      "inputs": [],
      "name": "_domainID",
      "outputs": [
        {
          "internalType": "uint8",
          "name": "",
          "type": "uint8"
        }
      ],
      "stateMutability": "view",
      "type": "function"
    },
    {
      "inputs": [],
      "name": "_expiry",
      "outputs": [
        {
          "internalType": "uint40",
          "name": "",
          "type": "uint40"
        }
      ],
      "stateMutability": "view",
      "type": "function"
    },
    {
      "inputs": [],
      "name": "_fee",
      "outputs": [
        {
          "internalType": "uint256",
          "name": "",
          "type": "uint256"
        }
      ],
      "stateMutability": "view",
      "type": "function"
    },
    {
      "inputs": [],
      "name": "_feeHandler",
      "outputs": [
        {
          "internalType": "contract IFeeHandler",
          "name": "",
          "type": "address"
        }
      ],
      "stateMutability": "view",
      "type": "function"
    },
    {
      "inputs": [
        {
          "internalType": "uint72",
          "name": "destNonce",
          "type": "uint72"
        },
        {
          "internalType": "bytes32",
          "name": "dataHash",
          "type": "bytes32"
        },
        {
          "internalType": "address",
          "name": "relayer",
          "type": "address"
        }
      ],
      "name": "_hasVotedOnProposal",
      "outputs": [
        {
          "internalType": "bool",
          "name": "",
          "type": "bool"
        }
      ],
      "stateMutability": "view",
      "type": "function"
    },
    {
      "inputs": [],
      "name": "_relayerThreshold",
      "outputs": [
        {
          "internalType": "uint8",
          "name": "",
          "type": "uint8"
        }
      ],
      "stateMutability": "view",
      "type": "function"
    },
    {
      "inputs": [
        {
          "internalType": "bytes32",
          "name": "",
          "type": "bytes32"
        }
      ],
      "name": "_resourceIDToHandlerAddress",
      "outputs": [
        {
          "internalType": "address",
          "name": "",
          "type": "address"
        }
      ],
      "stateMutability": "view",
      "type": "function"
    },
    {
      "inputs": [],
      "name": "_totalRelayers",
      "outputs": [
        {
          "internalType": "uint256",
          "name": "",
          "type": "uint256"
        }
      ],
      "stateMutability": "view",
      "type": "function"
    },
    {
      "inputs": [
        {
          "internalType": "address",
          "name": "relayerAddress",
          "type": "address"
        }
      ],
      "name": "adminAddRelayer",
      "outputs": [],
      "stateMutability": "nonpayable",
      "type": "function"
    },
    {
      "inputs": [
        {
          "internalType": "uint256",
          "name": "expiry",
          "type": "uint256"
        }
      ],
      "name": "adminChangeExpiry",
      "outputs": [],
      "stateMutability": "nonpayable",
      "type": "function"
    },
    {
      "inputs": [
        {
          "internalType": "address",
          "name": "newFeeHandler",
          "type": "address"
        }
      ],
      "name": "adminChangeFeeHandler",
      "outputs": [],
      "stateMutability": "nonpayable",
      "type": "function"
    },
    {
      "inputs": [
        {
          "internalType": "uint256",
          "name": "newThreshold",
          "type": "uint256"
        }
      ],
      "name": "adminChangeRelayerThreshold",
      "outputs": [],
      "stateMutability": "nonpayable",
      "type": "function"
    },
    {
      "inputs": [],
      "name": "adminPauseTransfers",
      "outputs": [],
      "stateMutability": "nonpayable",
      "type": "function"
    },
    {
      "inputs": [
        {
          "internalType": "address",
          "name": "relayerAddress",
          "type": "address"
        }
      ],
      "name": "adminRemoveRelayer",
      "outputs": [],
      "stateMutability": "nonpayable",
      "type": "function"
    },
    {
      "inputs": [
        {
          "internalType": "address",
          "name": "handlerAddress",
          "type": "address"
        },
        {
          "internalType": "address",
          "name": "tokenAddress",
          "type": "address"
        }
      ],
      "name": "adminSetBurnable",
      "outputs": [],
      "stateMutability": "nonpayable",
      "type": "function"
    },
    {
      "inputs": [
        {
          "internalType": "uint8",
          "name": "domainID",
          "type": "uint8"
        },
        {
          "internalType": "uint64",
          "name": "nonce",
          "type": "uint64"
        }
      ],
      "name": "adminSetDepositNonce",
      "outputs": [],
      "stateMutability": "nonpayable",
      "type": "function"
    },
    {
      "inputs": [
        {
          "internalType": "uint8",
          "name": "domainID",
          "type": "uint8"
        }
      ],
      "name": "adminSetDomainId",
      "outputs": [],
      "stateMutability": "nonpayable",
      "type": "function"
    },
    {
      "inputs": [
        {
          "internalType": "address",
          "name": "forwarder",
          "type": "address"
        },
        {
          "internalType": "bool",
          "name": "valid",
          "type": "bool"
        }
      ],
      "name": "adminSetForwarder",
      "outputs": [],
      "stateMutability": "nonpayable",
      "type": "function"
    },
    {
      "inputs": [
        {
          "internalType": "address",
          "name": "handlerAddress",
          "type": "address"
        },
        {
          "internalType": "bytes32",
          "name": "resourceID",
          "type": "bytes32"
        },
        {
          "internalType": "address",
          "name": "contractAddress",
          "type": "address"
        },
        {
          "internalType": "bytes4",
          "name": "depositFunctionSig",
          "type": "bytes4"
        },
        {
          "internalType": "uint256",
          "name": "depositFunctionDepositerOffset",
          "type": "uint256"
        },
        {
          "internalType": "bytes4",
          "name": "executeFunctionSig",
          "type": "bytes4"
        }
      ],
      "name": "adminSetGenericResource",
      "outputs": [],
      "stateMutability": "nonpayable",
      "type": "function"
    },
    {
      "inputs": [
        {
          "internalType": "bytes32",
          "name": "resourceID",
          "type": "bytes32"
        },
        {
          "internalType": "address",
          "name": "nativeAddress",
          "type": "address"
        },
        {
          "internalType": "bool",
          "name": "isNative",
          "type": "bool"
        }
      ],
      "name": "adminSetNative",
      "outputs": [],
      "stateMutability": "nonpayable",
      "type": "function"
    },
    {
      "inputs": [
        {
          "internalType": "address",
          "name": "handlerAddress",
          "type": "address"
        }
      ],
      "name": "adminSetNativeResource",
      "outputs": [],
      "stateMutability": "nonpayable",
      "type": "function"
    },
    {
      "inputs": [
        {
          "internalType": "address",
          "name": "handlerAddress",
          "type": "address"
        },
        {
          "internalType": "bytes32",
          "name": "resourceID",
          "type": "bytes32"
        },
        {
          "internalType": "address",
          "name": "tokenAddress",
          "type": "address"
        }
      ],
      "name": "adminSetResource",
      "outputs": [],
      "stateMutability": "nonpayable",
      "type": "function"
    },
    {
      "inputs": [],
      "name": "adminUnpauseTransfers",
      "outputs": [],
      "stateMutability": "nonpayable",
      "type": "function"
    },
    {
      "inputs": [
        {
          "internalType": "address",
          "name": "handlerAddress",
          "type": "address"
        },
        {
          "internalType": "bytes",
          "name": "data",
          "type": "bytes"
        }
      ],
      "name": "adminWithdraw",
      "outputs": [],
      "stateMutability": "nonpayable",
      "type": "function"
    },
    {
      "inputs": [
        {
          "internalType": "address",
          "name": "handlerAddress",
          "type": "address"
        },
        {
          "internalType": "bytes",
          "name": "data",
          "type": "bytes"
        }
      ],
      "name": "adminWithdrawETH",
      "outputs": [],
      "stateMutability": "nonpayable",
      "type": "function"
    },
    {
      "inputs": [
        {
          "internalType": "uint8",
          "name": "destinationDomainID",
          "type": "uint8"
        },
        {
          "internalType": "bytes32",
          "name": "resourceID",
          "type": "bytes32"
        },
        {
          "internalType": "bytes",
          "name": "depositData",
          "type": "bytes"
        },
        {
          "internalType": "bytes",
          "name": "feeData",
          "type": "bytes"
        }
      ],
      "name": "calculateFee",
      "outputs": [
        {
          "internalType": "uint256",
          "name": "",
          "type": "uint256"
        }
      ],
      "stateMutability": "view",
      "type": "function"
    },
    {
      "inputs": [
        {
          "internalType": "uint8",
          "name": "domainID",
          "type": "uint8"
        },
        {
          "internalType": "uint64",
          "name": "depositNonce",
          "type": "uint64"
        },
        {
          "internalType": "bytes32",
          "name": "dataHash",
          "type": "bytes32"
        }
      ],
      "name": "cancelProposal",
      "outputs": [],
      "stateMutability": "nonpayable",
      "type": "function"
    },
    {
      "inputs": [
        {
          "internalType": "uint8",
          "name": "domainID",
          "type": "uint8"
        },
        {
          "internalType": "uint64",
          "name": "depositNonce",
          "type": "uint64"
        },
        {
          "internalType": "bytes32",
          "name": "resourceID",
          "type": "bytes32"
        },
        {
          "internalType": "bytes",
          "name": "data",
          "type": "bytes"
        },
        {
          "internalType": "bytes",
          "name": "signature",
          "type": "bytes"
        }
      ],
      "name": "checkSignature",
      "outputs": [
        {
          "internalType": "bool",
          "name": "",
          "type": "bool"
        }
      ],
      "stateMutability": "view",
      "type": "function"
    },
    {
      "inputs": [
        {
          "internalType": "uint8",
          "name": "destinationDomainID",
          "type": "uint8"
        },
        {
          "internalType": "bytes32",
          "name": "resourceID",
          "type": "bytes32"
        },
        {
          "internalType": "bytes",
          "name": "depositData",
          "type": "bytes"
        },
        {
          "internalType": "bytes",
          "name": "feeData",
          "type": "bytes"
        }
      ],
      "name": "deposit",
      "outputs": [],
      "stateMutability": "payable",
      "type": "function"
    },
    {
      "inputs": [
        {
          "internalType": "uint8",
          "name": "domainID",
          "type": "uint8"
        },
        {
          "internalType": "uint64",
          "name": "depositNonce",
          "type": "uint64"
        },
        {
          "internalType": "bytes",
          "name": "data",
          "type": "bytes"
        },
        {
          "internalType": "bytes32",
          "name": "resourceID",
          "type": "bytes32"
        },
        {
          "internalType": "bool",
          "name": "revertOnFail",
          "type": "bool"
        }
      ],
      "name": "executeProposal",
      "outputs": [],
      "stateMutability": "nonpayable",
      "type": "function"
    },
    {
      "inputs": [
        {
          "internalType": "uint8",
          "name": "originDomainID",
          "type": "uint8"
        },
        {
          "internalType": "uint64",
          "name": "depositNonce",
          "type": "uint64"
        },
        {
          "internalType": "bytes32",
          "name": "resourceID",
          "type": "bytes32"
        },
        {
          "internalType": "bytes",
          "name": "data",
          "type": "bytes"
        }
      ],
      "name": "getProposal",
      "outputs": [
        {
          "components": [
            {
              "internalType": "enum IBridge.ProposalStatus",
              "name": "_status",
              "type": "uint8"
            },
            {
              "internalType": "uint200",
              "name": "_yesVotes",
              "type": "uint200"
            },
            {
              "internalType": "uint8",
              "name": "_yesVotesTotal",
              "type": "uint8"
            },
            {
              "internalType": "uint40",
              "name": "_proposedBlock",
              "type": "uint40"
            }
          ],
          "internalType": "struct IBridge.Proposal",
          "name": "",
          "type": "tuple"
        }
      ],
      "stateMutability": "view",
      "type": "function"
    },
    {
      "inputs": [
        {
          "internalType": "bytes32",
          "name": "role",
          "type": "bytes32"
        }
      ],
      "name": "getRoleAdmin",
      "outputs": [
        {
          "internalType": "bytes32",
          "name": "",
          "type": "bytes32"
        }
      ],
      "stateMutability": "view",
      "type": "function"
    },
    {
      "inputs": [
        {
          "internalType": "bytes32",
          "name": "role",
          "type": "bytes32"
        },
        {
          "internalType": "uint256",
          "name": "index",
          "type": "uint256"
        }
      ],
      "name": "getRoleMember",
      "outputs": [
        {
          "internalType": "address",
          "name": "",
          "type": "address"
        }
      ],
      "stateMutability": "view",
      "type": "function"
    },
    {
      "inputs": [
        {
          "internalType": "bytes32",
          "name": "role",
          "type": "bytes32"
        }
      ],
      "name": "getRoleMemberCount",
      "outputs": [
        {
          "internalType": "uint256",
          "name": "",
          "type": "uint256"
        }
      ],
      "stateMutability": "view",
      "type": "function"
    },
    {
      "inputs": [
        {
          "internalType": "bytes32",
          "name": "role",
          "type": "bytes32"
        },
        {
          "internalType": "address",
          "name": "account",
          "type": "address"
        }
      ],
      "name": "getRoleMemberIndex",
      "outputs": [
        {
          "internalType": "uint256",
          "name": "",
          "type": "uint256"
        }
      ],
      "stateMutability": "view",
      "type": "function"
    },
    {
      "inputs": [
        {
          "internalType": "bytes32",
          "name": "role",
          "type": "bytes32"
        },
        {
          "internalType": "address",
          "name": "account",
          "type": "address"
        }
      ],
      "name": "grantRole",
      "outputs": [],
      "stateMutability": "nonpayable",
      "type": "function"
    },
    {
      "inputs": [
        {
          "internalType": "bytes32",
          "name": "role",
          "type": "bytes32"
        },
        {
          "internalType": "address",
          "name": "account",
          "type": "address"
        }
      ],
      "name": "hasRole",
      "outputs": [
        {
          "internalType": "bool",
          "name": "",
          "type": "bool"
        }
      ],
      "stateMutability": "view",
      "type": "function"
    },
    {
      "inputs": [
        {
          "internalType": "uint8",
          "name": "domainID",
          "type": "uint8"
        },
        {
          "internalType": "address[]",
          "name": "initialRelayers",
          "type": "address[]"
        },
        {
          "internalType": "uint256",
          "name": "initialRelayerThreshold",
          "type": "uint256"
        },
        {
          "internalType": "uint256",
          "name": "expiry",
          "type": "uint256"
        },
        {
          "internalType": "address",
          "name": "admin",
          "type": "address"
        }
      ],
      "name": "initialize",
      "outputs": [],
      "stateMutability": "nonpayable",
      "type": "function"
    },
    {
      "inputs": [
        {
          "internalType": "address",
          "name": "relayer",
          "type": "address"
        }
      ],
      "name": "isRelayer",
      "outputs": [
        {
          "internalType": "bool",
          "name": "",
          "type": "bool"
        }
      ],
      "stateMutability": "view",
      "type": "function"
    },
    {
      "inputs": [
        {
          "internalType": "address",
          "name": "",
          "type": "address"
        }
      ],
      "name": "isValidForwarder",
      "outputs": [
        {
          "internalType": "bool",
          "name": "",
          "type": "bool"
        }
      ],
      "stateMutability": "view",
      "type": "function"
    },
    {
      "inputs": [],
      "name": "paused",
      "outputs": [
        {
          "internalType": "bool",
          "name": "",
          "type": "bool"
        }
      ],
      "stateMutability": "view",
      "type": "function"
    },
    {
      "inputs": [
        {
          "internalType": "address",
          "name": "newAdmin",
          "type": "address"
        }
      ],
      "name": "renounceAdmin",
      "outputs": [],
      "stateMutability": "nonpayable",
      "type": "function"
    },
    {
      "inputs": [
        {
          "internalType": "bytes32",
          "name": "role",
          "type": "bytes32"
        },
        {
          "internalType": "address",
          "name": "account",
          "type": "address"
        }
      ],
      "name": "renounceRole",
      "outputs": [],
      "stateMutability": "nonpayable",
      "type": "function"
    },
    {
      "inputs": [
        {
          "internalType": "bytes32",
          "name": "role",
          "type": "bytes32"
        },
        {
          "internalType": "address",
          "name": "account",
          "type": "address"
        }
      ],
      "name": "revokeRole",
      "outputs": [],
      "stateMutability": "nonpayable",
      "type": "function"
    },
    {
      "inputs": [
        {
          "internalType": "address payable[]",
          "name": "addrs",
          "type": "address[]"
        },
        {
          "internalType": "uint256[]",
          "name": "amounts",
          "type": "uint256[]"
        }
      ],
      "name": "transferFunds",
      "outputs": [],
      "stateMutability": "nonpayable",
      "type": "function"
    },
    {
      "inputs": [
        {
          "internalType": "uint8",
          "name": "domainID",
          "type": "uint8"
        },
        {
          "internalType": "uint64",
          "name": "depositNonce",
          "type": "uint64"
        },
        {
          "internalType": "bytes32",
          "name": "resourceID",
          "type": "bytes32"
        },
        {
          "internalType": "bytes",
          "name": "data",
          "type": "bytes"
        }
      ],
      "name": "voteProposal",
      "outputs": [],
      "stateMutability": "nonpayable",
      "type": "function"
    },
    {
      "inputs": [
        {
          "internalType": "uint8",
          "name": "domainID",
          "type": "uint8"
        },
        {
          "internalType": "uint64",
          "name": "depositNonce",
          "type": "uint64"
        },
        {
          "internalType": "bytes32",
          "name": "resourceID",
          "type": "bytes32"
        },
        {
          "internalType": "bytes",
          "name": "data",
          "type": "bytes"
        },
        {
          "internalType": "bytes[]",
          "name": "signatures",
          "type": "bytes[]"
        }
      ],
      "name": "voteProposals",
      "outputs": [],
      "stateMutability": "nonpayable",
      "type": "function"
    }
  ],
  "bytecode": "0x608060405234801561001057600080fd5b506148bd806100206000396000f3fe60806040526004361061031a5760003560e01c80638c0c2631116101ab578063c5b37c22116100f7578063d7a9cd7911610095578063f8c39e441161006f578063f8c39e44146109bf578063fe4648f4146109ef578063fe65c4be14610a16578063ffaac0eb14610a3657600080fd5b8063d7a9cd7914610960578063e2469d401461097f578063edc20c3c1461099f57600080fd5b8063cb10f215116100d1578063cb10f215146108e0578063cdb0f73a14610900578063d15ef64e14610920578063d547741f1461094057600080fd5b8063c5b37c2214610871578063c5ec897014610886578063ca15c873146108c057600080fd5b80639dd694f411610164578063a217fddf1161013e578063a217fddf146107ef578063a5c621f214610804578063bd2a182014610831578063c0331b3e1461085157600080fd5b80639dd694f41461078e5780639debb3bd146107ba578063a06fbbff146107cf57600080fd5b80638c0c2631146106cc5780639010d07c146106ec57806391d148541461070c578063926d7d7f1461072c5780639d4d39f51461074e5780639d82dd631461076e57600080fd5b80635c975abb1161026a5780637d026d961161022357806380ae1c28116101fd57806380ae1c281461062957806384db809f1461063e57806388b73be01461068c5780638b63aebf146106ac57600080fd5b80637d026d96146105d45780637febe63f146105f4578063802aabe81461061457600080fd5b80635c975abb146105365780635e1fab0f1461054e5780636d3b6eea1461056e5780637292dd911461058e57806373c45c98146105ae57806374773412146105c157600080fd5b806336568abe116102d75780634e056005116102b15780634e056005146104a65780634e0df3f6146104c6578063541d5548146104e65780635a1ad87c1461051657600080fd5b806336568abe146104185780634603ae38146104385780634b0b919d1461045857600080fd5b80630d7d75b31461031f57806317f03ce514610341578063206a98fd14610361578063248a9ca3146103815780632f2ff15d146103c457806330adf81f146103e4575b600080fd5b34801561032b57600080fd5b5061033f61033a366004613b11565b610a4b565b005b34801561034d57600080fd5b5061033f61035c366004613bfb565b610bd7565b34801561036d57600080fd5b5061033f61037c366004613c88565b610e67565b34801561038d57600080fd5b506103b161039c366004613d04565b60009081526099602052604090206002015490565b6040519081526020015b60405180910390f35b3480156103d057600080fd5b5061033f6103df366004613d1d565b6110ec565b3480156103f057600080fd5b506103b17fc4cb5d35714699d6e85b9562b644e60393b418d974a5c1dd8efaadac37a142c581565b34801561042457600080fd5b5061033f610433366004613d1d565b61117c565b34801561044457600080fd5b5061033f610453366004613d91565b611206565b34801561046457600080fd5b5061048e610473366004613dfc565b609b602052600090815260409020546001600160401b031681565b6040516001600160401b0390911681526020016103bb565b3480156104b257600080fd5b5061033f6104c1366004613d04565b6112aa565b3480156104d257600080fd5b506103b16104e1366004613d1d565b61130d565b3480156104f257600080fd5b50610506610501366004613e17565b61133a565b60405190151581526020016103bb565b34801561052257600080fd5b5061033f610531366004613e4c565b611354565b34801561054257600080fd5b5060355460ff16610506565b34801561055a57600080fd5b5061033f610569366004613e17565b61140a565b34801561057a57600080fd5b5061033f610589366004613f22565b611496565b34801561059a57600080fd5b5061033f6105a9366004613f71565b611503565b61033f6105bc366004614075565b611c19565b3480156105cd57600080fd5b50466103b1565b3480156105e057600080fd5b5061033f6105ef366004613d04565b611ec2565b34801561060057600080fd5b5061050661060f3660046140fe565b611ef8565b34801561062057600080fd5b506103b1611f9c565b34801561063557600080fd5b5061033f611fba565b34801561064a57600080fd5b50610674610659366004613d04565b609c602052600090815260409020546001600160a01b031681565b6040516001600160a01b0390911681526020016103bb565b34801561069857600080fd5b5061033f6106a736600461414c565b611fd4565b3480156106b857600080fd5b5061033f6106c7366004613e17565b612059565b3480156106d857600080fd5b5061033f6106e736600461418a565b6120bf565b3480156106f857600080fd5b506106746107073660046141b8565b6120f8565b34801561071857600080fd5b50610506610727366004613d1d565b612117565b34801561073857600080fd5b506103b160008051602061486883398151915281565b34801561075a57600080fd5b506103b1610769366004614075565b61212f565b34801561077a57600080fd5b5061033f610789366004613e17565b6121f8565b34801561079a57600080fd5b50609a546107a89060ff1681565b60405160ff90911681526020016103bb565b3480156107c657600080fd5b506103b160c881565b3480156107db57600080fd5b5061033f6107ea366004613dfc565b612251565b3480156107fb57600080fd5b506103b1600081565b34801561081057600080fd5b5061082461081f3660046141da565b61226f565b6040516103bb9190614280565b34801561083d57600080fd5b5061033f61084c366004613f22565b61237c565b34801561085d57600080fd5b5061033f61086c3660046141da565b6123b2565b34801561087d57600080fd5b506103b1612888565b34801561089257600080fd5b50609a546108aa9062010000900464ffffffffff1681565b60405164ffffffffff90911681526020016103bb565b3480156108cc57600080fd5b506103b16108db366004613d04565b612920565b3480156108ec57600080fd5b5061033f6108fb3660046142c9565b612937565b34801561090c57600080fd5b5061033f61091b366004613e17565b612998565b34801561092c57600080fd5b5061033f61093b3660046142e9565b612a41565b34801561094c57600080fd5b5061033f61095b366004613d1d565b612a74565b34801561096c57600080fd5b50609a546107a890610100900460ff1681565b34801561098b57600080fd5b5061033f61099a366004613e17565b612af7565b3480156109ab57600080fd5b5061033f6109ba36600461431e565b612bde565b3480156109cb57600080fd5b506105066109da366004613e17565b609d6020526000908152604090205460ff1681565b3480156109fb57600080fd5b50609a5461067490600160381b90046001600160a01b031681565b348015610a2257600080fd5b50610506610a31366004614348565b612c97565b348015610a4257600080fd5b5061033f612da1565b600054610100900460ff16610a665760005460ff1615610a6a565b303b155b610a8f5760405162461bcd60e51b8152600401610a86906143e2565b60405180910390fd5b600054610100900460ff16158015610ab1576000805461ffff19166101011790555b610ab9612db9565b610b026040518060400160405280600c81526020016b5065726d697442726964676560a01b815250604051806040016040528060038152602001620312e360ec1b815250612e33565b609a805460ff191660ff8816179055610b1a84612e64565b609a60016101000a81548160ff021916908360ff160217905550610b3d83612ebb565b609a805464ffffffffff92909216620100000266ffffffffff000019909216919091179055610b6d60008361116e565b60005b8551811015610bbc57610baa600080516020614868833981519152878381518110610b9d57610b9d614430565b60200260200101516110ec565b80610bb48161445c565b915050610b70565b508015610bcf576000805461ff00191690555b505050505050565b610bdf612f12565b60ff838116600884901b68ffffffffffffffff0016176000818152609e60209081526040808320868452909152808220815160808101909252805493949293919290918391166004811115610c3657610c36614248565b6004811115610c4757610c47614248565b8152905461010081046001600160c81b03166020830152600160d01b810460ff166040830152600160d81b900464ffffffffff1660609091015280519091506001816004811115610c9a57610c9a614248565b1480610cb757506002816004811115610cb557610cb5614248565b145b610d035760405162461bcd60e51b815260206004820152601c60248201527f50726f706f73616c2063616e6e6f742062652063616e63656c6c6564000000006044820152606401610a86565b609a54606083015164ffffffffff62010000909204821691610d2791439116612f93565b64ffffffffff1611610d7b5760405162461bcd60e51b815260206004820181905260248201527f50726f706f73616c206e6f7420617420657870697279207468726573686f6c646044820152606401610a86565b60048083526001600160481b0384166000908152609e602090815260408083208884529091529020835181548593839160ff1916906001908490811115610dc457610dc4614248565b02179055506020820151815460408085015160609095015164ffffffffff16600160d81b026001600160d81b0360ff909616600160d01b0260ff60d01b196001600160c81b039095166101000294909416610100600160d81b03199093169290921792909217939093169290921790555160008051602061484883398151915290610e5790889088906004908990614477565b60405180910390a1505050505050565b610e6f612fd5565b610e7761303b565b6000828152609c602090815260408083205490516001600160a01b039091169268ffffffffffffffff0060088a901b1660ff8b1617929091610ebf9185918a918a91016144ac565b60408051601f1981840301815291815281516020928301206001600160481b0385166000908152609e845282812082825290935291209091506002815460ff166004811115610f1057610f10614248565b14610f5d5760405162461bcd60e51b815260206004820181905260248201527f50726f706f73616c206d757374206861766520506173736564207374617475736044820152606401610a86565b805460ff19166003178155838515610fd65760405163712467f960e11b81526001600160a01b0382169063e248cff290610f9f908a908d908d90600401614501565b600060405180830381600087803b158015610fb957600080fd5b505af1158015610fcd573d6000803e3d6000fd5b505050506110b3565b60405163712467f960e11b81526001600160a01b0382169063e248cff290611006908a908d908d90600401614501565b600060405180830381600087803b15801561102057600080fd5b505af1925050508015611031575060015b6110b3573d80801561105f576040519150601f19603f3d011682016040523d82523d6000602084013e611064565b606091505b50825460ff191660021783556040517fbd37c1f0d53bb2f33fe4c2104de272fcdeb4d2fef3acdbf1e4ddc3d6833ca376906110a0908390614577565b60405180910390a1505050505050610bcf565b6000805160206148488339815191528b8b6003866040516110d79493929190614477565b60405180910390a15050505050505050505050565b60008281526099602052604090206002015461110a90610727613081565b61116e5760405162461bcd60e51b815260206004820152602f60248201527f416363657373436f6e74726f6c3a2073656e646572206d75737420626520616e60448201526e0818591b5a5b881d1bc819dc985b9d608a1b6064820152608401610a86565b61117882826130c2565b5050565b611184613081565b6001600160a01b0316816001600160a01b0316146111fc5760405162461bcd60e51b815260206004820152602f60248201527f416363657373436f6e74726f6c3a2063616e206f6e6c792072656e6f756e636560448201526e103937b632b9903337b91039b2b63360891b6064820152608401610a86565b611178828261312b565b61120e613194565b60005b838110156112a35784848281811061122b5761122b614430565b90506020020160208101906112409190613e17565b6001600160a01b03166108fc84848481811061125e5761125e614430565b905060200201359081150290604051600060405180830381858888f19350505050158015611290573d6000803e3d6000fd5b508061129b8161445c565b915050611211565b5050505050565b6112b2613194565b6112bb81612e64565b609a805460ff929092166101000261ff00199092169190911790556040518181527fa20d6b84cd798a24038be305eff8a45ca82ef54a2aa2082005d8e14c0a4746c8906020015b60405180910390a150565b60008281526099602090815260408083206001600160a01b03851684526001019091529020545b92915050565b600061133460008051602061486883398151915283612117565b61135c613194565b6000858152609c60205260409081902080546001600160a01b0319166001600160a01b03898116918217909255915163de319d9960e01b81526004810188905290861660248201526001600160e01b03198086166044830152606482018590528316608482015287919063de319d999060a401600060405180830381600087803b1580156113e957600080fd5b505af11580156113fd573d6000803e3d6000fd5b5050505050505050505050565b611412613194565b600061141c613081565b9050816001600160a01b0316816001600160a01b031614156114805760405162461bcd60e51b815260206004820152601760248201527f43616e6e6f742072656e6f756e6365206f6e6573656c660000000000000000006044820152606401610a86565b61148b6000836110ec565b61117860008261117c565b61149e613194565b60405163ab5c7bf160e01b815282906001600160a01b0382169063ab5c7bf1906114cc908590600401614577565b600060405180830381600087803b1580156114e657600080fd5b505af11580156114fa573d6000803e3d6000fd5b50505050505050565b61150b61303b565b6000848152609c602090815260408083205490516001600160a01b039091169268ffffffffffffffff0060088a901b1660ff8b161792909161155391859189918991016144ac565b60408051601f1981840301815282825280516020918201206001600160481b0386166000908152609e835283812082825290925282822060808501909352825490945090929190829060ff1660048111156115b0576115b0614248565b60048111156115c1576115c1614248565b8152905461010081046001600160c81b0316602080840191909152600160d01b820460ff16604080850191909152600160d81b90920464ffffffffff1660609093019290925260008b8152609c9092529020549091506001600160a01b03166116685760405162461bcd60e51b81526020600482015260196024820152781b9bc81a185b991b195c88199bdc881c995cdbdd5c98d95251603a1b6044820152606401610a86565b60005b8551811015611aa75760028251600481111561168957611689614248565b1415611725576003825260405163712467f960e11b815285906001600160a01b0382169063e248cff2906116c5908d908d908d90600401614501565b600060405180830381600087803b1580156116df57600080fd5b505af11580156116f3573d6000803e3d6000fd5b505050506000805160206148488339815191528c8c60038760405161171b9493929190614477565b60405180910390a1505b60007fc4cb5d35714699d6e85b9562b644e60393b418d974a5c1dd8efaadac37a142c58c8c8c8c8c60405161175b92919061458a565b60405190819003812061179e959493929160200194855260ff9390931660208501526001600160401b039190911660408401526060830152608082015260a00190565b60405160208183030381529060405280519060200120905060006117c1826131ed565b905060006117e8828a86815181106117db576117db614430565b602002602001015161323b565b905061180260008051602061486883398151915282612117565b6118315760405163b4d8a3a160e01b81526001600160a01b038216600482015260248101859052604401610a86565b8451600190600481111561184757611847614248565b11156118655760405162461bcd60e51b8152600401610a869061459a565b61186f858261325f565b156118b45760405162461bcd60e51b81526020600482015260156024820152741c995b185e595c88185b1c9958591e481d9bdd1959605a1b6044820152606401610a86565b6000855160048111156118c9576118c9614248565b141561193a576040805160808101909152806001815260200160006001600160c81b03168152602001600060ff1681526020014364ffffffffff1681525094506000805160206148488339815191528e8e60018960405161192d9493929190614477565b60405180910390a16119a0565b609a54606086015164ffffffffff6201000090920482169161195e91439116612f93565b64ffffffffff1611156119a05760048581815250506000805160206148488339815191528e8e6004896040516119979493929190614477565b60405180910390a15b6004855160048111156119b5576119b5614248565b14611a91576119da6119c682613282565b86602001516001600160c81b0316176132b0565b6001600160c81b03166020860152604085018051906119f8826145dd565b60ff1660ff16815250507f25f8daaa4635a7729927ba3f5b3d59cc3320aca7c32c9db4e7ca7b95743436408e8e876000015189604051611a3b9493929190614477565b60405180910390a1609a54604086015160ff6101009092048216911610611a915760028581815250506000805160206148488339815191528e8e600289604051611a889493929190614477565b60405180910390a15b5050508080611a9f9061445c565b91505061166b565b50600281516004811115611abd57611abd614248565b1415611b59576003815260405163712467f960e11b815284906001600160a01b0382169063e248cff290611af9908c908c908c90600401614501565b600060405180830381600087803b158015611b1357600080fd5b505af1158015611b27573d6000803e3d6000fd5b505050506000805160206148488339815191528b8b600386604051611b4f9493929190614477565b60405180910390a1505b6001600160481b0383166000908152609e6020908152604080832085845290915290208151815483929190829060ff19166001836004811115611b9e57611b9e614248565b021790555060208201518154604084015160609094015164ffffffffff16600160d81b026001600160d81b0360ff909516600160d01b0260ff60d01b196001600160c81b039094166101000293909316610100600160d81b031990921691909117919091179290921691909117905550505050505050505050565b611c2161303b565b6000611c2b613081565b609a549091503490600160381b90046001600160a01b031615611d6357609a5460405163ef4f081f60e01b81526000916001600160a01b03600160381b8204169163ef4f081f91611c9091879160ff16908e908e908e908e908e908e906004016145fd565b6040805180830381865afa158015611cac573d6000803e3d6000fd5b505050506040513d601f19601f82011682018060405250810190611cd0919061464a565b5090508015611d6157609a54604051632530706560e01b81526001600160a01b03600160381b830416916325307065918491611d2091889160ff16908f908f908f908f908f908f906004016145fd565b6000604051808303818588803b158015611d3957600080fd5b505af1158015611d4d573d6000803e3d6000fd5b50505050508082611d5e919061466f565b91505b505b6000878152609c60205260409020546001600160a01b031680611d99576040516308c231dd60e31b815260040160405180910390fd5b60ff89166000908152609b6020526040812080548290611dc1906001600160401b0316614686565b91906101000a8154816001600160401b0302191690836001600160401b031602179055905060008290506000816001600160a01b031663b07e54bb868d898e8e6040518663ffffffff1660e01b8152600401611e2094939291906146ad565b60006040518083038185885af1158015611e3e573d6000803e3d6000fd5b50505050506040513d6000823e601f3d908101601f19168201604052611e6791908101906146d8565b9050856001600160a01b03167f17bc3181e17a9620a479c24e6c606e474ba84fc036877b768926872e8cd0e11f8d8d868e8e87604051611eac96959493929190614745565b60405180910390a2505050505050505050505050565b611eca613194565b611ed381612ebb565b609a60026101000a81548164ffffffffff021916908364ffffffffff16021790555050565b6001600160481b0383166000908152609e602090815260408083208584529091528082208151608081019092528054611f94929190829060ff166004811115611f4357611f43614248565b6004811115611f5457611f54614248565b8152905461010081046001600160c81b03166020830152600160d01b810460ff166040830152600160d81b900464ffffffffff166060909101528361325f565b949350505050565b6000611fb5600080516020614868833981519152612920565b905090565b611fc2613194565b611fd2611fcd613081565b613305565b565b611fdc613194565b6000838152609c60205260409081902054905163789d771160e01b81526001600160a01b038481166004830152831515602483015290911690819063789d7711906044015b600060405180830381600087803b15801561203b57600080fd5b505af115801561204f573d6000803e3d6000fd5b5050505050505050565b612061613194565b609a8054670100000000000000600160d81b031916600160381b6001600160a01b038416908102919091179091556040519081527f729170bd142e4965055b26a285faeedf03baf2b915bfc5a7c75d24b45815ff2c90602001611302565b6120c7613194565b6040516307b7ed9960e01b81526001600160a01b0382811660048301528391908216906307b7ed99906024016114cc565b60008281526099602052604081206121109083613353565b9392505050565b6000828152609960205260408120612110908361335f565b60008061213a613081565b609a54909150600160381b90046001600160a01b0316156121e857609a5460405163ef4f081f60e01b81526000916001600160a01b03600160381b8204169163ef4f081f9161219d91869160ff16908e908e908e908e908e908e906004016145fd565b6040805180830381865afa1580156121b9573d6000803e3d6000fd5b505050506040513d601f19601f820116820180604052508101906121dd919061464a565b5092506121ee915050565b60009150505b9695505050505050565b612200613194565b61221860008051602061486883398151915282612a74565b6040516001600160a01b03821681527f10e1f7ce9fd7d1b90a66d13a2ab3cb8dd7f29f3f8d520b143b063ccfbab6906b90602001611302565b612259613194565b609a805460ff191660ff92909216919091179055565b604080516080810182526000808252602080830182905282840182905260608301829052868252609c815283822054935192936001600160a01b0316926122bc91849188918891016144ac565b60408051808303601f19018152828252805160209182012060ff8c811660088d901b68ffffffffffffffff0016176000818152609e85528581208482529094529284902060808601909452835491955091939291839116600481111561232457612324614248565b600481111561233557612335614248565b8152905461010081046001600160c81b03166020830152600160d01b810460ff166040830152600160d81b900464ffffffffff166060909101529998505050505050505050565b612384613194565b60405163025a3c9960e21b815282906001600160a01b03821690630968f264906114cc908590600401614577565b6123ba612fd5565b6123c261303b565b6000838152609c602090815260408083205490516001600160a01b039091169268ffffffffffffffff00600889901b1660ff8a161792909161240a91859188918891016144ac565b60408051601f1981840301815282825280516020918201206001600160481b0386166000908152609e835283812082825290925282822060808501909352825490945090929190829060ff16600481111561246757612467614248565b600481111561247857612478614248565b8152905461010081046001600160c81b0316602080840191909152600160d01b820460ff16604080850191909152600160d81b90920464ffffffffff1660609093019290925260008a8152609c9092529020549091506001600160a01b031661251f5760405162461bcd60e51b81526020600482015260196024820152781b9bc81a185b991b195c88199bdc881c995cdbdd5c98d95251603a1b6044820152606401610a86565b60028151600481111561253457612534614248565b141561255257612549898988888b6001610e67565b505050506112a3565b600061255c613081565b905060018260000151600481111561257657612576614248565b11156125945760405162461bcd60e51b8152600401610a869061459a565b61259e828261325f565b156125e35760405162461bcd60e51b81526020600482015260156024820152741c995b185e595c88185b1c9958591e481d9bdd1959605a1b6044820152606401610a86565b6000825160048111156125f8576125f8614248565b1415612658576040805160808101825260018082526000602083018190528284015264ffffffffff4316606083015291519093506000805160206148488339815191529161264b918d918d918890614477565b60405180910390a16126b9565b609a54606083015164ffffffffff6201000090920482169161267c91439116612f93565b64ffffffffff1611156126b9576004808352604051600080516020614848833981519152916126b0918d918d918890614477565b60405180910390a15b6004825160048111156126ce576126ce614248565b1461279e576126f36126df82613282565b83602001516001600160c81b0316176132b0565b6001600160c81b0316602083015260408201805190612711826145dd565b60ff1690525081516040517f25f8daaa4635a7729927ba3f5b3d59cc3320aca7c32c9db4e7ca7b95743436409161274d918d918d918890614477565b60405180910390a1609a54604083015160ff610100909204821691161061279e57600280835260405160008051602061484883398151915291612795918d918d918890614477565b60405180910390a15b6001600160481b0384166000908152609e6020908152604080832086845290915290208251815484929190829060ff191660018360048111156127e3576127e3614248565b021790555060208201518154604084015160609094015164ffffffffff16600160d81b026001600160d81b0360ff909516600160d01b0260ff60d01b196001600160c81b039094166101000293909316610100600160d81b031990921691909117919091179290921691909117905560028251600481111561286757612867614248565b141561287c5761287c8a8a89898c6000610e67565b50505050505050505050565b609a54600090600160381b90046001600160a01b03161561291a57609a60079054906101000a90046001600160a01b03166001600160a01b031663c5b37c226040518163ffffffff1660e01b8152600401602060405180830381865afa1580156128f6573d6000803e3d6000fd5b505050506040513d601f19601f82011682018060405250810190611fb59190614796565b50600090565b600081815260996020526040812061133490613381565b61293f613194565b6000828152609c60205260409081902080546001600160a01b0319166001600160a01b038681169182179092559151635c7d1b9b60e11b815260048101859052908316602482015284919063b8fa373690604401612021565b6129a0613194565b60c86129aa611f9c565b106129f05760405162461bcd60e51b81526020600482015260166024820152751c995b185e595c9cc81b1a5b5a5d081c995858da195960521b6044820152606401610a86565b612a08600080516020614868833981519152826110ec565b6040516001600160a01b03821681527f03580ee9f53a62b7cb409a2cb56f9be87747dd15017afc5cef6eef321e4fb2c590602001611302565b612a49613194565b6001600160a01b03919091166000908152609d60205260409020805460ff1916911515919091179055565b600082815260996020526040902060020154612a9290610727613081565b6111fc5760405162461bcd60e51b815260206004820152603060248201527f416363657373436f6e74726f6c3a2073656e646572206d75737420626520616e60448201526f2061646d696e20746f207265766f6b6560801b6064820152608401610a86565b612aff613194565b609a5460019060009060ff16612b17836101006147af565b612b2191906147ce565b6000818152609c60205260409081902080546001600160a01b0319166001600160a01b038781169182179092559151635c7d1b9b60e11b8152600481018490529085166024820152919250849163b8fa373690604401600060405180830381600087803b158015612b9157600080fd5b505af1158015612ba5573d6000803e3d6000fd5b505060405163789d771160e01b81526001600160a01b038681166004830152600160248301528416925063789d77119150604401612021565b612be6613194565b60ff82166000908152609b60205260409020546001600160401b0390811690821611612c635760405162461bcd60e51b815260206004820152602660248201527f446f6573206e6f7420616c6c6f772064656372656d656e7473206f6620746865604482015265206e6f6e636560d01b6064820152608401610a86565b60ff919091166000908152609b60205260409020805467ffffffffffffffff19166001600160401b03909216919091179055565b6000807fc4cb5d35714699d6e85b9562b644e60393b418d974a5c1dd8efaadac37a142c58989898989604051612cce92919061458a565b604051908190038120612d11959493929160200194855260ff9390931660208501526001600160401b039190911660408401526060830152608082015260a00190565b6040516020818303038152906040528051906020012090506000612d34826131ed565b90506000612d788287878080601f01602080910402602001604051908101604052809392919081815260200183838082843760009201919091525061323b92505050565b9050612d9260008051602061486883398151915282612117565b9b9a5050505050505050505050565b612da9613194565b611fd2612db4613081565b61338b565b600054610100900460ff16612dd45760005460ff1615612dd8565b303b155b612df45760405162461bcd60e51b8152600401610a86906143e2565b600054610100900460ff16158015612e16576000805461ffff19166101011790555b612e1e6133d6565b8015612e30576000805461ff00191690555b50565b600054610100900460ff16612e5a5760405162461bcd60e51b8152600401610a86906147e6565b6111788282613451565b60006101008210612eb75760405162461bcd60e51b815260206004820152601c60248201527f76616c756520646f6573206e6f742066697420696e20382062697473000000006044820152606401610a86565b5090565b6000650100000000008210612eb75760405162461bcd60e51b815260206004820152601d60248201527f76616c756520646f6573206e6f742066697420696e20343020626974730000006044820152606401610a86565b6000612f1c613081565b9050612f29600082612117565b80612f475750612f4760008051602061486883398151915282612117565b612e305760405162461bcd60e51b815260206004820152601e60248201527f73656e646572206973206e6f742072656c61796572206f722061646d696e00006044820152606401610a86565b600061211083836040518060400160405280601e81526020017f536166654d6174683a207375627472616374696f6e206f766572666c6f770000815250613492565b612fef600080516020614868833981519152610727613081565b611fd25760405162461bcd60e51b815260206004820181905260248201527f73656e64657220646f65736e277420686176652072656c6179657220726f6c656044820152606401610a86565b60355460ff1615611fd25760405162461bcd60e51b815260206004820152601060248201526f14185d5cd8589b194e881c185d5cd95960821b6044820152606401610a86565b600033601436108015906130ad57506001600160a01b0381166000908152609d602052604090205460ff165b156130bd575060131936013560601c5b919050565b60008281526099602052604090206130da90826134cc565b15611178576130e7613081565b6001600160a01b0316816001600160a01b0316837f2f8788117e7eff1d82e926ec794901d17c78024a50270940304540a733656f0d60405160405180910390a45050565b600082815260996020526040902061314390826134e1565b1561117857613150613081565b6001600160a01b0316816001600160a01b0316837ff6391f5c32d9c69d2a47ea670b442974b53935d1edc7fd64eb21e047a839171b60405160405180910390a45050565b6131a16000610727613081565b611fd25760405162461bcd60e51b815260206004820152601e60248201527f73656e64657220646f65736e277420686176652061646d696e20726f6c6500006044820152606401610a86565b60006113346131fa6134f6565b8360405161190160f01b6020820152602281018390526042810182905260009060620160405160208183030381529060405280519060200120905092915050565b600080600061324a8585613571565b91509150613257816135e1565b509392505050565b60008083602001516001600160c81b031661327984613282565b16119392505050565b60006132a661329f6000805160206148688339815191528461130d565b6001612f93565b6001901b92915050565b6000600160c81b8210612eb75760405162461bcd60e51b815260206004820152601e60248201527f76616c756520646f6573206e6f742066697420696e20323030206269747300006044820152606401610a86565b61330d61303b565b6035805460ff191660011790556040516001600160a01b03821681527f62e78cea01bee320cd4e420270b5ea74000d11b0c9f74754ebdbfc544b05a25890602001611302565b6000612110838361379c565b6001600160a01b03811660009081526001830160205260408120541515612110565b6000611334825490565b6133936137c6565b6035805460ff191690556040516001600160a01b03821681527f5db9ee0a495bf2e6ff9c91a7834c1ba4fdd244a5e8aa4e537bd38aeae4b073aa90602001611302565b600054610100900460ff166133f15760005460ff16156133f5565b303b155b6134115760405162461bcd60e51b8152600401610a86906143e2565b600054610100900460ff16158015613433576000805461ffff19166101011790555b6035805460ff191690558015612e30576000805461ff001916905550565b600054610100900460ff166134785760405162461bcd60e51b8152600401610a86906147e6565b815160209283012081519190920120600191909155600255565b600081848411156134b65760405162461bcd60e51b8152600401610a869190614577565b5060006134c3848661466f565b95945050505050565b6000612110836001600160a01b03841661380f565b6000612110836001600160a01b03841661385e565b6000611fb57f8b73c3c69bb8fe3d512ecc4cf759cc79239f7b179b0ffacaa9a75d522b39400f61352560015490565b6002546040805160208101859052908101839052606081018290524660808201523060a082015260009060c0016040516020818303038152906040528051906020012090509392505050565b6000808251604114156135a85760208301516040840151606085015160001a61359c87828585613951565b945094505050506135da565b8251604014156135d257602083015160408401516135c7868383613a3e565b9350935050506135da565b506000905060025b9250929050565b60008160048111156135f5576135f5614248565b14156135fe5750565b600181600481111561361257613612614248565b14156136605760405162461bcd60e51b815260206004820152601860248201527f45434453413a20696e76616c6964207369676e617475726500000000000000006044820152606401610a86565b600281600481111561367457613674614248565b14156136c25760405162461bcd60e51b815260206004820152601f60248201527f45434453413a20696e76616c6964207369676e6174757265206c656e677468006044820152606401610a86565b60038160048111156136d6576136d6614248565b141561372f5760405162461bcd60e51b815260206004820152602260248201527f45434453413a20696e76616c6964207369676e6174757265202773272076616c604482015261756560f01b6064820152608401610a86565b600481600481111561374357613743614248565b1415612e305760405162461bcd60e51b815260206004820152602260248201527f45434453413a20696e76616c6964207369676e6174757265202776272076616c604482015261756560f01b6064820152608401610a86565b60008260000182815481106137b3576137b3614430565b9060005260206000200154905092915050565b60355460ff16611fd25760405162461bcd60e51b815260206004820152601460248201527314185d5cd8589b194e881b9bdd081c185d5cd95960621b6044820152606401610a86565b600081815260018301602052604081205461385657508154600181810184556000848152602080822090930184905584548482528286019093526040902091909155611334565b506000611334565b6000818152600183016020526040812054801561394757600061388260018361466f565b85549091506000906138969060019061466f565b90508181146138fb5760008660000182815481106138b6576138b6614430565b90600052602060002001549050808760000184815481106138d9576138d9614430565b6000918252602080832090910192909255918252600188019052604090208390555b855486908061390c5761390c614831565b600190038181906000526020600020016000905590558560010160008681526020019081526020016000206000905560019350505050611334565b6000915050611334565b6000807f7fffffffffffffffffffffffffffffff5d576e7357a4501ddfe92f46681b20a08311156139885750600090506003613a35565b8460ff16601b141580156139a057508460ff16601c14155b156139b15750600090506004613a35565b6040805160008082526020820180845289905260ff881692820192909252606081018690526080810185905260019060a0016020604051602081039080840390855afa158015613a05573d6000803e3d6000fd5b5050604051601f1901519150506001600160a01b038116613a2e57600060019250925050613a35565b9150600090505b94509492505050565b6000806001600160ff1b03831681613a5b60ff86901c601b6147ce565b9050613a6987828885613951565b935093505050935093915050565b803560ff811681146130bd57600080fd5b634e487b7160e01b600052604160045260246000fd5b604051601f8201601f191681016001600160401b0381118282101715613ac657613ac6613a88565b604052919050565b60006001600160401b03821115613ae757613ae7613a88565b5060051b60200190565b6001600160a01b0381168114612e3057600080fd5b80356130bd81613af1565b600080600080600060a08688031215613b2957600080fd5b613b3286613a77565b94506020808701356001600160401b03811115613b4e57600080fd5b8701601f81018913613b5f57600080fd5b8035613b72613b6d82613ace565b613a9e565b81815260059190911b8201830190838101908b831115613b9157600080fd5b928401925b82841015613bb8578335613ba981613af1565b82529284019290840190613b96565b9750505050604087013593505060608601359150613bd860808701613b06565b90509295509295909350565b80356001600160401b03811681146130bd57600080fd5b600080600060608486031215613c1057600080fd5b613c1984613a77565b9250613c2760208501613be4565b9150604084013590509250925092565b60008083601f840112613c4957600080fd5b5081356001600160401b03811115613c6057600080fd5b6020830191508360208285010111156135da57600080fd5b803580151581146130bd57600080fd5b60008060008060008060a08789031215613ca157600080fd5b613caa87613a77565b9550613cb860208801613be4565b945060408701356001600160401b03811115613cd357600080fd5b613cdf89828a01613c37565b90955093505060608701359150613cf860808801613c78565b90509295509295509295565b600060208284031215613d1657600080fd5b5035919050565b60008060408385031215613d3057600080fd5b823591506020830135613d4281613af1565b809150509250929050565b60008083601f840112613d5f57600080fd5b5081356001600160401b03811115613d7657600080fd5b6020830191508360208260051b85010111156135da57600080fd5b60008060008060408587031215613da757600080fd5b84356001600160401b0380821115613dbe57600080fd5b613dca88838901613d4d565b90965094506020870135915080821115613de357600080fd5b50613df087828801613d4d565b95989497509550505050565b600060208284031215613e0e57600080fd5b61211082613a77565b600060208284031215613e2957600080fd5b813561211081613af1565b80356001600160e01b0319811681146130bd57600080fd5b60008060008060008060c08789031215613e6557600080fd5b8635613e7081613af1565b9550602087013594506040870135613e8781613af1565b9350613e9560608801613e34565b925060808701359150613cf860a08801613e34565b60006001600160401b03821115613ec357613ec3613a88565b50601f01601f191660200190565b600082601f830112613ee257600080fd5b8135613ef0613b6d82613eaa565b818152846020838601011115613f0557600080fd5b816020850160208301376000918101602001919091529392505050565b60008060408385031215613f3557600080fd5b8235613f4081613af1565b915060208301356001600160401b03811115613f5b57600080fd5b613f6785828601613ed1565b9150509250929050565b60008060008060008060a08789031215613f8a57600080fd5b613f9387613a77565b95506020613fa2818901613be4565b95506040880135945060608801356001600160401b0380821115613fc557600080fd5b613fd18b838c01613c37565b909650945060808a0135915080821115613fea57600080fd5b818a0191508a601f830112613ffe57600080fd5b813561400c613b6d82613ace565b81815260059190911b8301840190848101908d83111561402b57600080fd5b8585015b8381101561406157848135111561404557600080fd5b6140548f888335890101613ed1565b835291860191860161402f565b508096505050505050509295509295509295565b6000806000806000806080878903121561408e57600080fd5b61409787613a77565b95506020870135945060408701356001600160401b03808211156140ba57600080fd5b6140c68a838b01613c37565b909650945060608901359150808211156140df57600080fd5b506140ec89828a01613c37565b979a9699509497509295939492505050565b60008060006060848603121561411357600080fd5b83356001600160481b038116811461412a57600080fd5b925060208401359150604084013561414181613af1565b809150509250925092565b60008060006060848603121561416157600080fd5b83359250602084013561417381613af1565b915061418160408501613c78565b90509250925092565b6000806040838503121561419d57600080fd5b82356141a881613af1565b91506020830135613d4281613af1565b600080604083850312156141cb57600080fd5b50508035926020909101359150565b6000806000806000608086880312156141f257600080fd5b6141fb86613a77565b945061420960208701613be4565b93506040860135925060608601356001600160401b0381111561422b57600080fd5b61423788828901613c37565b969995985093965092949392505050565b634e487b7160e01b600052602160045260246000fd5b6005811061427c57634e487b7160e01b600052602160045260246000fd5b9052565b600060808201905061429382845161425e565b60018060c81b03602084015116602083015260ff604084015116604083015264ffffffffff606084015116606083015292915050565b6000806000606084860312156142de57600080fd5b833561412a81613af1565b600080604083850312156142fc57600080fd5b823561430781613af1565b915061431560208401613c78565b90509250929050565b6000806040838503121561433157600080fd5b61433a83613a77565b915061431560208401613be4565b600080600080600080600060a0888a03121561436357600080fd5b61436c88613a77565b965061437a60208901613be4565b95506040880135945060608801356001600160401b038082111561439d57600080fd5b6143a98b838c01613c37565b909650945060808a01359150808211156143c257600080fd5b506143cf8a828b01613c37565b989b979a50959850939692959293505050565b6020808252602e908201527f496e697469616c697a61626c653a20636f6e747261637420697320616c72656160408201526d191e481a5b9a5d1a585b1a5e995960921b606082015260800190565b634e487b7160e01b600052603260045260246000fd5b634e487b7160e01b600052601160045260246000fd5b600060001982141561447057614470614446565b5060010190565b60ff851681526001600160401b03841660208201526080810161449d604083018561425e565b82606083015295945050505050565b6bffffffffffffffffffffffff198460601b168152818360148301376000910160140190815292915050565b81835281816020850137506000828201602090810191909152601f909101601f19169091010190565b8381526040602082015260006134c36040830184866144d8565b60005b8381101561453657818101518382015260200161451e565b83811115614545576000848401525b50505050565b6000815180845261456381602086016020860161451b565b601f01601f19169290920160200192915050565b602081526000612110602083018461454b565b8183823760009101908152919050565b60208082526023908201527f70726f706f73616c20616c72656164792065786563757465642f63616e63656c6040820152621b195960ea1b606082015260800190565b600060ff821660ff8114156145f4576145f4614446565b60010192915050565b60018060a01b038916815260ff8816602082015260ff8716604082015285606082015260c06080820152600061463760c0830186886144d8565b82810360a0840152612d928185876144d8565b6000806040838503121561465d57600080fd5b825191506020830151613d4281613af1565b60008282101561468157614681614446565b500390565b60006001600160401b03808316818114156146a3576146a3614446565b6001019392505050565b8481526001600160a01b03841660208201526060604082018190526000906121ee90830184866144d8565b6000602082840312156146ea57600080fd5b81516001600160401b0381111561470057600080fd5b8201601f8101841361471157600080fd5b805161471f613b6d82613eaa565b81815285602083850101111561473457600080fd5b6134c382602083016020860161451b565b60ff871681528560208201526001600160401b038516604082015260a06060820152600061477760a0830185876144d8565b8281036080840152614789818561454b565b9998505050505050505050565b6000602082840312156147a857600080fd5b5051919050565b60008160001904831182151516156147c9576147c9614446565b500290565b600082198211156147e1576147e1614446565b500190565b6020808252602b908201527f496e697469616c697a61626c653a20636f6e7472616374206973206e6f74206960408201526a6e697469616c697a696e6760a81b606082015260800190565b634e487b7160e01b600052603160045260246000fdfe968626a768e76ba1363efe44e322a6c4900c5f084e0b45f35e294dfddaa9e0d5e2b7fb3b832174769106daebcfd6d1970523240dda11281102db9363b83b0dc4a26469706673582212203b94a686511ca75101c93fc6f9a95710e8aa5b73c6739ddb128967e434dd111b64736f6c634300080b0033",
  "linkReferences": {},
  "deployedLinkReferences": {}
}