{
  "_format": "hh-sol-artifact-1",
  "contractName": "BridgeUpgradeable",
  "sourceName": "contracts/BridgeUpgradeable.sol",
  "abi": [
    {
      "inputs": [
        {
          "internalType": "uint256",
          "name": "msgValue",
          "type": "uint256"
        },
        {
          "internalType": "uint256",
          "name": "fee",
          "type": "uint256"
        }
      ],
      "name": "IncorrectFeeSupplied",
      "type": "error"
    },
    {
      "inputs": [
        {
          "internalType": "address",
          "name": "signer",
          "type": "address"
        },
        {
          "internalType": "uint256",
          "name": "index",
          "type": "uint256"
        }
      ],
      "name": "InvalidSignature",
      "type": "error"
    },
    {
      "inputs": [],
      "name": "ResourceIDNotMappedToHandler",
      "type": "error"
    },
    {
      "anonymous": false,
      "inputs": [
        {
          "indexed": false,
          "internalType": "uint8",
          "name": "destinationDomainID",
          "type": "uint8"
        },
        {
          "indexed": false,
          "internalType": "bytes32",
          "name": "resourceID",
          "type": "bytes32"
        },
        {
          "indexed": false,
          "internalType": "uint64",
          "name": "depositNonce",
          "type": "uint64"
        },
        {
          "indexed": true,
          "internalType": "address",
          "name": "user",
          "type": "address"
        },
        {
          "indexed": false,
          "internalType": "bytes",
          "name": "data",
          "type": "bytes"
        },
        {
          "indexed": false,
          "internalType": "bytes",
          "name": "handlerResponse",
          "type": "bytes"
        }
      ],
      "name": "Deposit",
      "type": "event"
    },
    {
      "anonymous": false,
      "inputs": [
        {
          "indexed": false,
          "internalType": "bytes",
          "name": "lowLevelData",
          "type": "bytes"
        }
      ],
      "name": "FailedHandlerExecution",
      "type": "event"
    },
    {
      "anonymous": false,
      "inputs": [
        {
          "indexed": false,
          "internalType": "uint256",
          "name": "newFee",
          "type": "uint256"
        }
      ],
      "name": "FeeChanged",
      "type": "event"
    },
    {
      "anonymous": false,
      "inputs": [
        {
          "indexed": false,
          "internalType": "address",
          "name": "tokenAddress",
          "type": "address"
        },
        {
          "indexed": false,
          "internalType": "address",
          "name": "recipient",
          "type": "address"
        },
        {
          "indexed": false,
          "internalType": "uint256",
          "name": "amount",
          "type": "uint256"
        }
      ],
      "name": "FeeDistributed",
      "type": "event"
    },
    {
      "anonymous": false,
      "inputs": [
        {
          "indexed": false,
          "internalType": "address",
          "name": "newFeeHandler",
          "type": "address"
        }
      ],
      "name": "FeeHandlerChanged",
      "type": "event"
    },
    {
      "anonymous": false,
      "inputs": [
        {
          "indexed": false,
          "internalType": "uint8",
          "name": "version",
          "type": "uint8"
        }
      ],
      "name": "Initialized",
      "type": "event"
    },
    {
      "anonymous": false,
      "inputs": [
        {
          "indexed": false,
          "internalType": "address",
          "name": "account",
          "type": "address"
        }
      ],
      "name": "Paused",
      "type": "event"
    },
    {
      "anonymous": false,
      "inputs": [
        {
          "indexed": false,
          "internalType": "uint8",
          "name": "originDomainID",
          "type": "uint8"
        },
        {
          "indexed": false,
          "internalType": "uint64",
          "name": "depositNonce",
          "type": "uint64"
        },
        {
          "indexed": false,
          "internalType": "enum IBridge.ProposalStatus",
          "name": "status",
          "type": "uint8"
        },
        {
          "indexed": false,
          "internalType": "bytes32",
          "name": "dataHash",
          "type": "bytes32"
        }
      ],
      "name": "ProposalEvent",
      "type": "event"
    },
    {
      "anonymous": false,
      "inputs": [
        {
          "indexed": false,
          "internalType": "uint8",
          "name": "originDomainID",
          "type": "uint8"
        },
        {
          "indexed": false,
          "internalType": "uint64",
          "name": "depositNonce",
          "type": "uint64"
        },
        {
          "indexed": false,
          "internalType": "enum IBridge.ProposalStatus",
          "name": "status",
          "type": "uint8"
        },
        {
          "indexed": false,
          "internalType": "bytes32",
          "name": "dataHash",
          "type": "bytes32"
        }
      ],
      "name": "ProposalVote",
      "type": "event"
    },
    {
      "anonymous": false,
      "inputs": [
        {
          "indexed": false,
          "internalType": "address",
          "name": "relayer",
          "type": "address"
        }
      ],
      "name": "RelayerAdded",
      "type": "event"
    },
    {
      "anonymous": false,
      "inputs": [
        {
          "indexed": false,
          "internalType": "address",
          "name": "relayer",
          "type": "address"
        }
      ],
      "name": "RelayerRemoved",
      "type": "event"
    },
    {
      "anonymous": false,
      "inputs": [
        {
          "indexed": false,
          "internalType": "uint256",
          "name": "newThreshold",
          "type": "uint256"
        }
      ],
      "name": "RelayerThresholdChanged",
      "type": "event"
    },
    {
      "anonymous": false,
      "inputs": [
        {
          "indexed": true,
          "internalType": "bytes32",
          "name": "role",
          "type": "bytes32"
        },
        {
          "indexed": true,
          "internalType": "address",
          "name": "account",
          "type": "address"
        },
        {
          "indexed": true,
          "internalType": "address",
          "name": "sender",
          "type": "address"
        }
      ],
      "name": "RoleGranted",
      "type": "event"
    },
    {
      "anonymous": false,
      "inputs": [
        {
          "indexed": true,
          "internalType": "bytes32",
          "name": "role",
          "type": "bytes32"
        },
        {
          "indexed": true,
          "internalType": "address",
          "name": "account",
          "type": "address"
        },
        {
          "indexed": true,
          "internalType": "address",
          "name": "sender",
          "type": "address"
        }
      ],
      "name": "RoleRevoked",
      "type": "event"
    },
    {
      "anonymous": false,
      "inputs": [
        {
          "indexed": false,
          "internalType": "address",
          "name": "account",
          "type": "address"
        }
      ],
      "name": "Unpaused",
      "type": "event"
    },
    {
      "inputs": [],
      "name": "DEFAULT_ADMIN_ROLE",
      "outputs": [
        {
          "internalType": "bytes32",
          "name": "",
          "type": "bytes32"
        }
      ],
      "stateMutability": "view",
      "type": "function"
    },
    {
      "inputs": [],
      "name": "MAX_RELAYERS",
      "outputs": [
        {
          "internalType": "uint256",
          "name": "",
          "type": "uint256"
        }
      ],
      "stateMutability": "view",
      "type": "function"
    },
    {
      "inputs": [],
      "name": "PERMIT_TYPEHASH",
      "outputs": [
        {
          "internalType": "bytes32",
          "name": "",
          "type": "bytes32"
        }
      ],
      "stateMutability": "view",
      "type": "function"
    },
    {
      "inputs": [],
      "name": "RELAYER_ROLE",
      "outputs": [
        {
          "internalType": "bytes32",
          "name": "",
          "type": "bytes32"
        }
      ],
      "stateMutability": "view",
      "type": "function"
    },
    {
      "inputs": [],
      "name": "_chainId",
      "outputs": [
        {
          "internalType": "uint256",
          "name": "",
          "type": "uint256"
        }
      ],
      "stateMutability": "view",
      "type": "function"
    },
    {
      "inputs": [
        {
          "internalType": "uint8",
          "name": "",
          "type": "uint8"
        }
      ],
      "name": "_depositCounts",
      "outputs": [
        {
          "internalType": "uint64",
          "name": "",
          "type": "uint64"
        }
      ],
      "stateMutability": "view",
      "type": "function"
    },
    {
      "inputs": [],
      "name": "_domainID",
      "outputs": [
        {
          "internalType": "uint8",
          "name": "",
          "type": "uint8"
        }
      ],
      "stateMutability": "view",
      "type": "function"
    },
    {
      "inputs": [],
      "name": "_expiry",
      "outputs": [
        {
          "internalType": "uint40",
          "name": "",
          "type": "uint40"
        }
      ],
      "stateMutability": "view",
      "type": "function"
    },
    {
      "inputs": [],
      "name": "_fee",
      "outputs": [
        {
          "internalType": "uint256",
          "name": "",
          "type": "uint256"
        }
      ],
      "stateMutability": "view",
      "type": "function"
    },
    {
      "inputs": [],
      "name": "_feeHandler",
      "outputs": [
        {
          "internalType": "contract IFeeHandler",
          "name": "",
          "type": "address"
        }
      ],
      "stateMutability": "view",
      "type": "function"
    },
    {
      "inputs": [],
      "name": "_feeReserve",
      "outputs": [
        {
          "internalType": "uint256",
          "name": "",
          "type": "uint256"
        }
      ],
      "stateMutability": "view",
      "type": "function"
    },
    {
      "inputs": [],
      "name": "_fee_",
      "outputs": [
        {
          "internalType": "uint256",
          "name": "",
          "type": "uint256"
        }
      ],
      "stateMutability": "view",
      "type": "function"
    },
    {
      "inputs": [
        {
          "internalType": "uint72",
          "name": "destNonce",
          "type": "uint72"
        },
        {
          "internalType": "bytes32",
          "name": "dataHash",
          "type": "bytes32"
        },
        {
          "internalType": "address",
          "name": "relayer",
          "type": "address"
        }
      ],
      "name": "_hasVotedOnProposal",
      "outputs": [
        {
          "internalType": "bool",
          "name": "",
          "type": "bool"
        }
      ],
      "stateMutability": "view",
      "type": "function"
    },
    {
      "inputs": [],
      "name": "_relayerThreshold",
      "outputs": [
        {
          "internalType": "uint8",
          "name": "",
          "type": "uint8"
        }
      ],
      "stateMutability": "view",
      "type": "function"
    },
    {
      "inputs": [
        {
          "internalType": "bytes32",
          "name": "",
          "type": "bytes32"
        }
      ],
      "name": "_resourceIDToHandlerAddress",
      "outputs": [
        {
          "internalType": "address",
          "name": "",
          "type": "address"
        }
      ],
      "stateMutability": "view",
      "type": "function"
    },
    {
      "inputs": [],
      "name": "_totalRelayers",
      "outputs": [
        {
          "internalType": "uint256",
          "name": "",
          "type": "uint256"
        }
      ],
      "stateMutability": "view",
      "type": "function"
    },
    {
      "inputs": [
        {
          "internalType": "address",
          "name": "relayerAddress",
          "type": "address"
        }
      ],
      "name": "adminAddRelayer",
      "outputs": [],
      "stateMutability": "nonpayable",
      "type": "function"
    },
    {
      "inputs": [
        {
          "internalType": "uint256",
          "name": "expiry",
          "type": "uint256"
        }
      ],
      "name": "adminChangeExpiry",
      "outputs": [],
      "stateMutability": "nonpayable",
      "type": "function"
    },
    {
      "inputs": [
        {
          "internalType": "uint256",
          "name": "newThreshold",
          "type": "uint256"
        }
      ],
      "name": "adminChangeRelayerThreshold",
      "outputs": [],
      "stateMutability": "nonpayable",
      "type": "function"
    },
    {
      "inputs": [],
      "name": "adminPauseTransfers",
      "outputs": [],
      "stateMutability": "nonpayable",
      "type": "function"
    },
    {
      "inputs": [
        {
          "internalType": "address",
          "name": "handlerAddress",
          "type": "address"
        },
        {
          "internalType": "bytes32",
          "name": "resourceID",
          "type": "bytes32"
        },
        {
          "internalType": "address",
          "name": "contractAddress",
          "type": "address"
        }
      ],
      "name": "adminRemoveGenericResource",
      "outputs": [],
      "stateMutability": "nonpayable",
      "type": "function"
    },
    {
      "inputs": [
        {
          "internalType": "address",
          "name": "handlerAddress",
          "type": "address"
        }
      ],
      "name": "adminRemoveNativeResourceId",
      "outputs": [],
      "stateMutability": "nonpayable",
      "type": "function"
    },
    {
      "inputs": [
        {
          "internalType": "address",
          "name": "relayerAddress",
          "type": "address"
        }
      ],
      "name": "adminRemoveRelayer",
      "outputs": [],
      "stateMutability": "nonpayable",
      "type": "function"
    },
    {
      "inputs": [
        {
          "internalType": "address",
          "name": "handlerAddress",
          "type": "address"
        },
        {
          "internalType": "bytes32",
          "name": "resourceID",
          "type": "bytes32"
        },
        {
          "internalType": "address",
          "name": "tokenAddress",
          "type": "address"
        }
      ],
      "name": "adminRemoveResourceId",
      "outputs": [],
      "stateMutability": "nonpayable",
      "type": "function"
    },
    {
      "inputs": [
        {
          "internalType": "uint8",
          "name": "destinationDomainID",
          "type": "uint8"
        }
      ],
      "name": "adminRemoveSpecialFee",
      "outputs": [],
      "stateMutability": "nonpayable",
      "type": "function"
    },
    {
      "inputs": [
        {
          "internalType": "address",
          "name": "handlerAddress",
          "type": "address"
        },
        {
          "internalType": "address",
          "name": "tokenAddress",
          "type": "address"
        }
      ],
      "name": "adminSetBurnable",
      "outputs": [],
      "stateMutability": "nonpayable",
      "type": "function"
    },
    {
      "inputs": [
        {
          "internalType": "uint8",
          "name": "domainID",
          "type": "uint8"
        },
        {
          "internalType": "uint64",
          "name": "nonce",
          "type": "uint64"
        }
      ],
      "name": "adminSetDepositNonce",
      "outputs": [],
      "stateMutability": "nonpayable",
      "type": "function"
    },
    {
      "inputs": [
        {
          "internalType": "uint8",
          "name": "domainID",
          "type": "uint8"
        }
      ],
      "name": "adminSetDomainId",
      "outputs": [],
      "stateMutability": "nonpayable",
      "type": "function"
    },
    {
      "inputs": [
        {
          "internalType": "uint256",
          "name": "newFee",
          "type": "uint256"
        }
      ],
      "name": "adminSetFee",
      "outputs": [],
      "stateMutability": "nonpayable",
      "type": "function"
    },
    {
      "inputs": [
        {
          "internalType": "address",
          "name": "forwarder",
          "type": "address"
        },
        {
          "internalType": "bool",
          "name": "valid",
          "type": "bool"
        }
      ],
      "name": "adminSetForwarder",
      "outputs": [],
      "stateMutability": "nonpayable",
      "type": "function"
    },
    {
      "inputs": [
        {
          "internalType": "address",
          "name": "handlerAddress",
          "type": "address"
        },
        {
          "internalType": "bytes32",
          "name": "resourceID",
          "type": "bytes32"
        },
        {
          "internalType": "address",
          "name": "contractAddress",
          "type": "address"
        },
        {
          "internalType": "bytes4",
          "name": "depositFunctionSig",
          "type": "bytes4"
        },
        {
          "internalType": "uint256",
          "name": "depositFunctionDepositorOffset",
          "type": "uint256"
        },
        {
          "internalType": "bytes4",
          "name": "executeFunctionSig",
          "type": "bytes4"
        }
      ],
      "name": "adminSetGenericResource",
      "outputs": [],
      "stateMutability": "nonpayable",
      "type": "function"
    },
    {
      "inputs": [
        {
          "internalType": "bytes32",
          "name": "resourceID",
          "type": "bytes32"
        },
        {
          "internalType": "address",
          "name": "nativeAddress",
          "type": "address"
        },
        {
          "internalType": "bool",
          "name": "isNative",
          "type": "bool"
        }
      ],
      "name": "adminSetNative",
      "outputs": [],
      "stateMutability": "nonpayable",
      "type": "function"
    },
    {
      "inputs": [
        {
          "internalType": "address",
          "name": "handlerAddress",
          "type": "address"
        }
      ],
      "name": "adminSetNativeResource",
      "outputs": [],
      "stateMutability": "nonpayable",
      "type": "function"
    },
    {
      "inputs": [
        {
          "internalType": "address",
          "name": "handlerAddress",
          "type": "address"
        },
        {
          "internalType": "bytes32",
          "name": "resourceID",
          "type": "bytes32"
        },
        {
          "internalType": "address",
          "name": "tokenAddress",
          "type": "address"
        }
      ],
      "name": "adminSetResource",
      "outputs": [],
      "stateMutability": "nonpayable",
      "type": "function"
    },
    {
      "inputs": [
        {
          "internalType": "uint8",
          "name": "destinationDomainID",
          "type": "uint8"
        },
        {
          "internalType": "uint256",
          "name": "_specialFee",
          "type": "uint256"
        }
      ],
      "name": "adminSetSpecialFee",
      "outputs": [],
      "stateMutability": "nonpayable",
      "type": "function"
    },
    {
      "inputs": [],
      "name": "adminUnpauseTransfers",
      "outputs": [],
      "stateMutability": "nonpayable",
      "type": "function"
    },
    {
      "inputs": [
        {
          "internalType": "address",
          "name": "handlerAddress",
          "type": "address"
        },
        {
          "internalType": "bytes",
          "name": "data",
          "type": "bytes"
        }
      ],
      "name": "adminWithdraw",
      "outputs": [],
      "stateMutability": "nonpayable",
      "type": "function"
    },
    {
      "inputs": [
        {
          "internalType": "address",
          "name": "handlerAddress",
          "type": "address"
        },
        {
          "internalType": "bytes",
          "name": "data",
          "type": "bytes"
        }
      ],
      "name": "adminWithdrawETH",
      "outputs": [],
      "stateMutability": "nonpayable",
      "type": "function"
    },
    {
      "inputs": [
        {
          "internalType": "uint8",
          "name": "domainID",
          "type": "uint8"
        },
        {
          "internalType": "uint64",
          "name": "depositNonce",
          "type": "uint64"
        },
        {
          "internalType": "bytes32",
          "name": "dataHash",
          "type": "bytes32"
        }
      ],
      "name": "cancelProposal",
      "outputs": [],
      "stateMutability": "nonpayable",
      "type": "function"
    },
    {
      "inputs": [
        {
          "internalType": "uint8",
          "name": "domainID",
          "type": "uint8"
        },
        {
          "internalType": "uint64",
          "name": "depositNonce",
          "type": "uint64"
        },
        {
          "internalType": "bytes32",
          "name": "resourceID",
          "type": "bytes32"
        },
        {
          "internalType": "bytes",
          "name": "data",
          "type": "bytes"
        },
        {
          "internalType": "bytes",
          "name": "signature",
          "type": "bytes"
        }
      ],
      "name": "checkSignature",
      "outputs": [
        {
          "internalType": "bool",
          "name": "",
          "type": "bool"
        }
      ],
      "stateMutability": "view",
      "type": "function"
    },
    {
      "inputs": [
        {
          "internalType": "uint8",
          "name": "destinationDomainID",
          "type": "uint8"
        },
        {
          "internalType": "bytes32",
          "name": "resourceID",
          "type": "bytes32"
        },
        {
          "internalType": "bytes",
          "name": "depositData",
          "type": "bytes"
        },
        {
          "internalType": "bytes",
          "name": "feeData",
          "type": "bytes"
        }
      ],
      "name": "deposit",
      "outputs": [],
      "stateMutability": "payable",
      "type": "function"
    },
    {
      "inputs": [
        {
          "internalType": "uint8",
          "name": "domainID",
          "type": "uint8"
        },
        {
          "internalType": "uint64",
          "name": "depositNonce",
          "type": "uint64"
        },
        {
          "internalType": "bytes",
          "name": "data",
          "type": "bytes"
        },
        {
          "internalType": "bytes32",
          "name": "resourceID",
          "type": "bytes32"
        },
        {
          "internalType": "bool",
          "name": "revertOnFail",
          "type": "bool"
        }
      ],
      "name": "executeProposal",
      "outputs": [],
      "stateMutability": "nonpayable",
      "type": "function"
    },
    {
      "inputs": [
        {
          "internalType": "uint8",
          "name": "destinationDomainID",
          "type": "uint8"
        }
      ],
      "name": "getFee",
      "outputs": [
        {
          "internalType": "uint256",
          "name": "",
          "type": "uint256"
        }
      ],
      "stateMutability": "view",
      "type": "function"
    },
    {
      "inputs": [
        {
          "internalType": "uint8",
          "name": "originDomainID",
          "type": "uint8"
        },
        {
          "internalType": "uint64",
          "name": "depositNonce",
          "type": "uint64"
        },
        {
          "internalType": "bytes32",
          "name": "resourceID",
          "type": "bytes32"
        },
        {
          "internalType": "bytes",
          "name": "data",
          "type": "bytes"
        }
      ],
      "name": "getProposal",
      "outputs": [
        {
          "components": [
            {
              "internalType": "enum IBridge.ProposalStatus",
              "name": "_status",
              "type": "uint8"
            },
            {
              "internalType": "uint200",
              "name": "_yesVotes",
              "type": "uint200"
            },
            {
              "internalType": "uint8",
              "name": "_yesVotesTotal",
              "type": "uint8"
            },
            {
              "internalType": "uint40",
              "name": "_proposedBlock",
              "type": "uint40"
            }
          ],
          "internalType": "struct IBridge.Proposal",
          "name": "",
          "type": "tuple"
        }
      ],
      "stateMutability": "view",
      "type": "function"
    },
    {
      "inputs": [
        {
          "internalType": "bytes32",
          "name": "role",
          "type": "bytes32"
        }
      ],
      "name": "getRoleAdmin",
      "outputs": [
        {
          "internalType": "bytes32",
          "name": "",
          "type": "bytes32"
        }
      ],
      "stateMutability": "view",
      "type": "function"
    },
    {
      "inputs": [
        {
          "internalType": "bytes32",
          "name": "role",
          "type": "bytes32"
        },
        {
          "internalType": "uint256",
          "name": "index",
          "type": "uint256"
        }
      ],
      "name": "getRoleMember",
      "outputs": [
        {
          "internalType": "address",
          "name": "",
          "type": "address"
        }
      ],
      "stateMutability": "view",
      "type": "function"
    },
    {
      "inputs": [
        {
          "internalType": "bytes32",
          "name": "role",
          "type": "bytes32"
        }
      ],
      "name": "getRoleMemberCount",
      "outputs": [
        {
          "internalType": "uint256",
          "name": "",
          "type": "uint256"
        }
      ],
      "stateMutability": "view",
      "type": "function"
    },
    {
      "inputs": [
        {
          "internalType": "bytes32",
          "name": "role",
          "type": "bytes32"
        },
        {
          "internalType": "address",
          "name": "account",
          "type": "address"
        }
      ],
      "name": "getRoleMemberIndex",
      "outputs": [
        {
          "internalType": "uint256",
          "name": "",
          "type": "uint256"
        }
      ],
      "stateMutability": "view",
      "type": "function"
    },
    {
      "inputs": [
        {
          "internalType": "bytes32",
          "name": "role",
          "type": "bytes32"
        },
        {
          "internalType": "address",
          "name": "account",
          "type": "address"
        }
      ],
      "name": "grantRole",
      "outputs": [],
      "stateMutability": "nonpayable",
      "type": "function"
    },
    {
      "inputs": [
        {
          "internalType": "bytes32",
          "name": "role",
          "type": "bytes32"
        },
        {
          "internalType": "address",
          "name": "account",
          "type": "address"
        }
      ],
      "name": "hasRole",
      "outputs": [
        {
          "internalType": "bool",
          "name": "",
          "type": "bool"
        }
      ],
      "stateMutability": "view",
      "type": "function"
    },
    {
      "inputs": [
        {
          "internalType": "uint8",
          "name": "domainID",
          "type": "uint8"
        },
        {
          "internalType": "address[]",
          "name": "initialRelayers",
          "type": "address[]"
        },
        {
          "internalType": "uint256",
          "name": "initialRelayerThreshold",
          "type": "uint256"
        },
        {
          "internalType": "uint256",
          "name": "expiry",
          "type": "uint256"
        },
        {
          "internalType": "address",
          "name": "admin",
          "type": "address"
        }
      ],
      "name": "initialize",
      "outputs": [],
      "stateMutability": "nonpayable",
      "type": "function"
    },
    {
      "inputs": [
        {
          "internalType": "address",
          "name": "relayer",
          "type": "address"
        }
      ],
      "name": "isRelayer",
      "outputs": [
        {
          "internalType": "bool",
          "name": "",
          "type": "bool"
        }
      ],
      "stateMutability": "view",
      "type": "function"
    },
    {
      "inputs": [
        {
          "internalType": "address",
          "name": "",
          "type": "address"
        }
      ],
      "name": "isValidForwarder",
      "outputs": [
        {
          "internalType": "bool",
          "name": "",
          "type": "bool"
        }
      ],
      "stateMutability": "view",
      "type": "function"
    },
    {
      "inputs": [],
      "name": "paused",
      "outputs": [
        {
          "internalType": "bool",
          "name": "",
          "type": "bool"
        }
      ],
      "stateMutability": "view",
      "type": "function"
    },
    {
      "inputs": [
        {
          "internalType": "address",
          "name": "newAdmin",
          "type": "address"
        }
      ],
      "name": "renounceAdmin",
      "outputs": [],
      "stateMutability": "nonpayable",
      "type": "function"
    },
    {
      "inputs": [
        {
          "internalType": "bytes32",
          "name": "role",
          "type": "bytes32"
        },
        {
          "internalType": "address",
          "name": "account",
          "type": "address"
        }
      ],
      "name": "renounceRole",
      "outputs": [],
      "stateMutability": "nonpayable",
      "type": "function"
    },
    {
      "inputs": [
        {
          "internalType": "bytes32",
          "name": "role",
          "type": "bytes32"
        },
        {
          "internalType": "address",
          "name": "account",
          "type": "address"
        }
      ],
      "name": "revokeRole",
      "outputs": [],
      "stateMutability": "nonpayable",
      "type": "function"
    },
    {
      "inputs": [
        {
          "internalType": "uint8",
          "name": "",
          "type": "uint8"
        }
      ],
      "name": "special",
      "outputs": [
        {
          "internalType": "bool",
          "name": "",
          "type": "bool"
        }
      ],
      "stateMutability": "view",
      "type": "function"
    },
    {
      "inputs": [
        {
          "internalType": "uint8",
          "name": "",
          "type": "uint8"
        }
      ],
      "name": "specialFee",
      "outputs": [
        {
          "internalType": "uint256",
          "name": "",
          "type": "uint256"
        }
      ],
      "stateMutability": "view",
      "type": "function"
    },
    {
      "inputs": [
        {
          "internalType": "address payable[]",
          "name": "addrs",
          "type": "address[]"
        },
        {
          "internalType": "uint256[]",
          "name": "amounts",
          "type": "uint256[]"
        }
      ],
      "name": "transferFee",
      "outputs": [],
      "stateMutability": "nonpayable",
      "type": "function"
    },
    {
      "inputs": [
        {
          "internalType": "uint8",
          "name": "domainID",
          "type": "uint8"
        },
        {
          "internalType": "uint64",
          "name": "depositNonce",
          "type": "uint64"
        },
        {
          "internalType": "bytes32",
          "name": "resourceID",
          "type": "bytes32"
        },
        {
          "internalType": "bytes",
          "name": "data",
          "type": "bytes"
        }
      ],
      "name": "voteProposal",
      "outputs": [],
      "stateMutability": "nonpayable",
      "type": "function"
    },
    {
      "inputs": [
        {
          "internalType": "uint8",
          "name": "domainID",
          "type": "uint8"
        },
        {
          "internalType": "uint64",
          "name": "depositNonce",
          "type": "uint64"
        },
        {
          "internalType": "bytes32",
          "name": "resourceID",
          "type": "bytes32"
        },
        {
          "internalType": "bytes",
          "name": "data",
          "type": "bytes"
        },
        {
          "internalType": "bytes[]",
          "name": "signatures",
          "type": "bytes[]"
        }
      ],
      "name": "voteProposals",
      "outputs": [],
      "stateMutability": "nonpayable",
      "type": "function"
    }
  ],
  "bytecode": "0x608060405234801561001057600080fd5b506149c9806100206000396000f3fe6080604052600436106103ad5760003560e01c80639010d07c116101e7578063c5b37c221161010d578063e2469d40116100a0578063fe4648f41161006f578063fe4648f414610bb2578063fe65c4be14610bdd578063fe6718a6146109de578063ffaac0eb14610bfd57600080fd5b8063e2469d4014610b2c578063e7b14b5a14610b4c578063edc20c3c14610b62578063f8c39e4414610b8257600080fd5b8063cdb0f73a116100dc578063cdb0f73a14610aad578063d15ef64e14610acd578063d547741f14610aed578063d7a9cd7914610b0d57600080fd5b8063c5b37c2214610a1e578063c5ec897014610a33578063ca15c87314610a6d578063cb10f21514610a8d57600080fd5b80639debb3bd11610185578063b67a4aaf11610154578063b67a4aaf14610991578063bd2a1820146109be578063bea916f2146109de578063c0331b3e146109fe57600080fd5b80639debb3bd1461091a578063a06fbbff1461092f578063a217fddf1461094f578063a5c621f21461096457600080fd5b8063926d7d7f116101c1578063926d7d7f1461089657806393cbe783146108b85780639d82dd63146108ce5780639dd694f4146108ee57600080fd5b80639010d07c14610836578063904e9b2b1461085657806391d148541461087657600080fd5b80635a1ad87c116102d7578063747734121161026a57806380ae1c281161023957806380ae1c281461079357806384db809f146107a857806388b73be0146107f65780638c0c26311461081657600080fd5b8063747734121461072b5780637d026d961461073e5780637febe63f1461075e578063802aabe81461077e57600080fd5b80636d3b6eea116102a65780636d3b6eea146106b85780636e2047bc146106d85780637292dd91146106f857806373c45c981461071857600080fd5b80635a1ad87c146106305780635c975abb146106505780635e1fab0f1461066857806362abd9ce1461068857600080fd5b806330adf81f1161034f5780634e0df3f61161031e5780634e0df3f6146105795780634e37850a146105c05780634f2c0aec146105e0578063541d55481461060057600080fd5b806330adf81f146104b757806336568abe146104eb5780634b0b919d1461050b5780634e0560051461055957600080fd5b8063206a98fd1161038b578063206a98fd14610427578063248a9ca3146104475780632edb6f7c146104775780632f2ff15d1461049757600080fd5b8063083132c4146103b25780630d7d75b3146103e557806317f03ce514610407575b600080fd5b3480156103be57600080fd5b506103d26103cd366004613be4565b610c12565b6040519081526020015b60405180910390f35b3480156103f157600080fd5b50610405610400366004613c88565b610c23565b005b34801561041357600080fd5b50610405610422366004613d72565b610e05565b34801561043357600080fd5b50610405610442366004613dff565b611085565b34801561045357600080fd5b506103d2610462366004613e7b565b60009081526099602052604090206002015490565b34801561048357600080fd5b50610405610492366004613e94565b611108565b3480156104a357600080fd5b506104056104b2366004613eb1565b6111b9565b3480156104c357600080fd5b506103d27fc4cb5d35714699d6e85b9562b644e60393b418d974a5c1dd8efaadac37a142c581565b3480156104f757600080fd5b50610405610506366004613eb1565b611249565b34801561051757600080fd5b50610541610526366004613be4565b609b602052600090815260409020546001600160401b031681565b6040516001600160401b0390911681526020016103dc565b34801561056557600080fd5b50610405610574366004613e7b565b61125b565b34801561058557600080fd5b506103d2610594366004613eb1565b60008281526099602090815260408083206001600160a01b038516845260010190915290205492915050565b3480156105cc57600080fd5b506104056105db366004613be4565b6112be565b3480156105ec57600080fd5b506104056105fb366004613e7b565b6112ec565b34801561060c57600080fd5b5061062061061b366004613e94565b61137b565b60405190151581526020016103dc565b34801561063c57600080fd5b5061040561064b366004613ef9565b611395565b34801561065c57600080fd5b5060355460ff16610620565b34801561067457600080fd5b50610405610683366004613e94565b61144b565b34801561069457600080fd5b506106206106a3366004613be4565b60a26020526000908152604090205460ff1681565b3480156106c457600080fd5b506104056106d3366004613fcf565b6114d7565b3480156106e457600080fd5b506104056106f336600461401e565b611544565b34801561070457600080fd5b50610405610713366004614048565b611577565b61040561072636600461414c565b611a22565b34801561073757600080fd5b50466103d2565b34801561074a57600080fd5b50610405610759366004613e7b565b611a45565b34801561076a57600080fd5b506106206107793660046141d5565b611a7b565b34801561078a57600080fd5b506103d2611b1f565b34801561079f57600080fd5b50610405611b3d565b3480156107b457600080fd5b506107de6107c3366004613e7b565b609c602052600090815260409020546001600160a01b031681565b6040516001600160a01b0390911681526020016103dc565b34801561080257600080fd5b50610405610811366004614223565b611b57565b34801561082257600080fd5b50610405610831366004614261565b611ba8565b34801561084257600080fd5b506107de61085136600461428f565b611be1565b34801561086257600080fd5b506104056108713660046142f5565b611c00565b34801561088257600080fd5b50610620610891366004613eb1565b611df6565b3480156108a257600080fd5b506103d260008051602061497483398151915281565b3480156108c457600080fd5b506103d2609f5481565b3480156108da57600080fd5b506104056108e9366004613e94565b611e0e565b3480156108fa57600080fd5b50609a546109089060ff1681565b60405160ff90911681526020016103dc565b34801561092657600080fd5b506103d260c881565b34801561093b57600080fd5b5061040561094a366004613be4565b611e6f565b34801561095b57600080fd5b506103d2600081565b34801561097057600080fd5b5061098461097f366004614360565b611e8d565b6040516103dc9190614406565b34801561099d57600080fd5b506103d26109ac366004613be4565b60a16020526000908152604090205481565b3480156109ca57600080fd5b506104056109d9366004613fcf565b611f9c565b3480156109ea57600080fd5b506104056109f936600461444f565b611fd2565b348015610a0a57600080fd5b50610405610a19366004614360565b61202e565b348015610a2a57600080fd5b50609f546103d2565b348015610a3f57600080fd5b50609a54610a579062010000900464ffffffffff1681565b60405164ffffffffff90911681526020016103dc565b348015610a7957600080fd5b506103d2610a88366004613e7b565b612564565b348015610a9957600080fd5b50610405610aa836600461444f565b61257b565b348015610ab957600080fd5b50610405610ac8366004613e94565b6125dc565b348015610ad957600080fd5b50610405610ae836600461446f565b612685565b348015610af957600080fd5b50610405610b08366004613eb1565b6126b8565b348015610b1957600080fd5b50609a5461090890610100900460ff1681565b348015610b3857600080fd5b50610405610b47366004613e94565b612745565b348015610b5857600080fd5b506103d260a05481565b348015610b6e57600080fd5b50610405610b7d3660046144a4565b612829565b348015610b8e57600080fd5b50610620610b9d366004613e94565b609d6020526000908152604090205460ff1681565b348015610bbe57600080fd5b50609a546107de9067010000000000000090046001600160a01b031681565b348015610be957600080fd5b50610620610bf83660046144ce565b6128e2565b348015610c0957600080fd5b506104056129ec565b6000610c1d82612a04565b92915050565b600054610100900460ff1615808015610c435750600054600160ff909116105b80610c5d5750303b158015610c5d575060005460ff166001145b610c825760405162461bcd60e51b8152600401610c7990614568565b60405180910390fd5b6000805460ff191660011790558015610ca5576000805461ff0019166101001790555b610cad612a43565b610cf66040518060400160405280600c81526020016b5065726d697442726964676560a01b815250604051806040016040528060038152602001620312e360ec1b815250612b09565b609a805460ff191660ff8816179055610d0e84612b3a565b609a60016101000a81548160ff021916908360ff160217905550610d3183612b91565b609a805464ffffffffff92909216620100000266ffffffffff000019909216919091179055610d6160008361123b565b60005b8551811015610db057610d9e600080516020614974833981519152878381518110610d9157610d916145b6565b60200260200101516111b9565b80610da8816145e2565b915050610d64565b50600160a3558015610dfd576000805461ff0019169055604051600181527f7f26b83ff96e1f2b6a682f133852f6798a09c465da95921460cefb3847402498906020015b60405180910390a15b505050505050565b610e0d612be8565b60ff838116600884901b68ffffffffffffffff0016176000818152609e60209081526040808320868452909152808220815160808101909252805493949293919290918391166004811115610e6457610e646143ce565b6004811115610e7557610e756143ce565b8152905461010081046001600160c81b03166020830152600160d01b810460ff166040830152600160d81b900464ffffffffff1660609091015280519091506001816004811115610ec857610ec86143ce565b1480610ee557506002816004811115610ee357610ee36143ce565b145b610f315760405162461bcd60e51b815260206004820152601c60248201527f50726f706f73616c2063616e6e6f742062652063616e63656c6c6564000000006044820152606401610c79565b609a54606083015164ffffffffff62010000909204821691610f5591439116612c69565b64ffffffffff1611610fa95760405162461bcd60e51b815260206004820181905260248201527f50726f706f73616c206e6f7420617420657870697279207468726573686f6c646044820152606401610c79565b60048083526001600160481b0384166000908152609e602090815260408083208884529091529020835181548593839160ff1916906001908490811115610ff257610ff26143ce565b02179055506020820151815460408085015160609095015164ffffffffff16600160d81b026001600160d81b0360ff909616600160d01b0260ff60d01b196001600160c81b039095166101000294909416610100600160d81b03199093169290921792909217939093169290921790555160008051602061495483398151915290610df4908890889060049089906145fd565b61108d612cab565b611095612d11565b600260a35414156110e85760405162461bcd60e51b815260206004820152601f60248201527f5265656e7472616e637947756172643a207265656e7472616e742063616c6c006044820152606401610c79565b600260a3556110fb868686868686612d57565b5050600160a35550505050565b611110612fce565b609a5460ff1660008161112581610100614632565b61112f9190614651565b6000818152609c60205260409081902080546001600160a01b03191690555163a981575160e01b8152600481018290526001600160a01b038481166024830152919250849182169063a9815751906044015b600060405180830381600087803b15801561119b57600080fd5b505af11580156111af573d6000803e3d6000fd5b5050505050505050565b6000828152609960205260409020600201546111d790610891613027565b61123b5760405162461bcd60e51b815260206004820152602f60248201527f416363657373436f6e74726f6c3a2073656e646572206d75737420626520616e60448201526e0818591b5a5b881d1bc819dc985b9d608a1b6064820152608401610c79565b6112458282613066565b5050565b6112516130cf565b6112458282613118565b611263612fce565b61126c81612b3a565b609a805460ff929092166101000261ff00199092169190911790556040518181527fa20d6b84cd798a24038be305eff8a45ca82ef54a2aa2082005d8e14c0a4746c8906020015b60405180910390a150565b6112c6612fce565b60ff16600090815260a260209081526040808320805460ff1916905560a1909152812055565b6112f4612fce565b80609f5414156113465760405162461bcd60e51b815260206004820152601f60248201527f43757272656e742066656520697320657175616c20746f206e657720666565006044820152606401610c79565b609f8190556040518181527f6bbc57480a46553fa4d156ce702beef5f3ad66303b0ed1a5d4cb44966c6584c3906020016112b3565b6000610c1d60008051602061497483398151915283611df6565b61139d612fce565b6000858152609c60205260409081902080546001600160a01b0319166001600160a01b03898116918217909255915163de319d9960e01b81526004810188905290861660248201526001600160e01b03198086166044830152606482018590528316608482015287919063de319d999060a401600060405180830381600087803b15801561142a57600080fd5b505af115801561143e573d6000803e3d6000fd5b5050505050505050505050565b611453612fce565b600061145d613027565b9050816001600160a01b0316816001600160a01b031614156114c15760405162461bcd60e51b815260206004820152601760248201527f43616e6e6f742072656e6f756e6365206f6e6573656c660000000000000000006044820152606401610c79565b6114cc6000836111b9565b611245600082611249565b6114df612fce565b60405163ab5c7bf160e01b815282906001600160a01b0382169063ab5c7bf19061150d9085906004016146c5565b600060405180830381600087803b15801561152757600080fd5b505af115801561153b573d6000803e3d6000fd5b50505050505050565b61154c612fce565b60ff909116600090815260a260209081526040808320805460ff1916600117905560a1909152902055565b61157f612d11565b6000848152609c60205260409020546001600160a01b0316806115e05760405162461bcd60e51b81526020600482015260196024820152781b9bc81a185b991b195c88199bdc881c995cdbdd5c98d95251603a1b6044820152606401610c79565b6000858286866040516020016115f994939291906146d8565b60408051808303601f1901815291905280516020909101208351609a5491925090610100900460ff1681101561167f5760405162461bcd60e51b815260206004820152602560248201527f5369676e617475726573206c656e677468203e3d2072656c61796572546872656044820152641cda1bdb1960da1b6064820152608401610c79565b604080516080810182526001815260006020820181905281830181905264ffffffffff431660608301529151909190611745907fc4cb5d35714699d6e85b9562b644e60393b418d974a5c1dd8efaadac37a142c5908d908d908d906116e7908e908e9061470b565b60405190819003812061172a959493929160200194855260ff9390931660208501526001600160401b039190911660408401526060830152608082015260a00190565b60405160208183030381529060405280519060200120613198565b905060005b838110156118655760006117778389848151811061176a5761176a6145b6565b60200260200101516131e6565b905061179160008051602061497483398151915282611df6565b6117c05760405163c41f0f6960e01b81526001600160a01b038216600482015260248101839052604401610c79565b6117ca848261320a565b1561180f5760405162461bcd60e51b81526020600482015260156024820152741c995b185e595c88185b1c9958591e481d9bdd1959605a1b6044820152606401610c79565b61182f61181b8261322d565b85602001516001600160c81b03161761327a565b6001600160c81b031660208501526040840180519061184d8261471b565b60ff1690525061185e9050816145e2565b905061174a565b506003825260405163712467f960e11b815285906001600160a01b0382169063e248cff29061189c908d908d908d90600401614764565b600060405180830381600087803b1580156118b657600080fd5b505af11580156118ca573d6000803e3d6000fd5b505050506000805160206149548339815191528c8c6003886040516118f294939291906145fd565b60405180910390a160ff8c811660088d901b68ffffffffffffffff0016176000818152609e602090815260408083208a84529091529020549091600191166004811115611941576119416143ce565b111561195f5760405162461bcd60e51b8152600401610c799061477e565b6001600160481b0381166000908152609e6020908152604080832089845290915290208451815486929190829060ff191660018360048111156119a4576119a46143ce565b021790555060208201518154604084015160609094015164ffffffffff16600160d81b026001600160d81b0360ff909516600160d01b0260ff60d01b196001600160c81b039094166101000293909316610100600160d81b031990921691909117919091179290921691909117905550505050505050505050505050565b611a2a612d11565b6000611a34613027565b905061153b818888888888886132cf565b611a4d612fce565b611a5681612b91565b609a60026101000a81548164ffffffffff021916908364ffffffffff16021790555050565b6001600160481b0383166000908152609e602090815260408083208584529091528082208151608081019092528054611b17929190829060ff166004811115611ac657611ac66143ce565b6004811115611ad757611ad76143ce565b8152905461010081046001600160c81b03166020830152600160d01b810460ff166040830152600160d81b900464ffffffffff166060909101528361320a565b949350505050565b6000611b38600080516020614974833981519152612564565b905090565b611b45612fce565b611b55611b50613027565b61345a565b565b611b5f612fce565b6000838152609c60205260409081902054905163789d771160e01b81526001600160a01b038481166004830152831515602483015290911690819063789d771190604401611181565b611bb0612fce565b6040516307b7ed9960e01b81526001600160a01b0382811660048301528391908216906307b7ed999060240161150d565b6000828152609960205260408120611bf990836134a8565b9392505050565b611c08612fce565b828114611c575760405162461bcd60e51b815260206004820152601f60248201527f61646472735b5d2c20616d6f756e74735b5d3a2064696666206c656e677468006044820152606401610c79565b60005b83811015611def576000858583818110611c7657611c766145b6565b9050602002016020810190611c8b9190613e94565b6001600160a01b0316848484818110611ca657611ca66145b6565b9050602002013560405160006040518083038185875af1925050503d8060008114611ced576040519150601f19603f3d011682016040523d82523d6000602084013e611cf2565b606091505b5050905080611d435760405162461bcd60e51b815260206004820152601960248201527f466565206574686572207472616e73666572206661696c6564000000000000006044820152606401610c79565b7faaa40a232aaf133fdd28f3485f6fdd163514cfadbffa981f3610f42398efe34b6000878785818110611d7857611d786145b6565b9050602002016020810190611d8d9190613e94565b868686818110611d9f57611d9f6145b6565b90506020020135604051611dd4939291906001600160a01b039384168152919092166020820152604081019190915260600190565b60405180910390a15080611de7816145e2565b915050611c5a565b5050505050565b6000828152609960205260408120611bf990836134b4565b611e16612fce565b611e1e6130cf565b611e36600080516020614974833981519152826126b8565b6040516001600160a01b03821681527f10e1f7ce9fd7d1b90a66d13a2ab3cb8dd7f29f3f8d520b143b063ccfbab6906b906020016112b3565b611e77612fce565b609a805460ff191660ff92909216919091179055565b604080516080810182526000808252602080830182905282840182905260608301829052868252609c815283822054935192936001600160a01b031692611edc918891859189918991016146d8565b60408051808303601f19018152828252805160209182012060ff8c811660088d901b68ffffffffffffffff0016176000818152609e855285812084825290945292849020608086019094528354919550919392918391166004811115611f4457611f446143ce565b6004811115611f5557611f556143ce565b8152905461010081046001600160c81b03166020830152600160d01b810460ff166040830152600160d81b900464ffffffffff166060909101529998505050505050505050565b611fa4612fce565b60405163025a3c9960e21b815282906001600160a01b03821690630968f2649061150d9085906004016146c5565b611fda612fce565b6000828152609c60205260409081902080546001600160a01b03191690555163a981575160e01b8152600481018390526001600160a01b03828116602483015284919082169063a981575190604401611181565b612036612cab565b61203e612d11565b600260a35414156120915760405162461bcd60e51b815260206004820152601f60248201527f5265656e7472616e637947756172643a207265656e7472616e742063616c6c006044820152606401610c79565b600260a3556000838152609c602090815260408083205490516001600160a01b039091169268ffffffffffffffff00600889901b1660ff8a16179290916120e0918891869189918991016146d8565b60408051601f1981840301815282825280516020918201206001600160481b0386166000908152609e835283812082825290925282822060808501909352825490945090929190829060ff16600481111561213d5761213d6143ce565b600481111561214e5761214e6143ce565b8152905461010081046001600160c81b0316602080840191909152600160d01b820460ff16604080850191909152600160d81b90920464ffffffffff1660609093019290925260008a8152609c9092529020549091506001600160a01b03166121f55760405162461bcd60e51b81526020600482015260196024820152781b9bc81a185b991b195c88199bdc881c995cdbdd5c98d95251603a1b6044820152606401610c79565b60028151600481111561220a5761220a6143ce565b14156122285761221f898988888b6001612d57565b50505050612558565b6000612232613027565b905060018260000151600481111561224c5761224c6143ce565b111561226a5760405162461bcd60e51b8152600401610c799061477e565b612274828261320a565b156122b95760405162461bcd60e51b81526020600482015260156024820152741c995b185e595c88185b1c9958591e481d9bdd1959605a1b6044820152606401610c79565b6000825160048111156122ce576122ce6143ce565b141561232e576040805160808101825260018082526000602083018190528284015264ffffffffff43166060830152915190935060008051602061495483398151915291612321918d918d9188906145fd565b60405180910390a161238f565b609a54606083015164ffffffffff6201000090920482169161235291439116612c69565b64ffffffffff16111561238f57600480835260405160008051602061495483398151915291612386918d918d9188906145fd565b60405180910390a15b6004825160048111156123a4576123a46143ce565b14612474576123c96123b58261322d565b83602001516001600160c81b03161761327a565b6001600160c81b03166020830152604082018051906123e78261471b565b60ff1690525081516040517f25f8daaa4635a7729927ba3f5b3d59cc3320aca7c32c9db4e7ca7b957434364091612423918d918d9188906145fd565b60405180910390a1609a54604083015160ff61010090920482169116106124745760028083526040516000805160206149548339815191529161246b918d918d9188906145fd565b60405180910390a15b6001600160481b0384166000908152609e6020908152604080832086845290915290208251815484929190829060ff191660018360048111156124b9576124b96143ce565b021790555060208201518154604084015160609094015164ffffffffff16600160d81b026001600160d81b0360ff909516600160d01b0260ff60d01b196001600160c81b039094166101000293909316610100600160d81b031990921691909117919091179290921691909117905560028251600481111561253d5761253d6143ce565b1415612552576125528a8a89898c6000612d57565b50505050505b5050600160a355505050565b6000818152609960205260408120610c1d906134d6565b612583612fce565b6000828152609c60205260409081902080546001600160a01b0319166001600160a01b038681169182179092559151635c7d1b9b60e11b815260048101859052908316602482015284919063b8fa373690604401611181565b6125e4612fce565b60c86125ee611b1f565b106126345760405162461bcd60e51b81526020600482015260166024820152751c995b185e595c9cc81b1a5b5a5d081c995858da195960521b6044820152606401610c79565b61264c600080516020614974833981519152826111b9565b6040516001600160a01b03821681527f03580ee9f53a62b7cb409a2cb56f9be87747dd15017afc5cef6eef321e4fb2c5906020016112b3565b61268d612fce565b6001600160a01b03919091166000908152609d60205260409020805460ff1916911515919091179055565b6000828152609960205260409020600201546126d690610891613027565b61273b5760405162461bcd60e51b815260206004820152603060248201527f416363657373436f6e74726f6c3a2073656e646572206d75737420626520616e60448201526f2061646d696e20746f207265766f6b6560801b6064820152608401610c79565b61124582826134e0565b61274d612fce565b609a5460ff1660008161276281610100614632565b61276c9190614651565b6000818152609c60205260409081902080546001600160a01b0319166001600160a01b038781169182179092559151635c7d1b9b60e11b8152600481018490529085166024820152919250849163b8fa373690604401600060405180830381600087803b1580156127dc57600080fd5b505af11580156127f0573d6000803e3d6000fd5b505060405163789d771160e01b81526001600160a01b038681166004830152600160248301528416925063789d77119150604401611181565b612831612fce565b60ff82166000908152609b60205260409020546001600160401b03908116908216116128ae5760405162461bcd60e51b815260206004820152602660248201527f446f6573206e6f7420616c6c6f772064656372656d656e7473206f6620746865604482015265206e6f6e636560d01b6064820152608401610c79565b60ff919091166000908152609b60205260409020805467ffffffffffffffff19166001600160401b03909216919091179055565b6000807fc4cb5d35714699d6e85b9562b644e60393b418d974a5c1dd8efaadac37a142c5898989898960405161291992919061470b565b60405190819003812061295c959493929160200194855260ff9390931660208501526001600160401b039190911660408401526060830152608082015260a00190565b604051602081830303815290604052805190602001209050600061297f82613198565b905060006129c38287878080601f0160208091040260200160405190810160405280939291908181526020018383808284376000920191909152506131e692505050565b90506129dd60008051602061497483398151915282611df6565b9b9a5050505050505050505050565b6129f4612fce565b611b556129ff613027565b613549565b60ff808216600090815260a2602052604081205490911615612a36575060ff16600090815260a1602052604090205490565b5050609f5490565b919050565b600054610100900460ff1615808015612a635750600054600160ff909116105b80612a7d5750303b158015612a7d575060005460ff166001145b612a995760405162461bcd60e51b8152600401610c7990614568565b6000805460ff191660011790558015612abc576000805461ff0019166101001790555b612ac4613594565b8015612b06576000805461ff0019169055604051600181527f7f26b83ff96e1f2b6a682f133852f6798a09c465da95921460cefb3847402498906020016112b3565b50565b600054610100900460ff16612b305760405162461bcd60e51b8152600401610c79906147c1565b6112458282613659565b60006101008210612b8d5760405162461bcd60e51b815260206004820152601c60248201527f76616c756520646f6573206e6f742066697420696e20382062697473000000006044820152606401610c79565b5090565b6000650100000000008210612b8d5760405162461bcd60e51b815260206004820152601d60248201527f76616c756520646f6573206e6f742066697420696e20343020626974730000006044820152606401610c79565b6000612bf2613027565b9050612bff600082611df6565b80612c1d5750612c1d60008051602061497483398151915282611df6565b612b065760405162461bcd60e51b815260206004820152601e60248201527f73656e646572206973206e6f742072656c61796572206f722061646d696e00006044820152606401610c79565b6000611bf983836040518060400160405280601e81526020017f536166654d6174683a207375627472616374696f6e206f766572666c6f77000081525061369a565b612cc5600080516020614974833981519152610891613027565b611b555760405162461bcd60e51b815260206004820181905260248201527f73656e64657220646f65736e277420686176652072656c6179657220726f6c656044820152606401610c79565b60355460ff1615611b555760405162461bcd60e51b815260206004820152601060248201526f14185d5cd8589b194e881c185d5cd95960821b6044820152606401610c79565b6000828152609c602090815260408083205490516001600160a01b039091169268ffffffffffffffff0060088a901b1660ff8b1617929091612da191879186918b918b91016146d8565b60408051601f1981840301815291815281516020928301206001600160481b0385166000908152609e845282812082825290935291209091506002815460ff166004811115612df257612df26143ce565b14612e3f5760405162461bcd60e51b815260206004820181905260248201527f50726f706f73616c206d757374206861766520506173736564207374617475736044820152606401610c79565b805460ff19166003178155838515612eb85760405163712467f960e11b81526001600160a01b0382169063e248cff290612e81908a908d908d90600401614764565b600060405180830381600087803b158015612e9b57600080fd5b505af1158015612eaf573d6000803e3d6000fd5b50505050612f95565b60405163712467f960e11b81526001600160a01b0382169063e248cff290612ee8908a908d908d90600401614764565b600060405180830381600087803b158015612f0257600080fd5b505af1925050508015612f13575060015b612f95573d808015612f41576040519150601f19603f3d011682016040523d82523d6000602084013e612f46565b606091505b50825460ff191660021783556040517fbd37c1f0d53bb2f33fe4c2104de272fcdeb4d2fef3acdbf1e4ddc3d6833ca37690612f829083906146c5565b60405180910390a1505050505050610dfd565b6000805160206149548339815191528b8b600386604051612fb994939291906145fd565b60405180910390a15050505050505050505050565b612fdb6000610891613027565b611b555760405162461bcd60e51b815260206004820152601e60248201527f73656e64657220646f65736e277420686176652061646d696e20726f6c6500006044820152606401610c79565b6000336014361080159061305357506001600160a01b0381166000908152609d602052604090205460ff165b15612a3e57505036601319013560601c90565b600082815260996020526040902061307e90826136d4565b156112455761308b613027565b6001600160a01b0316816001600160a01b0316837f2f8788117e7eff1d82e926ec794901d17c78024a50270940304540a733656f0d60405160405180910390a45050565b60355460ff16611b555760405162461bcd60e51b815260206004820152601460248201527314185d5cd8589b194e881b9bdd081c185d5cd95960621b6044820152606401610c79565b613120613027565b6001600160a01b0316816001600160a01b03161461273b5760405162461bcd60e51b815260206004820152602f60248201527f416363657373436f6e74726f6c3a2063616e206f6e6c792072656e6f756e636560448201526e103937b632b9903337b91039b2b63360891b6064820152608401610c79565b6000610c1d6131a56136e9565b8360405161190160f01b6020820152602281018390526042810182905260009060620160405160208183030381529060405280519060200120905092915050565b60008060006131f58585613764565b91509150613202816137aa565b509392505050565b60008083602001516001600160c81b03166132248461322d565b16119392505050565b6001600160a01b03811660009081527f466bdf72c8d8887d601776818ca0e11d24e204c6df385da2c5ab68f6700d138d6020526040812054613270906001612c69565b6001901b92915050565b6000600160c81b8210612b8d5760405162461bcd60e51b815260206004820152601e60248201527f76616c756520646f6573206e6f742066697420696e20323030206269747300006044820152606401610c79565b3460006132db88612a04565b90506132e7818361480c565b91508060a060008282546132fb9190614651565b90915550506000878152609c60205260409020546001600160a01b031680613336576040516308c231dd60e31b815260040160405180910390fd5b60ff89166000908152609b602052604081208054829061335e906001600160401b0316614823565b91906101000a8154816001600160401b0302191690836001600160401b03160217905590506000826001600160a01b031663b07e54bb868c8f8d8d6040518663ffffffff1660e01b81526004016133b8949392919061484a565b60006040518083038185885af11580156133d6573d6000803e3d6000fd5b50505050506040513d6000823e601f3d908101601f191682016040526133ff919081019061487f565b90508b6001600160a01b03167f17bc3181e17a9620a479c24e6c606e474ba84fc036877b768926872e8cd0e11f8c8c858d8d87604051613444969594939291906148ec565b60405180910390a2505050505050505050505050565b613462612d11565b6035805460ff191660011790556040516001600160a01b03821681527f62e78cea01bee320cd4e420270b5ea74000d11b0c9f74754ebdbfc544b05a258906020016112b3565b6000611bf98383613965565b6001600160a01b03811660009081526001830160205260408120541515611bf9565b6000610c1d825490565b60008281526099602052604090206134f8908261398f565b1561124557613505613027565b6001600160a01b0316816001600160a01b0316837ff6391f5c32d9c69d2a47ea670b442974b53935d1edc7fd64eb21e047a839171b60405160405180910390a45050565b6135516130cf565b6035805460ff191690556040516001600160a01b03821681527f5db9ee0a495bf2e6ff9c91a7834c1ba4fdd244a5e8aa4e537bd38aeae4b073aa906020016112b3565b600054610100900460ff16158080156135b45750600054600160ff909116105b806135ce5750303b1580156135ce575060005460ff166001145b6135ea5760405162461bcd60e51b8152600401610c7990614568565b6000805460ff19166001179055801561360d576000805461ff0019166101001790555b6035805460ff191690558015612b06576000805461ff0019169055604051600181527f7f26b83ff96e1f2b6a682f133852f6798a09c465da95921460cefb3847402498906020016112b3565b600054610100900460ff166136805760405162461bcd60e51b8152600401610c79906147c1565b815160209283012081519190920120600191909155600255565b600081848411156136be5760405162461bcd60e51b8152600401610c7991906146c5565b5060006136cb848661480c565b95945050505050565b6000611bf9836001600160a01b0384166139a4565b6000611b387f8b73c3c69bb8fe3d512ecc4cf759cc79239f7b179b0ffacaa9a75d522b39400f61371860015490565b6002546040805160208101859052908101839052606081018290524660808201523060a082015260009060c0016040516020818303038152906040528051906020012090509392505050565b60008082516041141561379b5760208301516040840151606085015160001a61378f878285856139f3565b945094505050506137a3565b506000905060025b9250929050565b60008160048111156137be576137be6143ce565b14156137c75750565b60018160048111156137db576137db6143ce565b14156138295760405162461bcd60e51b815260206004820152601860248201527f45434453413a20696e76616c6964207369676e617475726500000000000000006044820152606401610c79565b600281600481111561383d5761383d6143ce565b141561388b5760405162461bcd60e51b815260206004820152601f60248201527f45434453413a20696e76616c6964207369676e6174757265206c656e677468006044820152606401610c79565b600381600481111561389f5761389f6143ce565b14156138f85760405162461bcd60e51b815260206004820152602260248201527f45434453413a20696e76616c6964207369676e6174757265202773272076616c604482015261756560f01b6064820152608401610c79565b600481600481111561390c5761390c6143ce565b1415612b065760405162461bcd60e51b815260206004820152602260248201527f45434453413a20696e76616c6964207369676e6174757265202776272076616c604482015261756560f01b6064820152608401610c79565b600082600001828154811061397c5761397c6145b6565b9060005260206000200154905092915050565b6000611bf9836001600160a01b038416613ae0565b60008181526001830160205260408120546139eb57508154600181810184556000848152602080822090930184905584548482528286019093526040902091909155610c1d565b506000610c1d565b6000807f7fffffffffffffffffffffffffffffff5d576e7357a4501ddfe92f46681b20a0831115613a2a5750600090506003613ad7565b8460ff16601b14158015613a4257508460ff16601c14155b15613a535750600090506004613ad7565b6040805160008082526020820180845289905260ff881692820192909252606081018690526080810185905260019060a0016020604051602081039080840390855afa158015613aa7573d6000803e3d6000fd5b5050604051601f1901519150506001600160a01b038116613ad057600060019250925050613ad7565b9150600090505b94509492505050565b60008181526001830160205260408120548015613bc9576000613b0460018361480c565b8554909150600090613b189060019061480c565b9050818114613b7d576000866000018281548110613b3857613b386145b6565b9060005260206000200154905080876000018481548110613b5b57613b5b6145b6565b6000918252602080832090910192909255918252600188019052604090208390555b8554869080613b8e57613b8e61493d565b600190038181906000526020600020016000905590558560010160008681526020019081526020016000206000905560019350505050610c1d565b6000915050610c1d565b803560ff81168114612a3e57600080fd5b600060208284031215613bf657600080fd5b611bf982613bd3565b634e487b7160e01b600052604160045260246000fd5b604051601f8201601f191681016001600160401b0381118282101715613c3d57613c3d613bff565b604052919050565b60006001600160401b03821115613c5e57613c5e613bff565b5060051b60200190565b6001600160a01b0381168114612b0657600080fd5b8035612a3e81613c68565b600080600080600060a08688031215613ca057600080fd5b613ca986613bd3565b94506020808701356001600160401b03811115613cc557600080fd5b8701601f81018913613cd657600080fd5b8035613ce9613ce482613c45565b613c15565b81815260059190911b8201830190838101908b831115613d0857600080fd5b928401925b82841015613d2f578335613d2081613c68565b82529284019290840190613d0d565b9750505050604087013593505060608601359150613d4f60808701613c7d565b90509295509295909350565b80356001600160401b0381168114612a3e57600080fd5b600080600060608486031215613d8757600080fd5b613d9084613bd3565b9250613d9e60208501613d5b565b9150604084013590509250925092565b60008083601f840112613dc057600080fd5b5081356001600160401b03811115613dd757600080fd5b6020830191508360208285010111156137a357600080fd5b80358015158114612a3e57600080fd5b60008060008060008060a08789031215613e1857600080fd5b613e2187613bd3565b9550613e2f60208801613d5b565b945060408701356001600160401b03811115613e4a57600080fd5b613e5689828a01613dae565b90955093505060608701359150613e6f60808801613def565b90509295509295509295565b600060208284031215613e8d57600080fd5b5035919050565b600060208284031215613ea657600080fd5b8135611bf981613c68565b60008060408385031215613ec457600080fd5b823591506020830135613ed681613c68565b809150509250929050565b80356001600160e01b031981168114612a3e57600080fd5b60008060008060008060c08789031215613f1257600080fd5b8635613f1d81613c68565b9550602087013594506040870135613f3481613c68565b9350613f4260608801613ee1565b925060808701359150613e6f60a08801613ee1565b60006001600160401b03821115613f7057613f70613bff565b50601f01601f191660200190565b600082601f830112613f8f57600080fd5b8135613f9d613ce482613f57565b818152846020838601011115613fb257600080fd5b816020850160208301376000918101602001919091529392505050565b60008060408385031215613fe257600080fd5b8235613fed81613c68565b915060208301356001600160401b0381111561400857600080fd5b61401485828601613f7e565b9150509250929050565b6000806040838503121561403157600080fd5b61403a83613bd3565b946020939093013593505050565b60008060008060008060a0878903121561406157600080fd5b61406a87613bd3565b95506020614079818901613d5b565b95506040880135945060608801356001600160401b038082111561409c57600080fd5b6140a88b838c01613dae565b909650945060808a01359150808211156140c157600080fd5b818a0191508a601f8301126140d557600080fd5b81356140e3613ce482613c45565b81815260059190911b8301840190848101908d83111561410257600080fd5b8585015b8381101561413857848135111561411c57600080fd5b61412b8f888335890101613f7e565b8352918601918601614106565b508096505050505050509295509295509295565b6000806000806000806080878903121561416557600080fd5b61416e87613bd3565b95506020870135945060408701356001600160401b038082111561419157600080fd5b61419d8a838b01613dae565b909650945060608901359150808211156141b657600080fd5b506141c389828a01613dae565b979a9699509497509295939492505050565b6000806000606084860312156141ea57600080fd5b83356001600160481b038116811461420157600080fd5b925060208401359150604084013561421881613c68565b809150509250925092565b60008060006060848603121561423857600080fd5b83359250602084013561424a81613c68565b915061425860408501613def565b90509250925092565b6000806040838503121561427457600080fd5b823561427f81613c68565b91506020830135613ed681613c68565b600080604083850312156142a257600080fd5b50508035926020909101359150565b60008083601f8401126142c357600080fd5b5081356001600160401b038111156142da57600080fd5b6020830191508360208260051b85010111156137a357600080fd5b6000806000806040858703121561430b57600080fd5b84356001600160401b038082111561432257600080fd5b61432e888389016142b1565b9096509450602087013591508082111561434757600080fd5b50614354878288016142b1565b95989497509550505050565b60008060008060006080868803121561437857600080fd5b61438186613bd3565b945061438f60208701613d5b565b93506040860135925060608601356001600160401b038111156143b157600080fd5b6143bd88828901613dae565b969995985093965092949392505050565b634e487b7160e01b600052602160045260246000fd5b6005811061440257634e487b7160e01b600052602160045260246000fd5b9052565b60006080820190506144198284516143e4565b60018060c81b03602084015116602083015260ff604084015116604083015264ffffffffff606084015116606083015292915050565b60008060006060848603121561446457600080fd5b833561420181613c68565b6000806040838503121561448257600080fd5b823561448d81613c68565b915061449b60208401613def565b90509250929050565b600080604083850312156144b757600080fd5b6144c083613bd3565b915061449b60208401613d5b565b600080600080600080600060a0888a0312156144e957600080fd5b6144f288613bd3565b965061450060208901613d5b565b95506040880135945060608801356001600160401b038082111561452357600080fd5b61452f8b838c01613dae565b909650945060808a013591508082111561454857600080fd5b506145558a828b01613dae565b989b979a50959850939692959293505050565b6020808252602e908201527f496e697469616c697a61626c653a20636f6e747261637420697320616c72656160408201526d191e481a5b9a5d1a585b1a5e995960921b606082015260800190565b634e487b7160e01b600052603260045260246000fd5b634e487b7160e01b600052601160045260246000fd5b60006000198214156145f6576145f66145cc565b5060010190565b60ff851681526001600160401b03841660208201526080810161462360408301856143e4565b82606083015295945050505050565b600081600019048311821515161561464c5761464c6145cc565b500290565b60008219821115614664576146646145cc565b500190565b60005b8381101561468457818101518382015260200161466c565b83811115614693576000848401525b50505050565b600081518084526146b1816020860160208601614669565b601f01601f19169290920160200192915050565b602081526000611bf96020830184614699565b8481526bffffffffffffffffffffffff198460601b16602082015281836034830137600091016034019081529392505050565b8183823760009101908152919050565b600060ff821660ff811415614732576147326145cc565b60010192915050565b81835281816020850137506000828201602090810191909152601f909101601f19169091010190565b8381526040602082015260006136cb60408301848661473b565b60208082526023908201527f70726f706f73616c20616c72656164792065786563757465642f63616e63656c6040820152621b195960ea1b606082015260800190565b6020808252602b908201527f496e697469616c697a61626c653a20636f6e7472616374206973206e6f74206960408201526a6e697469616c697a696e6760a81b606082015260800190565b60008282101561481e5761481e6145cc565b500390565b60006001600160401b0380831681811415614840576148406145cc565b6001019392505050565b8481526001600160a01b0384166020820152606060408201819052600090614875908301848661473b565b9695505050505050565b60006020828403121561489157600080fd5b81516001600160401b038111156148a757600080fd5b8201601f810184136148b857600080fd5b80516148c6613ce482613f57565b8181528560208385010111156148db57600080fd5b6136cb826020830160208601614669565b60ff871681528560208201526001600160401b038516604082015260a06060820152600061491e60a08301858761473b565b82810360808401526149308185614699565b9998505050505050505050565b634e487b7160e01b600052603160045260246000fdfe968626a768e76ba1363efe44e322a6c4900c5f084e0b45f35e294dfddaa9e0d5e2b7fb3b832174769106daebcfd6d1970523240dda11281102db9363b83b0dc4a26469706673582212202018ec5b7fc901b7ec6267c64ceb48ed8adc9d873e3de1dd2c1788c75a6d359c64736f6c634300080b0033",
  "linkReferences": {},
  "deployedLinkReferences": {}
}