{
  "_format": "hh-sol-artifact-1",
  "contractName": "BridgeUpgradeable",
  "sourceName": "contracts/BridgeUpgradeable.sol",
  "abi": [
    {
      "inputs": [
        {
          "internalType": "uint256",
          "name": "msgValue",
          "type": "uint256"
        },
        {
          "internalType": "uint256",
          "name": "fee",
          "type": "uint256"
        }
      ],
      "name": "IncorrectFeeSupplied",
      "type": "error"
    },
    {
      "inputs": [
        {
          "internalType": "address",
          "name": "signer",
          "type": "address"
        },
        {
          "internalType": "uint256",
          "name": "index",
          "type": "uint256"
        }
      ],
      "name": "InviladSignature",
      "type": "error"
    },
    {
      "inputs": [],
      "name": "ResourceIDNotMappedToHandler",
      "type": "error"
    },
    {
      "anonymous": false,
      "inputs": [
        {
          "indexed": false,
          "internalType": "uint8",
          "name": "destinationDomainID",
          "type": "uint8"
        },
        {
          "indexed": false,
          "internalType": "bytes32",
          "name": "resourceID",
          "type": "bytes32"
        },
        {
          "indexed": false,
          "internalType": "uint64",
          "name": "depositNonce",
          "type": "uint64"
        },
        {
          "indexed": true,
          "internalType": "address",
          "name": "user",
          "type": "address"
        },
        {
          "indexed": false,
          "internalType": "bytes",
          "name": "data",
          "type": "bytes"
        },
        {
          "indexed": false,
          "internalType": "bytes",
          "name": "handlerResponse",
          "type": "bytes"
        }
      ],
      "name": "Deposit",
      "type": "event"
    },
    {
      "anonymous": false,
      "inputs": [
        {
          "indexed": false,
          "internalType": "bytes",
          "name": "lowLevelData",
          "type": "bytes"
        }
      ],
      "name": "FailedHandlerExecution",
      "type": "event"
    },
    {
      "anonymous": false,
      "inputs": [
        {
          "indexed": false,
          "internalType": "address",
          "name": "newFeeHandler",
          "type": "address"
        }
      ],
      "name": "FeeHandlerChanged",
      "type": "event"
    },
    {
      "anonymous": false,
      "inputs": [
        {
          "indexed": false,
          "internalType": "address",
          "name": "account",
          "type": "address"
        }
      ],
      "name": "Paused",
      "type": "event"
    },
    {
      "anonymous": false,
      "inputs": [
        {
          "indexed": false,
          "internalType": "uint8",
          "name": "originDomainID",
          "type": "uint8"
        },
        {
          "indexed": false,
          "internalType": "uint64",
          "name": "depositNonce",
          "type": "uint64"
        },
        {
          "indexed": false,
          "internalType": "enum IBridge.ProposalStatus",
          "name": "status",
          "type": "uint8"
        },
        {
          "indexed": false,
          "internalType": "bytes32",
          "name": "dataHash",
          "type": "bytes32"
        }
      ],
      "name": "ProposalEvent",
      "type": "event"
    },
    {
      "anonymous": false,
      "inputs": [
        {
          "indexed": false,
          "internalType": "uint8",
          "name": "originDomainID",
          "type": "uint8"
        },
        {
          "indexed": false,
          "internalType": "uint64",
          "name": "depositNonce",
          "type": "uint64"
        },
        {
          "indexed": false,
          "internalType": "enum IBridge.ProposalStatus",
          "name": "status",
          "type": "uint8"
        },
        {
          "indexed": false,
          "internalType": "bytes32",
          "name": "dataHash",
          "type": "bytes32"
        }
      ],
      "name": "ProposalVote",
      "type": "event"
    },
    {
      "anonymous": false,
      "inputs": [
        {
          "indexed": false,
          "internalType": "address",
          "name": "relayer",
          "type": "address"
        }
      ],
      "name": "RelayerAdded",
      "type": "event"
    },
    {
      "anonymous": false,
      "inputs": [
        {
          "indexed": false,
          "internalType": "address",
          "name": "relayer",
          "type": "address"
        }
      ],
      "name": "RelayerRemoved",
      "type": "event"
    },
    {
      "anonymous": false,
      "inputs": [
        {
          "indexed": false,
          "internalType": "uint256",
          "name": "newThreshold",
          "type": "uint256"
        }
      ],
      "name": "RelayerThresholdChanged",
      "type": "event"
    },
    {
      "anonymous": false,
      "inputs": [
        {
          "indexed": true,
          "internalType": "bytes32",
          "name": "role",
          "type": "bytes32"
        },
        {
          "indexed": true,
          "internalType": "address",
          "name": "account",
          "type": "address"
        },
        {
          "indexed": true,
          "internalType": "address",
          "name": "sender",
          "type": "address"
        }
      ],
      "name": "RoleGranted",
      "type": "event"
    },
    {
      "anonymous": false,
      "inputs": [
        {
          "indexed": true,
          "internalType": "bytes32",
          "name": "role",
          "type": "bytes32"
        },
        {
          "indexed": true,
          "internalType": "address",
          "name": "account",
          "type": "address"
        },
        {
          "indexed": true,
          "internalType": "address",
          "name": "sender",
          "type": "address"
        }
      ],
      "name": "RoleRevoked",
      "type": "event"
    },
    {
      "anonymous": false,
      "inputs": [
        {
          "indexed": false,
          "internalType": "address",
          "name": "account",
          "type": "address"
        }
      ],
      "name": "Unpaused",
      "type": "event"
    },
    {
      "inputs": [],
      "name": "DEFAULT_ADMIN_ROLE",
      "outputs": [
        {
          "internalType": "bytes32",
          "name": "",
          "type": "bytes32"
        }
      ],
      "stateMutability": "view",
      "type": "function"
    },
    {
      "inputs": [],
      "name": "MAX_RELAYERS",
      "outputs": [
        {
          "internalType": "uint256",
          "name": "",
          "type": "uint256"
        }
      ],
      "stateMutability": "view",
      "type": "function"
    },
    {
      "inputs": [],
      "name": "PERMIT_TYPEHASH",
      "outputs": [
        {
          "internalType": "bytes32",
          "name": "",
          "type": "bytes32"
        }
      ],
      "stateMutability": "view",
      "type": "function"
    },
    {
      "inputs": [],
      "name": "RELAYER_ROLE",
      "outputs": [
        {
          "internalType": "bytes32",
          "name": "",
          "type": "bytes32"
        }
      ],
      "stateMutability": "view",
      "type": "function"
    },
    {
      "inputs": [],
      "name": "_chainId",
      "outputs": [
        {
          "internalType": "uint256",
          "name": "",
          "type": "uint256"
        }
      ],
      "stateMutability": "view",
      "type": "function"
    },
    {
      "inputs": [
        {
          "internalType": "uint8",
          "name": "",
          "type": "uint8"
        }
      ],
      "name": "_depositCounts",
      "outputs": [
        {
          "internalType": "uint64",
          "name": "",
          "type": "uint64"
        }
      ],
      "stateMutability": "view",
      "type": "function"
    },
    {
      "inputs": [],
      "name": "_domainID",
      "outputs": [
        {
          "internalType": "uint8",
          "name": "",
          "type": "uint8"
        }
      ],
      "stateMutability": "view",
      "type": "function"
    },
    {
      "inputs": [],
      "name": "_expiry",
      "outputs": [
        {
          "internalType": "uint40",
          "name": "",
          "type": "uint40"
        }
      ],
      "stateMutability": "view",
      "type": "function"
    },
    {
      "inputs": [],
      "name": "_fee",
      "outputs": [
        {
          "internalType": "uint256",
          "name": "",
          "type": "uint256"
        }
      ],
      "stateMutability": "view",
      "type": "function"
    },
    {
      "inputs": [],
      "name": "_feeHandler",
      "outputs": [
        {
          "internalType": "contract IFeeHandler",
          "name": "",
          "type": "address"
        }
      ],
      "stateMutability": "view",
      "type": "function"
    },
    {
      "inputs": [
        {
          "internalType": "uint72",
          "name": "destNonce",
          "type": "uint72"
        },
        {
          "internalType": "bytes32",
          "name": "dataHash",
          "type": "bytes32"
        },
        {
          "internalType": "address",
          "name": "relayer",
          "type": "address"
        }
      ],
      "name": "_hasVotedOnProposal",
      "outputs": [
        {
          "internalType": "bool",
          "name": "",
          "type": "bool"
        }
      ],
      "stateMutability": "view",
      "type": "function"
    },
    {
      "inputs": [],
      "name": "_relayerThreshold",
      "outputs": [
        {
          "internalType": "uint8",
          "name": "",
          "type": "uint8"
        }
      ],
      "stateMutability": "view",
      "type": "function"
    },
    {
      "inputs": [
        {
          "internalType": "bytes32",
          "name": "",
          "type": "bytes32"
        }
      ],
      "name": "_resourceIDToHandlerAddress",
      "outputs": [
        {
          "internalType": "address",
          "name": "",
          "type": "address"
        }
      ],
      "stateMutability": "view",
      "type": "function"
    },
    {
      "inputs": [],
      "name": "_totalRelayers",
      "outputs": [
        {
          "internalType": "uint256",
          "name": "",
          "type": "uint256"
        }
      ],
      "stateMutability": "view",
      "type": "function"
    },
    {
      "inputs": [
        {
          "internalType": "address",
          "name": "relayerAddress",
          "type": "address"
        }
      ],
      "name": "adminAddRelayer",
      "outputs": [],
      "stateMutability": "nonpayable",
      "type": "function"
    },
    {
      "inputs": [
        {
          "internalType": "uint256",
          "name": "expiry",
          "type": "uint256"
        }
      ],
      "name": "adminChangeExpiry",
      "outputs": [],
      "stateMutability": "nonpayable",
      "type": "function"
    },
    {
      "inputs": [
        {
          "internalType": "address",
          "name": "newFeeHandler",
          "type": "address"
        }
      ],
      "name": "adminChangeFeeHandler",
      "outputs": [],
      "stateMutability": "nonpayable",
      "type": "function"
    },
    {
      "inputs": [
        {
          "internalType": "uint256",
          "name": "newThreshold",
          "type": "uint256"
        }
      ],
      "name": "adminChangeRelayerThreshold",
      "outputs": [],
      "stateMutability": "nonpayable",
      "type": "function"
    },
    {
      "inputs": [],
      "name": "adminPauseTransfers",
      "outputs": [],
      "stateMutability": "nonpayable",
      "type": "function"
    },
    {
      "inputs": [
        {
          "internalType": "address",
          "name": "relayerAddress",
          "type": "address"
        }
      ],
      "name": "adminRemoveRelayer",
      "outputs": [],
      "stateMutability": "nonpayable",
      "type": "function"
    },
    {
      "inputs": [
        {
          "internalType": "address",
          "name": "handlerAddress",
          "type": "address"
        },
        {
          "internalType": "address",
          "name": "tokenAddress",
          "type": "address"
        }
      ],
      "name": "adminSetBurnable",
      "outputs": [],
      "stateMutability": "nonpayable",
      "type": "function"
    },
    {
      "inputs": [
        {
          "internalType": "uint8",
          "name": "domainID",
          "type": "uint8"
        },
        {
          "internalType": "uint64",
          "name": "nonce",
          "type": "uint64"
        }
      ],
      "name": "adminSetDepositNonce",
      "outputs": [],
      "stateMutability": "nonpayable",
      "type": "function"
    },
    {
      "inputs": [
        {
          "internalType": "uint8",
          "name": "domainID",
          "type": "uint8"
        }
      ],
      "name": "adminSetDomainId",
      "outputs": [],
      "stateMutability": "nonpayable",
      "type": "function"
    },
    {
      "inputs": [
        {
          "internalType": "address",
          "name": "forwarder",
          "type": "address"
        },
        {
          "internalType": "bool",
          "name": "valid",
          "type": "bool"
        }
      ],
      "name": "adminSetForwarder",
      "outputs": [],
      "stateMutability": "nonpayable",
      "type": "function"
    },
    {
      "inputs": [
        {
          "internalType": "address",
          "name": "handlerAddress",
          "type": "address"
        },
        {
          "internalType": "bytes32",
          "name": "resourceID",
          "type": "bytes32"
        },
        {
          "internalType": "address",
          "name": "contractAddress",
          "type": "address"
        },
        {
          "internalType": "bytes4",
          "name": "depositFunctionSig",
          "type": "bytes4"
        },
        {
          "internalType": "uint256",
          "name": "depositFunctionDepositerOffset",
          "type": "uint256"
        },
        {
          "internalType": "bytes4",
          "name": "executeFunctionSig",
          "type": "bytes4"
        }
      ],
      "name": "adminSetGenericResource",
      "outputs": [],
      "stateMutability": "nonpayable",
      "type": "function"
    },
    {
      "inputs": [
        {
          "internalType": "bytes32",
          "name": "resourceID",
          "type": "bytes32"
        },
        {
          "internalType": "address",
          "name": "nativeAddress",
          "type": "address"
        },
        {
          "internalType": "bool",
          "name": "isNative",
          "type": "bool"
        }
      ],
      "name": "adminSetNative",
      "outputs": [],
      "stateMutability": "nonpayable",
      "type": "function"
    },
    {
      "inputs": [
        {
          "internalType": "address",
          "name": "handlerAddress",
          "type": "address"
        }
      ],
      "name": "adminSetNativeResource",
      "outputs": [],
      "stateMutability": "nonpayable",
      "type": "function"
    },
    {
      "inputs": [
        {
          "internalType": "address",
          "name": "handlerAddress",
          "type": "address"
        },
        {
          "internalType": "bytes32",
          "name": "resourceID",
          "type": "bytes32"
        },
        {
          "internalType": "address",
          "name": "tokenAddress",
          "type": "address"
        }
      ],
      "name": "adminSetResource",
      "outputs": [],
      "stateMutability": "nonpayable",
      "type": "function"
    },
    {
      "inputs": [],
      "name": "adminUnpauseTransfers",
      "outputs": [],
      "stateMutability": "nonpayable",
      "type": "function"
    },
    {
      "inputs": [
        {
          "internalType": "address",
          "name": "handlerAddress",
          "type": "address"
        },
        {
          "internalType": "bytes",
          "name": "data",
          "type": "bytes"
        }
      ],
      "name": "adminWithdraw",
      "outputs": [],
      "stateMutability": "nonpayable",
      "type": "function"
    },
    {
      "inputs": [
        {
          "internalType": "address",
          "name": "handlerAddress",
          "type": "address"
        },
        {
          "internalType": "bytes",
          "name": "data",
          "type": "bytes"
        }
      ],
      "name": "adminWithdrawETH",
      "outputs": [],
      "stateMutability": "nonpayable",
      "type": "function"
    },
    {
      "inputs": [
        {
          "internalType": "uint8",
          "name": "destinationDomainID",
          "type": "uint8"
        },
        {
          "internalType": "bytes32",
          "name": "resourceID",
          "type": "bytes32"
        },
        {
          "internalType": "bytes",
          "name": "depositData",
          "type": "bytes"
        },
        {
          "internalType": "bytes",
          "name": "feeData",
          "type": "bytes"
        }
      ],
      "name": "calculateFee",
      "outputs": [
        {
          "internalType": "uint256",
          "name": "",
          "type": "uint256"
        }
      ],
      "stateMutability": "view",
      "type": "function"
    },
    {
      "inputs": [
        {
          "internalType": "uint8",
          "name": "domainID",
          "type": "uint8"
        },
        {
          "internalType": "uint64",
          "name": "depositNonce",
          "type": "uint64"
        },
        {
          "internalType": "bytes32",
          "name": "dataHash",
          "type": "bytes32"
        }
      ],
      "name": "cancelProposal",
      "outputs": [],
      "stateMutability": "nonpayable",
      "type": "function"
    },
    {
      "inputs": [
        {
          "internalType": "uint8",
          "name": "domainID",
          "type": "uint8"
        },
        {
          "internalType": "uint64",
          "name": "depositNonce",
          "type": "uint64"
        },
        {
          "internalType": "bytes32",
          "name": "resourceID",
          "type": "bytes32"
        },
        {
          "internalType": "bytes",
          "name": "data",
          "type": "bytes"
        },
        {
          "internalType": "bytes",
          "name": "signature",
          "type": "bytes"
        }
      ],
      "name": "checkSignature",
      "outputs": [
        {
          "internalType": "bool",
          "name": "",
          "type": "bool"
        }
      ],
      "stateMutability": "view",
      "type": "function"
    },
    {
      "inputs": [
        {
          "internalType": "uint8",
          "name": "destinationDomainID",
          "type": "uint8"
        },
        {
          "internalType": "bytes32",
          "name": "resourceID",
          "type": "bytes32"
        },
        {
          "internalType": "bytes",
          "name": "depositData",
          "type": "bytes"
        },
        {
          "internalType": "bytes",
          "name": "feeData",
          "type": "bytes"
        }
      ],
      "name": "deposit",
      "outputs": [],
      "stateMutability": "payable",
      "type": "function"
    },
    {
      "inputs": [
        {
          "internalType": "uint8",
          "name": "domainID",
          "type": "uint8"
        },
        {
          "internalType": "uint64",
          "name": "depositNonce",
          "type": "uint64"
        },
        {
          "internalType": "bytes",
          "name": "data",
          "type": "bytes"
        },
        {
          "internalType": "bytes32",
          "name": "resourceID",
          "type": "bytes32"
        },
        {
          "internalType": "bool",
          "name": "revertOnFail",
          "type": "bool"
        }
      ],
      "name": "executeProposal",
      "outputs": [],
      "stateMutability": "nonpayable",
      "type": "function"
    },
    {
      "inputs": [
        {
          "internalType": "uint8",
          "name": "originDomainID",
          "type": "uint8"
        },
        {
          "internalType": "uint64",
          "name": "depositNonce",
          "type": "uint64"
        },
        {
          "internalType": "bytes32",
          "name": "dataHash",
          "type": "bytes32"
        }
      ],
      "name": "getProposal",
      "outputs": [
        {
          "components": [
            {
              "internalType": "enum IBridge.ProposalStatus",
              "name": "_status",
              "type": "uint8"
            },
            {
              "internalType": "uint200",
              "name": "_yesVotes",
              "type": "uint200"
            },
            {
              "internalType": "uint8",
              "name": "_yesVotesTotal",
              "type": "uint8"
            },
            {
              "internalType": "uint40",
              "name": "_proposedBlock",
              "type": "uint40"
            }
          ],
          "internalType": "struct IBridge.Proposal",
          "name": "",
          "type": "tuple"
        }
      ],
      "stateMutability": "view",
      "type": "function"
    },
    {
      "inputs": [
        {
          "internalType": "bytes32",
          "name": "role",
          "type": "bytes32"
        }
      ],
      "name": "getRoleAdmin",
      "outputs": [
        {
          "internalType": "bytes32",
          "name": "",
          "type": "bytes32"
        }
      ],
      "stateMutability": "view",
      "type": "function"
    },
    {
      "inputs": [
        {
          "internalType": "bytes32",
          "name": "role",
          "type": "bytes32"
        },
        {
          "internalType": "uint256",
          "name": "index",
          "type": "uint256"
        }
      ],
      "name": "getRoleMember",
      "outputs": [
        {
          "internalType": "address",
          "name": "",
          "type": "address"
        }
      ],
      "stateMutability": "view",
      "type": "function"
    },
    {
      "inputs": [
        {
          "internalType": "bytes32",
          "name": "role",
          "type": "bytes32"
        }
      ],
      "name": "getRoleMemberCount",
      "outputs": [
        {
          "internalType": "uint256",
          "name": "",
          "type": "uint256"
        }
      ],
      "stateMutability": "view",
      "type": "function"
    },
    {
      "inputs": [
        {
          "internalType": "bytes32",
          "name": "role",
          "type": "bytes32"
        },
        {
          "internalType": "address",
          "name": "account",
          "type": "address"
        }
      ],
      "name": "getRoleMemberIndex",
      "outputs": [
        {
          "internalType": "uint256",
          "name": "",
          "type": "uint256"
        }
      ],
      "stateMutability": "view",
      "type": "function"
    },
    {
      "inputs": [
        {
          "internalType": "bytes32",
          "name": "role",
          "type": "bytes32"
        },
        {
          "internalType": "address",
          "name": "account",
          "type": "address"
        }
      ],
      "name": "grantRole",
      "outputs": [],
      "stateMutability": "nonpayable",
      "type": "function"
    },
    {
      "inputs": [
        {
          "internalType": "bytes32",
          "name": "role",
          "type": "bytes32"
        },
        {
          "internalType": "address",
          "name": "account",
          "type": "address"
        }
      ],
      "name": "hasRole",
      "outputs": [
        {
          "internalType": "bool",
          "name": "",
          "type": "bool"
        }
      ],
      "stateMutability": "view",
      "type": "function"
    },
    {
      "inputs": [
        {
          "internalType": "uint8",
          "name": "domainID",
          "type": "uint8"
        },
        {
          "internalType": "address[]",
          "name": "initialRelayers",
          "type": "address[]"
        },
        {
          "internalType": "uint256",
          "name": "initialRelayerThreshold",
          "type": "uint256"
        },
        {
          "internalType": "uint256",
          "name": "expiry",
          "type": "uint256"
        }
      ],
      "name": "initialize",
      "outputs": [],
      "stateMutability": "nonpayable",
      "type": "function"
    },
    {
      "inputs": [
        {
          "internalType": "address",
          "name": "relayer",
          "type": "address"
        }
      ],
      "name": "isRelayer",
      "outputs": [
        {
          "internalType": "bool",
          "name": "",
          "type": "bool"
        }
      ],
      "stateMutability": "view",
      "type": "function"
    },
    {
      "inputs": [
        {
          "internalType": "address",
          "name": "",
          "type": "address"
        }
      ],
      "name": "isValidForwarder",
      "outputs": [
        {
          "internalType": "bool",
          "name": "",
          "type": "bool"
        }
      ],
      "stateMutability": "view",
      "type": "function"
    },
    {
      "inputs": [],
      "name": "paused",
      "outputs": [
        {
          "internalType": "bool",
          "name": "",
          "type": "bool"
        }
      ],
      "stateMutability": "view",
      "type": "function"
    },
    {
      "inputs": [
        {
          "internalType": "address",
          "name": "newAdmin",
          "type": "address"
        }
      ],
      "name": "renounceAdmin",
      "outputs": [],
      "stateMutability": "nonpayable",
      "type": "function"
    },
    {
      "inputs": [
        {
          "internalType": "bytes32",
          "name": "role",
          "type": "bytes32"
        },
        {
          "internalType": "address",
          "name": "account",
          "type": "address"
        }
      ],
      "name": "renounceRole",
      "outputs": [],
      "stateMutability": "nonpayable",
      "type": "function"
    },
    {
      "inputs": [
        {
          "internalType": "bytes32",
          "name": "role",
          "type": "bytes32"
        },
        {
          "internalType": "address",
          "name": "account",
          "type": "address"
        }
      ],
      "name": "revokeRole",
      "outputs": [],
      "stateMutability": "nonpayable",
      "type": "function"
    },
    {
      "inputs": [
        {
          "internalType": "address payable[]",
          "name": "addrs",
          "type": "address[]"
        },
        {
          "internalType": "uint256[]",
          "name": "amounts",
          "type": "uint256[]"
        }
      ],
      "name": "transferFunds",
      "outputs": [],
      "stateMutability": "nonpayable",
      "type": "function"
    },
    {
      "inputs": [
        {
          "internalType": "uint8",
          "name": "domainID",
          "type": "uint8"
        },
        {
          "internalType": "uint64",
          "name": "depositNonce",
          "type": "uint64"
        },
        {
          "internalType": "bytes32",
          "name": "resourceID",
          "type": "bytes32"
        },
        {
          "internalType": "bytes",
          "name": "data",
          "type": "bytes"
        }
      ],
      "name": "voteProposal",
      "outputs": [],
      "stateMutability": "nonpayable",
      "type": "function"
    },
    {
      "inputs": [
        {
          "internalType": "uint8",
          "name": "domainID",
          "type": "uint8"
        },
        {
          "internalType": "uint64",
          "name": "depositNonce",
          "type": "uint64"
        },
        {
          "internalType": "bytes32",
          "name": "resourceID",
          "type": "bytes32"
        },
        {
          "internalType": "bytes",
          "name": "data",
          "type": "bytes"
        },
        {
          "internalType": "bytes[]",
          "name": "signatures",
          "type": "bytes[]"
        }
      ],
      "name": "voteProposals",
      "outputs": [],
      "stateMutability": "nonpayable",
      "type": "function"
    }
  ],
  "bytecode": "0x608060405234801561001057600080fd5b50614863806100206000396000f3fe60806040526004361061031a5760003560e01c80639010d07c116101ab578063c5b37c22116100f7578063d7a9cd7911610095578063f8c39e441161006f578063f8c39e44146109bf578063fe4648f4146109ef578063fe65c4be14610a16578063ffaac0eb14610a3657600080fd5b8063d7a9cd7914610960578063e2469d401461097f578063edc20c3c1461099f57600080fd5b8063cb10f215116100d1578063cb10f215146108e0578063cdb0f73a14610900578063d15ef64e14610920578063d547741f1461094057600080fd5b8063c5b37c2214610871578063c5ec897014610886578063ca15c873146108c057600080fd5b80639debb3bd11610164578063a9cf69fa1161013e578063a9cf69fa146107e4578063b4d89a0714610811578063bd2a182014610831578063c0331b3e1461085157600080fd5b80639debb3bd1461079a578063a06fbbff146107af578063a217fddf146107cf57600080fd5b80639010d07c146106cc57806391d14854146106ec578063926d7d7f1461070c5780639d4d39f51461072e5780639d82dd631461074e5780639dd694f41461076e57600080fd5b80635e1fab0f1161026a5780637febe63f1161022357806384db809f116101fd57806384db809f1461061e57806388b73be01461066c5780638b63aebf1461068c5780638c0c2631146106ac57600080fd5b80637febe63f146105d4578063802aabe8146105f457806380ae1c281461060957600080fd5b80635e1fab0f1461052e5780636d3b6eea1461054e5780637292dd911461056e57806373c45c981461058e57806374773412146105a15780637d026d96146105b457600080fd5b80634603ae38116102d75780634e0df3f6116102b15780634e0df3f6146104a6578063541d5548146104c65780635a1ad87c146104f65780635c975abb1461051657600080fd5b80634603ae38146104185780634b0b919d146104385780634e0560051461048657600080fd5b806317f03ce51461031f578063206a98fd14610341578063248a9ca3146103615780632f2ff15d146103a457806330adf81f146103c457806336568abe146103f8575b600080fd5b34801561032b57600080fd5b5061033f61033a366004613a64565b610a4b565b005b34801561034d57600080fd5b5061033f61035c366004613af1565b610ce0565b34801561036d57600080fd5b5061039161037c366004613b6d565b60009081526099602052604090206002015490565b6040519081526020015b60405180910390f35b3480156103b057600080fd5b5061033f6103bf366004613b9b565b610f66565b3480156103d057600080fd5b506103917fc4cb5d35714699d6e85b9562b644e60393b418d974a5c1dd8efaadac37a142c581565b34801561040457600080fd5b5061033f610413366004613b9b565b610ff6565b34801561042457600080fd5b5061033f610433366004613c0f565b611080565b34801561044457600080fd5b5061046e610453366004613c7a565b609b602052600090815260409020546001600160401b031681565b6040516001600160401b03909116815260200161039b565b34801561049257600080fd5b5061033f6104a1366004613b6d565b611124565b3480156104b257600080fd5b506103916104c1366004613b9b565b611187565b3480156104d257600080fd5b506104e66104e1366004613c95565b6111b4565b604051901515815260200161039b565b34801561050257600080fd5b5061033f610511366004613cca565b6111ce565b34801561052257600080fd5b5060355460ff166104e6565b34801561053a57600080fd5b5061033f610549366004613c95565b611284565b34801561055a57600080fd5b5061033f610569366004613deb565b611310565b34801561057a57600080fd5b5061033f610589366004613e5d565b61137d565b61033f61059c366004613f61565b611a93565b3480156105ad57600080fd5b5046610391565b3480156105c057600080fd5b5061033f6105cf366004613b6d565b611d3c565b3480156105e057600080fd5b506104e66105ef366004613fea565b611d72565b34801561060057600080fd5b50610391611e16565b34801561061557600080fd5b5061033f611e34565b34801561062a57600080fd5b50610654610639366004613b6d565b609c602052600090815260409020546001600160a01b031681565b6040516001600160a01b03909116815260200161039b565b34801561067857600080fd5b5061033f610687366004614038565b611e4e565b34801561069857600080fd5b5061033f6106a7366004613c95565b611ed3565b3480156106b857600080fd5b5061033f6106c7366004614076565b611f39565b3480156106d857600080fd5b506106546106e73660046140a4565b611f72565b3480156106f857600080fd5b506104e6610707366004613b9b565b611f91565b34801561071857600080fd5b5061039160008051602061480e83398151915281565b34801561073a57600080fd5b50610391610749366004613f61565b611fa9565b34801561075a57600080fd5b5061033f610769366004613c95565b612072565b34801561077a57600080fd5b50609a546107889060ff1681565b60405160ff909116815260200161039b565b3480156107a657600080fd5b5061039160c881565b3480156107bb57600080fd5b5061033f6107ca366004613c7a565b6120cb565b3480156107db57600080fd5b50610391600081565b3480156107f057600080fd5b506108046107ff366004613a64565b6120e9565b60405161039b91906140fe565b34801561081d57600080fd5b5061033f61082c366004614147565b6121b7565b34801561083d57600080fd5b5061033f61084c366004613deb565b61233f565b34801561085d57600080fd5b5061033f61086c366004614201565b612375565b34801561087d57600080fd5b5061039161284b565b34801561089257600080fd5b50609a546108aa9062010000900464ffffffffff1681565b60405164ffffffffff909116815260200161039b565b3480156108cc57600080fd5b506103916108db366004613b6d565b6128e3565b3480156108ec57600080fd5b5061033f6108fb36600461426f565b6128fa565b34801561090c57600080fd5b5061033f61091b366004613c95565b61295b565b34801561092c57600080fd5b5061033f61093b36600461428f565b612a04565b34801561094c57600080fd5b5061033f61095b366004613b9b565b612a37565b34801561096c57600080fd5b50609a5461078890610100900460ff1681565b34801561098b57600080fd5b5061033f61099a366004613c95565b612aba565b3480156109ab57600080fd5b5061033f6109ba3660046142c4565b612ba1565b3480156109cb57600080fd5b506104e66109da366004613c95565b609d6020526000908152604090205460ff1681565b3480156109fb57600080fd5b50609a5461065490600160381b90046001600160a01b031681565b348015610a2257600080fd5b506104e6610a313660046142ee565b612c5a565b348015610a4257600080fd5b5061033f612d64565b610a53612d7c565b60ff838116600884901b68ffffffffffffffff0016176000818152609e60209081526040808320868452909152808220815160808101909252805493949293919290918391166004811115610aaa57610aaa6140c6565b6004811115610abb57610abb6140c6565b8152905461010081046001600160c81b03166020830152600160d01b810460ff166040830152600160d81b900464ffffffffff1660609091015280519091506001816004811115610b0e57610b0e6140c6565b1480610b2b57506002816004811115610b2957610b296140c6565b145b610b7c5760405162461bcd60e51b815260206004820152601c60248201527f50726f706f73616c2063616e6e6f742062652063616e63656c6c65640000000060448201526064015b60405180910390fd5b609a54606083015164ffffffffff62010000909204821691610ba091439116612e00565b64ffffffffff1611610bf45760405162461bcd60e51b815260206004820181905260248201527f50726f706f73616c206e6f7420617420657870697279207468726573686f6c646044820152606401610b73565b60048083526001600160481b0384166000908152609e602090815260408083208884529091529020835181548593839160ff1916906001908490811115610c3d57610c3d6140c6565b02179055506020820151815460408085015160609095015164ffffffffff16600160d81b026001600160d81b0360ff909616600160d01b0260ff60d01b196001600160c81b039095166101000294909416610100600160d81b0319909316929092179290921793909316929092179055516000805160206147ee83398151915290610cd090889088906004908990614388565b60405180910390a1505050505050565b610ce8612e42565b610cf0612ea8565b6000828152609c602090815260408083205490516001600160a01b039091169268ffffffffffffffff0060088a901b1660ff8b1617929091610d389185918a918a91016143bd565b60408051601f1981840301815291815281516020928301206001600160481b0385166000908152609e845282812082825290935291209091506002815460ff166004811115610d8957610d896140c6565b14610dd65760405162461bcd60e51b815260206004820181905260248201527f50726f706f73616c206d757374206861766520506173736564207374617475736044820152606401610b73565b805460ff19166003178155838515610e4f5760405163712467f960e11b81526001600160a01b0382169063e248cff290610e18908a908d908d90600401614412565b600060405180830381600087803b158015610e3257600080fd5b505af1158015610e46573d6000803e3d6000fd5b50505050610f2c565b60405163712467f960e11b81526001600160a01b0382169063e248cff290610e7f908a908d908d90600401614412565b600060405180830381600087803b158015610e9957600080fd5b505af1925050508015610eaa575060015b610f2c573d808015610ed8576040519150601f19603f3d011682016040523d82523d6000602084013e610edd565b606091505b50825460ff191660021783556040517fbd37c1f0d53bb2f33fe4c2104de272fcdeb4d2fef3acdbf1e4ddc3d6833ca37690610f19908390614488565b60405180910390a1505050505050610f5e565b6000805160206147ee8339815191528b8b600386604051610f509493929190614388565b60405180910390a150505050505b505050505050565b600082815260996020526040902060020154610f8490610707612eee565b610fe85760405162461bcd60e51b815260206004820152602f60248201527f416363657373436f6e74726f6c3a2073656e646572206d75737420626520616e60448201526e0818591b5a5b881d1bc819dc985b9d608a1b6064820152608401610b73565b610ff28282612f2f565b5050565b610ffe612eee565b6001600160a01b0316816001600160a01b0316146110765760405162461bcd60e51b815260206004820152602f60248201527f416363657373436f6e74726f6c3a2063616e206f6e6c792072656e6f756e636560448201526e103937b632b9903337b91039b2b63360891b6064820152608401610b73565b610ff28282612f98565b611088613001565b60005b8381101561111d578484828181106110a5576110a561449b565b90506020020160208101906110ba9190613c95565b6001600160a01b03166108fc8484848181106110d8576110d861449b565b905060200201359081150290604051600060405180830381858888f1935050505015801561110a573d6000803e3d6000fd5b5080611115816144c7565b91505061108b565b5050505050565b61112c613001565b6111358161305a565b609a805460ff929092166101000261ff00199092169190911790556040518181527fa20d6b84cd798a24038be305eff8a45ca82ef54a2aa2082005d8e14c0a4746c8906020015b60405180910390a150565b60008281526099602090815260408083206001600160a01b03851684526001019091529020545b92915050565b60006111ae60008051602061480e83398151915283611f91565b6111d6613001565b6000858152609c60205260409081902080546001600160a01b0319166001600160a01b03898116918217909255915163de319d9960e01b81526004810188905290861660248201526001600160e01b03198086166044830152606482018590528316608482015287919063de319d999060a401600060405180830381600087803b15801561126357600080fd5b505af1158015611277573d6000803e3d6000fd5b5050505050505050505050565b61128c613001565b6000611296612eee565b9050816001600160a01b0316816001600160a01b031614156112fa5760405162461bcd60e51b815260206004820152601760248201527f43616e6e6f742072656e6f756e6365206f6e6573656c660000000000000000006044820152606401610b73565b611305600083610f66565b610ff2600082610ff6565b611318613001565b60405163ab5c7bf160e01b815282906001600160a01b0382169063ab5c7bf190611346908590600401614488565b600060405180830381600087803b15801561136057600080fd5b505af1158015611374573d6000803e3d6000fd5b50505050505050565b611385612ea8565b6000848152609c602090815260408083205490516001600160a01b039091169268ffffffffffffffff0060088a901b1660ff8b16179290916113cd91859189918991016143bd565b60408051601f1981840301815282825280516020918201206001600160481b0386166000908152609e835283812082825290925282822060808501909352825490945090929190829060ff16600481111561142a5761142a6140c6565b600481111561143b5761143b6140c6565b8152905461010081046001600160c81b0316602080840191909152600160d01b820460ff16604080850191909152600160d81b90920464ffffffffff1660609093019290925260008b8152609c9092529020549091506001600160a01b03166114e25760405162461bcd60e51b81526020600482015260196024820152781b9bc81a185b991b195c88199bdc881c995cdbdd5c98d95251603a1b6044820152606401610b73565b60005b855181101561192157600282516004811115611503576115036140c6565b141561159f576003825260405163712467f960e11b815285906001600160a01b0382169063e248cff29061153f908d908d908d90600401614412565b600060405180830381600087803b15801561155957600080fd5b505af115801561156d573d6000803e3d6000fd5b505050506000805160206147ee8339815191528c8c6003876040516115959493929190614388565b60405180910390a1505b60007fc4cb5d35714699d6e85b9562b644e60393b418d974a5c1dd8efaadac37a142c58c8c8c8c8c6040516115d59291906144e2565b604051908190038120611618959493929160200194855260ff9390931660208501526001600160401b039190911660408401526060830152608082015260a00190565b604051602081830303815290604052805190602001209050600061163b826130b1565b90506000611662828a86815181106116555761165561449b565b60200260200101516130ff565b905061167c60008051602061480e83398151915282611f91565b6116ab5760405163b4d8a3a160e01b81526001600160a01b038216600482015260248101859052604401610b73565b845160019060048111156116c1576116c16140c6565b11156116df5760405162461bcd60e51b8152600401610b73906144f2565b6116e98582613123565b1561172e5760405162461bcd60e51b81526020600482015260156024820152741c995b185e595c88185b1c9958591e481d9bdd1959605a1b6044820152606401610b73565b600085516004811115611743576117436140c6565b14156117b4576040805160808101909152806001815260200160006001600160c81b03168152602001600060ff1681526020014364ffffffffff1681525094506000805160206147ee8339815191528e8e6001896040516117a79493929190614388565b60405180910390a161181a565b609a54606086015164ffffffffff620100009092048216916117d891439116612e00565b64ffffffffff16111561181a5760048581815250506000805160206147ee8339815191528e8e6004896040516118119493929190614388565b60405180910390a15b60048551600481111561182f5761182f6140c6565b1461190b5761185461184082613146565b86602001516001600160c81b031617613174565b6001600160c81b031660208601526040850180519061187282614535565b60ff1660ff16815250507f25f8daaa4635a7729927ba3f5b3d59cc3320aca7c32c9db4e7ca7b95743436408e8e8760000151896040516118b59493929190614388565b60405180910390a1609a54604086015160ff610100909204821691161061190b5760028581815250506000805160206147ee8339815191528e8e6002896040516119029493929190614388565b60405180910390a15b5050508080611919906144c7565b9150506114e5565b50600281516004811115611937576119376140c6565b14156119d3576003815260405163712467f960e11b815284906001600160a01b0382169063e248cff290611973908c908c908c90600401614412565b600060405180830381600087803b15801561198d57600080fd5b505af11580156119a1573d6000803e3d6000fd5b505050506000805160206147ee8339815191528b8b6003866040516119c99493929190614388565b60405180910390a1505b6001600160481b0383166000908152609e6020908152604080832085845290915290208151815483929190829060ff19166001836004811115611a1857611a186140c6565b021790555060208201518154604084015160609094015164ffffffffff16600160d81b026001600160d81b0360ff909516600160d01b0260ff60d01b196001600160c81b039094166101000293909316610100600160d81b031990921691909117919091179290921691909117905550505050505050505050565b611a9b612ea8565b6000611aa5612eee565b609a549091503490600160381b90046001600160a01b031615611bdd57609a5460405163ef4f081f60e01b81526000916001600160a01b03600160381b8204169163ef4f081f91611b0a91879160ff16908e908e908e908e908e908e90600401614555565b6040805180830381865afa158015611b26573d6000803e3d6000fd5b505050506040513d601f19601f82011682018060405250810190611b4a91906145a2565b5090508015611bdb57609a54604051632530706560e01b81526001600160a01b03600160381b830416916325307065918491611b9a91889160ff16908f908f908f908f908f908f90600401614555565b6000604051808303818588803b158015611bb357600080fd5b505af1158015611bc7573d6000803e3d6000fd5b50505050508082611bd891906145c7565b91505b505b6000878152609c60205260409020546001600160a01b031680611c13576040516308c231dd60e31b815260040160405180910390fd5b60ff89166000908152609b6020526040812080548290611c3b906001600160401b03166145de565b91906101000a8154816001600160401b0302191690836001600160401b031602179055905060008290506000816001600160a01b031663b07e54bb868d898e8e6040518663ffffffff1660e01b8152600401611c9a9493929190614605565b60006040518083038185885af1158015611cb8573d6000803e3d6000fd5b50505050506040513d6000823e601f3d908101601f19168201604052611ce19190810190614630565b9050856001600160a01b03167f17bc3181e17a9620a479c24e6c606e474ba84fc036877b768926872e8cd0e11f8d8d868e8e87604051611d269695949392919061469d565b60405180910390a2505050505050505050505050565b611d44613001565b611d4d816131c9565b609a60026101000a81548164ffffffffff021916908364ffffffffff16021790555050565b6001600160481b0383166000908152609e602090815260408083208584529091528082208151608081019092528054611e0e929190829060ff166004811115611dbd57611dbd6140c6565b6004811115611dce57611dce6140c6565b8152905461010081046001600160c81b03166020830152600160d01b810460ff166040830152600160d81b900464ffffffffff1660609091015283613123565b949350505050565b6000611e2f60008051602061480e8339815191526128e3565b905090565b611e3c613001565b611e4c611e47612eee565b613220565b565b611e56613001565b6000838152609c60205260409081902054905163789d771160e01b81526001600160a01b038481166004830152831515602483015290911690819063789d7711906044015b600060405180830381600087803b158015611eb557600080fd5b505af1158015611ec9573d6000803e3d6000fd5b5050505050505050565b611edb613001565b609a8054670100000000000000600160d81b031916600160381b6001600160a01b038416908102919091179091556040519081527f729170bd142e4965055b26a285faeedf03baf2b915bfc5a7c75d24b45815ff2c9060200161117c565b611f41613001565b6040516307b7ed9960e01b81526001600160a01b0382811660048301528391908216906307b7ed9990602401611346565b6000828152609960205260408120611f8a908361326e565b9392505050565b6000828152609960205260408120611f8a908361327a565b600080611fb4612eee565b609a54909150600160381b90046001600160a01b03161561206257609a5460405163ef4f081f60e01b81526000916001600160a01b03600160381b8204169163ef4f081f9161201791869160ff16908e908e908e908e908e908e90600401614555565b6040805180830381865afa158015612033573d6000803e3d6000fd5b505050506040513d601f19601f8201168201806040525081019061205791906145a2565b509250612068915050565b60009150505b9695505050505050565b61207a613001565b61209260008051602061480e83398151915282612a37565b6040516001600160a01b03821681527f10e1f7ce9fd7d1b90a66d13a2ab3cb8dd7f29f3f8d520b143b063ccfbab6906b9060200161117c565b6120d3613001565b609a805460ff191660ff92909216919091179055565b60408051608081018252600080825260208201819052918101829052606081019190915260ff848116600885901b68ffffffffffffffff0016176000818152609e602090815260408083208784529091529081902081516080810190925280549293919290918391166004811115612163576121636140c6565b6004811115612174576121746140c6565b8152905461010081046001600160c81b03166020830152600160d01b810460ff166040830152600160d81b900464ffffffffff1660609091015295945050505050565b600054610100900460ff166121d25760005460ff16156121d6565b303b155b6121f25760405162461bcd60e51b8152600401610b73906146ee565b600054610100900460ff16158015612214576000805461ffff19166101011790555b61221c61329c565b6122656040518060400160405280600c81526020016b5065726d697442726964676560a01b815250604051806040016040528060038152602001620312e360ec1b815250613315565b609a805460ff191660ff871617905561227d8361305a565b609a60016101000a81548160ff021916908360ff1602179055506122a0826131c9565b609a805464ffffffffff92909216620100000266ffffffffff0000199092169190911790556122d760006122d2612eee565b610fe8565b60005b84518110156123265761231460008051602061480e8339815191528683815181106123075761230761449b565b6020026020010151610f66565b8061231e816144c7565b9150506122da565b50801561111d576000805461ff00191690555050505050565b612347613001565b60405163025a3c9960e21b815282906001600160a01b03821690630968f26490611346908590600401614488565b61237d612e42565b612385612ea8565b6000838152609c602090815260408083205490516001600160a01b039091169268ffffffffffffffff00600889901b1660ff8a16179290916123cd91859188918891016143bd565b60408051601f1981840301815282825280516020918201206001600160481b0386166000908152609e835283812082825290925282822060808501909352825490945090929190829060ff16600481111561242a5761242a6140c6565b600481111561243b5761243b6140c6565b8152905461010081046001600160c81b0316602080840191909152600160d01b820460ff16604080850191909152600160d81b90920464ffffffffff1660609093019290925260008a8152609c9092529020549091506001600160a01b03166124e25760405162461bcd60e51b81526020600482015260196024820152781b9bc81a185b991b195c88199bdc881c995cdbdd5c98d95251603a1b6044820152606401610b73565b6002815160048111156124f7576124f76140c6565b14156125155761250c898988888b6001610ce0565b5050505061111d565b600061251f612eee565b9050600182600001516004811115612539576125396140c6565b11156125575760405162461bcd60e51b8152600401610b73906144f2565b6125618282613123565b156125a65760405162461bcd60e51b81526020600482015260156024820152741c995b185e595c88185b1c9958591e481d9bdd1959605a1b6044820152606401610b73565b6000825160048111156125bb576125bb6140c6565b141561261b576040805160808101825260018082526000602083018190528284015264ffffffffff4316606083015291519093506000805160206147ee8339815191529161260e918d918d918890614388565b60405180910390a161267c565b609a54606083015164ffffffffff6201000090920482169161263f91439116612e00565b64ffffffffff16111561267c5760048083526040516000805160206147ee83398151915291612673918d918d918890614388565b60405180910390a15b600482516004811115612691576126916140c6565b14612761576126b66126a282613146565b83602001516001600160c81b031617613174565b6001600160c81b03166020830152604082018051906126d482614535565b60ff1690525081516040517f25f8daaa4635a7729927ba3f5b3d59cc3320aca7c32c9db4e7ca7b957434364091612710918d918d918890614388565b60405180910390a1609a54604083015160ff61010090920482169116106127615760028083526040516000805160206147ee83398151915291612758918d918d918890614388565b60405180910390a15b6001600160481b0384166000908152609e6020908152604080832086845290915290208251815484929190829060ff191660018360048111156127a6576127a66140c6565b021790555060208201518154604084015160609094015164ffffffffff16600160d81b026001600160d81b0360ff909516600160d01b0260ff60d01b196001600160c81b039094166101000293909316610100600160d81b031990921691909117919091179290921691909117905560028251600481111561282a5761282a6140c6565b141561283f5761283f8a8a89898c6000610ce0565b50505050505050505050565b609a54600090600160381b90046001600160a01b0316156128dd57609a60079054906101000a90046001600160a01b03166001600160a01b031663c5b37c226040518163ffffffff1660e01b8152600401602060405180830381865afa1580156128b9573d6000803e3d6000fd5b505050506040513d601f19601f82011682018060405250810190611e2f919061473c565b50600090565b60008181526099602052604081206111ae90613346565b612902613001565b6000828152609c60205260409081902080546001600160a01b0319166001600160a01b038681169182179092559151635c7d1b9b60e11b815260048101859052908316602482015284919063b8fa373690604401611e9b565b612963613001565b60c861296d611e16565b106129b35760405162461bcd60e51b81526020600482015260166024820152751c995b185e595c9cc81b1a5b5a5d081c995858da195960521b6044820152606401610b73565b6129cb60008051602061480e83398151915282610f66565b6040516001600160a01b03821681527f03580ee9f53a62b7cb409a2cb56f9be87747dd15017afc5cef6eef321e4fb2c59060200161117c565b612a0c613001565b6001600160a01b03919091166000908152609d60205260409020805460ff1916911515919091179055565b600082815260996020526040902060020154612a5590610707612eee565b6110765760405162461bcd60e51b815260206004820152603060248201527f416363657373436f6e74726f6c3a2073656e646572206d75737420626520616e60448201526f2061646d696e20746f207265766f6b6560801b6064820152608401610b73565b612ac2613001565b609a5460019060009060ff16612ada83610100614755565b612ae49190614774565b6000818152609c60205260409081902080546001600160a01b0319166001600160a01b038781169182179092559151635c7d1b9b60e11b8152600481018490529085166024820152919250849163b8fa373690604401600060405180830381600087803b158015612b5457600080fd5b505af1158015612b68573d6000803e3d6000fd5b505060405163789d771160e01b81526001600160a01b038681166004830152600160248301528416925063789d77119150604401611e9b565b612ba9613001565b60ff82166000908152609b60205260409020546001600160401b0390811690821611612c265760405162461bcd60e51b815260206004820152602660248201527f446f6573206e6f7420616c6c6f772064656372656d656e7473206f6620746865604482015265206e6f6e636560d01b6064820152608401610b73565b60ff919091166000908152609b60205260409020805467ffffffffffffffff19166001600160401b03909216919091179055565b6000807fc4cb5d35714699d6e85b9562b644e60393b418d974a5c1dd8efaadac37a142c58989898989604051612c919291906144e2565b604051908190038120612cd4959493929160200194855260ff9390931660208501526001600160401b039190911660408401526060830152608082015260a00190565b6040516020818303038152906040528051906020012090506000612cf7826130b1565b90506000612d3b8287878080601f0160208091040260200160405190810160405280939291908181526020018383808284376000920191909152506130ff92505050565b9050612d5560008051602061480e83398151915282611f91565b9b9a5050505050505050505050565b612d6c613001565b611e4c612d77612eee565b613350565b6000612d86612eee565b9050612d93600082611f91565b80612db15750612db160008051602061480e83398151915282611f91565b612dfd5760405162461bcd60e51b815260206004820152601e60248201527f73656e646572206973206e6f742072656c61796572206f722061646d696e00006044820152606401610b73565b50565b6000611f8a83836040518060400160405280601e81526020017f536166654d6174683a207375627472616374696f6e206f766572666c6f77000081525061339b565b612e5c60008051602061480e833981519152610707612eee565b611e4c5760405162461bcd60e51b815260206004820181905260248201527f73656e64657220646f65736e277420686176652072656c6179657220726f6c656044820152606401610b73565b60355460ff1615611e4c5760405162461bcd60e51b815260206004820152601060248201526f14185d5cd8589b194e881c185d5cd95960821b6044820152606401610b73565b60003360143610801590612f1a57506001600160a01b0381166000908152609d602052604090205460ff165b15612f2a575060131936013560601c5b919050565b6000828152609960205260409020612f4790826133d5565b15610ff257612f54612eee565b6001600160a01b0316816001600160a01b0316837f2f8788117e7eff1d82e926ec794901d17c78024a50270940304540a733656f0d60405160405180910390a45050565b6000828152609960205260409020612fb090826133ea565b15610ff257612fbd612eee565b6001600160a01b0316816001600160a01b0316837ff6391f5c32d9c69d2a47ea670b442974b53935d1edc7fd64eb21e047a839171b60405160405180910390a45050565b61300e6000610707612eee565b611e4c5760405162461bcd60e51b815260206004820152601e60248201527f73656e64657220646f65736e277420686176652061646d696e20726f6c6500006044820152606401610b73565b600061010082106130ad5760405162461bcd60e51b815260206004820152601c60248201527f76616c756520646f6573206e6f742066697420696e20382062697473000000006044820152606401610b73565b5090565b60006111ae6130be6133ff565b8360405161190160f01b6020820152602281018390526042810182905260009060620160405160208183030381529060405280519060200120905092915050565b600080600061310e858561347a565b9150915061311b816134ea565b509392505050565b60008083602001516001600160c81b031661313d84613146565b16119392505050565b600061316a61316360008051602061480e83398151915284611187565b6001612e00565b6001901b92915050565b6000600160c81b82106130ad5760405162461bcd60e51b815260206004820152601e60248201527f76616c756520646f6573206e6f742066697420696e20323030206269747300006044820152606401610b73565b60006501000000000082106130ad5760405162461bcd60e51b815260206004820152601d60248201527f76616c756520646f6573206e6f742066697420696e20343020626974730000006044820152606401610b73565b613228612ea8565b6035805460ff191660011790556040516001600160a01b03821681527f62e78cea01bee320cd4e420270b5ea74000d11b0c9f74754ebdbfc544b05a2589060200161117c565b6000611f8a83836136a5565b6001600160a01b03811660009081526001830160205260408120541515611f8a565b600054610100900460ff166132b75760005460ff16156132bb565b303b155b6132d75760405162461bcd60e51b8152600401610b73906146ee565b600054610100900460ff161580156132f9576000805461ffff19166101011790555b6133016136cf565b8015612dfd576000805461ff001916905550565b600054610100900460ff1661333c5760405162461bcd60e51b8152600401610b739061478c565b610ff2828261374a565b60006111ae825490565b61335861378b565b6035805460ff191690556040516001600160a01b03821681527f5db9ee0a495bf2e6ff9c91a7834c1ba4fdd244a5e8aa4e537bd38aeae4b073aa9060200161117c565b600081848411156133bf5760405162461bcd60e51b8152600401610b739190614488565b5060006133cc84866145c7565b95945050505050565b6000611f8a836001600160a01b0384166137d4565b6000611f8a836001600160a01b038416613823565b6000611e2f7f8b73c3c69bb8fe3d512ecc4cf759cc79239f7b179b0ffacaa9a75d522b39400f61342e60015490565b6002546040805160208101859052908101839052606081018290524660808201523060a082015260009060c0016040516020818303038152906040528051906020012090509392505050565b6000808251604114156134b15760208301516040840151606085015160001a6134a587828585613916565b945094505050506134e3565b8251604014156134db57602083015160408401516134d0868383613a03565b9350935050506134e3565b506000905060025b9250929050565b60008160048111156134fe576134fe6140c6565b14156135075750565b600181600481111561351b5761351b6140c6565b14156135695760405162461bcd60e51b815260206004820152601860248201527f45434453413a20696e76616c6964207369676e617475726500000000000000006044820152606401610b73565b600281600481111561357d5761357d6140c6565b14156135cb5760405162461bcd60e51b815260206004820152601f60248201527f45434453413a20696e76616c6964207369676e6174757265206c656e677468006044820152606401610b73565b60038160048111156135df576135df6140c6565b14156136385760405162461bcd60e51b815260206004820152602260248201527f45434453413a20696e76616c6964207369676e6174757265202773272076616c604482015261756560f01b6064820152608401610b73565b600481600481111561364c5761364c6140c6565b1415612dfd5760405162461bcd60e51b815260206004820152602260248201527f45434453413a20696e76616c6964207369676e6174757265202776272076616c604482015261756560f01b6064820152608401610b73565b60008260000182815481106136bc576136bc61449b565b9060005260206000200154905092915050565b600054610100900460ff166136ea5760005460ff16156136ee565b303b155b61370a5760405162461bcd60e51b8152600401610b73906146ee565b600054610100900460ff1615801561372c576000805461ffff19166101011790555b6035805460ff191690558015612dfd576000805461ff001916905550565b600054610100900460ff166137715760405162461bcd60e51b8152600401610b739061478c565b815160209283012081519190920120600191909155600255565b60355460ff16611e4c5760405162461bcd60e51b815260206004820152601460248201527314185d5cd8589b194e881b9bdd081c185d5cd95960621b6044820152606401610b73565b600081815260018301602052604081205461381b575081546001818101845560008481526020808220909301849055845484825282860190935260409020919091556111ae565b5060006111ae565b6000818152600183016020526040812054801561390c5760006138476001836145c7565b855490915060009061385b906001906145c7565b90508181146138c057600086600001828154811061387b5761387b61449b565b906000526020600020015490508087600001848154811061389e5761389e61449b565b6000918252602080832090910192909255918252600188019052604090208390555b85548690806138d1576138d16147d7565b6001900381819060005260206000200160009055905585600101600086815260200190815260200160002060009055600193505050506111ae565b60009150506111ae565b6000807f7fffffffffffffffffffffffffffffff5d576e7357a4501ddfe92f46681b20a083111561394d57506000905060036139fa565b8460ff16601b1415801561396557508460ff16601c14155b1561397657506000905060046139fa565b6040805160008082526020820180845289905260ff881692820192909252606081018690526080810185905260019060a0016020604051602081039080840390855afa1580156139ca573d6000803e3d6000fd5b5050604051601f1901519150506001600160a01b0381166139f3576000600192509250506139fa565b9150600090505b94509492505050565b6000806001600160ff1b03831681613a2060ff86901c601b614774565b9050613a2e87828885613916565b935093505050935093915050565b803560ff81168114612f2a57600080fd5b80356001600160401b0381168114612f2a57600080fd5b600080600060608486031215613a7957600080fd5b613a8284613a3c565b9250613a9060208501613a4d565b9150604084013590509250925092565b60008083601f840112613ab257600080fd5b5081356001600160401b03811115613ac957600080fd5b6020830191508360208285010111156134e357600080fd5b80358015158114612f2a57600080fd5b60008060008060008060a08789031215613b0a57600080fd5b613b1387613a3c565b9550613b2160208801613a4d565b945060408701356001600160401b03811115613b3c57600080fd5b613b4889828a01613aa0565b90955093505060608701359150613b6160808801613ae1565b90509295509295509295565b600060208284031215613b7f57600080fd5b5035919050565b6001600160a01b0381168114612dfd57600080fd5b60008060408385031215613bae57600080fd5b823591506020830135613bc081613b86565b809150509250929050565b60008083601f840112613bdd57600080fd5b5081356001600160401b03811115613bf457600080fd5b6020830191508360208260051b85010111156134e357600080fd5b60008060008060408587031215613c2557600080fd5b84356001600160401b0380821115613c3c57600080fd5b613c4888838901613bcb565b90965094506020870135915080821115613c6157600080fd5b50613c6e87828801613bcb565b95989497509550505050565b600060208284031215613c8c57600080fd5b611f8a82613a3c565b600060208284031215613ca757600080fd5b8135611f8a81613b86565b80356001600160e01b031981168114612f2a57600080fd5b60008060008060008060c08789031215613ce357600080fd5b8635613cee81613b86565b9550602087013594506040870135613d0581613b86565b9350613d1360608801613cb2565b925060808701359150613b6160a08801613cb2565b634e487b7160e01b600052604160045260246000fd5b604051601f8201601f191681016001600160401b0381118282101715613d6657613d66613d28565b604052919050565b60006001600160401b03821115613d8757613d87613d28565b50601f01601f191660200190565b600082601f830112613da657600080fd5b8135613db9613db482613d6e565b613d3e565b818152846020838601011115613dce57600080fd5b816020850160208301376000918101602001919091529392505050565b60008060408385031215613dfe57600080fd5b8235613e0981613b86565b915060208301356001600160401b03811115613e2457600080fd5b613e3085828601613d95565b9150509250929050565b60006001600160401b03821115613e5357613e53613d28565b5060051b60200190565b60008060008060008060a08789031215613e7657600080fd5b613e7f87613a3c565b95506020613e8e818901613a4d565b95506040880135945060608801356001600160401b0380821115613eb157600080fd5b613ebd8b838c01613aa0565b909650945060808a0135915080821115613ed657600080fd5b818a0191508a601f830112613eea57600080fd5b8135613ef8613db482613e3a565b81815260059190911b8301840190848101908d831115613f1757600080fd5b8585015b83811015613f4d578481351115613f3157600080fd5b613f408f888335890101613d95565b8352918601918601613f1b565b508096505050505050509295509295509295565b60008060008060008060808789031215613f7a57600080fd5b613f8387613a3c565b95506020870135945060408701356001600160401b0380821115613fa657600080fd5b613fb28a838b01613aa0565b90965094506060890135915080821115613fcb57600080fd5b50613fd889828a01613aa0565b979a9699509497509295939492505050565b600080600060608486031215613fff57600080fd5b83356001600160481b038116811461401657600080fd5b925060208401359150604084013561402d81613b86565b809150509250925092565b60008060006060848603121561404d57600080fd5b83359250602084013561405f81613b86565b915061406d60408501613ae1565b90509250925092565b6000806040838503121561408957600080fd5b823561409481613b86565b91506020830135613bc081613b86565b600080604083850312156140b757600080fd5b50508035926020909101359150565b634e487b7160e01b600052602160045260246000fd5b600581106140fa57634e487b7160e01b600052602160045260246000fd5b9052565b60006080820190506141118284516140dc565b60018060c81b03602084015116602083015260ff604084015116604083015264ffffffffff606084015116606083015292915050565b6000806000806080858703121561415d57600080fd5b61416685613a3c565b93506020808601356001600160401b0381111561418257600080fd5b8601601f8101881361419357600080fd5b80356141a1613db482613e3a565b81815260059190911b8201830190838101908a8311156141c057600080fd5b928401925b828410156141e75783356141d881613b86565b825292840192908401906141c5565b979a97995050505060408601359560600135949350505050565b60008060008060006080868803121561421957600080fd5b61422286613a3c565b945061423060208701613a4d565b93506040860135925060608601356001600160401b0381111561425257600080fd5b61425e88828901613aa0565b969995985093965092949392505050565b60008060006060848603121561428457600080fd5b833561401681613b86565b600080604083850312156142a257600080fd5b82356142ad81613b86565b91506142bb60208401613ae1565b90509250929050565b600080604083850312156142d757600080fd5b6142e083613a3c565b91506142bb60208401613a4d565b600080600080600080600060a0888a03121561430957600080fd5b61431288613a3c565b965061432060208901613a4d565b95506040880135945060608801356001600160401b038082111561434357600080fd5b61434f8b838c01613aa0565b909650945060808a013591508082111561436857600080fd5b506143758a828b01613aa0565b989b979a50959850939692959293505050565b60ff851681526001600160401b0384166020820152608081016143ae60408301856140dc565b82606083015295945050505050565b6bffffffffffffffffffffffff198460601b168152818360148301376000910160140190815292915050565b81835281816020850137506000828201602090810191909152601f909101601f19169091010190565b8381526040602082015260006133cc6040830184866143e9565b60005b8381101561444757818101518382015260200161442f565b83811115614456576000848401525b50505050565b6000815180845261447481602086016020860161442c565b601f01601f19169290920160200192915050565b602081526000611f8a602083018461445c565b634e487b7160e01b600052603260045260246000fd5b634e487b7160e01b600052601160045260246000fd5b60006000198214156144db576144db6144b1565b5060010190565b8183823760009101908152919050565b60208082526023908201527f70726f706f73616c20616c72656164792065786563757465642f63616e63656c6040820152621b195960ea1b606082015260800190565b600060ff821660ff81141561454c5761454c6144b1565b60010192915050565b60018060a01b038916815260ff8816602082015260ff8716604082015285606082015260c06080820152600061458f60c0830186886143e9565b82810360a0840152612d558185876143e9565b600080604083850312156145b557600080fd5b825191506020830151613bc081613b86565b6000828210156145d9576145d96144b1565b500390565b60006001600160401b03808316818114156145fb576145fb6144b1565b6001019392505050565b8481526001600160a01b038416602082015260606040820181905260009061206890830184866143e9565b60006020828403121561464257600080fd5b81516001600160401b0381111561465857600080fd5b8201601f8101841361466957600080fd5b8051614677613db482613d6e565b81815285602083850101111561468c57600080fd5b6133cc82602083016020860161442c565b60ff871681528560208201526001600160401b038516604082015260a0606082015260006146cf60a0830185876143e9565b82810360808401526146e1818561445c565b9998505050505050505050565b6020808252602e908201527f496e697469616c697a61626c653a20636f6e747261637420697320616c72656160408201526d191e481a5b9a5d1a585b1a5e995960921b606082015260800190565b60006020828403121561474e57600080fd5b5051919050565b600081600019048311821515161561476f5761476f6144b1565b500290565b60008219821115614787576147876144b1565b500190565b6020808252602b908201527f496e697469616c697a61626c653a20636f6e7472616374206973206e6f74206960408201526a6e697469616c697a696e6760a81b606082015260800190565b634e487b7160e01b600052603160045260246000fdfe968626a768e76ba1363efe44e322a6c4900c5f084e0b45f35e294dfddaa9e0d5e2b7fb3b832174769106daebcfd6d1970523240dda11281102db9363b83b0dc4a2646970667358221220164a8eccb9e2b81e86c6a8fa89a6eae00e5e38a50b2c3640155439bab4042be364736f6c634300080b0033",
  "linkReferences": {},
  "deployedLinkReferences": {}
}