{
  "_format": "hh-sol-artifact-1",
  "contractName": "ERC20MintablePauseableUpgradeable",
  "sourceName": "contracts/ERC20MintablePauseableUpgradeable.sol",
  "abi": [
    {
      "anonymous": false,
      "inputs": [
        {
          "indexed": true,
          "internalType": "address",
          "name": "owner",
          "type": "address"
        },
        {
          "indexed": true,
          "internalType": "address",
          "name": "spender",
          "type": "address"
        },
        {
          "indexed": false,
          "internalType": "uint256",
          "name": "value",
          "type": "uint256"
        }
      ],
      "name": "Approval",
      "type": "event"
    },
    {
      "anonymous": false,
      "inputs": [
        {
          "indexed": false,
          "internalType": "address",
          "name": "account",
          "type": "address"
        }
      ],
      "name": "Paused",
      "type": "event"
    },
    {
      "anonymous": false,
      "inputs": [
        {
          "indexed": true,
          "internalType": "bytes32",
          "name": "role",
          "type": "bytes32"
        },
        {
          "indexed": true,
          "internalType": "bytes32",
          "name": "previousAdminRole",
          "type": "bytes32"
        },
        {
          "indexed": true,
          "internalType": "bytes32",
          "name": "newAdminRole",
          "type": "bytes32"
        }
      ],
      "name": "RoleAdminChanged",
      "type": "event"
    },
    {
      "anonymous": false,
      "inputs": [
        {
          "indexed": true,
          "internalType": "bytes32",
          "name": "role",
          "type": "bytes32"
        },
        {
          "indexed": true,
          "internalType": "address",
          "name": "account",
          "type": "address"
        },
        {
          "indexed": true,
          "internalType": "address",
          "name": "sender",
          "type": "address"
        }
      ],
      "name": "RoleGranted",
      "type": "event"
    },
    {
      "anonymous": false,
      "inputs": [
        {
          "indexed": true,
          "internalType": "bytes32",
          "name": "role",
          "type": "bytes32"
        },
        {
          "indexed": true,
          "internalType": "address",
          "name": "account",
          "type": "address"
        },
        {
          "indexed": true,
          "internalType": "address",
          "name": "sender",
          "type": "address"
        }
      ],
      "name": "RoleRevoked",
      "type": "event"
    },
    {
      "anonymous": false,
      "inputs": [
        {
          "indexed": true,
          "internalType": "address",
          "name": "from",
          "type": "address"
        },
        {
          "indexed": true,
          "internalType": "address",
          "name": "to",
          "type": "address"
        },
        {
          "indexed": false,
          "internalType": "uint256",
          "name": "value",
          "type": "uint256"
        }
      ],
      "name": "Transfer",
      "type": "event"
    },
    {
      "anonymous": false,
      "inputs": [
        {
          "indexed": false,
          "internalType": "address",
          "name": "account",
          "type": "address"
        }
      ],
      "name": "Unpaused",
      "type": "event"
    },
    {
      "inputs": [],
      "name": "DEFAULT_ADMIN_ROLE",
      "outputs": [
        {
          "internalType": "bytes32",
          "name": "",
          "type": "bytes32"
        }
      ],
      "stateMutability": "view",
      "type": "function"
    },
    {
      "inputs": [],
      "name": "MINTER_ROLE",
      "outputs": [
        {
          "internalType": "bytes32",
          "name": "",
          "type": "bytes32"
        }
      ],
      "stateMutability": "view",
      "type": "function"
    },
    {
      "inputs": [],
      "name": "PERMIT_TYPEHASH",
      "outputs": [
        {
          "internalType": "bytes32",
          "name": "",
          "type": "bytes32"
        }
      ],
      "stateMutability": "view",
      "type": "function"
    },
    {
      "inputs": [
        {
          "internalType": "address",
          "name": "owner",
          "type": "address"
        },
        {
          "internalType": "address",
          "name": "spender",
          "type": "address"
        }
      ],
      "name": "allowance",
      "outputs": [
        {
          "internalType": "uint256",
          "name": "",
          "type": "uint256"
        }
      ],
      "stateMutability": "view",
      "type": "function"
    },
    {
      "inputs": [
        {
          "internalType": "address",
          "name": "spender",
          "type": "address"
        },
        {
          "internalType": "uint256",
          "name": "amount",
          "type": "uint256"
        }
      ],
      "name": "approve",
      "outputs": [
        {
          "internalType": "bool",
          "name": "",
          "type": "bool"
        }
      ],
      "stateMutability": "nonpayable",
      "type": "function"
    },
    {
      "inputs": [
        {
          "internalType": "address",
          "name": "account",
          "type": "address"
        }
      ],
      "name": "balanceOf",
      "outputs": [
        {
          "internalType": "uint256",
          "name": "",
          "type": "uint256"
        }
      ],
      "stateMutability": "view",
      "type": "function"
    },
    {
      "inputs": [
        {
          "internalType": "uint256",
          "name": "amount",
          "type": "uint256"
        }
      ],
      "name": "burn",
      "outputs": [],
      "stateMutability": "nonpayable",
      "type": "function"
    },
    {
      "inputs": [
        {
          "internalType": "address",
          "name": "account",
          "type": "address"
        },
        {
          "internalType": "uint256",
          "name": "amount",
          "type": "uint256"
        }
      ],
      "name": "burnFrom",
      "outputs": [],
      "stateMutability": "nonpayable",
      "type": "function"
    },
    {
      "inputs": [],
      "name": "decimals",
      "outputs": [
        {
          "internalType": "uint8",
          "name": "",
          "type": "uint8"
        }
      ],
      "stateMutability": "view",
      "type": "function"
    },
    {
      "inputs": [
        {
          "internalType": "address",
          "name": "spender",
          "type": "address"
        },
        {
          "internalType": "uint256",
          "name": "subtractedValue",
          "type": "uint256"
        }
      ],
      "name": "decreaseAllowance",
      "outputs": [
        {
          "internalType": "bool",
          "name": "",
          "type": "bool"
        }
      ],
      "stateMutability": "nonpayable",
      "type": "function"
    },
    {
      "inputs": [
        {
          "internalType": "address",
          "name": "account",
          "type": "address"
        }
      ],
      "name": "getBlackList",
      "outputs": [
        {
          "internalType": "bool",
          "name": "",
          "type": "bool"
        }
      ],
      "stateMutability": "view",
      "type": "function"
    },
    {
      "inputs": [
        {
          "internalType": "bytes32",
          "name": "role",
          "type": "bytes32"
        }
      ],
      "name": "getRoleAdmin",
      "outputs": [
        {
          "internalType": "bytes32",
          "name": "",
          "type": "bytes32"
        }
      ],
      "stateMutability": "view",
      "type": "function"
    },
    {
      "inputs": [
        {
          "internalType": "bytes32",
          "name": "role",
          "type": "bytes32"
        },
        {
          "internalType": "uint256",
          "name": "index",
          "type": "uint256"
        }
      ],
      "name": "getRoleMember",
      "outputs": [
        {
          "internalType": "address",
          "name": "",
          "type": "address"
        }
      ],
      "stateMutability": "view",
      "type": "function"
    },
    {
      "inputs": [
        {
          "internalType": "bytes32",
          "name": "role",
          "type": "bytes32"
        }
      ],
      "name": "getRoleMemberCount",
      "outputs": [
        {
          "internalType": "uint256",
          "name": "",
          "type": "uint256"
        }
      ],
      "stateMutability": "view",
      "type": "function"
    },
    {
      "inputs": [
        {
          "internalType": "bytes32",
          "name": "role",
          "type": "bytes32"
        },
        {
          "internalType": "address",
          "name": "account",
          "type": "address"
        }
      ],
      "name": "grantRole",
      "outputs": [],
      "stateMutability": "nonpayable",
      "type": "function"
    },
    {
      "inputs": [
        {
          "internalType": "bytes32",
          "name": "role",
          "type": "bytes32"
        },
        {
          "internalType": "address",
          "name": "account",
          "type": "address"
        }
      ],
      "name": "hasRole",
      "outputs": [
        {
          "internalType": "bool",
          "name": "",
          "type": "bool"
        }
      ],
      "stateMutability": "view",
      "type": "function"
    },
    {
      "inputs": [
        {
          "internalType": "address",
          "name": "spender",
          "type": "address"
        },
        {
          "internalType": "uint256",
          "name": "addedValue",
          "type": "uint256"
        }
      ],
      "name": "increaseAllowance",
      "outputs": [
        {
          "internalType": "bool",
          "name": "",
          "type": "bool"
        }
      ],
      "stateMutability": "nonpayable",
      "type": "function"
    },
    {
      "inputs": [
        {
          "internalType": "string",
          "name": "name",
          "type": "string"
        },
        {
          "internalType": "string",
          "name": "symbol",
          "type": "string"
        },
        {
          "internalType": "uint8",
          "name": "decimals_",
          "type": "uint8"
        },
        {
          "internalType": "uint256",
          "name": "initialSupply",
          "type": "uint256"
        },
        {
          "internalType": "address",
          "name": "owner",
          "type": "address"
        }
      ],
      "name": "initialize",
      "outputs": [],
      "stateMutability": "nonpayable",
      "type": "function"
    },
    {
      "inputs": [
        {
          "internalType": "address",
          "name": "to",
          "type": "address"
        },
        {
          "internalType": "uint256",
          "name": "amount",
          "type": "uint256"
        }
      ],
      "name": "mint",
      "outputs": [],
      "stateMutability": "nonpayable",
      "type": "function"
    },
    {
      "inputs": [],
      "name": "name",
      "outputs": [
        {
          "internalType": "string",
          "name": "",
          "type": "string"
        }
      ],
      "stateMutability": "view",
      "type": "function"
    },
    {
      "inputs": [
        {
          "internalType": "address",
          "name": "",
          "type": "address"
        }
      ],
      "name": "nonces",
      "outputs": [
        {
          "internalType": "uint256",
          "name": "",
          "type": "uint256"
        }
      ],
      "stateMutability": "view",
      "type": "function"
    },
    {
      "inputs": [],
      "name": "pause",
      "outputs": [],
      "stateMutability": "nonpayable",
      "type": "function"
    },
    {
      "inputs": [],
      "name": "paused",
      "outputs": [
        {
          "internalType": "bool",
          "name": "",
          "type": "bool"
        }
      ],
      "stateMutability": "view",
      "type": "function"
    },
    {
      "inputs": [
        {
          "internalType": "address",
          "name": "owner",
          "type": "address"
        },
        {
          "internalType": "address",
          "name": "spender",
          "type": "address"
        },
        {
          "internalType": "uint256",
          "name": "value",
          "type": "uint256"
        },
        {
          "internalType": "uint256",
          "name": "deadline",
          "type": "uint256"
        },
        {
          "internalType": "bytes",
          "name": "signature",
          "type": "bytes"
        }
      ],
      "name": "permit",
      "outputs": [],
      "stateMutability": "nonpayable",
      "type": "function"
    },
    {
      "inputs": [
        {
          "internalType": "bytes32",
          "name": "role",
          "type": "bytes32"
        },
        {
          "internalType": "address",
          "name": "account",
          "type": "address"
        }
      ],
      "name": "renounceRole",
      "outputs": [],
      "stateMutability": "nonpayable",
      "type": "function"
    },
    {
      "inputs": [
        {
          "internalType": "bytes32",
          "name": "role",
          "type": "bytes32"
        },
        {
          "internalType": "address",
          "name": "account",
          "type": "address"
        }
      ],
      "name": "revokeRole",
      "outputs": [],
      "stateMutability": "nonpayable",
      "type": "function"
    },
    {
      "inputs": [
        {
          "internalType": "address",
          "name": "account",
          "type": "address"
        }
      ],
      "name": "setBlackList",
      "outputs": [],
      "stateMutability": "nonpayable",
      "type": "function"
    },
    {
      "inputs": [
        {
          "internalType": "bytes4",
          "name": "interfaceId",
          "type": "bytes4"
        }
      ],
      "name": "supportsInterface",
      "outputs": [
        {
          "internalType": "bool",
          "name": "",
          "type": "bool"
        }
      ],
      "stateMutability": "view",
      "type": "function"
    },
    {
      "inputs": [],
      "name": "symbol",
      "outputs": [
        {
          "internalType": "string",
          "name": "",
          "type": "string"
        }
      ],
      "stateMutability": "view",
      "type": "function"
    },
    {
      "inputs": [],
      "name": "totalSupply",
      "outputs": [
        {
          "internalType": "uint256",
          "name": "",
          "type": "uint256"
        }
      ],
      "stateMutability": "view",
      "type": "function"
    },
    {
      "inputs": [
        {
          "internalType": "address",
          "name": "to",
          "type": "address"
        },
        {
          "internalType": "uint256",
          "name": "amount",
          "type": "uint256"
        }
      ],
      "name": "transfer",
      "outputs": [
        {
          "internalType": "bool",
          "name": "",
          "type": "bool"
        }
      ],
      "stateMutability": "nonpayable",
      "type": "function"
    },
    {
      "inputs": [
        {
          "internalType": "address",
          "name": "from",
          "type": "address"
        },
        {
          "internalType": "address",
          "name": "to",
          "type": "address"
        },
        {
          "internalType": "uint256",
          "name": "amount",
          "type": "uint256"
        }
      ],
      "name": "transferFrom",
      "outputs": [
        {
          "internalType": "bool",
          "name": "",
          "type": "bool"
        }
      ],
      "stateMutability": "nonpayable",
      "type": "function"
    },
    {
      "inputs": [],
      "name": "unpause",
      "outputs": [],
      "stateMutability": "nonpayable",
      "type": "function"
    }
  ],
  "bytecode": "0x608060405234801561001057600080fd5b50612487806100206000396000f3fe608060405234801561001057600080fd5b50600436106101fb5760003560e01c806370a082311161011a5780639fd5a6cf116100ad578063ca15c8731161007c578063ca15c8731461045c578063d53913931461046f578063d547741f14610496578063dd62ed3e146104a9578063f3571819146104e257600080fd5b80639fd5a6cf1461041b578063a217fddf1461042e578063a457c2d714610436578063a9059cbb1461044957600080fd5b80638456cb59116100e95780638456cb59146103cd5780639010d07c146103d557806391d148541461040057806395d89b411461041357600080fd5b806370a082311461035d578063727002411461038657806379cc6790146103995780637ecebe00146103ac57600080fd5b8063313ce567116101925780633fbdc67d116101615780633fbdc67d1461031957806340c10f191461032c57806342966c681461033f5780635c975abb1461035257600080fd5b8063313ce567146102d557806336568abe146102eb57806339509351146102fe5780633f4ba83a1461031157600080fd5b806323b872dd116101ce57806323b872dd14610262578063248a9ca3146102755780632f2ff15d1461029957806330adf81f146102ae57600080fd5b806301ffc9a71461020057806306fdde0314610228578063095ea7b31461023d57806318160ddd14610250575b600080fd5b61021361020e366004611ee0565b6104f5565b60405190151581526020015b60405180910390f35b610230610520565b60405161021f9190611f36565b61021361024b366004611f80565b6105b2565b6035545b60405190815260200161021f565b610213610270366004611faa565b6105ca565b610254610283366004611fe6565b6000908152610161602052604090206001015490565b6102ac6102a7366004611fff565b6105ee565b005b6102547f6e71edae12b1b97f4d1f60370fef10105fa2faae0126114a169c64845d6126c981565b6101c75460405160ff909116815260200161021f565b6102ac6102f9366004611fff565b61061a565b61021361030c366004611f80565b61069d565b6102ac6106dc565b61021361032736600461202b565b61070d565b6102ac61033a366004611f80565b610759565b6102ac61034d366004611fe6565b6107f8565b60655460ff16610213565b61025461036b36600461202b565b6001600160a01b031660009081526033602052604090205490565b6102ac61039436600461202b565b610805565b6102ac6103a7366004611f80565b610856565b6102546103ba36600461202b565b6101c66020526000908152604090205481565b6102ac61086b565b6103e86103e3366004612046565b61089a565b6040516001600160a01b03909116815260200161021f565b61021361040e366004611fff565b6108ba565b6102306108e6565b6102ac6104293660046120f4565b6108f5565b610254600081565b610213610444366004611f80565b610a28565b610213610457366004611f80565b610aba565b61025461046a366004611fe6565b610ac8565b6102547f9f2df0fed2c77648de5860a4cc508cd0818c85b8b8a1ab4ceeef8d981c8956a681565b6102ac6104a4366004611fff565b610ae0565b6102546104b736600461217a565b6001600160a01b03918216600090815260346020908152604080832093909416825291909152205490565b6102ac6104f03660046121c4565b610b07565b60006001600160e01b03198216635a05180f60e01b148061051a575061051a82610c66565b92915050565b60606036805461052f9061225b565b80601f016020809104026020016040519081016040528092919081815260200182805461055b9061225b565b80156105a85780601f1061057d576101008083540402835291602001916105a8565b820191906000526020600020905b81548152906001019060200180831161058b57829003601f168201915b5050505050905090565b6000336105c0818585610c9b565b5060019392505050565b6000336105d8858285610dbf565b6105e3858585610e51565b506001949350505050565b6000828152610161602052604090206001015461060b813361102a565b610615838361108e565b505050565b6001600160a01b038116331461068f5760405162461bcd60e51b815260206004820152602f60248201527f416363657373436f6e74726f6c3a2063616e206f6e6c792072656e6f756e636560448201526e103937b632b9903337b91039b2b63360891b60648201526084015b60405180910390fd5b61069982826110b1565b5050565b3360008181526034602090815260408083206001600160a01b03871684529091528120549091906105c090829086906106d79087906122ac565b610c9b565b6106e76000336108ba565b6107035760405162461bcd60e51b8152600401610686906122c4565b61070b6110d4565b565b600061071981336108ba565b6107355760405162461bcd60e51b8152600401610686906122c4565b506001600160a01b03811660009081526101c5602052604090205460ff165b919050565b6107837f9f2df0fed2c77648de5860a4cc508cd0818c85b8b8a1ab4ceeef8d981c8956a6336108ba565b6107ee5760405162461bcd60e51b815260206004820152603660248201527f45524332305072657365744d696e7465725061757365723a206d7573742068616044820152751d99481b5a5b9d195c881c9bdb19481d1bc81b5a5b9d60521b6064820152608401610686565b6106998282611167565b6108023382611252565b50565b6108106000336108ba565b61082c5760405162461bcd60e51b8152600401610686906122c4565b6001600160a01b031660009081526101c560205260409020805460ff19811660ff90911615179055565b610861823383610dbf565b6106998282611252565b6108766000336108ba565b6108925760405162461bcd60e51b8152600401610686906122c4565b61070b6113ac565b6000828152610193602052604081206108b39083611427565b9392505050565b6000918252610161602090815260408084206001600160a01b0393909316845291905290205460ff1690565b60606037805461052f9061225b565b6001600160a01b03851660009081526101c66020526040812080547f6e71edae12b1b97f4d1f60370fef10105fa2faae0126114a169c64845d6126c9918891889188919086610943836122e7565b909155506040805160208101969096526001600160a01b0394851690860152929091166060840152608083015260a082015260c0810184905260e00160405160208183030381529060405280519060200120905060006109a282611433565b905060006109b08285611481565b9050806001600160a01b0316886001600160a01b031614610a135760405162461bcd60e51b815260206004820152601960248201527f5065726d69743a20696e76616c6964207369676e6174757265000000000000006044820152606401610686565b610a1e888888610c9b565b5050505050505050565b3360008181526034602090815260408083206001600160a01b038716845290915281205490919083811015610aad5760405162461bcd60e51b815260206004820152602560248201527f45524332303a2064656372656173656420616c6c6f77616e63652062656c6f77604482015264207a65726f60d81b6064820152608401610686565b6105e38286868403610c9b565b6000336105c0818585610e51565b60008181526101936020526040812061051a906114a5565b60008281526101616020526040902060010154610afd813361102a565b61061583836110b1565b600054610100900460ff16610b225760005460ff1615610b26565b303b155b610b895760405162461bcd60e51b815260206004820152602e60248201527f496e697469616c697a61626c653a20636f6e747261637420697320616c72656160448201526d191e481a5b9a5d1a585b1a5e995960921b6064820152608401610686565b600054610100900460ff16158015610bab576000805461ffff19166101011790555b6101c7805460ff191660ff8616179055610bc586866114af565b610c0d6040518060400160405280600b81526020016a2832b936b4ba2a37b5b2b760a91b815250604051806040016040528060038152602001620312e360ec1b8152506114e0565b610c18600033611511565b610c427f9f2df0fed2c77648de5860a4cc508cd0818c85b8b8a1ab4ceeef8d981c8956a633611511565b610c4c8284611167565b8015610c5e576000805461ff00191690555b505050505050565b60006001600160e01b03198216637965db0b60e01b148061051a57506301ffc9a760e01b6001600160e01b031983161461051a565b6001600160a01b038316610cfd5760405162461bcd60e51b8152602060048201526024808201527f45524332303a20617070726f76652066726f6d20746865207a65726f206164646044820152637265737360e01b6064820152608401610686565b6001600160a01b038216610d5e5760405162461bcd60e51b815260206004820152602260248201527f45524332303a20617070726f766520746f20746865207a65726f206164647265604482015261737360f01b6064820152608401610686565b6001600160a01b0383811660008181526034602090815260408083209487168084529482529182902085905590518481527f8c5be1e5ebec7d5bd14f71427d1e84f3dd0314c0f7b2291e5b200ac8c7c3b925910160405180910390a3505050565b6001600160a01b038381166000908152603460209081526040808320938616835292905220546000198114610e4b5781811015610e3e5760405162461bcd60e51b815260206004820152601d60248201527f45524332303a20696e73756666696369656e7420616c6c6f77616e63650000006044820152606401610686565b610e4b8484848403610c9b565b50505050565b6001600160a01b038316610eb55760405162461bcd60e51b815260206004820152602560248201527f45524332303a207472616e736665722066726f6d20746865207a65726f206164604482015264647265737360d81b6064820152608401610686565b6001600160a01b038216610f175760405162461bcd60e51b815260206004820152602360248201527f45524332303a207472616e7366657220746f20746865207a65726f206164647260448201526265737360e81b6064820152608401610686565b610f2283838361151b565b6001600160a01b03831660009081526033602052604090205481811015610f9a5760405162461bcd60e51b815260206004820152602660248201527f45524332303a207472616e7366657220616d6f756e7420657863656564732062604482015265616c616e636560d01b6064820152608401610686565b6001600160a01b03808516600090815260336020526040808220858503905591851681529081208054849290610fd19084906122ac565b92505081905550826001600160a01b0316846001600160a01b03167fddf252ad1be2c89b69c2b068fc378daa952ba7f163c4a11628f55a4df523b3ef8460405161101d91815260200190565b60405180910390a3610e4b565b61103482826108ba565b6106995761104c816001600160a01b03166014611560565b611057836020611560565b604051602001611068929190612302565b60408051601f198184030181529082905262461bcd60e51b825261068691600401611f36565b61109882826116fc565b6000828152610193602052604090206106159082611783565b6110bb8282611798565b6000828152610193602052604090206106159082611800565b60655460ff1661111d5760405162461bcd60e51b815260206004820152601460248201527314185d5cd8589b194e881b9bdd081c185d5cd95960621b6044820152606401610686565b6065805460ff191690557f5db9ee0a495bf2e6ff9c91a7834c1ba4fdd244a5e8aa4e537bd38aeae4b073aa335b6040516001600160a01b03909116815260200160405180910390a1565b6001600160a01b0382166111bd5760405162461bcd60e51b815260206004820152601f60248201527f45524332303a206d696e7420746f20746865207a65726f2061646472657373006044820152606401610686565b6111c96000838361151b565b80603560008282546111db91906122ac565b90915550506001600160a01b038216600090815260336020526040812080548392906112089084906122ac565b90915550506040518181526001600160a01b038316906000907fddf252ad1be2c89b69c2b068fc378daa952ba7f163c4a11628f55a4df523b3ef9060200160405180910390a35050565b6001600160a01b0382166112b25760405162461bcd60e51b815260206004820152602160248201527f45524332303a206275726e2066726f6d20746865207a65726f206164647265736044820152607360f81b6064820152608401610686565b6112be8260008361151b565b6001600160a01b038216600090815260336020526040902054818110156113325760405162461bcd60e51b815260206004820152602260248201527f45524332303a206275726e20616d6f756e7420657863656564732062616c616e604482015261636560f01b6064820152608401610686565b6001600160a01b0383166000908152603360205260408120838303905560358054849290611361908490612377565b90915550506040518281526000906001600160a01b038516907fddf252ad1be2c89b69c2b068fc378daa952ba7f163c4a11628f55a4df523b3ef9060200160405180910390a3505050565b60655460ff16156113f25760405162461bcd60e51b815260206004820152601060248201526f14185d5cd8589b194e881c185d5cd95960821b6044820152606401610686565b6065805460ff191660011790557f62e78cea01bee320cd4e420270b5ea74000d11b0c9f74754ebdbfc544b05a25861114a3390565b60006108b38383611815565b600061051a61144061183f565b8360405161190160f01b6020820152602281018390526042810182905260009060620160405160208183030381529060405280519060200120905092915050565b600080600061149085856118bf565b9150915061149d8161192f565b509392505050565b600061051a825490565b600054610100900460ff166114d65760405162461bcd60e51b81526004016106869061238e565b6106998282611aea565b600054610100900460ff166115075760405162461bcd60e51b81526004016106869061238e565b6106998282611b38565b610699828261108e565b6001600160a01b03831660009081526101c5602052604090205460ff16156115555760405162461bcd60e51b8152600401610686906122c4565b610615838383611b79565b6060600061156f8360026123d9565b61157a9060026122ac565b67ffffffffffffffff81111561159257611592612068565b6040519080825280601f01601f1916602001820160405280156115bc576020820181803683370190505b509050600360fc1b816000815181106115d7576115d76123f8565b60200101906001600160f81b031916908160001a905350600f60fb1b81600181518110611606576116066123f8565b60200101906001600160f81b031916908160001a905350600061162a8460026123d9565b6116359060016122ac565b90505b60018111156116ad576f181899199a1a9b1b9c1cb0b131b232b360811b85600f1660108110611669576116696123f8565b1a60f81b82828151811061167f5761167f6123f8565b60200101906001600160f81b031916908160001a90535060049490941c936116a68161240e565b9050611638565b5083156108b35760405162461bcd60e51b815260206004820181905260248201527f537472696e67733a20686578206c656e67746820696e73756666696369656e746044820152606401610686565b61170682826108ba565b610699576000828152610161602090815260408083206001600160a01b03851684529091529020805460ff1916600117905561173f3390565b6001600160a01b0316816001600160a01b0316837f2f8788117e7eff1d82e926ec794901d17c78024a50270940304540a733656f0d60405160405180910390a45050565b60006108b3836001600160a01b038416611bdf565b6117a282826108ba565b15610699576000828152610161602090815260408083206001600160a01b0385168085529252808320805460ff1916905551339285917ff6391f5c32d9c69d2a47ea670b442974b53935d1edc7fd64eb21e047a839171b9190a45050565b60006108b3836001600160a01b038416611c2e565b600082600001828154811061182c5761182c6123f8565b9060005260206000200154905092915050565b60006118ba7f8b73c3c69bb8fe3d512ecc4cf759cc79239f7b179b0ffacaa9a75d522b39400f61186e60fb5490565b60fc546040805160208101859052908101839052606081018290524660808201523060a082015260009060c0016040516020818303038152906040528051906020012090509392505050565b905090565b6000808251604114156118f65760208301516040840151606085015160001a6118ea87828585611d21565b94509450505050611928565b8251604014156119205760208301516040840151611915868383611e0e565b935093505050611928565b506000905060025b9250929050565b600081600481111561194357611943612425565b141561194c5750565b600181600481111561196057611960612425565b14156119ae5760405162461bcd60e51b815260206004820152601860248201527f45434453413a20696e76616c6964207369676e617475726500000000000000006044820152606401610686565b60028160048111156119c2576119c2612425565b1415611a105760405162461bcd60e51b815260206004820152601f60248201527f45434453413a20696e76616c6964207369676e6174757265206c656e677468006044820152606401610686565b6003816004811115611a2457611a24612425565b1415611a7d5760405162461bcd60e51b815260206004820152602260248201527f45434453413a20696e76616c6964207369676e6174757265202773272076616c604482015261756560f01b6064820152608401610686565b6004816004811115611a9157611a91612425565b14156108025760405162461bcd60e51b815260206004820152602260248201527f45434453413a20696e76616c6964207369676e6174757265202776272076616c604482015261756560f01b6064820152608401610686565b600054610100900460ff16611b115760405162461bcd60e51b81526004016106869061238e565b8151611b24906036906020850190611e47565b508051610615906037906020840190611e47565b600054610100900460ff16611b5f5760405162461bcd60e51b81526004016106869061238e565b81516020928301208151919092012060fb9190915560fc55565b60655460ff16156106155760405162461bcd60e51b815260206004820152602a60248201527f45524332305061757361626c653a20746f6b656e207472616e736665722077686044820152691a5b19481c185d5cd95960b21b6064820152608401610686565b6000818152600183016020526040812054611c265750815460018181018455600084815260208082209093018490558454848252828601909352604090209190915561051a565b50600061051a565b60008181526001830160205260408120548015611d17576000611c52600183612377565b8554909150600090611c6690600190612377565b9050818114611ccb576000866000018281548110611c8657611c866123f8565b9060005260206000200154905080876000018481548110611ca957611ca96123f8565b6000918252602080832090910192909255918252600188019052604090208390555b8554869080611cdc57611cdc61243b565b60019003818190600052602060002001600090559055856001016000868152602001908152602001600020600090556001935050505061051a565b600091505061051a565b6000807f7fffffffffffffffffffffffffffffff5d576e7357a4501ddfe92f46681b20a0831115611d585750600090506003611e05565b8460ff16601b14158015611d7057508460ff16601c14155b15611d815750600090506004611e05565b6040805160008082526020820180845289905260ff881692820192909252606081018690526080810185905260019060a0016020604051602081039080840390855afa158015611dd5573d6000803e3d6000fd5b5050604051601f1901519150506001600160a01b038116611dfe57600060019250925050611e05565b9150600090505b94509492505050565b6000806001600160ff1b03831681611e2b60ff86901c601b6122ac565b9050611e3987828885611d21565b935093505050935093915050565b828054611e539061225b565b90600052602060002090601f016020900481019282611e755760008555611ebb565b82601f10611e8e57805160ff1916838001178555611ebb565b82800160010185558215611ebb579182015b82811115611ebb578251825591602001919060010190611ea0565b50611ec7929150611ecb565b5090565b5b80821115611ec75760008155600101611ecc565b600060208284031215611ef257600080fd5b81356001600160e01b0319811681146108b357600080fd5b60005b83811015611f25578181015183820152602001611f0d565b83811115610e4b5750506000910152565b6020815260008251806020840152611f55816040850160208701611f0a565b601f01601f19169190910160400192915050565b80356001600160a01b038116811461075457600080fd5b60008060408385031215611f9357600080fd5b611f9c83611f69565b946020939093013593505050565b600080600060608486031215611fbf57600080fd5b611fc884611f69565b9250611fd660208501611f69565b9150604084013590509250925092565b600060208284031215611ff857600080fd5b5035919050565b6000806040838503121561201257600080fd5b8235915061202260208401611f69565b90509250929050565b60006020828403121561203d57600080fd5b6108b382611f69565b6000806040838503121561205957600080fd5b50508035926020909101359150565b634e487b7160e01b600052604160045260246000fd5b600067ffffffffffffffff8084111561209957612099612068565b604051601f8501601f19908116603f011681019082821181831017156120c1576120c1612068565b816040528093508581528686860111156120da57600080fd5b858560208301376000602087830101525050509392505050565b600080600080600060a0868803121561210c57600080fd5b61211586611f69565b945061212360208701611f69565b93506040860135925060608601359150608086013567ffffffffffffffff81111561214d57600080fd5b8601601f8101881361215e57600080fd5b61216d8882356020840161207e565b9150509295509295909350565b6000806040838503121561218d57600080fd5b61219683611f69565b915061202260208401611f69565b600082601f8301126121b557600080fd5b6108b38383356020850161207e565b600080600080600060a086880312156121dc57600080fd5b853567ffffffffffffffff808211156121f457600080fd5b61220089838a016121a4565b9650602088013591508082111561221657600080fd5b50612223888289016121a4565b945050604086013560ff8116811461223a57600080fd5b92506060860135915061224f60808701611f69565b90509295509295909350565b600181811c9082168061226f57607f821691505b6020821081141561229057634e487b7160e01b600052602260045260246000fd5b50919050565b634e487b7160e01b600052601160045260246000fd5b600082198211156122bf576122bf612296565b500190565b6020808252600990820152683337b93134b23232b760b91b604082015260600190565b60006000198214156122fb576122fb612296565b5060010190565b7f416363657373436f6e74726f6c3a206163636f756e742000000000000000000081526000835161233a816017850160208801611f0a565b7001034b99036b4b9b9b4b733903937b6329607d1b601791840191820152835161236b816028840160208801611f0a565b01602801949350505050565b60008282101561238957612389612296565b500390565b6020808252602b908201527f496e697469616c697a61626c653a20636f6e7472616374206973206e6f74206960408201526a6e697469616c697a696e6760a81b606082015260800190565b60008160001904831182151516156123f3576123f3612296565b500290565b634e487b7160e01b600052603260045260246000fd5b60008161241d5761241d612296565b506000190190565b634e487b7160e01b600052602160045260246000fd5b634e487b7160e01b600052603160045260246000fdfea2646970667358221220795b527f9ecdb5141e2aaf77d89a219f98feb7a2cecffecb66941501c77a2ee364736f6c634300080b0033",
  "linkReferences": {},
  "deployedLinkReferences": {}
}