{
  "_format": "hh-sol-artifact-1",
  "contractName": "ERC20MintablePauseableUpgradeable",
  "sourceName": "contracts/ERC20MintablePauseableUpgradeable.sol",
  "abi": [
    {
      "anonymous": false,
      "inputs": [
        {
          "indexed": true,
          "internalType": "address",
          "name": "owner",
          "type": "address"
        },
        {
          "indexed": true,
          "internalType": "address",
          "name": "spender",
          "type": "address"
        },
        {
          "indexed": false,
          "internalType": "uint256",
          "name": "value",
          "type": "uint256"
        }
      ],
      "name": "Approval",
      "type": "event"
    },
    {
      "anonymous": false,
      "inputs": [
        {
          "indexed": false,
          "internalType": "uint8",
          "name": "version",
          "type": "uint8"
        }
      ],
      "name": "Initialized",
      "type": "event"
    },
    {
      "anonymous": false,
      "inputs": [
        {
          "indexed": false,
          "internalType": "address",
          "name": "account",
          "type": "address"
        }
      ],
      "name": "Paused",
      "type": "event"
    },
    {
      "anonymous": false,
      "inputs": [
        {
          "indexed": true,
          "internalType": "bytes32",
          "name": "role",
          "type": "bytes32"
        },
        {
          "indexed": true,
          "internalType": "bytes32",
          "name": "previousAdminRole",
          "type": "bytes32"
        },
        {
          "indexed": true,
          "internalType": "bytes32",
          "name": "newAdminRole",
          "type": "bytes32"
        }
      ],
      "name": "RoleAdminChanged",
      "type": "event"
    },
    {
      "anonymous": false,
      "inputs": [
        {
          "indexed": true,
          "internalType": "bytes32",
          "name": "role",
          "type": "bytes32"
        },
        {
          "indexed": true,
          "internalType": "address",
          "name": "account",
          "type": "address"
        },
        {
          "indexed": true,
          "internalType": "address",
          "name": "sender",
          "type": "address"
        }
      ],
      "name": "RoleGranted",
      "type": "event"
    },
    {
      "anonymous": false,
      "inputs": [
        {
          "indexed": true,
          "internalType": "bytes32",
          "name": "role",
          "type": "bytes32"
        },
        {
          "indexed": true,
          "internalType": "address",
          "name": "account",
          "type": "address"
        },
        {
          "indexed": true,
          "internalType": "address",
          "name": "sender",
          "type": "address"
        }
      ],
      "name": "RoleRevoked",
      "type": "event"
    },
    {
      "anonymous": false,
      "inputs": [
        {
          "indexed": true,
          "internalType": "address",
          "name": "from",
          "type": "address"
        },
        {
          "indexed": true,
          "internalType": "address",
          "name": "to",
          "type": "address"
        },
        {
          "indexed": false,
          "internalType": "uint256",
          "name": "value",
          "type": "uint256"
        }
      ],
      "name": "Transfer",
      "type": "event"
    },
    {
      "anonymous": false,
      "inputs": [
        {
          "indexed": false,
          "internalType": "address",
          "name": "account",
          "type": "address"
        }
      ],
      "name": "Unpaused",
      "type": "event"
    },
    {
      "inputs": [],
      "name": "DEFAULT_ADMIN_ROLE",
      "outputs": [
        {
          "internalType": "bytes32",
          "name": "",
          "type": "bytes32"
        }
      ],
      "stateMutability": "view",
      "type": "function"
    },
    {
      "inputs": [],
      "name": "MINTER_ROLE",
      "outputs": [
        {
          "internalType": "bytes32",
          "name": "",
          "type": "bytes32"
        }
      ],
      "stateMutability": "view",
      "type": "function"
    },
    {
      "inputs": [],
      "name": "PERMIT_TYPEHASH",
      "outputs": [
        {
          "internalType": "bytes32",
          "name": "",
          "type": "bytes32"
        }
      ],
      "stateMutability": "view",
      "type": "function"
    },
    {
      "inputs": [
        {
          "internalType": "address",
          "name": "owner",
          "type": "address"
        },
        {
          "internalType": "address",
          "name": "spender",
          "type": "address"
        }
      ],
      "name": "allowance",
      "outputs": [
        {
          "internalType": "uint256",
          "name": "",
          "type": "uint256"
        }
      ],
      "stateMutability": "view",
      "type": "function"
    },
    {
      "inputs": [
        {
          "internalType": "address",
          "name": "spender",
          "type": "address"
        },
        {
          "internalType": "uint256",
          "name": "amount",
          "type": "uint256"
        }
      ],
      "name": "approve",
      "outputs": [
        {
          "internalType": "bool",
          "name": "",
          "type": "bool"
        }
      ],
      "stateMutability": "nonpayable",
      "type": "function"
    },
    {
      "inputs": [
        {
          "internalType": "address",
          "name": "account",
          "type": "address"
        }
      ],
      "name": "balanceOf",
      "outputs": [
        {
          "internalType": "uint256",
          "name": "",
          "type": "uint256"
        }
      ],
      "stateMutability": "view",
      "type": "function"
    },
    {
      "inputs": [
        {
          "internalType": "address",
          "name": "",
          "type": "address"
        }
      ],
      "name": "blackList",
      "outputs": [
        {
          "internalType": "bool",
          "name": "",
          "type": "bool"
        }
      ],
      "stateMutability": "view",
      "type": "function"
    },
    {
      "inputs": [
        {
          "internalType": "uint256",
          "name": "amount",
          "type": "uint256"
        }
      ],
      "name": "burn",
      "outputs": [],
      "stateMutability": "nonpayable",
      "type": "function"
    },
    {
      "inputs": [
        {
          "internalType": "address",
          "name": "account",
          "type": "address"
        },
        {
          "internalType": "uint256",
          "name": "amount",
          "type": "uint256"
        }
      ],
      "name": "burnFrom",
      "outputs": [],
      "stateMutability": "nonpayable",
      "type": "function"
    },
    {
      "inputs": [],
      "name": "decimals",
      "outputs": [
        {
          "internalType": "uint8",
          "name": "",
          "type": "uint8"
        }
      ],
      "stateMutability": "view",
      "type": "function"
    },
    {
      "inputs": [
        {
          "internalType": "address",
          "name": "spender",
          "type": "address"
        },
        {
          "internalType": "uint256",
          "name": "subtractedValue",
          "type": "uint256"
        }
      ],
      "name": "decreaseAllowance",
      "outputs": [
        {
          "internalType": "bool",
          "name": "",
          "type": "bool"
        }
      ],
      "stateMutability": "nonpayable",
      "type": "function"
    },
    {
      "inputs": [
        {
          "internalType": "bytes32",
          "name": "role",
          "type": "bytes32"
        }
      ],
      "name": "getRoleAdmin",
      "outputs": [
        {
          "internalType": "bytes32",
          "name": "",
          "type": "bytes32"
        }
      ],
      "stateMutability": "view",
      "type": "function"
    },
    {
      "inputs": [
        {
          "internalType": "bytes32",
          "name": "role",
          "type": "bytes32"
        },
        {
          "internalType": "uint256",
          "name": "index",
          "type": "uint256"
        }
      ],
      "name": "getRoleMember",
      "outputs": [
        {
          "internalType": "address",
          "name": "",
          "type": "address"
        }
      ],
      "stateMutability": "view",
      "type": "function"
    },
    {
      "inputs": [
        {
          "internalType": "bytes32",
          "name": "role",
          "type": "bytes32"
        }
      ],
      "name": "getRoleMemberCount",
      "outputs": [
        {
          "internalType": "uint256",
          "name": "",
          "type": "uint256"
        }
      ],
      "stateMutability": "view",
      "type": "function"
    },
    {
      "inputs": [
        {
          "internalType": "bytes32",
          "name": "role",
          "type": "bytes32"
        },
        {
          "internalType": "address",
          "name": "account",
          "type": "address"
        }
      ],
      "name": "grantRole",
      "outputs": [],
      "stateMutability": "nonpayable",
      "type": "function"
    },
    {
      "inputs": [
        {
          "internalType": "bytes32",
          "name": "role",
          "type": "bytes32"
        },
        {
          "internalType": "address",
          "name": "account",
          "type": "address"
        }
      ],
      "name": "hasRole",
      "outputs": [
        {
          "internalType": "bool",
          "name": "",
          "type": "bool"
        }
      ],
      "stateMutability": "view",
      "type": "function"
    },
    {
      "inputs": [
        {
          "internalType": "address",
          "name": "spender",
          "type": "address"
        },
        {
          "internalType": "uint256",
          "name": "addedValue",
          "type": "uint256"
        }
      ],
      "name": "increaseAllowance",
      "outputs": [
        {
          "internalType": "bool",
          "name": "",
          "type": "bool"
        }
      ],
      "stateMutability": "nonpayable",
      "type": "function"
    },
    {
      "inputs": [
        {
          "internalType": "string",
          "name": "name",
          "type": "string"
        },
        {
          "internalType": "string",
          "name": "symbol",
          "type": "string"
        },
        {
          "internalType": "uint8",
          "name": "decimals_",
          "type": "uint8"
        },
        {
          "internalType": "address",
          "name": "admin",
          "type": "address"
        }
      ],
      "name": "initialize",
      "outputs": [],
      "stateMutability": "nonpayable",
      "type": "function"
    },
    {
      "inputs": [
        {
          "internalType": "address",
          "name": "to",
          "type": "address"
        },
        {
          "internalType": "uint256",
          "name": "amount",
          "type": "uint256"
        }
      ],
      "name": "mint",
      "outputs": [],
      "stateMutability": "nonpayable",
      "type": "function"
    },
    {
      "inputs": [],
      "name": "name",
      "outputs": [
        {
          "internalType": "string",
          "name": "",
          "type": "string"
        }
      ],
      "stateMutability": "view",
      "type": "function"
    },
    {
      "inputs": [
        {
          "internalType": "address",
          "name": "",
          "type": "address"
        }
      ],
      "name": "nonces",
      "outputs": [
        {
          "internalType": "uint256",
          "name": "",
          "type": "uint256"
        }
      ],
      "stateMutability": "view",
      "type": "function"
    },
    {
      "inputs": [],
      "name": "pause",
      "outputs": [],
      "stateMutability": "nonpayable",
      "type": "function"
    },
    {
      "inputs": [],
      "name": "paused",
      "outputs": [
        {
          "internalType": "bool",
          "name": "",
          "type": "bool"
        }
      ],
      "stateMutability": "view",
      "type": "function"
    },
    {
      "inputs": [
        {
          "internalType": "address",
          "name": "owner",
          "type": "address"
        },
        {
          "internalType": "address",
          "name": "spender",
          "type": "address"
        },
        {
          "internalType": "uint256",
          "name": "value",
          "type": "uint256"
        },
        {
          "internalType": "uint256",
          "name": "deadline",
          "type": "uint256"
        },
        {
          "internalType": "bytes",
          "name": "signature",
          "type": "bytes"
        }
      ],
      "name": "permit",
      "outputs": [],
      "stateMutability": "nonpayable",
      "type": "function"
    },
    {
      "inputs": [
        {
          "internalType": "bytes32",
          "name": "role",
          "type": "bytes32"
        },
        {
          "internalType": "address",
          "name": "account",
          "type": "address"
        }
      ],
      "name": "renounceRole",
      "outputs": [],
      "stateMutability": "nonpayable",
      "type": "function"
    },
    {
      "inputs": [
        {
          "internalType": "bytes32",
          "name": "role",
          "type": "bytes32"
        },
        {
          "internalType": "address",
          "name": "account",
          "type": "address"
        }
      ],
      "name": "revokeRole",
      "outputs": [],
      "stateMutability": "nonpayable",
      "type": "function"
    },
    {
      "inputs": [
        {
          "internalType": "address",
          "name": "account",
          "type": "address"
        }
      ],
      "name": "setBlackList",
      "outputs": [],
      "stateMutability": "nonpayable",
      "type": "function"
    },
    {
      "inputs": [
        {
          "internalType": "bytes4",
          "name": "interfaceId",
          "type": "bytes4"
        }
      ],
      "name": "supportsInterface",
      "outputs": [
        {
          "internalType": "bool",
          "name": "",
          "type": "bool"
        }
      ],
      "stateMutability": "view",
      "type": "function"
    },
    {
      "inputs": [],
      "name": "symbol",
      "outputs": [
        {
          "internalType": "string",
          "name": "",
          "type": "string"
        }
      ],
      "stateMutability": "view",
      "type": "function"
    },
    {
      "inputs": [],
      "name": "totalSupply",
      "outputs": [
        {
          "internalType": "uint256",
          "name": "",
          "type": "uint256"
        }
      ],
      "stateMutability": "view",
      "type": "function"
    },
    {
      "inputs": [
        {
          "internalType": "address",
          "name": "to",
          "type": "address"
        },
        {
          "internalType": "uint256",
          "name": "amount",
          "type": "uint256"
        }
      ],
      "name": "transfer",
      "outputs": [
        {
          "internalType": "bool",
          "name": "",
          "type": "bool"
        }
      ],
      "stateMutability": "nonpayable",
      "type": "function"
    },
    {
      "inputs": [
        {
          "internalType": "address",
          "name": "from",
          "type": "address"
        },
        {
          "internalType": "address",
          "name": "to",
          "type": "address"
        },
        {
          "internalType": "uint256",
          "name": "amount",
          "type": "uint256"
        }
      ],
      "name": "transferFrom",
      "outputs": [
        {
          "internalType": "bool",
          "name": "",
          "type": "bool"
        }
      ],
      "stateMutability": "nonpayable",
      "type": "function"
    },
    {
      "inputs": [],
      "name": "unpause",
      "outputs": [],
      "stateMutability": "nonpayable",
      "type": "function"
    }
  ],
  "bytecode": "0x608060405234801561001057600080fd5b506123fa806100206000396000f3fe608060405234801561001057600080fd5b50600436106101fb5760003560e01c806370a082311161011a5780639fd5a6cf116100ad578063ca15c8731161007c578063ca15c8731461046d578063d539139314610480578063d547741f146104a7578063dd62ed3e146104ba578063de7ea79d146104cd57600080fd5b80639fd5a6cf1461042c578063a217fddf1461043f578063a457c2d714610447578063a9059cbb1461045a57600080fd5b80638456cb59116100e95780638456cb59146103de5780639010d07c146103e657806391d148541461041157806395d89b411461042457600080fd5b806370a082311461036e578063727002411461039757806379cc6790146103aa5780637ecebe00146103bd57600080fd5b8063313ce5671161019257806340c10f191161016157806340c10f191461031957806342966c681461032c5780634838d1651461033f5780635c975abb1461036357600080fd5b8063313ce567146102d557806336568abe146102eb57806339509351146102fe5780633f4ba83a1461031157600080fd5b806323b872dd116101ce57806323b872dd14610262578063248a9ca3146102755780632f2ff15d1461029957806330adf81f146102ae57600080fd5b806301ffc9a71461020057806306fdde0314610228578063095ea7b31461023d57806318160ddd14610250575b600080fd5b61021361020e366004611e58565b6104e0565b60405190151581526020015b60405180910390f35b61023061050b565b60405161021f9190611eae565b61021361024b366004611efd565b61059d565b6035545b60405190815260200161021f565b610213610270366004611f27565b6105b5565b610254610283366004611f63565b6000908152610161602052604090206001015490565b6102ac6102a7366004611f7c565b6105d9565b005b6102547f6e71edae12b1b97f4d1f60370fef10105fa2faae0126114a169c64845d6126c981565b6101c75460405160ff909116815260200161021f565b6102ac6102f9366004611f7c565b610604565b61021361030c366004611efd565b610687565b6102ac6106a9565b6102ac610327366004611efd565b6106da565b6102ac61033a366004611f63565b610779565b61021361034d366004611fa8565b6101c56020526000908152604090205460ff1681565b60655460ff16610213565b61025461037c366004611fa8565b6001600160a01b031660009081526033602052604090205490565b6102ac6103a5366004611fa8565b610786565b6102ac6103b8366004611efd565b6107d7565b6102546103cb366004611fa8565b6101c66020526000908152604090205481565b6102ac6107ec565b6103f96103f4366004611fc3565b61081b565b6040516001600160a01b03909116815260200161021f565b61021361041f366004611f7c565b61083b565b610230610867565b6102ac61043a366004612071565b610876565b610254600081565b610213610455366004611efd565b6109a9565b610213610468366004611efd565b610a24565b61025461047b366004611f63565b610a32565b6102547f9f2df0fed2c77648de5860a4cc508cd0818c85b8b8a1ab4ceeef8d981c8956a681565b6102ac6104b5366004611f7c565b610a4a565b6102546104c83660046120f7565b610a70565b6102ac6104db366004612141565b610a9b565b60006001600160e01b03198216635a05180f60e01b1480610505575061050582610c3f565b92915050565b60606036805461051a906121ce565b80601f0160208091040260200160405190810160405280929190818152602001828054610546906121ce565b80156105935780601f1061056857610100808354040283529160200191610593565b820191906000526020600020905b81548152906001019060200180831161057657829003601f168201915b5050505050905090565b6000336105ab818585610c74565b5060019392505050565b6000336105c3858285610d98565b6105ce858585610e12565b506001949350505050565b600082815261016160205260409020600101546105f581610feb565b6105ff8383610ff5565b505050565b6001600160a01b03811633146106795760405162461bcd60e51b815260206004820152602f60248201527f416363657373436f6e74726f6c3a2063616e206f6e6c792072656e6f756e636560448201526e103937b632b9903337b91039b2b63360891b60648201526084015b60405180910390fd5b6106838282611018565b5050565b6000336105ab81858561069a8383610a70565b6106a4919061221f565b610c74565b6106b460003361083b565b6106d05760405162461bcd60e51b815260040161067090612237565b6106d861103b565b565b6107047f9f2df0fed2c77648de5860a4cc508cd0818c85b8b8a1ab4ceeef8d981c8956a63361083b565b61076f5760405162461bcd60e51b815260206004820152603660248201527f45524332305072657365744d696e7465725061757365723a206d7573742068616044820152751d99481b5a5b9d195c881c9bdb19481d1bc81b5a5b9d60521b6064820152608401610670565b610683828261108d565b6107833382611178565b50565b61079160003361083b565b6107ad5760405162461bcd60e51b815260040161067090612237565b6001600160a01b031660009081526101c560205260409020805460ff19811660ff90911615179055565b6107e2823383610d98565b6106838282611178565b6107f760003361083b565b6108135760405162461bcd60e51b815260040161067090612237565b6106d86112d2565b600082815261019360205260408120610834908361130f565b9392505050565b6000918252610161602090815260408084206001600160a01b0393909316845291905290205460ff1690565b60606037805461051a906121ce565b6001600160a01b03851660009081526101c66020526040812080547f6e71edae12b1b97f4d1f60370fef10105fa2faae0126114a169c64845d6126c99188918891889190866108c48361225a565b909155506040805160208101969096526001600160a01b0394851690860152929091166060840152608083015260a082015260c0810184905260e00160405160208183030381529060405280519060200120905060006109238261131b565b905060006109318285611369565b9050806001600160a01b0316886001600160a01b0316146109945760405162461bcd60e51b815260206004820152601960248201527f5065726d69743a20696e76616c6964207369676e6174757265000000000000006044820152606401610670565b61099f888888610c74565b5050505050505050565b600033816109b78286610a70565b905083811015610a175760405162461bcd60e51b815260206004820152602560248201527f45524332303a2064656372656173656420616c6c6f77616e63652062656c6f77604482015264207a65726f60d81b6064820152608401610670565b6105ce8286868403610c74565b6000336105ab818585610e12565b6000818152610193602052604081206105059061138d565b60008281526101616020526040902060010154610a6681610feb565b6105ff8383611018565b6001600160a01b03918216600090815260346020908152604080832093909416825291909152205490565b600054610100900460ff1615808015610abb5750600054600160ff909116105b80610ad55750303b158015610ad5575060005460ff166001145b610b385760405162461bcd60e51b815260206004820152602e60248201527f496e697469616c697a61626c653a20636f6e747261637420697320616c72656160448201526d191e481a5b9a5d1a585b1a5e995960921b6064820152608401610670565b6000805460ff191660011790558015610b5b576000805461ff0019166101001790555b6101c7805460ff191660ff8516179055610b758585611397565b610bbd6040518060400160405280600b81526020016a2832b936b4ba2a37b5b2b760a91b815250604051806040016040528060038152602001620312e360ec1b8152506113c8565b610bc86000836113f9565b610bf27f9f2df0fed2c77648de5860a4cc508cd0818c85b8b8a1ab4ceeef8d981c8956a6836113f9565b8015610c38576000805461ff0019169055604051600181527f7f26b83ff96e1f2b6a682f133852f6798a09c465da95921460cefb38474024989060200160405180910390a15b5050505050565b60006001600160e01b03198216637965db0b60e01b148061050557506301ffc9a760e01b6001600160e01b0319831614610505565b6001600160a01b038316610cd65760405162461bcd60e51b8152602060048201526024808201527f45524332303a20617070726f76652066726f6d20746865207a65726f206164646044820152637265737360e01b6064820152608401610670565b6001600160a01b038216610d375760405162461bcd60e51b815260206004820152602260248201527f45524332303a20617070726f766520746f20746865207a65726f206164647265604482015261737360f01b6064820152608401610670565b6001600160a01b0383811660008181526034602090815260408083209487168084529482529182902085905590518481527f8c5be1e5ebec7d5bd14f71427d1e84f3dd0314c0f7b2291e5b200ac8c7c3b925910160405180910390a3505050565b6000610da48484610a70565b90506000198114610e0c5781811015610dff5760405162461bcd60e51b815260206004820152601d60248201527f45524332303a20696e73756666696369656e7420616c6c6f77616e63650000006044820152606401610670565b610e0c8484848403610c74565b50505050565b6001600160a01b038316610e765760405162461bcd60e51b815260206004820152602560248201527f45524332303a207472616e736665722066726f6d20746865207a65726f206164604482015264647265737360d81b6064820152608401610670565b6001600160a01b038216610ed85760405162461bcd60e51b815260206004820152602360248201527f45524332303a207472616e7366657220746f20746865207a65726f206164647260448201526265737360e81b6064820152608401610670565b610ee3838383611403565b6001600160a01b03831660009081526033602052604090205481811015610f5b5760405162461bcd60e51b815260206004820152602660248201527f45524332303a207472616e7366657220616d6f756e7420657863656564732062604482015265616c616e636560d01b6064820152608401610670565b6001600160a01b03808516600090815260336020526040808220858503905591851681529081208054849290610f9290849061221f565b92505081905550826001600160a01b0316846001600160a01b03167fddf252ad1be2c89b69c2b068fc378daa952ba7f163c4a11628f55a4df523b3ef84604051610fde91815260200190565b60405180910390a3610e0c565b6107838133611448565b610fff82826114ac565b6000828152610193602052604090206105ff9082611533565b6110228282611548565b6000828152610193602052604090206105ff90826115b0565b6110436115c5565b6065805460ff191690557f5db9ee0a495bf2e6ff9c91a7834c1ba4fdd244a5e8aa4e537bd38aeae4b073aa335b6040516001600160a01b03909116815260200160405180910390a1565b6001600160a01b0382166110e35760405162461bcd60e51b815260206004820152601f60248201527f45524332303a206d696e7420746f20746865207a65726f2061646472657373006044820152606401610670565b6110ef60008383611403565b8060356000828254611101919061221f565b90915550506001600160a01b0382166000908152603360205260408120805483929061112e90849061221f565b90915550506040518181526001600160a01b038316906000907fddf252ad1be2c89b69c2b068fc378daa952ba7f163c4a11628f55a4df523b3ef9060200160405180910390a35050565b6001600160a01b0382166111d85760405162461bcd60e51b815260206004820152602160248201527f45524332303a206275726e2066726f6d20746865207a65726f206164647265736044820152607360f81b6064820152608401610670565b6111e482600083611403565b6001600160a01b038216600090815260336020526040902054818110156112585760405162461bcd60e51b815260206004820152602260248201527f45524332303a206275726e20616d6f756e7420657863656564732062616c616e604482015261636560f01b6064820152608401610670565b6001600160a01b0383166000908152603360205260408120838303905560358054849290611287908490612275565b90915550506040518281526000906001600160a01b038516907fddf252ad1be2c89b69c2b068fc378daa952ba7f163c4a11628f55a4df523b3ef9060200160405180910390a3505050565b6112da61160e565b6065805460ff191660011790557f62e78cea01bee320cd4e420270b5ea74000d11b0c9f74754ebdbfc544b05a2586110703390565b60006108348383611654565b600061050561132861167e565b8360405161190160f01b6020820152602281018390526042810182905260009060620160405160208183030381529060405280519060200120905092915050565b600080600061137885856116fe565b9150915061138581611744565b509392505050565b6000610505825490565b600054610100900460ff166113be5760405162461bcd60e51b81526004016106709061228c565b61068382826118ff565b600054610100900460ff166113ef5760405162461bcd60e51b81526004016106709061228c565b610683828261194d565b6106838282610ff5565b6001600160a01b03831660009081526101c5602052604090205460ff161561143d5760405162461bcd60e51b815260040161067090612237565b6105ff83838361198e565b611452828261083b565b6106835761146a816001600160a01b031660146119f4565b6114758360206119f4565b6040516020016114869291906122d7565b60408051601f198184030181529082905262461bcd60e51b825261067091600401611eae565b6114b6828261083b565b610683576000828152610161602090815260408083206001600160a01b03851684529091529020805460ff191660011790556114ef3390565b6001600160a01b0316816001600160a01b0316837f2f8788117e7eff1d82e926ec794901d17c78024a50270940304540a733656f0d60405160405180910390a45050565b6000610834836001600160a01b038416611b90565b611552828261083b565b15610683576000828152610161602090815260408083206001600160a01b0385168085529252808320805460ff1916905551339285917ff6391f5c32d9c69d2a47ea670b442974b53935d1edc7fd64eb21e047a839171b9190a45050565b6000610834836001600160a01b038416611bdf565b60655460ff166106d85760405162461bcd60e51b815260206004820152601460248201527314185d5cd8589b194e881b9bdd081c185d5cd95960621b6044820152606401610670565b60655460ff16156106d85760405162461bcd60e51b815260206004820152601060248201526f14185d5cd8589b194e881c185d5cd95960821b6044820152606401610670565b600082600001828154811061166b5761166b61234c565b9060005260206000200154905092915050565b60006116f97f8b73c3c69bb8fe3d512ecc4cf759cc79239f7b179b0ffacaa9a75d522b39400f6116ad60fb5490565b60fc546040805160208101859052908101839052606081018290524660808201523060a082015260009060c0016040516020818303038152906040528051906020012090509392505050565b905090565b6000808251604114156117355760208301516040840151606085015160001a61172987828585611cd2565b9450945050505061173d565b506000905060025b9250929050565b600081600481111561175857611758612362565b14156117615750565b600181600481111561177557611775612362565b14156117c35760405162461bcd60e51b815260206004820152601860248201527f45434453413a20696e76616c6964207369676e617475726500000000000000006044820152606401610670565b60028160048111156117d7576117d7612362565b14156118255760405162461bcd60e51b815260206004820152601f60248201527f45434453413a20696e76616c6964207369676e6174757265206c656e677468006044820152606401610670565b600381600481111561183957611839612362565b14156118925760405162461bcd60e51b815260206004820152602260248201527f45434453413a20696e76616c6964207369676e6174757265202773272076616c604482015261756560f01b6064820152608401610670565b60048160048111156118a6576118a6612362565b14156107835760405162461bcd60e51b815260206004820152602260248201527f45434453413a20696e76616c6964207369676e6174757265202776272076616c604482015261756560f01b6064820152608401610670565b600054610100900460ff166119265760405162461bcd60e51b81526004016106709061228c565b8151611939906036906020850190611dbf565b5080516105ff906037906020840190611dbf565b600054610100900460ff166119745760405162461bcd60e51b81526004016106709061228c565b81516020928301208151919092012060fb9190915560fc55565b60655460ff16156105ff5760405162461bcd60e51b815260206004820152602a60248201527f45524332305061757361626c653a20746f6b656e207472616e736665722077686044820152691a5b19481c185d5cd95960b21b6064820152608401610670565b60606000611a03836002612378565b611a0e90600261221f565b67ffffffffffffffff811115611a2657611a26611fe5565b6040519080825280601f01601f191660200182016040528015611a50576020820181803683370190505b509050600360fc1b81600081518110611a6b57611a6b61234c565b60200101906001600160f81b031916908160001a905350600f60fb1b81600181518110611a9a57611a9a61234c565b60200101906001600160f81b031916908160001a9053506000611abe846002612378565b611ac990600161221f565b90505b6001811115611b41576f181899199a1a9b1b9c1cb0b131b232b360811b85600f1660108110611afd57611afd61234c565b1a60f81b828281518110611b1357611b1361234c565b60200101906001600160f81b031916908160001a90535060049490941c93611b3a81612397565b9050611acc565b5083156108345760405162461bcd60e51b815260206004820181905260248201527f537472696e67733a20686578206c656e67746820696e73756666696369656e746044820152606401610670565b6000818152600183016020526040812054611bd757508154600181810184556000848152602080822090930184905584548482528286019093526040902091909155610505565b506000610505565b60008181526001830160205260408120548015611cc8576000611c03600183612275565b8554909150600090611c1790600190612275565b9050818114611c7c576000866000018281548110611c3757611c3761234c565b9060005260206000200154905080876000018481548110611c5a57611c5a61234c565b6000918252602080832090910192909255918252600188019052604090208390555b8554869080611c8d57611c8d6123ae565b600190038181906000526020600020016000905590558560010160008681526020019081526020016000206000905560019350505050610505565b6000915050610505565b6000807f7fffffffffffffffffffffffffffffff5d576e7357a4501ddfe92f46681b20a0831115611d095750600090506003611db6565b8460ff16601b14158015611d2157508460ff16601c14155b15611d325750600090506004611db6565b6040805160008082526020820180845289905260ff881692820192909252606081018690526080810185905260019060a0016020604051602081039080840390855afa158015611d86573d6000803e3d6000fd5b5050604051601f1901519150506001600160a01b038116611daf57600060019250925050611db6565b9150600090505b94509492505050565b828054611dcb906121ce565b90600052602060002090601f016020900481019282611ded5760008555611e33565b82601f10611e0657805160ff1916838001178555611e33565b82800160010185558215611e33579182015b82811115611e33578251825591602001919060010190611e18565b50611e3f929150611e43565b5090565b5b80821115611e3f5760008155600101611e44565b600060208284031215611e6a57600080fd5b81356001600160e01b03198116811461083457600080fd5b60005b83811015611e9d578181015183820152602001611e85565b83811115610e0c5750506000910152565b6020815260008251806020840152611ecd816040850160208701611e82565b601f01601f19169190910160400192915050565b80356001600160a01b0381168114611ef857600080fd5b919050565b60008060408385031215611f1057600080fd5b611f1983611ee1565b946020939093013593505050565b600080600060608486031215611f3c57600080fd5b611f4584611ee1565b9250611f5360208501611ee1565b9150604084013590509250925092565b600060208284031215611f7557600080fd5b5035919050565b60008060408385031215611f8f57600080fd5b82359150611f9f60208401611ee1565b90509250929050565b600060208284031215611fba57600080fd5b61083482611ee1565b60008060408385031215611fd657600080fd5b50508035926020909101359150565b634e487b7160e01b600052604160045260246000fd5b600067ffffffffffffffff8084111561201657612016611fe5565b604051601f8501601f19908116603f0116810190828211818310171561203e5761203e611fe5565b8160405280935085815286868601111561205757600080fd5b858560208301376000602087830101525050509392505050565b600080600080600060a0868803121561208957600080fd5b61209286611ee1565b94506120a060208701611ee1565b93506040860135925060608601359150608086013567ffffffffffffffff8111156120ca57600080fd5b8601601f810188136120db57600080fd5b6120ea88823560208401611ffb565b9150509295509295909350565b6000806040838503121561210a57600080fd5b61211383611ee1565b9150611f9f60208401611ee1565b600082601f83011261213257600080fd5b61083483833560208501611ffb565b6000806000806080858703121561215757600080fd5b843567ffffffffffffffff8082111561216f57600080fd5b61217b88838901612121565b9550602087013591508082111561219157600080fd5b5061219e87828801612121565b935050604085013560ff811681146121b557600080fd5b91506121c360608601611ee1565b905092959194509250565b600181811c908216806121e257607f821691505b6020821081141561220357634e487b7160e01b600052602260045260246000fd5b50919050565b634e487b7160e01b600052601160045260246000fd5b6000821982111561223257612232612209565b500190565b6020808252600990820152683337b93134b23232b760b91b604082015260600190565b600060001982141561226e5761226e612209565b5060010190565b60008282101561228757612287612209565b500390565b6020808252602b908201527f496e697469616c697a61626c653a20636f6e7472616374206973206e6f74206960408201526a6e697469616c697a696e6760a81b606082015260800190565b7f416363657373436f6e74726f6c3a206163636f756e742000000000000000000081526000835161230f816017850160208801611e82565b7001034b99036b4b9b9b4b733903937b6329607d1b6017918401918201528351612340816028840160208801611e82565b01602801949350505050565b634e487b7160e01b600052603260045260246000fd5b634e487b7160e01b600052602160045260246000fd5b600081600019048311821515161561239257612392612209565b500290565b6000816123a6576123a6612209565b506000190190565b634e487b7160e01b600052603160045260246000fdfea2646970667358221220f6fed48c787385fc4c4cb70c32009287aac61ce5391412bb2449f618926f2ef264736f6c634300080b0033",
  "linkReferences": {},
  "deployedLinkReferences": {}
}