{
  "_format": "hh-sol-artifact-1",
  "contractName": "HandlerHelpersUpgradeable",
  "sourceName": "contracts/handlers/HandlerHelpersUpgradeable.sol",
  "abi": [
    {
      "inputs": [],
      "name": "_bridgeAddress",
      "outputs": [
        {
          "internalType": "address",
          "name": "",
          "type": "address"
        }
      ],
      "stateMutability": "view",
      "type": "function"
    },
    {
      "inputs": [
        {
          "internalType": "address",
          "name": "",
          "type": "address"
        }
      ],
      "name": "_burnList",
      "outputs": [
        {
          "internalType": "bool",
          "name": "",
          "type": "bool"
        }
      ],
      "stateMutability": "view",
      "type": "function"
    },
    {
      "inputs": [
        {
          "internalType": "address",
          "name": "",
          "type": "address"
        }
      ],
      "name": "_contractWhitelist",
      "outputs": [
        {
          "internalType": "bool",
          "name": "",
          "type": "bool"
        }
      ],
      "stateMutability": "view",
      "type": "function"
    },
    {
      "inputs": [
        {
          "internalType": "bytes32",
          "name": "",
          "type": "bytes32"
        }
      ],
      "name": "_resourceIDToTokenContractAddress",
      "outputs": [
        {
          "internalType": "address",
          "name": "",
          "type": "address"
        }
      ],
      "stateMutability": "view",
      "type": "function"
    },
    {
      "inputs": [
        {
          "internalType": "address",
          "name": "",
          "type": "address"
        }
      ],
      "name": "_tokenContractAddressToResourceID",
      "outputs": [
        {
          "internalType": "bytes32",
          "name": "",
          "type": "bytes32"
        }
      ],
      "stateMutability": "view",
      "type": "function"
    },
    {
      "inputs": [
        {
          "internalType": "address",
          "name": "contractAddress",
          "type": "address"
        }
      ],
      "name": "setBurnable",
      "outputs": [],
      "stateMutability": "nonpayable",
      "type": "function"
    },
    {
      "inputs": [
        {
          "internalType": "bytes32",
          "name": "resourceID",
          "type": "bytes32"
        },
        {
          "internalType": "address",
          "name": "contractAddress",
          "type": "address"
        }
      ],
      "name": "setResource",
      "outputs": [],
      "stateMutability": "nonpayable",
      "type": "function"
    },
    {
      "inputs": [
        {
          "internalType": "bytes",
          "name": "data",
          "type": "bytes"
        }
      ],
      "name": "withdraw",
      "outputs": [],
      "stateMutability": "nonpayable",
      "type": "function"
    }
  ],
  "bytecode": "0x608060405234801561001057600080fd5b50610491806100206000396000f3fe608060405234801561001057600080fd5b50600436106100885760003560e01c80636a70d0811161005b5780636a70d081146101125780637f79bea814610145578063b8fa373614610168578063c8ba6c871461017b57600080fd5b806307b7ed991461008d5780630968f264146100a25780630a6d55d8146100b3578063318c136e146100f9575b600080fd5b6100a061009b36600461032d565b6101a9565b005b6100a06100b0366004610365565b50565b6100dc6100c1366004610416565b6001602052600090815260409020546001600160a01b031681565b6040516001600160a01b0390911681526020015b60405180910390f35b6000546100dc906201000090046001600160a01b031681565b61013561012036600461032d565b60046020526000908152604090205460ff1681565b60405190151581526020016100f0565b61013561015336600461032d565b60036020526000908152604090205460ff1681565b6100a061017636600461042f565b6101ba565b61019b61018936600461032d565b60026020526000908152604090205481565b6040519081526020016100f0565b6101b1610212565b6100b081610279565b6101c2610212565b600082815260016020818152604080842080546001600160a01b0319166001600160a01b0387169081179091558452600282528084208690556003909152909120805460ff191690911790555050565b6000546201000090046001600160a01b031633146102775760405162461bcd60e51b815260206004820152601e60248201527f73656e646572206d7573742062652062726964676520636f6e7472616374000060448201526064015b60405180910390fd5b565b6001600160a01b03811660009081526003602052604090205460ff166102ed5760405162461bcd60e51b8152602060048201526024808201527f70726f766964656420636f6e7472616374206973206e6f742077686974656c696044820152631cdd195960e21b606482015260840161026e565b6001600160a01b03166000908152600460205260409020805460ff19166001179055565b80356001600160a01b038116811461032857600080fd5b919050565b60006020828403121561033f57600080fd5b61034882610311565b9392505050565b634e487b7160e01b600052604160045260246000fd5b60006020828403121561037757600080fd5b813567ffffffffffffffff8082111561038f57600080fd5b818401915084601f8301126103a357600080fd5b8135818111156103b5576103b561034f565b604051601f8201601f19908116603f011681019083821181831017156103dd576103dd61034f565b816040528281528760208487010111156103f657600080fd5b826020860160208301376000928101602001929092525095945050505050565b60006020828403121561042857600080fd5b5035919050565b6000806040838503121561044257600080fd5b8235915061045260208401610311565b9050925092905056fea2646970667358221220c4d07f07b27ef66608542b806b3831de31203ebdebb71fd9a3466f5ff9bd514a64736f6c634300080b0033",
  "linkReferences": {},
  "deployedLinkReferences": {}
}