{
  "_format": "hh-sol-artifact-1",
  "contractName": "HandlerHelpersUpgradeable",
  "sourceName": "contracts/handlers/HandlerHelpersUpgradeable.sol",
  "abi": [
    {
      "inputs": [],
      "name": "_bridgeAddress",
      "outputs": [
        {
          "internalType": "address",
          "name": "",
          "type": "address"
        }
      ],
      "stateMutability": "view",
      "type": "function"
    },
    {
      "inputs": [
        {
          "internalType": "address",
          "name": "",
          "type": "address"
        }
      ],
      "name": "_burnList",
      "outputs": [
        {
          "internalType": "bool",
          "name": "",
          "type": "bool"
        }
      ],
      "stateMutability": "view",
      "type": "function"
    },
    {
      "inputs": [
        {
          "internalType": "address",
          "name": "",
          "type": "address"
        }
      ],
      "name": "_contractWhitelist",
      "outputs": [
        {
          "internalType": "bool",
          "name": "",
          "type": "bool"
        }
      ],
      "stateMutability": "view",
      "type": "function"
    },
    {
      "inputs": [
        {
          "internalType": "bytes32",
          "name": "",
          "type": "bytes32"
        }
      ],
      "name": "_resourceIDToTokenContractAddress",
      "outputs": [
        {
          "internalType": "address",
          "name": "",
          "type": "address"
        }
      ],
      "stateMutability": "view",
      "type": "function"
    },
    {
      "inputs": [
        {
          "internalType": "address",
          "name": "",
          "type": "address"
        }
      ],
      "name": "_tokenContractAddressToResourceID",
      "outputs": [
        {
          "internalType": "bytes32",
          "name": "",
          "type": "bytes32"
        }
      ],
      "stateMutability": "view",
      "type": "function"
    },
    {
      "inputs": [
        {
          "internalType": "address",
          "name": "",
          "type": "address"
        }
      ],
      "name": "isWtoken",
      "outputs": [
        {
          "internalType": "bool",
          "name": "",
          "type": "bool"
        }
      ],
      "stateMutability": "view",
      "type": "function"
    },
    {
      "inputs": [
        {
          "internalType": "address",
          "name": "contractAddress",
          "type": "address"
        }
      ],
      "name": "setBurnable",
      "outputs": [],
      "stateMutability": "nonpayable",
      "type": "function"
    },
    {
      "inputs": [
        {
          "internalType": "bytes32",
          "name": "resourceID",
          "type": "bytes32"
        },
        {
          "internalType": "address",
          "name": "contractAddress",
          "type": "address"
        }
      ],
      "name": "setResource",
      "outputs": [],
      "stateMutability": "nonpayable",
      "type": "function"
    },
    {
      "inputs": [
        {
          "internalType": "address",
          "name": "wtokenAddress",
          "type": "address"
        },
        {
          "internalType": "bool",
          "name": "_isWtoken",
          "type": "bool"
        }
      ],
      "name": "setWtoken",
      "outputs": [],
      "stateMutability": "nonpayable",
      "type": "function"
    },
    {
      "inputs": [
        {
          "internalType": "bytes",
          "name": "data",
          "type": "bytes"
        }
      ],
      "name": "withdraw",
      "outputs": [],
      "stateMutability": "nonpayable",
      "type": "function"
    },
    {
      "inputs": [],
      "name": "wtoken",
      "outputs": [
        {
          "internalType": "address",
          "name": "",
          "type": "address"
        }
      ],
      "stateMutability": "view",
      "type": "function"
    }
  ],
  "bytecode": "0x608060405234801561001057600080fd5b50610569806100206000396000f3fe608060405234801561001057600080fd5b50600436106100a95760003560e01c8063318c136e11610071578063318c136e146101605780636a70d081146101795780637f79bea81461019c5780639c0591c8146101bf578063b8fa3736146101d2578063c8ba6c87146101e557600080fd5b8063045dff97146100ae57806307b7ed99146100e65780630968f264146100fb5780630a6d55d81461010c5780632129da191461014d575b600080fd5b6100d16100bc3660046103c9565b60066020526000908152604090205460ff1681565b60405190151581526020015b60405180910390f35b6100f96100f43660046103c9565b610213565b005b6100f9610109366004610401565b50565b61013561011a3660046104b2565b6002602052600090815260409020546001600160a01b031681565b6040516001600160a01b0390911681526020016100dd565b6100f961015b3660046104cb565b610224565b600054610135906201000090046001600160a01b031681565b6100d16101873660046103c9565b60056020526000908152604090205460ff1681565b6100d16101aa3660046103c9565b60046020526000908152604090205460ff1681565b600154610135906001600160a01b031681565b6100f96101e0366004610507565b610257565b6102056101f33660046103c9565b60036020526000908152604090205481565b6040519081526020016100dd565b61021b6102ae565b61010981610315565b61022c6102ae565b6001600160a01b03919091166000908152600660205260409020805460ff1916911515919091179055565b61025f6102ae565b600082815260026020908152604080832080546001600160a01b0319166001600160a01b03861690811790915583526003825280832085905560049091529020805460ff191660011790555050565b6000546201000090046001600160a01b031633146103135760405162461bcd60e51b815260206004820152601e60248201527f73656e646572206d7573742062652062726964676520636f6e7472616374000060448201526064015b60405180910390fd5b565b6001600160a01b03811660009081526004602052604090205460ff166103895760405162461bcd60e51b8152602060048201526024808201527f70726f766964656420636f6e7472616374206973206e6f742077686974656c696044820152631cdd195960e21b606482015260840161030a565b6001600160a01b03166000908152600560205260409020805460ff19166001179055565b80356001600160a01b03811681146103c457600080fd5b919050565b6000602082840312156103db57600080fd5b6103e4826103ad565b9392505050565b634e487b7160e01b600052604160045260246000fd5b60006020828403121561041357600080fd5b813567ffffffffffffffff8082111561042b57600080fd5b818401915084601f83011261043f57600080fd5b813581811115610451576104516103eb565b604051601f8201601f19908116603f01168101908382118183101715610479576104796103eb565b8160405282815287602084870101111561049257600080fd5b826020860160208301376000928101602001929092525095945050505050565b6000602082840312156104c457600080fd5b5035919050565b600080604083850312156104de57600080fd5b6104e7836103ad565b9150602083013580151581146104fc57600080fd5b809150509250929050565b6000806040838503121561051a57600080fd5b8235915061052a602084016103ad565b9050925092905056fea26469706673582212209b44f86201bf23c926be1f9e420e735b9c2e7a369c5bbfae49944e494ccb774664736f6c634300080b0033",
  "linkReferences": {},
  "deployedLinkReferences": {}
}