{
  "_format": "hh-sol-artifact-1",
  "contractName": "ERC721HandlerUpgradeable",
  "sourceName": "contracts/handlers/ERC721HandlerUpgradeable.sol",
  "abi": [
    {
      "inputs": [],
      "name": "_bridgeAddress",
      "outputs": [
        {
          "internalType": "address",
          "name": "",
          "type": "address"
        }
      ],
      "stateMutability": "view",
      "type": "function"
    },
    {
      "inputs": [
        {
          "internalType": "address",
          "name": "",
          "type": "address"
        }
      ],
      "name": "_burnList",
      "outputs": [
        {
          "internalType": "bool",
          "name": "",
          "type": "bool"
        }
      ],
      "stateMutability": "view",
      "type": "function"
    },
    {
      "inputs": [
        {
          "internalType": "address",
          "name": "",
          "type": "address"
        }
      ],
      "name": "_contractWhitelist",
      "outputs": [
        {
          "internalType": "bool",
          "name": "",
          "type": "bool"
        }
      ],
      "stateMutability": "view",
      "type": "function"
    },
    {
      "inputs": [
        {
          "internalType": "bytes32",
          "name": "",
          "type": "bytes32"
        }
      ],
      "name": "_resourceIDToTokenContractAddress",
      "outputs": [
        {
          "internalType": "address",
          "name": "",
          "type": "address"
        }
      ],
      "stateMutability": "view",
      "type": "function"
    },
    {
      "inputs": [
        {
          "internalType": "address",
          "name": "",
          "type": "address"
        }
      ],
      "name": "_tokenContractAddressToResourceID",
      "outputs": [
        {
          "internalType": "bytes32",
          "name": "",
          "type": "bytes32"
        }
      ],
      "stateMutability": "view",
      "type": "function"
    },
    {
      "inputs": [
        {
          "internalType": "bytes32",
          "name": "resourceID",
          "type": "bytes32"
        },
        {
          "internalType": "address",
          "name": "depositor",
          "type": "address"
        },
        {
          "internalType": "bytes",
          "name": "data",
          "type": "bytes"
        }
      ],
      "name": "deposit",
      "outputs": [
        {
          "internalType": "bytes",
          "name": "metaData",
          "type": "bytes"
        }
      ],
      "stateMutability": "payable",
      "type": "function"
    },
    {
      "inputs": [
        {
          "internalType": "bytes32",
          "name": "resourceID",
          "type": "bytes32"
        },
        {
          "internalType": "bytes",
          "name": "data",
          "type": "bytes"
        }
      ],
      "name": "executeProposal",
      "outputs": [],
      "stateMutability": "nonpayable",
      "type": "function"
    },
    {
      "inputs": [
        {
          "internalType": "address",
          "name": "bridgeAddress",
          "type": "address"
        }
      ],
      "name": "initialize",
      "outputs": [],
      "stateMutability": "nonpayable",
      "type": "function"
    },
    {
      "inputs": [
        {
          "internalType": "address",
          "name": "",
          "type": "address"
        }
      ],
      "name": "isNative",
      "outputs": [
        {
          "internalType": "bool",
          "name": "",
          "type": "bool"
        }
      ],
      "stateMutability": "view",
      "type": "function"
    },
    {
      "inputs": [
        {
          "internalType": "address",
          "name": "contractAddress",
          "type": "address"
        }
      ],
      "name": "setBurnable",
      "outputs": [],
      "stateMutability": "nonpayable",
      "type": "function"
    },
    {
      "inputs": [
        {
          "internalType": "address",
          "name": "nativeAddress",
          "type": "address"
        },
        {
          "internalType": "bool",
          "name": "_isNative",
          "type": "bool"
        }
      ],
      "name": "setNative",
      "outputs": [],
      "stateMutability": "nonpayable",
      "type": "function"
    },
    {
      "inputs": [
        {
          "internalType": "bytes32",
          "name": "resourceID",
          "type": "bytes32"
        },
        {
          "internalType": "address",
          "name": "contractAddress",
          "type": "address"
        }
      ],
      "name": "setResource",
      "outputs": [],
      "stateMutability": "nonpayable",
      "type": "function"
    },
    {
      "inputs": [
        {
          "internalType": "bytes",
          "name": "data",
          "type": "bytes"
        }
      ],
      "name": "withdraw",
      "outputs": [],
      "stateMutability": "nonpayable",
      "type": "function"
    },
    {
      "inputs": [
        {
          "internalType": "bytes",
          "name": "data",
          "type": "bytes"
        }
      ],
      "name": "withdrawETH",
      "outputs": [],
      "stateMutability": "nonpayable",
      "type": "function"
    }
  ],
  "bytecode": "0x608060405234801561001057600080fd5b506111af806100206000396000f3fe6080604052600436106100dd5760003560e01c8063ab5c7bf11161007f578063b8fa373611610059578063b8fa37361461029b578063c4d66de8146102bb578063c8ba6c87146102db578063e248cff21461031657600080fd5b8063ab5c7bf11461022d578063b07e54bb1461024b578063b2b8b5dd1461026b57600080fd5b8063318c136e116100bb578063318c136e146101775780636a70d0811461019d578063789d7711146101dd5780637f79bea8146101fd57600080fd5b806307b7ed99146100e25780630968f264146101045780630a6d55d814610124575b600080fd5b3480156100ee57600080fd5b506101026100fd366004610c46565b610336565b005b34801561011057600080fd5b5061010261011f366004610cd9565b610347565b34801561013057600080fd5b5061015a61013f366004610d59565b6001602052600090815260409020546001600160a01b031681565b6040516001600160a01b0390911681526020015b60405180910390f35b34801561018357600080fd5b5060005461015a906201000090046001600160a01b031681565b3480156101a957600080fd5b506101cd6101b8366004610c46565b60046020526000908152604090205460ff1681565b604051901515815260200161016e565b3480156101e957600080fd5b506101026101f8366004610d80565b610381565b34801561020957600080fd5b506101cd610218366004610c46565b60036020526000908152604090205460ff1681565b34801561023957600080fd5b50610102610248366004610cd9565b50565b61025e610259366004610e02565b6103b4565b60405161016e9190610eb6565b34801561027757600080fd5b506101cd610286366004610c46565b60056020526000908152604090205460ff1681565b3480156102a757600080fd5b506101026102b6366004610ec9565b610533565b3480156102c757600080fd5b506101026102d6366004610c46565b61058f565b3480156102e757600080fd5b506103086102f6366004610c46565b60026020526000908152604090205481565b60405190815260200161016e565b34801561032257600080fd5b50610102610331366004610eee565b61060a565b61033e61079f565b61024881610801565b61034f61079f565b6000806000838060200190518101906103689190610f3a565b9194509250905061037b83308484610899565b50505050565b61038961079f565b6001600160a01b03919091166000908152600560205260409020805460ff1916911515919091179055565b60606103be61079f565b34156104025760405162461bcd60e51b815260206004820152600e60248201526d06d73672e76616c756520213d20360941b60448201526064015b60405180910390fd5b600061041083850185610d59565b6000878152600160209081526040808320546001600160a01b03168084526003909252909120549192509060ff1661045a5760405162461bcd60e51b81526004016103f990610f7d565b6104746001600160a01b038216635b5e139f60e01b61090e565b156104ec5760405163c87b56dd60e01b81526004810183905281906001600160a01b0382169063c87b56dd90602401600060405180830381865afa1580156104c0573d6000803e3d6000fd5b505050506040513d6000823e601f3d908101601f191682016040526104e89190810190610fc5565b9350505b6001600160a01b03811660009081526004602052604090205460ff161561051d57610518818784610933565b610529565b61052981873085610899565b5050949350505050565b61053b61079f565b600082815260016020818152604080842080546001600160a01b0319166001600160a01b0387169081179091558452600282528084208690556003909152909120805460ff191690911790555050565b5050565b600054610100900460ff166105aa5760005460ff16156105ae565b303b155b6105ca5760405162461bcd60e51b81526004016103f99061103c565b600054610100900460ff161580156105ec576000805461ffff19166101011790555b6105f582610a4f565b801561058b576000805461ff00191690555050565b61061261079f565b60008060608180826106268789018961108a565b90965094506106368560406110ac565b9250610645836040898b6110d2565b8080601f01602080910402602001604051908101604052809392919081815260200183838082843760009201919091525092965061068b9250899150859050818b6110d2565b8101906106989190610d59565b915087876106a78560206110ac565b90846106b48760206110ac565b6106be91906110ac565b926106cb939291906110d2565b8080601f01602080910402602001604051908101604052809392919081815260200183838082843760009201829052506020898101518f8352600182526040808420546001600160a01b0316808552600390935290922054959650909490935060ff16915061074e90505760405162461bcd60e51b81526004016103f990610f7d565b6001600160a01b03811660009081526004602052604090205460ff16156107835761077e818360601c8a86610ae3565b610792565b61079281308460601c8b610899565b5050505050505050505050565b6000546201000090046001600160a01b031633146107ff5760405162461bcd60e51b815260206004820152601e60248201527f73656e646572206d7573742062652062726964676520636f6e7472616374000060448201526064016103f9565b565b6001600160a01b03811660009081526003602052604090205460ff166108755760405162461bcd60e51b8152602060048201526024808201527f70726f766964656420636f6e7472616374206973206e6f742077686974656c696044820152631cdd195960e21b60648201526084016103f9565b6001600160a01b03166000908152600460205260409020805460ff19166001179055565b6040516323b872dd60e01b81526001600160a01b0384811660048301528381166024830152604482018390528591908216906323b872dd906064015b600060405180830381600087803b1580156108ef57600080fd5b505af1158015610903573d6000803e3d6000fd5b505050505050505050565b600061091983610b15565b801561092a575061092a8383610b48565b90505b92915050565b6040516331a9108f60e11b81526004810182905283906001600160a01b038481169190831690636352211e90602401602060405180830381865afa15801561097f573d6000803e3d6000fd5b505050506040513d601f19601f820116820180604052508101906109a391906110fc565b6001600160a01b0316146109ef5760405162461bcd60e51b8152602060048201526013602482015272213ab937103737ba10333937b69037bbb732b960691b60448201526064016103f9565b604051630852cd8d60e31b8152600481018390526001600160a01b038216906342966c6890602401600060405180830381600087803b158015610a3157600080fd5b505af1158015610a45573d6000803e3d6000fd5b5050505050505050565b600054610100900460ff16610a6a5760005460ff1615610a6e565b303b155b610a8a5760405162461bcd60e51b81526004016103f99061103c565b600054610100900460ff16158015610aac576000805461ffff19166101011790555b6000805462010000600160b01b031916620100006001600160a01b03851602179055801561058b576000805461ff00191690555050565b6040516334ff261960e21b815284906001600160a01b0382169063d3fc9864906108d590879087908790600401611119565b6000610b28826301ffc9a760e01b610b48565b801561092d5750610b41826001600160e01b0319610b48565b1592915050565b604080516001600160e01b0319831660248083019190915282518083039091018152604490910182526020810180516001600160e01b03166301ffc9a760e01b179052905160009190829081906001600160a01b0387169061753090610baf908690611140565b6000604051808303818686fa925050503d8060008114610beb576040519150601f19603f3d011682016040523d82523d6000602084013e610bf0565b606091505b5091509150602081511015610c0b576000935050505061092d565b818015610c27575080806020019051810190610c27919061115c565b9695505050505050565b6001600160a01b038116811461024857600080fd5b600060208284031215610c5857600080fd5b8135610c6381610c31565b9392505050565b634e487b7160e01b600052604160045260246000fd5b604051601f8201601f1916810167ffffffffffffffff81118282101715610ca957610ca9610c6a565b604052919050565b600067ffffffffffffffff821115610ccb57610ccb610c6a565b50601f01601f191660200190565b600060208284031215610ceb57600080fd5b813567ffffffffffffffff811115610d0257600080fd5b8201601f81018413610d1357600080fd5b8035610d26610d2182610cb1565b610c80565b818152856020838501011115610d3b57600080fd5b81602084016020830137600091810160200191909152949350505050565b600060208284031215610d6b57600080fd5b5035919050565b801515811461024857600080fd5b60008060408385031215610d9357600080fd5b8235610d9e81610c31565b91506020830135610dae81610d72565b809150509250929050565b60008083601f840112610dcb57600080fd5b50813567ffffffffffffffff811115610de357600080fd5b602083019150836020828501011115610dfb57600080fd5b9250929050565b60008060008060608587031215610e1857600080fd5b843593506020850135610e2a81610c31565b9250604085013567ffffffffffffffff811115610e4657600080fd5b610e5287828801610db9565b95989497509550505050565b60005b83811015610e79578181015183820152602001610e61565b8381111561037b5750506000910152565b60008151808452610ea2816020860160208601610e5e565b601f01601f19169290920160200192915050565b60208152600061092a6020830184610e8a565b60008060408385031215610edc57600080fd5b823591506020830135610dae81610c31565b600080600060408486031215610f0357600080fd5b83359250602084013567ffffffffffffffff811115610f2157600080fd5b610f2d86828701610db9565b9497909650939450505050565b600080600060608486031215610f4f57600080fd5b8351610f5a81610c31565b6020850151909350610f6b81610c31565b80925050604084015190509250925092565b60208082526028908201527f70726f766964656420746f6b656e41646472657373206973206e6f74207768696040820152671d195b1a5cdd195960c21b606082015260800190565b600060208284031215610fd757600080fd5b815167ffffffffffffffff811115610fee57600080fd5b8201601f81018413610fff57600080fd5b805161100d610d2182610cb1565b81815285602083850101111561102257600080fd5b611033826020830160208601610e5e565b95945050505050565b6020808252602e908201527f496e697469616c697a61626c653a20636f6e747261637420697320616c72656160408201526d191e481a5b9a5d1a585b1a5e995960921b606082015260800190565b6000806040838503121561109d57600080fd5b50508035926020909101359150565b600082198211156110cd57634e487b7160e01b600052601160045260246000fd5b500190565b600080858511156110e257600080fd5b838611156110ef57600080fd5b5050820193919092039150565b60006020828403121561110e57600080fd5b8151610c6381610c31565b60018060a01b03841681528260208201526060604082015260006110336060830184610e8a565b60008251611152818460208701610e5e565b9190910192915050565b60006020828403121561116e57600080fd5b8151610c6381610d7256fea26469706673582212200596784e8b90f263e5464794f1313a07c85fe7652c5a310a4cb181a3614fc02564736f6c634300080b0033",
  "linkReferences": {},
  "deployedLinkReferences": {}
}