{
  "_format": "hh-sol-artifact-1",
  "contractName": "ERC721HandlerUpgradeable",
  "sourceName": "contracts/handlers/ERC721HandlerUpgradeable.sol",
  "abi": [
    {
      "inputs": [],
      "name": "_bridgeAddress",
      "outputs": [
        {
          "internalType": "address",
          "name": "",
          "type": "address"
        }
      ],
      "stateMutability": "view",
      "type": "function"
    },
    {
      "inputs": [
        {
          "internalType": "address",
          "name": "",
          "type": "address"
        }
      ],
      "name": "_burnList",
      "outputs": [
        {
          "internalType": "bool",
          "name": "",
          "type": "bool"
        }
      ],
      "stateMutability": "view",
      "type": "function"
    },
    {
      "inputs": [
        {
          "internalType": "address",
          "name": "",
          "type": "address"
        }
      ],
      "name": "_contractWhitelist",
      "outputs": [
        {
          "internalType": "bool",
          "name": "",
          "type": "bool"
        }
      ],
      "stateMutability": "view",
      "type": "function"
    },
    {
      "inputs": [
        {
          "internalType": "bytes32",
          "name": "",
          "type": "bytes32"
        }
      ],
      "name": "_resourceIDToTokenContractAddress",
      "outputs": [
        {
          "internalType": "address",
          "name": "",
          "type": "address"
        }
      ],
      "stateMutability": "view",
      "type": "function"
    },
    {
      "inputs": [
        {
          "internalType": "address",
          "name": "",
          "type": "address"
        }
      ],
      "name": "_tokenContractAddressToResourceID",
      "outputs": [
        {
          "internalType": "bytes32",
          "name": "",
          "type": "bytes32"
        }
      ],
      "stateMutability": "view",
      "type": "function"
    },
    {
      "inputs": [
        {
          "internalType": "bytes32",
          "name": "resourceID",
          "type": "bytes32"
        },
        {
          "internalType": "address",
          "name": "depositer",
          "type": "address"
        },
        {
          "internalType": "bytes",
          "name": "data",
          "type": "bytes"
        }
      ],
      "name": "deposit",
      "outputs": [
        {
          "internalType": "bytes",
          "name": "metaData",
          "type": "bytes"
        }
      ],
      "stateMutability": "payable",
      "type": "function"
    },
    {
      "inputs": [
        {
          "internalType": "bytes32",
          "name": "resourceID",
          "type": "bytes32"
        },
        {
          "internalType": "bytes",
          "name": "data",
          "type": "bytes"
        }
      ],
      "name": "executeProposal",
      "outputs": [],
      "stateMutability": "nonpayable",
      "type": "function"
    },
    {
      "inputs": [
        {
          "internalType": "address",
          "name": "bridgeAddress",
          "type": "address"
        }
      ],
      "name": "initialize",
      "outputs": [],
      "stateMutability": "nonpayable",
      "type": "function"
    },
    {
      "inputs": [
        {
          "internalType": "address",
          "name": "",
          "type": "address"
        }
      ],
      "name": "isWtoken",
      "outputs": [
        {
          "internalType": "bool",
          "name": "",
          "type": "bool"
        }
      ],
      "stateMutability": "view",
      "type": "function"
    },
    {
      "inputs": [
        {
          "internalType": "address",
          "name": "contractAddress",
          "type": "address"
        }
      ],
      "name": "setBurnable",
      "outputs": [],
      "stateMutability": "nonpayable",
      "type": "function"
    },
    {
      "inputs": [
        {
          "internalType": "bytes32",
          "name": "resourceID",
          "type": "bytes32"
        },
        {
          "internalType": "address",
          "name": "contractAddress",
          "type": "address"
        }
      ],
      "name": "setResource",
      "outputs": [],
      "stateMutability": "nonpayable",
      "type": "function"
    },
    {
      "inputs": [
        {
          "internalType": "address",
          "name": "wtokenAddress",
          "type": "address"
        },
        {
          "internalType": "bool",
          "name": "_isWtoken",
          "type": "bool"
        }
      ],
      "name": "setWtoken",
      "outputs": [],
      "stateMutability": "nonpayable",
      "type": "function"
    },
    {
      "inputs": [
        {
          "internalType": "bytes",
          "name": "data",
          "type": "bytes"
        }
      ],
      "name": "withdraw",
      "outputs": [],
      "stateMutability": "nonpayable",
      "type": "function"
    },
    {
      "inputs": [],
      "name": "wtoken",
      "outputs": [
        {
          "internalType": "address",
          "name": "",
          "type": "address"
        }
      ],
      "stateMutability": "view",
      "type": "function"
    }
  ],
  "bytecode": "0x608060405234801561001057600080fd5b506110de806100206000396000f3fe6080604052600436106100dd5760003560e01c80637f79bea81161007f578063b8fa373611610059578063b8fa37361461029d578063c4d66de8146102bd578063c8ba6c87146102dd578063e248cff21461031857600080fd5b80637f79bea81461022d5780639c0591c81461025d578063b07e54bb1461027d57600080fd5b80630a6d55d8116100bb5780630a6d55d8146101695780632129da19146101b7578063318c136e146101d75780636a70d081146101fd57600080fd5b8063045dff97146100e257806307b7ed99146101275780630968f26414610149575b600080fd5b3480156100ee57600080fd5b506101126100fd366004610b92565b60066020526000908152604090205460ff1681565b60405190151581526020015b60405180910390f35b34801561013357600080fd5b50610147610142366004610b92565b610338565b005b34801561015557600080fd5b50610147610164366004610c25565b61034c565b34801561017557600080fd5b5061019f610184366004610ca5565b6002602052600090815260409020546001600160a01b031681565b6040516001600160a01b03909116815260200161011e565b3480156101c357600080fd5b506101476101d2366004610ccc565b610386565b3480156101e357600080fd5b5060005461019f906201000090046001600160a01b031681565b34801561020957600080fd5b50610112610218366004610b92565b60056020526000908152604090205460ff1681565b34801561023957600080fd5b50610112610248366004610b92565b60046020526000908152604090205460ff1681565b34801561026957600080fd5b5060015461019f906001600160a01b031681565b61029061028b366004610d4e565b6103b9565b60405161011e9190610e02565b3480156102a957600080fd5b506101476102b8366004610e15565b61053b565b3480156102c957600080fd5b506101476102d8366004610b92565b610596565b3480156102e957600080fd5b5061030a6102f8366004610b92565b60036020526000908152604090205481565b60405190815260200161011e565b34801561032457600080fd5b50610147610333366004610e3a565b610611565b6103406107a6565b61034981610808565b50565b6103546107a6565b60008060008380602001905181019061036d9190610e86565b91945092509050610380833084846108a0565b50505050565b61038e6107a6565b6001600160a01b03919091166000908152600660205260409020805460ff1916911515919091179055565b60606103c36107a6565b341561040b5760405162461bcd60e51b81526020600482015260126024820152711b5cd9cb9d985b1d59481b9bdd081b9d5b1b60721b60448201526064015b60405180910390fd5b600061041983850185610ca5565b6000878152600260209081526040808320546001600160a01b03168084526004909252909120549192509060ff166104635760405162461bcd60e51b815260040161040290610ec9565b61047d6001600160a01b038216635b5e139f60e01b610915565b156104f55760405163c87b56dd60e01b81526004810183905281906001600160a01b0382169063c87b56dd90602401600060405180830381865afa1580156104c9573d6000803e3d6000fd5b505050506040513d6000823e601f3d908101601f191682016040526104f19190810190610f11565b9350505b6001600160a01b03811660009081526005602052604090205460ff161561052557610520818361093a565b610531565b610531818730856108a0565b5050949350505050565b6105436107a6565b600082815260026020908152604080832080546001600160a01b0319166001600160a01b03861690811790915583526003825280832085905560049091529020805460ff191660011790555050565b5050565b600054610100900460ff166105b15760005460ff16156105b5565b303b155b6105d15760405162461bcd60e51b815260040161040290610f88565b600054610100900460ff161580156105f3576000805461ffff19166101011790555b6105fc8261099b565b8015610592576000805461ff00191690555050565b6106196107a6565b600080606081808261062d87890189610fd6565b909650945061063d856040610ff8565b925061064c836040898b61101e565b8080601f0160208091040260200160405190810160405280939291908181526020018383808284376000920191909152509296506106929250899150859050818b61101e565b81019061069f9190610ca5565b915087876106ae856020610ff8565b90846106bb876020610ff8565b6106c59190610ff8565b926106d29392919061101e565b8080601f01602080910402602001604051908101604052809392919081815260200183838082843760009201829052506020898101518f8352600282526040808420546001600160a01b0316808552600490935290922054959650909490935060ff16915061075590505760405162461bcd60e51b815260040161040290610ec9565b6001600160a01b03811660009081526005602052604090205460ff161561078a57610785818360601c8a86610a2f565b610799565b61079981308460601c8b6108a0565b5050505050505050505050565b6000546201000090046001600160a01b031633146108065760405162461bcd60e51b815260206004820152601e60248201527f73656e646572206d7573742062652062726964676520636f6e747261637400006044820152606401610402565b565b6001600160a01b03811660009081526004602052604090205460ff1661087c5760405162461bcd60e51b8152602060048201526024808201527f70726f766964656420636f6e7472616374206973206e6f742077686974656c696044820152631cdd195960e21b6064820152608401610402565b6001600160a01b03166000908152600560205260409020805460ff19166001179055565b6040516323b872dd60e01b81526001600160a01b0384811660048301528381166024830152604482018390528591908216906323b872dd906064015b600060405180830381600087803b1580156108f657600080fd5b505af115801561090a573d6000803e3d6000fd5b505050505050505050565b600061092083610a61565b801561093157506109318383610a94565b90505b92915050565b604051630852cd8d60e31b81526004810182905282906001600160a01b038216906342966c6890602401600060405180830381600087803b15801561097e57600080fd5b505af1158015610992573d6000803e3d6000fd5b50505050505050565b600054610100900460ff166109b65760005460ff16156109ba565b303b155b6109d65760405162461bcd60e51b815260040161040290610f88565b600054610100900460ff161580156109f8576000805461ffff19166101011790555b6000805462010000600160b01b031916620100006001600160a01b038516021790558015610592576000805461ff00191690555050565b6040516334ff261960e21b815284906001600160a01b0382169063d3fc9864906108dc90879087908790600401611048565b6000610a74826301ffc9a760e01b610a94565b80156109345750610a8d826001600160e01b0319610a94565b1592915050565b604080516001600160e01b0319831660248083019190915282518083039091018152604490910182526020810180516001600160e01b03166301ffc9a760e01b179052905160009190829081906001600160a01b0387169061753090610afb90869061106f565b6000604051808303818686fa925050503d8060008114610b37576040519150601f19603f3d011682016040523d82523d6000602084013e610b3c565b606091505b5091509150602081511015610b575760009350505050610934565b818015610b73575080806020019051810190610b73919061108b565b9695505050505050565b6001600160a01b038116811461034957600080fd5b600060208284031215610ba457600080fd5b8135610baf81610b7d565b9392505050565b634e487b7160e01b600052604160045260246000fd5b604051601f8201601f1916810167ffffffffffffffff81118282101715610bf557610bf5610bb6565b604052919050565b600067ffffffffffffffff821115610c1757610c17610bb6565b50601f01601f191660200190565b600060208284031215610c3757600080fd5b813567ffffffffffffffff811115610c4e57600080fd5b8201601f81018413610c5f57600080fd5b8035610c72610c6d82610bfd565b610bcc565b818152856020838501011115610c8757600080fd5b81602084016020830137600091810160200191909152949350505050565b600060208284031215610cb757600080fd5b5035919050565b801515811461034957600080fd5b60008060408385031215610cdf57600080fd5b8235610cea81610b7d565b91506020830135610cfa81610cbe565b809150509250929050565b60008083601f840112610d1757600080fd5b50813567ffffffffffffffff811115610d2f57600080fd5b602083019150836020828501011115610d4757600080fd5b9250929050565b60008060008060608587031215610d6457600080fd5b843593506020850135610d7681610b7d565b9250604085013567ffffffffffffffff811115610d9257600080fd5b610d9e87828801610d05565b95989497509550505050565b60005b83811015610dc5578181015183820152602001610dad565b838111156103805750506000910152565b60008151808452610dee816020860160208601610daa565b601f01601f19169290920160200192915050565b6020815260006109316020830184610dd6565b60008060408385031215610e2857600080fd5b823591506020830135610cfa81610b7d565b600080600060408486031215610e4f57600080fd5b83359250602084013567ffffffffffffffff811115610e6d57600080fd5b610e7986828701610d05565b9497909650939450505050565b600080600060608486031215610e9b57600080fd5b8351610ea681610b7d565b6020850151909350610eb781610b7d565b80925050604084015190509250925092565b60208082526028908201527f70726f766964656420746f6b656e41646472657373206973206e6f74207768696040820152671d195b1a5cdd195960c21b606082015260800190565b600060208284031215610f2357600080fd5b815167ffffffffffffffff811115610f3a57600080fd5b8201601f81018413610f4b57600080fd5b8051610f59610c6d82610bfd565b818152856020838501011115610f6e57600080fd5b610f7f826020830160208601610daa565b95945050505050565b6020808252602e908201527f496e697469616c697a61626c653a20636f6e747261637420697320616c72656160408201526d191e481a5b9a5d1a585b1a5e995960921b606082015260800190565b60008060408385031215610fe957600080fd5b50508035926020909101359150565b6000821982111561101957634e487b7160e01b600052601160045260246000fd5b500190565b6000808585111561102e57600080fd5b8386111561103b57600080fd5b5050820193919092039150565b60018060a01b0384168152826020820152606060408201526000610f7f6060830184610dd6565b60008251611081818460208701610daa565b9190910192915050565b60006020828403121561109d57600080fd5b8151610baf81610cbe56fea26469706673582212204efbe66728dccf68c3c81f42da9fedc4ee659c7336330c481afd43f678b6e2c664736f6c634300080b0033",
  "linkReferences": {},
  "deployedLinkReferences": {}
}