{
  "_format": "hh-sol-artifact-1",
  "contractName": "ERC721HandlerUpgradeable",
  "sourceName": "contracts/handlers/ERC721HandlerUpgradeable.sol",
  "abi": [
    {
      "inputs": [],
      "name": "_bridgeAddress",
      "outputs": [
        {
          "internalType": "address",
          "name": "",
          "type": "address"
        }
      ],
      "stateMutability": "view",
      "type": "function"
    },
    {
      "inputs": [
        {
          "internalType": "address",
          "name": "",
          "type": "address"
        }
      ],
      "name": "_burnList",
      "outputs": [
        {
          "internalType": "bool",
          "name": "",
          "type": "bool"
        }
      ],
      "stateMutability": "view",
      "type": "function"
    },
    {
      "inputs": [
        {
          "internalType": "address",
          "name": "",
          "type": "address"
        }
      ],
      "name": "_contractWhitelist",
      "outputs": [
        {
          "internalType": "bool",
          "name": "",
          "type": "bool"
        }
      ],
      "stateMutability": "view",
      "type": "function"
    },
    {
      "inputs": [
        {
          "internalType": "bytes32",
          "name": "",
          "type": "bytes32"
        }
      ],
      "name": "_resourceIDToTokenContractAddress",
      "outputs": [
        {
          "internalType": "address",
          "name": "",
          "type": "address"
        }
      ],
      "stateMutability": "view",
      "type": "function"
    },
    {
      "inputs": [
        {
          "internalType": "address",
          "name": "",
          "type": "address"
        }
      ],
      "name": "_tokenContractAddressToResourceID",
      "outputs": [
        {
          "internalType": "bytes32",
          "name": "",
          "type": "bytes32"
        }
      ],
      "stateMutability": "view",
      "type": "function"
    },
    {
      "inputs": [
        {
          "internalType": "bytes32",
          "name": "resourceID",
          "type": "bytes32"
        },
        {
          "internalType": "address",
          "name": "depositor",
          "type": "address"
        },
        {
          "internalType": "bytes",
          "name": "data",
          "type": "bytes"
        }
      ],
      "name": "deposit",
      "outputs": [
        {
          "internalType": "bytes",
          "name": "metaData",
          "type": "bytes"
        }
      ],
      "stateMutability": "payable",
      "type": "function"
    },
    {
      "inputs": [
        {
          "internalType": "bytes32",
          "name": "resourceID",
          "type": "bytes32"
        },
        {
          "internalType": "bytes",
          "name": "data",
          "type": "bytes"
        }
      ],
      "name": "executeProposal",
      "outputs": [],
      "stateMutability": "nonpayable",
      "type": "function"
    },
    {
      "inputs": [
        {
          "internalType": "address",
          "name": "bridgeAddress",
          "type": "address"
        }
      ],
      "name": "initialize",
      "outputs": [],
      "stateMutability": "nonpayable",
      "type": "function"
    },
    {
      "inputs": [
        {
          "internalType": "address",
          "name": "",
          "type": "address"
        }
      ],
      "name": "isNative",
      "outputs": [
        {
          "internalType": "bool",
          "name": "",
          "type": "bool"
        }
      ],
      "stateMutability": "view",
      "type": "function"
    },
    {
      "inputs": [
        {
          "internalType": "bytes32",
          "name": "resourceID",
          "type": "bytes32"
        },
        {
          "internalType": "address",
          "name": "contractAddress",
          "type": "address"
        }
      ],
      "name": "removeResource",
      "outputs": [],
      "stateMutability": "nonpayable",
      "type": "function"
    },
    {
      "inputs": [
        {
          "internalType": "address",
          "name": "contractAddress",
          "type": "address"
        }
      ],
      "name": "setBurnable",
      "outputs": [],
      "stateMutability": "nonpayable",
      "type": "function"
    },
    {
      "inputs": [
        {
          "internalType": "address",
          "name": "nativeAddress",
          "type": "address"
        },
        {
          "internalType": "bool",
          "name": "_isNative",
          "type": "bool"
        }
      ],
      "name": "setNative",
      "outputs": [],
      "stateMutability": "nonpayable",
      "type": "function"
    },
    {
      "inputs": [
        {
          "internalType": "bytes32",
          "name": "resourceID",
          "type": "bytes32"
        },
        {
          "internalType": "address",
          "name": "contractAddress",
          "type": "address"
        }
      ],
      "name": "setResource",
      "outputs": [],
      "stateMutability": "nonpayable",
      "type": "function"
    },
    {
      "inputs": [
        {
          "internalType": "bytes",
          "name": "data",
          "type": "bytes"
        }
      ],
      "name": "withdraw",
      "outputs": [],
      "stateMutability": "nonpayable",
      "type": "function"
    },
    {
      "inputs": [
        {
          "internalType": "bytes",
          "name": "data",
          "type": "bytes"
        }
      ],
      "name": "withdrawETH",
      "outputs": [],
      "stateMutability": "nonpayable",
      "type": "function"
    }
  ],
  "bytecode": "0x608060405234801561001057600080fd5b50611229806100206000396000f3fe6080604052600436106100e85760003560e01c8063a98157511161008a578063b8fa373611610059578063b8fa3736146102c6578063c4d66de8146102e6578063c8ba6c8714610306578063e248cff21461034157600080fd5b8063a981575114610238578063ab5c7bf114610258578063b07e54bb14610276578063b2b8b5dd1461029657600080fd5b8063318c136e116100c6578063318c136e146101825780636a70d081146101a8578063789d7711146101e85780637f79bea81461020857600080fd5b806307b7ed99146100ed5780630968f2641461010f5780630a6d55d81461012f575b600080fd5b3480156100f957600080fd5b5061010d610108366004610cc0565b610361565b005b34801561011b57600080fd5b5061010d61012a366004610d53565b610372565b34801561013b57600080fd5b5061016561014a366004610dd3565b6001602052600090815260409020546001600160a01b031681565b6040516001600160a01b0390911681526020015b60405180910390f35b34801561018e57600080fd5b50600054610165906201000090046001600160a01b031681565b3480156101b457600080fd5b506101d86101c3366004610cc0565b60046020526000908152604090205460ff1681565b6040519015158152602001610179565b3480156101f457600080fd5b5061010d610203366004610dfa565b6103ac565b34801561021457600080fd5b506101d8610223366004610cc0565b60036020526000908152604090205460ff1681565b34801561024457600080fd5b5061010d610253366004610e33565b6103df565b34801561026457600080fd5b5061010d610273366004610d53565b50565b610289610284366004610ea1565b610432565b6040516101799190610f55565b3480156102a257600080fd5b506101d86102b1366004610cc0565b60056020526000908152604090205460ff1681565b3480156102d257600080fd5b5061010d6102e1366004610e33565b6105b1565b3480156102f257600080fd5b5061010d610301366004610cc0565b610609565b34801561031257600080fd5b50610333610321366004610cc0565b60026020526000908152604090205481565b604051908152602001610179565b34801561034d57600080fd5b5061010d61035c366004610f68565b610684565b610369610819565b6102738161087b565b61037a610819565b6000806000838060200190518101906103939190610fb4565b919450925090506103a683308484610913565b50505050565b6103b4610819565b6001600160a01b03919091166000908152600560205260409020805460ff1916911515919091179055565b6103e7610819565b600091825260016020908152604080842080546001600160a01b03191690556001600160a01b0392909216835260028152818320839055600390529020805460ff19169055565b5050565b606061043c610819565b34156104805760405162461bcd60e51b815260206004820152600e60248201526d06d73672e76616c756520213d20360941b60448201526064015b60405180910390fd5b600061048e83850185610dd3565b6000878152600160209081526040808320546001600160a01b03168084526003909252909120549192509060ff166104d85760405162461bcd60e51b815260040161047790610ff7565b6104f26001600160a01b038216635b5e139f60e01b610988565b1561056a5760405163c87b56dd60e01b81526004810183905281906001600160a01b0382169063c87b56dd90602401600060405180830381865afa15801561053e573d6000803e3d6000fd5b505050506040513d6000823e601f3d908101601f19168201604052610566919081019061103f565b9350505b6001600160a01b03811660009081526004602052604090205460ff161561059b576105968187846109ad565b6105a7565b6105a781873085610913565b5050949350505050565b6105b9610819565b600082815260016020818152604080842080546001600160a01b0319166001600160a01b0387169081179091558452600282528084208690556003909152909120805460ff191690911790555050565b600054610100900460ff166106245760005460ff1615610628565b303b155b6106445760405162461bcd60e51b8152600401610477906110b6565b600054610100900460ff16158015610666576000805461ffff19166101011790555b61066f82610ac9565b801561042e576000805461ff00191690555050565b61068c610819565b60008060608180826106a087890189611104565b90965094506106b0856040611126565b92506106bf836040898b61114c565b8080601f0160208091040260200160405190810160405280939291908181526020018383808284376000920191909152509296506107059250899150859050818b61114c565b8101906107129190610dd3565b91508787610721856020611126565b908461072e876020611126565b6107389190611126565b926107459392919061114c565b8080601f01602080910402602001604051908101604052809392919081815260200183838082843760009201829052506020898101518f8352600182526040808420546001600160a01b0316808552600390935290922054959650909490935060ff1691506107c890505760405162461bcd60e51b815260040161047790610ff7565b6001600160a01b03811660009081526004602052604090205460ff16156107fd576107f8818360601c8a86610b5d565b61080c565b61080c81308460601c8b610913565b5050505050505050505050565b6000546201000090046001600160a01b031633146108795760405162461bcd60e51b815260206004820152601e60248201527f73656e646572206d7573742062652062726964676520636f6e747261637400006044820152606401610477565b565b6001600160a01b03811660009081526003602052604090205460ff166108ef5760405162461bcd60e51b8152602060048201526024808201527f70726f766964656420636f6e7472616374206973206e6f742077686974656c696044820152631cdd195960e21b6064820152608401610477565b6001600160a01b03166000908152600460205260409020805460ff19166001179055565b6040516323b872dd60e01b81526001600160a01b0384811660048301528381166024830152604482018390528591908216906323b872dd906064015b600060405180830381600087803b15801561096957600080fd5b505af115801561097d573d6000803e3d6000fd5b505050505050505050565b600061099383610b8f565b80156109a457506109a48383610bc2565b90505b92915050565b6040516331a9108f60e11b81526004810182905283906001600160a01b038481169190831690636352211e90602401602060405180830381865afa1580156109f9573d6000803e3d6000fd5b505050506040513d601f19601f82011682018060405250810190610a1d9190611176565b6001600160a01b031614610a695760405162461bcd60e51b8152602060048201526013602482015272213ab937103737ba10333937b69037bbb732b960691b6044820152606401610477565b604051630852cd8d60e31b8152600481018390526001600160a01b038216906342966c6890602401600060405180830381600087803b158015610aab57600080fd5b505af1158015610abf573d6000803e3d6000fd5b5050505050505050565b600054610100900460ff16610ae45760005460ff1615610ae8565b303b155b610b045760405162461bcd60e51b8152600401610477906110b6565b600054610100900460ff16158015610b26576000805461ffff19166101011790555b6000805462010000600160b01b031916620100006001600160a01b03851602179055801561042e576000805461ff00191690555050565b6040516334ff261960e21b815284906001600160a01b0382169063d3fc98649061094f90879087908790600401611193565b6000610ba2826301ffc9a760e01b610bc2565b80156109a75750610bbb826001600160e01b0319610bc2565b1592915050565b604080516001600160e01b0319831660248083019190915282518083039091018152604490910182526020810180516001600160e01b03166301ffc9a760e01b179052905160009190829081906001600160a01b0387169061753090610c299086906111ba565b6000604051808303818686fa925050503d8060008114610c65576040519150601f19603f3d011682016040523d82523d6000602084013e610c6a565b606091505b5091509150602081511015610c8557600093505050506109a7565b818015610ca1575080806020019051810190610ca191906111d6565b9695505050505050565b6001600160a01b038116811461027357600080fd5b600060208284031215610cd257600080fd5b8135610cdd81610cab565b9392505050565b634e487b7160e01b600052604160045260246000fd5b604051601f8201601f1916810167ffffffffffffffff81118282101715610d2357610d23610ce4565b604052919050565b600067ffffffffffffffff821115610d4557610d45610ce4565b50601f01601f191660200190565b600060208284031215610d6557600080fd5b813567ffffffffffffffff811115610d7c57600080fd5b8201601f81018413610d8d57600080fd5b8035610da0610d9b82610d2b565b610cfa565b818152856020838501011115610db557600080fd5b81602084016020830137600091810160200191909152949350505050565b600060208284031215610de557600080fd5b5035919050565b801515811461027357600080fd5b60008060408385031215610e0d57600080fd5b8235610e1881610cab565b91506020830135610e2881610dec565b809150509250929050565b60008060408385031215610e4657600080fd5b823591506020830135610e2881610cab565b60008083601f840112610e6a57600080fd5b50813567ffffffffffffffff811115610e8257600080fd5b602083019150836020828501011115610e9a57600080fd5b9250929050565b60008060008060608587031215610eb757600080fd5b843593506020850135610ec981610cab565b9250604085013567ffffffffffffffff811115610ee557600080fd5b610ef187828801610e58565b95989497509550505050565b60005b83811015610f18578181015183820152602001610f00565b838111156103a65750506000910152565b60008151808452610f41816020860160208601610efd565b601f01601f19169290920160200192915050565b6020815260006109a46020830184610f29565b600080600060408486031215610f7d57600080fd5b83359250602084013567ffffffffffffffff811115610f9b57600080fd5b610fa786828701610e58565b9497909650939450505050565b600080600060608486031215610fc957600080fd5b8351610fd481610cab565b6020850151909350610fe581610cab565b80925050604084015190509250925092565b60208082526028908201527f70726f766964656420746f6b656e41646472657373206973206e6f74207768696040820152671d195b1a5cdd195960c21b606082015260800190565b60006020828403121561105157600080fd5b815167ffffffffffffffff81111561106857600080fd5b8201601f8101841361107957600080fd5b8051611087610d9b82610d2b565b81815285602083850101111561109c57600080fd5b6110ad826020830160208601610efd565b95945050505050565b6020808252602e908201527f496e697469616c697a61626c653a20636f6e747261637420697320616c72656160408201526d191e481a5b9a5d1a585b1a5e995960921b606082015260800190565b6000806040838503121561111757600080fd5b50508035926020909101359150565b6000821982111561114757634e487b7160e01b600052601160045260246000fd5b500190565b6000808585111561115c57600080fd5b8386111561116957600080fd5b5050820193919092039150565b60006020828403121561118857600080fd5b8151610cdd81610cab565b60018060a01b03841681528260208201526060604082015260006110ad6060830184610f29565b600082516111cc818460208701610efd565b9190910192915050565b6000602082840312156111e857600080fd5b8151610cdd81610dec56fea2646970667358221220bb62806a57e5c033cd6b0fbf684966e5f4a28e97c4a1bb36c7308a617901371064736f6c634300080b0033",
  "linkReferences": {},
  "deployedLinkReferences": {}
}