{
  "_format": "hh-sol-artifact-1",
  "contractName": "ERC721HandlerUpgradeable",
  "sourceName": "contracts/handlers/ERC721HandlerUpgradeable.sol",
  "abi": [
    {
      "inputs": [],
      "name": "_bridgeAddress",
      "outputs": [
        {
          "internalType": "address",
          "name": "",
          "type": "address"
        }
      ],
      "stateMutability": "view",
      "type": "function"
    },
    {
      "inputs": [
        {
          "internalType": "address",
          "name": "",
          "type": "address"
        }
      ],
      "name": "_burnList",
      "outputs": [
        {
          "internalType": "bool",
          "name": "",
          "type": "bool"
        }
      ],
      "stateMutability": "view",
      "type": "function"
    },
    {
      "inputs": [
        {
          "internalType": "address",
          "name": "",
          "type": "address"
        }
      ],
      "name": "_contractWhitelist",
      "outputs": [
        {
          "internalType": "bool",
          "name": "",
          "type": "bool"
        }
      ],
      "stateMutability": "view",
      "type": "function"
    },
    {
      "inputs": [
        {
          "internalType": "bytes32",
          "name": "",
          "type": "bytes32"
        }
      ],
      "name": "_resourceIDToTokenContractAddress",
      "outputs": [
        {
          "internalType": "address",
          "name": "",
          "type": "address"
        }
      ],
      "stateMutability": "view",
      "type": "function"
    },
    {
      "inputs": [
        {
          "internalType": "address",
          "name": "",
          "type": "address"
        }
      ],
      "name": "_tokenContractAddressToResourceID",
      "outputs": [
        {
          "internalType": "bytes32",
          "name": "",
          "type": "bytes32"
        }
      ],
      "stateMutability": "view",
      "type": "function"
    },
    {
      "inputs": [
        {
          "internalType": "bytes32",
          "name": "resourceID",
          "type": "bytes32"
        },
        {
          "internalType": "address",
          "name": "depositer",
          "type": "address"
        },
        {
          "internalType": "bytes",
          "name": "data",
          "type": "bytes"
        }
      ],
      "name": "deposit",
      "outputs": [
        {
          "internalType": "bytes",
          "name": "metaData",
          "type": "bytes"
        }
      ],
      "stateMutability": "nonpayable",
      "type": "function"
    },
    {
      "inputs": [
        {
          "internalType": "bytes32",
          "name": "resourceID",
          "type": "bytes32"
        },
        {
          "internalType": "bytes",
          "name": "data",
          "type": "bytes"
        }
      ],
      "name": "executeProposal",
      "outputs": [],
      "stateMutability": "nonpayable",
      "type": "function"
    },
    {
      "inputs": [
        {
          "internalType": "address",
          "name": "bridgeAddress",
          "type": "address"
        }
      ],
      "name": "initialize",
      "outputs": [],
      "stateMutability": "nonpayable",
      "type": "function"
    },
    {
      "inputs": [
        {
          "internalType": "address",
          "name": "contractAddress",
          "type": "address"
        }
      ],
      "name": "setBurnable",
      "outputs": [],
      "stateMutability": "nonpayable",
      "type": "function"
    },
    {
      "inputs": [
        {
          "internalType": "bytes32",
          "name": "resourceID",
          "type": "bytes32"
        },
        {
          "internalType": "address",
          "name": "contractAddress",
          "type": "address"
        }
      ],
      "name": "setResource",
      "outputs": [],
      "stateMutability": "nonpayable",
      "type": "function"
    },
    {
      "inputs": [
        {
          "internalType": "bytes",
          "name": "data",
          "type": "bytes"
        }
      ],
      "name": "withdraw",
      "outputs": [],
      "stateMutability": "nonpayable",
      "type": "function"
    }
  ],
  "bytecode": "0x608060405234801561001057600080fd5b50610f10806100206000396000f3fe608060405234801561001057600080fd5b50600436106100a95760003560e01c80637f79bea8116100715780637f79bea814610168578063b07e54bb1461018b578063b8fa3736146101ab578063c4d66de8146101be578063c8ba6c87146101d1578063e248cff2146101ff57600080fd5b806307b7ed99146100ae5780630968f264146100c35780630a6d55d8146100d6578063318c136e1461011c5780636a70d08114610135575b600080fd5b6100c16100bc3660046109fb565b610212565b005b6100c16100d1366004610a8e565b610226565b6100ff6100e4366004610b0e565b6001602052600090815260409020546001600160a01b031681565b6040516001600160a01b0390911681526020015b60405180910390f35b6000546100ff906201000090046001600160a01b031681565b6101586101433660046109fb565b60046020526000908152604090205460ff1681565b6040519015158152602001610113565b6101586101763660046109fb565b60036020526000908152604090205460ff1681565b61019e610199366004610b70565b610260565b6040516101139190610c24565b6100c16101b9366004610c37565b6103a3565b6100c16101cc3660046109fb565b6103ff565b6101f16101df3660046109fb565b60026020526000908152604090205481565b604051908152602001610113565b6100c161020d366004610c67565b61047a565b61021a61060f565b61022381610671565b50565b61022e61060f565b6000806000838060200190518101906102479190610cb3565b9194509250905061025a83308484610709565b50505050565b606061026a61060f565b600061027883850185610b0e565b6000878152600160209081526040808320546001600160a01b03168084526003909252909120549192509060ff166102cb5760405162461bcd60e51b81526004016102c290610cf6565b60405180910390fd5b6102e56001600160a01b038216635b5e139f60e01b61077e565b1561035d5760405163c87b56dd60e01b81526004810183905281906001600160a01b0382169063c87b56dd90602401600060405180830381865afa158015610331573d6000803e3d6000fd5b505050506040513d6000823e601f3d908101601f191682016040526103599190810190610d3e565b9350505b6001600160a01b03811660009081526004602052604090205460ff161561038d5761038881836107a3565b610399565b61039981873085610709565b5050949350505050565b6103ab61060f565b600082815260016020818152604080842080546001600160a01b0319166001600160a01b0387169081179091558452600282528084208690556003909152909120805460ff191690911790555050565b5050565b600054610100900460ff1661041a5760005460ff161561041e565b303b155b61043a5760405162461bcd60e51b81526004016102c290610db5565b600054610100900460ff1615801561045c576000805461ffff19166101011790555b61046582610804565b80156103fb576000805461ff00191690555050565b61048261060f565b600080606081808261049687890189610e03565b90965094506104a6856040610e25565b92506104b5836040898b610e4b565b8080601f0160208091040260200160405190810160405280939291908181526020018383808284376000920191909152509296506104fb9250899150859050818b610e4b565b8101906105089190610b0e565b91508787610517856020610e25565b9084610524876020610e25565b61052e9190610e25565b9261053b93929190610e4b565b8080601f01602080910402602001604051908101604052809392919081815260200183838082843760009201829052506020898101518f8352600182526040808420546001600160a01b0316808552600390935290922054959650909490935060ff1691506105be90505760405162461bcd60e51b81526004016102c290610cf6565b6001600160a01b03811660009081526004602052604090205460ff16156105f3576105ee818360601c8a86610898565b610602565b61060281308460601c8b610709565b5050505050505050505050565b6000546201000090046001600160a01b0316331461066f5760405162461bcd60e51b815260206004820152601e60248201527f73656e646572206d7573742062652062726964676520636f6e7472616374000060448201526064016102c2565b565b6001600160a01b03811660009081526003602052604090205460ff166106e55760405162461bcd60e51b8152602060048201526024808201527f70726f766964656420636f6e7472616374206973206e6f742077686974656c696044820152631cdd195960e21b60648201526084016102c2565b6001600160a01b03166000908152600460205260409020805460ff19166001179055565b6040516323b872dd60e01b81526001600160a01b0384811660048301528381166024830152604482018390528591908216906323b872dd906064015b600060405180830381600087803b15801561075f57600080fd5b505af1158015610773573d6000803e3d6000fd5b505050505050505050565b6000610789836108ca565b801561079a575061079a83836108fd565b90505b92915050565b604051630852cd8d60e31b81526004810182905282906001600160a01b038216906342966c6890602401600060405180830381600087803b1580156107e757600080fd5b505af11580156107fb573d6000803e3d6000fd5b50505050505050565b600054610100900460ff1661081f5760005460ff1615610823565b303b155b61083f5760405162461bcd60e51b81526004016102c290610db5565b600054610100900460ff16158015610861576000805461ffff19166101011790555b6000805462010000600160b01b031916620100006001600160a01b0385160217905580156103fb576000805461ff00191690555050565b6040516334ff261960e21b815284906001600160a01b0382169063d3fc98649061074590879087908790600401610e75565b60006108dd826301ffc9a760e01b6108fd565b801561079d57506108f6826001600160e01b03196108fd565b1592915050565b604080516001600160e01b0319831660248083019190915282518083039091018152604490910182526020810180516001600160e01b03166301ffc9a760e01b179052905160009190829081906001600160a01b0387169061753090610964908690610e9c565b6000604051808303818686fa925050503d80600081146109a0576040519150601f19603f3d011682016040523d82523d6000602084013e6109a5565b606091505b50915091506020815110156109c0576000935050505061079d565b8180156109dc5750808060200190518101906109dc9190610eb8565b9695505050505050565b6001600160a01b038116811461022357600080fd5b600060208284031215610a0d57600080fd5b8135610a18816109e6565b9392505050565b634e487b7160e01b600052604160045260246000fd5b604051601f8201601f1916810167ffffffffffffffff81118282101715610a5e57610a5e610a1f565b604052919050565b600067ffffffffffffffff821115610a8057610a80610a1f565b50601f01601f191660200190565b600060208284031215610aa057600080fd5b813567ffffffffffffffff811115610ab757600080fd5b8201601f81018413610ac857600080fd5b8035610adb610ad682610a66565b610a35565b818152856020838501011115610af057600080fd5b81602084016020830137600091810160200191909152949350505050565b600060208284031215610b2057600080fd5b5035919050565b60008083601f840112610b3957600080fd5b50813567ffffffffffffffff811115610b5157600080fd5b602083019150836020828501011115610b6957600080fd5b9250929050565b60008060008060608587031215610b8657600080fd5b843593506020850135610b98816109e6565b9250604085013567ffffffffffffffff811115610bb457600080fd5b610bc087828801610b27565b95989497509550505050565b60005b83811015610be7578181015183820152602001610bcf565b8381111561025a5750506000910152565b60008151808452610c10816020860160208601610bcc565b601f01601f19169290920160200192915050565b60208152600061079a6020830184610bf8565b60008060408385031215610c4a57600080fd5b823591506020830135610c5c816109e6565b809150509250929050565b600080600060408486031215610c7c57600080fd5b83359250602084013567ffffffffffffffff811115610c9a57600080fd5b610ca686828701610b27565b9497909650939450505050565b600080600060608486031215610cc857600080fd5b8351610cd3816109e6565b6020850151909350610ce4816109e6565b80925050604084015190509250925092565b60208082526028908201527f70726f766964656420746f6b656e41646472657373206973206e6f74207768696040820152671d195b1a5cdd195960c21b606082015260800190565b600060208284031215610d5057600080fd5b815167ffffffffffffffff811115610d6757600080fd5b8201601f81018413610d7857600080fd5b8051610d86610ad682610a66565b818152856020838501011115610d9b57600080fd5b610dac826020830160208601610bcc565b95945050505050565b6020808252602e908201527f496e697469616c697a61626c653a20636f6e747261637420697320616c72656160408201526d191e481a5b9a5d1a585b1a5e995960921b606082015260800190565b60008060408385031215610e1657600080fd5b50508035926020909101359150565b60008219821115610e4657634e487b7160e01b600052601160045260246000fd5b500190565b60008085851115610e5b57600080fd5b83861115610e6857600080fd5b5050820193919092039150565b60018060a01b0384168152826020820152606060408201526000610dac6060830184610bf8565b60008251610eae818460208701610bcc565b9190910192915050565b600060208284031215610eca57600080fd5b81518015158114610a1857600080fdfea264697066735822122032a5e269b659b07b1a2154305eaef8fab16f71493577a29a4fe193d7880f9a2264736f6c634300080b0033",
  "linkReferences": {},
  "deployedLinkReferences": {}
}