{
  "_format": "hh-sol-artifact-1",
  "contractName": "HandlerHelpers",
  "sourceName": "contracts/handlers/HandlerHelpers.sol",
  "abi": [
    {
      "inputs": [
        {
          "internalType": "address",
          "name": "bridgeAddress",
          "type": "address"
        }
      ],
      "stateMutability": "nonpayable",
      "type": "constructor"
    },
    {
      "inputs": [],
      "name": "_bridgeAddress",
      "outputs": [
        {
          "internalType": "address",
          "name": "",
          "type": "address"
        }
      ],
      "stateMutability": "view",
      "type": "function"
    },
    {
      "inputs": [
        {
          "internalType": "address",
          "name": "",
          "type": "address"
        }
      ],
      "name": "_burnList",
      "outputs": [
        {
          "internalType": "bool",
          "name": "",
          "type": "bool"
        }
      ],
      "stateMutability": "view",
      "type": "function"
    },
    {
      "inputs": [
        {
          "internalType": "address",
          "name": "",
          "type": "address"
        }
      ],
      "name": "_contractWhitelist",
      "outputs": [
        {
          "internalType": "bool",
          "name": "",
          "type": "bool"
        }
      ],
      "stateMutability": "view",
      "type": "function"
    },
    {
      "inputs": [
        {
          "internalType": "bytes32",
          "name": "",
          "type": "bytes32"
        }
      ],
      "name": "_resourceIDToTokenContractAddress",
      "outputs": [
        {
          "internalType": "address",
          "name": "",
          "type": "address"
        }
      ],
      "stateMutability": "view",
      "type": "function"
    },
    {
      "inputs": [
        {
          "internalType": "address",
          "name": "",
          "type": "address"
        }
      ],
      "name": "_tokenContractAddressToResourceID",
      "outputs": [
        {
          "internalType": "bytes32",
          "name": "",
          "type": "bytes32"
        }
      ],
      "stateMutability": "view",
      "type": "function"
    },
    {
      "inputs": [
        {
          "internalType": "address",
          "name": "",
          "type": "address"
        }
      ],
      "name": "isWtoken",
      "outputs": [
        {
          "internalType": "bool",
          "name": "",
          "type": "bool"
        }
      ],
      "stateMutability": "view",
      "type": "function"
    },
    {
      "inputs": [
        {
          "internalType": "address",
          "name": "contractAddress",
          "type": "address"
        }
      ],
      "name": "setBurnable",
      "outputs": [],
      "stateMutability": "nonpayable",
      "type": "function"
    },
    {
      "inputs": [
        {
          "internalType": "bytes32",
          "name": "resourceID",
          "type": "bytes32"
        },
        {
          "internalType": "address",
          "name": "contractAddress",
          "type": "address"
        }
      ],
      "name": "setResource",
      "outputs": [],
      "stateMutability": "nonpayable",
      "type": "function"
    },
    {
      "inputs": [
        {
          "internalType": "address",
          "name": "wtokenAddress",
          "type": "address"
        },
        {
          "internalType": "bool",
          "name": "_isWtoken",
          "type": "bool"
        }
      ],
      "name": "setWtoken",
      "outputs": [],
      "stateMutability": "nonpayable",
      "type": "function"
    },
    {
      "inputs": [
        {
          "internalType": "bytes",
          "name": "data",
          "type": "bytes"
        }
      ],
      "name": "withdraw",
      "outputs": [],
      "stateMutability": "nonpayable",
      "type": "function"
    },
    {
      "inputs": [],
      "name": "wtoken",
      "outputs": [
        {
          "internalType": "address",
          "name": "",
          "type": "address"
        }
      ],
      "stateMutability": "view",
      "type": "function"
    }
  ],
  "bytecode": "0x60a060405234801561001057600080fd5b5060405161062238038061062283398101604081905261002f91610040565b6001600160a01b0316608052610070565b60006020828403121561005257600080fd5b81516001600160a01b038116811461006957600080fd5b9392505050565b6080516105906100926000396000818161016501526102c801526105906000f3fe608060405234801561001057600080fd5b50600436106100a95760003560e01c8063318c136e11610071578063318c136e146101605780636a70d081146101875780637f79bea8146101aa5780639c0591c8146101cd578063b8fa3736146101e0578063c8ba6c87146101f357600080fd5b8063045dff97146100ae57806307b7ed99146100e65780630968f264146100fb5780630a6d55d81461010c5780632129da191461014d575b600080fd5b6100d16100bc3660046103f0565b60056020526000908152604090205460ff1681565b60405190151581526020015b60405180910390f35b6100f96100f43660046103f0565b610221565b005b6100f9610109366004610428565b50565b61013561011a3660046104d9565b6001602052600090815260409020546001600160a01b031681565b6040516001600160a01b0390911681526020016100dd565b6100f961015b3660046104f2565b610232565b6101357f000000000000000000000000000000000000000000000000000000000000000081565b6100d16101953660046103f0565b60046020526000908152604090205460ff1681565b6100d16101b83660046103f0565b60036020526000908152604090205460ff1681565b600054610135906001600160a01b031681565b6100f96101ee36600461052e565b610265565b6102136102013660046103f0565b60026020526000908152604090205481565b6040519081526020016100dd565b6102296102bd565b6101098161033c565b61023a6102bd565b6001600160a01b03919091166000908152600560205260409020805460ff1916911515919091179055565b61026d6102bd565b600082815260016020818152604080842080546001600160a01b0319166001600160a01b0387169081179091558452600282528084208690556003909152909120805460ff191690911790555050565b336001600160a01b037f0000000000000000000000000000000000000000000000000000000000000000161461033a5760405162461bcd60e51b815260206004820152601e60248201527f73656e646572206d7573742062652062726964676520636f6e7472616374000060448201526064015b60405180910390fd5b565b6001600160a01b03811660009081526003602052604090205460ff166103b05760405162461bcd60e51b8152602060048201526024808201527f70726f766964656420636f6e7472616374206973206e6f742077686974656c696044820152631cdd195960e21b6064820152608401610331565b6001600160a01b03166000908152600460205260409020805460ff19166001179055565b80356001600160a01b03811681146103eb57600080fd5b919050565b60006020828403121561040257600080fd5b61040b826103d4565b9392505050565b634e487b7160e01b600052604160045260246000fd5b60006020828403121561043a57600080fd5b813567ffffffffffffffff8082111561045257600080fd5b818401915084601f83011261046657600080fd5b81358181111561047857610478610412565b604051601f8201601f19908116603f011681019083821181831017156104a0576104a0610412565b816040528281528760208487010111156104b957600080fd5b826020860160208301376000928101602001929092525095945050505050565b6000602082840312156104eb57600080fd5b5035919050565b6000806040838503121561050557600080fd5b61050e836103d4565b91506020830135801515811461052357600080fd5b809150509250929050565b6000806040838503121561054157600080fd5b82359150610551602084016103d4565b9050925092905056fea264697066735822122090f4058b2147b23f9b4e771a53558d48fbfcfcf2703f145c1b9cde441b62156264736f6c634300080b0033",
  "linkReferences": {},
  "deployedLinkReferences": {}
}