{
  "_format": "hh-sol-artifact-1",
  "contractName": "HandlerHelpers",
  "sourceName": "contracts/handlers/HandlerHelpers.sol",
  "abi": [
    {
      "inputs": [
        {
          "internalType": "address",
          "name": "bridgeAddress",
          "type": "address"
        }
      ],
      "stateMutability": "nonpayable",
      "type": "constructor"
    },
    {
      "inputs": [],
      "name": "_bridgeAddress",
      "outputs": [
        {
          "internalType": "address",
          "name": "",
          "type": "address"
        }
      ],
      "stateMutability": "view",
      "type": "function"
    },
    {
      "inputs": [
        {
          "internalType": "address",
          "name": "",
          "type": "address"
        }
      ],
      "name": "_burnList",
      "outputs": [
        {
          "internalType": "bool",
          "name": "",
          "type": "bool"
        }
      ],
      "stateMutability": "view",
      "type": "function"
    },
    {
      "inputs": [
        {
          "internalType": "address",
          "name": "",
          "type": "address"
        }
      ],
      "name": "_contractWhitelist",
      "outputs": [
        {
          "internalType": "bool",
          "name": "",
          "type": "bool"
        }
      ],
      "stateMutability": "view",
      "type": "function"
    },
    {
      "inputs": [
        {
          "internalType": "bytes32",
          "name": "",
          "type": "bytes32"
        }
      ],
      "name": "_resourceIDToTokenContractAddress",
      "outputs": [
        {
          "internalType": "address",
          "name": "",
          "type": "address"
        }
      ],
      "stateMutability": "view",
      "type": "function"
    },
    {
      "inputs": [
        {
          "internalType": "address",
          "name": "",
          "type": "address"
        }
      ],
      "name": "_tokenContractAddressToResourceID",
      "outputs": [
        {
          "internalType": "bytes32",
          "name": "",
          "type": "bytes32"
        }
      ],
      "stateMutability": "view",
      "type": "function"
    },
    {
      "inputs": [
        {
          "internalType": "address",
          "name": "contractAddress",
          "type": "address"
        }
      ],
      "name": "setBurnable",
      "outputs": [],
      "stateMutability": "nonpayable",
      "type": "function"
    },
    {
      "inputs": [
        {
          "internalType": "bytes32",
          "name": "resourceID",
          "type": "bytes32"
        },
        {
          "internalType": "address",
          "name": "contractAddress",
          "type": "address"
        }
      ],
      "name": "setResource",
      "outputs": [],
      "stateMutability": "nonpayable",
      "type": "function"
    },
    {
      "inputs": [
        {
          "internalType": "bytes",
          "name": "data",
          "type": "bytes"
        }
      ],
      "name": "withdraw",
      "outputs": [],
      "stateMutability": "nonpayable",
      "type": "function"
    }
  ],
  "bytecode": "0x60a060405234801561001057600080fd5b5060405161054538038061054583398101604081905261002f91610040565b6001600160a01b0316608052610070565b60006020828403121561005257600080fd5b81516001600160a01b038116811461006957600080fd5b9392505050565b6080516104b46100916000396000818160fe015261022801526104b46000f3fe608060405234801561001057600080fd5b50600436106100885760003560e01c80636a70d0811161005b5780636a70d081146101205780637f79bea814610153578063b8fa373614610176578063c8ba6c871461018957600080fd5b806307b7ed991461008d5780630968f264146100a25780630a6d55d8146100b3578063318c136e146100f9575b600080fd5b6100a061009b366004610350565b6101b7565b005b6100a06100b0366004610388565b50565b6100dc6100c1366004610439565b6000602081905290815260409020546001600160a01b031681565b6040516001600160a01b0390911681526020015b60405180910390f35b6100dc7f000000000000000000000000000000000000000000000000000000000000000081565b61014361012e366004610350565b60036020526000908152604090205460ff1681565b60405190151581526020016100f0565b610143610161366004610350565b60026020526000908152604090205460ff1681565b6100a0610184366004610452565b6101c8565b6101a9610197366004610350565b60016020526000908152604090205481565b6040519081526020016100f0565b6101bf61021d565b6100b08161029c565b6101d061021d565b60008281526020818152604080832080546001600160a01b0319166001600160a01b039590951694851790559282526001808252838320949094556002905220805460ff19169091179055565b336001600160a01b037f0000000000000000000000000000000000000000000000000000000000000000161461029a5760405162461bcd60e51b815260206004820152601e60248201527f73656e646572206d7573742062652062726964676520636f6e7472616374000060448201526064015b60405180910390fd5b565b6001600160a01b03811660009081526002602052604090205460ff166103105760405162461bcd60e51b8152602060048201526024808201527f70726f766964656420636f6e7472616374206973206e6f742077686974656c696044820152631cdd195960e21b6064820152608401610291565b6001600160a01b03166000908152600360205260409020805460ff19166001179055565b80356001600160a01b038116811461034b57600080fd5b919050565b60006020828403121561036257600080fd5b61036b82610334565b9392505050565b634e487b7160e01b600052604160045260246000fd5b60006020828403121561039a57600080fd5b813567ffffffffffffffff808211156103b257600080fd5b818401915084601f8301126103c657600080fd5b8135818111156103d8576103d8610372565b604051601f8201601f19908116603f0116810190838211818310171561040057610400610372565b8160405282815287602084870101111561041957600080fd5b826020860160208301376000928101602001929092525095945050505050565b60006020828403121561044b57600080fd5b5035919050565b6000806040838503121561046557600080fd5b8235915061047560208401610334565b9050925092905056fea2646970667358221220f0eb735536870a4544bb89f410b5a897a99dfbc4b027f24bd0a4584e101a5c6a64736f6c634300080b0033",
  "linkReferences": {},
  "deployedLinkReferences": {}
}