{
  "_format": "hh-sol-artifact-1",
  "contractName": "BasicFeeHandler",
  "sourceName": "contracts/handlers/fee/BasicFeeHandler.sol",
  "abi": [
    {
      "inputs": [
        {
          "internalType": "address",
          "name": "bridgeAddress",
          "type": "address"
        }
      ],
      "stateMutability": "nonpayable",
      "type": "constructor"
    },
    {
      "anonymous": false,
      "inputs": [
        {
          "indexed": false,
          "internalType": "uint256",
          "name": "newFee",
          "type": "uint256"
        }
      ],
      "name": "FeeChanged",
      "type": "event"
    },
    {
      "anonymous": false,
      "inputs": [
        {
          "indexed": false,
          "internalType": "address",
          "name": "sender",
          "type": "address"
        },
        {
          "indexed": false,
          "internalType": "uint8",
          "name": "fromDomainID",
          "type": "uint8"
        },
        {
          "indexed": false,
          "internalType": "uint8",
          "name": "destinationDomainID",
          "type": "uint8"
        },
        {
          "indexed": false,
          "internalType": "bytes32",
          "name": "resourceID",
          "type": "bytes32"
        },
        {
          "indexed": false,
          "internalType": "uint256",
          "name": "fee",
          "type": "uint256"
        },
        {
          "indexed": false,
          "internalType": "address",
          "name": "tokenAddress",
          "type": "address"
        }
      ],
      "name": "FeeCollected",
      "type": "event"
    },
    {
      "anonymous": false,
      "inputs": [
        {
          "indexed": false,
          "internalType": "address",
          "name": "tokenAddress",
          "type": "address"
        },
        {
          "indexed": false,
          "internalType": "address",
          "name": "recipient",
          "type": "address"
        },
        {
          "indexed": false,
          "internalType": "uint256",
          "name": "amount",
          "type": "uint256"
        }
      ],
      "name": "FeeDistributed",
      "type": "event"
    },
    {
      "anonymous": false,
      "inputs": [
        {
          "indexed": true,
          "internalType": "bytes32",
          "name": "role",
          "type": "bytes32"
        },
        {
          "indexed": true,
          "internalType": "address",
          "name": "account",
          "type": "address"
        },
        {
          "indexed": true,
          "internalType": "address",
          "name": "sender",
          "type": "address"
        }
      ],
      "name": "RoleGranted",
      "type": "event"
    },
    {
      "anonymous": false,
      "inputs": [
        {
          "indexed": true,
          "internalType": "bytes32",
          "name": "role",
          "type": "bytes32"
        },
        {
          "indexed": true,
          "internalType": "address",
          "name": "account",
          "type": "address"
        },
        {
          "indexed": true,
          "internalType": "address",
          "name": "sender",
          "type": "address"
        }
      ],
      "name": "RoleRevoked",
      "type": "event"
    },
    {
      "inputs": [],
      "name": "DEFAULT_ADMIN_ROLE",
      "outputs": [
        {
          "internalType": "bytes32",
          "name": "",
          "type": "bytes32"
        }
      ],
      "stateMutability": "view",
      "type": "function"
    },
    {
      "inputs": [],
      "name": "_bridgeAddress",
      "outputs": [
        {
          "internalType": "address",
          "name": "",
          "type": "address"
        }
      ],
      "stateMutability": "view",
      "type": "function"
    },
    {
      "inputs": [],
      "name": "_fee",
      "outputs": [
        {
          "internalType": "uint256",
          "name": "",
          "type": "uint256"
        }
      ],
      "stateMutability": "view",
      "type": "function"
    },
    {
      "inputs": [
        {
          "internalType": "address",
          "name": "sender",
          "type": "address"
        },
        {
          "internalType": "uint8",
          "name": "fromDomainID",
          "type": "uint8"
        },
        {
          "internalType": "uint8",
          "name": "destinationDomainID",
          "type": "uint8"
        },
        {
          "internalType": "bytes32",
          "name": "resourceID",
          "type": "bytes32"
        },
        {
          "internalType": "bytes",
          "name": "depositData",
          "type": "bytes"
        },
        {
          "internalType": "bytes",
          "name": "feeData",
          "type": "bytes"
        }
      ],
      "name": "calculateFee",
      "outputs": [
        {
          "internalType": "uint256",
          "name": "",
          "type": "uint256"
        },
        {
          "internalType": "address",
          "name": "",
          "type": "address"
        }
      ],
      "stateMutability": "view",
      "type": "function"
    },
    {
      "inputs": [
        {
          "internalType": "uint256",
          "name": "newFee",
          "type": "uint256"
        }
      ],
      "name": "changeFee",
      "outputs": [],
      "stateMutability": "nonpayable",
      "type": "function"
    },
    {
      "inputs": [
        {
          "internalType": "address",
          "name": "sender",
          "type": "address"
        },
        {
          "internalType": "uint8",
          "name": "fromDomainID",
          "type": "uint8"
        },
        {
          "internalType": "uint8",
          "name": "destinationDomainID",
          "type": "uint8"
        },
        {
          "internalType": "bytes32",
          "name": "resourceID",
          "type": "bytes32"
        },
        {
          "internalType": "bytes",
          "name": "depositData",
          "type": "bytes"
        },
        {
          "internalType": "bytes",
          "name": "feeData",
          "type": "bytes"
        }
      ],
      "name": "collectFee",
      "outputs": [],
      "stateMutability": "payable",
      "type": "function"
    },
    {
      "inputs": [
        {
          "internalType": "bytes32",
          "name": "role",
          "type": "bytes32"
        }
      ],
      "name": "getRoleAdmin",
      "outputs": [
        {
          "internalType": "bytes32",
          "name": "",
          "type": "bytes32"
        }
      ],
      "stateMutability": "view",
      "type": "function"
    },
    {
      "inputs": [
        {
          "internalType": "bytes32",
          "name": "role",
          "type": "bytes32"
        },
        {
          "internalType": "uint256",
          "name": "index",
          "type": "uint256"
        }
      ],
      "name": "getRoleMember",
      "outputs": [
        {
          "internalType": "address",
          "name": "",
          "type": "address"
        }
      ],
      "stateMutability": "view",
      "type": "function"
    },
    {
      "inputs": [
        {
          "internalType": "bytes32",
          "name": "role",
          "type": "bytes32"
        }
      ],
      "name": "getRoleMemberCount",
      "outputs": [
        {
          "internalType": "uint256",
          "name": "",
          "type": "uint256"
        }
      ],
      "stateMutability": "view",
      "type": "function"
    },
    {
      "inputs": [
        {
          "internalType": "bytes32",
          "name": "role",
          "type": "bytes32"
        },
        {
          "internalType": "address",
          "name": "account",
          "type": "address"
        }
      ],
      "name": "getRoleMemberIndex",
      "outputs": [
        {
          "internalType": "uint256",
          "name": "",
          "type": "uint256"
        }
      ],
      "stateMutability": "view",
      "type": "function"
    },
    {
      "inputs": [
        {
          "internalType": "bytes32",
          "name": "role",
          "type": "bytes32"
        },
        {
          "internalType": "address",
          "name": "account",
          "type": "address"
        }
      ],
      "name": "grantRole",
      "outputs": [],
      "stateMutability": "nonpayable",
      "type": "function"
    },
    {
      "inputs": [
        {
          "internalType": "bytes32",
          "name": "role",
          "type": "bytes32"
        },
        {
          "internalType": "address",
          "name": "account",
          "type": "address"
        }
      ],
      "name": "hasRole",
      "outputs": [
        {
          "internalType": "bool",
          "name": "",
          "type": "bool"
        }
      ],
      "stateMutability": "view",
      "type": "function"
    },
    {
      "inputs": [
        {
          "internalType": "address",
          "name": "newAdmin",
          "type": "address"
        }
      ],
      "name": "renounceAdmin",
      "outputs": [],
      "stateMutability": "nonpayable",
      "type": "function"
    },
    {
      "inputs": [
        {
          "internalType": "bytes32",
          "name": "role",
          "type": "bytes32"
        },
        {
          "internalType": "address",
          "name": "account",
          "type": "address"
        }
      ],
      "name": "renounceRole",
      "outputs": [],
      "stateMutability": "nonpayable",
      "type": "function"
    },
    {
      "inputs": [
        {
          "internalType": "bytes32",
          "name": "role",
          "type": "bytes32"
        },
        {
          "internalType": "address",
          "name": "account",
          "type": "address"
        }
      ],
      "name": "revokeRole",
      "outputs": [],
      "stateMutability": "nonpayable",
      "type": "function"
    },
    {
      "inputs": [
        {
          "internalType": "uint8",
          "name": "fromDomainID",
          "type": "uint8"
        },
        {
          "internalType": "uint256",
          "name": "_specialFee",
          "type": "uint256"
        }
      ],
      "name": "setSpecialFee",
      "outputs": [],
      "stateMutability": "nonpayable",
      "type": "function"
    },
    {
      "inputs": [
        {
          "internalType": "uint8",
          "name": "",
          "type": "uint8"
        }
      ],
      "name": "special",
      "outputs": [
        {
          "internalType": "bool",
          "name": "",
          "type": "bool"
        }
      ],
      "stateMutability": "view",
      "type": "function"
    },
    {
      "inputs": [
        {
          "internalType": "uint8",
          "name": "",
          "type": "uint8"
        }
      ],
      "name": "specialFee",
      "outputs": [
        {
          "internalType": "uint256",
          "name": "",
          "type": "uint256"
        }
      ],
      "stateMutability": "view",
      "type": "function"
    },
    {
      "inputs": [
        {
          "internalType": "address payable[]",
          "name": "addrs",
          "type": "address[]"
        },
        {
          "internalType": "uint256[]",
          "name": "amounts",
          "type": "uint256[]"
        }
      ],
      "name": "transferFee",
      "outputs": [],
      "stateMutability": "nonpayable",
      "type": "function"
    }
  ],
  "bytecode": "0x60a06040523480156200001157600080fd5b50604051620012fa380380620012fa83398101604081905262000034916200013e565b6001600160a01b0381166080526200004e60003362000055565b5062000170565b62000061828262000065565b5050565b6000828152602081815260409091206200008a91839062000aea620000cc821b17901c565b15620000615760405133906001600160a01b0383169084907f2f8788117e7eff1d82e926ec794901d17c78024a50270940304540a733656f0d90600090a45050565b6000620000e3836001600160a01b038416620000ec565b90505b92915050565b60008181526001830160205260408120546200013557508154600181810184556000848152602080822090930184905584548482528286019093526040902091909155620000e6565b506000620000e6565b6000602082840312156200015157600080fd5b81516001600160a01b03811681146200016957600080fd5b9392505050565b60805161116762000193600039600081816101a30152610b0a01526111676000f3fe6080604052600436106101145760003560e01c80636a1db1bf116100a0578063b67a4aaf11610064578063b67a4aaf14610332578063c5b37c221461035f578063ca15c87314610375578063d547741f14610395578063ef4f081f146103b557600080fd5b80636a1db1bf1461029d5780639010d07c146102bd578063904e9b2b146102dd57806391d14854146102fd578063a217fddf1461031d57600080fd5b806336568abe116100e757806336568abe146101dd5780634e0df3f6146101fd578063563a5ab01461021d5780635e1fab0f1461023d57806362abd9ce1461025d57600080fd5b8063248a9ca314610119578063253070651461015c5780632f2ff15d14610171578063318c136e14610191575b600080fd5b34801561012557600080fd5b50610149610134366004610de4565b60009081526020819052604090206002015490565b6040519081526020015b60405180910390f35b61016f61016a366004610e74565b6103f2565b005b34801561017d57600080fd5b5061016f61018c366004610f21565b6104ec565b34801561019d57600080fd5b506101c57f000000000000000000000000000000000000000000000000000000000000000081565b6040516001600160a01b039091168152602001610153565b3480156101e957600080fd5b5061016f6101f8366004610f21565b61057a565b34801561020957600080fd5b50610149610218366004610f21565b6105f4565b34801561022957600080fd5b5061016f610238366004610f51565b61061f565b34801561024957600080fd5b5061016f610258366004610f7b565b610671565b34801561026957600080fd5b5061028d610278366004610f98565b60036020526000908152604090205460ff1681565b6040519015158152602001610153565b3480156102a957600080fd5b5061016f6102b8366004610de4565b610708565b3480156102c957600080fd5b506101c56102d8366004610fb3565b6107bc565b3480156102e957600080fd5b5061016f6102f836600461101a565b6107db565b34801561030957600080fd5b5061028d610318366004610f21565b6109f0565b34801561032957600080fd5b50610149600081565b34801561033e57600080fd5b5061014961034d366004610f98565b60026020526000908152604090205481565b34801561036b57600080fd5b5061014960015481565b34801561038157600080fd5b50610149610390366004610de4565b610a08565b3480156103a157600080fd5b5061016f6103b0366004610f21565b610a1f565b3480156103c157600080fd5b506103d56103d0366004610e74565b610aa0565b604080519283526001600160a01b03909116602083015201610153565b6103fa610aff565b60ff80871660009081526003602052604081205490911661041d57600154610431565b60ff87166000908152600260205260409020545b90508034146104805760405162461bcd60e51b8152602060048201526016602482015275125b98dbdc9c9958dd08199959481cdd5c1c1b1a595960521b60448201526064015b60405180910390fd5b604080516001600160a01b038b16815260ff8a811660208301528916818301526060810188905260808101839052600060a082015290517fbd231b7fa4103e15e7a238c72f07e8aff310701af121895aa6c793b80245e4339181900360c00190a1505050505050505050565b60008281526020819052604090206002015461050890336109f0565b61056c5760405162461bcd60e51b815260206004820152602f60248201527f416363657373436f6e74726f6c3a2073656e646572206d75737420626520616e60448201526e0818591b5a5b881d1bc819dc985b9d608a1b6064820152608401610477565b6105768282610b79565b5050565b6001600160a01b03811633146105ea5760405162461bcd60e51b815260206004820152602f60248201527f416363657373436f6e74726f6c3a2063616e206f6e6c792072656e6f756e636560448201526e103937b632b9903337b91039b2b63360891b6064820152608401610477565b6105768282610bd2565b6000828152602081815260408083206001600160a01b03851684526001019091529020545b92915050565b61062a6000336109f0565b6106465760405162461bcd60e51b815260040161047790611086565b60ff9091166000908152600360209081526040808320805460ff191660011790556002909152902055565b61067c6000336109f0565b6106985760405162461bcd60e51b815260040161047790611086565b336001600160a01b0382168114156106f25760405162461bcd60e51b815260206004820152601760248201527f43616e6e6f742072656e6f756e6365206f6e6573656c660000000000000000006044820152606401610477565b6106fd6000836104ec565b61057660008261057a565b6107136000336109f0565b61072f5760405162461bcd60e51b815260040161047790611086565b8060015414156107815760405162461bcd60e51b815260206004820152601f60248201527f43757272656e742066656520697320657175616c20746f206e657720666565006044820152606401610477565b60018190556040518181527f6bbc57480a46553fa4d156ce702beef5f3ad66303b0ed1a5d4cb44966c6584c39060200160405180910390a150565b60008281526020819052604081206107d49083610c2b565b9392505050565b6107e66000336109f0565b6108025760405162461bcd60e51b815260040161047790611086565b8281146108515760405162461bcd60e51b815260206004820152601f60248201527f61646472735b5d2c20616d6f756e74735b5d3a2064696666206c656e677468006044820152606401610477565b60005b838110156109e9576000858583818110610870576108706110bd565b90506020020160208101906108859190610f7b565b6001600160a01b03168484848181106108a0576108a06110bd565b9050602002013560405160006040518083038185875af1925050503d80600081146108e7576040519150601f19603f3d011682016040523d82523d6000602084013e6108ec565b606091505b505090508061093d5760405162461bcd60e51b815260206004820152601960248201527f466565206574686572207472616e73666572206661696c6564000000000000006044820152606401610477565b7faaa40a232aaf133fdd28f3485f6fdd163514cfadbffa981f3610f42398efe34b6000878785818110610972576109726110bd565b90506020020160208101906109879190610f7b565b868686818110610999576109996110bd565b905060200201356040516109ce939291906001600160a01b039384168152919092166020820152604081019190915260600190565b60405180910390a150806109e1816110e9565b915050610854565b5050505050565b60008281526020819052604081206107d49083610c37565b600081815260208190526040812061061990610c59565b600082815260208190526040902060020154610a3b90336109f0565b6105ea5760405162461bcd60e51b815260206004820152603060248201527f416363657373436f6e74726f6c3a2073656e646572206d75737420626520616e60448201526f2061646d696e20746f207265766f6b6560801b6064820152608401610477565b60ff8087166000908152600360205260408120549091829116610ac557600154610ad9565b60ff88166000908152600260205260409020545b9a60009a5098505050505050505050565b60006107d4836001600160a01b038416610c63565b336001600160a01b037f00000000000000000000000000000000000000000000000000000000000000001614610b775760405162461bcd60e51b815260206004820152601e60248201527f73656e646572206d7573742062652062726964676520636f6e747261637400006044820152606401610477565b565b6000828152602081905260409020610b919082610aea565b156105765760405133906001600160a01b0383169084907f2f8788117e7eff1d82e926ec794901d17c78024a50270940304540a733656f0d90600090a45050565b6000828152602081905260409020610bea9082610cb2565b156105765760405133906001600160a01b0383169084907ff6391f5c32d9c69d2a47ea670b442974b53935d1edc7fd64eb21e047a839171b90600090a45050565b60006107d48383610cc7565b6001600160a01b038116600090815260018301602052604081205415156107d4565b6000610619825490565b6000818152600183016020526040812054610caa57508154600181810184556000848152602080822090930184905584548482528286019093526040902091909155610619565b506000610619565b60006107d4836001600160a01b038416610cf1565b6000826000018281548110610cde57610cde6110bd565b9060005260206000200154905092915050565b60008181526001830160205260408120548015610dda576000610d15600183611104565b8554909150600090610d2990600190611104565b9050818114610d8e576000866000018281548110610d4957610d496110bd565b9060005260206000200154905080876000018481548110610d6c57610d6c6110bd565b6000918252602080832090910192909255918252600188019052604090208390555b8554869080610d9f57610d9f61111b565b600190038181906000526020600020016000905590558560010160008681526020019081526020016000206000905560019350505050610619565b6000915050610619565b600060208284031215610df657600080fd5b5035919050565b6001600160a01b0381168114610e1257600080fd5b50565b803560ff81168114610e2657600080fd5b919050565b60008083601f840112610e3d57600080fd5b50813567ffffffffffffffff811115610e5557600080fd5b602083019150836020828501011115610e6d57600080fd5b9250929050565b60008060008060008060008060c0898b031215610e9057600080fd5b8835610e9b81610dfd565b9750610ea960208a01610e15565b9650610eb760408a01610e15565b955060608901359450608089013567ffffffffffffffff80821115610edb57600080fd5b610ee78c838d01610e2b565b909650945060a08b0135915080821115610f0057600080fd5b50610f0d8b828c01610e2b565b999c989b5096995094979396929594505050565b60008060408385031215610f3457600080fd5b823591506020830135610f4681610dfd565b809150509250929050565b60008060408385031215610f6457600080fd5b610f6d83610e15565b946020939093013593505050565b600060208284031215610f8d57600080fd5b81356107d481610dfd565b600060208284031215610faa57600080fd5b6107d482610e15565b60008060408385031215610fc657600080fd5b50508035926020909101359150565b60008083601f840112610fe757600080fd5b50813567ffffffffffffffff811115610fff57600080fd5b6020830191508360208260051b8501011115610e6d57600080fd5b6000806000806040858703121561103057600080fd5b843567ffffffffffffffff8082111561104857600080fd5b61105488838901610fd5565b9096509450602087013591508082111561106d57600080fd5b5061107a87828801610fd5565b95989497509550505050565b6020808252601e908201527f73656e64657220646f65736e277420686176652061646d696e20726f6c650000604082015260600190565b634e487b7160e01b600052603260045260246000fd5b634e487b7160e01b600052601160045260246000fd5b60006000198214156110fd576110fd6110d3565b5060010190565b600082821015611116576111166110d3565b500390565b634e487b7160e01b600052603160045260246000fdfea2646970667358221220e4fb5990f61c0163dc1881a9df0d042237d2af3bef315258312c72f5ed1d2fda64736f6c634300080b0033",
  "linkReferences": {},
  "deployedLinkReferences": {}
}