{
  "_format": "hh-sol-artifact-1",
  "contractName": "GenericHandlerUpgradeable",
  "sourceName": "contracts/handlers/GenericHandlerUpgradeable.sol",
  "abi": [
    {
      "inputs": [],
      "name": "_bridgeAddress",
      "outputs": [
        {
          "internalType": "address",
          "name": "",
          "type": "address"
        }
      ],
      "stateMutability": "view",
      "type": "function"
    },
    {
      "inputs": [
        {
          "internalType": "address",
          "name": "",
          "type": "address"
        }
      ],
      "name": "_contractAddressToDepositFunctionDepositorOffset",
      "outputs": [
        {
          "internalType": "uint256",
          "name": "",
          "type": "uint256"
        }
      ],
      "stateMutability": "view",
      "type": "function"
    },
    {
      "inputs": [
        {
          "internalType": "address",
          "name": "",
          "type": "address"
        }
      ],
      "name": "_contractAddressToDepositFunctionSignature",
      "outputs": [
        {
          "internalType": "bytes4",
          "name": "",
          "type": "bytes4"
        }
      ],
      "stateMutability": "view",
      "type": "function"
    },
    {
      "inputs": [
        {
          "internalType": "address",
          "name": "",
          "type": "address"
        }
      ],
      "name": "_contractAddressToExecuteFunctionSignature",
      "outputs": [
        {
          "internalType": "bytes4",
          "name": "",
          "type": "bytes4"
        }
      ],
      "stateMutability": "view",
      "type": "function"
    },
    {
      "inputs": [
        {
          "internalType": "address",
          "name": "",
          "type": "address"
        }
      ],
      "name": "_contractAddressToResourceID",
      "outputs": [
        {
          "internalType": "bytes32",
          "name": "",
          "type": "bytes32"
        }
      ],
      "stateMutability": "view",
      "type": "function"
    },
    {
      "inputs": [
        {
          "internalType": "address",
          "name": "",
          "type": "address"
        }
      ],
      "name": "_contractWhitelist",
      "outputs": [
        {
          "internalType": "bool",
          "name": "",
          "type": "bool"
        }
      ],
      "stateMutability": "view",
      "type": "function"
    },
    {
      "inputs": [
        {
          "internalType": "bytes32",
          "name": "",
          "type": "bytes32"
        }
      ],
      "name": "_resourceIDToContractAddress",
      "outputs": [
        {
          "internalType": "address",
          "name": "",
          "type": "address"
        }
      ],
      "stateMutability": "view",
      "type": "function"
    },
    {
      "inputs": [
        {
          "internalType": "bytes32",
          "name": "resourceID",
          "type": "bytes32"
        },
        {
          "internalType": "address",
          "name": "depositor",
          "type": "address"
        },
        {
          "internalType": "bytes",
          "name": "data",
          "type": "bytes"
        }
      ],
      "name": "deposit",
      "outputs": [
        {
          "internalType": "bytes",
          "name": "",
          "type": "bytes"
        }
      ],
      "stateMutability": "nonpayable",
      "type": "function"
    },
    {
      "inputs": [
        {
          "internalType": "bytes32",
          "name": "resourceID",
          "type": "bytes32"
        },
        {
          "internalType": "bytes",
          "name": "data",
          "type": "bytes"
        }
      ],
      "name": "executeProposal",
      "outputs": [],
      "stateMutability": "nonpayable",
      "type": "function"
    },
    {
      "inputs": [
        {
          "internalType": "address",
          "name": "bridgeAddress",
          "type": "address"
        }
      ],
      "name": "initialize",
      "outputs": [],
      "stateMutability": "nonpayable",
      "type": "function"
    },
    {
      "inputs": [
        {
          "internalType": "bytes32",
          "name": "resourceID",
          "type": "bytes32"
        },
        {
          "internalType": "address",
          "name": "contractAddress",
          "type": "address"
        },
        {
          "internalType": "bytes4",
          "name": "depositFunctionSig",
          "type": "bytes4"
        },
        {
          "internalType": "uint256",
          "name": "depositFunctionDepositorOffset",
          "type": "uint256"
        },
        {
          "internalType": "bytes4",
          "name": "executeFunctionSig",
          "type": "bytes4"
        }
      ],
      "name": "setResource",
      "outputs": [],
      "stateMutability": "nonpayable",
      "type": "function"
    }
  ],
  "bytecode": "0x608060405234801561001057600080fd5b50610c8d806100206000396000f3fe608060405234801561001057600080fd5b50600436106100a95760003560e01c8063c4d66de811610071578063c4d66de8146101a1578063c54c2a11146101b6578063cb624463146101df578063de319d9914610202578063e248cff214610215578063ec97d3b41461022857600080fd5b8063318c136e146100ae5780637f79bea8146100e45780638843a70a14610117578063a5c3a98514610145578063b07e54bb14610181575b600080fd5b6000546100c7906201000090046001600160a01b031681565b6040516001600160a01b0390911681526020015b60405180910390f35b6101076100f2366004610973565b60066020526000908152604090205460ff1681565b60405190151581526020016100db565b610137610125366004610973565b60046020526000908152604090205481565b6040519081526020016100db565b610168610153366004610973565b60056020526000908152604090205460e01b81565b6040516001600160e01b031990911681526020016100db565b61019461018f3660046109de565b610248565b6040516100db9190610a68565b6101b46101af366004610973565b6104a3565b005b6100c76101c4366004610a9b565b6001602052600090815260409020546001600160a01b031681565b6101686101ed366004610973565b60036020526000908152604090205460e01b81565b6101b4610210366004610acc565b61057f565b6101b4610223366004610b23565b61059b565b610137610236366004610973565b60026020526000908152604090205481565b6060610252610758565b6000606061026284860186610a9b565b9150846020856102728583610b6f565b9261027f93929190610b95565b8080601f01602080910402602001604051908101604052809392919081815260200183838082843760009201829052508b8152600160209081526040808320546001600160a01b0316808452600490925290912054949550939250508115905061034d57828101602001516001600160a01b038916606082901c1461034b5760405162461bcd60e51b815260206004820152601f60248201527f696e636f7272656374206465706f7369746f7220696e2074686520646174610060448201526064015b60405180910390fd5b505b6001600160a01b03821660009081526006602052604090205460ff166103855760405162461bcd60e51b815260040161034290610bbf565b6001600160a01b03821660009081526003602052604090205460e01b6001600160e01b031981161561049557600081856040516020016103c6929190610c0a565b6040516020818303038152906040529050600080856001600160a01b0316836040516103f29190610c3b565b6000604051808303816000865af19150503d806000811461042f576040519150601f19603f3d011682016040523d82523d6000602084013e610434565b606091505b5091509150816104865760405162461bcd60e51b815260206004820152601e60248201527f63616c6c20746f20636f6e747261637441646472657373206661696c656400006044820152606401610342565b975061049b9650505050505050565b50505050505b949350505050565b600054610100900460ff166104be5760005460ff16156104c2565b303b155b6105255760405162461bcd60e51b815260206004820152602e60248201527f496e697469616c697a61626c653a20636f6e747261637420697320616c72656160448201526d191e481a5b9a5d1a585b1a5e995960921b6064820152608401610342565b600054610100900460ff16158015610547576000805461ffff19166101011790555b6000805462010000600160b01b031916620100006001600160a01b03851602179055801561057b576000805461ff00191690555b5050565b610587610758565b61059485858585856107ba565b5050505050565b6105a3610758565b600060606105b383850185610a9b565b9150836020846105c38583610b6f565b926105d093929190610b95565b8080601f0160208091040260200160405190810160405280939291908181526020018383808284376000920182905250898152600160209081526040808320546001600160a01b03168084526006909252909120549495509360ff16925061064d9150505760405162461bcd60e51b815260040161034290610bbf565b6001600160a01b03811660009081526005602052604090205460e01b6001600160e01b031981161561074f576000818460405160200161068e929190610c0a565b60405160208183030381529060405290506000836001600160a01b0316826040516106b99190610c3b565b6000604051808303816000865af19150503d80600081146106f6576040519150601f19603f3d011682016040523d82523d6000602084013e6106fb565b606091505b505090508061074c5760405162461bcd60e51b815260206004820152601e60248201527f63616c6c20746f20636f6e747261637441646472657373206661696c656400006044820152606401610342565b50505b50505050505050565b6000546201000090046001600160a01b031633146107b85760405162461bcd60e51b815260206004820152601e60248201527f73656e646572206d7573742062652062726964676520636f6e747261637400006044820152606401610342565b565b6000858152600160205260409020546001600160a01b03161561083e5760405162461bcd60e51b815260206004820152603660248201527f5f7265736f757263654944546f436f6e7472616374416464726573735b7265736044820152756f7572636549445d20213d206164647265737328302960501b6064820152608401610342565b600085815260016020908152604080832080546001600160a01b0319166001600160a01b03891690811790915583526002909152902054156108e85760405162461bcd60e51b815260206004820152603b60248201527f5f636f6e747261637441646472657373546f5265736f7572636549445b636f6e60448201527f7472616374416464726573735d20213d206279746573333228302900000000006064820152608401610342565b6001600160a01b039390931660009081526002602090815260408083209690965560038152858220805463ffffffff1990811660e096871c1790915560048252868320939093556005815285822080549093169490931c9390931790556006905220805460ff19166001179055565b80356001600160a01b038116811461096e57600080fd5b919050565b60006020828403121561098557600080fd5b61098e82610957565b9392505050565b60008083601f8401126109a757600080fd5b50813567ffffffffffffffff8111156109bf57600080fd5b6020830191508360208285010111156109d757600080fd5b9250929050565b600080600080606085870312156109f457600080fd5b84359350610a0460208601610957565b9250604085013567ffffffffffffffff811115610a2057600080fd5b610a2c87828801610995565b95989497509550505050565b60005b83811015610a53578181015183820152602001610a3b565b83811115610a62576000848401525b50505050565b6020815260008251806020840152610a87816040850160208701610a38565b601f01601f19169190910160400192915050565b600060208284031215610aad57600080fd5b5035919050565b80356001600160e01b03198116811461096e57600080fd5b600080600080600060a08688031215610ae457600080fd5b85359450610af460208701610957565b9350610b0260408701610ab4565b925060608601359150610b1760808701610ab4565b90509295509295909350565b600080600060408486031215610b3857600080fd5b83359250602084013567ffffffffffffffff811115610b5657600080fd5b610b6286828701610995565b9497909650939450505050565b60008219821115610b9057634e487b7160e01b600052601160045260246000fd5b500190565b60008085851115610ba557600080fd5b83861115610bb257600080fd5b5050820193919092039150565b6020808252602b908201527f70726f766964656420636f6e747261637441646472657373206973206e6f742060408201526a1dda1a5d195b1a5cdd195960aa1b606082015260800190565b6001600160e01b0319831681528151600090610c2d816004850160208701610a38565b919091016004019392505050565b60008251610c4d818460208701610a38565b919091019291505056fea26469706673582212207c6cbe7428e52fb1ce00eb8b182c55b13a3edcf19fcffae11dbd6b0f099a336d64736f6c634300080b0033",
  "linkReferences": {},
  "deployedLinkReferences": {}
}