{
  "contractName": "Bridge",
  "abi": [
    {
      "inputs": [
        {
          "internalType": "uint8",
          "name": "domainID",
          "type": "uint8"
        },
        {
          "internalType": "address[]",
          "name": "initialRelayers",
          "type": "address[]"
        },
        {
          "internalType": "uint256",
          "name": "initialRelayerThreshold",
          "type": "uint256"
        },
        {
          "internalType": "uint256",
          "name": "expiry",
          "type": "uint256"
        }
      ],
      "stateMutability": "nonpayable",
      "type": "constructor"
    },
    {
      "inputs": [
        {
          "internalType": "uint256",
          "name": "msgValue",
          "type": "uint256"
        },
        {
          "internalType": "uint256",
          "name": "fee",
          "type": "uint256"
        }
      ],
      "name": "IncorrectFeeSupplied",
      "type": "error"
    },
    {
      "inputs": [
        {
          "internalType": "address",
          "name": "signer",
          "type": "address"
        },
        {
          "internalType": "uint256",
          "name": "index",
          "type": "uint256"
        }
      ],
      "name": "InviladSignature",
      "type": "error"
    },
    {
      "inputs": [],
      "name": "ResourceIDNotMappedToHandler",
      "type": "error"
    },
    {
      "anonymous": false,
      "inputs": [
        {
          "indexed": false,
          "internalType": "uint8",
          "name": "destinationDomainID",
          "type": "uint8"
        },
        {
          "indexed": false,
          "internalType": "bytes32",
          "name": "resourceID",
          "type": "bytes32"
        },
        {
          "indexed": false,
          "internalType": "uint64",
          "name": "depositNonce",
          "type": "uint64"
        },
        {
          "indexed": true,
          "internalType": "address",
          "name": "user",
          "type": "address"
        },
        {
          "indexed": false,
          "internalType": "bytes",
          "name": "data",
          "type": "bytes"
        },
        {
          "indexed": false,
          "internalType": "bytes",
          "name": "handlerResponse",
          "type": "bytes"
        }
      ],
      "name": "Deposit",
      "type": "event"
    },
    {
      "anonymous": false,
      "inputs": [
        {
          "indexed": false,
          "internalType": "bytes",
          "name": "lowLevelData",
          "type": "bytes"
        }
      ],
      "name": "FailedHandlerExecution",
      "type": "event"
    },
    {
      "anonymous": false,
      "inputs": [
        {
          "indexed": false,
          "internalType": "address",
          "name": "newFeeHandler",
          "type": "address"
        }
      ],
      "name": "FeeHandlerChanged",
      "type": "event"
    },
    {
      "anonymous": false,
      "inputs": [
        {
          "indexed": false,
          "internalType": "address",
          "name": "account",
          "type": "address"
        }
      ],
      "name": "Paused",
      "type": "event"
    },
    {
      "anonymous": false,
      "inputs": [
        {
          "indexed": false,
          "internalType": "uint8",
          "name": "originDomainID",
          "type": "uint8"
        },
        {
          "indexed": false,
          "internalType": "uint64",
          "name": "depositNonce",
          "type": "uint64"
        },
        {
          "indexed": false,
          "internalType": "enum IBridge.ProposalStatus",
          "name": "status",
          "type": "uint8"
        },
        {
          "indexed": false,
          "internalType": "bytes32",
          "name": "dataHash",
          "type": "bytes32"
        }
      ],
      "name": "ProposalEvent",
      "type": "event"
    },
    {
      "anonymous": false,
      "inputs": [
        {
          "indexed": false,
          "internalType": "uint8",
          "name": "originDomainID",
          "type": "uint8"
        },
        {
          "indexed": false,
          "internalType": "uint64",
          "name": "depositNonce",
          "type": "uint64"
        },
        {
          "indexed": false,
          "internalType": "enum IBridge.ProposalStatus",
          "name": "status",
          "type": "uint8"
        },
        {
          "indexed": false,
          "internalType": "bytes32",
          "name": "dataHash",
          "type": "bytes32"
        }
      ],
      "name": "ProposalVote",
      "type": "event"
    },
    {
      "anonymous": false,
      "inputs": [
        {
          "indexed": false,
          "internalType": "address",
          "name": "relayer",
          "type": "address"
        }
      ],
      "name": "RelayerAdded",
      "type": "event"
    },
    {
      "anonymous": false,
      "inputs": [
        {
          "indexed": false,
          "internalType": "address",
          "name": "relayer",
          "type": "address"
        }
      ],
      "name": "RelayerRemoved",
      "type": "event"
    },
    {
      "anonymous": false,
      "inputs": [
        {
          "indexed": false,
          "internalType": "uint256",
          "name": "newThreshold",
          "type": "uint256"
        }
      ],
      "name": "RelayerThresholdChanged",
      "type": "event"
    },
    {
      "anonymous": false,
      "inputs": [
        {
          "indexed": true,
          "internalType": "bytes32",
          "name": "role",
          "type": "bytes32"
        },
        {
          "indexed": true,
          "internalType": "address",
          "name": "account",
          "type": "address"
        },
        {
          "indexed": true,
          "internalType": "address",
          "name": "sender",
          "type": "address"
        }
      ],
      "name": "RoleGranted",
      "type": "event"
    },
    {
      "anonymous": false,
      "inputs": [
        {
          "indexed": true,
          "internalType": "bytes32",
          "name": "role",
          "type": "bytes32"
        },
        {
          "indexed": true,
          "internalType": "address",
          "name": "account",
          "type": "address"
        },
        {
          "indexed": true,
          "internalType": "address",
          "name": "sender",
          "type": "address"
        }
      ],
      "name": "RoleRevoked",
      "type": "event"
    },
    {
      "anonymous": false,
      "inputs": [
        {
          "indexed": false,
          "internalType": "address",
          "name": "account",
          "type": "address"
        }
      ],
      "name": "Unpaused",
      "type": "event"
    },
    {
      "inputs": [],
      "name": "DEFAULT_ADMIN_ROLE",
      "outputs": [
        {
          "internalType": "bytes32",
          "name": "",
          "type": "bytes32"
        }
      ],
      "stateMutability": "view",
      "type": "function"
    },
    {
      "inputs": [],
      "name": "MAX_RELAYERS",
      "outputs": [
        {
          "internalType": "uint256",
          "name": "",
          "type": "uint256"
        }
      ],
      "stateMutability": "view",
      "type": "function"
    },
    {
      "inputs": [],
      "name": "PERMIT_TYPEHASH",
      "outputs": [
        {
          "internalType": "bytes32",
          "name": "",
          "type": "bytes32"
        }
      ],
      "stateMutability": "view",
      "type": "function"
    },
    {
      "inputs": [],
      "name": "RELAYER_ROLE",
      "outputs": [
        {
          "internalType": "bytes32",
          "name": "",
          "type": "bytes32"
        }
      ],
      "stateMutability": "view",
      "type": "function"
    },
    {
      "inputs": [
        {
          "internalType": "uint8",
          "name": "",
          "type": "uint8"
        }
      ],
      "name": "_depositCounts",
      "outputs": [
        {
          "internalType": "uint64",
          "name": "",
          "type": "uint64"
        }
      ],
      "stateMutability": "view",
      "type": "function"
    },
    {
      "inputs": [],
      "name": "_domainID",
      "outputs": [
        {
          "internalType": "uint8",
          "name": "",
          "type": "uint8"
        }
      ],
      "stateMutability": "view",
      "type": "function"
    },
    {
      "inputs": [],
      "name": "_expiry",
      "outputs": [
        {
          "internalType": "uint40",
          "name": "",
          "type": "uint40"
        }
      ],
      "stateMutability": "view",
      "type": "function"
    },
    {
      "inputs": [],
      "name": "_feeHandler",
      "outputs": [
        {
          "internalType": "contract IFeeHandler",
          "name": "",
          "type": "address"
        }
      ],
      "stateMutability": "view",
      "type": "function"
    },
    {
      "inputs": [],
      "name": "_relayerThreshold",
      "outputs": [
        {
          "internalType": "uint8",
          "name": "",
          "type": "uint8"
        }
      ],
      "stateMutability": "view",
      "type": "function"
    },
    {
      "inputs": [
        {
          "internalType": "bytes32",
          "name": "",
          "type": "bytes32"
        }
      ],
      "name": "_resourceIDToHandlerAddress",
      "outputs": [
        {
          "internalType": "address",
          "name": "",
          "type": "address"
        }
      ],
      "stateMutability": "view",
      "type": "function"
    },
    {
      "inputs": [
        {
          "internalType": "bytes32",
          "name": "role",
          "type": "bytes32"
        }
      ],
      "name": "getRoleAdmin",
      "outputs": [
        {
          "internalType": "bytes32",
          "name": "",
          "type": "bytes32"
        }
      ],
      "stateMutability": "view",
      "type": "function"
    },
    {
      "inputs": [
        {
          "internalType": "bytes32",
          "name": "role",
          "type": "bytes32"
        },
        {
          "internalType": "uint256",
          "name": "index",
          "type": "uint256"
        }
      ],
      "name": "getRoleMember",
      "outputs": [
        {
          "internalType": "address",
          "name": "",
          "type": "address"
        }
      ],
      "stateMutability": "view",
      "type": "function"
    },
    {
      "inputs": [
        {
          "internalType": "bytes32",
          "name": "role",
          "type": "bytes32"
        }
      ],
      "name": "getRoleMemberCount",
      "outputs": [
        {
          "internalType": "uint256",
          "name": "",
          "type": "uint256"
        }
      ],
      "stateMutability": "view",
      "type": "function"
    },
    {
      "inputs": [
        {
          "internalType": "bytes32",
          "name": "role",
          "type": "bytes32"
        },
        {
          "internalType": "address",
          "name": "account",
          "type": "address"
        }
      ],
      "name": "getRoleMemberIndex",
      "outputs": [
        {
          "internalType": "uint256",
          "name": "",
          "type": "uint256"
        }
      ],
      "stateMutability": "view",
      "type": "function"
    },
    {
      "inputs": [
        {
          "internalType": "bytes32",
          "name": "role",
          "type": "bytes32"
        },
        {
          "internalType": "address",
          "name": "account",
          "type": "address"
        }
      ],
      "name": "grantRole",
      "outputs": [],
      "stateMutability": "nonpayable",
      "type": "function"
    },
    {
      "inputs": [
        {
          "internalType": "bytes32",
          "name": "role",
          "type": "bytes32"
        },
        {
          "internalType": "address",
          "name": "account",
          "type": "address"
        }
      ],
      "name": "hasRole",
      "outputs": [
        {
          "internalType": "bool",
          "name": "",
          "type": "bool"
        }
      ],
      "stateMutability": "view",
      "type": "function"
    },
    {
      "inputs": [
        {
          "internalType": "address",
          "name": "",
          "type": "address"
        }
      ],
      "name": "isValidForwarder",
      "outputs": [
        {
          "internalType": "bool",
          "name": "",
          "type": "bool"
        }
      ],
      "stateMutability": "view",
      "type": "function"
    },
    {
      "inputs": [],
      "name": "paused",
      "outputs": [
        {
          "internalType": "bool",
          "name": "",
          "type": "bool"
        }
      ],
      "stateMutability": "view",
      "type": "function"
    },
    {
      "inputs": [
        {
          "internalType": "bytes32",
          "name": "role",
          "type": "bytes32"
        },
        {
          "internalType": "address",
          "name": "account",
          "type": "address"
        }
      ],
      "name": "renounceRole",
      "outputs": [],
      "stateMutability": "nonpayable",
      "type": "function"
    },
    {
      "inputs": [
        {
          "internalType": "bytes32",
          "name": "role",
          "type": "bytes32"
        },
        {
          "internalType": "address",
          "name": "account",
          "type": "address"
        }
      ],
      "name": "revokeRole",
      "outputs": [],
      "stateMutability": "nonpayable",
      "type": "function"
    },
    {
      "inputs": [],
      "name": "_fee",
      "outputs": [
        {
          "internalType": "uint256",
          "name": "",
          "type": "uint256"
        }
      ],
      "stateMutability": "view",
      "type": "function"
    },
    {
      "inputs": [
        {
          "internalType": "uint8",
          "name": "destinationDomainID",
          "type": "uint8"
        },
        {
          "internalType": "bytes32",
          "name": "resourceID",
          "type": "bytes32"
        },
        {
          "internalType": "bytes",
          "name": "depositData",
          "type": "bytes"
        },
        {
          "internalType": "bytes",
          "name": "feeData",
          "type": "bytes"
        }
      ],
      "name": "calculateFee",
      "outputs": [
        {
          "internalType": "uint256",
          "name": "",
          "type": "uint256"
        }
      ],
      "stateMutability": "view",
      "type": "function"
    },
    {
      "inputs": [],
      "name": "_chainId",
      "outputs": [
        {
          "internalType": "uint256",
          "name": "",
          "type": "uint256"
        }
      ],
      "stateMutability": "view",
      "type": "function"
    },
    {
      "inputs": [
        {
          "internalType": "uint72",
          "name": "destNonce",
          "type": "uint72"
        },
        {
          "internalType": "bytes32",
          "name": "dataHash",
          "type": "bytes32"
        },
        {
          "internalType": "address",
          "name": "relayer",
          "type": "address"
        }
      ],
      "name": "_hasVotedOnProposal",
      "outputs": [
        {
          "internalType": "bool",
          "name": "",
          "type": "bool"
        }
      ],
      "stateMutability": "view",
      "type": "function"
    },
    {
      "inputs": [
        {
          "internalType": "address",
          "name": "relayer",
          "type": "address"
        }
      ],
      "name": "isRelayer",
      "outputs": [
        {
          "internalType": "bool",
          "name": "",
          "type": "bool"
        }
      ],
      "stateMutability": "view",
      "type": "function"
    },
    {
      "inputs": [
        {
          "internalType": "address",
          "name": "newAdmin",
          "type": "address"
        }
      ],
      "name": "renounceAdmin",
      "outputs": [],
      "stateMutability": "nonpayable",
      "type": "function"
    },
    {
      "inputs": [],
      "name": "adminPauseTransfers",
      "outputs": [],
      "stateMutability": "nonpayable",
      "type": "function"
    },
    {
      "inputs": [],
      "name": "adminUnpauseTransfers",
      "outputs": [],
      "stateMutability": "nonpayable",
      "type": "function"
    },
    {
      "inputs": [
        {
          "internalType": "uint256",
          "name": "newThreshold",
          "type": "uint256"
        }
      ],
      "name": "adminChangeRelayerThreshold",
      "outputs": [],
      "stateMutability": "nonpayable",
      "type": "function"
    },
    {
      "inputs": [
        {
          "internalType": "address",
          "name": "relayerAddress",
          "type": "address"
        }
      ],
      "name": "adminAddRelayer",
      "outputs": [],
      "stateMutability": "nonpayable",
      "type": "function"
    },
    {
      "inputs": [
        {
          "internalType": "address",
          "name": "relayerAddress",
          "type": "address"
        }
      ],
      "name": "adminRemoveRelayer",
      "outputs": [],
      "stateMutability": "nonpayable",
      "type": "function"
    },
    {
      "inputs": [
        {
          "internalType": "address",
          "name": "handlerAddress",
          "type": "address"
        },
        {
          "internalType": "bytes32",
          "name": "resourceID",
          "type": "bytes32"
        },
        {
          "internalType": "address",
          "name": "tokenAddress",
          "type": "address"
        }
      ],
      "name": "adminSetResource",
      "outputs": [],
      "stateMutability": "nonpayable",
      "type": "function"
    },
    {
      "inputs": [
        {
          "internalType": "address",
          "name": "handlerAddress",
          "type": "address"
        },
        {
          "internalType": "bytes32",
          "name": "resourceID",
          "type": "bytes32"
        },
        {
          "internalType": "address",
          "name": "contractAddress",
          "type": "address"
        },
        {
          "internalType": "bytes4",
          "name": "depositFunctionSig",
          "type": "bytes4"
        },
        {
          "internalType": "uint256",
          "name": "depositFunctionDepositerOffset",
          "type": "uint256"
        },
        {
          "internalType": "bytes4",
          "name": "executeFunctionSig",
          "type": "bytes4"
        }
      ],
      "name": "adminSetGenericResource",
      "outputs": [],
      "stateMutability": "nonpayable",
      "type": "function"
    },
    {
      "inputs": [
        {
          "internalType": "address",
          "name": "handlerAddress",
          "type": "address"
        },
        {
          "internalType": "address",
          "name": "tokenAddress",
          "type": "address"
        }
      ],
      "name": "adminSetBurnable",
      "outputs": [],
      "stateMutability": "nonpayable",
      "type": "function"
    },
    {
      "inputs": [
        {
          "internalType": "uint8",
          "name": "domainID",
          "type": "uint8"
        },
        {
          "internalType": "uint64",
          "name": "nonce",
          "type": "uint64"
        }
      ],
      "name": "adminSetDepositNonce",
      "outputs": [],
      "stateMutability": "nonpayable",
      "type": "function"
    },
    {
      "inputs": [
        {
          "internalType": "address",
          "name": "forwarder",
          "type": "address"
        },
        {
          "internalType": "bool",
          "name": "valid",
          "type": "bool"
        }
      ],
      "name": "adminSetForwarder",
      "outputs": [],
      "stateMutability": "nonpayable",
      "type": "function"
    },
    {
      "inputs": [
        {
          "internalType": "bytes32",
          "name": "resourceID",
          "type": "bytes32"
        },
        {
          "internalType": "address",
          "name": "wtokenAddress",
          "type": "address"
        },
        {
          "internalType": "bool",
          "name": "isWtoken",
          "type": "bool"
        }
      ],
      "name": "adminSetWtoken",
      "outputs": [],
      "stateMutability": "nonpayable",
      "type": "function"
    },
    {
      "inputs": [
        {
          "internalType": "uint8",
          "name": "originDomainID",
          "type": "uint8"
        },
        {
          "internalType": "uint64",
          "name": "depositNonce",
          "type": "uint64"
        },
        {
          "internalType": "bytes32",
          "name": "dataHash",
          "type": "bytes32"
        }
      ],
      "name": "getProposal",
      "outputs": [
        {
          "components": [
            {
              "internalType": "enum IBridge.ProposalStatus",
              "name": "_status",
              "type": "uint8"
            },
            {
              "internalType": "uint200",
              "name": "_yesVotes",
              "type": "uint200"
            },
            {
              "internalType": "uint8",
              "name": "_yesVotesTotal",
              "type": "uint8"
            },
            {
              "internalType": "uint40",
              "name": "_proposedBlock",
              "type": "uint40"
            }
          ],
          "internalType": "struct IBridge.Proposal",
          "name": "",
          "type": "tuple"
        }
      ],
      "stateMutability": "view",
      "type": "function"
    },
    {
      "inputs": [],
      "name": "_totalRelayers",
      "outputs": [
        {
          "internalType": "uint256",
          "name": "",
          "type": "uint256"
        }
      ],
      "stateMutability": "view",
      "type": "function"
    },
    {
      "inputs": [
        {
          "internalType": "address",
          "name": "newFeeHandler",
          "type": "address"
        }
      ],
      "name": "adminChangeFeeHandler",
      "outputs": [],
      "stateMutability": "nonpayable",
      "type": "function"
    },
    {
      "inputs": [
        {
          "internalType": "uint256",
          "name": "expiry",
          "type": "uint256"
        }
      ],
      "name": "adminChangeExpiry",
      "outputs": [],
      "stateMutability": "nonpayable",
      "type": "function"
    },
    {
      "inputs": [
        {
          "internalType": "address",
          "name": "handlerAddress",
          "type": "address"
        },
        {
          "internalType": "bytes",
          "name": "data",
          "type": "bytes"
        }
      ],
      "name": "adminWithdraw",
      "outputs": [],
      "stateMutability": "nonpayable",
      "type": "function"
    },
    {
      "inputs": [
        {
          "internalType": "address",
          "name": "handlerAddress",
          "type": "address"
        },
        {
          "internalType": "bytes",
          "name": "data",
          "type": "bytes"
        }
      ],
      "name": "adminWithdrawETH",
      "outputs": [],
      "stateMutability": "nonpayable",
      "type": "function"
    },
    {
      "inputs": [
        {
          "internalType": "uint8",
          "name": "destinationDomainID",
          "type": "uint8"
        },
        {
          "internalType": "bytes32",
          "name": "resourceID",
          "type": "bytes32"
        },
        {
          "internalType": "bytes",
          "name": "depositData",
          "type": "bytes"
        },
        {
          "internalType": "bytes",
          "name": "feeData",
          "type": "bytes"
        }
      ],
      "name": "deposit",
      "outputs": [],
      "stateMutability": "payable",
      "type": "function"
    },
    {
      "inputs": [
        {
          "internalType": "uint8",
          "name": "domainID",
          "type": "uint8"
        },
        {
          "internalType": "uint64",
          "name": "depositNonce",
          "type": "uint64"
        },
        {
          "internalType": "bytes32",
          "name": "resourceID",
          "type": "bytes32"
        },
        {
          "internalType": "bytes",
          "name": "data",
          "type": "bytes"
        },
        {
          "internalType": "bytes",
          "name": "signature",
          "type": "bytes"
        }
      ],
      "name": "checkSignature",
      "outputs": [
        {
          "internalType": "bool",
          "name": "",
          "type": "bool"
        }
      ],
      "stateMutability": "view",
      "type": "function"
    },
    {
      "inputs": [
        {
          "internalType": "uint8",
          "name": "domainID",
          "type": "uint8"
        },
        {
          "internalType": "uint64",
          "name": "depositNonce",
          "type": "uint64"
        },
        {
          "internalType": "bytes32",
          "name": "resourceID",
          "type": "bytes32"
        },
        {
          "internalType": "bytes",
          "name": "data",
          "type": "bytes"
        },
        {
          "internalType": "bytes[]",
          "name": "signatures",
          "type": "bytes[]"
        }
      ],
      "name": "voteProposals",
      "outputs": [],
      "stateMutability": "nonpayable",
      "type": "function"
    },
    {
      "inputs": [
        {
          "internalType": "uint8",
          "name": "domainID",
          "type": "uint8"
        },
        {
          "internalType": "uint64",
          "name": "depositNonce",
          "type": "uint64"
        },
        {
          "internalType": "bytes32",
          "name": "resourceID",
          "type": "bytes32"
        },
        {
          "internalType": "bytes",
          "name": "data",
          "type": "bytes"
        }
      ],
      "name": "voteProposal",
      "outputs": [],
      "stateMutability": "nonpayable",
      "type": "function"
    },
    {
      "inputs": [
        {
          "internalType": "uint8",
          "name": "domainID",
          "type": "uint8"
        },
        {
          "internalType": "uint64",
          "name": "depositNonce",
          "type": "uint64"
        },
        {
          "internalType": "bytes32",
          "name": "dataHash",
          "type": "bytes32"
        }
      ],
      "name": "cancelProposal",
      "outputs": [],
      "stateMutability": "nonpayable",
      "type": "function"
    },
    {
      "inputs": [
        {
          "internalType": "uint8",
          "name": "domainID",
          "type": "uint8"
        },
        {
          "internalType": "uint64",
          "name": "depositNonce",
          "type": "uint64"
        },
        {
          "internalType": "bytes",
          "name": "data",
          "type": "bytes"
        },
        {
          "internalType": "bytes32",
          "name": "resourceID",
          "type": "bytes32"
        },
        {
          "internalType": "bool",
          "name": "revertOnFail",
          "type": "bool"
        }
      ],
      "name": "executeProposal",
      "outputs": [],
      "stateMutability": "nonpayable",
      "type": "function"
    },
    {
      "inputs": [
        {
          "internalType": "address payable[]",
          "name": "addrs",
          "type": "address[]"
        },
        {
          "internalType": "uint256[]",
          "name": "amounts",
          "type": "uint256[]"
        }
      ],
      "name": "transferFunds",
      "outputs": [],
      "stateMutability": "nonpayable",
      "type": "function"
    }
  ],
  "bytecode": "0x6101206040523480156200001257600080fd5b50604051620049d0380380620049d0833981016040819052620000359162000520565b604080518082018252600c81526b5065726d697442726964676560a01b60208083019182528351808501855260038152620312e360ec1b908201529151902060c08181527fe6bbd6277e1bf288eed5e8d1780f9a50b239e86b153736bceebccf4ea79d90b360e08190524660a081815286517f8b73c3c69bb8fe3d512ecc4cf759cc79239f7b179b0ffacaa9a75d522b39400f81880181905281890196909652606081019390935260808084019290925230838201528651808403909101815291909201909452835193830193909320909252610100919091526000805460ff199081169091556002805490911660ff87161790556200014090839062000226811b62002ad917901c565b600260016101000a81548160ff021916908360ff16021790555062000170816200028360201b62002b301760201c565b6002805464ffffffffff92909216620100000266ffffffffff000019909216919091179055620001ab6000620001a5620002dc565b6200031f565b60005b83518110156200021b57620002067fe2b7fb3b832174769106daebcfd6d1970523240dda11281102db9363b83b0dc4858381518110620001f257620001f26200061e565b60200260200101516200032f60201b60201c565b80620002128162000634565b915050620001ae565b50505050506200065e565b600061010082106200027f5760405162461bcd60e51b815260206004820152601c60248201527f76616c756520646f6573206e6f742066697420696e203820626974730000000060448201526064015b60405180910390fd5b5090565b60006501000000000082106200027f5760405162461bcd60e51b815260206004820152601d60248201527f76616c756520646f6573206e6f742066697420696e2034302062697473000000604482015260640162000276565b600033601436108015906200030957506001600160a01b03811660009081526005602052604090205460ff165b156200031a575060131936013560601c5b919050565b6200032b8282620003bc565b5050565b600082815260016020526040902060020154620003569062000350620002dc565b62000437565b6200031f5760405162461bcd60e51b815260206004820152602f60248201527f416363657373436f6e74726f6c3a2073656e646572206d75737420626520616e60448201526e0818591b5a5b881d1bc819dc985b9d608a1b606482015260840162000276565b6000828152600160209081526040909120620003e391839062002b8762000466821b17901c565b156200032b57620003f3620002dc565b6001600160a01b0316816001600160a01b0316837f2f8788117e7eff1d82e926ec794901d17c78024a50270940304540a733656f0d60405160405180910390a45050565b600082815260016020908152604082206200045d91849062002b9c6200047d821b17901c565b90505b92915050565b60006200045d836001600160a01b038416620004a0565b6001600160a01b038116600090815260018301602052604081205415156200045d565b6000818152600183016020526040812054620004e95750815460018181018455600084815260208082209093018490558454848252828601909352604090209190915562000460565b50600062000460565b634e487b7160e01b600052604160045260246000fd5b80516001600160a01b03811681146200031a57600080fd5b600080600080608085870312156200053757600080fd5b845160ff811681146200054957600080fd5b602086810151919550906001600160401b03808211156200056957600080fd5b818801915088601f8301126200057e57600080fd5b815181811115620005935762000593620004f2565b8060051b604051601f19603f83011681018181108582111715620005bb57620005bb620004f2565b60405291825284820192508381018501918b831115620005da57600080fd5b938501935b828510156200060357620005f38562000508565b84529385019392850192620005df565b60408b01516060909b0151999c909b50975050505050505050565b634e487b7160e01b600052603260045260246000fd5b60006000198214156200065757634e487b7160e01b600052601160045260246000fd5b5060010190565b60805160a05160c05160e0516101005161432d620006a36000396000613157015260006131a601526000613181015260006131050152600061312e015261432d6000f3fe6080604052600436106102c95760003560e01c80638c0c263111610175578063c5b37c22116100dc578063d547741f11610095578063f8c39e441161006f578063f8c39e441461090e578063fe4648f41461093e578063fe65c4be14610965578063ffaac0eb1461098557600080fd5b8063d547741f146108af578063d7a9cd79146108cf578063edc20c3c146108ee57600080fd5b8063c5b37c22146107e0578063c5ec8970146107f5578063ca15c8731461082f578063cb10f2151461084f578063cdb0f73a1461086f578063d15ef64e1461088f57600080fd5b80639dd694f41161012e5780639dd694f41461071d5780639debb3bd14610749578063a217fddf1461075e578063a9cf69fa14610773578063bd2a1820146107a0578063c0331b3e146107c057600080fd5b80638c0c26311461065b5780639010d07c1461067b57806391d148541461069b578063926d7d7f146106bb5780639d4d39f5146106dd5780639d82dd63146106fd57600080fd5b80635a1ad87c1161023457806374773412116101ed578063802aabe8116101c7578063802aabe8146105c357806380ae1c28146105d857806384db809f146105ed5780638b63aebf1461063b57600080fd5b806374773412146105705780637d026d96146105835780637febe63f146105a357600080fd5b80635a1ad87c146104c55780635c975abb146104e55780635e1fab0f146104fd5780636d3b6eea1461051d5780637292dd911461053d57806373c45c981461055d57600080fd5b806336568abe1161028657806336568abe146103c75780634603ae38146103e75780634b0b919d146104075780634e056005146104555780634e0df3f614610475578063541d55481461049557600080fd5b806317f03ce5146102ce578063206a98fd146102f0578063231de02014610310578063248a9ca3146103305780632f2ff15d1461037357806330adf81f14610393575b600080fd5b3480156102da57600080fd5b506102ee6102e93660046136c9565b61099a565b005b3480156102fc57600080fd5b506102ee61030b366004613756565b610c2f565b34801561031c57600080fd5b506102ee61032b3660046137e7565b610eb5565b34801561033c57600080fd5b5061036061034b366004613825565b60009081526001602052604090206002015490565b6040519081526020015b60405180910390f35b34801561037f57600080fd5b506102ee61038e36600461383e565b610f3d565b34801561039f57600080fd5b506103607fc4cb5d35714699d6e85b9562b644e60393b418d974a5c1dd8efaadac37a142c581565b3480156103d357600080fd5b506102ee6103e236600461383e565b610fcd565b3480156103f357600080fd5b506102ee6104023660046138b2565b611057565b34801561041357600080fd5b5061043d61042236600461391d565b6003602052600090815260409020546001600160401b031681565b6040516001600160401b03909116815260200161036a565b34801561046157600080fd5b506102ee610470366004613825565b6110fb565b34801561048157600080fd5b5061036061049036600461383e565b61115e565b3480156104a157600080fd5b506104b56104b0366004613938565b61118a565b604051901515815260200161036a565b3480156104d157600080fd5b506102ee6104e036600461396d565b6111a4565b3480156104f157600080fd5b5060005460ff166104b5565b34801561050957600080fd5b506102ee610518366004613938565b61125a565b34801561052957600080fd5b506102ee610538366004613a8e565b6112e6565b34801561054957600080fd5b506102ee610558366004613add565b611353565b6102ee61056b366004613bf3565b611a69565b34801561057c57600080fd5b5046610360565b34801561058f57600080fd5b506102ee61059e366004613825565b611d12565b3480156105af57600080fd5b506104b56105be366004613c7c565b611d47565b3480156105cf57600080fd5b50610360611deb565b3480156105e457600080fd5b506102ee611e09565b3480156105f957600080fd5b50610623610608366004613825565b6004602052600090815260409020546001600160a01b031681565b6040516001600160a01b03909116815260200161036a565b34801561064757600080fd5b506102ee610656366004613938565b611e23565b34801561066757600080fd5b506102ee610676366004613cca565b611e89565b34801561068757600080fd5b50610623610696366004613cf8565b611ec2565b3480156106a757600080fd5b506104b56106b636600461383e565b611ee1565b3480156106c757600080fd5b506103606000805160206142d883398151915281565b3480156106e957600080fd5b506103606106f8366004613bf3565b611ef9565b34801561070957600080fd5b506102ee610718366004613938565b611fc2565b34801561072957600080fd5b506002546107379060ff1681565b60405160ff909116815260200161036a565b34801561075557600080fd5b5061036060c881565b34801561076a57600080fd5b50610360600081565b34801561077f57600080fd5b5061079361078e3660046136c9565b612077565b60405161036a9190613d52565b3480156107ac57600080fd5b506102ee6107bb366004613a8e565b612145565b3480156107cc57600080fd5b506102ee6107db366004613d9b565b61217b565b3480156107ec57600080fd5b50610360612651565b34801561080157600080fd5b506002546108199062010000900464ffffffffff1681565b60405164ffffffffff909116815260200161036a565b34801561083b57600080fd5b5061036061084a366004613825565b6126ca565b34801561085b57600080fd5b506102ee61086a366004613e09565b6126e1565b34801561087b57600080fd5b506102ee61088a366004613938565b612742565b34801561089b57600080fd5b506102ee6108aa366004613e29565b612848565b3480156108bb57600080fd5b506102ee6108ca36600461383e565b61287b565b3480156108db57600080fd5b5060025461073790610100900460ff1681565b3480156108fa57600080fd5b506102ee610909366004613e5e565b6128fe565b34801561091a57600080fd5b506104b5610929366004613938565b60056020526000908152604090205460ff1681565b34801561094a57600080fd5b5060025461062390600160381b90046001600160a01b031681565b34801561097157600080fd5b506104b5610980366004613e88565b6129b7565b34801561099157600080fd5b506102ee612ac1565b6109a2612bbe565b60ff838116600884901b68ffffffffffffffff00161760008181526006602090815260408083208684529091528082208151608081019092528054939492939192909183911660048111156109f9576109f9613d1a565b6004811115610a0a57610a0a613d1a565b8152905461010081046001600160c81b03166020830152600160d01b810460ff166040830152600160d81b900464ffffffffff1660609091015280519091506001816004811115610a5d57610a5d613d1a565b1480610a7a57506002816004811115610a7857610a78613d1a565b145b610acb5760405162461bcd60e51b815260206004820152601c60248201527f50726f706f73616c2063616e6e6f742062652063616e63656c6c65640000000060448201526064015b60405180910390fd5b600254606083015164ffffffffff62010000909204821691610aef91439116612c42565b64ffffffffff1611610b435760405162461bcd60e51b815260206004820181905260248201527f50726f706f73616c206e6f7420617420657870697279207468726573686f6c646044820152606401610ac2565b60048083526001600160481b03841660009081526006602090815260408083208884529091529020835181548593839160ff1916906001908490811115610b8c57610b8c613d1a565b02179055506020820151815460408085015160609095015164ffffffffff16600160d81b026001600160d81b0360ff909616600160d01b0260ff60d01b196001600160c81b039095166101000294909416610100600160d81b0319909316929092179290921793909316929092179055516000805160206142b883398151915290610c1f90889088906004908990613f22565b60405180910390a1505050505050565b610c37612c84565b610c3f612cea565b60008281526004602090815260408083205490516001600160a01b039091169268ffffffffffffffff0060088a901b1660ff8b1617929091610c879185918a918a9101613f57565b60408051601f1981840301815291815281516020928301206001600160481b03851660009081526006845282812082825290935291209091506002815460ff166004811115610cd857610cd8613d1a565b14610d255760405162461bcd60e51b815260206004820181905260248201527f50726f706f73616c206d757374206861766520506173736564207374617475736044820152606401610ac2565b805460ff19166003178155838515610d9e5760405163712467f960e11b81526001600160a01b0382169063e248cff290610d67908a908d908d90600401613fac565b600060405180830381600087803b158015610d8157600080fd5b505af1158015610d95573d6000803e3d6000fd5b50505050610e7b565b60405163712467f960e11b81526001600160a01b0382169063e248cff290610dce908a908d908d90600401613fac565b600060405180830381600087803b158015610de857600080fd5b505af1925050508015610df9575060015b610e7b573d808015610e27576040519150601f19603f3d011682016040523d82523d6000602084013e610e2c565b606091505b50825460ff191660021783556040517fbd37c1f0d53bb2f33fe4c2104de272fcdeb4d2fef3acdbf1e4ddc3d6833ca37690610e68908390614022565b60405180910390a1505050505050610ead565b6000805160206142b88339815191528b8b600386604051610e9f9493929190613f22565b60405180910390a150505050505b505050505050565b610ebd612d30565b600083815260046020819052604091829020549151632129da1960e01b81526001600160a01b038581169282019290925283151560248201529116908190632129da19906044015b600060405180830381600087803b158015610f1f57600080fd5b505af1158015610f33573d6000803e3d6000fd5b5050505050505050565b600082815260016020526040902060020154610f5b906106b6612d89565b610fbf5760405162461bcd60e51b815260206004820152602f60248201527f416363657373436f6e74726f6c3a2073656e646572206d75737420626520616e60448201526e0818591b5a5b881d1bc819dc985b9d608a1b6064820152608401610ac2565b610fc98282612dca565b5050565b610fd5612d89565b6001600160a01b0316816001600160a01b03161461104d5760405162461bcd60e51b815260206004820152602f60248201527f416363657373436f6e74726f6c3a2063616e206f6e6c792072656e6f756e636560448201526e103937b632b9903337b91039b2b63360891b6064820152608401610ac2565b610fc98282612e33565b61105f612d30565b60005b838110156110f45784848281811061107c5761107c614035565b90506020020160208101906110919190613938565b6001600160a01b03166108fc8484848181106110af576110af614035565b905060200201359081150290604051600060405180830381858888f193505050501580156110e1573d6000803e3d6000fd5b50806110ec81614061565b915050611062565b5050505050565b611103612d30565b61110c81612ad9565b6002805460ff929092166101000261ff00199092169190911790556040518181527fa20d6b84cd798a24038be305eff8a45ca82ef54a2aa2082005d8e14c0a4746c8906020015b60405180910390a150565b60008281526001602081815260408084206001600160a01b038616855290920190529020545b92915050565b60006111846000805160206142d883398151915283611ee1565b6111ac612d30565b60008581526004602081905260409182902080546001600160a01b0319166001600160a01b038a8116918217909255925163de319d9960e01b8152918201889052861660248201526001600160e01b03198086166044830152606482018590528316608482015287919063de319d999060a401600060405180830381600087803b15801561123957600080fd5b505af115801561124d573d6000803e3d6000fd5b5050505050505050505050565b611262612d30565b600061126c612d89565b9050816001600160a01b0316816001600160a01b031614156112d05760405162461bcd60e51b815260206004820152601760248201527f43616e6e6f742072656e6f756e6365206f6e6573656c660000000000000000006044820152606401610ac2565b6112db600083610f3d565b610fc9600082610fcd565b6112ee612d30565b60405163ab5c7bf160e01b815282906001600160a01b0382169063ab5c7bf19061131c908590600401614022565b600060405180830381600087803b15801561133657600080fd5b505af115801561134a573d6000803e3d6000fd5b50505050505050565b61135b612cea565b60008481526004602090815260408083205490516001600160a01b039091169268ffffffffffffffff0060088a901b1660ff8b16179290916113a39185918991899101613f57565b60408051601f1981840301815282825280516020918201206001600160481b03861660009081526006835283812082825290925282822060808501909352825490945090929190829060ff16600481111561140057611400613d1a565b600481111561141157611411613d1a565b8152905461010081046001600160c81b0316602080840191909152600160d01b820460ff16604080850191909152600160d81b90920464ffffffffff1660609093019290925260008b815260049092529020549091506001600160a01b03166114b85760405162461bcd60e51b81526020600482015260196024820152781b9bc81a185b991b195c88199bdc881c995cdbdd5c98d95251603a1b6044820152606401610ac2565b60005b85518110156118f7576002825160048111156114d9576114d9613d1a565b1415611575576003825260405163712467f960e11b815285906001600160a01b0382169063e248cff290611515908d908d908d90600401613fac565b600060405180830381600087803b15801561152f57600080fd5b505af1158015611543573d6000803e3d6000fd5b505050506000805160206142b88339815191528c8c60038760405161156b9493929190613f22565b60405180910390a1505b60007fc4cb5d35714699d6e85b9562b644e60393b418d974a5c1dd8efaadac37a142c58c8c8c8c8c6040516115ab92919061407c565b6040519081900381206115ee959493929160200194855260ff9390931660208501526001600160401b039190911660408401526060830152608082015260a00190565b604051602081830303815290604052805190602001209050600061161182612e9c565b90506000611638828a868151811061162b5761162b614035565b6020026020010151612eea565b90506116526000805160206142d883398151915282611ee1565b6116815760405163b4d8a3a160e01b81526001600160a01b038216600482015260248101859052604401610ac2565b8451600190600481111561169757611697613d1a565b11156116b55760405162461bcd60e51b8152600401610ac29061408c565b6116bf8582612f0e565b156117045760405162461bcd60e51b81526020600482015260156024820152741c995b185e595c88185b1c9958591e481d9bdd1959605a1b6044820152606401610ac2565b60008551600481111561171957611719613d1a565b141561178a576040805160808101909152806001815260200160006001600160c81b03168152602001600060ff1681526020014364ffffffffff1681525094506000805160206142b88339815191528e8e60018960405161177d9493929190613f22565b60405180910390a16117f0565b600254606086015164ffffffffff620100009092048216916117ae91439116612c42565b64ffffffffff1611156117f05760048581815250506000805160206142b88339815191528e8e6004896040516117e79493929190613f22565b60405180910390a15b60048551600481111561180557611805613d1a565b146118e15761182a61181682612f31565b86602001516001600160c81b031617612f5f565b6001600160c81b0316602086015260408501805190611848826140cf565b60ff1660ff16815250507f25f8daaa4635a7729927ba3f5b3d59cc3320aca7c32c9db4e7ca7b95743436408e8e87600001518960405161188b9493929190613f22565b60405180910390a1600254604086015160ff61010090920482169116106118e15760028581815250506000805160206142b88339815191528e8e6002896040516118d89493929190613f22565b60405180910390a15b50505080806118ef90614061565b9150506114bb565b5060028151600481111561190d5761190d613d1a565b14156119a9576003815260405163712467f960e11b815284906001600160a01b0382169063e248cff290611949908c908c908c90600401613fac565b600060405180830381600087803b15801561196357600080fd5b505af1158015611977573d6000803e3d6000fd5b505050506000805160206142b88339815191528b8b60038660405161199f9493929190613f22565b60405180910390a1505b6001600160481b038316600090815260066020908152604080832085845290915290208151815483929190829060ff191660018360048111156119ee576119ee613d1a565b021790555060208201518154604084015160609094015164ffffffffff16600160d81b026001600160d81b0360ff909516600160d01b0260ff60d01b196001600160c81b039094166101000293909316610100600160d81b031990921691909117919091179290921691909117905550505050505050505050565b611a71612cea565b6000611a7b612d89565b6002549091503490600160381b90046001600160a01b031615611bb35760025460405163ef4f081f60e01b81526000916001600160a01b03600160381b8204169163ef4f081f91611ae091879160ff16908e908e908e908e908e908e906004016140ef565b6040805180830381865afa158015611afc573d6000803e3d6000fd5b505050506040513d601f19601f82011682018060405250810190611b20919061413c565b5090508015611bb157600254604051632530706560e01b81526001600160a01b03600160381b830416916325307065918491611b7091889160ff16908f908f908f908f908f908f906004016140ef565b6000604051808303818588803b158015611b8957600080fd5b505af1158015611b9d573d6000803e3d6000fd5b50505050508082611bae9190614161565b91505b505b6000878152600460205260409020546001600160a01b031680611be9576040516308c231dd60e31b815260040160405180910390fd5b60ff8916600090815260036020526040812080548290611c11906001600160401b0316614178565b91906101000a8154816001600160401b0302191690836001600160401b031602179055905060008290506000816001600160a01b031663b07e54bb868d898e8e6040518663ffffffff1660e01b8152600401611c70949392919061419f565b60006040518083038185885af1158015611c8e573d6000803e3d6000fd5b50505050506040513d6000823e601f3d908101601f19168201604052611cb791908101906141ca565b9050856001600160a01b03167f17bc3181e17a9620a479c24e6c606e474ba84fc036877b768926872e8cd0e11f8d8d868e8e87604051611cfc96959493929190614237565b60405180910390a2505050505050505050505050565b611d1a612d30565b611d2381612b30565b6002806101000a81548164ffffffffff021916908364ffffffffff16021790555050565b6001600160481b03831660009081526006602090815260408083208584529091528082208151608081019092528054611de3929190829060ff166004811115611d9257611d92613d1a565b6004811115611da357611da3613d1a565b8152905461010081046001600160c81b03166020830152600160d01b810460ff166040830152600160d81b900464ffffffffff1660609091015283612f0e565b949350505050565b6000611e046000805160206142d88339815191526126ca565b905090565b611e11612d30565b611e21611e1c612d89565b612fb4565b565b611e2b612d30565b60028054670100000000000000600160d81b031916600160381b6001600160a01b038416908102919091179091556040519081527f729170bd142e4965055b26a285faeedf03baf2b915bfc5a7c75d24b45815ff2c90602001611153565b611e91612d30565b6040516307b7ed9960e01b81526001600160a01b0382811660048301528391908216906307b7ed999060240161131c565b6000828152600160205260408120611eda9083613002565b9392505050565b6000828152600160205260408120611eda9083612b9c565b600080611f04612d89565b600254909150600160381b90046001600160a01b031615611fb25760025460405163ef4f081f60e01b81526000916001600160a01b03600160381b8204169163ef4f081f91611f6791869160ff16908e908e908e908e908e908e906004016140ef565b6040805180830381865afa158015611f83573d6000803e3d6000fd5b505050506040513d601f19601f82011682018060405250810190611fa7919061413c565b509250611fb8915050565b60009150505b9695505050505050565b611fda6000805160206142d883398151915282611ee1565b6120265760405162461bcd60e51b815260206004820152601f60248201527f6164647220646f65736e277420686176652072656c6179657220726f6c6521006044820152606401610ac2565b61203e6000805160206142d88339815191528261287b565b6040516001600160a01b03821681527f10e1f7ce9fd7d1b90a66d13a2ab3cb8dd7f29f3f8d520b143b063ccfbab6906b90602001611153565b60408051608081018252600080825260208201819052918101829052606081019190915260ff848116600885901b68ffffffffffffffff001617600081815260066020908152604080832087845290915290819020815160808101909252805492939192909183911660048111156120f1576120f1613d1a565b600481111561210257612102613d1a565b8152905461010081046001600160c81b03166020830152600160d01b810460ff166040830152600160d81b900464ffffffffff1660609091015295945050505050565b61214d612d30565b60405163025a3c9960e21b815282906001600160a01b03821690630968f2649061131c908590600401614022565b612183612c84565b61218b612cea565b60008381526004602090815260408083205490516001600160a01b039091169268ffffffffffffffff00600889901b1660ff8a16179290916121d39185918891889101613f57565b60408051601f1981840301815282825280516020918201206001600160481b03861660009081526006835283812082825290925282822060808501909352825490945090929190829060ff16600481111561223057612230613d1a565b600481111561224157612241613d1a565b8152905461010081046001600160c81b0316602080840191909152600160d01b820460ff16604080850191909152600160d81b90920464ffffffffff1660609093019290925260008a815260049092529020549091506001600160a01b03166122e85760405162461bcd60e51b81526020600482015260196024820152781b9bc81a185b991b195c88199bdc881c995cdbdd5c98d95251603a1b6044820152606401610ac2565b6002815160048111156122fd576122fd613d1a565b141561231b57612312898988888b6001610c2f565b505050506110f4565b6000612325612d89565b905060018260000151600481111561233f5761233f613d1a565b111561235d5760405162461bcd60e51b8152600401610ac29061408c565b6123678282612f0e565b156123ac5760405162461bcd60e51b81526020600482015260156024820152741c995b185e595c88185b1c9958591e481d9bdd1959605a1b6044820152606401610ac2565b6000825160048111156123c1576123c1613d1a565b1415612421576040805160808101825260018082526000602083018190528284015264ffffffffff4316606083015291519093506000805160206142b883398151915291612414918d918d918890613f22565b60405180910390a1612482565b600254606083015164ffffffffff6201000090920482169161244591439116612c42565b64ffffffffff1611156124825760048083526040516000805160206142b883398151915291612479918d918d918890613f22565b60405180910390a15b60048251600481111561249757612497613d1a565b14612567576124bc6124a882612f31565b83602001516001600160c81b031617612f5f565b6001600160c81b03166020830152604082018051906124da826140cf565b60ff1690525081516040517f25f8daaa4635a7729927ba3f5b3d59cc3320aca7c32c9db4e7ca7b957434364091612516918d918d918890613f22565b60405180910390a1600254604083015160ff61010090920482169116106125675760028083526040516000805160206142b88339815191529161255e918d918d918890613f22565b60405180910390a15b6001600160481b038416600090815260066020908152604080832086845290915290208251815484929190829060ff191660018360048111156125ac576125ac613d1a565b021790555060208201518154604084015160609094015164ffffffffff16600160d81b026001600160d81b0360ff909516600160d01b0260ff60d01b196001600160c81b039094166101000293909316610100600160d81b031990921691909117919091179290921691909117905560028251600481111561263057612630613d1a565b1415612645576126458a8a89898c6000610c2f565b50505050505050505050565b6000600260079054906101000a90046001600160a01b03166001600160a01b031663c5b37c226040518163ffffffff1660e01b8152600401602060405180830381865afa1580156126a6573d6000803e3d6000fd5b505050506040513d601f19601f82011682018060405250810190611e049190614288565b60008181526001602052604081206111849061300e565b6126e9612d30565b60008281526004602081905260409182902080546001600160a01b0319166001600160a01b038781169182179092559251635c7d1b9b60e11b81529182018590528316602482015284919063b8fa373690604401610f05565b61275a6000805160206142d883398151915282611ee1565b156127a75760405162461bcd60e51b815260206004820152601e60248201527f6164647220616c7265616479206861732072656c6179657220726f6c652100006044820152606401610ac2565b60c86127b1611deb565b106127f75760405162461bcd60e51b81526020600482015260166024820152751c995b185e595c9cc81b1a5b5a5d081c995858da195960521b6044820152606401610ac2565b61280f6000805160206142d883398151915282610f3d565b6040516001600160a01b03821681527f03580ee9f53a62b7cb409a2cb56f9be87747dd15017afc5cef6eef321e4fb2c590602001611153565b612850612d30565b6001600160a01b03919091166000908152600560205260409020805460ff1916911515919091179055565b600082815260016020526040902060020154612899906106b6612d89565b61104d5760405162461bcd60e51b815260206004820152603060248201527f416363657373436f6e74726f6c3a2073656e646572206d75737420626520616e60448201526f2061646d696e20746f207265766f6b6560801b6064820152608401610ac2565b612906612d30565b60ff82166000908152600360205260409020546001600160401b03908116908216116129835760405162461bcd60e51b815260206004820152602660248201527f446f6573206e6f7420616c6c6f772064656372656d656e7473206f6620746865604482015265206e6f6e636560d01b6064820152608401610ac2565b60ff919091166000908152600360205260409020805467ffffffffffffffff19166001600160401b03909216919091179055565b6000807fc4cb5d35714699d6e85b9562b644e60393b418d974a5c1dd8efaadac37a142c589898989896040516129ee92919061407c565b604051908190038120612a31959493929160200194855260ff9390931660208501526001600160401b039190911660408401526060830152608082015260a00190565b6040516020818303038152906040528051906020012090506000612a5482612e9c565b90506000612a988287878080601f016020809104026020016040519081016040528093929190818152602001838380828437600092019190915250612eea92505050565b9050612ab26000805160206142d883398151915282611ee1565b9b9a5050505050505050505050565b612ac9612d30565b611e21612ad4612d89565b613018565b60006101008210612b2c5760405162461bcd60e51b815260206004820152601c60248201527f76616c756520646f6573206e6f742066697420696e20382062697473000000006044820152606401610ac2565b5090565b6000650100000000008210612b2c5760405162461bcd60e51b815260206004820152601d60248201527f76616c756520646f6573206e6f742066697420696e20343020626974730000006044820152606401610ac2565b6000611eda836001600160a01b038416613063565b6001600160a01b03811660009081526001830160205260408120541515611eda565b6000612bc8612d89565b9050612bd5600082611ee1565b80612bf35750612bf36000805160206142d883398151915282611ee1565b612c3f5760405162461bcd60e51b815260206004820152601e60248201527f73656e646572206973206e6f742072656c61796572206f722061646d696e00006044820152606401610ac2565b50565b6000611eda83836040518060400160405280601e81526020017f536166654d6174683a207375627472616374696f6e206f766572666c6f7700008152506130b2565b612c9e6000805160206142d88339815191526106b6612d89565b611e215760405162461bcd60e51b815260206004820181905260248201527f73656e64657220646f65736e277420686176652072656c6179657220726f6c656044820152606401610ac2565b60005460ff1615611e215760405162461bcd60e51b815260206004820152601060248201526f14185d5cd8589b194e881c185d5cd95960821b6044820152606401610ac2565b612d3d60006106b6612d89565b611e215760405162461bcd60e51b815260206004820152601e60248201527f73656e64657220646f65736e277420686176652061646d696e20726f6c6500006044820152606401610ac2565b60003360143610801590612db557506001600160a01b03811660009081526005602052604090205460ff165b15612dc5575060131936013560601c5b919050565b6000828152600160205260409020612de29082612b87565b15610fc957612def612d89565b6001600160a01b0316816001600160a01b0316837f2f8788117e7eff1d82e926ec794901d17c78024a50270940304540a733656f0d60405160405180910390a45050565b6000828152600160205260409020612e4b90826130ec565b15610fc957612e58612d89565b6001600160a01b0316816001600160a01b0316837ff6391f5c32d9c69d2a47ea670b442974b53935d1edc7fd64eb21e047a839171b60405160405180910390a45050565b6000611184612ea9613101565b8360405161190160f01b6020820152602281018390526042810182905260009060620160405160208183030381529060405280519060200120905092915050565b6000806000612ef985856131f4565b91509150612f0681613264565b509392505050565b60008083602001516001600160c81b0316612f2884612f31565b16119392505050565b6000612f55612f4e6000805160206142d88339815191528461115e565b6001612c42565b6001901b92915050565b6000600160c81b8210612b2c5760405162461bcd60e51b815260206004820152601e60248201527f76616c756520646f6573206e6f742066697420696e20323030206269747300006044820152606401610ac2565b612fbc612cea565b6000805460ff191660011790556040516001600160a01b03821681527f62e78cea01bee320cd4e420270b5ea74000d11b0c9f74754ebdbfc544b05a25890602001611153565b6000611eda838361341f565b6000611184825490565b613020613449565b6000805460ff191690556040516001600160a01b03821681527f5db9ee0a495bf2e6ff9c91a7834c1ba4fdd244a5e8aa4e537bd38aeae4b073aa90602001611153565b60008181526001830160205260408120546130aa57508154600181810184556000848152602080822090930184905584548482528286019093526040902091909155611184565b506000611184565b600081848411156130d65760405162461bcd60e51b8152600401610ac29190614022565b5060006130e38486614161565b95945050505050565b6000611eda836001600160a01b038416613492565b60007f000000000000000000000000000000000000000000000000000000000000000046141561315057507f000000000000000000000000000000000000000000000000000000000000000090565b50604080517f00000000000000000000000000000000000000000000000000000000000000006020808301919091527f0000000000000000000000000000000000000000000000000000000000000000828401527f000000000000000000000000000000000000000000000000000000000000000060608301524660808301523060a0808401919091528351808403909101815260c0909201909252805191012090565b60008082516041141561322b5760208301516040840151606085015160001a61321f87828585613585565b9450945050505061325d565b825160401415613255576020830151604084015161324a868383613672565b93509350505061325d565b506000905060025b9250929050565b600081600481111561327857613278613d1a565b14156132815750565b600181600481111561329557613295613d1a565b14156132e35760405162461bcd60e51b815260206004820152601860248201527f45434453413a20696e76616c6964207369676e617475726500000000000000006044820152606401610ac2565b60028160048111156132f7576132f7613d1a565b14156133455760405162461bcd60e51b815260206004820152601f60248201527f45434453413a20696e76616c6964207369676e6174757265206c656e677468006044820152606401610ac2565b600381600481111561335957613359613d1a565b14156133b25760405162461bcd60e51b815260206004820152602260248201527f45434453413a20696e76616c6964207369676e6174757265202773272076616c604482015261756560f01b6064820152608401610ac2565b60048160048111156133c6576133c6613d1a565b1415612c3f5760405162461bcd60e51b815260206004820152602260248201527f45434453413a20696e76616c6964207369676e6174757265202776272076616c604482015261756560f01b6064820152608401610ac2565b600082600001828154811061343657613436614035565b9060005260206000200154905092915050565b60005460ff16611e215760405162461bcd60e51b815260206004820152601460248201527314185d5cd8589b194e881b9bdd081c185d5cd95960621b6044820152606401610ac2565b6000818152600183016020526040812054801561357b5760006134b6600183614161565b85549091506000906134ca90600190614161565b905081811461352f5760008660000182815481106134ea576134ea614035565b906000526020600020015490508087600001848154811061350d5761350d614035565b6000918252602080832090910192909255918252600188019052604090208390555b8554869080613540576135406142a1565b600190038181906000526020600020016000905590558560010160008681526020019081526020016000206000905560019350505050611184565b6000915050611184565b6000807f7fffffffffffffffffffffffffffffff5d576e7357a4501ddfe92f46681b20a08311156135bc5750600090506003613669565b8460ff16601b141580156135d457508460ff16601c14155b156135e55750600090506004613669565b6040805160008082526020820180845289905260ff881692820192909252606081018690526080810185905260019060a0016020604051602081039080840390855afa158015613639573d6000803e3d6000fd5b5050604051601f1901519150506001600160a01b03811661366257600060019250925050613669565b9150600090505b94509492505050565b6000806001600160ff1b03831660ff84901c601b0161369387828885613585565b935093505050935093915050565b803560ff81168114612dc557600080fd5b80356001600160401b0381168114612dc557600080fd5b6000806000606084860312156136de57600080fd5b6136e7846136a1565b92506136f5602085016136b2565b9150604084013590509250925092565b60008083601f84011261371757600080fd5b5081356001600160401b0381111561372e57600080fd5b60208301915083602082850101111561325d57600080fd5b80358015158114612dc557600080fd5b60008060008060008060a0878903121561376f57600080fd5b613778876136a1565b9550613786602088016136b2565b945060408701356001600160401b038111156137a157600080fd5b6137ad89828a01613705565b909550935050606087013591506137c660808801613746565b90509295509295509295565b6001600160a01b0381168114612c3f57600080fd5b6000806000606084860312156137fc57600080fd5b83359250602084013561380e816137d2565b915061381c60408501613746565b90509250925092565b60006020828403121561383757600080fd5b5035919050565b6000806040838503121561385157600080fd5b823591506020830135613863816137d2565b809150509250929050565b60008083601f84011261388057600080fd5b5081356001600160401b0381111561389757600080fd5b6020830191508360208260051b850101111561325d57600080fd5b600080600080604085870312156138c857600080fd5b84356001600160401b03808211156138df57600080fd5b6138eb8883890161386e565b9096509450602087013591508082111561390457600080fd5b506139118782880161386e565b95989497509550505050565b60006020828403121561392f57600080fd5b611eda826136a1565b60006020828403121561394a57600080fd5b8135611eda816137d2565b80356001600160e01b031981168114612dc557600080fd5b60008060008060008060c0878903121561398657600080fd5b8635613991816137d2565b95506020870135945060408701356139a8816137d2565b93506139b660608801613955565b9250608087013591506137c660a08801613955565b634e487b7160e01b600052604160045260246000fd5b604051601f8201601f191681016001600160401b0381118282101715613a0957613a096139cb565b604052919050565b60006001600160401b03821115613a2a57613a2a6139cb565b50601f01601f191660200190565b600082601f830112613a4957600080fd5b8135613a5c613a5782613a11565b6139e1565b818152846020838601011115613a7157600080fd5b816020850160208301376000918101602001919091529392505050565b60008060408385031215613aa157600080fd5b8235613aac816137d2565b915060208301356001600160401b03811115613ac757600080fd5b613ad385828601613a38565b9150509250929050565b60008060008060008060a08789031215613af657600080fd5b613aff876136a1565b95506020613b0e8189016136b2565b95506040880135945060608801356001600160401b0380821115613b3157600080fd5b613b3d8b838c01613705565b909650945060808a0135915080821115613b5657600080fd5b818a0191508a601f830112613b6a57600080fd5b813581811115613b7c57613b7c6139cb565b8060051b613b8b8582016139e1565b918252838101850191858101908e841115613ba557600080fd5b86860192505b83831015613bdf578483351115613bc157600080fd5b613bd08f888535890101613a38565b82529186019190860190613bab565b809750505050505050509295509295509295565b60008060008060008060808789031215613c0c57600080fd5b613c15876136a1565b95506020870135945060408701356001600160401b0380821115613c3857600080fd5b613c448a838b01613705565b90965094506060890135915080821115613c5d57600080fd5b50613c6a89828a01613705565b979a9699509497509295939492505050565b600080600060608486031215613c9157600080fd5b83356001600160481b0381168114613ca857600080fd5b9250602084013591506040840135613cbf816137d2565b809150509250925092565b60008060408385031215613cdd57600080fd5b8235613ce8816137d2565b91506020830135613863816137d2565b60008060408385031215613d0b57600080fd5b50508035926020909101359150565b634e487b7160e01b600052602160045260246000fd5b60058110613d4e57634e487b7160e01b600052602160045260246000fd5b9052565b6000608082019050613d65828451613d30565b60018060c81b03602084015116602083015260ff604084015116604083015264ffffffffff606084015116606083015292915050565b600080600080600060808688031215613db357600080fd5b613dbc866136a1565b9450613dca602087016136b2565b93506040860135925060608601356001600160401b03811115613dec57600080fd5b613df888828901613705565b969995985093965092949392505050565b600080600060608486031215613e1e57600080fd5b8335613ca8816137d2565b60008060408385031215613e3c57600080fd5b8235613e47816137d2565b9150613e5560208401613746565b90509250929050565b60008060408385031215613e7157600080fd5b613e7a836136a1565b9150613e55602084016136b2565b600080600080600080600060a0888a031215613ea357600080fd5b613eac886136a1565b9650613eba602089016136b2565b95506040880135945060608801356001600160401b0380821115613edd57600080fd5b613ee98b838c01613705565b909650945060808a0135915080821115613f0257600080fd5b50613f0f8a828b01613705565b989b979a50959850939692959293505050565b60ff851681526001600160401b038416602082015260808101613f486040830185613d30565b82606083015295945050505050565b6bffffffffffffffffffffffff198460601b168152818360148301376000910160140190815292915050565b81835281816020850137506000828201602090810191909152601f909101601f19169091010190565b8381526040602082015260006130e3604083018486613f83565b60005b83811015613fe1578181015183820152602001613fc9565b83811115613ff0576000848401525b50505050565b6000815180845261400e816020860160208601613fc6565b601f01601f19169290920160200192915050565b602081526000611eda6020830184613ff6565b634e487b7160e01b600052603260045260246000fd5b634e487b7160e01b600052601160045260246000fd5b60006000198214156140755761407561404b565b5060010190565b8183823760009101908152919050565b60208082526023908201527f70726f706f73616c20616c72656164792065786563757465642f63616e63656c6040820152621b195960ea1b606082015260800190565b600060ff821660ff8114156140e6576140e661404b565b60010192915050565b60018060a01b038916815260ff8816602082015260ff8716604082015285606082015260c06080820152600061412960c083018688613f83565b82810360a0840152612ab2818587613f83565b6000806040838503121561414f57600080fd5b825191506020830151613863816137d2565b6000828210156141735761417361404b565b500390565b60006001600160401b03808316818114156141955761419561404b565b6001019392505050565b8481526001600160a01b0384166020820152606060408201819052600090611fb89083018486613f83565b6000602082840312156141dc57600080fd5b81516001600160401b038111156141f257600080fd5b8201601f8101841361420357600080fd5b8051614211613a5782613a11565b81815285602083850101111561422657600080fd5b6130e3826020830160208601613fc6565b60ff871681528560208201526001600160401b038516604082015260a06060820152600061426960a083018587613f83565b828103608084015261427b8185613ff6565b9998505050505050505050565b60006020828403121561429a57600080fd5b5051919050565b634e487b7160e01b600052603160045260246000fdfe968626a768e76ba1363efe44e322a6c4900c5f084e0b45f35e294dfddaa9e0d5e2b7fb3b832174769106daebcfd6d1970523240dda11281102db9363b83b0dc4a26469706673582212201c7b55feea54ba4892b3a720f6dfa9ed7c33004e14d7d056a83680d9703f410364736f6c634300080b0033",
  "immutableReferences": {
    "3963": [
      {
        "length": 32,
        "start": 12590
      }
    ],
    "3965": [
      {
        "length": 32,
        "start": 12549
      }
    ],
    "3967": [
      {
        "length": 32,
        "start": 12673
      }
    ],
    "3969": [
      {
        "length": 32,
        "start": 12710
      }
    ],
    "3971": [
      {
        "length": 32,
        "start": 12631
      }
    ]
  },
  "source": "// SPDX-License-Identifier: LGPL-3.0-only\npragma solidity 0.8.11;\n\nimport \"./utils/AccessControl.sol\";\nimport \"./utils/Pausable.sol\";\nimport \"./utils/SafeMath.sol\";\nimport \"./utils/SafeCast.sol\";\nimport \"./interfaces/IDepositExecute.sol\";\nimport \"./interfaces/IERCHandler.sol\";\nimport \"./interfaces/IGenericHandler.sol\";\nimport \"./interfaces/IWETH.sol\";\nimport \"./interfaces/IBridge.sol\";\nimport \"./interfaces/IFeeHandler.sol\";\nimport \"@openzeppelin/contracts/utils/cryptography/draft-EIP712.sol\";\n\n/**\n    @title Facilitates deposits, creation and voting of deposit proposals, and deposit executions.\n    @author ChainSafe Systems.\n */\ncontract Bridge is EIP712, Pausable, AccessControl, SafeMath, IBridge {\n    using SafeCast for *;\n\n    bytes32 public constant PERMIT_TYPEHASH =\n        keccak256(\n            \"PermitBridge(uint8 domainID,uint64 depositNonce,bytes32 resourceID,bytes data)\"\n        );\n\n    // Limit relayers number because proposal can fit only so much votes\n    uint256 public constant MAX_RELAYERS = 200;\n\n    uint8 public _domainID;\n    uint8 public _relayerThreshold;\n    uint40 public _expiry;\n\n    IFeeHandler public _feeHandler;\n\n    // destinationDomainID => number of deposits\n    mapping(uint8 => uint64) public _depositCounts;\n    // resourceID => handler address\n    mapping(bytes32 => address) public _resourceIDToHandlerAddress;\n    // forwarder address => is Valid\n    mapping(address => bool) public isValidForwarder;\n    // destinationDomainID + depositNonce => dataHash => Proposal\n    mapping(uint72 => mapping(bytes32 => Proposal)) private _proposals;\n\n    event RelayerThresholdChanged(uint256 newThreshold);\n    event RelayerAdded(address relayer);\n    event RelayerRemoved(address relayer);\n    event FeeHandlerChanged(address newFeeHandler);\n    event Deposit(\n        uint8 destinationDomainID,\n        bytes32 resourceID,\n        uint64 depositNonce,\n        address indexed user,\n        bytes data,\n        bytes handlerResponse\n    );\n    event ProposalEvent(\n        uint8 originDomainID,\n        uint64 depositNonce,\n        ProposalStatus status,\n        bytes32 dataHash\n    );\n    event ProposalVote(\n        uint8 originDomainID,\n        uint64 depositNonce,\n        ProposalStatus status,\n        bytes32 dataHash\n    );\n    event FailedHandlerExecution(bytes lowLevelData);\n\n    bytes32 public constant RELAYER_ROLE = keccak256(\"RELAYER_ROLE\");\n\n    modifier onlyAdmin() {\n        _onlyAdmin();\n        _;\n    }\n\n    modifier onlyAdminOrRelayer() {\n        _onlyAdminOrRelayer();\n        _;\n    }\n\n    modifier onlyRelayers() {\n        _onlyRelayers();\n        _;\n    }\n\n    function _fee() external view returns (uint256) {\n        return _feeHandler._fee();\n    }\n\n    function calculateFee(\n        uint8 destinationDomainID,\n        bytes32 resourceID,\n        bytes calldata depositData,\n        bytes calldata feeData\n    ) external view returns (uint256) {\n        address sender = _msgSender();\n        if (address(_feeHandler) != address(0)) {\n            // Reverts on failure\n            (uint256 fee, ) = _feeHandler.calculateFee(\n                sender,\n                _domainID,\n                destinationDomainID,\n                resourceID,\n                depositData,\n                feeData\n            );\n            return fee;\n        } else {\n            return 0;\n        }\n    }\n\n    function _chainId() external view returns (uint256) {\n        return block.chainid;\n    }\n\n    function _onlyAdminOrRelayer() private view {\n        address sender = _msgSender();\n        require(\n            hasRole(DEFAULT_ADMIN_ROLE, sender) ||\n                hasRole(RELAYER_ROLE, sender),\n            \"sender is not relayer or admin\"\n        );\n    }\n\n    function _onlyAdmin() private view {\n        require(\n            hasRole(DEFAULT_ADMIN_ROLE, _msgSender()),\n            \"sender doesn't have admin role\"\n        );\n    }\n\n    function _onlyRelayers() private view {\n        require(\n            hasRole(RELAYER_ROLE, _msgSender()),\n            \"sender doesn't have relayer role\"\n        );\n    }\n\n    function _relayerBit(address relayer) private view returns (uint256) {\n        return\n            uint256(1) <<\n            sub(AccessControl.getRoleMemberIndex(RELAYER_ROLE, relayer), 1);\n    }\n\n    function _hasVoted(Proposal memory proposal, address relayer)\n        private\n        view\n        returns (bool)\n    {\n        return (_relayerBit(relayer) & uint256(proposal._yesVotes)) > 0;\n    }\n\n    function _msgSender() internal view override returns (address) {\n        address signer = msg.sender;\n        if (msg.data.length >= 20 && isValidForwarder[signer]) {\n            assembly {\n                signer := shr(96, calldataload(sub(calldatasize(), 20)))\n            }\n        }\n        return signer;\n    }\n\n    /**\n        @notice Initializes Bridge, creates and grants {_msgSender()} the admin role,\n        creates and grants {initialRelayers} the relayer role.\n        @param domainID ID of chain the Bridge contract exists on.\n        @param initialRelayers Addresses that should be initially granted the relayer role.\n        @param initialRelayerThreshold Number of votes needed for a deposit proposal to be considered passed.\n     */\n    constructor(\n        uint8 domainID,\n        address[] memory initialRelayers,\n        uint256 initialRelayerThreshold,\n        uint256 expiry\n    ) EIP712(\"PermitBridge\", \"1.0\") {\n        _domainID = domainID;\n        _relayerThreshold = initialRelayerThreshold.toUint8();\n        _expiry = expiry.toUint40();\n\n        _setupRole(DEFAULT_ADMIN_ROLE, _msgSender());\n\n        for (uint256 i; i < initialRelayers.length; i++) {\n            grantRole(RELAYER_ROLE, initialRelayers[i]);\n        }\n    }\n\n    /**\n        @notice Returns true if {relayer} has voted on {destNonce} {dataHash} proposal.\n        @notice Naming left unchanged for backward compatibility.\n        @param destNonce destinationDomainID + depositNonce of the proposal.\n        @param dataHash Hash of data to be provided when deposit proposal is executed.\n        @param relayer Address to check.\n     */\n    function _hasVotedOnProposal(\n        uint72 destNonce,\n        bytes32 dataHash,\n        address relayer\n    ) public view returns (bool) {\n        return _hasVoted(_proposals[destNonce][dataHash], relayer);\n    }\n\n    /**\n        @notice Returns true if {relayer} has the relayer role.\n        @param relayer Address to check.\n     */\n    function isRelayer(address relayer) external view returns (bool) {\n        return hasRole(RELAYER_ROLE, relayer);\n    }\n\n    /**\n        @notice Removes admin role from {_msgSender()} and grants it to {newAdmin}.\n        @notice Only callable by an address that currently has the admin role.\n        @param newAdmin Address that admin role will be granted to.\n     */\n    function renounceAdmin(address newAdmin) external onlyAdmin {\n        address sender = _msgSender();\n        require(sender != newAdmin, \"Cannot renounce oneself\");\n        grantRole(DEFAULT_ADMIN_ROLE, newAdmin);\n        renounceRole(DEFAULT_ADMIN_ROLE, sender);\n    }\n\n    /**\n        @notice Pauses deposits, proposal creation and voting, and deposit executions.\n        @notice Only callable by an address that currently has the admin role.\n     */\n    function adminPauseTransfers() external onlyAdmin {\n        _pause(_msgSender());\n    }\n\n    /**\n        @notice Unpauses deposits, proposal creation and voting, and deposit executions.\n        @notice Only callable by an address that currently has the admin role.\n     */\n    function adminUnpauseTransfers() external onlyAdmin {\n        _unpause(_msgSender());\n    }\n\n    /**\n        @notice Modifies the number of votes required for a proposal to be considered passed.\n        @notice Only callable by an address that currently has the admin role.\n        @param newThreshold Value {_relayerThreshold} will be changed to.\n        @notice Emits {RelayerThresholdChanged} event.\n     */\n    function adminChangeRelayerThreshold(uint256 newThreshold)\n        external\n        onlyAdmin\n    {\n        _relayerThreshold = newThreshold.toUint8();\n        emit RelayerThresholdChanged(newThreshold);\n    }\n\n    /**\n        @notice Grants {relayerAddress} the relayer role.\n        @notice Only callable by an address that currently has the admin role, which is\n                checked in grantRole().\n        @param relayerAddress Address of relayer to be added.\n        @notice Emits {RelayerAdded} event.\n     */\n    function adminAddRelayer(address relayerAddress) external {\n        require(\n            !hasRole(RELAYER_ROLE, relayerAddress),\n            \"addr already has relayer role!\"\n        );\n        require(_totalRelayers() < MAX_RELAYERS, \"relayers limit reached\");\n        grantRole(RELAYER_ROLE, relayerAddress);\n        emit RelayerAdded(relayerAddress);\n    }\n\n    /**\n        @notice Removes relayer role for {relayerAddress}.\n        @notice Only callable by an address that currently has the admin role, which is\n                checked in revokeRole().\n        @param relayerAddress Address of relayer to be removed.\n        @notice Emits {RelayerRemoved} event.\n     */\n    function adminRemoveRelayer(address relayerAddress) external {\n        require(\n            hasRole(RELAYER_ROLE, relayerAddress),\n            \"addr doesn't have relayer role!\"\n        );\n        revokeRole(RELAYER_ROLE, relayerAddress);\n        emit RelayerRemoved(relayerAddress);\n    }\n\n    /**\n        @notice Sets a new resource for handler contracts that use the IERCHandler interface,\n        and maps the {handlerAddress} to {resourceID} in {_resourceIDToHandlerAddress}.\n        @notice Only callable by an address that currently has the admin role.\n        @param handlerAddress Address of handler resource will be set for.\n        @param resourceID ResourceID to be used when making deposits.\n        @param tokenAddress Address of contract to be called when a deposit is made and a deposited is executed.\n     */\n    function adminSetResource(\n        address handlerAddress,\n        bytes32 resourceID,\n        address tokenAddress\n    ) external onlyAdmin {\n        _resourceIDToHandlerAddress[resourceID] = handlerAddress;\n        IERCHandler handler = IERCHandler(handlerAddress);\n        handler.setResource(resourceID, tokenAddress);\n    }\n\n    /**\n        @notice Sets a new resource for handler contracts that use the IGenericHandler interface,\n        and maps the {handlerAddress} to {resourceID} in {_resourceIDToHandlerAddress}.\n        @notice Only callable by an address that currently has the admin role.\n        @param handlerAddress Address of handler resource will be set for.\n        @param resourceID ResourceID to be used when making deposits.\n        @param contractAddress Address of contract to be called when a deposit is made and a deposited is executed.\n     */\n    function adminSetGenericResource(\n        address handlerAddress,\n        bytes32 resourceID,\n        address contractAddress,\n        bytes4 depositFunctionSig,\n        uint256 depositFunctionDepositerOffset,\n        bytes4 executeFunctionSig\n    ) external onlyAdmin {\n        _resourceIDToHandlerAddress[resourceID] = handlerAddress;\n        IGenericHandler handler = IGenericHandler(handlerAddress);\n        handler.setResource(\n            resourceID,\n            contractAddress,\n            depositFunctionSig,\n            depositFunctionDepositerOffset,\n            executeFunctionSig\n        );\n    }\n\n    /**\n        @notice Sets a resource as burnable for handler contracts that use the IERCHandler interface.\n        @notice Only callable by an address that currently has the admin role.\n        @param handlerAddress Address of handler resource will be set for.\n        @param tokenAddress Address of contract to be called when a deposit is made and a deposited is executed.\n     */\n    function adminSetBurnable(address handlerAddress, address tokenAddress)\n        external\n        onlyAdmin\n    {\n        IERCHandler handler = IERCHandler(handlerAddress);\n        handler.setBurnable(tokenAddress);\n    }\n\n    /**\n        @notice Sets the nonce for the specific domainID.\n        @notice Only callable by an address that currently has the admin role.\n        @param domainID Domain ID for increasing nonce.\n        @param nonce The nonce value to be set.\n     */\n    function adminSetDepositNonce(uint8 domainID, uint64 nonce)\n        external\n        onlyAdmin\n    {\n        require(\n            nonce > _depositCounts[domainID],\n            \"Does not allow decrements of the nonce\"\n        );\n        _depositCounts[domainID] = nonce;\n    }\n\n    /**\n        @notice Set a forwarder to be used.\n        @notice Only callable by an address that currently has the admin role.\n        @param forwarder Forwarder address to be added.\n        @param valid Decision for the specific forwarder.\n     */\n    function adminSetForwarder(address forwarder, bool valid)\n        external\n        onlyAdmin\n    {\n        isValidForwarder[forwarder] = valid;\n    }\n\n    function adminSetWtoken(\n        bytes32 resourceID,\n        address wtokenAddress,\n        bool isWtoken\n    ) external onlyAdmin {\n        IERCHandler handler = IERCHandler(\n            _resourceIDToHandlerAddress[resourceID]\n        );\n        handler.setWtoken(wtokenAddress, isWtoken);\n    }\n\n    /**\n        @notice Returns a proposal.\n        @param originDomainID Chain ID deposit originated from.\n        @param depositNonce ID of proposal generated by proposal's origin Bridge contract.\n        @param dataHash Hash of data to be provided when deposit proposal is executed.\n        @return Proposal which consists of:\n        - _dataHash Hash of data to be provided when deposit proposal is executed.\n        - _yesVotes Number of votes in favor of proposal.\n        - _noVotes Number of votes against proposal.\n        - _status Current status of proposal.\n     */\n    function getProposal(\n        uint8 originDomainID,\n        uint64 depositNonce,\n        bytes32 dataHash\n    ) external view returns (Proposal memory) {\n        uint72 nonceAndID = (uint72(depositNonce) << 8) |\n            uint72(originDomainID);\n        return _proposals[nonceAndID][dataHash];\n    }\n\n    /**\n        @notice Returns total relayers number.\n        @notice Added for backwards compatibility.\n     */\n    function _totalRelayers() public view returns (uint256) {\n        return AccessControl.getRoleMemberCount(RELAYER_ROLE);\n    }\n\n    /**\n        @notice Changes deposit fee handler contract address.\n        @notice Only callable by admin.\n        @param newFeeHandler Address {_feeHandler} will be updated to.\n     */\n    function adminChangeFeeHandler(address newFeeHandler) external onlyAdmin {\n        _feeHandler = IFeeHandler(newFeeHandler);\n        emit FeeHandlerChanged(newFeeHandler);\n    }\n\n    function adminChangeExpiry(uint256 expiry) external onlyAdmin {\n        _expiry = expiry.toUint40();\n    }\n\n    /**\n        @notice Used to manually withdraw funds from ERC safes.\n        @param handlerAddress Address of handler to withdraw from.\n        @param data ABI-encoded withdrawal params relevant to the specified handler.\n     */\n    function adminWithdraw(address handlerAddress, bytes memory data)\n        external\n        onlyAdmin\n    {\n        IERCHandler handler = IERCHandler(handlerAddress);\n        handler.withdraw(data);\n    }\n\n    function adminWithdrawETH(address handlerAddress, bytes memory data)\n        external\n        onlyAdmin\n    {\n        IERCHandler handler = IERCHandler(handlerAddress);\n        handler.withdrawETH(data);\n    }\n\n    error IncorrectFeeSupplied(uint256 msgValue, uint256 fee);\n    error ResourceIDNotMappedToHandler();\n\n    /**\n        @notice Initiates a transfer using a specified handler contract.\n        @notice Only callable when Bridge is not paused.\n        @param destinationDomainID ID of chain deposit will be bridged to.\n        @param resourceID ResourceID used to find address of handler to be used for deposit.\n        @param depositData Additional data to be passed to specified handler.\n        @param feeData Additional data to be passed to the fee handler.\n        @notice Emits {Deposit} event with all necessary parameters and a handler response.\n        - ERC20Handler: responds with an empty data.\n        - ERC721Handler: responds with the deposited token metadata acquired by calling a tokenURI method in the token contract.\n        - GenericHandler: responds with the raw bytes returned from the call to the target contract.\n     */\n    function deposit(\n        uint8 destinationDomainID,\n        bytes32 resourceID,\n        bytes calldata depositData,\n        bytes calldata feeData\n    ) external payable whenNotPaused {\n        address sender = _msgSender();\n        uint256 value = msg.value;\n        if (address(_feeHandler) != address(0)) {\n            // Reverts on failure\n            (uint256 fee, ) = _feeHandler.calculateFee(\n                sender,\n                _domainID,\n                destinationDomainID,\n                resourceID,\n                depositData,\n                feeData\n            );\n            if (fee > 0) {\n                _feeHandler.collectFee{value: fee}(\n                    sender,\n                    _domainID,\n                    destinationDomainID,\n                    resourceID,\n                    depositData,\n                    feeData\n                );\n                value -= fee;\n            }\n        }\n\n        address handler = _resourceIDToHandlerAddress[resourceID];\n        if (handler == address(0)) {\n            revert ResourceIDNotMappedToHandler();\n        }\n\n        uint64 depositNonce = ++_depositCounts[destinationDomainID];\n\n        IDepositExecute depositHandler = IDepositExecute(handler);\n        bytes memory handlerResponse = depositHandler.deposit{value: value}(\n            resourceID,\n            sender,\n            depositData\n        );\n\n        emit Deposit(\n            destinationDomainID,\n            resourceID,\n            depositNonce,\n            sender,\n            depositData,\n            handlerResponse\n        );\n    }\n\n    error InviladSignature(address signer, uint256 index);\n\n    function checkSignature(\n        uint8 domainID,\n        uint64 depositNonce,\n        bytes32 resourceID,\n        bytes calldata data,\n        bytes calldata signature\n    ) external view returns (bool) {\n        bytes32 structHash = keccak256(\n            abi.encode(\n                PERMIT_TYPEHASH,\n                domainID,\n                depositNonce,\n                resourceID,\n                keccak256(data)\n            )\n        );\n        bytes32 hash = _hashTypedDataV4(structHash);\n        address sender = ECDSA.recover(hash, signature);\n        return hasRole(RELAYER_ROLE, sender);\n    }\n\n    function voteProposals(\n        uint8 domainID,\n        uint64 depositNonce,\n        bytes32 resourceID,\n        bytes calldata data,\n        bytes[] memory signatures\n    ) external whenNotPaused {\n        address handler = _resourceIDToHandlerAddress[resourceID];\n        uint72 nonceAndID = (uint72(depositNonce) << 8) | uint72(domainID);\n        bytes32 dataHash = keccak256(abi.encodePacked(handler, data));\n        Proposal memory proposal = _proposals[nonceAndID][dataHash];\n\n        require(\n            _resourceIDToHandlerAddress[resourceID] != address(0),\n            \"no handler for resourceID\"\n        );\n\n        for (uint256 i; i < signatures.length; i++) {\n            if (proposal._status == ProposalStatus.Passed) {\n                proposal._status = ProposalStatus.Executed;\n                IDepositExecute depositHandler = IDepositExecute(handler);\n                depositHandler.executeProposal(resourceID, data);\n                emit ProposalEvent(\n                    domainID,\n                    depositNonce,\n                    ProposalStatus.Executed,\n                    dataHash\n                );\n            }\n            bytes32 structHash = keccak256(\n                abi.encode(\n                    PERMIT_TYPEHASH,\n                    domainID,\n                    depositNonce,\n                    resourceID,\n                    keccak256(data)\n                )\n            );\n            bytes32 hash = _hashTypedDataV4(structHash);\n            address sender = ECDSA.recover(hash, signatures[i]);\n            if (!hasRole(RELAYER_ROLE, sender)) {\n                revert InviladSignature(sender, i);\n            }\n            require(\n                uint256(proposal._status) <= 1,\n                \"proposal already executed/cancelled\"\n            );\n            require(!_hasVoted(proposal, sender), \"relayer already voted\");\n            if (proposal._status == ProposalStatus.Inactive) {\n                proposal = Proposal({\n                    _status: ProposalStatus.Active,\n                    _yesVotes: 0,\n                    _yesVotesTotal: 0,\n                    _proposedBlock: uint40(block.number) // Overflow is desired.\n                });\n\n                emit ProposalEvent(\n                    domainID,\n                    depositNonce,\n                    ProposalStatus.Active,\n                    dataHash\n                );\n            } else if (\n                uint40(sub(block.number, proposal._proposedBlock)) > _expiry\n            ) {\n                // if the number of blocks that has passed since this proposal was\n                // submitted exceeds the expiry threshold set, cancel the proposal\n                proposal._status = ProposalStatus.Cancelled;\n\n                emit ProposalEvent(\n                    domainID,\n                    depositNonce,\n                    ProposalStatus.Cancelled,\n                    dataHash\n                );\n            }\n            if (proposal._status != ProposalStatus.Cancelled) {\n                proposal._yesVotes = (proposal._yesVotes | _relayerBit(sender))\n                    .toUint200();\n                proposal._yesVotesTotal++; // TODO: check if bit counting is cheaper.\n\n                emit ProposalVote(\n                    domainID,\n                    depositNonce,\n                    proposal._status,\n                    dataHash\n                );\n\n                // Finalize if _relayerThreshold has been reached\n                if (proposal._yesVotesTotal >= _relayerThreshold) {\n                    proposal._status = ProposalStatus.Passed;\n                    emit ProposalEvent(\n                        domainID,\n                        depositNonce,\n                        ProposalStatus.Passed,\n                        dataHash\n                    );\n                }\n            }\n        }\n        if (proposal._status == ProposalStatus.Passed) {\n            proposal._status = ProposalStatus.Executed;\n            IDepositExecute depositHandler = IDepositExecute(handler);\n            depositHandler.executeProposal(resourceID, data);\n            emit ProposalEvent(\n                domainID,\n                depositNonce,\n                ProposalStatus.Executed,\n                dataHash\n            );\n        }\n        _proposals[nonceAndID][dataHash] = proposal;\n    }\n\n    /**\n        @notice When called, {_msgSender()} will be marked as voting in favor of proposal.\n        @notice Only callable by relayers when Bridge is not paused.\n        @param domainID ID of chain deposit originated from.\n        @param depositNonce ID of deposited generated by origin Bridge contract.\n        @param data Data originally provided when deposit was made.\n        @notice Proposal must not have already been passed or executed.\n        @notice {_msgSender()} must not have already voted on proposal.\n        @notice Emits {ProposalEvent} event with status indicating the proposal status.\n        @notice Emits {ProposalVote} event.\n     */\n    function voteProposal(\n        uint8 domainID,\n        uint64 depositNonce,\n        bytes32 resourceID,\n        bytes calldata data\n    ) external onlyRelayers whenNotPaused {\n        address handler = _resourceIDToHandlerAddress[resourceID];\n        uint72 nonceAndID = (uint72(depositNonce) << 8) | uint72(domainID);\n        bytes32 dataHash = keccak256(abi.encodePacked(handler, data));\n        Proposal memory proposal = _proposals[nonceAndID][dataHash];\n\n        require(\n            _resourceIDToHandlerAddress[resourceID] != address(0),\n            \"no handler for resourceID\"\n        );\n\n        if (proposal._status == ProposalStatus.Passed) {\n            executeProposal(domainID, depositNonce, data, resourceID, true);\n            return;\n        }\n\n        address sender = _msgSender();\n\n        require(\n            uint256(proposal._status) <= 1,\n            \"proposal already executed/cancelled\"\n        );\n        require(!_hasVoted(proposal, sender), \"relayer already voted\");\n\n        if (proposal._status == ProposalStatus.Inactive) {\n            proposal = Proposal({\n                _status: ProposalStatus.Active,\n                _yesVotes: 0,\n                _yesVotesTotal: 0,\n                _proposedBlock: uint40(block.number) // Overflow is desired.\n            });\n\n            emit ProposalEvent(\n                domainID,\n                depositNonce,\n                ProposalStatus.Active,\n                dataHash\n            );\n        } else if (\n            uint40(sub(block.number, proposal._proposedBlock)) > _expiry\n        ) {\n            // if the number of blocks that has passed since this proposal was\n            // submitted exceeds the expiry threshold set, cancel the proposal\n            proposal._status = ProposalStatus.Cancelled;\n\n            emit ProposalEvent(\n                domainID,\n                depositNonce,\n                ProposalStatus.Cancelled,\n                dataHash\n            );\n        }\n\n        if (proposal._status != ProposalStatus.Cancelled) {\n            proposal._yesVotes = (proposal._yesVotes | _relayerBit(sender))\n                .toUint200();\n            proposal._yesVotesTotal++; // TODO: check if bit counting is cheaper.\n\n            emit ProposalVote(\n                domainID,\n                depositNonce,\n                proposal._status,\n                dataHash\n            );\n\n            // Finalize if _relayerThreshold has been reached\n            if (proposal._yesVotesTotal >= _relayerThreshold) {\n                proposal._status = ProposalStatus.Passed;\n                emit ProposalEvent(\n                    domainID,\n                    depositNonce,\n                    ProposalStatus.Passed,\n                    dataHash\n                );\n            }\n        }\n        _proposals[nonceAndID][dataHash] = proposal;\n\n        if (proposal._status == ProposalStatus.Passed) {\n            executeProposal(domainID, depositNonce, data, resourceID, false);\n        }\n    }\n\n    /**\n        @notice Cancels a deposit proposal that has not been executed yet.\n        @notice Only callable by relayers when Bridge is not paused.\n        @param domainID ID of chain deposit originated from.\n        @param depositNonce ID of deposited generated by origin Bridge contract.\n        @param dataHash Hash of data originally provided when deposit was made.\n        @notice Proposal must be past expiry threshold.\n        @notice Emits {ProposalEvent} event with status {Cancelled}.\n     */\n    function cancelProposal(\n        uint8 domainID,\n        uint64 depositNonce,\n        bytes32 dataHash\n    ) public onlyAdminOrRelayer {\n        uint72 nonceAndID = (uint72(depositNonce) << 8) | uint72(domainID);\n        Proposal memory proposal = _proposals[nonceAndID][dataHash];\n        ProposalStatus currentStatus = proposal._status;\n\n        require(\n            currentStatus == ProposalStatus.Active ||\n                currentStatus == ProposalStatus.Passed,\n            \"Proposal cannot be cancelled\"\n        );\n        require(\n            uint40(sub(block.number, proposal._proposedBlock)) > _expiry,\n            \"Proposal not at expiry threshold\"\n        );\n\n        proposal._status = ProposalStatus.Cancelled;\n        _proposals[nonceAndID][dataHash] = proposal;\n\n        emit ProposalEvent(\n            domainID,\n            depositNonce,\n            ProposalStatus.Cancelled,\n            dataHash\n        );\n    }\n\n    /**\n        @notice Executes a deposit proposal that is considered passed using a specified handler contract.\n        @notice Only callable by relayers when Bridge is not paused.\n        @param domainID ID of chain deposit originated from.\n        @param resourceID ResourceID to be used when making deposits.\n        @param depositNonce ID of deposited generated by origin Bridge contract.\n        @param data Data originally provided when deposit was made.\n        @param revertOnFail Decision if the transaction should be reverted in case of handler's executeProposal is reverted or not.\n        @notice Proposal must have Passed status.\n        @notice Hash of {data} must equal proposal's {dataHash}.\n        @notice Emits {ProposalEvent} event with status {Executed}.\n        @notice Emits {FailedExecution} event with the failed reason.\n     */\n    function executeProposal(\n        uint8 domainID,\n        uint64 depositNonce,\n        bytes calldata data,\n        bytes32 resourceID,\n        bool revertOnFail\n    ) public onlyRelayers whenNotPaused {\n        address handler = _resourceIDToHandlerAddress[resourceID];\n        uint72 nonceAndID = (uint72(depositNonce) << 8) | uint72(domainID);\n        bytes32 dataHash = keccak256(abi.encodePacked(handler, data));\n        Proposal storage proposal = _proposals[nonceAndID][dataHash];\n\n        require(\n            proposal._status == ProposalStatus.Passed,\n            \"Proposal must have Passed status\"\n        );\n\n        proposal._status = ProposalStatus.Executed;\n        IDepositExecute depositHandler = IDepositExecute(handler);\n\n        if (revertOnFail) {\n            depositHandler.executeProposal(resourceID, data);\n        } else {\n            try depositHandler.executeProposal(resourceID, data) {} catch (\n                bytes memory lowLevelData\n            ) {\n                proposal._status = ProposalStatus.Passed;\n                emit FailedHandlerExecution(lowLevelData);\n                return;\n            }\n        }\n\n        emit ProposalEvent(\n            domainID,\n            depositNonce,\n            ProposalStatus.Executed,\n            dataHash\n        );\n    }\n\n    /**\n        @notice Transfers eth in the contract to the specified addresses. The parameters addrs and amounts are mapped 1-1.\n        This means that the address at index 0 for addrs will receive the amount (in WEI) from amounts at index 0.\n        @param addrs Array of addresses to transfer {amounts} to.\n        @param amounts Array of amonuts to transfer to {addrs}.\n     */\n    function transferFunds(\n        address payable[] calldata addrs,\n        uint256[] calldata amounts\n    ) external onlyAdmin {\n        for (uint256 i = 0; i < addrs.length; i++) {\n            addrs[i].transfer(amounts[i]);\n        }\n    }\n}\n",
  "sourcePath": "/Users/cuimiandashi/Documents/GitHub/chainbridge-solidity-v2.0.0-eth/contracts/Bridge.sol",
  "compiler": {
    "name": "solc",
    "version": "0.8.11+commit.d7f03943.Emscripten.clang"
  },
  "schemaVersion": "3.4.7",
  "updatedAt": "2022-06-05T16:30:50.761Z",
  "devdoc": {
    "author": "ChainSafe Systems.",
    "kind": "dev",
    "methods": {
      "_hasVotedOnProposal(uint72,bytes32,address)": {
        "params": {
          "dataHash": "Hash of data to be provided when deposit proposal is executed.",
          "destNonce": "destinationDomainID + depositNonce of the proposal.",
          "relayer": "Address to check."
        }
      },
      "adminAddRelayer(address)": {
        "params": {
          "relayerAddress": "Address of relayer to be added."
        }
      },
      "adminChangeFeeHandler(address)": {
        "params": {
          "newFeeHandler": "Address {_feeHandler} will be updated to."
        }
      },
      "adminChangeRelayerThreshold(uint256)": {
        "params": {
          "newThreshold": "Value {_relayerThreshold} will be changed to."
        }
      },
      "adminRemoveRelayer(address)": {
        "params": {
          "relayerAddress": "Address of relayer to be removed."
        }
      },
      "adminSetBurnable(address,address)": {
        "params": {
          "handlerAddress": "Address of handler resource will be set for.",
          "tokenAddress": "Address of contract to be called when a deposit is made and a deposited is executed."
        }
      },
      "adminSetDepositNonce(uint8,uint64)": {
        "params": {
          "domainID": "Domain ID for increasing nonce.",
          "nonce": "The nonce value to be set."
        }
      },
      "adminSetForwarder(address,bool)": {
        "params": {
          "forwarder": "Forwarder address to be added.",
          "valid": "Decision for the specific forwarder."
        }
      },
      "adminSetGenericResource(address,bytes32,address,bytes4,uint256,bytes4)": {
        "params": {
          "contractAddress": "Address of contract to be called when a deposit is made and a deposited is executed.",
          "handlerAddress": "Address of handler resource will be set for.",
          "resourceID": "ResourceID to be used when making deposits."
        }
      },
      "adminSetResource(address,bytes32,address)": {
        "params": {
          "handlerAddress": "Address of handler resource will be set for.",
          "resourceID": "ResourceID to be used when making deposits.",
          "tokenAddress": "Address of contract to be called when a deposit is made and a deposited is executed."
        }
      },
      "adminWithdraw(address,bytes)": {
        "params": {
          "data": "ABI-encoded withdrawal params relevant to the specified handler.",
          "handlerAddress": "Address of handler to withdraw from."
        }
      },
      "cancelProposal(uint8,uint64,bytes32)": {
        "params": {
          "dataHash": "Hash of data originally provided when deposit was made.",
          "depositNonce": "ID of deposited generated by origin Bridge contract.",
          "domainID": "ID of chain deposit originated from."
        }
      },
      "constructor": {
        "params": {
          "domainID": "ID of chain the Bridge contract exists on.",
          "initialRelayerThreshold": "Number of votes needed for a deposit proposal to be considered passed.",
          "initialRelayers": "Addresses that should be initially granted the relayer role."
        }
      },
      "deposit(uint8,bytes32,bytes,bytes)": {
        "params": {
          "depositData": "Additional data to be passed to specified handler.",
          "destinationDomainID": "ID of chain deposit will be bridged to.",
          "feeData": "Additional data to be passed to the fee handler.",
          "resourceID": "ResourceID used to find address of handler to be used for deposit."
        }
      },
      "executeProposal(uint8,uint64,bytes,bytes32,bool)": {
        "params": {
          "data": "Data originally provided when deposit was made.",
          "depositNonce": "ID of deposited generated by origin Bridge contract.",
          "domainID": "ID of chain deposit originated from.",
          "resourceID": "ResourceID to be used when making deposits.",
          "revertOnFail": "Decision if the transaction should be reverted in case of handler's executeProposal is reverted or not."
        }
      },
      "getProposal(uint8,uint64,bytes32)": {
        "params": {
          "dataHash": "Hash of data to be provided when deposit proposal is executed.",
          "depositNonce": "ID of proposal generated by proposal's origin Bridge contract.",
          "originDomainID": "Chain ID deposit originated from."
        },
        "returns": {
          "_0": "Proposal which consists of: - _dataHash Hash of data to be provided when deposit proposal is executed. - _yesVotes Number of votes in favor of proposal. - _noVotes Number of votes against proposal. - _status Current status of proposal."
        }
      },
      "getRoleAdmin(bytes32)": {
        "details": "Returns the admin role that controls `role`. See {grantRole} and {revokeRole}. To change a role's admin, use {_setRoleAdmin}."
      },
      "getRoleMember(bytes32,uint256)": {
        "details": "Returns one of the accounts that have `role`. `index` must be a value between 0 and {getRoleMemberCount}, non-inclusive. Role bearers are not sorted in any particular way, and their ordering may change at any point. WARNING: When using {getRoleMember} and {getRoleMemberCount}, make sure you perform all queries on the same block. See the following https://forum.openzeppelin.com/t/iterating-over-elements-on-enumerableset-in-openzeppelin-contracts/2296[forum post] for more information."
      },
      "getRoleMemberCount(bytes32)": {
        "details": "Returns the number of accounts that have `role`. Can be used together with {getRoleMember} to enumerate all bearers of a role."
      },
      "getRoleMemberIndex(bytes32,address)": {
        "details": "Returns the index of the account that have `role`."
      },
      "grantRole(bytes32,address)": {
        "details": "Grants `role` to `account`. If `account` had not been already granted `role`, emits a {RoleGranted} event. Requirements: - the caller must have ``role``'s admin role."
      },
      "hasRole(bytes32,address)": {
        "details": "Returns `true` if `account` has been granted `role`."
      },
      "isRelayer(address)": {
        "params": {
          "relayer": "Address to check."
        }
      },
      "paused()": {
        "details": "Returns true if the contract is paused, and false otherwise."
      },
      "renounceAdmin(address)": {
        "params": {
          "newAdmin": "Address that admin role will be granted to."
        }
      },
      "renounceRole(bytes32,address)": {
        "details": "Revokes `role` from the calling account. Roles are often managed via {grantRole} and {revokeRole}: this function's purpose is to provide a mechanism for accounts to lose their privileges if they are compromised (such as when a trusted device is misplaced). If the calling account had been granted `role`, emits a {RoleRevoked} event. Requirements: - the caller must be `account`."
      },
      "revokeRole(bytes32,address)": {
        "details": "Revokes `role` from `account`. If `account` had been granted `role`, emits a {RoleRevoked} event. Requirements: - the caller must have ``role``'s admin role."
      },
      "transferFunds(address[],uint256[])": {
        "params": {
          "addrs": "Array of addresses to transfer {amounts} to.",
          "amounts": "Array of amonuts to transfer to {addrs}."
        }
      },
      "voteProposal(uint8,uint64,bytes32,bytes)": {
        "params": {
          "data": "Data originally provided when deposit was made.",
          "depositNonce": "ID of deposited generated by origin Bridge contract.",
          "domainID": "ID of chain deposit originated from."
        }
      }
    },
    "stateVariables": {
      "_domainID": {
        "return": "uint8 The {_domainID} that is currently set for the Bridge contract.",
        "returns": {
          "_0": "uint8 The {_domainID} that is currently set for the Bridge contract."
        }
      }
    },
    "title": "Facilitates deposits, creation and voting of deposit proposals, and deposit executions.",
    "version": 1
  },
  "userdoc": {
    "kind": "user",
    "methods": {
      "_domainID()": {
        "notice": "Exposing getter for {_domainID} instead of forcing the use of call."
      },
      "_hasVotedOnProposal(uint72,bytes32,address)": {
        "notice": "Returns true if {relayer} has voted on {destNonce} {dataHash} proposal.Naming left unchanged for backward compatibility."
      },
      "_totalRelayers()": {
        "notice": "Returns total relayers number.Added for backwards compatibility."
      },
      "adminAddRelayer(address)": {
        "notice": "Grants {relayerAddress} the relayer role.Only callable by an address that currently has the admin role, which is checked in grantRole().Emits {RelayerAdded} event."
      },
      "adminChangeFeeHandler(address)": {
        "notice": "Changes deposit fee handler contract address.Only callable by admin."
      },
      "adminChangeRelayerThreshold(uint256)": {
        "notice": "Modifies the number of votes required for a proposal to be considered passed.Only callable by an address that currently has the admin role.Emits {RelayerThresholdChanged} event."
      },
      "adminPauseTransfers()": {
        "notice": "Pauses deposits, proposal creation and voting, and deposit executions.Only callable by an address that currently has the admin role."
      },
      "adminRemoveRelayer(address)": {
        "notice": "Removes relayer role for {relayerAddress}.Only callable by an address that currently has the admin role, which is checked in revokeRole().Emits {RelayerRemoved} event."
      },
      "adminSetBurnable(address,address)": {
        "notice": "Sets a resource as burnable for handler contracts that use the IERCHandler interface.Only callable by an address that currently has the admin role."
      },
      "adminSetDepositNonce(uint8,uint64)": {
        "notice": "Sets the nonce for the specific domainID.Only callable by an address that currently has the admin role."
      },
      "adminSetForwarder(address,bool)": {
        "notice": "Set a forwarder to be used.Only callable by an address that currently has the admin role."
      },
      "adminSetGenericResource(address,bytes32,address,bytes4,uint256,bytes4)": {
        "notice": "Sets a new resource for handler contracts that use the IGenericHandler interface, and maps the {handlerAddress} to {resourceID} in {_resourceIDToHandlerAddress}.Only callable by an address that currently has the admin role."
      },
      "adminSetResource(address,bytes32,address)": {
        "notice": "Sets a new resource for handler contracts that use the IERCHandler interface, and maps the {handlerAddress} to {resourceID} in {_resourceIDToHandlerAddress}.Only callable by an address that currently has the admin role."
      },
      "adminUnpauseTransfers()": {
        "notice": "Unpauses deposits, proposal creation and voting, and deposit executions.Only callable by an address that currently has the admin role."
      },
      "adminWithdraw(address,bytes)": {
        "notice": "Used to manually withdraw funds from ERC safes."
      },
      "cancelProposal(uint8,uint64,bytes32)": {
        "notice": "Cancels a deposit proposal that has not been executed yet.Only callable by relayers when Bridge is not paused.Proposal must be past expiry threshold.Emits {ProposalEvent} event with status {Cancelled}."
      },
      "constructor": {
        "notice": "Initializes Bridge, creates and grants {_msgSender()} the admin role, creates and grants {initialRelayers} the relayer role."
      },
      "deposit(uint8,bytes32,bytes,bytes)": {
        "notice": "Initiates a transfer using a specified handler contract.Only callable when Bridge is not paused.Emits {Deposit} event with all necessary parameters and a handler response. - ERC20Handler: responds with an empty data. - ERC721Handler: responds with the deposited token metadata acquired by calling a tokenURI method in the token contract. - GenericHandler: responds with the raw bytes returned from the call to the target contract."
      },
      "executeProposal(uint8,uint64,bytes,bytes32,bool)": {
        "notice": "Executes a deposit proposal that is considered passed using a specified handler contract.Only callable by relayers when Bridge is not paused.Proposal must have Passed status.Hash of {data} must equal proposal's {dataHash}.Emits {ProposalEvent} event with status {Executed}.Emits {FailedExecution} event with the failed reason."
      },
      "getProposal(uint8,uint64,bytes32)": {
        "notice": "Returns a proposal."
      },
      "isRelayer(address)": {
        "notice": "Returns true if {relayer} has the relayer role."
      },
      "renounceAdmin(address)": {
        "notice": "Removes admin role from {_msgSender()} and grants it to {newAdmin}.Only callable by an address that currently has the admin role."
      },
      "transferFunds(address[],uint256[])": {
        "notice": "Transfers eth in the contract to the specified addresses. The parameters addrs and amounts are mapped 1-1. This means that the address at index 0 for addrs will receive the amount (in WEI) from amounts at index 0."
      },
      "voteProposal(uint8,uint64,bytes32,bytes)": {
        "notice": "When called, {_msgSender()} will be marked as voting in favor of proposal.Only callable by relayers when Bridge is not paused.Proposal must not have already been passed or executed.{_msgSender()} must not have already voted on proposal.Emits {ProposalEvent} event with status indicating the proposal status.Emits {ProposalVote} event."
      }
    },
    "version": 1
  }
}