{
  "contractName": "BridgeUpgradeable",
  "abi": [
    {
      "inputs": [
        {
          "internalType": "uint256",
          "name": "msgValue",
          "type": "uint256"
        },
        {
          "internalType": "uint256",
          "name": "fee",
          "type": "uint256"
        }
      ],
      "name": "IncorrectFeeSupplied",
      "type": "error"
    },
    {
      "inputs": [
        {
          "internalType": "address",
          "name": "signer",
          "type": "address"
        },
        {
          "internalType": "uint256",
          "name": "index",
          "type": "uint256"
        }
      ],
      "name": "InvalidSignature",
      "type": "error"
    },
    {
      "inputs": [],
      "name": "ResourceIDNotMappedToHandler",
      "type": "error"
    },
    {
      "anonymous": false,
      "inputs": [
        {
          "indexed": false,
          "internalType": "uint8",
          "name": "destinationDomainID",
          "type": "uint8"
        },
        {
          "indexed": false,
          "internalType": "bytes32",
          "name": "resourceID",
          "type": "bytes32"
        },
        {
          "indexed": false,
          "internalType": "uint64",
          "name": "depositNonce",
          "type": "uint64"
        },
        {
          "indexed": true,
          "internalType": "address",
          "name": "user",
          "type": "address"
        },
        {
          "indexed": false,
          "internalType": "bytes",
          "name": "data",
          "type": "bytes"
        },
        {
          "indexed": false,
          "internalType": "bytes",
          "name": "handlerResponse",
          "type": "bytes"
        }
      ],
      "name": "Deposit",
      "type": "event"
    },
    {
      "anonymous": false,
      "inputs": [
        {
          "indexed": false,
          "internalType": "bytes",
          "name": "lowLevelData",
          "type": "bytes"
        }
      ],
      "name": "FailedHandlerExecution",
      "type": "event"
    },
    {
      "anonymous": false,
      "inputs": [
        {
          "indexed": false,
          "internalType": "uint256",
          "name": "newFee",
          "type": "uint256"
        }
      ],
      "name": "FeeChanged",
      "type": "event"
    },
    {
      "anonymous": false,
      "inputs": [
        {
          "indexed": false,
          "internalType": "address",
          "name": "tokenAddress",
          "type": "address"
        },
        {
          "indexed": false,
          "internalType": "address",
          "name": "recipient",
          "type": "address"
        },
        {
          "indexed": false,
          "internalType": "uint256",
          "name": "amount",
          "type": "uint256"
        }
      ],
      "name": "FeeDistributed",
      "type": "event"
    },
    {
      "anonymous": false,
      "inputs": [
        {
          "indexed": false,
          "internalType": "address",
          "name": "newFeeHandler",
          "type": "address"
        }
      ],
      "name": "FeeHandlerChanged",
      "type": "event"
    },
    {
      "anonymous": false,
      "inputs": [
        {
          "indexed": false,
          "internalType": "uint8",
          "name": "version",
          "type": "uint8"
        }
      ],
      "name": "Initialized",
      "type": "event"
    },
    {
      "anonymous": false,
      "inputs": [
        {
          "indexed": false,
          "internalType": "address",
          "name": "account",
          "type": "address"
        }
      ],
      "name": "Paused",
      "type": "event"
    },
    {
      "anonymous": false,
      "inputs": [
        {
          "indexed": false,
          "internalType": "uint8",
          "name": "originDomainID",
          "type": "uint8"
        },
        {
          "indexed": false,
          "internalType": "uint64",
          "name": "depositNonce",
          "type": "uint64"
        },
        {
          "indexed": false,
          "internalType": "enum IBridge.ProposalStatus",
          "name": "status",
          "type": "uint8"
        },
        {
          "indexed": false,
          "internalType": "bytes32",
          "name": "dataHash",
          "type": "bytes32"
        }
      ],
      "name": "ProposalEvent",
      "type": "event"
    },
    {
      "anonymous": false,
      "inputs": [
        {
          "indexed": false,
          "internalType": "uint8",
          "name": "originDomainID",
          "type": "uint8"
        },
        {
          "indexed": false,
          "internalType": "uint64",
          "name": "depositNonce",
          "type": "uint64"
        },
        {
          "indexed": false,
          "internalType": "enum IBridge.ProposalStatus",
          "name": "status",
          "type": "uint8"
        },
        {
          "indexed": false,
          "internalType": "bytes32",
          "name": "dataHash",
          "type": "bytes32"
        }
      ],
      "name": "ProposalVote",
      "type": "event"
    },
    {
      "anonymous": false,
      "inputs": [
        {
          "indexed": false,
          "internalType": "address",
          "name": "relayer",
          "type": "address"
        }
      ],
      "name": "RelayerAdded",
      "type": "event"
    },
    {
      "anonymous": false,
      "inputs": [
        {
          "indexed": false,
          "internalType": "address",
          "name": "relayer",
          "type": "address"
        }
      ],
      "name": "RelayerRemoved",
      "type": "event"
    },
    {
      "anonymous": false,
      "inputs": [
        {
          "indexed": false,
          "internalType": "uint256",
          "name": "newThreshold",
          "type": "uint256"
        }
      ],
      "name": "RelayerThresholdChanged",
      "type": "event"
    },
    {
      "anonymous": false,
      "inputs": [
        {
          "indexed": true,
          "internalType": "bytes32",
          "name": "role",
          "type": "bytes32"
        },
        {
          "indexed": true,
          "internalType": "address",
          "name": "account",
          "type": "address"
        },
        {
          "indexed": true,
          "internalType": "address",
          "name": "sender",
          "type": "address"
        }
      ],
      "name": "RoleGranted",
      "type": "event"
    },
    {
      "anonymous": false,
      "inputs": [
        {
          "indexed": true,
          "internalType": "bytes32",
          "name": "role",
          "type": "bytes32"
        },
        {
          "indexed": true,
          "internalType": "address",
          "name": "account",
          "type": "address"
        },
        {
          "indexed": true,
          "internalType": "address",
          "name": "sender",
          "type": "address"
        }
      ],
      "name": "RoleRevoked",
      "type": "event"
    },
    {
      "anonymous": false,
      "inputs": [
        {
          "indexed": false,
          "internalType": "address",
          "name": "account",
          "type": "address"
        }
      ],
      "name": "Unpaused",
      "type": "event"
    },
    {
      "inputs": [],
      "name": "DEFAULT_ADMIN_ROLE",
      "outputs": [
        {
          "internalType": "bytes32",
          "name": "",
          "type": "bytes32"
        }
      ],
      "stateMutability": "view",
      "type": "function"
    },
    {
      "inputs": [],
      "name": "MAX_RELAYERS",
      "outputs": [
        {
          "internalType": "uint256",
          "name": "",
          "type": "uint256"
        }
      ],
      "stateMutability": "view",
      "type": "function"
    },
    {
      "inputs": [],
      "name": "PERMIT_TYPEHASH",
      "outputs": [
        {
          "internalType": "bytes32",
          "name": "",
          "type": "bytes32"
        }
      ],
      "stateMutability": "view",
      "type": "function"
    },
    {
      "inputs": [],
      "name": "RELAYER_ROLE",
      "outputs": [
        {
          "internalType": "bytes32",
          "name": "",
          "type": "bytes32"
        }
      ],
      "stateMutability": "view",
      "type": "function"
    },
    {
      "inputs": [
        {
          "internalType": "uint8",
          "name": "",
          "type": "uint8"
        }
      ],
      "name": "_depositCounts",
      "outputs": [
        {
          "internalType": "uint64",
          "name": "",
          "type": "uint64"
        }
      ],
      "stateMutability": "view",
      "type": "function"
    },
    {
      "inputs": [],
      "name": "_domainID",
      "outputs": [
        {
          "internalType": "uint8",
          "name": "",
          "type": "uint8"
        }
      ],
      "stateMutability": "view",
      "type": "function"
    },
    {
      "inputs": [],
      "name": "_expiry",
      "outputs": [
        {
          "internalType": "uint40",
          "name": "",
          "type": "uint40"
        }
      ],
      "stateMutability": "view",
      "type": "function"
    },
    {
      "inputs": [],
      "name": "_feeHandler",
      "outputs": [
        {
          "internalType": "contract IFeeHandler",
          "name": "",
          "type": "address"
        }
      ],
      "stateMutability": "view",
      "type": "function"
    },
    {
      "inputs": [],
      "name": "_feeReserve",
      "outputs": [
        {
          "internalType": "uint256",
          "name": "",
          "type": "uint256"
        }
      ],
      "stateMutability": "view",
      "type": "function"
    },
    {
      "inputs": [],
      "name": "_fee_",
      "outputs": [
        {
          "internalType": "uint256",
          "name": "",
          "type": "uint256"
        }
      ],
      "stateMutability": "view",
      "type": "function"
    },
    {
      "inputs": [],
      "name": "_relayerThreshold",
      "outputs": [
        {
          "internalType": "uint8",
          "name": "",
          "type": "uint8"
        }
      ],
      "stateMutability": "view",
      "type": "function"
    },
    {
      "inputs": [
        {
          "internalType": "bytes32",
          "name": "",
          "type": "bytes32"
        }
      ],
      "name": "_resourceIDToHandlerAddress",
      "outputs": [
        {
          "internalType": "address",
          "name": "",
          "type": "address"
        }
      ],
      "stateMutability": "view",
      "type": "function"
    },
    {
      "inputs": [
        {
          "internalType": "bytes32",
          "name": "role",
          "type": "bytes32"
        }
      ],
      "name": "getRoleAdmin",
      "outputs": [
        {
          "internalType": "bytes32",
          "name": "",
          "type": "bytes32"
        }
      ],
      "stateMutability": "view",
      "type": "function"
    },
    {
      "inputs": [
        {
          "internalType": "bytes32",
          "name": "role",
          "type": "bytes32"
        },
        {
          "internalType": "uint256",
          "name": "index",
          "type": "uint256"
        }
      ],
      "name": "getRoleMember",
      "outputs": [
        {
          "internalType": "address",
          "name": "",
          "type": "address"
        }
      ],
      "stateMutability": "view",
      "type": "function"
    },
    {
      "inputs": [
        {
          "internalType": "bytes32",
          "name": "role",
          "type": "bytes32"
        }
      ],
      "name": "getRoleMemberCount",
      "outputs": [
        {
          "internalType": "uint256",
          "name": "",
          "type": "uint256"
        }
      ],
      "stateMutability": "view",
      "type": "function"
    },
    {
      "inputs": [
        {
          "internalType": "bytes32",
          "name": "role",
          "type": "bytes32"
        },
        {
          "internalType": "address",
          "name": "account",
          "type": "address"
        }
      ],
      "name": "getRoleMemberIndex",
      "outputs": [
        {
          "internalType": "uint256",
          "name": "",
          "type": "uint256"
        }
      ],
      "stateMutability": "view",
      "type": "function"
    },
    {
      "inputs": [
        {
          "internalType": "bytes32",
          "name": "role",
          "type": "bytes32"
        },
        {
          "internalType": "address",
          "name": "account",
          "type": "address"
        }
      ],
      "name": "grantRole",
      "outputs": [],
      "stateMutability": "nonpayable",
      "type": "function"
    },
    {
      "inputs": [
        {
          "internalType": "bytes32",
          "name": "role",
          "type": "bytes32"
        },
        {
          "internalType": "address",
          "name": "account",
          "type": "address"
        }
      ],
      "name": "hasRole",
      "outputs": [
        {
          "internalType": "bool",
          "name": "",
          "type": "bool"
        }
      ],
      "stateMutability": "view",
      "type": "function"
    },
    {
      "inputs": [
        {
          "internalType": "address",
          "name": "",
          "type": "address"
        }
      ],
      "name": "isValidForwarder",
      "outputs": [
        {
          "internalType": "bool",
          "name": "",
          "type": "bool"
        }
      ],
      "stateMutability": "view",
      "type": "function"
    },
    {
      "inputs": [],
      "name": "paused",
      "outputs": [
        {
          "internalType": "bool",
          "name": "",
          "type": "bool"
        }
      ],
      "stateMutability": "view",
      "type": "function"
    },
    {
      "inputs": [
        {
          "internalType": "bytes32",
          "name": "role",
          "type": "bytes32"
        },
        {
          "internalType": "address",
          "name": "account",
          "type": "address"
        }
      ],
      "name": "revokeRole",
      "outputs": [],
      "stateMutability": "nonpayable",
      "type": "function"
    },
    {
      "inputs": [
        {
          "internalType": "uint8",
          "name": "",
          "type": "uint8"
        }
      ],
      "name": "special",
      "outputs": [
        {
          "internalType": "bool",
          "name": "",
          "type": "bool"
        }
      ],
      "stateMutability": "view",
      "type": "function"
    },
    {
      "inputs": [
        {
          "internalType": "uint8",
          "name": "",
          "type": "uint8"
        }
      ],
      "name": "specialFee",
      "outputs": [
        {
          "internalType": "uint256",
          "name": "",
          "type": "uint256"
        }
      ],
      "stateMutability": "view",
      "type": "function"
    },
    {
      "inputs": [],
      "name": "_fee",
      "outputs": [
        {
          "internalType": "uint256",
          "name": "",
          "type": "uint256"
        }
      ],
      "stateMutability": "view",
      "type": "function"
    },
    {
      "inputs": [],
      "name": "_chainId",
      "outputs": [
        {
          "internalType": "uint256",
          "name": "",
          "type": "uint256"
        }
      ],
      "stateMutability": "view",
      "type": "function"
    },
    {
      "inputs": [
        {
          "internalType": "uint8",
          "name": "domainID",
          "type": "uint8"
        },
        {
          "internalType": "address[]",
          "name": "initialRelayers",
          "type": "address[]"
        },
        {
          "internalType": "uint256",
          "name": "initialRelayerThreshold",
          "type": "uint256"
        },
        {
          "internalType": "uint256",
          "name": "expiry",
          "type": "uint256"
        },
        {
          "internalType": "address",
          "name": "admin",
          "type": "address"
        }
      ],
      "name": "initialize",
      "outputs": [],
      "stateMutability": "nonpayable",
      "type": "function"
    },
    {
      "inputs": [
        {
          "internalType": "uint72",
          "name": "destNonce",
          "type": "uint72"
        },
        {
          "internalType": "bytes32",
          "name": "dataHash",
          "type": "bytes32"
        },
        {
          "internalType": "address",
          "name": "relayer",
          "type": "address"
        }
      ],
      "name": "_hasVotedOnProposal",
      "outputs": [
        {
          "internalType": "bool",
          "name": "",
          "type": "bool"
        }
      ],
      "stateMutability": "view",
      "type": "function"
    },
    {
      "inputs": [
        {
          "internalType": "address",
          "name": "relayer",
          "type": "address"
        }
      ],
      "name": "isRelayer",
      "outputs": [
        {
          "internalType": "bool",
          "name": "",
          "type": "bool"
        }
      ],
      "stateMutability": "view",
      "type": "function"
    },
    {
      "inputs": [
        {
          "internalType": "address",
          "name": "newAdmin",
          "type": "address"
        }
      ],
      "name": "renounceAdmin",
      "outputs": [],
      "stateMutability": "nonpayable",
      "type": "function"
    },
    {
      "inputs": [],
      "name": "adminPauseTransfers",
      "outputs": [],
      "stateMutability": "nonpayable",
      "type": "function"
    },
    {
      "inputs": [],
      "name": "adminUnpauseTransfers",
      "outputs": [],
      "stateMutability": "nonpayable",
      "type": "function"
    },
    {
      "inputs": [
        {
          "internalType": "uint256",
          "name": "newThreshold",
          "type": "uint256"
        }
      ],
      "name": "adminChangeRelayerThreshold",
      "outputs": [],
      "stateMutability": "nonpayable",
      "type": "function"
    },
    {
      "inputs": [
        {
          "internalType": "address",
          "name": "relayerAddress",
          "type": "address"
        }
      ],
      "name": "adminAddRelayer",
      "outputs": [],
      "stateMutability": "nonpayable",
      "type": "function"
    },
    {
      "inputs": [
        {
          "internalType": "address",
          "name": "relayerAddress",
          "type": "address"
        }
      ],
      "name": "adminRemoveRelayer",
      "outputs": [],
      "stateMutability": "nonpayable",
      "type": "function"
    },
    {
      "inputs": [
        {
          "internalType": "bytes32",
          "name": "role",
          "type": "bytes32"
        },
        {
          "internalType": "address",
          "name": "account",
          "type": "address"
        }
      ],
      "name": "renounceRole",
      "outputs": [],
      "stateMutability": "nonpayable",
      "type": "function"
    },
    {
      "inputs": [
        {
          "internalType": "address",
          "name": "handlerAddress",
          "type": "address"
        },
        {
          "internalType": "bytes32",
          "name": "resourceID",
          "type": "bytes32"
        },
        {
          "internalType": "address",
          "name": "tokenAddress",
          "type": "address"
        }
      ],
      "name": "adminSetResource",
      "outputs": [],
      "stateMutability": "nonpayable",
      "type": "function"
    },
    {
      "inputs": [
        {
          "internalType": "address",
          "name": "handlerAddress",
          "type": "address"
        }
      ],
      "name": "adminSetNativeResource",
      "outputs": [],
      "stateMutability": "nonpayable",
      "type": "function"
    },
    {
      "inputs": [
        {
          "internalType": "address",
          "name": "handlerAddress",
          "type": "address"
        },
        {
          "internalType": "bytes32",
          "name": "resourceID",
          "type": "bytes32"
        },
        {
          "internalType": "address",
          "name": "contractAddress",
          "type": "address"
        },
        {
          "internalType": "bytes4",
          "name": "depositFunctionSig",
          "type": "bytes4"
        },
        {
          "internalType": "uint256",
          "name": "depositFunctionDepositorOffset",
          "type": "uint256"
        },
        {
          "internalType": "bytes4",
          "name": "executeFunctionSig",
          "type": "bytes4"
        }
      ],
      "name": "adminSetGenericResource",
      "outputs": [],
      "stateMutability": "nonpayable",
      "type": "function"
    },
    {
      "inputs": [
        {
          "internalType": "address",
          "name": "handlerAddress",
          "type": "address"
        },
        {
          "internalType": "bytes32",
          "name": "resourceID",
          "type": "bytes32"
        },
        {
          "internalType": "address",
          "name": "tokenAddress",
          "type": "address"
        }
      ],
      "name": "adminRemoveResourceId",
      "outputs": [],
      "stateMutability": "nonpayable",
      "type": "function"
    },
    {
      "inputs": [
        {
          "internalType": "address",
          "name": "handlerAddress",
          "type": "address"
        }
      ],
      "name": "adminRemoveNativeResourceId",
      "outputs": [],
      "stateMutability": "nonpayable",
      "type": "function"
    },
    {
      "inputs": [
        {
          "internalType": "address",
          "name": "handlerAddress",
          "type": "address"
        },
        {
          "internalType": "bytes32",
          "name": "resourceID",
          "type": "bytes32"
        },
        {
          "internalType": "address",
          "name": "contractAddress",
          "type": "address"
        }
      ],
      "name": "adminRemoveGenericResource",
      "outputs": [],
      "stateMutability": "nonpayable",
      "type": "function"
    },
    {
      "inputs": [
        {
          "internalType": "address",
          "name": "handlerAddress",
          "type": "address"
        },
        {
          "internalType": "address",
          "name": "tokenAddress",
          "type": "address"
        }
      ],
      "name": "adminSetBurnable",
      "outputs": [],
      "stateMutability": "nonpayable",
      "type": "function"
    },
    {
      "inputs": [
        {
          "internalType": "uint8",
          "name": "domainID",
          "type": "uint8"
        },
        {
          "internalType": "uint64",
          "name": "nonce",
          "type": "uint64"
        }
      ],
      "name": "adminSetDepositNonce",
      "outputs": [],
      "stateMutability": "nonpayable",
      "type": "function"
    },
    {
      "inputs": [
        {
          "internalType": "address",
          "name": "forwarder",
          "type": "address"
        },
        {
          "internalType": "bool",
          "name": "valid",
          "type": "bool"
        }
      ],
      "name": "adminSetForwarder",
      "outputs": [],
      "stateMutability": "nonpayable",
      "type": "function"
    },
    {
      "inputs": [
        {
          "internalType": "bytes32",
          "name": "resourceID",
          "type": "bytes32"
        },
        {
          "internalType": "address",
          "name": "nativeAddress",
          "type": "address"
        },
        {
          "internalType": "bool",
          "name": "isNative",
          "type": "bool"
        }
      ],
      "name": "adminSetNative",
      "outputs": [],
      "stateMutability": "nonpayable",
      "type": "function"
    },
    {
      "inputs": [
        {
          "internalType": "uint8",
          "name": "domainID",
          "type": "uint8"
        }
      ],
      "name": "adminSetDomainId",
      "outputs": [],
      "stateMutability": "nonpayable",
      "type": "function"
    },
    {
      "inputs": [
        {
          "internalType": "uint8",
          "name": "destinationDomainID",
          "type": "uint8"
        },
        {
          "internalType": "uint256",
          "name": "_specialFee",
          "type": "uint256"
        }
      ],
      "name": "adminSetSpecialFee",
      "outputs": [],
      "stateMutability": "nonpayable",
      "type": "function"
    },
    {
      "inputs": [
        {
          "internalType": "uint8",
          "name": "destinationDomainID",
          "type": "uint8"
        }
      ],
      "name": "adminRemoveSpecialFee",
      "outputs": [],
      "stateMutability": "nonpayable",
      "type": "function"
    },
    {
      "inputs": [
        {
          "internalType": "uint256",
          "name": "newFee",
          "type": "uint256"
        }
      ],
      "name": "adminSetFee",
      "outputs": [],
      "stateMutability": "nonpayable",
      "type": "function"
    },
    {
      "inputs": [
        {
          "internalType": "uint8",
          "name": "destinationDomainID",
          "type": "uint8"
        }
      ],
      "name": "getFee",
      "outputs": [
        {
          "internalType": "uint256",
          "name": "",
          "type": "uint256"
        }
      ],
      "stateMutability": "view",
      "type": "function"
    },
    {
      "inputs": [
        {
          "internalType": "uint8",
          "name": "originDomainID",
          "type": "uint8"
        },
        {
          "internalType": "uint64",
          "name": "depositNonce",
          "type": "uint64"
        },
        {
          "internalType": "bytes32",
          "name": "resourceID",
          "type": "bytes32"
        },
        {
          "internalType": "bytes",
          "name": "data",
          "type": "bytes"
        }
      ],
      "name": "getProposal",
      "outputs": [
        {
          "components": [
            {
              "internalType": "enum IBridge.ProposalStatus",
              "name": "_status",
              "type": "uint8"
            },
            {
              "internalType": "uint200",
              "name": "_yesVotes",
              "type": "uint200"
            },
            {
              "internalType": "uint8",
              "name": "_yesVotesTotal",
              "type": "uint8"
            },
            {
              "internalType": "uint40",
              "name": "_proposedBlock",
              "type": "uint40"
            }
          ],
          "internalType": "struct IBridge.Proposal",
          "name": "",
          "type": "tuple"
        }
      ],
      "stateMutability": "view",
      "type": "function"
    },
    {
      "inputs": [],
      "name": "_totalRelayers",
      "outputs": [
        {
          "internalType": "uint256",
          "name": "",
          "type": "uint256"
        }
      ],
      "stateMutability": "view",
      "type": "function"
    },
    {
      "inputs": [
        {
          "internalType": "uint256",
          "name": "expiry",
          "type": "uint256"
        }
      ],
      "name": "adminChangeExpiry",
      "outputs": [],
      "stateMutability": "nonpayable",
      "type": "function"
    },
    {
      "inputs": [
        {
          "internalType": "address",
          "name": "handlerAddress",
          "type": "address"
        },
        {
          "internalType": "bytes",
          "name": "data",
          "type": "bytes"
        }
      ],
      "name": "adminWithdraw",
      "outputs": [],
      "stateMutability": "nonpayable",
      "type": "function"
    },
    {
      "inputs": [
        {
          "internalType": "address",
          "name": "handlerAddress",
          "type": "address"
        },
        {
          "internalType": "bytes",
          "name": "data",
          "type": "bytes"
        }
      ],
      "name": "adminWithdrawETH",
      "outputs": [],
      "stateMutability": "nonpayable",
      "type": "function"
    },
    {
      "inputs": [
        {
          "internalType": "address payable[]",
          "name": "addrs",
          "type": "address[]"
        },
        {
          "internalType": "uint256[]",
          "name": "amounts",
          "type": "uint256[]"
        }
      ],
      "name": "transferFee",
      "outputs": [],
      "stateMutability": "nonpayable",
      "type": "function"
    },
    {
      "inputs": [
        {
          "internalType": "uint8",
          "name": "destinationDomainID",
          "type": "uint8"
        },
        {
          "internalType": "bytes32",
          "name": "resourceID",
          "type": "bytes32"
        },
        {
          "internalType": "bytes",
          "name": "depositData",
          "type": "bytes"
        },
        {
          "internalType": "bytes",
          "name": "feeData",
          "type": "bytes"
        }
      ],
      "name": "deposit",
      "outputs": [],
      "stateMutability": "payable",
      "type": "function"
    },
    {
      "inputs": [
        {
          "internalType": "uint8",
          "name": "domainID",
          "type": "uint8"
        },
        {
          "internalType": "uint64",
          "name": "depositNonce",
          "type": "uint64"
        },
        {
          "internalType": "bytes32",
          "name": "resourceID",
          "type": "bytes32"
        },
        {
          "internalType": "bytes",
          "name": "data",
          "type": "bytes"
        },
        {
          "internalType": "bytes",
          "name": "signature",
          "type": "bytes"
        }
      ],
      "name": "checkSignature",
      "outputs": [
        {
          "internalType": "bool",
          "name": "",
          "type": "bool"
        }
      ],
      "stateMutability": "view",
      "type": "function"
    },
    {
      "inputs": [
        {
          "internalType": "uint8",
          "name": "domainID",
          "type": "uint8"
        },
        {
          "internalType": "uint64",
          "name": "depositNonce",
          "type": "uint64"
        },
        {
          "internalType": "bytes32",
          "name": "resourceID",
          "type": "bytes32"
        },
        {
          "internalType": "bytes",
          "name": "data",
          "type": "bytes"
        },
        {
          "internalType": "bytes[]",
          "name": "signatures",
          "type": "bytes[]"
        }
      ],
      "name": "voteProposals",
      "outputs": [],
      "stateMutability": "nonpayable",
      "type": "function"
    },
    {
      "inputs": [
        {
          "internalType": "uint8",
          "name": "domainID",
          "type": "uint8"
        },
        {
          "internalType": "uint64",
          "name": "depositNonce",
          "type": "uint64"
        },
        {
          "internalType": "bytes32",
          "name": "resourceID",
          "type": "bytes32"
        },
        {
          "internalType": "bytes",
          "name": "data",
          "type": "bytes"
        }
      ],
      "name": "voteProposal",
      "outputs": [],
      "stateMutability": "nonpayable",
      "type": "function"
    },
    {
      "inputs": [
        {
          "internalType": "uint8",
          "name": "domainID",
          "type": "uint8"
        },
        {
          "internalType": "uint64",
          "name": "depositNonce",
          "type": "uint64"
        },
        {
          "internalType": "bytes32",
          "name": "dataHash",
          "type": "bytes32"
        }
      ],
      "name": "cancelProposal",
      "outputs": [],
      "stateMutability": "nonpayable",
      "type": "function"
    },
    {
      "inputs": [
        {
          "internalType": "uint8",
          "name": "domainID",
          "type": "uint8"
        },
        {
          "internalType": "uint64",
          "name": "depositNonce",
          "type": "uint64"
        },
        {
          "internalType": "bytes",
          "name": "data",
          "type": "bytes"
        },
        {
          "internalType": "bytes32",
          "name": "resourceID",
          "type": "bytes32"
        },
        {
          "internalType": "bool",
          "name": "revertOnFail",
          "type": "bool"
        }
      ],
      "name": "executeProposal",
      "outputs": [],
      "stateMutability": "nonpayable",
      "type": "function"
    }
  ],
  "bytecode": "0x608060405234801561001057600080fd5b506149b4806100206000396000f3fe6080604052600436106103ad5760003560e01c80639010d07c116101e7578063c5b37c221161010d578063e2469d40116100a0578063fe4648f41161006f578063fe4648f414610bb2578063fe65c4be14610bdd578063fe6718a6146109de578063ffaac0eb14610bfd57600080fd5b8063e2469d4014610b2c578063e7b14b5a14610b4c578063edc20c3c14610b62578063f8c39e4414610b8257600080fd5b8063cdb0f73a116100dc578063cdb0f73a14610aad578063d15ef64e14610acd578063d547741f14610aed578063d7a9cd7914610b0d57600080fd5b8063c5b37c2214610a1e578063c5ec897014610a33578063ca15c87314610a6d578063cb10f21514610a8d57600080fd5b80639debb3bd11610185578063b67a4aaf11610154578063b67a4aaf14610991578063bd2a1820146109be578063bea916f2146109de578063c0331b3e146109fe57600080fd5b80639debb3bd1461091a578063a06fbbff1461092f578063a217fddf1461094f578063a5c621f21461096457600080fd5b8063926d7d7f116101c1578063926d7d7f1461089657806393cbe783146108b85780639d82dd63146108ce5780639dd694f4146108ee57600080fd5b80639010d07c14610836578063904e9b2b1461085657806391d148541461087657600080fd5b80635a1ad87c116102d7578063747734121161026a57806380ae1c281161023957806380ae1c281461079357806384db809f146107a857806388b73be0146107f65780638c0c26311461081657600080fd5b8063747734121461072b5780637d026d961461073e5780637febe63f1461075e578063802aabe81461077e57600080fd5b80636d3b6eea116102a65780636d3b6eea146106b85780636e2047bc146106d85780637292dd91146106f857806373c45c981461071857600080fd5b80635a1ad87c146106305780635c975abb146106505780635e1fab0f1461066857806362abd9ce1461068857600080fd5b806330adf81f1161034f5780634e0df3f61161031e5780634e0df3f6146105795780634e37850a146105c05780634f2c0aec146105e0578063541d55481461060057600080fd5b806330adf81f146104b757806336568abe146104eb5780634b0b919d1461050b5780634e0560051461055957600080fd5b8063206a98fd1161038b578063206a98fd14610427578063248a9ca3146104475780632edb6f7c146104775780632f2ff15d1461049757600080fd5b8063083132c4146103b25780630d7d75b3146103e557806317f03ce514610407575b600080fd5b3480156103be57600080fd5b506103d26103cd366004613bcf565b610c12565b6040519081526020015b60405180910390f35b3480156103f157600080fd5b50610405610400366004613c73565b610c23565b005b34801561041357600080fd5b50610405610422366004613d5d565b610e05565b34801561043357600080fd5b50610405610442366004613dea565b611085565b34801561045357600080fd5b506103d2610462366004613e66565b60009081526099602052604090206002015490565b34801561048357600080fd5b50610405610492366004613e7f565b61136a565b3480156104a357600080fd5b506104056104b2366004613e9c565b61141b565b3480156104c357600080fd5b506103d27fc4cb5d35714699d6e85b9562b644e60393b418d974a5c1dd8efaadac37a142c581565b3480156104f757600080fd5b50610405610506366004613e9c565b6114ab565b34801561051757600080fd5b50610541610526366004613bcf565b609b602052600090815260409020546001600160401b031681565b6040516001600160401b0390911681526020016103dc565b34801561056557600080fd5b50610405610574366004613e66565b6114bd565b34801561058557600080fd5b506103d2610594366004613e9c565b60008281526099602090815260408083206001600160a01b038516845260010190915290205492915050565b3480156105cc57600080fd5b506104056105db366004613bcf565b611520565b3480156105ec57600080fd5b506104056105fb366004613e66565b61154e565b34801561060c57600080fd5b5061062061061b366004613e7f565b6115dd565b60405190151581526020016103dc565b34801561063c57600080fd5b5061040561064b366004613ee4565b6115f7565b34801561065c57600080fd5b5060355460ff16610620565b34801561067457600080fd5b50610405610683366004613e7f565b6116ad565b34801561069457600080fd5b506106206106a3366004613bcf565b60a26020526000908152604090205460ff1681565b3480156106c457600080fd5b506104056106d3366004613fba565b611739565b3480156106e457600080fd5b506104056106f3366004614009565b6117a6565b34801561070457600080fd5b50610405610713366004614033565b6117d9565b610405610726366004614137565b611c84565b34801561073757600080fd5b50466103d2565b34801561074a57600080fd5b50610405610759366004613e66565b611ca7565b34801561076a57600080fd5b506106206107793660046141c0565b611cdd565b34801561078a57600080fd5b506103d2611d81565b34801561079f57600080fd5b50610405611d9f565b3480156107b457600080fd5b506107de6107c3366004613e66565b609c602052600090815260409020546001600160a01b031681565b6040516001600160a01b0390911681526020016103dc565b34801561080257600080fd5b5061040561081136600461420e565b611db9565b34801561082257600080fd5b5061040561083136600461424c565b611e0a565b34801561084257600080fd5b506107de61085136600461427a565b611e43565b34801561086257600080fd5b506104056108713660046142e0565b611e62565b34801561088257600080fd5b50610620610891366004613e9c565b612058565b3480156108a257600080fd5b506103d260008051602061495f83398151915281565b3480156108c457600080fd5b506103d2609f5481565b3480156108da57600080fd5b506104056108e9366004613e7f565b612070565b3480156108fa57600080fd5b50609a546109089060ff1681565b60405160ff90911681526020016103dc565b34801561092657600080fd5b506103d260c881565b34801561093b57600080fd5b5061040561094a366004613bcf565b6120d1565b34801561095b57600080fd5b506103d2600081565b34801561097057600080fd5b5061098461097f36600461434b565b6120ef565b6040516103dc91906143f1565b34801561099d57600080fd5b506103d26109ac366004613bcf565b60a16020526000908152604090205481565b3480156109ca57600080fd5b506104056109d9366004613fba565b6121fe565b3480156109ea57600080fd5b506104056109f936600461443a565b612234565b348015610a0a57600080fd5b50610405610a1936600461434b565b612290565b348015610a2a57600080fd5b50609f546103d2565b348015610a3f57600080fd5b50609a54610a579062010000900464ffffffffff1681565b60405164ffffffffff90911681526020016103dc565b348015610a7957600080fd5b506103d2610a88366004613e66565b6127c6565b348015610a9957600080fd5b50610405610aa836600461443a565b6127dd565b348015610ab957600080fd5b50610405610ac8366004613e7f565b61283e565b348015610ad957600080fd5b50610405610ae836600461445a565b6128e7565b348015610af957600080fd5b50610405610b08366004613e9c565b61291a565b348015610b1957600080fd5b50609a5461090890610100900460ff1681565b348015610b3857600080fd5b50610405610b47366004613e7f565b6129a7565b348015610b5857600080fd5b506103d260a05481565b348015610b6e57600080fd5b50610405610b7d36600461448f565b612a8b565b348015610b8e57600080fd5b50610620610b9d366004613e7f565b609d6020526000908152604090205460ff1681565b348015610bbe57600080fd5b50609a546107de9067010000000000000090046001600160a01b031681565b348015610be957600080fd5b50610620610bf83660046144b9565b612b44565b348015610c0957600080fd5b50610405612c4e565b6000610c1d82612c66565b92915050565b600054610100900460ff1615808015610c435750600054600160ff909116105b80610c5d5750303b158015610c5d575060005460ff166001145b610c825760405162461bcd60e51b8152600401610c7990614553565b60405180910390fd5b6000805460ff191660011790558015610ca5576000805461ff0019166101001790555b610cad612ca5565b610cf66040518060400160405280600c81526020016b5065726d697442726964676560a01b815250604051806040016040528060038152602001620312e360ec1b815250612d6b565b609a805460ff191660ff8816179055610d0e84612d9c565b609a60016101000a81548160ff021916908360ff160217905550610d3183612df3565b609a805464ffffffffff92909216620100000266ffffffffff000019909216919091179055610d6160008361149d565b60005b8551811015610db057610d9e60008051602061495f833981519152878381518110610d9157610d916145a1565b602002602001015161141b565b80610da8816145cd565b915050610d64565b50600160a3558015610dfd576000805461ff0019169055604051600181527f7f26b83ff96e1f2b6a682f133852f6798a09c465da95921460cefb3847402498906020015b60405180910390a15b505050505050565b610e0d612e4a565b60ff838116600884901b68ffffffffffffffff0016176000818152609e60209081526040808320868452909152808220815160808101909252805493949293919290918391166004811115610e6457610e646143b9565b6004811115610e7557610e756143b9565b8152905461010081046001600160c81b03166020830152600160d01b810460ff166040830152600160d81b900464ffffffffff1660609091015280519091506001816004811115610ec857610ec86143b9565b1480610ee557506002816004811115610ee357610ee36143b9565b145b610f315760405162461bcd60e51b815260206004820152601c60248201527f50726f706f73616c2063616e6e6f742062652063616e63656c6c6564000000006044820152606401610c79565b609a54606083015164ffffffffff62010000909204821691610f5591439116612ecb565b64ffffffffff1611610fa95760405162461bcd60e51b815260206004820181905260248201527f50726f706f73616c206e6f7420617420657870697279207468726573686f6c646044820152606401610c79565b60048083526001600160481b0384166000908152609e602090815260408083208884529091529020835181548593839160ff1916906001908490811115610ff257610ff26143b9565b02179055506020820151815460408085015160609095015164ffffffffff16600160d81b026001600160d81b0360ff909616600160d01b0260ff60d01b196001600160c81b039095166101000294909416610100600160d81b03199093169290921792909217939093169290921790555160008051602061493f83398151915290610df4908890889060049089906145e8565b61108d612f0d565b611095612f73565b600260a35414156110e85760405162461bcd60e51b815260206004820152601f60248201527f5265656e7472616e637947756172643a207265656e7472616e742063616c6c006044820152606401610c79565b600260a3556000828152609c602090815260408083205490516001600160a01b039091169268ffffffffffffffff0060088a901b1660ff8b161792909161113791879186918b918b910161461d565b60408051601f1981840301815291815281516020928301206001600160481b0385166000908152609e845282812082825290935291209091506002815460ff166004811115611188576111886143b9565b146111d55760405162461bcd60e51b815260206004820181905260248201527f50726f706f73616c206d757374206861766520506173736564207374617475736044820152606401610c79565b805460ff1916600317815583851561124e5760405163712467f960e11b81526001600160a01b0382169063e248cff290611217908a908d908d90600401614679565b600060405180830381600087803b15801561123157600080fd5b505af1158015611245573d6000803e3d6000fd5b5050505061132b565b60405163712467f960e11b81526001600160a01b0382169063e248cff29061127e908a908d908d90600401614679565b600060405180830381600087803b15801561129857600080fd5b505af19250505080156112a9575060015b61132b573d8080156112d7576040519150601f19603f3d011682016040523d82523d6000602084013e6112dc565b606091505b50825460ff191660021783556040517fbd37c1f0d53bb2f33fe4c2104de272fcdeb4d2fef3acdbf1e4ddc3d6833ca376906113189083906146ef565b60405180910390a150505050505061135d565b60008051602061493f8339815191528b8b60038660405161134f94939291906145e8565b60405180910390a150505050505b5050600160a35550505050565b611372612fb9565b609a5460ff1660008161138781610100614702565b6113919190614721565b6000818152609c60205260409081902080546001600160a01b03191690555163a981575160e01b8152600481018290526001600160a01b038481166024830152919250849182169063a9815751906044015b600060405180830381600087803b1580156113fd57600080fd5b505af1158015611411573d6000803e3d6000fd5b5050505050505050565b60008281526099602052604090206002015461143990610891613012565b61149d5760405162461bcd60e51b815260206004820152602f60248201527f416363657373436f6e74726f6c3a2073656e646572206d75737420626520616e60448201526e0818591b5a5b881d1bc819dc985b9d608a1b6064820152608401610c79565b6114a78282613051565b5050565b6114b36130ba565b6114a78282613103565b6114c5612fb9565b6114ce81612d9c565b609a805460ff929092166101000261ff00199092169190911790556040518181527fa20d6b84cd798a24038be305eff8a45ca82ef54a2aa2082005d8e14c0a4746c8906020015b60405180910390a150565b611528612fb9565b60ff16600090815260a260209081526040808320805460ff1916905560a1909152812055565b611556612fb9565b80609f5414156115a85760405162461bcd60e51b815260206004820152601f60248201527f43757272656e742066656520697320657175616c20746f206e657720666565006044820152606401610c79565b609f8190556040518181527f6bbc57480a46553fa4d156ce702beef5f3ad66303b0ed1a5d4cb44966c6584c390602001611515565b6000610c1d60008051602061495f83398151915283612058565b6115ff612fb9565b6000858152609c60205260409081902080546001600160a01b0319166001600160a01b03898116918217909255915163de319d9960e01b81526004810188905290861660248201526001600160e01b03198086166044830152606482018590528316608482015287919063de319d999060a401600060405180830381600087803b15801561168c57600080fd5b505af11580156116a0573d6000803e3d6000fd5b5050505050505050505050565b6116b5612fb9565b60006116bf613012565b9050816001600160a01b0316816001600160a01b031614156117235760405162461bcd60e51b815260206004820152601760248201527f43616e6e6f742072656e6f756e6365206f6e6573656c660000000000000000006044820152606401610c79565b61172e60008361141b565b6114a76000826114ab565b611741612fb9565b60405163ab5c7bf160e01b815282906001600160a01b0382169063ab5c7bf19061176f9085906004016146ef565b600060405180830381600087803b15801561178957600080fd5b505af115801561179d573d6000803e3d6000fd5b50505050505050565b6117ae612fb9565b60ff909116600090815260a260209081526040808320805460ff1916600117905560a1909152902055565b6117e1612f73565b6000848152609c60205260409020546001600160a01b0316806118425760405162461bcd60e51b81526020600482015260196024820152781b9bc81a185b991b195c88199bdc881c995cdbdd5c98d95251603a1b6044820152606401610c79565b60008582868660405160200161185b949392919061461d565b60408051808303601f1901815291905280516020909101208351609a5491925090610100900460ff168110156118e15760405162461bcd60e51b815260206004820152602560248201527f5369676e617475726573206c656e677468203e3d2072656c61796572546872656044820152641cda1bdb1960da1b6064820152608401610c79565b604080516080810182526001815260006020820181905281830181905264ffffffffff4316606083015291519091906119a7907fc4cb5d35714699d6e85b9562b644e60393b418d974a5c1dd8efaadac37a142c5908d908d908d90611949908e908e90614739565b60405190819003812061198c959493929160200194855260ff9390931660208501526001600160401b039190911660408401526060830152608082015260a00190565b60405160208183030381529060405280519060200120613183565b905060005b83811015611ac75760006119d9838984815181106119cc576119cc6145a1565b60200260200101516131d1565b90506119f360008051602061495f83398151915282612058565b611a225760405163c41f0f6960e01b81526001600160a01b038216600482015260248101839052604401610c79565b611a2c84826131f5565b15611a715760405162461bcd60e51b81526020600482015260156024820152741c995b185e595c88185b1c9958591e481d9bdd1959605a1b6044820152606401610c79565b611a91611a7d82613218565b85602001516001600160c81b031617613265565b6001600160c81b0316602085015260408401805190611aaf82614749565b60ff16905250611ac09050816145cd565b90506119ac565b506003825260405163712467f960e11b815285906001600160a01b0382169063e248cff290611afe908d908d908d90600401614679565b600060405180830381600087803b158015611b1857600080fd5b505af1158015611b2c573d6000803e3d6000fd5b5050505060008051602061493f8339815191528c8c600388604051611b5494939291906145e8565b60405180910390a160ff8c811660088d901b68ffffffffffffffff0016176000818152609e602090815260408083208a84529091529020549091600191166004811115611ba357611ba36143b9565b1115611bc15760405162461bcd60e51b8152600401610c7990614769565b6001600160481b0381166000908152609e6020908152604080832089845290915290208451815486929190829060ff19166001836004811115611c0657611c066143b9565b021790555060208201518154604084015160609094015164ffffffffff16600160d81b026001600160d81b0360ff909516600160d01b0260ff60d01b196001600160c81b039094166101000293909316610100600160d81b031990921691909117919091179290921691909117905550505050505050505050505050565b611c8c612f73565b6000611c96613012565b905061179d818888888888886132ba565b611caf612fb9565b611cb881612df3565b609a60026101000a81548164ffffffffff021916908364ffffffffff16021790555050565b6001600160481b0383166000908152609e602090815260408083208584529091528082208151608081019092528054611d79929190829060ff166004811115611d2857611d286143b9565b6004811115611d3957611d396143b9565b8152905461010081046001600160c81b03166020830152600160d01b810460ff166040830152600160d81b900464ffffffffff16606090910152836131f5565b949350505050565b6000611d9a60008051602061495f8339815191526127c6565b905090565b611da7612fb9565b611db7611db2613012565b613445565b565b611dc1612fb9565b6000838152609c60205260409081902054905163789d771160e01b81526001600160a01b038481166004830152831515602483015290911690819063789d7711906044016113e3565b611e12612fb9565b6040516307b7ed9960e01b81526001600160a01b0382811660048301528391908216906307b7ed999060240161176f565b6000828152609960205260408120611e5b9083613493565b9392505050565b611e6a612fb9565b828114611eb95760405162461bcd60e51b815260206004820152601f60248201527f61646472735b5d2c20616d6f756e74735b5d3a2064696666206c656e677468006044820152606401610c79565b60005b83811015612051576000858583818110611ed857611ed86145a1565b9050602002016020810190611eed9190613e7f565b6001600160a01b0316848484818110611f0857611f086145a1565b9050602002013560405160006040518083038185875af1925050503d8060008114611f4f576040519150601f19603f3d011682016040523d82523d6000602084013e611f54565b606091505b5050905080611fa55760405162461bcd60e51b815260206004820152601960248201527f466565206574686572207472616e73666572206661696c6564000000000000006044820152606401610c79565b7faaa40a232aaf133fdd28f3485f6fdd163514cfadbffa981f3610f42398efe34b6000878785818110611fda57611fda6145a1565b9050602002016020810190611fef9190613e7f565b868686818110612001576120016145a1565b90506020020135604051612036939291906001600160a01b039384168152919092166020820152604081019190915260600190565b60405180910390a15080612049816145cd565b915050611ebc565b5050505050565b6000828152609960205260408120611e5b908361349f565b612078612fb9565b6120806130ba565b61209860008051602061495f8339815191528261291a565b6040516001600160a01b03821681527f10e1f7ce9fd7d1b90a66d13a2ab3cb8dd7f29f3f8d520b143b063ccfbab6906b90602001611515565b6120d9612fb9565b609a805460ff191660ff92909216919091179055565b604080516080810182526000808252602080830182905282840182905260608301829052868252609c815283822054935192936001600160a01b03169261213e9188918591899189910161461d565b60408051808303601f19018152828252805160209182012060ff8c811660088d901b68ffffffffffffffff0016176000818152609e8552858120848252909452928490206080860190945283549195509193929183911660048111156121a6576121a66143b9565b60048111156121b7576121b76143b9565b8152905461010081046001600160c81b03166020830152600160d01b810460ff166040830152600160d81b900464ffffffffff166060909101529998505050505050505050565b612206612fb9565b60405163025a3c9960e21b815282906001600160a01b03821690630968f2649061176f9085906004016146ef565b61223c612fb9565b6000828152609c60205260409081902080546001600160a01b03191690555163a981575160e01b8152600481018390526001600160a01b03828116602483015284919082169063a9815751906044016113e3565b612298612f0d565b6122a0612f73565b600260a35414156122f35760405162461bcd60e51b815260206004820152601f60248201527f5265656e7472616e637947756172643a207265656e7472616e742063616c6c006044820152606401610c79565b600260a3556000838152609c602090815260408083205490516001600160a01b039091169268ffffffffffffffff00600889901b1660ff8a16179290916123429188918691899189910161461d565b60408051601f1981840301815282825280516020918201206001600160481b0386166000908152609e835283812082825290925282822060808501909352825490945090929190829060ff16600481111561239f5761239f6143b9565b60048111156123b0576123b06143b9565b8152905461010081046001600160c81b0316602080840191909152600160d01b820460ff16604080850191909152600160d81b90920464ffffffffff1660609093019290925260008a8152609c9092529020549091506001600160a01b03166124575760405162461bcd60e51b81526020600482015260196024820152781b9bc81a185b991b195c88199bdc881c995cdbdd5c98d95251603a1b6044820152606401610c79565b60028151600481111561246c5761246c6143b9565b141561248a57612481898988888b6001611085565b505050506127ba565b6000612494613012565b90506001826000015160048111156124ae576124ae6143b9565b11156124cc5760405162461bcd60e51b8152600401610c7990614769565b6124d682826131f5565b1561251b5760405162461bcd60e51b81526020600482015260156024820152741c995b185e595c88185b1c9958591e481d9bdd1959605a1b6044820152606401610c79565b600082516004811115612530576125306143b9565b1415612590576040805160808101825260018082526000602083018190528284015264ffffffffff43166060830152915190935060008051602061493f83398151915291612583918d918d9188906145e8565b60405180910390a16125f1565b609a54606083015164ffffffffff620100009092048216916125b491439116612ecb565b64ffffffffff1611156125f157600480835260405160008051602061493f833981519152916125e8918d918d9188906145e8565b60405180910390a15b600482516004811115612606576126066143b9565b146126d65761262b61261782613218565b83602001516001600160c81b031617613265565b6001600160c81b031660208301526040820180519061264982614749565b60ff1690525081516040517f25f8daaa4635a7729927ba3f5b3d59cc3320aca7c32c9db4e7ca7b957434364091612685918d918d9188906145e8565b60405180910390a1609a54604083015160ff61010090920482169116106126d657600280835260405160008051602061493f833981519152916126cd918d918d9188906145e8565b60405180910390a15b6001600160481b0384166000908152609e6020908152604080832086845290915290208251815484929190829060ff1916600183600481111561271b5761271b6143b9565b021790555060208201518154604084015160609094015164ffffffffff16600160d81b026001600160d81b0360ff909516600160d01b0260ff60d01b196001600160c81b039094166101000293909316610100600160d81b031990921691909117919091179290921691909117905560028251600481111561279f5761279f6143b9565b14156127b4576127b48a8a89898c6000611085565b50505050505b5050600160a355505050565b6000818152609960205260408120610c1d906134c1565b6127e5612fb9565b6000828152609c60205260409081902080546001600160a01b0319166001600160a01b038681169182179092559151635c7d1b9b60e11b815260048101859052908316602482015284919063b8fa3736906044016113e3565b612846612fb9565b60c8612850611d81565b106128965760405162461bcd60e51b81526020600482015260166024820152751c995b185e595c9cc81b1a5b5a5d081c995858da195960521b6044820152606401610c79565b6128ae60008051602061495f8339815191528261141b565b6040516001600160a01b03821681527f03580ee9f53a62b7cb409a2cb56f9be87747dd15017afc5cef6eef321e4fb2c590602001611515565b6128ef612fb9565b6001600160a01b03919091166000908152609d60205260409020805460ff1916911515919091179055565b60008281526099602052604090206002015461293890610891613012565b61299d5760405162461bcd60e51b815260206004820152603060248201527f416363657373436f6e74726f6c3a2073656e646572206d75737420626520616e60448201526f2061646d696e20746f207265766f6b6560801b6064820152608401610c79565b6114a782826134cb565b6129af612fb9565b609a5460ff166000816129c481610100614702565b6129ce9190614721565b6000818152609c60205260409081902080546001600160a01b0319166001600160a01b038781169182179092559151635c7d1b9b60e11b8152600481018490529085166024820152919250849163b8fa373690604401600060405180830381600087803b158015612a3e57600080fd5b505af1158015612a52573d6000803e3d6000fd5b505060405163789d771160e01b81526001600160a01b038681166004830152600160248301528416925063789d771191506044016113e3565b612a93612fb9565b60ff82166000908152609b60205260409020546001600160401b0390811690821611612b105760405162461bcd60e51b815260206004820152602660248201527f446f6573206e6f7420616c6c6f772064656372656d656e7473206f6620746865604482015265206e6f6e636560d01b6064820152608401610c79565b60ff919091166000908152609b60205260409020805467ffffffffffffffff19166001600160401b03909216919091179055565b6000807fc4cb5d35714699d6e85b9562b644e60393b418d974a5c1dd8efaadac37a142c58989898989604051612b7b929190614739565b604051908190038120612bbe959493929160200194855260ff9390931660208501526001600160401b039190911660408401526060830152608082015260a00190565b6040516020818303038152906040528051906020012090506000612be182613183565b90506000612c258287878080601f0160208091040260200160405190810160405280939291908181526020018383808284376000920191909152506131d192505050565b9050612c3f60008051602061495f83398151915282612058565b9b9a5050505050505050505050565b612c56612fb9565b611db7612c61613012565b613534565b60ff808216600090815260a2602052604081205490911615612c98575060ff16600090815260a1602052604090205490565b5050609f5490565b919050565b600054610100900460ff1615808015612cc55750600054600160ff909116105b80612cdf5750303b158015612cdf575060005460ff166001145b612cfb5760405162461bcd60e51b8152600401610c7990614553565b6000805460ff191660011790558015612d1e576000805461ff0019166101001790555b612d2661357f565b8015612d68576000805461ff0019169055604051600181527f7f26b83ff96e1f2b6a682f133852f6798a09c465da95921460cefb384740249890602001611515565b50565b600054610100900460ff16612d925760405162461bcd60e51b8152600401610c79906147ac565b6114a78282613644565b60006101008210612def5760405162461bcd60e51b815260206004820152601c60248201527f76616c756520646f6573206e6f742066697420696e20382062697473000000006044820152606401610c79565b5090565b6000650100000000008210612def5760405162461bcd60e51b815260206004820152601d60248201527f76616c756520646f6573206e6f742066697420696e20343020626974730000006044820152606401610c79565b6000612e54613012565b9050612e61600082612058565b80612e7f5750612e7f60008051602061495f83398151915282612058565b612d685760405162461bcd60e51b815260206004820152601e60248201527f73656e646572206973206e6f742072656c61796572206f722061646d696e00006044820152606401610c79565b6000611e5b83836040518060400160405280601e81526020017f536166654d6174683a207375627472616374696f6e206f766572666c6f770000815250613685565b612f2760008051602061495f833981519152610891613012565b611db75760405162461bcd60e51b815260206004820181905260248201527f73656e64657220646f65736e277420686176652072656c6179657220726f6c656044820152606401610c79565b60355460ff1615611db75760405162461bcd60e51b815260206004820152601060248201526f14185d5cd8589b194e881c185d5cd95960821b6044820152606401610c79565b612fc66000610891613012565b611db75760405162461bcd60e51b815260206004820152601e60248201527f73656e64657220646f65736e277420686176652061646d696e20726f6c6500006044820152606401610c79565b6000336014361080159061303e57506001600160a01b0381166000908152609d602052604090205460ff165b15612ca057505036601319013560601c90565b600082815260996020526040902061306990826136bf565b156114a757613076613012565b6001600160a01b0316816001600160a01b0316837f2f8788117e7eff1d82e926ec794901d17c78024a50270940304540a733656f0d60405160405180910390a45050565b60355460ff16611db75760405162461bcd60e51b815260206004820152601460248201527314185d5cd8589b194e881b9bdd081c185d5cd95960621b6044820152606401610c79565b61310b613012565b6001600160a01b0316816001600160a01b03161461299d5760405162461bcd60e51b815260206004820152602f60248201527f416363657373436f6e74726f6c3a2063616e206f6e6c792072656e6f756e636560448201526e103937b632b9903337b91039b2b63360891b6064820152608401610c79565b6000610c1d6131906136d4565b8360405161190160f01b6020820152602281018390526042810182905260009060620160405160208183030381529060405280519060200120905092915050565b60008060006131e0858561374f565b915091506131ed81613795565b509392505050565b60008083602001516001600160c81b031661320f84613218565b16119392505050565b6001600160a01b03811660009081527f466bdf72c8d8887d601776818ca0e11d24e204c6df385da2c5ab68f6700d138d602052604081205461325b906001612ecb565b6001901b92915050565b6000600160c81b8210612def5760405162461bcd60e51b815260206004820152601e60248201527f76616c756520646f6573206e6f742066697420696e20323030206269747300006044820152606401610c79565b3460006132c688612c66565b90506132d281836147f7565b91508060a060008282546132e69190614721565b90915550506000878152609c60205260409020546001600160a01b031680613321576040516308c231dd60e31b815260040160405180910390fd5b60ff89166000908152609b6020526040812080548290613349906001600160401b031661480e565b91906101000a8154816001600160401b0302191690836001600160401b03160217905590506000826001600160a01b031663b07e54bb868c8f8d8d6040518663ffffffff1660e01b81526004016133a39493929190614835565b60006040518083038185885af11580156133c1573d6000803e3d6000fd5b50505050506040513d6000823e601f3d908101601f191682016040526133ea919081019061486a565b90508b6001600160a01b03167f17bc3181e17a9620a479c24e6c606e474ba84fc036877b768926872e8cd0e11f8c8c858d8d8760405161342f969594939291906148d7565b60405180910390a2505050505050505050505050565b61344d612f73565b6035805460ff191660011790556040516001600160a01b03821681527f62e78cea01bee320cd4e420270b5ea74000d11b0c9f74754ebdbfc544b05a25890602001611515565b6000611e5b8383613950565b6001600160a01b03811660009081526001830160205260408120541515611e5b565b6000610c1d825490565b60008281526099602052604090206134e3908261397a565b156114a7576134f0613012565b6001600160a01b0316816001600160a01b0316837ff6391f5c32d9c69d2a47ea670b442974b53935d1edc7fd64eb21e047a839171b60405160405180910390a45050565b61353c6130ba565b6035805460ff191690556040516001600160a01b03821681527f5db9ee0a495bf2e6ff9c91a7834c1ba4fdd244a5e8aa4e537bd38aeae4b073aa90602001611515565b600054610100900460ff161580801561359f5750600054600160ff909116105b806135b95750303b1580156135b9575060005460ff166001145b6135d55760405162461bcd60e51b8152600401610c7990614553565b6000805460ff1916600117905580156135f8576000805461ff0019166101001790555b6035805460ff191690558015612d68576000805461ff0019169055604051600181527f7f26b83ff96e1f2b6a682f133852f6798a09c465da95921460cefb384740249890602001611515565b600054610100900460ff1661366b5760405162461bcd60e51b8152600401610c79906147ac565b815160209283012081519190920120600191909155600255565b600081848411156136a95760405162461bcd60e51b8152600401610c7991906146ef565b5060006136b684866147f7565b95945050505050565b6000611e5b836001600160a01b03841661398f565b6000611d9a7f8b73c3c69bb8fe3d512ecc4cf759cc79239f7b179b0ffacaa9a75d522b39400f61370360015490565b6002546040805160208101859052908101839052606081018290524660808201523060a082015260009060c0016040516020818303038152906040528051906020012090509392505050565b6000808251604114156137865760208301516040840151606085015160001a61377a878285856139de565b9450945050505061378e565b506000905060025b9250929050565b60008160048111156137a9576137a96143b9565b14156137b25750565b60018160048111156137c6576137c66143b9565b14156138145760405162461bcd60e51b815260206004820152601860248201527f45434453413a20696e76616c6964207369676e617475726500000000000000006044820152606401610c79565b6002816004811115613828576138286143b9565b14156138765760405162461bcd60e51b815260206004820152601f60248201527f45434453413a20696e76616c6964207369676e6174757265206c656e677468006044820152606401610c79565b600381600481111561388a5761388a6143b9565b14156138e35760405162461bcd60e51b815260206004820152602260248201527f45434453413a20696e76616c6964207369676e6174757265202773272076616c604482015261756560f01b6064820152608401610c79565b60048160048111156138f7576138f76143b9565b1415612d685760405162461bcd60e51b815260206004820152602260248201527f45434453413a20696e76616c6964207369676e6174757265202776272076616c604482015261756560f01b6064820152608401610c79565b6000826000018281548110613967576139676145a1565b9060005260206000200154905092915050565b6000611e5b836001600160a01b038416613acb565b60008181526001830160205260408120546139d657508154600181810184556000848152602080822090930184905584548482528286019093526040902091909155610c1d565b506000610c1d565b6000807f7fffffffffffffffffffffffffffffff5d576e7357a4501ddfe92f46681b20a0831115613a155750600090506003613ac2565b8460ff16601b14158015613a2d57508460ff16601c14155b15613a3e5750600090506004613ac2565b6040805160008082526020820180845289905260ff881692820192909252606081018690526080810185905260019060a0016020604051602081039080840390855afa158015613a92573d6000803e3d6000fd5b5050604051601f1901519150506001600160a01b038116613abb57600060019250925050613ac2565b9150600090505b94509492505050565b60008181526001830160205260408120548015613bb4576000613aef6001836147f7565b8554909150600090613b03906001906147f7565b9050818114613b68576000866000018281548110613b2357613b236145a1565b9060005260206000200154905080876000018481548110613b4657613b466145a1565b6000918252602080832090910192909255918252600188019052604090208390555b8554869080613b7957613b79614928565b600190038181906000526020600020016000905590558560010160008681526020019081526020016000206000905560019350505050610c1d565b6000915050610c1d565b803560ff81168114612ca057600080fd5b600060208284031215613be157600080fd5b611e5b82613bbe565b634e487b7160e01b600052604160045260246000fd5b604051601f8201601f191681016001600160401b0381118282101715613c2857613c28613bea565b604052919050565b60006001600160401b03821115613c4957613c49613bea565b5060051b60200190565b6001600160a01b0381168114612d6857600080fd5b8035612ca081613c53565b600080600080600060a08688031215613c8b57600080fd5b613c9486613bbe565b94506020808701356001600160401b03811115613cb057600080fd5b8701601f81018913613cc157600080fd5b8035613cd4613ccf82613c30565b613c00565b81815260059190911b8201830190838101908b831115613cf357600080fd5b928401925b82841015613d1a578335613d0b81613c53565b82529284019290840190613cf8565b9750505050604087013593505060608601359150613d3a60808701613c68565b90509295509295909350565b80356001600160401b0381168114612ca057600080fd5b600080600060608486031215613d7257600080fd5b613d7b84613bbe565b9250613d8960208501613d46565b9150604084013590509250925092565b60008083601f840112613dab57600080fd5b5081356001600160401b03811115613dc257600080fd5b60208301915083602082850101111561378e57600080fd5b80358015158114612ca057600080fd5b60008060008060008060a08789031215613e0357600080fd5b613e0c87613bbe565b9550613e1a60208801613d46565b945060408701356001600160401b03811115613e3557600080fd5b613e4189828a01613d99565b90955093505060608701359150613e5a60808801613dda565b90509295509295509295565b600060208284031215613e7857600080fd5b5035919050565b600060208284031215613e9157600080fd5b8135611e5b81613c53565b60008060408385031215613eaf57600080fd5b823591506020830135613ec181613c53565b809150509250929050565b80356001600160e01b031981168114612ca057600080fd5b60008060008060008060c08789031215613efd57600080fd5b8635613f0881613c53565b9550602087013594506040870135613f1f81613c53565b9350613f2d60608801613ecc565b925060808701359150613e5a60a08801613ecc565b60006001600160401b03821115613f5b57613f5b613bea565b50601f01601f191660200190565b600082601f830112613f7a57600080fd5b8135613f88613ccf82613f42565b818152846020838601011115613f9d57600080fd5b816020850160208301376000918101602001919091529392505050565b60008060408385031215613fcd57600080fd5b8235613fd881613c53565b915060208301356001600160401b03811115613ff357600080fd5b613fff85828601613f69565b9150509250929050565b6000806040838503121561401c57600080fd5b61402583613bbe565b946020939093013593505050565b60008060008060008060a0878903121561404c57600080fd5b61405587613bbe565b95506020614064818901613d46565b95506040880135945060608801356001600160401b038082111561408757600080fd5b6140938b838c01613d99565b909650945060808a01359150808211156140ac57600080fd5b818a0191508a601f8301126140c057600080fd5b81356140ce613ccf82613c30565b81815260059190911b8301840190848101908d8311156140ed57600080fd5b8585015b8381101561412357848135111561410757600080fd5b6141168f888335890101613f69565b83529186019186016140f1565b508096505050505050509295509295509295565b6000806000806000806080878903121561415057600080fd5b61415987613bbe565b95506020870135945060408701356001600160401b038082111561417c57600080fd5b6141888a838b01613d99565b909650945060608901359150808211156141a157600080fd5b506141ae89828a01613d99565b979a9699509497509295939492505050565b6000806000606084860312156141d557600080fd5b83356001600160481b03811681146141ec57600080fd5b925060208401359150604084013561420381613c53565b809150509250925092565b60008060006060848603121561422357600080fd5b83359250602084013561423581613c53565b915061424360408501613dda565b90509250925092565b6000806040838503121561425f57600080fd5b823561426a81613c53565b91506020830135613ec181613c53565b6000806040838503121561428d57600080fd5b50508035926020909101359150565b60008083601f8401126142ae57600080fd5b5081356001600160401b038111156142c557600080fd5b6020830191508360208260051b850101111561378e57600080fd5b600080600080604085870312156142f657600080fd5b84356001600160401b038082111561430d57600080fd5b6143198883890161429c565b9096509450602087013591508082111561433257600080fd5b5061433f8782880161429c565b95989497509550505050565b60008060008060006080868803121561436357600080fd5b61436c86613bbe565b945061437a60208701613d46565b93506040860135925060608601356001600160401b0381111561439c57600080fd5b6143a888828901613d99565b969995985093965092949392505050565b634e487b7160e01b600052602160045260246000fd5b600581106143ed57634e487b7160e01b600052602160045260246000fd5b9052565b60006080820190506144048284516143cf565b60018060c81b03602084015116602083015260ff604084015116604083015264ffffffffff606084015116606083015292915050565b60008060006060848603121561444f57600080fd5b83356141ec81613c53565b6000806040838503121561446d57600080fd5b823561447881613c53565b915061448660208401613dda565b90509250929050565b600080604083850312156144a257600080fd5b6144ab83613bbe565b915061448660208401613d46565b600080600080600080600060a0888a0312156144d457600080fd5b6144dd88613bbe565b96506144eb60208901613d46565b95506040880135945060608801356001600160401b038082111561450e57600080fd5b61451a8b838c01613d99565b909650945060808a013591508082111561453357600080fd5b506145408a828b01613d99565b989b979a50959850939692959293505050565b6020808252602e908201527f496e697469616c697a61626c653a20636f6e747261637420697320616c72656160408201526d191e481a5b9a5d1a585b1a5e995960921b606082015260800190565b634e487b7160e01b600052603260045260246000fd5b634e487b7160e01b600052601160045260246000fd5b60006000198214156145e1576145e16145b7565b5060010190565b60ff851681526001600160401b03841660208201526080810161460e60408301856143cf565b82606083015295945050505050565b8481526bffffffffffffffffffffffff198460601b16602082015281836034830137600091016034019081529392505050565b81835281816020850137506000828201602090810191909152601f909101601f19169091010190565b8381526040602082015260006136b6604083018486614650565b60005b838110156146ae578181015183820152602001614696565b838111156146bd576000848401525b50505050565b600081518084526146db816020860160208601614693565b601f01601f19169290920160200192915050565b602081526000611e5b60208301846146c3565b600081600019048311821515161561471c5761471c6145b7565b500290565b60008219821115614734576147346145b7565b500190565b8183823760009101908152919050565b600060ff821660ff811415614760576147606145b7565b60010192915050565b60208082526023908201527f70726f706f73616c20616c72656164792065786563757465642f63616e63656c6040820152621b195960ea1b606082015260800190565b6020808252602b908201527f496e697469616c697a61626c653a20636f6e7472616374206973206e6f74206960408201526a6e697469616c697a696e6760a81b606082015260800190565b600082821015614809576148096145b7565b500390565b60006001600160401b038083168181141561482b5761482b6145b7565b6001019392505050565b8481526001600160a01b03841660208201526060604082018190526000906148609083018486614650565b9695505050505050565b60006020828403121561487c57600080fd5b81516001600160401b0381111561489257600080fd5b8201601f810184136148a357600080fd5b80516148b1613ccf82613f42565b8181528560208385010111156148c657600080fd5b6136b6826020830160208601614693565b60ff871681528560208201526001600160401b038516604082015260a06060820152600061490960a083018587614650565b828103608084015261491b81856146c3565b9998505050505050505050565b634e487b7160e01b600052603160045260246000fdfe968626a768e76ba1363efe44e322a6c4900c5f084e0b45f35e294dfddaa9e0d5e2b7fb3b832174769106daebcfd6d1970523240dda11281102db9363b83b0dc4a26469706673582212209bd91e0624f01eb22ff4f3fd6f7a9a09cc802a75d8de65502ce97129c5a6c30c64736f6c634300080b0033",
  "immutableReferences": {},
  "source": "// SPDX-License-Identifier: LGPL-3.0-only\npragma solidity 0.8.11;\n\nimport {AccessControlUpgradeable as AccessControl} from \"./utils/AccessControlUpgradeable.sol\";\nimport \"./utils/PausableUpgradeable.sol\";\nimport \"./utils/SafeMath.sol\";\nimport \"./utils/SafeCast.sol\";\nimport \"./interfaces/IDepositExecute.sol\";\nimport \"./interfaces/IERCHandler.sol\";\nimport \"./interfaces/IGenericHandler.sol\";\nimport \"./interfaces/IWETH.sol\";\nimport \"./interfaces/IBridge.sol\";\nimport \"./interfaces/IFeeHandler.sol\";\nimport \"@openzeppelin/contracts-upgradeable/utils/cryptography/draft-EIP712Upgradeable.sol\";\n\n/**\n    @title Facilitates deposits, creation and voting of deposit proposals, and deposit executions.\n    @author ChainSafe Systems.\n */\ncontract BridgeUpgradeable is\n    EIP712Upgradeable,\n    PausableUpgradeable,\n    AccessControl,\n    SafeMath,\n    IBridge\n{\n    using SafeCast for *;\n\n    bytes32 public constant PERMIT_TYPEHASH =\n        keccak256(\n            \"PermitBridge(uint8 domainID,uint64 depositNonce,bytes32 resourceID,bytes data)\"\n        );\n\n    // Limit relayers number because proposal can fit only so much votes\n    uint256 public constant MAX_RELAYERS = 200;\n\n    uint8 public _domainID;\n    uint8 public _relayerThreshold;\n    uint40 public _expiry;\n\n    IFeeHandler public _feeHandler; // scrap\n\n    // destinationDomainID => number of deposits\n    mapping(uint8 => uint64) public _depositCounts;\n    // resourceID => handler address\n    mapping(bytes32 => address) public _resourceIDToHandlerAddress;\n    // forwarder address => is Valid\n    mapping(address => bool) public isValidForwarder;\n    // destinationDomainID + depositNonce => dataHash => Proposal\n    mapping(uint72 => mapping(bytes32 => Proposal)) private _proposals;\n\n    // fees\n    uint256 public _fee_;\n    uint256 public _feeReserve;\n    mapping(uint8 => uint256) public specialFee;\n    mapping(uint8 => bool) public special;\n\n    event RelayerThresholdChanged(uint256 newThreshold);\n    event RelayerAdded(address relayer);\n    event RelayerRemoved(address relayer);\n    event FeeHandlerChanged(address newFeeHandler);\n    event Deposit(\n        uint8 destinationDomainID,\n        bytes32 resourceID,\n        uint64 depositNonce,\n        address indexed user,\n        bytes data,\n        bytes handlerResponse\n    );\n    event ProposalEvent(\n        uint8 originDomainID,\n        uint64 depositNonce,\n        ProposalStatus status,\n        bytes32 dataHash\n    );\n    event ProposalVote(\n        uint8 originDomainID,\n        uint64 depositNonce,\n        ProposalStatus status,\n        bytes32 dataHash\n    );\n    event FailedHandlerExecution(bytes lowLevelData);\n\n    bytes32 public constant RELAYER_ROLE = keccak256(\"RELAYER_ROLE\");\n\n    uint256 private constant _NOT_ENTERED = 1;\n    uint256 private constant _ENTERED = 2;\n    uint256 private _status;\n\n    modifier onlyAdmin() {\n        _onlyAdmin();\n        _;\n    }\n\n    modifier onlyAdminOrRelayer() {\n        _onlyAdminOrRelayer();\n        _;\n    }\n\n    modifier onlyRelayers() {\n        _onlyRelayers();\n        _;\n    }\n\n    modifier nonReentrant() {\n        // On the first call to nonReentrant, _notEntered will be true\n        require(_status != _ENTERED, \"ReentrancyGuard: reentrant call\");\n        // Any calls to nonReentrant after this point will fail\n        _status = _ENTERED;\n        _;\n        // By storing the original value once again, a refund is triggered (see\n        // https://eips.ethereum.org/EIPS/eip-2200)\n        _status = _NOT_ENTERED;\n    }\n\n    function _fee() external view returns (uint256) {\n        return _fee_;\n    }\n\n    function _chainId() external view returns (uint256) {\n        return block.chainid;\n    }\n\n    function _onlyAdminOrRelayer() private view {\n        address sender = _msgSender();\n        require(\n            hasRole(DEFAULT_ADMIN_ROLE, sender) ||\n                hasRole(RELAYER_ROLE, sender),\n            \"sender is not relayer or admin\"\n        );\n    }\n\n    function _onlyAdmin() private view {\n        require(\n            hasRole(DEFAULT_ADMIN_ROLE, _msgSender()),\n            \"sender doesn't have admin role\"\n        );\n    }\n\n    function _onlyRelayers() private view {\n        require(\n            hasRole(RELAYER_ROLE, _msgSender()),\n            \"sender doesn't have relayer role\"\n        );\n    }\n\n    function _relayerBit(address relayer) private view returns (uint256) {\n        return\n            uint256(1) <<\n            sub(AccessControl.getRoleMemberIndex(RELAYER_ROLE, relayer), 1);\n    }\n\n    function _hasVoted(Proposal memory proposal, address relayer)\n        private\n        view\n        returns (bool)\n    {\n        return (_relayerBit(relayer) & uint256(proposal._yesVotes)) > 0;\n    }\n\n    function _msgSender() internal view override returns (address) {\n        address signer = msg.sender;\n        if (msg.data.length >= 20 && isValidForwarder[signer]) {\n            assembly {\n                signer := shr(96, calldataload(sub(calldatasize(), 20)))\n            }\n        }\n        return signer;\n    }\n\n    /**\n        @notice Initializes Bridge, creates and grants {_msgSender()} the admin role,\n        creates and grants {initialRelayers} the relayer role.\n        @param domainID ID of chain the Bridge contract exists on.\n        @param initialRelayers Addresses that should be initially granted the relayer role.\n        @param initialRelayerThreshold Number of votes needed for a deposit proposal to be considered passed.\n     */\n    function initialize(\n        uint8 domainID,\n        address[] memory initialRelayers,\n        uint256 initialRelayerThreshold,\n        uint256 expiry,\n        address admin\n    ) public initializer {\n        __Pausable_init();\n        __EIP712_init(\"PermitBridge\", \"1.0\");\n        _domainID = domainID;\n        _relayerThreshold = initialRelayerThreshold.toUint8();\n        _expiry = expiry.toUint40();\n\n        _setupRole(DEFAULT_ADMIN_ROLE, admin);\n\n        for (uint256 i; i < initialRelayers.length; i++) {\n            grantRole(RELAYER_ROLE, initialRelayers[i]);\n        }\n        _status = _NOT_ENTERED;\n    }\n\n    /**\n        @notice Returns true if {relayer} has voted on {destNonce} {dataHash} proposal.\n        @notice Naming left unchanged for backward compatibility.\n        @param destNonce destinationDomainID + depositNonce of the proposal.\n        @param dataHash Hash of data to be provided when deposit proposal is executed.\n        @param relayer Address to check.\n     */\n    function _hasVotedOnProposal(\n        uint72 destNonce,\n        bytes32 dataHash,\n        address relayer\n    ) public view returns (bool) {\n        return _hasVoted(_proposals[destNonce][dataHash], relayer);\n    }\n\n    /**\n        @notice Returns true if {relayer} has the relayer role.\n        @param relayer Address to check.\n     */\n    function isRelayer(address relayer) external view returns (bool) {\n        return hasRole(RELAYER_ROLE, relayer);\n    }\n\n    /**\n        @notice Removes admin role from {_msgSender()} and grants it to {newAdmin}.\n        @notice Only callable by an address that currently has the admin role.\n        @param newAdmin Address that admin role will be granted to.\n     */\n    function renounceAdmin(address newAdmin) external onlyAdmin {\n        address sender = _msgSender();\n        require(sender != newAdmin, \"Cannot renounce oneself\");\n        grantRole(DEFAULT_ADMIN_ROLE, newAdmin);\n        renounceRole(DEFAULT_ADMIN_ROLE, sender);\n    }\n\n    /**\n        @notice Pauses deposits, proposal creation and voting, and deposit executions.\n        @notice Only callable by an address that currently has the admin role.\n     */\n    function adminPauseTransfers() external onlyAdmin {\n        _pause(_msgSender());\n    }\n\n    /**\n        @notice Unpauses deposits, proposal creation and voting, and deposit executions.\n        @notice Only callable by an address that currently has the admin role.\n     */\n    function adminUnpauseTransfers() external onlyAdmin {\n        _unpause(_msgSender());\n    }\n\n    /**\n        @notice Modifies the number of votes required for a proposal to be considered passed.\n        @notice Only callable by an address that currently has the admin role.\n        @param newThreshold Value {_relayerThreshold} will be changed to.\n        @notice Emits {RelayerThresholdChanged} event.\n     */\n    function adminChangeRelayerThreshold(uint256 newThreshold)\n        external\n        onlyAdmin\n    {\n        _relayerThreshold = newThreshold.toUint8();\n        emit RelayerThresholdChanged(newThreshold);\n    }\n\n    /**\n        @notice Grants {relayerAddress} the relayer role.\n        @notice Only callable by an address that currently has the admin role, which is\n                checked in grantRole().\n        @param relayerAddress Address of relayer to be added.\n        @notice Emits {RelayerAdded} event.\n     */\n    function adminAddRelayer(address relayerAddress) external onlyAdmin {\n        require(_totalRelayers() < MAX_RELAYERS, \"relayers limit reached\");\n        grantRole(RELAYER_ROLE, relayerAddress);\n        emit RelayerAdded(relayerAddress);\n    }\n\n    /**\n        @notice Removes relayer role for {relayerAddress}.\n        @notice Only callable by an address that currently has the admin role, which is\n                checked in revokeRole().\n        @param relayerAddress Address of relayer to be removed.\n        @notice Emits {RelayerRemoved} event.\n     */\n    function adminRemoveRelayer(address relayerAddress)\n        external\n        onlyAdmin\n        whenPaused\n    {\n        revokeRole(RELAYER_ROLE, relayerAddress);\n        emit RelayerRemoved(relayerAddress);\n    }\n\n    function renounceRole(bytes32 role, address account)\n        public\n        override\n        whenPaused\n    {\n        super.renounceRole(role, account);\n    }\n\n    /**\n        @notice Sets a new resource for handler contracts that use the IERCHandler interface,\n        and maps the {handlerAddress} to {resourceID} in {_resourceIDToHandlerAddress}.\n        @notice Only callable by an address that currently has the admin role.\n        @param handlerAddress Address of handler resource will be set for.\n        @param resourceID ResourceID to be used when making deposits.\n        @param tokenAddress Address of contract to be called when a deposit is made and a deposited is executed.\n     */\n    function adminSetResource(\n        address handlerAddress,\n        bytes32 resourceID,\n        address tokenAddress\n    ) external onlyAdmin {\n        _resourceIDToHandlerAddress[resourceID] = handlerAddress;\n        IERCHandler handler = IERCHandler(handlerAddress);\n        handler.setResource(resourceID, tokenAddress);\n    }\n\n    function adminSetNativeResource(address handlerAddress) external onlyAdmin {\n        address tokenAddress = address(uint160(_domainID));\n        bytes32 resourceID = bytes32(\n            uint256(uint160(tokenAddress)) * 256 + _domainID\n        );\n        _resourceIDToHandlerAddress[resourceID] = handlerAddress;\n        IERCHandler handler = IERCHandler(handlerAddress);\n        handler.setResource(resourceID, tokenAddress);\n        handler.setNative(tokenAddress, true);\n    }\n\n    /**\n        @notice Sets a new resource for handler contracts that use the IGenericHandler interface,\n        and maps the {handlerAddress} to {resourceID} in {_resourceIDToHandlerAddress}.\n        @notice Only callable by an address that currently has the admin role.\n        @param handlerAddress Address of handler resource will be set for.\n        @param resourceID ResourceID to be used when making deposits.\n        @param contractAddress Address of contract to be called when a deposit is made and a deposited is executed.\n        @param depositFunctionSig Function signature of method to be called in {contractAddress} when a deposit is made.\n        @param depositFunctionDepositorOffset Depositor address position offset in the metadata, in bytes.\n        @param executeFunctionSig Function signature of method to be called in {contractAddress} when a deposit is executed.\n     */\n    function adminSetGenericResource(\n        address handlerAddress,\n        bytes32 resourceID,\n        address contractAddress,\n        bytes4 depositFunctionSig,\n        uint256 depositFunctionDepositorOffset,\n        bytes4 executeFunctionSig\n    ) external onlyAdmin {\n        _resourceIDToHandlerAddress[resourceID] = handlerAddress;\n        IGenericHandler handler = IGenericHandler(handlerAddress);\n        handler.setResource(\n            resourceID,\n            contractAddress,\n            depositFunctionSig,\n            depositFunctionDepositorOffset,\n            executeFunctionSig\n        );\n    }\n\n    function adminRemoveResourceId(\n        address handlerAddress,\n        bytes32 resourceID,\n        address tokenAddress\n    ) external onlyAdmin {\n        delete _resourceIDToHandlerAddress[resourceID];\n        IERCHandler handler = IERCHandler(handlerAddress);\n        handler.removeResource(resourceID, tokenAddress);\n    }\n\n    function adminRemoveNativeResourceId(address handlerAddress)\n        external\n        onlyAdmin\n    {\n        address tokenAddress = address(uint160(_domainID));\n        bytes32 resourceID = bytes32(\n            uint256(uint160(tokenAddress)) * 256 + _domainID\n        );\n        delete _resourceIDToHandlerAddress[resourceID];\n\n        IERCHandler handler = IERCHandler(handlerAddress);\n        handler.removeResource(resourceID, tokenAddress);\n    }\n\n    function adminRemoveGenericResource(\n        address handlerAddress,\n        bytes32 resourceID,\n        address contractAddress\n    ) external onlyAdmin {\n        delete _resourceIDToHandlerAddress[resourceID];\n        IGenericHandler handler = IGenericHandler(handlerAddress);\n        handler.removeResource(resourceID, contractAddress);\n    }\n\n    /**\n        @notice Sets a resource as burnable for handler contracts that use the IERCHandler interface.\n        @notice Only callable by an address that currently has the admin role.\n        @param handlerAddress Address of handler resource will be set for.\n        @param tokenAddress Address of contract to be called when a deposit is made and a deposited is executed.\n     */\n    function adminSetBurnable(address handlerAddress, address tokenAddress)\n        external\n        onlyAdmin\n    {\n        IERCHandler handler = IERCHandler(handlerAddress);\n        handler.setBurnable(tokenAddress);\n    }\n\n    /**\n        @notice Sets the nonce for the specific domainID.\n        @notice Only callable by an address that currently has the admin role.\n        @param domainID Domain ID for increasing nonce.\n        @param nonce The nonce value to be set.\n     */\n    function adminSetDepositNonce(uint8 domainID, uint64 nonce)\n        external\n        onlyAdmin\n    {\n        require(\n            nonce > _depositCounts[domainID],\n            \"Does not allow decrements of the nonce\"\n        );\n        _depositCounts[domainID] = nonce;\n    }\n\n    /**\n        @notice Set a forwarder to be used.\n        @notice Only callable by an address that currently has the admin role.\n        @param forwarder Forwarder address to be added.\n        @param valid Decision for the specific forwarder.\n     */\n    function adminSetForwarder(address forwarder, bool valid)\n        external\n        onlyAdmin\n    {\n        isValidForwarder[forwarder] = valid;\n    }\n\n    function adminSetNative(\n        bytes32 resourceID,\n        address nativeAddress,\n        bool isNative\n    ) external onlyAdmin {\n        IERCHandler handler = IERCHandler(\n            _resourceIDToHandlerAddress[resourceID]\n        );\n        handler.setNative(nativeAddress, isNative);\n    }\n\n    function adminSetDomainId(uint8 domainID) external onlyAdmin {\n        _domainID = domainID;\n    }\n\n    function adminSetSpecialFee(uint8 destinationDomainID, uint256 _specialFee)\n        public\n        onlyAdmin\n    {\n        special[destinationDomainID] = true;\n        specialFee[destinationDomainID] = _specialFee;\n    }\n\n    function adminRemoveSpecialFee(uint8 destinationDomainID) public onlyAdmin {\n        delete special[destinationDomainID];\n        delete specialFee[destinationDomainID];\n    }\n\n    event FeeChanged(uint256 newFee);\n\n    /**\n        @notice Sets new value of the fee.\n        @notice Only callable by admin.\n        @param newFee Value {_fee} will be updated to.\n     */\n    function adminSetFee(uint256 newFee) external onlyAdmin {\n        require(_fee_ != newFee, \"Current fee is equal to new fee\");\n        _fee_ = newFee;\n        emit FeeChanged(newFee);\n    }\n\n    function _getFee(uint8 destinationDomainID) internal view returns (uint256) {\n        if (special[destinationDomainID]) {\n            return specialFee[destinationDomainID];\n        } else {\n            return _fee_;\n        }\n    }\n\n    function getFee(uint8 destinationDomainID) external view returns (uint256) {\n        return _getFee(destinationDomainID);\n    }\n\n    /**\n        @notice Returns a proposal.\n        @param originDomainID Chain ID deposit originated from.\n        @param depositNonce ID of proposal generated by proposal's origin Bridge contract.\n        @param resourceID ResourceID used to find address of handler to be used for deposit.\n        @return Proposal which consists of:\n        - _dataHash Hash of data to be provided when deposit proposal is executed.\n        - _yesVotes Number of votes in favor of proposal.\n        - _noVotes Number of votes against proposal.\n        - _status Current status of proposal.\n     */\n    function getProposal(\n        uint8 originDomainID,\n        uint64 depositNonce,\n        bytes32 resourceID,\n        bytes calldata data\n    ) external view returns (Proposal memory) {\n        address handler = _resourceIDToHandlerAddress[resourceID];\n        bytes32 dataHash = keccak256(\n            abi.encodePacked(resourceID, handler, data)\n        );\n        uint72 nonceAndID = (uint72(depositNonce) << 8) |\n            uint72(originDomainID);\n        return _proposals[nonceAndID][dataHash];\n    }\n\n    /**\n        @notice Returns total relayers number.\n        @notice Added for backwards compatibility.\n     */\n    function _totalRelayers() public view returns (uint256) {\n        return AccessControl.getRoleMemberCount(RELAYER_ROLE);\n    }\n\n    function adminChangeExpiry(uint256 expiry) external onlyAdmin {\n        _expiry = expiry.toUint40();\n    }\n\n    /**\n        @notice Used to manually withdraw funds from ERC safes.\n        @param handlerAddress Address of handler to withdraw from.\n        @param data ABI-encoded withdrawal params relevant to the specified handler.\n     */\n    function adminWithdraw(address handlerAddress, bytes memory data)\n        external\n        onlyAdmin\n    {\n        IERCHandler handler = IERCHandler(handlerAddress);\n        handler.withdraw(data);\n    }\n\n    function adminWithdrawETH(address handlerAddress, bytes memory data)\n        external\n        onlyAdmin\n    {\n        IERCHandler handler = IERCHandler(handlerAddress);\n        handler.withdrawETH(data);\n    }\n\n    event FeeDistributed(\n        address tokenAddress,\n        address recipient,\n        uint256 amount\n    );\n\n    function transferFee(\n        address payable[] calldata addrs,\n        uint256[] calldata amounts\n    ) external onlyAdmin {\n        require(\n            addrs.length == amounts.length,\n            \"addrs[], amounts[]: diff length\"\n        );\n        for (uint256 i = 0; i < addrs.length; i++) {\n            (bool success, ) = addrs[i].call{value: amounts[i]}(\"\");\n            require(success, \"Fee ether transfer failed\");\n            emit FeeDistributed(address(0), addrs[i], amounts[i]);\n        }\n    }\n\n    error IncorrectFeeSupplied(uint256 msgValue, uint256 fee);\n    error ResourceIDNotMappedToHandler();\n\n    /**\n        @notice Initiates a transfer using a specified handler contract.\n        @notice Only callable when Bridge is not paused.\n        @param destinationDomainID ID of chain deposit will be bridged to.\n        @param resourceID ResourceID used to find address of handler to be used for deposit.\n        @param depositData Additional data to be passed to specified handler.\n        @param feeData Additional data to be passed to the fee handler.\n        @notice Emits {Deposit} event with all necessary parameters and a handler response.\n        - ERC20Handler: responds with an empty data.\n        - ERC721Handler: responds with the deposited token metadata acquired by calling a tokenURI method in the token contract.\n        - GenericHandler: responds with the raw bytes returned from the call to the target contract.\n     */\n    function deposit(\n        uint8 destinationDomainID,\n        bytes32 resourceID,\n        bytes calldata depositData,\n        bytes calldata feeData\n    ) external payable whenNotPaused {\n        address sender = _msgSender();\n        _deposit(sender, destinationDomainID, resourceID, depositData, feeData);\n    }\n\n    function _deposit(\n        address sender,\n        uint8 destinationDomainID,\n        bytes32 resourceID,\n        bytes calldata depositData,\n        bytes calldata feeData\n    ) private {\n        uint256 value = msg.value;\n        uint256 fee = _getFee(destinationDomainID);\n        value -= fee;\n        _feeReserve += fee;\n\n        address handler = _resourceIDToHandlerAddress[resourceID];\n        if (handler == address(0)) {\n            revert ResourceIDNotMappedToHandler();\n        }\n\n        uint64 depositNonce = ++_depositCounts[destinationDomainID];\n        bytes memory handlerResponse = IDepositExecute(handler).deposit{\n            value: value\n        }(resourceID, sender, depositData);\n\n        emit Deposit(\n            destinationDomainID,\n            resourceID,\n            depositNonce,\n            sender,\n            depositData,\n            handlerResponse\n        );\n    }\n\n    error InvalidSignature(address signer, uint256 index);\n\n    function checkSignature(\n        uint8 domainID,\n        uint64 depositNonce,\n        bytes32 resourceID,\n        bytes calldata data,\n        bytes calldata signature\n    ) external view returns (bool) {\n        bytes32 structHash = keccak256(\n            abi.encode(\n                PERMIT_TYPEHASH,\n                domainID,\n                depositNonce,\n                resourceID,\n                keccak256(data)\n            )\n        );\n        bytes32 hash = _hashTypedDataV4(structHash);\n        address sender = ECDSAUpgradeable.recover(hash, signature);\n        return hasRole(RELAYER_ROLE, sender);\n    }\n\n    function voteProposals(\n        uint8 domainID,\n        uint64 depositNonce,\n        bytes32 resourceID,\n        bytes calldata data,\n        bytes[] memory signatures\n    ) external whenNotPaused {\n        address handler = _resourceIDToHandlerAddress[resourceID];\n        require(handler != address(0), \"no handler for resourceID\");\n        bytes32 dataHash = keccak256(\n            abi.encodePacked(resourceID, handler, data)\n        );\n        uint256 length = signatures.length;\n        require(\n            length >= _relayerThreshold,\n            \"Signatures length >= relayerThreshold\"\n        );\n        Proposal memory proposal = Proposal({\n            _status: ProposalStatus.Active,\n            _yesVotes: 0,\n            _yesVotesTotal: 0,\n            _proposedBlock: uint40(block.number) // Overflow is desired.\n        });\n\n        bytes32 hash = _hashTypedDataV4(\n            keccak256(\n                abi.encode(\n                    PERMIT_TYPEHASH,\n                    domainID,\n                    depositNonce,\n                    resourceID,\n                    keccak256(data)\n                )\n            )\n        );\n\n        for (uint256 i; i < length; ++i) {\n            address signer = ECDSAUpgradeable.recover(hash, signatures[i]);\n            if (!hasRole(RELAYER_ROLE, signer)) {\n                revert InvalidSignature(signer, i);\n            }\n\n            require(!_hasVoted(proposal, signer), \"relayer already voted\");\n            proposal._yesVotes = (proposal._yesVotes | _relayerBit(signer))\n                .toUint200();\n            proposal._yesVotesTotal++; // TODO: check if bit counting is cheaper.\n        }\n        proposal._status = ProposalStatus.Executed;\n        IDepositExecute depositHandler = IDepositExecute(handler);\n        depositHandler.executeProposal(resourceID, data);\n        emit ProposalEvent(\n            domainID,\n            depositNonce,\n            ProposalStatus.Executed,\n            dataHash\n        );\n\n        uint72 nonceAndID = (uint72(depositNonce) << 8) | uint72(domainID);\n        require(\n            uint256(_proposals[nonceAndID][dataHash]._status) <= 1,\n            \"proposal already executed/cancelled\"\n        );\n        _proposals[nonceAndID][dataHash] = proposal;\n    }\n\n    /**\n        @notice When called, {_msgSender()} will be marked as voting in favor of proposal.\n        @notice Only callable by relayers when Bridge is not paused.\n        @param domainID ID of chain deposit originated from.\n        @param depositNonce ID of deposited generated by origin Bridge contract.\n        @param data Data originally provided when deposit was made.\n        @notice Proposal must not have already been passed or executed.\n        @notice {_msgSender()} must not have already voted on proposal.\n        @notice Emits {ProposalEvent} event with status indicating the proposal status.\n        @notice Emits {ProposalVote} event.\n     */\n    function voteProposal(\n        uint8 domainID,\n        uint64 depositNonce,\n        bytes32 resourceID,\n        bytes calldata data\n    ) external onlyRelayers whenNotPaused nonReentrant {\n        address handler = _resourceIDToHandlerAddress[resourceID];\n        uint72 nonceAndID = (uint72(depositNonce) << 8) | uint72(domainID);\n        bytes32 dataHash = keccak256(\n            abi.encodePacked(resourceID, handler, data)\n        );\n        Proposal memory proposal = _proposals[nonceAndID][dataHash];\n\n        require(\n            _resourceIDToHandlerAddress[resourceID] != address(0),\n            \"no handler for resourceID\"\n        );\n\n        if (proposal._status == ProposalStatus.Passed) {\n            executeProposal(domainID, depositNonce, data, resourceID, true);\n            return;\n        }\n\n        address sender = _msgSender();\n\n        require(\n            uint256(proposal._status) <= 1,\n            \"proposal already executed/cancelled\"\n        );\n        require(!_hasVoted(proposal, sender), \"relayer already voted\");\n\n        if (proposal._status == ProposalStatus.Inactive) {\n            proposal = Proposal({\n                _status: ProposalStatus.Active,\n                _yesVotes: 0,\n                _yesVotesTotal: 0,\n                _proposedBlock: uint40(block.number) // Overflow is desired.\n            });\n\n            emit ProposalEvent(\n                domainID,\n                depositNonce,\n                ProposalStatus.Active,\n                dataHash\n            );\n        } else if (\n            uint40(sub(block.number, proposal._proposedBlock)) > _expiry\n        ) {\n            // if the number of blocks that has passed since this proposal was\n            // submitted exceeds the expiry threshold set, cancel the proposal\n            proposal._status = ProposalStatus.Cancelled;\n\n            emit ProposalEvent(\n                domainID,\n                depositNonce,\n                ProposalStatus.Cancelled,\n                dataHash\n            );\n        }\n\n        if (proposal._status != ProposalStatus.Cancelled) {\n            proposal._yesVotes = (proposal._yesVotes | _relayerBit(sender))\n                .toUint200();\n            proposal._yesVotesTotal++; // TODO: check if bit counting is cheaper.\n\n            emit ProposalVote(\n                domainID,\n                depositNonce,\n                proposal._status,\n                dataHash\n            );\n\n            // Finalize if _relayerThreshold has been reached\n            if (proposal._yesVotesTotal >= _relayerThreshold) {\n                proposal._status = ProposalStatus.Passed;\n                emit ProposalEvent(\n                    domainID,\n                    depositNonce,\n                    ProposalStatus.Passed,\n                    dataHash\n                );\n            }\n        }\n        _proposals[nonceAndID][dataHash] = proposal;\n\n        if (proposal._status == ProposalStatus.Passed) {\n            executeProposal(domainID, depositNonce, data, resourceID, false);\n        }\n    }\n\n    /**\n        @notice Cancels a deposit proposal that has not been executed yet.\n        @notice Only callable by relayers when Bridge is not paused.\n        @param domainID ID of chain deposit originated from.\n        @param depositNonce ID of deposited generated by origin Bridge contract.\n        @param dataHash Hash of data originally provided when deposit was made.\n        @notice Proposal must be past expiry threshold.\n        @notice Emits {ProposalEvent} event with status {Cancelled}.\n     */\n    function cancelProposal(\n        uint8 domainID,\n        uint64 depositNonce,\n        bytes32 dataHash\n    ) public onlyAdminOrRelayer {\n        uint72 nonceAndID = (uint72(depositNonce) << 8) | uint72(domainID);\n        Proposal memory proposal = _proposals[nonceAndID][dataHash];\n        ProposalStatus currentStatus = proposal._status;\n\n        require(\n            currentStatus == ProposalStatus.Active ||\n                currentStatus == ProposalStatus.Passed,\n            \"Proposal cannot be cancelled\"\n        );\n        require(\n            uint40(sub(block.number, proposal._proposedBlock)) > _expiry,\n            \"Proposal not at expiry threshold\"\n        );\n\n        proposal._status = ProposalStatus.Cancelled;\n        _proposals[nonceAndID][dataHash] = proposal;\n\n        emit ProposalEvent(\n            domainID,\n            depositNonce,\n            ProposalStatus.Cancelled,\n            dataHash\n        );\n    }\n\n    /**\n        @notice Executes a deposit proposal that is considered passed using a specified handler contract.\n        @notice Only callable by relayers when Bridge is not paused.\n        @param domainID ID of chain deposit originated from.\n        @param resourceID ResourceID to be used when making deposits.\n        @param depositNonce ID of deposited generated by origin Bridge contract.\n        @param data Data originally provided when deposit was made.\n        @param revertOnFail Decision if the transaction should be reverted in case of handler's executeProposal is reverted or not.\n        @notice Proposal must have Passed status.\n        @notice Hash of {data} must equal proposal's {dataHash}.\n        @notice Emits {ProposalEvent} event with status {Executed}.\n        @notice Emits {FailedExecution} event with the failed reason.\n        @notice Behaviour of this function is different for {GenericHandler} and other specific ERC handlers.\n        In the case of ERC handler, when execution fails, the handler will terminate the function with revert.\n        In the case of {GenericHandler}, when execution fails, the handler will emit a failure event and terminate the function normally.\n     */\n    function executeProposal(\n        uint8 domainID,\n        uint64 depositNonce,\n        bytes calldata data,\n        bytes32 resourceID,\n        bool revertOnFail\n    ) public onlyRelayers whenNotPaused nonReentrant {\n        address handler = _resourceIDToHandlerAddress[resourceID];\n        uint72 nonceAndID = (uint72(depositNonce) << 8) | uint72(domainID);\n        bytes32 dataHash = keccak256(\n            abi.encodePacked(resourceID, handler, data)\n        );\n        Proposal storage proposal = _proposals[nonceAndID][dataHash];\n\n        require(\n            proposal._status == ProposalStatus.Passed,\n            \"Proposal must have Passed status\"\n        );\n\n        proposal._status = ProposalStatus.Executed;\n        IDepositExecute depositHandler = IDepositExecute(handler);\n\n        if (revertOnFail) {\n            depositHandler.executeProposal(resourceID, data);\n        } else {\n            try depositHandler.executeProposal(resourceID, data) {} catch (\n                bytes memory lowLevelData\n            ) {\n                proposal._status = ProposalStatus.Passed;\n                emit FailedHandlerExecution(lowLevelData);\n                return;\n            }\n        }\n\n        emit ProposalEvent(\n            domainID,\n            depositNonce,\n            ProposalStatus.Executed,\n            dataHash\n        );\n    }\n}\n",
  "sourcePath": "/Users/cuimiandashi/Documents/GitHub/chainbridge-solidity-v2.0.0-eth/contracts/BridgeUpgradeable.sol",
  "compiler": {
    "name": "solc",
    "version": "0.8.11+commit.d7f03943.Emscripten.clang"
  },
  "schemaVersion": "3.4.7",
  "updatedAt": "2022-09-22T14:27:40.239Z",
  "devdoc": {
    "author": "ChainSafe Systems.",
    "kind": "dev",
    "methods": {
      "_hasVotedOnProposal(uint72,bytes32,address)": {
        "params": {
          "dataHash": "Hash of data to be provided when deposit proposal is executed.",
          "destNonce": "destinationDomainID + depositNonce of the proposal.",
          "relayer": "Address to check."
        }
      },
      "adminAddRelayer(address)": {
        "params": {
          "relayerAddress": "Address of relayer to be added."
        }
      },
      "adminChangeRelayerThreshold(uint256)": {
        "params": {
          "newThreshold": "Value {_relayerThreshold} will be changed to."
        }
      },
      "adminRemoveRelayer(address)": {
        "params": {
          "relayerAddress": "Address of relayer to be removed."
        }
      },
      "adminSetBurnable(address,address)": {
        "params": {
          "handlerAddress": "Address of handler resource will be set for.",
          "tokenAddress": "Address of contract to be called when a deposit is made and a deposited is executed."
        }
      },
      "adminSetDepositNonce(uint8,uint64)": {
        "params": {
          "domainID": "Domain ID for increasing nonce.",
          "nonce": "The nonce value to be set."
        }
      },
      "adminSetFee(uint256)": {
        "params": {
          "newFee": "Value {_fee} will be updated to."
        }
      },
      "adminSetForwarder(address,bool)": {
        "params": {
          "forwarder": "Forwarder address to be added.",
          "valid": "Decision for the specific forwarder."
        }
      },
      "adminSetGenericResource(address,bytes32,address,bytes4,uint256,bytes4)": {
        "params": {
          "contractAddress": "Address of contract to be called when a deposit is made and a deposited is executed.",
          "depositFunctionDepositorOffset": "Depositor address position offset in the metadata, in bytes.",
          "depositFunctionSig": "Function signature of method to be called in {contractAddress} when a deposit is made.",
          "executeFunctionSig": "Function signature of method to be called in {contractAddress} when a deposit is executed.",
          "handlerAddress": "Address of handler resource will be set for.",
          "resourceID": "ResourceID to be used when making deposits."
        }
      },
      "adminSetResource(address,bytes32,address)": {
        "params": {
          "handlerAddress": "Address of handler resource will be set for.",
          "resourceID": "ResourceID to be used when making deposits.",
          "tokenAddress": "Address of contract to be called when a deposit is made and a deposited is executed."
        }
      },
      "adminWithdraw(address,bytes)": {
        "params": {
          "data": "ABI-encoded withdrawal params relevant to the specified handler.",
          "handlerAddress": "Address of handler to withdraw from."
        }
      },
      "cancelProposal(uint8,uint64,bytes32)": {
        "params": {
          "dataHash": "Hash of data originally provided when deposit was made.",
          "depositNonce": "ID of deposited generated by origin Bridge contract.",
          "domainID": "ID of chain deposit originated from."
        }
      },
      "deposit(uint8,bytes32,bytes,bytes)": {
        "params": {
          "depositData": "Additional data to be passed to specified handler.",
          "destinationDomainID": "ID of chain deposit will be bridged to.",
          "feeData": "Additional data to be passed to the fee handler.",
          "resourceID": "ResourceID used to find address of handler to be used for deposit."
        }
      },
      "executeProposal(uint8,uint64,bytes,bytes32,bool)": {
        "params": {
          "data": "Data originally provided when deposit was made.",
          "depositNonce": "ID of deposited generated by origin Bridge contract.",
          "domainID": "ID of chain deposit originated from.",
          "resourceID": "ResourceID to be used when making deposits.",
          "revertOnFail": "Decision if the transaction should be reverted in case of handler's executeProposal is reverted or not."
        }
      },
      "getProposal(uint8,uint64,bytes32,bytes)": {
        "params": {
          "depositNonce": "ID of proposal generated by proposal's origin Bridge contract.",
          "originDomainID": "Chain ID deposit originated from.",
          "resourceID": "ResourceID used to find address of handler to be used for deposit."
        },
        "returns": {
          "_0": "Proposal which consists of: - _dataHash Hash of data to be provided when deposit proposal is executed. - _yesVotes Number of votes in favor of proposal. - _noVotes Number of votes against proposal. - _status Current status of proposal."
        }
      },
      "getRoleAdmin(bytes32)": {
        "details": "Returns the admin role that controls `role`. See {grantRole} and {revokeRole}. To change a role's admin, use {_setRoleAdmin}."
      },
      "getRoleMember(bytes32,uint256)": {
        "details": "Returns one of the accounts that have `role`. `index` must be a value between 0 and {getRoleMemberCount}, non-inclusive. Role bearers are not sorted in any particular way, and their ordering may change at any point. WARNING: When using {getRoleMember} and {getRoleMemberCount}, make sure you perform all queries on the same block. See the following https://forum.openzeppelin.com/t/iterating-over-elements-on-enumerableset-in-openzeppelin-contracts/2296[forum post] for more information."
      },
      "getRoleMemberCount(bytes32)": {
        "details": "Returns the number of accounts that have `role`. Can be used together with {getRoleMember} to enumerate all bearers of a role."
      },
      "getRoleMemberIndex(bytes32,address)": {
        "details": "Returns the index of the account that have `role`."
      },
      "grantRole(bytes32,address)": {
        "details": "Grants `role` to `account`. If `account` had not been already granted `role`, emits a {RoleGranted} event. Requirements: - the caller must have ``role``'s admin role."
      },
      "hasRole(bytes32,address)": {
        "details": "Returns `true` if `account` has been granted `role`."
      },
      "initialize(uint8,address[],uint256,uint256,address)": {
        "params": {
          "domainID": "ID of chain the Bridge contract exists on.",
          "initialRelayerThreshold": "Number of votes needed for a deposit proposal to be considered passed.",
          "initialRelayers": "Addresses that should be initially granted the relayer role."
        }
      },
      "isRelayer(address)": {
        "params": {
          "relayer": "Address to check."
        }
      },
      "paused()": {
        "details": "Returns true if the contract is paused, and false otherwise."
      },
      "renounceAdmin(address)": {
        "params": {
          "newAdmin": "Address that admin role will be granted to."
        }
      },
      "renounceRole(bytes32,address)": {
        "details": "Revokes `role` from the calling account. Roles are often managed via {grantRole} and {revokeRole}: this function's purpose is to provide a mechanism for accounts to lose their privileges if they are compromised (such as when a trusted device is misplaced). If the calling account had been granted `role`, emits a {RoleRevoked} event. Requirements: - the caller must be `account`."
      },
      "revokeRole(bytes32,address)": {
        "details": "Revokes `role` from `account`. If `account` had been granted `role`, emits a {RoleRevoked} event. Requirements: - the caller must have ``role``'s admin role."
      },
      "voteProposal(uint8,uint64,bytes32,bytes)": {
        "params": {
          "data": "Data originally provided when deposit was made.",
          "depositNonce": "ID of deposited generated by origin Bridge contract.",
          "domainID": "ID of chain deposit originated from."
        }
      }
    },
    "stateVariables": {
      "_domainID": {
        "return": "uint8 The {_domainID} that is currently set for the Bridge contract.",
        "returns": {
          "_0": "uint8 The {_domainID} that is currently set for the Bridge contract."
        }
      }
    },
    "title": "Facilitates deposits, creation and voting of deposit proposals, and deposit executions.",
    "version": 1
  },
  "userdoc": {
    "kind": "user",
    "methods": {
      "_domainID()": {
        "notice": "Exposing getter for {_domainID} instead of forcing the use of call."
      },
      "_hasVotedOnProposal(uint72,bytes32,address)": {
        "notice": "Returns true if {relayer} has voted on {destNonce} {dataHash} proposal.Naming left unchanged for backward compatibility."
      },
      "_totalRelayers()": {
        "notice": "Returns total relayers number.Added for backwards compatibility."
      },
      "adminAddRelayer(address)": {
        "notice": "Grants {relayerAddress} the relayer role.Only callable by an address that currently has the admin role, which is checked in grantRole().Emits {RelayerAdded} event."
      },
      "adminChangeRelayerThreshold(uint256)": {
        "notice": "Modifies the number of votes required for a proposal to be considered passed.Only callable by an address that currently has the admin role.Emits {RelayerThresholdChanged} event."
      },
      "adminPauseTransfers()": {
        "notice": "Pauses deposits, proposal creation and voting, and deposit executions.Only callable by an address that currently has the admin role."
      },
      "adminRemoveRelayer(address)": {
        "notice": "Removes relayer role for {relayerAddress}.Only callable by an address that currently has the admin role, which is checked in revokeRole().Emits {RelayerRemoved} event."
      },
      "adminSetBurnable(address,address)": {
        "notice": "Sets a resource as burnable for handler contracts that use the IERCHandler interface.Only callable by an address that currently has the admin role."
      },
      "adminSetDepositNonce(uint8,uint64)": {
        "notice": "Sets the nonce for the specific domainID.Only callable by an address that currently has the admin role."
      },
      "adminSetFee(uint256)": {
        "notice": "Sets new value of the fee.Only callable by admin."
      },
      "adminSetForwarder(address,bool)": {
        "notice": "Set a forwarder to be used.Only callable by an address that currently has the admin role."
      },
      "adminSetGenericResource(address,bytes32,address,bytes4,uint256,bytes4)": {
        "notice": "Sets a new resource for handler contracts that use the IGenericHandler interface, and maps the {handlerAddress} to {resourceID} in {_resourceIDToHandlerAddress}.Only callable by an address that currently has the admin role."
      },
      "adminSetResource(address,bytes32,address)": {
        "notice": "Sets a new resource for handler contracts that use the IERCHandler interface, and maps the {handlerAddress} to {resourceID} in {_resourceIDToHandlerAddress}.Only callable by an address that currently has the admin role."
      },
      "adminUnpauseTransfers()": {
        "notice": "Unpauses deposits, proposal creation and voting, and deposit executions.Only callable by an address that currently has the admin role."
      },
      "adminWithdraw(address,bytes)": {
        "notice": "Used to manually withdraw funds from ERC safes."
      },
      "cancelProposal(uint8,uint64,bytes32)": {
        "notice": "Cancels a deposit proposal that has not been executed yet.Only callable by relayers when Bridge is not paused.Proposal must be past expiry threshold.Emits {ProposalEvent} event with status {Cancelled}."
      },
      "deposit(uint8,bytes32,bytes,bytes)": {
        "notice": "Initiates a transfer using a specified handler contract.Only callable when Bridge is not paused.Emits {Deposit} event with all necessary parameters and a handler response. - ERC20Handler: responds with an empty data. - ERC721Handler: responds with the deposited token metadata acquired by calling a tokenURI method in the token contract. - GenericHandler: responds with the raw bytes returned from the call to the target contract."
      },
      "executeProposal(uint8,uint64,bytes,bytes32,bool)": {
        "notice": "Executes a deposit proposal that is considered passed using a specified handler contract.Only callable by relayers when Bridge is not paused.Proposal must have Passed status.Hash of {data} must equal proposal's {dataHash}.Emits {ProposalEvent} event with status {Executed}.Emits {FailedExecution} event with the failed reason.Behaviour of this function is different for {GenericHandler} and other specific ERC handlers. In the case of ERC handler, when execution fails, the handler will terminate the function with revert. In the case of {GenericHandler}, when execution fails, the handler will emit a failure event and terminate the function normally."
      },
      "getProposal(uint8,uint64,bytes32,bytes)": {
        "notice": "Returns a proposal."
      },
      "initialize(uint8,address[],uint256,uint256,address)": {
        "notice": "Initializes Bridge, creates and grants {_msgSender()} the admin role, creates and grants {initialRelayers} the relayer role."
      },
      "isRelayer(address)": {
        "notice": "Returns true if {relayer} has the relayer role."
      },
      "renounceAdmin(address)": {
        "notice": "Removes admin role from {_msgSender()} and grants it to {newAdmin}.Only callable by an address that currently has the admin role."
      },
      "voteProposal(uint8,uint64,bytes32,bytes)": {
        "notice": "When called, {_msgSender()} will be marked as voting in favor of proposal.Only callable by relayers when Bridge is not paused.Proposal must not have already been passed or executed.{_msgSender()} must not have already voted on proposal.Emits {ProposalEvent} event with status indicating the proposal status.Emits {ProposalVote} event."
      }
    },
    "version": 1
  }
}