{
  "contractName": "CentrifugeAsset",
  "abi": [
    {
      "anonymous": false,
      "inputs": [
        {
          "indexed": true,
          "internalType": "bytes32",
          "name": "asset",
          "type": "bytes32"
        }
      ],
      "name": "AssetStored",
      "type": "event"
    },
    {
      "inputs": [
        {
          "internalType": "bytes32",
          "name": "",
          "type": "bytes32"
        }
      ],
      "name": "_assetsStored",
      "outputs": [
        {
          "internalType": "bool",
          "name": "",
          "type": "bool"
        }
      ],
      "stateMutability": "view",
      "type": "function"
    },
    {
      "inputs": [
        {
          "internalType": "bytes32",
          "name": "asset",
          "type": "bytes32"
        }
      ],
      "name": "store",
      "outputs": [],
      "stateMutability": "nonpayable",
      "type": "function"
    }
  ],
  "bytecode": "0x608060405234801561001057600080fd5b5061017c806100206000396000f3fe608060405234801561001057600080fd5b50600436106100365760003560e01c8063654cf88c1461003b57806396add60014610050575b600080fd5b61004e61004936600461012d565b610087565b005b61007361005e36600461012d565b60006020819052908152604090205460ff1681565b604051901515815260200160405180910390f35b60008181526020819052604090205460ff16156100ea5760405162461bcd60e51b815260206004820152601760248201527f617373657420697320616c72656164792073746f726564000000000000000000604482015260640160405180910390fd5b600081815260208190526040808220805460ff191660011790555182917f08ae553713effae7116be03743b167b8b803449ee8fb912c2ec43dc2c824f53591a250565b60006020828403121561013f57600080fd5b503591905056fea2646970667358221220462ea3e7dc3308e0a1f0c58144d1cdf6d7e720f4964017a031a2b07bcf2aaa0a64736f6c634300080b0033",
  "immutableReferences": {},
  "source": "// SPDX-License-Identifier: LGPL-3.0-only\npragma solidity 0.8.11;\npragma experimental ABIEncoderV2;\n\n/**\n    @title Represents a bridged Centrifuge asset.\n    @author ChainSafe Systems.\n */\ncontract CentrifugeAsset {\n  mapping (bytes32 => bool) public _assetsStored;\n\n  event AssetStored(bytes32 indexed asset);\n\n  /**\n    @notice Marks {asset} as stored.\n    @param asset Hash of asset deposited on Centrifuge chain.\n    @notice {asset} must not have already been stored.\n    @notice Emits {AssetStored} event.\n   */\n  function store(bytes32 asset) external {\n      require(!_assetsStored[asset], \"asset is already stored\");\n\n      _assetsStored[asset] = true;\n      emit AssetStored(asset);\n  }\n}",
  "sourcePath": "/Users/cuimiandashi/Documents/GitHub/chainbridge-solidity-v2.0.0-eth/contracts/CentrifugeAsset.sol",
  "compiler": {
    "name": "solc",
    "version": "0.8.11+commit.d7f03943.Emscripten.clang"
  },
  "schemaVersion": "3.4.7",
  "updatedAt": "2022-06-05T16:30:50.796Z",
  "devdoc": {
    "author": "ChainSafe Systems.",
    "kind": "dev",
    "methods": {
      "store(bytes32)": {
        "params": {
          "asset": "Hash of asset deposited on Centrifuge chain."
        }
      }
    },
    "title": "Represents a bridged Centrifuge asset.",
    "version": 1
  },
  "userdoc": {
    "kind": "user",
    "methods": {
      "store(bytes32)": {
        "notice": "Marks {asset} as stored.{asset} must not have already been stored.Emits {AssetStored} event."
      }
    },
    "version": 1
  }
}