{
  "contractName": "ERC1967Proxy",
  "abi": [
    {
      "inputs": [
        {
          "internalType": "address",
          "name": "_logic",
          "type": "address"
        },
        {
          "internalType": "bytes",
          "name": "_data",
          "type": "bytes"
        }
      ],
      "stateMutability": "payable",
      "type": "constructor"
    },
    {
      "anonymous": false,
      "inputs": [
        {
          "indexed": false,
          "internalType": "address",
          "name": "previousAdmin",
          "type": "address"
        },
        {
          "indexed": false,
          "internalType": "address",
          "name": "newAdmin",
          "type": "address"
        }
      ],
      "name": "AdminChanged",
      "type": "event"
    },
    {
      "anonymous": false,
      "inputs": [
        {
          "indexed": true,
          "internalType": "address",
          "name": "beacon",
          "type": "address"
        }
      ],
      "name": "BeaconUpgraded",
      "type": "event"
    },
    {
      "anonymous": false,
      "inputs": [
        {
          "indexed": true,
          "internalType": "address",
          "name": "implementation",
          "type": "address"
        }
      ],
      "name": "Upgraded",
      "type": "event"
    },
    {
      "stateMutability": "payable",
      "type": "fallback"
    },
    {
      "stateMutability": "payable",
      "type": "receive"
    },
    {
      "inputs": [],
      "name": "_implementation",
      "outputs": [
        {
          "internalType": "address",
          "name": "impl",
          "type": "address"
        }
      ],
      "stateMutability": "view",
      "type": "function"
    }
  ],
  "bytecode": "0x60806040526040516107e03803806107e083398101604081905261002291610337565b61004d60017f360894a13ba1a3210667c828492db98dca3e2076cc3735a920a3ca505d382bbd610405565b600080516020610799833981519152146100695761006961042a565b6100758282600061007c565b505061048f565b610085836100b2565b6000825111806100925750805b156100ad576100ab83836100f260201b6100b41760201c565b505b505050565b6100bb8161011e565b6040516001600160a01b038216907fbc7cd75a20ee27fd9adebab32041f755214dbc6bffa90cc0225b39da2e5c2d3b90600090a250565b606061011783836040518060600160405280602781526020016107b9602791396101de565b9392505050565b610131816102b360201b6100e01760201c565b6101985760405162461bcd60e51b815260206004820152602d60248201527f455243313936373a206e657720696d706c656d656e746174696f6e206973206e60448201526c1bdd08184818dbdb9d1c9858dd609a1b60648201526084015b60405180910390fd5b806101bd60008051602061079983398151915260001b6102b960201b6100e61760201c565b80546001600160a01b0319166001600160a01b039290921691909117905550565b6060833b61023d5760405162461bcd60e51b815260206004820152602660248201527f416464726573733a2064656c65676174652063616c6c20746f206e6f6e2d636f6044820152651b9d1c9858dd60d21b606482015260840161018f565b600080856001600160a01b0316856040516102589190610440565b600060405180830381855af49150503d8060008114610293576040519150601f19603f3d011682016040523d82523d6000602084013e610298565b606091505b5090925090506102a98282866102bc565b9695505050505050565b3b151590565b90565b606083156102cb575081610117565b8251156102db5782518084602001fd5b8160405162461bcd60e51b815260040161018f919061045c565b634e487b7160e01b600052604160045260246000fd5b60005b8381101561032657818101518382015260200161030e565b838111156100ab5750506000910152565b6000806040838503121561034a57600080fd5b82516001600160a01b038116811461036157600080fd5b60208401519092506001600160401b038082111561037e57600080fd5b818501915085601f83011261039257600080fd5b8151818111156103a4576103a46102f5565b604051601f8201601f19908116603f011681019083821181831017156103cc576103cc6102f5565b816040528281528860208487010111156103e557600080fd5b6103f683602083016020880161030b565b80955050505050509250929050565b60008282101561042557634e487b7160e01b600052601160045260246000fd5b500390565b634e487b7160e01b600052600160045260246000fd5b6000825161045281846020870161030b565b9190910192915050565b602081526000825180602084015261047b81604085016020870161030b565b601f01601f19169190910160400192915050565b6102fb8061049e6000396000f3fe6080604052600436106100225760003560e01c806359679b0f1461003957610031565b366100315761002f61006a565b005b61002f61006a565b34801561004557600080fd5b5061004e61007c565b6040516001600160a01b03909116815260200160405180910390f35b61007a61007561007c565b6100e9565b565b60006100af7f360894a13ba1a3210667c828492db98dca3e2076cc3735a920a3ca505d382bbc546001600160a01b031690565b905090565b60606100d9838360405180606001604052806027815260200161029f6027913961010d565b9392505050565b3b151590565b90565b3660008037600080366000845af43d6000803e808015610108573d6000f35b3d6000fd5b6060833b6101715760405162461bcd60e51b815260206004820152602660248201527f416464726573733a2064656c65676174652063616c6c20746f206e6f6e2d636f6044820152651b9d1c9858dd60d21b60648201526084015b60405180910390fd5b600080856001600160a01b03168560405161018c919061024f565b600060405180830381855af49150503d80600081146101c7576040519150601f19603f3d011682016040523d82523d6000602084013e6101cc565b606091505b50915091506101dc8282866101e6565b9695505050505050565b606083156101f55750816100d9565b8251156102055782518084602001fd5b8160405162461bcd60e51b8152600401610168919061026b565b60005b8381101561023a578181015183820152602001610222565b83811115610249576000848401525b50505050565b6000825161026181846020870161021f565b9190910192915050565b602081526000825180602084015261028a81604085016020870161021f565b601f01601f1916919091016040019291505056fe416464726573733a206c6f772d6c6576656c2064656c65676174652063616c6c206661696c6564a264697066735822122044fe054a54793d48dc90725068a13ad7829f809779ae5bc2a8a5a0aeb9d9f95f64736f6c634300080b0033360894a13ba1a3210667c828492db98dca3e2076cc3735a920a3ca505d382bbc416464726573733a206c6f772d6c6576656c2064656c65676174652063616c6c206661696c6564",
  "immutableReferences": {},
  "source": "// SPDX-License-Identifier: MIT\n\npragma solidity ^0.8.0;\n\nimport \"../Proxy.sol\";\nimport \"./ERC1967Upgrade.sol\";\n\n/**\n * @dev This contract implements an upgradeable proxy. It is upgradeable because calls are delegated to an\n * implementation address that can be changed. This address is stored in storage in the location specified by\n * https://eips.ethereum.org/EIPS/eip-1967[EIP1967], so that it doesn't conflict with the storage layout of the\n * implementation behind the proxy.\n */\ncontract ERC1967Proxy is Proxy, ERC1967Upgrade {\n    /**\n     * @dev Initializes the upgradeable proxy with an initial implementation specified by `_logic`.\n     *\n     * If `_data` is nonempty, it's used as data in a delegate call to `_logic`. This will typically be an encoded\n     * function call, and allows initializating the storage of the proxy like a Solidity constructor.\n     */\n    constructor(address _logic, bytes memory _data) payable {\n        assert(_IMPLEMENTATION_SLOT == bytes32(uint256(keccak256(\"eip1967.proxy.implementation\")) - 1));\n        _upgradeToAndCall(_logic, _data, false);\n    }\n\n    /**\n     * @dev Returns the current implementation address.\n     */\n    function _implementation() public view virtual override returns (address impl) {\n        return ERC1967Upgrade._getImplementation();\n    }\n}\n",
  "sourcePath": "/Users/cuimiandashi/Documents/GitHub/chainbridge-solidity-v2.0.0-eth/contracts/proxy/ERC1967/ERC1967Proxy.sol",
  "compiler": {
    "name": "solc",
    "version": "0.8.11+commit.d7f03943.Emscripten.clang"
  },
  "schemaVersion": "3.4.7",
  "updatedAt": "2022-09-22T14:27:40.495Z",
  "devdoc": {
    "details": "This contract implements an upgradeable proxy. It is upgradeable because calls are delegated to an implementation address that can be changed. This address is stored in storage in the location specified by https://eips.ethereum.org/EIPS/eip-1967[EIP1967], so that it doesn't conflict with the storage layout of the implementation behind the proxy.",
    "kind": "dev",
    "methods": {
      "_implementation()": {
        "details": "Returns the current implementation address."
      },
      "constructor": {
        "details": "Initializes the upgradeable proxy with an initial implementation specified by `_logic`. If `_data` is nonempty, it's used as data in a delegate call to `_logic`. This will typically be an encoded function call, and allows initializating the storage of the proxy like a Solidity constructor."
      }
    },
    "version": 1
  },
  "userdoc": {
    "kind": "user",
    "methods": {},
    "version": 1
  }
}