{
  "contractName": "ERC20HandlerUpgradeable",
  "abi": [
    {
      "inputs": [],
      "name": "ProvidedTokenAddressIsNotWhitelisted",
      "type": "error"
    },
    {
      "anonymous": false,
      "inputs": [
        {
          "indexed": false,
          "internalType": "uint8",
          "name": "version",
          "type": "uint8"
        }
      ],
      "name": "Initialized",
      "type": "event"
    },
    {
      "inputs": [],
      "name": "ETHReserve",
      "outputs": [
        {
          "internalType": "uint256",
          "name": "",
          "type": "uint256"
        }
      ],
      "stateMutability": "view",
      "type": "function"
    },
    {
      "inputs": [],
      "name": "_bridgeAddress",
      "outputs": [
        {
          "internalType": "address",
          "name": "",
          "type": "address"
        }
      ],
      "stateMutability": "view",
      "type": "function"
    },
    {
      "inputs": [
        {
          "internalType": "address",
          "name": "",
          "type": "address"
        }
      ],
      "name": "_burnList",
      "outputs": [
        {
          "internalType": "bool",
          "name": "",
          "type": "bool"
        }
      ],
      "stateMutability": "view",
      "type": "function"
    },
    {
      "inputs": [
        {
          "internalType": "address",
          "name": "",
          "type": "address"
        }
      ],
      "name": "_contractWhitelist",
      "outputs": [
        {
          "internalType": "bool",
          "name": "",
          "type": "bool"
        }
      ],
      "stateMutability": "view",
      "type": "function"
    },
    {
      "inputs": [
        {
          "internalType": "bytes32",
          "name": "",
          "type": "bytes32"
        }
      ],
      "name": "_resourceIDToTokenContractAddress",
      "outputs": [
        {
          "internalType": "address",
          "name": "",
          "type": "address"
        }
      ],
      "stateMutability": "view",
      "type": "function"
    },
    {
      "inputs": [
        {
          "internalType": "address",
          "name": "",
          "type": "address"
        }
      ],
      "name": "_tokenContractAddressToResourceID",
      "outputs": [
        {
          "internalType": "bytes32",
          "name": "",
          "type": "bytes32"
        }
      ],
      "stateMutability": "view",
      "type": "function"
    },
    {
      "inputs": [
        {
          "internalType": "address",
          "name": "",
          "type": "address"
        }
      ],
      "name": "isNative",
      "outputs": [
        {
          "internalType": "bool",
          "name": "",
          "type": "bool"
        }
      ],
      "stateMutability": "view",
      "type": "function"
    },
    {
      "inputs": [
        {
          "internalType": "bytes32",
          "name": "resourceID",
          "type": "bytes32"
        },
        {
          "internalType": "address",
          "name": "contractAddress",
          "type": "address"
        }
      ],
      "name": "removeResource",
      "outputs": [],
      "stateMutability": "nonpayable",
      "type": "function"
    },
    {
      "inputs": [
        {
          "internalType": "address",
          "name": "contractAddress",
          "type": "address"
        }
      ],
      "name": "setBurnable",
      "outputs": [],
      "stateMutability": "nonpayable",
      "type": "function"
    },
    {
      "inputs": [
        {
          "internalType": "address",
          "name": "nativeAddress",
          "type": "address"
        },
        {
          "internalType": "bool",
          "name": "_isNative",
          "type": "bool"
        }
      ],
      "name": "setNative",
      "outputs": [],
      "stateMutability": "nonpayable",
      "type": "function"
    },
    {
      "inputs": [
        {
          "internalType": "bytes32",
          "name": "resourceID",
          "type": "bytes32"
        },
        {
          "internalType": "address",
          "name": "contractAddress",
          "type": "address"
        }
      ],
      "name": "setResource",
      "outputs": [],
      "stateMutability": "nonpayable",
      "type": "function"
    },
    {
      "inputs": [
        {
          "internalType": "address",
          "name": "bridgeAddress",
          "type": "address"
        }
      ],
      "name": "initialize",
      "outputs": [],
      "stateMutability": "nonpayable",
      "type": "function"
    },
    {
      "inputs": [
        {
          "internalType": "bytes32",
          "name": "resourceID",
          "type": "bytes32"
        },
        {
          "internalType": "address",
          "name": "depositor",
          "type": "address"
        },
        {
          "internalType": "bytes",
          "name": "data",
          "type": "bytes"
        }
      ],
      "name": "deposit",
      "outputs": [
        {
          "internalType": "bytes",
          "name": "",
          "type": "bytes"
        }
      ],
      "stateMutability": "payable",
      "type": "function"
    },
    {
      "inputs": [
        {
          "internalType": "bytes32",
          "name": "resourceID",
          "type": "bytes32"
        },
        {
          "internalType": "bytes",
          "name": "data",
          "type": "bytes"
        }
      ],
      "name": "executeProposal",
      "outputs": [],
      "stateMutability": "nonpayable",
      "type": "function"
    },
    {
      "inputs": [
        {
          "internalType": "bytes",
          "name": "data",
          "type": "bytes"
        }
      ],
      "name": "withdraw",
      "outputs": [],
      "stateMutability": "nonpayable",
      "type": "function"
    },
    {
      "inputs": [
        {
          "internalType": "bytes",
          "name": "data",
          "type": "bytes"
        }
      ],
      "name": "withdrawETH",
      "outputs": [],
      "stateMutability": "nonpayable",
      "type": "function"
    }
  ],
  "bytecode": "0x608060405234801561001057600080fd5b5061130f806100206000396000f3fe6080604052600436106100f35760003560e01c8063ab5c7bf11161008a578063c4d66de811610059578063c4d66de8146102f3578063c8ba6c8714610313578063ddafda461461034e578063e248cff21461036457600080fd5b8063ab5c7bf114610263578063b07e54bb14610283578063b2b8b5dd146102a3578063b8fa3736146102d357600080fd5b80636a70d081116100c65780636a70d081146101b3578063789d7711146101f35780637f79bea814610213578063a98157511461024357600080fd5b806307b7ed99146100f85780630968f2641461011a5780630a6d55d81461013a578063318c136e1461018d575b600080fd5b34801561010457600080fd5b50610118610113366004610e90565b610384565b005b34801561012657600080fd5b50610118610135366004610eca565b610398565b34801561014657600080fd5b50610170610155366004610f7b565b6001602052600090815260409020546001600160a01b031681565b6040516001600160a01b0390911681526020015b60405180910390f35b34801561019957600080fd5b50600054610170906201000090046001600160a01b031681565b3480156101bf57600080fd5b506101e36101ce366004610e90565b60046020526000908152604090205460ff1681565b6040519015158152602001610184565b3480156101ff57600080fd5b5061011861020e366004610fa2565b6103d1565b34801561021f57600080fd5b506101e361022e366004610e90565b60036020526000908152604090205460ff1681565b34801561024f57600080fd5b5061011861025e366004610fdb565b610404565b34801561026f57600080fd5b5061011861027e366004610eca565b610457565b610296610291366004611049565b61048a565b60405161018491906110d1565b3480156102af57600080fd5b506101e36102be366004610e90565b60056020526000908152604090205460ff1681565b3480156102df57600080fd5b506101186102ee366004610fdb565b61056e565b3480156102ff57600080fd5b5061011861030e366004610e90565b6105c6565b34801561031f57600080fd5b5061034061032e366004610e90565b60026020526000908152604090205481565b604051908152602001610184565b34801561035a57600080fd5b5061034060065481565b34801561037057600080fd5b5061011861037f366004611104565b61069b565b61038c610814565b61039581610876565b50565b6103a0610814565b6000806000838060200190518101906103b99190611150565b919450925090506103cb83838361090e565b50505050565b6103d9610814565b6001600160a01b03919091166000908152600560205260409020805460ff1916911515919091179055565b61040c610814565b600091825260016020908152604080842080546001600160a01b03191690556001600160a01b0392909216835260028152818320839055600390529020805460ff19169055565b5050565b61045f610814565b600080828060200190518101906104769190611193565b9092509050610485828261091a565b505050565b6060610494610814565b60006104a283850185610f7b565b6000878152600160209081526040808320546001600160a01b03168084526003909252909120549192509060ff166104ed57604051631556d7e160e11b815260040160405180910390fd5b6001600160a01b03811660009081526004602052604090205460ff161561051e5761051981878461097e565b610554565b6001600160a01b03811660009081526005602052604090205460ff161561054857610519826109e0565b61055481873085610a8b565b505060408051600081526020810190915295945050505050565b610576610814565b600082815260016020818152604080842080546001600160a01b0319166001600160a01b0387169081179091558452600282528084208690556003909152909120805460ff191690911790555050565b600054610100900460ff16158080156105e65750600054600160ff909116105b806106005750303b158015610600575060005460ff166001145b6106255760405162461bcd60e51b815260040161061c906111c1565b60405180910390fd5b6000805460ff191660011790558015610648576000805461ff0019166101001790555b61065182610a9f565b8015610453576000805461ff0019169055604051600181527f7f26b83ff96e1f2b6a682f133852f6798a09c465da95921460cefb3847402498906020015b60405180910390a15050565b6106a3610814565b60008060606106b48486018661120f565b9093509150846040856106c78583611247565b926106d49392919061125f565b8080601f01602080910402602001604051908101604052809392919081815260200183838082843760009201829052508a815260016020908152604080832054828801516001600160a01b039091168085526003909352922054959650909490935060ff16915061079a90505760405162461bcd60e51b815260206004820152602860248201527f70726f766964656420746f6b656e41646472657373206973206e6f74207768696044820152671d195b1a5cdd195960c21b606482015260840161061c565b6001600160a01b03811660009081526004602052604090205460ff16156107ce576107c9818360601c87610b7c565b61080a565b6001600160a01b03811660009081526005602052604090205460ff16156107fc576107c98260601c8661091a565b61080a818360601c8761090e565b5050505050505050565b6000546201000090046001600160a01b031633146108745760405162461bcd60e51b815260206004820152601e60248201527f73656e646572206d7573742062652062726964676520636f6e74726163740000604482015260640161061c565b565b6001600160a01b03811660009081526003602052604090205460ff166108ea5760405162461bcd60e51b8152602060048201526024808201527f70726f766964656420636f6e7472616374206973206e6f742077686974656c696044820152631cdd195960e21b606482015260840161061c565b6001600160a01b03166000908152600460205260409020805460ff19166001179055565b826103cb818484610bb4565b476109258383610c17565b61092f8282611289565b47146109755760405162461bcd60e51b815260206004820152601560248201527445524332303a207769746864726177206661696c2160581b604482015260640161061c565b50504760065550565b60405163079cc67960e41b81526001600160a01b038381166004830152602482018390528491908216906379cc6790906044015b600060405180830381600087803b1580156109cc57600080fd5b505af115801561080a573d6000803e3d6000fd5b348114610a2f5760405162461bcd60e51b815260206004820152601d60248201527f6d73672e76616c756520616e642064617461206d69736d617463686564000000604482015260640161061c565b80600654610a3d9190611247565b471015610a845760405162461bcd60e51b815260206004820152601560248201527411551214995cd95c9d99481b5a5cdb585d18da1959605a1b604482015260640161061c565b5047600655565b83610a9881858585610cf1565b5050505050565b600054610100900460ff1615808015610abf5750600054600160ff909116105b80610ad95750303b158015610ad9575060005460ff166001145b610af55760405162461bcd60e51b815260040161061c906111c1565b6000805460ff191660011790558015610b18576000805461ff0019166101001790555b6000805462010000600160b01b031916620100006001600160a01b038516021790558015610453576000805461ff0019169055604051600181527f7f26b83ff96e1f2b6a682f133852f6798a09c465da95921460cefb38474024989060200161068f565b6040516340c10f1960e01b81526001600160a01b038381166004830152602482018390528491908216906340c10f19906044016109b2565b6040516001600160a01b03831660248201526044810182905261048590849063a9059cbb60e01b906064015b60408051601f198184030181529190526020810180516001600160e01b03166001600160e01b031990931692909217909152610d29565b604080516000808252602082019092526001600160a01b038416908390604051610c4191906112a0565b60006040518083038185875af1925050503d8060008114610c7e576040519150601f19603f3d011682016040523d82523d6000602084013e610c83565b606091505b50509050806104855760405162461bcd60e51b815260206004820152603460248201527f5472616e7366657248656c7065723a3a736166655472616e736665724554483a60448201527308115512081d1c985b9cd9995c8819985a5b195960621b606482015260840161061c565b6040516001600160a01b03808516602483015283166044820152606481018290526103cb9085906323b872dd60e01b90608401610be0565b813b80610d705760405162461bcd60e51b8152602060048201526015602482015274115490cc8c0e881b9bdd08184818dbdb9d1c9858dd605a1b604482015260640161061c565b600080846001600160a01b031684604051610d8b91906112a0565b6000604051808303816000865af19150503d8060008114610dc8576040519150601f19603f3d011682016040523d82523d6000602084013e610dcd565b606091505b509150915081610e145760405162461bcd60e51b8152602060048201526012602482015271115490cc8c0e8818d85b1b0819985a5b195960721b604482015260640161061c565b805115610a985780806020019051810190610e2f91906112bc565b610a985760405162461bcd60e51b815260206004820181905260248201527f45524332303a206f7065726174696f6e20646964206e6f742073756363656564604482015260640161061c565b6001600160a01b038116811461039557600080fd5b600060208284031215610ea257600080fd5b8135610ead81610e7b565b9392505050565b634e487b7160e01b600052604160045260246000fd5b600060208284031215610edc57600080fd5b813567ffffffffffffffff80821115610ef457600080fd5b818401915084601f830112610f0857600080fd5b813581811115610f1a57610f1a610eb4565b604051601f8201601f19908116603f01168101908382118183101715610f4257610f42610eb4565b81604052828152876020848701011115610f5b57600080fd5b826020860160208301376000928101602001929092525095945050505050565b600060208284031215610f8d57600080fd5b5035919050565b801515811461039557600080fd5b60008060408385031215610fb557600080fd5b8235610fc081610e7b565b91506020830135610fd081610f94565b809150509250929050565b60008060408385031215610fee57600080fd5b823591506020830135610fd081610e7b565b60008083601f84011261101257600080fd5b50813567ffffffffffffffff81111561102a57600080fd5b60208301915083602082850101111561104257600080fd5b9250929050565b6000806000806060858703121561105f57600080fd5b84359350602085013561107181610e7b565b9250604085013567ffffffffffffffff81111561108d57600080fd5b61109987828801611000565b95989497509550505050565b60005b838110156110c05781810151838201526020016110a8565b838111156103cb5750506000910152565b60208152600082518060208401526110f08160408501602087016110a5565b601f01601f19169190910160400192915050565b60008060006040848603121561111957600080fd5b83359250602084013567ffffffffffffffff81111561113757600080fd5b61114386828701611000565b9497909650939450505050565b60008060006060848603121561116557600080fd5b835161117081610e7b565b602085015190935061118181610e7b565b80925050604084015190509250925092565b600080604083850312156111a657600080fd5b82516111b181610e7b565b6020939093015192949293505050565b6020808252602e908201527f496e697469616c697a61626c653a20636f6e747261637420697320616c72656160408201526d191e481a5b9a5d1a585b1a5e995960921b606082015260800190565b6000806040838503121561122257600080fd5b50508035926020909101359150565b634e487b7160e01b600052601160045260246000fd5b6000821982111561125a5761125a611231565b500190565b6000808585111561126f57600080fd5b8386111561127c57600080fd5b5050820193919092039150565b60008282101561129b5761129b611231565b500390565b600082516112b28184602087016110a5565b9190910192915050565b6000602082840312156112ce57600080fd5b8151610ead81610f9456fea2646970667358221220e53d8018b421b95865872f1e230ad308da86f78d920e14ba95518e2f7342709d64736f6c634300080b0033",
  "immutableReferences": {},
  "source": "// SPDX-License-Identifier: LGPL-3.0-only\npragma solidity 0.8.11;\npragma experimental ABIEncoderV2;\n\nimport \"../interfaces/IDepositExecute.sol\";\nimport {HandlerHelpersUpgradeable as HandlerHelpers} from \"./HandlerHelpersUpgradeable.sol\";\nimport \"../ERC20Safe.sol\";\n\n/**\n    @title Handles ERC20 deposits and deposit executions.\n    @author ChainSafe Systems.\n    @notice This contract is intended to be used with the Bridge contract.\n */\ncontract ERC20HandlerUpgradeable is IDepositExecute, HandlerHelpers, ERC20Safe {\n    /**\n        @param bridgeAddress Contract address of previously deployed Bridge.\n     */\n    function initialize(address bridgeAddress) public initializer {\n        __HandlerHelpers_init(bridgeAddress);\n    }\n\n    error ProvidedTokenAddressIsNotWhitelisted();\n\n    /**\n        @notice A deposit is initiated by making a deposit in the Bridge contract.\n        @param resourceID ResourceID used to find address of token to be used for deposit.\n        @param depositor Address of account making the deposit in the Bridge contract.\n        @param data Consists of {amount} padded to 32 bytes.\n        @notice Data passed into the function should be constructed as follows:\n        amount                      uint256     bytes   0 - 32\n        @dev Depending if the corresponding {tokenAddress} for the parsed {resourceID} is\n        marked true in {_burnList}, deposited tokens will be burned, if not, they will be locked.\n        @return an empty data.\n     */\n    function deposit(\n        bytes32 resourceID,\n        address depositor,\n        bytes calldata data\n    ) external payable override onlyBridge returns (bytes memory) {\n        uint256 amount;\n        (amount) = abi.decode(data, (uint256));\n\n        address tokenAddress = _resourceIDToTokenContractAddress[resourceID];\n        if (!_contractWhitelist[tokenAddress]) {\n            revert ProvidedTokenAddressIsNotWhitelisted();\n        }\n\n        if (_burnList[tokenAddress]) {\n            burnERC20(tokenAddress, depositor, amount);\n        } else if (isNative[tokenAddress]) {\n            depositETH(amount);\n        } else {\n            lockERC20(tokenAddress, depositor, address(this), amount);\n        }\n        return new bytes(0);\n    }\n\n    /**\n        @notice Proposal execution should be initiated when a proposal is finalized in the Bridge contract.\n        by a relayer on the deposit's destination chain.\n        @param data Consists of {resourceID}, {amount}, {lenDestinationRecipientAddress},\n        and {destinationRecipientAddress} all padded to 32 bytes.\n        @notice Data passed into the function should be constructed as follows:\n        amount                                 uint256     bytes  0 - 32\n        destinationRecipientAddress length     uint256     bytes  32 - 64\n        destinationRecipientAddress            bytes       bytes  64 - END\n     */\n    function executeProposal(bytes32 resourceID, bytes calldata data)\n        external\n        override\n        onlyBridge\n    {\n        uint256 amount;\n        uint256 lenDestinationRecipientAddress;\n        bytes memory destinationRecipientAddress;\n\n        (amount, lenDestinationRecipientAddress) = abi.decode(\n            data,\n            (uint256, uint256)\n        );\n        destinationRecipientAddress = bytes(\n            data[64:64 + lenDestinationRecipientAddress]\n        );\n\n        bytes20 recipientAddress;\n        address tokenAddress = _resourceIDToTokenContractAddress[resourceID];\n\n        assembly {\n            recipientAddress := mload(add(destinationRecipientAddress, 0x20))\n        }\n\n        require(\n            _contractWhitelist[tokenAddress],\n            \"provided tokenAddress is not whitelisted\"\n        );\n\n        if (_burnList[tokenAddress]) {\n            mintERC20(tokenAddress, address(recipientAddress), amount);\n        } else if (isNative[tokenAddress]) {\n            withdrawETH(address(recipientAddress), amount);\n        } else {\n            releaseERC20(tokenAddress, address(recipientAddress), amount);\n        }\n    }\n\n    /**\n        @notice Used to manually release ERC20 tokens from ERC20Safe.\n        @param data Consists of {tokenAddress}, {recipient}, and {amount} all padded to 32 bytes.\n        @notice Data passed into the function should be constructed as follows:\n        tokenAddress                           address     bytes  0 - 32\n        recipient                              address     bytes  32 - 64\n        amount                                 uint        bytes  64 - 96\n     */\n    function withdraw(bytes memory data) external override onlyBridge {\n        address tokenAddress;\n        address recipient;\n        uint256 amount;\n\n        (tokenAddress, recipient, amount) = abi.decode(\n            data,\n            (address, address, uint256)\n        );\n\n        releaseERC20(tokenAddress, recipient, amount);\n    }\n\n    /**\n        @notice Used to manually release ETH ERC20Safe.\n        @param data Consists of {recipient}, and {amount} all padded to 32 bytes.\n        @notice Data passed into the function should be constructed as follows:\n        recipient                           address     bytes  0 - 32\n        amount                                 uint     bytes  32 - 64\n     */\n    function withdrawETH(bytes memory data) external override onlyBridge {\n        address recipient;\n        uint256 amount;\n\n        (recipient, amount) = abi.decode(data, (address, uint256));\n\n        withdrawETH(recipient, amount);\n    }\n}\n",
  "sourcePath": "/Users/cuimiandashi/Documents/GitHub/chainbridge-solidity-v2.0.0-eth/contracts/handlers/ERC20HandlerUpgradeable.sol",
  "compiler": {
    "name": "solc",
    "version": "0.8.11+commit.d7f03943.Emscripten.clang"
  },
  "schemaVersion": "3.4.7",
  "updatedAt": "2022-09-22T14:27:40.400Z",
  "devdoc": {
    "author": "ChainSafe Systems.",
    "kind": "dev",
    "methods": {
      "deposit(bytes32,address,bytes)": {
        "details": "Depending if the corresponding {tokenAddress} for the parsed {resourceID} is marked true in {_burnList}, deposited tokens will be burned, if not, they will be locked.",
        "params": {
          "data": "Consists of {amount} padded to 32 bytes.",
          "depositor": "Address of account making the deposit in the Bridge contract.",
          "resourceID": "ResourceID used to find address of token to be used for deposit."
        },
        "returns": {
          "_0": "an empty data."
        }
      },
      "executeProposal(bytes32,bytes)": {
        "params": {
          "data": "Consists of {resourceID}, {amount}, {lenDestinationRecipientAddress}, and {destinationRecipientAddress} all padded to 32 bytes."
        }
      },
      "initialize(address)": {
        "params": {
          "bridgeAddress": "Contract address of previously deployed Bridge."
        }
      },
      "setBurnable(address)": {
        "params": {
          "contractAddress": "Address of contract to be used when making or executing deposits."
        }
      },
      "setResource(bytes32,address)": {
        "params": {
          "contractAddress": "Address of contract to be called when a deposit is made and a deposited is executed.",
          "resourceID": "ResourceID to be used when making deposits."
        }
      },
      "withdraw(bytes)": {
        "params": {
          "data": "Consists of {tokenAddress}, {recipient}, and {amount} all padded to 32 bytes."
        }
      },
      "withdrawETH(bytes)": {
        "params": {
          "data": "Consists of {recipient}, and {amount} all padded to 32 bytes."
        }
      }
    },
    "title": "Handles ERC20 deposits and deposit executions.",
    "version": 1
  },
  "userdoc": {
    "kind": "user",
    "methods": {
      "_resourceIDToTokenContractAddress(bytes32)": {
        "notice": "Exposing getter for {_resourceIDToTokenContractAddress}."
      },
      "deposit(bytes32,address,bytes)": {
        "notice": "A deposit is initiated by making a deposit in the Bridge contract.Data passed into the function should be constructed as follows: amount                      uint256     bytes   0 - 32"
      },
      "executeProposal(bytes32,bytes)": {
        "notice": "Proposal execution should be initiated when a proposal is finalized in the Bridge contract. by a relayer on the deposit's destination chain.Data passed into the function should be constructed as follows: amount                                 uint256     bytes  0 - 32 destinationRecipientAddress length     uint256     bytes  32 - 64 destinationRecipientAddress            bytes       bytes  64 - END"
      },
      "setBurnable(address)": {
        "notice": "First verifies {contractAddress} is whitelisted, then sets {_burnList}[{contractAddress}] to true."
      },
      "setResource(bytes32,address)": {
        "notice": "First verifies {_resourceIDToContractAddress}[{resourceID}] and {_contractAddressToResourceID}[{contractAddress}] are not already set, then sets {_resourceIDToContractAddress} with {contractAddress}, {_contractAddressToResourceID} with {resourceID}, and {_contractWhitelist} to true for {contractAddress}."
      },
      "withdraw(bytes)": {
        "notice": "Used to manually release ERC20 tokens from ERC20Safe.Data passed into the function should be constructed as follows: tokenAddress                           address     bytes  0 - 32 recipient                              address     bytes  32 - 64 amount                                 uint        bytes  64 - 96"
      },
      "withdrawETH(bytes)": {
        "notice": "Used to manually release ETH ERC20Safe.Data passed into the function should be constructed as follows: recipient                           address     bytes  0 - 32 amount                                 uint     bytes  32 - 64"
      }
    },
    "notice": "This contract is intended to be used with the Bridge contract.",
    "version": 1
  }
}