{
  "contractName": "ERC20MintablePauseableUpgradeable",
  "abi": [
    {
      "anonymous": false,
      "inputs": [
        {
          "indexed": true,
          "internalType": "address",
          "name": "owner",
          "type": "address"
        },
        {
          "indexed": true,
          "internalType": "address",
          "name": "spender",
          "type": "address"
        },
        {
          "indexed": false,
          "internalType": "uint256",
          "name": "value",
          "type": "uint256"
        }
      ],
      "name": "Approval",
      "type": "event"
    },
    {
      "anonymous": false,
      "inputs": [
        {
          "indexed": false,
          "internalType": "uint8",
          "name": "version",
          "type": "uint8"
        }
      ],
      "name": "Initialized",
      "type": "event"
    },
    {
      "anonymous": false,
      "inputs": [
        {
          "indexed": false,
          "internalType": "address",
          "name": "account",
          "type": "address"
        }
      ],
      "name": "Paused",
      "type": "event"
    },
    {
      "anonymous": false,
      "inputs": [
        {
          "indexed": true,
          "internalType": "bytes32",
          "name": "role",
          "type": "bytes32"
        },
        {
          "indexed": true,
          "internalType": "bytes32",
          "name": "previousAdminRole",
          "type": "bytes32"
        },
        {
          "indexed": true,
          "internalType": "bytes32",
          "name": "newAdminRole",
          "type": "bytes32"
        }
      ],
      "name": "RoleAdminChanged",
      "type": "event"
    },
    {
      "anonymous": false,
      "inputs": [
        {
          "indexed": true,
          "internalType": "bytes32",
          "name": "role",
          "type": "bytes32"
        },
        {
          "indexed": true,
          "internalType": "address",
          "name": "account",
          "type": "address"
        },
        {
          "indexed": true,
          "internalType": "address",
          "name": "sender",
          "type": "address"
        }
      ],
      "name": "RoleGranted",
      "type": "event"
    },
    {
      "anonymous": false,
      "inputs": [
        {
          "indexed": true,
          "internalType": "bytes32",
          "name": "role",
          "type": "bytes32"
        },
        {
          "indexed": true,
          "internalType": "address",
          "name": "account",
          "type": "address"
        },
        {
          "indexed": true,
          "internalType": "address",
          "name": "sender",
          "type": "address"
        }
      ],
      "name": "RoleRevoked",
      "type": "event"
    },
    {
      "anonymous": false,
      "inputs": [
        {
          "indexed": true,
          "internalType": "address",
          "name": "from",
          "type": "address"
        },
        {
          "indexed": true,
          "internalType": "address",
          "name": "to",
          "type": "address"
        },
        {
          "indexed": false,
          "internalType": "uint256",
          "name": "value",
          "type": "uint256"
        }
      ],
      "name": "Transfer",
      "type": "event"
    },
    {
      "anonymous": false,
      "inputs": [
        {
          "indexed": false,
          "internalType": "address",
          "name": "account",
          "type": "address"
        }
      ],
      "name": "Unpaused",
      "type": "event"
    },
    {
      "inputs": [],
      "name": "DEFAULT_ADMIN_ROLE",
      "outputs": [
        {
          "internalType": "bytes32",
          "name": "",
          "type": "bytes32"
        }
      ],
      "stateMutability": "view",
      "type": "function"
    },
    {
      "inputs": [],
      "name": "MINTER_ROLE",
      "outputs": [
        {
          "internalType": "bytes32",
          "name": "",
          "type": "bytes32"
        }
      ],
      "stateMutability": "view",
      "type": "function"
    },
    {
      "inputs": [],
      "name": "PERMIT_TYPEHASH",
      "outputs": [
        {
          "internalType": "bytes32",
          "name": "",
          "type": "bytes32"
        }
      ],
      "stateMutability": "view",
      "type": "function"
    },
    {
      "inputs": [
        {
          "internalType": "address",
          "name": "owner",
          "type": "address"
        },
        {
          "internalType": "address",
          "name": "spender",
          "type": "address"
        }
      ],
      "name": "allowance",
      "outputs": [
        {
          "internalType": "uint256",
          "name": "",
          "type": "uint256"
        }
      ],
      "stateMutability": "view",
      "type": "function"
    },
    {
      "inputs": [
        {
          "internalType": "address",
          "name": "spender",
          "type": "address"
        },
        {
          "internalType": "uint256",
          "name": "amount",
          "type": "uint256"
        }
      ],
      "name": "approve",
      "outputs": [
        {
          "internalType": "bool",
          "name": "",
          "type": "bool"
        }
      ],
      "stateMutability": "nonpayable",
      "type": "function"
    },
    {
      "inputs": [
        {
          "internalType": "address",
          "name": "account",
          "type": "address"
        }
      ],
      "name": "balanceOf",
      "outputs": [
        {
          "internalType": "uint256",
          "name": "",
          "type": "uint256"
        }
      ],
      "stateMutability": "view",
      "type": "function"
    },
    {
      "inputs": [
        {
          "internalType": "uint256",
          "name": "amount",
          "type": "uint256"
        }
      ],
      "name": "burn",
      "outputs": [],
      "stateMutability": "nonpayable",
      "type": "function"
    },
    {
      "inputs": [
        {
          "internalType": "address",
          "name": "account",
          "type": "address"
        },
        {
          "internalType": "uint256",
          "name": "amount",
          "type": "uint256"
        }
      ],
      "name": "burnFrom",
      "outputs": [],
      "stateMutability": "nonpayable",
      "type": "function"
    },
    {
      "inputs": [
        {
          "internalType": "address",
          "name": "spender",
          "type": "address"
        },
        {
          "internalType": "uint256",
          "name": "subtractedValue",
          "type": "uint256"
        }
      ],
      "name": "decreaseAllowance",
      "outputs": [
        {
          "internalType": "bool",
          "name": "",
          "type": "bool"
        }
      ],
      "stateMutability": "nonpayable",
      "type": "function"
    },
    {
      "inputs": [
        {
          "internalType": "bytes32",
          "name": "role",
          "type": "bytes32"
        }
      ],
      "name": "getRoleAdmin",
      "outputs": [
        {
          "internalType": "bytes32",
          "name": "",
          "type": "bytes32"
        }
      ],
      "stateMutability": "view",
      "type": "function"
    },
    {
      "inputs": [
        {
          "internalType": "bytes32",
          "name": "role",
          "type": "bytes32"
        },
        {
          "internalType": "uint256",
          "name": "index",
          "type": "uint256"
        }
      ],
      "name": "getRoleMember",
      "outputs": [
        {
          "internalType": "address",
          "name": "",
          "type": "address"
        }
      ],
      "stateMutability": "view",
      "type": "function"
    },
    {
      "inputs": [
        {
          "internalType": "bytes32",
          "name": "role",
          "type": "bytes32"
        }
      ],
      "name": "getRoleMemberCount",
      "outputs": [
        {
          "internalType": "uint256",
          "name": "",
          "type": "uint256"
        }
      ],
      "stateMutability": "view",
      "type": "function"
    },
    {
      "inputs": [
        {
          "internalType": "bytes32",
          "name": "role",
          "type": "bytes32"
        },
        {
          "internalType": "address",
          "name": "account",
          "type": "address"
        }
      ],
      "name": "grantRole",
      "outputs": [],
      "stateMutability": "nonpayable",
      "type": "function"
    },
    {
      "inputs": [
        {
          "internalType": "bytes32",
          "name": "role",
          "type": "bytes32"
        },
        {
          "internalType": "address",
          "name": "account",
          "type": "address"
        }
      ],
      "name": "hasRole",
      "outputs": [
        {
          "internalType": "bool",
          "name": "",
          "type": "bool"
        }
      ],
      "stateMutability": "view",
      "type": "function"
    },
    {
      "inputs": [
        {
          "internalType": "address",
          "name": "spender",
          "type": "address"
        },
        {
          "internalType": "uint256",
          "name": "addedValue",
          "type": "uint256"
        }
      ],
      "name": "increaseAllowance",
      "outputs": [
        {
          "internalType": "bool",
          "name": "",
          "type": "bool"
        }
      ],
      "stateMutability": "nonpayable",
      "type": "function"
    },
    {
      "inputs": [],
      "name": "name",
      "outputs": [
        {
          "internalType": "string",
          "name": "",
          "type": "string"
        }
      ],
      "stateMutability": "view",
      "type": "function"
    },
    {
      "inputs": [
        {
          "internalType": "address",
          "name": "",
          "type": "address"
        }
      ],
      "name": "nonces",
      "outputs": [
        {
          "internalType": "uint256",
          "name": "",
          "type": "uint256"
        }
      ],
      "stateMutability": "view",
      "type": "function"
    },
    {
      "inputs": [],
      "name": "paused",
      "outputs": [
        {
          "internalType": "bool",
          "name": "",
          "type": "bool"
        }
      ],
      "stateMutability": "view",
      "type": "function"
    },
    {
      "inputs": [
        {
          "internalType": "bytes32",
          "name": "role",
          "type": "bytes32"
        },
        {
          "internalType": "address",
          "name": "account",
          "type": "address"
        }
      ],
      "name": "renounceRole",
      "outputs": [],
      "stateMutability": "nonpayable",
      "type": "function"
    },
    {
      "inputs": [
        {
          "internalType": "bytes32",
          "name": "role",
          "type": "bytes32"
        },
        {
          "internalType": "address",
          "name": "account",
          "type": "address"
        }
      ],
      "name": "revokeRole",
      "outputs": [],
      "stateMutability": "nonpayable",
      "type": "function"
    },
    {
      "inputs": [
        {
          "internalType": "bytes4",
          "name": "interfaceId",
          "type": "bytes4"
        }
      ],
      "name": "supportsInterface",
      "outputs": [
        {
          "internalType": "bool",
          "name": "",
          "type": "bool"
        }
      ],
      "stateMutability": "view",
      "type": "function"
    },
    {
      "inputs": [],
      "name": "symbol",
      "outputs": [
        {
          "internalType": "string",
          "name": "",
          "type": "string"
        }
      ],
      "stateMutability": "view",
      "type": "function"
    },
    {
      "inputs": [],
      "name": "totalSupply",
      "outputs": [
        {
          "internalType": "uint256",
          "name": "",
          "type": "uint256"
        }
      ],
      "stateMutability": "view",
      "type": "function"
    },
    {
      "inputs": [
        {
          "internalType": "address",
          "name": "to",
          "type": "address"
        },
        {
          "internalType": "uint256",
          "name": "amount",
          "type": "uint256"
        }
      ],
      "name": "transfer",
      "outputs": [
        {
          "internalType": "bool",
          "name": "",
          "type": "bool"
        }
      ],
      "stateMutability": "nonpayable",
      "type": "function"
    },
    {
      "inputs": [
        {
          "internalType": "address",
          "name": "from",
          "type": "address"
        },
        {
          "internalType": "address",
          "name": "to",
          "type": "address"
        },
        {
          "internalType": "uint256",
          "name": "amount",
          "type": "uint256"
        }
      ],
      "name": "transferFrom",
      "outputs": [
        {
          "internalType": "bool",
          "name": "",
          "type": "bool"
        }
      ],
      "stateMutability": "nonpayable",
      "type": "function"
    },
    {
      "inputs": [
        {
          "internalType": "string",
          "name": "name",
          "type": "string"
        },
        {
          "internalType": "string",
          "name": "symbol",
          "type": "string"
        },
        {
          "internalType": "uint8",
          "name": "decimals_",
          "type": "uint8"
        },
        {
          "internalType": "address",
          "name": "admin",
          "type": "address"
        }
      ],
      "name": "initialize",
      "outputs": [],
      "stateMutability": "nonpayable",
      "type": "function"
    },
    {
      "inputs": [],
      "name": "decimals",
      "outputs": [
        {
          "internalType": "uint8",
          "name": "",
          "type": "uint8"
        }
      ],
      "stateMutability": "view",
      "type": "function"
    },
    {
      "inputs": [
        {
          "internalType": "address",
          "name": "account",
          "type": "address"
        }
      ],
      "name": "setBlackList",
      "outputs": [],
      "stateMutability": "nonpayable",
      "type": "function"
    },
    {
      "inputs": [
        {
          "internalType": "address",
          "name": "account",
          "type": "address"
        }
      ],
      "name": "getBlackList",
      "outputs": [
        {
          "internalType": "bool",
          "name": "",
          "type": "bool"
        }
      ],
      "stateMutability": "view",
      "type": "function"
    },
    {
      "inputs": [
        {
          "internalType": "address",
          "name": "to",
          "type": "address"
        },
        {
          "internalType": "uint256",
          "name": "amount",
          "type": "uint256"
        }
      ],
      "name": "mint",
      "outputs": [],
      "stateMutability": "nonpayable",
      "type": "function"
    },
    {
      "inputs": [],
      "name": "pause",
      "outputs": [],
      "stateMutability": "nonpayable",
      "type": "function"
    },
    {
      "inputs": [],
      "name": "unpause",
      "outputs": [],
      "stateMutability": "nonpayable",
      "type": "function"
    },
    {
      "inputs": [
        {
          "internalType": "address",
          "name": "owner",
          "type": "address"
        },
        {
          "internalType": "address",
          "name": "spender",
          "type": "address"
        },
        {
          "internalType": "uint256",
          "name": "value",
          "type": "uint256"
        },
        {
          "internalType": "uint256",
          "name": "deadline",
          "type": "uint256"
        },
        {
          "internalType": "bytes",
          "name": "signature",
          "type": "bytes"
        }
      ],
      "name": "permit",
      "outputs": [],
      "stateMutability": "nonpayable",
      "type": "function"
    }
  ],
  "bytecode": "0x608060405234801561001057600080fd5b50612430806100206000396000f3fe608060405234801561001057600080fd5b50600436106101fb5760003560e01c806370a082311161011a5780639fd5a6cf116100ad578063ca15c8731161007c578063ca15c8731461045c578063d53913931461046f578063d547741f14610496578063dd62ed3e146104a9578063de7ea79d146104bc57600080fd5b80639fd5a6cf1461041b578063a217fddf1461042e578063a457c2d714610436578063a9059cbb1461044957600080fd5b80638456cb59116100e95780638456cb59146103cd5780639010d07c146103d557806391d148541461040057806395d89b411461041357600080fd5b806370a082311461035d578063727002411461038657806379cc6790146103995780637ecebe00146103ac57600080fd5b8063313ce567116101925780633fbdc67d116101615780633fbdc67d1461031957806340c10f191461032c57806342966c681461033f5780635c975abb1461035257600080fd5b8063313ce567146102d557806336568abe146102eb57806339509351146102fe5780633f4ba83a1461031157600080fd5b806323b872dd116101ce57806323b872dd14610262578063248a9ca3146102755780632f2ff15d1461029957806330adf81f146102ae57600080fd5b806301ffc9a71461020057806306fdde0314610228578063095ea7b31461023d57806318160ddd14610250575b600080fd5b61021361020e366004611e93565b6104cf565b60405190151581526020015b60405180910390f35b6102306104fa565b60405161021f9190611ee9565b61021361024b366004611f33565b61058c565b6035545b60405190815260200161021f565b610213610270366004611f5d565b6105a4565b610254610283366004611f99565b6000908152610161602052604090206001015490565b6102ac6102a7366004611fb2565b6105c8565b005b6102547f6e71edae12b1b97f4d1f60370fef10105fa2faae0126114a169c64845d6126c981565b6101c75460405160ff909116815260200161021f565b6102ac6102f9366004611fb2565b6105f3565b61021361030c366004611f33565b610676565b6102ac610698565b610213610327366004611fde565b6106c9565b6102ac61033a366004611f33565b610715565b6102ac61034d366004611f99565b6107b4565b60655460ff16610213565b61025461036b366004611fde565b6001600160a01b031660009081526033602052604090205490565b6102ac610394366004611fde565b6107c1565b6102ac6103a7366004611f33565b610812565b6102546103ba366004611fde565b6101c66020526000908152604090205481565b6102ac610827565b6103e86103e3366004611ff9565b610856565b6040516001600160a01b03909116815260200161021f565b61021361040e366004611fb2565b610876565b6102306108a2565b6102ac6104293660046120a7565b6108b1565b610254600081565b610213610444366004611f33565b6109e4565b610213610457366004611f33565b610a5f565b61025461046a366004611f99565b610a6d565b6102547f9f2df0fed2c77648de5860a4cc508cd0818c85b8b8a1ab4ceeef8d981c8956a681565b6102ac6104a4366004611fb2565b610a85565b6102546104b736600461212d565b610aab565b6102ac6104ca366004612177565b610ad6565b60006001600160e01b03198216635a05180f60e01b14806104f457506104f482610c7a565b92915050565b60606036805461050990612204565b80601f016020809104026020016040519081016040528092919081815260200182805461053590612204565b80156105825780601f1061055757610100808354040283529160200191610582565b820191906000526020600020905b81548152906001019060200180831161056557829003601f168201915b5050505050905090565b60003361059a818585610caf565b5060019392505050565b6000336105b2858285610dd3565b6105bd858585610e4d565b506001949350505050565b600082815261016160205260409020600101546105e481611026565b6105ee8383611030565b505050565b6001600160a01b03811633146106685760405162461bcd60e51b815260206004820152602f60248201527f416363657373436f6e74726f6c3a2063616e206f6e6c792072656e6f756e636560448201526e103937b632b9903337b91039b2b63360891b60648201526084015b60405180910390fd5b6106728282611053565b5050565b60003361059a8185856106898383610aab565b6106939190612255565b610caf565b6106a3600033610876565b6106bf5760405162461bcd60e51b815260040161065f9061226d565b6106c7611076565b565b60006106d58133610876565b6106f15760405162461bcd60e51b815260040161065f9061226d565b506001600160a01b03811660009081526101c5602052604090205460ff165b919050565b61073f7f9f2df0fed2c77648de5860a4cc508cd0818c85b8b8a1ab4ceeef8d981c8956a633610876565b6107aa5760405162461bcd60e51b815260206004820152603660248201527f45524332305072657365744d696e7465725061757365723a206d7573742068616044820152751d99481b5a5b9d195c881c9bdb19481d1bc81b5a5b9d60521b606482015260840161065f565b61067282826110c8565b6107be33826111b3565b50565b6107cc600033610876565b6107e85760405162461bcd60e51b815260040161065f9061226d565b6001600160a01b031660009081526101c560205260409020805460ff19811660ff90911615179055565b61081d823383610dd3565b61067282826111b3565b610832600033610876565b61084e5760405162461bcd60e51b815260040161065f9061226d565b6106c761130d565b60008281526101936020526040812061086f908361134a565b9392505050565b6000918252610161602090815260408084206001600160a01b0393909316845291905290205460ff1690565b60606037805461050990612204565b6001600160a01b03851660009081526101c66020526040812080547f6e71edae12b1b97f4d1f60370fef10105fa2faae0126114a169c64845d6126c99188918891889190866108ff83612290565b909155506040805160208101969096526001600160a01b0394851690860152929091166060840152608083015260a082015260c0810184905260e001604051602081830303815290604052805190602001209050600061095e82611356565b9050600061096c82856113a4565b9050806001600160a01b0316886001600160a01b0316146109cf5760405162461bcd60e51b815260206004820152601960248201527f5065726d69743a20696e76616c6964207369676e617475726500000000000000604482015260640161065f565b6109da888888610caf565b5050505050505050565b600033816109f28286610aab565b905083811015610a525760405162461bcd60e51b815260206004820152602560248201527f45524332303a2064656372656173656420616c6c6f77616e63652062656c6f77604482015264207a65726f60d81b606482015260840161065f565b6105bd8286868403610caf565b60003361059a818585610e4d565b6000818152610193602052604081206104f4906113c8565b60008281526101616020526040902060010154610aa181611026565b6105ee8383611053565b6001600160a01b03918216600090815260346020908152604080832093909416825291909152205490565b600054610100900460ff1615808015610af65750600054600160ff909116105b80610b105750303b158015610b10575060005460ff166001145b610b735760405162461bcd60e51b815260206004820152602e60248201527f496e697469616c697a61626c653a20636f6e747261637420697320616c72656160448201526d191e481a5b9a5d1a585b1a5e995960921b606482015260840161065f565b6000805460ff191660011790558015610b96576000805461ff0019166101001790555b6101c7805460ff191660ff8516179055610bb085856113d2565b610bf86040518060400160405280600b81526020016a2832b936b4ba2a37b5b2b760a91b815250604051806040016040528060038152602001620312e360ec1b815250611403565b610c03600083611434565b610c2d7f9f2df0fed2c77648de5860a4cc508cd0818c85b8b8a1ab4ceeef8d981c8956a683611434565b8015610c73576000805461ff0019169055604051600181527f7f26b83ff96e1f2b6a682f133852f6798a09c465da95921460cefb38474024989060200160405180910390a15b5050505050565b60006001600160e01b03198216637965db0b60e01b14806104f457506301ffc9a760e01b6001600160e01b03198316146104f4565b6001600160a01b038316610d115760405162461bcd60e51b8152602060048201526024808201527f45524332303a20617070726f76652066726f6d20746865207a65726f206164646044820152637265737360e01b606482015260840161065f565b6001600160a01b038216610d725760405162461bcd60e51b815260206004820152602260248201527f45524332303a20617070726f766520746f20746865207a65726f206164647265604482015261737360f01b606482015260840161065f565b6001600160a01b0383811660008181526034602090815260408083209487168084529482529182902085905590518481527f8c5be1e5ebec7d5bd14f71427d1e84f3dd0314c0f7b2291e5b200ac8c7c3b925910160405180910390a3505050565b6000610ddf8484610aab565b90506000198114610e475781811015610e3a5760405162461bcd60e51b815260206004820152601d60248201527f45524332303a20696e73756666696369656e7420616c6c6f77616e6365000000604482015260640161065f565b610e478484848403610caf565b50505050565b6001600160a01b038316610eb15760405162461bcd60e51b815260206004820152602560248201527f45524332303a207472616e736665722066726f6d20746865207a65726f206164604482015264647265737360d81b606482015260840161065f565b6001600160a01b038216610f135760405162461bcd60e51b815260206004820152602360248201527f45524332303a207472616e7366657220746f20746865207a65726f206164647260448201526265737360e81b606482015260840161065f565b610f1e83838361143e565b6001600160a01b03831660009081526033602052604090205481811015610f965760405162461bcd60e51b815260206004820152602660248201527f45524332303a207472616e7366657220616d6f756e7420657863656564732062604482015265616c616e636560d01b606482015260840161065f565b6001600160a01b03808516600090815260336020526040808220858503905591851681529081208054849290610fcd908490612255565b92505081905550826001600160a01b0316846001600160a01b03167fddf252ad1be2c89b69c2b068fc378daa952ba7f163c4a11628f55a4df523b3ef8460405161101991815260200190565b60405180910390a3610e47565b6107be8133611483565b61103a82826114e7565b6000828152610193602052604090206105ee908261156e565b61105d8282611583565b6000828152610193602052604090206105ee90826115eb565b61107e611600565b6065805460ff191690557f5db9ee0a495bf2e6ff9c91a7834c1ba4fdd244a5e8aa4e537bd38aeae4b073aa335b6040516001600160a01b03909116815260200160405180910390a1565b6001600160a01b03821661111e5760405162461bcd60e51b815260206004820152601f60248201527f45524332303a206d696e7420746f20746865207a65726f206164647265737300604482015260640161065f565b61112a6000838361143e565b806035600082825461113c9190612255565b90915550506001600160a01b03821660009081526033602052604081208054839290611169908490612255565b90915550506040518181526001600160a01b038316906000907fddf252ad1be2c89b69c2b068fc378daa952ba7f163c4a11628f55a4df523b3ef9060200160405180910390a35050565b6001600160a01b0382166112135760405162461bcd60e51b815260206004820152602160248201527f45524332303a206275726e2066726f6d20746865207a65726f206164647265736044820152607360f81b606482015260840161065f565b61121f8260008361143e565b6001600160a01b038216600090815260336020526040902054818110156112935760405162461bcd60e51b815260206004820152602260248201527f45524332303a206275726e20616d6f756e7420657863656564732062616c616e604482015261636560f01b606482015260840161065f565b6001600160a01b03831660009081526033602052604081208383039055603580548492906112c29084906122ab565b90915550506040518281526000906001600160a01b038516907fddf252ad1be2c89b69c2b068fc378daa952ba7f163c4a11628f55a4df523b3ef9060200160405180910390a3505050565b611315611649565b6065805460ff191660011790557f62e78cea01bee320cd4e420270b5ea74000d11b0c9f74754ebdbfc544b05a2586110ab3390565b600061086f838361168f565b60006104f46113636116b9565b8360405161190160f01b6020820152602281018390526042810182905260009060620160405160208183030381529060405280519060200120905092915050565b60008060006113b38585611739565b915091506113c08161177f565b509392505050565b60006104f4825490565b600054610100900460ff166113f95760405162461bcd60e51b815260040161065f906122c2565b610672828261193a565b600054610100900460ff1661142a5760405162461bcd60e51b815260040161065f906122c2565b6106728282611988565b6106728282611030565b6001600160a01b03831660009081526101c5602052604090205460ff16156114785760405162461bcd60e51b815260040161065f9061226d565b6105ee8383836119c9565b61148d8282610876565b610672576114a5816001600160a01b03166014611a2f565b6114b0836020611a2f565b6040516020016114c192919061230d565b60408051601f198184030181529082905262461bcd60e51b825261065f91600401611ee9565b6114f18282610876565b610672576000828152610161602090815260408083206001600160a01b03851684529091529020805460ff1916600117905561152a3390565b6001600160a01b0316816001600160a01b0316837f2f8788117e7eff1d82e926ec794901d17c78024a50270940304540a733656f0d60405160405180910390a45050565b600061086f836001600160a01b038416611bcb565b61158d8282610876565b15610672576000828152610161602090815260408083206001600160a01b0385168085529252808320805460ff1916905551339285917ff6391f5c32d9c69d2a47ea670b442974b53935d1edc7fd64eb21e047a839171b9190a45050565b600061086f836001600160a01b038416611c1a565b60655460ff166106c75760405162461bcd60e51b815260206004820152601460248201527314185d5cd8589b194e881b9bdd081c185d5cd95960621b604482015260640161065f565b60655460ff16156106c75760405162461bcd60e51b815260206004820152601060248201526f14185d5cd8589b194e881c185d5cd95960821b604482015260640161065f565b60008260000182815481106116a6576116a6612382565b9060005260206000200154905092915050565b60006117347f8b73c3c69bb8fe3d512ecc4cf759cc79239f7b179b0ffacaa9a75d522b39400f6116e860fb5490565b60fc546040805160208101859052908101839052606081018290524660808201523060a082015260009060c0016040516020818303038152906040528051906020012090509392505050565b905090565b6000808251604114156117705760208301516040840151606085015160001a61176487828585611d0d565b94509450505050611778565b506000905060025b9250929050565b600081600481111561179357611793612398565b141561179c5750565b60018160048111156117b0576117b0612398565b14156117fe5760405162461bcd60e51b815260206004820152601860248201527f45434453413a20696e76616c6964207369676e61747572650000000000000000604482015260640161065f565b600281600481111561181257611812612398565b14156118605760405162461bcd60e51b815260206004820152601f60248201527f45434453413a20696e76616c6964207369676e6174757265206c656e67746800604482015260640161065f565b600381600481111561187457611874612398565b14156118cd5760405162461bcd60e51b815260206004820152602260248201527f45434453413a20696e76616c6964207369676e6174757265202773272076616c604482015261756560f01b606482015260840161065f565b60048160048111156118e1576118e1612398565b14156107be5760405162461bcd60e51b815260206004820152602260248201527f45434453413a20696e76616c6964207369676e6174757265202776272076616c604482015261756560f01b606482015260840161065f565b600054610100900460ff166119615760405162461bcd60e51b815260040161065f906122c2565b8151611974906036906020850190611dfa565b5080516105ee906037906020840190611dfa565b600054610100900460ff166119af5760405162461bcd60e51b815260040161065f906122c2565b81516020928301208151919092012060fb9190915560fc55565b60655460ff16156105ee5760405162461bcd60e51b815260206004820152602a60248201527f45524332305061757361626c653a20746f6b656e207472616e736665722077686044820152691a5b19481c185d5cd95960b21b606482015260840161065f565b60606000611a3e8360026123ae565b611a49906002612255565b67ffffffffffffffff811115611a6157611a6161201b565b6040519080825280601f01601f191660200182016040528015611a8b576020820181803683370190505b509050600360fc1b81600081518110611aa657611aa6612382565b60200101906001600160f81b031916908160001a905350600f60fb1b81600181518110611ad557611ad5612382565b60200101906001600160f81b031916908160001a9053506000611af98460026123ae565b611b04906001612255565b90505b6001811115611b7c576f181899199a1a9b1b9c1cb0b131b232b360811b85600f1660108110611b3857611b38612382565b1a60f81b828281518110611b4e57611b4e612382565b60200101906001600160f81b031916908160001a90535060049490941c93611b75816123cd565b9050611b07565b50831561086f5760405162461bcd60e51b815260206004820181905260248201527f537472696e67733a20686578206c656e67746820696e73756666696369656e74604482015260640161065f565b6000818152600183016020526040812054611c12575081546001818101845560008481526020808220909301849055845484825282860190935260409020919091556104f4565b5060006104f4565b60008181526001830160205260408120548015611d03576000611c3e6001836122ab565b8554909150600090611c52906001906122ab565b9050818114611cb7576000866000018281548110611c7257611c72612382565b9060005260206000200154905080876000018481548110611c9557611c95612382565b6000918252602080832090910192909255918252600188019052604090208390555b8554869080611cc857611cc86123e4565b6001900381819060005260206000200160009055905585600101600086815260200190815260200160002060009055600193505050506104f4565b60009150506104f4565b6000807f7fffffffffffffffffffffffffffffff5d576e7357a4501ddfe92f46681b20a0831115611d445750600090506003611df1565b8460ff16601b14158015611d5c57508460ff16601c14155b15611d6d5750600090506004611df1565b6040805160008082526020820180845289905260ff881692820192909252606081018690526080810185905260019060a0016020604051602081039080840390855afa158015611dc1573d6000803e3d6000fd5b5050604051601f1901519150506001600160a01b038116611dea57600060019250925050611df1565b9150600090505b94509492505050565b828054611e0690612204565b90600052602060002090601f016020900481019282611e285760008555611e6e565b82601f10611e4157805160ff1916838001178555611e6e565b82800160010185558215611e6e579182015b82811115611e6e578251825591602001919060010190611e53565b50611e7a929150611e7e565b5090565b5b80821115611e7a5760008155600101611e7f565b600060208284031215611ea557600080fd5b81356001600160e01b03198116811461086f57600080fd5b60005b83811015611ed8578181015183820152602001611ec0565b83811115610e475750506000910152565b6020815260008251806020840152611f08816040850160208701611ebd565b601f01601f19169190910160400192915050565b80356001600160a01b038116811461071057600080fd5b60008060408385031215611f4657600080fd5b611f4f83611f1c565b946020939093013593505050565b600080600060608486031215611f7257600080fd5b611f7b84611f1c565b9250611f8960208501611f1c565b9150604084013590509250925092565b600060208284031215611fab57600080fd5b5035919050565b60008060408385031215611fc557600080fd5b82359150611fd560208401611f1c565b90509250929050565b600060208284031215611ff057600080fd5b61086f82611f1c565b6000806040838503121561200c57600080fd5b50508035926020909101359150565b634e487b7160e01b600052604160045260246000fd5b600067ffffffffffffffff8084111561204c5761204c61201b565b604051601f8501601f19908116603f011681019082821181831017156120745761207461201b565b8160405280935085815286868601111561208d57600080fd5b858560208301376000602087830101525050509392505050565b600080600080600060a086880312156120bf57600080fd5b6120c886611f1c565b94506120d660208701611f1c565b93506040860135925060608601359150608086013567ffffffffffffffff81111561210057600080fd5b8601601f8101881361211157600080fd5b61212088823560208401612031565b9150509295509295909350565b6000806040838503121561214057600080fd5b61214983611f1c565b9150611fd560208401611f1c565b600082601f83011261216857600080fd5b61086f83833560208501612031565b6000806000806080858703121561218d57600080fd5b843567ffffffffffffffff808211156121a557600080fd5b6121b188838901612157565b955060208701359150808211156121c757600080fd5b506121d487828801612157565b935050604085013560ff811681146121eb57600080fd5b91506121f960608601611f1c565b905092959194509250565b600181811c9082168061221857607f821691505b6020821081141561223957634e487b7160e01b600052602260045260246000fd5b50919050565b634e487b7160e01b600052601160045260246000fd5b600082198211156122685761226861223f565b500190565b6020808252600990820152683337b93134b23232b760b91b604082015260600190565b60006000198214156122a4576122a461223f565b5060010190565b6000828210156122bd576122bd61223f565b500390565b6020808252602b908201527f496e697469616c697a61626c653a20636f6e7472616374206973206e6f74206960408201526a6e697469616c697a696e6760a81b606082015260800190565b7f416363657373436f6e74726f6c3a206163636f756e7420000000000000000000815260008351612345816017850160208801611ebd565b7001034b99036b4b9b9b4b733903937b6329607d1b6017918401918201528351612376816028840160208801611ebd565b01602801949350505050565b634e487b7160e01b600052603260045260246000fd5b634e487b7160e01b600052602160045260246000fd5b60008160001904831182151516156123c8576123c861223f565b500290565b6000816123dc576123dc61223f565b506000190190565b634e487b7160e01b600052603160045260246000fdfea2646970667358221220723133e600c4487e79de4ae765fd0926234cb1bd5accc17ff3fd6110e321542564736f6c634300080b0033",
  "immutableReferences": {},
  "source": "// SPDX-License-Identifier: MIT\npragma solidity 0.8.11;\n\nimport \"@openzeppelin/contracts-upgradeable/access/AccessControlEnumerableUpgradeable.sol\";\nimport \"@openzeppelin/contracts-upgradeable/token/ERC20/extensions/ERC20BurnableUpgradeable.sol\";\nimport \"@openzeppelin/contracts-upgradeable/token/ERC20/extensions/ERC20PausableUpgradeable.sol\";\nimport \"@openzeppelin/contracts-upgradeable/utils/cryptography/draft-EIP712Upgradeable.sol\";\n\ncontract ERC20MintablePauseableUpgradeable is\n    ERC20PausableUpgradeable,\n    ERC20BurnableUpgradeable,\n    EIP712Upgradeable,\n    AccessControlEnumerableUpgradeable\n{\n    bytes32 public constant MINTER_ROLE = keccak256(\"MINTER_ROLE\");\n    mapping(address => bool) private blackList;\n    // keccak256(\"Permit(address owner,address spender,uint256 value,uint256 nonce,uint256 deadline)\");\n    bytes32 public constant PERMIT_TYPEHASH =\n        0x6e71edae12b1b97f4d1f60370fef10105fa2faae0126114a169c64845d6126c9;\n    mapping(address => uint256) public nonces;\n    uint8 private _decimals;\n\n    function initialize(\n        string memory name,\n        string memory symbol,\n        uint8 decimals_,\n        address admin\n    ) public initializer {\n        _decimals = decimals_;\n        __ERC20_init(name, symbol);\n        __EIP712_init(\"PermitToken\", \"1.0\");\n        _setupRole(DEFAULT_ADMIN_ROLE, admin);\n        _setupRole(MINTER_ROLE, admin);\n    }\n\n    modifier onlyAdmin() {\n        require(hasRole(DEFAULT_ADMIN_ROLE, _msgSender()), \"forbidden\");\n        _;\n    }\n\n    function decimals() public view virtual override returns (uint8) {\n        return _decimals;\n    }\n\n    function _beforeTokenTransfer(\n        address from,\n        address to,\n        uint256 amount\n    ) internal override(ERC20Upgradeable, ERC20PausableUpgradeable) {\n        require(!blackList[from], \"forbidden\");\n        super._beforeTokenTransfer(from, to, amount);\n    }\n\n    function setBlackList(address account) public onlyAdmin {\n        blackList[account] = !blackList[account];\n    }\n\n    function getBlackList(address account)\n        public\n        view\n        onlyAdmin\n        returns (bool)\n    {\n        return blackList[account];\n    }\n\n    function mint(address to, uint256 amount) public virtual {\n        require(\n            hasRole(MINTER_ROLE, _msgSender()),\n            \"ERC20PresetMinterPauser: must have minter role to mint\"\n        );\n        _mint(to, amount);\n    }\n\n    function pause() public onlyAdmin {\n        _pause();\n    }\n\n    function unpause() public onlyAdmin {\n        _unpause();\n    }\n\n    function permit(\n        address owner,\n        address spender,\n        uint256 value,\n        uint256 deadline,\n        bytes memory signature\n    ) public {\n        // hash\n        bytes32 structHash = keccak256(\n            abi.encode(\n                PERMIT_TYPEHASH,\n                owner,\n                spender,\n                value,\n                nonces[owner]++,\n                deadline\n            )\n        );\n        // hash\n        bytes32 hash = _hashTypedDataV4(structHash);\n        // \n        address signer = ECDSAUpgradeable.recover(hash, signature);\n        require(owner == signer, \"Permit: invalid signature\");\n        _approve(owner, spender, value);\n    }\n}\n",
  "sourcePath": "/Users/cuimiandashi/Documents/GitHub/chainbridge-solidity-v2.0.0-eth/contracts/ERC20MintablePauseableUpgradeable.sol",
  "compiler": {
    "name": "solc",
    "version": "0.8.11+commit.d7f03943.Emscripten.clang"
  },
  "schemaVersion": "3.4.7",
  "updatedAt": "2022-09-22T14:27:40.273Z",
  "devdoc": {
    "kind": "dev",
    "methods": {
      "allowance(address,address)": {
        "details": "See {IERC20-allowance}."
      },
      "approve(address,uint256)": {
        "details": "See {IERC20-approve}. NOTE: If `amount` is the maximum `uint256`, the allowance is not updated on `transferFrom`. This is semantically equivalent to an infinite approval. Requirements: - `spender` cannot be the zero address."
      },
      "balanceOf(address)": {
        "details": "See {IERC20-balanceOf}."
      },
      "burn(uint256)": {
        "details": "Destroys `amount` tokens from the caller. See {ERC20-_burn}."
      },
      "burnFrom(address,uint256)": {
        "details": "Destroys `amount` tokens from `account`, deducting from the caller's allowance. See {ERC20-_burn} and {ERC20-allowance}. Requirements: - the caller must have allowance for ``accounts``'s tokens of at least `amount`."
      },
      "decimals()": {
        "details": "Returns the number of decimals used to get its user representation. For example, if `decimals` equals `2`, a balance of `505` tokens should be displayed to a user as `5.05` (`505 / 10 ** 2`). Tokens usually opt for a value of 18, imitating the relationship between Ether and Wei. This is the value {ERC20} uses, unless this function is overridden; NOTE: This information is only used for _display_ purposes: it in no way affects any of the arithmetic of the contract, including {IERC20-balanceOf} and {IERC20-transfer}."
      },
      "decreaseAllowance(address,uint256)": {
        "details": "Atomically decreases the allowance granted to `spender` by the caller. This is an alternative to {approve} that can be used as a mitigation for problems described in {IERC20-approve}. Emits an {Approval} event indicating the updated allowance. Requirements: - `spender` cannot be the zero address. - `spender` must have allowance for the caller of at least `subtractedValue`."
      },
      "getRoleAdmin(bytes32)": {
        "details": "Returns the admin role that controls `role`. See {grantRole} and {revokeRole}. To change a role's admin, use {_setRoleAdmin}."
      },
      "getRoleMember(bytes32,uint256)": {
        "details": "Returns one of the accounts that have `role`. `index` must be a value between 0 and {getRoleMemberCount}, non-inclusive. Role bearers are not sorted in any particular way, and their ordering may change at any point. WARNING: When using {getRoleMember} and {getRoleMemberCount}, make sure you perform all queries on the same block. See the following https://forum.openzeppelin.com/t/iterating-over-elements-on-enumerableset-in-openzeppelin-contracts/2296[forum post] for more information."
      },
      "getRoleMemberCount(bytes32)": {
        "details": "Returns the number of accounts that have `role`. Can be used together with {getRoleMember} to enumerate all bearers of a role."
      },
      "grantRole(bytes32,address)": {
        "details": "Grants `role` to `account`. If `account` had not been already granted `role`, emits a {RoleGranted} event. Requirements: - the caller must have ``role``'s admin role. May emit a {RoleGranted} event."
      },
      "hasRole(bytes32,address)": {
        "details": "Returns `true` if `account` has been granted `role`."
      },
      "increaseAllowance(address,uint256)": {
        "details": "Atomically increases the allowance granted to `spender` by the caller. This is an alternative to {approve} that can be used as a mitigation for problems described in {IERC20-approve}. Emits an {Approval} event indicating the updated allowance. Requirements: - `spender` cannot be the zero address."
      },
      "name()": {
        "details": "Returns the name of the token."
      },
      "paused()": {
        "details": "Returns true if the contract is paused, and false otherwise."
      },
      "renounceRole(bytes32,address)": {
        "details": "Revokes `role` from the calling account. Roles are often managed via {grantRole} and {revokeRole}: this function's purpose is to provide a mechanism for accounts to lose their privileges if they are compromised (such as when a trusted device is misplaced). If the calling account had been revoked `role`, emits a {RoleRevoked} event. Requirements: - the caller must be `account`. May emit a {RoleRevoked} event."
      },
      "revokeRole(bytes32,address)": {
        "details": "Revokes `role` from `account`. If `account` had been granted `role`, emits a {RoleRevoked} event. Requirements: - the caller must have ``role``'s admin role. May emit a {RoleRevoked} event."
      },
      "supportsInterface(bytes4)": {
        "details": "See {IERC165-supportsInterface}."
      },
      "symbol()": {
        "details": "Returns the symbol of the token, usually a shorter version of the name."
      },
      "totalSupply()": {
        "details": "See {IERC20-totalSupply}."
      },
      "transfer(address,uint256)": {
        "details": "See {IERC20-transfer}. Requirements: - `to` cannot be the zero address. - the caller must have a balance of at least `amount`."
      },
      "transferFrom(address,address,uint256)": {
        "details": "See {IERC20-transferFrom}. Emits an {Approval} event indicating the updated allowance. This is not required by the EIP. See the note at the beginning of {ERC20}. NOTE: Does not update the allowance if the current allowance is the maximum `uint256`. Requirements: - `from` and `to` cannot be the zero address. - `from` must have a balance of at least `amount`. - the caller must have allowance for ``from``'s tokens of at least `amount`."
      }
    },
    "version": 1
  },
  "userdoc": {
    "kind": "user",
    "methods": {},
    "version": 1
  }
}