{
  "contractName": "ERC20Safe",
  "abi": [
    {
      "inputs": [],
      "name": "ETHReserve",
      "outputs": [
        {
          "internalType": "uint256",
          "name": "",
          "type": "uint256"
        }
      ],
      "stateMutability": "view",
      "type": "function"
    }
  ],
  "bytecode": "0x6080604052348015600f57600080fd5b50607d8061001e6000396000f3fe6080604052348015600f57600080fd5b506004361060285760003560e01c8063ddafda4614602d575b600080fd5b603560005481565b60405190815260200160405180910390f3fea264697066735822122038ddd6e0510379389e12d2048402618569026778bf8ee9f5e8889920ccb7b7bc64736f6c634300080b0033",
  "immutableReferences": {},
  "source": "// SPDX-License-Identifier: LGPL-3.0-only\npragma solidity 0.8.11;\n\nimport \"@openzeppelin/contracts/utils/math/SafeMath.sol\";\nimport \"@openzeppelin/contracts/token/ERC20/IERC20.sol\";\nimport \"./interfaces/IWETH.sol\";\nimport \"./interfaces/IERCMintBurn.sol\";\n\n/**\n    @title Manages deposited ERC20s.\n    @author ChainSafe Systems.\n    @notice This contract is intended to be used with ERC20Handler contract.\n */\ncontract ERC20Safe {\n    using SafeMath for uint256;\n    uint256 public ETHReserve;\n\n    /**\n        @notice Used to gain custody of deposited token.\n        @param tokenAddress Address of ERC20 to transfer.\n        @param owner Address of current token owner.\n        @param recipient Address to transfer tokens to.\n        @param amount Amount of tokens to transfer.\n     */\n    function lockERC20(\n        address tokenAddress,\n        address owner,\n        address recipient,\n        uint256 amount\n    ) internal {\n        IERC20 erc20 = IERC20(tokenAddress);\n        _safeTransferFrom(erc20, owner, recipient, amount);\n    }\n\n    /**\n        @notice Transfers custody of token to recipient.\n        @param tokenAddress Address of ERC20 to transfer.\n        @param recipient Address to transfer tokens to.\n        @param amount Amount of tokens to transfer.\n     */\n    function releaseERC20(\n        address tokenAddress,\n        address recipient,\n        uint256 amount\n    ) internal {\n        IERC20 erc20 = IERC20(tokenAddress);\n        _safeTransfer(erc20, recipient, amount);\n    }\n\n    function depositETH(uint256 amount) internal {\n        require(amount == msg.value, \"msg.value and data mismatched\");\n        require(\n            address(this).balance >= ETHReserve + amount,\n            \"ETHReserve mismatched\"\n        );\n        ETHReserve = address(this).balance;\n    }\n\n    function withdrawETH(address recipient, uint256 amount) internal {\n        uint256 balanceBefore = address(this).balance;\n        _safeTransferETH(recipient, amount);\n        require(\n            address(this).balance == balanceBefore - amount,\n            \"ERC20: withdraw fail!\"\n        );\n    }\n\n    /**\n        @notice Used to create new ERC20s.\n        @param tokenAddress Address of ERC20 to transfer.\n        @param recipient Address to mint token to.\n        @param amount Amount of token to mint.\n     */\n    function mintERC20(\n        address tokenAddress,\n        address recipient,\n        uint256 amount\n    ) internal {\n        IERCMintBurn erc20 = IERCMintBurn(tokenAddress);\n        erc20.mint(recipient, amount);\n    }\n\n    /**\n        @notice Used to burn ERC20s.\n        @param tokenAddress Address of ERC20 to burn.\n        @param owner Current owner of tokens.\n        @param amount Amount of tokens to burn.\n     */\n    function burnERC20(\n        address tokenAddress,\n        address owner,\n        uint256 amount\n    ) internal {\n        IERCMintBurn erc20 = IERCMintBurn(tokenAddress);\n        erc20.burnFrom(owner, amount);\n    }\n\n    /**\n        @notice used to transfer ERC20s safely\n        @param token Token instance to transfer\n        @param to Address to transfer token to\n        @param value Amount of token to transfer\n     */\n    function _safeTransfer(\n        IERC20 token,\n        address to,\n        uint256 value\n    ) private {\n        _safeCall(\n            token,\n            abi.encodeWithSelector(token.transfer.selector, to, value)\n        );\n    }\n\n    function _safeTransferETH(address to, uint256 value) private {\n        (bool success, bytes memory returndata) = address(to).call{\n            value: value\n        }(\"\");\n        require(success, \"ERC20: call failed\");\n\n        if (returndata.length > 0) {\n            require(\n                abi.decode(returndata, (bool)),\n                \"ERC20: operation did not succeed\"\n            );\n        }\n    }\n\n    /**\n        @notice used to transfer ERC20s safely\n        @param token Token instance to transfer\n        @param from Address to transfer token from\n        @param to Address to transfer token to\n        @param value Amount of token to transfer\n     */\n    function _safeTransferFrom(\n        IERC20 token,\n        address from,\n        address to,\n        uint256 value\n    ) private {\n        _safeCall(\n            token,\n            abi.encodeWithSelector(token.transferFrom.selector, from, to, value)\n        );\n    }\n\n    /**\n        @notice used to make calls to ERC20s safely\n        @param token Token instance call targets\n        @param data encoded call data\n     */\n    function _safeCall(IERC20 token, bytes memory data) private {\n        uint256 tokenSize;\n        assembly {\n            tokenSize := extcodesize(token)\n        }\n        require(tokenSize > 0, \"ERC20: not a contract\");\n\n        (bool success, bytes memory returndata) = address(token).call(data);\n        require(success, \"ERC20: call failed\");\n\n        if (returndata.length > 0) {\n            require(\n                abi.decode(returndata, (bool)),\n                \"ERC20: operation did not succeed\"\n            );\n        }\n    }\n}\n",
  "sourcePath": "/Users/cuimiandashi/Documents/GitHub/chainbridge-solidity-v2.0.0-eth/contracts/ERC20Safe.sol",
  "compiler": {
    "name": "solc",
    "version": "0.8.11+commit.d7f03943.Emscripten.clang"
  },
  "schemaVersion": "3.4.7",
  "updatedAt": "2022-06-05T16:30:50.801Z",
  "devdoc": {
    "author": "ChainSafe Systems.",
    "kind": "dev",
    "methods": {},
    "title": "Manages deposited ERC20s.",
    "version": 1
  },
  "userdoc": {
    "kind": "user",
    "methods": {},
    "notice": "This contract is intended to be used with ERC20Handler contract.",
    "version": 1
  }
}