{
  "contractName": "ERC20Handler",
  "abi": [
    {
      "inputs": [
        {
          "internalType": "address",
          "name": "bridgeAddress",
          "type": "address"
        }
      ],
      "stateMutability": "nonpayable",
      "type": "constructor"
    },
    {
      "inputs": [],
      "name": "ProvidedTokenAddressIsNotWhitelisted",
      "type": "error"
    },
    {
      "inputs": [],
      "name": "ETHReserve",
      "outputs": [
        {
          "internalType": "uint256",
          "name": "",
          "type": "uint256"
        }
      ],
      "stateMutability": "view",
      "type": "function"
    },
    {
      "inputs": [],
      "name": "_bridgeAddress",
      "outputs": [
        {
          "internalType": "address",
          "name": "",
          "type": "address"
        }
      ],
      "stateMutability": "view",
      "type": "function"
    },
    {
      "inputs": [
        {
          "internalType": "address",
          "name": "",
          "type": "address"
        }
      ],
      "name": "_burnList",
      "outputs": [
        {
          "internalType": "bool",
          "name": "",
          "type": "bool"
        }
      ],
      "stateMutability": "view",
      "type": "function"
    },
    {
      "inputs": [
        {
          "internalType": "address",
          "name": "",
          "type": "address"
        }
      ],
      "name": "_contractWhitelist",
      "outputs": [
        {
          "internalType": "bool",
          "name": "",
          "type": "bool"
        }
      ],
      "stateMutability": "view",
      "type": "function"
    },
    {
      "inputs": [
        {
          "internalType": "bytes32",
          "name": "",
          "type": "bytes32"
        }
      ],
      "name": "_resourceIDToTokenContractAddress",
      "outputs": [
        {
          "internalType": "address",
          "name": "",
          "type": "address"
        }
      ],
      "stateMutability": "view",
      "type": "function"
    },
    {
      "inputs": [
        {
          "internalType": "address",
          "name": "",
          "type": "address"
        }
      ],
      "name": "_tokenContractAddressToResourceID",
      "outputs": [
        {
          "internalType": "bytes32",
          "name": "",
          "type": "bytes32"
        }
      ],
      "stateMutability": "view",
      "type": "function"
    },
    {
      "inputs": [
        {
          "internalType": "address",
          "name": "",
          "type": "address"
        }
      ],
      "name": "isWtoken",
      "outputs": [
        {
          "internalType": "bool",
          "name": "",
          "type": "bool"
        }
      ],
      "stateMutability": "view",
      "type": "function"
    },
    {
      "inputs": [
        {
          "internalType": "address",
          "name": "contractAddress",
          "type": "address"
        }
      ],
      "name": "setBurnable",
      "outputs": [],
      "stateMutability": "nonpayable",
      "type": "function"
    },
    {
      "inputs": [
        {
          "internalType": "bytes32",
          "name": "resourceID",
          "type": "bytes32"
        },
        {
          "internalType": "address",
          "name": "contractAddress",
          "type": "address"
        }
      ],
      "name": "setResource",
      "outputs": [],
      "stateMutability": "nonpayable",
      "type": "function"
    },
    {
      "inputs": [
        {
          "internalType": "address",
          "name": "wtokenAddress",
          "type": "address"
        },
        {
          "internalType": "bool",
          "name": "_isWtoken",
          "type": "bool"
        }
      ],
      "name": "setWtoken",
      "outputs": [],
      "stateMutability": "nonpayable",
      "type": "function"
    },
    {
      "inputs": [
        {
          "internalType": "bytes32",
          "name": "resourceID",
          "type": "bytes32"
        },
        {
          "internalType": "address",
          "name": "depositer",
          "type": "address"
        },
        {
          "internalType": "bytes",
          "name": "data",
          "type": "bytes"
        }
      ],
      "name": "deposit",
      "outputs": [
        {
          "internalType": "bytes",
          "name": "",
          "type": "bytes"
        }
      ],
      "stateMutability": "payable",
      "type": "function"
    },
    {
      "inputs": [
        {
          "internalType": "bytes32",
          "name": "resourceID",
          "type": "bytes32"
        },
        {
          "internalType": "bytes",
          "name": "data",
          "type": "bytes"
        }
      ],
      "name": "executeProposal",
      "outputs": [],
      "stateMutability": "nonpayable",
      "type": "function"
    },
    {
      "inputs": [
        {
          "internalType": "bytes",
          "name": "data",
          "type": "bytes"
        }
      ],
      "name": "withdraw",
      "outputs": [],
      "stateMutability": "nonpayable",
      "type": "function"
    },
    {
      "inputs": [
        {
          "internalType": "bytes",
          "name": "data",
          "type": "bytes"
        }
      ],
      "name": "withdrawETH",
      "outputs": [],
      "stateMutability": "nonpayable",
      "type": "function"
    }
  ],
  "bytecode": "0x60a060405234801561001057600080fd5b5060405161113a38038061113a83398101604081905261002f91610040565b6001600160a01b0316608052610070565b60006020828403121561005257600080fd5b81516001600160a01b038116811461006957600080fd5b9392505050565b6080516110a8610092600039600081816101e901526106ad01526110a86000f3fe6080604052600436106100dd5760003560e01c80637f79bea81161007f578063b8fa373611610059578063b8fa3736146102ab578063c8ba6c87146102cb578063ddafda4614610306578063e248cff21461031c57600080fd5b80637f79bea81461023b578063ab5c7bf11461026b578063b07e54bb1461028b57600080fd5b80630a6d55d8116100bb5780630a6d55d8146101695780632129da19146101b7578063318c136e146101d75780636a70d0811461020b57600080fd5b8063045dff97146100e257806307b7ed99146101275780630968f26414610149575b600080fd5b3480156100ee57600080fd5b506101126100fd366004610c77565b60046020526000908152604090205460ff1681565b60405190151581526020015b60405180910390f35b34801561013357600080fd5b50610147610142366004610c77565b61033c565b005b34801561015557600080fd5b50610147610164366004610cb1565b610350565b34801561017557600080fd5b5061019f610184366004610d62565b6000602081905290815260409020546001600160a01b031681565b6040516001600160a01b03909116815260200161011e565b3480156101c357600080fd5b506101476101d2366004610d89565b610389565b3480156101e357600080fd5b5061019f7f000000000000000000000000000000000000000000000000000000000000000081565b34801561021757600080fd5b50610112610226366004610c77565b60036020526000908152604090205460ff1681565b34801561024757600080fd5b50610112610256366004610c77565b60026020526000908152604090205460ff1681565b34801561027757600080fd5b50610147610286366004610cb1565b6103bc565b61029e610299366004610e0b565b6103ef565b60405161011e9190610e93565b3480156102b757600080fd5b506101476102c6366004610ec6565b6104d1565b3480156102d757600080fd5b506102f86102e6366004610c77565b60016020526000908152604090205481565b60405190815260200161011e565b34801561031257600080fd5b506102f860055481565b34801561032857600080fd5b50610147610337366004610eeb565b610526565b6103446106a2565b61034d8161071c565b50565b6103586106a2565b6000806000838060200190518101906103719190610f37565b919450925090506103838383836107b4565b50505050565b6103916106a2565b6001600160a01b03919091166000908152600460205260409020805460ff1916911515919091179055565b6103c46106a2565b600080828060200190518101906103db9190610f7a565b90925090506103ea82826107c0565b505050565b60606103f96106a2565b600061040783850185610d62565b600087815260208181526040808320546001600160a01b03168084526002909252909120549192509060ff1661045057604051631556d7e160e11b815260040160405180910390fd5b6001600160a01b03811660009081526003602052604090205460ff16156104815761047c81878461081b565b6104b7565b6001600160a01b03811660009081526004602052604090205460ff16156104ab5761047c8261087d565b6104b781873085610928565b505060408051600081526020810190915295945050505050565b6104d96106a2565b60008281526020818152604080832080546001600160a01b0319166001600160a01b039590951694851790559282526001808252838320949094556002905220805460ff19169091179055565b61052e6106a2565b600080606061053f84860186610fa8565b9093509150846040856105528583610fe0565b9261055f93929190610ff8565b8080601f01602080910402602001604051908101604052809392919081815260200183838082843760009201829052508a81526020818152604080832054828801516001600160a01b039091168085526002909352922054959650909490935060ff16915061062890505760405162461bcd60e51b815260206004820152602860248201527f70726f766964656420746f6b656e41646472657373206973206e6f74207768696044820152671d195b1a5cdd195960c21b60648201526084015b60405180910390fd5b6001600160a01b03811660009081526003602052604090205460ff161561065c57610657818360601c8761093c565b610698565b6001600160a01b03811660009081526004602052604090205460ff161561068a576106578260601c866107c0565b610698818360601c876107b4565b5050505050505050565b336001600160a01b037f0000000000000000000000000000000000000000000000000000000000000000161461071a5760405162461bcd60e51b815260206004820152601e60248201527f73656e646572206d7573742062652062726964676520636f6e74726163740000604482015260640161061f565b565b6001600160a01b03811660009081526002602052604090205460ff166107905760405162461bcd60e51b8152602060048201526024808201527f70726f766964656420636f6e7472616374206973206e6f742077686974656c696044820152631cdd195960e21b606482015260840161061f565b6001600160a01b03166000908152600360205260409020805460ff19166001179055565b82610383818484610974565b476107cb83836109d7565b6107d58282611022565b47146103ea5760405162461bcd60e51b815260206004820152601560248201527445524332303a207769746864726177206661696c2160581b604482015260640161061f565b60405163079cc67960e41b81526001600160a01b038381166004830152602482018390528491908216906379cc6790906044015b600060405180830381600087803b15801561086957600080fd5b505af1158015610698573d6000803e3d6000fd5b3481146108cc5760405162461bcd60e51b815260206004820152601d60248201527f6d73672e76616c756520616e642064617461206d69736d617463686564000000604482015260640161061f565b806005546108da9190610fe0565b4710156109215760405162461bcd60e51b815260206004820152601560248201527411551214995cd95c9d99481b5a5cdb585d18da1959605a1b604482015260640161061f565b5047600555565b8361093581858585610ad8565b5050505050565b6040516340c10f1960e01b81526001600160a01b038381166004830152602482018390528491908216906340c10f199060440161084f565b6040516001600160a01b0383166024820152604481018290526103ea90849063a9059cbb60e01b906064015b60408051601f198184030181529190526020810180516001600160e01b03166001600160e01b031990931692909217909152610b10565b600080836001600160a01b03168360405160006040518083038185875af1925050503d8060008114610a25576040519150601f19603f3d011682016040523d82523d6000602084013e610a2a565b606091505b509150915081610a715760405162461bcd60e51b8152602060048201526012602482015271115490cc8c0e8818d85b1b0819985a5b195960721b604482015260640161061f565b8051156103835780806020019051810190610a8c9190611039565b6103835760405162461bcd60e51b815260206004820181905260248201527f45524332303a206f7065726174696f6e20646964206e6f742073756363656564604482015260640161061f565b6040516001600160a01b03808516602483015283166044820152606481018290526103839085906323b872dd60e01b906084016109a0565b813b80610b575760405162461bcd60e51b8152602060048201526015602482015274115490cc8c0e881b9bdd08184818dbdb9d1c9858dd605a1b604482015260640161061f565b600080846001600160a01b031684604051610b729190611056565b6000604051808303816000865af19150503d8060008114610baf576040519150601f19603f3d011682016040523d82523d6000602084013e610bb4565b606091505b509150915081610bfb5760405162461bcd60e51b8152602060048201526012602482015271115490cc8c0e8818d85b1b0819985a5b195960721b604482015260640161061f565b8051156109355780806020019051810190610c169190611039565b6109355760405162461bcd60e51b815260206004820181905260248201527f45524332303a206f7065726174696f6e20646964206e6f742073756363656564604482015260640161061f565b6001600160a01b038116811461034d57600080fd5b600060208284031215610c8957600080fd5b8135610c9481610c62565b9392505050565b634e487b7160e01b600052604160045260246000fd5b600060208284031215610cc357600080fd5b813567ffffffffffffffff80821115610cdb57600080fd5b818401915084601f830112610cef57600080fd5b813581811115610d0157610d01610c9b565b604051601f8201601f19908116603f01168101908382118183101715610d2957610d29610c9b565b81604052828152876020848701011115610d4257600080fd5b826020860160208301376000928101602001929092525095945050505050565b600060208284031215610d7457600080fd5b5035919050565b801515811461034d57600080fd5b60008060408385031215610d9c57600080fd5b8235610da781610c62565b91506020830135610db781610d7b565b809150509250929050565b60008083601f840112610dd457600080fd5b50813567ffffffffffffffff811115610dec57600080fd5b602083019150836020828501011115610e0457600080fd5b9250929050565b60008060008060608587031215610e2157600080fd5b843593506020850135610e3381610c62565b9250604085013567ffffffffffffffff811115610e4f57600080fd5b610e5b87828801610dc2565b95989497509550505050565b60005b83811015610e82578181015183820152602001610e6a565b838111156103835750506000910152565b6020815260008251806020840152610eb2816040850160208701610e67565b601f01601f19169190910160400192915050565b60008060408385031215610ed957600080fd5b823591506020830135610db781610c62565b600080600060408486031215610f0057600080fd5b83359250602084013567ffffffffffffffff811115610f1e57600080fd5b610f2a86828701610dc2565b9497909650939450505050565b600080600060608486031215610f4c57600080fd5b8351610f5781610c62565b6020850151909350610f6881610c62565b80925050604084015190509250925092565b60008060408385031215610f8d57600080fd5b8251610f9881610c62565b6020939093015192949293505050565b60008060408385031215610fbb57600080fd5b50508035926020909101359150565b634e487b7160e01b600052601160045260246000fd5b60008219821115610ff357610ff3610fca565b500190565b6000808585111561100857600080fd5b8386111561101557600080fd5b5050820193919092039150565b60008282101561103457611034610fca565b500390565b60006020828403121561104b57600080fd5b8151610c9481610d7b565b60008251611068818460208701610e67565b919091019291505056fea2646970667358221220086f3258d7576263989650750c8ca5c526180d2de7fd1600278e21d16f1738a464736f6c634300080b0033",
  "immutableReferences": {
    "10503": [
      {
        "length": 32,
        "start": 489
      },
      {
        "length": 32,
        "start": 1709
      }
    ]
  },
  "source": "// SPDX-License-Identifier: LGPL-3.0-only\npragma solidity 0.8.11;\npragma experimental ABIEncoderV2;\n\nimport \"../interfaces/IDepositExecute.sol\";\nimport \"../interfaces/IWETH.sol\";\nimport \"./HandlerHelpers.sol\";\nimport \"../ERC20Safe.sol\";\n\n/**\n    @title Handles ERC20 deposits and deposit executions.\n    @author ChainSafe Systems.\n    @notice This contract is intended to be used with the Bridge contract.\n */\ncontract ERC20Handler is IDepositExecute, HandlerHelpers, ERC20Safe {\n    /**\n        @param bridgeAddress Contract address of previously deployed Bridge.\n     */\n    constructor(address bridgeAddress) HandlerHelpers(bridgeAddress) {}\n\n    error ProvidedTokenAddressIsNotWhitelisted();\n\n    /**\n        @notice A deposit is initiatied by making a deposit in the Bridge contract.\n        @param resourceID ResourceID used to find address of token to be used for deposit.\n        @param depositer Address of account making the deposit in the Bridge contract.\n        @param data Consists of {amount} padded to 32 bytes.\n        @notice Data passed into the function should be constructed as follows:\n        amount                      uint256     bytes   0 - 32\n        @dev Depending if the corresponding {tokenAddress} for the parsed {resourceID} is\n        marked true in {_burnList}, deposited tokens will be burned, if not, they will be locked.\n        @return an empty data.\n     */\n    function deposit(\n        bytes32 resourceID,\n        address depositer,\n        bytes calldata data\n    ) external payable override onlyBridge returns (bytes memory) {\n        uint256 amount;\n        (amount) = abi.decode(data, (uint256));\n\n        address tokenAddress = _resourceIDToTokenContractAddress[resourceID];\n        if (!_contractWhitelist[tokenAddress]) {\n            revert ProvidedTokenAddressIsNotWhitelisted();\n        }\n\n        if (_burnList[tokenAddress]) {\n            burnERC20(tokenAddress, depositer, amount);\n        } else if (isWtoken[tokenAddress]) {\n            depositETH(amount);\n        } else {\n            lockERC20(tokenAddress, depositer, address(this), amount);\n        }\n        return new bytes(0);\n    }\n\n    /**\n        @notice Proposal execution should be initiated when a proposal is finalized in the Bridge contract.\n        by a relayer on the deposit's destination chain.\n        @param data Consists of {resourceID}, {amount}, {lenDestinationRecipientAddress},\n        and {destinationRecipientAddress} all padded to 32 bytes.\n        @notice Data passed into the function should be constructed as follows:\n        amount                                 uint256     bytes  0 - 32\n        destinationRecipientAddress length     uint256     bytes  32 - 64\n        destinationRecipientAddress            bytes       bytes  64 - END\n     */\n    function executeProposal(bytes32 resourceID, bytes calldata data)\n        external\n        override\n        onlyBridge\n    {\n        uint256 amount;\n        uint256 lenDestinationRecipientAddress;\n        bytes memory destinationRecipientAddress;\n\n        (amount, lenDestinationRecipientAddress) = abi.decode(\n            data,\n            (uint256, uint256)\n        );\n        destinationRecipientAddress = bytes(\n            data[64:64 + lenDestinationRecipientAddress]\n        );\n\n        bytes20 recipientAddress;\n        address tokenAddress = _resourceIDToTokenContractAddress[resourceID];\n\n        assembly {\n            recipientAddress := mload(add(destinationRecipientAddress, 0x20))\n        }\n\n        require(\n            _contractWhitelist[tokenAddress],\n            \"provided tokenAddress is not whitelisted\"\n        );\n\n        if (_burnList[tokenAddress]) {\n            mintERC20(tokenAddress, address(recipientAddress), amount);\n        } else if (isWtoken[tokenAddress]) {\n            withdrawETH(address(recipientAddress), amount);\n        } else {\n            releaseERC20(tokenAddress, address(recipientAddress), amount);\n        }\n    }\n\n    /**\n        @notice Used to manually release ERC20 tokens from ERC20Safe.\n        @param data Consists of {tokenAddress}, {recipient}, and {amount} all padded to 32 bytes.\n        @notice Data passed into the function should be constructed as follows:\n        tokenAddress                           address     bytes  0 - 32\n        recipient                              address     bytes  32 - 64\n        amount                                 uint        bytes  64 - 96\n     */\n    function withdraw(bytes memory data) external override onlyBridge {\n        address tokenAddress;\n        address recipient;\n        uint256 amount;\n\n        (tokenAddress, recipient, amount) = abi.decode(\n            data,\n            (address, address, uint256)\n        );\n\n        releaseERC20(tokenAddress, recipient, amount);\n    }\n\n    /**\n        @notice Used to manually release ETH ERC20Safe.\n        @param data Consists of {recipient}, and {amount} all padded to 32 bytes.\n        @notice Data passed into the function should be constructed as follows:\n        recipient                           address     bytes  0 - 32\n        amount                                 uint     bytes  32 - 64\n     */\n    function withdrawETH(bytes memory data) external override onlyBridge {\n        address recipient;\n        uint256 amount;\n\n        (recipient, amount) = abi.decode(data, (address, uint256));\n\n        withdrawETH(recipient, amount);\n    }\n}\n",
  "sourcePath": "/Users/cuimiandashi/Documents/GitHub/chainbridge-solidity-v2.0.0-eth/contracts/handlers/ERC20Handler.sol",
  "compiler": {
    "name": "solc",
    "version": "0.8.11+commit.d7f03943.Emscripten.clang"
  },
  "schemaVersion": "3.4.7",
  "updatedAt": "2022-06-05T16:30:50.846Z",
  "devdoc": {
    "author": "ChainSafe Systems.",
    "kind": "dev",
    "methods": {
      "constructor": {
        "params": {
          "bridgeAddress": "Contract address of previously deployed Bridge."
        }
      },
      "deposit(bytes32,address,bytes)": {
        "details": "Depending if the corresponding {tokenAddress} for the parsed {resourceID} is marked true in {_burnList}, deposited tokens will be burned, if not, they will be locked.",
        "params": {
          "data": "Consists of {amount} padded to 32 bytes.",
          "depositer": "Address of account making the deposit in the Bridge contract.",
          "resourceID": "ResourceID used to find address of token to be used for deposit."
        },
        "returns": {
          "_0": "an empty data."
        }
      },
      "executeProposal(bytes32,bytes)": {
        "params": {
          "data": "Consists of {resourceID}, {amount}, {lenDestinationRecipientAddress}, and {destinationRecipientAddress} all padded to 32 bytes."
        }
      },
      "setBurnable(address)": {
        "params": {
          "contractAddress": "Address of contract to be used when making or executing deposits."
        }
      },
      "setResource(bytes32,address)": {
        "params": {
          "contractAddress": "Address of contract to be called when a deposit is made and a deposited is executed.",
          "resourceID": "ResourceID to be used when making deposits."
        }
      },
      "withdraw(bytes)": {
        "params": {
          "data": "Consists of {tokenAddress}, {recipient}, and {amount} all padded to 32 bytes."
        }
      },
      "withdrawETH(bytes)": {
        "params": {
          "data": "Consists of {recipient}, and {amount} all padded to 32 bytes."
        }
      }
    },
    "title": "Handles ERC20 deposits and deposit executions.",
    "version": 1
  },
  "userdoc": {
    "kind": "user",
    "methods": {
      "_resourceIDToTokenContractAddress(bytes32)": {
        "notice": "Exposing getter for {_resourceIDToTokenContractAddress}."
      },
      "deposit(bytes32,address,bytes)": {
        "notice": "A deposit is initiatied by making a deposit in the Bridge contract.Data passed into the function should be constructed as follows: amount                      uint256     bytes   0 - 32"
      },
      "executeProposal(bytes32,bytes)": {
        "notice": "Proposal execution should be initiated when a proposal is finalized in the Bridge contract. by a relayer on the deposit's destination chain.Data passed into the function should be constructed as follows: amount                                 uint256     bytes  0 - 32 destinationRecipientAddress length     uint256     bytes  32 - 64 destinationRecipientAddress            bytes       bytes  64 - END"
      },
      "setBurnable(address)": {
        "notice": "First verifies {contractAddress} is whitelisted, then sets {_burnList}[{contractAddress}] to true."
      },
      "setResource(bytes32,address)": {
        "notice": "First verifies {_resourceIDToContractAddress}[{resourceID}] and {_contractAddressToResourceID}[{contractAddress}] are not already set, then sets {_resourceIDToContractAddress} with {contractAddress}, {_contractAddressToResourceID} with {resourceID}, and {_contractWhitelist} to true for {contractAddress}."
      },
      "withdraw(bytes)": {
        "notice": "Used to manually release ERC20 tokens from ERC20Safe.Data passed into the function should be constructed as follows: tokenAddress                           address     bytes  0 - 32 recipient                              address     bytes  32 - 64 amount                                 uint        bytes  64 - 96"
      },
      "withdrawETH(bytes)": {
        "notice": "Used to manually release ETH ERC20Safe.Data passed into the function should be constructed as follows: recipient                           address     bytes  0 - 32 amount                                 uint     bytes  32 - 64"
      }
    },
    "notice": "This contract is intended to be used with the Bridge contract.",
    "version": 1
  }
}