{
  "contractName": "ERC721HandlerUpgradeable",
  "abi": [
    {
      "anonymous": false,
      "inputs": [
        {
          "indexed": false,
          "internalType": "uint8",
          "name": "version",
          "type": "uint8"
        }
      ],
      "name": "Initialized",
      "type": "event"
    },
    {
      "inputs": [],
      "name": "_bridgeAddress",
      "outputs": [
        {
          "internalType": "address",
          "name": "",
          "type": "address"
        }
      ],
      "stateMutability": "view",
      "type": "function"
    },
    {
      "inputs": [
        {
          "internalType": "address",
          "name": "",
          "type": "address"
        }
      ],
      "name": "_burnList",
      "outputs": [
        {
          "internalType": "bool",
          "name": "",
          "type": "bool"
        }
      ],
      "stateMutability": "view",
      "type": "function"
    },
    {
      "inputs": [
        {
          "internalType": "address",
          "name": "",
          "type": "address"
        }
      ],
      "name": "_contractWhitelist",
      "outputs": [
        {
          "internalType": "bool",
          "name": "",
          "type": "bool"
        }
      ],
      "stateMutability": "view",
      "type": "function"
    },
    {
      "inputs": [
        {
          "internalType": "bytes32",
          "name": "",
          "type": "bytes32"
        }
      ],
      "name": "_resourceIDToTokenContractAddress",
      "outputs": [
        {
          "internalType": "address",
          "name": "",
          "type": "address"
        }
      ],
      "stateMutability": "view",
      "type": "function"
    },
    {
      "inputs": [
        {
          "internalType": "address",
          "name": "",
          "type": "address"
        }
      ],
      "name": "_tokenContractAddressToResourceID",
      "outputs": [
        {
          "internalType": "bytes32",
          "name": "",
          "type": "bytes32"
        }
      ],
      "stateMutability": "view",
      "type": "function"
    },
    {
      "inputs": [
        {
          "internalType": "address",
          "name": "",
          "type": "address"
        }
      ],
      "name": "isNative",
      "outputs": [
        {
          "internalType": "bool",
          "name": "",
          "type": "bool"
        }
      ],
      "stateMutability": "view",
      "type": "function"
    },
    {
      "inputs": [
        {
          "internalType": "bytes32",
          "name": "resourceID",
          "type": "bytes32"
        },
        {
          "internalType": "address",
          "name": "contractAddress",
          "type": "address"
        }
      ],
      "name": "removeResource",
      "outputs": [],
      "stateMutability": "nonpayable",
      "type": "function"
    },
    {
      "inputs": [
        {
          "internalType": "address",
          "name": "contractAddress",
          "type": "address"
        }
      ],
      "name": "setBurnable",
      "outputs": [],
      "stateMutability": "nonpayable",
      "type": "function"
    },
    {
      "inputs": [
        {
          "internalType": "address",
          "name": "nativeAddress",
          "type": "address"
        },
        {
          "internalType": "bool",
          "name": "_isNative",
          "type": "bool"
        }
      ],
      "name": "setNative",
      "outputs": [],
      "stateMutability": "nonpayable",
      "type": "function"
    },
    {
      "inputs": [
        {
          "internalType": "bytes32",
          "name": "resourceID",
          "type": "bytes32"
        },
        {
          "internalType": "address",
          "name": "contractAddress",
          "type": "address"
        }
      ],
      "name": "setResource",
      "outputs": [],
      "stateMutability": "nonpayable",
      "type": "function"
    },
    {
      "inputs": [
        {
          "internalType": "bytes",
          "name": "data",
          "type": "bytes"
        }
      ],
      "name": "withdrawETH",
      "outputs": [],
      "stateMutability": "nonpayable",
      "type": "function"
    },
    {
      "inputs": [
        {
          "internalType": "address",
          "name": "bridgeAddress",
          "type": "address"
        }
      ],
      "name": "initialize",
      "outputs": [],
      "stateMutability": "nonpayable",
      "type": "function"
    },
    {
      "inputs": [
        {
          "internalType": "bytes32",
          "name": "resourceID",
          "type": "bytes32"
        },
        {
          "internalType": "address",
          "name": "depositor",
          "type": "address"
        },
        {
          "internalType": "bytes",
          "name": "data",
          "type": "bytes"
        }
      ],
      "name": "deposit",
      "outputs": [
        {
          "internalType": "bytes",
          "name": "metaData",
          "type": "bytes"
        }
      ],
      "stateMutability": "payable",
      "type": "function"
    },
    {
      "inputs": [
        {
          "internalType": "bytes32",
          "name": "resourceID",
          "type": "bytes32"
        },
        {
          "internalType": "bytes",
          "name": "data",
          "type": "bytes"
        }
      ],
      "name": "executeProposal",
      "outputs": [],
      "stateMutability": "nonpayable",
      "type": "function"
    },
    {
      "inputs": [
        {
          "internalType": "bytes",
          "name": "data",
          "type": "bytes"
        }
      ],
      "name": "withdraw",
      "outputs": [],
      "stateMutability": "nonpayable",
      "type": "function"
    }
  ],
  "bytecode": "0x608060405234801561001057600080fd5b50611219806100206000396000f3fe6080604052600436106100e85760003560e01c8063a98157511161008a578063b8fa373611610059578063b8fa3736146102c6578063c4d66de8146102e6578063c8ba6c8714610306578063e248cff21461034157600080fd5b8063a981575114610238578063ab5c7bf114610258578063b07e54bb14610276578063b2b8b5dd1461029657600080fd5b8063318c136e116100c6578063318c136e146101825780636a70d081146101a8578063789d7711146101e85780637f79bea81461020857600080fd5b806307b7ed99146100ed5780630968f2641461010f5780630a6d55d81461012f575b600080fd5b3480156100f957600080fd5b5061010d610108366004610cf9565b610361565b005b34801561011b57600080fd5b5061010d61012a366004610d85565b610372565b34801561013b57600080fd5b5061016561014a366004610e05565b6001602052600090815260409020546001600160a01b031681565b6040516001600160a01b0390911681526020015b60405180910390f35b34801561018e57600080fd5b50600054610165906201000090046001600160a01b031681565b3480156101b457600080fd5b506101d86101c3366004610cf9565b60046020526000908152604090205460ff1681565b6040519015158152602001610179565b3480156101f457600080fd5b5061010d610203366004610e1e565b6103ac565b34801561021457600080fd5b506101d8610223366004610cf9565b60036020526000908152604090205460ff1681565b34801561024457600080fd5b5061010d610253366004610e5c565b6103df565b34801561026457600080fd5b5061010d610273366004610d85565b50565b610289610284366004610eca565b610432565b6040516101799190610f7e565b3480156102a257600080fd5b506101d86102b1366004610cf9565b60056020526000908152604090205460ff1681565b3480156102d257600080fd5b5061010d6102e1366004610e5c565b6105b1565b3480156102f257600080fd5b5061010d610301366004610cf9565b610609565b34801561031257600080fd5b50610333610321366004610cf9565b60026020526000908152604090205481565b604051908152602001610179565b34801561034d57600080fd5b5061010d61035c366004610f91565b6106d5565b61036961086a565b610273816108cc565b61037a61086a565b6000806000838060200190518101906103939190610fdd565b919450925090506103a683308484610964565b50505050565b6103b461086a565b6001600160a01b03919091166000908152600560205260409020805460ff1916911515919091179055565b6103e761086a565b600091825260016020908152604080842080546001600160a01b03191690556001600160a01b0392909216835260028152818320839055600390529020805460ff19169055565b5050565b606061043c61086a565b34156104805760405162461bcd60e51b815260206004820152600e60248201526d06d73672e76616c756520213d20360941b60448201526064015b60405180910390fd5b600061048e83850185610e05565b6000878152600160209081526040808320546001600160a01b03168084526003909252909120549192509060ff166104d85760405162461bcd60e51b815260040161047790611020565b6104f26001600160a01b038216635b5e139f60e01b6109d9565b1561056a5760405163c87b56dd60e01b81526004810183905281906001600160a01b0382169063c87b56dd90602401600060405180830381865afa15801561053e573d6000803e3d6000fd5b505050506040513d6000823e601f3d908101601f191682016040526105669190810190611068565b9350505b6001600160a01b03811660009081526004602052604090205460ff161561059b576105968187846109fc565b6105a7565b6105a781873085610964565b5050949350505050565b6105b961086a565b600082815260016020818152604080842080546001600160a01b0319166001600160a01b0387169081179091558452600282528084208690556003909152909120805460ff191690911790555050565b600054610100900460ff16158080156106295750600054600160ff909116105b806106435750303b158015610643575060005460ff166001145b61065f5760405162461bcd60e51b8152600401610477906110df565b6000805460ff191660011790558015610682576000805461ff0019166101001790555b61068b82610b18565b801561042e576000805461ff0019169055604051600181527f7f26b83ff96e1f2b6a682f133852f6798a09c465da95921460cefb3847402498906020015b60405180910390a15050565b6106dd61086a565b60008060608180826106f18789018961112d565b909650945061070185604061114f565b9250610710836040898b611175565b8080601f0160208091040260200160405190810160405280939291908181526020018383808284376000920191909152509296506107569250899150859050818b611175565b8101906107639190610e05565b9150878761077285602061114f565b908461077f87602061114f565b610789919061114f565b9261079693929190611175565b8080601f01602080910402602001604051908101604052809392919081815260200183838082843760009201829052506020898101518f8352600182526040808420546001600160a01b0316808552600390935290922054959650909490935060ff16915061081990505760405162461bcd60e51b815260040161047790611020565b6001600160a01b03811660009081526004602052604090205460ff161561084e57610849818360601c8a86610bf5565b61085d565b61085d81308460601c8b610964565b5050505050505050505050565b6000546201000090046001600160a01b031633146108ca5760405162461bcd60e51b815260206004820152601e60248201527f73656e646572206d7573742062652062726964676520636f6e747261637400006044820152606401610477565b565b6001600160a01b03811660009081526003602052604090205460ff166109405760405162461bcd60e51b8152602060048201526024808201527f70726f766964656420636f6e7472616374206973206e6f742077686974656c696044820152631cdd195960e21b6064820152608401610477565b6001600160a01b03166000908152600460205260409020805460ff19166001179055565b6040516323b872dd60e01b81526001600160a01b0384811660048301528381166024830152604482018390528591908216906323b872dd906064015b600060405180830381600087803b1580156109ba57600080fd5b505af11580156109ce573d6000803e3d6000fd5b505050505050505050565b60006109e483610c27565b80156109f557506109f58383610c5b565b9392505050565b6040516331a9108f60e11b81526004810182905283906001600160a01b038481169190831690636352211e90602401602060405180830381865afa158015610a48573d6000803e3d6000fd5b505050506040513d601f19601f82011682018060405250810190610a6c919061119f565b6001600160a01b031614610ab85760405162461bcd60e51b8152602060048201526013602482015272213ab937103737ba10333937b69037bbb732b960691b6044820152606401610477565b604051630852cd8d60e31b8152600481018390526001600160a01b038216906342966c6890602401600060405180830381600087803b158015610afa57600080fd5b505af1158015610b0e573d6000803e3d6000fd5b5050505050505050565b600054610100900460ff1615808015610b385750600054600160ff909116105b80610b525750303b158015610b52575060005460ff166001145b610b6e5760405162461bcd60e51b8152600401610477906110df565b6000805460ff191660011790558015610b91576000805461ff0019166101001790555b6000805462010000600160b01b031916620100006001600160a01b03851602179055801561042e576000805461ff0019169055604051600181527f7f26b83ff96e1f2b6a682f133852f6798a09c465da95921460cefb3847402498906020016106c9565b6040516334ff261960e21b815284906001600160a01b0382169063d3fc9864906109a0908790879087906004016111bc565b6000610c3a826301ffc9a760e01b610c5b565b8015610c555750610c53826001600160e01b0319610c5b565b155b92915050565b604080516001600160e01b03198316602480830191909152825180830390910181526044909101909152602080820180516001600160e01b03166301ffc9a760e01b178152825160009392849283928392918391908a617530fa92503d91506000519050828015610ccd575060208210155b8015610cd95750600081115b979650505050505050565b6001600160a01b038116811461027357600080fd5b600060208284031215610d0b57600080fd5b81356109f581610ce4565b634e487b7160e01b600052604160045260246000fd5b604051601f8201601f1916810167ffffffffffffffff81118282101715610d5557610d55610d16565b604052919050565b600067ffffffffffffffff821115610d7757610d77610d16565b50601f01601f191660200190565b600060208284031215610d9757600080fd5b813567ffffffffffffffff811115610dae57600080fd5b8201601f81018413610dbf57600080fd5b8035610dd2610dcd82610d5d565b610d2c565b818152856020838501011115610de757600080fd5b81602084016020830137600091810160200191909152949350505050565b600060208284031215610e1757600080fd5b5035919050565b60008060408385031215610e3157600080fd5b8235610e3c81610ce4565b915060208301358015158114610e5157600080fd5b809150509250929050565b60008060408385031215610e6f57600080fd5b823591506020830135610e5181610ce4565b60008083601f840112610e9357600080fd5b50813567ffffffffffffffff811115610eab57600080fd5b602083019150836020828501011115610ec357600080fd5b9250929050565b60008060008060608587031215610ee057600080fd5b843593506020850135610ef281610ce4565b9250604085013567ffffffffffffffff811115610f0e57600080fd5b610f1a87828801610e81565b95989497509550505050565b60005b83811015610f41578181015183820152602001610f29565b838111156103a65750506000910152565b60008151808452610f6a816020860160208601610f26565b601f01601f19169290920160200192915050565b6020815260006109f56020830184610f52565b600080600060408486031215610fa657600080fd5b83359250602084013567ffffffffffffffff811115610fc457600080fd5b610fd086828701610e81565b9497909650939450505050565b600080600060608486031215610ff257600080fd5b8351610ffd81610ce4565b602085015190935061100e81610ce4565b80925050604084015190509250925092565b60208082526028908201527f70726f766964656420746f6b656e41646472657373206973206e6f74207768696040820152671d195b1a5cdd195960c21b606082015260800190565b60006020828403121561107a57600080fd5b815167ffffffffffffffff81111561109157600080fd5b8201601f810184136110a257600080fd5b80516110b0610dcd82610d5d565b8181528560208385010111156110c557600080fd5b6110d6826020830160208601610f26565b95945050505050565b6020808252602e908201527f496e697469616c697a61626c653a20636f6e747261637420697320616c72656160408201526d191e481a5b9a5d1a585b1a5e995960921b606082015260800190565b6000806040838503121561114057600080fd5b50508035926020909101359150565b6000821982111561117057634e487b7160e01b600052601160045260246000fd5b500190565b6000808585111561118557600080fd5b8386111561119257600080fd5b5050820193919092039150565b6000602082840312156111b157600080fd5b81516109f581610ce4565b60018060a01b03841681528260208201526060604082015260006110d66060830184610f5256fea2646970667358221220f01c65d94ea298e0470f09d2235d75cd3872db5873ad45d692558c489467066664736f6c634300080b0033",
  "immutableReferences": {},
  "source": "// SPDX-License-Identifier: LGPL-3.0-only\npragma solidity 0.8.11;\npragma experimental ABIEncoderV2;\n\nimport \"../interfaces/IDepositExecute.sol\";\nimport {HandlerHelpersUpgradeable as HandlerHelpers} from \"./HandlerHelpersUpgradeable.sol\";\nimport \"../ERC721Safe.sol\";\nimport \"@openzeppelin/contracts/token/ERC721/extensions/IERC721Metadata.sol\";\nimport {ERC165CheckerUpgradeable as ERC165Checker} from \"@openzeppelin/contracts-upgradeable/utils/introspection/ERC165CheckerUpgradeable.sol\";\n\n/**\n    @title Handles ERC721 deposits and deposit executions.\n    @author ChainSafe Systems.\n    @notice This contract is intended to be used with the Bridge contract.\n */\ncontract ERC721HandlerUpgradeable is\n    IDepositExecute,\n    HandlerHelpers,\n    ERC721Safe\n{\n    using ERC165Checker for address;\n\n    bytes4 private constant _INTERFACE_ERC721_METADATA = 0x5b5e139f;\n\n    /**\n        @param bridgeAddress Contract address of previously deployed Bridge.\n     */\n    function initialize(address bridgeAddress) public initializer {\n        __HandlerHelpers_init(bridgeAddress);\n    }\n\n    /**\n        @notice A deposit is initiated by making a deposit in the Bridge contract.\n        @param resourceID ResourceID used to find address of token to be used for deposit.\n        @param depositor Address of account making the deposit in the Bridge contract.\n        @param data Consists of {tokenID} padded to 32 bytes.\n        @notice Data passed into the function should be constructed as follows:\n        tokenID                                     uint256    bytes    0  - 32\n        @notice If the corresponding {tokenAddress} for the parsed {resourceID} supports {_INTERFACE_ERC721_METADATA},\n        then {metaData} will be set according to the {tokenURI} method in the token contract.\n        @dev Depending if the corresponding {tokenAddress} for the parsed {resourceID} is\n        marked true in {_burnList}, deposited tokens will be burned, if not, they will be locked.\n        @return metaData : the deposited token metadata acquired by calling a {tokenURI} method in the token contract.\n     */\n    function deposit(\n        bytes32 resourceID,\n        address depositor,\n        bytes calldata data\n    ) external payable override onlyBridge returns (bytes memory metaData) {\n        require(msg.value == 0, \"msg.value != 0\");\n        uint256 tokenID;\n\n        (tokenID) = abi.decode(data, (uint256));\n\n        address tokenAddress = _resourceIDToTokenContractAddress[resourceID];\n        require(\n            _contractWhitelist[tokenAddress],\n            \"provided tokenAddress is not whitelisted\"\n        );\n\n        // Check if the contract supports metadata, fetch it if it does\n        if (tokenAddress.supportsInterface(_INTERFACE_ERC721_METADATA)) {\n            IERC721Metadata erc721 = IERC721Metadata(tokenAddress);\n            metaData = bytes(erc721.tokenURI(tokenID));\n        }\n\n        if (_burnList[tokenAddress]) {\n            burnERC721(tokenAddress, depositor, tokenID);\n        } else {\n            lockERC721(tokenAddress, depositor, address(this), tokenID);\n        }\n    }\n\n    /**\n        @notice Proposal execution should be initiated when a proposal is finalized in the Bridge contract.\n        by a relayer on the deposit's destination chain.\n        @param data Consists of {tokenID}, {resourceID}, {lenDestinationRecipientAddress},\n        {destinationRecipientAddress}, {lenMeta}, and {metaData} all padded to 32 bytes.\n        @notice Data passed into the function should be constructed as follows:\n        tokenID                                     uint256    bytes    0  - 32\n        destinationRecipientAddress     length      uint256    bytes    32 - 64\n        destinationRecipientAddress                   bytes    bytes    64 - (64 + len(destinationRecipientAddress))\n        metadata                        length      uint256    bytes    (64 + len(destinationRecipientAddress)) - (64 + len(destinationRecipientAddress) + 32)\n        metadata                                      bytes    bytes    (64 + len(destinationRecipientAddress) + 32) - END\n     */\n    function executeProposal(bytes32 resourceID, bytes calldata data)\n        external\n        override\n        onlyBridge\n    {\n        uint256 tokenID;\n        uint256 lenDestinationRecipientAddress;\n        bytes memory destinationRecipientAddress;\n        uint256 offsetMetaData;\n        uint256 lenMetaData;\n        bytes memory metaData;\n\n        (tokenID, lenDestinationRecipientAddress) = abi.decode(\n            data,\n            (uint256, uint256)\n        );\n        offsetMetaData = 64 + lenDestinationRecipientAddress;\n        destinationRecipientAddress = bytes(data[64:offsetMetaData]);\n        lenMetaData = abi.decode(data[offsetMetaData:], (uint256));\n        metaData = bytes(\n            data[offsetMetaData + 32:offsetMetaData + 32 + lenMetaData]\n        );\n\n        bytes20 recipientAddress;\n\n        assembly {\n            recipientAddress := mload(add(destinationRecipientAddress, 0x20))\n        }\n\n        address tokenAddress = _resourceIDToTokenContractAddress[resourceID];\n        require(\n            _contractWhitelist[address(tokenAddress)],\n            \"provided tokenAddress is not whitelisted\"\n        );\n\n        if (_burnList[tokenAddress]) {\n            mintERC721(\n                tokenAddress,\n                address(recipientAddress),\n                tokenID,\n                metaData\n            );\n        } else {\n            releaseERC721(\n                tokenAddress,\n                address(this),\n                address(recipientAddress),\n                tokenID\n            );\n        }\n    }\n\n    /**\n        @notice Used to manually release ERC721 tokens from ERC721Safe.\n        @param data Consists of {tokenAddress}, {recipient}, and {tokenID} all padded to 32 bytes.\n        @notice Data passed into the function should be constructed as follows:\n        tokenAddress                           address     bytes  0 - 32\n        recipient                              address     bytes  32 - 64\n        tokenID                                uint        bytes  64 - 96\n     */\n    function withdraw(bytes memory data) external override onlyBridge {\n        address tokenAddress;\n        address recipient;\n        uint256 tokenID;\n\n        (tokenAddress, recipient, tokenID) = abi.decode(\n            data,\n            (address, address, uint256)\n        );\n\n        releaseERC721(tokenAddress, address(this), recipient, tokenID);\n    }\n}\n",
  "sourcePath": "/Users/cuimiandashi/Documents/GitHub/chainbridge-solidity-v2.0.0-eth/contracts/handlers/ERC721HandlerUpgradeable.sol",
  "compiler": {
    "name": "solc",
    "version": "0.8.11+commit.d7f03943.Emscripten.clang"
  },
  "schemaVersion": "3.4.7",
  "updatedAt": "2022-09-22T14:27:40.417Z",
  "devdoc": {
    "author": "ChainSafe Systems.",
    "kind": "dev",
    "methods": {
      "deposit(bytes32,address,bytes)": {
        "details": "Depending if the corresponding {tokenAddress} for the parsed {resourceID} is marked true in {_burnList}, deposited tokens will be burned, if not, they will be locked.",
        "params": {
          "data": "Consists of {tokenID} padded to 32 bytes.",
          "depositor": "Address of account making the deposit in the Bridge contract.",
          "resourceID": "ResourceID used to find address of token to be used for deposit."
        },
        "returns": {
          "metaData": ": the deposited token metadata acquired by calling a {tokenURI} method in the token contract."
        }
      },
      "executeProposal(bytes32,bytes)": {
        "params": {
          "data": "Consists of {tokenID}, {resourceID}, {lenDestinationRecipientAddress}, {destinationRecipientAddress}, {lenMeta}, and {metaData} all padded to 32 bytes."
        }
      },
      "initialize(address)": {
        "params": {
          "bridgeAddress": "Contract address of previously deployed Bridge."
        }
      },
      "setBurnable(address)": {
        "params": {
          "contractAddress": "Address of contract to be used when making or executing deposits."
        }
      },
      "setResource(bytes32,address)": {
        "params": {
          "contractAddress": "Address of contract to be called when a deposit is made and a deposited is executed.",
          "resourceID": "ResourceID to be used when making deposits."
        }
      },
      "withdraw(bytes)": {
        "params": {
          "data": "Consists of {tokenAddress}, {recipient}, and {tokenID} all padded to 32 bytes."
        }
      }
    },
    "title": "Handles ERC721 deposits and deposit executions.",
    "version": 1
  },
  "userdoc": {
    "kind": "user",
    "methods": {
      "_resourceIDToTokenContractAddress(bytes32)": {
        "notice": "Exposing getter for {_resourceIDToTokenContractAddress}."
      },
      "deposit(bytes32,address,bytes)": {
        "notice": "A deposit is initiated by making a deposit in the Bridge contract.Data passed into the function should be constructed as follows: tokenID                                     uint256    bytes    0  - 32If the corresponding {tokenAddress} for the parsed {resourceID} supports {_INTERFACE_ERC721_METADATA}, then {metaData} will be set according to the {tokenURI} method in the token contract."
      },
      "executeProposal(bytes32,bytes)": {
        "notice": "Proposal execution should be initiated when a proposal is finalized in the Bridge contract. by a relayer on the deposit's destination chain.Data passed into the function should be constructed as follows: tokenID                                     uint256    bytes    0  - 32 destinationRecipientAddress     length      uint256    bytes    32 - 64 destinationRecipientAddress                   bytes    bytes    64 - (64 + len(destinationRecipientAddress)) metadata                        length      uint256    bytes    (64 + len(destinationRecipientAddress)) - (64 + len(destinationRecipientAddress) + 32) metadata                                      bytes    bytes    (64 + len(destinationRecipientAddress) + 32) - END"
      },
      "setBurnable(address)": {
        "notice": "First verifies {contractAddress} is whitelisted, then sets {_burnList}[{contractAddress}] to true."
      },
      "setResource(bytes32,address)": {
        "notice": "First verifies {_resourceIDToContractAddress}[{resourceID}] and {_contractAddressToResourceID}[{contractAddress}] are not already set, then sets {_resourceIDToContractAddress} with {contractAddress}, {_contractAddressToResourceID} with {resourceID}, and {_contractWhitelist} to true for {contractAddress}."
      },
      "withdraw(bytes)": {
        "notice": "Used to manually release ERC721 tokens from ERC721Safe.Data passed into the function should be constructed as follows: tokenAddress                           address     bytes  0 - 32 recipient                              address     bytes  32 - 64 tokenID                                uint        bytes  64 - 96"
      }
    },
    "notice": "This contract is intended to be used with the Bridge contract.",
    "version": 1
  }
}