{
  "contractName": "FeeHandlerWithOracle",
  "abi": [
    {
      "inputs": [
        {
          "internalType": "address",
          "name": "bridgeAddress",
          "type": "address"
        }
      ],
      "stateMutability": "nonpayable",
      "type": "constructor"
    },
    {
      "anonymous": false,
      "inputs": [
        {
          "indexed": false,
          "internalType": "address",
          "name": "sender",
          "type": "address"
        },
        {
          "indexed": false,
          "internalType": "uint8",
          "name": "fromDomainID",
          "type": "uint8"
        },
        {
          "indexed": false,
          "internalType": "uint8",
          "name": "destinationDomainID",
          "type": "uint8"
        },
        {
          "indexed": false,
          "internalType": "bytes32",
          "name": "resourceID",
          "type": "bytes32"
        },
        {
          "indexed": false,
          "internalType": "uint256",
          "name": "fee",
          "type": "uint256"
        },
        {
          "indexed": false,
          "internalType": "address",
          "name": "tokenAddress",
          "type": "address"
        }
      ],
      "name": "FeeCollected",
      "type": "event"
    },
    {
      "anonymous": false,
      "inputs": [
        {
          "indexed": false,
          "internalType": "address",
          "name": "tokenAddress",
          "type": "address"
        },
        {
          "indexed": false,
          "internalType": "address",
          "name": "recipient",
          "type": "address"
        },
        {
          "indexed": false,
          "internalType": "uint256",
          "name": "amount",
          "type": "uint256"
        }
      ],
      "name": "FeeDistributed",
      "type": "event"
    },
    {
      "anonymous": false,
      "inputs": [
        {
          "indexed": true,
          "internalType": "bytes32",
          "name": "role",
          "type": "bytes32"
        },
        {
          "indexed": true,
          "internalType": "address",
          "name": "account",
          "type": "address"
        },
        {
          "indexed": true,
          "internalType": "address",
          "name": "sender",
          "type": "address"
        }
      ],
      "name": "RoleGranted",
      "type": "event"
    },
    {
      "anonymous": false,
      "inputs": [
        {
          "indexed": true,
          "internalType": "bytes32",
          "name": "role",
          "type": "bytes32"
        },
        {
          "indexed": true,
          "internalType": "address",
          "name": "account",
          "type": "address"
        },
        {
          "indexed": true,
          "internalType": "address",
          "name": "sender",
          "type": "address"
        }
      ],
      "name": "RoleRevoked",
      "type": "event"
    },
    {
      "inputs": [],
      "name": "DEFAULT_ADMIN_ROLE",
      "outputs": [
        {
          "internalType": "bytes32",
          "name": "",
          "type": "bytes32"
        }
      ],
      "stateMutability": "view",
      "type": "function"
    },
    {
      "inputs": [],
      "name": "ETHReserve",
      "outputs": [
        {
          "internalType": "uint256",
          "name": "",
          "type": "uint256"
        }
      ],
      "stateMutability": "view",
      "type": "function"
    },
    {
      "inputs": [],
      "name": "_bridgeAddress",
      "outputs": [
        {
          "internalType": "address",
          "name": "",
          "type": "address"
        }
      ],
      "stateMutability": "view",
      "type": "function"
    },
    {
      "inputs": [],
      "name": "_fee",
      "outputs": [
        {
          "internalType": "uint256",
          "name": "",
          "type": "uint256"
        }
      ],
      "stateMutability": "view",
      "type": "function"
    },
    {
      "inputs": [],
      "name": "_feePercent",
      "outputs": [
        {
          "internalType": "uint16",
          "name": "",
          "type": "uint16"
        }
      ],
      "stateMutability": "view",
      "type": "function"
    },
    {
      "inputs": [],
      "name": "_gasUsed",
      "outputs": [
        {
          "internalType": "uint32",
          "name": "",
          "type": "uint32"
        }
      ],
      "stateMutability": "view",
      "type": "function"
    },
    {
      "inputs": [],
      "name": "_oracleAddress",
      "outputs": [
        {
          "internalType": "address",
          "name": "",
          "type": "address"
        }
      ],
      "stateMutability": "view",
      "type": "function"
    },
    {
      "inputs": [
        {
          "internalType": "bytes32",
          "name": "role",
          "type": "bytes32"
        }
      ],
      "name": "getRoleAdmin",
      "outputs": [
        {
          "internalType": "bytes32",
          "name": "",
          "type": "bytes32"
        }
      ],
      "stateMutability": "view",
      "type": "function"
    },
    {
      "inputs": [
        {
          "internalType": "bytes32",
          "name": "role",
          "type": "bytes32"
        },
        {
          "internalType": "uint256",
          "name": "index",
          "type": "uint256"
        }
      ],
      "name": "getRoleMember",
      "outputs": [
        {
          "internalType": "address",
          "name": "",
          "type": "address"
        }
      ],
      "stateMutability": "view",
      "type": "function"
    },
    {
      "inputs": [
        {
          "internalType": "bytes32",
          "name": "role",
          "type": "bytes32"
        }
      ],
      "name": "getRoleMemberCount",
      "outputs": [
        {
          "internalType": "uint256",
          "name": "",
          "type": "uint256"
        }
      ],
      "stateMutability": "view",
      "type": "function"
    },
    {
      "inputs": [
        {
          "internalType": "bytes32",
          "name": "role",
          "type": "bytes32"
        },
        {
          "internalType": "address",
          "name": "account",
          "type": "address"
        }
      ],
      "name": "getRoleMemberIndex",
      "outputs": [
        {
          "internalType": "uint256",
          "name": "",
          "type": "uint256"
        }
      ],
      "stateMutability": "view",
      "type": "function"
    },
    {
      "inputs": [
        {
          "internalType": "bytes32",
          "name": "role",
          "type": "bytes32"
        },
        {
          "internalType": "address",
          "name": "account",
          "type": "address"
        }
      ],
      "name": "grantRole",
      "outputs": [],
      "stateMutability": "nonpayable",
      "type": "function"
    },
    {
      "inputs": [
        {
          "internalType": "bytes32",
          "name": "role",
          "type": "bytes32"
        },
        {
          "internalType": "address",
          "name": "account",
          "type": "address"
        }
      ],
      "name": "hasRole",
      "outputs": [
        {
          "internalType": "bool",
          "name": "",
          "type": "bool"
        }
      ],
      "stateMutability": "view",
      "type": "function"
    },
    {
      "inputs": [
        {
          "internalType": "bytes32",
          "name": "role",
          "type": "bytes32"
        },
        {
          "internalType": "address",
          "name": "account",
          "type": "address"
        }
      ],
      "name": "renounceRole",
      "outputs": [],
      "stateMutability": "nonpayable",
      "type": "function"
    },
    {
      "inputs": [
        {
          "internalType": "bytes32",
          "name": "role",
          "type": "bytes32"
        },
        {
          "internalType": "address",
          "name": "account",
          "type": "address"
        }
      ],
      "name": "revokeRole",
      "outputs": [],
      "stateMutability": "nonpayable",
      "type": "function"
    },
    {
      "inputs": [
        {
          "internalType": "address",
          "name": "oracleAddress",
          "type": "address"
        }
      ],
      "name": "setFeeOracle",
      "outputs": [],
      "stateMutability": "nonpayable",
      "type": "function"
    },
    {
      "inputs": [
        {
          "internalType": "uint32",
          "name": "gasUsed",
          "type": "uint32"
        },
        {
          "internalType": "uint16",
          "name": "feePercent",
          "type": "uint16"
        }
      ],
      "name": "setFeeProperties",
      "outputs": [],
      "stateMutability": "nonpayable",
      "type": "function"
    },
    {
      "inputs": [
        {
          "internalType": "address",
          "name": "sender",
          "type": "address"
        },
        {
          "internalType": "uint8",
          "name": "fromDomainID",
          "type": "uint8"
        },
        {
          "internalType": "uint8",
          "name": "destinationDomainID",
          "type": "uint8"
        },
        {
          "internalType": "bytes32",
          "name": "resourceID",
          "type": "bytes32"
        },
        {
          "internalType": "bytes",
          "name": "depositData",
          "type": "bytes"
        },
        {
          "internalType": "bytes",
          "name": "feeData",
          "type": "bytes"
        }
      ],
      "name": "collectFee",
      "outputs": [],
      "stateMutability": "payable",
      "type": "function"
    },
    {
      "inputs": [
        {
          "internalType": "address",
          "name": "sender",
          "type": "address"
        },
        {
          "internalType": "uint8",
          "name": "fromDomainID",
          "type": "uint8"
        },
        {
          "internalType": "uint8",
          "name": "destinationDomainID",
          "type": "uint8"
        },
        {
          "internalType": "bytes32",
          "name": "resourceID",
          "type": "bytes32"
        },
        {
          "internalType": "bytes",
          "name": "depositData",
          "type": "bytes"
        },
        {
          "internalType": "bytes",
          "name": "feeData",
          "type": "bytes"
        }
      ],
      "name": "calculateFee",
      "outputs": [
        {
          "internalType": "uint256",
          "name": "fee",
          "type": "uint256"
        },
        {
          "internalType": "address",
          "name": "tokenAddress",
          "type": "address"
        }
      ],
      "stateMutability": "view",
      "type": "function"
    },
    {
      "inputs": [
        {
          "internalType": "bytes32",
          "name": "resourceID",
          "type": "bytes32"
        },
        {
          "internalType": "address[]",
          "name": "addrs",
          "type": "address[]"
        },
        {
          "internalType": "uint256[]",
          "name": "amounts",
          "type": "uint256[]"
        }
      ],
      "name": "transferFee",
      "outputs": [],
      "stateMutability": "nonpayable",
      "type": "function"
    }
  ],
  "bytecode": "0x60a060405260006003553480156200001657600080fd5b5060405162001db638038062001db6833981016040819052620000399162000143565b6001600160a01b038116608052620000536000336200005a565b5062000175565b6200006682826200006a565b5050565b6000828152602081815260409091206200008f91839062000a48620000d1821b17901c565b15620000665760405133906001600160a01b0383169084907f2f8788117e7eff1d82e926ec794901d17c78024a50270940304540a733656f0d90600090a45050565b6000620000e8836001600160a01b038416620000f1565b90505b92915050565b60008181526001830160205260408120546200013a57508154600181810184556000848152602080822090930184905584548482528286019093526040902091909155620000eb565b506000620000eb565b6000602082840312156200015657600080fd5b81516001600160a01b03811681146200016e57600080fd5b9392505050565b608051611c10620001a6600039600081816101ae0152818161074c01528181610a680152610d1d0152611c106000f3fe60806040526004361061011f5760003560e01c8063a217fddf116100a0578063ca15c87311610064578063ca15c87314610359578063d547741f14610379578063ddafda4614610399578063ef4f081f146103af578063fc818cfb146103ec57600080fd5b8063a217fddf146102ce578063a8a98962146102e3578063bff4275514610303578063c297983f14610323578063c5b37c221461034357600080fd5b80634e0df3f6116100e75780634e0df3f61461020857806369222948146102285780636fb7cb571461025e5780639010d07c1461027e57806391d148541461029e57600080fd5b8063248a9ca31461012457806325307065146101675780632f2ff15d1461017c578063318c136e1461019c57806336568abe146101e8575b600080fd5b34801561013057600080fd5b5061015461013f3660046116e8565b60009081526020819052604090206002015490565b6040519081526020015b60405180910390f35b61017a610175366004611767565b61041e565b005b34801561018857600080fd5b5061017a610197366004611818565b61050a565b3480156101a857600080fd5b506101d07f000000000000000000000000000000000000000000000000000000000000000081565b6040516001600160a01b03909116815260200161015e565b3480156101f457600080fd5b5061017a610203366004611818565b610598565b34801561021457600080fd5b50610154610223366004611818565b610612565b34801561023457600080fd5b5060045461024b90640100000000900461ffff1681565b60405161ffff909116815260200161015e565b34801561026a57600080fd5b506002546101d0906001600160a01b031681565b34801561028a57600080fd5b506101d0610299366004611848565b61063d565b3480156102aa57600080fd5b506102be6102b9366004611818565b61065c565b604051901515815260200161015e565b3480156102da57600080fd5b50610154600081565b3480156102ef57600080fd5b5061017a6102fe36600461186a565b610674565b34801561030f57600080fd5b5061017a61031e3660046118cc565b6106bd565b34801561032f57600080fd5b5061017a61033e366004611946565b610938565b34801561034f57600080fd5b5061015460035481565b34801561036557600080fd5b506101546103743660046116e8565b61098c565b34801561038557600080fd5b5061017a610394366004611818565b6109a3565b3480156103a557600080fd5b5061015460015481565b3480156103bb57600080fd5b506103cf6103ca366004611767565b610a24565b604080519283526001600160a01b0390911660208301520161015e565b3480156103f857600080fd5b506004546104099063ffffffff1681565b60405163ffffffff909116815260200161015e565b610426610a5d565b34156104795760405162461bcd60e51b815260206004820152601a60248201527f636f6c6c6563744665653a206d73672e76616c756520213d203000000000000060448201526064015b60405180910390fd5b60008061048c8a8a8a8a8a8a8a8a610ad7565b9150915061049c818b3085610e94565b604080516001600160a01b038c8116825260ff8c811660208401528b1682840152606082018a905260808201859052831660a082015290517fbd231b7fa4103e15e7a238c72f07e8aff310701af121895aa6c793b80245e4339181900360c00190a150505050505050505050565b600082815260208190526040902060020154610526903361065c565b61058a5760405162461bcd60e51b815260206004820152602f60248201527f416363657373436f6e74726f6c3a2073656e646572206d75737420626520616e60448201526e0818591b5a5b881d1bc819dc985b9d608a1b6064820152608401610470565b6105948282610ea8565b5050565b6001600160a01b03811633146106085760405162461bcd60e51b815260206004820152602f60248201527f416363657373436f6e74726f6c3a2063616e206f6e6c792072656e6f756e636560448201526e103937b632b9903337b91039b2b63360891b6064820152608401610470565b6105948282610f01565b6000828152602081815260408083206001600160a01b03851684526001019091529020545b92915050565b60008281526020819052604081206106559083610f5a565b9392505050565b60008281526020819052604081206106559083610f66565b61067f60003361065c565b61069b5760405162461bcd60e51b815260040161047090611984565b600280546001600160a01b0319166001600160a01b0392909216919091179055565b6106c860003361065c565b6106e45760405162461bcd60e51b815260040161047090611984565b8281146107335760405162461bcd60e51b815260206004820152601f60248201527f61646472735b5d2c20616d6f756e74735b5d3a2064696666206c656e677468006044820152606401610470565b6040516384db809f60e01b8152600481018690526000907f00000000000000000000000000000000000000000000000000000000000000006001600160a01b0316906384db809f90602401602060405180830381865afa15801561079b573d6000803e3d6000fd5b505050506040513d601f19601f820116820180604052508101906107bf91906119bb565b60405163014daabb60e31b8152600481018890529091506000906001600160a01b03831690630a6d55d890602401602060405180830381865afa15801561080a573d6000803e3d6000fd5b505050506040513d601f19601f8201168201806040525081019061082e91906119bb565b905060005b8581101561092e5761088482888884818110610851576108516119d8565b9050602002016020810190610866919061186a565b878785818110610878576108786119d8565b90506020020135610f88565b7faaa40a232aaf133fdd28f3485f6fdd163514cfadbffa981f3610f42398efe34b828888848181106108b8576108b86119d8565b90506020020160208101906108cd919061186a565b8787858181106108df576108df6119d8565b90506020020135604051610914939291906001600160a01b039384168152919092166020820152604081019190915260600190565b60405180910390a18061092681611a04565b915050610833565b5050505050505050565b61094360003361065c565b61095f5760405162461bcd60e51b815260040161047090611984565b6004805461ffff9092166401000000000265ffffffffffff1990921663ffffffff90931692909217179055565b600081815260208190526040812061063790610f9a565b6000828152602081905260409020600201546109bf903361065c565b6106085760405162461bcd60e51b815260206004820152603060248201527f416363657373436f6e74726f6c3a2073656e646572206d75737420626520616e60448201526f2061646d696e20746f207265766f6b6560801b6064820152608401610470565b600080610a378a8a8a8a8a8a8a8a610ad7565b915091509850989650505050505050565b6000610655836001600160a01b038416610fa4565b336001600160a01b037f00000000000000000000000000000000000000000000000000000000000000001614610ad55760405162461bcd60e51b815260206004820152601e60248201527f73656e646572206d7573742062652062726964676520636f6e747261637400006044820152606401610470565b565b6000806101418314610b2b5760405162461bcd60e51b815260206004820152601860248201527f496e636f72726563742066656544617461206c656e67746800000000000000006044820152606401610470565b610b4f60405180606001604052806060815260200160608152602001600081525090565b610b5d60e060008688611a1f565b8080601f016020809104026020016040519081016040528093929190818152602001838380828437600092019190915250505090825250610ba361012160e08688611a1f565b8080601f0160208091040260200160405190810160405280939291908181526020018383808284376000920191909152505050506020820152610bea846101218188611a1f565b810190610bf791906116e8565b604082015280518051600091610c1591810160209081019101611a59565b90508060600151421115610c625760405162461bcd60e51b81526020600482015260146024820152734f62736f6c657465206f7261636c65206461746160601b6044820152606401610470565b8a60ff16816080015160ff16148015610c8457508960ff168160a0015160ff16145b8015610c935750888160c00151145b610cdf5760405162461bcd60e51b815260206004820152601860248201527f496e636f7272656374206465706f73697420706172616d7300000000000000006044820152606401610470565b8151805160209182012090830151600254610d049183916001600160a01b0316610ff3565b6040516384db809f60e01b8152600481018b90526000907f00000000000000000000000000000000000000000000000000000000000000006001600160a01b0316906384db809f90602401602060405180830381865afa158015610d6c573d6000803e3d6000fd5b505050506040513d601f19601f82011682018060405250810190610d9091906119bb565b60405163014daabb60e31b8152600481018d90529091506000906001600160a01b03831690630a6d55d890602401602060405180830381865afa158015610ddb573d6000803e3d6000fd5b505050506040513d601f19601f82011682018060405250810190610dff91906119bb565b60208501516004546040870151929350600092670de0b6b3a76400009291610e2f9163ffffffff90911690611af9565b610e399190611af9565b610e439190611b18565b600454604088015191925061271091610e6891640100000000900461ffff1690611af9565b610e729190611b18565b975080881015610e80578097505b509450505050509850989650505050505050565b83610ea181858585611056565b5050505050565b6000828152602081905260409020610ec09082610a48565b156105945760405133906001600160a01b0383169084907f2f8788117e7eff1d82e926ec794901d17c78024a50270940304540a733656f0d90600090a45050565b6000828152602081905260409020610f1990826110c1565b156105945760405133906001600160a01b0383169084907ff6391f5c32d9c69d2a47ea670b442974b53935d1edc7fd64eb21e047a839171b90600090a45050565b600061065583836110d6565b6001600160a01b03811660009081526001830160205260408120541515610655565b82610f94818484611100565b50505050565b6000610637825490565b6000818152600183016020526040812054610feb57508154600181810184556000848152602080822090930184905584548482528286019093526040902091909155610637565b506000610637565b6000610fff8484611135565b9050816001600160a01b0316816001600160a01b031614610f945760405162461bcd60e51b8152602060048201526011602482015270496e76616c6964207369676e617475726560781b6044820152606401610470565b6040516001600160a01b0380851660248301528316604482015260648101829052610f949085906323b872dd60e01b906084015b60408051601f198184030181529190526020810180516001600160e01b03166001600160e01b031990931692909217909152611159565b6000610655836001600160a01b0384166112ab565b60008260000182815481106110ed576110ed6119d8565b9060005260206000200154905092915050565b6040516001600160a01b03831660248201526044810182905261113090849063a9059cbb60e01b9060640161108a565b505050565b6000806000611144858561139e565b915091506111518161140e565b509392505050565b813b806111a05760405162461bcd60e51b8152602060048201526015602482015274115490cc8c0e881b9bdd08184818dbdb9d1c9858dd605a1b6044820152606401610470565b600080846001600160a01b0316846040516111bb9190611b3a565b6000604051808303816000865af19150503d80600081146111f8576040519150601f19603f3d011682016040523d82523d6000602084013e6111fd565b606091505b5091509150816112445760405162461bcd60e51b8152602060048201526012602482015271115490cc8c0e8818d85b1b0819985a5b195960721b6044820152606401610470565b805115610ea1578080602001905181019061125f9190611b75565b610ea15760405162461bcd60e51b815260206004820181905260248201527f45524332303a206f7065726174696f6e20646964206e6f7420737563636565646044820152606401610470565b600081815260018301602052604081205480156113945760006112cf600183611b97565b85549091506000906112e390600190611b97565b9050818114611348576000866000018281548110611303576113036119d8565b9060005260206000200154905080876000018481548110611326576113266119d8565b6000918252602080832090910192909255918252600188019052604090208390555b855486908061135957611359611bae565b600190038181906000526020600020016000905590558560010160008681526020019081526020016000206000905560019350505050610637565b6000915050610637565b6000808251604114156113d55760208301516040840151606085015160001a6113c9878285856115cc565b94509450505050611407565b8251604014156113ff57602083015160408401516113f48683836116b9565b935093505050611407565b506000905060025b9250929050565b600081600481111561142257611422611bc4565b141561142b5750565b600181600481111561143f5761143f611bc4565b141561148d5760405162461bcd60e51b815260206004820152601860248201527f45434453413a20696e76616c6964207369676e617475726500000000000000006044820152606401610470565b60028160048111156114a1576114a1611bc4565b14156114ef5760405162461bcd60e51b815260206004820152601f60248201527f45434453413a20696e76616c6964207369676e6174757265206c656e677468006044820152606401610470565b600381600481111561150357611503611bc4565b141561155c5760405162461bcd60e51b815260206004820152602260248201527f45434453413a20696e76616c6964207369676e6174757265202773272076616c604482015261756560f01b6064820152608401610470565b600481600481111561157057611570611bc4565b14156115c95760405162461bcd60e51b815260206004820152602260248201527f45434453413a20696e76616c6964207369676e6174757265202776272076616c604482015261756560f01b6064820152608401610470565b50565b6000807f7fffffffffffffffffffffffffffffff5d576e7357a4501ddfe92f46681b20a083111561160357506000905060036116b0565b8460ff16601b1415801561161b57508460ff16601c14155b1561162c57506000905060046116b0565b6040805160008082526020820180845289905260ff881692820192909252606081018690526080810185905260019060a0016020604051602081039080840390855afa158015611680573d6000803e3d6000fd5b5050604051601f1901519150506001600160a01b0381166116a9576000600192509250506116b0565b9150600090505b94509492505050565b6000806001600160ff1b03831660ff84901c601b016116da878288856115cc565b935093505050935093915050565b6000602082840312156116fa57600080fd5b5035919050565b6001600160a01b03811681146115c957600080fd5b60ff811681146115c957600080fd5b60008083601f84011261173757600080fd5b50813567ffffffffffffffff81111561174f57600080fd5b60208301915083602082850101111561140757600080fd5b60008060008060008060008060c0898b03121561178357600080fd5b883561178e81611701565b9750602089013561179e81611716565b965060408901356117ae81611716565b955060608901359450608089013567ffffffffffffffff808211156117d257600080fd5b6117de8c838d01611725565b909650945060a08b01359150808211156117f757600080fd5b506118048b828c01611725565b999c989b5096995094979396929594505050565b6000806040838503121561182b57600080fd5b82359150602083013561183d81611701565b809150509250929050565b6000806040838503121561185b57600080fd5b50508035926020909101359150565b60006020828403121561187c57600080fd5b813561065581611701565b60008083601f84011261189957600080fd5b50813567ffffffffffffffff8111156118b157600080fd5b6020830191508360208260051b850101111561140757600080fd5b6000806000806000606086880312156118e457600080fd5b85359450602086013567ffffffffffffffff8082111561190357600080fd5b61190f89838a01611887565b9096509450604088013591508082111561192857600080fd5b5061193588828901611887565b969995985093965092949392505050565b6000806040838503121561195957600080fd5b823563ffffffff8116811461196d57600080fd5b9150602083013561ffff8116811461183d57600080fd5b6020808252601e908201527f73656e64657220646f65736e277420686176652061646d696e20726f6c650000604082015260600190565b6000602082840312156119cd57600080fd5b815161065581611701565b634e487b7160e01b600052603260045260246000fd5b634e487b7160e01b600052601160045260246000fd5b6000600019821415611a1857611a186119ee565b5060010190565b60008085851115611a2f57600080fd5b83861115611a3c57600080fd5b5050820193919092039150565b8051611a5481611716565b919050565b600060e08284031215611a6b57600080fd5b60405160e0810181811067ffffffffffffffff82111715611a9c57634e487b7160e01b600052604160045260246000fd5b806040525082518152602083015160208201526040830151604082015260608301516060820152611acf60808401611a49565b6080820152611ae060a08401611a49565b60a082015260c083015160c08201528091505092915050565b6000816000190483118215151615611b1357611b136119ee565b500290565b600082611b3557634e487b7160e01b600052601260045260246000fd5b500490565b6000825160005b81811015611b5b5760208186018101518583015201611b41565b81811115611b6a576000828501525b509190910192915050565b600060208284031215611b8757600080fd5b8151801515811461065557600080fd5b600082821015611ba957611ba96119ee565b500390565b634e487b7160e01b600052603160045260246000fd5b634e487b7160e01b600052602160045260246000fdfea2646970667358221220c617cb677909709f243a6b91fe2a21b229bb2c0c405dbb479b7a2ebbabcbae6364736f6c634300080b0033",
  "immutableReferences": {
    "10906": [
      {
        "length": 32,
        "start": 430
      },
      {
        "length": 32,
        "start": 1868
      },
      {
        "length": 32,
        "start": 2664
      },
      {
        "length": 32,
        "start": 3357
      }
    ]
  },
  "source": "// SPDX-License-Identifier: LGPL-3.0-only\npragma solidity 0.8.11;\npragma experimental ABIEncoderV2;\n\nimport \"@openzeppelin/contracts/utils/cryptography/ECDSA.sol\";\nimport \"../../utils/AccessControl.sol\";\nimport \"../../interfaces/IFeeHandler.sol\";\nimport \"../../interfaces/IERCHandler.sol\";\nimport \"../../interfaces/IBridge.sol\";\nimport \"../../ERC20Safe.sol\";\nimport \"@openzeppelin/contracts/token/ERC20/IERC20.sol\";\n\n/**\n    @title Handles deposit fees based on Effective rates provided by Fee oracle.\n    @author ChainSafe Systems.\n    @notice This contract is intended to be used with the Bridge contract.\n */\ncontract FeeHandlerWithOracle is IFeeHandler, AccessControl, ERC20Safe {\n    address public immutable _bridgeAddress;\n\n    address public _oracleAddress;\n    uint256 public override _fee = 0;\n\n    uint32 public _gasUsed;\n    uint16 public _feePercent; // multiplied by 100 to avoid precision loss\n\n    struct OracleMessageType {\n        // Base Effective Rate - effective rate between base currencies of source and dest networks (eg. MATIC/ETH)\n        uint256 ber;\n        // Token Effective Rate - rate between base currency of destination network and token that is being trasferred (eg. MATIC/USDT)\n        uint256 ter;\n        uint256 dstGasPrice;\n        uint256 expiresAt;\n        uint8 fromDomainID;\n        uint8 toDomainID;\n        bytes32 resourceID;\n    }\n\n    struct FeeDataType {\n        bytes message;\n        bytes sig;\n        uint256 amount;\n    }\n\n    /**\n        @param bridgeAddress Contract address of previously deployed Bridge.\n     */\n    constructor(address bridgeAddress) {\n        _bridgeAddress = bridgeAddress;\n        _setupRole(DEFAULT_ADMIN_ROLE, msg.sender);\n    }\n\n    // Admin functions\n\n    /**\n        @notice Sets the fee oracle address for signature verification.\n        @param oracleAddress Fee oracle address.\n     */\n    function setFeeOracle(address oracleAddress) external onlyAdmin {\n        _oracleAddress = oracleAddress;\n    }\n\n    /**\n        @notice Sets the fee properties.\n        @param gasUsed Gas used for transfer.\n        @param feePercent Added to fee amount. total fee = fee + fee * feePercent\n     */\n    function setFeeProperties(uint32 gasUsed, uint16 feePercent)\n        external\n        onlyAdmin\n    {\n        _gasUsed = gasUsed;\n        _feePercent = feePercent;\n    }\n\n    /**\n        @notice Collects fee for deposit.\n        @param sender Sender of the deposit.\n        @param fromDomainID ID of the source chain.\n        @param destinationDomainID ID of chain deposit will be bridged to.\n        @param resourceID ResourceID to be used when making deposits.\n        @param depositData Additional data to be passed to specified handler.\n        @param feeData Additional data to be passed to the fee handler.\n     */\n    function collectFee(\n        address sender,\n        uint8 fromDomainID,\n        uint8 destinationDomainID,\n        bytes32 resourceID,\n        bytes calldata depositData,\n        bytes calldata feeData\n    ) external payable onlyBridge {\n        require(msg.value == 0, \"collectFee: msg.value != 0\");\n        (uint256 fee, address tokenAddress) = _calculateFee(\n            sender,\n            fromDomainID,\n            destinationDomainID,\n            resourceID,\n            depositData,\n            feeData\n        );\n        lockERC20(tokenAddress, sender, address(this), fee);\n        emit FeeCollected(\n            sender,\n            fromDomainID,\n            destinationDomainID,\n            resourceID,\n            fee,\n            tokenAddress\n        );\n    }\n\n    /**\n        @notice Calculates fee for deposit.\n        @param sender Sender of the deposit.\n        @param fromDomainID ID of the source chain.\n        @param destinationDomainID ID of chain deposit will be bridged to.\n        @param resourceID ResourceID to be used when making deposits.\n        @param depositData Additional data to be passed to specified handler.\n        @param feeData Additional data to be passed to the fee handler.\n        @return fee Returns the fee amount.\n        @return tokenAddress Returns the address of the token to be used for fee.\n     */\n    function calculateFee(\n        address sender,\n        uint8 fromDomainID,\n        uint8 destinationDomainID,\n        bytes32 resourceID,\n        bytes calldata depositData,\n        bytes calldata feeData\n    ) external view returns (uint256 fee, address tokenAddress) {\n        return\n            _calculateFee(\n                sender,\n                fromDomainID,\n                destinationDomainID,\n                resourceID,\n                depositData,\n                feeData\n            );\n    }\n\n    function _calculateFee(\n        address sender,\n        uint8 fromDomainID,\n        uint8 destinationDomainID,\n        bytes32 resourceID,\n        bytes calldata depositData,\n        bytes calldata feeData\n    ) internal view returns (uint256 fee, address tokenAddress) {\n        /** \n            Message:\n            ber * 10^18:  uint256\n            ter * 10^18:  uint256\n            dstGasPrice:  uint256\n            expiresAt:    uint256\n            fromDomainID: uint8 encoded as uint256\n            toDomainID:   uint8 encoded as uint256\n            resourceID:   bytes32\n            sig:          bytes(65 bytes)\n\n            total in bytes:\n            message:\n            32 * 7  = 224\n            message + sig:\n            224 + 65 = 289\n\n            amount: uint256\n            total: 321\n        */\n\n        require(feeData.length == 321, \"Incorrect feeData length\");\n\n        FeeDataType memory feeDataDecoded;\n\n        feeDataDecoded.message = bytes(feeData[:224]);\n        feeDataDecoded.sig = bytes(feeData[224:289]);\n        feeDataDecoded.amount = abi.decode(feeData[289:], (uint256));\n\n        OracleMessageType memory oracleMessage = abi.decode(\n            feeDataDecoded.message,\n            (OracleMessageType)\n        );\n        require(\n            block.timestamp <= oracleMessage.expiresAt,\n            \"Obsolete oracle data\"\n        );\n        require(\n            (oracleMessage.fromDomainID == fromDomainID) &&\n                (oracleMessage.toDomainID == destinationDomainID) &&\n                (oracleMessage.resourceID == resourceID),\n            \"Incorrect deposit params\"\n        );\n\n        bytes32 messageHash = keccak256(feeDataDecoded.message);\n\n        verifySig(messageHash, feeDataDecoded.sig, _oracleAddress);\n\n        address tokenHandler = IBridge(_bridgeAddress)\n            ._resourceIDToHandlerAddress(resourceID);\n        address tokenAddress = IERCHandler(tokenHandler)\n            ._resourceIDToTokenContractAddress(resourceID);\n\n        // txCost = dstGasPrice * _gasUsed * Token Effective Rate (rate of dest base currency to token)\n        uint256 txCost = (oracleMessage.dstGasPrice *\n            _gasUsed *\n            oracleMessage.ter) / 1e18;\n\n        fee = (feeDataDecoded.amount * _feePercent) / 1e4; // 100 for percent and 100 to avoid precision loss\n\n        if (fee < txCost) {\n            fee = txCost;\n        }\n        return (fee, tokenAddress);\n    }\n\n    /**\n        @notice Transfers tokens from the contract to the specified addresses. The parameters addrs and amounts are mapped 1-1.\n        This means that the address at index 0 for addrs will receive the amount of tokens from amounts at index 0.\n        @param resourceID ResourceID of the token.\n        @param addrs Array of addresses to transfer {amounts} to.\n        @param amounts Array of amounts to transfer to {addrs}.\n     */\n    function transferFee(\n        bytes32 resourceID,\n        address[] calldata addrs,\n        uint256[] calldata amounts\n    ) external onlyAdmin {\n        require(\n            addrs.length == amounts.length,\n            \"addrs[], amounts[]: diff length\"\n        );\n        address tokenHandler = IBridge(_bridgeAddress)\n            ._resourceIDToHandlerAddress(resourceID);\n        address tokenAddress = IERCHandler(tokenHandler)\n            ._resourceIDToTokenContractAddress(resourceID);\n        for (uint256 i = 0; i < addrs.length; i++) {\n            releaseERC20(tokenAddress, addrs[i], amounts[i]);\n            emit FeeDistributed(tokenAddress, addrs[i], amounts[i]);\n        }\n    }\n\n    function verifySig(\n        bytes32 message,\n        bytes memory signature,\n        address signerAddress\n    ) internal pure {\n        address signerAddressRecovered = ECDSA.recover(message, signature);\n        require(signerAddressRecovered == signerAddress, \"Invalid signature\");\n    }\n\n    modifier onlyAdmin() {\n        require(\n            hasRole(DEFAULT_ADMIN_ROLE, msg.sender),\n            \"sender doesn't have admin role\"\n        );\n        _;\n    }\n\n    modifier onlyBridge() {\n        _onlyBridge();\n        _;\n    }\n\n    function _onlyBridge() private view {\n        require(msg.sender == _bridgeAddress, \"sender must be bridge contract\");\n    }\n}\n",
  "sourcePath": "/Users/cuimiandashi/Documents/GitHub/chainbridge-solidity-v2.0.0-eth/contracts/handlers/fee/FeeHandlerWithOracle.sol",
  "compiler": {
    "name": "solc",
    "version": "0.8.11+commit.d7f03943.Emscripten.clang"
  },
  "schemaVersion": "3.4.7",
  "updatedAt": "2022-06-05T16:30:50.864Z",
  "devdoc": {
    "author": "ChainSafe Systems.",
    "kind": "dev",
    "methods": {
      "calculateFee(address,uint8,uint8,bytes32,bytes,bytes)": {
        "params": {
          "depositData": "Additional data to be passed to specified handler.",
          "destinationDomainID": "ID of chain deposit will be bridged to.",
          "feeData": "Additional data to be passed to the fee handler.",
          "fromDomainID": "ID of the source chain.",
          "resourceID": "ResourceID to be used when making deposits.",
          "sender": "Sender of the deposit."
        },
        "returns": {
          "fee": "Returns the fee amount.",
          "tokenAddress": "Returns the address of the token to be used for fee."
        }
      },
      "collectFee(address,uint8,uint8,bytes32,bytes,bytes)": {
        "params": {
          "depositData": "Additional data to be passed to specified handler.",
          "destinationDomainID": "ID of chain deposit will be bridged to.",
          "feeData": "Additional data to be passed to the fee handler.",
          "fromDomainID": "ID of the source chain.",
          "resourceID": "ResourceID to be used when making deposits.",
          "sender": "Sender of the deposit."
        }
      },
      "constructor": {
        "params": {
          "bridgeAddress": "Contract address of previously deployed Bridge."
        }
      },
      "getRoleAdmin(bytes32)": {
        "details": "Returns the admin role that controls `role`. See {grantRole} and {revokeRole}. To change a role's admin, use {_setRoleAdmin}."
      },
      "getRoleMember(bytes32,uint256)": {
        "details": "Returns one of the accounts that have `role`. `index` must be a value between 0 and {getRoleMemberCount}, non-inclusive. Role bearers are not sorted in any particular way, and their ordering may change at any point. WARNING: When using {getRoleMember} and {getRoleMemberCount}, make sure you perform all queries on the same block. See the following https://forum.openzeppelin.com/t/iterating-over-elements-on-enumerableset-in-openzeppelin-contracts/2296[forum post] for more information."
      },
      "getRoleMemberCount(bytes32)": {
        "details": "Returns the number of accounts that have `role`. Can be used together with {getRoleMember} to enumerate all bearers of a role."
      },
      "getRoleMemberIndex(bytes32,address)": {
        "details": "Returns the index of the account that have `role`."
      },
      "grantRole(bytes32,address)": {
        "details": "Grants `role` to `account`. If `account` had not been already granted `role`, emits a {RoleGranted} event. Requirements: - the caller must have ``role``'s admin role."
      },
      "hasRole(bytes32,address)": {
        "details": "Returns `true` if `account` has been granted `role`."
      },
      "renounceRole(bytes32,address)": {
        "details": "Revokes `role` from the calling account. Roles are often managed via {grantRole} and {revokeRole}: this function's purpose is to provide a mechanism for accounts to lose their privileges if they are compromised (such as when a trusted device is misplaced). If the calling account had been granted `role`, emits a {RoleRevoked} event. Requirements: - the caller must be `account`."
      },
      "revokeRole(bytes32,address)": {
        "details": "Revokes `role` from `account`. If `account` had been granted `role`, emits a {RoleRevoked} event. Requirements: - the caller must have ``role``'s admin role."
      },
      "setFeeOracle(address)": {
        "params": {
          "oracleAddress": "Fee oracle address."
        }
      },
      "setFeeProperties(uint32,uint16)": {
        "params": {
          "feePercent": "Added to fee amount. total fee = fee + fee * feePercent",
          "gasUsed": "Gas used for transfer."
        }
      },
      "transferFee(bytes32,address[],uint256[])": {
        "params": {
          "addrs": "Array of addresses to transfer {amounts} to.",
          "amounts": "Array of amounts to transfer to {addrs}.",
          "resourceID": "ResourceID of the token."
        }
      }
    },
    "title": "Handles deposit fees based on Effective rates provided by Fee oracle.",
    "version": 1
  },
  "userdoc": {
    "events": {
      "FeeCollected(address,uint8,uint8,bytes32,uint256,address)": {
        "notice": "This event is emitted when the fee is collected."
      },
      "FeeDistributed(address,address,uint256)": {
        "notice": "This event is emitted when the fee is distributed to an address."
      }
    },
    "kind": "user",
    "methods": {
      "calculateFee(address,uint8,uint8,bytes32,bytes,bytes)": {
        "notice": "Calculates fee for deposit."
      },
      "collectFee(address,uint8,uint8,bytes32,bytes,bytes)": {
        "notice": "Collects fee for deposit."
      },
      "setFeeOracle(address)": {
        "notice": "Sets the fee oracle address for signature verification."
      },
      "setFeeProperties(uint32,uint16)": {
        "notice": "Sets the fee properties."
      },
      "transferFee(bytes32,address[],uint256[])": {
        "notice": "Transfers tokens from the contract to the specified addresses. The parameters addrs and amounts are mapped 1-1. This means that the address at index 0 for addrs will receive the amount of tokens from amounts at index 0."
      }
    },
    "notice": "This contract is intended to be used with the Bridge contract.",
    "version": 1
  }
}