{
  "contractName": "Forwarder",
  "abi": [
    {
      "inputs": [],
      "stateMutability": "nonpayable",
      "type": "constructor"
    },
    {
      "inputs": [
        {
          "internalType": "address",
          "name": "from",
          "type": "address"
        }
      ],
      "name": "getNonce",
      "outputs": [
        {
          "internalType": "uint256",
          "name": "",
          "type": "uint256"
        }
      ],
      "stateMutability": "view",
      "type": "function"
    },
    {
      "inputs": [],
      "name": "getChainId",
      "outputs": [
        {
          "internalType": "uint256",
          "name": "",
          "type": "uint256"
        }
      ],
      "stateMutability": "view",
      "type": "function"
    },
    {
      "inputs": [
        {
          "components": [
            {
              "internalType": "address",
              "name": "from",
              "type": "address"
            },
            {
              "internalType": "address",
              "name": "to",
              "type": "address"
            },
            {
              "internalType": "uint256",
              "name": "value",
              "type": "uint256"
            },
            {
              "internalType": "uint256",
              "name": "gas",
              "type": "uint256"
            },
            {
              "internalType": "uint256",
              "name": "nonce",
              "type": "uint256"
            },
            {
              "internalType": "bytes",
              "name": "data",
              "type": "bytes"
            }
          ],
          "internalType": "struct Forwarder.ForwardRequest",
          "name": "req",
          "type": "tuple"
        },
        {
          "internalType": "bytes",
          "name": "signature",
          "type": "bytes"
        }
      ],
      "name": "verify",
      "outputs": [
        {
          "internalType": "bool",
          "name": "",
          "type": "bool"
        }
      ],
      "stateMutability": "view",
      "type": "function"
    },
    {
      "inputs": [
        {
          "components": [
            {
              "internalType": "address",
              "name": "from",
              "type": "address"
            },
            {
              "internalType": "address",
              "name": "to",
              "type": "address"
            },
            {
              "internalType": "uint256",
              "name": "value",
              "type": "uint256"
            },
            {
              "internalType": "uint256",
              "name": "gas",
              "type": "uint256"
            },
            {
              "internalType": "uint256",
              "name": "nonce",
              "type": "uint256"
            },
            {
              "internalType": "bytes",
              "name": "data",
              "type": "bytes"
            }
          ],
          "internalType": "struct Forwarder.ForwardRequest",
          "name": "req",
          "type": "tuple"
        },
        {
          "internalType": "bytes",
          "name": "signature",
          "type": "bytes"
        }
      ],
      "name": "execute",
      "outputs": [
        {
          "internalType": "bool",
          "name": "",
          "type": "bool"
        },
        {
          "internalType": "bytes",
          "name": "",
          "type": "bytes"
        }
      ],
      "stateMutability": "payable",
      "type": "function"
    }
  ],
  "bytecode": "0x61012060405234801561001157600080fd5b5060408051808201825260098152682337b93bb0b93232b960b91b6020808301918252835180850185526005815264302e302e3160d81b908201529151902060c08181527fae209a0b48f21c054280f2455d32cf309387644879d9acbd8ffc19916381188560e08190524660a081815286517f8b73c3c69bb8fe3d512ecc4cf759cc79239f7b179b0ffacaa9a75d522b39400f818801819052818901969096526060810193909352608080840192909252308382015286518084039091018152919092019094528351939092019290922090526101005260805160a05160c05160e05161010051610b4161012c60003960006104dc0152600061052b015260006105060152600061048a015260006104b30152610b416000f3fe60806040526004361061003f5760003560e01c80632d0335ab146100445780633408e4701461008d57806347153f82146100a0578063bf5d3bdb146100c1575b600080fd5b34801561005057600080fd5b5061007a61005f3660046108c3565b6001600160a01b031660009081526020819052604090205490565b6040519081526020015b60405180910390f35b34801561009957600080fd5b504661007a565b6100b36100ae3660046108f3565b6100f1565b6040516100849291906109c2565b3480156100cd57600080fd5b506100e16100dc3660046108f3565b610290565b6040519015158152602001610084565b60006060610100858585610290565b61016c5760405162461bcd60e51b815260206004820152603260248201527f4d696e696d616c466f727761726465723a207369676e617475726520646f6573604482015271081b9bdd081b585d18da081c995c5d595cdd60721b60648201526084015b60405180910390fd5b61017b608086013560016109fe565b60008061018b60208901896108c3565b6001600160a01b03166001600160a01b03168152602001908152602001600020819055506000808660200160208101906101c591906108c3565b6001600160a01b0316606088013560408901356101e560a08b018b610a24565b6101f260208d018d6108c3565b60405160200161020493929190610a6b565b60408051601f198184030181529082905261021e91610a91565b600060405180830381858888f193505050503d806000811461025c576040519150601f19603f3d011682016040523d82523d6000602084013e610261565b606091505b509092509050610276603f6060890135610aad565b5a1161028457610284610acf565b90969095509350505050565b6000806103a384848080601f01602080910402602001604051908101604052809392919081815260200183838082843760009201919091525061039d92507fdd8f4b70b0f4393e889bd39128a30628a78b61816a9eb8199759e7a349657e489150610300905060208a018a6108c3565b61031060408b0160208c016108c3565b60408b013560608c013560808d013561032c60a08f018f610a24565b60405161033a929190610ae5565b6040805191829003822060208301989098526001600160a01b0396871690820152949093166060850152608084019190915260a083015260c082015260e0810191909152610100016040516020818303038152906040528051906020012061040e565b90610462565b905060808501356000806103ba60208901896108c3565b6001600160a01b03166001600160a01b031681526020019081526020016000205414801561040557506103f060208601866108c3565b6001600160a01b0316816001600160a01b0316145b95945050505050565b600061045c61041b610486565b8360405161190160f01b6020820152602281018390526042810182905260009060620160405160208183030381529060405280519060200120905092915050565b92915050565b60008060006104718585610579565b9150915061047e816105e9565b509392505050565b60007f00000000000000000000000000000000000000000000000000000000000000004614156104d557507f000000000000000000000000000000000000000000000000000000000000000090565b50604080517f00000000000000000000000000000000000000000000000000000000000000006020808301919091527f0000000000000000000000000000000000000000000000000000000000000000828401527f000000000000000000000000000000000000000000000000000000000000000060608301524660808301523060a0808401919091528351808403909101815260c0909201909252805191012090565b6000808251604114156105b05760208301516040840151606085015160001a6105a4878285856107a7565b945094505050506105e2565b8251604014156105da57602083015160408401516105cf868383610894565b9350935050506105e2565b506000905060025b9250929050565b60008160048111156105fd576105fd610af5565b14156106065750565b600181600481111561061a5761061a610af5565b14156106685760405162461bcd60e51b815260206004820152601860248201527f45434453413a20696e76616c6964207369676e617475726500000000000000006044820152606401610163565b600281600481111561067c5761067c610af5565b14156106ca5760405162461bcd60e51b815260206004820152601f60248201527f45434453413a20696e76616c6964207369676e6174757265206c656e677468006044820152606401610163565b60038160048111156106de576106de610af5565b14156107375760405162461bcd60e51b815260206004820152602260248201527f45434453413a20696e76616c6964207369676e6174757265202773272076616c604482015261756560f01b6064820152608401610163565b600481600481111561074b5761074b610af5565b14156107a45760405162461bcd60e51b815260206004820152602260248201527f45434453413a20696e76616c6964207369676e6174757265202776272076616c604482015261756560f01b6064820152608401610163565b50565b6000807f7fffffffffffffffffffffffffffffff5d576e7357a4501ddfe92f46681b20a08311156107de575060009050600361088b565b8460ff16601b141580156107f657508460ff16601c14155b15610807575060009050600461088b565b6040805160008082526020820180845289905260ff881692820192909252606081018690526080810185905260019060a0016020604051602081039080840390855afa15801561085b573d6000803e3d6000fd5b5050604051601f1901519150506001600160a01b0381166108845760006001925092505061088b565b9150600090505b94509492505050565b6000806001600160ff1b03831660ff84901c601b016108b5878288856107a7565b935093505050935093915050565b6000602082840312156108d557600080fd5b81356001600160a01b03811681146108ec57600080fd5b9392505050565b60008060006040848603121561090857600080fd5b833567ffffffffffffffff8082111561092057600080fd5b9085019060c0828803121561093457600080fd5b9093506020850135908082111561094a57600080fd5b818601915086601f83011261095e57600080fd5b81358181111561096d57600080fd5b87602082850101111561097f57600080fd5b6020830194508093505050509250925092565b60005b838110156109ad578181015183820152602001610995565b838111156109bc576000848401525b50505050565b821515815260406020820152600082518060408401526109e9816060850160208701610992565b601f01601f1916919091016060019392505050565b60008219821115610a1f57634e487b7160e01b600052601160045260246000fd5b500190565b6000808335601e19843603018112610a3b57600080fd5b83018035915067ffffffffffffffff821115610a5657600080fd5b6020019150368190038213156105e257600080fd5b8284823760609190911b6bffffffffffffffffffffffff19169101908152601401919050565b60008251610aa3818460208701610992565b9190910192915050565b600082610aca57634e487b7160e01b600052601260045260246000fd5b500490565b634e487b7160e01b600052600160045260246000fd5b8183823760009101908152919050565b634e487b7160e01b600052602160045260246000fdfea2646970667358221220c4bef77c1530516e6b5beca35ae2d82e6ec5a52bc109c9ea2318151c9e48af0c64736f6c634300080b0033",
  "immutableReferences": {
    "3963": [
      {
        "length": 32,
        "start": 1203
      }
    ],
    "3965": [
      {
        "length": 32,
        "start": 1162
      }
    ],
    "3967": [
      {
        "length": 32,
        "start": 1286
      }
    ],
    "3969": [
      {
        "length": 32,
        "start": 1323
      }
    ],
    "3971": [
      {
        "length": 32,
        "start": 1244
      }
    ]
  },
  "source": "// SPDX-License-Identifier: LGPL-3.0-only\npragma solidity 0.8.11;\npragma experimental ABIEncoderV2;\n\nimport \"@openzeppelin/contracts/utils/cryptography/ECDSA.sol\";\nimport \"@openzeppelin/contracts/utils/cryptography/draft-EIP712.sol\";\n\n/**\n    @notice This contract refers to Openzeppelin's MinimalForwarder contract.\n */\ncontract Forwarder is EIP712 {\n    using ECDSA for bytes32;\n\n    struct ForwardRequest {\n        address from;\n        address to;\n        uint256 value;\n        uint256 gas;\n        uint256 nonce;\n        bytes data;\n    }\n\n    bytes32 private constant _TYPEHASH =\n        keccak256(\n            \"ForwardRequest(address from,address to,uint256 value,uint256 gas,uint256 nonce,bytes data)\"\n        );\n\n    mapping(address => uint256) private _nonces;\n\n    constructor() EIP712(\"Forwarder\", \"0.0.1\") {}\n\n    function getNonce(address from) public view returns (uint256) {\n        return _nonces[from];\n    }\n\n    function getChainId() public view returns (uint256) {\n        return block.chainid;\n    }\n\n    function verify(ForwardRequest calldata req, bytes calldata signature)\n        public\n        view\n        returns (bool)\n    {\n        address signer = _hashTypedDataV4(\n            keccak256(\n                abi.encode(\n                    _TYPEHASH,\n                    req.from,\n                    req.to,\n                    req.value,\n                    req.gas,\n                    req.nonce,\n                    keccak256(req.data)\n                )\n            )\n        ).recover(signature);\n        return _nonces[req.from] == req.nonce && signer == req.from;\n    }\n\n    function execute(ForwardRequest calldata req, bytes calldata signature)\n        public\n        payable\n        returns (bool, bytes memory)\n    {\n        require(\n            verify(req, signature),\n            \"MinimalForwarder: signature does not match request\"\n        );\n        _nonces[req.from] = req.nonce + 1;\n\n        (bool success, bytes memory returndata) = req.to.call{\n            gas: req.gas,\n            value: req.value\n        }(abi.encodePacked(req.data, req.from));\n\n        assert(gasleft() > req.gas / 63);\n\n        return (success, returndata);\n    }\n}\n",
  "sourcePath": "/Users/cuimiandashi/Documents/GitHub/chainbridge-solidity-v2.0.0-eth/contracts/Forwarder.sol",
  "compiler": {
    "name": "solc",
    "version": "0.8.11+commit.d7f03943.Emscripten.clang"
  },
  "schemaVersion": "3.4.7",
  "updatedAt": "2022-06-05T16:30:50.809Z",
  "devdoc": {
    "kind": "dev",
    "methods": {},
    "version": 1
  },
  "userdoc": {
    "kind": "user",
    "methods": {},
    "notice": "This contract refers to Openzeppelin's MinimalForwarder contract.",
    "version": 1
  }
}