{
  "contractName": "GenericHandlerUpgradeable",
  "abi": [
    {
      "anonymous": false,
      "inputs": [
        {
          "indexed": false,
          "internalType": "uint8",
          "name": "version",
          "type": "uint8"
        }
      ],
      "name": "Initialized",
      "type": "event"
    },
    {
      "inputs": [],
      "name": "_bridgeAddress",
      "outputs": [
        {
          "internalType": "address",
          "name": "",
          "type": "address"
        }
      ],
      "stateMutability": "view",
      "type": "function"
    },
    {
      "inputs": [
        {
          "internalType": "address",
          "name": "",
          "type": "address"
        }
      ],
      "name": "_contractAddressToDepositFunctionDepositorOffset",
      "outputs": [
        {
          "internalType": "uint256",
          "name": "",
          "type": "uint256"
        }
      ],
      "stateMutability": "view",
      "type": "function"
    },
    {
      "inputs": [
        {
          "internalType": "address",
          "name": "",
          "type": "address"
        }
      ],
      "name": "_contractAddressToDepositFunctionSignature",
      "outputs": [
        {
          "internalType": "bytes4",
          "name": "",
          "type": "bytes4"
        }
      ],
      "stateMutability": "view",
      "type": "function"
    },
    {
      "inputs": [
        {
          "internalType": "address",
          "name": "",
          "type": "address"
        }
      ],
      "name": "_contractAddressToExecuteFunctionSignature",
      "outputs": [
        {
          "internalType": "bytes4",
          "name": "",
          "type": "bytes4"
        }
      ],
      "stateMutability": "view",
      "type": "function"
    },
    {
      "inputs": [
        {
          "internalType": "address",
          "name": "",
          "type": "address"
        }
      ],
      "name": "_contractAddressToResourceID",
      "outputs": [
        {
          "internalType": "bytes32",
          "name": "",
          "type": "bytes32"
        }
      ],
      "stateMutability": "view",
      "type": "function"
    },
    {
      "inputs": [
        {
          "internalType": "address",
          "name": "",
          "type": "address"
        }
      ],
      "name": "_contractWhitelist",
      "outputs": [
        {
          "internalType": "bool",
          "name": "",
          "type": "bool"
        }
      ],
      "stateMutability": "view",
      "type": "function"
    },
    {
      "inputs": [
        {
          "internalType": "bytes32",
          "name": "",
          "type": "bytes32"
        }
      ],
      "name": "_resourceIDToContractAddress",
      "outputs": [
        {
          "internalType": "address",
          "name": "",
          "type": "address"
        }
      ],
      "stateMutability": "view",
      "type": "function"
    },
    {
      "inputs": [
        {
          "internalType": "address",
          "name": "bridgeAddress",
          "type": "address"
        }
      ],
      "name": "initialize",
      "outputs": [],
      "stateMutability": "nonpayable",
      "type": "function"
    },
    {
      "inputs": [
        {
          "internalType": "bytes32",
          "name": "resourceID",
          "type": "bytes32"
        },
        {
          "internalType": "address",
          "name": "contractAddress",
          "type": "address"
        },
        {
          "internalType": "bytes4",
          "name": "depositFunctionSig",
          "type": "bytes4"
        },
        {
          "internalType": "uint256",
          "name": "depositFunctionDepositorOffset",
          "type": "uint256"
        },
        {
          "internalType": "bytes4",
          "name": "executeFunctionSig",
          "type": "bytes4"
        }
      ],
      "name": "setResource",
      "outputs": [],
      "stateMutability": "nonpayable",
      "type": "function"
    },
    {
      "inputs": [
        {
          "internalType": "bytes32",
          "name": "resourceID",
          "type": "bytes32"
        },
        {
          "internalType": "address",
          "name": "contractAddress",
          "type": "address"
        }
      ],
      "name": "removeResource",
      "outputs": [],
      "stateMutability": "nonpayable",
      "type": "function"
    },
    {
      "inputs": [
        {
          "internalType": "bytes32",
          "name": "resourceID",
          "type": "bytes32"
        },
        {
          "internalType": "address",
          "name": "depositor",
          "type": "address"
        },
        {
          "internalType": "bytes",
          "name": "data",
          "type": "bytes"
        }
      ],
      "name": "deposit",
      "outputs": [
        {
          "internalType": "bytes",
          "name": "",
          "type": "bytes"
        }
      ],
      "stateMutability": "nonpayable",
      "type": "function"
    },
    {
      "inputs": [
        {
          "internalType": "bytes32",
          "name": "resourceID",
          "type": "bytes32"
        },
        {
          "internalType": "bytes",
          "name": "data",
          "type": "bytes"
        }
      ],
      "name": "executeProposal",
      "outputs": [],
      "stateMutability": "nonpayable",
      "type": "function"
    }
  ],
  "bytecode": "0x608060405234801561001057600080fd5b50610da6806100206000396000f3fe608060405234801561001057600080fd5b50600436106100b45760003560e01c8063c4d66de811610071578063c4d66de8146101c1578063c54c2a11146101d4578063cb624463146101fd578063de319d9914610220578063e248cff214610233578063ec97d3b41461024657600080fd5b8063318c136e146100b95780637f79bea8146100ef5780638843a70a14610122578063a5c3a98514610150578063a98157511461018c578063b07e54bb146101a1575b600080fd5b6000546100d2906201000090046001600160a01b031681565b6040516001600160a01b0390911681526020015b60405180910390f35b6101126100fd366004610a60565b60066020526000908152604090205460ff1681565b60405190151581526020016100e6565b610142610130366004610a60565b60046020526000908152604090205481565b6040519081526020016100e6565b61017361015e366004610a60565b60056020526000908152604090205460e01b81565b6040516001600160e01b031990911681526020016100e6565b61019f61019a366004610a82565b610266565b005b6101b46101af366004610af7565b6102e6565b6040516100e69190610b81565b61019f6101cf366004610a60565b610541565b6100d26101e2366004610bb4565b6001602052600090815260409020546001600160a01b031681565b61017361020b366004610a60565b60036020526000908152604090205460e01b81565b61019f61022e366004610be5565b61066c565b61019f610241366004610c3c565b610688565b610142610254366004610a60565b60026020526000908152604090205481565b61026e610845565b600091825260016020908152604080842080546001600160a01b03191690556001600160a01b039290921683526002815281832083905560038152818320805463ffffffff19908116909155600482528284208490556005825282842080549091169055600690529020805460ff19169055565b5050565b60606102f0610845565b6000606061030084860186610bb4565b9150846020856103108583610c88565b9261031d93929190610cae565b8080601f01602080910402602001604051908101604052809392919081815260200183838082843760009201829052508b8152600160209081526040808320546001600160a01b031680845260049092529091205494955093925050811590506103eb57828101602001516001600160a01b038916606082901c146103e95760405162461bcd60e51b815260206004820152601f60248201527f696e636f7272656374206465706f7369746f7220696e2074686520646174610060448201526064015b60405180910390fd5b505b6001600160a01b03821660009081526006602052604090205460ff166104235760405162461bcd60e51b81526004016103e090610cd8565b6001600160a01b03821660009081526003602052604090205460e01b6001600160e01b03198116156105335760008185604051602001610464929190610d23565b6040516020818303038152906040529050600080856001600160a01b0316836040516104909190610d54565b6000604051808303816000865af19150503d80600081146104cd576040519150601f19603f3d011682016040523d82523d6000602084013e6104d2565b606091505b5091509150816105245760405162461bcd60e51b815260206004820152601e60248201527f63616c6c20746f20636f6e747261637441646472657373206661696c6564000060448201526064016103e0565b97506105399650505050505050565b50505050505b949350505050565b600054610100900460ff16158080156105615750600054600160ff909116105b8061057b5750303b15801561057b575060005460ff166001145b6105de5760405162461bcd60e51b815260206004820152602e60248201527f496e697469616c697a61626c653a20636f6e747261637420697320616c72656160448201526d191e481a5b9a5d1a585b1a5e995960921b60648201526084016103e0565b6000805460ff191660011790558015610601576000805461ff0019166101001790555b6000805462010000600160b01b031916620100006001600160a01b0385160217905580156102e2576000805461ff0019169055604051600181527f7f26b83ff96e1f2b6a682f133852f6798a09c465da95921460cefb38474024989060200160405180910390a15050565b610674610845565b61068185858585856108a7565b5050505050565b610690610845565b600060606106a083850185610bb4565b9150836020846106b08583610c88565b926106bd93929190610cae565b8080601f0160208091040260200160405190810160405280939291908181526020018383808284376000920182905250898152600160209081526040808320546001600160a01b03168084526006909252909120549495509360ff16925061073a9150505760405162461bcd60e51b81526004016103e090610cd8565b6001600160a01b03811660009081526005602052604090205460e01b6001600160e01b031981161561083c576000818460405160200161077b929190610d23565b60405160208183030381529060405290506000836001600160a01b0316826040516107a69190610d54565b6000604051808303816000865af19150503d80600081146107e3576040519150601f19603f3d011682016040523d82523d6000602084013e6107e8565b606091505b50509050806108395760405162461bcd60e51b815260206004820152601e60248201527f63616c6c20746f20636f6e747261637441646472657373206661696c6564000060448201526064016103e0565b50505b50505050505050565b6000546201000090046001600160a01b031633146108a55760405162461bcd60e51b815260206004820152601e60248201527f73656e646572206d7573742062652062726964676520636f6e7472616374000060448201526064016103e0565b565b6000858152600160205260409020546001600160a01b03161561092b5760405162461bcd60e51b815260206004820152603660248201527f5f7265736f757263654944546f436f6e7472616374416464726573735b7265736044820152756f7572636549445d20213d206164647265737328302960501b60648201526084016103e0565b600085815260016020908152604080832080546001600160a01b0319166001600160a01b03891690811790915583526002909152902054156109d55760405162461bcd60e51b815260206004820152603b60248201527f5f636f6e747261637441646472657373546f5265736f7572636549445b636f6e60448201527f7472616374416464726573735d20213d2062797465733332283029000000000060648201526084016103e0565b6001600160a01b039390931660009081526002602090815260408083209690965560038152858220805463ffffffff1990811660e096871c1790915560048252868320939093556005815285822080549093169490931c9390931790556006905220805460ff19166001179055565b80356001600160a01b0381168114610a5b57600080fd5b919050565b600060208284031215610a7257600080fd5b610a7b82610a44565b9392505050565b60008060408385031215610a9557600080fd5b82359150610aa560208401610a44565b90509250929050565b60008083601f840112610ac057600080fd5b50813567ffffffffffffffff811115610ad857600080fd5b602083019150836020828501011115610af057600080fd5b9250929050565b60008060008060608587031215610b0d57600080fd5b84359350610b1d60208601610a44565b9250604085013567ffffffffffffffff811115610b3957600080fd5b610b4587828801610aae565b95989497509550505050565b60005b83811015610b6c578181015183820152602001610b54565b83811115610b7b576000848401525b50505050565b6020815260008251806020840152610ba0816040850160208701610b51565b601f01601f19169190910160400192915050565b600060208284031215610bc657600080fd5b5035919050565b80356001600160e01b031981168114610a5b57600080fd5b600080600080600060a08688031215610bfd57600080fd5b85359450610c0d60208701610a44565b9350610c1b60408701610bcd565b925060608601359150610c3060808701610bcd565b90509295509295909350565b600080600060408486031215610c5157600080fd5b83359250602084013567ffffffffffffffff811115610c6f57600080fd5b610c7b86828701610aae565b9497909650939450505050565b60008219821115610ca957634e487b7160e01b600052601160045260246000fd5b500190565b60008085851115610cbe57600080fd5b83861115610ccb57600080fd5b5050820193919092039150565b6020808252602b908201527f70726f766964656420636f6e747261637441646472657373206973206e6f742060408201526a1dda1a5d195b1a5cdd195960aa1b606082015260800190565b6001600160e01b0319831681528151600090610d46816004850160208701610b51565b919091016004019392505050565b60008251610d66818460208701610b51565b919091019291505056fea264697066735822122069a46ae0c22d57048ca3e9aa7bc4bbc33b28dc10697d39b94c3d216998429cd264736f6c634300080b0033",
  "immutableReferences": {},
  "source": "// SPDX-License-Identifier: LGPL-3.0-only\npragma solidity 0.8.11;\npragma experimental ABIEncoderV2;\n\nimport \"../interfaces/IGenericHandler.sol\";\nimport \"@openzeppelin/contracts-upgradeable/proxy/utils/Initializable.sol\";\n\n/**\n    @title Handles generic deposits and deposit executions.\n    @author ChainSafe Systems.\n    @notice This contract is intended to be used with the Bridge contract.\n */\ncontract GenericHandlerUpgradeable is IGenericHandler, Initializable {\n    address public _bridgeAddress;\n\n    // resourceID => contract address\n    mapping(bytes32 => address) public _resourceIDToContractAddress;\n\n    // contract address => resourceID\n    mapping(address => bytes32) public _contractAddressToResourceID;\n\n    // contract address => deposit function signature\n    mapping(address => bytes4)\n        public _contractAddressToDepositFunctionSignature;\n\n    // contract address => depositor address position offset in the metadata\n    mapping(address => uint256)\n        public _contractAddressToDepositFunctionDepositorOffset;\n\n    // contract address => execute proposal function signature\n    mapping(address => bytes4)\n        public _contractAddressToExecuteFunctionSignature;\n\n    // token contract address => is whitelisted\n    mapping(address => bool) public _contractWhitelist;\n\n    modifier onlyBridge() {\n        _onlyBridge();\n        _;\n    }\n\n    function _onlyBridge() private view {\n        require(msg.sender == _bridgeAddress, \"sender must be bridge contract\");\n    }\n\n    /**\n        @param bridgeAddress Contract address of previously deployed Bridge.\n     */\n    function initialize(address bridgeAddress) public initializer {\n        _bridgeAddress = bridgeAddress;\n    }\n\n    /**\n        @notice First verifies {_resourceIDToContractAddress}[{resourceID}] and\n        {_contractAddressToResourceID}[{contractAddress}] are not already set,\n        then sets {_resourceIDToContractAddress} with {contractAddress},\n        {_contractAddressToResourceID} with {resourceID},\n        {_contractAddressToDepositFunctionSignature} with {depositFunctionSig},\n        {_contractAddressToDepositFunctionDepositorOffset} with {depositFunctionDepositorOffset},\n        {_contractAddressToExecuteFunctionSignature} with {executeFunctionSig},\n        and {_contractWhitelist} to true for {contractAddress}.\n        @param resourceID ResourceID to be used when making deposits.\n        @param contractAddress Address of contract to be called when a deposit is made and a deposited is executed.\n        @param depositFunctionSig Function signature of method to be called in {contractAddress} when a deposit is made.\n        @param depositFunctionDepositorOffset Depositor address position offset in the metadata, in bytes.\n        @param executeFunctionSig Function signature of method to be called in {contractAddress} when a deposit is executed.\n     */\n    function setResource(\n        bytes32 resourceID,\n        address contractAddress,\n        bytes4 depositFunctionSig,\n        uint256 depositFunctionDepositorOffset,\n        bytes4 executeFunctionSig\n    ) external override onlyBridge {\n        _setResource(\n            resourceID,\n            contractAddress,\n            depositFunctionSig,\n            depositFunctionDepositorOffset,\n            executeFunctionSig\n        );\n    }\n\n    function removeResource(bytes32 resourceID, address contractAddress)\n        external\n        override\n        onlyBridge\n    {\n        _removeResource(resourceID, contractAddress);\n    }\n\n    /**\n        @notice A deposit is initiated by making a deposit in the Bridge contract.\n        @param resourceID ResourceID used to find address of contract to be used for deposit.\n        @param depositor Address of the account making deposit in the Bridge contract.\n        @param data Consists of: {resourceID}, {lenMetaData}, and {metaData} all padded to 32 bytes.\n        @notice Data passed into the function should be constructed as follows:\n        len(data)                              uint256     bytes  0  - 32\n        data                                   bytes       bytes  64 - END\n        @notice {contractAddress} is required to be whitelisted\n        @notice If {_contractAddressToDepositFunctionSignature}[{contractAddress}] is set,\n        {metaData} is expected to consist of needed function arguments.\n        @return the raw bytes returned from the call to {contractAddress}.\n     */\n    function deposit(\n        bytes32 resourceID,\n        address depositor,\n        bytes calldata data\n    ) external onlyBridge returns (bytes memory) {\n        uint256 lenMetadata;\n        bytes memory metadata;\n\n        lenMetadata = abi.decode(data, (uint256));\n        metadata = bytes(data[32:32 + lenMetadata]);\n\n        address contractAddress = _resourceIDToContractAddress[resourceID];\n        uint256 depositorOffset = _contractAddressToDepositFunctionDepositorOffset[\n                contractAddress\n            ];\n        if (depositorOffset > 0) {\n            uint256 metadataDepositor;\n            // Skipping 32 bytes of length prefix and depositorOffset bytes.\n            assembly {\n                metadataDepositor := mload(\n                    add(add(metadata, 32), depositorOffset)\n                )\n            }\n            // metadataDepositor contains 0xdepositorAddressdepositorAddressdeposite************************\n            // Shift it 12 bytes right:   0x000000000000000000000000depositorAddressdepositorAddressdeposite\n            require(\n                depositor == address(uint160(metadataDepositor >> 96)),\n                \"incorrect depositor in the data\"\n            );\n        }\n\n        require(\n            _contractWhitelist[contractAddress],\n            \"provided contractAddress is not whitelisted\"\n        );\n\n        bytes4 sig = _contractAddressToDepositFunctionSignature[\n            contractAddress\n        ];\n        if (sig != bytes4(0)) {\n            bytes memory callData = abi.encodePacked(sig, metadata);\n            (bool success, bytes memory handlerResponse) = contractAddress.call(\n                callData\n            );\n            require(success, \"call to contractAddress failed\");\n            return handlerResponse;\n        }\n    }\n\n    /**\n        @notice Proposal execution should be initiated when a proposal is finalized in the Bridge contract.\n        @param data Consists of {resourceID}, {lenMetaData}, and {metaData}.\n        @notice Data passed into the function should be constructed as follows:\n        len(data)                              uint256     bytes  0  - 32\n        data                                   bytes       bytes  32 - END\n        @notice {contractAddress} is required to be whitelisted\n        @notice If {_contractAddressToExecuteFunctionSignature}[{contractAddress}] is set,\n        {metaData} is expected to consist of needed function arguments.\n     */\n    function executeProposal(bytes32 resourceID, bytes calldata data)\n        external\n        onlyBridge\n    {\n        uint256 lenMetadata;\n        bytes memory metaData;\n\n        lenMetadata = abi.decode(data, (uint256));\n        metaData = bytes(data[32:32 + lenMetadata]);\n\n        address contractAddress = _resourceIDToContractAddress[resourceID];\n        require(\n            _contractWhitelist[contractAddress],\n            \"provided contractAddress is not whitelisted\"\n        );\n\n        bytes4 sig = _contractAddressToExecuteFunctionSignature[\n            contractAddress\n        ];\n        if (sig != bytes4(0)) {\n            bytes memory callData = abi.encodePacked(sig, metaData);\n            (bool success, ) = contractAddress.call(callData);\n            require(success, \"call to contractAddress failed\");\n        }\n    }\n\n    function _setResource(\n        bytes32 resourceID,\n        address contractAddress,\n        bytes4 depositFunctionSig,\n        uint256 depositFunctionDepositorOffset,\n        bytes4 executeFunctionSig\n    ) internal {\n        require(\n            _resourceIDToContractAddress[resourceID] == address(0),\n            \"_resourceIDToContractAddress[resourceID] != address(0)\"\n        );\n        _resourceIDToContractAddress[resourceID] = contractAddress;\n        require(\n            _contractAddressToResourceID[contractAddress] == bytes32(0),\n            \"_contractAddressToResourceID[contractAddress] != bytes32(0)\"\n        );\n        _contractAddressToResourceID[contractAddress] = resourceID;\n\n        _contractAddressToDepositFunctionSignature[\n            contractAddress\n        ] = depositFunctionSig;\n        _contractAddressToDepositFunctionDepositorOffset[\n            contractAddress\n        ] = depositFunctionDepositorOffset;\n        _contractAddressToExecuteFunctionSignature[\n            contractAddress\n        ] = executeFunctionSig;\n\n        _contractWhitelist[contractAddress] = true;\n    }\n\n    function _removeResource(bytes32 resourceID, address contractAddress)\n        internal\n    {\n        delete _resourceIDToContractAddress[resourceID];\n        delete _contractAddressToResourceID[contractAddress];\n        delete _contractAddressToDepositFunctionSignature[contractAddress];\n        delete _contractAddressToDepositFunctionDepositorOffset[\n            contractAddress\n        ];\n        delete _contractAddressToExecuteFunctionSignature[contractAddress];\n        delete _contractWhitelist[contractAddress];\n    }\n}\n",
  "sourcePath": "/Users/cuimiandashi/Documents/GitHub/chainbridge-solidity-v2.0.0-eth/contracts/handlers/GenericHandlerUpgradeable.sol",
  "compiler": {
    "name": "solc",
    "version": "0.8.11+commit.d7f03943.Emscripten.clang"
  },
  "schemaVersion": "3.4.7",
  "updatedAt": "2022-09-22T14:27:40.434Z",
  "devdoc": {
    "author": "ChainSafe Systems.",
    "kind": "dev",
    "methods": {
      "deposit(bytes32,address,bytes)": {
        "params": {
          "data": "Consists of: {resourceID}, {lenMetaData}, and {metaData} all padded to 32 bytes.",
          "depositor": "Address of the account making deposit in the Bridge contract.",
          "resourceID": "ResourceID used to find address of contract to be used for deposit."
        },
        "returns": {
          "_0": "the raw bytes returned from the call to {contractAddress}."
        }
      },
      "executeProposal(bytes32,bytes)": {
        "params": {
          "data": "Consists of {resourceID}, {lenMetaData}, and {metaData}."
        }
      },
      "initialize(address)": {
        "params": {
          "bridgeAddress": "Contract address of previously deployed Bridge."
        }
      },
      "setResource(bytes32,address,bytes4,uint256,bytes4)": {
        "params": {
          "contractAddress": "Address of contract to be called when a deposit is made and a deposited is executed.",
          "depositFunctionDepositorOffset": "Depositor address position offset in the metadata, in bytes.",
          "depositFunctionSig": "Function signature of method to be called in {contractAddress} when a deposit is made.",
          "executeFunctionSig": "Function signature of method to be called in {contractAddress} when a deposit is executed.",
          "resourceID": "ResourceID to be used when making deposits."
        }
      }
    },
    "title": "Handles generic deposits and deposit executions.",
    "version": 1
  },
  "userdoc": {
    "kind": "user",
    "methods": {
      "deposit(bytes32,address,bytes)": {
        "notice": "A deposit is initiated by making a deposit in the Bridge contract.Data passed into the function should be constructed as follows: len(data)                              uint256     bytes  0  - 32 data                                   bytes       bytes  64 - END{contractAddress} is required to be whitelistedIf {_contractAddressToDepositFunctionSignature}[{contractAddress}] is set, {metaData} is expected to consist of needed function arguments."
      },
      "executeProposal(bytes32,bytes)": {
        "notice": "Proposal execution should be initiated when a proposal is finalized in the Bridge contract.Data passed into the function should be constructed as follows: len(data)                              uint256     bytes  0  - 32 data                                   bytes       bytes  32 - END{contractAddress} is required to be whitelistedIf {_contractAddressToExecuteFunctionSignature}[{contractAddress}] is set, {metaData} is expected to consist of needed function arguments."
      },
      "setResource(bytes32,address,bytes4,uint256,bytes4)": {
        "notice": "First verifies {_resourceIDToContractAddress}[{resourceID}] and {_contractAddressToResourceID}[{contractAddress}] are not already set, then sets {_resourceIDToContractAddress} with {contractAddress}, {_contractAddressToResourceID} with {resourceID}, {_contractAddressToDepositFunctionSignature} with {depositFunctionSig}, {_contractAddressToDepositFunctionDepositorOffset} with {depositFunctionDepositorOffset}, {_contractAddressToExecuteFunctionSignature} with {executeFunctionSig}, and {_contractWhitelist} to true for {contractAddress}."
      }
    },
    "notice": "This contract is intended to be used with the Bridge contract.",
    "version": 1
  }
}