{
  "contractName": "HandlerHelpersUpgradeable",
  "abi": [
    {
      "anonymous": false,
      "inputs": [
        {
          "indexed": false,
          "internalType": "uint8",
          "name": "version",
          "type": "uint8"
        }
      ],
      "name": "Initialized",
      "type": "event"
    },
    {
      "inputs": [],
      "name": "_bridgeAddress",
      "outputs": [
        {
          "internalType": "address",
          "name": "",
          "type": "address"
        }
      ],
      "stateMutability": "view",
      "type": "function"
    },
    {
      "inputs": [
        {
          "internalType": "address",
          "name": "",
          "type": "address"
        }
      ],
      "name": "_burnList",
      "outputs": [
        {
          "internalType": "bool",
          "name": "",
          "type": "bool"
        }
      ],
      "stateMutability": "view",
      "type": "function"
    },
    {
      "inputs": [
        {
          "internalType": "address",
          "name": "",
          "type": "address"
        }
      ],
      "name": "_contractWhitelist",
      "outputs": [
        {
          "internalType": "bool",
          "name": "",
          "type": "bool"
        }
      ],
      "stateMutability": "view",
      "type": "function"
    },
    {
      "inputs": [
        {
          "internalType": "bytes32",
          "name": "",
          "type": "bytes32"
        }
      ],
      "name": "_resourceIDToTokenContractAddress",
      "outputs": [
        {
          "internalType": "address",
          "name": "",
          "type": "address"
        }
      ],
      "stateMutability": "view",
      "type": "function"
    },
    {
      "inputs": [
        {
          "internalType": "address",
          "name": "",
          "type": "address"
        }
      ],
      "name": "_tokenContractAddressToResourceID",
      "outputs": [
        {
          "internalType": "bytes32",
          "name": "",
          "type": "bytes32"
        }
      ],
      "stateMutability": "view",
      "type": "function"
    },
    {
      "inputs": [
        {
          "internalType": "address",
          "name": "",
          "type": "address"
        }
      ],
      "name": "isNative",
      "outputs": [
        {
          "internalType": "bool",
          "name": "",
          "type": "bool"
        }
      ],
      "stateMutability": "view",
      "type": "function"
    },
    {
      "inputs": [
        {
          "internalType": "bytes32",
          "name": "resourceID",
          "type": "bytes32"
        },
        {
          "internalType": "address",
          "name": "contractAddress",
          "type": "address"
        }
      ],
      "name": "setResource",
      "outputs": [],
      "stateMutability": "nonpayable",
      "type": "function"
    },
    {
      "inputs": [
        {
          "internalType": "bytes32",
          "name": "resourceID",
          "type": "bytes32"
        },
        {
          "internalType": "address",
          "name": "contractAddress",
          "type": "address"
        }
      ],
      "name": "removeResource",
      "outputs": [],
      "stateMutability": "nonpayable",
      "type": "function"
    },
    {
      "inputs": [
        {
          "internalType": "address",
          "name": "contractAddress",
          "type": "address"
        }
      ],
      "name": "setBurnable",
      "outputs": [],
      "stateMutability": "nonpayable",
      "type": "function"
    },
    {
      "inputs": [
        {
          "internalType": "bytes",
          "name": "data",
          "type": "bytes"
        }
      ],
      "name": "withdraw",
      "outputs": [],
      "stateMutability": "nonpayable",
      "type": "function"
    },
    {
      "inputs": [
        {
          "internalType": "bytes",
          "name": "data",
          "type": "bytes"
        }
      ],
      "name": "withdrawETH",
      "outputs": [],
      "stateMutability": "nonpayable",
      "type": "function"
    },
    {
      "inputs": [
        {
          "internalType": "address",
          "name": "nativeAddress",
          "type": "address"
        },
        {
          "internalType": "bool",
          "name": "_isNative",
          "type": "bool"
        }
      ],
      "name": "setNative",
      "outputs": [],
      "stateMutability": "nonpayable",
      "type": "function"
    }
  ],
  "bytecode": "0x608060405234801561001057600080fd5b506105c4806100206000396000f3fe608060405234801561001057600080fd5b50600436106100b45760003560e01c80637f79bea8116100715780637f79bea814610184578063a9815751146101a7578063ab5c7bf1146100ce578063b2b8b5dd146101ba578063b8fa3736146101dd578063c8ba6c87146101f057600080fd5b806307b7ed99146100b95780630968f264146100ce5780630a6d55d8146100df578063318c136e146101255780636a70d0811461013e578063789d771114610171575b600080fd5b6100cc6100c7366004610424565b61021e565b005b6100cc6100dc36600461045c565b50565b6101086100ed36600461050d565b6001602052600090815260409020546001600160a01b031681565b6040516001600160a01b0390911681526020015b60405180910390f35b600054610108906201000090046001600160a01b031681565b61016161014c366004610424565b60046020526000908152604090205460ff1681565b604051901515815260200161011c565b6100cc61017f366004610526565b61022f565b610161610192366004610424565b60036020526000908152604090205460ff1681565b6100cc6101b5366004610562565b610262565b6101616101c8366004610424565b60056020526000908152604090205460ff1681565b6100cc6101eb366004610562565b6102b1565b6102106101fe366004610424565b60026020526000908152604090205481565b60405190815260200161011c565b610226610309565b6100dc81610370565b610237610309565b6001600160a01b03919091166000908152600560205260409020805460ff1916911515919091179055565b61026a610309565b600091825260016020908152604080842080546001600160a01b03191690556001600160a01b0392909216835260028152818320839055600390529020805460ff19169055565b6102b9610309565b600082815260016020818152604080842080546001600160a01b0319166001600160a01b0387169081179091558452600282528084208690556003909152909120805460ff191690911790555050565b6000546201000090046001600160a01b0316331461036e5760405162461bcd60e51b815260206004820152601e60248201527f73656e646572206d7573742062652062726964676520636f6e7472616374000060448201526064015b60405180910390fd5b565b6001600160a01b03811660009081526003602052604090205460ff166103e45760405162461bcd60e51b8152602060048201526024808201527f70726f766964656420636f6e7472616374206973206e6f742077686974656c696044820152631cdd195960e21b6064820152608401610365565b6001600160a01b03166000908152600460205260409020805460ff19166001179055565b80356001600160a01b038116811461041f57600080fd5b919050565b60006020828403121561043657600080fd5b61043f82610408565b9392505050565b634e487b7160e01b600052604160045260246000fd5b60006020828403121561046e57600080fd5b813567ffffffffffffffff8082111561048657600080fd5b818401915084601f83011261049a57600080fd5b8135818111156104ac576104ac610446565b604051601f8201601f19908116603f011681019083821181831017156104d4576104d4610446565b816040528281528760208487010111156104ed57600080fd5b826020860160208301376000928101602001929092525095945050505050565b60006020828403121561051f57600080fd5b5035919050565b6000806040838503121561053957600080fd5b61054283610408565b91506020830135801515811461055757600080fd5b809150509250929050565b6000806040838503121561057557600080fd5b8235915061058560208401610408565b9050925092905056fea26469706673582212208b5a6f4201787e027e7baf9214341a210762288509228fa179b7ca819ce9af6f64736f6c634300080b0033",
  "immutableReferences": {},
  "source": "// SPDX-License-Identifier: LGPL-3.0-only\npragma solidity 0.8.11;\n\nimport \"../interfaces/IERCHandler.sol\";\nimport \"@openzeppelin/contracts-upgradeable/proxy/utils/Initializable.sol\";\n\n/**\n    @title Function used across handler contracts.\n    @author ChainSafe Systems.\n    @notice This contract is intended to be used with the Bridge contract.\n */\ncontract HandlerHelpersUpgradeable is IERCHandler, Initializable {\n    address public _bridgeAddress;\n\n    // resourceID => token contract address\n    mapping(bytes32 => address) public _resourceIDToTokenContractAddress;\n\n    // token contract address => resourceID\n    mapping(address => bytes32) public _tokenContractAddressToResourceID;\n\n    // token contract address => is whitelisted\n    mapping(address => bool) public _contractWhitelist;\n\n    // token contract address => is burnable\n    mapping(address => bool) public _burnList;\n    // native => bool\n    mapping(address => bool) public isNative;\n\n    modifier onlyBridge() {\n        _onlyBridge();\n        _;\n    }\n\n    /**\n        @param bridgeAddress Contract address of previously deployed Bridge.\n     */\n    function __HandlerHelpers_init(address bridgeAddress) internal initializer {\n        _bridgeAddress = bridgeAddress;\n    }\n\n    function _onlyBridge() private view {\n        require(msg.sender == _bridgeAddress, \"sender must be bridge contract\");\n    }\n\n    /**\n        @notice First verifies {_resourceIDToContractAddress}[{resourceID}] and\n        {_contractAddressToResourceID}[{contractAddress}] are not already set,\n        then sets {_resourceIDToContractAddress} with {contractAddress},\n        {_contractAddressToResourceID} with {resourceID},\n        and {_contractWhitelist} to true for {contractAddress}.\n        @param resourceID ResourceID to be used when making deposits.\n        @param contractAddress Address of contract to be called when a deposit is made and a deposited is executed.\n     */\n    function setResource(bytes32 resourceID, address contractAddress)\n        external\n        override\n        onlyBridge\n    {\n        _setResource(resourceID, contractAddress);\n    }\n\n    function removeResource(bytes32 resourceID, address contractAddress)\n        external\n        override\n        onlyBridge\n    {\n        _removeResource(resourceID, contractAddress);\n    }\n\n    /**\n        @notice First verifies {contractAddress} is whitelisted, then sets {_burnList}[{contractAddress}]\n        to true.\n        @param contractAddress Address of contract to be used when making or executing deposits.\n     */\n    function setBurnable(address contractAddress) external override onlyBridge {\n        _setBurnable(contractAddress);\n    }\n\n    function withdraw(bytes memory data) external virtual override {}\n\n    function withdrawETH(bytes memory data) external virtual override {}\n\n    function _setResource(bytes32 resourceID, address contractAddress)\n        internal\n    {\n        _resourceIDToTokenContractAddress[resourceID] = contractAddress;\n        _tokenContractAddressToResourceID[contractAddress] = resourceID;\n\n        _contractWhitelist[contractAddress] = true;\n    }\n\n    function _removeResource(bytes32 resourceID, address contractAddress)\n        internal\n    {\n        delete _resourceIDToTokenContractAddress[resourceID];\n        delete _tokenContractAddressToResourceID[contractAddress];\n        delete _contractWhitelist[contractAddress];\n    }\n\n    function _setBurnable(address contractAddress) internal {\n        require(\n            _contractWhitelist[contractAddress],\n            \"provided contract is not whitelisted\"\n        );\n        _burnList[contractAddress] = true;\n    }\n\n    function setNative(address nativeAddress, bool _isNative)\n        external\n        override\n        onlyBridge\n    {\n        isNative[nativeAddress] = _isNative;\n    }\n}\n",
  "sourcePath": "/Users/cuimiandashi/Documents/GitHub/chainbridge-solidity-v2.0.0-eth/contracts/handlers/HandlerHelpersUpgradeable.sol",
  "compiler": {
    "name": "solc",
    "version": "0.8.11+commit.d7f03943.Emscripten.clang"
  },
  "schemaVersion": "3.4.7",
  "updatedAt": "2022-09-22T14:27:40.444Z",
  "devdoc": {
    "author": "ChainSafe Systems.",
    "kind": "dev",
    "methods": {
      "setBurnable(address)": {
        "params": {
          "contractAddress": "Address of contract to be used when making or executing deposits."
        }
      },
      "setResource(bytes32,address)": {
        "params": {
          "contractAddress": "Address of contract to be called when a deposit is made and a deposited is executed.",
          "resourceID": "ResourceID to be used when making deposits."
        }
      },
      "withdraw(bytes)": {
        "params": {
          "data": "ABI-encoded withdrawal params relevant to the handler."
        }
      }
    },
    "stateVariables": {
      "_resourceIDToTokenContractAddress": {
        "params": {
          "resourceID": "ResourceID to be used."
        },
        "return": "address The {tokenContractAddress} that is currently set for the resourceID.",
        "returns": {
          "_0": "address The {tokenContractAddress} that is currently set for the resourceID."
        }
      }
    },
    "title": "Function used across handler contracts.",
    "version": 1
  },
  "userdoc": {
    "kind": "user",
    "methods": {
      "_resourceIDToTokenContractAddress(bytes32)": {
        "notice": "Exposing getter for {_resourceIDToTokenContractAddress}."
      },
      "setBurnable(address)": {
        "notice": "First verifies {contractAddress} is whitelisted, then sets {_burnList}[{contractAddress}] to true."
      },
      "setResource(bytes32,address)": {
        "notice": "First verifies {_resourceIDToContractAddress}[{resourceID}] and {_contractAddressToResourceID}[{contractAddress}] are not already set, then sets {_resourceIDToContractAddress} with {contractAddress}, {_contractAddressToResourceID} with {resourceID}, and {_contractWhitelist} to true for {contractAddress}."
      },
      "withdraw(bytes)": {
        "notice": "Withdraw funds from ERC safes."
      }
    },
    "notice": "This contract is intended to be used with the Bridge contract.",
    "version": 1
  }
}