{
  "contractName": "Pausable",
  "abi": [
    {
      "inputs": [],
      "stateMutability": "nonpayable",
      "type": "constructor"
    },
    {
      "anonymous": false,
      "inputs": [
        {
          "indexed": false,
          "internalType": "address",
          "name": "account",
          "type": "address"
        }
      ],
      "name": "Paused",
      "type": "event"
    },
    {
      "anonymous": false,
      "inputs": [
        {
          "indexed": false,
          "internalType": "address",
          "name": "account",
          "type": "address"
        }
      ],
      "name": "Unpaused",
      "type": "event"
    },
    {
      "inputs": [],
      "name": "paused",
      "outputs": [
        {
          "internalType": "bool",
          "name": "",
          "type": "bool"
        }
      ],
      "stateMutability": "view",
      "type": "function"
    }
  ],
  "bytecode": "0x6080604052348015600f57600080fd5b506000805460ff19169055607d806100286000396000f3fe6080604052348015600f57600080fd5b506004361060285760003560e01c80635c975abb14602d575b600080fd5b60005460ff16604051901515815260200160405180910390f3fea264697066735822122081a9324393d83779b66c5fcea996c234d5588f5076dc65a9920e7c7629487b1664736f6c634300080b0033",
  "immutableReferences": {},
  "source": "// SPDX-License-Identifier: MIT\n\npragma solidity 0.8.11;\n\n\n/**\n * @dev Contract module which allows children to implement an emergency stop\n * mechanism that can be triggered by an authorized account.\n *\n * This is a stripped down version of Open zeppelin's Pausable contract.\n * https://github.com/OpenZeppelin/openzeppelin-contracts/blob/master/contracts/utils/EnumerableSet.sol\n *\n */\ncontract Pausable {\n    /**\n     * @dev Emitted when the pause is triggered by `account`.\n     */\n    event Paused(address account);\n\n    /**\n     * @dev Emitted when the pause is lifted by `account`.\n     */\n    event Unpaused(address account);\n\n    bool private _paused;\n\n    /**\n     * @dev Initializes the contract in unpaused state.\n     */\n    constructor () {\n        _paused = false;\n    }\n\n    /**\n     * @dev Returns true if the contract is paused, and false otherwise.\n     */\n    function paused() public view returns (bool) {\n        return _paused;\n    }\n\n    /**\n     * @dev Modifier to make a function callable only when the contract is not paused.\n     *\n     * Requirements:\n     *\n     * - The contract must not be paused.\n     */\n    modifier whenNotPaused() {\n        _whenNotPaused();\n        _;\n    }\n\n    function _whenNotPaused() private view {\n        require(!_paused, \"Pausable: paused\");\n    }\n\n    /**\n     * @dev Modifier to make a function callable only when the contract is not paused.\n     *\n     * Requirements:\n     *\n     * - The contract must not be paused.\n     */\n    modifier whenPaused() {\n        _whenPaused();\n        _;\n    }\n\n    function _whenPaused() private view {\n        require(_paused, \"Pausable: not paused\");\n    }\n\n    /**\n     * @dev Triggers stopped state.\n     * @param sender Address which executes pause.\n     *\n     * Requirements:\n     *\n     * - The contract must not be paused.\n     */\n    function _pause(address sender) internal virtual whenNotPaused {\n        _paused = true;\n        emit Paused(sender);\n    }\n\n    /**\n     * @dev Returns to normal state.\n     * @param sender Address which executes unpause.\n     *\n     * Requirements:\n     *\n     * - The contract must be paused.\n     */\n    function _unpause(address sender) internal virtual whenPaused {\n        _paused = false;\n        emit Unpaused(sender);\n    }\n}",
  "sourcePath": "/Users/cuimiandashi/Documents/GitHub/chainbridge-solidity-v2.0.0-eth/contracts/utils/Pausable.sol",
  "compiler": {
    "name": "solc",
    "version": "0.8.11+commit.d7f03943.Emscripten.clang"
  },
  "schemaVersion": "3.4.7",
  "updatedAt": "2022-06-05T16:30:50.713Z",
  "devdoc": {
    "details": "Contract module which allows children to implement an emergency stop mechanism that can be triggered by an authorized account. This is a stripped down version of Open zeppelin's Pausable contract. https://github.com/OpenZeppelin/openzeppelin-contracts/blob/master/contracts/utils/EnumerableSet.sol",
    "events": {
      "Paused(address)": {
        "details": "Emitted when the pause is triggered by `account`."
      },
      "Unpaused(address)": {
        "details": "Emitted when the pause is lifted by `account`."
      }
    },
    "kind": "dev",
    "methods": {
      "constructor": {
        "details": "Initializes the contract in unpaused state."
      },
      "paused()": {
        "details": "Returns true if the contract is paused, and false otherwise."
      }
    },
    "version": 1
  },
  "userdoc": {
    "kind": "user",
    "methods": {},
    "version": 1
  }
}