{
  "contractName": "Signatures",
  "abi": [
    {
      "inputs": [],
      "stateMutability": "nonpayable",
      "type": "constructor"
    },
    {
      "anonymous": false,
      "inputs": [
        {
          "indexed": true,
          "internalType": "bytes32",
          "name": "role",
          "type": "bytes32"
        },
        {
          "indexed": true,
          "internalType": "address",
          "name": "account",
          "type": "address"
        },
        {
          "indexed": true,
          "internalType": "address",
          "name": "sender",
          "type": "address"
        }
      ],
      "name": "RoleGranted",
      "type": "event"
    },
    {
      "anonymous": false,
      "inputs": [
        {
          "indexed": true,
          "internalType": "bytes32",
          "name": "role",
          "type": "bytes32"
        },
        {
          "indexed": true,
          "internalType": "address",
          "name": "account",
          "type": "address"
        },
        {
          "indexed": true,
          "internalType": "address",
          "name": "sender",
          "type": "address"
        }
      ],
      "name": "RoleRevoked",
      "type": "event"
    },
    {
      "anonymous": false,
      "inputs": [
        {
          "indexed": true,
          "internalType": "uint8",
          "name": "originDomainID",
          "type": "uint8"
        },
        {
          "indexed": false,
          "internalType": "uint64",
          "name": "depositNonce",
          "type": "uint64"
        },
        {
          "indexed": true,
          "internalType": "bytes32",
          "name": "resourceID",
          "type": "bytes32"
        },
        {
          "indexed": false,
          "internalType": "bytes",
          "name": "data",
          "type": "bytes"
        },
        {
          "indexed": false,
          "internalType": "bytes",
          "name": "signature",
          "type": "bytes"
        }
      ],
      "name": "SignturePass",
      "type": "event"
    },
    {
      "anonymous": false,
      "inputs": [
        {
          "indexed": true,
          "internalType": "uint8",
          "name": "originDomainID",
          "type": "uint8"
        },
        {
          "indexed": false,
          "internalType": "uint64",
          "name": "depositNonce",
          "type": "uint64"
        },
        {
          "indexed": true,
          "internalType": "bytes32",
          "name": "resourceID",
          "type": "bytes32"
        },
        {
          "indexed": false,
          "internalType": "bytes",
          "name": "data",
          "type": "bytes"
        },
        {
          "indexed": false,
          "internalType": "bytes",
          "name": "signature",
          "type": "bytes"
        }
      ],
      "name": "SubmitSignature",
      "type": "event"
    },
    {
      "inputs": [],
      "name": "DEFAULT_ADMIN_ROLE",
      "outputs": [
        {
          "internalType": "bytes32",
          "name": "",
          "type": "bytes32"
        }
      ],
      "stateMutability": "view",
      "type": "function"
    },
    {
      "inputs": [],
      "name": "PERMIT_TYPEHASH",
      "outputs": [
        {
          "internalType": "bytes32",
          "name": "",
          "type": "bytes32"
        }
      ],
      "stateMutability": "view",
      "type": "function"
    },
    {
      "inputs": [],
      "name": "RELAYER_ROLE",
      "outputs": [
        {
          "internalType": "bytes32",
          "name": "",
          "type": "bytes32"
        }
      ],
      "stateMutability": "view",
      "type": "function"
    },
    {
      "inputs": [],
      "name": "_TYPE_HASH",
      "outputs": [
        {
          "internalType": "bytes32",
          "name": "",
          "type": "bytes32"
        }
      ],
      "stateMutability": "view",
      "type": "function"
    },
    {
      "inputs": [
        {
          "internalType": "uint8",
          "name": "",
          "type": "uint8"
        }
      ],
      "name": "_relayerThreshold",
      "outputs": [
        {
          "internalType": "uint8",
          "name": "",
          "type": "uint8"
        }
      ],
      "stateMutability": "view",
      "type": "function"
    },
    {
      "inputs": [
        {
          "internalType": "bytes32",
          "name": "",
          "type": "bytes32"
        }
      ],
      "name": "_resourceIDToHandlerAddress",
      "outputs": [
        {
          "internalType": "address",
          "name": "",
          "type": "address"
        }
      ],
      "stateMutability": "view",
      "type": "function"
    },
    {
      "inputs": [
        {
          "internalType": "bytes32",
          "name": "role",
          "type": "bytes32"
        }
      ],
      "name": "getRoleAdmin",
      "outputs": [
        {
          "internalType": "bytes32",
          "name": "",
          "type": "bytes32"
        }
      ],
      "stateMutability": "view",
      "type": "function"
    },
    {
      "inputs": [
        {
          "internalType": "bytes32",
          "name": "role",
          "type": "bytes32"
        },
        {
          "internalType": "uint256",
          "name": "index",
          "type": "uint256"
        }
      ],
      "name": "getRoleMember",
      "outputs": [
        {
          "internalType": "address",
          "name": "",
          "type": "address"
        }
      ],
      "stateMutability": "view",
      "type": "function"
    },
    {
      "inputs": [
        {
          "internalType": "bytes32",
          "name": "role",
          "type": "bytes32"
        }
      ],
      "name": "getRoleMemberCount",
      "outputs": [
        {
          "internalType": "uint256",
          "name": "",
          "type": "uint256"
        }
      ],
      "stateMutability": "view",
      "type": "function"
    },
    {
      "inputs": [
        {
          "internalType": "bytes32",
          "name": "role",
          "type": "bytes32"
        },
        {
          "internalType": "address",
          "name": "account",
          "type": "address"
        }
      ],
      "name": "getRoleMemberIndex",
      "outputs": [
        {
          "internalType": "uint256",
          "name": "",
          "type": "uint256"
        }
      ],
      "stateMutability": "view",
      "type": "function"
    },
    {
      "inputs": [
        {
          "internalType": "bytes32",
          "name": "role",
          "type": "bytes32"
        },
        {
          "internalType": "address",
          "name": "account",
          "type": "address"
        }
      ],
      "name": "grantRole",
      "outputs": [],
      "stateMutability": "nonpayable",
      "type": "function"
    },
    {
      "inputs": [
        {
          "internalType": "bytes32",
          "name": "role",
          "type": "bytes32"
        },
        {
          "internalType": "address",
          "name": "account",
          "type": "address"
        }
      ],
      "name": "hasRole",
      "outputs": [
        {
          "internalType": "bool",
          "name": "",
          "type": "bool"
        }
      ],
      "stateMutability": "view",
      "type": "function"
    },
    {
      "inputs": [
        {
          "internalType": "bytes32",
          "name": "role",
          "type": "bytes32"
        },
        {
          "internalType": "address",
          "name": "account",
          "type": "address"
        }
      ],
      "name": "renounceRole",
      "outputs": [],
      "stateMutability": "nonpayable",
      "type": "function"
    },
    {
      "inputs": [
        {
          "internalType": "bytes32",
          "name": "role",
          "type": "bytes32"
        },
        {
          "internalType": "address",
          "name": "account",
          "type": "address"
        }
      ],
      "name": "revokeRole",
      "outputs": [],
      "stateMutability": "nonpayable",
      "type": "function"
    },
    {
      "inputs": [
        {
          "internalType": "bytes32",
          "name": "",
          "type": "bytes32"
        },
        {
          "internalType": "uint256",
          "name": "",
          "type": "uint256"
        }
      ],
      "name": "signatures",
      "outputs": [
        {
          "internalType": "bytes",
          "name": "",
          "type": "bytes"
        }
      ],
      "stateMutability": "view",
      "type": "function"
    },
    {
      "inputs": [
        {
          "internalType": "uint8",
          "name": "domainID",
          "type": "uint8"
        },
        {
          "internalType": "uint8",
          "name": "destinationDomainID",
          "type": "uint8"
        },
        {
          "internalType": "address",
          "name": "destinationBridge",
          "type": "address"
        },
        {
          "internalType": "uint64",
          "name": "depositNonce",
          "type": "uint64"
        },
        {
          "internalType": "bytes32",
          "name": "resourceID",
          "type": "bytes32"
        },
        {
          "internalType": "bytes",
          "name": "data",
          "type": "bytes"
        },
        {
          "internalType": "bytes",
          "name": "signature",
          "type": "bytes"
        }
      ],
      "name": "checkSignature",
      "outputs": [
        {
          "internalType": "bool",
          "name": "",
          "type": "bool"
        }
      ],
      "stateMutability": "view",
      "type": "function"
    },
    {
      "inputs": [
        {
          "internalType": "address",
          "name": "handlerAddress",
          "type": "address"
        },
        {
          "internalType": "bytes32",
          "name": "resourceID",
          "type": "bytes32"
        },
        {
          "internalType": "address",
          "name": "tokenAddress",
          "type": "address"
        }
      ],
      "name": "adminSetResource",
      "outputs": [],
      "stateMutability": "nonpayable",
      "type": "function"
    },
    {
      "inputs": [
        {
          "internalType": "uint8",
          "name": "destinationDomainID",
          "type": "uint8"
        },
        {
          "internalType": "uint256",
          "name": "newThreshold",
          "type": "uint256"
        }
      ],
      "name": "adminChangeRelayerThreshold",
      "outputs": [],
      "stateMutability": "nonpayable",
      "type": "function"
    },
    {
      "inputs": [
        {
          "internalType": "uint8",
          "name": "originDomainID",
          "type": "uint8"
        },
        {
          "internalType": "uint8",
          "name": "destinationDomainID",
          "type": "uint8"
        },
        {
          "internalType": "address",
          "name": "destinationBridge",
          "type": "address"
        },
        {
          "internalType": "uint64",
          "name": "depositNonce",
          "type": "uint64"
        },
        {
          "internalType": "bytes32",
          "name": "resourceID",
          "type": "bytes32"
        },
        {
          "internalType": "bytes",
          "name": "data",
          "type": "bytes"
        },
        {
          "internalType": "bytes",
          "name": "signature",
          "type": "bytes"
        }
      ],
      "name": "submitSignature",
      "outputs": [],
      "stateMutability": "nonpayable",
      "type": "function"
    },
    {
      "inputs": [
        {
          "internalType": "uint8",
          "name": "domainID",
          "type": "uint8"
        },
        {
          "internalType": "uint64",
          "name": "depositNonce",
          "type": "uint64"
        },
        {
          "internalType": "bytes32",
          "name": "resourceID",
          "type": "bytes32"
        },
        {
          "internalType": "bytes",
          "name": "data",
          "type": "bytes"
        }
      ],
      "name": "getSignatures",
      "outputs": [
        {
          "internalType": "bytes[]",
          "name": "",
          "type": "bytes[]"
        }
      ],
      "stateMutability": "view",
      "type": "function"
    }
  ],
  "bytecode": "0x600c6080526b5065726d697442726964676560a01b60a0527f058443738ec3641a3233a9f285e16671e4ad9755445580d761017e695f75052b600155610100604052600360c052620312e360ec1b60e0527fe6bbd6277e1bf288eed5e8d1780f9a50b239e86b153736bceebccf4ea79d90b36002553480156200008157600080fd5b506200008f60003362000095565b6200017e565b620000a18282620000a5565b5050565b600082815260208181526040909120620000ca91839062000d066200010c821b17901c565b15620000a15760405133906001600160a01b0383169084907f2f8788117e7eff1d82e926ec794901d17c78024a50270940304540a733656f0d90600090a45050565b600062000123836001600160a01b0384166200012c565b90505b92915050565b6000818152600183016020526040812054620001755750815460018181018455600084815260208082209093018490558454848252828601909352604090209190915562000126565b50600062000126565b611987806200018e6000396000f3fe608060405234801561001057600080fd5b506004361061012c5760003560e01c8063861fd043116100ad578063aa44739d11610071578063aa44739d146102ef578063ca15c87314610324578063cb10f21514610337578063d547741f1461034a578063e5787a751461035d57600080fd5b8063861fd043146102875780639010d07c1461029a57806391d14854146102ad578063926d7d7f146102c0578063a217fddf146102e757600080fd5b806336568abe116100f457806336568abe146101d95780634e0df3f6146101ec5780635d2dab0b146101ff57806374400fd11461022657806384db809f1461024657600080fd5b80631f241eca14610131578063248a9ca3146101595780632f2ff15d1461018a5780632fda959e1461019f57806330adf81f146101b2575b600080fd5b61014461013f366004611530565b61037d565b60405190151581526020015b60405180910390f35b61017c6101673660046115ee565b60009081526020819052604090206002015490565b604051908152602001610150565b61019d610198366004611607565b61052f565b005b61019d6101ad366004611633565b6105c2565b61017c7fc4cb5d35714699d6e85b9562b644e60393b418d974a5c1dd8efaadac37a142c581565b61019d6101e7366004611607565b610646565b61017c6101fa366004611607565b6106c0565b61017c7f8b73c3c69bb8fe3d512ecc4cf759cc79239f7b179b0ffacaa9a75d522b39400f81565b61023961023436600461165d565b6106eb565b60405161015091906116cc565b61026f6102543660046115ee565b6004602052600090815260409020546001600160a01b031681565b6040516001600160a01b039091168152602001610150565b61019d610295366004611530565b6107a4565b61026f6102a836600461165d565b610a5c565b6101446102bb366004611607565b610a7b565b61017c7fe2b7fb3b832174769106daebcfd6d1970523240dda11281102db9363b83b0dc481565b61017c600081565b6103126102fd3660046116df565b60056020526000908152604090205460ff1681565b60405160ff9091168152602001610150565b61017c6103323660046115ee565b610a93565b61019d6103453660046116fa565b610aaa565b61019d610358366004611607565b610b30565b61037061036b366004611736565b610bb1565b60405161015091906117a5565b6000807fc4cb5d35714699d6e85b9562b644e60393b418d974a5c1dd8efaadac37a142c58b898989896040516103b4929190611807565b6040519081900381206103f8959493929160200194855260ff93909316602085015267ffffffffffffffff9190911660408401526060830152608082015260a00190565b60408051601f1981840301815282825280516020918201206001546002547f8b73c3c69bb8fe3d512ecc4cf759cc79239f7b179b0ffacaa9a75d522b39400f8685015285850191909152606085015260ff8e1660808501526001600160a01b038d1660a0808601919091528351808603909101815260c08501845280519083012061190160f01b60e086015260e285015261010280850182905283518086039091018152610122909401909252825192019190912090915060006104f28287878080601f016020809104026020016040519081016040528093929190818152602001838380828437600092019190915250610d1b92505050565b905061051e7fe2b7fb3b832174769106daebcfd6d1970523240dda11281102db9363b83b0dc482610a7b565b9d9c50505050505050505050505050565b60008281526020819052604090206002015461054b9033610a7b565b6105b45760405162461bcd60e51b815260206004820152602f60248201527f416363657373436f6e74726f6c3a2073656e646572206d75737420626520616e60448201526e0818591b5a5b881d1bc819dc985b9d608a1b60648201526084015b60405180910390fd5b6105be8282610d3f565b5050565b6105cd600033610a7b565b6106195760405162461bcd60e51b815260206004820152601e60248201527f73656e64657220646f65736e277420686176652061646d696e20726f6c65000060448201526064016105ab565b61062281610d98565b60ff9283166000908152600560205260409020805460ff1916919093161790915550565b6001600160a01b03811633146106b65760405162461bcd60e51b815260206004820152602f60248201527f416363657373436f6e74726f6c3a2063616e206f6e6c792072656e6f756e636560448201526e103937b632b9903337b91039b2b63360891b60648201526084016105ab565b6105be8282610def565b6000828152602081815260408083206001600160a01b03851684526001019091529020545b92915050565b6006602052816000526040600020818154811061070757600080fd5b9060005260206000200160009150915050805461072390611817565b80601f016020809104026020016040519081016040528092919081815260200182805461074f90611817565b801561079c5780601f106107715761010080835404028352916020019161079c565b820191906000526020600020905b81548152906001019060200180831161077f57829003601f168201915b505050505081565b60008581526004602090815260408083205490516001600160a01b0390911692916107d59184918991899101611852565b60405160208183030381529060405280519060200120905060006107fa8c8a84610e48565b90506001600160a01b0383166108525760405162461bcd60e51b815260206004820152601960248201527f6e6f2068616e646c657220666f72207265736f7572636549440000000000000060448201526064016105ab565b6000815160048111156108675761086761187e565b146108b45760405162461bcd60e51b815260206004820152601b60248201527f50726f706f73616c537461747573206e6f7420696e616374697665000000000060448201526064016105ab565b6108c58c8c8c8c8c8c8c8c8c61037d565b6109055760405162461bcd60e51b8152602060048201526011602482015270696e76616c6964207369676e617475726560781b60448201526064016105ab565b60008c8a8a8a8a60405161091a929190611807565b6040519081900381206109579493929160200160ff94909416845267ffffffffffffffff9290921660208401526040830152606082015260800190565b60408051601f19818403018152918152815160209283012060008181526006845291822080546001810182559083529290912090925061099991018787611419565b50888d60ff167f61cb4bceda51bce60b1d6ed6a15c758737872a125214641da0ae8bb0f2fd23118c8b8b8b8b6040516109d69594939291906118bd565b60405180910390a360ff808d16600090815260056020908152604080832054858452600690925290912054911611610a4d57888d60ff167f34a202d5d1eb96571e8f79cd5ad505695728f56e0de6df829f702e6d4fc909eb8c8b8b8b8b604051610a449594939291906118bd565b60405180910390a35b50505050505050505050505050565b6000828152602081905260408120610a749083610f16565b9392505050565b6000828152602081905260408120610a749083610f22565b60008181526020819052604081206106e590610f44565b610ab5600033610a7b565b610b015760405162461bcd60e51b815260206004820152601e60248201527f73656e64657220646f65736e277420686176652061646d696e20726f6c65000060448201526064016105ab565b50600090815260046020526040902080546001600160a01b0319166001600160a01b0392909216919091179055565b600082815260208190526040902060020154610b4c9033610a7b565b6106b65760405162461bcd60e51b815260206004820152603060248201527f416363657373436f6e74726f6c3a2073656e646572206d75737420626520616e60448201526f2061646d696e20746f207265766f6b6560801b60648201526084016105ab565b6060600660008787878787604051610bca929190611807565b604051908190038120610c079493929160200160ff94909416845267ffffffffffffffff9290921660208401526040830152606082015260800190565b604051602081830303815290604052805190602001208152602001908152602001600020805480602002602001604051908101604052809291908181526020016000905b82821015610cf7578382906000526020600020018054610c6a90611817565b80601f0160208091040260200160405190810160405280929190818152602001828054610c9690611817565b8015610ce35780601f10610cb857610100808354040283529160200191610ce3565b820191906000526020600020905b815481529060010190602001808311610cc657829003601f168201915b505050505081526020019060010190610c4b565b50505050905095945050505050565b6000610a74836001600160a01b038416610f4e565b6000806000610d2a8585610f9d565b91509150610d378161100d565b509392505050565b6000828152602081905260409020610d579082610d06565b156105be5760405133906001600160a01b0383169084907f2f8788117e7eff1d82e926ec794901d17c78024a50270940304540a733656f0d90600090a45050565b60006101008210610deb5760405162461bcd60e51b815260206004820152601c60248201527f76616c756520646f6573206e6f742066697420696e203820626974730000000060448201526064016105ab565b5090565b6000828152602081905260409020610e0790826111cb565b156105be5760405133906001600160a01b0383169084907ff6391f5c32d9c69d2a47ea670b442974b53935d1edc7fd64eb21e047a839171b90600090a45050565b60408051608081018252600080825260208201819052918101829052606081019190915260ff848116600885901b68ffffffffffffffff00161760008181526003602090815260408083208784529091529081902081516080810190925280549293919290918391166004811115610ec257610ec261187e565b6004811115610ed357610ed361187e565b8152905461010081046001600160c81b03166020830152600160d01b810460ff166040830152600160d81b900464ffffffffff1660609091015295945050505050565b6000610a7483836111e0565b6001600160a01b03811660009081526001830160205260408120541515610a74565b60006106e5825490565b6000818152600183016020526040812054610f95575081546001818101845560008481526020808220909301849055845484825282860190935260409020919091556106e5565b5060006106e5565b600080825160411415610fd45760208301516040840151606085015160001a610fc88782858561120a565b94509450505050611006565b825160401415610ffe5760208301516040840151610ff38683836112f7565b935093505050611006565b506000905060025b9250929050565b60008160048111156110215761102161187e565b141561102a5750565b600181600481111561103e5761103e61187e565b141561108c5760405162461bcd60e51b815260206004820152601860248201527f45434453413a20696e76616c6964207369676e6174757265000000000000000060448201526064016105ab565b60028160048111156110a0576110a061187e565b14156110ee5760405162461bcd60e51b815260206004820152601f60248201527f45434453413a20696e76616c6964207369676e6174757265206c656e6774680060448201526064016105ab565b60038160048111156111025761110261187e565b141561115b5760405162461bcd60e51b815260206004820152602260248201527f45434453413a20696e76616c6964207369676e6174757265202773272076616c604482015261756560f01b60648201526084016105ab565b600481600481111561116f5761116f61187e565b14156111c85760405162461bcd60e51b815260206004820152602260248201527f45434453413a20696e76616c6964207369676e6174757265202776272076616c604482015261756560f01b60648201526084016105ab565b50565b6000610a74836001600160a01b038416611326565b60008260000182815481106111f7576111f7611900565b9060005260206000200154905092915050565b6000807f7fffffffffffffffffffffffffffffff5d576e7357a4501ddfe92f46681b20a083111561124157506000905060036112ee565b8460ff16601b1415801561125957508460ff16601c14155b1561126a57506000905060046112ee565b6040805160008082526020820180845289905260ff881692820192909252606081018690526080810185905260019060a0016020604051602081039080840390855afa1580156112be573d6000803e3d6000fd5b5050604051601f1901519150506001600160a01b0381166112e7576000600192509250506112ee565b9150600090505b94509492505050565b6000806001600160ff1b03831660ff84901c601b016113188782888561120a565b935093505050935093915050565b6000818152600183016020526040812054801561140f57600061134a600183611916565b855490915060009061135e90600190611916565b90508181146113c357600086600001828154811061137e5761137e611900565b90600052602060002001549050808760000184815481106113a1576113a1611900565b6000918252602080832090910192909255918252600188019052604090208390555b85548690806113d4576113d461193b565b6001900381819060005260206000200160009055905585600101600086815260200190815260200160002060009055600193505050506106e5565b60009150506106e5565b82805461142590611817565b90600052602060002090601f016020900481019282611447576000855561148d565b82601f106114605782800160ff1982351617855561148d565b8280016001018555821561148d579182015b8281111561148d578235825591602001919060010190611472565b50610deb9291505b80821115610deb5760008155600101611495565b803560ff811681146114ba57600080fd5b919050565b80356001600160a01b03811681146114ba57600080fd5b803567ffffffffffffffff811681146114ba57600080fd5b60008083601f84011261150057600080fd5b50813567ffffffffffffffff81111561151857600080fd5b60208301915083602082850101111561100657600080fd5b600080600080600080600080600060e08a8c03121561154e57600080fd5b6115578a6114a9565b985061156560208b016114a9565b975061157360408b016114bf565b965061158160608b016114d6565b955060808a0135945060a08a013567ffffffffffffffff808211156115a557600080fd5b6115b18d838e016114ee565b909650945060c08c01359150808211156115ca57600080fd5b506115d78c828d016114ee565b915080935050809150509295985092959850929598565b60006020828403121561160057600080fd5b5035919050565b6000806040838503121561161a57600080fd5b8235915061162a602084016114bf565b90509250929050565b6000806040838503121561164657600080fd5b61164f836114a9565b946020939093013593505050565b6000806040838503121561167057600080fd5b50508035926020909101359150565b6000815180845260005b818110156116a557602081850181015186830182015201611689565b818111156116b7576000602083870101525b50601f01601f19169290920160200192915050565b602081526000610a74602083018461167f565b6000602082840312156116f157600080fd5b610a74826114a9565b60008060006060848603121561170f57600080fd5b611718846114bf565b92506020840135915061172d604085016114bf565b90509250925092565b60008060008060006080868803121561174e57600080fd5b611757866114a9565b9450611765602087016114d6565b935060408601359250606086013567ffffffffffffffff81111561178857600080fd5b611794888289016114ee565b969995985093965092949392505050565b6000602080830181845280855180835260408601915060408160051b870101925083870160005b828110156117fa57603f198886030184526117e885835161167f565b945092850192908501906001016117cc565b5092979650505050505050565b8183823760009101908152919050565b600181811c9082168061182b57607f821691505b6020821081141561184c57634e487b7160e01b600052602260045260246000fd5b50919050565b6bffffffffffffffffffffffff198460601b168152818360148301376000910160140190815292915050565b634e487b7160e01b600052602160045260246000fd5b81835281816020850137506000828201602090810191909152601f909101601f19169091010190565b67ffffffffffffffff861681526060602082015260006118e1606083018688611894565b82810360408401526118f4818587611894565b98975050505050505050565b634e487b7160e01b600052603260045260246000fd5b60008282101561193657634e487b7160e01b600052601160045260246000fd5b500390565b634e487b7160e01b600052603160045260246000fdfea26469706673582212200202585d665b329eec0bce2c4dcc8fd2ea74a77b6554483400a92a73bdb26e0764736f6c634300080b0033",
  "immutableReferences": {},
  "source": "// SPDX-License-Identifier: LGPL-3.0-only\npragma solidity 0.8.11;\nimport \"./interfaces/IBridge.sol\";\nimport \"./utils/AccessControl.sol\";\nimport \"./utils/SafeCast.sol\";\nimport \"@openzeppelin/contracts/utils/cryptography/ECDSA.sol\";\n\ncontract Signatures is AccessControl {\n    using SafeCast for *;\n    bytes32 public constant PERMIT_TYPEHASH =\n        keccak256(\n            \"PermitBridge(uint8 domainID,uint64 depositNonce,bytes32 resourceID,bytes data)\"\n        );\n    bytes32 public constant _TYPE_HASH =\n        keccak256(\n            \"EIP712Domain(string name,string version,uint256 chainId,address verifyingContract)\"\n        );\n    bytes32 public constant RELAYER_ROLE = keccak256(\"RELAYER_ROLE\");\n\n    bytes32 private _HASHED_NAME = keccak256(bytes(\"PermitBridge\"));\n    bytes32 private _HASHED_VERSION = keccak256(bytes(\"1.0\"));\n    // destinationDomainID + depositNonce => dataHash => Proposal\n    mapping(uint72 => mapping(bytes32 => IBridge.Proposal)) private _proposals;\n    // resourceID => handler address\n    mapping(bytes32 => address) public _resourceIDToHandlerAddress;\n\n    mapping(uint8 => uint8) public _relayerThreshold;\n\n    constructor() {\n        _setupRole(DEFAULT_ADMIN_ROLE, _msgSender());\n    }\n\n    modifier onlyRelayers() {\n        require(\n            hasRole(RELAYER_ROLE, _msgSender()),\n            \"sender doesn't have relayer role\"\n        );\n        _;\n    }\n\n    modifier onlyAdmin() {\n        require(\n            hasRole(DEFAULT_ADMIN_ROLE, _msgSender()),\n            \"sender doesn't have admin role\"\n        );\n        _;\n    }\n\n    function _buildDomainSeparator(\n        bytes32 typeHash,\n        bytes32 nameHash,\n        bytes32 versionHash,\n        uint256 chainId,\n        address signatureContract\n    ) private view returns (bytes32) {\n        return\n            keccak256(\n                abi.encode(\n                    typeHash,\n                    nameHash,\n                    versionHash,\n                    chainId,\n                    signatureContract\n                )\n            );\n    }\n\n    function _hashTypedDataV4(\n        bytes32 structHash,\n        uint256 chainId,\n        address signatureContract\n    ) internal view virtual returns (bytes32) {\n        return\n            ECDSA.toTypedDataHash(\n                _buildDomainSeparator(\n                    _TYPE_HASH,\n                    _HASHED_NAME,\n                    _HASHED_VERSION,\n                    chainId,\n                    signatureContract\n                ),\n                structHash\n            );\n    }\n\n    function checkSignature(\n        uint8 domainID,\n        uint8 destinationDomainID,\n        address destinationBridge,\n        uint64 depositNonce,\n        bytes32 resourceID,\n        bytes calldata data,\n        bytes calldata signature\n    ) public view returns (bool) {\n        bytes32 structHash = keccak256(\n            abi.encode(\n                PERMIT_TYPEHASH,\n                domainID,\n                depositNonce,\n                resourceID,\n                keccak256(data)\n            )\n        );\n        bytes32 hash = _hashTypedDataV4(\n            structHash,\n            uint256(destinationDomainID),\n            destinationBridge\n        );\n        address sender = ECDSA.recover(hash, signature);\n        return hasRole(RELAYER_ROLE, sender);\n    }\n\n    mapping(bytes32 => bytes[]) public signatures;\n\n    event SubmitSignature(\n        uint8 indexed originDomainID,\n        uint64 depositNonce,\n        bytes32 indexed resourceID,\n        bytes data,\n        bytes signature\n    );\n\n    event SignturePass(\n        uint8 indexed originDomainID,\n        uint64 depositNonce,\n        bytes32 indexed resourceID,\n        bytes data,\n        bytes signature\n    );\n\n    function getProposal(\n        uint8 originDomainID,\n        uint64 depositNonce,\n        bytes32 dataHash\n    ) internal view returns (IBridge.Proposal memory) {\n        uint72 nonceAndID = (uint72(depositNonce) << 8) |\n            uint72(originDomainID);\n        return _proposals[nonceAndID][dataHash];\n    }\n\n    function adminSetResource(\n        address handlerAddress,\n        bytes32 resourceID,\n        address tokenAddress\n    ) external onlyAdmin {\n        _resourceIDToHandlerAddress[resourceID] = handlerAddress;\n    }\n\n    function adminChangeRelayerThreshold(\n        uint8 destinationDomainID,\n        uint256 newThreshold\n    ) external onlyAdmin {\n        _relayerThreshold[destinationDomainID] = newThreshold.toUint8();\n    }\n\n    function submitSignature(\n        uint8 originDomainID,\n        uint8 destinationDomainID,\n        address destinationBridge,\n        uint64 depositNonce,\n        bytes32 resourceID,\n        bytes calldata data,\n        bytes calldata signature\n    ) external {\n        address handler = _resourceIDToHandlerAddress[resourceID];\n        bytes32 dataHash = keccak256(abi.encodePacked(handler, data));\n        IBridge.Proposal memory proposal = getProposal(\n            originDomainID,\n            depositNonce,\n            dataHash\n        );\n\n        require(handler != address(0), \"no handler for resourceID\");\n        require(\n            proposal._status == IBridge.ProposalStatus.Inactive,\n            \"ProposalStatus not inactive\"\n        );\n        require(\n            checkSignature(\n                originDomainID,\n                destinationDomainID,\n                destinationBridge,\n                depositNonce,\n                resourceID,\n                data,\n                signature\n            ),\n            \"invalid signature\"\n        );\n        bytes32 depositHash = keccak256(\n            abi.encode(\n                originDomainID,\n                depositNonce,\n                resourceID,\n                keccak256(data)\n            )\n        );\n        signatures[depositHash].push(signature);\n        emit SubmitSignature(\n            originDomainID,\n            depositNonce,\n            resourceID,\n            data,\n            signature\n        );\n        if (\n            signatures[depositHash].length >=\n            _relayerThreshold[destinationDomainID]\n        ) {\n            emit SignturePass(\n                originDomainID,\n                depositNonce,\n                resourceID,\n                data,\n                signature\n            );\n        }\n    }\n\n    function getSignatures(\n        uint8 domainID,\n        uint64 depositNonce,\n        bytes32 resourceID,\n        bytes calldata data\n    ) external view returns (bytes[] memory) {\n        return\n            signatures[\n                keccak256(\n                    abi.encode(\n                        domainID,\n                        depositNonce,\n                        resourceID,\n                        keccak256(data)\n                    )\n                )\n            ];\n    }\n}\n",
  "sourcePath": "/Users/cuimiandashi/Documents/GitHub/chainbridge-solidity-v2.0.0-eth/contracts/Signatures.sol",
  "compiler": {
    "name": "solc",
    "version": "0.8.11+commit.d7f03943.Emscripten.clang"
  },
  "schemaVersion": "3.4.7",
  "updatedAt": "2022-06-05T16:30:50.812Z",
  "devdoc": {
    "kind": "dev",
    "methods": {
      "getRoleAdmin(bytes32)": {
        "details": "Returns the admin role that controls `role`. See {grantRole} and {revokeRole}. To change a role's admin, use {_setRoleAdmin}."
      },
      "getRoleMember(bytes32,uint256)": {
        "details": "Returns one of the accounts that have `role`. `index` must be a value between 0 and {getRoleMemberCount}, non-inclusive. Role bearers are not sorted in any particular way, and their ordering may change at any point. WARNING: When using {getRoleMember} and {getRoleMemberCount}, make sure you perform all queries on the same block. See the following https://forum.openzeppelin.com/t/iterating-over-elements-on-enumerableset-in-openzeppelin-contracts/2296[forum post] for more information."
      },
      "getRoleMemberCount(bytes32)": {
        "details": "Returns the number of accounts that have `role`. Can be used together with {getRoleMember} to enumerate all bearers of a role."
      },
      "getRoleMemberIndex(bytes32,address)": {
        "details": "Returns the index of the account that have `role`."
      },
      "grantRole(bytes32,address)": {
        "details": "Grants `role` to `account`. If `account` had not been already granted `role`, emits a {RoleGranted} event. Requirements: - the caller must have ``role``'s admin role."
      },
      "hasRole(bytes32,address)": {
        "details": "Returns `true` if `account` has been granted `role`."
      },
      "renounceRole(bytes32,address)": {
        "details": "Revokes `role` from the calling account. Roles are often managed via {grantRole} and {revokeRole}: this function's purpose is to provide a mechanism for accounts to lose their privileges if they are compromised (such as when a trusted device is misplaced). If the calling account had been granted `role`, emits a {RoleRevoked} event. Requirements: - the caller must be `account`."
      },
      "revokeRole(bytes32,address)": {
        "details": "Revokes `role` from `account`. If `account` had been granted `role`, emits a {RoleRevoked} event. Requirements: - the caller must have ``role``'s admin role."
      }
    },
    "version": 1
  },
  "userdoc": {
    "kind": "user",
    "methods": {},
    "version": 1
  }
}