{
  "contractName": "SignaturesUpgradeable",
  "abi": [
    {
      "anonymous": false,
      "inputs": [
        {
          "indexed": false,
          "internalType": "uint8",
          "name": "version",
          "type": "uint8"
        }
      ],
      "name": "Initialized",
      "type": "event"
    },
    {
      "anonymous": false,
      "inputs": [
        {
          "indexed": false,
          "internalType": "address",
          "name": "account",
          "type": "address"
        }
      ],
      "name": "Paused",
      "type": "event"
    },
    {
      "anonymous": false,
      "inputs": [
        {
          "indexed": true,
          "internalType": "bytes32",
          "name": "role",
          "type": "bytes32"
        },
        {
          "indexed": true,
          "internalType": "address",
          "name": "account",
          "type": "address"
        },
        {
          "indexed": true,
          "internalType": "address",
          "name": "sender",
          "type": "address"
        }
      ],
      "name": "RoleGranted",
      "type": "event"
    },
    {
      "anonymous": false,
      "inputs": [
        {
          "indexed": true,
          "internalType": "bytes32",
          "name": "role",
          "type": "bytes32"
        },
        {
          "indexed": true,
          "internalType": "address",
          "name": "account",
          "type": "address"
        },
        {
          "indexed": true,
          "internalType": "address",
          "name": "sender",
          "type": "address"
        }
      ],
      "name": "RoleRevoked",
      "type": "event"
    },
    {
      "anonymous": false,
      "inputs": [
        {
          "indexed": true,
          "internalType": "uint8",
          "name": "originDomainID",
          "type": "uint8"
        },
        {
          "indexed": true,
          "internalType": "uint8",
          "name": "destinationDomainID",
          "type": "uint8"
        },
        {
          "indexed": false,
          "internalType": "uint64",
          "name": "depositNonce",
          "type": "uint64"
        },
        {
          "indexed": true,
          "internalType": "bytes32",
          "name": "resourceID",
          "type": "bytes32"
        },
        {
          "indexed": false,
          "internalType": "bytes",
          "name": "data",
          "type": "bytes"
        },
        {
          "indexed": false,
          "internalType": "bytes",
          "name": "signature",
          "type": "bytes"
        }
      ],
      "name": "SignaturePass",
      "type": "event"
    },
    {
      "anonymous": false,
      "inputs": [
        {
          "indexed": true,
          "internalType": "uint8",
          "name": "originDomainID",
          "type": "uint8"
        },
        {
          "indexed": true,
          "internalType": "uint8",
          "name": "destinationDomainID",
          "type": "uint8"
        },
        {
          "indexed": false,
          "internalType": "uint64",
          "name": "depositNonce",
          "type": "uint64"
        },
        {
          "indexed": true,
          "internalType": "bytes32",
          "name": "resourceID",
          "type": "bytes32"
        },
        {
          "indexed": false,
          "internalType": "bytes",
          "name": "data",
          "type": "bytes"
        },
        {
          "indexed": false,
          "internalType": "bytes",
          "name": "signature",
          "type": "bytes"
        }
      ],
      "name": "SubmitSignature",
      "type": "event"
    },
    {
      "anonymous": false,
      "inputs": [
        {
          "indexed": false,
          "internalType": "address",
          "name": "account",
          "type": "address"
        }
      ],
      "name": "Unpaused",
      "type": "event"
    },
    {
      "inputs": [],
      "name": "DEFAULT_ADMIN_ROLE",
      "outputs": [
        {
          "internalType": "bytes32",
          "name": "",
          "type": "bytes32"
        }
      ],
      "stateMutability": "view",
      "type": "function"
    },
    {
      "inputs": [],
      "name": "PERMIT_TYPEHASH",
      "outputs": [
        {
          "internalType": "bytes32",
          "name": "",
          "type": "bytes32"
        }
      ],
      "stateMutability": "view",
      "type": "function"
    },
    {
      "inputs": [],
      "name": "RELAYER_ROLE",
      "outputs": [
        {
          "internalType": "bytes32",
          "name": "",
          "type": "bytes32"
        }
      ],
      "stateMutability": "view",
      "type": "function"
    },
    {
      "inputs": [],
      "name": "_TYPE_HASH",
      "outputs": [
        {
          "internalType": "bytes32",
          "name": "",
          "type": "bytes32"
        }
      ],
      "stateMutability": "view",
      "type": "function"
    },
    {
      "inputs": [
        {
          "internalType": "uint8",
          "name": "",
          "type": "uint8"
        }
      ],
      "name": "_relayerThreshold",
      "outputs": [
        {
          "internalType": "uint8",
          "name": "",
          "type": "uint8"
        }
      ],
      "stateMutability": "view",
      "type": "function"
    },
    {
      "inputs": [
        {
          "internalType": "uint8",
          "name": "",
          "type": "uint8"
        }
      ],
      "name": "destChainId",
      "outputs": [
        {
          "internalType": "uint256",
          "name": "",
          "type": "uint256"
        }
      ],
      "stateMutability": "view",
      "type": "function"
    },
    {
      "inputs": [
        {
          "internalType": "uint8",
          "name": "",
          "type": "uint8"
        }
      ],
      "name": "destinationBridgeAddress",
      "outputs": [
        {
          "internalType": "address",
          "name": "",
          "type": "address"
        }
      ],
      "stateMutability": "view",
      "type": "function"
    },
    {
      "inputs": [
        {
          "internalType": "bytes32",
          "name": "role",
          "type": "bytes32"
        }
      ],
      "name": "getRoleAdmin",
      "outputs": [
        {
          "internalType": "bytes32",
          "name": "",
          "type": "bytes32"
        }
      ],
      "stateMutability": "view",
      "type": "function"
    },
    {
      "inputs": [
        {
          "internalType": "bytes32",
          "name": "role",
          "type": "bytes32"
        },
        {
          "internalType": "uint256",
          "name": "index",
          "type": "uint256"
        }
      ],
      "name": "getRoleMember",
      "outputs": [
        {
          "internalType": "address",
          "name": "",
          "type": "address"
        }
      ],
      "stateMutability": "view",
      "type": "function"
    },
    {
      "inputs": [
        {
          "internalType": "bytes32",
          "name": "role",
          "type": "bytes32"
        }
      ],
      "name": "getRoleMemberCount",
      "outputs": [
        {
          "internalType": "uint256",
          "name": "",
          "type": "uint256"
        }
      ],
      "stateMutability": "view",
      "type": "function"
    },
    {
      "inputs": [
        {
          "internalType": "bytes32",
          "name": "role",
          "type": "bytes32"
        },
        {
          "internalType": "address",
          "name": "account",
          "type": "address"
        }
      ],
      "name": "getRoleMemberIndex",
      "outputs": [
        {
          "internalType": "uint256",
          "name": "",
          "type": "uint256"
        }
      ],
      "stateMutability": "view",
      "type": "function"
    },
    {
      "inputs": [
        {
          "internalType": "bytes32",
          "name": "role",
          "type": "bytes32"
        },
        {
          "internalType": "address",
          "name": "account",
          "type": "address"
        }
      ],
      "name": "grantRole",
      "outputs": [],
      "stateMutability": "nonpayable",
      "type": "function"
    },
    {
      "inputs": [
        {
          "internalType": "bytes32",
          "name": "role",
          "type": "bytes32"
        },
        {
          "internalType": "address",
          "name": "account",
          "type": "address"
        }
      ],
      "name": "hasRole",
      "outputs": [
        {
          "internalType": "bool",
          "name": "",
          "type": "bool"
        }
      ],
      "stateMutability": "view",
      "type": "function"
    },
    {
      "inputs": [
        {
          "internalType": "bytes",
          "name": "",
          "type": "bytes"
        }
      ],
      "name": "hasVote",
      "outputs": [
        {
          "internalType": "bool",
          "name": "",
          "type": "bool"
        }
      ],
      "stateMutability": "view",
      "type": "function"
    },
    {
      "inputs": [
        {
          "internalType": "uint256",
          "name": "",
          "type": "uint256"
        }
      ],
      "name": "indexToProposal",
      "outputs": [
        {
          "internalType": "bytes32",
          "name": "",
          "type": "bytes32"
        }
      ],
      "stateMutability": "view",
      "type": "function"
    },
    {
      "inputs": [],
      "name": "paused",
      "outputs": [
        {
          "internalType": "bool",
          "name": "",
          "type": "bool"
        }
      ],
      "stateMutability": "view",
      "type": "function"
    },
    {
      "inputs": [],
      "name": "proposalIndex",
      "outputs": [
        {
          "internalType": "uint256",
          "name": "",
          "type": "uint256"
        }
      ],
      "stateMutability": "view",
      "type": "function"
    },
    {
      "inputs": [
        {
          "internalType": "bytes32",
          "name": "",
          "type": "bytes32"
        }
      ],
      "name": "proposals",
      "outputs": [
        {
          "internalType": "uint8",
          "name": "originDomainID",
          "type": "uint8"
        },
        {
          "internalType": "uint8",
          "name": "destinationDomainID",
          "type": "uint8"
        },
        {
          "internalType": "address",
          "name": "destinationBridge",
          "type": "address"
        },
        {
          "internalType": "uint64",
          "name": "depositNonce",
          "type": "uint64"
        },
        {
          "internalType": "bytes32",
          "name": "resourceID",
          "type": "bytes32"
        },
        {
          "internalType": "bytes",
          "name": "data",
          "type": "bytes"
        },
        {
          "internalType": "uint256",
          "name": "proposalIndex",
          "type": "uint256"
        }
      ],
      "stateMutability": "view",
      "type": "function"
    },
    {
      "inputs": [
        {
          "internalType": "bytes32",
          "name": "",
          "type": "bytes32"
        },
        {
          "internalType": "address",
          "name": "",
          "type": "address"
        }
      ],
      "name": "relayerVote",
      "outputs": [
        {
          "internalType": "bool",
          "name": "",
          "type": "bool"
        }
      ],
      "stateMutability": "view",
      "type": "function"
    },
    {
      "inputs": [
        {
          "internalType": "bytes32",
          "name": "role",
          "type": "bytes32"
        },
        {
          "internalType": "address",
          "name": "account",
          "type": "address"
        }
      ],
      "name": "renounceRole",
      "outputs": [],
      "stateMutability": "nonpayable",
      "type": "function"
    },
    {
      "inputs": [
        {
          "internalType": "bytes32",
          "name": "role",
          "type": "bytes32"
        },
        {
          "internalType": "address",
          "name": "account",
          "type": "address"
        }
      ],
      "name": "revokeRole",
      "outputs": [],
      "stateMutability": "nonpayable",
      "type": "function"
    },
    {
      "inputs": [
        {
          "internalType": "bytes32",
          "name": "",
          "type": "bytes32"
        },
        {
          "internalType": "uint256",
          "name": "",
          "type": "uint256"
        }
      ],
      "name": "signatures",
      "outputs": [
        {
          "internalType": "bytes",
          "name": "",
          "type": "bytes"
        }
      ],
      "stateMutability": "view",
      "type": "function"
    },
    {
      "inputs": [
        {
          "internalType": "address",
          "name": "admin",
          "type": "address"
        }
      ],
      "name": "initialize",
      "outputs": [],
      "stateMutability": "nonpayable",
      "type": "function"
    },
    {
      "inputs": [
        {
          "internalType": "uint8",
          "name": "domainID",
          "type": "uint8"
        },
        {
          "internalType": "uint8",
          "name": "destinationDomainID",
          "type": "uint8"
        },
        {
          "internalType": "address",
          "name": "destinationBridge",
          "type": "address"
        },
        {
          "internalType": "uint64",
          "name": "depositNonce",
          "type": "uint64"
        },
        {
          "internalType": "bytes32",
          "name": "resourceID",
          "type": "bytes32"
        },
        {
          "internalType": "bytes",
          "name": "data",
          "type": "bytes"
        },
        {
          "internalType": "bytes",
          "name": "signature",
          "type": "bytes"
        }
      ],
      "name": "checkSignature",
      "outputs": [
        {
          "internalType": "address",
          "name": "",
          "type": "address"
        }
      ],
      "stateMutability": "view",
      "type": "function"
    },
    {
      "inputs": [
        {
          "internalType": "uint8",
          "name": "destinationDomainID",
          "type": "uint8"
        },
        {
          "internalType": "uint256",
          "name": "newThreshold",
          "type": "uint256"
        }
      ],
      "name": "adminChangeRelayerThreshold",
      "outputs": [],
      "stateMutability": "nonpayable",
      "type": "function"
    },
    {
      "inputs": [
        {
          "internalType": "uint8",
          "name": "destinationDomainID",
          "type": "uint8"
        },
        {
          "internalType": "uint256",
          "name": "chainId",
          "type": "uint256"
        },
        {
          "internalType": "address",
          "name": "destinationBridge",
          "type": "address"
        }
      ],
      "name": "adminSetDestChainId",
      "outputs": [],
      "stateMutability": "nonpayable",
      "type": "function"
    },
    {
      "inputs": [],
      "name": "adminPause",
      "outputs": [],
      "stateMutability": "nonpayable",
      "type": "function"
    },
    {
      "inputs": [],
      "name": "adminUnpause",
      "outputs": [],
      "stateMutability": "nonpayable",
      "type": "function"
    },
    {
      "inputs": [
        {
          "internalType": "uint8",
          "name": "originDomainID",
          "type": "uint8"
        },
        {
          "internalType": "uint8",
          "name": "destinationDomainID",
          "type": "uint8"
        },
        {
          "internalType": "address",
          "name": "destinationBridge",
          "type": "address"
        },
        {
          "internalType": "uint64",
          "name": "depositNonce",
          "type": "uint64"
        },
        {
          "internalType": "bytes32",
          "name": "resourceID",
          "type": "bytes32"
        },
        {
          "internalType": "bytes",
          "name": "data",
          "type": "bytes"
        },
        {
          "internalType": "bytes",
          "name": "signature",
          "type": "bytes"
        }
      ],
      "name": "submitSignature",
      "outputs": [],
      "stateMutability": "nonpayable",
      "type": "function"
    },
    {
      "inputs": [
        {
          "internalType": "uint256",
          "name": "index",
          "type": "uint256"
        }
      ],
      "name": "getProposal",
      "outputs": [
        {
          "components": [
            {
              "internalType": "uint8",
              "name": "originDomainID",
              "type": "uint8"
            },
            {
              "internalType": "uint8",
              "name": "destinationDomainID",
              "type": "uint8"
            },
            {
              "internalType": "address",
              "name": "destinationBridge",
              "type": "address"
            },
            {
              "internalType": "uint64",
              "name": "depositNonce",
              "type": "uint64"
            },
            {
              "internalType": "bytes32",
              "name": "resourceID",
              "type": "bytes32"
            },
            {
              "internalType": "bytes",
              "name": "data",
              "type": "bytes"
            },
            {
              "internalType": "uint256",
              "name": "proposalIndex",
              "type": "uint256"
            }
          ],
          "internalType": "struct SignaturesUpgradeable.Proposal",
          "name": "",
          "type": "tuple"
        }
      ],
      "stateMutability": "view",
      "type": "function"
    },
    {
      "inputs": [
        {
          "internalType": "uint8",
          "name": "domainID",
          "type": "uint8"
        },
        {
          "internalType": "uint64",
          "name": "depositNonce",
          "type": "uint64"
        },
        {
          "internalType": "bytes32",
          "name": "resourceID",
          "type": "bytes32"
        },
        {
          "internalType": "bytes",
          "name": "data",
          "type": "bytes"
        }
      ],
      "name": "getSignatures",
      "outputs": [
        {
          "internalType": "bytes[]",
          "name": "",
          "type": "bytes[]"
        }
      ],
      "stateMutability": "view",
      "type": "function"
    },
    {
      "inputs": [
        {
          "internalType": "uint256",
          "name": "index",
          "type": "uint256"
        }
      ],
      "name": "getSignatures",
      "outputs": [
        {
          "internalType": "bytes[]",
          "name": "",
          "type": "bytes[]"
        }
      ],
      "stateMutability": "view",
      "type": "function"
    }
  ],
  "bytecode": "0x608060405234801561001057600080fd5b5061254f806100206000396000f3fe608060405234801561001057600080fd5b50600436106101f05760003560e01c806374400fd11161010f578063aa44739d116100a2578063ca15c87311610071578063ca15c8731461051a578063d547741f1461052d578063e5787a7514610540578063f4eccb8f1461056057600080fd5b8063aa44739d146104aa578063c20860af146104df578063c4d66de8146104e7578063c7f758a8146104fa57600080fd5b806391d14854116100de57806391d1485414610460578063926d7d7f1461047357806392f9c0671461049a578063a217fddf146104a257600080fd5b806374400fd1146103f15780637600c4a514610411578063861fd0431461043a5780639010d07c1461044d57600080fd5b80633640850b1161018757806350916c7c1161015657806350916c7c146103825780635977e0f2146103b05780635c975abb146103b95780635d2dab0b146103ca57600080fd5b80633640850b1461032957806336568abe1461034957806336a3a44e1461035c5780634e0df3f61461036f57600080fd5b80632f2ff15d116101c35780632f2ff15d146102b45780632fda959e146102c957806330adf81f146102dc57806332ed5b121461030357600080fd5b80630b18fec5146101f55780631f241eca14610228578063248a9ca3146102535780632703a4fd14610276575b600080fd5b610215610203366004611ea5565b60666020526000908152604090205481565b6040519081526020015b60405180910390f35b61023b610236366004611f2f565b610573565b6040516001600160a01b03909116815260200161021f565b610215610261366004611fec565b60009081526064602052604090206002015490565b6102a4610284366004612005565b606960209081526000928352604080842090915290825290205460ff1681565b604051901515815260200161021f565b6102c76102c2366004612005565b6107a4565b005b6102c76102d7366004612031565b610837565b6102157fc4cb5d35714699d6e85b9562b644e60393b418d974a5c1dd8efaadac37a142c581565b610316610311366004611fec565b61088b565b60405161021f97969594939291906120a8565b610215610337366004611fec565b606d6020526000908152604090205481565b6102c7610357366004612005565b61096b565b6102c761036a366004612104565b6109e5565b61021561037d366004612005565b610a4b565b6102a4610390366004612156565b805160208183018101805160688252928201919093012091525460ff1681565b610215606b5481565b60005462010000900460ff166102a4565b6102157f8b73c3c69bb8fe3d512ecc4cf759cc79239f7b179b0ffacaa9a75d522b39400f81565b6104046103ff366004612206565b610a78565b60405161021f9190612228565b61023b61041f366004611ea5565b606a602052600090815260409020546001600160a01b031681565b6102c7610448366004611f2f565b610b31565b61023b61045b366004612206565b610ff6565b6102a461046e366004612005565b611015565b6102157fe2b7fb3b832174769106daebcfd6d1970523240dda11281102db9363b83b0dc481565b6102c761102d565b610215600081565b6104cd6104b8366004611ea5565b60656020526000908152604090205460ff1681565b60405160ff909116815260200161021f565b6102c761105f565b6102c76104f536600461223b565b61108f565b61050d610508366004611fec565b6111a3565b60405161021f9190612256565b610215610528366004611fec565b61133a565b6102c761053b366004612005565b611351565b61055361054e3660046122d2565b6113d2565b60405161021f9190612340565b61055361056e366004611fec565b611526565b6000807fc4cb5d35714699d6e85b9562b644e60393b418d974a5c1dd8efaadac37a142c58b898989896040516105aa9291906123a2565b6040519081900381206105ed959493929160200194855260ff9390931660208501526001600160401b039190911660408401526060830152608082015260a00190565b60408051601f19818403018152918152815160209283012060ff8d1660009081526066909352908220549092506107529083901561063d5760ff8d16600090815260666020526040902054610642565b8c60ff165b604080518082018252600c81526b5065726d697442726964676560a01b6020918201528151808301835260038152620312e360ec1b9082015281517f8b73c3c69bb8fe3d512ecc4cf759cc79239f7b179b0ffacaa9a75d522b39400f818301527f058443738ec3641a3233a9f285e16671e4ad9755445580d761017e695f75052b818401527fe6bbd6277e1bf288eed5e8d1780f9a50b239e86b153736bceebccf4ea79d90b3606082015260808101939093526001600160a01b038f1660a0808501919091528251808503909101815260c08401835280519082012061190160f01b60e085015260e284015261010280840194909452815180840390940184526101229092019052815191012090565b90506107948186868080601f01602080910402602001604051908101604052809392919081815260200183838082843760009201919091525061165992505050565b9c9b505050505050505050505050565b6000828152606460205260409020600201546107c09033611015565b6108295760405162461bcd60e51b815260206004820152602f60248201527f416363657373436f6e74726f6c3a2073656e646572206d75737420626520616e60448201526e0818591b5a5b881d1bc819dc985b9d608a1b60648201526084015b60405180910390fd5b610833828261167d565b5050565b610842600033611015565b61085e5760405162461bcd60e51b8152600401610820906123b2565b610867816116d6565b60ff9283166000908152606560205260409020805460ff1916919093161790915550565b606c6020526000908152604090208054600182015460028301805460ff808516956101008604909116946201000081046001600160a01b031694600160b01b9091046001600160401b03169390926108e2906123e9565b80601f016020809104026020016040519081016040528092919081815260200182805461090e906123e9565b801561095b5780601f106109305761010080835404028352916020019161095b565b820191906000526020600020905b81548152906001019060200180831161093e57829003601f168201915b5050505050908060030154905087565b6001600160a01b03811633146109db5760405162461bcd60e51b815260206004820152602f60248201527f416363657373436f6e74726f6c3a2063616e206f6e6c792072656e6f756e636560448201526e103937b632b9903337b91039b2b63360891b6064820152608401610820565b610833828261172d565b6109f0600033611015565b610a0c5760405162461bcd60e51b8152600401610820906123b2565b60ff92909216600090815260666020908152604080832093909355606a90522080546001600160a01b0319166001600160a01b03909216919091179055565b60008281526064602090815260408083206001600160a01b03851684526001019091529020545b92915050565b60676020528160005260406000208181548110610a9457600080fd5b90600052602060002001600091509150508054610ab0906123e9565b80601f0160208091040260200160405190810160405280929190818152602001828054610adc906123e9565b8015610b295780601f10610afe57610100808354040283529160200191610b29565b820191906000526020600020905b815481529060010190602001808311610b0c57829003601f168201915b505050505081565b610b39611786565b6000610b4c8a8a8a8a8a8a8a8a8a610573565b9050610b787fe2b7fb3b832174769106daebcfd6d1970523240dda11281102db9363b83b0dc482611015565b610bb85760405162461bcd60e51b8152602060048201526011602482015270696e76616c6964207369676e617475726560781b6044820152606401610820565b60008a8a89898989604051610bce9291906123a2565b6040805191829003822060ff968716602084015294909516948101949094526001600160401b03919091166060840152608083015260a082015260c00160408051601f1981840301815291815281516020928301206000818152606984528281206001600160a01b038716825290935291205490915060ff1615610c945760405162461bcd60e51b815260206004820152601860248201527f7369676e617475726520616c6561726479207375626d697400000000000000006044820152606401610820565b60008181526069602090815260408083206001600160a01b03861684528252808320805460ff1916600117905560ff8d8116845260658352818420548585526067909352922054911611610d225760405162461bcd60e51b81526020600482015260156024820152745369676e7475726520616c6561726479207061737360581b6044820152606401610820565b60ff8a166000908152606a60205260409020546001600160a01b038a8116911614610d8f5760405162461bcd60e51b815260206004820152601960248201527f696e76616c69642064657374696e6174696f6e427269646765000000000000006044820152606401610820565b600081815260676020526040902054610f0457606b8054906000610db28361243a565b91905055506040518060e001604052808c60ff1681526020018b60ff1681526020018a6001600160a01b03168152602001896001600160401b0316815260200188815260200187878080601f01602080910402602001604051908101604052809392919081815260200183838082843760009201829052509385525050606b5460209384015250838152606c825260409081902083518154858501519386015160608701516001600160401b0316600160b01b0267ffffffffffffffff60b01b196001600160a01b0390921662010000029190911662010000600160f01b031960ff9687166101000261ffff1990941696909416959095179190911791909116929092179190911781556080830151600182015560a083015180519192610ee192600285019290910190611d86565b5060c09190910151600390910155606b546000908152606d602052604090208190555b6000818152606760209081526040822080546001810182559083529120610f2d91018585611e06565b50868a60ff168c60ff167fdbf724cd2f174f6ee6dc7d45f557ca42e3f0c483d5ac5da1317ade0e540889078b8a8a8a8a604051610f6e95949392919061247e565b60405180910390a460ff808b16600090815260656020908152604080832054858452606790925290912054911611610fe957868a60ff168c60ff167fd94e275aae893bc4cab1c14c3052a527a80ae5542ad2047e0dbe0ceeb79bee018b8a8a8a8a604051610fe095949392919061247e565b60405180910390a45b5050505050505050505050565b600082815260646020526040812061100e90836117d2565b9392505050565b600082815260646020526040812061100e90836117de565b611038600033611015565b6110545760405162461bcd60e51b8152600401610820906123b2565b61105d33611800565b565b61106a600033611015565b6110865760405162461bcd60e51b8152600401610820906123b2565b61105d33611854565b600054610100900460ff16158080156110af5750600054600160ff909116105b806110c95750303b1580156110c9575060005460ff166001145b61112c5760405162461bcd60e51b815260206004820152602e60248201527f496e697469616c697a61626c653a20636f6e747261637420697320616c72656160448201526d191e481a5b9a5d1a585b1a5e995960921b6064820152608401610820565b6000805460ff19166001179055801561114f576000805461ff0019166101001790555b61115a600083610829565b8015610833576000805461ff0019169055604051600181527f7f26b83ff96e1f2b6a682f133852f6798a09c465da95921460cefb38474024989060200160405180910390a15050565b6040805160e08101825260008082526020820181905291810182905260608082018390526080820183905260a082015260c0810191909152606b548211156112225760405162461bcd60e51b8152602060048201526012602482015271141c9bdc1bdcd85b081b9bdd08195e1a5cdd60721b6044820152606401610820565b6000828152606d60209081526040808320548352606c825291829020825160e081018452815460ff8082168352610100820416938201939093526201000083046001600160a01b031693810193909352600160b01b9091046001600160401b031660608301526001810154608083015260028101805460a0840191906112a7906123e9565b80601f01602080910402602001604051908101604052809291908181526020018280546112d3906123e9565b80156113205780601f106112f557610100808354040283529160200191611320565b820191906000526020600020905b81548152906001019060200180831161130357829003601f168201915b505050505081526020016003820154815250509050919050565b6000818152606460205260408120610a72906118a6565b60008281526064602052604090206002015461136d9033611015565b6109db5760405162461bcd60e51b815260206004820152603060248201527f416363657373436f6e74726f6c3a2073656e646572206d75737420626520616e60448201526f2061646d696e20746f207265766f6b6560801b6064820152608401610820565b60606067600087878787876040516113eb9291906123a2565b6040519081900381206114279493929160200160ff9490941684526001600160401b039290921660208401526040830152606082015260800190565b604051602081830303815290604052805190602001208152602001908152602001600020805480602002602001604051908101604052809291908181526020016000905b8282101561151757838290600052602060002001805461148a906123e9565b80601f01602080910402602001604051908101604052809291908181526020018280546114b6906123e9565b80156115035780601f106114d857610100808354040283529160200191611503565b820191906000526020600020905b8154815290600101906020018083116114e657829003601f168201915b50505050508152602001906001019061146b565b50505050905095945050505050565b6060606b5482111561156f5760405162461bcd60e51b8152602060048201526012602482015271141c9bdc1bdcd85b081b9bdd08195e1a5cdd60721b6044820152606401610820565b6000828152606d602090815260408083205483526067825280832080548251818502810185019093528083529193909284015b8282101561164e5783829060005260206000200180546115c1906123e9565b80601f01602080910402602001604051908101604052809291908181526020018280546115ed906123e9565b801561163a5780601f1061160f5761010080835404028352916020019161163a565b820191906000526020600020905b81548152906001019060200180831161161d57829003601f168201915b5050505050815260200190600101906115a2565b505050509050919050565b600080600061166885856118b0565b91509150611675816118f6565b509392505050565b60008281526064602052604090206116959082611ab4565b156108335760405133906001600160a01b0383169084907f2f8788117e7eff1d82e926ec794901d17c78024a50270940304540a733656f0d90600090a45050565b600061010082106117295760405162461bcd60e51b815260206004820152601c60248201527f76616c756520646f6573206e6f742066697420696e20382062697473000000006044820152606401610820565b5090565b60008281526064602052604090206117459082611ac9565b156108335760405133906001600160a01b0383169084907ff6391f5c32d9c69d2a47ea670b442974b53935d1edc7fd64eb21e047a839171b90600090a45050565b60005462010000900460ff161561105d5760405162461bcd60e51b815260206004820152601060248201526f14185d5cd8589b194e881c185d5cd95960821b6044820152606401610820565b600061100e8383611ade565b6001600160a01b0381166000908152600183016020526040812054151561100e565b611808611b08565b6000805462ff0000191690556040516001600160a01b03821681527f5db9ee0a495bf2e6ff9c91a7834c1ba4fdd244a5e8aa4e537bd38aeae4b073aa906020015b60405180910390a150565b61185c611786565b6000805462ff00001916620100001790556040516001600160a01b03821681527f62e78cea01bee320cd4e420270b5ea74000d11b0c9f74754ebdbfc544b05a25890602001611849565b6000610a72825490565b6000808251604114156118e75760208301516040840151606085015160001a6118db87828585611b57565b945094505050506118ef565b506000905060025b9250929050565b600081600481111561190a5761190a6124c0565b14156119135750565b6001816004811115611927576119276124c0565b14156119755760405162461bcd60e51b815260206004820152601860248201527f45434453413a20696e76616c6964207369676e617475726500000000000000006044820152606401610820565b6002816004811115611989576119896124c0565b14156119d75760405162461bcd60e51b815260206004820152601f60248201527f45434453413a20696e76616c6964207369676e6174757265206c656e677468006044820152606401610820565b60038160048111156119eb576119eb6124c0565b1415611a445760405162461bcd60e51b815260206004820152602260248201527f45434453413a20696e76616c6964207369676e6174757265202773272076616c604482015261756560f01b6064820152608401610820565b6004816004811115611a5857611a586124c0565b1415611ab15760405162461bcd60e51b815260206004820152602260248201527f45434453413a20696e76616c6964207369676e6174757265202776272076616c604482015261756560f01b6064820152608401610820565b50565b600061100e836001600160a01b038416611c44565b600061100e836001600160a01b038416611c93565b6000826000018281548110611af557611af56124d6565b9060005260206000200154905092915050565b60005462010000900460ff1661105d5760405162461bcd60e51b815260206004820152601460248201527314185d5cd8589b194e881b9bdd081c185d5cd95960621b6044820152606401610820565b6000807f7fffffffffffffffffffffffffffffff5d576e7357a4501ddfe92f46681b20a0831115611b8e5750600090506003611c3b565b8460ff16601b14158015611ba657508460ff16601c14155b15611bb75750600090506004611c3b565b6040805160008082526020820180845289905260ff881692820192909252606081018690526080810185905260019060a0016020604051602081039080840390855afa158015611c0b573d6000803e3d6000fd5b5050604051601f1901519150506001600160a01b038116611c3457600060019250925050611c3b565b9150600090505b94509492505050565b6000818152600183016020526040812054611c8b57508154600181810184556000848152602080822090930184905584548482528286019093526040902091909155610a72565b506000610a72565b60008181526001830160205260408120548015611d7c576000611cb76001836124ec565b8554909150600090611ccb906001906124ec565b9050818114611d30576000866000018281548110611ceb57611ceb6124d6565b9060005260206000200154905080876000018481548110611d0e57611d0e6124d6565b6000918252602080832090910192909255918252600188019052604090208390555b8554869080611d4157611d41612503565b600190038181906000526020600020016000905590558560010160008681526020019081526020016000206000905560019350505050610a72565b6000915050610a72565b828054611d92906123e9565b90600052602060002090601f016020900481019282611db45760008555611dfa565b82601f10611dcd57805160ff1916838001178555611dfa565b82800160010185558215611dfa579182015b82811115611dfa578251825591602001919060010190611ddf565b50611729929150611e7a565b828054611e12906123e9565b90600052602060002090601f016020900481019282611e345760008555611dfa565b82601f10611e4d5782800160ff19823516178555611dfa565b82800160010185558215611dfa579182015b82811115611dfa578235825591602001919060010190611e5f565b5b808211156117295760008155600101611e7b565b803560ff81168114611ea057600080fd5b919050565b600060208284031215611eb757600080fd5b61100e82611e8f565b80356001600160a01b0381168114611ea057600080fd5b80356001600160401b0381168114611ea057600080fd5b60008083601f840112611f0057600080fd5b5081356001600160401b03811115611f1757600080fd5b6020830191508360208285010111156118ef57600080fd5b600080600080600080600080600060e08a8c031215611f4d57600080fd5b611f568a611e8f565b9850611f6460208b01611e8f565b9750611f7260408b01611ec0565b9650611f8060608b01611ed7565b955060808a0135945060a08a01356001600160401b0380821115611fa357600080fd5b611faf8d838e01611eee565b909650945060c08c0135915080821115611fc857600080fd5b50611fd58c828d01611eee565b915080935050809150509295985092959850929598565b600060208284031215611ffe57600080fd5b5035919050565b6000806040838503121561201857600080fd5b8235915061202860208401611ec0565b90509250929050565b6000806040838503121561204457600080fd5b61204d83611e8f565b946020939093013593505050565b6000815180845260005b8181101561208157602081850181015186830182015201612065565b81811115612093576000602083870101525b50601f01601f19169290920160200192915050565b60ff8816815260ff8716602082015260018060a01b03861660408201526001600160401b038516606082015283608082015260e060a082015260006120f060e083018561205b565b90508260c083015298975050505050505050565b60008060006060848603121561211957600080fd5b61212284611e8f565b92506020840135915061213760408501611ec0565b90509250925092565b634e487b7160e01b600052604160045260246000fd5b60006020828403121561216857600080fd5b81356001600160401b038082111561217f57600080fd5b818401915084601f83011261219357600080fd5b8135818111156121a5576121a5612140565b604051601f8201601f19908116603f011681019083821181831017156121cd576121cd612140565b816040528281528760208487010111156121e657600080fd5b826020860160208301376000928101602001929092525095945050505050565b6000806040838503121561221957600080fd5b50508035926020909101359150565b60208152600061100e602083018461205b565b60006020828403121561224d57600080fd5b61100e82611ec0565b6020815260ff825116602082015260ff602083015116604082015260018060a01b0360408301511660608201526001600160401b036060830151166080820152608082015160a0820152600060a083015160e060c08401526122bc61010084018261205b565b905060c084015160e08401528091505092915050565b6000806000806000608086880312156122ea57600080fd5b6122f386611e8f565b945061230160208701611ed7565b93506040860135925060608601356001600160401b0381111561232357600080fd5b61232f88828901611eee565b969995985093965092949392505050565b6000602080830181845280855180835260408601915060408160051b870101925083870160005b8281101561239557603f1988860301845261238385835161205b565b94509285019290850190600101612367565b5092979650505050505050565b8183823760009101908152919050565b6020808252601e908201527f73656e64657220646f65736e277420686176652061646d696e20726f6c650000604082015260600190565b600181811c908216806123fd57607f821691505b6020821081141561241e57634e487b7160e01b600052602260045260246000fd5b50919050565b634e487b7160e01b600052601160045260246000fd5b600060001982141561244e5761244e612424565b5060010190565b81835281816020850137506000828201602090810191909152601f909101601f19169091010190565b6001600160401b03861681526060602082015260006124a1606083018688612455565b82810360408401526124b4818587612455565b98975050505050505050565b634e487b7160e01b600052602160045260246000fd5b634e487b7160e01b600052603260045260246000fd5b6000828210156124fe576124fe612424565b500390565b634e487b7160e01b600052603160045260246000fdfea264697066735822122077935ba434db5a8504954dc124cb1e50e9ba33692799cbaa9daccf9b42bacf8064736f6c634300080b0033",
  "immutableReferences": {},
  "source": "// SPDX-License-Identifier: LGPL-3.0-only\npragma solidity 0.8.11;\nimport \"./interfaces/IBridge.sol\";\nimport \"./utils/PausableUpgradeable.sol\";\nimport {AccessControlUpgradeable as AccessControl} from \"./utils/AccessControlUpgradeable.sol\";\nimport \"./utils/SafeCast.sol\";\nimport \"@openzeppelin/contracts-upgradeable/utils/cryptography/ECDSAUpgradeable.sol\";\n\ncontract SignaturesUpgradeable is PausableUpgradeable, AccessControl {\n    using SafeCast for *;\n    // 0xc4cb5d35714699d6e85b9562b644e60393b418d974a5c1dd8efaadac37a142c5\n    bytes32 public constant PERMIT_TYPEHASH =\n        keccak256(\n            \"PermitBridge(uint8 domainID,uint64 depositNonce,bytes32 resourceID,bytes data)\"\n        );\n    // 0x8b73c3c69bb8fe3d512ecc4cf759cc79239f7b179b0ffacaa9a75d522b39400f\n    bytes32 public constant _TYPE_HASH =\n        keccak256(\n            \"EIP712Domain(string name,string version,uint256 chainId,address verifyingContract)\"\n        );\n    bytes32 public constant RELAYER_ROLE = keccak256(\"RELAYER_ROLE\");\n    // 0x058443738ec3641a3233a9f285e16671e4ad9755445580d761017e695f75052b\n    bytes32 private constant _HASHED_NAME = keccak256(bytes(\"PermitBridge\"));\n    // 0xe6bbd6277e1bf288eed5e8d1780f9a50b239e86b153736bceebccf4ea79d90b3\n    bytes32 private constant _HASHED_VERSION = keccak256(bytes(\"1.0\"));\n\n    mapping(uint8 => uint8) public _relayerThreshold;\n    mapping(uint8 => uint256) public destChainId;\n\n    function initialize(address admin) public initializer {\n        _setupRole(DEFAULT_ADMIN_ROLE, admin);\n    }\n\n    modifier onlyAdmin() {\n        require(\n            hasRole(DEFAULT_ADMIN_ROLE, _msgSender()),\n            \"sender doesn't have admin role\"\n        );\n        _;\n    }\n\n    function _buildDomainSeparator(\n        bytes32 typeHash,\n        bytes32 nameHash,\n        bytes32 versionHash,\n        uint256 chainId,\n        address signatureContract\n    ) private pure returns (bytes32) {\n        return\n            keccak256(\n                abi.encode(\n                    typeHash,\n                    nameHash,\n                    versionHash,\n                    chainId,\n                    signatureContract\n                )\n            );\n    }\n\n    function _hashTypedDataV4(\n        bytes32 structHash,\n        uint256 chainId,\n        address signatureContract\n    ) internal view virtual returns (bytes32) {\n        return\n            ECDSAUpgradeable.toTypedDataHash(\n                _buildDomainSeparator(\n                    _TYPE_HASH,\n                    _HASHED_NAME,\n                    _HASHED_VERSION,\n                    chainId,\n                    signatureContract\n                ),\n                structHash\n            );\n    }\n\n    function checkSignature(\n        uint8 domainID,\n        uint8 destinationDomainID,\n        address destinationBridge,\n        uint64 depositNonce,\n        bytes32 resourceID,\n        bytes calldata data,\n        bytes calldata signature\n    ) public view returns (address) {\n        bytes32 structHash = keccak256(\n            abi.encode(\n                PERMIT_TYPEHASH,\n                domainID,\n                depositNonce,\n                resourceID,\n                keccak256(data)\n            )\n        );\n        bytes32 hash = _hashTypedDataV4(\n            structHash,\n            destChainId[destinationDomainID] == 0\n                ? uint256(destinationDomainID)\n                : destChainId[destinationDomainID],\n            destinationBridge\n        );\n        return ECDSAUpgradeable.recover(hash, signature);\n    }\n\n    /// @notice depositHash = keccak256(abi.encode(originDomainID,depositNonce,resourceID,keccak256(data)));\n    /// @notice depositHash => signature[]\n    mapping(bytes32 => bytes[]) public signatures;\n    /// @notice signature => bool\n    mapping(bytes => bool) public hasVote; // scrap\n    mapping(bytes32 => mapping(address => bool)) public relayerVote;\n    mapping(uint8 => address) public destinationBridgeAddress;\n\n    event SubmitSignature(\n        uint8 indexed originDomainID,\n        uint8 indexed destinationDomainID,\n        uint64 depositNonce,\n        bytes32 indexed resourceID,\n        bytes data,\n        bytes signature\n    );\n\n    event SignaturePass(\n        uint8 indexed originDomainID,\n        uint8 indexed destinationDomainID,\n        uint64 depositNonce,\n        bytes32 indexed resourceID,\n        bytes data,\n        bytes signature\n    );\n\n    function adminChangeRelayerThreshold(\n        uint8 destinationDomainID,\n        uint256 newThreshold\n    ) external onlyAdmin {\n        _relayerThreshold[destinationDomainID] = newThreshold.toUint8();\n    }\n\n    function adminSetDestChainId(\n        uint8 destinationDomainID,\n        uint256 chainId,\n        address destinationBridge\n    ) external onlyAdmin {\n        destChainId[destinationDomainID] = chainId;\n        destinationBridgeAddress[destinationDomainID] = destinationBridge;\n    }\n\n    function adminPause() external onlyAdmin {\n        _pause(_msgSender());\n    }\n\n    function adminUnpause() external onlyAdmin {\n        _unpause(_msgSender());\n    }\n\n    struct Proposal {\n        uint8 originDomainID;\n        uint8 destinationDomainID;\n        address destinationBridge;\n        uint64 depositNonce;\n        bytes32 resourceID;\n        bytes data;\n        uint256 proposalIndex;\n    }\n\n    uint256 public proposalIndex;\n    mapping(bytes32 => Proposal) public proposals;\n    mapping(uint256 => bytes32) public indexToProposal;\n\n    function submitSignature(\n        uint8 originDomainID,\n        uint8 destinationDomainID,\n        address destinationBridge,\n        uint64 depositNonce,\n        bytes32 resourceID,\n        bytes calldata data,\n        bytes calldata signature\n    ) external whenNotPaused {\n        address relayer = checkSignature(\n            originDomainID,\n            destinationDomainID,\n            destinationBridge,\n            depositNonce,\n            resourceID,\n            data,\n            signature\n        );\n        require(hasRole(RELAYER_ROLE, relayer), \"invalid signature\");\n        bytes32 depositHash = keccak256(\n            abi.encode(\n                originDomainID,\n                destinationDomainID,\n                depositNonce,\n                resourceID,\n                keccak256(data)\n            )\n        );\n        require(!relayerVote[depositHash][relayer], \"signature aleardy submit\");\n        relayerVote[depositHash][relayer] = true;\n        require(\n            signatures[depositHash].length <\n                _relayerThreshold[destinationDomainID],\n            \"Signture aleardy pass\"\n        );\n        require(\n            destinationBridgeAddress[destinationDomainID] == destinationBridge,\n            \"invalid destinationBridge\"\n        );\n        if (signatures[depositHash].length == 0) {\n            proposalIndex++;\n            proposals[depositHash] = Proposal({\n                originDomainID: originDomainID,\n                destinationDomainID: destinationDomainID,\n                destinationBridge: destinationBridge,\n                depositNonce: depositNonce,\n                resourceID: resourceID,\n                data: data,\n                proposalIndex: proposalIndex\n            });\n            indexToProposal[proposalIndex] = depositHash;\n        }\n        signatures[depositHash].push(signature);\n\n        emit SubmitSignature(\n            originDomainID,\n            destinationDomainID,\n            depositNonce,\n            resourceID,\n            data,\n            signature\n        );\n        if (\n            signatures[depositHash].length >=\n            _relayerThreshold[destinationDomainID]\n        ) {\n            emit SignaturePass(\n                originDomainID,\n                destinationDomainID,\n                depositNonce,\n                resourceID,\n                data,\n                signature\n            );\n        }\n    }\n\n    function getSignatures(\n        uint8 domainID,\n        uint64 depositNonce,\n        bytes32 resourceID,\n        bytes calldata data\n    ) external view returns (bytes[] memory) {\n        return\n            signatures[\n                keccak256(\n                    abi.encode(\n                        domainID,\n                        depositNonce,\n                        resourceID,\n                        keccak256(data)\n                    )\n                )\n            ];\n    }\n\n    function getProposal(uint256 index) public view returns (Proposal memory) {\n        require(index <= proposalIndex, \"Proposal not exist\");\n        return proposals[indexToProposal[index]];\n    }\n\n    function getSignatures(uint256 index)\n        external\n        view\n        returns (bytes[] memory)\n    {\n        require(index <= proposalIndex, \"Proposal not exist\");\n        return signatures[indexToProposal[index]];\n    }\n}\n",
  "sourcePath": "/Users/cuimiandashi/Documents/GitHub/chainbridge-solidity-v2.0.0-eth/contracts/SignaturesUpgradeable.sol",
  "compiler": {
    "name": "solc",
    "version": "0.8.11+commit.d7f03943.Emscripten.clang"
  },
  "schemaVersion": "3.4.7",
  "updatedAt": "2022-09-22T14:27:40.331Z",
  "devdoc": {
    "kind": "dev",
    "methods": {
      "getRoleAdmin(bytes32)": {
        "details": "Returns the admin role that controls `role`. See {grantRole} and {revokeRole}. To change a role's admin, use {_setRoleAdmin}."
      },
      "getRoleMember(bytes32,uint256)": {
        "details": "Returns one of the accounts that have `role`. `index` must be a value between 0 and {getRoleMemberCount}, non-inclusive. Role bearers are not sorted in any particular way, and their ordering may change at any point. WARNING: When using {getRoleMember} and {getRoleMemberCount}, make sure you perform all queries on the same block. See the following https://forum.openzeppelin.com/t/iterating-over-elements-on-enumerableset-in-openzeppelin-contracts/2296[forum post] for more information."
      },
      "getRoleMemberCount(bytes32)": {
        "details": "Returns the number of accounts that have `role`. Can be used together with {getRoleMember} to enumerate all bearers of a role."
      },
      "getRoleMemberIndex(bytes32,address)": {
        "details": "Returns the index of the account that have `role`."
      },
      "grantRole(bytes32,address)": {
        "details": "Grants `role` to `account`. If `account` had not been already granted `role`, emits a {RoleGranted} event. Requirements: - the caller must have ``role``'s admin role."
      },
      "hasRole(bytes32,address)": {
        "details": "Returns `true` if `account` has been granted `role`."
      },
      "paused()": {
        "details": "Returns true if the contract is paused, and false otherwise."
      },
      "renounceRole(bytes32,address)": {
        "details": "Revokes `role` from the calling account. Roles are often managed via {grantRole} and {revokeRole}: this function's purpose is to provide a mechanism for accounts to lose their privileges if they are compromised (such as when a trusted device is misplaced). If the calling account had been granted `role`, emits a {RoleRevoked} event. Requirements: - the caller must be `account`."
      },
      "revokeRole(bytes32,address)": {
        "details": "Revokes `role` from `account`. If `account` had been granted `role`, emits a {RoleRevoked} event. Requirements: - the caller must have ``role``'s admin role."
      }
    },
    "version": 1
  },
  "userdoc": {
    "kind": "user",
    "methods": {
      "hasVote(bytes)": {
        "notice": "signature => bool"
      },
      "signatures(bytes32,uint256)": {
        "notice": "depositHash = keccak256(abi.encode(originDomainID,depositNonce,resourceID,keccak256(data)));depositHash => signature[]"
      }
    },
    "version": 1
  }
}