{
  "_format": "hh-sol-artifact-1",
  "contractName": "ERC1155Handler",
  "sourceName": "contracts/handlers/ERC1155Handler.sol",
  "abi": [
    {
      "inputs": [
        {
          "internalType": "address",
          "name": "bridgeAddress",
          "type": "address"
        }
      ],
      "stateMutability": "nonpayable",
      "type": "constructor"
    },
    {
      "inputs": [],
      "name": "_bridgeAddress",
      "outputs": [
        {
          "internalType": "address",
          "name": "",
          "type": "address"
        }
      ],
      "stateMutability": "view",
      "type": "function"
    },
    {
      "inputs": [
        {
          "internalType": "address",
          "name": "",
          "type": "address"
        }
      ],
      "name": "_burnList",
      "outputs": [
        {
          "internalType": "bool",
          "name": "",
          "type": "bool"
        }
      ],
      "stateMutability": "view",
      "type": "function"
    },
    {
      "inputs": [
        {
          "internalType": "address",
          "name": "",
          "type": "address"
        }
      ],
      "name": "_contractWhitelist",
      "outputs": [
        {
          "internalType": "bool",
          "name": "",
          "type": "bool"
        }
      ],
      "stateMutability": "view",
      "type": "function"
    },
    {
      "inputs": [
        {
          "internalType": "bytes32",
          "name": "",
          "type": "bytes32"
        }
      ],
      "name": "_resourceIDToTokenContractAddress",
      "outputs": [
        {
          "internalType": "address",
          "name": "",
          "type": "address"
        }
      ],
      "stateMutability": "view",
      "type": "function"
    },
    {
      "inputs": [
        {
          "internalType": "address",
          "name": "",
          "type": "address"
        }
      ],
      "name": "_tokenContractAddressToResourceID",
      "outputs": [
        {
          "internalType": "bytes32",
          "name": "",
          "type": "bytes32"
        }
      ],
      "stateMutability": "view",
      "type": "function"
    },
    {
      "inputs": [
        {
          "internalType": "bytes32",
          "name": "resourceID",
          "type": "bytes32"
        },
        {
          "internalType": "address",
          "name": "depositor",
          "type": "address"
        },
        {
          "internalType": "bytes",
          "name": "data",
          "type": "bytes"
        }
      ],
      "name": "deposit",
      "outputs": [
        {
          "internalType": "bytes",
          "name": "",
          "type": "bytes"
        }
      ],
      "stateMutability": "payable",
      "type": "function"
    },
    {
      "inputs": [
        {
          "internalType": "bytes32",
          "name": "resourceID",
          "type": "bytes32"
        },
        {
          "internalType": "bytes",
          "name": "data",
          "type": "bytes"
        }
      ],
      "name": "executeProposal",
      "outputs": [],
      "stateMutability": "nonpayable",
      "type": "function"
    },
    {
      "inputs": [
        {
          "internalType": "address",
          "name": "",
          "type": "address"
        }
      ],
      "name": "isNative",
      "outputs": [
        {
          "internalType": "bool",
          "name": "",
          "type": "bool"
        }
      ],
      "stateMutability": "view",
      "type": "function"
    },
    {
      "inputs": [
        {
          "internalType": "address",
          "name": "",
          "type": "address"
        },
        {
          "internalType": "address",
          "name": "",
          "type": "address"
        },
        {
          "internalType": "uint256[]",
          "name": "",
          "type": "uint256[]"
        },
        {
          "internalType": "uint256[]",
          "name": "",
          "type": "uint256[]"
        },
        {
          "internalType": "bytes",
          "name": "",
          "type": "bytes"
        }
      ],
      "name": "onERC1155BatchReceived",
      "outputs": [
        {
          "internalType": "bytes4",
          "name": "",
          "type": "bytes4"
        }
      ],
      "stateMutability": "nonpayable",
      "type": "function"
    },
    {
      "inputs": [
        {
          "internalType": "address",
          "name": "",
          "type": "address"
        },
        {
          "internalType": "address",
          "name": "",
          "type": "address"
        },
        {
          "internalType": "uint256",
          "name": "",
          "type": "uint256"
        },
        {
          "internalType": "uint256",
          "name": "",
          "type": "uint256"
        },
        {
          "internalType": "bytes",
          "name": "",
          "type": "bytes"
        }
      ],
      "name": "onERC1155Received",
      "outputs": [
        {
          "internalType": "bytes4",
          "name": "",
          "type": "bytes4"
        }
      ],
      "stateMutability": "nonpayable",
      "type": "function"
    },
    {
      "inputs": [
        {
          "internalType": "bytes32",
          "name": "resourceID",
          "type": "bytes32"
        },
        {
          "internalType": "address",
          "name": "contractAddress",
          "type": "address"
        }
      ],
      "name": "removeResource",
      "outputs": [],
      "stateMutability": "nonpayable",
      "type": "function"
    },
    {
      "inputs": [
        {
          "internalType": "address",
          "name": "contractAddress",
          "type": "address"
        }
      ],
      "name": "setBurnable",
      "outputs": [],
      "stateMutability": "nonpayable",
      "type": "function"
    },
    {
      "inputs": [
        {
          "internalType": "address",
          "name": "nativeAddress",
          "type": "address"
        },
        {
          "internalType": "bool",
          "name": "_isNative",
          "type": "bool"
        }
      ],
      "name": "setNative",
      "outputs": [],
      "stateMutability": "nonpayable",
      "type": "function"
    },
    {
      "inputs": [
        {
          "internalType": "bytes32",
          "name": "resourceID",
          "type": "bytes32"
        },
        {
          "internalType": "address",
          "name": "contractAddress",
          "type": "address"
        }
      ],
      "name": "setResource",
      "outputs": [],
      "stateMutability": "nonpayable",
      "type": "function"
    },
    {
      "inputs": [
        {
          "internalType": "bytes4",
          "name": "interfaceId",
          "type": "bytes4"
        }
      ],
      "name": "supportsInterface",
      "outputs": [
        {
          "internalType": "bool",
          "name": "",
          "type": "bool"
        }
      ],
      "stateMutability": "view",
      "type": "function"
    },
    {
      "inputs": [
        {
          "internalType": "bytes",
          "name": "data",
          "type": "bytes"
        }
      ],
      "name": "withdraw",
      "outputs": [],
      "stateMutability": "nonpayable",
      "type": "function"
    },
    {
      "inputs": [
        {
          "internalType": "bytes",
          "name": "data",
          "type": "bytes"
        }
      ],
      "name": "withdrawETH",
      "outputs": [],
      "stateMutability": "nonpayable",
      "type": "function"
    }
  ],
  "bytecode": "0x60a060405234801561001057600080fd5b5060405161131638038061131683398101604081905261002f91610040565b6001600160a01b0316608052610070565b60006020828403121561005257600080fd5b81516001600160a01b038116811461006957600080fd5b9392505050565b608051611284610092600039600081816101da01526107a001526112846000f3fe6080604052600436106100fe5760003560e01c8063a981575111610095578063b8fa373611610064578063b8fa37361461030a578063bc197c811461032a578063c8ba6c871461036f578063e248cff2146103aa578063f23a6e61146103ca57600080fd5b8063a98157511461027c578063ab5c7bf11461029c578063b07e54bb146102ba578063b2b8b5dd146102da57600080fd5b8063318c136e116100d1578063318c136e146101c85780636a70d081146101fc578063789d77111461022c5780637f79bea81461024c57600080fd5b806301ffc9a71461010357806307b7ed99146101385780630968f2641461015a5780630a6d55d81461017a575b600080fd5b34801561010f57600080fd5b5061012361011e3660046109e6565b6103f6565b60405190151581526020015b60405180910390f35b34801561014457600080fd5b50610158610153366004610a2c565b61042d565b005b34801561016657600080fd5b50610158610175366004610b0e565b61043e565b34801561018657600080fd5b506101b0610195366004610b4b565b6000602081905290815260409020546001600160a01b031681565b6040516001600160a01b03909116815260200161012f565b3480156101d457600080fd5b506101b07f000000000000000000000000000000000000000000000000000000000000000081565b34801561020857600080fd5b50610123610217366004610a2c565b60036020526000908152604090205460ff1681565b34801561023857600080fd5b50610158610247366004610b64565b610484565b34801561025857600080fd5b50610123610267366004610a2c565b60026020526000908152604090205460ff1681565b34801561028857600080fd5b50610158610297366004610ba2565b6104b7565b3480156102a857600080fd5b506101586102b7366004610b0e565b50565b6102cd6102c8366004610c10565b610504565b60405161012f9190610cc8565b3480156102e657600080fd5b506101236102f5366004610a2c565b60046020526000908152604090205460ff1681565b34801561031657600080fd5b50610158610325366004610ba2565b610640565b34801561033657600080fd5b50610356610345366004610d65565b63bc197c8160e01b95945050505050565b6040516001600160e01b0319909116815260200161012f565b34801561037b57600080fd5b5061039c61038a366004610a2c565b60016020526000908152604090205481565b60405190815260200161012f565b3480156103b657600080fd5b506101586103c5366004610e13565b610695565b3480156103d657600080fd5b506103566103e5366004610e5f565b63f23a6e6160e01b95945050505050565b60006001600160e01b03198216630271189760e51b148061042757506301ffc9a760e01b6001600160e01b03198316145b92915050565b610435610795565b6102b78161080f565b610446610795565b6000806060806060858060200190518101906104629190610f23565b93985091965094509250905061047c8530868686866108a7565b505050505050565b61048c610795565b6001600160a01b03919091166000908152600460205260409020805460ff1916911515919091179055565b6104bf610795565b60009182526020828152604080842080546001600160a01b03191690556001600160a01b0392909216835260018152818320839055600290529020805460ff19169055565b606061050e610795565b34156105525760405162461bcd60e51b815260206004820152600e60248201526d06d73672e76616c756520213d20360941b60448201526064015b60405180910390fd5b6060806105618486018661100f565b60008981526020819052604090205491935091506001600160a01b0316806105d65760405162461bcd60e51b815260206004820152602260248201527f70726f7669646564207265736f75726365494420646f6573206e6f74206578696044820152611cdd60f21b6064820152608401610549565b6001600160a01b03811660009081526003602052604090205460ff16156106085761060381888585610918565b610625565b6106258188308686604051806020016040528060008152506108a7565b50506040805160008152602081019091529695505050505050565b610648610795565b60008281526020818152604080832080546001600160a01b0319166001600160a01b039590951694851790559282526001808252838320949094556002905220805460ff19169091179055565b61069d610795565b60608080806106ae85870187611073565b60208083015160008d81528083526040808220546001600160a01b031680835260029094529020549599509397509195509350909160ff166107435760405162461bcd60e51b815260206004820152602860248201527f70726f766964656420746f6b656e41646472657373206973206e6f74207768696044820152671d195b1a5cdd195960c21b6064820152608401610549565b6001600160a01b03811660009081526003602052604090205460ff161561077957610774818360601c888887610978565b61078a565b61078a81308460601c8989886108a7565b505050505050505050565b336001600160a01b037f0000000000000000000000000000000000000000000000000000000000000000161461080d5760405162461bcd60e51b815260206004820152601e60248201527f73656e646572206d7573742062652062726964676520636f6e747261637400006044820152606401610549565b565b6001600160a01b03811660009081526002602052604090205460ff166108835760405162461bcd60e51b8152602060048201526024808201527f70726f766964656420636f6e7472616374206973206e6f742077686974656c696044820152631cdd195960e21b6064820152608401610549565b6001600160a01b03166000908152600360205260409020805460ff19166001179055565b604051631759616b60e11b815286906001600160a01b03821690632eb2c2d6906108dd908990899089908990899060040161115b565b600060405180830381600087803b1580156108f757600080fd5b505af115801561090b573d6000803e3d6000fd5b5050505050505050505050565b604051631ac8311560e21b815284906001600160a01b03821690636b20c4549061094a908790879087906004016111b9565b600060405180830381600087803b15801561096457600080fd5b505af115801561078a573d6000803e3d6000fd5b604051630fbfeffd60e11b815285906001600160a01b03821690631f7fdffa906109ac9088908890889088906004016111f9565b600060405180830381600087803b1580156109c657600080fd5b505af11580156109da573d6000803e3d6000fd5b50505050505050505050565b6000602082840312156109f857600080fd5b81356001600160e01b031981168114610a1057600080fd5b9392505050565b6001600160a01b03811681146102b757600080fd5b600060208284031215610a3e57600080fd5b8135610a1081610a17565b634e487b7160e01b600052604160045260246000fd5b604051601f8201601f1916810167ffffffffffffffff81118282101715610a8857610a88610a49565b604052919050565b600067ffffffffffffffff821115610aaa57610aaa610a49565b50601f01601f191660200190565b600082601f830112610ac957600080fd5b8135610adc610ad782610a90565b610a5f565b818152846020838601011115610af157600080fd5b816020850160208301376000918101602001919091529392505050565b600060208284031215610b2057600080fd5b813567ffffffffffffffff811115610b3757600080fd5b610b4384828501610ab8565b949350505050565b600060208284031215610b5d57600080fd5b5035919050565b60008060408385031215610b7757600080fd5b8235610b8281610a17565b915060208301358015158114610b9757600080fd5b809150509250929050565b60008060408385031215610bb557600080fd5b823591506020830135610b9781610a17565b60008083601f840112610bd957600080fd5b50813567ffffffffffffffff811115610bf157600080fd5b602083019150836020828501011115610c0957600080fd5b9250929050565b60008060008060608587031215610c2657600080fd5b843593506020850135610c3881610a17565b9250604085013567ffffffffffffffff811115610c5457600080fd5b610c6087828801610bc7565b95989497509550505050565b60005b83811015610c87578181015183820152602001610c6f565b83811115610c96576000848401525b50505050565b60008151808452610cb4816020860160208601610c6c565b601f01601f19169290920160200192915050565b602081526000610a106020830184610c9c565b600067ffffffffffffffff821115610cf557610cf5610a49565b5060051b60200190565b600082601f830112610d1057600080fd5b81356020610d20610ad783610cdb565b82815260059290921b84018101918181019086841115610d3f57600080fd5b8286015b84811015610d5a5780358352918301918301610d43565b509695505050505050565b600080600080600060a08688031215610d7d57600080fd5b8535610d8881610a17565b94506020860135610d9881610a17565b9350604086013567ffffffffffffffff80821115610db557600080fd5b610dc189838a01610cff565b94506060880135915080821115610dd757600080fd5b610de389838a01610cff565b93506080880135915080821115610df957600080fd5b50610e0688828901610ab8565b9150509295509295909350565b600080600060408486031215610e2857600080fd5b83359250602084013567ffffffffffffffff811115610e4657600080fd5b610e5286828701610bc7565b9497909650939450505050565b600080600080600060a08688031215610e7757600080fd5b8535610e8281610a17565b94506020860135610e9281610a17565b93506040860135925060608601359150608086013567ffffffffffffffff811115610ebc57600080fd5b610e0688828901610ab8565b600082601f830112610ed957600080fd5b81516020610ee9610ad783610cdb565b82815260059290921b84018101918181019086841115610f0857600080fd5b8286015b84811015610d5a5780518352918301918301610f0c565b600080600080600060a08688031215610f3b57600080fd5b8551610f4681610a17565b6020870151909550610f5781610a17565b604087015190945067ffffffffffffffff80821115610f7557600080fd5b610f8189838a01610ec8565b94506060880151915080821115610f9757600080fd5b610fa389838a01610ec8565b93506080880151915080821115610fb957600080fd5b508601601f81018813610fcb57600080fd5b8051610fd9610ad782610a90565b818152896020838501011115610fee57600080fd5b610fff826020830160208601610c6c565b8093505050509295509295909350565b6000806040838503121561102257600080fd5b823567ffffffffffffffff8082111561103a57600080fd5b61104686838701610cff565b9350602085013591508082111561105c57600080fd5b5061106985828601610cff565b9150509250929050565b6000806000806080858703121561108957600080fd5b843567ffffffffffffffff808211156110a157600080fd5b6110ad88838901610cff565b955060208701359150808211156110c357600080fd5b6110cf88838901610cff565b945060408701359150808211156110e557600080fd5b6110f188838901610ab8565b9350606087013591508082111561110757600080fd5b5061111487828801610ab8565b91505092959194509250565b600081518084526020808501945080840160005b8381101561115057815187529582019590820190600101611134565b509495945050505050565b6001600160a01b0386811682528516602082015260a06040820181905260009061118790830186611120565b82810360608401526111998186611120565b905082810360808401526111ad8185610c9c565b98975050505050505050565b6001600160a01b03841681526060602082018190526000906111dd90830185611120565b82810360408401526111ef8185611120565b9695505050505050565b6001600160a01b038516815260806020820181905260009061121d90830186611120565b828103604084015261122f8186611120565b905082810360608401526112438185610c9c565b97965050505050505056fea2646970667358221220a3fc0874f5acc781af8d67d3bc174eb701662240130a632442b286f7e609026164736f6c634300080b0033",
  "linkReferences": {},
  "deployedLinkReferences": {}
}